{"abi":[{"type":"constructor","inputs":[{"name":"_factory","type":"address","internalType":"address"}],"stateMutability":"nonpayable"},{"type":"function","name":"exactInputSingle","inputs":[{"name":"params","type":"tuple","internalType":"struct MockDex.ExactInputSingleParams","components":[{"name":"tokenIn","type":"address","internalType":"address"},{"name":"tokenOut","type":"address","internalType":"address"},{"name":"fee","type":"uint24","internalType":"uint24"},{"name":"recipient","type":"address","internalType":"address"},{"name":"deadline","type":"uint256","internalType":"uint256"},{"name":"amountIn","type":"uint256","internalType":"uint256"},{"name":"amountOutMinimum","type":"uint256","internalType":"uint256"},{"name":"sqrtPriceLimitX96","type":"uint160","internalType":"uint160"}]}],"outputs":[{"name":"amountOut","type":"uint256","internalType":"uint256"}],"stateMutability":"payable"},{"type":"function","name":"factory","inputs":[],"outputs":[{"name":"","type":"address","internalType":"address"}],"stateMutability":"view"},{"type":"function","name":"owner","inputs":[],"outputs":[{"name":"","type":"address","internalType":"address"}],"stateMutability":"view"},{"type":"function","name":"renounceOwnership","inputs":[],"outputs":[],"stateMutability":"nonpayable"},{"type":"function","name":"setFactory","inputs":[{"name":"_factory","type":"address","internalType":"address"}],"outputs":[],"stateMutability":"nonpayable"},{"type":"function","name":"tokenCalculator","inputs":[{"name":"_tokenIn","type":"address","internalType":"address"},{"name":"_tokenOut","type":"address","internalType":"address"},{"name":"_amountIn","type":"uint256","internalType":"uint256"},{"name":"_tokenInPrice","type":"address","internalType":"address"},{"name":"_tokenOutPrice","type":"address","internalType":"address"}],"outputs":[{"name":"","type":"uint256","internalType":"uint256"}],"stateMutability":"view"},{"type":"function","name":"transferOwnership","inputs":[{"name":"newOwner","type":"address","internalType":"address"}],"outputs":[],"stateMutability":"nonpayable"},{"type":"event","name":"ExactInputSingle","inputs":[{"name":"tokenIn","type":"address","indexed":true,"internalType":"address"},{"name":"tokenOut","type":"address","indexed":true,"internalType":"address"},{"name":"amountIn","type":"uint256","indexed":false,"internalType":"uint256"},{"name":"amountOut","type":"uint256","indexed":false,"internalType":"uint256"},{"name":"amountOutMinimum","type":"uint256","indexed":false,"internalType":"uint256"}],"anonymous":false},{"type":"event","name":"OwnershipTransferred","inputs":[{"name":"previousOwner","type":"address","indexed":true,"internalType":"address"},{"name":"newOwner","type":"address","indexed":true,"internalType":"address"}],"anonymous":false},{"type":"error","name":"OwnableInvalidOwner","inputs":[{"name":"owner","type":"address","internalType":"address"}]},{"type":"error","name":"OwnableUnauthorizedAccount","inputs":[{"name":"account","type":"address","internalType":"address"}]},{"type":"error","name":"ReentrancyGuardReentrantCall","inputs":[]}],"bytecode":{"object":"0x608060405234801561000f575f5ffd5b506040516114963803806114968339818101604052810190610031919061021e565b335f73ffffffffffffffffffffffffffffffffffffffff168173ffffffffffffffffffffffffffffffffffffffff16036100a2575f6040517f1e4fbdf70000000000000000000000000000000000000000000000000000000081526004016100999190610258565b60405180910390fd5b6100b1816100ff60201b60201c565b50600180819055508060025f6101000a81548173ffffffffffffffffffffffffffffffffffffffff021916908373ffffffffffffffffffffffffffffffffffffffff16021790555050610271565b5f5f5f9054906101000a900473ffffffffffffffffffffffffffffffffffffffff169050815f5f6101000a81548173ffffffffffffffffffffffffffffffffffffffff021916908373ffffffffffffffffffffffffffffffffffffffff1602179055508173ffffffffffffffffffffffffffffffffffffffff168173ffffffffffffffffffffffffffffffffffffffff167f8be0079c531659141344cd1fd0a4f28419497f9722a3daafe3b4186f6b6457e060405160405180910390a35050565b5f5ffd5b5f73ffffffffffffffffffffffffffffffffffffffff82169050919050565b5f6101ed826101c4565b9050919050565b6101fd816101e3565b8114610207575f5ffd5b50565b5f81519050610218816101f4565b92915050565b5f60208284031215610233576102326101c0565b5b5f6102408482850161020a565b91505092915050565b610252816101e3565b82525050565b5f60208201905061026b5f830184610249565b92915050565b6112188061027e5f395ff3fe60806040526004361061006f575f3560e01c80638da5cb5b1161004d5780638da5cb5b146100e1578063c45a01551461010b578063dd9103cb14610135578063f2fde38b146101715761006f565b8063414bf389146100735780635bb47808146100a3578063715018a6146100cb575b5f5ffd5b61008d60048036038101906100889190610c25565b610199565b60405161009a9190610c60565b60405180910390f35b3480156100ae575f5ffd5b506100c960048036038101906100c49190610c79565b6104e2565b005b3480156100d6575f5ffd5b506100df61052d565b005b3480156100ec575f5ffd5b506100f5610540565b6040516101029190610cb3565b60405180910390f35b348015610116575f5ffd5b5061011f610567565b60405161012c9190610cb3565b60405180910390f35b348015610140575f5ffd5b5061015b60048036038101906101569190610ccc565b61058c565b6040516101689190610c60565b60405180910390f35b34801561017c575f5ffd5b5061019760048036038101906101929190610c79565b6107b4565b005b5f6101a2610838565b815f015173ffffffffffffffffffffffffffffffffffffffff166323b872dd33308560a001516040518463ffffffff1660e01b81526004016101e693929190610d43565b6020604051808303815f875af1158015610202573d5f5f3e3d5ffd5b505050506040513d601f19601f820116820180604052508101906102269190610dad565b505f60025f9054906101000a900473ffffffffffffffffffffffffffffffffffffffff1673ffffffffffffffffffffffffffffffffffffffff16631d43335a845f01516040518263ffffffff1660e01b81526004016102859190610cb3565b602060405180830381865afa1580156102a0573d5f5f3e3d5ffd5b505050506040513d601f19601f820116820180604052508101906102c49190610dec565b90505f60025f9054906101000a900473ffffffffffffffffffffffffffffffffffffffff1673ffffffffffffffffffffffffffffffffffffffff16631d43335a85602001516040518263ffffffff1660e01b81526004016103259190610cb3565b602060405180830381865afa158015610340573d5f5f3e3d5ffd5b505050506040513d601f19601f820116820180604052508101906103649190610dec565b905061037e845f015185602001518660a00151858561058c565b9250835f015173ffffffffffffffffffffffffffffffffffffffff16639dc29fac308660a001516040518363ffffffff1660e01b81526004016103c2929190610e17565b5f604051808303815f87803b1580156103d9575f5ffd5b505af11580156103eb573d5f5f3e3d5ffd5b50505050836020015173ffffffffffffffffffffffffffffffffffffffff166340c10f1933856040518363ffffffff1660e01b815260040161042e929190610e17565b5f604051808303815f87803b158015610445575f5ffd5b505af1158015610457573d5f5f3e3d5ffd5b50505050836020015173ffffffffffffffffffffffffffffffffffffffff16845f015173ffffffffffffffffffffffffffffffffffffffff167f6d3106fb9a4770f8ce677e36534356fbd0ac0691d706c35ab5f56db8a41331378660a00151868860c001516040516104cb93929190610e3e565b60405180910390a350506104dd61087e565b919050565b6104ea610887565b8060025f6101000a81548173ffffffffffffffffffffffffffffffffffffffff021916908373ffffffffffffffffffffffffffffffffffffffff16021790555050565b610535610887565b61053e5f61090e565b565b5f5f5f9054906101000a900473ffffffffffffffffffffffffffffffffffffffff16905090565b60025f9054906101000a900473ffffffffffffffffffffffffffffffffffffffff1681565b5f5f8673ffffffffffffffffffffffffffffffffffffffff1663313ce5676040518163ffffffff1660e01b8152600401602060405180830381865afa1580156105d7573d5f5f3e3d5ffd5b505050506040513d601f19601f820116820180604052508101906105fb9190610ea9565b60ff1690505f8673ffffffffffffffffffffffffffffffffffffffff1663313ce5676040518163ffffffff1660e01b8152600401602060405180830381865afa15801561064a573d5f5f3e3d5ffd5b505050506040513d601f19601f8201168201806040525081019061066e9190610ea9565b60ff1690505f8573ffffffffffffffffffffffffffffffffffffffff1663feaf968c6040518163ffffffff1660e01b815260040160a060405180830381865afa1580156106bd573d5f5f3e3d5ffd5b505050506040513d601f19601f820116820180604052508101906106e19190610f27565b5050509150505f8573ffffffffffffffffffffffffffffffffffffffff1663feaf968c6040518163ffffffff1660e01b815260040160a060405180830381865afa158015610731573d5f5f3e3d5ffd5b505050506040513d601f19601f820116820180604052508101906107559190610f27565b5050509150505f84600a61076991906110fa565b8285600a61077791906110fa565b856107829190611144565b61078c91906111b2565b8a6107979190611144565b6107a191906111b2565b9050809550505050505095945050505050565b6107bc610887565b5f73ffffffffffffffffffffffffffffffffffffffff168173ffffffffffffffffffffffffffffffffffffffff160361082c575f6040517f1e4fbdf70000000000000000000000000000000000000000000000000000000081526004016108239190610cb3565b60405180910390fd5b6108358161090e565b50565b600260015403610874576040517f3ee5aeb500000000000000000000000000000000000000000000000000000000815260040160405180910390fd5b6002600181905550565b60018081905550565b61088f6109cf565b73ffffffffffffffffffffffffffffffffffffffff166108ad610540565b73ffffffffffffffffffffffffffffffffffffffff161461090c576108d06109cf565b6040517f118cdaa70000000000000000000000000000000000000000000000000000000081526004016109039190610cb3565b60405180910390fd5b565b5f5f5f9054906101000a900473ffffffffffffffffffffffffffffffffffffffff169050815f5f6101000a81548173ffffffffffffffffffffffffffffffffffffffff021916908373ffffffffffffffffffffffffffffffffffffffff1602179055508173ffffffffffffffffffffffffffffffffffffffff168173ffffffffffffffffffffffffffffffffffffffff167f8be0079c531659141344cd1fd0a4f28419497f9722a3daafe3b4186f6b6457e060405160405180910390a35050565b5f33905090565b5f604051905090565b5f5ffd5b5f5ffd5b5f601f19601f8301169050919050565b7f4e487b71000000000000000000000000000000000000000000000000000000005f52604160045260245ffd5b610a2d826109e7565b810181811067ffffffffffffffff82111715610a4c57610a4b6109f7565b5b80604052505050565b5f610a5e6109d6565b9050610a6a8282610a24565b919050565b5f73ffffffffffffffffffffffffffffffffffffffff82169050919050565b5f610a9882610a6f565b9050919050565b610aa881610a8e565b8114610ab2575f5ffd5b50565b5f81359050610ac381610a9f565b92915050565b5f62ffffff82169050919050565b610ae081610ac9565b8114610aea575f5ffd5b50565b5f81359050610afb81610ad7565b92915050565b5f819050919050565b610b1381610b01565b8114610b1d575f5ffd5b50565b5f81359050610b2e81610b0a565b92915050565b610b3d81610a6f565b8114610b47575f5ffd5b50565b5f81359050610b5881610b34565b92915050565b5f6101008284031215610b7457610b736109e3565b5b610b7f610100610a55565b90505f610b8e84828501610ab5565b5f830152506020610ba184828501610ab5565b6020830152506040610bb584828501610aed565b6040830152506060610bc984828501610ab5565b6060830152506080610bdd84828501610b20565b60808301525060a0610bf184828501610b20565b60a08301525060c0610c0584828501610b20565b60c08301525060e0610c1984828501610b4a565b60e08301525092915050565b5f6101008284031215610c3b57610c3a6109df565b5b5f610c4884828501610b5e565b91505092915050565b610c5a81610b01565b82525050565b5f602082019050610c735f830184610c51565b92915050565b5f60208284031215610c8e57610c8d6109df565b5b5f610c9b84828501610ab5565b91505092915050565b610cad81610a8e565b82525050565b5f602082019050610cc65f830184610ca4565b92915050565b5f5f5f5f5f60a08688031215610ce557610ce46109df565b5b5f610cf288828901610ab5565b9550506020610d0388828901610ab5565b9450506040610d1488828901610b20565b9350506060610d2588828901610ab5565b9250506080610d3688828901610ab5565b9150509295509295909350565b5f606082019050610d565f830186610ca4565b610d636020830185610ca4565b610d706040830184610c51565b949350505050565b5f8115159050919050565b610d8c81610d78565b8114610d96575f5ffd5b50565b5f81519050610da781610d83565b92915050565b5f60208284031215610dc257610dc16109df565b5b5f610dcf84828501610d99565b91505092915050565b5f81519050610de681610a9f565b92915050565b5f60208284031215610e0157610e006109df565b5b5f610e0e84828501610dd8565b91505092915050565b5f604082019050610e2a5f830185610ca4565b610e376020830184610c51565b9392505050565b5f606082019050610e515f830186610c51565b610e5e6020830185610c51565b610e6b6040830184610c51565b949350505050565b5f60ff82169050919050565b610e8881610e73565b8114610e92575f5ffd5b50565b5f81519050610ea381610e7f565b92915050565b5f60208284031215610ebe57610ebd6109df565b5b5f610ecb84828501610e95565b91505092915050565b5f69ffffffffffffffffffff82169050919050565b610ef281610ed4565b8114610efc575f5ffd5b50565b5f81519050610f0d81610ee9565b92915050565b5f81519050610f2181610b0a565b92915050565b5f5f5f5f5f60a08688031215610f4057610f3f6109df565b5b5f610f4d88828901610eff565b9550506020610f5e88828901610f13565b9450506040610f6f88828901610f13565b9350506060610f8088828901610f13565b9250506080610f9188828901610eff565b9150509295509295909350565b7f4e487b71000000000000000000000000000000000000000000000000000000005f52601160045260245ffd5b5f8160011c9050919050565b5f5f8291508390505b600185111561102057808604811115610ffc57610ffb610f9e565b5b600185161561100b5780820291505b808102905061101985610fcb565b9450610fe0565b94509492505050565b5f8261103857600190506110f3565b81611045575f90506110f3565b816001811461105b576002811461106557611094565b60019150506110f3565b60ff84111561107757611076610f9e565b5b8360020a91508482111561108e5761108d610f9e565b5b506110f3565b5060208310610133831016604e8410600b84101617156110c95782820a9050838111156110c4576110c3610f9e565b5b6110f3565b6110d68484846001610fd7565b925090508184048111156110ed576110ec610f9e565b5b81810290505b9392505050565b5f61110482610b01565b915061110f83610b01565b925061113c7fffffffffffffffffffffffffffffffffffffffffffffffffffffffffffffffff8484611029565b905092915050565b5f61114e82610b01565b915061115983610b01565b925082820261116781610b01565b9150828204841483151761117e5761117d610f9e565b5b5092915050565b7f4e487b71000000000000000000000000000000000000000000000000000000005f52601260045260245ffd5b5f6111bc82610b01565b91506111c783610b01565b9250826111d7576111d6611185565b5b82820490509291505056fea2646970667358221220c4c5eccee26e4c8afa65efed106c3151715bd4489e03d2a420571e0492cba97764736f6c634300081e0033","linkReferences":{}},"methodIdentifiers":{"exactInputSingle((address,address,uint24,address,uint256,uint256,uint256,uint160))":"414bf389","factory()":"c45a0155","owner()":"8da5cb5b","renounceOwnership()":"715018a6","setFactory(address)":"5bb47808","tokenCalculator(address,address,uint256,address,address)":"dd9103cb","transferOwnership(address)":"f2fde38b"},"id":139}