{"abi":[{"type":"constructor","inputs":[{"name":"_factory","type":"address","internalType":"address"}],"stateMutability":"nonpayable"},{"type":"function","name":"exactInputSingle","inputs":[{"name":"params","type":"tuple","internalType":"struct MockDex.ExactInputSingleParams","components":[{"name":"tokenIn","type":"address","internalType":"address"},{"name":"tokenOut","type":"address","internalType":"address"},{"name":"fee","type":"uint24","internalType":"uint24"},{"name":"recipient","type":"address","internalType":"address"},{"name":"deadline","type":"uint256","internalType":"uint256"},{"name":"amountIn","type":"uint256","internalType":"uint256"},{"name":"amountOutMinimum","type":"uint256","internalType":"uint256"},{"name":"sqrtPriceLimitX96","type":"uint160","internalType":"uint160"}]}],"outputs":[{"name":"amountOut","type":"uint256","internalType":"uint256"}],"stateMutability":"payable"},{"type":"function","name":"factory","inputs":[],"outputs":[{"name":"","type":"address","internalType":"address"}],"stateMutability":"view"},{"type":"function","name":"owner","inputs":[],"outputs":[{"name":"","type":"address","internalType":"address"}],"stateMutability":"view"},{"type":"function","name":"renounceOwnership","inputs":[],"outputs":[],"stateMutability":"nonpayable"},{"type":"function","name":"setFactory","inputs":[{"name":"_factory","type":"address","internalType":"address"}],"outputs":[],"stateMutability":"nonpayable"},{"type":"function","name":"tokenCalculator","inputs":[{"name":"_tokenIn","type":"address","internalType":"address"},{"name":"_tokenOut","type":"address","internalType":"address"},{"name":"_amountIn","type":"uint256","internalType":"uint256"}],"outputs":[{"name":"","type":"uint256","internalType":"uint256"}],"stateMutability":"view"},{"type":"function","name":"transferOwnership","inputs":[{"name":"newOwner","type":"address","internalType":"address"}],"outputs":[],"stateMutability":"nonpayable"},{"type":"event","name":"ExactInputSingle","inputs":[{"name":"tokenIn","type":"address","indexed":true,"internalType":"address"},{"name":"tokenOut","type":"address","indexed":true,"internalType":"address"},{"name":"amountIn","type":"uint256","indexed":false,"internalType":"uint256"},{"name":"amountOut","type":"uint256","indexed":false,"internalType":"uint256"},{"name":"amountOutMinimum","type":"uint256","indexed":false,"internalType":"uint256"}],"anonymous":false},{"type":"event","name":"OwnershipTransferred","inputs":[{"name":"previousOwner","type":"address","indexed":true,"internalType":"address"},{"name":"newOwner","type":"address","indexed":true,"internalType":"address"}],"anonymous":false},{"type":"error","name":"OwnableInvalidOwner","inputs":[{"name":"owner","type":"address","internalType":"address"}]},{"type":"error","name":"OwnableUnauthorizedAccount","inputs":[{"name":"account","type":"address","internalType":"address"}]},{"type":"error","name":"ReentrancyGuardReentrantCall","inputs":[]}],"bytecode":{"object":"0x608060405234801561000f575f5ffd5b5060405161137e38038061137e8339818101604052810190610031919061021e565b335f73ffffffffffffffffffffffffffffffffffffffff168173ffffffffffffffffffffffffffffffffffffffff16036100a2575f6040517f1e4fbdf70000000000000000000000000000000000000000000000000000000081526004016100999190610258565b60405180910390fd5b6100b1816100ff60201b60201c565b50600180819055508060025f6101000a81548173ffffffffffffffffffffffffffffffffffffffff021916908373ffffffffffffffffffffffffffffffffffffffff16021790555050610271565b5f5f5f9054906101000a900473ffffffffffffffffffffffffffffffffffffffff169050815f5f6101000a81548173ffffffffffffffffffffffffffffffffffffffff021916908373ffffffffffffffffffffffffffffffffffffffff1602179055508173ffffffffffffffffffffffffffffffffffffffff168173ffffffffffffffffffffffffffffffffffffffff167f8be0079c531659141344cd1fd0a4f28419497f9722a3daafe3b4186f6b6457e060405160405180910390a35050565b5f5ffd5b5f73ffffffffffffffffffffffffffffffffffffffff82169050919050565b5f6101ed826101c4565b9050919050565b6101fd816101e3565b8114610207575f5ffd5b50565b5f81519050610218816101f4565b92915050565b5f60208284031215610233576102326101c0565b5b5f6102408482850161020a565b91505092915050565b610252816101e3565b82525050565b5f60208201905061026b5f830184610249565b92915050565b6111008061027e5f395ff3fe60806040526004361061006f575f3560e01c8063764014081161004d57806376401408146100e15780638da5cb5b1461011d578063c45a015514610147578063f2fde38b146101715761006f565b8063414bf389146100735780635bb47808146100a3578063715018a6146100cb575b5f5ffd5b61008d60048036038101906100889190610b34565b610199565b60405161009a9190610b6f565b60405180910390f35b3480156100ae575f5ffd5b506100c960048036038101906100c49190610b88565b61039f565b005b3480156100d6575f5ffd5b506100df6103ea565b005b3480156100ec575f5ffd5b5061010760048036038101906101029190610bb3565b6103fd565b6040516101149190610b6f565b60405180910390f35b348015610128575f5ffd5b50610131610553565b60405161013e9190610c12565b60405180910390f35b348015610152575f5ffd5b5061015b61057a565b6040516101689190610c12565b60405180910390f35b34801561017c575f5ffd5b5061019760048036038101906101929190610b88565b61059f565b005b5f6101a2610623565b815f015173ffffffffffffffffffffffffffffffffffffffff166323b872dd33308560a001516040518463ffffffff1660e01b81526004016101e693929190610c2b565b6020604051808303815f875af1158015610202573d5f5f3e3d5ffd5b505050506040513d601f19601f820116820180604052508101906102269190610c95565b5061023d825f015183602001518460a001516103fd565b9050815f015173ffffffffffffffffffffffffffffffffffffffff16639dc29fac308460a001516040518363ffffffff1660e01b8152600401610281929190610cc0565b5f604051808303815f87803b158015610298575f5ffd5b505af11580156102aa573d5f5f3e3d5ffd5b50505050816020015173ffffffffffffffffffffffffffffffffffffffff166340c10f1933836040518363ffffffff1660e01b81526004016102ed929190610cc0565b5f604051808303815f87803b158015610304575f5ffd5b505af1158015610316573d5f5f3e3d5ffd5b50505050816020015173ffffffffffffffffffffffffffffffffffffffff16825f015173ffffffffffffffffffffffffffffffffffffffff167f6d3106fb9a4770f8ce677e36534356fbd0ac0691d706c35ab5f56db8a41331378460a00151848660c0015160405161038a93929190610ce7565b60405180910390a361039a610669565b919050565b6103a7610672565b8060025f6101000a81548173ffffffffffffffffffffffffffffffffffffffff021916908373ffffffffffffffffffffffffffffffffffffffff16021790555050565b6103f2610672565b6103fb5f6106f9565b565b5f5f8473ffffffffffffffffffffffffffffffffffffffff1663313ce5676040518163ffffffff1660e01b8152600401602060405180830381865afa158015610448573d5f5f3e3d5ffd5b505050506040513d601f19601f8201168201806040525081019061046c9190610d52565b60ff1690505f8473ffffffffffffffffffffffffffffffffffffffff1663313ce5676040518163ffffffff1660e01b8152600401602060405180830381865afa1580156104bb573d5f5f3e3d5ffd5b505050506040513d601f19601f820116820180604052508101906104df9190610d52565b60ff1690505f6104ee876107ba565b90505f6104fa876107ba565b90505f84600a61050a9190610ed9565b8285600a6105189190610ed9565b856105239190610f23565b61052d9190610f91565b886105389190610f23565b6105429190610f91565b905080955050505050509392505050565b5f5f5f9054906101000a900473ffffffffffffffffffffffffffffffffffffffff16905090565b60025f9054906101000a900473ffffffffffffffffffffffffffffffffffffffff1681565b6105a7610672565b5f73ffffffffffffffffffffffffffffffffffffffff168173ffffffffffffffffffffffffffffffffffffffff1603610617575f6040517f1e4fbdf700000000000000000000000000000000000000000000000000000000815260040161060e9190610c12565b60405180910390fd5b610620816106f9565b50565b60026001540361065f576040517f3ee5aeb500000000000000000000000000000000000000000000000000000000815260040160405180910390fd5b6002600181905550565b60018081905550565b61067a61084a565b73ffffffffffffffffffffffffffffffffffffffff16610698610553565b73ffffffffffffffffffffffffffffffffffffffff16146106f7576106bb61084a565b6040517f118cdaa70000000000000000000000000000000000000000000000000000000081526004016106ee9190610c12565b60405180910390fd5b565b5f5f5f9054906101000a900473ffffffffffffffffffffffffffffffffffffffff169050815f5f6101000a81548173ffffffffffffffffffffffffffffffffffffffff021916908373ffffffffffffffffffffffffffffffffffffffff1602179055508173ffffffffffffffffffffffffffffffffffffffff168173ffffffffffffffffffffffffffffffffffffffff167f8be0079c531659141344cd1fd0a4f28419497f9722a3daafe3b4186f6b6457e060405160405180910390a35050565b5f5f6107c4610851565b73ffffffffffffffffffffffffffffffffffffffff1663a13cc76a846040518263ffffffff1660e01b81526004016107fc9190610c12565b60a060405180830381865afa158015610817573d5f5f3e3d5ffd5b505050506040513d601f19601f8201168201806040525081019061083b9190611014565b50505091505080915050919050565b5f33905090565b5f60025f9054906101000a900473ffffffffffffffffffffffffffffffffffffffff1673ffffffffffffffffffffffffffffffffffffffff166375b568a66040518163ffffffff1660e01b8152600401602060405180830381865afa1580156108bc573d5f5f3e3d5ffd5b505050506040513d601f19601f820116820180604052508101906108e0919061109f565b905090565b5f604051905090565b5f5ffd5b5f5ffd5b5f601f19601f8301169050919050565b7f4e487b71000000000000000000000000000000000000000000000000000000005f52604160045260245ffd5b61093c826108f6565b810181811067ffffffffffffffff8211171561095b5761095a610906565b5b80604052505050565b5f61096d6108e5565b90506109798282610933565b919050565b5f73ffffffffffffffffffffffffffffffffffffffff82169050919050565b5f6109a78261097e565b9050919050565b6109b78161099d565b81146109c1575f5ffd5b50565b5f813590506109d2816109ae565b92915050565b5f62ffffff82169050919050565b6109ef816109d8565b81146109f9575f5ffd5b50565b5f81359050610a0a816109e6565b92915050565b5f819050919050565b610a2281610a10565b8114610a2c575f5ffd5b50565b5f81359050610a3d81610a19565b92915050565b610a4c8161097e565b8114610a56575f5ffd5b50565b5f81359050610a6781610a43565b92915050565b5f6101008284031215610a8357610a826108f2565b5b610a8e610100610964565b90505f610a9d848285016109c4565b5f830152506020610ab0848285016109c4565b6020830152506040610ac4848285016109fc565b6040830152506060610ad8848285016109c4565b6060830152506080610aec84828501610a2f565b60808301525060a0610b0084828501610a2f565b60a08301525060c0610b1484828501610a2f565b60c08301525060e0610b2884828501610a59565b60e08301525092915050565b5f6101008284031215610b4a57610b496108ee565b5b5f610b5784828501610a6d565b91505092915050565b610b6981610a10565b82525050565b5f602082019050610b825f830184610b60565b92915050565b5f60208284031215610b9d57610b9c6108ee565b5b5f610baa848285016109c4565b91505092915050565b5f5f5f60608486031215610bca57610bc96108ee565b5b5f610bd7868287016109c4565b9350506020610be8868287016109c4565b9250506040610bf986828701610a2f565b9150509250925092565b610c0c8161099d565b82525050565b5f602082019050610c255f830184610c03565b92915050565b5f606082019050610c3e5f830186610c03565b610c4b6020830185610c03565b610c586040830184610b60565b949350505050565b5f8115159050919050565b610c7481610c60565b8114610c7e575f5ffd5b50565b5f81519050610c8f81610c6b565b92915050565b5f60208284031215610caa57610ca96108ee565b5b5f610cb784828501610c81565b91505092915050565b5f604082019050610cd35f830185610c03565b610ce06020830184610b60565b9392505050565b5f606082019050610cfa5f830186610b60565b610d076020830185610b60565b610d146040830184610b60565b949350505050565b5f60ff82169050919050565b610d3181610d1c565b8114610d3b575f5ffd5b50565b5f81519050610d4c81610d28565b92915050565b5f60208284031215610d6757610d666108ee565b5b5f610d7484828501610d3e565b91505092915050565b7f4e487b71000000000000000000000000000000000000000000000000000000005f52601160045260245ffd5b5f8160011c9050919050565b5f5f8291508390505b6001851115610dff57808604811115610ddb57610dda610d7d565b5b6001851615610dea5780820291505b8081029050610df885610daa565b9450610dbf565b94509492505050565b5f82610e175760019050610ed2565b81610e24575f9050610ed2565b8160018114610e3a5760028114610e4457610e73565b6001915050610ed2565b60ff841115610e5657610e55610d7d565b5b8360020a915084821115610e6d57610e6c610d7d565b5b50610ed2565b5060208310610133831016604e8410600b8410161715610ea85782820a905083811115610ea357610ea2610d7d565b5b610ed2565b610eb58484846001610db6565b92509050818404811115610ecc57610ecb610d7d565b5b81810290505b9392505050565b5f610ee382610a10565b9150610eee83610a10565b9250610f1b7fffffffffffffffffffffffffffffffffffffffffffffffffffffffffffffffff8484610e08565b905092915050565b5f610f2d82610a10565b9150610f3883610a10565b9250828202610f4681610a10565b91508282048414831517610f5d57610f5c610d7d565b5b5092915050565b7f4e487b71000000000000000000000000000000000000000000000000000000005f52601260045260245ffd5b5f610f9b82610a10565b9150610fa683610a10565b925082610fb657610fb5610f64565b5b828204905092915050565b5f69ffffffffffffffffffff82169050919050565b610fdf81610fc1565b8114610fe9575f5ffd5b50565b5f81519050610ffa81610fd6565b92915050565b5f8151905061100e81610a19565b92915050565b5f5f5f5f5f60a0868803121561102d5761102c6108ee565b5b5f61103a88828901610fec565b955050602061104b88828901611000565b945050604061105c88828901611000565b935050606061106d88828901611000565b925050608061107e88828901610fec565b9150509295509295909350565b5f81519050611099816109ae565b92915050565b5f602082840312156110b4576110b36108ee565b5b5f6110c18482850161108b565b9150509291505056fea2646970667358221220637ffdee79aa28431ffcb3e8d41b02c981524829b03a5bff73387378d2bcb18d64736f6c634300081e0033","linkReferences":{}},"methodIdentifiers":{"exactInputSingle((address,address,uint24,address,uint256,uint256,uint256,uint160))":"414bf389","factory()":"c45a0155","owner()":"8da5cb5b","renounceOwnership()":"715018a6","setFactory(address)":"5bb47808","tokenCalculator(address,address,uint256)":"76401408","transferOwnership(address)":"f2fde38b"},"id":127}