{"abi":[{"type":"constructor","inputs":[{"name":"_endpoint","type":"address","internalType":"address"},{"name":"_owner","type":"address","internalType":"address"}],"stateMutability":"nonpayable"},{"type":"function","name":"SEND","inputs":[],"outputs":[{"name":"","type":"uint16","internalType":"uint16"}],"stateMutability":"view"},{"type":"function","name":"allowInitializePath","inputs":[{"name":"origin","type":"tuple","internalType":"struct Origin","components":[{"name":"srcEid","type":"uint32","internalType":"uint32"},{"name":"sender","type":"bytes32","internalType":"bytes32"},{"name":"nonce","type":"uint64","internalType":"uint64"}]}],"outputs":[{"name":"","type":"bool","internalType":"bool"}],"stateMutability":"view"},{"type":"function","name":"combineOptions","inputs":[{"name":"_eid","type":"uint32","internalType":"uint32"},{"name":"_msgType","type":"uint16","internalType":"uint16"},{"name":"_extraOptions","type":"bytes","internalType":"bytes"}],"outputs":[{"name":"","type":"bytes","internalType":"bytes"}],"stateMutability":"view"},{"type":"function","name":"endpoint","inputs":[],"outputs":[{"name":"","type":"address","internalType":"contract ILayerZeroEndpointV2"}],"stateMutability":"view"},{"type":"function","name":"enforcedOptions","inputs":[{"name":"eid","type":"uint32","internalType":"uint32"},{"name":"msgType","type":"uint16","internalType":"uint16"}],"outputs":[{"name":"enforcedOption","type":"bytes","internalType":"bytes"}],"stateMutability":"view"},{"type":"function","name":"isComposeMsgSender","inputs":[{"name":"","type":"tuple","internalType":"struct Origin","components":[{"name":"srcEid","type":"uint32","internalType":"uint32"},{"name":"sender","type":"bytes32","internalType":"bytes32"},{"name":"nonce","type":"uint64","internalType":"uint64"}]},{"name":"","type":"bytes","internalType":"bytes"},{"name":"_sender","type":"address","internalType":"address"}],"outputs":[{"name":"","type":"bool","internalType":"bool"}],"stateMutability":"view"},{"type":"function","name":"lastMessage","inputs":[],"outputs":[{"name":"","type":"string","internalType":"string"}],"stateMutability":"view"},{"type":"function","name":"lzReceive","inputs":[{"name":"_origin","type":"tuple","internalType":"struct Origin","components":[{"name":"srcEid","type":"uint32","internalType":"uint32"},{"name":"sender","type":"bytes32","internalType":"bytes32"},{"name":"nonce","type":"uint64","internalType":"uint64"}]},{"name":"_guid","type":"bytes32","internalType":"bytes32"},{"name":"_message","type":"bytes","internalType":"bytes"},{"name":"_executor","type":"address","internalType":"address"},{"name":"_extraData","type":"bytes","internalType":"bytes"}],"outputs":[],"stateMutability":"payable"},{"type":"function","name":"nextNonce","inputs":[{"name":"","type":"uint32","internalType":"uint32"},{"name":"","type":"bytes32","internalType":"bytes32"}],"outputs":[{"name":"nonce","type":"uint64","internalType":"uint64"}],"stateMutability":"view"},{"type":"function","name":"oAppVersion","inputs":[],"outputs":[{"name":"senderVersion","type":"uint64","internalType":"uint64"},{"name":"receiverVersion","type":"uint64","internalType":"uint64"}],"stateMutability":"pure"},{"type":"function","name":"owner","inputs":[],"outputs":[{"name":"","type":"address","internalType":"address"}],"stateMutability":"view"},{"type":"function","name":"peers","inputs":[{"name":"eid","type":"uint32","internalType":"uint32"}],"outputs":[{"name":"peer","type":"bytes32","internalType":"bytes32"}],"stateMutability":"view"},{"type":"function","name":"quoteSendString","inputs":[{"name":"_dstEid","type":"uint32","internalType":"uint32"},{"name":"_string","type":"string","internalType":"string"},{"name":"_options","type":"bytes","internalType":"bytes"},{"name":"_payInLzToken","type":"bool","internalType":"bool"}],"outputs":[{"name":"fee","type":"tuple","internalType":"struct MessagingFee","components":[{"name":"nativeFee","type":"uint256","internalType":"uint256"},{"name":"lzTokenFee","type":"uint256","internalType":"uint256"}]}],"stateMutability":"view"},{"type":"function","name":"renounceOwnership","inputs":[],"outputs":[],"stateMutability":"nonpayable"},{"type":"function","name":"sendString","inputs":[{"name":"_dstEid","type":"uint32","internalType":"uint32"},{"name":"_string","type":"string","internalType":"string"},{"name":"_options","type":"bytes","internalType":"bytes"}],"outputs":[],"stateMutability":"payable"},{"type":"function","name":"setDelegate","inputs":[{"name":"_delegate","type":"address","internalType":"address"}],"outputs":[],"stateMutability":"nonpayable"},{"type":"function","name":"setEnforcedOptions","inputs":[{"name":"_enforcedOptions","type":"tuple[]","internalType":"struct EnforcedOptionParam[]","components":[{"name":"eid","type":"uint32","internalType":"uint32"},{"name":"msgType","type":"uint16","internalType":"uint16"},{"name":"options","type":"bytes","internalType":"bytes"}]}],"outputs":[],"stateMutability":"nonpayable"},{"type":"function","name":"setPeer","inputs":[{"name":"_eid","type":"uint32","internalType":"uint32"},{"name":"_peer","type":"bytes32","internalType":"bytes32"}],"outputs":[],"stateMutability":"nonpayable"},{"type":"function","name":"transferOwnership","inputs":[{"name":"newOwner","type":"address","internalType":"address"}],"outputs":[],"stateMutability":"nonpayable"},{"type":"event","name":"EnforcedOptionSet","inputs":[{"name":"_enforcedOptions","type":"tuple[]","indexed":false,"internalType":"struct EnforcedOptionParam[]","components":[{"name":"eid","type":"uint32","internalType":"uint32"},{"name":"msgType","type":"uint16","internalType":"uint16"},{"name":"options","type":"bytes","internalType":"bytes"}]}],"anonymous":false},{"type":"event","name":"OwnershipTransferred","inputs":[{"name":"previousOwner","type":"address","indexed":true,"internalType":"address"},{"name":"newOwner","type":"address","indexed":true,"internalType":"address"}],"anonymous":false},{"type":"event","name":"PeerSet","inputs":[{"name":"eid","type":"uint32","indexed":false,"internalType":"uint32"},{"name":"peer","type":"bytes32","indexed":false,"internalType":"bytes32"}],"anonymous":false},{"type":"error","name":"InvalidDelegate","inputs":[]},{"type":"error","name":"InvalidEndpointCall","inputs":[]},{"type":"error","name":"InvalidOptions","inputs":[{"name":"options","type":"bytes","internalType":"bytes"}]},{"type":"error","name":"LzTokenUnavailable","inputs":[]},{"type":"error","name":"NoPeer","inputs":[{"name":"eid","type":"uint32","internalType":"uint32"}]},{"type":"error","name":"NotEnoughNative","inputs":[{"name":"msgValue","type":"uint256","internalType":"uint256"}]},{"type":"error","name":"OnlyEndpoint","inputs":[{"name":"addr","type":"address","internalType":"address"}]},{"type":"error","name":"OnlyPeer","inputs":[{"name":"eid","type":"uint32","internalType":"uint32"},{"name":"sender","type":"bytes32","internalType":"bytes32"}]},{"type":"error","name":"OwnableInvalidOwner","inputs":[{"name":"owner","type":"address","internalType":"address"}]},{"type":"error","name":"OwnableUnauthorizedAccount","inputs":[{"name":"account","type":"address","internalType":"address"}]},{"type":"error","name":"SafeERC20FailedOperation","inputs":[{"name":"token","type":"address","internalType":"address"}]}],"bytecode":{"object":"0x60a060405234801561000f575f5ffd5b50604051612f0e380380612f0e833981810160405281019061003191906102e1565b81818181845f73ffffffffffffffffffffffffffffffffffffffff168173ffffffffffffffffffffffffffffffffffffffff16036100a6575f6040517f1e4fbdf700000000000000000000000000000000000000000000000000000000815260040161009d919061032e565b60405180910390fd5b6100b5816101c260201b60201c565b508173ffffffffffffffffffffffffffffffffffffffff1660808173ffffffffffffffffffffffffffffffffffffffff16815250505f73ffffffffffffffffffffffffffffffffffffffff168173ffffffffffffffffffffffffffffffffffffffff160361014f576040517fb586360400000000000000000000000000000000000000000000000000000000815260040160405180910390fd5b60805173ffffffffffffffffffffffffffffffffffffffff1663ca5eb5e1826040518263ffffffff1660e01b815260040161018a919061032e565b5f604051808303815f87803b1580156101a1575f5ffd5b505af11580156101b3573d5f5f3e3d5ffd5b50505050505050505050610347565b5f5f5f9054906101000a900473ffffffffffffffffffffffffffffffffffffffff169050815f5f6101000a81548173ffffffffffffffffffffffffffffffffffffffff021916908373ffffffffffffffffffffffffffffffffffffffff1602179055508173ffffffffffffffffffffffffffffffffffffffff168173ffffffffffffffffffffffffffffffffffffffff167f8be0079c531659141344cd1fd0a4f28419497f9722a3daafe3b4186f6b6457e060405160405180910390a35050565b5f5ffd5b5f73ffffffffffffffffffffffffffffffffffffffff82169050919050565b5f6102b082610287565b9050919050565b6102c0816102a6565b81146102ca575f5ffd5b50565b5f815190506102db816102b7565b92915050565b5f5f604083850312156102f7576102f6610283565b5b5f610304858286016102cd565b9250506020610315858286016102cd565b9150509250929050565b610328816102a6565b82525050565b5f6020820190506103415f83018461031f565b92915050565b608051612b856103895f395f81816104950152818161075401528181610a3601528181610d86015281816110a5015281816111d301526112cb0152612b855ff3fe608060405260043610610113575f3560e01c80637d25a05e1161009f578063bc70b35411610063578063bc70b35414610378578063ca5eb5e1146103b4578063d3b4866e146103dc578063f2fde38b14610418578063ff7bd03d1461044057610113565b80637d25a05e1461027257806382413eac146102ae5780638da5cb5b146102ea578063b98bd07014610314578063bb0b6a531461033c57610113565b80633400288b116100e65780633400288b146101b257806336ef9620146101da5780635535d461146101f65780635e280f1114610232578063715018a61461025c57610113565b806313137d651461011757806317442b70146101335780631f5e13341461015e5780633297071014610188575b5f5ffd5b610131600480360381019061012c919061159b565b61047c565b005b34801561013e575f5ffd5b5061014761059c565b604051610155929190611674565b60405180910390f35b348015610169575f5ffd5b506101726105aa565b60405161017f91906116b7565b60405180910390f35b348015610193575f5ffd5b5061019c6105af565b6040516101a99190611740565b60405180910390f35b3480156101bd575f5ffd5b506101d860048036038101906101d39190611799565b61063b565b005b6101f460048036038101906101ef919061182c565b610651565b005b348015610201575f5ffd5b5061021c600480360381019061021791906118e7565b6106ac565b6040516102299190611977565b60405180910390f35b34801561023d575f5ffd5b50610246610752565b60405161025391906119f2565b60405180910390f35b348015610267575f5ffd5b50610270610776565b005b34801561027d575f5ffd5b5061029860048036038101906102939190611799565b610789565b6040516102a59190611a0b565b60405180910390f35b3480156102b9575f5ffd5b506102d460048036038101906102cf9190611a24565b610793565b6040516102e19190611aaf565b60405180910390f35b3480156102f5575f5ffd5b506102fe6107cd565b60405161030b9190611ad7565b60405180910390f35b34801561031f575f5ffd5b5061033a60048036038101906103359190611b45565b6107f4565b005b348015610347575f5ffd5b50610362600480360381019061035d9190611b90565b610815565b60405161036f9190611bca565b60405180910390f35b348015610383575f5ffd5b5061039e60048036038101906103999190611be3565b61082a565b6040516103ab9190611977565b60405180910390f35b3480156103bf575f5ffd5b506103da60048036038101906103d59190611c54565b610a2c565b005b3480156103e7575f5ffd5b5061040260048036038101906103fd9190611ca9565b610abd565b60405161040f9190611d91565b60405180910390f35b348015610423575f5ffd5b5061043e60048036038101906104399190611c54565b610b0f565b005b34801561044b575f5ffd5b5061046660048036038101906104619190611daa565b610b93565b6040516104739190611aaf565b60405180910390f35b3373ffffffffffffffffffffffffffffffffffffffff167f000000000000000000000000000000000000000000000000000000000000000073ffffffffffffffffffffffffffffffffffffffff161461050c57336040517f91ac5e4f0000000000000000000000000000000000000000000000000000000081526004016105039190611ad7565b60405180910390fd5b866020013561052b885f0160208101906105269190611b90565b610bd0565b1461058457865f0160208101906105429190611b90565b87602001356040517fc26bebcc00000000000000000000000000000000000000000000000000000000815260040161057b929190611de4565b60405180910390fd5b61059387878787878787610c41565b50505050505050565b5f5f60016002915091509091565b600181565b600380546105bc90611e38565b80601f01602080910402602001604051908101604052809291908181526020018280546105e890611e38565b80156106335780601f1061060a57610100808354040283529160200191610633565b820191905f5260205f20905b81548152906001019060200180831161061657829003601f168201915b505050505081565b610643610c6d565b61064d8282610cf4565b5050565b5f8484604051602001610665929190611ea2565b60405160208183030381529060405290506106a38682610688896001888861082a565b60405180604001604052803481526020015f81525033610d53565b50505050505050565b6002602052815f5260405f20602052805f5260405f205f915091505080546106d390611e38565b80601f01602080910402602001604051908101604052809291908181526020018280546106ff90611e38565b801561074a5780601f106107215761010080835404028352916020019161074a565b820191905f5260205f20905b81548152906001019060200180831161072d57829003601f168201915b505050505081565b7f000000000000000000000000000000000000000000000000000000000000000081565b61077e610c6d565b6107875f610e69565b565b5f5f905092915050565b5f3073ffffffffffffffffffffffffffffffffffffffff168273ffffffffffffffffffffffffffffffffffffffff16149050949350505050565b5f5f5f9054906101000a900473ffffffffffffffffffffffffffffffffffffffff16905090565b6107fc610c6d565b61081182829061080c9190612114565b610f2a565b5050565b6001602052805f5260405f205f915090505481565b60605f60025f8763ffffffff1663ffffffff1681526020019081526020015f205f8661ffff1661ffff1681526020019081526020015f20805461086c90611e38565b80601f016020809104026020016040519081016040528092919081815260200182805461089890611e38565b80156108e35780601f106108ba576101008083540402835291602001916108e3565b820191905f5260205f20905b8154815290600101906020018083116108c657829003601f168201915b505050505090505f81510361093e5783838080601f0160208091040260200160405190810160405280939291908181526020018383808284375f81840152601f19601f82011690508083019250505050505050915050610a24565b5f84849050036109515780915050610a24565b600284849050106109e5576109a884848080601f0160208091040260200160405190810160405280939291908181526020018383808284375f81840152601f19601f82011690508083019250505050505050611042565b80848460029080926109bc93929190612130565b6040516020016109ce939291906121c8565b604051602081830303815290604052915050610a24565b83836040517f9a6d49cd000000000000000000000000000000000000000000000000000000008152600401610a1b929190612219565b60405180910390fd5b949350505050565b610a34610c6d565b7f000000000000000000000000000000000000000000000000000000000000000073ffffffffffffffffffffffffffffffffffffffff1663ca5eb5e1826040518263ffffffff1660e01b8152600401610a8d9190611ad7565b5f604051808303815f87803b158015610aa4575f5ffd5b505af1158015610ab6573d5f5f3e3d5ffd5b5050505050565b610ac5611433565b5f8686604051602001610ad9929190611ea2565b6040516020818303038152906040529050610b028882610afc8b60018a8a61082a565b8661109b565b9150509695505050505050565b610b17610c6d565b5f73ffffffffffffffffffffffffffffffffffffffff168173ffffffffffffffffffffffffffffffffffffffff1603610b87575f6040517f1e4fbdf7000000000000000000000000000000000000000000000000000000008152600401610b7e9190611ad7565b60405180910390fd5b610b9081610e69565b50565b5f816020013560015f845f016020810190610bae9190611b90565b63ffffffff1663ffffffff1681526020019081526020015f2054149050919050565b5f5f60015f8463ffffffff1663ffffffff1681526020019081526020015f205490505f5f1b8103610c3857826040517ff6ff4fb7000000000000000000000000000000000000000000000000000000008152600401610c2f919061223b565b60405180910390fd5b80915050919050565b5f8585810190610c5191906122f2565b90508060039081610c6291906124d0565b505050505050505050565b610c7561117c565b73ffffffffffffffffffffffffffffffffffffffff16610c936107cd565b73ffffffffffffffffffffffffffffffffffffffff1614610cf257610cb661117c565b6040517f118cdaa7000000000000000000000000000000000000000000000000000000008152600401610ce99190611ad7565b60405180910390fd5b565b8060015f8463ffffffff1663ffffffff1681526020019081526020015f20819055507f238399d427b947898edb290f5ff0f9109849b1c3ba196a42e35f00c50a54b98b8282604051610d47929190611de4565b60405180910390a15050565b610d5b61144b565b5f610d68845f0151611183565b90505f84602001511115610d8457610d8384602001516111d0565b5b7f000000000000000000000000000000000000000000000000000000000000000073ffffffffffffffffffffffffffffffffffffffff16632637a450826040518060a001604052808b63ffffffff168152602001610de18c610bd0565b81526020018a81526020018981526020015f8960200151111515815250866040518463ffffffff1660e01b8152600401610e1c92919061268e565b60806040518083038185885af1158015610e38573d5f5f3e3d5ffd5b50505050506040513d601f19601f82011682018060405250810190610e5d91906127d2565b91505095945050505050565b5f5f5f9054906101000a900473ffffffffffffffffffffffffffffffffffffffff169050815f5f6101000a81548173ffffffffffffffffffffffffffffffffffffffff021916908373ffffffffffffffffffffffffffffffffffffffff1602179055508173ffffffffffffffffffffffffffffffffffffffff168173ffffffffffffffffffffffffffffffffffffffff167f8be0079c531659141344cd1fd0a4f28419497f9722a3daafe3b4186f6b6457e060405160405180910390a35050565b5f5f90505b815181101561100757610f5f828281518110610f4e57610f4d6127fd565b5b602002602001015160400151611042565b818181518110610f7257610f716127fd565b5b60200260200101516040015160025f848481518110610f9457610f936127fd565b5b60200260200101515f015163ffffffff1663ffffffff1681526020019081526020015f205f848481518110610fcc57610fcb6127fd565b5b60200260200101516020015161ffff1661ffff1681526020019081526020015f209081610ff99190612882565b508080600101915050610f2f565b507fbe4864a8e820971c0247f5992e2da559595f7bf076a21cb5928d443d2a13b674816040516110379190612a68565b60405180910390a150565b5f60028201519050600361ffff168161ffff161461109757816040517f9a6d49cd00000000000000000000000000000000000000000000000000000000815260040161108e9190611977565b60405180910390fd5b5050565b6110a3611433565b7f000000000000000000000000000000000000000000000000000000000000000073ffffffffffffffffffffffffffffffffffffffff1663ddc28c586040518060a001604052808863ffffffff1681526020016110ff89610bd0565b8152602001878152602001868152602001851515815250306040518363ffffffff1660e01b815260040161113492919061268e565b6040805180830381865afa15801561114e573d5f5f3e3d5ffd5b505050506040513d601f19601f820116820180604052508101906111729190612a88565b9050949350505050565b5f33905090565b5f8134146111c857346040517f9f7041200000000000000000000000000000000000000000000000000000000081526004016111bf9190612ac2565b60405180910390fd5b819050919050565b5f7f000000000000000000000000000000000000000000000000000000000000000073ffffffffffffffffffffffffffffffffffffffff1663e4fe1d946040518163ffffffff1660e01b8152600401602060405180830381865afa15801561123a573d5f5f3e3d5ffd5b505050506040513d601f19601f8201168201806040525081019061125e9190612aef565b90505f73ffffffffffffffffffffffffffffffffffffffff168173ffffffffffffffffffffffffffffffffffffffff16036112c5576040517f5373352a00000000000000000000000000000000000000000000000000000000815260040160405180910390fd5b611312337f0000000000000000000000000000000000000000000000000000000000000000848473ffffffffffffffffffffffffffffffffffffffff16611316909392919063ffffffff16565b5050565b611392848573ffffffffffffffffffffffffffffffffffffffff166323b872dd86868660405160240161134b93929190612b1a565b604051602081830303815290604052915060e01b6020820180517bffffffffffffffffffffffffffffffffffffffffffffffffffffffff8381831617835250505050611398565b50505050565b5f5f60205f8451602086015f885af1806113b7576040513d5f823e3d81fd5b3d92505f519150505f82146113d05760018114156113eb565b5f8473ffffffffffffffffffffffffffffffffffffffff163b145b1561142d57836040517f5274afe70000000000000000000000000000000000000000000000000000000081526004016114249190611ad7565b60405180910390fd5b50505050565b60405180604001604052805f81526020015f81525090565b60405180606001604052805f81526020015f67ffffffffffffffff168152602001611474611433565b81525090565b5f604051905090565b5f5ffd5b5f5ffd5b5f5ffd5b5f606082840312156114a4576114a361148b565b5b81905092915050565b5f819050919050565b6114bf816114ad565b81146114c9575f5ffd5b50565b5f813590506114da816114b6565b92915050565b5f5ffd5b5f5ffd5b5f5ffd5b5f5f83601f840112611501576115006114e0565b5b8235905067ffffffffffffffff81111561151e5761151d6114e4565b5b60208301915083600182028301111561153a576115396114e8565b5b9250929050565b5f73ffffffffffffffffffffffffffffffffffffffff82169050919050565b5f61156a82611541565b9050919050565b61157a81611560565b8114611584575f5ffd5b50565b5f8135905061159581611571565b92915050565b5f5f5f5f5f5f5f60e0888a0312156115b6576115b5611483565b5b5f6115c38a828b0161148f565b97505060606115d48a828b016114cc565b965050608088013567ffffffffffffffff8111156115f5576115f4611487565b5b6116018a828b016114ec565b955095505060a06116148a828b01611587565b93505060c088013567ffffffffffffffff81111561163557611634611487565b5b6116418a828b016114ec565b925092505092959891949750929550565b5f67ffffffffffffffff82169050919050565b61166e81611652565b82525050565b5f6040820190506116875f830185611665565b6116946020830184611665565b9392505050565b5f61ffff82169050919050565b6116b18161169b565b82525050565b5f6020820190506116ca5f8301846116a8565b92915050565b5f81519050919050565b5f82825260208201905092915050565b8281835e5f83830152505050565b5f601f19601f8301169050919050565b5f611712826116d0565b61171c81856116da565b935061172c8185602086016116ea565b611735816116f8565b840191505092915050565b5f6020820190508181035f8301526117588184611708565b905092915050565b5f63ffffffff82169050919050565b61177881611760565b8114611782575f5ffd5b50565b5f813590506117938161176f565b92915050565b5f5f604083850312156117af576117ae611483565b5b5f6117bc85828601611785565b92505060206117cd858286016114cc565b9150509250929050565b5f5f83601f8401126117ec576117eb6114e0565b5b8235905067ffffffffffffffff811115611809576118086114e4565b5b602083019150836001820283011115611825576118246114e8565b5b9250929050565b5f5f5f5f5f6060868803121561184557611844611483565b5b5f61185288828901611785565b955050602086013567ffffffffffffffff81111561187357611872611487565b5b61187f888289016117d7565b9450945050604086013567ffffffffffffffff8111156118a2576118a1611487565b5b6118ae888289016114ec565b92509250509295509295909350565b6118c68161169b565b81146118d0575f5ffd5b50565b5f813590506118e1816118bd565b92915050565b5f5f604083850312156118fd576118fc611483565b5b5f61190a85828601611785565b925050602061191b858286016118d3565b9150509250929050565b5f81519050919050565b5f82825260208201905092915050565b5f61194982611925565b611953818561192f565b93506119638185602086016116ea565b61196c816116f8565b840191505092915050565b5f6020820190508181035f83015261198f818461193f565b905092915050565b5f819050919050565b5f6119ba6119b56119b084611541565b611997565b611541565b9050919050565b5f6119cb826119a0565b9050919050565b5f6119dc826119c1565b9050919050565b6119ec816119d2565b82525050565b5f602082019050611a055f8301846119e3565b92915050565b5f602082019050611a1e5f830184611665565b92915050565b5f5f5f5f60a08587031215611a3c57611a3b611483565b5b5f611a498782880161148f565b945050606085013567ffffffffffffffff811115611a6a57611a69611487565b5b611a76878288016114ec565b93509350506080611a8987828801611587565b91505092959194509250565b5f8115159050919050565b611aa981611a95565b82525050565b5f602082019050611ac25f830184611aa0565b92915050565b611ad181611560565b82525050565b5f602082019050611aea5f830184611ac8565b92915050565b5f5f83601f840112611b0557611b046114e0565b5b8235905067ffffffffffffffff811115611b2257611b216114e4565b5b602083019150836020820283011115611b3e57611b3d6114e8565b5b9250929050565b5f5f60208385031215611b5b57611b5a611483565b5b5f83013567ffffffffffffffff811115611b7857611b77611487565b5b611b8485828601611af0565b92509250509250929050565b5f60208284031215611ba557611ba4611483565b5b5f611bb284828501611785565b91505092915050565b611bc4816114ad565b82525050565b5f602082019050611bdd5f830184611bbb565b92915050565b5f5f5f5f60608587031215611bfb57611bfa611483565b5b5f611c0887828801611785565b9450506020611c19878288016118d3565b935050604085013567ffffffffffffffff811115611c3a57611c39611487565b5b611c46878288016114ec565b925092505092959194509250565b5f60208284031215611c6957611c68611483565b5b5f611c7684828501611587565b91505092915050565b611c8881611a95565b8114611c92575f5ffd5b50565b5f81359050611ca381611c7f565b92915050565b5f5f5f5f5f5f60808789031215611cc357611cc2611483565b5b5f611cd089828a01611785565b965050602087013567ffffffffffffffff811115611cf157611cf0611487565b5b611cfd89828a016117d7565b9550955050604087013567ffffffffffffffff811115611d2057611d1f611487565b5b611d2c89828a016114ec565b93509350506060611d3f89828a01611c95565b9150509295509295509295565b5f819050919050565b611d5e81611d4c565b82525050565b604082015f820151611d785f850182611d55565b506020820151611d8b6020850182611d55565b50505050565b5f604082019050611da45f830184611d64565b92915050565b5f60608284031215611dbf57611dbe611483565b5b5f611dcc8482850161148f565b91505092915050565b611dde81611760565b82525050565b5f604082019050611df75f830185611dd5565b611e046020830184611bbb565b9392505050565b7f4e487b71000000000000000000000000000000000000000000000000000000005f52602260045260245ffd5b5f6002820490506001821680611e4f57607f821691505b602082108103611e6257611e61611e0b565b5b50919050565b828183375f83830152505050565b5f611e8183856116da565b9350611e8e838584611e68565b611e97836116f8565b840190509392505050565b5f6020820190508181035f830152611ebb818486611e76565b90509392505050565b7f4e487b71000000000000000000000000000000000000000000000000000000005f52604160045260245ffd5b611efa826116f8565b810181811067ffffffffffffffff82111715611f1957611f18611ec4565b5b80604052505050565b5f611f2b61147a565b9050611f378282611ef1565b919050565b5f67ffffffffffffffff821115611f5657611f55611ec4565b5b602082029050602081019050919050565b5f5ffd5b5f5ffd5b5f5ffd5b5f67ffffffffffffffff821115611f8d57611f8c611ec4565b5b611f96826116f8565b9050602081019050919050565b5f611fb5611fb084611f73565b611f22565b905082815260208101848484011115611fd157611fd0611f6f565b5b611fdc848285611e68565b509392505050565b5f82601f830112611ff857611ff76114e0565b5b8135612008848260208601611fa3565b91505092915050565b5f6060828403121561202657612025611f67565b5b6120306060611f22565b90505f61203f84828501611785565b5f830152506020612052848285016118d3565b602083015250604082013567ffffffffffffffff81111561207657612075611f6b565b5b61208284828501611fe4565b60408301525092915050565b5f6120a061209b84611f3c565b611f22565b905080838252602082019050602084028301858111156120c3576120c26114e8565b5b835b8181101561210a57803567ffffffffffffffff8111156120e8576120e76114e0565b5b8086016120f58982612011565b855260208501945050506020810190506120c5565b5050509392505050565b5f61212036848461208e565b905092915050565b5f5ffd5b5f5ffd5b5f5f8585111561214357612142612128565b5b838611156121545761215361212c565b5b6001850283019150848603905094509492505050565b5f81905092915050565b5f61217e82611925565b612188818561216a565b93506121988185602086016116ea565b80840191505092915050565b5f6121af838561216a565b93506121bc838584611e68565b82840190509392505050565b5f6121d38286612174565b91506121e08284866121a4565b9150819050949350505050565b5f6121f8838561192f565b9350612205838584611e68565b61220e836116f8565b840190509392505050565b5f6020820190508181035f8301526122328184866121ed565b90509392505050565b5f60208201905061224e5f830184611dd5565b92915050565b5f67ffffffffffffffff82111561226e5761226d611ec4565b5b612277826116f8565b9050602081019050919050565b5f61229661229184612254565b611f22565b9050828152602081018484840111156122b2576122b1611f6f565b5b6122bd848285611e68565b509392505050565b5f82601f8301126122d9576122d86114e0565b5b81356122e9848260208601612284565b91505092915050565b5f6020828403121561230757612306611483565b5b5f82013567ffffffffffffffff81111561232457612323611487565b5b612330848285016122c5565b91505092915050565b5f819050815f5260205f209050919050565b5f6020601f8301049050919050565b5f82821b905092915050565b5f600883026123957fffffffffffffffffffffffffffffffffffffffffffffffffffffffffffffffff8261235a565b61239f868361235a565b95508019841693508086168417925050509392505050565b5f6123d16123cc6123c784611d4c565b611997565b611d4c565b9050919050565b5f819050919050565b6123ea836123b7565b6123fe6123f6826123d8565b848454612366565b825550505050565b5f5f905090565b612415612406565b6124208184846123e1565b505050565b5b81811015612443576124385f8261240d565b600181019050612426565b5050565b601f8211156124885761245981612339565b6124628461234b565b81016020851015612471578190505b61248561247d8561234b565b830182612425565b50505b505050565b5f82821c905092915050565b5f6124a85f198460080261248d565b1980831691505092915050565b5f6124c08383612499565b9150826002028217905092915050565b6124d9826116d0565b67ffffffffffffffff8111156124f2576124f1611ec4565b5b6124fc8254611e38565b612507828285612447565b5f60209050601f831160018114612538575f8415612526578287015190505b61253085826124b5565b865550612597565b601f19841661254686612339565b5f5b8281101561256d57848901518255600182019150602085019450602081019050612548565b8683101561258a5784890151612586601f891682612499565b8355505b6001600288020188555050505b505050505050565b6125a881611760565b82525050565b6125b7816114ad565b82525050565b5f82825260208201905092915050565b5f6125d782611925565b6125e181856125bd565b93506125f18185602086016116ea565b6125fa816116f8565b840191505092915050565b61260e81611a95565b82525050565b5f60a083015f8301516126295f86018261259f565b50602083015161263c60208601826125ae565b506040830151848203604086015261265482826125cd565b9150506060830151848203606086015261266e82826125cd565b91505060808301516126836080860182612605565b508091505092915050565b5f6040820190508181035f8301526126a68185612614565b90506126b56020830184611ac8565b9392505050565b5f815190506126ca816114b6565b92915050565b6126d981611652565b81146126e3575f5ffd5b50565b5f815190506126f4816126d0565b92915050565b61270381611d4c565b811461270d575f5ffd5b50565b5f8151905061271e816126fa565b92915050565b5f6040828403121561273957612738611f67565b5b6127436040611f22565b90505f61275284828501612710565b5f83015250602061276584828501612710565b60208301525092915050565b5f6080828403121561278657612785611f67565b5b6127906060611f22565b90505f61279f848285016126bc565b5f8301525060206127b2848285016126e6565b60208301525060406127c684828501612724565b60408301525092915050565b5f608082840312156127e7576127e6611483565b5b5f6127f484828501612771565b91505092915050565b7f4e487b71000000000000000000000000000000000000000000000000000000005f52603260045260245ffd5b5f819050815f5260205f209050919050565b601f82111561287d5761284e8161282a565b6128578461234b565b81016020851015612866578190505b61287a6128728561234b565b830182612425565b50505b505050565b61288b82611925565b67ffffffffffffffff8111156128a4576128a3611ec4565b5b6128ae8254611e38565b6128b982828561283c565b5f60209050601f8311600181146128ea575f84156128d8578287015190505b6128e285826124b5565b865550612949565b601f1984166128f88661282a565b5f5b8281101561291f578489015182556001820191506020850194506020810190506128fa565b8683101561293c5784890151612938601f891682612499565b8355505b6001600288020188555050505b505050505050565b5f81519050919050565b5f82825260208201905092915050565b5f819050602082019050919050565b6129838161169b565b82525050565b5f606083015f83015161299e5f86018261259f565b5060208301516129b1602086018261297a565b50604083015184820360408601526129c982826125cd565b9150508091505092915050565b5f6129e18383612989565b905092915050565b5f602082019050919050565b5f6129ff82612951565b612a09818561295b565b935083602082028501612a1b8561296b565b805f5b85811015612a565784840389528151612a3785826129d6565b9450612a42836129e9565b925060208a01995050600181019050612a1e565b50829750879550505050505092915050565b5f6020820190508181035f830152612a8081846129f5565b905092915050565b5f60408284031215612a9d57612a9c611483565b5b5f612aaa84828501612724565b91505092915050565b612abc81611d4c565b82525050565b5f602082019050612ad55f830184612ab3565b92915050565b5f81519050612ae981611571565b92915050565b5f60208284031215612b0457612b03611483565b5b5f612b1184828501612adb565b91505092915050565b5f606082019050612b2d5f830186611ac8565b612b3a6020830185611ac8565b612b476040830184612ab3565b94935050505056fea26469706673582212206525d088dc53b6362ff3ae0f9c4629f653cdb78c158a0f5694606b66eb24297564736f6c634300081e0033","linkReferences":{}},"methodIdentifiers":{"SEND()":"1f5e1334","allowInitializePath((uint32,bytes32,uint64))":"ff7bd03d","combineOptions(uint32,uint16,bytes)":"bc70b354","endpoint()":"5e280f11","enforcedOptions(uint32,uint16)":"5535d461","isComposeMsgSender((uint32,bytes32,uint64),bytes,address)":"82413eac","lastMessage()":"32970710","lzReceive((uint32,bytes32,uint64),bytes32,bytes,address,bytes)":"13137d65","nextNonce(uint32,bytes32)":"7d25a05e","oAppVersion()":"17442b70","owner()":"8da5cb5b","peers(uint32)":"bb0b6a53","quoteSendString(uint32,string,bytes,bool)":"d3b4866e","renounceOwnership()":"715018a6","sendString(uint32,string,bytes)":"36ef9620","setDelegate(address)":"ca5eb5e1","setEnforcedOptions((uint32,uint16,bytes)[])":"b98bd070","setPeer(uint32,bytes32)":"3400288b","transferOwnership(address)":"f2fde38b"},"id":175}