{"abi":[{"type":"constructor","inputs":[{"name":"_name","type":"string","internalType":"string"},{"name":"_symbol","type":"string","internalType":"string"},{"name":"__decimals","type":"uint8","internalType":"uint8"}],"stateMutability":"nonpayable"},{"type":"function","name":"allowance","inputs":[{"name":"owner","type":"address","internalType":"address"},{"name":"spender","type":"address","internalType":"address"}],"outputs":[{"name":"","type":"uint256","internalType":"uint256"}],"stateMutability":"view"},{"type":"function","name":"approve","inputs":[{"name":"spender","type":"address","internalType":"address"},{"name":"value","type":"uint256","internalType":"uint256"}],"outputs":[{"name":"","type":"bool","internalType":"bool"}],"stateMutability":"nonpayable"},{"type":"function","name":"balanceOf","inputs":[{"name":"account","type":"address","internalType":"address"}],"outputs":[{"name":"","type":"uint256","internalType":"uint256"}],"stateMutability":"view"},{"type":"function","name":"burn","inputs":[{"name":"_from","type":"address","internalType":"address"},{"name":"_amount","type":"uint256","internalType":"uint256"}],"outputs":[],"stateMutability":"nonpayable"},{"type":"function","name":"decimals","inputs":[],"outputs":[{"name":"","type":"uint8","internalType":"uint8"}],"stateMutability":"view"},{"type":"function","name":"mint","inputs":[{"name":"_to","type":"address","internalType":"address"},{"name":"_amount","type":"uint256","internalType":"uint256"}],"outputs":[],"stateMutability":"nonpayable"},{"type":"function","name":"name","inputs":[],"outputs":[{"name":"","type":"string","internalType":"string"}],"stateMutability":"view"},{"type":"function","name":"operator","inputs":[{"name":"","type":"address","internalType":"address"}],"outputs":[{"name":"","type":"bool","internalType":"bool"}],"stateMutability":"view"},{"type":"function","name":"owner","inputs":[],"outputs":[{"name":"","type":"address","internalType":"address"}],"stateMutability":"view"},{"type":"function","name":"renounceOwnership","inputs":[],"outputs":[],"stateMutability":"nonpayable"},{"type":"function","name":"setOperator","inputs":[{"name":"_operator","type":"address","internalType":"address"},{"name":"_isOperator","type":"bool","internalType":"bool"}],"outputs":[],"stateMutability":"nonpayable"},{"type":"function","name":"symbol","inputs":[],"outputs":[{"name":"","type":"string","internalType":"string"}],"stateMutability":"view"},{"type":"function","name":"totalSupply","inputs":[],"outputs":[{"name":"","type":"uint256","internalType":"uint256"}],"stateMutability":"view"},{"type":"function","name":"transfer","inputs":[{"name":"to","type":"address","internalType":"address"},{"name":"value","type":"uint256","internalType":"uint256"}],"outputs":[{"name":"","type":"bool","internalType":"bool"}],"stateMutability":"nonpayable"},{"type":"function","name":"transferFrom","inputs":[{"name":"from","type":"address","internalType":"address"},{"name":"to","type":"address","internalType":"address"},{"name":"value","type":"uint256","internalType":"uint256"}],"outputs":[{"name":"","type":"bool","internalType":"bool"}],"stateMutability":"nonpayable"},{"type":"function","name":"transferOwnership","inputs":[{"name":"newOwner","type":"address","internalType":"address"}],"outputs":[],"stateMutability":"nonpayable"},{"type":"event","name":"Approval","inputs":[{"name":"owner","type":"address","indexed":true,"internalType":"address"},{"name":"spender","type":"address","indexed":true,"internalType":"address"},{"name":"value","type":"uint256","indexed":false,"internalType":"uint256"}],"anonymous":false},{"type":"event","name":"OwnershipTransferred","inputs":[{"name":"previousOwner","type":"address","indexed":true,"internalType":"address"},{"name":"newOwner","type":"address","indexed":true,"internalType":"address"}],"anonymous":false},{"type":"event","name":"Transfer","inputs":[{"name":"from","type":"address","indexed":true,"internalType":"address"},{"name":"to","type":"address","indexed":true,"internalType":"address"},{"name":"value","type":"uint256","indexed":false,"internalType":"uint256"}],"anonymous":false},{"type":"error","name":"ERC20InsufficientAllowance","inputs":[{"name":"spender","type":"address","internalType":"address"},{"name":"allowance","type":"uint256","internalType":"uint256"},{"name":"needed","type":"uint256","internalType":"uint256"}]},{"type":"error","name":"ERC20InsufficientBalance","inputs":[{"name":"sender","type":"address","internalType":"address"},{"name":"balance","type":"uint256","internalType":"uint256"},{"name":"needed","type":"uint256","internalType":"uint256"}]},{"type":"error","name":"ERC20InvalidApprover","inputs":[{"name":"approver","type":"address","internalType":"address"}]},{"type":"error","name":"ERC20InvalidReceiver","inputs":[{"name":"receiver","type":"address","internalType":"address"}]},{"type":"error","name":"ERC20InvalidSender","inputs":[{"name":"sender","type":"address","internalType":"address"}]},{"type":"error","name":"ERC20InvalidSpender","inputs":[{"name":"spender","type":"address","internalType":"address"}]},{"type":"error","name":"NotOperator","inputs":[]},{"type":"error","name":"OwnableInvalidOwner","inputs":[{"name":"owner","type":"address","internalType":"address"}]},{"type":"error","name":"OwnableUnauthorizedAccount","inputs":[{"name":"account","type":"address","internalType":"address"}]}],"bytecode":{"object":"0x60a060405234801561000f575f5ffd5b50604051611ad9380380611ad983398181016040528101906100319190610332565b338383816003908161004391906105ca565b50806004908161005391906105ca565b5050505f73ffffffffffffffffffffffffffffffffffffffff168173ffffffffffffffffffffffffffffffffffffffff16036100c6575f6040517f1e4fbdf70000000000000000000000000000000000000000000000000000000081526004016100bd91906106d8565b60405180910390fd5b6100d5816100ec60201b60201c565b508060ff1660808160ff16815250505050506106f1565b5f60055f9054906101000a900473ffffffffffffffffffffffffffffffffffffffff1690508160055f6101000a81548173ffffffffffffffffffffffffffffffffffffffff021916908373ffffffffffffffffffffffffffffffffffffffff1602179055508173ffffffffffffffffffffffffffffffffffffffff168173ffffffffffffffffffffffffffffffffffffffff167f8be0079c531659141344cd1fd0a4f28419497f9722a3daafe3b4186f6b6457e060405160405180910390a35050565b5f604051905090565b5f5ffd5b5f5ffd5b5f5ffd5b5f5ffd5b5f601f19601f8301169050919050565b7f4e487b71000000000000000000000000000000000000000000000000000000005f52604160045260245ffd5b61020e826101c8565b810181811067ffffffffffffffff8211171561022d5761022c6101d8565b5b80604052505050565b5f61023f6101af565b905061024b8282610205565b919050565b5f67ffffffffffffffff82111561026a576102696101d8565b5b610273826101c8565b9050602081019050919050565b8281835e5f83830152505050565b5f6102a061029b84610250565b610236565b9050828152602081018484840111156102bc576102bb6101c4565b5b6102c7848285610280565b509392505050565b5f82601f8301126102e3576102e26101c0565b5b81516102f384826020860161028e565b91505092915050565b5f60ff82169050919050565b610311816102fc565b811461031b575f5ffd5b50565b5f8151905061032c81610308565b92915050565b5f5f5f60608486031215610349576103486101b8565b5b5f84015167ffffffffffffffff811115610366576103656101bc565b5b610372868287016102cf565b935050602084015167ffffffffffffffff811115610393576103926101bc565b5b61039f868287016102cf565b92505060406103b08682870161031e565b9150509250925092565b5f81519050919050565b7f4e487b71000000000000000000000000000000000000000000000000000000005f52602260045260245ffd5b5f600282049050600182168061040857607f821691505b60208210810361041b5761041a6103c4565b5b50919050565b5f819050815f5260205f209050919050565b5f6020601f8301049050919050565b5f82821b905092915050565b5f6008830261047d7fffffffffffffffffffffffffffffffffffffffffffffffffffffffffffffffff82610442565b6104878683610442565b95508019841693508086168417925050509392505050565b5f819050919050565b5f819050919050565b5f6104cb6104c66104c18461049f565b6104a8565b61049f565b9050919050565b5f819050919050565b6104e4836104b1565b6104f86104f0826104d2565b84845461044e565b825550505050565b5f5f905090565b61050f610500565b61051a8184846104db565b505050565b5b8181101561053d576105325f82610507565b600181019050610520565b5050565b601f8211156105825761055381610421565b61055c84610433565b8101602085101561056b578190505b61057f61057785610433565b83018261051f565b50505b505050565b5f82821c905092915050565b5f6105a25f1984600802610587565b1980831691505092915050565b5f6105ba8383610593565b9150826002028217905092915050565b6105d3826103ba565b67ffffffffffffffff8111156105ec576105eb6101d8565b5b6105f682546103f1565b610601828285610541565b5f60209050601f831160018114610632575f8415610620578287015190505b61062a85826105af565b865550610691565b601f19841661064086610421565b5f5b8281101561066757848901518255600182019150602085019450602081019050610642565b868310156106845784890151610680601f891682610593565b8355505b6001600288020188555050505b505050505050565b5f73ffffffffffffffffffffffffffffffffffffffff82169050919050565b5f6106c282610699565b9050919050565b6106d2816106b8565b82525050565b5f6020820190506106eb5f8301846106c9565b92915050565b6080516113d06107095f395f61041e01526113d05ff3fe608060405234801561000f575f5ffd5b50600436106100fe575f3560e01c8063715018a6116100955780639dc29fac116100645780639dc29fac1461029a578063a9059cbb146102b6578063dd62ed3e146102e6578063f2fde38b14610316576100fe565b8063715018a6146102245780638da5cb5b1461022e57806395d89b411461024c5780639a3073911461026a576100fe565b8063313ce567116100d1578063313ce5671461019e57806340c10f19146101bc578063558a7297146101d857806370a08231146101f4576100fe565b806306fdde0314610102578063095ea7b31461012057806318160ddd1461015057806323b872dd1461016e575b5f5ffd5b61010a610332565b6040516101179190610fe1565b60405180910390f35b61013a60048036038101906101359190611092565b6103c2565b60405161014791906110ea565b60405180910390f35b6101586103e4565b6040516101659190611112565b60405180910390f35b6101886004803603810190610183919061112b565b6103ed565b60405161019591906110ea565b60405180910390f35b6101a661041b565b6040516101b39190611196565b60405180910390f35b6101d660048036038101906101d19190611092565b610442565b005b6101f260048036038101906101ed91906111d9565b610458565b005b61020e60048036038101906102099190611217565b6104b8565b60405161021b9190611112565b60405180910390f35b61022c6104fd565b005b610236610510565b6040516102439190611251565b60405180910390f35b610254610538565b6040516102619190610fe1565b60405180910390f35b610284600480360381019061027f9190611217565b6105c8565b60405161029191906110ea565b60405180910390f35b6102b460048036038101906102af9190611092565b6105e5565b005b6102d060048036038101906102cb9190611092565b6105fb565b6040516102dd91906110ea565b60405180910390f35b61030060048036038101906102fb919061126a565b61061d565b60405161030d9190611112565b60405180910390f35b610330600480360381019061032b9190611217565b61069f565b005b606060038054610341906112d5565b80601f016020809104026020016040519081016040528092919081815260200182805461036d906112d5565b80156103b85780601f1061038f576101008083540402835291602001916103b8565b820191905f5260205f20905b81548152906001019060200180831161039b57829003601f168201915b5050505050905090565b5f5f6103cc610723565b90506103d981858561072a565b600191505092915050565b5f600254905090565b5f5f6103f7610723565b905061040485828561073c565b61040f8585856107cf565b60019150509392505050565b5f7f0000000000000000000000000000000000000000000000000000000000000000905090565b61044a6108bf565b6104548282610941565b5050565b6104606109c0565b8060065f8473ffffffffffffffffffffffffffffffffffffffff1673ffffffffffffffffffffffffffffffffffffffff1681526020019081526020015f205f6101000a81548160ff0219169083151502179055505050565b5f5f5f8373ffffffffffffffffffffffffffffffffffffffff1673ffffffffffffffffffffffffffffffffffffffff1681526020019081526020015f20549050919050565b6105056109c0565b61050e5f610a47565b565b5f60055f9054906101000a900473ffffffffffffffffffffffffffffffffffffffff16905090565b606060048054610547906112d5565b80601f0160208091040260200160405190810160405280929190818152602001828054610573906112d5565b80156105be5780601f10610595576101008083540402835291602001916105be565b820191905f5260205f20905b8154815290600101906020018083116105a157829003601f168201915b5050505050905090565b6006602052805f5260405f205f915054906101000a900460ff1681565b6105ed6108bf565b6105f78282610b0a565b5050565b5f5f610605610723565b90506106128185856107cf565b600191505092915050565b5f60015f8473ffffffffffffffffffffffffffffffffffffffff1673ffffffffffffffffffffffffffffffffffffffff1681526020019081526020015f205f8373ffffffffffffffffffffffffffffffffffffffff1673ffffffffffffffffffffffffffffffffffffffff1681526020019081526020015f2054905092915050565b6106a76109c0565b5f73ffffffffffffffffffffffffffffffffffffffff168173ffffffffffffffffffffffffffffffffffffffff1603610717575f6040517f1e4fbdf700000000000000000000000000000000000000000000000000000000815260040161070e9190611251565b60405180910390fd5b61072081610a47565b50565b5f33905090565b6107378383836001610b89565b505050565b5f610747848461061d565b90507fffffffffffffffffffffffffffffffffffffffffffffffffffffffffffffffff8110156107c957818110156107ba578281836040517ffb8f41b20000000000000000000000000000000000000000000000000000000081526004016107b193929190611305565b60405180910390fd5b6107c884848484035f610b89565b5b50505050565b5f73ffffffffffffffffffffffffffffffffffffffff168373ffffffffffffffffffffffffffffffffffffffff160361083f575f6040517f96c6fd1e0000000000000000000000000000000000000000000000000000000081526004016108369190611251565b60405180910390fd5b5f73ffffffffffffffffffffffffffffffffffffffff168273ffffffffffffffffffffffffffffffffffffffff16036108af575f6040517fec442f050000000000000000000000000000000000000000000000000000000081526004016108a69190611251565b60405180910390fd5b6108ba838383610d58565b505050565b60065f3373ffffffffffffffffffffffffffffffffffffffff1673ffffffffffffffffffffffffffffffffffffffff1681526020019081526020015f205f9054906101000a900460ff1661093f576040517f7c214f0400000000000000000000000000000000000000000000000000000000815260040160405180910390fd5b565b5f73ffffffffffffffffffffffffffffffffffffffff168273ffffffffffffffffffffffffffffffffffffffff16036109b1575f6040517fec442f050000000000000000000000000000000000000000000000000000000081526004016109a89190611251565b60405180910390fd5b6109bc5f8383610d58565b5050565b6109c8610723565b73ffffffffffffffffffffffffffffffffffffffff166109e6610510565b73ffffffffffffffffffffffffffffffffffffffff1614610a4557610a09610723565b6040517f118cdaa7000000000000000000000000000000000000000000000000000000008152600401610a3c9190611251565b60405180910390fd5b565b5f60055f9054906101000a900473ffffffffffffffffffffffffffffffffffffffff1690508160055f6101000a81548173ffffffffffffffffffffffffffffffffffffffff021916908373ffffffffffffffffffffffffffffffffffffffff1602179055508173ffffffffffffffffffffffffffffffffffffffff168173ffffffffffffffffffffffffffffffffffffffff167f8be0079c531659141344cd1fd0a4f28419497f9722a3daafe3b4186f6b6457e060405160405180910390a35050565b5f73ffffffffffffffffffffffffffffffffffffffff168273ffffffffffffffffffffffffffffffffffffffff1603610b7a575f6040517f96c6fd1e000000000000000000000000000000000000000000000000000000008152600401610b719190611251565b60405180910390fd5b610b85825f83610d58565b5050565b5f73ffffffffffffffffffffffffffffffffffffffff168473ffffffffffffffffffffffffffffffffffffffff1603610bf9575f6040517fe602df05000000000000000000000000000000000000000000000000000000008152600401610bf09190611251565b60405180910390fd5b5f73ffffffffffffffffffffffffffffffffffffffff168373ffffffffffffffffffffffffffffffffffffffff1603610c69575f6040517f94280d62000000000000000000000000000000000000000000000000000000008152600401610c609190611251565b60405180910390fd5b8160015f8673ffffffffffffffffffffffffffffffffffffffff1673ffffffffffffffffffffffffffffffffffffffff1681526020019081526020015f205f8573ffffffffffffffffffffffffffffffffffffffff1673ffffffffffffffffffffffffffffffffffffffff1681526020019081526020015f20819055508015610d52578273ffffffffffffffffffffffffffffffffffffffff168473ffffffffffffffffffffffffffffffffffffffff167f8c5be1e5ebec7d5bd14f71427d1e84f3dd0314c0f7b2291e5b200ac8c7c3b92584604051610d499190611112565b60405180910390a35b50505050565b5f73ffffffffffffffffffffffffffffffffffffffff168373ffffffffffffffffffffffffffffffffffffffff1603610da8578060025f828254610d9c9190611367565b92505081905550610e76565b5f5f5f8573ffffffffffffffffffffffffffffffffffffffff1673ffffffffffffffffffffffffffffffffffffffff1681526020019081526020015f2054905081811015610e31578381836040517fe450d38c000000000000000000000000000000000000000000000000000000008152600401610e2893929190611305565b60405180910390fd5b8181035f5f8673ffffffffffffffffffffffffffffffffffffffff1673ffffffffffffffffffffffffffffffffffffffff1681526020019081526020015f2081905550505b5f73ffffffffffffffffffffffffffffffffffffffff168273ffffffffffffffffffffffffffffffffffffffff1603610ebd578060025f8282540392505081905550610f07565b805f5f8473ffffffffffffffffffffffffffffffffffffffff1673ffffffffffffffffffffffffffffffffffffffff1681526020019081526020015f205f82825401925050819055505b8173ffffffffffffffffffffffffffffffffffffffff168373ffffffffffffffffffffffffffffffffffffffff167fddf252ad1be2c89b69c2b068fc378daa952ba7f163c4a11628f55a4df523b3ef83604051610f649190611112565b60405180910390a3505050565b5f81519050919050565b5f82825260208201905092915050565b8281835e5f83830152505050565b5f601f19601f8301169050919050565b5f610fb382610f71565b610fbd8185610f7b565b9350610fcd818560208601610f8b565b610fd681610f99565b840191505092915050565b5f6020820190508181035f830152610ff98184610fa9565b905092915050565b5f5ffd5b5f73ffffffffffffffffffffffffffffffffffffffff82169050919050565b5f61102e82611005565b9050919050565b61103e81611024565b8114611048575f5ffd5b50565b5f8135905061105981611035565b92915050565b5f819050919050565b6110718161105f565b811461107b575f5ffd5b50565b5f8135905061108c81611068565b92915050565b5f5f604083850312156110a8576110a7611001565b5b5f6110b58582860161104b565b92505060206110c68582860161107e565b9150509250929050565b5f8115159050919050565b6110e4816110d0565b82525050565b5f6020820190506110fd5f8301846110db565b92915050565b61110c8161105f565b82525050565b5f6020820190506111255f830184611103565b92915050565b5f5f5f6060848603121561114257611141611001565b5b5f61114f8682870161104b565b93505060206111608682870161104b565b92505060406111718682870161107e565b9150509250925092565b5f60ff82169050919050565b6111908161117b565b82525050565b5f6020820190506111a95f830184611187565b92915050565b6111b8816110d0565b81146111c2575f5ffd5b50565b5f813590506111d3816111af565b92915050565b5f5f604083850312156111ef576111ee611001565b5b5f6111fc8582860161104b565b925050602061120d858286016111c5565b9150509250929050565b5f6020828403121561122c5761122b611001565b5b5f6112398482850161104b565b91505092915050565b61124b81611024565b82525050565b5f6020820190506112645f830184611242565b92915050565b5f5f604083850312156112805761127f611001565b5b5f61128d8582860161104b565b925050602061129e8582860161104b565b9150509250929050565b7f4e487b71000000000000000000000000000000000000000000000000000000005f52602260045260245ffd5b5f60028204905060018216806112ec57607f821691505b6020821081036112ff576112fe6112a8565b5b50919050565b5f6060820190506113185f830186611242565b6113256020830185611103565b6113326040830184611103565b949350505050565b7f4e487b71000000000000000000000000000000000000000000000000000000005f52601160045260245ffd5b5f6113718261105f565b915061137c8361105f565b92508282019050808211156113945761139361133a565b5b9291505056fea2646970667358221220c28edbf02a6eb631d496970e42cecd5c7e695d7cc52fe709c9ed58f9ce256a8a64736f6c634300081e0033","linkReferences":{}},"methodIdentifiers":{"allowance(address,address)":"dd62ed3e","approve(address,uint256)":"095ea7b3","balanceOf(address)":"70a08231","burn(address,uint256)":"9dc29fac","decimals()":"313ce567","mint(address,uint256)":"40c10f19","name()":"06fdde03","operator(address)":"9a307391","owner()":"8da5cb5b","renounceOwnership()":"715018a6","setOperator(address,bool)":"558a7297","symbol()":"95d89b41","totalSupply()":"18160ddd","transfer(address,uint256)":"a9059cbb","transferFrom(address,address,uint256)":"23b872dd","transferOwnership(address)":"f2fde38b"},"id":113}