{"abi":[{"type":"constructor","inputs":[],"stateMutability":"nonpayable"},{"type":"function","name":"deployPosition","inputs":[{"name":"_lendingPool","type":"address","internalType":"address"},{"name":"_user","type":"address","internalType":"address"}],"outputs":[{"name":"","type":"address","internalType":"address"}],"stateMutability":"nonpayable"},{"type":"function","name":"owner","inputs":[],"outputs":[{"name":"","type":"address","internalType":"address"}],"stateMutability":"view"},{"type":"function","name":"setOwner","inputs":[{"name":"_owner","type":"address","internalType":"address"}],"outputs":[],"stateMutability":"nonpayable"},{"type":"error","name":"OnlyOwnerCanCall","inputs":[]}],"bytecode":{"object":"0x6080604052348015600e575f5ffd5b50335f5f6101000a81548173ffffffffffffffffffffffffffffffffffffffff021916908373ffffffffffffffffffffffffffffffffffffffff1602179055506132f88061005b5f395ff3fe608060405234801561000f575f5ffd5b506004361061003f575f3560e01c806313af4035146100435780632391216b1461005f5780638da5cb5b1461008f575b5f5ffd5b61005d6004803603810190610058919061024e565b6100ad565b005b61007960048036038101906100749190610279565b6100f7565b60405161008691906102c6565b60405180910390f35b610097610138565b6040516100a491906102c6565b60405180910390f35b6100b561015c565b805f5f6101000a81548173ffffffffffffffffffffffffffffffffffffffff021916908373ffffffffffffffffffffffffffffffffffffffff16021790555050565b5f5f8383604051610107906101e3565b6101129291906102df565b604051809103905ff08015801561012b573d5f5f3e3d5ffd5b5090508091505092915050565b5f5f9054906101000a900473ffffffffffffffffffffffffffffffffffffffff1681565b5f5f9054906101000a900473ffffffffffffffffffffffffffffffffffffffff1673ffffffffffffffffffffffffffffffffffffffff163373ffffffffffffffffffffffffffffffffffffffff16146101e1576040517f47a8ea5800000000000000000000000000000000000000000000000000000000815260040160405180910390fd5b565b612fbc8061030783390190565b5f5ffd5b5f73ffffffffffffffffffffffffffffffffffffffff82169050919050565b5f61021d826101f4565b9050919050565b61022d81610213565b8114610237575f5ffd5b50565b5f8135905061024881610224565b92915050565b5f60208284031215610263576102626101f0565b5b5f6102708482850161023a565b91505092915050565b5f5f6040838503121561028f5761028e6101f0565b5b5f61029c8582860161023a565b92505060206102ad8582860161023a565b9150509250929050565b6102c081610213565b82525050565b5f6020820190506102d95f8301846102b7565b92915050565b5f6040820190506102f25f8301856102b7565b6102ff60208301846102b7565b939250505056fe608060405234801561000f575f5ffd5b50604051612fbc380380612fbc833981810160405281019061003191906102f5565b60015f819055508160025f6101000a81548173ffffffffffffffffffffffffffffffffffffffff021916908373ffffffffffffffffffffffffffffffffffffffff1602179055508060015f6101000a81548173ffffffffffffffffffffffffffffffffffffffff021916908373ffffffffffffffffffffffffffffffffffffffff16021790555060035f81546100c690610369565b919050819055506100db61018360201b60201c565b60055f60035481526020019081526020015f205f6101000a81548173ffffffffffffffffffffffffffffffffffffffff021916908373ffffffffffffffffffffffffffffffffffffffff16021790555060035460065f61013f61018360201b60201c565b73ffffffffffffffffffffffffffffffffffffffff1673ffffffffffffffffffffffffffffffffffffffff1681526020019081526020015f208190555050506103db565b5f61019261020360201b60201c565b73ffffffffffffffffffffffffffffffffffffffff1663b2016bd46040518163ffffffff1660e01b8152600401602060405180830381865afa1580156101da573d5f5f3e3d5ffd5b505050506040513d601f19601f820116820180604052508101906101fe91906103b0565b905090565b5f60025f9054906101000a900473ffffffffffffffffffffffffffffffffffffffff1673ffffffffffffffffffffffffffffffffffffffff1663f887ea406040518163ffffffff1660e01b8152600401602060405180830381865afa15801561026e573d5f5f3e3d5ffd5b505050506040513d601f19601f8201168201806040525081019061029291906103b0565b905090565b5f5ffd5b5f73ffffffffffffffffffffffffffffffffffffffff82169050919050565b5f6102c48261029b565b9050919050565b6102d4816102ba565b81146102de575f5ffd5b50565b5f815190506102ef816102cb565b92915050565b5f5f6040838503121561030b5761030a610297565b5b5f610318858286016102e1565b9250506020610329858286016102e1565b9150509250929050565b7f4e487b71000000000000000000000000000000000000000000000000000000005f52601160045260245ffd5b5f819050919050565b5f61037382610360565b91507fffffffffffffffffffffffffffffffffffffffffffffffffffffffffffffffff82036103a5576103a4610333565b5b600182019050919050565b5f602082840312156103c5576103c4610297565b5b5f6103d2848285016102e1565b91505092915050565b612bd4806103e85f395ff3fe6080604052600436106100aa575f3560e01c80638da5cb5b116100635780638da5cb5b146103015780639b4dc8cc1461032b5780639d058e6714610355578063dd9103cb14610371578063f4191e68146103ad578063fa58d7b4146103e957610136565b80631cb928a9146101bd5780633814ccc0146101f9578063513f7d1e146102235780635984c8511461025f57806361bc221a1461029b5780638c3bc0b1146102c557610136565b36610136575f341180156100ca575060045f9054906101000a900460ff16155b15610134576100d7610411565b73ffffffffffffffffffffffffffffffffffffffff1663d0e30db0346040518263ffffffff1660e01b81526004015f604051808303818588803b15801561011c575f5ffd5b505af115801561012e573d5f5f3e3d5ffd5b50505050505b005b5f34118015610151575060045f9054906101000a900460ff16155b156101bb5761015e610411565b73ffffffffffffffffffffffffffffffffffffffff1663d0e30db0346040518263ffffffff1660e01b81526004015f604051808303818588803b1580156101a3575f5ffd5b505af11580156101b5573d5f5f3e3d5ffd5b50505050505b005b3480156101c8575f5ffd5b506101e360048036038101906101de9190612181565b61048b565b6040516101f091906121eb565b60405180910390f35b348015610204575f5ffd5b5061020d6104bb565b60405161021a91906121eb565b60405180910390f35b34801561022e575f5ffd5b506102496004803603810190610244919061222e565b6104d3565b6040516102569190612268565b60405180910390f35b34801561026a575f5ffd5b5061028560048036038101906102809190612281565b610766565b6040516102929190612268565b60405180910390f35b3480156102a6575f5ffd5b506102af6109b9565b6040516102bc9190612268565b60405180910390f35b3480156102d0575f5ffd5b506102eb60048036038101906102e691906122d1565b6109bf565b6040516102f89190612268565b60405180910390f35b34801561030c575f5ffd5b50610315610bdc565b60405161032291906121eb565b60405180910390f35b348015610336575f5ffd5b5061033f610c01565b60405161034c91906121eb565b60405180910390f35b61036f600480360381019061036a9190612335565b610c26565b005b34801561037c575f5ffd5b5061039760048036038101906103929190612373565b61102b565b6040516103a49190612268565b60405180910390f35b3480156103b8575f5ffd5b506103d360048036038101906103ce919061222e565b6112d7565b6040516103e09190612268565b60405180910390f35b3480156103f4575f5ffd5b5061040f600480360381019061040a919061241f565b6112ec565b005b5f61041a6117a0565b73ffffffffffffffffffffffffffffffffffffffff1663145d51d86040518163ffffffff1660e01b8152600401602060405180830381865afa158015610462573d5f5f3e3d5ffd5b505050506040513d601f19601f820116820180604052508101906104869190612483565b905090565b6005602052805f5260405f205f915054906101000a900473ffffffffffffffffffffffffffffffffffffffff1681565b73a324880f884036e3d21a09b90269e1ac57c7ec8a81565b5f5f5f600173ffffffffffffffffffffffffffffffffffffffff168473ffffffffffffffffffffffffffffffffffffffff160361059457610512610411565b73ffffffffffffffffffffffffffffffffffffffff166370a08231306040518263ffffffff1660e01b815260040161054a91906121eb565b602060405180830381865afa158015610565573d5f5f3e3d5ffd5b505050506040513d601f19601f8201168201806040525081019061058991906124c2565b915060129050610681565b8373ffffffffffffffffffffffffffffffffffffffff166370a08231306040518263ffffffff1660e01b81526004016105cd91906121eb565b602060405180830381865afa1580156105e8573d5f5f3e3d5ffd5b505050506040513d601f19601f8201168201806040525081019061060c91906124c2565b91508373ffffffffffffffffffffffffffffffffffffffff1663313ce5676040518163ffffffff1660e01b8152600401602060405180830381865afa158015610657573d5f5f3e3d5ffd5b505050506040513d601f19601f8201168201806040525081019061067b9190612523565b60ff1690505b5f61068b8561181a565b73ffffffffffffffffffffffffffffffffffffffff1663feaf968c6040518163ffffffff1660e01b815260040160a060405180830381865afa1580156106d3573d5f5f3e3d5ffd5b505050506040513d601f19601f820116820180604052508101906106f7919061258d565b5050509150505f610707866118a1565b600a6107139190612760565b670de0b6b3a76400008361072791906127aa565b6107319190612818565b90505f83600a6107419190612760565b828661074d91906127aa565b6107579190612818565b90508095505050505050919050565b5f3073ffffffffffffffffffffffffffffffffffffffff163373ffffffffffffffffffffffffffffffffffffffff16146107d5576040517f08c379a00000000000000000000000000000000000000000000000000000000081526004016107cc906128a2565b60405180910390fd5b5f6107df85611921565b90505f6107eb85611921565b90505f6107f78761181a565b90505f6108038761181a565b90505f8273ffffffffffffffffffffffffffffffffffffffff1663feaf968c6040518163ffffffff1660e01b815260040160a060405180830381865afa15801561084f573d5f5f3e3d5ffd5b505050506040513d601f19601f82011682018060405250810190610873919061258d565b5050509150505f8273ffffffffffffffffffffffffffffffffffffffff1663feaf968c6040518163ffffffff1660e01b815260040160a060405180830381865afa1580156108c3573d5f5f3e3d5ffd5b505050506040513d601f19601f820116820180604052508101906108e7919061258d565b5050509150505f6108f78b6118a1565b90505f6109038b6118a1565b90505f82600a6109139190612760565b670de0b6b3a76400008661092791906127aa565b6109319190612818565b90505f82600a6109419190612760565b670de0b6b3a76400008661095591906127aa565b61095f9190612818565b905089600a61096e9190612760565b8161097991906127aa565b89600a6109869190612760565b838e61099291906127aa565b61099c91906127aa565b6109a69190612818565b9a50505050505050505050509392505050565b60035481565b5f846109ca81611a15565b846109d481611a15565b5f8773ffffffffffffffffffffffffffffffffffffffff166370a08231306040518263ffffffff1660e01b8152600401610a0e91906121eb565b602060405180830381865afa158015610a29573d5f5f3e3d5ffd5b505050506040513d601f19601f82011682018060405250810190610a4d91906124c2565b90505f8603610a88576040517f1f2a200500000000000000000000000000000000000000000000000000000000815260040160405180910390fd5b85811015610ac2576040517ff4d678b800000000000000000000000000000000000000000000000000000000815260040160405180910390fd5b60015f9054906101000a900473ffffffffffffffffffffffffffffffffffffffff1673ffffffffffffffffffffffffffffffffffffffff163373ffffffffffffffffffffffffffffffffffffffff1614610b48576040517f5b905d4e00000000000000000000000000000000000000000000000000000000815260040160405180910390fd5b612710851115610b84576040517f613970e000000000000000000000000000000000000000000000000000000000815260040160405180910390fd5b610b9088888888611b07565b93507fc665f2f5768a61c064dd66125ac01f65d2f20d35ebb13a292211bf50619d753e3389898988604051610bc99594939291906128c0565b60405180910390a1505050949350505050565b60015f9054906101000a900473ffffffffffffffffffffffffffffffffffffffff1681565b60025f9054906101000a900473ffffffffffffffffffffffffffffffffffffffff1681565b60025f9054906101000a900473ffffffffffffffffffffffffffffffffffffffff1673ffffffffffffffffffffffffffffffffffffffff163373ffffffffffffffffffffffffffffffffffffffff1614610cac576040517f7cc2b58600000000000000000000000000000000000000000000000000000000815260040160405180910390fd5b5f8173ffffffffffffffffffffffffffffffffffffffff166370a08231306040518263ffffffff1660e01b8152600401610ce691906121eb565b602060405180830381865afa158015610d01573d5f5f3e3d5ffd5b505050506040513d601f19601f82011682018060405250810190610d2591906124c2565b9050610d2f611b1e565b73ffffffffffffffffffffffffffffffffffffffff168273ffffffffffffffffffffffffffffffffffffffff1614610eec575f610d7783610d6e611b1e565b846101f46109bf565b90508273ffffffffffffffffffffffffffffffffffffffff1663095ea7b360025f9054906101000a900473ffffffffffffffffffffffffffffffffffffffff16866040518363ffffffff1660e01b8152600401610dd5929190612911565b6020604051808303815f875af1158015610df1573d5f5f3e3d5ffd5b505050506040513d601f19601f82011682018060405250810190610e15919061294c565b50610eb260025f9054906101000a900473ffffffffffffffffffffffffffffffffffffffff1685600173ffffffffffffffffffffffffffffffffffffffff16610e5c611b1e565b73ffffffffffffffffffffffffffffffffffffffff1614610e8457610e7f611b1e565b610e8d565b610e8c610411565b5b73ffffffffffffffffffffffffffffffffffffffff16611b989092919063ffffffff16565b5f8482610ebf9190612977565b14610ee657610ee4610ecf611b1e565b848684610edc9190612977565b6101f46109bf565b505b50611026565b8173ffffffffffffffffffffffffffffffffffffffff1663095ea7b360025f9054906101000a900473ffffffffffffffffffffffffffffffffffffffff16856040518363ffffffff1660e01b8152600401610f48929190612911565b6020604051808303815f875af1158015610f64573d5f5f3e3d5ffd5b505050506040513d601f19601f82011682018060405250810190610f88919061294c565b5061102560025f9054906101000a900473ffffffffffffffffffffffffffffffffffffffff1684600173ffffffffffffffffffffffffffffffffffffffff16610fcf611b1e565b73ffffffffffffffffffffffffffffffffffffffff1614610ff757610ff2611b1e565b611000565b610fff610411565b5b73ffffffffffffffffffffffffffffffffffffffff16611b989092919063ffffffff16565b5b505050565b5f5f611035610411565b73ffffffffffffffffffffffffffffffffffffffff168773ffffffffffffffffffffffffffffffffffffffff16146110d9578673ffffffffffffffffffffffffffffffffffffffff1663313ce5676040518163ffffffff1660e01b8152600401602060405180830381865afa1580156110b0573d5f5f3e3d5ffd5b505050506040513d601f19601f820116820180604052508101906110d49190612523565b6110dc565b60125b60ff1690505f6110ea610411565b73ffffffffffffffffffffffffffffffffffffffff168773ffffffffffffffffffffffffffffffffffffffff161461118e578673ffffffffffffffffffffffffffffffffffffffff1663313ce5676040518163ffffffff1660e01b8152600401602060405180830381865afa158015611165573d5f5f3e3d5ffd5b505050506040513d601f19601f820116820180604052508101906111899190612523565b611191565b60125b60ff1690505f8573ffffffffffffffffffffffffffffffffffffffff1663feaf968c6040518163ffffffff1660e01b815260040160a060405180830381865afa1580156111e0573d5f5f3e3d5ffd5b505050506040513d601f19601f82011682018060405250810190611204919061258d565b5050509150505f8573ffffffffffffffffffffffffffffffffffffffff1663feaf968c6040518163ffffffff1660e01b815260040160a060405180830381865afa158015611254573d5f5f3e3d5ffd5b505050506040513d601f19601f82011682018060405250810190611278919061258d565b5050509150505f84600a61128c9190612760565b8285600a61129a9190612760565b856112a591906127aa565b6112af9190612818565b8a6112ba91906127aa565b6112c49190612818565b9050809550505050505095945050505050565b6006602052805f5260405f205f915090505481565b5f6112f56117a0565b90505f8173ffffffffffffffffffffffffffffffffffffffff1663e40208046040518163ffffffff1660e01b8152600401602060405180830381865afa158015611341573d5f5f3e3d5ffd5b505050506040513d601f19601f820116820180604052508101906113659190612483565b90505f8173ffffffffffffffffffffffffffffffffffffffff16634046ebae6040518163ffffffff1660e01b8152600401602060405180830381865afa1580156113b1573d5f5f3e3d5ffd5b505050506040513d601f19601f820116820180604052508101906113d59190612483565b905060025f9054906101000a900473ffffffffffffffffffffffffffffffffffffffff1673ffffffffffffffffffffffffffffffffffffffff163373ffffffffffffffffffffffffffffffffffffffff161415801561146057508173ffffffffffffffffffffffffffffffffffffffff163373ffffffffffffffffffffffffffffffffffffffff1614155b801561149857508073ffffffffffffffffffffffffffffffffffffffff163373ffffffffffffffffffffffffffffffffffffffff1614155b156114cf576040517f7cc2b58600000000000000000000000000000000000000000000000000000000815260040160405180910390fd5b600173ffffffffffffffffffffffffffffffffffffffff166114ef611c17565b73ffffffffffffffffffffffffffffffffffffffff16036117175783156116df57600160045f6101000a81548160ff021916908315150217905550611532610411565b73ffffffffffffffffffffffffffffffffffffffff1663095ea7b3611555610411565b886040518363ffffffff1660e01b8152600401611573929190612911565b6020604051808303815f875af115801561158f573d5f5f3e3d5ffd5b505050506040513d601f19601f820116820180604052508101906115b3919061294c565b506115bc610411565b73ffffffffffffffffffffffffffffffffffffffff16632e1a7d4d876040518263ffffffff1660e01b81526004016115f49190612268565b5f604051808303815f87803b15801561160b575f5ffd5b505af115801561161d573d5f5f3e3d5ffd5b505050505f8573ffffffffffffffffffffffffffffffffffffffff1687604051611646906129d7565b5f6040518083038185875af1925050503d805f8114611680576040519150601f19603f3d011682016040523d82523d5f602084013e611685565b606091505b50509050806116c0576040517f90b8ec1800000000000000000000000000000000000000000000000000000000815260040160405180910390fd5b5f60045f6101000a81548160ff02191690831515021790555050611712565b61171185876116ec610411565b73ffffffffffffffffffffffffffffffffffffffff16611b989092919063ffffffff16565b5b61174a565b6117498587611724611c17565b73ffffffffffffffffffffffffffffffffffffffff16611b989092919063ffffffff16565b5b8473ffffffffffffffffffffffffffffffffffffffff167fa8e76b822fc682be77f3b1c822ea81f6bda5aed92ba82e6873bfd889f328d1d2876040516117909190612268565b60405180910390a2505050505050565b5f6117a9611c91565b73ffffffffffffffffffffffffffffffffffffffff1663c45a01556040518163ffffffff1660e01b8152600401602060405180830381865afa1580156117f1573d5f5f3e3d5ffd5b505050506040513d601f19601f820116820180604052508101906118159190612483565b905090565b5f6118236117a0565b73ffffffffffffffffffffffffffffffffffffffff16631d43335a836040518263ffffffff1660e01b815260040161185b91906121eb565b602060405180830381865afa158015611876573d5f5f3e3d5ffd5b505050506040513d601f19601f8201168201806040525081019061189a9190612483565b9050919050565b5f6118ab8261181a565b73ffffffffffffffffffffffffffffffffffffffff1663313ce5676040518163ffffffff1660e01b8152600401602060405180830381865afa1580156118f3573d5f5f3e3d5ffd5b505050506040513d601f19601f820116820180604052508101906119179190612523565b60ff169050919050565b5f600173ffffffffffffffffffffffffffffffffffffffff168273ffffffffffffffffffffffffffffffffffffffff16148061198f5750611960610411565b73ffffffffffffffffffffffffffffffffffffffff168273ffffffffffffffffffffffffffffffffffffffff16145b1561199d5760129050611a10565b8173ffffffffffffffffffffffffffffffffffffffff1663313ce5676040518163ffffffff1660e01b8152600401602060405180830381865afa1580156119e6573d5f5f3e3d5ffd5b505050506040513d601f19601f82011682018060405250810190611a0a9190612523565b60ff1690505b919050565b5f60065f8373ffffffffffffffffffffffffffffffffffffffff1673ffffffffffffffffffffffffffffffffffffffff1681526020019081526020015f205403611b045760035f8154611a67906129eb565b919050819055508060055f60035481526020019081526020015f205f6101000a81548173ffffffffffffffffffffffffffffffffffffffff021916908373ffffffffffffffffffffffffffffffffffffffff16021790555060035460065f8373ffffffffffffffffffffffffffffffffffffffff1673ffffffffffffffffffffffffffffffffffffffff1681526020019081526020015f20819055505b50565b5f611b1485858585611d25565b9050949350505050565b5f611b27611c91565b73ffffffffffffffffffffffffffffffffffffffff1663456dc17a6040518163ffffffff1660e01b8152600401602060405180830381865afa158015611b6f573d5f5f3e3d5ffd5b505050506040513d601f19601f82011682018060405250810190611b939190612483565b905090565b611c12838473ffffffffffffffffffffffffffffffffffffffff1663a9059cbb8585604051602401611bcb929190612911565b604051602081830303815290604052915060e01b6020820180517bffffffffffffffffffffffffffffffffffffffffffffffffffffffff8381831617835250505050611f63565b505050565b5f611c20611c91565b73ffffffffffffffffffffffffffffffffffffffff1663b2016bd46040518163ffffffff1660e01b8152600401602060405180830381865afa158015611c68573d5f5f3e3d5ffd5b505050506040513d601f19601f82011682018060405250810190611c8c9190612483565b905090565b5f60025f9054906101000a900473ffffffffffffffffffffffffffffffffffffffff1673ffffffffffffffffffffffffffffffffffffffff1663f887ea406040518163ffffffff1660e01b8152600401602060405180830381865afa158015611cfc573d5f5f3e3d5ffd5b505050506040513d601f19601f82011682018060405250810190611d209190612483565b905090565b5f5f73a324880f884036e3d21a09b90269e1ac57c7ec8a90505f611d4a878787611ffe565b90505f61271085612710611d5e9190612977565b83611d6991906127aa565b611d739190612818565b90508773ffffffffffffffffffffffffffffffffffffffff1663095ea7b384886040518363ffffffff1660e01b8152600401611db0929190612911565b6020604051808303815f875af1158015611dcc573d5f5f3e3d5ffd5b505050506040513d601f19601f82011682018060405250810190611df0919061294c565b505f6040518061010001604052808a73ffffffffffffffffffffffffffffffffffffffff168152602001600173ffffffffffffffffffffffffffffffffffffffff168a73ffffffffffffffffffffffffffffffffffffffff1614611e545789611e5d565b611e5c610411565b5b73ffffffffffffffffffffffffffffffffffffffff1681526020016103e862ffffff1681526020013073ffffffffffffffffffffffffffffffffffffffff16815260200161012c42611eaf9190612a32565b81526020018881526020018381526020015f73ffffffffffffffffffffffffffffffffffffffff1681525090508373ffffffffffffffffffffffffffffffffffffffff1663414bf389826040518263ffffffff1660e01b8152600401611f159190612b4f565b6020604051808303815f875af1158015611f31573d5f5f3e3d5ffd5b505050506040513d601f19601f82011682018060405250810190611f5591906124c2565b945050505050949350505050565b5f5f60205f8451602086015f885af180611f82576040513d5f823e3d81fd5b3d92505f519150505f8214611f9b576001811415611fb6565b5f8473ffffffffffffffffffffffffffffffffffffffff163b145b15611ff857836040517f5274afe7000000000000000000000000000000000000000000000000000000008152600401611fef91906121eb565b60405180910390fd5b50505050565b5f8273ffffffffffffffffffffffffffffffffffffffff168473ffffffffffffffffffffffffffffffffffffffff160361203a57819050612143565b3073ffffffffffffffffffffffffffffffffffffffff16635984c8518585856040518463ffffffff1660e01b815260040161207793929190612b69565b602060405180830381865afa9250505080156120b157506040513d601f19601f820116820180604052508101906120ae91906124c2565b60015b61213d575f6120bf85611921565b90505f6120cb85611921565b9050808211156120ff5780826120e19190612977565b600a6120ed9190612760565b846120f89190612818565b9250612136565b818111156121315781816121139190612977565b600a61211f9190612760565b8461212a91906127aa565b9250612135565b8392505b5b5050612142565b809150505b5b9392505050565b5f5ffd5b5f819050919050565b6121608161214e565b811461216a575f5ffd5b50565b5f8135905061217b81612157565b92915050565b5f602082840312156121965761219561214a565b5b5f6121a38482850161216d565b91505092915050565b5f73ffffffffffffffffffffffffffffffffffffffff82169050919050565b5f6121d5826121ac565b9050919050565b6121e5816121cb565b82525050565b5f6020820190506121fe5f8301846121dc565b92915050565b61220d816121cb565b8114612217575f5ffd5b50565b5f8135905061222881612204565b92915050565b5f602082840312156122435761224261214a565b5b5f6122508482850161221a565b91505092915050565b6122628161214e565b82525050565b5f60208201905061227b5f830184612259565b92915050565b5f5f5f606084860312156122985761229761214a565b5b5f6122a58682870161221a565b93505060206122b68682870161221a565b92505060406122c78682870161216d565b9150509250925092565b5f5f5f5f608085870312156122e9576122e861214a565b5b5f6122f68782880161221a565b94505060206123078782880161221a565b93505060406123188782880161216d565b92505060606123298782880161216d565b91505092959194509250565b5f5f6040838503121561234b5761234a61214a565b5b5f6123588582860161216d565b92505060206123698582860161221a565b9150509250929050565b5f5f5f5f5f60a0868803121561238c5761238b61214a565b5b5f6123998882890161221a565b95505060206123aa8882890161221a565b94505060406123bb8882890161216d565b93505060606123cc8882890161221a565b92505060806123dd8882890161221a565b9150509295509295909350565b5f8115159050919050565b6123fe816123ea565b8114612408575f5ffd5b50565b5f81359050612419816123f5565b92915050565b5f5f5f606084860312156124365761243561214a565b5b5f6124438682870161216d565b93505060206124548682870161221a565b92505060406124658682870161240b565b9150509250925092565b5f8151905061247d81612204565b92915050565b5f602082840312156124985761249761214a565b5b5f6124a58482850161246f565b91505092915050565b5f815190506124bc81612157565b92915050565b5f602082840312156124d7576124d661214a565b5b5f6124e4848285016124ae565b91505092915050565b5f60ff82169050919050565b612502816124ed565b811461250c575f5ffd5b50565b5f8151905061251d816124f9565b92915050565b5f602082840312156125385761253761214a565b5b5f6125458482850161250f565b91505092915050565b5f69ffffffffffffffffffff82169050919050565b61256c8161254e565b8114612576575f5ffd5b50565b5f8151905061258781612563565b92915050565b5f5f5f5f5f60a086880312156125a6576125a561214a565b5b5f6125b388828901612579565b95505060206125c4888289016124ae565b94505060406125d5888289016124ae565b93505060606125e6888289016124ae565b92505060806125f788828901612579565b9150509295509295909350565b7f4e487b71000000000000000000000000000000000000000000000000000000005f52601160045260245ffd5b5f8160011c9050919050565b5f5f8291508390505b60018511156126865780860481111561266257612661612604565b5b60018516156126715780820291505b808102905061267f85612631565b9450612646565b94509492505050565b5f8261269e5760019050612759565b816126ab575f9050612759565b81600181146126c157600281146126cb576126fa565b6001915050612759565b60ff8411156126dd576126dc612604565b5b8360020a9150848211156126f4576126f3612604565b5b50612759565b5060208310610133831016604e8410600b841016171561272f5782820a90508381111561272a57612729612604565b5b612759565b61273c848484600161263d565b9250905081840481111561275357612752612604565b5b81810290505b9392505050565b5f61276a8261214e565b91506127758361214e565b92506127a27fffffffffffffffffffffffffffffffffffffffffffffffffffffffffffffffff848461268f565b905092915050565b5f6127b48261214e565b91506127bf8361214e565b92508282026127cd8161214e565b915082820484148315176127e4576127e3612604565b5b5092915050565b7f4e487b71000000000000000000000000000000000000000000000000000000005f52601260045260245ffd5b5f6128228261214e565b915061282d8361214e565b92508261283d5761283c6127eb565b5b828204905092915050565b5f82825260208201905092915050565b7f556e617574686f72697a656400000000000000000000000000000000000000005f82015250565b5f61288c600c83612848565b915061289782612858565b602082019050919050565b5f6020820190508181035f8301526128b981612880565b9050919050565b5f60a0820190506128d35f8301886121dc565b6128e060208301876121dc565b6128ed60408301866121dc565b6128fa6060830185612259565b6129076080830184612259565b9695505050505050565b5f6040820190506129245f8301856121dc565b6129316020830184612259565b9392505050565b5f81519050612946816123f5565b92915050565b5f602082840312156129615761296061214a565b5b5f61296e84828501612938565b91505092915050565b5f6129818261214e565b915061298c8361214e565b92508282039050818111156129a4576129a3612604565b5b92915050565b5f81905092915050565b50565b5f6129c25f836129aa565b91506129cd826129b4565b5f82019050919050565b5f6129e1826129b7565b9150819050919050565b5f6129f58261214e565b91507fffffffffffffffffffffffffffffffffffffffffffffffffffffffffffffffff8203612a2757612a26612604565b5b600182019050919050565b5f612a3c8261214e565b9150612a478361214e565b9250828201905080821115612a5f57612a5e612604565b5b92915050565b612a6e816121cb565b82525050565b5f62ffffff82169050919050565b612a8b81612a74565b82525050565b612a9a8161214e565b82525050565b612aa9816121ac565b82525050565b61010082015f820151612ac45f850182612a65565b506020820151612ad76020850182612a65565b506040820151612aea6040850182612a82565b506060820151612afd6060850182612a65565b506080820151612b106080850182612a91565b5060a0820151612b2360a0850182612a91565b5060c0820151612b3660c0850182612a91565b5060e0820151612b4960e0850182612aa0565b50505050565b5f61010082019050612b635f830184612aaf565b92915050565b5f606082019050612b7c5f8301866121dc565b612b8960208301856121dc565b612b966040830184612259565b94935050505056fea2646970667358221220f4ba0d23d92dcbbee5539d65e0fe5ce48f210f5799a7a57264e6fb018ff6cf0e64736f6c634300081c0033a264697066735822122099cfb7fde3908678cf3904ff8328a6cfde7015b46f89dce17ebfeef1e9c6c8e264736f6c634300081c0033","linkReferences":{}},"methodIdentifiers":{"deployPosition(address,address)":"2391216b","owner()":"8da5cb5b","setOwner(address)":"13af4035"},"id":125}