{"abi":[{"type":"constructor","inputs":[],"stateMutability":"nonpayable"},{"type":"function","name":"deployPosition","inputs":[{"name":"_lendingPool","type":"address","internalType":"address"},{"name":"_user","type":"address","internalType":"address"}],"outputs":[{"name":"","type":"address","internalType":"address"}],"stateMutability":"nonpayable"},{"type":"function","name":"owner","inputs":[],"outputs":[{"name":"","type":"address","internalType":"address"}],"stateMutability":"view"},{"type":"function","name":"setOwner","inputs":[{"name":"_owner","type":"address","internalType":"address"}],"outputs":[],"stateMutability":"nonpayable"},{"type":"error","name":"OnlyOwnerCanCall","inputs":[]}],"bytecode":{"object":"0x6080604052348015600e575f5ffd5b50335f5f6101000a81548173ffffffffffffffffffffffffffffffffffffffff021916908373ffffffffffffffffffffffffffffffffffffffff160217905550612e5c8061005b5f395ff3fe608060405234801561000f575f5ffd5b506004361061003f575f3560e01c806313af4035146100435780632391216b1461005f5780638da5cb5b1461008f575b5f5ffd5b61005d6004803603810190610058919061024e565b6100ad565b005b61007960048036038101906100749190610279565b6100f7565b60405161008691906102c6565b60405180910390f35b610097610138565b6040516100a491906102c6565b60405180910390f35b6100b561015c565b805f5f6101000a81548173ffffffffffffffffffffffffffffffffffffffff021916908373ffffffffffffffffffffffffffffffffffffffff16021790555050565b5f5f8383604051610107906101e3565b6101129291906102df565b604051809103905ff08015801561012b573d5f5f3e3d5ffd5b5090508091505092915050565b5f5f9054906101000a900473ffffffffffffffffffffffffffffffffffffffff1681565b5f5f9054906101000a900473ffffffffffffffffffffffffffffffffffffffff1673ffffffffffffffffffffffffffffffffffffffff163373ffffffffffffffffffffffffffffffffffffffff16146101e1576040517f47a8ea5800000000000000000000000000000000000000000000000000000000815260040160405180910390fd5b565b612b208061030783390190565b5f5ffd5b5f73ffffffffffffffffffffffffffffffffffffffff82169050919050565b5f61021d826101f4565b9050919050565b61022d81610213565b8114610237575f5ffd5b50565b5f8135905061024881610224565b92915050565b5f60208284031215610263576102626101f0565b5b5f6102708482850161023a565b91505092915050565b5f5f6040838503121561028f5761028e6101f0565b5b5f61029c8582860161023a565b92505060206102ad8582860161023a565b9150509250929050565b6102c081610213565b82525050565b5f6020820190506102d95f8301846102b7565b92915050565b5f6040820190506102f25f8301856102b7565b6102ff60208301846102b7565b939250505056fe608060405234801561000f575f5ffd5b50604051612b20380380612b20833981810160405281019061003191906102f5565b60015f819055508160025f6101000a81548173ffffffffffffffffffffffffffffffffffffffff021916908373ffffffffffffffffffffffffffffffffffffffff1602179055508060015f6101000a81548173ffffffffffffffffffffffffffffffffffffffff021916908373ffffffffffffffffffffffffffffffffffffffff16021790555060035f81546100c690610369565b919050819055506100db61018360201b60201c565b60055f60035481526020019081526020015f205f6101000a81548173ffffffffffffffffffffffffffffffffffffffff021916908373ffffffffffffffffffffffffffffffffffffffff16021790555060035460065f61013f61018360201b60201c565b73ffffffffffffffffffffffffffffffffffffffff1673ffffffffffffffffffffffffffffffffffffffff1681526020019081526020015f208190555050506103db565b5f61019261020360201b60201c565b73ffffffffffffffffffffffffffffffffffffffff1663b2016bd46040518163ffffffff1660e01b8152600401602060405180830381865afa1580156101da573d5f5f3e3d5ffd5b505050506040513d601f19601f820116820180604052508101906101fe91906103b0565b905090565b5f60025f9054906101000a900473ffffffffffffffffffffffffffffffffffffffff1673ffffffffffffffffffffffffffffffffffffffff1663f887ea406040518163ffffffff1660e01b8152600401602060405180830381865afa15801561026e573d5f5f3e3d5ffd5b505050506040513d601f19601f8201168201806040525081019061029291906103b0565b905090565b5f5ffd5b5f73ffffffffffffffffffffffffffffffffffffffff82169050919050565b5f6102c48261029b565b9050919050565b6102d4816102ba565b81146102de575f5ffd5b50565b5f815190506102ef816102cb565b92915050565b5f5f6040838503121561030b5761030a610297565b5b5f610318858286016102e1565b9250506020610329858286016102e1565b9150509250929050565b7f4e487b71000000000000000000000000000000000000000000000000000000005f52601160045260245ffd5b5f819050919050565b5f61037382610360565b91507fffffffffffffffffffffffffffffffffffffffffffffffffffffffffffffffff82036103a5576103a4610333565b5b600182019050919050565b5f602082840312156103c5576103c4610297565b5b5f6103d2848285016102e1565b91505092915050565b612738806103e85f395ff3fe6080604052600436106100aa575f3560e01c80638c3bc0b1116100635780638c3bc0b1146103335780638da5cb5b1461036f5780639b4dc8cc14610399578063b83e62bf146103c3578063bc4c8626146103eb578063f4191e6814610407576101dc565b80630af504cc146102175780631cb928a91461023f5780631fc14d5b1461027b5780634ac8eb5f146102a35780634be89371146102cd57806361bc221a14610309576101dc565b366101dc575f341180156100ca575060045f9054906101000a900460ff16155b80156101095750600173ffffffffffffffffffffffffffffffffffffffff166100f1610443565b73ffffffffffffffffffffffffffffffffffffffff16145b15610177576101166104bd565b73ffffffffffffffffffffffffffffffffffffffff1663d0e30db0346040518263ffffffff1660e01b81526004015f604051808303818588803b15801561015b575f5ffd5b505af115801561016d573d5f5f3e3d5ffd5b50505050506101d9565b5f34118015610191575060045f9054906101000a900460ff165b6101da575f3411156101d8576040517f08c379a00000000000000000000000000000000000000000000000000000000081526004016101cf90611d37565b60405180910390fd5b5b5b005b6040517f08c379a000000000000000000000000000000000000000000000000000000000815260040161020e90611d9f565b60405180910390fd5b348015610222575f5ffd5b5061023d60048036038101906102389190611e4e565b610537565b005b34801561024a575f5ffd5b5061026560048036038101906102609190611e8c565b6105d4565b6040516102729190611ec6565b60405180910390f35b348015610286575f5ffd5b506102a1600480360381019061029c9190611edf565b610604565b005b3480156102ae575f5ffd5b506102b7610829565b6040516102c49190611f3e565b60405180910390f35b3480156102d8575f5ffd5b506102f360048036038101906102ee9190611f57565b61093b565b6040516103009190611f3e565b60405180910390f35b348015610314575f5ffd5b5061031d6109c3565b60405161032a9190611f3e565b60405180910390f35b34801561033e575f5ffd5b5061035960048036038101906103549190611fa7565b6109c9565b6040516103669190611f3e565b60405180910390f35b34801561037a575f5ffd5b50610383610aee565b6040516103909190611ec6565b60405180910390f35b3480156103a4575f5ffd5b506103ad610b13565b6040516103ba9190611ec6565b60405180910390f35b3480156103ce575f5ffd5b506103e960048036038101906103e4919061200b565b610b38565b005b61040560048036038101906104009190611edf565b610d67565b005b348015610412575f5ffd5b5061042d6004803603810190610428919061200b565b611097565b60405161043a9190611f3e565b60405180910390f35b5f61044c6110ac565b73ffffffffffffffffffffffffffffffffffffffff1663b2016bd46040518163ffffffff1660e01b8152600401602060405180830381865afa158015610494573d5f5f3e3d5ffd5b505050506040513d601f19601f820116820180604052508101906104b8919061204a565b905090565b5f6104c6611140565b73ffffffffffffffffffffffffffffffffffffffff1663d999984d6040518163ffffffff1660e01b8152600401602060405180830381865afa15801561050e573d5f5f3e3d5ffd5b505050506040513d601f19601f82011682018060405250810190610532919061204a565b905090565b61053f6111ba565b5f8203610578576040517f1f2a200500000000000000000000000000000000000000000000000000000000815260040160405180910390fd5b6105828282611242565b8073ffffffffffffffffffffffffffffffffffffffff167fa8e76b822fc682be77f3b1c822ea81f6bda5aed92ba82e6873bfd889f328d1d2836040516105c89190611f3e565b60405180910390a25050565b6005602052805f5260405f205f915054906101000a900473ffffffffffffffffffffffffffffffffffffffff1681565b61060c6111ba565b6106393330848673ffffffffffffffffffffffffffffffffffffffff16611483909392919063ffffffff16565b5f61064c84610646611505565b8561157f565b90505f8473ffffffffffffffffffffffffffffffffffffffff166370a08231306040518263ffffffff1660e01b81526004016106889190611ec6565b602060405180830381865afa1580156106a3573d5f5f3e3d5ffd5b505050506040513d601f19601f820116820180604052508101906106c79190612089565b905081811015610703576040517ff4d678b800000000000000000000000000000000000000000000000000000000815260040160405180910390fd5b5f61072761071087611617565b61072061071b611505565b611617565b8587611664565b90508573ffffffffffffffffffffffffffffffffffffffff1663095ea7b360025f9054906101000a900473ffffffffffffffffffffffffffffffffffffffff16836040518363ffffffff1660e01b81526004016107859291906120b4565b6020604051808303815f875af11580156107a1573d5f5f3e3d5ffd5b505050506040513d601f19601f820116820180604052508101906107c59190612110565b5061082160025f9054906101000a900473ffffffffffffffffffffffffffffffffffffffff16826107fc6107f7611505565b611617565b73ffffffffffffffffffffffffffffffffffffffff1661186b9092919063ffffffff16565b505050505050565b5f5f5f90505f600190505b6003548111610933575f60055f8381526020019081526020015f205f9054906101000a900473ffffffffffffffffffffffffffffffffffffffff16905061091261087d82611617565b61088d610888610443565b611617565b61089684611617565b73ffffffffffffffffffffffffffffffffffffffff166370a08231306040518263ffffffff1660e01b81526004016108ce9190611ec6565b602060405180830381865afa1580156108e9573d5f5f3e3d5ffd5b505050506040513d601f19601f8201168201806040525081019061090d9190612089565b61093b565b8361091d9190612168565b925050808061092b9061219b565b915050610834565b508091505090565b5f5f610946856118ea565b90505f610952856118ea565b90505f61095e876119a6565b90505f61096a876119a6565b90505f84600a61097a9190612311565b8285600a6109889190612311565b85610993919061235b565b61099d91906123c9565b886109a8919061235b565b6109b291906123c9565b905080955050505050509392505050565b60035481565b5f846109d481611a36565b846109de81611a36565b6109e66111ba565b848773ffffffffffffffffffffffffffffffffffffffff166370a08231306040518263ffffffff1660e01b8152600401610a209190611ec6565b602060405180830381865afa158015610a3b573d5f5f3e3d5ffd5b505050506040513d601f19601f82011682018060405250810190610a5f9190612089565b1015610a97576040517ff4d678b800000000000000000000000000000000000000000000000000000000815260040160405180910390fd5b610aa387878787611664565b92507fc665f2f5768a61c064dd66125ac01f65d2f20d35ebb13a292211bf50619d753e3388888887604051610adc9594939291906123f9565b60405180910390a15050949350505050565b60015f9054906101000a900473ffffffffffffffffffffffffffffffffffffffff1681565b60025f9054906101000a900473ffffffffffffffffffffffffffffffffffffffff1681565b610b406111ba565b8060015f6101000a81548173ffffffffffffffffffffffffffffffffffffffff021916908373ffffffffffffffffffffffffffffffffffffffff1602179055505f600190505b6003548111610d63575f60055f8381526020019081526020015f205f9054906101000a900473ffffffffffffffffffffffffffffffffffffffff169050600173ffffffffffffffffffffffffffffffffffffffff168173ffffffffffffffffffffffffffffffffffffffff1603610cac57610ca783610c036104bd565b73ffffffffffffffffffffffffffffffffffffffff166370a08231306040518263ffffffff1660e01b8152600401610c3b9190611ec6565b602060405180830381865afa158015610c56573d5f5f3e3d5ffd5b505050506040513d601f19601f82011682018060405250810190610c7a9190612089565b610c826104bd565b73ffffffffffffffffffffffffffffffffffffffff1661186b9092919063ffffffff16565b610d4f565b610d4e838273ffffffffffffffffffffffffffffffffffffffff166370a08231306040518263ffffffff1660e01b8152600401610ce99190611ec6565b602060405180830381865afa158015610d04573d5f5f3e3d5ffd5b505050506040513d601f19601f82011682018060405250810190610d289190612089565b8373ffffffffffffffffffffffffffffffffffffffff1661186b9092919063ffffffff16565b5b508080610d5b9061219b565b915050610b86565b5050565b610d6f6111ba565b610d77611505565b73ffffffffffffffffffffffffffffffffffffffff168373ffffffffffffffffffffffffffffffffffffffff1614610f99575f610dbc84610db6611505565b8561157f565b90505f8473ffffffffffffffffffffffffffffffffffffffff166370a08231306040518263ffffffff1660e01b8152600401610df89190611ec6565b602060405180830381865afa158015610e13573d5f5f3e3d5ffd5b505050506040513d601f19601f82011682018060405250810190610e379190612089565b905081811015610e73576040517ff4d678b800000000000000000000000000000000000000000000000000000000815260040160405180910390fd5b5f610e97610e8087611617565b610e90610e8b611505565b611617565b8587611664565b90508573ffffffffffffffffffffffffffffffffffffffff1663095ea7b360025f9054906101000a900473ffffffffffffffffffffffffffffffffffffffff16836040518363ffffffff1660e01b8152600401610ef59291906120b4565b6020604051808303815f875af1158015610f11573d5f5f3e3d5ffd5b505050506040513d601f19601f82011682018060405250810190610f359190612110565b50610f9160025f9054906101000a900473ffffffffffffffffffffffffffffffffffffffff1682610f6c610f67611505565b611617565b73ffffffffffffffffffffffffffffffffffffffff1661186b9092919063ffffffff16565b505050611092565b8273ffffffffffffffffffffffffffffffffffffffff1663095ea7b360025f9054906101000a900473ffffffffffffffffffffffffffffffffffffffff16846040518363ffffffff1660e01b8152600401610ff59291906120b4565b6020604051808303815f875af1158015611011573d5f5f3e3d5ffd5b505050506040513d601f19601f820116820180604052508101906110359190612110565b5061109160025f9054906101000a900473ffffffffffffffffffffffffffffffffffffffff168361106c611067611505565b611617565b73ffffffffffffffffffffffffffffffffffffffff1661186b9092919063ffffffff16565b5b505050565b6006602052805f5260405f205f915090505481565b5f60025f9054906101000a900473ffffffffffffffffffffffffffffffffffffffff1673ffffffffffffffffffffffffffffffffffffffff1663f887ea406040518163ffffffff1660e01b8152600401602060405180830381865afa158015611117573d5f5f3e3d5ffd5b505050506040513d601f19601f8201168201806040525081019061113b919061204a565b905090565b5f6111496110ac565b73ffffffffffffffffffffffffffffffffffffffff1663c45a01556040518163ffffffff1660e01b8152600401602060405180830381865afa158015611191573d5f5f3e3d5ffd5b505050506040513d601f19601f820116820180604052508101906111b5919061204a565b905090565b60025f9054906101000a900473ffffffffffffffffffffffffffffffffffffffff1673ffffffffffffffffffffffffffffffffffffffff163373ffffffffffffffffffffffffffffffffffffffff1614611240576040517f453c3e9d00000000000000000000000000000000000000000000000000000000815260040160405180910390fd5b565b600173ffffffffffffffffffffffffffffffffffffffff16611262610443565b73ffffffffffffffffffffffffffffffffffffffff160361144c57600160045f6101000a81548160ff02191690831515021790555061129f6104bd565b73ffffffffffffffffffffffffffffffffffffffff1663095ea7b36112c26104bd565b846040518363ffffffff1660e01b81526004016112e09291906120b4565b6020604051808303815f875af11580156112fc573d5f5f3e3d5ffd5b505050506040513d601f19601f820116820180604052508101906113209190612110565b506113296104bd565b73ffffffffffffffffffffffffffffffffffffffff16632e1a7d4d836040518263ffffffff1660e01b81526004016113619190611f3e565b5f604051808303815f87803b158015611378575f5ffd5b505af115801561138a573d5f5f3e3d5ffd5b505050505f8173ffffffffffffffffffffffffffffffffffffffff16836040516113b390612477565b5f6040518083038185875af1925050503d805f81146113ed576040519150601f19603f3d011682016040523d82523d5f602084013e6113f2565b606091505b505090508061142d576040517f90b8ec1800000000000000000000000000000000000000000000000000000000815260040160405180910390fd5b5f60045f6101000a81548160ff0219169083151502179055505061147f565b61147e8183611459610443565b73ffffffffffffffffffffffffffffffffffffffff1661186b9092919063ffffffff16565b5b5050565b6114ff848573ffffffffffffffffffffffffffffffffffffffff166323b872dd8686866040516024016114b89392919061248b565b604051602081830303815290604052915060e01b6020820180517bffffffffffffffffffffffffffffffffffffffffffffffffffffffff8381831617835250505050611b28565b50505050565b5f61150e6110ac565b73ffffffffffffffffffffffffffffffffffffffff1663456dc17a6040518163ffffffff1660e01b8152600401602060405180830381865afa158015611556573d5f5f3e3d5ffd5b505050506040513d601f19601f8201168201806040525081019061157a919061204a565b905090565b5f5f61158a846119a6565b90505f611596866119a6565b90505f6115aa6115a587611617565b6118ea565b90505f6115be6115b989611617565b6118ea565b90505f82600a6115ce9190612311565b846115d9919061235b565b82600a6115e69190612311565b86896115f2919061235b565b6115fc919061235b565b61160691906123c9565b905080955050505050509392505050565b5f600173ffffffffffffffffffffffffffffffffffffffff168273ffffffffffffffffffffffffffffffffffffffff160361165b576116546104bd565b905061165f565b8190505b919050565b5f8473ffffffffffffffffffffffffffffffffffffffff1663095ea7b3611689611bc3565b856040518363ffffffff1660e01b81526004016116a79291906120b4565b6020604051808303815f875af11580156116c3573d5f5f3e3d5ffd5b505050506040513d601f19601f820116820180604052508101906116e79190612110565b505f6040518061010001604052808773ffffffffffffffffffffffffffffffffffffffff16815260200161171a87611617565b73ffffffffffffffffffffffffffffffffffffffff1681526020016103e862ffffff1681526020013073ffffffffffffffffffffffffffffffffffffffff16815260200161012c4261176c9190612168565b81526020018581526020018481526020015f73ffffffffffffffffffffffffffffffffffffffff1681525090506117a1611bc3565b73ffffffffffffffffffffffffffffffffffffffff1663414bf389826040518263ffffffff1660e01b81526004016117d991906125aa565b6020604051808303815f875af11580156117f5573d5f5f3e3d5ffd5b505050506040513d601f19601f820116820180604052508101906118199190612089565b9150828210156118625781836040517fd28d3eb50000000000000000000000000000000000000000000000000000000081526004016118599291906125c4565b60405180910390fd5b50949350505050565b6118e5838473ffffffffffffffffffffffffffffffffffffffff1663a9059cbb858560405160240161189e9291906120b4565b604051602081830303815290604052915060e01b6020820180517bffffffffffffffffffffffffffffffffffffffffffffffffffffffff8381831617835250505050611b28565b505050565b5f6118f36104bd565b73ffffffffffffffffffffffffffffffffffffffff168273ffffffffffffffffffffffffffffffffffffffff160361192e57601290506119a1565b8173ffffffffffffffffffffffffffffffffffffffff1663313ce5676040518163ffffffff1660e01b8152600401602060405180830381865afa158015611977573d5f5f3e3d5ffd5b505050506040513d601f19601f8201168201806040525081019061199b9190612621565b60ff1690505b919050565b5f5f6119b0611c3d565b73ffffffffffffffffffffffffffffffffffffffff1663a13cc76a846040518263ffffffff1660e01b81526004016119e89190611ec6565b60a060405180830381865afa158015611a03573d5f5f3e3d5ffd5b505050506040513d601f19601f82011682018060405250810190611a27919061268b565b50505091505080915050919050565b5f60065f8373ffffffffffffffffffffffffffffffffffffffff1673ffffffffffffffffffffffffffffffffffffffff1681526020019081526020015f205403611b255760035f8154611a889061219b565b919050819055508060055f60035481526020019081526020015f205f6101000a81548173ffffffffffffffffffffffffffffffffffffffff021916908373ffffffffffffffffffffffffffffffffffffffff16021790555060035460065f8373ffffffffffffffffffffffffffffffffffffffff1673ffffffffffffffffffffffffffffffffffffffff1681526020019081526020015f20819055505b50565b5f5f60205f8451602086015f885af180611b47576040513d5f823e3d81fd5b3d92505f519150505f8214611b60576001811415611b7b565b5f8473ffffffffffffffffffffffffffffffffffffffff163b145b15611bbd57836040517f5274afe7000000000000000000000000000000000000000000000000000000008152600401611bb49190611ec6565b60405180910390fd5b50505050565b5f611bcc611140565b73ffffffffffffffffffffffffffffffffffffffff16637af11ac06040518163ffffffff1660e01b8152600401602060405180830381865afa158015611c14573d5f5f3e3d5ffd5b505050506040513d601f19601f82011682018060405250810190611c38919061204a565b905090565b5f611c46611140565b73ffffffffffffffffffffffffffffffffffffffff166375b568a66040518163ffffffff1660e01b8152600401602060405180830381865afa158015611c8e573d5f5f3e3d5ffd5b505050506040513d601f19601f82011682018060405250810190611cb2919061204a565b905090565b5f82825260208201905092915050565b7f506f736974696f6e20646f6573206e6f742068616e646c65206e6174697665205f8201527f746f6b656e730000000000000000000000000000000000000000000000000000602082015250565b5f611d21602683611cb7565b9150611d2c82611cc7565b604082019050919050565b5f6020820190508181035f830152611d4e81611d15565b9050919050565b7f46616c6c6261636b206e6f7420616c6c6f7765640000000000000000000000005f82015250565b5f611d89601483611cb7565b9150611d9482611d55565b602082019050919050565b5f6020820190508181035f830152611db681611d7d565b9050919050565b5f5ffd5b5f819050919050565b611dd381611dc1565b8114611ddd575f5ffd5b50565b5f81359050611dee81611dca565b92915050565b5f73ffffffffffffffffffffffffffffffffffffffff82169050919050565b5f611e1d82611df4565b9050919050565b611e2d81611e13565b8114611e37575f5ffd5b50565b5f81359050611e4881611e24565b92915050565b5f5f60408385031215611e6457611e63611dbd565b5b5f611e7185828601611de0565b9250506020611e8285828601611e3a565b9150509250929050565b5f60208284031215611ea157611ea0611dbd565b5b5f611eae84828501611de0565b91505092915050565b611ec081611e13565b82525050565b5f602082019050611ed95f830184611eb7565b92915050565b5f5f5f60608486031215611ef657611ef5611dbd565b5b5f611f0386828701611e3a565b9350506020611f1486828701611de0565b9250506040611f2586828701611de0565b9150509250925092565b611f3881611dc1565b82525050565b5f602082019050611f515f830184611f2f565b92915050565b5f5f5f60608486031215611f6e57611f6d611dbd565b5b5f611f7b86828701611e3a565b9350506020611f8c86828701611e3a565b9250506040611f9d86828701611de0565b9150509250925092565b5f5f5f5f60808587031215611fbf57611fbe611dbd565b5b5f611fcc87828801611e3a565b9450506020611fdd87828801611e3a565b9350506040611fee87828801611de0565b9250506060611fff87828801611de0565b91505092959194509250565b5f602082840312156120205761201f611dbd565b5b5f61202d84828501611e3a565b91505092915050565b5f8151905061204481611e24565b92915050565b5f6020828403121561205f5761205e611dbd565b5b5f61206c84828501612036565b91505092915050565b5f8151905061208381611dca565b92915050565b5f6020828403121561209e5761209d611dbd565b5b5f6120ab84828501612075565b91505092915050565b5f6040820190506120c75f830185611eb7565b6120d46020830184611f2f565b9392505050565b5f8115159050919050565b6120ef816120db565b81146120f9575f5ffd5b50565b5f8151905061210a816120e6565b92915050565b5f6020828403121561212557612124611dbd565b5b5f612132848285016120fc565b91505092915050565b7f4e487b71000000000000000000000000000000000000000000000000000000005f52601160045260245ffd5b5f61217282611dc1565b915061217d83611dc1565b92508282019050808211156121955761219461213b565b5b92915050565b5f6121a582611dc1565b91507fffffffffffffffffffffffffffffffffffffffffffffffffffffffffffffffff82036121d7576121d661213b565b5b600182019050919050565b5f8160011c9050919050565b5f5f8291508390505b6001851115612237578086048111156122135761221261213b565b5b60018516156122225780820291505b8081029050612230856121e2565b94506121f7565b94509492505050565b5f8261224f576001905061230a565b8161225c575f905061230a565b8160018114612272576002811461227c576122ab565b600191505061230a565b60ff84111561228e5761228d61213b565b5b8360020a9150848211156122a5576122a461213b565b5b5061230a565b5060208310610133831016604e8410600b84101617156122e05782820a9050838111156122db576122da61213b565b5b61230a565b6122ed84848460016121ee565b925090508184048111156123045761230361213b565b5b81810290505b9392505050565b5f61231b82611dc1565b915061232683611dc1565b92506123537fffffffffffffffffffffffffffffffffffffffffffffffffffffffffffffffff8484612240565b905092915050565b5f61236582611dc1565b915061237083611dc1565b925082820261237e81611dc1565b915082820484148315176123955761239461213b565b5b5092915050565b7f4e487b71000000000000000000000000000000000000000000000000000000005f52601260045260245ffd5b5f6123d382611dc1565b91506123de83611dc1565b9250826123ee576123ed61239c565b5b828204905092915050565b5f60a08201905061240c5f830188611eb7565b6124196020830187611eb7565b6124266040830186611eb7565b6124336060830185611f2f565b6124406080830184611f2f565b9695505050505050565b5f81905092915050565b50565b5f6124625f8361244a565b915061246d82612454565b5f82019050919050565b5f61248182612457565b9150819050919050565b5f60608201905061249e5f830186611eb7565b6124ab6020830185611eb7565b6124b86040830184611f2f565b949350505050565b6124c981611e13565b82525050565b5f62ffffff82169050919050565b6124e6816124cf565b82525050565b6124f581611dc1565b82525050565b61250481611df4565b82525050565b61010082015f82015161251f5f8501826124c0565b50602082015161253260208501826124c0565b50604082015161254560408501826124dd565b50606082015161255860608501826124c0565b50608082015161256b60808501826124ec565b5060a082015161257e60a08501826124ec565b5060c082015161259160c08501826124ec565b5060e08201516125a460e08501826124fb565b50505050565b5f610100820190506125be5f83018461250a565b92915050565b5f6040820190506125d75f830185611f2f565b6125e46020830184611f2f565b9392505050565b5f60ff82169050919050565b612600816125eb565b811461260a575f5ffd5b50565b5f8151905061261b816125f7565b92915050565b5f6020828403121561263657612635611dbd565b5b5f6126438482850161260d565b91505092915050565b5f69ffffffffffffffffffff82169050919050565b61266a8161264c565b8114612674575f5ffd5b50565b5f8151905061268581612661565b92915050565b5f5f5f5f5f60a086880312156126a4576126a3611dbd565b5b5f6126b188828901612677565b95505060206126c288828901612075565b94505060406126d388828901612075565b93505060606126e488828901612075565b92505060806126f588828901612677565b915050929550929590935056fea2646970667358221220a96f648128830a413b7190c369fba5d1ca01c01f60d1de8b1592464fe74b83d664736f6c634300081e0033a26469706673582212205bcb7a911d2343fa17ce7ab44bc5df834e5958c73ec51ab256c5539f98cb943264736f6c634300081e0033","linkReferences":{}},"methodIdentifiers":{"deployPosition(address,address)":"2391216b","owner()":"8da5cb5b","setOwner(address)":"13af4035"},"id":109}