{"abi":[{"type":"constructor","inputs":[{"name":"_endpoint","type":"address","internalType":"address"},{"name":"_owner","type":"address","internalType":"address"}],"stateMutability":"nonpayable"},{"type":"function","name":"SEND","inputs":[],"outputs":[{"name":"","type":"uint16","internalType":"uint16"}],"stateMutability":"view"},{"type":"function","name":"allowInitializePath","inputs":[{"name":"origin","type":"tuple","internalType":"struct Origin","components":[{"name":"srcEid","type":"uint32","internalType":"uint32"},{"name":"sender","type":"bytes32","internalType":"bytes32"},{"name":"nonce","type":"uint64","internalType":"uint64"}]}],"outputs":[{"name":"","type":"bool","internalType":"bool"}],"stateMutability":"view"},{"type":"function","name":"combineOptions","inputs":[{"name":"_eid","type":"uint32","internalType":"uint32"},{"name":"_msgType","type":"uint16","internalType":"uint16"},{"name":"_extraOptions","type":"bytes","internalType":"bytes"}],"outputs":[{"name":"","type":"bytes","internalType":"bytes"}],"stateMutability":"view"},{"type":"function","name":"endpoint","inputs":[],"outputs":[{"name":"","type":"address","internalType":"contract ILayerZeroEndpointV2"}],"stateMutability":"view"},{"type":"function","name":"enforcedOptions","inputs":[{"name":"eid","type":"uint32","internalType":"uint32"},{"name":"msgType","type":"uint16","internalType":"uint16"}],"outputs":[{"name":"enforcedOption","type":"bytes","internalType":"bytes"}],"stateMutability":"view"},{"type":"function","name":"execute","inputs":[{"name":"_lendingPool","type":"address","internalType":"address"},{"name":"_user","type":"address","internalType":"address"},{"name":"_amount","type":"uint256","internalType":"uint256"}],"outputs":[],"stateMutability":"nonpayable"},{"type":"function","name":"factory","inputs":[],"outputs":[{"name":"","type":"address","internalType":"address"}],"stateMutability":"view"},{"type":"function","name":"isComposeMsgSender","inputs":[{"name":"","type":"tuple","internalType":"struct Origin","components":[{"name":"srcEid","type":"uint32","internalType":"uint32"},{"name":"sender","type":"bytes32","internalType":"bytes32"},{"name":"nonce","type":"uint64","internalType":"uint64"}]},{"name":"","type":"bytes","internalType":"bytes"},{"name":"_sender","type":"address","internalType":"address"}],"outputs":[{"name":"","type":"bool","internalType":"bool"}],"stateMutability":"view"},{"type":"function","name":"lastMessage","inputs":[],"outputs":[{"name":"","type":"bytes","internalType":"bytes"}],"stateMutability":"view"},{"type":"function","name":"lzReceive","inputs":[{"name":"_origin","type":"tuple","internalType":"struct Origin","components":[{"name":"srcEid","type":"uint32","internalType":"uint32"},{"name":"sender","type":"bytes32","internalType":"bytes32"},{"name":"nonce","type":"uint64","internalType":"uint64"}]},{"name":"_guid","type":"bytes32","internalType":"bytes32"},{"name":"_message","type":"bytes","internalType":"bytes"},{"name":"_executor","type":"address","internalType":"address"},{"name":"_extraData","type":"bytes","internalType":"bytes"}],"outputs":[],"stateMutability":"payable"},{"type":"function","name":"nextNonce","inputs":[{"name":"","type":"uint32","internalType":"uint32"},{"name":"","type":"bytes32","internalType":"bytes32"}],"outputs":[{"name":"nonce","type":"uint64","internalType":"uint64"}],"stateMutability":"view"},{"type":"function","name":"oAppVersion","inputs":[],"outputs":[{"name":"senderVersion","type":"uint64","internalType":"uint64"},{"name":"receiverVersion","type":"uint64","internalType":"uint64"}],"stateMutability":"pure"},{"type":"function","name":"oftaddress","inputs":[],"outputs":[{"name":"","type":"address","internalType":"address"}],"stateMutability":"view"},{"type":"function","name":"owner","inputs":[],"outputs":[{"name":"","type":"address","internalType":"address"}],"stateMutability":"view"},{"type":"function","name":"peers","inputs":[{"name":"eid","type":"uint32","internalType":"uint32"}],"outputs":[{"name":"peer","type":"bytes32","internalType":"bytes32"}],"stateMutability":"view"},{"type":"function","name":"quoteSendString","inputs":[{"name":"_dstEid","type":"uint32","internalType":"uint32"},{"name":"_string","type":"string","internalType":"string"},{"name":"_options","type":"bytes","internalType":"bytes"},{"name":"_payInLzToken","type":"bool","internalType":"bool"}],"outputs":[{"name":"fee","type":"tuple","internalType":"struct MessagingFee","components":[{"name":"nativeFee","type":"uint256","internalType":"uint256"},{"name":"lzTokenFee","type":"uint256","internalType":"uint256"}]}],"stateMutability":"view"},{"type":"function","name":"renounceOwnership","inputs":[],"outputs":[],"stateMutability":"nonpayable"},{"type":"function","name":"sendString","inputs":[{"name":"_dstEid","type":"uint32","internalType":"uint32"},{"name":"_lendingPool","type":"address","internalType":"address"},{"name":"_user","type":"address","internalType":"address"},{"name":"_token","type":"address","internalType":"address"},{"name":"_amount","type":"uint256","internalType":"uint256"},{"name":"_slippageTolerance","type":"uint256","internalType":"uint256"},{"name":"_options","type":"bytes","internalType":"bytes"}],"outputs":[],"stateMutability":"payable"},{"type":"function","name":"setDelegate","inputs":[{"name":"_delegate","type":"address","internalType":"address"}],"outputs":[],"stateMutability":"nonpayable"},{"type":"function","name":"setEnforcedOptions","inputs":[{"name":"_enforcedOptions","type":"tuple[]","internalType":"struct EnforcedOptionParam[]","components":[{"name":"eid","type":"uint32","internalType":"uint32"},{"name":"msgType","type":"uint16","internalType":"uint16"},{"name":"options","type":"bytes","internalType":"bytes"}]}],"outputs":[],"stateMutability":"nonpayable"},{"type":"function","name":"setFactory","inputs":[{"name":"_factory","type":"address","internalType":"address"}],"outputs":[],"stateMutability":"nonpayable"},{"type":"function","name":"setPeer","inputs":[{"name":"_eid","type":"uint32","internalType":"uint32"},{"name":"_peer","type":"bytes32","internalType":"bytes32"}],"outputs":[],"stateMutability":"nonpayable"},{"type":"function","name":"transferOwnership","inputs":[{"name":"newOwner","type":"address","internalType":"address"}],"outputs":[],"stateMutability":"nonpayable"},{"type":"function","name":"userAmount","inputs":[{"name":"","type":"address","internalType":"address"}],"outputs":[{"name":"","type":"uint256","internalType":"uint256"}],"stateMutability":"view"},{"type":"event","name":"EnforcedOptionSet","inputs":[{"name":"_enforcedOptions","type":"tuple[]","indexed":false,"internalType":"struct EnforcedOptionParam[]","components":[{"name":"eid","type":"uint32","internalType":"uint32"},{"name":"msgType","type":"uint16","internalType":"uint16"},{"name":"options","type":"bytes","internalType":"bytes"}]}],"anonymous":false},{"type":"event","name":"LzSendLiquidity","inputs":[{"name":"lendingPool","type":"address","indexed":false,"internalType":"address"},{"name":"user","type":"address","indexed":false,"internalType":"address"},{"name":"token","type":"address","indexed":false,"internalType":"address"},{"name":"amount","type":"uint256","indexed":false,"internalType":"uint256"}],"anonymous":false},{"type":"event","name":"OwnershipTransferred","inputs":[{"name":"previousOwner","type":"address","indexed":true,"internalType":"address"},{"name":"newOwner","type":"address","indexed":true,"internalType":"address"}],"anonymous":false},{"type":"event","name":"PeerSet","inputs":[{"name":"eid","type":"uint32","indexed":false,"internalType":"uint32"},{"name":"peer","type":"bytes32","indexed":false,"internalType":"bytes32"}],"anonymous":false},{"type":"error","name":"InsufficientBalance","inputs":[]},{"type":"error","name":"InvalidDelegate","inputs":[]},{"type":"error","name":"InvalidEndpointCall","inputs":[]},{"type":"error","name":"InvalidOptionType","inputs":[{"name":"optionType","type":"uint16","internalType":"uint16"}]},{"type":"error","name":"InvalidOptions","inputs":[{"name":"options","type":"bytes","internalType":"bytes"}]},{"type":"error","name":"LzTokenUnavailable","inputs":[]},{"type":"error","name":"NoPeer","inputs":[{"name":"eid","type":"uint32","internalType":"uint32"}]},{"type":"error","name":"NotEnoughNative","inputs":[{"name":"msgValue","type":"uint256","internalType":"uint256"}]},{"type":"error","name":"OnlyEndpoint","inputs":[{"name":"addr","type":"address","internalType":"address"}]},{"type":"error","name":"OnlyPeer","inputs":[{"name":"eid","type":"uint32","internalType":"uint32"},{"name":"sender","type":"bytes32","internalType":"bytes32"}]},{"type":"error","name":"OwnableInvalidOwner","inputs":[{"name":"owner","type":"address","internalType":"address"}]},{"type":"error","name":"OwnableUnauthorizedAccount","inputs":[{"name":"account","type":"address","internalType":"address"}]},{"type":"error","name":"SafeCastOverflowedUintDowncast","inputs":[{"name":"bits","type":"uint8","internalType":"uint8"},{"name":"value","type":"uint256","internalType":"uint256"}]},{"type":"error","name":"SafeERC20FailedOperation","inputs":[{"name":"token","type":"address","internalType":"address"}]}],"bytecode":{"object":"0x60a060405234801561000f575f5ffd5b50604051613e2b380380613e2b833981810160405281019061003191906102e1565b81818181845f73ffffffffffffffffffffffffffffffffffffffff168173ffffffffffffffffffffffffffffffffffffffff16036100a6575f6040517f1e4fbdf700000000000000000000000000000000000000000000000000000000815260040161009d919061032e565b60405180910390fd5b6100b5816101c260201b60201c565b508173ffffffffffffffffffffffffffffffffffffffff1660808173ffffffffffffffffffffffffffffffffffffffff16815250505f73ffffffffffffffffffffffffffffffffffffffff168173ffffffffffffffffffffffffffffffffffffffff160361014f576040517fb586360400000000000000000000000000000000000000000000000000000000815260040160405180910390fd5b60805173ffffffffffffffffffffffffffffffffffffffff1663ca5eb5e1826040518263ffffffff1660e01b815260040161018a919061032e565b5f604051808303815f87803b1580156101a1575f5ffd5b505af11580156101b3573d5f5f3e3d5ffd5b50505050505050505050610347565b5f5f5f9054906101000a900473ffffffffffffffffffffffffffffffffffffffff169050815f5f6101000a81548173ffffffffffffffffffffffffffffffffffffffff021916908373ffffffffffffffffffffffffffffffffffffffff1602179055508173ffffffffffffffffffffffffffffffffffffffff168173ffffffffffffffffffffffffffffffffffffffff167f8be0079c531659141344cd1fd0a4f28419497f9722a3daafe3b4186f6b6457e060405160405180910390a35050565b5f5ffd5b5f73ffffffffffffffffffffffffffffffffffffffff82169050919050565b5f6102b082610287565b9050919050565b6102c0816102a6565b81146102ca575f5ffd5b50565b5f815190506102db816102b7565b92915050565b5f5f604083850312156102f7576102f6610283565b5b5f610304858286016102cd565b9250506020610315858286016102cd565b9150509250929050565b610328816102a6565b82525050565b5f6020820190506103415f83018461031f565b92915050565b608051613aa26103895f395f81816105ac01528181610a8201528181610dae0152818161137e0152818161177e0152818161198d0152611a850152613aa25ff3fe60806040526004361061014a575f3560e01c80638da5cb5b116100b5578063ca5eb5e11161006e578063ca5eb5e114610467578063d3b4866e1461048f578063e1ad418e146104cb578063eafaddfd14610507578063f2fde38b1461052f578063ff7bd03d146105575761014a565b80638da5cb5b146103495780639c967afa14610373578063b98bd0701461039d578063bb0b6a53146103c5578063bc70b35414610401578063c45a01551461043d5761014a565b806359ce5fa91161010757806359ce5fa91461024d5780635bb47808146102695780635e280f1114610291578063715018a6146102bb5780637d25a05e146102d157806382413eac1461030d5761014a565b806313137d651461014e57806317442b701461016a5780631f5e13341461019557806332970710146101bf5780633400288b146101e95780635535d46114610211575b5f5ffd5b61016860048036038101906101639190611f35565b610593565b005b348015610175575f5ffd5b5061017e6106b3565b60405161018c92919061200e565b60405180910390f35b3480156101a0575f5ffd5b506101a96106c1565b6040516101b69190612051565b60405180910390f35b3480156101ca575f5ffd5b506101d36106c6565b6040516101e091906120da565b60405180910390f35b3480156101f4575f5ffd5b5061020f600480360381019061020a9190612133565b610752565b005b34801561021c575f5ffd5b506102376004803603810190610232919061219b565b610768565b60405161024491906120da565b60405180910390f35b6102676004803603810190610262919061220c565b61080e565b005b348015610274575f5ffd5b5061028f600480360381019061028a91906122c9565b610a3d565b005b34801561029c575f5ffd5b506102a5610a80565b6040516102b2919061234f565b60405180910390f35b3480156102c6575f5ffd5b506102cf610aa4565b005b3480156102dc575f5ffd5b506102f760048036038101906102f29190612133565b610ab7565b6040516103049190612368565b60405180910390f35b348015610318575f5ffd5b50610333600480360381019061032e9190612381565b610ac1565b604051610340919061240c565b60405180910390f35b348015610354575f5ffd5b5061035d610afb565b60405161036a9190612434565b60405180910390f35b34801561037e575f5ffd5b50610387610b22565b6040516103949190612434565b60405180910390f35b3480156103a8575f5ffd5b506103c360048036038101906103be91906124a2565b610b47565b005b3480156103d0575f5ffd5b506103eb60048036038101906103e691906124ed565b610b68565b6040516103f89190612527565b60405180910390f35b34801561040c575f5ffd5b5061042760048036038101906104229190612540565b610b7d565b60405161043491906120da565b60405180910390f35b348015610448575f5ffd5b50610451610d7f565b60405161045e9190612434565b60405180910390f35b348015610472575f5ffd5b5061048d600480360381019061048891906122c9565b610da4565b005b34801561049a575f5ffd5b506104b560048036038101906104b09190612630565b610e35565b6040516104c2919061270f565b60405180910390f35b3480156104d6575f5ffd5b506104f160048036038101906104ec91906122c9565b610e87565b6040516104fe9190612737565b60405180910390f35b348015610512575f5ffd5b5061052d60048036038101906105289190612750565b610e9c565b005b34801561053a575f5ffd5b50610555600480360381019061055091906122c9565b61105c565b005b348015610562575f5ffd5b5061057d600480360381019061057891906127a0565b6110e0565b60405161058a919061240c565b60405180910390f35b3373ffffffffffffffffffffffffffffffffffffffff167f000000000000000000000000000000000000000000000000000000000000000073ffffffffffffffffffffffffffffffffffffffff161461062357336040517f91ac5e4f00000000000000000000000000000000000000000000000000000000815260040161061a9190612434565b60405180910390fd5b8660200135610642885f01602081019061063d91906124ed565b61111d565b1461069b57865f01602081019061065991906124ed565b87602001356040517fc26bebcc0000000000000000000000000000000000000000000000000000000081526004016106929291906127da565b60405180910390fd5b6106aa8787878787878761118e565b50505050505050565b5f5f60016002915091509091565b600181565b600380546106d39061282e565b80601f01602080910402602001604051908101604052809291908181526020018280546106ff9061282e565b801561074a5780601f106107215761010080835404028352916020019161074a565b820191905f5260205f20905b81548152906001019060200180831161072d57829003601f168201915b505050505081565b61075a611265565b61076482826112ec565b5050565b6002602052815f5260405f20602052805f5260405f205f9150915050805461078f9061282e565b80601f01602080910402602001604051908101604052809291908181526020018280546107bb9061282e565b80156108065780601f106107dd57610100808354040283529160200191610806565b820191905f5260205f20905b8154815290600101906020018083116107e957829003601f168201915b505050505081565b5f87878787604051602001610826949392919061285e565b604051602081830303815290604052905061086489826108498c60018888610b7d565b60405180604001604052803481526020015f8152503361134b565b505f60055f9054906101000a900473ffffffffffffffffffffffffffffffffffffffff1690505f6108a961fde85f61089a611461565b6114899092919063ffffffff16565b90505f6040518060e001604052808d63ffffffff1681526020016108cc8c611521565b815260200189815260200160648960646108e691906128ce565b8b6108f19190612901565b6108fb919061296f565b815260200183815260200160405180602001604052805f815250815260200160405180602001604052805f81525081525090505f8373ffffffffffffffffffffffffffffffffffffffff16633b6f743b835f6040518363ffffffff1660e01b815260040161096a929190612aac565b6040805180830381865afa158015610984573d5f5f3e3d5ffd5b505050506040513d601f19601f820116820180604052508101906109a89190612bbb565b90508373ffffffffffffffffffffffffffffffffffffffff1663c7c7f5b3825f01518484336040518563ffffffff1660e01b81526004016109eb93929190612be6565b60c06040518083038185885af1158015610a07573d5f5f3e3d5ffd5b50505050506040513d601f19601f82011682018060405250810190610a2c9190612d0e565b505050505050505050505050505050565b8060045f6101000a81548173ffffffffffffffffffffffffffffffffffffffff021916908373ffffffffffffffffffffffffffffffffffffffff16021790555050565b7f000000000000000000000000000000000000000000000000000000000000000081565b610aac611265565b610ab55f611542565b565b5f5f905092915050565b5f3073ffffffffffffffffffffffffffffffffffffffff168273ffffffffffffffffffffffffffffffffffffffff16149050949350505050565b5f5f5f9054906101000a900473ffffffffffffffffffffffffffffffffffffffff16905090565b60055f9054906101000a900473ffffffffffffffffffffffffffffffffffffffff1681565b610b4f611265565b610b64828290610b5f9190612f2a565b611603565b5050565b6001602052805f5260405f205f915090505481565b60605f60025f8763ffffffff1663ffffffff1681526020019081526020015f205f8661ffff1661ffff1681526020019081526020015f208054610bbf9061282e565b80601f0160208091040260200160405190810160405280929190818152602001828054610beb9061282e565b8015610c365780601f10610c0d57610100808354040283529160200191610c36565b820191905f5260205f20905b815481529060010190602001808311610c1957829003601f168201915b505050505090505f815103610c915783838080601f0160208091040260200160405190810160405280939291908181526020018383808284375f81840152601f19601f82011690508083019250505050505050915050610d77565b5f8484905003610ca45780915050610d77565b60028484905010610d3857610cfb84848080601f0160208091040260200160405190810160405280939291908181526020018383808284375f81840152601f19601f8201169050808301925050505050505061171b565b8084846002908092610d0f93929190612f46565b604051602001610d2193929190612fde565b604051602081830303815290604052915050610d77565b83836040517f9a6d49cd000000000000000000000000000000000000000000000000000000008152600401610d6e92919061302f565b60405180910390fd5b949350505050565b60045f9054906101000a900473ffffffffffffffffffffffffffffffffffffffff1681565b610dac611265565b7f000000000000000000000000000000000000000000000000000000000000000073ffffffffffffffffffffffffffffffffffffffff1663ca5eb5e1826040518263ffffffff1660e01b8152600401610e059190612434565b5f604051808303815f87803b158015610e1c575f5ffd5b505af1158015610e2e573d5f5f3e3d5ffd5b5050505050565b610e3d611dcd565b5f8686604051602001610e5192919061308d565b6040516020818303038152906040529050610e7a8882610e748b60018a8a610b7d565b86611774565b9150509695505050505050565b6006602052805f5260405f205f915090505481565b60065f8373ffffffffffffffffffffffffffffffffffffffff1673ffffffffffffffffffffffffffffffffffffffff1681526020019081526020015f2054811115610f13576040517ff4d678b800000000000000000000000000000000000000000000000000000000815260040160405180910390fd5b5f610f1d84611855565b90508073ffffffffffffffffffffffffffffffffffffffff1663095ea7b385846040518363ffffffff1660e01b8152600401610f5a9291906130af565b6020604051808303815f875af1158015610f76573d5f5f3e3d5ffd5b505050506040513d601f19601f82011682018060405250810190610f9a91906130ea565b508373ffffffffffffffffffffffffffffffffffffffff1663b39e377184846040518363ffffffff1660e01b8152600401610fd69291906130af565b5f604051808303815f87803b158015610fed575f5ffd5b505af1158015610fff573d5f5f3e3d5ffd5b505050508160065f8573ffffffffffffffffffffffffffffffffffffffff1673ffffffffffffffffffffffffffffffffffffffff1681526020019081526020015f205f82825461104f91906128ce565b9250508190555050505050565b611064611265565b5f73ffffffffffffffffffffffffffffffffffffffff168173ffffffffffffffffffffffffffffffffffffffff16036110d4575f6040517f1e4fbdf70000000000000000000000000000000000000000000000000000000081526004016110cb9190612434565b60405180910390fd5b6110dd81611542565b50565b5f816020013560015f845f0160208101906110fb91906124ed565b63ffffffff1663ffffffff1681526020019081526020015f2054149050919050565b5f5f60015f8463ffffffff1663ffffffff1681526020019081526020015f205490505f5f1b810361118557826040517ff6ff4fb700000000000000000000000000000000000000000000000000000000815260040161117c9190613115565b60405180910390fd5b80915050919050565b5f5f5f5f88888101906111a19190613169565b93509350935093505f6111b385611855565b90508160065f8673ffffffffffffffffffffffffffffffffffffffff1673ffffffffffffffffffffffffffffffffffffffff1681526020019081526020015f205f82825461120191906131cd565b925050819055508989600391826112199291906133a1565b507f8c9a07d3e518bb27d8473ac52893691b2dafbef7d06025ae18e7121356c9334e8585858560405161124f949392919061285e565b60405180910390a1505050505050505050505050565b61126d611936565b73ffffffffffffffffffffffffffffffffffffffff1661128b610afb565b73ffffffffffffffffffffffffffffffffffffffff16146112ea576112ae611936565b6040517f118cdaa70000000000000000000000000000000000000000000000000000000081526004016112e19190612434565b60405180910390fd5b565b8060015f8463ffffffff1663ffffffff1681526020019081526020015f20819055507f238399d427b947898edb290f5ff0f9109849b1c3ba196a42e35f00c50a54b98b828260405161133f9291906127da565b60405180910390a15050565b611353611de5565b5f611360845f015161193d565b90505f8460200151111561137c5761137b846020015161198a565b5b7f000000000000000000000000000000000000000000000000000000000000000073ffffffffffffffffffffffffffffffffffffffff16632637a450826040518060a001604052808b63ffffffff1681526020016113d98c61111d565b81526020018a81526020018981526020015f8960200151111515815250866040518463ffffffff1660e01b81526004016114149291906134f7565b60806040518083038185885af1158015611430573d5f5f3e3d5ffd5b50505050506040513d601f19601f820116820180604052508101906114559190613525565b91505095945050505050565b606060036040516020016114759190613584565b604051602081830303815290604052905090565b606083600361ffff166114a55f83611ad090919063ffffffff16565b61ffff16146114fd576114c15f82611ad090919063ffffffff16565b6040517f3a51740d0000000000000000000000000000000000000000000000000000000081526004016114f49190612051565b60405180910390fd5b5f6115088585611b35565b905061151686600183611ba0565b925050509392505050565b5f8173ffffffffffffffffffffffffffffffffffffffff165f1b9050919050565b5f5f5f9054906101000a900473ffffffffffffffffffffffffffffffffffffffff169050815f5f6101000a81548173ffffffffffffffffffffffffffffffffffffffff021916908373ffffffffffffffffffffffffffffffffffffffff1602179055508173ffffffffffffffffffffffffffffffffffffffff168173ffffffffffffffffffffffffffffffffffffffff167f8be0079c531659141344cd1fd0a4f28419497f9722a3daafe3b4186f6b6457e060405160405180910390a35050565b5f5f90505b81518110156116e0576116388282815181106116275761162661359e565b5b60200260200101516040015161171b565b81818151811061164b5761164a61359e565b5b60200260200101516040015160025f84848151811061166d5761166c61359e565b5b60200260200101515f015163ffffffff1663ffffffff1681526020019081526020015f205f8484815181106116a5576116a461359e565b5b60200260200101516020015161ffff1661ffff1681526020019081526020015f2090816116d291906135cb565b508080600101915050611608565b507fbe4864a8e820971c0247f5992e2da559595f7bf076a21cb5928d443d2a13b6748160405161171091906137b1565b60405180910390a150565b5f60028201519050600361ffff168161ffff161461177057816040517f9a6d49cd00000000000000000000000000000000000000000000000000000000815260040161176791906120da565b60405180910390fd5b5050565b61177c611dcd565b7f000000000000000000000000000000000000000000000000000000000000000073ffffffffffffffffffffffffffffffffffffffff1663ddc28c586040518060a001604052808863ffffffff1681526020016117d88961111d565b8152602001878152602001868152602001851515815250306040518363ffffffff1660e01b815260040161180d9291906134f7565b6040805180830381865afa158015611827573d5f5f3e3d5ffd5b505050506040513d601f19601f8201168201806040525081019061184b9190612bbb565b9050949350505050565b5f8173ffffffffffffffffffffffffffffffffffffffff1663f887ea406040518163ffffffff1660e01b8152600401602060405180830381865afa15801561189f573d5f5f3e3d5ffd5b505050506040513d601f19601f820116820180604052508101906118c391906137e5565b73ffffffffffffffffffffffffffffffffffffffff1663456dc17a6040518163ffffffff1660e01b8152600401602060405180830381865afa15801561190b573d5f5f3e3d5ffd5b505050506040513d601f19601f8201168201806040525081019061192f91906137e5565b9050919050565b5f33905090565b5f81341461198257346040517f9f7041200000000000000000000000000000000000000000000000000000000081526004016119799190612737565b60405180910390fd5b819050919050565b5f7f000000000000000000000000000000000000000000000000000000000000000073ffffffffffffffffffffffffffffffffffffffff1663e4fe1d946040518163ffffffff1660e01b8152600401602060405180830381865afa1580156119f4573d5f5f3e3d5ffd5b505050506040513d601f19601f82011682018060405250810190611a1891906137e5565b90505f73ffffffffffffffffffffffffffffffffffffffff168173ffffffffffffffffffffffffffffffffffffffff1603611a7f576040517f5373352a00000000000000000000000000000000000000000000000000000000815260040160405180910390fd5b611acc337f0000000000000000000000000000000000000000000000000000000000000000848473ffffffffffffffffffffffffffffffffffffffff16611c5b909392919063ffffffff16565b5050565b5f600282611ade91906131cd565b83511015611b21576040517f08c379a0000000000000000000000000000000000000000000000000000000008152600401611b189061385a565b60405180910390fd5b5f8260028501015190508091505092915050565b60605f826fffffffffffffffffffffffffffffffff1614611b77578282604051602001611b639291906138c7565b604051602081830303815290604052611b98565b82604051602001611b8891906138f2565b6040516020818303038152906040525b905092915050565b606083600361ffff16611bbc5f83611ad090919063ffffffff16565b61ffff1614611c1457611bd85f82611ad090919063ffffffff16565b6040517f3a51740d000000000000000000000000000000000000000000000000000000008152600401611c0b9190612051565b60405180910390fd5b84600180611c228651611cdd565b611c2c919061390c565b8686604051602001611c42959493929190613981565b6040516020818303038152906040529150509392505050565b611cd7848573ffffffffffffffffffffffffffffffffffffffff166323b872dd868686604051602401611c90939291906139d7565b604051602081830303815290604052915060e01b6020820180517bffffffffffffffffffffffffffffffffffffffffffffffffffffffff8381831617835250505050611d32565b50505050565b5f61ffff8016821115611d2a576010826040517f6dfcc650000000000000000000000000000000000000000000000000000000008152600401611d21929190613a45565b60405180910390fd5b819050919050565b5f5f60205f8451602086015f885af180611d51576040513d5f823e3d81fd5b3d92505f519150505f8214611d6a576001811415611d85565b5f8473ffffffffffffffffffffffffffffffffffffffff163b145b15611dc757836040517f5274afe7000000000000000000000000000000000000000000000000000000008152600401611dbe9190612434565b60405180910390fd5b50505050565b60405180604001604052805f81526020015f81525090565b60405180606001604052805f81526020015f67ffffffffffffffff168152602001611e0e611dcd565b81525090565b5f604051905090565b5f5ffd5b5f5ffd5b5f5ffd5b5f60608284031215611e3e57611e3d611e25565b5b81905092915050565b5f819050919050565b611e5981611e47565b8114611e63575f5ffd5b50565b5f81359050611e7481611e50565b92915050565b5f5ffd5b5f5ffd5b5f5ffd5b5f5f83601f840112611e9b57611e9a611e7a565b5b8235905067ffffffffffffffff811115611eb857611eb7611e7e565b5b602083019150836001820283011115611ed457611ed3611e82565b5b9250929050565b5f73ffffffffffffffffffffffffffffffffffffffff82169050919050565b5f611f0482611edb565b9050919050565b611f1481611efa565b8114611f1e575f5ffd5b50565b5f81359050611f2f81611f0b565b92915050565b5f5f5f5f5f5f5f60e0888a031215611f5057611f4f611e1d565b5b5f611f5d8a828b01611e29565b9750506060611f6e8a828b01611e66565b965050608088013567ffffffffffffffff811115611f8f57611f8e611e21565b5b611f9b8a828b01611e86565b955095505060a0611fae8a828b01611f21565b93505060c088013567ffffffffffffffff811115611fcf57611fce611e21565b5b611fdb8a828b01611e86565b925092505092959891949750929550565b5f67ffffffffffffffff82169050919050565b61200881611fec565b82525050565b5f6040820190506120215f830185611fff565b61202e6020830184611fff565b9392505050565b5f61ffff82169050919050565b61204b81612035565b82525050565b5f6020820190506120645f830184612042565b92915050565b5f81519050919050565b5f82825260208201905092915050565b8281835e5f83830152505050565b5f601f19601f8301169050919050565b5f6120ac8261206a565b6120b68185612074565b93506120c6818560208601612084565b6120cf81612092565b840191505092915050565b5f6020820190508181035f8301526120f281846120a2565b905092915050565b5f63ffffffff82169050919050565b612112816120fa565b811461211c575f5ffd5b50565b5f8135905061212d81612109565b92915050565b5f5f6040838503121561214957612148611e1d565b5b5f6121568582860161211f565b925050602061216785828601611e66565b9150509250929050565b61217a81612035565b8114612184575f5ffd5b50565b5f8135905061219581612171565b92915050565b5f5f604083850312156121b1576121b0611e1d565b5b5f6121be8582860161211f565b92505060206121cf85828601612187565b9150509250929050565b5f819050919050565b6121eb816121d9565b81146121f5575f5ffd5b50565b5f81359050612206816121e2565b92915050565b5f5f5f5f5f5f5f5f60e0898b03121561222857612227611e1d565b5b5f6122358b828c0161211f565b98505060206122468b828c01611f21565b97505060406122578b828c01611f21565b96505060606122688b828c01611f21565b95505060806122798b828c016121f8565b94505060a061228a8b828c016121f8565b93505060c089013567ffffffffffffffff8111156122ab576122aa611e21565b5b6122b78b828c01611e86565b92509250509295985092959890939650565b5f602082840312156122de576122dd611e1d565b5b5f6122eb84828501611f21565b91505092915050565b5f819050919050565b5f61231761231261230d84611edb565b6122f4565b611edb565b9050919050565b5f612328826122fd565b9050919050565b5f6123398261231e565b9050919050565b6123498161232f565b82525050565b5f6020820190506123625f830184612340565b92915050565b5f60208201905061237b5f830184611fff565b92915050565b5f5f5f5f60a0858703121561239957612398611e1d565b5b5f6123a687828801611e29565b945050606085013567ffffffffffffffff8111156123c7576123c6611e21565b5b6123d387828801611e86565b935093505060806123e687828801611f21565b91505092959194509250565b5f8115159050919050565b612406816123f2565b82525050565b5f60208201905061241f5f8301846123fd565b92915050565b61242e81611efa565b82525050565b5f6020820190506124475f830184612425565b92915050565b5f5f83601f84011261246257612461611e7a565b5b8235905067ffffffffffffffff81111561247f5761247e611e7e565b5b60208301915083602082028301111561249b5761249a611e82565b5b9250929050565b5f5f602083850312156124b8576124b7611e1d565b5b5f83013567ffffffffffffffff8111156124d5576124d4611e21565b5b6124e18582860161244d565b92509250509250929050565b5f6020828403121561250257612501611e1d565b5b5f61250f8482850161211f565b91505092915050565b61252181611e47565b82525050565b5f60208201905061253a5f830184612518565b92915050565b5f5f5f5f6060858703121561255857612557611e1d565b5b5f6125658782880161211f565b945050602061257687828801612187565b935050604085013567ffffffffffffffff81111561259757612596611e21565b5b6125a387828801611e86565b925092505092959194509250565b5f5f83601f8401126125c6576125c5611e7a565b5b8235905067ffffffffffffffff8111156125e3576125e2611e7e565b5b6020830191508360018202830111156125ff576125fe611e82565b5b9250929050565b61260f816123f2565b8114612619575f5ffd5b50565b5f8135905061262a81612606565b92915050565b5f5f5f5f5f5f6080878903121561264a57612649611e1d565b5b5f61265789828a0161211f565b965050602087013567ffffffffffffffff81111561267857612677611e21565b5b61268489828a016125b1565b9550955050604087013567ffffffffffffffff8111156126a7576126a6611e21565b5b6126b389828a01611e86565b935093505060606126c689828a0161261c565b9150509295509295509295565b6126dc816121d9565b82525050565b604082015f8201516126f65f8501826126d3565b50602082015161270960208501826126d3565b50505050565b5f6040820190506127225f8301846126e2565b92915050565b612731816121d9565b82525050565b5f60208201905061274a5f830184612728565b92915050565b5f5f5f6060848603121561276757612766611e1d565b5b5f61277486828701611f21565b935050602061278586828701611f21565b9250506040612796868287016121f8565b9150509250925092565b5f606082840312156127b5576127b4611e1d565b5b5f6127c284828501611e29565b91505092915050565b6127d4816120fa565b82525050565b5f6040820190506127ed5f8301856127cb565b6127fa6020830184612518565b9392505050565b7f4e487b71000000000000000000000000000000000000000000000000000000005f52602260045260245ffd5b5f600282049050600182168061284557607f821691505b60208210810361285857612857612801565b5b50919050565b5f6080820190506128715f830187612425565b61287e6020830186612425565b61288b6040830185612425565b6128986060830184612728565b95945050505050565b7f4e487b71000000000000000000000000000000000000000000000000000000005f52601160045260245ffd5b5f6128d8826121d9565b91506128e3836121d9565b92508282039050818111156128fb576128fa6128a1565b5b92915050565b5f61290b826121d9565b9150612916836121d9565b9250828202612924816121d9565b9150828204841483151761293b5761293a6128a1565b5b5092915050565b7f4e487b71000000000000000000000000000000000000000000000000000000005f52601260045260245ffd5b5f612979826121d9565b9150612984836121d9565b92508261299457612993612942565b5b828204905092915050565b6129a8816120fa565b82525050565b6129b781611e47565b82525050565b5f82825260208201905092915050565b5f6129d78261206a565b6129e181856129bd565b93506129f1818560208601612084565b6129fa81612092565b840191505092915050565b5f60e083015f830151612a1a5f86018261299f565b506020830151612a2d60208601826129ae565b506040830151612a4060408601826126d3565b506060830151612a5360608601826126d3565b5060808301518482036080860152612a6b82826129cd565b91505060a083015184820360a0860152612a8582826129cd565b91505060c083015184820360c0860152612a9f82826129cd565b9150508091505092915050565b5f6040820190508181035f830152612ac48185612a05565b9050612ad360208301846123fd565b9392505050565b5f5ffd5b7f4e487b71000000000000000000000000000000000000000000000000000000005f52604160045260245ffd5b612b1482612092565b810181811067ffffffffffffffff82111715612b3357612b32612ade565b5b80604052505050565b5f612b45611e14565b9050612b518282612b0b565b919050565b5f5ffd5b5f81519050612b68816121e2565b92915050565b5f60408284031215612b8357612b82612ada565b5b612b8d6040612b3c565b90505f612b9c84828501612b5a565b5f830152506020612baf84828501612b5a565b60208301525092915050565b5f60408284031215612bd057612bcf611e1d565b5b5f612bdd84828501612b6e565b91505092915050565b5f6080820190508181035f830152612bfe8186612a05565b9050612c0d60208301856126e2565b612c1a6060830184612425565b949350505050565b5f81519050612c3081611e50565b92915050565b612c3f81611fec565b8114612c49575f5ffd5b50565b5f81519050612c5a81612c36565b92915050565b5f60808284031215612c7557612c74612ada565b5b612c7f6060612b3c565b90505f612c8e84828501612c22565b5f830152506020612ca184828501612c4c565b6020830152506040612cb584828501612b6e565b60408301525092915050565b5f60408284031215612cd657612cd5612ada565b5b612ce06040612b3c565b90505f612cef84828501612b5a565b5f830152506020612d0284828501612b5a565b60208301525092915050565b5f5f60c08385031215612d2457612d23611e1d565b5b5f612d3185828601612c60565b9250506080612d4285828601612cc1565b9150509250929050565b5f67ffffffffffffffff821115612d6657612d65612ade565b5b602082029050602081019050919050565b5f5ffd5b5f67ffffffffffffffff821115612d9557612d94612ade565b5b612d9e82612092565b9050602081019050919050565b828183375f83830152505050565b5f612dcb612dc684612d7b565b612b3c565b905082815260208101848484011115612de757612de6612d77565b5b612df2848285612dab565b509392505050565b5f82601f830112612e0e57612e0d611e7a565b5b8135612e1e848260208601612db9565b91505092915050565b5f60608284031215612e3c57612e3b612ada565b5b612e466060612b3c565b90505f612e558482850161211f565b5f830152506020612e6884828501612187565b602083015250604082013567ffffffffffffffff811115612e8c57612e8b612b56565b5b612e9884828501612dfa565b60408301525092915050565b5f612eb6612eb184612d4c565b612b3c565b90508083825260208201905060208402830185811115612ed957612ed8611e82565b5b835b81811015612f2057803567ffffffffffffffff811115612efe57612efd611e7a565b5b808601612f0b8982612e27565b85526020850194505050602081019050612edb565b5050509392505050565b5f612f36368484612ea4565b905092915050565b5f5ffd5b5f5ffd5b5f5f85851115612f5957612f58612f3e565b5b83861115612f6a57612f69612f42565b5b6001850283019150848603905094509492505050565b5f81905092915050565b5f612f948261206a565b612f9e8185612f80565b9350612fae818560208601612084565b80840191505092915050565b5f612fc58385612f80565b9350612fd2838584612dab565b82840190509392505050565b5f612fe98286612f8a565b9150612ff6828486612fba565b9150819050949350505050565b5f61300e8385612074565b935061301b838584612dab565b61302483612092565b840190509392505050565b5f6020820190508181035f830152613048818486613003565b90509392505050565b5f82825260208201905092915050565b5f61306c8385613051565b9350613079838584612dab565b61308283612092565b840190509392505050565b5f6020820190508181035f8301526130a6818486613061565b90509392505050565b5f6040820190506130c25f830185612425565b6130cf6020830184612728565b9392505050565b5f815190506130e481612606565b92915050565b5f602082840312156130ff576130fe611e1d565b5b5f61310c848285016130d6565b91505092915050565b5f6020820190506131285f8301846127cb565b92915050565b5f61313882611edb565b9050919050565b6131488161312e565b8114613152575f5ffd5b50565b5f813590506131638161313f565b92915050565b5f5f5f5f6080858703121561318157613180611e1d565b5b5f61318e87828801613155565b945050602061319f87828801613155565b93505060406131b087828801613155565b92505060606131c1878288016121f8565b91505092959194509250565b5f6131d7826121d9565b91506131e2836121d9565b92508282019050808211156131fa576131f96128a1565b5b92915050565b5f82905092915050565b5f819050815f5260205f209050919050565b5f6020601f8301049050919050565b5f82821b905092915050565b5f600883026132667fffffffffffffffffffffffffffffffffffffffffffffffffffffffffffffffff8261322b565b613270868361322b565b95508019841693508086168417925050509392505050565b5f6132a261329d613298846121d9565b6122f4565b6121d9565b9050919050565b5f819050919050565b6132bb83613288565b6132cf6132c7826132a9565b848454613237565b825550505050565b5f5f905090565b6132e66132d7565b6132f18184846132b2565b505050565b5b81811015613314576133095f826132de565b6001810190506132f7565b5050565b601f8211156133595761332a8161320a565b6133338461321c565b81016020851015613342578190505b61335661334e8561321c565b8301826132f6565b50505b505050565b5f82821c905092915050565b5f6133795f198460080261335e565b1980831691505092915050565b5f613391838361336a565b9150826002028217905092915050565b6133ab8383613200565b67ffffffffffffffff8111156133c4576133c3612ade565b5b6133ce825461282e565b6133d9828285613318565b5f601f831160018114613406575f84156133f4578287013590505b6133fe8582613386565b865550613465565b601f1984166134148661320a565b5f5b8281101561343b57848901358255600182019150602085019450602081019050613416565b868310156134585784890135613454601f89168261336a565b8355505b6001600288020188555050505b50505050505050565b613477816123f2565b82525050565b5f60a083015f8301516134925f86018261299f565b5060208301516134a560208601826129ae565b50604083015184820360408601526134bd82826129cd565b915050606083015184820360608601526134d782826129cd565b91505060808301516134ec608086018261346e565b508091505092915050565b5f6040820190508181035f83015261350f818561347d565b905061351e6020830184612425565b9392505050565b5f6080828403121561353a57613539611e1d565b5b5f61354784828501612c60565b91505092915050565b5f8160f01b9050919050565b5f61356682613550565b9050919050565b61357e61357982612035565b61355c565b82525050565b5f61358f828461356d565b60028201915081905092915050565b7f4e487b71000000000000000000000000000000000000000000000000000000005f52603260045260245ffd5b6135d48261206a565b67ffffffffffffffff8111156135ed576135ec612ade565b5b6135f7825461282e565b613602828285613318565b5f60209050601f831160018114613633575f8415613621578287015190505b61362b8582613386565b865550613692565b601f1984166136418661320a565b5f5b8281101561366857848901518255600182019150602085019450602081019050613643565b868310156136855784890151613681601f89168261336a565b8355505b6001600288020188555050505b505050505050565b5f81519050919050565b5f82825260208201905092915050565b5f819050602082019050919050565b6136cc81612035565b82525050565b5f606083015f8301516136e75f86018261299f565b5060208301516136fa60208601826136c3565b506040830151848203604086015261371282826129cd565b9150508091505092915050565b5f61372a83836136d2565b905092915050565b5f602082019050919050565b5f6137488261369a565b61375281856136a4565b935083602082028501613764856136b4565b805f5b8581101561379f5784840389528151613780858261371f565b945061378b83613732565b925060208a01995050600181019050613767565b50829750879550505050505092915050565b5f6020820190508181035f8301526137c9818461373e565b905092915050565b5f815190506137df81611f0b565b92915050565b5f602082840312156137fa576137f9611e1d565b5b5f613807848285016137d1565b91505092915050565b7f746f55696e7431365f6f75744f66426f756e64730000000000000000000000005f82015250565b5f613844601483613051565b915061384f82613810565b602082019050919050565b5f6020820190508181035f83015261387181613838565b9050919050565b5f6fffffffffffffffffffffffffffffffff82169050919050565b5f8160801b9050919050565b5f6138a982613893565b9050919050565b6138c16138bc82613878565b61389f565b82525050565b5f6138d282856138b0565b6010820191506138e282846138b0565b6010820191508190509392505050565b5f6138fd82846138b0565b60108201915081905092915050565b5f61391682612035565b915061392183612035565b9250828201905061ffff81111561393b5761393a6128a1565b5b92915050565b5f60ff82169050919050565b5f8160f81b9050919050565b5f6139638261394d565b9050919050565b61397b61397682613941565b613959565b82525050565b5f61398c8288612f8a565b9150613998828761396a565b6001820191506139a8828661356d565b6002820191506139b8828561396a565b6001820191506139c88284612f8a565b91508190509695505050505050565b5f6060820190506139ea5f830186612425565b6139f76020830185612425565b613a046040830184612728565b949350505050565b5f819050919050565b5f613a2f613a2a613a2584613a0c565b6122f4565b613941565b9050919050565b613a3f81613a15565b82525050565b5f604082019050613a585f830185613a36565b613a656020830184612728565b939250505056fea2646970667358221220e7972d67546edd7a2dd1fd9fca0a1355550b19f32fc64771d53bfdaaaad7943764736f6c634300081c0033","linkReferences":{}},"methodIdentifiers":{"SEND()":"1f5e1334","allowInitializePath((uint32,bytes32,uint64))":"ff7bd03d","combineOptions(uint32,uint16,bytes)":"bc70b354","endpoint()":"5e280f11","enforcedOptions(uint32,uint16)":"5535d461","execute(address,address,uint256)":"eafaddfd","factory()":"c45a0155","isComposeMsgSender((uint32,bytes32,uint64),bytes,address)":"82413eac","lastMessage()":"32970710","lzReceive((uint32,bytes32,uint64),bytes32,bytes,address,bytes)":"13137d65","nextNonce(uint32,bytes32)":"7d25a05e","oAppVersion()":"17442b70","oftaddress()":"9c967afa","owner()":"8da5cb5b","peers(uint32)":"bb0b6a53","quoteSendString(uint32,string,bytes,bool)":"d3b4866e","renounceOwnership()":"715018a6","sendString(uint32,address,address,address,uint256,uint256,bytes)":"59ce5fa9","setDelegate(address)":"ca5eb5e1","setEnforcedOptions((uint32,uint16,bytes)[])":"b98bd070","setFactory(address)":"5bb47808","setPeer(uint32,bytes32)":"3400288b","transferOwnership(address)":"f2fde38b","userAmount(address)":"e1ad418e"},"id":168}