{"abi":[{"type":"constructor","inputs":[{"name":"_endpoint","type":"address","internalType":"address"},{"name":"_owner","type":"address","internalType":"address"}],"stateMutability":"nonpayable"},{"type":"function","name":"SEND","inputs":[],"outputs":[{"name":"","type":"uint16","internalType":"uint16"}],"stateMutability":"view"},{"type":"function","name":"allowInitializePath","inputs":[{"name":"origin","type":"tuple","internalType":"struct Origin","components":[{"name":"srcEid","type":"uint32","internalType":"uint32"},{"name":"sender","type":"bytes32","internalType":"bytes32"},{"name":"nonce","type":"uint64","internalType":"uint64"}]}],"outputs":[{"name":"","type":"bool","internalType":"bool"}],"stateMutability":"view"},{"type":"function","name":"combineOptions","inputs":[{"name":"_eid","type":"uint32","internalType":"uint32"},{"name":"_msgType","type":"uint16","internalType":"uint16"},{"name":"_extraOptions","type":"bytes","internalType":"bytes"}],"outputs":[{"name":"","type":"bytes","internalType":"bytes"}],"stateMutability":"view"},{"type":"function","name":"endpoint","inputs":[],"outputs":[{"name":"","type":"address","internalType":"contract ILayerZeroEndpointV2"}],"stateMutability":"view"},{"type":"function","name":"enforcedOptions","inputs":[{"name":"eid","type":"uint32","internalType":"uint32"},{"name":"msgType","type":"uint16","internalType":"uint16"}],"outputs":[{"name":"enforcedOption","type":"bytes","internalType":"bytes"}],"stateMutability":"view"},{"type":"function","name":"execute","inputs":[{"name":"_lendingPool","type":"address","internalType":"address"},{"name":"_user","type":"address","internalType":"address"},{"name":"_amount","type":"uint256","internalType":"uint256"}],"outputs":[],"stateMutability":"nonpayable"},{"type":"function","name":"factory","inputs":[],"outputs":[{"name":"","type":"address","internalType":"address"}],"stateMutability":"view"},{"type":"function","name":"isComposeMsgSender","inputs":[{"name":"","type":"tuple","internalType":"struct Origin","components":[{"name":"srcEid","type":"uint32","internalType":"uint32"},{"name":"sender","type":"bytes32","internalType":"bytes32"},{"name":"nonce","type":"uint64","internalType":"uint64"}]},{"name":"","type":"bytes","internalType":"bytes"},{"name":"_sender","type":"address","internalType":"address"}],"outputs":[{"name":"","type":"bool","internalType":"bool"}],"stateMutability":"view"},{"type":"function","name":"lastMessage","inputs":[],"outputs":[{"name":"","type":"bytes","internalType":"bytes"}],"stateMutability":"view"},{"type":"function","name":"lzReceive","inputs":[{"name":"_origin","type":"tuple","internalType":"struct Origin","components":[{"name":"srcEid","type":"uint32","internalType":"uint32"},{"name":"sender","type":"bytes32","internalType":"bytes32"},{"name":"nonce","type":"uint64","internalType":"uint64"}]},{"name":"_guid","type":"bytes32","internalType":"bytes32"},{"name":"_message","type":"bytes","internalType":"bytes"},{"name":"_executor","type":"address","internalType":"address"},{"name":"_extraData","type":"bytes","internalType":"bytes"}],"outputs":[],"stateMutability":"payable"},{"type":"function","name":"nextNonce","inputs":[{"name":"","type":"uint32","internalType":"uint32"},{"name":"","type":"bytes32","internalType":"bytes32"}],"outputs":[{"name":"nonce","type":"uint64","internalType":"uint64"}],"stateMutability":"view"},{"type":"function","name":"oAppVersion","inputs":[],"outputs":[{"name":"senderVersion","type":"uint64","internalType":"uint64"},{"name":"receiverVersion","type":"uint64","internalType":"uint64"}],"stateMutability":"pure"},{"type":"function","name":"oftaddress","inputs":[],"outputs":[{"name":"","type":"address","internalType":"address"}],"stateMutability":"view"},{"type":"function","name":"owner","inputs":[],"outputs":[{"name":"","type":"address","internalType":"address"}],"stateMutability":"view"},{"type":"function","name":"peers","inputs":[{"name":"eid","type":"uint32","internalType":"uint32"}],"outputs":[{"name":"peer","type":"bytes32","internalType":"bytes32"}],"stateMutability":"view"},{"type":"function","name":"quoteSendString","inputs":[{"name":"_dstEid","type":"uint32","internalType":"uint32"},{"name":"_lendingPool","type":"address","internalType":"address"},{"name":"_user","type":"address","internalType":"address"},{"name":"_token","type":"address","internalType":"address"},{"name":"_amount","type":"uint256","internalType":"uint256"},{"name":"_options","type":"bytes","internalType":"bytes"},{"name":"_payInLzToken","type":"bool","internalType":"bool"}],"outputs":[{"name":"fee","type":"tuple","internalType":"struct MessagingFee","components":[{"name":"nativeFee","type":"uint256","internalType":"uint256"},{"name":"lzTokenFee","type":"uint256","internalType":"uint256"}]}],"stateMutability":"view"},{"type":"function","name":"renounceOwnership","inputs":[],"outputs":[],"stateMutability":"nonpayable"},{"type":"function","name":"sendString","inputs":[{"name":"_dstEid","type":"uint32","internalType":"uint32"},{"name":"_lendingPoolDst","type":"address","internalType":"address"},{"name":"_user","type":"address","internalType":"address"},{"name":"_tokendst","type":"address","internalType":"address"},{"name":"_amount","type":"uint256","internalType":"uint256"},{"name":"_oappFee","type":"uint256","internalType":"uint256"},{"name":"_options","type":"bytes","internalType":"bytes"}],"outputs":[],"stateMutability":"payable"},{"type":"function","name":"setDelegate","inputs":[{"name":"_delegate","type":"address","internalType":"address"}],"outputs":[],"stateMutability":"nonpayable"},{"type":"function","name":"setEnforcedOptions","inputs":[{"name":"_enforcedOptions","type":"tuple[]","internalType":"struct EnforcedOptionParam[]","components":[{"name":"eid","type":"uint32","internalType":"uint32"},{"name":"msgType","type":"uint16","internalType":"uint16"},{"name":"options","type":"bytes","internalType":"bytes"}]}],"outputs":[],"stateMutability":"nonpayable"},{"type":"function","name":"setFactory","inputs":[{"name":"_factory","type":"address","internalType":"address"}],"outputs":[],"stateMutability":"nonpayable"},{"type":"function","name":"setOFTaddress","inputs":[{"name":"_oftaddress","type":"address","internalType":"address"}],"outputs":[],"stateMutability":"nonpayable"},{"type":"function","name":"setPeer","inputs":[{"name":"_eid","type":"uint32","internalType":"uint32"},{"name":"_peer","type":"bytes32","internalType":"bytes32"}],"outputs":[],"stateMutability":"nonpayable"},{"type":"function","name":"transferOwnership","inputs":[{"name":"newOwner","type":"address","internalType":"address"}],"outputs":[],"stateMutability":"nonpayable"},{"type":"function","name":"userAmount","inputs":[{"name":"","type":"address","internalType":"address"}],"outputs":[{"name":"","type":"uint256","internalType":"uint256"}],"stateMutability":"view"},{"type":"event","name":"EnforcedOptionSet","inputs":[{"name":"_enforcedOptions","type":"tuple[]","indexed":false,"internalType":"struct EnforcedOptionParam[]","components":[{"name":"eid","type":"uint32","internalType":"uint32"},{"name":"msgType","type":"uint16","internalType":"uint16"},{"name":"options","type":"bytes","internalType":"bytes"}]}],"anonymous":false},{"type":"event","name":"ExecuteLiquidity","inputs":[{"name":"lendingPool","type":"address","indexed":false,"internalType":"address"},{"name":"token","type":"address","indexed":false,"internalType":"address"},{"name":"user","type":"address","indexed":false,"internalType":"address"},{"name":"amount","type":"uint256","indexed":false,"internalType":"uint256"}],"anonymous":false},{"type":"event","name":"OwnershipTransferred","inputs":[{"name":"previousOwner","type":"address","indexed":true,"internalType":"address"},{"name":"newOwner","type":"address","indexed":true,"internalType":"address"}],"anonymous":false},{"type":"event","name":"PeerSet","inputs":[{"name":"eid","type":"uint32","indexed":false,"internalType":"uint32"},{"name":"peer","type":"bytes32","indexed":false,"internalType":"bytes32"}],"anonymous":false},{"type":"event","name":"SendLiquidityFromDst","inputs":[{"name":"lendingPool","type":"address","indexed":false,"internalType":"address"},{"name":"user","type":"address","indexed":false,"internalType":"address"},{"name":"token","type":"address","indexed":false,"internalType":"address"},{"name":"amount","type":"uint256","indexed":false,"internalType":"uint256"}],"anonymous":false},{"type":"event","name":"SendLiquidityFromSrc","inputs":[{"name":"lendingPool","type":"address","indexed":false,"internalType":"address"},{"name":"user","type":"address","indexed":false,"internalType":"address"},{"name":"token","type":"address","indexed":false,"internalType":"address"},{"name":"amount","type":"uint256","indexed":false,"internalType":"uint256"}],"anonymous":false},{"type":"error","name":"InsufficientBalance","inputs":[]},{"type":"error","name":"InsufficientNativeFee","inputs":[]},{"type":"error","name":"InvalidDelegate","inputs":[]},{"type":"error","name":"InvalidEndpointCall","inputs":[]},{"type":"error","name":"InvalidOptions","inputs":[{"name":"options","type":"bytes","internalType":"bytes"}]},{"type":"error","name":"LzTokenUnavailable","inputs":[]},{"type":"error","name":"NoPeer","inputs":[{"name":"eid","type":"uint32","internalType":"uint32"}]},{"type":"error","name":"NotEnoughNative","inputs":[{"name":"msgValue","type":"uint256","internalType":"uint256"}]},{"type":"error","name":"OnlyEndpoint","inputs":[{"name":"addr","type":"address","internalType":"address"}]},{"type":"error","name":"OnlyOApp","inputs":[]},{"type":"error","name":"OnlyPeer","inputs":[{"name":"eid","type":"uint32","internalType":"uint32"},{"name":"sender","type":"bytes32","internalType":"bytes32"}]},{"type":"error","name":"OwnableInvalidOwner","inputs":[{"name":"owner","type":"address","internalType":"address"}]},{"type":"error","name":"OwnableUnauthorizedAccount","inputs":[{"name":"account","type":"address","internalType":"address"}]},{"type":"error","name":"SafeERC20FailedOperation","inputs":[{"name":"token","type":"address","internalType":"address"}]}],"bytecode":{"object":"0x60a060405234801561000f575f5ffd5b50604051613563380380613563833981810160405281019061003191906102e1565b81818181845f73ffffffffffffffffffffffffffffffffffffffff168173ffffffffffffffffffffffffffffffffffffffff16036100a6575f6040517f1e4fbdf700000000000000000000000000000000000000000000000000000000815260040161009d919061032e565b60405180910390fd5b6100b5816101c260201b60201c565b508173ffffffffffffffffffffffffffffffffffffffff1660808173ffffffffffffffffffffffffffffffffffffffff16815250505f73ffffffffffffffffffffffffffffffffffffffff168173ffffffffffffffffffffffffffffffffffffffff160361014f576040517fb586360400000000000000000000000000000000000000000000000000000000815260040160405180910390fd5b60805173ffffffffffffffffffffffffffffffffffffffff1663ca5eb5e1826040518263ffffffff1660e01b815260040161018a919061032e565b5f604051808303815f87803b1580156101a1575f5ffd5b505af11580156101b3573d5f5f3e3d5ffd5b50505050505050505050610347565b5f5f5f9054906101000a900473ffffffffffffffffffffffffffffffffffffffff169050815f5f6101000a81548173ffffffffffffffffffffffffffffffffffffffff021916908373ffffffffffffffffffffffffffffffffffffffff1602179055508173ffffffffffffffffffffffffffffffffffffffff168173ffffffffffffffffffffffffffffffffffffffff167f8be0079c531659141344cd1fd0a4f28419497f9722a3daafe3b4186f6b6457e060405160405180910390a35050565b5f5ffd5b5f73ffffffffffffffffffffffffffffffffffffffff82169050919050565b5f6102b082610287565b9050919050565b6102c0816102a6565b81146102ca575f5ffd5b50565b5f815190506102db816102b7565b92915050565b5f5f604083850312156102f7576102f6610283565b5b5f610304858286016102cd565b9250506020610315858286016102cd565b9150509250929050565b610328816102a6565b82525050565b5f6020820190506103415f83018461031f565b92915050565b6080516131da6103895f395f81816105ef0152818161094201528181610cc6015281816112bf015281816113ac015281816117ed01526118e501526131da5ff3fe608060405260043610610165575f3560e01c806382413eac116100d0578063c45a015511610089578063ea89900e11610063578063ea89900e14610522578063eafaddfd1461054a578063f2fde38b14610572578063ff7bd03d1461059a57610165565b8063c45a015514610494578063ca5eb5e1146104be578063e1ad418e146104e657610165565b806382413eac146103645780638da5cb5b146103a05780639c967afa146103ca578063b98bd070146103f4578063bb0b6a531461041c578063bc70b3541461045857610165565b806359ce5fa91161012257806359ce5fa9146102685780635bb47808146102845780635e280f11146102ac57806362a896b0146102d6578063715018a6146103125780637d25a05e1461032857610165565b806313137d651461016957806317442b70146101855780631f5e1334146101b057806332970710146101da5780633400288b146102045780635535d4611461022c575b5f5ffd5b610183600480360381019061017e9190611bb5565b6105d6565b005b348015610190575f5ffd5b506101996106f6565b6040516101a7929190611c8e565b60405180910390f35b3480156101bb575f5ffd5b506101c4610704565b6040516101d19190611cd1565b60405180910390f35b3480156101e5575f5ffd5b506101ee610709565b6040516101fb9190611d5a565b60405180910390f35b34801561020f575f5ffd5b5061022a60048036038101906102259190611db3565b610795565b005b348015610237575f5ffd5b50610252600480360381019061024d9190611e1b565b6107ab565b60405161025f9190611d5a565b60405180910390f35b610282600480360381019061027d9190611e8c565b610851565b005b34801561028f575f5ffd5b506102aa60048036038101906102a59190611f49565b6108f5565b005b3480156102b7575f5ffd5b506102c0610940565b6040516102cd9190611fcf565b60405180910390f35b3480156102e1575f5ffd5b506102fc60048036038101906102f7919061201d565b610964565b6040516103099190612116565b60405180910390f35b34801561031d575f5ffd5b506103266109bc565b005b348015610333575f5ffd5b5061034e60048036038101906103499190611db3565b6109cf565b60405161035b919061212f565b60405180910390f35b34801561036f575f5ffd5b5061038a60048036038101906103859190612148565b6109d9565b60405161039791906121c8565b60405180910390f35b3480156103ab575f5ffd5b506103b4610a13565b6040516103c191906121f0565b60405180910390f35b3480156103d5575f5ffd5b506103de610a3a565b6040516103eb91906121f0565b60405180910390f35b3480156103ff575f5ffd5b5061041a6004803603810190610415919061225e565b610a5f565b005b348015610427575f5ffd5b50610442600480360381019061043d91906122a9565b610a80565b60405161044f91906122e3565b60405180910390f35b348015610463575f5ffd5b5061047e600480360381019061047991906122fc565b610a95565b60405161048b9190611d5a565b60405180910390f35b34801561049f575f5ffd5b506104a8610c97565b6040516104b591906121f0565b60405180910390f35b3480156104c9575f5ffd5b506104e460048036038101906104df9190611f49565b610cbc565b005b3480156104f1575f5ffd5b5061050c60048036038101906105079190611f49565b610d4d565b604051610519919061237c565b60405180910390f35b34801561052d575f5ffd5b5061054860048036038101906105439190611f49565b610d62565b005b348015610555575f5ffd5b50610570600480360381019061056b9190612395565b610dad565b005b34801561057d575f5ffd5b5061059860048036038101906105939190611f49565b610faa565b005b3480156105a5575f5ffd5b506105c060048036038101906105bb91906123e5565b61102e565b6040516105cd91906121c8565b60405180910390f35b3373ffffffffffffffffffffffffffffffffffffffff167f000000000000000000000000000000000000000000000000000000000000000073ffffffffffffffffffffffffffffffffffffffff161461066657336040517f91ac5e4f00000000000000000000000000000000000000000000000000000000815260040161065d91906121f0565b60405180910390fd5b8660200135610685885f01602081019061068091906122a9565b61106b565b146106de57865f01602081019061069c91906122a9565b87602001356040517fc26bebcc0000000000000000000000000000000000000000000000000000000081526004016106d592919061241f565b60405180910390fd5b6106ed878787878787876110dc565b50505050505050565b5f5f60016002915091509091565b600181565b6003805461071690612473565b80601f016020809104026020016040519081016040528092919081815260200182805461074290612473565b801561078d5780601f106107645761010080835404028352916020019161078d565b820191905f5260205f20905b81548152906001019060200180831161077057829003601f168201915b505050505081565b61079d6111a6565b6107a7828261122d565b5050565b6002602052815f5260405f20602052805f5260405f205f915091505080546107d290612473565b80601f01602080910402602001604051908101604052809291908181526020018280546107fe90612473565b80156108495780601f1061082057610100808354040283529160200191610849565b820191905f5260205f20905b81548152906001019060200180831161082c57829003601f168201915b505050505081565b5f61085f8960018585610a95565b90505f8888888860405160200161087994939291906124a3565b60405160208183030381529060405290506108ab8a828460405180604001604052808a81526020015f8152508c61128c565b507f1c47822afe589e0b1792cdba1d6fa7b547c3f71d2d14898c3e05e311e9e3a54c898989896040516108e194939291906124a3565b60405180910390a150505050505050505050565b6108fd6111a6565b8060045f6101000a81548173ffffffffffffffffffffffffffffffffffffffff021916908373ffffffffffffffffffffffffffffffffffffffff16021790555050565b7f000000000000000000000000000000000000000000000000000000000000000081565b61096c611a4d565b5f8888888860405160200161098494939291906124a3565b60405160208183030381529060405290506109ad8a826109a78d60018a8a610a95565b866113a2565b91505098975050505050505050565b6109c46111a6565b6109cd5f611483565b565b5f5f905092915050565b5f3073ffffffffffffffffffffffffffffffffffffffff168273ffffffffffffffffffffffffffffffffffffffff16149050949350505050565b5f5f5f9054906101000a900473ffffffffffffffffffffffffffffffffffffffff16905090565b60055f9054906101000a900473ffffffffffffffffffffffffffffffffffffffff1681565b610a676111a6565b610a7c828290610a779190612744565b611544565b5050565b6001602052805f5260405f205f915090505481565b60605f60025f8763ffffffff1663ffffffff1681526020019081526020015f205f8661ffff1661ffff1681526020019081526020015f208054610ad790612473565b80601f0160208091040260200160405190810160405280929190818152602001828054610b0390612473565b8015610b4e5780601f10610b2557610100808354040283529160200191610b4e565b820191905f5260205f20905b815481529060010190602001808311610b3157829003601f168201915b505050505090505f815103610ba95783838080601f0160208091040260200160405190810160405280939291908181526020018383808284375f81840152601f19601f82011690508083019250505050505050915050610c8f565b5f8484905003610bbc5780915050610c8f565b60028484905010610c5057610c1384848080601f0160208091040260200160405190810160405280939291908181526020018383808284375f81840152601f19601f8201169050808301925050505050505061165c565b8084846002908092610c2793929190612760565b604051602001610c39939291906127f8565b604051602081830303815290604052915050610c8f565b83836040517f9a6d49cd000000000000000000000000000000000000000000000000000000008152600401610c86929190612849565b60405180910390fd5b949350505050565b60045f9054906101000a900473ffffffffffffffffffffffffffffffffffffffff1681565b610cc46111a6565b7f000000000000000000000000000000000000000000000000000000000000000073ffffffffffffffffffffffffffffffffffffffff1663ca5eb5e1826040518263ffffffff1660e01b8152600401610d1d91906121f0565b5f604051808303815f87803b158015610d34575f5ffd5b505af1158015610d46573d5f5f3e3d5ffd5b5050505050565b6006602052805f5260405f205f915090505481565b610d6a6111a6565b8060055f6101000a81548173ffffffffffffffffffffffffffffffffffffffff021916908373ffffffffffffffffffffffffffffffffffffffff16021790555050565b60065f8373ffffffffffffffffffffffffffffffffffffffff1673ffffffffffffffffffffffffffffffffffffffff1681526020019081526020015f2054811115610e24576040517ff4d678b800000000000000000000000000000000000000000000000000000000815260040160405180910390fd5b8060065f8473ffffffffffffffffffffffffffffffffffffffff1673ffffffffffffffffffffffffffffffffffffffff1681526020019081526020015f205f828254610e709190612898565b925050819055505f610e81846116b5565b90508073ffffffffffffffffffffffffffffffffffffffff1663095ea7b385846040518363ffffffff1660e01b8152600401610ebe9291906128cb565b6020604051808303815f875af1158015610eda573d5f5f3e3d5ffd5b505050506040513d601f19601f82011682018060405250810190610efe9190612906565b508373ffffffffffffffffffffffffffffffffffffffff1663b39e377184846040518363ffffffff1660e01b8152600401610f3a9291906128cb565b5f604051808303815f87803b158015610f51575f5ffd5b505af1158015610f63573d5f5f3e3d5ffd5b505050507fd61cd00f98678949d068d225a7ec2fb1b3ed2284e04d448af6634a0e7170d90984828585604051610f9c94939291906124a3565b60405180910390a150505050565b610fb26111a6565b5f73ffffffffffffffffffffffffffffffffffffffff168173ffffffffffffffffffffffffffffffffffffffff1603611022575f6040517f1e4fbdf700000000000000000000000000000000000000000000000000000000815260040161101991906121f0565b60405180910390fd5b61102b81611483565b50565b5f816020013560015f845f01602081019061104991906122a9565b63ffffffff1663ffffffff1681526020019081526020015f2054149050919050565b5f5f60015f8463ffffffff1663ffffffff1681526020019081526020015f205490505f5f1b81036110d357826040517ff6ff4fb70000000000000000000000000000000000000000000000000000000081526004016110ca9190612931565b60405180910390fd5b80915050919050565b5f5f5f5f88888101906110ef9190612985565b93509350935093508060065f8573ffffffffffffffffffffffffffffffffffffffff1673ffffffffffffffffffffffffffffffffffffffff1681526020019081526020015f205f82825461114391906129e9565b9250508190555088886003918261115b929190612bbd565b507f4bc11afe097b7f420381560f112efe0725fd0359a87cb9d1ec08bbf7866810248484848460405161119194939291906124a3565b60405180910390a15050505050505050505050565b6111ae611796565b73ffffffffffffffffffffffffffffffffffffffff166111cc610a13565b73ffffffffffffffffffffffffffffffffffffffff161461122b576111ef611796565b6040517f118cdaa700000000000000000000000000000000000000000000000000000000815260040161122291906121f0565b60405180910390fd5b565b8060015f8463ffffffff1663ffffffff1681526020019081526020015f20819055507f238399d427b947898edb290f5ff0f9109849b1c3ba196a42e35f00c50a54b98b828260405161128092919061241f565b60405180910390a15050565b611294611a65565b5f6112a1845f015161179d565b90505f846020015111156112bd576112bc84602001516117ea565b5b7f000000000000000000000000000000000000000000000000000000000000000073ffffffffffffffffffffffffffffffffffffffff16632637a450826040518060a001604052808b63ffffffff16815260200161131a8c61106b565b81526020018a81526020018981526020015f8960200151111515815250866040518463ffffffff1660e01b8152600401611355929190612d79565b60806040518083038185885af1158015611371573d5f5f3e3d5ffd5b50505050506040513d601f19601f820116820180604052508101906113969190612ea7565b91505095945050505050565b6113aa611a4d565b7f000000000000000000000000000000000000000000000000000000000000000073ffffffffffffffffffffffffffffffffffffffff1663ddc28c586040518060a001604052808863ffffffff1681526020016114068961106b565b8152602001878152602001868152602001851515815250306040518363ffffffff1660e01b815260040161143b929190612d79565b6040805180830381865afa158015611455573d5f5f3e3d5ffd5b505050506040513d601f19601f820116820180604052508101906114799190612ed2565b9050949350505050565b5f5f5f9054906101000a900473ffffffffffffffffffffffffffffffffffffffff169050815f5f6101000a81548173ffffffffffffffffffffffffffffffffffffffff021916908373ffffffffffffffffffffffffffffffffffffffff1602179055508173ffffffffffffffffffffffffffffffffffffffff168173ffffffffffffffffffffffffffffffffffffffff167f8be0079c531659141344cd1fd0a4f28419497f9722a3daafe3b4186f6b6457e060405160405180910390a35050565b5f5f90505b81518110156116215761157982828151811061156857611567612efd565b5b60200260200101516040015161165c565b81818151811061158c5761158b612efd565b5b60200260200101516040015160025f8484815181106115ae576115ad612efd565b5b60200260200101515f015163ffffffff1663ffffffff1681526020019081526020015f205f8484815181106115e6576115e5612efd565b5b60200260200101516020015161ffff1661ffff1681526020019081526020015f2090816116139190612f2a565b508080600101915050611549565b507fbe4864a8e820971c0247f5992e2da559595f7bf076a21cb5928d443d2a13b674816040516116519190613110565b60405180910390a150565b5f60028201519050600361ffff168161ffff16146116b157816040517f9a6d49cd0000000000000000000000000000000000000000000000000000000081526004016116a89190611d5a565b60405180910390fd5b5050565b5f8173ffffffffffffffffffffffffffffffffffffffff1663f887ea406040518163ffffffff1660e01b8152600401602060405180830381865afa1580156116ff573d5f5f3e3d5ffd5b505050506040513d601f19601f820116820180604052508101906117239190613144565b73ffffffffffffffffffffffffffffffffffffffff1663456dc17a6040518163ffffffff1660e01b8152600401602060405180830381865afa15801561176b573d5f5f3e3d5ffd5b505050506040513d601f19601f8201168201806040525081019061178f9190613144565b9050919050565b5f33905090565b5f8134146117e257346040517f9f7041200000000000000000000000000000000000000000000000000000000081526004016117d9919061237c565b60405180910390fd5b819050919050565b5f7f000000000000000000000000000000000000000000000000000000000000000073ffffffffffffffffffffffffffffffffffffffff1663e4fe1d946040518163ffffffff1660e01b8152600401602060405180830381865afa158015611854573d5f5f3e3d5ffd5b505050506040513d601f19601f820116820180604052508101906118789190613144565b90505f73ffffffffffffffffffffffffffffffffffffffff168173ffffffffffffffffffffffffffffffffffffffff16036118df576040517f5373352a00000000000000000000000000000000000000000000000000000000815260040160405180910390fd5b61192c337f0000000000000000000000000000000000000000000000000000000000000000848473ffffffffffffffffffffffffffffffffffffffff16611930909392919063ffffffff16565b5050565b6119ac848573ffffffffffffffffffffffffffffffffffffffff166323b872dd8686866040516024016119659392919061316f565b604051602081830303815290604052915060e01b6020820180517bffffffffffffffffffffffffffffffffffffffffffffffffffffffff83818316178352505050506119b2565b50505050565b5f5f60205f8451602086015f885af1806119d1576040513d5f823e3d81fd5b3d92505f519150505f82146119ea576001811415611a05565b5f8473ffffffffffffffffffffffffffffffffffffffff163b145b15611a4757836040517f5274afe7000000000000000000000000000000000000000000000000000000008152600401611a3e91906121f0565b60405180910390fd5b50505050565b60405180604001604052805f81526020015f81525090565b60405180606001604052805f81526020015f67ffffffffffffffff168152602001611a8e611a4d565b81525090565b5f604051905090565b5f5ffd5b5f5ffd5b5f5ffd5b5f60608284031215611abe57611abd611aa5565b5b81905092915050565b5f819050919050565b611ad981611ac7565b8114611ae3575f5ffd5b50565b5f81359050611af481611ad0565b92915050565b5f5ffd5b5f5ffd5b5f5ffd5b5f5f83601f840112611b1b57611b1a611afa565b5b8235905067ffffffffffffffff811115611b3857611b37611afe565b5b602083019150836001820283011115611b5457611b53611b02565b5b9250929050565b5f73ffffffffffffffffffffffffffffffffffffffff82169050919050565b5f611b8482611b5b565b9050919050565b611b9481611b7a565b8114611b9e575f5ffd5b50565b5f81359050611baf81611b8b565b92915050565b5f5f5f5f5f5f5f60e0888a031215611bd057611bcf611a9d565b5b5f611bdd8a828b01611aa9565b9750506060611bee8a828b01611ae6565b965050608088013567ffffffffffffffff811115611c0f57611c0e611aa1565b5b611c1b8a828b01611b06565b955095505060a0611c2e8a828b01611ba1565b93505060c088013567ffffffffffffffff811115611c4f57611c4e611aa1565b5b611c5b8a828b01611b06565b925092505092959891949750929550565b5f67ffffffffffffffff82169050919050565b611c8881611c6c565b82525050565b5f604082019050611ca15f830185611c7f565b611cae6020830184611c7f565b9392505050565b5f61ffff82169050919050565b611ccb81611cb5565b82525050565b5f602082019050611ce45f830184611cc2565b92915050565b5f81519050919050565b5f82825260208201905092915050565b8281835e5f83830152505050565b5f601f19601f8301169050919050565b5f611d2c82611cea565b611d368185611cf4565b9350611d46818560208601611d04565b611d4f81611d12565b840191505092915050565b5f6020820190508181035f830152611d728184611d22565b905092915050565b5f63ffffffff82169050919050565b611d9281611d7a565b8114611d9c575f5ffd5b50565b5f81359050611dad81611d89565b92915050565b5f5f60408385031215611dc957611dc8611a9d565b5b5f611dd685828601611d9f565b9250506020611de785828601611ae6565b9150509250929050565b611dfa81611cb5565b8114611e04575f5ffd5b50565b5f81359050611e1581611df1565b92915050565b5f5f60408385031215611e3157611e30611a9d565b5b5f611e3e85828601611d9f565b9250506020611e4f85828601611e07565b9150509250929050565b5f819050919050565b611e6b81611e59565b8114611e75575f5ffd5b50565b5f81359050611e8681611e62565b92915050565b5f5f5f5f5f5f5f5f60e0898b031215611ea857611ea7611a9d565b5b5f611eb58b828c01611d9f565b9850506020611ec68b828c01611ba1565b9750506040611ed78b828c01611ba1565b9650506060611ee88b828c01611ba1565b9550506080611ef98b828c01611e78565b94505060a0611f0a8b828c01611e78565b93505060c089013567ffffffffffffffff811115611f2b57611f2a611aa1565b5b611f378b828c01611b06565b92509250509295985092959890939650565b5f60208284031215611f5e57611f5d611a9d565b5b5f611f6b84828501611ba1565b91505092915050565b5f819050919050565b5f611f97611f92611f8d84611b5b565b611f74565b611b5b565b9050919050565b5f611fa882611f7d565b9050919050565b5f611fb982611f9e565b9050919050565b611fc981611faf565b82525050565b5f602082019050611fe25f830184611fc0565b92915050565b5f8115159050919050565b611ffc81611fe8565b8114612006575f5ffd5b50565b5f8135905061201781611ff3565b92915050565b5f5f5f5f5f5f5f5f60e0898b03121561203957612038611a9d565b5b5f6120468b828c01611d9f565b98505060206120578b828c01611ba1565b97505060406120688b828c01611ba1565b96505060606120798b828c01611ba1565b955050608061208a8b828c01611e78565b94505060a089013567ffffffffffffffff8111156120ab576120aa611aa1565b5b6120b78b828c01611b06565b935093505060c06120ca8b828c01612009565b9150509295985092959890939650565b6120e381611e59565b82525050565b604082015f8201516120fd5f8501826120da565b50602082015161211060208501826120da565b50505050565b5f6040820190506121295f8301846120e9565b92915050565b5f6020820190506121425f830184611c7f565b92915050565b5f5f5f5f60a085870312156121605761215f611a9d565b5b5f61216d87828801611aa9565b945050606085013567ffffffffffffffff81111561218e5761218d611aa1565b5b61219a87828801611b06565b935093505060806121ad87828801611ba1565b91505092959194509250565b6121c281611fe8565b82525050565b5f6020820190506121db5f8301846121b9565b92915050565b6121ea81611b7a565b82525050565b5f6020820190506122035f8301846121e1565b92915050565b5f5f83601f84011261221e5761221d611afa565b5b8235905067ffffffffffffffff81111561223b5761223a611afe565b5b60208301915083602082028301111561225757612256611b02565b5b9250929050565b5f5f6020838503121561227457612273611a9d565b5b5f83013567ffffffffffffffff81111561229157612290611aa1565b5b61229d85828601612209565b92509250509250929050565b5f602082840312156122be576122bd611a9d565b5b5f6122cb84828501611d9f565b91505092915050565b6122dd81611ac7565b82525050565b5f6020820190506122f65f8301846122d4565b92915050565b5f5f5f5f6060858703121561231457612313611a9d565b5b5f61232187828801611d9f565b945050602061233287828801611e07565b935050604085013567ffffffffffffffff81111561235357612352611aa1565b5b61235f87828801611b06565b925092505092959194509250565b61237681611e59565b82525050565b5f60208201905061238f5f83018461236d565b92915050565b5f5f5f606084860312156123ac576123ab611a9d565b5b5f6123b986828701611ba1565b93505060206123ca86828701611ba1565b92505060406123db86828701611e78565b9150509250925092565b5f606082840312156123fa576123f9611a9d565b5b5f61240784828501611aa9565b91505092915050565b61241981611d7a565b82525050565b5f6040820190506124325f830185612410565b61243f60208301846122d4565b9392505050565b7f4e487b71000000000000000000000000000000000000000000000000000000005f52602260045260245ffd5b5f600282049050600182168061248a57607f821691505b60208210810361249d5761249c612446565b5b50919050565b5f6080820190506124b65f8301876121e1565b6124c360208301866121e1565b6124d060408301856121e1565b6124dd606083018461236d565b95945050505050565b7f4e487b71000000000000000000000000000000000000000000000000000000005f52604160045260245ffd5b61251c82611d12565b810181811067ffffffffffffffff8211171561253b5761253a6124e6565b5b80604052505050565b5f61254d611a94565b90506125598282612513565b919050565b5f67ffffffffffffffff821115612578576125776124e6565b5b602082029050602081019050919050565b5f5ffd5b5f5ffd5b5f5ffd5b5f67ffffffffffffffff8211156125af576125ae6124e6565b5b6125b882611d12565b9050602081019050919050565b828183375f83830152505050565b5f6125e56125e084612595565b612544565b90508281526020810184848401111561260157612600612591565b5b61260c8482856125c5565b509392505050565b5f82601f83011261262857612627611afa565b5b81356126388482602086016125d3565b91505092915050565b5f6060828403121561265657612655612589565b5b6126606060612544565b90505f61266f84828501611d9f565b5f83015250602061268284828501611e07565b602083015250604082013567ffffffffffffffff8111156126a6576126a561258d565b5b6126b284828501612614565b60408301525092915050565b5f6126d06126cb8461255e565b612544565b905080838252602082019050602084028301858111156126f3576126f2611b02565b5b835b8181101561273a57803567ffffffffffffffff81111561271857612717611afa565b5b8086016127258982612641565b855260208501945050506020810190506126f5565b5050509392505050565b5f6127503684846126be565b905092915050565b5f5ffd5b5f5ffd5b5f5f8585111561277357612772612758565b5b838611156127845761278361275c565b5b6001850283019150848603905094509492505050565b5f81905092915050565b5f6127ae82611cea565b6127b8818561279a565b93506127c8818560208601611d04565b80840191505092915050565b5f6127df838561279a565b93506127ec8385846125c5565b82840190509392505050565b5f61280382866127a4565b91506128108284866127d4565b9150819050949350505050565b5f6128288385611cf4565b93506128358385846125c5565b61283e83611d12565b840190509392505050565b5f6020820190508181035f83015261286281848661281d565b90509392505050565b7f4e487b71000000000000000000000000000000000000000000000000000000005f52601160045260245ffd5b5f6128a282611e59565b91506128ad83611e59565b92508282039050818111156128c5576128c461286b565b5b92915050565b5f6040820190506128de5f8301856121e1565b6128eb602083018461236d565b9392505050565b5f8151905061290081611ff3565b92915050565b5f6020828403121561291b5761291a611a9d565b5b5f612928848285016128f2565b91505092915050565b5f6020820190506129445f830184612410565b92915050565b5f61295482611b5b565b9050919050565b6129648161294a565b811461296e575f5ffd5b50565b5f8135905061297f8161295b565b92915050565b5f5f5f5f6080858703121561299d5761299c611a9d565b5b5f6129aa87828801612971565b94505060206129bb87828801612971565b93505060406129cc87828801612971565b92505060606129dd87828801611e78565b91505092959194509250565b5f6129f382611e59565b91506129fe83611e59565b9250828201905080821115612a1657612a1561286b565b5b92915050565b5f82905092915050565b5f819050815f5260205f209050919050565b5f6020601f8301049050919050565b5f82821b905092915050565b5f60088302612a827fffffffffffffffffffffffffffffffffffffffffffffffffffffffffffffffff82612a47565b612a8c8683612a47565b95508019841693508086168417925050509392505050565b5f612abe612ab9612ab484611e59565b611f74565b611e59565b9050919050565b5f819050919050565b612ad783612aa4565b612aeb612ae382612ac5565b848454612a53565b825550505050565b5f5f905090565b612b02612af3565b612b0d818484612ace565b505050565b5b81811015612b3057612b255f82612afa565b600181019050612b13565b5050565b601f821115612b7557612b4681612a26565b612b4f84612a38565b81016020851015612b5e578190505b612b72612b6a85612a38565b830182612b12565b50505b505050565b5f82821c905092915050565b5f612b955f1984600802612b7a565b1980831691505092915050565b5f612bad8383612b86565b9150826002028217905092915050565b612bc78383612a1c565b67ffffffffffffffff811115612be057612bdf6124e6565b5b612bea8254612473565b612bf5828285612b34565b5f601f831160018114612c22575f8415612c10578287013590505b612c1a8582612ba2565b865550612c81565b601f198416612c3086612a26565b5f5b82811015612c5757848901358255600182019150602085019450602081019050612c32565b86831015612c745784890135612c70601f891682612b86565b8355505b6001600288020188555050505b50505050505050565b612c9381611d7a565b82525050565b612ca281611ac7565b82525050565b5f82825260208201905092915050565b5f612cc282611cea565b612ccc8185612ca8565b9350612cdc818560208601611d04565b612ce581611d12565b840191505092915050565b612cf981611fe8565b82525050565b5f60a083015f830151612d145f860182612c8a565b506020830151612d276020860182612c99565b5060408301518482036040860152612d3f8282612cb8565b91505060608301518482036060860152612d598282612cb8565b9150506080830151612d6e6080860182612cf0565b508091505092915050565b5f6040820190508181035f830152612d918185612cff565b9050612da060208301846121e1565b9392505050565b5f81519050612db581611ad0565b92915050565b612dc481611c6c565b8114612dce575f5ffd5b50565b5f81519050612ddf81612dbb565b92915050565b5f81519050612df381611e62565b92915050565b5f60408284031215612e0e57612e0d612589565b5b612e186040612544565b90505f612e2784828501612de5565b5f830152506020612e3a84828501612de5565b60208301525092915050565b5f60808284031215612e5b57612e5a612589565b5b612e656060612544565b90505f612e7484828501612da7565b5f830152506020612e8784828501612dd1565b6020830152506040612e9b84828501612df9565b60408301525092915050565b5f60808284031215612ebc57612ebb611a9d565b5b5f612ec984828501612e46565b91505092915050565b5f60408284031215612ee757612ee6611a9d565b5b5f612ef484828501612df9565b91505092915050565b7f4e487b71000000000000000000000000000000000000000000000000000000005f52603260045260245ffd5b612f3382611cea565b67ffffffffffffffff811115612f4c57612f4b6124e6565b5b612f568254612473565b612f61828285612b34565b5f60209050601f831160018114612f92575f8415612f80578287015190505b612f8a8582612ba2565b865550612ff1565b601f198416612fa086612a26565b5f5b82811015612fc757848901518255600182019150602085019450602081019050612fa2565b86831015612fe45784890151612fe0601f891682612b86565b8355505b6001600288020188555050505b505050505050565b5f81519050919050565b5f82825260208201905092915050565b5f819050602082019050919050565b61302b81611cb5565b82525050565b5f606083015f8301516130465f860182612c8a565b5060208301516130596020860182613022565b50604083015184820360408601526130718282612cb8565b9150508091505092915050565b5f6130898383613031565b905092915050565b5f602082019050919050565b5f6130a782612ff9565b6130b18185613003565b9350836020820285016130c385613013565b805f5b858110156130fe57848403895281516130df858261307e565b94506130ea83613091565b925060208a019950506001810190506130c6565b50829750879550505050505092915050565b5f6020820190508181035f830152613128818461309d565b905092915050565b5f8151905061313e81611b8b565b92915050565b5f6020828403121561315957613158611a9d565b5b5f61316684828501613130565b91505092915050565b5f6060820190506131825f8301866121e1565b61318f60208301856121e1565b61319c604083018461236d565b94935050505056fea26469706673582212204290f8648f9f3604a2d50a3a5d85f9942d9d74a80693d735101ecd2ef9b2474564736f6c634300081c0033","linkReferences":{}},"methodIdentifiers":{"SEND()":"1f5e1334","allowInitializePath((uint32,bytes32,uint64))":"ff7bd03d","combineOptions(uint32,uint16,bytes)":"bc70b354","endpoint()":"5e280f11","enforcedOptions(uint32,uint16)":"5535d461","execute(address,address,uint256)":"eafaddfd","factory()":"c45a0155","isComposeMsgSender((uint32,bytes32,uint64),bytes,address)":"82413eac","lastMessage()":"32970710","lzReceive((uint32,bytes32,uint64),bytes32,bytes,address,bytes)":"13137d65","nextNonce(uint32,bytes32)":"7d25a05e","oAppVersion()":"17442b70","oftaddress()":"9c967afa","owner()":"8da5cb5b","peers(uint32)":"bb0b6a53","quoteSendString(uint32,address,address,address,uint256,bytes,bool)":"62a896b0","renounceOwnership()":"715018a6","sendString(uint32,address,address,address,uint256,uint256,bytes)":"59ce5fa9","setDelegate(address)":"ca5eb5e1","setEnforcedOptions((uint32,uint16,bytes)[])":"b98bd070","setFactory(address)":"5bb47808","setOFTaddress(address)":"ea89900e","setPeer(uint32,bytes32)":"3400288b","transferOwnership(address)":"f2fde38b","userAmount(address)":"e1ad418e"},"id":173}