{"abi":[{"type":"function","name":"sendBridge","inputs":[{"name":"_oapp","type":"address","internalType":"address"},{"name":"_oft","type":"address","internalType":"address"},{"name":"_lendingPoolDst","type":"address","internalType":"address"},{"name":"_tokenSrc","type":"address","internalType":"address"},{"name":"_tokenDst","type":"address","internalType":"address"},{"name":"_toAddress","type":"address","internalType":"address"},{"name":"_dstEid","type":"uint32","internalType":"uint32"},{"name":"_amount","type":"uint256","internalType":"uint256"},{"name":"_oftFee","type":"uint256","internalType":"uint256"},{"name":"_oappFee","type":"uint256","internalType":"uint256"}],"outputs":[],"stateMutability":"payable"},{"type":"error","name":"InvalidOptionType","inputs":[{"name":"optionType","type":"uint16","internalType":"uint16"}]},{"type":"error","name":"ReentrancyGuardReentrantCall","inputs":[]},{"type":"error","name":"SafeCastOverflowedUintDowncast","inputs":[{"name":"bits","type":"uint8","internalType":"uint8"},{"name":"value","type":"uint256","internalType":"uint256"}]}],"bytecode":{"object":"0x6080604052348015600e575f5ffd5b5060015f81905550611044806100235f395ff3fe60806040526004361061001d575f3560e01c806315ef05f714610021575b5f5ffd5b61003b600480360381019061003691906106ad565b61003d565b005b610045610160565b5f5f6100538688878e6101a4565b915091508a73ffffffffffffffffffffffffffffffffffffffff1663c7c7f5b38584848b6040518563ffffffff1660e01b81526004016100959392919061090f565b60c06040518083038185885af11580156100b1573d5f5f3e3d5ffd5b50505050506040513d601f19601f820116820180604052508101906100d69190610b3d565b50508b73ffffffffffffffffffffffffffffffffffffffff166359ce5fa984888d8b8d8b8a6040518863ffffffff1660e01b815260040161011c96959493929190610bcc565b5f604051808303818588803b158015610133575f5ffd5b505af1158015610145573d5f5f3e3d5ffd5b505050505050506101546102b9565b50505050505050505050565b60025f540361019b576040517f3ee5aeb500000000000000000000000000000000000000000000000000000000815260040160405180910390fd5b60025f81905550565b6101ac610583565b6101b46105c2565b5f6101d361fde85f6101c46102c2565b6102ea9092919063ffffffff16565b90506040518060e001604052808863ffffffff1681526020016101f588610382565b815260200186815260200186815260200182815260200160405180602001604052805f815250815260200160405180602001604052805f81525081525092508373ffffffffffffffffffffffffffffffffffffffff16633b6f743b845f6040518363ffffffff1660e01b815260040161026f929190610c58565b6040805180830381865afa158015610289573d5f5f3e3d5ffd5b505050506040513d601f19601f820116820180604052508101906102ad9190610c86565b91505094509492505050565b60015f81905550565b606060036040516020016102d69190610cf2565b604051602081830303815290604052905090565b606083600361ffff166103065f836103a390919063ffffffff16565b61ffff161461035e576103225f826103a390919063ffffffff16565b6040517f3a51740d0000000000000000000000000000000000000000000000000000000081526004016103559190610d1b565b60405180910390fd5b5f6103698585610408565b905061037786600183610473565b925050509392505050565b5f8173ffffffffffffffffffffffffffffffffffffffff165f1b9050919050565b5f6002826103b19190610d61565b835110156103f4576040517f08c379a00000000000000000000000000000000000000000000000000000000081526004016103eb90610dee565b60405180910390fd5b5f8260028501015190508091505092915050565b60605f826fffffffffffffffffffffffffffffffff161461044a578282604051602001610436929190610e5b565b60405160208183030381529060405261046b565b8260405160200161045b9190610e86565b6040516020818303038152906040525b905092915050565b606083600361ffff1661048f5f836103a390919063ffffffff16565b61ffff16146104e7576104ab5f826103a390919063ffffffff16565b6040517f3a51740d0000000000000000000000000000000000000000000000000000000081526004016104de9190610d1b565b60405180910390fd5b846001806104f5865161052e565b6104ff9190610ea0565b8686604051602001610515959493929190610f4f565b6040516020818303038152906040529150509392505050565b5f61ffff801682111561057b576010826040517f6dfcc650000000000000000000000000000000000000000000000000000000008152600401610572929190610fe7565b60405180910390fd5b819050919050565b6040518060e001604052805f63ffffffff1681526020015f81526020015f81526020015f81526020016060815260200160608152602001606081525090565b60405180604001604052805f81526020015f81525090565b5f604051905090565b5f5ffd5b5f73ffffffffffffffffffffffffffffffffffffffff82169050919050565b5f610610826105e7565b9050919050565b61062081610606565b811461062a575f5ffd5b50565b5f8135905061063b81610617565b92915050565b5f63ffffffff82169050919050565b61065981610641565b8114610663575f5ffd5b50565b5f8135905061067481610650565b92915050565b5f819050919050565b61068c8161067a565b8114610696575f5ffd5b50565b5f813590506106a781610683565b92915050565b5f5f5f5f5f5f5f5f5f5f6101408b8d0312156106cc576106cb6105e3565b5b5f6106d98d828e0161062d565b9a505060206106ea8d828e0161062d565b99505060406106fb8d828e0161062d565b985050606061070c8d828e0161062d565b975050608061071d8d828e0161062d565b96505060a061072e8d828e0161062d565b95505060c061073f8d828e01610666565b94505060e06107508d828e01610699565b9350506101006107628d828e01610699565b9250506101206107748d828e01610699565b9150509295989b9194979a5092959850565b61078f81610641565b82525050565b5f819050919050565b6107a781610795565b82525050565b6107b68161067a565b82525050565b5f81519050919050565b5f82825260208201905092915050565b8281835e5f83830152505050565b5f601f19601f8301169050919050565b5f6107fe826107bc565b61080881856107c6565b93506108188185602086016107d6565b610821816107e4565b840191505092915050565b5f60e083015f8301516108415f860182610786565b506020830151610854602086018261079e565b50604083015161086760408601826107ad565b50606083015161087a60608601826107ad565b506080830151848203608086015261089282826107f4565b91505060a083015184820360a08601526108ac82826107f4565b91505060c083015184820360c08601526108c682826107f4565b9150508091505092915050565b604082015f8201516108e75f8501826107ad565b5060208201516108fa60208501826107ad565b50505050565b61090981610606565b82525050565b5f6080820190508181035f830152610927818661082c565b905061093660208301856108d3565b6109436060830184610900565b949350505050565b5f5ffd5b7f4e487b71000000000000000000000000000000000000000000000000000000005f52604160045260245ffd5b610985826107e4565b810181811067ffffffffffffffff821117156109a4576109a361094f565b5b80604052505050565b5f6109b66105da565b90506109c2828261097c565b919050565b6109d081610795565b81146109da575f5ffd5b50565b5f815190506109eb816109c7565b92915050565b5f67ffffffffffffffff82169050919050565b610a0d816109f1565b8114610a17575f5ffd5b50565b5f81519050610a2881610a04565b92915050565b5f81519050610a3c81610683565b92915050565b5f60408284031215610a5757610a5661094b565b5b610a6160406109ad565b90505f610a7084828501610a2e565b5f830152506020610a8384828501610a2e565b60208301525092915050565b5f60808284031215610aa457610aa361094b565b5b610aae60606109ad565b90505f610abd848285016109dd565b5f830152506020610ad084828501610a1a565b6020830152506040610ae484828501610a42565b60408301525092915050565b5f60408284031215610b0557610b0461094b565b5b610b0f60406109ad565b90505f610b1e84828501610a2e565b5f830152506020610b3184828501610a2e565b60208301525092915050565b5f5f60c08385031215610b5357610b526105e3565b5b5f610b6085828601610a8f565b9250506080610b7185828601610af0565b9150509250929050565b610b8481610641565b82525050565b610b938161067a565b82525050565b5f82825260208201905092915050565b50565b5f610bb75f83610b99565b9150610bc282610ba9565b5f82019050919050565b5f60e082019050610bdf5f830189610b7b565b610bec6020830188610900565b610bf96040830187610900565b610c066060830186610900565b610c136080830185610b8a565b610c2060a0830184610b8a565b81810360c0830152610c3181610bac565b9050979650505050505050565b5f8115159050919050565b610c5281610c3e565b82525050565b5f6040820190508181035f830152610c70818561082c565b9050610c7f6020830184610c49565b9392505050565b5f60408284031215610c9b57610c9a6105e3565b5b5f610ca884828501610a42565b91505092915050565b5f61ffff82169050919050565b5f8160f01b9050919050565b5f610cd482610cbe565b9050919050565b610cec610ce782610cb1565b610cca565b82525050565b5f610cfd8284610cdb565b60028201915081905092915050565b610d1581610cb1565b82525050565b5f602082019050610d2e5f830184610d0c565b92915050565b7f4e487b71000000000000000000000000000000000000000000000000000000005f52601160045260245ffd5b5f610d6b8261067a565b9150610d768361067a565b9250828201905080821115610d8e57610d8d610d34565b5b92915050565b5f82825260208201905092915050565b7f746f55696e7431365f6f75744f66426f756e64730000000000000000000000005f82015250565b5f610dd8601483610d94565b9150610de382610da4565b602082019050919050565b5f6020820190508181035f830152610e0581610dcc565b9050919050565b5f6fffffffffffffffffffffffffffffffff82169050919050565b5f8160801b9050919050565b5f610e3d82610e27565b9050919050565b610e55610e5082610e0c565b610e33565b82525050565b5f610e668285610e44565b601082019150610e768284610e44565b6010820191508190509392505050565b5f610e918284610e44565b60108201915081905092915050565b5f610eaa82610cb1565b9150610eb583610cb1565b9250828201905061ffff811115610ecf57610ece610d34565b5b92915050565b5f81905092915050565b5f610ee9826107bc565b610ef38185610ed5565b9350610f038185602086016107d6565b80840191505092915050565b5f60ff82169050919050565b5f8160f81b9050919050565b5f610f3182610f1b565b9050919050565b610f49610f4482610f0f565b610f27565b82525050565b5f610f5a8288610edf565b9150610f668287610f38565b600182019150610f768286610cdb565b600282019150610f868285610f38565b600182019150610f968284610edf565b91508190509695505050505050565b5f819050919050565b5f819050919050565b5f610fd1610fcc610fc784610fa5565b610fae565b610f0f565b9050919050565b610fe181610fb7565b82525050565b5f604082019050610ffa5f830185610fd8565b6110076020830184610b8a565b939250505056fea2646970667358221220564234358b3ab879784117e1837456721ed76fc67e37ddaddf154f02d7f937f364736f6c634300081c0033","linkReferences":{}},"methodIdentifiers":{"sendBridge(address,address,address,address,address,address,uint32,uint256,uint256,uint256)":"15ef05f7"},"id":151}