{"abi":[{"type":"function","name":"sendBridge","inputs":[{"name":"_oapp","type":"address","internalType":"address"},{"name":"_oft","type":"address","internalType":"address"},{"name":"_lendingPoolDst","type":"address","internalType":"address"},{"name":"_tokenSrc","type":"address","internalType":"address"},{"name":"_tokenDst","type":"address","internalType":"address"},{"name":"_toAddress","type":"address","internalType":"address"},{"name":"_dstEid","type":"uint32","internalType":"uint32"},{"name":"_amount","type":"uint256","internalType":"uint256"},{"name":"_oftFee","type":"uint256","internalType":"uint256"},{"name":"_oappFee","type":"uint256","internalType":"uint256"}],"outputs":[],"stateMutability":"payable"},{"type":"event","name":"sendBridgeOApp","inputs":[{"name":"_oapp","type":"address","indexed":false,"internalType":"address"},{"name":"_oft","type":"address","indexed":false,"internalType":"address"},{"name":"_lendingPoolDst","type":"address","indexed":false,"internalType":"address"},{"name":"_tokenSrc","type":"address","indexed":false,"internalType":"address"},{"name":"_tokenDst","type":"address","indexed":false,"internalType":"address"},{"name":"_toAddress","type":"address","indexed":false,"internalType":"address"},{"name":"_dstEid","type":"uint32","indexed":false,"internalType":"uint32"},{"name":"_amount","type":"uint256","indexed":false,"internalType":"uint256"},{"name":"_oftFee","type":"uint256","indexed":false,"internalType":"uint256"},{"name":"_oappFee","type":"uint256","indexed":false,"internalType":"uint256"}],"anonymous":false},{"type":"error","name":"InvalidOptionType","inputs":[{"name":"optionType","type":"uint16","internalType":"uint16"}]},{"type":"error","name":"ReentrancyGuardReentrantCall","inputs":[]},{"type":"error","name":"SafeCastOverflowedUintDowncast","inputs":[{"name":"bits","type":"uint8","internalType":"uint8"},{"name":"value","type":"uint256","internalType":"uint256"}]}],"bytecode":{"object":"0x6080604052348015600e575f5ffd5b5060015f81905550611127806100235f395ff3fe60806040526004361061001d575f3560e01c806315ef05f714610021575b5f5ffd5b61003b600480360381019061003691906106f6565b61003d565b005b6100456101a9565b5f5f6100538688878e6101ed565b915091508a73ffffffffffffffffffffffffffffffffffffffff1663c7c7f5b38584848b6040518563ffffffff1660e01b815260040161009593929190610958565b60c06040518083038185885af11580156100b1573d5f5f3e3d5ffd5b50505050506040513d601f19601f820116820180604052508101906100d69190610b86565b50508b73ffffffffffffffffffffffffffffffffffffffff166359ce5fa984888d8b8d8b8a6040518863ffffffff1660e01b815260040161011c96959493929190610c15565b5f604051808303818588803b158015610133575f5ffd5b505af1158015610145573d5f5f3e3d5ffd5b50505050507f3a706cf1e2329df7791f31caeec79c02e2b166dfe3ddf9d9ef0962f89209ed0a8c8c8c8c8c8c8c8c8c8c60405161018b9a99989796959493929190610c87565b60405180910390a1505061019d610302565b50505050505050505050565b60025f54036101e4576040517f3ee5aeb500000000000000000000000000000000000000000000000000000000815260040160405180910390fd5b60025f81905550565b6101f56105cc565b6101fd61060b565b5f61021c61fde85f61020d61030b565b6103339092919063ffffffff16565b90506040518060e001604052808863ffffffff16815260200161023e886103cb565b815260200186815260200186815260200182815260200160405180602001604052805f815250815260200160405180602001604052805f81525081525092508373ffffffffffffffffffffffffffffffffffffffff16633b6f743b845f6040518363ffffffff1660e01b81526004016102b8929190610d3b565b6040805180830381865afa1580156102d2573d5f5f3e3d5ffd5b505050506040513d601f19601f820116820180604052508101906102f69190610d69565b91505094509492505050565b60015f81905550565b6060600360405160200161031f9190610dd5565b604051602081830303815290604052905090565b606083600361ffff1661034f5f836103ec90919063ffffffff16565b61ffff16146103a75761036b5f826103ec90919063ffffffff16565b6040517f3a51740d00000000000000000000000000000000000000000000000000000000815260040161039e9190610dfe565b60405180910390fd5b5f6103b28585610451565b90506103c0866001836104bc565b925050509392505050565b5f8173ffffffffffffffffffffffffffffffffffffffff165f1b9050919050565b5f6002826103fa9190610e44565b8351101561043d576040517f08c379a000000000000000000000000000000000000000000000000000000000815260040161043490610ed1565b60405180910390fd5b5f8260028501015190508091505092915050565b60605f826fffffffffffffffffffffffffffffffff161461049357828260405160200161047f929190610f3e565b6040516020818303038152906040526104b4565b826040516020016104a49190610f69565b6040516020818303038152906040525b905092915050565b606083600361ffff166104d85f836103ec90919063ffffffff16565b61ffff1614610530576104f45f826103ec90919063ffffffff16565b6040517f3a51740d0000000000000000000000000000000000000000000000000000000081526004016105279190610dfe565b60405180910390fd5b8460018061053e8651610577565b6105489190610f83565b868660405160200161055e959493929190611032565b6040516020818303038152906040529150509392505050565b5f61ffff80168211156105c4576010826040517f6dfcc6500000000000000000000000000000000000000000000000000000000081526004016105bb9291906110ca565b60405180910390fd5b819050919050565b6040518060e001604052805f63ffffffff1681526020015f81526020015f81526020015f81526020016060815260200160608152602001606081525090565b60405180604001604052805f81526020015f81525090565b5f604051905090565b5f5ffd5b5f73ffffffffffffffffffffffffffffffffffffffff82169050919050565b5f61065982610630565b9050919050565b6106698161064f565b8114610673575f5ffd5b50565b5f8135905061068481610660565b92915050565b5f63ffffffff82169050919050565b6106a28161068a565b81146106ac575f5ffd5b50565b5f813590506106bd81610699565b92915050565b5f819050919050565b6106d5816106c3565b81146106df575f5ffd5b50565b5f813590506106f0816106cc565b92915050565b5f5f5f5f5f5f5f5f5f5f6101408b8d0312156107155761071461062c565b5b5f6107228d828e01610676565b9a505060206107338d828e01610676565b99505060406107448d828e01610676565b98505060606107558d828e01610676565b97505060806107668d828e01610676565b96505060a06107778d828e01610676565b95505060c06107888d828e016106af565b94505060e06107998d828e016106e2565b9350506101006107ab8d828e016106e2565b9250506101206107bd8d828e016106e2565b9150509295989b9194979a5092959850565b6107d88161068a565b82525050565b5f819050919050565b6107f0816107de565b82525050565b6107ff816106c3565b82525050565b5f81519050919050565b5f82825260208201905092915050565b8281835e5f83830152505050565b5f601f19601f8301169050919050565b5f61084782610805565b610851818561080f565b935061086181856020860161081f565b61086a8161082d565b840191505092915050565b5f60e083015f83015161088a5f8601826107cf565b50602083015161089d60208601826107e7565b5060408301516108b060408601826107f6565b5060608301516108c360608601826107f6565b50608083015184820360808601526108db828261083d565b91505060a083015184820360a08601526108f5828261083d565b91505060c083015184820360c086015261090f828261083d565b9150508091505092915050565b604082015f8201516109305f8501826107f6565b50602082015161094360208501826107f6565b50505050565b6109528161064f565b82525050565b5f6080820190508181035f8301526109708186610875565b905061097f602083018561091c565b61098c6060830184610949565b949350505050565b5f5ffd5b7f4e487b71000000000000000000000000000000000000000000000000000000005f52604160045260245ffd5b6109ce8261082d565b810181811067ffffffffffffffff821117156109ed576109ec610998565b5b80604052505050565b5f6109ff610623565b9050610a0b82826109c5565b919050565b610a19816107de565b8114610a23575f5ffd5b50565b5f81519050610a3481610a10565b92915050565b5f67ffffffffffffffff82169050919050565b610a5681610a3a565b8114610a60575f5ffd5b50565b5f81519050610a7181610a4d565b92915050565b5f81519050610a85816106cc565b92915050565b5f60408284031215610aa057610a9f610994565b5b610aaa60406109f6565b90505f610ab984828501610a77565b5f830152506020610acc84828501610a77565b60208301525092915050565b5f60808284031215610aed57610aec610994565b5b610af760606109f6565b90505f610b0684828501610a26565b5f830152506020610b1984828501610a63565b6020830152506040610b2d84828501610a8b565b60408301525092915050565b5f60408284031215610b4e57610b4d610994565b5b610b5860406109f6565b90505f610b6784828501610a77565b5f830152506020610b7a84828501610a77565b60208301525092915050565b5f5f60c08385031215610b9c57610b9b61062c565b5b5f610ba985828601610ad8565b9250506080610bba85828601610b39565b9150509250929050565b610bcd8161068a565b82525050565b610bdc816106c3565b82525050565b5f82825260208201905092915050565b50565b5f610c005f83610be2565b9150610c0b82610bf2565b5f82019050919050565b5f60e082019050610c285f830189610bc4565b610c356020830188610949565b610c426040830187610949565b610c4f6060830186610949565b610c5c6080830185610bd3565b610c6960a0830184610bd3565b81810360c0830152610c7a81610bf5565b9050979650505050505050565b5f61014082019050610c9b5f83018d610949565b610ca8602083018c610949565b610cb5604083018b610949565b610cc2606083018a610949565b610ccf6080830189610949565b610cdc60a0830188610949565b610ce960c0830187610bc4565b610cf660e0830186610bd3565b610d04610100830185610bd3565b610d12610120830184610bd3565b9b9a5050505050505050505050565b5f8115159050919050565b610d3581610d21565b82525050565b5f6040820190508181035f830152610d538185610875565b9050610d626020830184610d2c565b9392505050565b5f60408284031215610d7e57610d7d61062c565b5b5f610d8b84828501610a8b565b91505092915050565b5f61ffff82169050919050565b5f8160f01b9050919050565b5f610db782610da1565b9050919050565b610dcf610dca82610d94565b610dad565b82525050565b5f610de08284610dbe565b60028201915081905092915050565b610df881610d94565b82525050565b5f602082019050610e115f830184610def565b92915050565b7f4e487b71000000000000000000000000000000000000000000000000000000005f52601160045260245ffd5b5f610e4e826106c3565b9150610e59836106c3565b9250828201905080821115610e7157610e70610e17565b5b92915050565b5f82825260208201905092915050565b7f746f55696e7431365f6f75744f66426f756e64730000000000000000000000005f82015250565b5f610ebb601483610e77565b9150610ec682610e87565b602082019050919050565b5f6020820190508181035f830152610ee881610eaf565b9050919050565b5f6fffffffffffffffffffffffffffffffff82169050919050565b5f8160801b9050919050565b5f610f2082610f0a565b9050919050565b610f38610f3382610eef565b610f16565b82525050565b5f610f498285610f27565b601082019150610f598284610f27565b6010820191508190509392505050565b5f610f748284610f27565b60108201915081905092915050565b5f610f8d82610d94565b9150610f9883610d94565b9250828201905061ffff811115610fb257610fb1610e17565b5b92915050565b5f81905092915050565b5f610fcc82610805565b610fd68185610fb8565b9350610fe681856020860161081f565b80840191505092915050565b5f60ff82169050919050565b5f8160f81b9050919050565b5f61101482610ffe565b9050919050565b61102c61102782610ff2565b61100a565b82525050565b5f61103d8288610fc2565b9150611049828761101b565b6001820191506110598286610dbe565b600282019150611069828561101b565b6001820191506110798284610fc2565b91508190509695505050505050565b5f819050919050565b5f819050919050565b5f6110b46110af6110aa84611088565b611091565b610ff2565b9050919050565b6110c48161109a565b82525050565b5f6040820190506110dd5f8301856110bb565b6110ea6020830184610bd3565b939250505056fea2646970667358221220c62a3bcf37db22cb25476be2a54b895b0f6e8a8e4b334b40e14c41f9df23ec6a64736f6c634300081e0033","linkReferences":{}},"methodIdentifiers":{"sendBridge(address,address,address,address,address,address,uint32,uint256,uint256,uint256)":"15ef05f7"},"id":175}