{"abi":[{"type":"constructor","inputs":[{"name":"_token","type":"address","internalType":"address"},{"name":"_elevatedMinterBurner","type":"address","internalType":"address"},{"name":"_lzEndpoint","type":"address","internalType":"address"},{"name":"_owner","type":"address","internalType":"address"}],"stateMutability":"nonpayable"},{"type":"function","name":"SEND","inputs":[],"outputs":[{"name":"","type":"uint16","internalType":"uint16"}],"stateMutability":"view"},{"type":"function","name":"SEND_AND_CALL","inputs":[],"outputs":[{"name":"","type":"uint16","internalType":"uint16"}],"stateMutability":"view"},{"type":"function","name":"allowInitializePath","inputs":[{"name":"origin","type":"tuple","internalType":"struct Origin","components":[{"name":"srcEid","type":"uint32","internalType":"uint32"},{"name":"sender","type":"bytes32","internalType":"bytes32"},{"name":"nonce","type":"uint64","internalType":"uint64"}]}],"outputs":[{"name":"","type":"bool","internalType":"bool"}],"stateMutability":"view"},{"type":"function","name":"approvalRequired","inputs":[],"outputs":[{"name":"","type":"bool","internalType":"bool"}],"stateMutability":"pure"},{"type":"function","name":"combineOptions","inputs":[{"name":"_eid","type":"uint32","internalType":"uint32"},{"name":"_msgType","type":"uint16","internalType":"uint16"},{"name":"_extraOptions","type":"bytes","internalType":"bytes"}],"outputs":[{"name":"","type":"bytes","internalType":"bytes"}],"stateMutability":"view"},{"type":"function","name":"decimalConversionRate","inputs":[],"outputs":[{"name":"","type":"uint256","internalType":"uint256"}],"stateMutability":"view"},{"type":"function","name":"elevatedMinterBurner","inputs":[],"outputs":[{"name":"","type":"address","internalType":"address"}],"stateMutability":"view"},{"type":"function","name":"endpoint","inputs":[],"outputs":[{"name":"","type":"address","internalType":"contract ILayerZeroEndpointV2"}],"stateMutability":"view"},{"type":"function","name":"enforcedOptions","inputs":[{"name":"eid","type":"uint32","internalType":"uint32"},{"name":"msgType","type":"uint16","internalType":"uint16"}],"outputs":[{"name":"enforcedOption","type":"bytes","internalType":"bytes"}],"stateMutability":"view"},{"type":"function","name":"isComposeMsgSender","inputs":[{"name":"","type":"tuple","internalType":"struct Origin","components":[{"name":"srcEid","type":"uint32","internalType":"uint32"},{"name":"sender","type":"bytes32","internalType":"bytes32"},{"name":"nonce","type":"uint64","internalType":"uint64"}]},{"name":"","type":"bytes","internalType":"bytes"},{"name":"_sender","type":"address","internalType":"address"}],"outputs":[{"name":"","type":"bool","internalType":"bool"}],"stateMutability":"view"},{"type":"function","name":"isPeer","inputs":[{"name":"_eid","type":"uint32","internalType":"uint32"},{"name":"_peer","type":"bytes32","internalType":"bytes32"}],"outputs":[{"name":"","type":"bool","internalType":"bool"}],"stateMutability":"view"},{"type":"function","name":"lzReceive","inputs":[{"name":"_origin","type":"tuple","internalType":"struct Origin","components":[{"name":"srcEid","type":"uint32","internalType":"uint32"},{"name":"sender","type":"bytes32","internalType":"bytes32"},{"name":"nonce","type":"uint64","internalType":"uint64"}]},{"name":"_guid","type":"bytes32","internalType":"bytes32"},{"name":"_message","type":"bytes","internalType":"bytes"},{"name":"_executor","type":"address","internalType":"address"},{"name":"_extraData","type":"bytes","internalType":"bytes"}],"outputs":[],"stateMutability":"payable"},{"type":"function","name":"lzReceiveAndRevert","inputs":[{"name":"_packets","type":"tuple[]","internalType":"struct InboundPacket[]","components":[{"name":"origin","type":"tuple","internalType":"struct Origin","components":[{"name":"srcEid","type":"uint32","internalType":"uint32"},{"name":"sender","type":"bytes32","internalType":"bytes32"},{"name":"nonce","type":"uint64","internalType":"uint64"}]},{"name":"dstEid","type":"uint32","internalType":"uint32"},{"name":"receiver","type":"address","internalType":"address"},{"name":"guid","type":"bytes32","internalType":"bytes32"},{"name":"value","type":"uint256","internalType":"uint256"},{"name":"executor","type":"address","internalType":"address"},{"name":"message","type":"bytes","internalType":"bytes"},{"name":"extraData","type":"bytes","internalType":"bytes"}]}],"outputs":[],"stateMutability":"payable"},{"type":"function","name":"lzReceiveSimulate","inputs":[{"name":"_origin","type":"tuple","internalType":"struct Origin","components":[{"name":"srcEid","type":"uint32","internalType":"uint32"},{"name":"sender","type":"bytes32","internalType":"bytes32"},{"name":"nonce","type":"uint64","internalType":"uint64"}]},{"name":"_guid","type":"bytes32","internalType":"bytes32"},{"name":"_message","type":"bytes","internalType":"bytes"},{"name":"_executor","type":"address","internalType":"address"},{"name":"_extraData","type":"bytes","internalType":"bytes"}],"outputs":[],"stateMutability":"payable"},{"type":"function","name":"msgInspector","inputs":[],"outputs":[{"name":"","type":"address","internalType":"address"}],"stateMutability":"view"},{"type":"function","name":"nextNonce","inputs":[{"name":"","type":"uint32","internalType":"uint32"},{"name":"","type":"bytes32","internalType":"bytes32"}],"outputs":[{"name":"nonce","type":"uint64","internalType":"uint64"}],"stateMutability":"view"},{"type":"function","name":"oApp","inputs":[],"outputs":[{"name":"","type":"address","internalType":"address"}],"stateMutability":"view"},{"type":"function","name":"oAppVersion","inputs":[],"outputs":[{"name":"senderVersion","type":"uint64","internalType":"uint64"},{"name":"receiverVersion","type":"uint64","internalType":"uint64"}],"stateMutability":"pure"},{"type":"function","name":"oftVersion","inputs":[],"outputs":[{"name":"interfaceId","type":"bytes4","internalType":"bytes4"},{"name":"version","type":"uint64","internalType":"uint64"}],"stateMutability":"pure"},{"type":"function","name":"owner","inputs":[],"outputs":[{"name":"","type":"address","internalType":"address"}],"stateMutability":"view"},{"type":"function","name":"peers","inputs":[{"name":"eid","type":"uint32","internalType":"uint32"}],"outputs":[{"name":"peer","type":"bytes32","internalType":"bytes32"}],"stateMutability":"view"},{"type":"function","name":"preCrime","inputs":[],"outputs":[{"name":"","type":"address","internalType":"address"}],"stateMutability":"view"},{"type":"function","name":"quoteOFT","inputs":[{"name":"_sendParam","type":"tuple","internalType":"struct SendParam","components":[{"name":"dstEid","type":"uint32","internalType":"uint32"},{"name":"to","type":"bytes32","internalType":"bytes32"},{"name":"amountLD","type":"uint256","internalType":"uint256"},{"name":"minAmountLD","type":"uint256","internalType":"uint256"},{"name":"extraOptions","type":"bytes","internalType":"bytes"},{"name":"composeMsg","type":"bytes","internalType":"bytes"},{"name":"oftCmd","type":"bytes","internalType":"bytes"}]}],"outputs":[{"name":"oftLimit","type":"tuple","internalType":"struct OFTLimit","components":[{"name":"minAmountLD","type":"uint256","internalType":"uint256"},{"name":"maxAmountLD","type":"uint256","internalType":"uint256"}]},{"name":"oftFeeDetails","type":"tuple[]","internalType":"struct OFTFeeDetail[]","components":[{"name":"feeAmountLD","type":"int256","internalType":"int256"},{"name":"description","type":"string","internalType":"string"}]},{"name":"oftReceipt","type":"tuple","internalType":"struct OFTReceipt","components":[{"name":"amountSentLD","type":"uint256","internalType":"uint256"},{"name":"amountReceivedLD","type":"uint256","internalType":"uint256"}]}],"stateMutability":"view"},{"type":"function","name":"quoteSend","inputs":[{"name":"_sendParam","type":"tuple","internalType":"struct SendParam","components":[{"name":"dstEid","type":"uint32","internalType":"uint32"},{"name":"to","type":"bytes32","internalType":"bytes32"},{"name":"amountLD","type":"uint256","internalType":"uint256"},{"name":"minAmountLD","type":"uint256","internalType":"uint256"},{"name":"extraOptions","type":"bytes","internalType":"bytes"},{"name":"composeMsg","type":"bytes","internalType":"bytes"},{"name":"oftCmd","type":"bytes","internalType":"bytes"}]},{"name":"_payInLzToken","type":"bool","internalType":"bool"}],"outputs":[{"name":"msgFee","type":"tuple","internalType":"struct MessagingFee","components":[{"name":"nativeFee","type":"uint256","internalType":"uint256"},{"name":"lzTokenFee","type":"uint256","internalType":"uint256"}]}],"stateMutability":"view"},{"type":"function","name":"renounceOwnership","inputs":[],"outputs":[],"stateMutability":"nonpayable"},{"type":"function","name":"send","inputs":[{"name":"_sendParam","type":"tuple","internalType":"struct SendParam","components":[{"name":"dstEid","type":"uint32","internalType":"uint32"},{"name":"to","type":"bytes32","internalType":"bytes32"},{"name":"amountLD","type":"uint256","internalType":"uint256"},{"name":"minAmountLD","type":"uint256","internalType":"uint256"},{"name":"extraOptions","type":"bytes","internalType":"bytes"},{"name":"composeMsg","type":"bytes","internalType":"bytes"},{"name":"oftCmd","type":"bytes","internalType":"bytes"}]},{"name":"_fee","type":"tuple","internalType":"struct MessagingFee","components":[{"name":"nativeFee","type":"uint256","internalType":"uint256"},{"name":"lzTokenFee","type":"uint256","internalType":"uint256"}]},{"name":"_refundAddress","type":"address","internalType":"address"}],"outputs":[{"name":"msgReceipt","type":"tuple","internalType":"struct MessagingReceipt","components":[{"name":"guid","type":"bytes32","internalType":"bytes32"},{"name":"nonce","type":"uint64","internalType":"uint64"},{"name":"fee","type":"tuple","internalType":"struct MessagingFee","components":[{"name":"nativeFee","type":"uint256","internalType":"uint256"},{"name":"lzTokenFee","type":"uint256","internalType":"uint256"}]}]},{"name":"oftReceipt","type":"tuple","internalType":"struct OFTReceipt","components":[{"name":"amountSentLD","type":"uint256","internalType":"uint256"},{"name":"amountReceivedLD","type":"uint256","internalType":"uint256"}]}],"stateMutability":"payable"},{"type":"function","name":"setDelegate","inputs":[{"name":"_delegate","type":"address","internalType":"address"}],"outputs":[],"stateMutability":"nonpayable"},{"type":"function","name":"setEnforcedOptions","inputs":[{"name":"_enforcedOptions","type":"tuple[]","internalType":"struct EnforcedOptionParam[]","components":[{"name":"eid","type":"uint32","internalType":"uint32"},{"name":"msgType","type":"uint16","internalType":"uint16"},{"name":"options","type":"bytes","internalType":"bytes"}]}],"outputs":[],"stateMutability":"nonpayable"},{"type":"function","name":"setMsgInspector","inputs":[{"name":"_msgInspector","type":"address","internalType":"address"}],"outputs":[],"stateMutability":"nonpayable"},{"type":"function","name":"setPeer","inputs":[{"name":"_eid","type":"uint32","internalType":"uint32"},{"name":"_peer","type":"bytes32","internalType":"bytes32"}],"outputs":[],"stateMutability":"nonpayable"},{"type":"function","name":"setPreCrime","inputs":[{"name":"_preCrime","type":"address","internalType":"address"}],"outputs":[],"stateMutability":"nonpayable"},{"type":"function","name":"sharedDecimals","inputs":[],"outputs":[{"name":"","type":"uint8","internalType":"uint8"}],"stateMutability":"pure"},{"type":"function","name":"token","inputs":[],"outputs":[{"name":"","type":"address","internalType":"address"}],"stateMutability":"view"},{"type":"function","name":"tokenOFT","inputs":[],"outputs":[{"name":"","type":"address","internalType":"address"}],"stateMutability":"view"},{"type":"function","name":"transferOwnership","inputs":[{"name":"newOwner","type":"address","internalType":"address"}],"outputs":[],"stateMutability":"nonpayable"},{"type":"event","name":"Credit","inputs":[{"name":"to","type":"address","indexed":false,"internalType":"address"},{"name":"amount","type":"uint256","indexed":false,"internalType":"uint256"}],"anonymous":false},{"type":"event","name":"Debit","inputs":[{"name":"from","type":"address","indexed":false,"internalType":"address"},{"name":"amount","type":"uint256","indexed":false,"internalType":"uint256"}],"anonymous":false},{"type":"event","name":"EnforcedOptionSet","inputs":[{"name":"_enforcedOptions","type":"tuple[]","indexed":false,"internalType":"struct EnforcedOptionParam[]","components":[{"name":"eid","type":"uint32","internalType":"uint32"},{"name":"msgType","type":"uint16","internalType":"uint16"},{"name":"options","type":"bytes","internalType":"bytes"}]}],"anonymous":false},{"type":"event","name":"MsgInspectorSet","inputs":[{"name":"inspector","type":"address","indexed":false,"internalType":"address"}],"anonymous":false},{"type":"event","name":"OFTReceived","inputs":[{"name":"guid","type":"bytes32","indexed":true,"internalType":"bytes32"},{"name":"srcEid","type":"uint32","indexed":false,"internalType":"uint32"},{"name":"toAddress","type":"address","indexed":true,"internalType":"address"},{"name":"amountReceivedLD","type":"uint256","indexed":false,"internalType":"uint256"}],"anonymous":false},{"type":"event","name":"OFTSent","inputs":[{"name":"guid","type":"bytes32","indexed":true,"internalType":"bytes32"},{"name":"dstEid","type":"uint32","indexed":false,"internalType":"uint32"},{"name":"fromAddress","type":"address","indexed":true,"internalType":"address"},{"name":"amountSentLD","type":"uint256","indexed":false,"internalType":"uint256"},{"name":"amountReceivedLD","type":"uint256","indexed":false,"internalType":"uint256"}],"anonymous":false},{"type":"event","name":"OwnershipTransferred","inputs":[{"name":"previousOwner","type":"address","indexed":true,"internalType":"address"},{"name":"newOwner","type":"address","indexed":true,"internalType":"address"}],"anonymous":false},{"type":"event","name":"PeerSet","inputs":[{"name":"eid","type":"uint32","indexed":false,"internalType":"uint32"},{"name":"peer","type":"bytes32","indexed":false,"internalType":"bytes32"}],"anonymous":false},{"type":"event","name":"PreCrimeSet","inputs":[{"name":"preCrimeAddress","type":"address","indexed":false,"internalType":"address"}],"anonymous":false},{"type":"error","name":"AmountSDOverflowed","inputs":[{"name":"amountSD","type":"uint256","internalType":"uint256"}]},{"type":"error","name":"InsufficientBalance","inputs":[]},{"type":"error","name":"InvalidDelegate","inputs":[]},{"type":"error","name":"InvalidEndpointCall","inputs":[]},{"type":"error","name":"InvalidLocalDecimals","inputs":[]},{"type":"error","name":"InvalidOptions","inputs":[{"name":"options","type":"bytes","internalType":"bytes"}]},{"type":"error","name":"LzTokenUnavailable","inputs":[]},{"type":"error","name":"NoPeer","inputs":[{"name":"eid","type":"uint32","internalType":"uint32"}]},{"type":"error","name":"NotEnoughNative","inputs":[{"name":"msgValue","type":"uint256","internalType":"uint256"}]},{"type":"error","name":"OnlyEndpoint","inputs":[{"name":"addr","type":"address","internalType":"address"}]},{"type":"error","name":"OnlyPeer","inputs":[{"name":"eid","type":"uint32","internalType":"uint32"},{"name":"sender","type":"bytes32","internalType":"bytes32"}]},{"type":"error","name":"OnlySelf","inputs":[]},{"type":"error","name":"OwnableInvalidOwner","inputs":[{"name":"owner","type":"address","internalType":"address"}]},{"type":"error","name":"OwnableUnauthorizedAccount","inputs":[{"name":"account","type":"address","internalType":"address"}]},{"type":"error","name":"ReentrancyGuardReentrantCall","inputs":[]},{"type":"error","name":"SafeERC20FailedOperation","inputs":[{"name":"token","type":"address","internalType":"address"}]},{"type":"error","name":"SimulationResult","inputs":[{"name":"result","type":"bytes","internalType":"bytes"}]},{"type":"error","name":"SlippageExceeded","inputs":[{"name":"amountLD","type":"uint256","internalType":"uint256"},{"name":"minAmountLD","type":"uint256","internalType":"uint256"}]}],"bytecode":{"object":"0x60e060405234801561000f575f5ffd5b5060405161520b38038061520b83398181016040528101906100319190610498565b8382828273ffffffffffffffffffffffffffffffffffffffff1663313ce5676040518163ffffffff1660e01b8152600401602060405180830381865afa15801561007d573d5f5f3e3d5ffd5b505050506040513d601f19601f820116820180604052508101906100a19190610532565b8282818181818a5f73ffffffffffffffffffffffffffffffffffffffff168173ffffffffffffffffffffffffffffffffffffffff1603610118575f6040517f1e4fbdf700000000000000000000000000000000000000000000000000000000815260040161010f919061056c565b60405180910390fd5b6101278161037160201b60201c565b508173ffffffffffffffffffffffffffffffffffffffff1660808173ffffffffffffffffffffffffffffffffffffffff16815250505f73ffffffffffffffffffffffffffffffffffffffff168173ffffffffffffffffffffffffffffffffffffffff16036101c1576040517fb586360400000000000000000000000000000000000000000000000000000000815260040160405180910390fd5b60805173ffffffffffffffffffffffffffffffffffffffff1663ca5eb5e1826040518263ffffffff1660e01b81526004016101fc919061056c565b5f604051808303815f87803b158015610213575f5ffd5b505af1158015610225573d5f5f3e3d5ffd5b505050505050505061023b61043260201b60201c565b60ff168360ff16101561027a576040517f1e9714b000000000000000000000000000000000000000000000000000000000815260040160405180910390fd5b61028861043260201b60201c565b8361029391906105b2565b600a61029f919061071e565b60a081815250505050508273ffffffffffffffffffffffffffffffffffffffff1660c08173ffffffffffffffffffffffffffffffffffffffff168152505050505060016005819055508360065f6101000a81548173ffffffffffffffffffffffffffffffffffffffff021916908373ffffffffffffffffffffffffffffffffffffffff1602179055508260075f6101000a81548173ffffffffffffffffffffffffffffffffffffffff021916908373ffffffffffffffffffffffffffffffffffffffff16021790555050505050610768565b5f5f5f9054906101000a900473ffffffffffffffffffffffffffffffffffffffff169050815f5f6101000a81548173ffffffffffffffffffffffffffffffffffffffff021916908373ffffffffffffffffffffffffffffffffffffffff1602179055508173ffffffffffffffffffffffffffffffffffffffff168173ffffffffffffffffffffffffffffffffffffffff167f8be0079c531659141344cd1fd0a4f28419497f9722a3daafe3b4186f6b6457e060405160405180910390a35050565b5f6012905090565b5f5ffd5b5f73ffffffffffffffffffffffffffffffffffffffff82169050919050565b5f6104678261043e565b9050919050565b6104778161045d565b8114610481575f5ffd5b50565b5f815190506104928161046e565b92915050565b5f5f5f5f608085870312156104b0576104af61043a565b5b5f6104bd87828801610484565b94505060206104ce87828801610484565b93505060406104df87828801610484565b92505060606104f087828801610484565b91505092959194509250565b5f60ff82169050919050565b610511816104fc565b811461051b575f5ffd5b50565b5f8151905061052c81610508565b92915050565b5f602082840312156105475761054661043a565b5b5f6105548482850161051e565b91505092915050565b6105668161045d565b82525050565b5f60208201905061057f5f83018461055d565b92915050565b7f4e487b71000000000000000000000000000000000000000000000000000000005f52601160045260245ffd5b5f6105bc826104fc565b91506105c7836104fc565b9250828203905060ff8111156105e0576105df610585565b5b92915050565b5f8160011c9050919050565b5f5f8291508390505b600185111561063b5780860481111561061757610616610585565b5b60018516156106265780820291505b8081029050610634856105e6565b94506105fb565b94509492505050565b5f82610653576001905061070e565b81610660575f905061070e565b81600181146106765760028114610680576106af565b600191505061070e565b60ff84111561069257610691610585565b5b8360020a9150848211156106a9576106a8610585565b5b5061070e565b5060208310610133831016604e8410600b84101617156106e45782820a9050838111156106df576106de610585565b5b61070e565b6106f184848460016105f2565b9250905081840481111561070857610707610585565b5b81810290505b9392505050565b5f819050919050565b5f61072882610715565b9150610733836104fc565b92506107607fffffffffffffffffffffffffffffffffffffffffffffffffffffffffffffffff8484610644565b905092915050565b60805160a05160c051614a2c6107df5f395f6114bd01525f8181610e2901528181611e2201528181611e4301528181611ee7015261221b01525f8181610a3601528181610cd8015281816112b00152818161167f015281816119f90152818161259d015281816127f201526128ea0152614a2c5ff3fe608060405260043610610203575f3560e01c80638108bb7e11610117578063bc70b3541161009f578063d045a0dc1161006e578063d045a0dc14610756578063d424388514610772578063f2fde38b1461079a578063fc0c546a146107c2578063ff7bd03d146107ec57610203565b8063bc70b354146106a5578063bd815db0146106e1578063c7c7f5b3146106fd578063ca5eb5e11461072e57610203565b8063963efcaa116100e6578063963efcaa146105c35780639f68b964146105ed578063b731ea0a14610617578063b98bd07014610641578063bb0b6a531461066957610203565b80638108bb7e1461050957806382413eac14610533578063857749b01461056f5780638da5cb5b1461059957610203565b80633400288b1161019a5780635a0dfe4d116101695780635a0dfe4d146104295780635e280f11146104655780636fc1b31e1461048f578063715018a6146104b75780637d25a05e146104cd57610203565b80633400288b1461035f5780633b6f743b1461038757806352ae2879146103c35780635535d461146103ed57610203565b8063134d4f25116101d6578063134d4f25146102b5578063156a0d0f146102df57806317442b701461030a5780631f5e13341461033557610203565b80630d35b415146102075780630dec983d14610245578063111ecdad1461026f57806313137d6514610299575b5f5ffd5b348015610212575f5ffd5b5061022d60048036038101906102289190612a93565b610828565b60405161023c93929190612cc9565b60405180910390f35b348015610250575f5ffd5b506102596109d3565b6040516102669190612d44565b60405180910390f35b34801561027a575f5ffd5b506102836109f8565b6040516102909190612d44565b60405180910390f35b6102b360048036038101906102ae9190612e39565b610a1d565b005b3480156102c0575f5ffd5b506102c9610b3d565b6040516102d69190612f0c565b60405180910390f35b3480156102ea575f5ffd5b506102f3610b42565b604051610301929190612f81565b60405180910390f35b348015610315575f5ffd5b5061031e610b6f565b60405161032c929190612fa8565b60405180910390f35b348015610340575f5ffd5b50610349610b7d565b6040516103569190612f0c565b60405180910390f35b34801561036a575f5ffd5b5061038560048036038101906103809190613008565b610b82565b005b348015610392575f5ffd5b506103ad60048036038101906103a8919061307b565b610b98565b6040516103ba9190613102565b60405180910390f35b3480156103ce575f5ffd5b506103d7610c00565b6040516103e49190612d44565b60405180910390f35b3480156103f8575f5ffd5b50610413600480360381019061040e9190613145565b610c07565b60405161042091906131d5565b60405180910390f35b348015610434575f5ffd5b5061044f600480360381019061044a9190613008565b610cad565b60405161045c9190613204565b60405180910390f35b348015610470575f5ffd5b50610479610cd6565b6040516104869190613278565b60405180910390f35b34801561049a575f5ffd5b506104b560048036038101906104b09190613291565b610cfa565b005b3480156104c2575f5ffd5b506104cb610d7c565b005b3480156104d8575f5ffd5b506104f360048036038101906104ee9190613008565b610d8f565b60405161050091906132bc565b60405180910390f35b348015610514575f5ffd5b5061051d610d99565b60405161052a9190612d44565b60405180910390f35b34801561053e575f5ffd5b50610559600480360381019061055491906132d5565b610dbe565b6040516105669190613204565b60405180910390f35b34801561057a575f5ffd5b50610583610df8565b6040516105909190613361565b60405180910390f35b3480156105a4575f5ffd5b506105ad610e00565b6040516105ba9190612d44565b60405180910390f35b3480156105ce575f5ffd5b506105d7610e27565b6040516105e49190613389565b60405180910390f35b3480156105f8575f5ffd5b50610601610e4b565b60405161060e9190613204565b60405180910390f35b348015610622575f5ffd5b5061062b610e53565b6040516106389190612d44565b60405180910390f35b34801561064c575f5ffd5b50610667600480360381019061066291906133f7565b610e78565b005b348015610674575f5ffd5b5061068f600480360381019061068a9190613442565b610e99565b60405161069c919061347c565b60405180910390f35b3480156106b0575f5ffd5b506106cb60048036038101906106c69190613495565b610eae565b6040516106d891906131d5565b60405180910390f35b6106fb60048036038101906106f6919061355b565b6110b0565b005b610717600480360381019061071291906135c4565b61127f565b6040516107259291906136bb565b60405180910390f35b348015610739575f5ffd5b50610754600480360381019061074f9190613291565b6112a6565b005b610770600480360381019061076b9190612e39565b611337565b005b34801561077d575f5ffd5b5061079860048036038101906107939190613291565b6113b4565b005b3480156107a5575f5ffd5b506107c060048036038101906107bb9190613291565b611436565b005b3480156107cd575f5ffd5b506107d66114ba565b6040516107e39190612d44565b60405180910390f35b3480156107f7575f5ffd5b50610812600480360381019061080d91906136e2565b6114e1565b60405161081f9190613204565b60405180910390f35b6108306129d0565b606061083a6129e8565b5f5f90505f3073ffffffffffffffffffffffffffffffffffffffff1663fc0c546a6040518163ffffffff1660e01b8152600401602060405180830381865afa158015610888573d5f5f3e3d5ffd5b505050506040513d601f19601f820116820180604052508101906108ac9190613721565b73ffffffffffffffffffffffffffffffffffffffff166318160ddd6040518163ffffffff1660e01b8152600401602060405180830381865afa1580156108f4573d5f5f3e3d5ffd5b505050506040513d601f19601f820116820180604052508101906109189190613776565b905060405180604001604052808381526020018281525094505f67ffffffffffffffff81111561094b5761094a6137a1565b5b60405190808252806020026020018201604052801561098457816020015b610971612a00565b8152602001906001900390816109695790505b5093505f5f6109ad886040013589606001358a5f0160208101906109a89190613442565b61151e565b915091506040518060400160405280838152602001828152509450505050509193909250565b60065f9054906101000a900473ffffffffffffffffffffffffffffffffffffffff1681565b60045f9054906101000a900473ffffffffffffffffffffffffffffffffffffffff1681565b3373ffffffffffffffffffffffffffffffffffffffff167f000000000000000000000000000000000000000000000000000000000000000073ffffffffffffffffffffffffffffffffffffffff1614610aad57336040517f91ac5e4f000000000000000000000000000000000000000000000000000000008152600401610aa49190612d44565b60405180910390fd5b8660200135610acc885f016020810190610ac79190613442565b61157d565b14610b2557865f016020810190610ae39190613442565b87602001356040517fc26bebcc000000000000000000000000000000000000000000000000000000008152600401610b1c9291906137dd565b60405180910390fd5b610b34878787878787876115ee565b50505050505050565b600281565b5f5f7f02e49c2c000000000000000000000000000000000000000000000000000000006001915091509091565b5f5f60016002915091509091565b600181565b610b8a611778565b610b9482826117ff565b5050565b610ba0612a19565b5f610bc584604001358560600135865f016020810190610bc09190613442565b61151e565b9150505f5f610bd4868461185e565b91509150610bf5865f016020810190610bed9190613442565b8383886119ef565b935050505092915050565b5f30905090565b6003602052815f5260405f20602052805f5260405f205f91509150508054610c2e90613831565b80601f0160208091040260200160405190810160405280929190818152602001828054610c5a90613831565b8015610ca55780601f10610c7c57610100808354040283529160200191610ca5565b820191905f5260205f20905b815481529060010190602001808311610c8857829003601f168201915b505050505081565b5f8160015f8563ffffffff1663ffffffff1681526020019081526020015f205414905092915050565b7f000000000000000000000000000000000000000000000000000000000000000081565b610d02611778565b8060045f6101000a81548173ffffffffffffffffffffffffffffffffffffffff021916908373ffffffffffffffffffffffffffffffffffffffff1602179055507ff0be4f1e87349231d80c36b33f9e8639658eeaf474014dee15a3e6a4d441419781604051610d719190612d44565b60405180910390a150565b610d84611778565b610d8d5f611ad0565b565b5f5f905092915050565b60075f9054906101000a900473ffffffffffffffffffffffffffffffffffffffff1681565b5f3073ffffffffffffffffffffffffffffffffffffffff168273ffffffffffffffffffffffffffffffffffffffff16149050949350505050565b5f6012905090565b5f5f5f9054906101000a900473ffffffffffffffffffffffffffffffffffffffff16905090565b7f000000000000000000000000000000000000000000000000000000000000000081565b5f6001905090565b60025f9054906101000a900473ffffffffffffffffffffffffffffffffffffffff1681565b610e80611778565b610e95828290610e909190613a92565b611b91565b5050565b6001602052805f5260405f205f915090505481565b60605f60035f8763ffffffff1663ffffffff1681526020019081526020015f205f8661ffff1661ffff1681526020019081526020015f208054610ef090613831565b80601f0160208091040260200160405190810160405280929190818152602001828054610f1c90613831565b8015610f675780601f10610f3e57610100808354040283529160200191610f67565b820191905f5260205f20905b815481529060010190602001808311610f4a57829003601f168201915b505050505090505f815103610fc25783838080601f0160208091040260200160405190810160405280939291908181526020018383808284375f81840152601f19601f820116905080830192505050505050509150506110a8565b5f8484905003610fd557809150506110a8565b600284849050106110695761102c84848080601f0160208091040260200160405190810160405280939291908181526020018383808284375f81840152601f19601f82011690508083019250505050505050611ca9565b808484600290809261104093929190613aae565b60405160200161105293929190613b46565b6040516020818303038152906040529150506110a8565b83836040517f9a6d49cd00000000000000000000000000000000000000000000000000000000815260040161109f929190613b97565b60405180910390fd5b949350505050565b5f5f90505b828290508110156111d257368383838181106110d4576110d3613bb9565b5b90506020028101906110e69190613bf2565b905061110b815f015f0160208101906110ff9190613442565b825f0160200135610cad565b61111557506111c5565b3073ffffffffffffffffffffffffffffffffffffffff1663d045a0dc8260c00135835f018460a001358580610100019061114f9190613c1a565b8760e00160208101906111629190613291565b888061012001906111739190613c1a565b6040518963ffffffff1660e01b81526004016111959796959493929190613d4f565b5f604051808303818588803b1580156111ac575f5ffd5b505af11580156111be573d5f5f3e3d5ffd5b5050505050505b80806001019150506110b5565b503373ffffffffffffffffffffffffffffffffffffffff16638e9e70996040518163ffffffff1660e01b81526004015f60405180830381865afa15801561121b573d5f5f3e3d5ffd5b505050506040513d5f823e3d601f19601f820116820180604052508101906112439190613e20565b6040517f8351eea700000000000000000000000000000000000000000000000000000000815260040161127691906131d5565b60405180910390fd5b611287612a31565b61128f6129e8565b61129a858585611d02565b91509150935093915050565b6112ae611778565b7f000000000000000000000000000000000000000000000000000000000000000073ffffffffffffffffffffffffffffffffffffffff1663ca5eb5e1826040518263ffffffff1660e01b81526004016113079190612d44565b5f604051808303815f87803b15801561131e575f5ffd5b505af1158015611330573d5f5f3e3d5ffd5b5050505050565b3073ffffffffffffffffffffffffffffffffffffffff163373ffffffffffffffffffffffffffffffffffffffff161461139c576040517f14d4a4e800000000000000000000000000000000000000000000000000000000815260040160405180910390fd5b6113ab87878787878787611e07565b50505050505050565b6113bc611778565b8060025f6101000a81548173ffffffffffffffffffffffffffffffffffffffff021916908373ffffffffffffffffffffffffffffffffffffffff1602179055507fd48d879cef83a1c0bdda516f27b13ddb1b3f8bbac1c9e1511bb2a659c24277608160405161142b9190612d44565b60405180910390a150565b61143e611778565b5f73ffffffffffffffffffffffffffffffffffffffff168173ffffffffffffffffffffffffffffffffffffffff16036114ae575f6040517f1e4fbdf70000000000000000000000000000000000000000000000000000000081526004016114a59190612d44565b60405180910390fd5b6114b781611ad0565b50565b5f7f0000000000000000000000000000000000000000000000000000000000000000905090565b5f816020013560015f845f0160208101906114fc9190613442565b63ffffffff1663ffffffff1681526020019081526020015f2054149050919050565b5f5f61152985611e1f565b9150819050838110156115755780846040517f71c4efed00000000000000000000000000000000000000000000000000000000815260040161156c929190613e67565b60405180910390fd5b935093915050565b5f5f60015f8463ffffffff1663ffffffff1681526020019081526020015f205490505f5f1b81036115e557826040517ff6ff4fb70000000000000000000000000000000000000000000000000000000081526004016115dc9190613e8e565b60405180910390fd5b80915050919050565b5f6116016115fc8787611e7e565b611ea8565b90505f6116318261161a6116158a8a611eb3565b611ee4565b8b5f01602081019061162c9190613442565b611f22565b905061163d8787612169565b1561170b575f61167b8a60400160208101906116599190613ea7565b8b5f01602081019061166b9190613442565b846116768c8c61217c565b6121de565b90507f000000000000000000000000000000000000000000000000000000000000000073ffffffffffffffffffffffffffffffffffffffff16637cb59012848b5f856040518563ffffffff1660e01b81526004016116dc9493929190613f0b565b5f604051808303815f87803b1580156116f3575f5ffd5b505af1158015611705573d5f5f3e3d5ffd5b50505050505b8173ffffffffffffffffffffffffffffffffffffffff16887fefed6d3500546b29533b128a29e3a94d70788727f0507505ac12eaf2e578fd9c8b5f0160208101906117569190613442565b84604051611765929190613f55565b60405180910390a3505050505050505050565b611780612210565b73ffffffffffffffffffffffffffffffffffffffff1661179e610e00565b73ffffffffffffffffffffffffffffffffffffffff16146117fd576117c1612210565b6040517f118cdaa70000000000000000000000000000000000000000000000000000000081526004016117f49190612d44565b60405180910390fd5b565b8060015f8463ffffffff1663ffffffff1681526020019081526020015f20819055507f238399d427b947898edb290f5ff0f9109849b1c3ba196a42e35f00c50a54b98b82826040516118529291906137dd565b60405180910390a15050565b6060805f6118ca856020013561187386612217565b878060a001906118839190613c1a565b8080601f0160208091040260200160405190810160405280939291908181526020018383808284375f81840152601f19601f8201169050808301925050505050505061229f565b80925081945050505f816118df5760016118e2565b60025b905061190f865f0160208101906118f99190613442565b8288806080019061190a9190613c1a565b610eae565b92505f60045f9054906101000a900473ffffffffffffffffffffffffffffffffffffffff1690505f73ffffffffffffffffffffffffffffffffffffffff168173ffffffffffffffffffffffffffffffffffffffff16146119e5578073ffffffffffffffffffffffffffffffffffffffff1663043a78eb86866040518363ffffffff1660e01b81526004016119a4929190613f7c565b602060405180830381865afa1580156119bf573d5f5f3e3d5ffd5b505050506040513d601f19601f820116820180604052508101906119e39190613fc5565b505b5050509250929050565b6119f7612a19565b7f000000000000000000000000000000000000000000000000000000000000000073ffffffffffffffffffffffffffffffffffffffff1663ddc28c586040518060a001604052808863ffffffff168152602001611a538961157d565b8152602001878152602001868152602001851515815250306040518363ffffffff1660e01b8152600401611a889291906140c1565b6040805180830381865afa158015611aa2573d5f5f3e3d5ffd5b505050506040513d601f19601f82011682018060405250810190611ac6919061413c565b9050949350505050565b5f5f5f9054906101000a900473ffffffffffffffffffffffffffffffffffffffff169050815f5f6101000a81548173ffffffffffffffffffffffffffffffffffffffff021916908373ffffffffffffffffffffffffffffffffffffffff1602179055508173ffffffffffffffffffffffffffffffffffffffff168173ffffffffffffffffffffffffffffffffffffffff167f8be0079c531659141344cd1fd0a4f28419497f9722a3daafe3b4186f6b6457e060405160405180910390a35050565b5f5f90505b8151811015611c6e57611bc6828281518110611bb557611bb4613bb9565b5b602002602001015160400151611ca9565b818181518110611bd957611bd8613bb9565b5b60200260200101516040015160035f848481518110611bfb57611bfa613bb9565b5b60200260200101515f015163ffffffff1663ffffffff1681526020019081526020015f205f848481518110611c3357611c32613bb9565b5b60200260200101516020015161ffff1661ffff1681526020019081526020015f209081611c6091906142fe565b508080600101915050611b96565b507fbe4864a8e820971c0247f5992e2da559595f7bf076a21cb5928d443d2a13b67481604051611c9e91906144e4565b60405180910390a150565b5f60028201519050600361ffff168161ffff1614611cfe57816040517f9a6d49cd000000000000000000000000000000000000000000000000000000008152600401611cf591906131d5565b60405180910390fd5b5050565b611d0a612a31565b611d126129e8565b5f5f611d3933886040013589606001358a5f016020810190611d349190613442565b61230d565b915091505f5f611d49898461185e565b91509150611d7b895f016020810190611d629190613442565b83838b803603810190611d759190614565565b8b61256a565b955060405180604001604052808581526020018481525094503373ffffffffffffffffffffffffffffffffffffffff16865f01517f85496b760a4b7f8d66384b9df21b381f5d1b1e79f229a47aaf4c232edc2fe59a8b5f016020810190611de29190613442565b8787604051611df393929190614590565b60405180910390a350505050935093915050565b611e16878787878787876115ee565b50505050505050565b5f7f00000000000000000000000000000000000000000000000000000000000000007f000000000000000000000000000000000000000000000000000000000000000083611e6d919061461f565b611e77919061464f565b9050919050565b5f82825f90602060ff1692611e9593929190613aae565b90611ea0919061469a565b905092915050565b5f815f1c9050919050565b5f8282602060ff1690602860ff1692611ece93929190613aae565b90611ed99190614723565b60c01c905092915050565b5f7f00000000000000000000000000000000000000000000000000000000000000008267ffffffffffffffff16611f1b919061464f565b9050919050565b5f5f73ffffffffffffffffffffffffffffffffffffffff168473ffffffffffffffffffffffffffffffffffffffff1603611f5c5761dead93505b6120194603612088578260065f9054906101000a900473ffffffffffffffffffffffffffffffffffffffff1673ffffffffffffffffffffffffffffffffffffffff166370a08231306040518263ffffffff1660e01b8152600401611fc09190612d44565b602060405180830381865afa158015611fdb573d5f5f3e3d5ffd5b505050506040513d601f19601f82011682018060405250810190611fff9190613776565b1015612037576040517ff4d678b800000000000000000000000000000000000000000000000000000000815260040160405180910390fd5b612083848460065f9054906101000a900473ffffffffffffffffffffffffffffffffffffffff1673ffffffffffffffffffffffffffffffffffffffff166126809092919063ffffffff16565b612126565b60075f9054906101000a900473ffffffffffffffffffffffffffffffffffffffff1673ffffffffffffffffffffffffffffffffffffffff166340c10f1985856040518363ffffffff1660e01b81526004016120e4929190614781565b6020604051808303815f875af1158015612100573d5f5f3e3d5ffd5b505050506040513d601f19601f820116820180604052508101906121249190613fc5565b505b7f1bbf55d483639f8103dc4e035af71a4fbdb16c80be740fa3eef81198acefa0948484604051612157929190614781565b60405180910390a18290509392505050565b5f602860ff168383905011905092915050565b60608282602860ff1690809261219493929190613aae565b8080601f0160208091040260200160405190810160405280939291908181526020018383808284375f81840152601f19601f82011690508083019250505050505050905092915050565b6060848484846040516020016121f79493929190614830565b6040516020818303038152906040529050949350505050565b5f33905090565b5f5f7f000000000000000000000000000000000000000000000000000000000000000083612245919061461f565b905067ffffffffffffffff801681111561229657806040517fe2ce941300000000000000000000000000000000000000000000000000000000815260040161228d9190613389565b60405180910390fd5b80915050919050565b60605f5f8351119050806122d45784846040516020016122c0929190614899565b604051602081830303815290604052612303565b84846122df336126ff565b856040516020016122f394939291906148c4565b6040516020818303038152906040525b9150935093915050565b5f5f61231a85858561151e565b8092508193505050612019460361237e5761237986308460065f9054906101000a900473ffffffffffffffffffffffffffffffffffffffff1673ffffffffffffffffffffffffffffffffffffffff16612720909392919063ffffffff16565b612528565b6123cc86308460065f9054906101000a900473ffffffffffffffffffffffffffffffffffffffff1673ffffffffffffffffffffffffffffffffffffffff16612720909392919063ffffffff16565b60065f9054906101000a900473ffffffffffffffffffffffffffffffffffffffff1673ffffffffffffffffffffffffffffffffffffffff1663095ea7b360075f9054906101000a900473ffffffffffffffffffffffffffffffffffffffff16846040518363ffffffff1660e01b8152600401612449929190614781565b6020604051808303815f875af1158015612465573d5f5f3e3d5ffd5b505050506040513d601f19601f820116820180604052508101906124899190613fc5565b5060075f9054906101000a900473ffffffffffffffffffffffffffffffffffffffff1673ffffffffffffffffffffffffffffffffffffffff16639dc29fac87846040518363ffffffff1660e01b81526004016124e6929190614781565b6020604051808303815f875af1158015612502573d5f5f3e3d5ffd5b505050506040513d601f19601f820116820180604052508101906125269190613fc5565b505b7f59c79d79be0fadf59fe689b6952b7ebe90201a3a1f00d4a31982377890bc60468686604051612559929190614781565b60405180910390a194509492505050565b612572612a31565b5f61257f845f01516127a2565b90505f8460200151111561259b5761259a84602001516127ef565b5b7f000000000000000000000000000000000000000000000000000000000000000073ffffffffffffffffffffffffffffffffffffffff16632637a450826040518060a001604052808b63ffffffff1681526020016125f88c61157d565b81526020018a81526020018981526020015f8960200151111515815250866040518463ffffffff1660e01b81526004016126339291906140c1565b60806040518083038185885af115801561264f573d5f5f3e3d5ffd5b50505050506040513d601f19601f820116820180604052508101906126749190614996565b91505095945050505050565b6126fa838473ffffffffffffffffffffffffffffffffffffffff1663a9059cbb85856040516024016126b3929190614781565b604051602081830303815290604052915060e01b6020820180517bffffffffffffffffffffffffffffffffffffffffffffffffffffffff8381831617835250505050612935565b505050565b5f8173ffffffffffffffffffffffffffffffffffffffff165f1b9050919050565b61279c848573ffffffffffffffffffffffffffffffffffffffff166323b872dd868686604051602401612755939291906149c1565b604051602081830303815290604052915060e01b6020820180517bffffffffffffffffffffffffffffffffffffffffffffffffffffffff8381831617835250505050612935565b50505050565b5f8134146127e757346040517f9f7041200000000000000000000000000000000000000000000000000000000081526004016127de9190613389565b60405180910390fd5b819050919050565b5f7f000000000000000000000000000000000000000000000000000000000000000073ffffffffffffffffffffffffffffffffffffffff1663e4fe1d946040518163ffffffff1660e01b8152600401602060405180830381865afa158015612859573d5f5f3e3d5ffd5b505050506040513d601f19601f8201168201806040525081019061287d9190613721565b90505f73ffffffffffffffffffffffffffffffffffffffff168173ffffffffffffffffffffffffffffffffffffffff16036128e4576040517f5373352a00000000000000000000000000000000000000000000000000000000815260040160405180910390fd5b612931337f0000000000000000000000000000000000000000000000000000000000000000848473ffffffffffffffffffffffffffffffffffffffff16612720909392919063ffffffff16565b5050565b5f5f60205f8451602086015f885af180612954576040513d5f823e3d81fd5b3d92505f519150505f821461296d576001811415612988565b5f8473ffffffffffffffffffffffffffffffffffffffff163b145b156129ca57836040517f5274afe70000000000000000000000000000000000000000000000000000000081526004016129c19190612d44565b60405180910390fd5b50505050565b60405180604001604052805f81526020015f81525090565b60405180604001604052805f81526020015f81525090565b60405180604001604052805f8152602001606081525090565b60405180604001604052805f81526020015f81525090565b60405180606001604052805f81526020015f67ffffffffffffffff168152602001612a5a612a19565b81525090565b5f604051905090565b5f5ffd5b5f5ffd5b5f5ffd5b5f60e08284031215612a8a57612a89612a71565b5b81905092915050565b5f60208284031215612aa857612aa7612a69565b5b5f82013567ffffffffffffffff811115612ac557612ac4612a6d565b5b612ad184828501612a75565b91505092915050565b5f819050919050565b612aec81612ada565b82525050565b604082015f820151612b065f850182612ae3565b506020820151612b196020850182612ae3565b50505050565b5f81519050919050565b5f82825260208201905092915050565b5f819050602082019050919050565b5f819050919050565b612b5a81612b48565b82525050565b5f81519050919050565b5f82825260208201905092915050565b8281835e5f83830152505050565b5f601f19601f8301169050919050565b5f612ba282612b60565b612bac8185612b6a565b9350612bbc818560208601612b7a565b612bc581612b88565b840191505092915050565b5f604083015f830151612be55f860182612b51565b5060208301518482036020860152612bfd8282612b98565b9150508091505092915050565b5f612c158383612bd0565b905092915050565b5f602082019050919050565b5f612c3382612b1f565b612c3d8185612b29565b935083602082028501612c4f85612b39565b805f5b85811015612c8a5784840389528151612c6b8582612c0a565b9450612c7683612c1d565b925060208a01995050600181019050612c52565b50829750879550505050505092915050565b604082015f820151612cb05f850182612ae3565b506020820151612cc36020850182612ae3565b50505050565b5f60a082019050612cdc5f830186612af2565b8181036040830152612cee8185612c29565b9050612cfd6060830184612c9c565b949350505050565b5f73ffffffffffffffffffffffffffffffffffffffff82169050919050565b5f612d2e82612d05565b9050919050565b612d3e81612d24565b82525050565b5f602082019050612d575f830184612d35565b92915050565b5f60608284031215612d7257612d71612a71565b5b81905092915050565b5f819050919050565b612d8d81612d7b565b8114612d97575f5ffd5b50565b5f81359050612da881612d84565b92915050565b5f5ffd5b5f5ffd5b5f5ffd5b5f5f83601f840112612dcf57612dce612dae565b5b8235905067ffffffffffffffff811115612dec57612deb612db2565b5b602083019150836001820283011115612e0857612e07612db6565b5b9250929050565b612e1881612d24565b8114612e22575f5ffd5b50565b5f81359050612e3381612e0f565b92915050565b5f5f5f5f5f5f5f60e0888a031215612e5457612e53612a69565b5b5f612e618a828b01612d5d565b9750506060612e728a828b01612d9a565b965050608088013567ffffffffffffffff811115612e9357612e92612a6d565b5b612e9f8a828b01612dba565b955095505060a0612eb28a828b01612e25565b93505060c088013567ffffffffffffffff811115612ed357612ed2612a6d565b5b612edf8a828b01612dba565b925092505092959891949750929550565b5f61ffff82169050919050565b612f0681612ef0565b82525050565b5f602082019050612f1f5f830184612efd565b92915050565b5f7fffffffff0000000000000000000000000000000000000000000000000000000082169050919050565b612f5981612f25565b82525050565b5f67ffffffffffffffff82169050919050565b612f7b81612f5f565b82525050565b5f604082019050612f945f830185612f50565b612fa16020830184612f72565b9392505050565b5f604082019050612fbb5f830185612f72565b612fc86020830184612f72565b9392505050565b5f63ffffffff82169050919050565b612fe781612fcf565b8114612ff1575f5ffd5b50565b5f8135905061300281612fde565b92915050565b5f5f6040838503121561301e5761301d612a69565b5b5f61302b85828601612ff4565b925050602061303c85828601612d9a565b9150509250929050565b5f8115159050919050565b61305a81613046565b8114613064575f5ffd5b50565b5f8135905061307581613051565b92915050565b5f5f6040838503121561309157613090612a69565b5b5f83013567ffffffffffffffff8111156130ae576130ad612a6d565b5b6130ba85828601612a75565b92505060206130cb85828601613067565b9150509250929050565b604082015f8201516130e95f850182612ae3565b5060208201516130fc6020850182612ae3565b50505050565b5f6040820190506131155f8301846130d5565b92915050565b61312481612ef0565b811461312e575f5ffd5b50565b5f8135905061313f8161311b565b92915050565b5f5f6040838503121561315b5761315a612a69565b5b5f61316885828601612ff4565b925050602061317985828601613131565b9150509250929050565b5f81519050919050565b5f82825260208201905092915050565b5f6131a782613183565b6131b1818561318d565b93506131c1818560208601612b7a565b6131ca81612b88565b840191505092915050565b5f6020820190508181035f8301526131ed818461319d565b905092915050565b6131fe81613046565b82525050565b5f6020820190506132175f8301846131f5565b92915050565b5f819050919050565b5f61324061323b61323684612d05565b61321d565b612d05565b9050919050565b5f61325182613226565b9050919050565b5f61326282613247565b9050919050565b61327281613258565b82525050565b5f60208201905061328b5f830184613269565b92915050565b5f602082840312156132a6576132a5612a69565b5b5f6132b384828501612e25565b91505092915050565b5f6020820190506132cf5f830184612f72565b92915050565b5f5f5f5f60a085870312156132ed576132ec612a69565b5b5f6132fa87828801612d5d565b945050606085013567ffffffffffffffff81111561331b5761331a612a6d565b5b61332787828801612dba565b9350935050608061333a87828801612e25565b91505092959194509250565b5f60ff82169050919050565b61335b81613346565b82525050565b5f6020820190506133745f830184613352565b92915050565b61338381612ada565b82525050565b5f60208201905061339c5f83018461337a565b92915050565b5f5f83601f8401126133b7576133b6612dae565b5b8235905067ffffffffffffffff8111156133d4576133d3612db2565b5b6020830191508360208202830111156133f0576133ef612db6565b5b9250929050565b5f5f6020838503121561340d5761340c612a69565b5b5f83013567ffffffffffffffff81111561342a57613429612a6d565b5b613436858286016133a2565b92509250509250929050565b5f6020828403121561345757613456612a69565b5b5f61346484828501612ff4565b91505092915050565b61347681612d7b565b82525050565b5f60208201905061348f5f83018461346d565b92915050565b5f5f5f5f606085870312156134ad576134ac612a69565b5b5f6134ba87828801612ff4565b94505060206134cb87828801613131565b935050604085013567ffffffffffffffff8111156134ec576134eb612a6d565b5b6134f887828801612dba565b925092505092959194509250565b5f5f83601f84011261351b5761351a612dae565b5b8235905067ffffffffffffffff81111561353857613537612db2565b5b60208301915083602082028301111561355457613553612db6565b5b9250929050565b5f5f6020838503121561357157613570612a69565b5b5f83013567ffffffffffffffff81111561358e5761358d612a6d565b5b61359a85828601613506565b92509250509250929050565b5f604082840312156135bb576135ba612a71565b5b81905092915050565b5f5f5f608084860312156135db576135da612a69565b5b5f84013567ffffffffffffffff8111156135f8576135f7612a6d565b5b61360486828701612a75565b9350506020613615868287016135a6565b925050606061362686828701612e25565b9150509250925092565b61363981612d7b565b82525050565b61364881612f5f565b82525050565b604082015f8201516136625f850182612ae3565b5060208201516136756020850182612ae3565b50505050565b608082015f82015161368f5f850182613630565b5060208201516136a2602085018261363f565b5060408201516136b5604085018261364e565b50505050565b5f60c0820190506136ce5f83018561367b565b6136db6080830184612c9c565b9392505050565b5f606082840312156136f7576136f6612a69565b5b5f61370484828501612d5d565b91505092915050565b5f8151905061371b81612e0f565b92915050565b5f6020828403121561373657613735612a69565b5b5f6137438482850161370d565b91505092915050565b61375581612ada565b811461375f575f5ffd5b50565b5f815190506137708161374c565b92915050565b5f6020828403121561378b5761378a612a69565b5b5f61379884828501613762565b91505092915050565b7f4e487b71000000000000000000000000000000000000000000000000000000005f52604160045260245ffd5b6137d781612fcf565b82525050565b5f6040820190506137f05f8301856137ce565b6137fd602083018461346d565b9392505050565b7f4e487b71000000000000000000000000000000000000000000000000000000005f52602260045260245ffd5b5f600282049050600182168061384857607f821691505b60208210810361385b5761385a613804565b5b50919050565b61386a82612b88565b810181811067ffffffffffffffff82111715613889576138886137a1565b5b80604052505050565b5f61389b612a60565b90506138a78282613861565b919050565b5f67ffffffffffffffff8211156138c6576138c56137a1565b5b602082029050602081019050919050565b5f5ffd5b5f5ffd5b5f5ffd5b5f67ffffffffffffffff8211156138fd576138fc6137a1565b5b61390682612b88565b9050602081019050919050565b828183375f83830152505050565b5f61393361392e846138e3565b613892565b90508281526020810184848401111561394f5761394e6138df565b5b61395a848285613913565b509392505050565b5f82601f83011261397657613975612dae565b5b8135613986848260208601613921565b91505092915050565b5f606082840312156139a4576139a36138d7565b5b6139ae6060613892565b90505f6139bd84828501612ff4565b5f8301525060206139d084828501613131565b602083015250604082013567ffffffffffffffff8111156139f4576139f36138db565b5b613a0084828501613962565b60408301525092915050565b5f613a1e613a19846138ac565b613892565b90508083825260208201905060208402830185811115613a4157613a40612db6565b5b835b81811015613a8857803567ffffffffffffffff811115613a6657613a65612dae565b5b808601613a73898261398f565b85526020850194505050602081019050613a43565b5050509392505050565b5f613a9e368484613a0c565b905092915050565b5f5ffd5b5f5ffd5b5f5f85851115613ac157613ac0613aa6565b5b83861115613ad257613ad1613aaa565b5b6001850283019150848603905094509492505050565b5f81905092915050565b5f613afc82613183565b613b068185613ae8565b9350613b16818560208601612b7a565b80840191505092915050565b5f613b2d8385613ae8565b9350613b3a838584613913565b82840190509392505050565b5f613b518286613af2565b9150613b5e828486613b22565b9150819050949350505050565b5f613b76838561318d565b9350613b83838584613913565b613b8c83612b88565b840190509392505050565b5f6020820190508181035f830152613bb0818486613b6b565b90509392505050565b7f4e487b71000000000000000000000000000000000000000000000000000000005f52603260045260245ffd5b5f5ffd5b5f5ffd5b5f5ffd5b5f8235600161014003833603038112613c0e57613c0d613be6565b5b80830191505092915050565b5f5f83356001602003843603038112613c3657613c35613be6565b5b80840192508235915067ffffffffffffffff821115613c5857613c57613bea565b5b602083019250600182023603831315613c7457613c73613bee565b5b509250929050565b5f613c8a6020840184612ff4565b905092915050565b613c9b81612fcf565b82525050565b5f613caf6020840184612d9a565b905092915050565b613cc081612f5f565b8114613cca575f5ffd5b50565b5f81359050613cdb81613cb7565b92915050565b5f613cef6020840184613ccd565b905092915050565b60608201613d075f830183613c7c565b613d135f850182613c92565b50613d216020830183613ca1565b613d2e6020850182613630565b50613d3c6040830183613ce1565b613d49604085018261363f565b50505050565b5f60e082019050613d625f83018a613cf7565b613d6f606083018961346d565b8181036080830152613d82818789613b6b565b9050613d9160a0830186612d35565b81810360c0830152613da4818486613b6b565b905098975050505050505050565b5f613dc4613dbf846138e3565b613892565b905082815260208101848484011115613de057613ddf6138df565b5b613deb848285612b7a565b509392505050565b5f82601f830112613e0757613e06612dae565b5b8151613e17848260208601613db2565b91505092915050565b5f60208284031215613e3557613e34612a69565b5b5f82015167ffffffffffffffff811115613e5257613e51612a6d565b5b613e5e84828501613df3565b91505092915050565b5f604082019050613e7a5f83018561337a565b613e87602083018461337a565b9392505050565b5f602082019050613ea15f8301846137ce565b92915050565b5f60208284031215613ebc57613ebb612a69565b5b5f613ec984828501613ccd565b91505092915050565b5f819050919050565b5f613ef5613ef0613eeb84613ed2565b61321d565b612ef0565b9050919050565b613f0581613edb565b82525050565b5f608082019050613f1e5f830187612d35565b613f2b602083018661346d565b613f386040830185613efc565b8181036060830152613f4a818461319d565b905095945050505050565b5f604082019050613f685f8301856137ce565b613f75602083018461337a565b9392505050565b5f6040820190508181035f830152613f94818561319d565b90508181036020830152613fa8818461319d565b90509392505050565b5f81519050613fbf81613051565b92915050565b5f60208284031215613fda57613fd9612a69565b5b5f613fe784828501613fb1565b91505092915050565b5f82825260208201905092915050565b5f61400a82613183565b6140148185613ff0565b9350614024818560208601612b7a565b61402d81612b88565b840191505092915050565b61404181613046565b82525050565b5f60a083015f83015161405c5f860182613c92565b50602083015161406f6020860182613630565b50604083015184820360408601526140878282614000565b915050606083015184820360608601526140a18282614000565b91505060808301516140b66080860182614038565b508091505092915050565b5f6040820190508181035f8301526140d98185614047565b90506140e86020830184612d35565b9392505050565b5f60408284031215614104576141036138d7565b5b61410e6040613892565b90505f61411d84828501613762565b5f83015250602061413084828501613762565b60208301525092915050565b5f6040828403121561415157614150612a69565b5b5f61415e848285016140ef565b91505092915050565b5f819050815f5260205f209050919050565b5f6020601f8301049050919050565b5f82821b905092915050565b5f600883026141c37fffffffffffffffffffffffffffffffffffffffffffffffffffffffffffffffff82614188565b6141cd8683614188565b95508019841693508086168417925050509392505050565b5f6141ff6141fa6141f584612ada565b61321d565b612ada565b9050919050565b5f819050919050565b614218836141e5565b61422c61422482614206565b848454614194565b825550505050565b5f5f905090565b614243614234565b61424e81848461420f565b505050565b5b81811015614271576142665f8261423b565b600181019050614254565b5050565b601f8211156142b65761428781614167565b61429084614179565b8101602085101561429f578190505b6142b36142ab85614179565b830182614253565b50505b505050565b5f82821c905092915050565b5f6142d65f19846008026142bb565b1980831691505092915050565b5f6142ee83836142c7565b9150826002028217905092915050565b61430782613183565b67ffffffffffffffff8111156143205761431f6137a1565b5b61432a8254613831565b614335828285614275565b5f60209050601f831160018114614366575f8415614354578287015190505b61435e85826142e3565b8655506143c5565b601f19841661437486614167565b5f5b8281101561439b57848901518255600182019150602085019450602081019050614376565b868310156143b857848901516143b4601f8916826142c7565b8355505b6001600288020188555050505b505050505050565b5f81519050919050565b5f82825260208201905092915050565b5f819050602082019050919050565b6143ff81612ef0565b82525050565b5f606083015f83015161441a5f860182613c92565b50602083015161442d60208601826143f6565b50604083015184820360408601526144458282614000565b9150508091505092915050565b5f61445d8383614405565b905092915050565b5f602082019050919050565b5f61447b826143cd565b61448581856143d7565b935083602082028501614497856143e7565b805f5b858110156144d257848403895281516144b38582614452565b94506144be83614465565b925060208a0199505060018101905061449a565b50829750879550505050505092915050565b5f6020820190508181035f8301526144fc8184614471565b905092915050565b5f813590506145128161374c565b92915050565b5f6040828403121561452d5761452c6138d7565b5b6145376040613892565b90505f61454684828501614504565b5f83015250602061455984828501614504565b60208301525092915050565b5f6040828403121561457a57614579612a69565b5b5f61458784828501614518565b91505092915050565b5f6060820190506145a35f8301866137ce565b6145b0602083018561337a565b6145bd604083018461337a565b949350505050565b7f4e487b71000000000000000000000000000000000000000000000000000000005f52601260045260245ffd5b7f4e487b71000000000000000000000000000000000000000000000000000000005f52601160045260245ffd5b5f61462982612ada565b915061463483612ada565b925082614644576146436145c5565b5b828204905092915050565b5f61465982612ada565b915061466483612ada565b925082820261467281612ada565b91508282048414831517614689576146886145f2565b5b5092915050565b5f82905092915050565b5f6146a58383614690565b826146b08135612d7b565b925060208210156146f0576146eb7fffffffffffffffffffffffffffffffffffffffffffffffffffffffffffffffff83602003600802614188565b831692505b505092915050565b5f7fffffffffffffffff00000000000000000000000000000000000000000000000082169050919050565b5f61472e8383614690565b8261473981356146f8565b92506008821015614779576147747fffffffffffffffff00000000000000000000000000000000000000000000000083600803600802614188565b831692505b505092915050565b5f6040820190506147945f830185612d35565b6147a1602083018461337a565b9392505050565b5f8160c01b9050919050565b5f6147be826147a8565b9050919050565b6147d66147d182612f5f565b6147b4565b82525050565b5f8160e01b9050919050565b5f6147f2826147dc565b9050919050565b61480a61480582612fcf565b6147e8565b82525050565b5f819050919050565b61482a61482582612ada565b614810565b82525050565b5f61483b82876147c5565b60088201915061484b82866147f9565b60048201915061485b8285614819565b60208201915061486b8284613af2565b915081905095945050505050565b5f819050919050565b61489361488e82612d7b565b614879565b82525050565b5f6148a48285614882565b6020820191506148b482846147c5565b6008820191508190509392505050565b5f6148cf8287614882565b6020820191506148df82866147c5565b6008820191506148ef8285614882565b6020820191506148ff8284613af2565b915081905095945050505050565b5f8151905061491b81612d84565b92915050565b5f8151905061492f81613cb7565b92915050565b5f6080828403121561494a576149496138d7565b5b6149546060613892565b90505f6149638482850161490d565b5f83015250602061497684828501614921565b602083015250604061498a848285016140ef565b60408301525092915050565b5f608082840312156149ab576149aa612a69565b5b5f6149b884828501614935565b91505092915050565b5f6060820190506149d45f830186612d35565b6149e16020830185612d35565b6149ee604083018461337a565b94935050505056fea26469706673582212207c4245ccaf65cfd072b76a6995c750811de2f0759070a873b0cae6e190979d1164736f6c634300081c0033","linkReferences":{}},"methodIdentifiers":{"SEND()":"1f5e1334","SEND_AND_CALL()":"134d4f25","allowInitializePath((uint32,bytes32,uint64))":"ff7bd03d","approvalRequired()":"9f68b964","combineOptions(uint32,uint16,bytes)":"bc70b354","decimalConversionRate()":"963efcaa","elevatedMinterBurner()":"8108bb7e","endpoint()":"5e280f11","enforcedOptions(uint32,uint16)":"5535d461","isComposeMsgSender((uint32,bytes32,uint64),bytes,address)":"82413eac","isPeer(uint32,bytes32)":"5a0dfe4d","lzReceive((uint32,bytes32,uint64),bytes32,bytes,address,bytes)":"13137d65","lzReceiveAndRevert(((uint32,bytes32,uint64),uint32,address,bytes32,uint256,address,bytes,bytes)[])":"bd815db0","lzReceiveSimulate((uint32,bytes32,uint64),bytes32,bytes,address,bytes)":"d045a0dc","msgInspector()":"111ecdad","nextNonce(uint32,bytes32)":"7d25a05e","oApp()":"52ae2879","oAppVersion()":"17442b70","oftVersion()":"156a0d0f","owner()":"8da5cb5b","peers(uint32)":"bb0b6a53","preCrime()":"b731ea0a","quoteOFT((uint32,bytes32,uint256,uint256,bytes,bytes,bytes))":"0d35b415","quoteSend((uint32,bytes32,uint256,uint256,bytes,bytes,bytes),bool)":"3b6f743b","renounceOwnership()":"715018a6","send((uint32,bytes32,uint256,uint256,bytes,bytes,bytes),(uint256,uint256),address)":"c7c7f5b3","setDelegate(address)":"ca5eb5e1","setEnforcedOptions((uint32,uint16,bytes)[])":"b98bd070","setMsgInspector(address)":"6fc1b31e","setPeer(uint32,bytes32)":"3400288b","setPreCrime(address)":"d4243885","sharedDecimals()":"857749b0","token()":"fc0c546a","tokenOFT()":"0dec983d","transferOwnership(address)":"f2fde38b"},"id":39}