{"abi":[{"type":"constructor","inputs":[],"stateMutability":"nonpayable"},{"type":"function","name":"DEFAULT_ADMIN_ROLE","inputs":[],"outputs":[{"name":"","type":"bytes32","internalType":"bytes32"}],"stateMutability":"view"},{"type":"function","name":"OWNER_ROLE","inputs":[],"outputs":[{"name":"","type":"bytes32","internalType":"bytes32"}],"stateMutability":"view"},{"type":"function","name":"UPGRADER_ROLE","inputs":[],"outputs":[{"name":"","type":"bytes32","internalType":"bytes32"}],"stateMutability":"view"},{"type":"function","name":"UPGRADE_INTERFACE_VERSION","inputs":[],"outputs":[{"name":"","type":"string","internalType":"string"}],"stateMutability":"view"},{"type":"function","name":"calculateBorrowRate","inputs":[{"name":"_lendingPool","type":"address","internalType":"address"}],"outputs":[{"name":"borrowRate","type":"uint256","internalType":"uint256"}],"stateMutability":"view"},{"type":"function","name":"calculateInterest","inputs":[{"name":"_lendingPool","type":"address","internalType":"address"},{"name":"_elapsedTime","type":"uint256","internalType":"uint256"}],"outputs":[{"name":"interest","type":"uint256","internalType":"uint256"}],"stateMutability":"view"},{"type":"function","name":"getRoleAdmin","inputs":[{"name":"role","type":"bytes32","internalType":"bytes32"}],"outputs":[{"name":"","type":"bytes32","internalType":"bytes32"}],"stateMutability":"view"},{"type":"function","name":"grantRole","inputs":[{"name":"role","type":"bytes32","internalType":"bytes32"},{"name":"account","type":"address","internalType":"address"}],"outputs":[],"stateMutability":"nonpayable"},{"type":"function","name":"hasRole","inputs":[{"name":"role","type":"bytes32","internalType":"bytes32"},{"name":"account","type":"address","internalType":"address"}],"outputs":[{"name":"","type":"bool","internalType":"bool"}],"stateMutability":"view"},{"type":"function","name":"initialize","inputs":[],"outputs":[],"stateMutability":"nonpayable"},{"type":"function","name":"lendingPoolBaseRate","inputs":[{"name":"","type":"address","internalType":"address"}],"outputs":[{"name":"","type":"uint256","internalType":"uint256"}],"stateMutability":"view"},{"type":"function","name":"lendingPoolMaxUtilization","inputs":[{"name":"","type":"address","internalType":"address"}],"outputs":[{"name":"","type":"uint256","internalType":"uint256"}],"stateMutability":"view"},{"type":"function","name":"lendingPoolOptimalUtilization","inputs":[{"name":"","type":"address","internalType":"address"}],"outputs":[{"name":"","type":"uint256","internalType":"uint256"}],"stateMutability":"view"},{"type":"function","name":"lendingPoolRateAtOptimal","inputs":[{"name":"","type":"address","internalType":"address"}],"outputs":[{"name":"","type":"uint256","internalType":"uint256"}],"stateMutability":"view"},{"type":"function","name":"proxiableUUID","inputs":[],"outputs":[{"name":"","type":"bytes32","internalType":"bytes32"}],"stateMutability":"view"},{"type":"function","name":"renounceRole","inputs":[{"name":"role","type":"bytes32","internalType":"bytes32"},{"name":"callerConfirmation","type":"address","internalType":"address"}],"outputs":[],"stateMutability":"nonpayable"},{"type":"function","name":"revokeRole","inputs":[{"name":"role","type":"bytes32","internalType":"bytes32"},{"name":"account","type":"address","internalType":"address"}],"outputs":[],"stateMutability":"nonpayable"},{"type":"function","name":"scaledPercentage","inputs":[],"outputs":[{"name":"","type":"uint256","internalType":"uint256"}],"stateMutability":"view"},{"type":"function","name":"setLendingPoolBaseRate","inputs":[{"name":"_lendingPool","type":"address","internalType":"address"},{"name":"_rate","type":"uint256","internalType":"uint256"}],"outputs":[],"stateMutability":"nonpayable"},{"type":"function","name":"setLendingPoolMaxUtilization","inputs":[{"name":"_lendingPool","type":"address","internalType":"address"},{"name":"_utilization","type":"uint256","internalType":"uint256"}],"outputs":[],"stateMutability":"nonpayable"},{"type":"function","name":"setLendingPoolOptimalUtilization","inputs":[{"name":"_lendingPool","type":"address","internalType":"address"},{"name":"_utilization","type":"uint256","internalType":"uint256"}],"outputs":[],"stateMutability":"nonpayable"},{"type":"function","name":"setLendingPoolRateAtOptimal","inputs":[{"name":"_lendingPool","type":"address","internalType":"address"},{"name":"_rate","type":"uint256","internalType":"uint256"}],"outputs":[],"stateMutability":"nonpayable"},{"type":"function","name":"setScaledPercentage","inputs":[{"name":"_percentage","type":"uint256","internalType":"uint256"}],"outputs":[],"stateMutability":"nonpayable"},{"type":"function","name":"supportsInterface","inputs":[{"name":"interfaceId","type":"bytes4","internalType":"bytes4"}],"outputs":[{"name":"","type":"bool","internalType":"bool"}],"stateMutability":"view"},{"type":"function","name":"upgradeToAndCall","inputs":[{"name":"newImplementation","type":"address","internalType":"address"},{"name":"data","type":"bytes","internalType":"bytes"}],"outputs":[],"stateMutability":"payable"},{"type":"event","name":"Initialized","inputs":[{"name":"version","type":"uint64","indexed":false,"internalType":"uint64"}],"anonymous":false},{"type":"event","name":"LendingPoolBaseRateSet","inputs":[{"name":"lendingPool","type":"address","indexed":true,"internalType":"address"},{"name":"rate","type":"uint256","indexed":false,"internalType":"uint256"}],"anonymous":false},{"type":"event","name":"LendingPoolMaxUtilizationSet","inputs":[{"name":"lendingPool","type":"address","indexed":true,"internalType":"address"},{"name":"utilization","type":"uint256","indexed":false,"internalType":"uint256"}],"anonymous":false},{"type":"event","name":"LendingPoolOptimalUtilizationSet","inputs":[{"name":"lendingPool","type":"address","indexed":true,"internalType":"address"},{"name":"utilization","type":"uint256","indexed":false,"internalType":"uint256"}],"anonymous":false},{"type":"event","name":"LendingPoolRateAtOptimalSet","inputs":[{"name":"lendingPool","type":"address","indexed":true,"internalType":"address"},{"name":"rate","type":"uint256","indexed":false,"internalType":"uint256"}],"anonymous":false},{"type":"event","name":"RoleAdminChanged","inputs":[{"name":"role","type":"bytes32","indexed":true,"internalType":"bytes32"},{"name":"previousAdminRole","type":"bytes32","indexed":true,"internalType":"bytes32"},{"name":"newAdminRole","type":"bytes32","indexed":true,"internalType":"bytes32"}],"anonymous":false},{"type":"event","name":"RoleGranted","inputs":[{"name":"role","type":"bytes32","indexed":true,"internalType":"bytes32"},{"name":"account","type":"address","indexed":true,"internalType":"address"},{"name":"sender","type":"address","indexed":true,"internalType":"address"}],"anonymous":false},{"type":"event","name":"RoleRevoked","inputs":[{"name":"role","type":"bytes32","indexed":true,"internalType":"bytes32"},{"name":"account","type":"address","indexed":true,"internalType":"address"},{"name":"sender","type":"address","indexed":true,"internalType":"address"}],"anonymous":false},{"type":"event","name":"ScaledPercentageSet","inputs":[{"name":"percentage","type":"uint256","indexed":false,"internalType":"uint256"}],"anonymous":false},{"type":"event","name":"Upgraded","inputs":[{"name":"implementation","type":"address","indexed":true,"internalType":"address"}],"anonymous":false},{"type":"error","name":"AccessControlBadConfirmation","inputs":[]},{"type":"error","name":"AccessControlUnauthorizedAccount","inputs":[{"name":"account","type":"address","internalType":"address"},{"name":"neededRole","type":"bytes32","internalType":"bytes32"}]},{"type":"error","name":"AddressEmptyCode","inputs":[{"name":"target","type":"address","internalType":"address"}]},{"type":"error","name":"ERC1967InvalidImplementation","inputs":[{"name":"implementation","type":"address","internalType":"address"}]},{"type":"error","name":"ERC1967NonPayable","inputs":[]},{"type":"error","name":"FailedCall","inputs":[]},{"type":"error","name":"InvalidInitialization","inputs":[]},{"type":"error","name":"MaxUtilizationReached","inputs":[{"name":"_token","type":"address","internalType":"address"},{"name":"_utilization","type":"uint256","internalType":"uint256"},{"name":"_maxUtilization","type":"uint256","internalType":"uint256"}]},{"type":"error","name":"NotInitializing","inputs":[]},{"type":"error","name":"UUPSUnauthorizedCallContext","inputs":[]},{"type":"error","name":"UUPSUnsupportedProxiableUUID","inputs":[{"name":"slot","type":"bytes32","internalType":"bytes32"}]}],"bytecode":{"object":"0x60a06040523073ffffffffffffffffffffffffffffffffffffffff1660809073ffffffffffffffffffffffffffffffffffffffff16815250348015610042575f5ffd5b5061005161005660201b60201c565b6101d1565b5f61006561015460201b60201c565b9050805f0160089054906101000a900460ff16156100af576040517ff92ee8a900000000000000000000000000000000000000000000000000000000815260040160405180910390fd5b67ffffffffffffffff8016815f015f9054906101000a900467ffffffffffffffff1667ffffffffffffffff16146101515767ffffffffffffffff815f015f6101000a81548167ffffffffffffffff021916908367ffffffffffffffff1602179055507fc7f505b2f371ae2175ee4913f4499e1f2633a7b5936321eed1cdaeb6115181d267ffffffffffffffff60405161014891906101b8565b60405180910390a15b50565b5f5f61016461016d60201b60201c565b90508091505090565b5f7ff0c57e16840df040f15088dc2f81fe391c3923bec73e23a9662efc9c229c6a005f1b905090565b5f67ffffffffffffffff82169050919050565b6101b281610196565b82525050565b5f6020820190506101cb5f8301846101a9565b92915050565b6080516124906101f75f395f818161140101528181611456015261163301526124905ff3fe608060405260043610610165575f3560e01c806394ab9eeb116100d0578063ad3cb1cc11610089578063d547741f11610063578063d547741f1461053b578063d7dc620314610563578063e58378bb1461059f578063f72c0d8b146105c957610165565b8063ad3cb1cc146104ad578063c4047477146104d7578063c95b2a80146104ff57610165565b806394ab9eeb146103935780639d7da740146103cf578063a217fddf146103f7578063a22a5fcf14610421578063a27cb77014610449578063a96d40751461047157610165565b806352d1902d1161012257806352d1902d146102775780636ba62f7a146102a157806372a40a06146102c957806377460ddb146103055780638129fc1c1461034157806391d148541461035757610165565b806301ffc9a7146101695780631cd5ae30146101a5578063248a9ca3146101cf5780632f2ff15d1461020b57806336568abe146102335780634f1ef2861461025b575b5f5ffd5b348015610174575f5ffd5b5061018f600480360381019061018a9190611c9f565b6105f3565b60405161019c9190611ce4565b60405180910390f35b3480156101b0575f5ffd5b506101b961066c565b6040516101c69190611d15565b60405180910390f35b3480156101da575f5ffd5b506101f560048036038101906101f09190611d61565b610672565b6040516102029190611d9b565b60405180910390f35b348015610216575f5ffd5b50610231600480360381019061022c9190611e0e565b61069c565b005b34801561023e575f5ffd5b5061025960048036038101906102549190611e0e565b6106be565b005b61027560048036038101906102709190611f88565b610739565b005b348015610282575f5ffd5b5061028b610758565b6040516102989190611d9b565b60405180910390f35b3480156102ac575f5ffd5b506102c760048036038101906102c2919061200c565b610789565b005b3480156102d4575f5ffd5b506102ef60048036038101906102ea919061204a565b610847565b6040516102fc9190611d15565b60405180910390f35b348015610310575f5ffd5b5061032b6004803603810190610326919061204a565b61085c565b6040516103389190611d15565b60405180910390f35b34801561034c575f5ffd5b50610355610871565b005b348015610362575f5ffd5b5061037d60048036038101906103789190611e0e565b610a6a565b60405161038a9190611ce4565b60405180910390f35b34801561039e575f5ffd5b506103b960048036038101906103b4919061204a565b610adb565b6040516103c69190611d15565b60405180910390f35b3480156103da575f5ffd5b506103f560048036038101906103f0919061200c565b610d93565b005b348015610402575f5ffd5b5061040b610e52565b6040516104189190611d9b565b60405180910390f35b34801561042c575f5ffd5b5061044760048036038101906104429190612075565b610e58565b005b348015610454575f5ffd5b5061046f600480360381019061046a919061200c565b610ec4565b005b34801561047c575f5ffd5b506104976004803603810190610492919061204a565b610f83565b6040516104a49190611d15565b60405180910390f35b3480156104b8575f5ffd5b506104c1610f98565b6040516104ce9190612100565b60405180910390f35b3480156104e2575f5ffd5b506104fd60048036038101906104f8919061200c565b610fd1565b005b34801561050a575f5ffd5b506105256004803603810190610520919061204a565b611090565b6040516105329190611d15565b60405180910390f35b348015610546575f5ffd5b50610561600480360381019061055c9190611e0e565b6110a4565b005b34801561056e575f5ffd5b506105896004803603810190610584919061200c565b6110c6565b6040516105969190611d15565b60405180910390f35b3480156105aa575f5ffd5b506105b361111c565b6040516105c09190611d9b565b60405180910390f35b3480156105d4575f5ffd5b506105dd611140565b6040516105ea9190611d9b565b60405180910390f35b5f7f7965db0b000000000000000000000000000000000000000000000000000000007bffffffffffffffffffffffffffffffffffffffffffffffffffffffff1916827bffffffffffffffffffffffffffffffffffffffffffffffffffffffff19161480610665575061066482611164565b5b9050919050565b60045481565b5f5f61067c6111cd565b9050805f015f8481526020019081526020015f2060010154915050919050565b6106a582610672565b6106ae816111f4565b6106b88383611208565b50505050565b6106c6611300565b73ffffffffffffffffffffffffffffffffffffffff168173ffffffffffffffffffffffffffffffffffffffff161461072a576040517f6697b23200000000000000000000000000000000000000000000000000000000815260040160405180910390fd5b6107348282611307565b505050565b6107416113ff565b61074a826114e5565b6107548282611513565b5050565b5f610761611631565b7f360894a13ba1a3210667c828492db98dca3e2076cc3735a920a3ca505d382bbc5f1b905090565b7fb19546dff01e856fb3f010c267a7b1c60363cf8a4664e21cc89c26224620214e6107b3816111f4565b815f5f8573ffffffffffffffffffffffffffffffffffffffff1673ffffffffffffffffffffffffffffffffffffffff1681526020019081526020015f20819055508273ffffffffffffffffffffffffffffffffffffffff167f43a61934b5df42ff0bb0702e2eccb41d58baa04b2369b1bd3a74c9c167f326b38360405161083a9190611d15565b60405180910390a2505050565b6001602052805f5260405f205f915090505481565b6003602052805f5260405f205f915090505481565b5f61087a6116b8565b90505f815f0160089054906101000a900460ff161590505f825f015f9054906101000a900467ffffffffffffffff1690505f5f8267ffffffffffffffff161480156108c25750825b90505f60018367ffffffffffffffff161480156108f557505f3073ffffffffffffffffffffffffffffffffffffffff163b145b905081158015610903575080155b1561093a576040517ff92ee8a900000000000000000000000000000000000000000000000000000000815260040160405180910390fd5b6001855f015f6101000a81548167ffffffffffffffff021916908367ffffffffffffffff1602179055508315610987576001855f0160086101000a81548160ff0219169083151502179055505b61098f6116cb565b6109976116d5565b6109a35f5f1b33611208565b506109ce7fb19546dff01e856fb3f010c267a7b1c60363cf8a4664e21cc89c26224620214e33611208565b506109f97f189ab7a9244df0848122154315af71fe140f3db0fe014031783b0946b8c9d2e333611208565b50670de0b6b3a76400006004819055508315610a63575f855f0160086101000a81548160ff0219169083151502179055507fc7f505b2f371ae2175ee4913f4499e1f2633a7b5936321eed1cdaeb6115181d26001604051610a5a9190612175565b60405180910390a15b5050505050565b5f5f610a746111cd565b9050805f015f8581526020019081526020015f205f015f8473ffffffffffffffffffffffffffffffffffffffff1673ffffffffffffffffffffffffffffffffffffffff1681526020019081526020015f205f9054906101000a900460ff1691505092915050565b5f5f610ae6836116df565b1480610af957505f610af783611754565b145b15610b42575f5f8373ffffffffffffffffffffffffffffffffffffffff1673ffffffffffffffffffffffffffffffffffffffff1681526020019081526020015f20549050610d8e565b5f610b4c836116df565b600454610b5885611754565b610b6291906121bb565b610b6c9190612229565b90505f5f5f8573ffffffffffffffffffffffffffffffffffffffff1673ffffffffffffffffffffffffffffffffffffffff1681526020019081526020015f205490505f60025f8673ffffffffffffffffffffffffffffffffffffffff1673ffffffffffffffffffffffffffffffffffffffff1681526020019081526020015f205490505f60015f8773ffffffffffffffffffffffffffffffffffffffff1673ffffffffffffffffffffffffffffffffffffffff1681526020019081526020015f2054905060035f8773ffffffffffffffffffffffffffffffffffffffff1673ffffffffffffffffffffffffffffffffffffffff1681526020019081526020015f20548410610cfa57610c7d866117c9565b8460035f8973ffffffffffffffffffffffffffffffffffffffff1673ffffffffffffffffffffffffffffffffffffffff1681526020019081526020015f20546040517fb0789174000000000000000000000000000000000000000000000000000000008152600401610cf193929190612268565b60405180910390fd5b818411610d3557818382610d0e919061229d565b85610d1991906121bb565b610d239190612229565b83610d2e91906122d0565b9450610d89565b5f8285610d42919061229d565b90505f83600454610d53919061229d565b90508083600454610d64919061229d565b83610d6f91906121bb565b610d799190612229565b83610d8491906122d0565b965050505b505050505b919050565b7fb19546dff01e856fb3f010c267a7b1c60363cf8a4664e21cc89c26224620214e610dbd816111f4565b8160035f8573ffffffffffffffffffffffffffffffffffffffff1673ffffffffffffffffffffffffffffffffffffffff1681526020019081526020015f20819055508273ffffffffffffffffffffffffffffffffffffffff167fac541568ea722ed3ddfe9ec2a75b913dafce54004a8a0e1e6fc745602e6421d283604051610e459190611d15565b60405180910390a2505050565b5f5f1b81565b7fb19546dff01e856fb3f010c267a7b1c60363cf8a4664e21cc89c26224620214e610e82816111f4565b816004819055507ff9598f8ae26e4d04fc2773146b39aeb2d0c01c0fcf8f9c1fc726b0d076d7802582604051610eb89190611d15565b60405180910390a15050565b7fb19546dff01e856fb3f010c267a7b1c60363cf8a4664e21cc89c26224620214e610eee816111f4565b8160025f8573ffffffffffffffffffffffffffffffffffffffff1673ffffffffffffffffffffffffffffffffffffffff1681526020019081526020015f20819055508273ffffffffffffffffffffffffffffffffffffffff167faa9741cd23ee6cc9fdd245f861b725d86cf52b396e54c39d2f209fc3c154cf6e83604051610f769190611d15565b60405180910390a2505050565b6002602052805f5260405f205f915090505481565b6040518060400160405280600581526020017f352e302e3000000000000000000000000000000000000000000000000000000081525081565b7fb19546dff01e856fb3f010c267a7b1c60363cf8a4664e21cc89c26224620214e610ffb816111f4565b8160015f8573ffffffffffffffffffffffffffffffffffffffff1673ffffffffffffffffffffffffffffffffffffffff1681526020019081526020015f20819055508273ffffffffffffffffffffffffffffffffffffffff167ff973faa835686ae4a1ae0d9a35294e09facca3d04fbfd699cc05e8bf63e40c43836040516110839190611d15565b60405180910390a2505050565b5f602052805f5260405f205f915090505481565b6110ad82610672565b6110b6816111f4565b6110c08383611307565b50505050565b5f5f6110d184610adb565b90505f600454826110e187611754565b6110eb91906121bb565b6110f59190612229565b90506301e13380848261110891906121bb565b6111129190612229565b9250505092915050565b7fb19546dff01e856fb3f010c267a7b1c60363cf8a4664e21cc89c26224620214e81565b7f189ab7a9244df0848122154315af71fe140f3db0fe014031783b0946b8c9d2e381565b5f7f01ffc9a7000000000000000000000000000000000000000000000000000000007bffffffffffffffffffffffffffffffffffffffffffffffffffffffff1916827bffffffffffffffffffffffffffffffffffffffffffffffffffffffff1916149050919050565b5f7f02dd7bc7dec4dceedda775e58dd541e08a116c6c53815c0bd028192f7b626800905090565b61120581611200611300565b61183e565b50565b5f5f6112126111cd565b905061121e8484610a6a565b6112f5576001815f015f8681526020019081526020015f205f015f8573ffffffffffffffffffffffffffffffffffffffff1673ffffffffffffffffffffffffffffffffffffffff1681526020019081526020015f205f6101000a81548160ff021916908315150217905550611291611300565b73ffffffffffffffffffffffffffffffffffffffff168373ffffffffffffffffffffffffffffffffffffffff16857f2f8788117e7eff1d82e926ec794901d17c78024a50270940304540a733656f0d60405160405180910390a460019150506112fa565b5f9150505b92915050565b5f33905090565b5f5f6113116111cd565b905061131d8484610a6a565b156113f4575f815f015f8681526020019081526020015f205f015f8573ffffffffffffffffffffffffffffffffffffffff1673ffffffffffffffffffffffffffffffffffffffff1681526020019081526020015f205f6101000a81548160ff021916908315150217905550611390611300565b73ffffffffffffffffffffffffffffffffffffffff168373ffffffffffffffffffffffffffffffffffffffff16857ff6391f5c32d9c69d2a47ea670b442974b53935d1edc7fd64eb21e047a839171b60405160405180910390a460019150506113f9565b5f9150505b92915050565b7f000000000000000000000000000000000000000000000000000000000000000073ffffffffffffffffffffffffffffffffffffffff163073ffffffffffffffffffffffffffffffffffffffff1614806114ac57507f000000000000000000000000000000000000000000000000000000000000000073ffffffffffffffffffffffffffffffffffffffff1661149361188f565b73ffffffffffffffffffffffffffffffffffffffff1614155b156114e3576040517fe07c8dba00000000000000000000000000000000000000000000000000000000815260040160405180910390fd5b565b7f189ab7a9244df0848122154315af71fe140f3db0fe014031783b0946b8c9d2e361150f816111f4565b5050565b8173ffffffffffffffffffffffffffffffffffffffff166352d1902d6040518163ffffffff1660e01b8152600401602060405180830381865afa92505050801561157b57506040513d601f19601f820116820180604052508101906115789190612317565b60015b6115bc57816040517f4c9c8ce30000000000000000000000000000000000000000000000000000000081526004016115b39190612342565b60405180910390fd5b7f360894a13ba1a3210667c828492db98dca3e2076cc3735a920a3ca505d382bbc5f1b811461162257806040517faa1d49a40000000000000000000000000000000000000000000000000000000081526004016116199190611d9b565b60405180910390fd5b61162c83836118e2565b505050565b7f000000000000000000000000000000000000000000000000000000000000000073ffffffffffffffffffffffffffffffffffffffff163073ffffffffffffffffffffffffffffffffffffffff16146116b6576040517fe07c8dba00000000000000000000000000000000000000000000000000000000815260040160405180910390fd5b565b5f5f6116c2611954565b90508091505090565b6116d361197d565b565b6116dd61197d565b565b5f8173ffffffffffffffffffffffffffffffffffffffff166394877fc46040518163ffffffff1660e01b8152600401602060405180830381865afa158015611729573d5f5f3e3d5ffd5b505050506040513d601f19601f8201168201806040525081019061174d919061236f565b9050919050565b5f8173ffffffffffffffffffffffffffffffffffffffff16631aad44c26040518163ffffffff1660e01b8152600401602060405180830381865afa15801561179e573d5f5f3e3d5ffd5b505050506040513d601f19601f820116820180604052508101906117c2919061236f565b9050919050565b5f8173ffffffffffffffffffffffffffffffffffffffff1663456dc17a6040518163ffffffff1660e01b8152600401602060405180830381865afa158015611813573d5f5f3e3d5ffd5b505050506040513d601f19601f8201168201806040525081019061183791906123ae565b9050919050565b6118488282610a6a565b61188b5780826040517fe2517d3f0000000000000000000000000000000000000000000000000000000081526004016118829291906123d9565b60405180910390fd5b5050565b5f6118bb7f360894a13ba1a3210667c828492db98dca3e2076cc3735a920a3ca505d382bbc5f1b6119bd565b5f015f9054906101000a900473ffffffffffffffffffffffffffffffffffffffff16905090565b6118eb826119c6565b8173ffffffffffffffffffffffffffffffffffffffff167fbc7cd75a20ee27fd9adebab32041f755214dbc6bffa90cc0225b39da2e5c2d3b60405160405180910390a25f81511115611947576119418282611a8f565b50611950565b61194f611b0f565b5b5050565b5f7ff0c57e16840df040f15088dc2f81fe391c3923bec73e23a9662efc9c229c6a005f1b905090565b611985611b4b565b6119bb576040517fd7e6bcf800000000000000000000000000000000000000000000000000000000815260040160405180910390fd5b565b5f819050919050565b5f8173ffffffffffffffffffffffffffffffffffffffff163b03611a2157806040517f4c9c8ce3000000000000000000000000000000000000000000000000000000008152600401611a189190612342565b60405180910390fd5b80611a4d7f360894a13ba1a3210667c828492db98dca3e2076cc3735a920a3ca505d382bbc5f1b6119bd565b5f015f6101000a81548173ffffffffffffffffffffffffffffffffffffffff021916908373ffffffffffffffffffffffffffffffffffffffff16021790555050565b60605f5f8473ffffffffffffffffffffffffffffffffffffffff1684604051611ab89190612444565b5f60405180830381855af49150503d805f8114611af0576040519150601f19603f3d011682016040523d82523d5f602084013e611af5565b606091505b5091509150611b05858383611b69565b9250505092915050565b5f341115611b49576040517fb398979f00000000000000000000000000000000000000000000000000000000815260040160405180910390fd5b565b5f611b546116b8565b5f0160089054906101000a900460ff16905090565b606082611b7e57611b7982611bf6565b611bee565b5f8251148015611ba457505f8473ffffffffffffffffffffffffffffffffffffffff163b145b15611be657836040517f9996b315000000000000000000000000000000000000000000000000000000008152600401611bdd9190612342565b60405180910390fd5b819050611bef565b5b9392505050565b5f81511115611c0757805160208201fd5b6040517fd6bda27500000000000000000000000000000000000000000000000000000000815260040160405180910390fd5b5f604051905090565b5f5ffd5b5f5ffd5b5f7fffffffff0000000000000000000000000000000000000000000000000000000082169050919050565b611c7e81611c4a565b8114611c88575f5ffd5b50565b5f81359050611c9981611c75565b92915050565b5f60208284031215611cb457611cb3611c42565b5b5f611cc184828501611c8b565b91505092915050565b5f8115159050919050565b611cde81611cca565b82525050565b5f602082019050611cf75f830184611cd5565b92915050565b5f819050919050565b611d0f81611cfd565b82525050565b5f602082019050611d285f830184611d06565b92915050565b5f819050919050565b611d4081611d2e565b8114611d4a575f5ffd5b50565b5f81359050611d5b81611d37565b92915050565b5f60208284031215611d7657611d75611c42565b5b5f611d8384828501611d4d565b91505092915050565b611d9581611d2e565b82525050565b5f602082019050611dae5f830184611d8c565b92915050565b5f73ffffffffffffffffffffffffffffffffffffffff82169050919050565b5f611ddd82611db4565b9050919050565b611ded81611dd3565b8114611df7575f5ffd5b50565b5f81359050611e0881611de4565b92915050565b5f5f60408385031215611e2457611e23611c42565b5b5f611e3185828601611d4d565b9250506020611e4285828601611dfa565b9150509250929050565b5f5ffd5b5f5ffd5b5f601f19601f8301169050919050565b7f4e487b71000000000000000000000000000000000000000000000000000000005f52604160045260245ffd5b611e9a82611e54565b810181811067ffffffffffffffff82111715611eb957611eb8611e64565b5b80604052505050565b5f611ecb611c39565b9050611ed78282611e91565b919050565b5f67ffffffffffffffff821115611ef657611ef5611e64565b5b611eff82611e54565b9050602081019050919050565b828183375f83830152505050565b5f611f2c611f2784611edc565b611ec2565b905082815260208101848484011115611f4857611f47611e50565b5b611f53848285611f0c565b509392505050565b5f82601f830112611f6f57611f6e611e4c565b5b8135611f7f848260208601611f1a565b91505092915050565b5f5f60408385031215611f9e57611f9d611c42565b5b5f611fab85828601611dfa565b925050602083013567ffffffffffffffff811115611fcc57611fcb611c46565b5b611fd885828601611f5b565b9150509250929050565b611feb81611cfd565b8114611ff5575f5ffd5b50565b5f8135905061200681611fe2565b92915050565b5f5f6040838503121561202257612021611c42565b5b5f61202f85828601611dfa565b925050602061204085828601611ff8565b9150509250929050565b5f6020828403121561205f5761205e611c42565b5b5f61206c84828501611dfa565b91505092915050565b5f6020828403121561208a57612089611c42565b5b5f61209784828501611ff8565b91505092915050565b5f81519050919050565b5f82825260208201905092915050565b8281835e5f83830152505050565b5f6120d2826120a0565b6120dc81856120aa565b93506120ec8185602086016120ba565b6120f581611e54565b840191505092915050565b5f6020820190508181035f83015261211881846120c8565b905092915050565b5f819050919050565b5f67ffffffffffffffff82169050919050565b5f819050919050565b5f61215f61215a61215584612120565b61213c565b612129565b9050919050565b61216f81612145565b82525050565b5f6020820190506121885f830184612166565b92915050565b7f4e487b71000000000000000000000000000000000000000000000000000000005f52601160045260245ffd5b5f6121c582611cfd565b91506121d083611cfd565b92508282026121de81611cfd565b915082820484148315176121f5576121f461218e565b5b5092915050565b7f4e487b71000000000000000000000000000000000000000000000000000000005f52601260045260245ffd5b5f61223382611cfd565b915061223e83611cfd565b92508261224e5761224d6121fc565b5b828204905092915050565b61226281611dd3565b82525050565b5f60608201905061227b5f830186612259565b6122886020830185611d06565b6122956040830184611d06565b949350505050565b5f6122a782611cfd565b91506122b283611cfd565b92508282039050818111156122ca576122c961218e565b5b92915050565b5f6122da82611cfd565b91506122e583611cfd565b92508282019050808211156122fd576122fc61218e565b5b92915050565b5f8151905061231181611d37565b92915050565b5f6020828403121561232c5761232b611c42565b5b5f61233984828501612303565b91505092915050565b5f6020820190506123555f830184612259565b92915050565b5f8151905061236981611fe2565b92915050565b5f6020828403121561238457612383611c42565b5b5f6123918482850161235b565b91505092915050565b5f815190506123a881611de4565b92915050565b5f602082840312156123c3576123c2611c42565b5b5f6123d08482850161239a565b91505092915050565b5f6040820190506123ec5f830185612259565b6123f96020830184611d8c565b9392505050565b5f81519050919050565b5f81905092915050565b5f61241e82612400565b612428818561240a565b93506124388185602086016120ba565b80840191505092915050565b5f61244f8284612414565b91508190509291505056fea2646970667358221220a904448edb31675d52d3d1afb9e2a008979fbaa899e2c1bbc6fdd4bdaedec76264736f6c634300081e0033","linkReferences":{}},"methodIdentifiers":{"DEFAULT_ADMIN_ROLE()":"a217fddf","OWNER_ROLE()":"e58378bb","UPGRADER_ROLE()":"f72c0d8b","UPGRADE_INTERFACE_VERSION()":"ad3cb1cc","calculateBorrowRate(address)":"94ab9eeb","calculateInterest(address,uint256)":"d7dc6203","getRoleAdmin(bytes32)":"248a9ca3","grantRole(bytes32,address)":"2f2ff15d","hasRole(bytes32,address)":"91d14854","initialize()":"8129fc1c","lendingPoolBaseRate(address)":"c95b2a80","lendingPoolMaxUtilization(address)":"77460ddb","lendingPoolOptimalUtilization(address)":"a96d4075","lendingPoolRateAtOptimal(address)":"72a40a06","proxiableUUID()":"52d1902d","renounceRole(bytes32,address)":"36568abe","revokeRole(bytes32,address)":"d547741f","scaledPercentage()":"1cd5ae30","setLendingPoolBaseRate(address,uint256)":"6ba62f7a","setLendingPoolMaxUtilization(address,uint256)":"9d7da740","setLendingPoolOptimalUtilization(address,uint256)":"a27cb770","setLendingPoolRateAtOptimal(address,uint256)":"c4047477","setScaledPercentage(uint256)":"a22a5fcf","supportsInterface(bytes4)":"01ffc9a7","upgradeToAndCall(address,bytes)":"4f1ef286"},"id":120}