{"abi":[{"type":"constructor","inputs":[],"stateMutability":"nonpayable"},{"type":"function","name":"DEFAULT_ADMIN_ROLE","inputs":[],"outputs":[{"name":"","type":"bytes32","internalType":"bytes32"}],"stateMutability":"view"},{"type":"function","name":"OWNER_ROLE","inputs":[],"outputs":[{"name":"","type":"bytes32","internalType":"bytes32"}],"stateMutability":"view"},{"type":"function","name":"UPGRADER_ROLE","inputs":[],"outputs":[{"name":"","type":"bytes32","internalType":"bytes32"}],"stateMutability":"view"},{"type":"function","name":"UPGRADE_INTERFACE_VERSION","inputs":[],"outputs":[{"name":"","type":"string","internalType":"string"}],"stateMutability":"view"},{"type":"function","name":"calculateBorrowRate","inputs":[{"name":"_lendingPool","type":"address","internalType":"address"}],"outputs":[{"name":"borrowRate","type":"uint256","internalType":"uint256"}],"stateMutability":"view"},{"type":"function","name":"calculateInterest","inputs":[{"name":"_lendingPool","type":"address","internalType":"address"},{"name":"_elapsedTime","type":"uint256","internalType":"uint256"}],"outputs":[{"name":"interest","type":"uint256","internalType":"uint256"},{"name":"supplyYield","type":"uint256","internalType":"uint256"},{"name":"reserveYield","type":"uint256","internalType":"uint256"}],"stateMutability":"view"},{"type":"function","name":"getRoleAdmin","inputs":[{"name":"role","type":"bytes32","internalType":"bytes32"}],"outputs":[{"name":"","type":"bytes32","internalType":"bytes32"}],"stateMutability":"view"},{"type":"function","name":"grantRole","inputs":[{"name":"role","type":"bytes32","internalType":"bytes32"},{"name":"account","type":"address","internalType":"address"}],"outputs":[],"stateMutability":"nonpayable"},{"type":"function","name":"hasRole","inputs":[{"name":"role","type":"bytes32","internalType":"bytes32"},{"name":"account","type":"address","internalType":"address"}],"outputs":[{"name":"","type":"bool","internalType":"bool"}],"stateMutability":"view"},{"type":"function","name":"initialize","inputs":[],"outputs":[],"stateMutability":"nonpayable"},{"type":"function","name":"lendingPoolBaseRate","inputs":[{"name":"","type":"address","internalType":"address"}],"outputs":[{"name":"","type":"uint256","internalType":"uint256"}],"stateMutability":"view"},{"type":"function","name":"lendingPoolMaxUtilization","inputs":[{"name":"","type":"address","internalType":"address"}],"outputs":[{"name":"","type":"uint256","internalType":"uint256"}],"stateMutability":"view"},{"type":"function","name":"lendingPoolOptimalUtilization","inputs":[{"name":"","type":"address","internalType":"address"}],"outputs":[{"name":"","type":"uint256","internalType":"uint256"}],"stateMutability":"view"},{"type":"function","name":"lendingPoolRateAtOptimal","inputs":[{"name":"","type":"address","internalType":"address"}],"outputs":[{"name":"","type":"uint256","internalType":"uint256"}],"stateMutability":"view"},{"type":"function","name":"proxiableUUID","inputs":[],"outputs":[{"name":"","type":"bytes32","internalType":"bytes32"}],"stateMutability":"view"},{"type":"function","name":"renounceRole","inputs":[{"name":"role","type":"bytes32","internalType":"bytes32"},{"name":"callerConfirmation","type":"address","internalType":"address"}],"outputs":[],"stateMutability":"nonpayable"},{"type":"function","name":"revokeRole","inputs":[{"name":"role","type":"bytes32","internalType":"bytes32"},{"name":"account","type":"address","internalType":"address"}],"outputs":[],"stateMutability":"nonpayable"},{"type":"function","name":"scaledPercentage","inputs":[],"outputs":[{"name":"","type":"uint256","internalType":"uint256"}],"stateMutability":"view"},{"type":"function","name":"setLendingPoolBaseRate","inputs":[{"name":"_lendingPool","type":"address","internalType":"address"},{"name":"_rate","type":"uint256","internalType":"uint256"}],"outputs":[],"stateMutability":"nonpayable"},{"type":"function","name":"setLendingPoolMaxUtilization","inputs":[{"name":"_lendingPool","type":"address","internalType":"address"},{"name":"_utilization","type":"uint256","internalType":"uint256"}],"outputs":[],"stateMutability":"nonpayable"},{"type":"function","name":"setLendingPoolOptimalUtilization","inputs":[{"name":"_lendingPool","type":"address","internalType":"address"},{"name":"_utilization","type":"uint256","internalType":"uint256"}],"outputs":[],"stateMutability":"nonpayable"},{"type":"function","name":"setLendingPoolRateAtOptimal","inputs":[{"name":"_lendingPool","type":"address","internalType":"address"},{"name":"_rate","type":"uint256","internalType":"uint256"}],"outputs":[],"stateMutability":"nonpayable"},{"type":"function","name":"setScaledPercentage","inputs":[{"name":"_percentage","type":"uint256","internalType":"uint256"}],"outputs":[],"stateMutability":"nonpayable"},{"type":"function","name":"setTokenReserveFactor","inputs":[{"name":"_lendingPool","type":"address","internalType":"address"},{"name":"_reserveFactor","type":"uint256","internalType":"uint256"}],"outputs":[],"stateMutability":"nonpayable"},{"type":"function","name":"supportsInterface","inputs":[{"name":"interfaceId","type":"bytes4","internalType":"bytes4"}],"outputs":[{"name":"","type":"bool","internalType":"bool"}],"stateMutability":"view"},{"type":"function","name":"tokenReserveFactor","inputs":[{"name":"","type":"address","internalType":"address"}],"outputs":[{"name":"","type":"uint256","internalType":"uint256"}],"stateMutability":"view"},{"type":"function","name":"upgradeToAndCall","inputs":[{"name":"newImplementation","type":"address","internalType":"address"},{"name":"data","type":"bytes","internalType":"bytes"}],"outputs":[],"stateMutability":"payable"},{"type":"event","name":"Initialized","inputs":[{"name":"version","type":"uint64","indexed":false,"internalType":"uint64"}],"anonymous":false},{"type":"event","name":"LendingPoolBaseRateSet","inputs":[{"name":"lendingPool","type":"address","indexed":true,"internalType":"address"},{"name":"rate","type":"uint256","indexed":false,"internalType":"uint256"}],"anonymous":false},{"type":"event","name":"LendingPoolMaxUtilizationSet","inputs":[{"name":"lendingPool","type":"address","indexed":true,"internalType":"address"},{"name":"utilization","type":"uint256","indexed":false,"internalType":"uint256"}],"anonymous":false},{"type":"event","name":"LendingPoolOptimalUtilizationSet","inputs":[{"name":"lendingPool","type":"address","indexed":true,"internalType":"address"},{"name":"utilization","type":"uint256","indexed":false,"internalType":"uint256"}],"anonymous":false},{"type":"event","name":"LendingPoolRateAtOptimalSet","inputs":[{"name":"lendingPool","type":"address","indexed":true,"internalType":"address"},{"name":"rate","type":"uint256","indexed":false,"internalType":"uint256"}],"anonymous":false},{"type":"event","name":"RoleAdminChanged","inputs":[{"name":"role","type":"bytes32","indexed":true,"internalType":"bytes32"},{"name":"previousAdminRole","type":"bytes32","indexed":true,"internalType":"bytes32"},{"name":"newAdminRole","type":"bytes32","indexed":true,"internalType":"bytes32"}],"anonymous":false},{"type":"event","name":"RoleGranted","inputs":[{"name":"role","type":"bytes32","indexed":true,"internalType":"bytes32"},{"name":"account","type":"address","indexed":true,"internalType":"address"},{"name":"sender","type":"address","indexed":true,"internalType":"address"}],"anonymous":false},{"type":"event","name":"RoleRevoked","inputs":[{"name":"role","type":"bytes32","indexed":true,"internalType":"bytes32"},{"name":"account","type":"address","indexed":true,"internalType":"address"},{"name":"sender","type":"address","indexed":true,"internalType":"address"}],"anonymous":false},{"type":"event","name":"ScaledPercentageSet","inputs":[{"name":"percentage","type":"uint256","indexed":false,"internalType":"uint256"}],"anonymous":false},{"type":"event","name":"TokenReserveFactorSet","inputs":[{"name":"lendingPool","type":"address","indexed":true,"internalType":"address"},{"name":"reserveFactor","type":"uint256","indexed":false,"internalType":"uint256"}],"anonymous":false},{"type":"event","name":"Upgraded","inputs":[{"name":"implementation","type":"address","indexed":true,"internalType":"address"}],"anonymous":false},{"type":"error","name":"AccessControlBadConfirmation","inputs":[]},{"type":"error","name":"AccessControlUnauthorizedAccount","inputs":[{"name":"account","type":"address","internalType":"address"},{"name":"neededRole","type":"bytes32","internalType":"bytes32"}]},{"type":"error","name":"AddressEmptyCode","inputs":[{"name":"target","type":"address","internalType":"address"}]},{"type":"error","name":"ERC1967InvalidImplementation","inputs":[{"name":"implementation","type":"address","internalType":"address"}]},{"type":"error","name":"ERC1967NonPayable","inputs":[]},{"type":"error","name":"FailedCall","inputs":[]},{"type":"error","name":"InvalidInitialization","inputs":[]},{"type":"error","name":"MaxUtilizationReached","inputs":[{"name":"_token","type":"address","internalType":"address"},{"name":"_utilization","type":"uint256","internalType":"uint256"},{"name":"_maxUtilization","type":"uint256","internalType":"uint256"}]},{"type":"error","name":"NotInitializing","inputs":[]},{"type":"error","name":"UUPSUnauthorizedCallContext","inputs":[]},{"type":"error","name":"UUPSUnsupportedProxiableUUID","inputs":[{"name":"slot","type":"bytes32","internalType":"bytes32"}]}],"bytecode":{"object":"0x60a06040523073ffffffffffffffffffffffffffffffffffffffff1660809073ffffffffffffffffffffffffffffffffffffffff16815250348015610042575f5ffd5b5061005161005660201b60201c565b6101d1565b5f61006561015460201b60201c565b9050805f0160089054906101000a900460ff16156100af576040517ff92ee8a900000000000000000000000000000000000000000000000000000000815260040160405180910390fd5b67ffffffffffffffff8016815f015f9054906101000a900467ffffffffffffffff1667ffffffffffffffff16146101515767ffffffffffffffff815f015f6101000a81548167ffffffffffffffff021916908367ffffffffffffffff1602179055507fc7f505b2f371ae2175ee4913f4499e1f2633a7b5936321eed1cdaeb6115181d267ffffffffffffffff60405161014891906101b8565b60405180910390a15b50565b5f5f61016461016d60201b60201c565b90508091505090565b5f7ff0c57e16840df040f15088dc2f81fe391c3923bec73e23a9662efc9c229c6a005f1b905090565b5f67ffffffffffffffff82169050919050565b6101b281610196565b82525050565b5f6020820190506101cb5f8301846101a9565b92915050565b60805161272e6101f75f395f81816115cf015281816116240152611801015261272e5ff3fe60806040526004361061019b575f3560e01c806392f97cac116100eb578063ad3cb1cc11610089578063d547741f11610063578063d547741f146105d5578063d7dc6203146105fd578063e58378bb1461063b578063f72c0d8b146106655761019b565b8063ad3cb1cc14610547578063c404747714610571578063c95b2a80146105995761019b565b8063a217fddf116100c5578063a217fddf14610491578063a22a5fcf146104bb578063a27cb770146104e3578063a96d40751461050b5761019b565b806392f97cac146103f157806394ab9eeb1461042d5780639d7da740146104695761019b565b80634f1ef2861161015857806372a40a061161013257806372a40a061461032757806377460ddb146103635780638129fc1c1461039f57806391d14854146103b55761019b565b80634f1ef286146102b957806352d1902d146102d55780636ba62f7a146102ff5761019b565b806301ffc9a71461019f5780631cd5ae30146101db578063248a9ca31461020557806325379176146102415780632f2ff15d1461026957806336568abe14610291575b5f5ffd5b3480156101aa575f5ffd5b506101c560048036038101906101c09190611f08565b61068f565b6040516101d29190611f4d565b60405180910390f35b3480156101e6575f5ffd5b506101ef610708565b6040516101fc9190611f7e565b60405180910390f35b348015610210575f5ffd5b5061022b60048036038101906102269190611fca565b61070e565b6040516102389190612004565b60405180910390f35b34801561024c575f5ffd5b50610267600480360381019061026291906120a1565b610738565b005b348015610274575f5ffd5b5061028f600480360381019061028a91906120df565b6107f7565b005b34801561029c575f5ffd5b506102b760048036038101906102b291906120df565b610819565b005b6102d360048036038101906102ce9190612259565b610894565b005b3480156102e0575f5ffd5b506102e96108b3565b6040516102f69190612004565b60405180910390f35b34801561030a575f5ffd5b50610325600480360381019061032091906120a1565b6108e4565b005b348015610332575f5ffd5b5061034d600480360381019061034891906122b3565b6109a2565b60405161035a9190611f7e565b60405180910390f35b34801561036e575f5ffd5b50610389600480360381019061038491906122b3565b6109b7565b6040516103969190611f7e565b60405180910390f35b3480156103aa575f5ffd5b506103b36109cc565b005b3480156103c0575f5ffd5b506103db60048036038101906103d691906120df565b610bc5565b6040516103e89190611f4d565b60405180910390f35b3480156103fc575f5ffd5b50610417600480360381019061041291906122b3565b610c36565b6040516104249190611f7e565b60405180910390f35b348015610438575f5ffd5b50610453600480360381019061044e91906122b3565b610c4b565b6040516104609190611f7e565b60405180910390f35b348015610474575f5ffd5b5061048f600480360381019061048a91906120a1565b610f03565b005b34801561049c575f5ffd5b506104a5610fc2565b6040516104b29190612004565b60405180910390f35b3480156104c6575f5ffd5b506104e160048036038101906104dc91906122de565b610fc8565b005b3480156104ee575f5ffd5b50610509600480360381019061050491906120a1565b611034565b005b348015610516575f5ffd5b50610531600480360381019061052c91906122b3565b6110f3565b60405161053e9190611f7e565b60405180910390f35b348015610552575f5ffd5b5061055b611108565b6040516105689190612369565b60405180910390f35b34801561057c575f5ffd5b50610597600480360381019061059291906120a1565b611141565b005b3480156105a4575f5ffd5b506105bf60048036038101906105ba91906122b3565b611200565b6040516105cc9190611f7e565b60405180910390f35b3480156105e0575f5ffd5b506105fb60048036038101906105f691906120df565b611214565b005b348015610608575f5ffd5b50610623600480360381019061061e91906120a1565b611236565b60405161063293929190612389565b60405180910390f35b348015610646575f5ffd5b5061064f6112ea565b60405161065c9190612004565b60405180910390f35b348015610670575f5ffd5b5061067961130e565b6040516106869190612004565b60405180910390f35b5f7f7965db0b000000000000000000000000000000000000000000000000000000007bffffffffffffffffffffffffffffffffffffffffffffffffffffffff1916827bffffffffffffffffffffffffffffffffffffffffffffffffffffffff19161480610701575061070082611332565b5b9050919050565b60055481565b5f5f61071861139b565b9050805f015f8481526020019081526020015f2060010154915050919050565b7fb19546dff01e856fb3f010c267a7b1c60363cf8a4664e21cc89c26224620214e610762816113c2565b8160045f8573ffffffffffffffffffffffffffffffffffffffff1673ffffffffffffffffffffffffffffffffffffffff1681526020019081526020015f20819055508273ffffffffffffffffffffffffffffffffffffffff167f97695fbf55f4d399d722a5d1cc5a6818ef227afad9692399170fb8f04da0d32e836040516107ea9190611f7e565b60405180910390a2505050565b6108008261070e565b610809816113c2565b61081383836113d6565b50505050565b6108216114ce565b73ffffffffffffffffffffffffffffffffffffffff168173ffffffffffffffffffffffffffffffffffffffff1614610885576040517f6697b23200000000000000000000000000000000000000000000000000000000815260040160405180910390fd5b61088f82826114d5565b505050565b61089c6115cd565b6108a5826116b3565b6108af82826116e1565b5050565b5f6108bc6117ff565b7f360894a13ba1a3210667c828492db98dca3e2076cc3735a920a3ca505d382bbc5f1b905090565b7fb19546dff01e856fb3f010c267a7b1c60363cf8a4664e21cc89c26224620214e61090e816113c2565b815f5f8573ffffffffffffffffffffffffffffffffffffffff1673ffffffffffffffffffffffffffffffffffffffff1681526020019081526020015f20819055508273ffffffffffffffffffffffffffffffffffffffff167f43a61934b5df42ff0bb0702e2eccb41d58baa04b2369b1bd3a74c9c167f326b3836040516109959190611f7e565b60405180910390a2505050565b6001602052805f5260405f205f915090505481565b6003602052805f5260405f205f915090505481565b5f6109d5611886565b90505f815f0160089054906101000a900460ff161590505f825f015f9054906101000a900467ffffffffffffffff1690505f5f8267ffffffffffffffff16148015610a1d5750825b90505f60018367ffffffffffffffff16148015610a5057505f3073ffffffffffffffffffffffffffffffffffffffff163b145b905081158015610a5e575080155b15610a95576040517ff92ee8a900000000000000000000000000000000000000000000000000000000815260040160405180910390fd5b6001855f015f6101000a81548167ffffffffffffffff021916908367ffffffffffffffff1602179055508315610ae2576001855f0160086101000a81548160ff0219169083151502179055505b610aea611899565b610af26118a3565b610afe5f5f1b336113d6565b50610b297fb19546dff01e856fb3f010c267a7b1c60363cf8a4664e21cc89c26224620214e336113d6565b50610b547f189ab7a9244df0848122154315af71fe140f3db0fe014031783b0946b8c9d2e3336113d6565b50670de0b6b3a76400006005819055508315610bbe575f855f0160086101000a81548160ff0219169083151502179055507fc7f505b2f371ae2175ee4913f4499e1f2633a7b5936321eed1cdaeb6115181d26001604051610bb59190612413565b60405180910390a15b5050505050565b5f5f610bcf61139b565b9050805f015f8581526020019081526020015f205f015f8473ffffffffffffffffffffffffffffffffffffffff1673ffffffffffffffffffffffffffffffffffffffff1681526020019081526020015f205f9054906101000a900460ff1691505092915050565b6004602052805f5260405f205f915090505481565b5f5f610c56836118ad565b1480610c6957505f610c6783611922565b145b15610cb2575f5f8373ffffffffffffffffffffffffffffffffffffffff1673ffffffffffffffffffffffffffffffffffffffff1681526020019081526020015f20549050610efe565b5f610cbc836118ad565b600554610cc885611922565b610cd29190612459565b610cdc91906124c7565b90505f5f5f8573ffffffffffffffffffffffffffffffffffffffff1673ffffffffffffffffffffffffffffffffffffffff1681526020019081526020015f205490505f60025f8673ffffffffffffffffffffffffffffffffffffffff1673ffffffffffffffffffffffffffffffffffffffff1681526020019081526020015f205490505f60015f8773ffffffffffffffffffffffffffffffffffffffff1673ffffffffffffffffffffffffffffffffffffffff1681526020019081526020015f2054905060035f8773ffffffffffffffffffffffffffffffffffffffff1673ffffffffffffffffffffffffffffffffffffffff1681526020019081526020015f20548410610e6a57610ded86611997565b8460035f8973ffffffffffffffffffffffffffffffffffffffff1673ffffffffffffffffffffffffffffffffffffffff1681526020019081526020015f20546040517fb0789174000000000000000000000000000000000000000000000000000000008152600401610e6193929190612506565b60405180910390fd5b818411610ea557818382610e7e919061253b565b85610e899190612459565b610e9391906124c7565b83610e9e919061256e565b9450610ef9565b5f8285610eb2919061253b565b90505f83600554610ec3919061253b565b90508083600554610ed4919061253b565b83610edf9190612459565b610ee991906124c7565b83610ef4919061256e565b965050505b505050505b919050565b7fb19546dff01e856fb3f010c267a7b1c60363cf8a4664e21cc89c26224620214e610f2d816113c2565b8160035f8573ffffffffffffffffffffffffffffffffffffffff1673ffffffffffffffffffffffffffffffffffffffff1681526020019081526020015f20819055508273ffffffffffffffffffffffffffffffffffffffff167fac541568ea722ed3ddfe9ec2a75b913dafce54004a8a0e1e6fc745602e6421d283604051610fb59190611f7e565b60405180910390a2505050565b5f5f1b81565b7fb19546dff01e856fb3f010c267a7b1c60363cf8a4664e21cc89c26224620214e610ff2816113c2565b816005819055507ff9598f8ae26e4d04fc2773146b39aeb2d0c01c0fcf8f9c1fc726b0d076d78025826040516110289190611f7e565b60405180910390a15050565b7fb19546dff01e856fb3f010c267a7b1c60363cf8a4664e21cc89c26224620214e61105e816113c2565b8160025f8573ffffffffffffffffffffffffffffffffffffffff1673ffffffffffffffffffffffffffffffffffffffff1681526020019081526020015f20819055508273ffffffffffffffffffffffffffffffffffffffff167faa9741cd23ee6cc9fdd245f861b725d86cf52b396e54c39d2f209fc3c154cf6e836040516110e69190611f7e565b60405180910390a2505050565b6002602052805f5260405f205f915090505481565b6040518060400160405280600581526020017f352e302e3000000000000000000000000000000000000000000000000000000081525081565b7fb19546dff01e856fb3f010c267a7b1c60363cf8a4664e21cc89c26224620214e61116b816113c2565b8160015f8573ffffffffffffffffffffffffffffffffffffffff1673ffffffffffffffffffffffffffffffffffffffff1681526020019081526020015f20819055508273ffffffffffffffffffffffffffffffffffffffff167ff973faa835686ae4a1ae0d9a35294e09facca3d04fbfd699cc05e8bf63e40c43836040516111f39190611f7e565b60405180910390a2505050565b5f602052805f5260405f205f915090505481565b61121d8261070e565b611226816113c2565b61123083836114d5565b50505050565b5f5f5f5f61124386610c4b565b90505f6005548261125389611922565b61125d9190612459565b61126791906124c7565b90506301e13380868261127a9190612459565b61128491906124c7565b945060055461129288611a0c565b60055461129f919061253b565b6112a991906124c7565b826112b49190612459565b93506005546112ca6112c589611997565b611a0c565b6112d491906124c7565b826112df9190612459565b925050509250925092565b7fb19546dff01e856fb3f010c267a7b1c60363cf8a4664e21cc89c26224620214e81565b7f189ab7a9244df0848122154315af71fe140f3db0fe014031783b0946b8c9d2e381565b5f7f01ffc9a7000000000000000000000000000000000000000000000000000000007bffffffffffffffffffffffffffffffffffffffffffffffffffffffff1916827bffffffffffffffffffffffffffffffffffffffffffffffffffffffff1916149050919050565b5f7f02dd7bc7dec4dceedda775e58dd541e08a116c6c53815c0bd028192f7b626800905090565b6113d3816113ce6114ce565b611aa7565b50565b5f5f6113e061139b565b90506113ec8484610bc5565b6114c3576001815f015f8681526020019081526020015f205f015f8573ffffffffffffffffffffffffffffffffffffffff1673ffffffffffffffffffffffffffffffffffffffff1681526020019081526020015f205f6101000a81548160ff02191690831515021790555061145f6114ce565b73ffffffffffffffffffffffffffffffffffffffff168373ffffffffffffffffffffffffffffffffffffffff16857f2f8788117e7eff1d82e926ec794901d17c78024a50270940304540a733656f0d60405160405180910390a460019150506114c8565b5f9150505b92915050565b5f33905090565b5f5f6114df61139b565b90506114eb8484610bc5565b156115c2575f815f015f8681526020019081526020015f205f015f8573ffffffffffffffffffffffffffffffffffffffff1673ffffffffffffffffffffffffffffffffffffffff1681526020019081526020015f205f6101000a81548160ff02191690831515021790555061155e6114ce565b73ffffffffffffffffffffffffffffffffffffffff168373ffffffffffffffffffffffffffffffffffffffff16857ff6391f5c32d9c69d2a47ea670b442974b53935d1edc7fd64eb21e047a839171b60405160405180910390a460019150506115c7565b5f9150505b92915050565b7f000000000000000000000000000000000000000000000000000000000000000073ffffffffffffffffffffffffffffffffffffffff163073ffffffffffffffffffffffffffffffffffffffff16148061167a57507f000000000000000000000000000000000000000000000000000000000000000073ffffffffffffffffffffffffffffffffffffffff16611661611af8565b73ffffffffffffffffffffffffffffffffffffffff1614155b156116b1576040517fe07c8dba00000000000000000000000000000000000000000000000000000000815260040160405180910390fd5b565b7f189ab7a9244df0848122154315af71fe140f3db0fe014031783b0946b8c9d2e36116dd816113c2565b5050565b8173ffffffffffffffffffffffffffffffffffffffff166352d1902d6040518163ffffffff1660e01b8152600401602060405180830381865afa92505050801561174957506040513d601f19601f8201168201806040525081019061174691906125b5565b60015b61178a57816040517f4c9c8ce300000000000000000000000000000000000000000000000000000000815260040161178191906125e0565b60405180910390fd5b7f360894a13ba1a3210667c828492db98dca3e2076cc3735a920a3ca505d382bbc5f1b81146117f057806040517faa1d49a40000000000000000000000000000000000000000000000000000000081526004016117e79190612004565b60405180910390fd5b6117fa8383611b4b565b505050565b7f000000000000000000000000000000000000000000000000000000000000000073ffffffffffffffffffffffffffffffffffffffff163073ffffffffffffffffffffffffffffffffffffffff1614611884576040517fe07c8dba00000000000000000000000000000000000000000000000000000000815260040160405180910390fd5b565b5f5f611890611bbd565b90508091505090565b6118a1611be6565b565b6118ab611be6565b565b5f8173ffffffffffffffffffffffffffffffffffffffff166394877fc46040518163ffffffff1660e01b8152600401602060405180830381865afa1580156118f7573d5f5f3e3d5ffd5b505050506040513d601f19601f8201168201806040525081019061191b919061260d565b9050919050565b5f8173ffffffffffffffffffffffffffffffffffffffff16631aad44c26040518163ffffffff1660e01b8152600401602060405180830381865afa15801561196c573d5f5f3e3d5ffd5b505050506040513d601f19601f82011682018060405250810190611990919061260d565b9050919050565b5f8173ffffffffffffffffffffffffffffffffffffffff1663456dc17a6040518163ffffffff1660e01b8152600401602060405180830381865afa1580156119e1573d5f5f3e3d5ffd5b505050506040513d601f19601f82011682018060405250810190611a05919061264c565b9050919050565b5f5f60045f8473ffffffffffffffffffffffffffffffffffffffff1673ffffffffffffffffffffffffffffffffffffffff1681526020019081526020015f205403611a615767016345785d8a00009050611aa2565b60045f8373ffffffffffffffffffffffffffffffffffffffff1673ffffffffffffffffffffffffffffffffffffffff1681526020019081526020015f205490505b919050565b611ab18282610bc5565b611af45780826040517fe2517d3f000000000000000000000000000000000000000000000000000000008152600401611aeb929190612677565b60405180910390fd5b5050565b5f611b247f360894a13ba1a3210667c828492db98dca3e2076cc3735a920a3ca505d382bbc5f1b611c26565b5f015f9054906101000a900473ffffffffffffffffffffffffffffffffffffffff16905090565b611b5482611c2f565b8173ffffffffffffffffffffffffffffffffffffffff167fbc7cd75a20ee27fd9adebab32041f755214dbc6bffa90cc0225b39da2e5c2d3b60405160405180910390a25f81511115611bb057611baa8282611cf8565b50611bb9565b611bb8611d78565b5b5050565b5f7ff0c57e16840df040f15088dc2f81fe391c3923bec73e23a9662efc9c229c6a005f1b905090565b611bee611db4565b611c24576040517fd7e6bcf800000000000000000000000000000000000000000000000000000000815260040160405180910390fd5b565b5f819050919050565b5f8173ffffffffffffffffffffffffffffffffffffffff163b03611c8a57806040517f4c9c8ce3000000000000000000000000000000000000000000000000000000008152600401611c8191906125e0565b60405180910390fd5b80611cb67f360894a13ba1a3210667c828492db98dca3e2076cc3735a920a3ca505d382bbc5f1b611c26565b5f015f6101000a81548173ffffffffffffffffffffffffffffffffffffffff021916908373ffffffffffffffffffffffffffffffffffffffff16021790555050565b60605f5f8473ffffffffffffffffffffffffffffffffffffffff1684604051611d2191906126e2565b5f60405180830381855af49150503d805f8114611d59576040519150601f19603f3d011682016040523d82523d5f602084013e611d5e565b606091505b5091509150611d6e858383611dd2565b9250505092915050565b5f341115611db2576040517fb398979f00000000000000000000000000000000000000000000000000000000815260040160405180910390fd5b565b5f611dbd611886565b5f0160089054906101000a900460ff16905090565b606082611de757611de282611e5f565b611e57565b5f8251148015611e0d57505f8473ffffffffffffffffffffffffffffffffffffffff163b145b15611e4f57836040517f9996b315000000000000000000000000000000000000000000000000000000008152600401611e4691906125e0565b60405180910390fd5b819050611e58565b5b9392505050565b5f81511115611e7057805160208201fd5b6040517fd6bda27500000000000000000000000000000000000000000000000000000000815260040160405180910390fd5b5f604051905090565b5f5ffd5b5f5ffd5b5f7fffffffff0000000000000000000000000000000000000000000000000000000082169050919050565b611ee781611eb3565b8114611ef1575f5ffd5b50565b5f81359050611f0281611ede565b92915050565b5f60208284031215611f1d57611f1c611eab565b5b5f611f2a84828501611ef4565b91505092915050565b5f8115159050919050565b611f4781611f33565b82525050565b5f602082019050611f605f830184611f3e565b92915050565b5f819050919050565b611f7881611f66565b82525050565b5f602082019050611f915f830184611f6f565b92915050565b5f819050919050565b611fa981611f97565b8114611fb3575f5ffd5b50565b5f81359050611fc481611fa0565b92915050565b5f60208284031215611fdf57611fde611eab565b5b5f611fec84828501611fb6565b91505092915050565b611ffe81611f97565b82525050565b5f6020820190506120175f830184611ff5565b92915050565b5f73ffffffffffffffffffffffffffffffffffffffff82169050919050565b5f6120468261201d565b9050919050565b6120568161203c565b8114612060575f5ffd5b50565b5f813590506120718161204d565b92915050565b61208081611f66565b811461208a575f5ffd5b50565b5f8135905061209b81612077565b92915050565b5f5f604083850312156120b7576120b6611eab565b5b5f6120c485828601612063565b92505060206120d58582860161208d565b9150509250929050565b5f5f604083850312156120f5576120f4611eab565b5b5f61210285828601611fb6565b925050602061211385828601612063565b9150509250929050565b5f5ffd5b5f5ffd5b5f601f19601f8301169050919050565b7f4e487b71000000000000000000000000000000000000000000000000000000005f52604160045260245ffd5b61216b82612125565b810181811067ffffffffffffffff8211171561218a57612189612135565b5b80604052505050565b5f61219c611ea2565b90506121a88282612162565b919050565b5f67ffffffffffffffff8211156121c7576121c6612135565b5b6121d082612125565b9050602081019050919050565b828183375f83830152505050565b5f6121fd6121f8846121ad565b612193565b90508281526020810184848401111561221957612218612121565b5b6122248482856121dd565b509392505050565b5f82601f8301126122405761223f61211d565b5b81356122508482602086016121eb565b91505092915050565b5f5f6040838503121561226f5761226e611eab565b5b5f61227c85828601612063565b925050602083013567ffffffffffffffff81111561229d5761229c611eaf565b5b6122a98582860161222c565b9150509250929050565b5f602082840312156122c8576122c7611eab565b5b5f6122d584828501612063565b91505092915050565b5f602082840312156122f3576122f2611eab565b5b5f6123008482850161208d565b91505092915050565b5f81519050919050565b5f82825260208201905092915050565b8281835e5f83830152505050565b5f61233b82612309565b6123458185612313565b9350612355818560208601612323565b61235e81612125565b840191505092915050565b5f6020820190508181035f8301526123818184612331565b905092915050565b5f60608201905061239c5f830186611f6f565b6123a96020830185611f6f565b6123b66040830184611f6f565b949350505050565b5f819050919050565b5f67ffffffffffffffff82169050919050565b5f819050919050565b5f6123fd6123f86123f3846123be565b6123da565b6123c7565b9050919050565b61240d816123e3565b82525050565b5f6020820190506124265f830184612404565b92915050565b7f4e487b71000000000000000000000000000000000000000000000000000000005f52601160045260245ffd5b5f61246382611f66565b915061246e83611f66565b925082820261247c81611f66565b915082820484148315176124935761249261242c565b5b5092915050565b7f4e487b71000000000000000000000000000000000000000000000000000000005f52601260045260245ffd5b5f6124d182611f66565b91506124dc83611f66565b9250826124ec576124eb61249a565b5b828204905092915050565b6125008161203c565b82525050565b5f6060820190506125195f8301866124f7565b6125266020830185611f6f565b6125336040830184611f6f565b949350505050565b5f61254582611f66565b915061255083611f66565b92508282039050818111156125685761256761242c565b5b92915050565b5f61257882611f66565b915061258383611f66565b925082820190508082111561259b5761259a61242c565b5b92915050565b5f815190506125af81611fa0565b92915050565b5f602082840312156125ca576125c9611eab565b5b5f6125d7848285016125a1565b91505092915050565b5f6020820190506125f35f8301846124f7565b92915050565b5f8151905061260781612077565b92915050565b5f6020828403121561262257612621611eab565b5b5f61262f848285016125f9565b91505092915050565b5f815190506126468161204d565b92915050565b5f6020828403121561266157612660611eab565b5b5f61266e84828501612638565b91505092915050565b5f60408201905061268a5f8301856124f7565b6126976020830184611ff5565b9392505050565b5f81519050919050565b5f81905092915050565b5f6126bc8261269e565b6126c681856126a8565b93506126d6818560208601612323565b80840191505092915050565b5f6126ed82846126b2565b91508190509291505056fea26469706673582212206b2de182f551cba571e870053c0da78233438911599c9f2645ab308faef9cc0764736f6c634300081e0033","linkReferences":{}},"methodIdentifiers":{"DEFAULT_ADMIN_ROLE()":"a217fddf","OWNER_ROLE()":"e58378bb","UPGRADER_ROLE()":"f72c0d8b","UPGRADE_INTERFACE_VERSION()":"ad3cb1cc","calculateBorrowRate(address)":"94ab9eeb","calculateInterest(address,uint256)":"d7dc6203","getRoleAdmin(bytes32)":"248a9ca3","grantRole(bytes32,address)":"2f2ff15d","hasRole(bytes32,address)":"91d14854","initialize()":"8129fc1c","lendingPoolBaseRate(address)":"c95b2a80","lendingPoolMaxUtilization(address)":"77460ddb","lendingPoolOptimalUtilization(address)":"a96d4075","lendingPoolRateAtOptimal(address)":"72a40a06","proxiableUUID()":"52d1902d","renounceRole(bytes32,address)":"36568abe","revokeRole(bytes32,address)":"d547741f","scaledPercentage()":"1cd5ae30","setLendingPoolBaseRate(address,uint256)":"6ba62f7a","setLendingPoolMaxUtilization(address,uint256)":"9d7da740","setLendingPoolOptimalUtilization(address,uint256)":"a27cb770","setLendingPoolRateAtOptimal(address,uint256)":"c4047477","setScaledPercentage(uint256)":"a22a5fcf","setTokenReserveFactor(address,uint256)":"25379176","supportsInterface(bytes4)":"01ffc9a7","tokenReserveFactor(address)":"92f97cac","upgradeToAndCall(address,bytes)":"4f1ef286"},"id":100}