{"abi":[{"type":"constructor","inputs":[{"name":"_router","type":"address","internalType":"address"}],"stateMutability":"nonpayable"},{"type":"fallback","stateMutability":"payable"},{"type":"receive","stateMutability":"payable"},{"type":"function","name":"VERSION","inputs":[],"outputs":[{"name":"","type":"uint8","internalType":"uint8"}],"stateMutability":"view"},{"type":"function","name":"borrowDebt","inputs":[{"name":"_amount","type":"uint256","internalType":"uint256"},{"name":"_chainId","type":"uint256","internalType":"uint256"},{"name":"_addExecutorLzReceiveOption","type":"uint128","internalType":"uint128"}],"outputs":[],"stateMutability":"payable"},{"type":"function","name":"liquidation","inputs":[{"name":"_borrower","type":"address","internalType":"address"}],"outputs":[],"stateMutability":"nonpayable"},{"type":"function","name":"repayWithSelectedToken","inputs":[{"name":"_user","type":"address","internalType":"address"},{"name":"_token","type":"address","internalType":"address"},{"name":"_shares","type":"uint256","internalType":"uint256"},{"name":"_amountOutMinimum","type":"uint256","internalType":"uint256"},{"name":"_fromPosition","type":"bool","internalType":"bool"}],"outputs":[],"stateMutability":"payable"},{"type":"function","name":"router","inputs":[],"outputs":[{"name":"","type":"address","internalType":"address"}],"stateMutability":"view"},{"type":"function","name":"supplyCollateral","inputs":[{"name":"_user","type":"address","internalType":"address"},{"name":"_amount","type":"uint256","internalType":"uint256"}],"outputs":[],"stateMutability":"payable"},{"type":"function","name":"supplyLiquidity","inputs":[{"name":"_user","type":"address","internalType":"address"},{"name":"_amount","type":"uint256","internalType":"uint256"}],"outputs":[],"stateMutability":"payable"},{"type":"function","name":"swapTokenByPosition","inputs":[{"name":"_tokenIn","type":"address","internalType":"address"},{"name":"_tokenOut","type":"address","internalType":"address"},{"name":"_amountIn","type":"uint256","internalType":"uint256"},{"name":"_amountOutMinimum","type":"uint256","internalType":"uint256"}],"outputs":[{"name":"amountOut","type":"uint256","internalType":"uint256"}],"stateMutability":"nonpayable"},{"type":"function","name":"withdrawCollateral","inputs":[{"name":"_amount","type":"uint256","internalType":"uint256"}],"outputs":[],"stateMutability":"nonpayable"},{"type":"function","name":"withdrawLiquidity","inputs":[{"name":"_shares","type":"uint256","internalType":"uint256"}],"outputs":[],"stateMutability":"payable"},{"type":"event","name":"BorrowDebt","inputs":[{"name":"user","type":"address","indexed":false,"internalType":"address"},{"name":"amount","type":"uint256","indexed":false,"internalType":"uint256"},{"name":"shares","type":"uint256","indexed":false,"internalType":"uint256"},{"name":"chainId","type":"uint256","indexed":false,"internalType":"uint256"},{"name":"addExecutorLzReceiveOption","type":"uint256","indexed":false,"internalType":"uint256"}],"anonymous":false},{"type":"event","name":"CreatePosition","inputs":[{"name":"user","type":"address","indexed":false,"internalType":"address"},{"name":"positionAddress","type":"address","indexed":false,"internalType":"address"}],"anonymous":false},{"type":"event","name":"InterestRateModelSet","inputs":[{"name":"oldModel","type":"address","indexed":true,"internalType":"address"},{"name":"newModel","type":"address","indexed":true,"internalType":"address"}],"anonymous":false},{"type":"event","name":"Liquidation","inputs":[{"name":"borrower","type":"address","indexed":false,"internalType":"address"},{"name":"borrowToken","type":"address","indexed":false,"internalType":"address"},{"name":"collateralToken","type":"address","indexed":false,"internalType":"address"},{"name":"userBorrowAssets","type":"uint256","indexed":false,"internalType":"uint256"},{"name":"borrowerCollateral","type":"uint256","indexed":false,"internalType":"uint256"},{"name":"liquidationAllocation","type":"uint256","indexed":false,"internalType":"uint256"},{"name":"collateralToLiquidator","type":"uint256","indexed":false,"internalType":"uint256"}],"anonymous":false},{"type":"event","name":"RepayByPosition","inputs":[{"name":"user","type":"address","indexed":false,"internalType":"address"},{"name":"amount","type":"uint256","indexed":false,"internalType":"uint256"},{"name":"shares","type":"uint256","indexed":false,"internalType":"uint256"}],"anonymous":false},{"type":"event","name":"SupplyCollateral","inputs":[{"name":"positionAddress","type":"address","indexed":false,"internalType":"address"},{"name":"user","type":"address","indexed":false,"internalType":"address"},{"name":"amount","type":"uint256","indexed":false,"internalType":"uint256"}],"anonymous":false},{"type":"event","name":"SupplyLiquidity","inputs":[{"name":"user","type":"address","indexed":false,"internalType":"address"},{"name":"amount","type":"uint256","indexed":false,"internalType":"uint256"},{"name":"shares","type":"uint256","indexed":false,"internalType":"uint256"}],"anonymous":false},{"type":"event","name":"SwapTokenByPosition","inputs":[{"name":"user","type":"address","indexed":false,"internalType":"address"},{"name":"tokenIn","type":"address","indexed":false,"internalType":"address"},{"name":"tokenOut","type":"address","indexed":false,"internalType":"address"},{"name":"amountIn","type":"uint256","indexed":false,"internalType":"uint256"},{"name":"amountOut","type":"uint256","indexed":false,"internalType":"uint256"}],"anonymous":false},{"type":"event","name":"WithdrawCollateral","inputs":[{"name":"user","type":"address","indexed":false,"internalType":"address"},{"name":"amount","type":"uint256","indexed":false,"internalType":"uint256"}],"anonymous":false},{"type":"event","name":"WithdrawLiquidity","inputs":[{"name":"user","type":"address","indexed":false,"internalType":"address"},{"name":"amount","type":"uint256","indexed":false,"internalType":"uint256"},{"name":"shares","type":"uint256","indexed":false,"internalType":"uint256"}],"anonymous":false},{"type":"error","name":"CollateralWrongInputAmount","inputs":[{"name":"amount","type":"uint256","internalType":"uint256"},{"name":"expectedAmount","type":"uint256","internalType":"uint256"}]},{"type":"error","name":"InsufficientCollateral","inputs":[{"name":"amount","type":"uint256","internalType":"uint256"},{"name":"expectedAmount","type":"uint256","internalType":"uint256"}]},{"type":"error","name":"InvalidOptionType","inputs":[{"name":"optionType","type":"uint16","internalType":"uint16"}]},{"type":"error","name":"NotAuthorized","inputs":[{"name":"executor","type":"address","internalType":"address"}]},{"type":"error","name":"OracleOnTokenNotSet","inputs":[{"name":"token","type":"address","internalType":"address"}]},{"type":"error","name":"PositionAlreadyCreated","inputs":[{"name":"positionAddress","type":"address","internalType":"address"}]},{"type":"error","name":"ReentrancyGuardReentrantCall","inputs":[]},{"type":"error","name":"RepayWithSelectedTokenWrongInputAmount","inputs":[{"name":"amount","type":"uint256","internalType":"uint256"},{"name":"expectedAmount","type":"uint256","internalType":"uint256"}]},{"type":"error","name":"SafeCastOverflowedUintDowncast","inputs":[{"name":"bits","type":"uint8","internalType":"uint8"},{"name":"value","type":"uint256","internalType":"uint256"}]},{"type":"error","name":"SafeERC20FailedOperation","inputs":[{"name":"token","type":"address","internalType":"address"}]},{"type":"error","name":"SupplyLiquidityWrongInputAmount","inputs":[{"name":"amount","type":"uint256","internalType":"uint256"},{"name":"expectedAmount","type":"uint256","internalType":"uint256"}]},{"type":"error","name":"SwapTokenByPositionInvalidParameter","inputs":[{"name":"tokenIn","type":"address","internalType":"address"},{"name":"tokenOut","type":"address","internalType":"address"}]},{"type":"error","name":"TransferFailed","inputs":[{"name":"amount","type":"uint256","internalType":"uint256"}]},{"type":"error","name":"WrongInputAmount","inputs":[{"name":"expectedAmount","type":"uint256","internalType":"uint256"},{"name":"actualAmount","type":"uint256","internalType":"uint256"}]},{"type":"error","name":"ZeroAmount","inputs":[]},{"type":"error","name":"amountSharesInvalid","inputs":[{"name":"shares","type":"uint256","internalType":"uint256"},{"name":"userBorrowShares","type":"uint256","internalType":"uint256"}]}],"bytecode":{"object":"0x608060405234801561000f575f5ffd5b50604051614030380380614030833981810160405281019061003191906100dc565b60015f819055508060015f6101000a81548173ffffffffffffffffffffffffffffffffffffffff021916908373ffffffffffffffffffffffffffffffffffffffff16021790555050610107565b5f5ffd5b5f73ffffffffffffffffffffffffffffffffffffffff82169050919050565b5f6100ab82610082565b9050919050565b6100bb816100a1565b81146100c5575f5ffd5b50565b5f815190506100d6816100b2565b92915050565b5f602082840312156100f1576100f061007e565b5b5f6100fe848285016100c8565b91505092915050565b613f1c806101145f395ff3fe608060405260043610610094575f3560e01c8063b39e377111610058578063b39e3771146102f9578063b83e62bf14610315578063d2a8607b1461033d578063f887ea4014610359578063ffa1ad741461038357610206565b80630a861f2a14610241578063456ed8041461025d578063557c3b3a146102795780636112fe2e146102955780638c3bc0b1146102bd57610206565b36610206575f341180156100b55750600160149054906101000a900460ff16155b80156101325750600173ffffffffffffffffffffffffffffffffffffffff166100dc6103ad565b73ffffffffffffffffffffffffffffffffffffffff1614806101315750600173ffffffffffffffffffffffffffffffffffffffff16610119610441565b73ffffffffffffffffffffffffffffffffffffffff16145b5b156101a05761013f6104d5565b73ffffffffffffffffffffffffffffffffffffffff1663d0e30db0346040518263ffffffff1660e01b81526004015f604051808303818588803b158015610184575f5ffd5b505af1158015610196573d5f5f3e3d5ffd5b5050505050610203565b5f341180156101bb5750600160149054906101000a900460ff165b610204575f341115610202576040517f08c379a00000000000000000000000000000000000000000000000000000000081526004016101f990612e9e565b60405180910390fd5b5b5b005b6040517f08c379a000000000000000000000000000000000000000000000000000000000815260040161023890612f06565b60405180910390fd5b61025b60048036038101906102569190612f64565b61054f565b005b61027760048036038101906102729190612fd4565b6105bb565b005b610293600480360381019061028e91906130b3565b6106e7565b005b3480156102a0575f5ffd5b506102bb60048036038101906102b69190612f64565b610894565b005b3480156102c8575f5ffd5b506102e360048036038101906102de919061312a565b6109e0565b6040516102f0919061319d565b60405180910390f35b610313600480360381019061030e91906131b6565b610c14565b005b348015610320575f5ffd5b5061033b600480360381019061033691906131f4565b610c8d565b005b610357600480360381019061035291906131b6565b610e16565b005b348015610364575f5ffd5b5061036d610ece565b60405161037a919061322e565b60405180910390f35b34801561038e575f5ffd5b50610397610ef3565b6040516103a49190613262565b60405180910390f35b5f60015f9054906101000a900473ffffffffffffffffffffffffffffffffffffffff1673ffffffffffffffffffffffffffffffffffffffff1663456dc17a6040518163ffffffff1660e01b8152600401602060405180830381865afa158015610418573d5f5f3e3d5ffd5b505050506040513d601f19601f8201168201806040525081019061043c919061328f565b905090565b5f60015f9054906101000a900473ffffffffffffffffffffffffffffffffffffffff1673ffffffffffffffffffffffffffffffffffffffff1663b2016bd46040518163ffffffff1660e01b8152600401602060405180830381865afa1580156104ac573d5f5f3e3d5ffd5b505050506040513d601f19601f820116820180604052508101906104d0919061328f565b905090565b5f6104de610ef8565b73ffffffffffffffffffffffffffffffffffffffff1663d999984d6040518163ffffffff1660e01b8152600401602060405180830381865afa158015610526573d5f5f3e3d5ffd5b505050506040513d601f19601f8201168201806040525081019061054a919061328f565b905090565b610557610f8c565b61055f610fd0565b5f6105698261104e565b9050610574816110f2565b7fac927268ea9ae2e55027e6ab727fc2db8e3ea48c56c658223a1074567e4298c03382846040516105a7939291906132ba565b60405180910390a1506105b86112b4565b50565b6105c3610f8c565b6105cb610fd0565b5f5f5f6105d886336112bd565b9250925092504685146105fe576105f982846105f388611369565b876113f0565b610609565b6106088284611659565b5b610611611909565b73ffffffffffffffffffffffffffffffffffffffff1663d3a658053360015f9054906101000a900473ffffffffffffffffffffffffffffffffffffffff166040518363ffffffff1660e01b815260040161066c9291906132ef565b5f6040518083038186803b158015610682575f5ffd5b505afa158015610694573d5f5f3e3d5ffd5b505050507f94100d31a707f70aa6e74e8a9ac7ebfc32575c457dd4a233f1b66e1a16a3130833878388886040516106cf95949392919061334f565b60405180910390a15050506106e26112b4565b505050565b846106f181611983565b6106f9610f8c565b85610703816119cb565b5f850361073c576040517f1f2a200500000000000000000000000000000000000000000000000000000000815260040160405180910390fd5b61074587611ac2565b851115610793578461075688611ac2565b6040517f7092632300000000000000000000000000000000000000000000000000000000815260040161078a9291906133a0565b60405180910390fd5b61079b610fd0565b5f6107a68689611b63565b50505090506107b3611909565b73ffffffffffffffffffffffffffffffffffffffff1663d3a658058960015f9054906101000a900473ffffffffffffffffffffffffffffffffffffffff166040518363ffffffff1660e01b815260040161080e9291906132ef565b5f6040518083038186803b158015610824575f5ffd5b505afa158015610836573d5f5f3e3d5ffd5b505050506108478888838888611c14565b7f75aa3d334b0a1b779c1e0db6925f11e01a834d00a702d36524b7f40f47a49b6188828860405161087a939291906132ba565b60405180910390a1505061088c6112b4565b505050505050565b3361089e81611983565b6108a6610f8c565b336108b0816119cb565b5f83036108e9576040517f1f2a200500000000000000000000000000000000000000000000000000000000815260040160405180910390fd5b6108f1610fd0565b6108fa83611f32565b5f61090433611ac2565b111561099a57610912611909565b73ffffffffffffffffffffffffffffffffffffffff1663d3a658053360015f9054906101000a900473ffffffffffffffffffffffffffffffffffffffff166040518363ffffffff1660e01b815260040161096d9291906132ef565b5f6040518083038186803b158015610983575f5ffd5b505afa158015610995573d5f5f3e3d5ffd5b505050505b7fa8e76b822fc682be77f3b1c822ea81f6bda5aed92ba82e6873bfd889f328d1d233846040516109cb9291906133c7565b60405180910390a1506109dc6112b4565b5050565b5f336109eb81611983565b856109f5816120cb565b856109ff816120cb565b5f8603610a38576040517f1f2a200500000000000000000000000000000000000000000000000000000000815260040160405180910390fd5b8673ffffffffffffffffffffffffffffffffffffffff168873ffffffffffffffffffffffffffffffffffffffff1603610aaa5787876040517f44a401e1000000000000000000000000000000000000000000000000000000008152600401610aa19291906132ef565b60405180910390fd5b610ab2610fd0565b610abb336121bc565b73ffffffffffffffffffffffffffffffffffffffff16638c3bc0b1898989896040518563ffffffff1660e01b8152600401610af994939291906133ee565b6020604051808303815f875af1158015610b15573d5f5f3e3d5ffd5b505050506040513d601f19601f82011682018060405250810190610b399190613445565b9350610b43611909565b73ffffffffffffffffffffffffffffffffffffffff1663d3a658053360015f9054906101000a900473ffffffffffffffffffffffffffffffffffffffff166040518363ffffffff1660e01b8152600401610b9e9291906132ef565b5f6040518083038186803b158015610bb4575f5ffd5b505afa158015610bc6573d5f5f3e3d5ffd5b505050507fc665f2f5768a61c064dd66125ac01f65d2f20d35ebb13a292211bf50619d753e3389898988604051610c01959493929190613470565b60405180910390a1505050949350505050565b610c1c610f8c565b81610c26816119cb565b5f610c31838561225d565b9050610c3b610fd0565b610c4483612302565b7fb84c7ef8bee9fe7d403a64ab2705017891a18609ce1910007c1e674b7685815e848483604051610c77939291906132ba565b60405180910390a15050610c896112b4565b5050565b610c95610f8c565b5f5f5f5f5f60015f9054906101000a900473ffffffffffffffffffffffffffffffffffffffff1673ffffffffffffffffffffffffffffffffffffffff1663b83e62bf876040518263ffffffff1660e01b8152600401610cf4919061322e565b60a0604051808303815f875af1158015610d10573d5f5f3e3d5ffd5b505050506040513d601f19601f82011682018060405250810190610d3491906134c1565b94509450945094509450610d4f610d496103ad565b86612424565b8073ffffffffffffffffffffffffffffffffffffffff1663b83e62bf336040518263ffffffff1660e01b8152600401610d88919061322e565b5f604051808303815f87803b158015610d9f575f5ffd5b505af1158015610db1573d5f5f3e3d5ffd5b505050507f92ac1f3f48e8b4545dd88f35742d2f94783f5cc3a703faf7092fbbd4b2cf66a486610ddf6103ad565b610de7610441565b88888888604051610dfe9796959493929190613538565b60405180910390a15050505050610e136112b4565b50565b81610e2081611983565b610e28610f8c565b82610e32816119cb565b5f8303610e6b576040517f1f2a200500000000000000000000000000000000000000000000000000000000815260040160405180910390fd5b610e73610fd0565b610e7d8484612539565b7fcfe29c0d43878d135a747227476edb81a1a255aea285b3aa301e9d5e616539fa610ea7856121bc565b8585604051610eb8939291906135a5565b60405180910390a150610ec96112b4565b505050565b60015f9054906101000a900473ffffffffffffffffffffffffffffffffffffffff1681565b600181565b5f60015f9054906101000a900473ffffffffffffffffffffffffffffffffffffffff1673ffffffffffffffffffffffffffffffffffffffff1663c45a01556040518163ffffffff1660e01b8152600401602060405180830381865afa158015610f63573d5f5f3e3d5ffd5b505050506040513d601f19601f82011682018060405250810190610f87919061328f565b905090565b60025f5403610fc7576040517f3ee5aeb500000000000000000000000000000000000000000000000000000000815260040160405180910390fd5b60025f81905550565b60015f9054906101000a900473ffffffffffffffffffffffffffffffffffffffff1673ffffffffffffffffffffffffffffffffffffffff1663a6afed956040518163ffffffff1660e01b81526004015f604051808303815f87803b158015611036575f5ffd5b505af1158015611048573d5f5f3e3d5ffd5b50505050565b5f60015f9054906101000a900473ffffffffffffffffffffffffffffffffffffffff1673ffffffffffffffffffffffffffffffffffffffff166368fc0c9a83336040518363ffffffff1660e01b81526004016110ab9291906135da565b6020604051808303815f875af11580156110c7573d5f5f3e3d5ffd5b505050506040513d601f19601f820116820180604052508101906110eb9190613445565b9050919050565b600173ffffffffffffffffffffffffffffffffffffffff166111126103ad565b73ffffffffffffffffffffffffffffffffffffffff160361127e5760018060146101000a81548160ff02191690831515021790555061114f6104d5565b73ffffffffffffffffffffffffffffffffffffffff16632e1a7d4d826040518263ffffffff1660e01b8152600401611187919061319d565b5f604051808303815f87803b15801561119e575f5ffd5b505af11580156111b0573d5f5f3e3d5ffd5b505050505f3373ffffffffffffffffffffffffffffffffffffffff16826040516111d99061362e565b5f6040518083038185875af1925050503d805f8114611213576040519150601f19603f3d011682016040523d82523d5f602084013e611218565b606091505b505090508061125e57816040517fc39ba1a9000000000000000000000000000000000000000000000000000000008152600401611255919061319d565b60405180910390fd5b5f600160146101000a81548160ff021916908315150217905550506112b1565b6112b0338261128b6103ad565b73ffffffffffffffffffffffffffffffffffffffff166127299092919063ffffffff16565b5b50565b60015f81905550565b5f5f5f60015f9054906101000a900473ffffffffffffffffffffffffffffffffffffffff1673ffffffffffffffffffffffffffffffffffffffff166335fce80e86866040518363ffffffff1660e01b815260040161131c9291906135da565b6060604051808303815f875af1158015611338573d5f5f3e3d5ffd5b505050506040513d601f19601f8201168201806040525081019061135c9190613642565b9250925092509250925092565b5f611372610ef8565b73ffffffffffffffffffffffffffffffffffffffff1663f151e497836040518263ffffffff1660e01b81526004016113aa919061319d565b602060405180830381865afa1580156113c5573d5f5f3e3d5ffd5b505050506040513d601f19601f820116820180604052508101906113e991906136cb565b9050919050565b5f61140d825f6113fe6127a8565b6127d09092919063ffffffff16565b90505f6040518060e001604052808563ffffffff1681526020013373ffffffffffffffffffffffffffffffffffffffff165f1b815260200187815260200187815260200183815260200160405180602001604052805f815250815260200160405180602001604052805f81525081525090506114b861148a612868565b866114936103ad565b73ffffffffffffffffffffffffffffffffffffffff166127299092919063ffffffff16565b5f6114c16128e2565b73ffffffffffffffffffffffffffffffffffffffff16633b6f743b835f6040518363ffffffff1660e01b81526004016114fb929190613852565b6040805180830381865afa158015611515573d5f5f3e3d5ffd5b505050506040513d601f19601f820116820180604052508101906115399190613949565b90506115436103ad565b73ffffffffffffffffffffffffffffffffffffffff1663095ea7b36115666128e2565b896040518363ffffffff1660e01b81526004016115849291906133c7565b6020604051808303815f875af11580156115a0573d5f5f3e3d5ffd5b505050506040513d601f19601f820116820180604052508101906115c49190613988565b506115cd6128e2565b73ffffffffffffffffffffffffffffffffffffffff1663c7c7f5b3825f01518484336040518563ffffffff1660e01b815260040161160d939291906139e0565b60c06040518083038185885af1158015611629573d5f5f3e3d5ffd5b50505050506040513d601f19601f8201168201806040525081019061164e9190613b31565b505050505050505050565b600173ffffffffffffffffffffffffffffffffffffffff166116796103ad565b73ffffffffffffffffffffffffffffffffffffffff16036118995760018060146101000a81548160ff0219169083151502179055506116b66104d5565b73ffffffffffffffffffffffffffffffffffffffff16632e1a7d4d836040518263ffffffff1660e01b81526004016116ee919061319d565b5f604051808303815f87803b158015611705575f5ffd5b505af1158015611717573d5f5f3e3d5ffd5b505050505f611724612868565b73ffffffffffffffffffffffffffffffffffffffff16826040516117479061362e565b5f6040518083038185875af1925050503d805f8114611781576040519150601f19603f3d011682016040523d82523d5f602084013e611786565b606091505b5050905080156117cd57816040517fc39ba1a90000000000000000000000000000000000000000000000000000000081526004016117c4919061319d565b60405180910390fd5b5f3373ffffffffffffffffffffffffffffffffffffffff16846040516117f29061362e565b5f6040518083038185875af1925050503d805f811461182c576040519150601f19603f3d011682016040523d82523d5f602084013e611831565b606091505b50509050801561187857836040517fc39ba1a900000000000000000000000000000000000000000000000000000000815260040161186f919061319d565b60405180910390fd5b5f600160146101000a81548160ff0219169083151502179055505050611905565b6118d26118a4612868565b826118ad6103ad565b73ffffffffffffffffffffffffffffffffffffffff166127299092919063ffffffff16565b61190433836118df6103ad565b73ffffffffffffffffffffffffffffffffffffffff166127299092919063ffffffff16565b5b5050565b5f611912610ef8565b73ffffffffffffffffffffffffffffffffffffffff1663e40208046040518163ffffffff1660e01b8152600401602060405180830381865afa15801561195a573d5f5f3e3d5ffd5b505050506040513d601f19601f8201168201806040525081019061197e919061328f565b905090565b5f73ffffffffffffffffffffffffffffffffffffffff166119a3826121bc565b73ffffffffffffffffffffffffffffffffffffffff16036119c8576119c78161296e565b5b50565b6119d3610ef8565b73ffffffffffffffffffffffffffffffffffffffff16639a307391336040518263ffffffff1660e01b8152600401611a0b919061322e565b602060405180830381865afa158015611a26573d5f5f3e3d5ffd5b505050506040513d601f19601f82011682018060405250810190611a4a9190613988565b611abf578073ffffffffffffffffffffffffffffffffffffffff163373ffffffffffffffffffffffffffffffffffffffff1614611abe57336040517f4a0bfec1000000000000000000000000000000000000000000000000000000008152600401611ab5919061322e565b60405180910390fd5b5b50565b5f60015f9054906101000a900473ffffffffffffffffffffffffffffffffffffffff1673ffffffffffffffffffffffffffffffffffffffff16634fd422df836040518263ffffffff1660e01b8152600401611b1d919061322e565b602060405180830381865afa158015611b38573d5f5f3e3d5ffd5b505050506040513d601f19601f82011682018060405250810190611b5c9190613445565b9050919050565b5f5f5f5f60015f9054906101000a900473ffffffffffffffffffffffffffffffffffffffff1673ffffffffffffffffffffffffffffffffffffffff16639d058e6787876040518363ffffffff1660e01b8152600401611bc39291906135da565b6080604051808303815f875af1158015611bdf573d5f5f3e3d5ffd5b505050506040513d601f19601f82011682018060405250810190611c039190613b6f565b935093509350935092959194509250565b611c1c6103ad565b73ffffffffffffffffffffffffffffffffffffffff168473ffffffffffffffffffffffffffffffffffffffff16148015611c54575080155b15611d8957600173ffffffffffffffffffffffffffffffffffffffff16611c796103ad565b73ffffffffffffffffffffffffffffffffffffffff16148015611c9b57505f34115b15611d4f57823414611ce65734836040517ff997ccc6000000000000000000000000000000000000000000000000000000008152600401611cdd9291906133a0565b60405180910390fd5b611cee6104d5565b73ffffffffffffffffffffffffffffffffffffffff1663d0e30db0346040518263ffffffff1660e01b81526004015f604051808303818588803b158015611d33575f5ffd5b505af1158015611d45573d5f5f3e3d5ffd5b5050505050611d84565b611d83853085611d5d6103ad565b73ffffffffffffffffffffffffffffffffffffffff16612acd909392919063ffffffff16565b5b611f2b565b8015611e0657611d98856121bc565b73ffffffffffffffffffffffffffffffffffffffff1663bc4c86268585856040518463ffffffff1660e01b8152600401611dd4939291906132ba565b5f604051808303815f87803b158015611deb575f5ffd5b505af1158015611dfd573d5f5f3e3d5ffd5b50505050611f2a565b611e338530858773ffffffffffffffffffffffffffffffffffffffff16612acd909392919063ffffffff16565b8373ffffffffffffffffffffffffffffffffffffffff1663095ea7b3611e58876121bc565b856040518363ffffffff1660e01b8152600401611e769291906133c7565b6020604051808303815f875af1158015611e92573d5f5f3e3d5ffd5b505050506040513d601f19601f82011682018060405250810190611eb69190613988565b50611ec0856121bc565b73ffffffffffffffffffffffffffffffffffffffff16631fc14d5b8585856040518463ffffffff1660e01b8152600401611efc939291906132ba565b5f604051808303815f87803b158015611f13575f5ffd5b505af1158015611f25573d5f5f3e3d5ffd5b505050505b5b5050505050565b5f611f3b610441565b90505f600173ffffffffffffffffffffffffffffffffffffffff168273ffffffffffffffffffffffffffffffffffffffff1614611f785781611f81565b611f806104d5565b5b90505f8173ffffffffffffffffffffffffffffffffffffffff166370a08231611fa9336121bc565b6040518263ffffffff1660e01b8152600401611fc5919061322e565b602060405180830381865afa158015611fe0573d5f5f3e3d5ffd5b505050506040513d601f19601f820116820180604052508101906120049190613445565b90508084111561204d5783816040517fb07e3bc40000000000000000000000000000000000000000000000000000000081526004016120449291906133a0565b60405180910390fd5b612055610fd0565b61205e336121bc565b73ffffffffffffffffffffffffffffffffffffffff16630af504cc85336040518363ffffffff1660e01b81526004016120989291906135da565b5f604051808303815f87803b1580156120af575f5ffd5b505af11580156120c1573d5f5f3e3d5ffd5b5050505050505050565b5f73ffffffffffffffffffffffffffffffffffffffff166120ea612b4f565b73ffffffffffffffffffffffffffffffffffffffff16639878cbb3836040518263ffffffff1660e01b8152600401612122919061322e565b602060405180830381865afa15801561213d573d5f5f3e3d5ffd5b505050506040513d601f19601f82011682018060405250810190612161919061328f565b73ffffffffffffffffffffffffffffffffffffffff16036121b957806040517f1ab523340000000000000000000000000000000000000000000000000000000081526004016121b0919061322e565b60405180910390fd5b50565b5f60015f9054906101000a900473ffffffffffffffffffffffffffffffffffffffff1673ffffffffffffffffffffffffffffffffffffffff1663f79c3800836040518263ffffffff1660e01b8152600401612217919061322e565b602060405180830381865afa158015612232573d5f5f3e3d5ffd5b505050506040513d601f19601f82011682018060405250810190612256919061328f565b9050919050565b5f60015f9054906101000a900473ffffffffffffffffffffffffffffffffffffffff1673ffffffffffffffffffffffffffffffffffffffff166311d9dbd384846040518363ffffffff1660e01b81526004016122ba9291906135da565b6020604051808303815f875af11580156122d6573d5f5f3e3d5ffd5b505050506040513d601f19601f820116820180604052508101906122fa9190613445565b905092915050565b600173ffffffffffffffffffffffffffffffffffffffff166123226103ad565b73ffffffffffffffffffffffffffffffffffffffff16036123ec578034146123835734816040517fe65fd68d00000000000000000000000000000000000000000000000000000000815260040161237a9291906133a0565b60405180910390fd5b61238b6104d5565b73ffffffffffffffffffffffffffffffffffffffff1663d0e30db0826040518263ffffffff1660e01b81526004015f604051808303818588803b1580156123d0575f5ffd5b505af11580156123e2573d5f5f3e3d5ffd5b5050505050612421565b6124203330836123fa6103ad565b73ffffffffffffffffffffffffffffffffffffffff16612acd909392919063ffffffff16565b5b50565b600173ffffffffffffffffffffffffffffffffffffffff168273ffffffffffffffffffffffffffffffffffffffff16036125075780341461249e5734816040517f7a3f44dc0000000000000000000000000000000000000000000000000000000081526004016124959291906133a0565b60405180910390fd5b6124a66104d5565b73ffffffffffffffffffffffffffffffffffffffff1663d0e30db0346040518263ffffffff1660e01b81526004015f604051808303818588803b1580156124eb575f5ffd5b505af11580156124fd573d5f5f3e3d5ffd5b5050505050612535565b6125343330838573ffffffffffffffffffffffffffffffffffffffff16612acd909392919063ffffffff16565b5b5050565b600173ffffffffffffffffffffffffffffffffffffffff16612559610441565b73ffffffffffffffffffffffffffffffffffffffff16036126e8578034146125ba5734816040517f430ed2960000000000000000000000000000000000000000000000000000000081526004016125b19291906133a0565b60405180910390fd5b6125c26104d5565b73ffffffffffffffffffffffffffffffffffffffff1663d0e30db0346040518263ffffffff1660e01b81526004015f604051808303818588803b158015612607575f5ffd5b505af1158015612619573d5f5f3e3d5ffd5b50505050506126266104d5565b73ffffffffffffffffffffffffffffffffffffffff1663095ea7b361264a846121bc565b836040518363ffffffff1660e01b81526004016126689291906133c7565b6020604051808303815f875af1158015612684573d5f5f3e3d5ffd5b505050506040513d601f19601f820116820180604052508101906126a89190613988565b506126e36126b5836121bc565b826126be6104d5565b73ffffffffffffffffffffffffffffffffffffffff166127299092919063ffffffff16565b612725565b612724826126f5846121bc565b836126fe610441565b73ffffffffffffffffffffffffffffffffffffffff16612acd909392919063ffffffff16565b5b5050565b6127a3838473ffffffffffffffffffffffffffffffffffffffff1663a9059cbb858560405160240161275c9291906133c7565b604051602081830303815290604052915060e01b6020820180517bffffffffffffffffffffffffffffffffffffffffffffffffffffffff8381831617835250505050612bc9565b505050565b606060036040516020016127bc9190613c14565b604051602081830303815290604052905090565b606083600361ffff166127ec5f83612c6490919063ffffffff16565b61ffff1614612844576128085f82612c6490919063ffffffff16565b6040517f3a51740d00000000000000000000000000000000000000000000000000000000815260040161283b9190613c3d565b60405180910390fd5b5f61284f8585612cc9565b905061285d86600183612d34565b925050509392505050565b5f612871610ef8565b73ffffffffffffffffffffffffffffffffffffffff16638ce744266040518163ffffffff1660e01b8152600401602060405180830381865afa1580156128b9573d5f5f3e3d5ffd5b505050506040513d601f19601f820116820180604052508101906128dd919061328f565b905090565b5f6128eb610ef8565b73ffffffffffffffffffffffffffffffffffffffff1663efe1b2cd61290e6103ad565b6040518263ffffffff1660e01b815260040161292a919061322e565b602060405180830381865afa158015612945573d5f5f3e3d5ffd5b505050506040513d601f19601f82011682018060405250810190612969919061328f565b905090565b5f73ffffffffffffffffffffffffffffffffffffffff1661298e826121bc565b73ffffffffffffffffffffffffffffffffffffffff16146129ee576129b2816121bc565b6040517f5951739c0000000000000000000000000000000000000000000000000000000081526004016129e5919061322e565b60405180910390fd5b60015f9054906101000a900473ffffffffffffffffffffffffffffffffffffffff1673ffffffffffffffffffffffffffffffffffffffff1663f7e0ebf6826040518263ffffffff1660e01b8152600401612a48919061322e565b6020604051808303815f875af1158015612a64573d5f5f3e3d5ffd5b505050506040513d601f19601f82011682018060405250810190612a88919061328f565b507fcc3763c1c0784da97ef19dc776e12897dc1cfba3c2cab71b208490e993ba569481612ab4836121bc565b604051612ac29291906132ef565b60405180910390a150565b612b49848573ffffffffffffffffffffffffffffffffffffffff166323b872dd868686604051602401612b02939291906135a5565b604051602081830303815290604052915060e01b6020820180517bffffffffffffffffffffffffffffffffffffffffffffffffffffffff8381831617835250505050612bc9565b50505050565b5f612b58610ef8565b73ffffffffffffffffffffffffffffffffffffffff166375b568a66040518163ffffffff1660e01b8152600401602060405180830381865afa158015612ba0573d5f5f3e3d5ffd5b505050506040513d601f19601f82011682018060405250810190612bc4919061328f565b905090565b5f5f60205f8451602086015f885af180612be8576040513d5f823e3d81fd5b3d92505f519150505f8214612c01576001811415612c1c565b5f8473ffffffffffffffffffffffffffffffffffffffff163b145b15612c5e57836040517f5274afe7000000000000000000000000000000000000000000000000000000008152600401612c55919061322e565b60405180910390fd5b50505050565b5f600282612c729190613c83565b83511015612cb5576040517f08c379a0000000000000000000000000000000000000000000000000000000008152600401612cac90613d00565b60405180910390fd5b5f8260028501015190508091505092915050565b60605f826fffffffffffffffffffffffffffffffff1614612d0b578282604051602001612cf7929190613d52565b604051602081830303815290604052612d2c565b82604051602001612d1c9190613d7d565b6040516020818303038152906040525b905092915050565b606083600361ffff16612d505f83612c6490919063ffffffff16565b61ffff1614612da857612d6c5f82612c6490919063ffffffff16565b6040517f3a51740d000000000000000000000000000000000000000000000000000000008152600401612d9f9190613c3d565b60405180910390fd5b84600180612db68651612def565b612dc09190613d97565b8686604051602001612dd6959493929190613e30565b6040516020818303038152906040529150509392505050565b5f61ffff8016821115612e3c576010826040517f6dfcc650000000000000000000000000000000000000000000000000000000008152600401612e33929190613ebf565b60405180910390fd5b819050919050565b5f82825260208201905092915050565b7f556e6578706563746564206e617469766520746f6b656e0000000000000000005f82015250565b5f612e88601783612e44565b9150612e9382612e54565b602082019050919050565b5f6020820190508181035f830152612eb581612e7c565b9050919050565b7f46616c6c6261636b206e6f7420616c6c6f7765640000000000000000000000005f82015250565b5f612ef0601483612e44565b9150612efb82612ebc565b602082019050919050565b5f6020820190508181035f830152612f1d81612ee4565b9050919050565b5f604051905090565b5f5ffd5b5f819050919050565b612f4381612f31565b8114612f4d575f5ffd5b50565b5f81359050612f5e81612f3a565b92915050565b5f60208284031215612f7957612f78612f2d565b5b5f612f8684828501612f50565b91505092915050565b5f6fffffffffffffffffffffffffffffffff82169050919050565b612fb381612f8f565b8114612fbd575f5ffd5b50565b5f81359050612fce81612faa565b92915050565b5f5f5f60608486031215612feb57612fea612f2d565b5b5f612ff886828701612f50565b935050602061300986828701612f50565b925050604061301a86828701612fc0565b9150509250925092565b5f73ffffffffffffffffffffffffffffffffffffffff82169050919050565b5f61304d82613024565b9050919050565b61305d81613043565b8114613067575f5ffd5b50565b5f8135905061307881613054565b92915050565b5f8115159050919050565b6130928161307e565b811461309c575f5ffd5b50565b5f813590506130ad81613089565b92915050565b5f5f5f5f5f60a086880312156130cc576130cb612f2d565b5b5f6130d98882890161306a565b95505060206130ea8882890161306a565b94505060406130fb88828901612f50565b935050606061310c88828901612f50565b925050608061311d8882890161309f565b9150509295509295909350565b5f5f5f5f6080858703121561314257613141612f2d565b5b5f61314f8782880161306a565b94505060206131608782880161306a565b935050604061317187828801612f50565b925050606061318287828801612f50565b91505092959194509250565b61319781612f31565b82525050565b5f6020820190506131b05f83018461318e565b92915050565b5f5f604083850312156131cc576131cb612f2d565b5b5f6131d98582860161306a565b92505060206131ea85828601612f50565b9150509250929050565b5f6020828403121561320957613208612f2d565b5b5f6132168482850161306a565b91505092915050565b61322881613043565b82525050565b5f6020820190506132415f83018461321f565b92915050565b5f60ff82169050919050565b61325c81613247565b82525050565b5f6020820190506132755f830184613253565b92915050565b5f8151905061328981613054565b92915050565b5f602082840312156132a4576132a3612f2d565b5b5f6132b18482850161327b565b91505092915050565b5f6060820190506132cd5f83018661321f565b6132da602083018561318e565b6132e7604083018461318e565b949350505050565b5f6040820190506133025f83018561321f565b61330f602083018461321f565b9392505050565b5f819050919050565b5f61333961333461332f84612f8f565b613316565b612f31565b9050919050565b6133498161331f565b82525050565b5f60a0820190506133625f83018861321f565b61336f602083018761318e565b61337c604083018661318e565b613389606083018561318e565b6133966080830184613340565b9695505050505050565b5f6040820190506133b35f83018561318e565b6133c0602083018461318e565b9392505050565b5f6040820190506133da5f83018561321f565b6133e7602083018461318e565b9392505050565b5f6080820190506134015f83018761321f565b61340e602083018661321f565b61341b604083018561318e565b613428606083018461318e565b95945050505050565b5f8151905061343f81612f3a565b92915050565b5f6020828403121561345a57613459612f2d565b5b5f61346784828501613431565b91505092915050565b5f60a0820190506134835f83018861321f565b613490602083018761321f565b61349d604083018661321f565b6134aa606083018561318e565b6134b7608083018461318e565b9695505050505050565b5f5f5f5f5f60a086880312156134da576134d9612f2d565b5b5f6134e788828901613431565b95505060206134f888828901613431565b945050604061350988828901613431565b935050606061351a88828901613431565b925050608061352b8882890161327b565b9150509295509295909350565b5f60e08201905061354b5f83018a61321f565b613558602083018961321f565b613565604083018861321f565b613572606083018761318e565b61357f608083018661318e565b61358c60a083018561318e565b61359960c083018461318e565b98975050505050505050565b5f6060820190506135b85f83018661321f565b6135c5602083018561321f565b6135d2604083018461318e565b949350505050565b5f6040820190506135ed5f83018561318e565b6135fa602083018461321f565b9392505050565b5f81905092915050565b50565b5f6136195f83613601565b91506136248261360b565b5f82019050919050565b5f6136388261360e565b9150819050919050565b5f5f5f6060848603121561365957613658612f2d565b5b5f61366686828701613431565b935050602061367786828701613431565b925050604061368886828701613431565b9150509250925092565b5f63ffffffff82169050919050565b6136aa81613692565b81146136b4575f5ffd5b50565b5f815190506136c5816136a1565b92915050565b5f602082840312156136e0576136df612f2d565b5b5f6136ed848285016136b7565b91505092915050565b6136ff81613692565b82525050565b5f819050919050565b61371781613705565b82525050565b61372681612f31565b82525050565b5f81519050919050565b5f82825260208201905092915050565b8281835e5f83830152505050565b5f601f19601f8301169050919050565b5f61376e8261372c565b6137788185613736565b9350613788818560208601613746565b61379181613754565b840191505092915050565b5f60e083015f8301516137b15f8601826136f6565b5060208301516137c4602086018261370e565b5060408301516137d7604086018261371d565b5060608301516137ea606086018261371d565b50608083015184820360808601526138028282613764565b91505060a083015184820360a086015261381c8282613764565b91505060c083015184820360c08601526138368282613764565b9150508091505092915050565b61384c8161307e565b82525050565b5f6040820190508181035f83015261386a818561379c565b90506138796020830184613843565b9392505050565b5f5ffd5b7f4e487b71000000000000000000000000000000000000000000000000000000005f52604160045260245ffd5b6138ba82613754565b810181811067ffffffffffffffff821117156138d9576138d8613884565b5b80604052505050565b5f6138eb612f24565b90506138f782826138b1565b919050565b5f6040828403121561391157613910613880565b5b61391b60406138e2565b90505f61392a84828501613431565b5f83015250602061393d84828501613431565b60208301525092915050565b5f6040828403121561395e5761395d612f2d565b5b5f61396b848285016138fc565b91505092915050565b5f8151905061398281613089565b92915050565b5f6020828403121561399d5761399c612f2d565b5b5f6139aa84828501613974565b91505092915050565b604082015f8201516139c75f85018261371d565b5060208201516139da602085018261371d565b50505050565b5f6080820190508181035f8301526139f8818661379c565b9050613a0760208301856139b3565b613a14606083018461321f565b949350505050565b613a2581613705565b8114613a2f575f5ffd5b50565b5f81519050613a4081613a1c565b92915050565b5f67ffffffffffffffff82169050919050565b613a6281613a46565b8114613a6c575f5ffd5b50565b5f81519050613a7d81613a59565b92915050565b5f60808284031215613a9857613a97613880565b5b613aa260606138e2565b90505f613ab184828501613a32565b5f830152506020613ac484828501613a6f565b6020830152506040613ad8848285016138fc565b60408301525092915050565b5f60408284031215613af957613af8613880565b5b613b0360406138e2565b90505f613b1284828501613431565b5f830152506020613b2584828501613431565b60208301525092915050565b5f5f60c08385031215613b4757613b46612f2d565b5b5f613b5485828601613a83565b9250506080613b6585828601613ae4565b9150509250929050565b5f5f5f5f60808587031215613b8757613b86612f2d565b5b5f613b9487828801613431565b9450506020613ba587828801613431565b9350506040613bb687828801613431565b9250506060613bc787828801613431565b91505092959194509250565b5f61ffff82169050919050565b5f8160f01b9050919050565b5f613bf682613be0565b9050919050565b613c0e613c0982613bd3565b613bec565b82525050565b5f613c1f8284613bfd565b60028201915081905092915050565b613c3781613bd3565b82525050565b5f602082019050613c505f830184613c2e565b92915050565b7f4e487b71000000000000000000000000000000000000000000000000000000005f52601160045260245ffd5b5f613c8d82612f31565b9150613c9883612f31565b9250828201905080821115613cb057613caf613c56565b5b92915050565b7f746f55696e7431365f6f75744f66426f756e64730000000000000000000000005f82015250565b5f613cea601483612e44565b9150613cf582613cb6565b602082019050919050565b5f6020820190508181035f830152613d1781613cde565b9050919050565b5f8160801b9050919050565b5f613d3482613d1e565b9050919050565b613d4c613d4782612f8f565b613d2a565b82525050565b5f613d5d8285613d3b565b601082019150613d6d8284613d3b565b6010820191508190509392505050565b5f613d888284613d3b565b60108201915081905092915050565b5f613da182613bd3565b9150613dac83613bd3565b9250828201905061ffff811115613dc657613dc5613c56565b5b92915050565b5f613dd68261372c565b613de08185613601565b9350613df0818560208601613746565b80840191505092915050565b5f8160f81b9050919050565b5f613e1282613dfc565b9050919050565b613e2a613e2582613247565b613e08565b82525050565b5f613e3b8288613dcc565b9150613e478287613e19565b600182019150613e578286613bfd565b600282019150613e678285613e19565b600182019150613e778284613dcc565b91508190509695505050505050565b5f819050919050565b5f613ea9613ea4613e9f84613e86565b613316565b613247565b9050919050565b613eb981613e8f565b82525050565b5f604082019050613ed25f830185613eb0565b613edf602083018461318e565b939250505056fea26469706673582212203c201dd2f0498c32f6f22054947e6428e816604368a783e22b9da81d5c0091d964736f6c634300081e0033","linkReferences":{}},"methodIdentifiers":{"VERSION()":"ffa1ad74","borrowDebt(uint256,uint256,uint128)":"456ed804","liquidation(address)":"b83e62bf","repayWithSelectedToken(address,address,uint256,uint256,bool)":"557c3b3a","router()":"f887ea40","supplyCollateral(address,uint256)":"d2a8607b","supplyLiquidity(address,uint256)":"b39e3771","swapTokenByPosition(address,address,uint256,uint256)":"8c3bc0b1","withdrawCollateral(uint256)":"6112fe2e","withdrawLiquidity(uint256)":"0a861f2a"},"id":98}