{"abi":[{"type":"constructor","inputs":[{"name":"_router","type":"address","internalType":"address"}],"stateMutability":"nonpayable"},{"type":"fallback","stateMutability":"payable"},{"type":"receive","stateMutability":"payable"},{"type":"function","name":"borrowDebt","inputs":[{"name":"_amount","type":"uint256","internalType":"uint256"},{"name":"_chainId","type":"uint256","internalType":"uint256"},{"name":"_dstEid","type":"uint32","internalType":"uint32"},{"name":"_addExecutorLzReceiveOption","type":"uint128","internalType":"uint128"}],"outputs":[],"stateMutability":"payable"},{"type":"function","name":"checkLiquidation","inputs":[{"name":"borrower","type":"address","internalType":"address"}],"outputs":[{"name":"isLiquidatable","type":"bool","internalType":"bool"},{"name":"borrowValue","type":"uint256","internalType":"uint256"},{"name":"collateralValue","type":"uint256","internalType":"uint256"}],"stateMutability":"view"},{"type":"function","name":"liquidateByDEX","inputs":[{"name":"borrower","type":"address","internalType":"address"},{"name":"liquidationIncentive","type":"uint256","internalType":"uint256"}],"outputs":[{"name":"liquidatedAmount","type":"uint256","internalType":"uint256"}],"stateMutability":"nonpayable"},{"type":"function","name":"liquidateByMEV","inputs":[{"name":"borrower","type":"address","internalType":"address"},{"name":"repayAmount","type":"uint256","internalType":"uint256"},{"name":"liquidationIncentive","type":"uint256","internalType":"uint256"}],"outputs":[],"stateMutability":"payable"},{"type":"function","name":"repayWithSelectedToken","inputs":[{"name":"shares","type":"uint256","internalType":"uint256"},{"name":"_token","type":"address","internalType":"address"},{"name":"_fromPosition","type":"bool","internalType":"bool"},{"name":"_user","type":"address","internalType":"address"}],"outputs":[],"stateMutability":"payable"},{"type":"function","name":"router","inputs":[],"outputs":[{"name":"","type":"address","internalType":"address"}],"stateMutability":"view"},{"type":"function","name":"supplyCollateral","inputs":[{"name":"_amount","type":"uint256","internalType":"uint256"},{"name":"_user","type":"address","internalType":"address"}],"outputs":[],"stateMutability":"payable"},{"type":"function","name":"supplyLiquidity","inputs":[{"name":"_user","type":"address","internalType":"address"},{"name":"_amount","type":"uint256","internalType":"uint256"}],"outputs":[],"stateMutability":"payable"},{"type":"function","name":"withdrawCollateral","inputs":[{"name":"_amount","type":"uint256","internalType":"uint256"}],"outputs":[],"stateMutability":"nonpayable"},{"type":"function","name":"withdrawLiquidity","inputs":[{"name":"_shares","type":"uint256","internalType":"uint256"}],"outputs":[],"stateMutability":"payable"},{"type":"event","name":"BorrowDebtCrosschain","inputs":[{"name":"user","type":"address","indexed":false,"internalType":"address"},{"name":"amount","type":"uint256","indexed":false,"internalType":"uint256"},{"name":"shares","type":"uint256","indexed":false,"internalType":"uint256"},{"name":"chainId","type":"uint256","indexed":false,"internalType":"uint256"},{"name":"addExecutorLzReceiveOption","type":"uint256","indexed":false,"internalType":"uint256"}],"anonymous":false},{"type":"event","name":"CreatePosition","inputs":[{"name":"user","type":"address","indexed":false,"internalType":"address"},{"name":"positionAddress","type":"address","indexed":false,"internalType":"address"}],"anonymous":false},{"type":"event","name":"InterestRateModelSet","inputs":[{"name":"oldModel","type":"address","indexed":true,"internalType":"address"},{"name":"newModel","type":"address","indexed":true,"internalType":"address"}],"anonymous":false},{"type":"event","name":"RepayByPosition","inputs":[{"name":"user","type":"address","indexed":false,"internalType":"address"},{"name":"amount","type":"uint256","indexed":false,"internalType":"uint256"},{"name":"shares","type":"uint256","indexed":false,"internalType":"uint256"}],"anonymous":false},{"type":"event","name":"SupplyCollateral","inputs":[{"name":"user","type":"address","indexed":false,"internalType":"address"},{"name":"amount","type":"uint256","indexed":false,"internalType":"uint256"}],"anonymous":false},{"type":"event","name":"SupplyLiquidity","inputs":[{"name":"user","type":"address","indexed":false,"internalType":"address"},{"name":"amount","type":"uint256","indexed":false,"internalType":"uint256"},{"name":"shares","type":"uint256","indexed":false,"internalType":"uint256"}],"anonymous":false},{"type":"event","name":"WithdrawLiquidity","inputs":[{"name":"user","type":"address","indexed":false,"internalType":"address"},{"name":"amount","type":"uint256","indexed":false,"internalType":"uint256"},{"name":"shares","type":"uint256","indexed":false,"internalType":"uint256"}],"anonymous":false},{"type":"error","name":"InsufficientBorrowShares","inputs":[]},{"type":"error","name":"InsufficientCollateral","inputs":[]},{"type":"error","name":"InsufficientContractBalance","inputs":[]},{"type":"error","name":"InsufficientLiquidity","inputs":[]},{"type":"error","name":"InsufficientShares","inputs":[]},{"type":"error","name":"InvalidOptionType","inputs":[{"name":"optionType","type":"uint16","internalType":"uint16"}]},{"type":"error","name":"InvalidParameter","inputs":[]},{"type":"error","name":"LTVExceedMaxAmount","inputs":[]},{"type":"error","name":"NotAuthorized","inputs":[{"name":"executor","type":"address","internalType":"address"}]},{"type":"error","name":"NotOperator","inputs":[]},{"type":"error","name":"PositionAlreadyCreated","inputs":[]},{"type":"error","name":"ReentrancyGuardReentrantCall","inputs":[]},{"type":"error","name":"SafeCastOverflowedUintDowncast","inputs":[{"name":"bits","type":"uint8","internalType":"uint8"},{"name":"value","type":"uint256","internalType":"uint256"}]},{"type":"error","name":"SafeERC20FailedOperation","inputs":[{"name":"token","type":"address","internalType":"address"}]},{"type":"error","name":"TokenNotAvailable","inputs":[]},{"type":"error","name":"TransferFailed","inputs":[]},{"type":"error","name":"ZeroAmount","inputs":[]},{"type":"error","name":"amountSharesInvalid","inputs":[]}],"bytecode":{"object":"0x608060405234801561000f575f5ffd5b50604051613c8a380380613c8a833981810160405281019061003191906100dc565b60015f819055508060015f6101000a81548173ffffffffffffffffffffffffffffffffffffffff021916908373ffffffffffffffffffffffffffffffffffffffff16021790555050610107565b5f5ffd5b5f73ffffffffffffffffffffffffffffffffffffffff82169050919050565b5f6100ab82610082565b9050919050565b6100bb816100a1565b81146100c5575f5ffd5b50565b5f815190506100d6816100b2565b92915050565b5f602082840312156100f1576100f061007e565b5b5f6100fe848285016100c8565b91505092915050565b613b76806101145f395ff3fe608060405260043610610094575f3560e01c80636112fe2e116100585780636112fe2e1461025557806362c5f6c71461027d578063a274f4ac14610299578063b39e3771146102d7578063f887ea40146102f357610121565b80630a861f2a146101a9578063141b0c4c146101c55780631e686065146101e15780632392478c146101fd5780633f7a1a7e1461021957610121565b36610121575f341180156100b55750600160149054906101000a900460ff16155b1561011f576100c261031d565b73ffffffffffffffffffffffffffffffffffffffff1663d0e30db0346040518263ffffffff1660e01b81526004015f604051808303818588803b158015610107575f5ffd5b505af1158015610119573d5f5f3e3d5ffd5b50505050505b005b5f3411801561013d5750600160149054906101000a900460ff16155b156101a75761014a61031d565b73ffffffffffffffffffffffffffffffffffffffff1663d0e30db0346040518263ffffffff1660e01b81526004015f604051808303818588803b15801561018f575f5ffd5b505af11580156101a1573d5f5f3e3d5ffd5b50505050505b005b6101c360048036038101906101be9190612bba565b610397565b005b6101df60048036038101906101da9190612c3f565b6105ac565b005b6101fb60048036038101906101f69190612cc4565b610665565b005b61021760048036038101906102129190612da6565b610939565b005b348015610224575f5ffd5b5061023f600480360381019061023a9190612e0a565b61118c565b60405161024c9190612e57565b60405180910390f35b348015610260575f5ffd5b5061027b60048036038101906102769190612bba565b611258565b005b61029760048036038101906102929190612e70565b61162b565b005b3480156102a4575f5ffd5b506102bf60048036038101906102ba9190612eae565b6118ae565b6040516102ce93929190612ee8565b60405180910390f35b6102f160048036038101906102ec9190612e0a565b6119ed565b005b3480156102fe575f5ffd5b50610307611b6f565b6040516103149190612f2c565b60405180910390f35b5f610326611b94565b73ffffffffffffffffffffffffffffffffffffffff1663145d51d86040518163ffffffff1660e01b8152600401602060405180830381865afa15801561036e573d5f5f3e3d5ffd5b505050506040513d601f19601f820116820180604052508101906103929190612f59565b905090565b61039f611c28565b5f6103a982611c6c565b90505f600173ffffffffffffffffffffffffffffffffffffffff166103cc611d10565b73ffffffffffffffffffffffffffffffffffffffff1614905080156105315760018060146101000a81548160ff02191690831515021790555061040d61031d565b73ffffffffffffffffffffffffffffffffffffffff16632e1a7d4d836040518263ffffffff1660e01b81526004016104459190612e57565b5f604051808303815f87803b15801561045c575f5ffd5b505af115801561046e573d5f5f3e3d5ffd5b505050505f3373ffffffffffffffffffffffffffffffffffffffff168360405161049790612fb1565b5f6040518083038185875af1925050503d805f81146104d1576040519150601f19603f3d011682016040523d82523d5f602084013e6104d6565b606091505b5050905080610511576040517f90b8ec1800000000000000000000000000000000000000000000000000000000815260040160405180910390fd5b5f600160146101000a81548160ff02191690831515021790555050610564565b610563338361053e611d10565b73ffffffffffffffffffffffffffffffffffffffff16611da49092919063ffffffff16565b5b7fac927268ea9ae2e55027e6ab727fc2db8e3ea48c56c658223a1074567e4298c033838560405161059793929190612fc5565b60405180910390a150506105a9611e23565b50565b6105b4611c28565b5f6105bd611e2c565b90508073ffffffffffffffffffffffffffffffffffffffff166322c32aa7348660015f9054906101000a900473ffffffffffffffffffffffffffffffffffffffff16610607611b94565b88886040518763ffffffff1660e01b8152600401610629959493929190612ffa565b5f604051808303818588803b158015610640575f5ffd5b505af1158015610652573d5f5f3e3d5ffd5b505050505050610660611e23565b505050565b8061066f81611ea6565b610677611c28565b8161068181611eee565b5f86036106ba576040517f1f2a200500000000000000000000000000000000000000000000000000000000815260040160405180910390fd5b6106c383611fe5565b8611156106fc576040517f9a260b2600000000000000000000000000000000000000000000000000000000815260040160405180910390fd5b610704612086565b5f61070f8785612104565b505050905061071c611d10565b73ffffffffffffffffffffffffffffffffffffffff168673ffffffffffffffffffffffffffffffffffffffff16148015610754575084155b1561087c57600173ffffffffffffffffffffffffffffffffffffffff16610779611d10565b73ffffffffffffffffffffffffffffffffffffffff1614801561079b57505f34115b15610842578034146107d9576040517f3a23d82500000000000000000000000000000000000000000000000000000000815260040160405180910390fd5b6107e161031d565b73ffffffffffffffffffffffffffffffffffffffff1663d0e30db0346040518263ffffffff1660e01b81526004015f604051808303818588803b158015610826575f5ffd5b505af1158015610838573d5f5f3e3d5ffd5b5050505050610877565b610876843083610850611d10565b73ffffffffffffffffffffffffffffffffffffffff166121b5909392919063ffffffff16565b5b6108ed565b61088584612237565b73ffffffffffffffffffffffffffffffffffffffff16639d058e6782886040518363ffffffff1660e01b81526004016108bf92919061304b565b5f604051808303815f87803b1580156108d6575f5ffd5b505af11580156108e8573d5f5f3e3d5ffd5b505050505b7f75aa3d334b0a1b779c1e0db6925f11e01a834d00a702d36524b7f40f47a49b6184828960405161092093929190612fc5565b60405180910390a15050610932611e23565b5050505050565b610941611c28565b610949612086565b5f5f5f61095687336122d8565b925092509250468614610ed2575f610980855f610971612384565b6123ac9092919063ffffffff16565b90505f6040518060e001604052808863ffffffff1681526020013373ffffffffffffffffffffffffffffffffffffffff165f1b815260200185815260200185815260200183815260200160405180602001604052805f815250815260200160405180602001604052805f8152508152509050600173ffffffffffffffffffffffffffffffffffffffff16610a12611d10565b73ffffffffffffffffffffffffffffffffffffffff1603610c7e57610a66610a38612444565b86610a4161031d565b73ffffffffffffffffffffffffffffffffffffffff16611da49092919063ffffffff16565b5f610a6f611b94565b73ffffffffffffffffffffffffffffffffffffffff1663efe1b2cd610a92611d10565b6040518263ffffffff1660e01b8152600401610aae9190612f2c565b602060405180830381865afa158015610ac9573d5f5f3e3d5ffd5b505050506040513d601f19601f82011682018060405250810190610aed9190612f59565b90505f819050610afb61031d565b73ffffffffffffffffffffffffffffffffffffffff1663095ea7b383886040518363ffffffff1660e01b8152600401610b35929190613072565b6020604051808303815f875af1158015610b51573d5f5f3e3d5ffd5b505050506040513d601f19601f82011682018060405250810190610b7591906130ad565b505f8173ffffffffffffffffffffffffffffffffffffffff16633b6f743b855f6040518363ffffffff1660e01b8152600401610bb2929190613225565b6040805180830381865afa158015610bcc573d5f5f3e3d5ffd5b505050506040513d601f19601f82011682018060405250810190610bf09190613330565b90508173ffffffffffffffffffffffffffffffffffffffff1663c7c7f5b3825f01518684336040518563ffffffff1660e01b8152600401610c3393929190613388565b60c06040518083038185885af1158015610c4f573d5f5f3e3d5ffd5b50505050506040513d601f19601f82011682018060405250810190610c7491906134d9565b5050505050610ecb565b610cb7610c89612444565b86610c92611d10565b73ffffffffffffffffffffffffffffffffffffffff16611da49092919063ffffffff16565b5f610cc0611b94565b73ffffffffffffffffffffffffffffffffffffffff1663efe1b2cd610ce3611d10565b6040518263ffffffff1660e01b8152600401610cff9190612f2c565b602060405180830381865afa158015610d1a573d5f5f3e3d5ffd5b505050506040513d601f19601f82011682018060405250810190610d3e9190612f59565b90505f819050610d4c611d10565b73ffffffffffffffffffffffffffffffffffffffff1663095ea7b383886040518363ffffffff1660e01b8152600401610d86929190613072565b6020604051808303815f875af1158015610da2573d5f5f3e3d5ffd5b505050506040513d601f19601f82011682018060405250810190610dc691906130ad565b505f8173ffffffffffffffffffffffffffffffffffffffff16633b6f743b855f6040518363ffffffff1660e01b8152600401610e03929190613225565b6040805180830381865afa158015610e1d573d5f5f3e3d5ffd5b505050506040513d601f19601f82011682018060405250810190610e419190613330565b90508173ffffffffffffffffffffffffffffffffffffffff1663c7c7f5b3825f01518684336040518563ffffffff1660e01b8152600401610e8493929190613388565b60c06040518083038185885af1158015610ea0573d5f5f3e3d5ffd5b50505050506040513d601f19601f82011682018060405250810190610ec591906134d9565b50505050505b505061113c565b600173ffffffffffffffffffffffffffffffffffffffff16610ef2611d10565b73ffffffffffffffffffffffffffffffffffffffff16036110cf5760018060146101000a81548160ff021916908315150217905550610f2f61031d565b73ffffffffffffffffffffffffffffffffffffffff16632e1a7d4d886040518263ffffffff1660e01b8152600401610f679190612e57565b5f604051808303815f87803b158015610f7e575f5ffd5b505af1158015610f90573d5f5f3e3d5ffd5b505050505f610f9d612444565b73ffffffffffffffffffffffffffffffffffffffff1684604051610fc090612fb1565b5f6040518083038185875af1925050503d805f8114610ffa576040519150601f19603f3d011682016040523d82523d5f602084013e610fff565b606091505b505090505f3373ffffffffffffffffffffffffffffffffffffffff168460405161102890612fb1565b5f6040518083038185875af1925050503d805f8114611062576040519150601f19603f3d011682016040523d82523d5f602084013e611067565b606091505b5050905081158015611077575080155b156110ae576040517f90b8ec1800000000000000000000000000000000000000000000000000000000815260040160405180910390fd5b5f600160146101000a81548160ff021916908315150217905550505061113b565b6111086110da612444565b846110e3611d10565b73ffffffffffffffffffffffffffffffffffffffff16611da49092919063ffffffff16565b61113a3383611115611d10565b73ffffffffffffffffffffffffffffffffffffffff16611da49092919063ffffffff16565b5b5b7f66dd7e4c61f4b443be99281efbece3ebc180e5557480604aea7608ff6f0ff1e23388838988604051611173959493929190613550565b60405180910390a1505050611186611e23565b50505050565b5f611195611c28565b5f61119e611e2c565b90508073ffffffffffffffffffffffffffffffffffffffff1663630cbcc18560015f9054906101000a900473ffffffffffffffffffffffffffffffffffffffff166111e7611b94565b876040518563ffffffff1660e01b815260040161120794939291906135a1565b6020604051808303815f875af1158015611223573d5f5f3e3d5ffd5b505050506040513d601f19601f8201168201806040525081019061124791906135e4565b915050611252611e23565b92915050565b3361126281611ea6565b61126a611c28565b3361127481611eee565b5f83036112ad576040517f1f2a200500000000000000000000000000000000000000000000000000000000815260040160405180910390fd5b5f600173ffffffffffffffffffffffffffffffffffffffff166112ce6124be565b73ffffffffffffffffffffffffffffffffffffffff1603611377576112f161031d565b73ffffffffffffffffffffffffffffffffffffffff166370a0823161131533612237565b6040518263ffffffff1660e01b81526004016113319190612f2c565b602060405180830381865afa15801561134c573d5f5f3e3d5ffd5b505050506040513d601f19601f8201168201806040525081019061137091906135e4565b9050611401565b61137f6124be565b73ffffffffffffffffffffffffffffffffffffffff166370a082316113a333612237565b6040518263ffffffff1660e01b81526004016113bf9190612f2c565b602060405180830381865afa1580156113da573d5f5f3e3d5ffd5b505050506040513d601f19601f820116820180604052508101906113fe91906135e4565b90505b8084111561143b576040517f3a23d82500000000000000000000000000000000000000000000000000000000815260040160405180910390fd5b611443612086565b5f61144c611b94565b73ffffffffffffffffffffffffffffffffffffffff1663e40208046040518163ffffffff1660e01b8152600401602060405180830381865afa158015611494573d5f5f3e3d5ffd5b505050506040513d601f19601f820116820180604052508101906114b89190612f59565b90505f600173ffffffffffffffffffffffffffffffffffffffff166114db6124be565b73ffffffffffffffffffffffffffffffffffffffff161490506114fd33612237565b73ffffffffffffffffffffffffffffffffffffffff1663fa58d7b48733846040518463ffffffff1660e01b81526004016115399392919061360f565b5f604051808303815f87803b158015611550575f5ffd5b505af1158015611562573d5f5f3e3d5ffd5b505050505f61157033611fe5565b111561161b578173ffffffffffffffffffffffffffffffffffffffff16632e68f18e61159a611d10565b6115a2611b94565b6115ab33612237565b6115b3612552565b6115bb6125e6565b6115c361267a565b6115cc33611fe5565b6040518863ffffffff1660e01b81526004016115ee9796959493929190613644565b5f6040518083038186803b158015611604575f5ffd5b505afa158015611616573d5f5f3e3d5ffd5b505050505b50505050611627611e23565b5050565b8061163581611ea6565b61163d611c28565b8161164781611eee565b5f8403611680576040517f1f2a200500000000000000000000000000000000000000000000000000000000815260040160405180910390fd5b611688612086565b600173ffffffffffffffffffffffffffffffffffffffff166116a86124be565b73ffffffffffffffffffffffffffffffffffffffff160361182a578334146116fc576040517f3a23d82500000000000000000000000000000000000000000000000000000000815260040160405180910390fd5b61170461031d565b73ffffffffffffffffffffffffffffffffffffffff1663d0e30db0346040518263ffffffff1660e01b81526004015f604051808303818588803b158015611749575f5ffd5b505af115801561175b573d5f5f3e3d5ffd5b505050505061176861031d565b73ffffffffffffffffffffffffffffffffffffffff1663095ea7b361178c85612237565b866040518363ffffffff1660e01b81526004016117aa929190613072565b6020604051808303815f875af11580156117c6573d5f5f3e3d5ffd5b505050506040513d601f19601f820116820180604052508101906117ea91906130ad565b506118256117f784612237565b8561180061031d565b73ffffffffffffffffffffffffffffffffffffffff16611da49092919063ffffffff16565b611867565b6118668361183785612237565b866118406124be565b73ffffffffffffffffffffffffffffffffffffffff166121b5909392919063ffffffff16565b5b7ffef800959f37aa70fe9073f24093b307ae5952f0e34d164a48f279f6e4bc447c8385604051611898929190613072565b60405180910390a1506118a9611e23565b505050565b5f5f5f5f6118ba611b94565b73ffffffffffffffffffffffffffffffffffffffff1663e40208046040518163ffffffff1660e01b8152600401602060405180830381865afa158015611902573d5f5f3e3d5ffd5b505050506040513d601f19601f820116820180604052508101906119269190612f59565b90508073ffffffffffffffffffffffffffffffffffffffff16639d068dd761194c611d10565b611954611b94565b61195d89612237565b611965612552565b61196d6125e6565b61197561267a565b61197e8d611fe5565b6040518863ffffffff1660e01b81526004016119a09796959493929190613644565b606060405180830381865afa1580156119bb573d5f5f3e3d5ffd5b505050506040513d601f19601f820116820180604052508101906119df91906136b1565b935093509350509193909250565b6119f5611c28565b816119ff81611eee565b5f611a0a838561270e565b9050611a14612086565b600173ffffffffffffffffffffffffffffffffffffffff16611a34611d10565b73ffffffffffffffffffffffffffffffffffffffff1603611af157823414611a88576040517f3a23d82500000000000000000000000000000000000000000000000000000000815260040160405180910390fd5b611a9061031d565b73ffffffffffffffffffffffffffffffffffffffff1663d0e30db0346040518263ffffffff1660e01b81526004015f604051808303818588803b158015611ad5575f5ffd5b505af1158015611ae7573d5f5f3e3d5ffd5b5050505050611b26565b611b25843085611aff611d10565b73ffffffffffffffffffffffffffffffffffffffff166121b5909392919063ffffffff16565b5b7fb84c7ef8bee9fe7d403a64ab2705017891a18609ce1910007c1e674b7685815e848483604051611b5993929190612fc5565b60405180910390a15050611b6b611e23565b5050565b60015f9054906101000a900473ffffffffffffffffffffffffffffffffffffffff1681565b5f60015f9054906101000a900473ffffffffffffffffffffffffffffffffffffffff1673ffffffffffffffffffffffffffffffffffffffff1663c45a01556040518163ffffffff1660e01b8152600401602060405180830381865afa158015611bff573d5f5f3e3d5ffd5b505050506040513d601f19601f82011682018060405250810190611c239190612f59565b905090565b60025f5403611c63576040517f3ee5aeb500000000000000000000000000000000000000000000000000000000815260040160405180910390fd5b60025f81905550565b5f60015f9054906101000a900473ffffffffffffffffffffffffffffffffffffffff1673ffffffffffffffffffffffffffffffffffffffff166368fc0c9a83336040518363ffffffff1660e01b8152600401611cc992919061304b565b6020604051808303815f875af1158015611ce5573d5f5f3e3d5ffd5b505050506040513d601f19601f82011682018060405250810190611d0991906135e4565b9050919050565b5f60015f9054906101000a900473ffffffffffffffffffffffffffffffffffffffff1673ffffffffffffffffffffffffffffffffffffffff1663456dc17a6040518163ffffffff1660e01b8152600401602060405180830381865afa158015611d7b573d5f5f3e3d5ffd5b505050506040513d601f19601f82011682018060405250810190611d9f9190612f59565b905090565b611e1e838473ffffffffffffffffffffffffffffffffffffffff1663a9059cbb8585604051602401611dd7929190613072565b604051602081830303815290604052915060e01b6020820180517bffffffffffffffffffffffffffffffffffffffffffffffffffffffff83818316178352505050506127b3565b505050565b60015f81905550565b5f611e35611b94565b73ffffffffffffffffffffffffffffffffffffffff16634046ebae6040518163ffffffff1660e01b8152600401602060405180830381865afa158015611e7d573d5f5f3e3d5ffd5b505050506040513d601f19601f82011682018060405250810190611ea19190612f59565b905090565b5f73ffffffffffffffffffffffffffffffffffffffff16611ec682612237565b73ffffffffffffffffffffffffffffffffffffffff1603611eeb57611eea8161284e565b5b50565b611ef6611b94565b73ffffffffffffffffffffffffffffffffffffffff16639a307391336040518263ffffffff1660e01b8152600401611f2e9190612f2c565b602060405180830381865afa158015611f49573d5f5f3e3d5ffd5b505050506040513d601f19601f82011682018060405250810190611f6d91906130ad565b611fe2578073ffffffffffffffffffffffffffffffffffffffff163373ffffffffffffffffffffffffffffffffffffffff1614611fe157336040517f4a0bfec1000000000000000000000000000000000000000000000000000000008152600401611fd89190612f2c565b60405180910390fd5b5b50565b5f60015f9054906101000a900473ffffffffffffffffffffffffffffffffffffffff1673ffffffffffffffffffffffffffffffffffffffff16634fd422df836040518263ffffffff1660e01b81526004016120409190612f2c565b602060405180830381865afa15801561205b573d5f5f3e3d5ffd5b505050506040513d601f19601f8201168201806040525081019061207f91906135e4565b9050919050565b60015f9054906101000a900473ffffffffffffffffffffffffffffffffffffffff1673ffffffffffffffffffffffffffffffffffffffff1663a6afed956040518163ffffffff1660e01b81526004015f604051808303815f87803b1580156120ec575f5ffd5b505af11580156120fe573d5f5f3e3d5ffd5b50505050565b5f5f5f5f60015f9054906101000a900473ffffffffffffffffffffffffffffffffffffffff1673ffffffffffffffffffffffffffffffffffffffff16639d058e6787876040518363ffffffff1660e01b815260040161216492919061304b565b6080604051808303815f875af1158015612180573d5f5f3e3d5ffd5b505050506040513d601f19601f820116820180604052508101906121a49190613701565b935093509350935092959194509250565b612231848573ffffffffffffffffffffffffffffffffffffffff166323b872dd8686866040516024016121ea93929190613765565b604051602081830303815290604052915060e01b6020820180517bffffffffffffffffffffffffffffffffffffffffffffffffffffffff83818316178352505050506127b3565b50505050565b5f60015f9054906101000a900473ffffffffffffffffffffffffffffffffffffffff1673ffffffffffffffffffffffffffffffffffffffff1663f79c3800836040518263ffffffff1660e01b81526004016122929190612f2c565b602060405180830381865afa1580156122ad573d5f5f3e3d5ffd5b505050506040513d601f19601f820116820180604052508101906122d19190612f59565b9050919050565b5f5f5f60015f9054906101000a900473ffffffffffffffffffffffffffffffffffffffff1673ffffffffffffffffffffffffffffffffffffffff166335fce80e86866040518363ffffffff1660e01b815260040161233792919061304b565b6060604051808303815f875af1158015612353573d5f5f3e3d5ffd5b505050506040513d601f19601f82011682018060405250810190612377919061379a565b9250925092509250925092565b60606003604051602001612398919061382b565b604051602081830303815290604052905090565b606083600361ffff166123c85f8361299a90919063ffffffff16565b61ffff1614612420576123e45f8261299a90919063ffffffff16565b6040517f3a51740d0000000000000000000000000000000000000000000000000000000081526004016124179190613854565b60405180910390fd5b5f61242b85856129ff565b905061243986600183612a6a565b925050509392505050565b5f61244d611b94565b73ffffffffffffffffffffffffffffffffffffffff16638ce744266040518163ffffffff1660e01b8152600401602060405180830381865afa158015612495573d5f5f3e3d5ffd5b505050506040513d601f19601f820116820180604052508101906124b99190612f59565b905090565b5f60015f9054906101000a900473ffffffffffffffffffffffffffffffffffffffff1673ffffffffffffffffffffffffffffffffffffffff1663b2016bd46040518163ffffffff1660e01b8152600401602060405180830381865afa158015612529573d5f5f3e3d5ffd5b505050506040513d601f19601f8201168201806040525081019061254d9190612f59565b905090565b5f60015f9054906101000a900473ffffffffffffffffffffffffffffffffffffffff1673ffffffffffffffffffffffffffffffffffffffff16636fb49d736040518163ffffffff1660e01b8152600401602060405180830381865afa1580156125bd573d5f5f3e3d5ffd5b505050506040513d601f19601f820116820180604052508101906125e191906135e4565b905090565b5f60015f9054906101000a900473ffffffffffffffffffffffffffffffffffffffff1673ffffffffffffffffffffffffffffffffffffffff16631aad44c26040518163ffffffff1660e01b8152600401602060405180830381865afa158015612651573d5f5f3e3d5ffd5b505050506040513d601f19601f8201168201806040525081019061267591906135e4565b905090565b5f60015f9054906101000a900473ffffffffffffffffffffffffffffffffffffffff1673ffffffffffffffffffffffffffffffffffffffff1663136cf1f76040518163ffffffff1660e01b8152600401602060405180830381865afa1580156126e5573d5f5f3e3d5ffd5b505050506040513d601f19601f8201168201806040525081019061270991906135e4565b905090565b5f60015f9054906101000a900473ffffffffffffffffffffffffffffffffffffffff1673ffffffffffffffffffffffffffffffffffffffff166311d9dbd384846040518363ffffffff1660e01b815260040161276b92919061304b565b6020604051808303815f875af1158015612787573d5f5f3e3d5ffd5b505050506040513d601f19601f820116820180604052508101906127ab91906135e4565b905092915050565b5f5f60205f8451602086015f885af1806127d2576040513d5f823e3d81fd5b3d92505f519150505f82146127eb576001811415612806565b5f8473ffffffffffffffffffffffffffffffffffffffff163b145b1561284857836040517f5274afe700000000000000000000000000000000000000000000000000000000815260040161283f9190612f2c565b60405180910390fd5b50505050565b5f73ffffffffffffffffffffffffffffffffffffffff1661286e82612237565b73ffffffffffffffffffffffffffffffffffffffff16146128bb576040517f0f04799c00000000000000000000000000000000000000000000000000000000815260040160405180910390fd5b60015f9054906101000a900473ffffffffffffffffffffffffffffffffffffffff1673ffffffffffffffffffffffffffffffffffffffff1663f7e0ebf6826040518263ffffffff1660e01b81526004016129159190612f2c565b6020604051808303815f875af1158015612931573d5f5f3e3d5ffd5b505050506040513d601f19601f820116820180604052508101906129559190612f59565b507fcc3763c1c0784da97ef19dc776e12897dc1cfba3c2cab71b208490e993ba56948161298183612237565b60405161298f92919061386d565b60405180910390a150565b5f6002826129a891906138c1565b835110156129eb576040517f08c379a00000000000000000000000000000000000000000000000000000000081526004016129e29061394e565b60405180910390fd5b5f8260028501015190508091505092915050565b60605f826fffffffffffffffffffffffffffffffff1614612a41578282604051602001612a2d9291906139a0565b604051602081830303815290604052612a62565b82604051602001612a5291906139cb565b6040516020818303038152906040525b905092915050565b606083600361ffff16612a865f8361299a90919063ffffffff16565b61ffff1614612ade57612aa25f8261299a90919063ffffffff16565b6040517f3a51740d000000000000000000000000000000000000000000000000000000008152600401612ad59190613854565b60405180910390fd5b84600180612aec8651612b25565b612af691906139e5565b8686604051602001612b0c959493929190613a8a565b6040516020818303038152906040529150509392505050565b5f61ffff8016821115612b72576010826040517f6dfcc650000000000000000000000000000000000000000000000000000000008152600401612b69929190613b19565b60405180910390fd5b819050919050565b5f604051905090565b5f5ffd5b5f819050919050565b612b9981612b87565b8114612ba3575f5ffd5b50565b5f81359050612bb481612b90565b92915050565b5f60208284031215612bcf57612bce612b83565b5b5f612bdc84828501612ba6565b91505092915050565b5f73ffffffffffffffffffffffffffffffffffffffff82169050919050565b5f612c0e82612be5565b9050919050565b612c1e81612c04565b8114612c28575f5ffd5b50565b5f81359050612c3981612c15565b92915050565b5f5f5f60608486031215612c5657612c55612b83565b5b5f612c6386828701612c2b565b9350506020612c7486828701612ba6565b9250506040612c8586828701612ba6565b9150509250925092565b5f8115159050919050565b612ca381612c8f565b8114612cad575f5ffd5b50565b5f81359050612cbe81612c9a565b92915050565b5f5f5f5f60808587031215612cdc57612cdb612b83565b5b5f612ce987828801612ba6565b9450506020612cfa87828801612c2b565b9350506040612d0b87828801612cb0565b9250506060612d1c87828801612c2b565b91505092959194509250565b5f63ffffffff82169050919050565b612d4081612d28565b8114612d4a575f5ffd5b50565b5f81359050612d5b81612d37565b92915050565b5f6fffffffffffffffffffffffffffffffff82169050919050565b612d8581612d61565b8114612d8f575f5ffd5b50565b5f81359050612da081612d7c565b92915050565b5f5f5f5f60808587031215612dbe57612dbd612b83565b5b5f612dcb87828801612ba6565b9450506020612ddc87828801612ba6565b9350506040612ded87828801612d4d565b9250506060612dfe87828801612d92565b91505092959194509250565b5f5f60408385031215612e2057612e1f612b83565b5b5f612e2d85828601612c2b565b9250506020612e3e85828601612ba6565b9150509250929050565b612e5181612b87565b82525050565b5f602082019050612e6a5f830184612e48565b92915050565b5f5f60408385031215612e8657612e85612b83565b5b5f612e9385828601612ba6565b9250506020612ea485828601612c2b565b9150509250929050565b5f60208284031215612ec357612ec2612b83565b5b5f612ed084828501612c2b565b91505092915050565b612ee281612c8f565b82525050565b5f606082019050612efb5f830186612ed9565b612f086020830185612e48565b612f156040830184612e48565b949350505050565b612f2681612c04565b82525050565b5f602082019050612f3f5f830184612f1d565b92915050565b5f81519050612f5381612c15565b92915050565b5f60208284031215612f6e57612f6d612b83565b5b5f612f7b84828501612f45565b91505092915050565b5f81905092915050565b50565b5f612f9c5f83612f84565b9150612fa782612f8e565b5f82019050919050565b5f612fbb82612f91565b9150819050919050565b5f606082019050612fd85f830186612f1d565b612fe56020830185612e48565b612ff26040830184612e48565b949350505050565b5f60a08201905061300d5f830188612f1d565b61301a6020830187612f1d565b6130276040830186612f1d565b6130346060830185612e48565b6130416080830184612e48565b9695505050505050565b5f60408201905061305e5f830185612e48565b61306b6020830184612f1d565b9392505050565b5f6040820190506130855f830185612f1d565b6130926020830184612e48565b9392505050565b5f815190506130a781612c9a565b92915050565b5f602082840312156130c2576130c1612b83565b5b5f6130cf84828501613099565b91505092915050565b6130e181612d28565b82525050565b5f819050919050565b6130f9816130e7565b82525050565b61310881612b87565b82525050565b5f81519050919050565b5f82825260208201905092915050565b8281835e5f83830152505050565b5f601f19601f8301169050919050565b5f6131508261310e565b61315a8185613118565b935061316a818560208601613128565b61317381613136565b840191505092915050565b5f60e083015f8301516131935f8601826130d8565b5060208301516131a660208601826130f0565b5060408301516131b960408601826130ff565b5060608301516131cc60608601826130ff565b50608083015184820360808601526131e48282613146565b91505060a083015184820360a08601526131fe8282613146565b91505060c083015184820360c08601526132188282613146565b9150508091505092915050565b5f6040820190508181035f83015261323d818561317e565b905061324c6020830184612ed9565b9392505050565b5f5ffd5b7f4e487b71000000000000000000000000000000000000000000000000000000005f52604160045260245ffd5b61328d82613136565b810181811067ffffffffffffffff821117156132ac576132ab613257565b5b80604052505050565b5f6132be612b7a565b90506132ca8282613284565b919050565b5f815190506132dd81612b90565b92915050565b5f604082840312156132f8576132f7613253565b5b61330260406132b5565b90505f613311848285016132cf565b5f830152506020613324848285016132cf565b60208301525092915050565b5f6040828403121561334557613344612b83565b5b5f613352848285016132e3565b91505092915050565b604082015f82015161336f5f8501826130ff565b50602082015161338260208501826130ff565b50505050565b5f6080820190508181035f8301526133a0818661317e565b90506133af602083018561335b565b6133bc6060830184612f1d565b949350505050565b6133cd816130e7565b81146133d7575f5ffd5b50565b5f815190506133e8816133c4565b92915050565b5f67ffffffffffffffff82169050919050565b61340a816133ee565b8114613414575f5ffd5b50565b5f8151905061342581613401565b92915050565b5f608082840312156134405761343f613253565b5b61344a60606132b5565b90505f613459848285016133da565b5f83015250602061346c84828501613417565b6020830152506040613480848285016132e3565b60408301525092915050565b5f604082840312156134a1576134a0613253565b5b6134ab60406132b5565b90505f6134ba848285016132cf565b5f8301525060206134cd848285016132cf565b60208301525092915050565b5f5f60c083850312156134ef576134ee612b83565b5b5f6134fc8582860161342b565b925050608061350d8582860161348c565b9150509250929050565b5f819050919050565b5f61353a61353561353084612d61565b613517565b612b87565b9050919050565b61354a81613520565b82525050565b5f60a0820190506135635f830188612f1d565b6135706020830187612e48565b61357d6040830186612e48565b61358a6060830185612e48565b6135976080830184613541565b9695505050505050565b5f6080820190506135b45f830187612f1d565b6135c16020830186612f1d565b6135ce6040830185612f1d565b6135db6060830184612e48565b95945050505050565b5f602082840312156135f9576135f8612b83565b5b5f613606848285016132cf565b91505092915050565b5f6060820190506136225f830186612e48565b61362f6020830185612f1d565b61363c6040830184612ed9565b949350505050565b5f60e0820190506136575f83018a612f1d565b6136646020830189612f1d565b6136716040830188612f1d565b61367e6060830187612e48565b61368b6080830186612e48565b61369860a0830185612e48565b6136a560c0830184612e48565b98975050505050505050565b5f5f5f606084860312156136c8576136c7612b83565b5b5f6136d586828701613099565b93505060206136e6868287016132cf565b92505060406136f7868287016132cf565b9150509250925092565b5f5f5f5f6080858703121561371957613718612b83565b5b5f613726878288016132cf565b9450506020613737878288016132cf565b9350506040613748878288016132cf565b9250506060613759878288016132cf565b91505092959194509250565b5f6060820190506137785f830186612f1d565b6137856020830185612f1d565b6137926040830184612e48565b949350505050565b5f5f5f606084860312156137b1576137b0612b83565b5b5f6137be868287016132cf565b93505060206137cf868287016132cf565b92505060406137e0868287016132cf565b9150509250925092565b5f61ffff82169050919050565b5f8160f01b9050919050565b5f61380d826137f7565b9050919050565b613825613820826137ea565b613803565b82525050565b5f6138368284613814565b60028201915081905092915050565b61384e816137ea565b82525050565b5f6020820190506138675f830184613845565b92915050565b5f6040820190506138805f830185612f1d565b61388d6020830184612f1d565b9392505050565b7f4e487b71000000000000000000000000000000000000000000000000000000005f52601160045260245ffd5b5f6138cb82612b87565b91506138d683612b87565b92508282019050808211156138ee576138ed613894565b5b92915050565b5f82825260208201905092915050565b7f746f55696e7431365f6f75744f66426f756e64730000000000000000000000005f82015250565b5f6139386014836138f4565b915061394382613904565b602082019050919050565b5f6020820190508181035f8301526139658161392c565b9050919050565b5f8160801b9050919050565b5f6139828261396c565b9050919050565b61399a61399582612d61565b613978565b82525050565b5f6139ab8285613989565b6010820191506139bb8284613989565b6010820191508190509392505050565b5f6139d68284613989565b60108201915081905092915050565b5f6139ef826137ea565b91506139fa836137ea565b9250828201905061ffff811115613a1457613a13613894565b5b92915050565b5f613a248261310e565b613a2e8185612f84565b9350613a3e818560208601613128565b80840191505092915050565b5f60ff82169050919050565b5f8160f81b9050919050565b5f613a6c82613a56565b9050919050565b613a84613a7f82613a4a565b613a62565b82525050565b5f613a958288613a1a565b9150613aa18287613a73565b600182019150613ab18286613814565b600282019150613ac18285613a73565b600182019150613ad18284613a1a565b91508190509695505050505050565b5f819050919050565b5f613b03613afe613af984613ae0565b613517565b613a4a565b9050919050565b613b1381613ae9565b82525050565b5f604082019050613b2c5f830185613b0a565b613b396020830184612e48565b939250505056fea2646970667358221220ba26e72dcf369fd028de9c1110c7f24d5e6390fb74edd561c7336c7d1fd0538164736f6c634300081c0033","linkReferences":{}},"methodIdentifiers":{"borrowDebt(uint256,uint256,uint32,uint128)":"2392478c","checkLiquidation(address)":"a274f4ac","liquidateByDEX(address,uint256)":"3f7a1a7e","liquidateByMEV(address,uint256,uint256)":"141b0c4c","repayWithSelectedToken(uint256,address,bool,address)":"1e686065","router()":"f887ea40","supplyCollateral(uint256,address)":"62c5f6c7","supplyLiquidity(address,uint256)":"b39e3771","withdrawCollateral(uint256)":"6112fe2e","withdrawLiquidity(uint256)":"0a861f2a"},"id":121}