{"abi":[{"type":"constructor","inputs":[{"name":"_router","type":"address","internalType":"address"}],"stateMutability":"nonpayable"},{"type":"fallback","stateMutability":"payable"},{"type":"receive","stateMutability":"payable"},{"type":"function","name":"VERSION","inputs":[],"outputs":[{"name":"","type":"uint8","internalType":"uint8"}],"stateMutability":"view"},{"type":"function","name":"borrowDebt","inputs":[{"name":"_amount","type":"uint256","internalType":"uint256"},{"name":"_chainId","type":"uint256","internalType":"uint256"},{"name":"_addExecutorLzReceiveOption","type":"uint128","internalType":"uint128"}],"outputs":[],"stateMutability":"payable"},{"type":"function","name":"liquidation","inputs":[{"name":"_borrower","type":"address","internalType":"address"}],"outputs":[],"stateMutability":"nonpayable"},{"type":"function","name":"repayWithSelectedToken","inputs":[{"name":"_user","type":"address","internalType":"address"},{"name":"_token","type":"address","internalType":"address"},{"name":"_shares","type":"uint256","internalType":"uint256"},{"name":"_amountOutMinimum","type":"uint256","internalType":"uint256"},{"name":"_fromPosition","type":"bool","internalType":"bool"}],"outputs":[],"stateMutability":"payable"},{"type":"function","name":"router","inputs":[],"outputs":[{"name":"","type":"address","internalType":"address"}],"stateMutability":"view"},{"type":"function","name":"supplyCollateral","inputs":[{"name":"_user","type":"address","internalType":"address"},{"name":"_amount","type":"uint256","internalType":"uint256"}],"outputs":[],"stateMutability":"payable"},{"type":"function","name":"supplyLiquidity","inputs":[{"name":"_user","type":"address","internalType":"address"},{"name":"_amount","type":"uint256","internalType":"uint256"}],"outputs":[],"stateMutability":"payable"},{"type":"function","name":"swapTokenByPosition","inputs":[{"name":"_tokenIn","type":"address","internalType":"address"},{"name":"_tokenOut","type":"address","internalType":"address"},{"name":"_amountIn","type":"uint256","internalType":"uint256"},{"name":"_amountOutMinimum","type":"uint256","internalType":"uint256"}],"outputs":[{"name":"amountOut","type":"uint256","internalType":"uint256"}],"stateMutability":"nonpayable"},{"type":"function","name":"withdrawCollateral","inputs":[{"name":"_amount","type":"uint256","internalType":"uint256"}],"outputs":[],"stateMutability":"nonpayable"},{"type":"function","name":"withdrawLiquidity","inputs":[{"name":"_shares","type":"uint256","internalType":"uint256"}],"outputs":[],"stateMutability":"payable"},{"type":"event","name":"BorrowDebt","inputs":[{"name":"user","type":"address","indexed":false,"internalType":"address"},{"name":"amount","type":"uint256","indexed":false,"internalType":"uint256"},{"name":"shares","type":"uint256","indexed":false,"internalType":"uint256"},{"name":"chainId","type":"uint256","indexed":false,"internalType":"uint256"},{"name":"addExecutorLzReceiveOption","type":"uint256","indexed":false,"internalType":"uint256"}],"anonymous":false},{"type":"event","name":"CreatePosition","inputs":[{"name":"user","type":"address","indexed":false,"internalType":"address"},{"name":"positionAddress","type":"address","indexed":false,"internalType":"address"}],"anonymous":false},{"type":"event","name":"Liquidation","inputs":[{"name":"borrower","type":"address","indexed":false,"internalType":"address"},{"name":"borrowToken","type":"address","indexed":false,"internalType":"address"},{"name":"collateralToken","type":"address","indexed":false,"internalType":"address"},{"name":"userBorrowAssets","type":"uint256","indexed":false,"internalType":"uint256"},{"name":"liquidationBonus","type":"uint256","indexed":false,"internalType":"uint256"}],"anonymous":false},{"type":"event","name":"RepayByPosition","inputs":[{"name":"user","type":"address","indexed":false,"internalType":"address"},{"name":"amount","type":"uint256","indexed":false,"internalType":"uint256"},{"name":"shares","type":"uint256","indexed":false,"internalType":"uint256"}],"anonymous":false},{"type":"event","name":"SupplyCollateral","inputs":[{"name":"positionAddress","type":"address","indexed":false,"internalType":"address"},{"name":"user","type":"address","indexed":false,"internalType":"address"},{"name":"amount","type":"uint256","indexed":false,"internalType":"uint256"}],"anonymous":false},{"type":"event","name":"SupplyLiquidity","inputs":[{"name":"user","type":"address","indexed":false,"internalType":"address"},{"name":"amount","type":"uint256","indexed":false,"internalType":"uint256"},{"name":"shares","type":"uint256","indexed":false,"internalType":"uint256"}],"anonymous":false},{"type":"event","name":"SwapTokenByPosition","inputs":[{"name":"user","type":"address","indexed":false,"internalType":"address"},{"name":"tokenIn","type":"address","indexed":false,"internalType":"address"},{"name":"tokenOut","type":"address","indexed":false,"internalType":"address"},{"name":"amountIn","type":"uint256","indexed":false,"internalType":"uint256"},{"name":"amountOut","type":"uint256","indexed":false,"internalType":"uint256"}],"anonymous":false},{"type":"event","name":"WithdrawCollateral","inputs":[{"name":"user","type":"address","indexed":false,"internalType":"address"},{"name":"amount","type":"uint256","indexed":false,"internalType":"uint256"}],"anonymous":false},{"type":"event","name":"WithdrawLiquidity","inputs":[{"name":"user","type":"address","indexed":false,"internalType":"address"},{"name":"amount","type":"uint256","indexed":false,"internalType":"uint256"},{"name":"shares","type":"uint256","indexed":false,"internalType":"uint256"}],"anonymous":false},{"type":"error","name":"CollateralWrongInputAmount","inputs":[{"name":"amount","type":"uint256","internalType":"uint256"},{"name":"expectedAmount","type":"uint256","internalType":"uint256"}]},{"type":"error","name":"InsufficientCollateral","inputs":[{"name":"amount","type":"uint256","internalType":"uint256"},{"name":"expectedAmount","type":"uint256","internalType":"uint256"}]},{"type":"error","name":"InvalidOptionType","inputs":[{"name":"optionType","type":"uint16","internalType":"uint16"}]},{"type":"error","name":"NotAuthorized","inputs":[{"name":"executor","type":"address","internalType":"address"}]},{"type":"error","name":"OracleOnTokenNotSet","inputs":[{"name":"token","type":"address","internalType":"address"}]},{"type":"error","name":"PositionAlreadyCreated","inputs":[{"name":"positionAddress","type":"address","internalType":"address"}]},{"type":"error","name":"ReentrancyGuardReentrantCall","inputs":[]},{"type":"error","name":"RepayWithSelectedTokenWrongInputAmount","inputs":[{"name":"amount","type":"uint256","internalType":"uint256"},{"name":"expectedAmount","type":"uint256","internalType":"uint256"}]},{"type":"error","name":"SafeCastOverflowedUintDowncast","inputs":[{"name":"bits","type":"uint8","internalType":"uint8"},{"name":"value","type":"uint256","internalType":"uint256"}]},{"type":"error","name":"SafeERC20FailedOperation","inputs":[{"name":"token","type":"address","internalType":"address"}]},{"type":"error","name":"SupplyLiquidityWrongInputAmount","inputs":[{"name":"amount","type":"uint256","internalType":"uint256"},{"name":"expectedAmount","type":"uint256","internalType":"uint256"}]},{"type":"error","name":"SwapTokenByPositionInvalidParameter","inputs":[{"name":"tokenIn","type":"address","internalType":"address"},{"name":"tokenOut","type":"address","internalType":"address"}]},{"type":"error","name":"TransferFailed","inputs":[{"name":"amount","type":"uint256","internalType":"uint256"}]},{"type":"error","name":"WrongInputAmount","inputs":[{"name":"expectedAmount","type":"uint256","internalType":"uint256"},{"name":"actualAmount","type":"uint256","internalType":"uint256"}]},{"type":"error","name":"ZeroAmount","inputs":[]},{"type":"error","name":"amountSharesInvalid","inputs":[{"name":"shares","type":"uint256","internalType":"uint256"},{"name":"userBorrowShares","type":"uint256","internalType":"uint256"}]}],"bytecode":{"object":"0x608060405234801561000f575f5ffd5b50604051613f90380380613f90833981810160405281019061003191906100dc565b60015f819055508060015f6101000a81548173ffffffffffffffffffffffffffffffffffffffff021916908373ffffffffffffffffffffffffffffffffffffffff16021790555050610107565b5f5ffd5b5f73ffffffffffffffffffffffffffffffffffffffff82169050919050565b5f6100ab82610082565b9050919050565b6100bb816100a1565b81146100c5575f5ffd5b50565b5f815190506100d6816100b2565b92915050565b5f602082840312156100f1576100f061007e565b5b5f6100fe848285016100c8565b91505092915050565b613e7c806101145f395ff3fe608060405260043610610094575f3560e01c8063b39e377111610058578063b39e3771146102f9578063b83e62bf14610315578063d2a8607b1461033d578063f887ea4014610359578063ffa1ad741461038357610206565b80630a861f2a14610241578063456ed8041461025d578063557c3b3a146102795780636112fe2e146102955780638c3bc0b1146102bd57610206565b36610206575f341180156100b55750600160149054906101000a900460ff16155b80156101325750600173ffffffffffffffffffffffffffffffffffffffff166100dc6103ad565b73ffffffffffffffffffffffffffffffffffffffff1614806101315750600173ffffffffffffffffffffffffffffffffffffffff16610119610441565b73ffffffffffffffffffffffffffffffffffffffff16145b5b156101a05761013f6104d5565b73ffffffffffffffffffffffffffffffffffffffff1663d0e30db0346040518263ffffffff1660e01b81526004015f604051808303818588803b158015610184575f5ffd5b505af1158015610196573d5f5f3e3d5ffd5b5050505050610203565b5f341180156101bb5750600160149054906101000a900460ff165b610204575f341115610202576040517f08c379a00000000000000000000000000000000000000000000000000000000081526004016101f990612e92565b60405180910390fd5b5b5b005b6040517f08c379a000000000000000000000000000000000000000000000000000000000815260040161023890612efa565b60405180910390fd5b61025b60048036038101906102569190612f58565b61054f565b005b61027760048036038101906102729190612fc8565b6105bb565b005b610293600480360381019061028e91906130a7565b6106e7565b005b3480156102a0575f5ffd5b506102bb60048036038101906102b69190612f58565b610894565b005b3480156102c8575f5ffd5b506102e360048036038101906102de919061311e565b6109e0565b6040516102f09190613191565b60405180910390f35b610313600480360381019061030e91906131aa565b610c14565b005b348015610320575f5ffd5b5061033b600480360381019061033691906131e8565b610c8d565b005b610357600480360381019061035291906131aa565b610e0c565b005b348015610364575f5ffd5b5061036d610ec4565b60405161037a9190613222565b60405180910390f35b34801561038e575f5ffd5b50610397610ee9565b6040516103a49190613256565b60405180910390f35b5f60015f9054906101000a900473ffffffffffffffffffffffffffffffffffffffff1673ffffffffffffffffffffffffffffffffffffffff1663456dc17a6040518163ffffffff1660e01b8152600401602060405180830381865afa158015610418573d5f5f3e3d5ffd5b505050506040513d601f19601f8201168201806040525081019061043c9190613283565b905090565b5f60015f9054906101000a900473ffffffffffffffffffffffffffffffffffffffff1673ffffffffffffffffffffffffffffffffffffffff1663b2016bd46040518163ffffffff1660e01b8152600401602060405180830381865afa1580156104ac573d5f5f3e3d5ffd5b505050506040513d601f19601f820116820180604052508101906104d09190613283565b905090565b5f6104de610eee565b73ffffffffffffffffffffffffffffffffffffffff1663eb6d3a116040518163ffffffff1660e01b8152600401602060405180830381865afa158015610526573d5f5f3e3d5ffd5b505050506040513d601f19601f8201168201806040525081019061054a9190613283565b905090565b610557610f82565b61055f610fc6565b5f61056982611044565b9050610574816110e8565b7fac927268ea9ae2e55027e6ab727fc2db8e3ea48c56c658223a1074567e4298c03382846040516105a7939291906132ae565b60405180910390a1506105b86112aa565b50565b6105c3610f82565b6105cb610fc6565b5f5f5f6105d886336112b3565b9250925092506105e661135f565b73ffffffffffffffffffffffffffffffffffffffff1663d3a658053360015f9054906101000a900473ffffffffffffffffffffffffffffffffffffffff166040518363ffffffff1660e01b81526004016106419291906132e3565b5f6040518083038186803b158015610657575f5ffd5b505afa158015610669573d5f5f3e3d5ffd5b5050505046851461068d576106888284610682886113d9565b87611460565b610698565b61069782846116c9565b5b7f94100d31a707f70aa6e74e8a9ac7ebfc32575c457dd4a233f1b66e1a16a3130833878388886040516106cf959493929190613343565b60405180910390a15050506106e26112aa565b505050565b846106f181611977565b6106f9610f82565b85610703816119bf565b5f850361073c576040517f1f2a200500000000000000000000000000000000000000000000000000000000815260040160405180910390fd5b61074587611ab6565b851115610793578461075688611ab6565b6040517f7092632300000000000000000000000000000000000000000000000000000000815260040161078a929190613394565b60405180910390fd5b61079b610fc6565b5f6107a68689611b57565b50505090506107b361135f565b73ffffffffffffffffffffffffffffffffffffffff1663d3a658058960015f9054906101000a900473ffffffffffffffffffffffffffffffffffffffff166040518363ffffffff1660e01b815260040161080e9291906132e3565b5f6040518083038186803b158015610824575f5ffd5b505afa158015610836573d5f5f3e3d5ffd5b505050506108478888838888611c08565b7f75aa3d334b0a1b779c1e0db6925f11e01a834d00a702d36524b7f40f47a49b6188828860405161087a939291906132ae565b60405180910390a1505061088c6112aa565b505050505050565b3361089e81611977565b6108a6610f82565b336108b0816119bf565b5f83036108e9576040517f1f2a200500000000000000000000000000000000000000000000000000000000815260040160405180910390fd5b6108f1610fc6565b6108fa83611f26565b5f61090433611ab6565b111561099a5761091261135f565b73ffffffffffffffffffffffffffffffffffffffff1663d3a658053360015f9054906101000a900473ffffffffffffffffffffffffffffffffffffffff166040518363ffffffff1660e01b815260040161096d9291906132e3565b5f6040518083038186803b158015610983575f5ffd5b505afa158015610995573d5f5f3e3d5ffd5b505050505b7fa8e76b822fc682be77f3b1c822ea81f6bda5aed92ba82e6873bfd889f328d1d233846040516109cb9291906133bb565b60405180910390a1506109dc6112aa565b5050565b5f336109eb81611977565b856109f5816120bf565b856109ff816120bf565b5f8603610a38576040517f1f2a200500000000000000000000000000000000000000000000000000000000815260040160405180910390fd5b8673ffffffffffffffffffffffffffffffffffffffff168873ffffffffffffffffffffffffffffffffffffffff1603610aaa5787876040517f44a401e1000000000000000000000000000000000000000000000000000000008152600401610aa19291906132e3565b60405180910390fd5b610ab2610fc6565b610abb336121b0565b73ffffffffffffffffffffffffffffffffffffffff16638c3bc0b1898989896040518563ffffffff1660e01b8152600401610af994939291906133e2565b6020604051808303815f875af1158015610b15573d5f5f3e3d5ffd5b505050506040513d601f19601f82011682018060405250810190610b399190613439565b9350610b4361135f565b73ffffffffffffffffffffffffffffffffffffffff1663d3a658053360015f9054906101000a900473ffffffffffffffffffffffffffffffffffffffff166040518363ffffffff1660e01b8152600401610b9e9291906132e3565b5f6040518083038186803b158015610bb4575f5ffd5b505afa158015610bc6573d5f5f3e3d5ffd5b505050507fc665f2f5768a61c064dd66125ac01f65d2f20d35ebb13a292211bf50619d753e3389898988604051610c01959493929190613464565b60405180910390a1505050949350505050565b610c1c610f82565b81610c26816119bf565b5f610c318385612251565b9050610c3b610fc6565b610c44836122f6565b7fb84c7ef8bee9fe7d403a64ab2705017891a18609ce1910007c1e674b7685815e848483604051610c77939291906132ae565b60405180910390a15050610c896112aa565b5050565b610c95610f82565b5f5f5f60015f9054906101000a900473ffffffffffffffffffffffffffffffffffffffff1673ffffffffffffffffffffffffffffffffffffffff1663b83e62bf856040518263ffffffff1660e01b8152600401610cf29190613222565b6060604051808303815f875af1158015610d0e573d5f5f3e3d5ffd5b505050506040513d601f19601f82011682018060405250810190610d3291906134b5565b925092509250610d49610d436103ad565b84612418565b8073ffffffffffffffffffffffffffffffffffffffff16636f2bb86a33846040518363ffffffff1660e01b8152600401610d849291906133bb565b5f604051808303815f87803b158015610d9b575f5ffd5b505af1158015610dad573d5f5f3e3d5ffd5b505050507fd58706648644be277f6999c826f65f98128c29c6846a892b929a304a7f19e3eb84610ddb6103ad565b610de3610441565b8686604051610df6959493929190613464565b60405180910390a1505050610e096112aa565b50565b81610e1681611977565b610e1e610f82565b82610e28816119bf565b5f8303610e61576040517f1f2a200500000000000000000000000000000000000000000000000000000000815260040160405180910390fd5b610e69610fc6565b610e73848461252d565b7fcfe29c0d43878d135a747227476edb81a1a255aea285b3aa301e9d5e616539fa610e9d856121b0565b8585604051610eae93929190613505565b60405180910390a150610ebf6112aa565b505050565b60015f9054906101000a900473ffffffffffffffffffffffffffffffffffffffff1681565b600181565b5f60015f9054906101000a900473ffffffffffffffffffffffffffffffffffffffff1673ffffffffffffffffffffffffffffffffffffffff1663c45a01556040518163ffffffff1660e01b8152600401602060405180830381865afa158015610f59573d5f5f3e3d5ffd5b505050506040513d601f19601f82011682018060405250810190610f7d9190613283565b905090565b60025f5403610fbd576040517f3ee5aeb500000000000000000000000000000000000000000000000000000000815260040160405180910390fd5b60025f81905550565b60015f9054906101000a900473ffffffffffffffffffffffffffffffffffffffff1673ffffffffffffffffffffffffffffffffffffffff1663a6afed956040518163ffffffff1660e01b81526004015f604051808303815f87803b15801561102c575f5ffd5b505af115801561103e573d5f5f3e3d5ffd5b50505050565b5f60015f9054906101000a900473ffffffffffffffffffffffffffffffffffffffff1673ffffffffffffffffffffffffffffffffffffffff166368fc0c9a83336040518363ffffffff1660e01b81526004016110a192919061353a565b6020604051808303815f875af11580156110bd573d5f5f3e3d5ffd5b505050506040513d601f19601f820116820180604052508101906110e19190613439565b9050919050565b600173ffffffffffffffffffffffffffffffffffffffff166111086103ad565b73ffffffffffffffffffffffffffffffffffffffff16036112745760018060146101000a81548160ff0219169083151502179055506111456104d5565b73ffffffffffffffffffffffffffffffffffffffff16632e1a7d4d826040518263ffffffff1660e01b815260040161117d9190613191565b5f604051808303815f87803b158015611194575f5ffd5b505af11580156111a6573d5f5f3e3d5ffd5b505050505f3373ffffffffffffffffffffffffffffffffffffffff16826040516111cf9061358e565b5f6040518083038185875af1925050503d805f8114611209576040519150601f19603f3d011682016040523d82523d5f602084013e61120e565b606091505b505090508061125457816040517fc39ba1a900000000000000000000000000000000000000000000000000000000815260040161124b9190613191565b60405180910390fd5b5f600160146101000a81548160ff021916908315150217905550506112a7565b6112a633826112816103ad565b73ffffffffffffffffffffffffffffffffffffffff1661271d9092919063ffffffff16565b5b50565b60015f81905550565b5f5f5f60015f9054906101000a900473ffffffffffffffffffffffffffffffffffffffff1673ffffffffffffffffffffffffffffffffffffffff166335fce80e86866040518363ffffffff1660e01b815260040161131292919061353a565b6060604051808303815f875af115801561132e573d5f5f3e3d5ffd5b505050506040513d601f19601f8201168201806040525081019061135291906135a2565b9250925092509250925092565b5f611368610eee565b73ffffffffffffffffffffffffffffffffffffffff1663e40208046040518163ffffffff1660e01b8152600401602060405180830381865afa1580156113b0573d5f5f3e3d5ffd5b505050506040513d601f19601f820116820180604052508101906113d49190613283565b905090565b5f6113e2610eee565b73ffffffffffffffffffffffffffffffffffffffff1663f151e497836040518263ffffffff1660e01b815260040161141a9190613191565b602060405180830381865afa158015611435573d5f5f3e3d5ffd5b505050506040513d601f19601f82011682018060405250810190611459919061362b565b9050919050565b5f61147d825f61146e61279c565b6127c49092919063ffffffff16565b90505f6040518060e001604052808563ffffffff1681526020013373ffffffffffffffffffffffffffffffffffffffff165f1b815260200187815260200187815260200183815260200160405180602001604052805f815250815260200160405180602001604052805f81525081525090506115286114fa61285c565b866115036103ad565b73ffffffffffffffffffffffffffffffffffffffff1661271d9092919063ffffffff16565b5f6115316128d6565b73ffffffffffffffffffffffffffffffffffffffff16633b6f743b835f6040518363ffffffff1660e01b815260040161156b9291906137b2565b6040805180830381865afa158015611585573d5f5f3e3d5ffd5b505050506040513d601f19601f820116820180604052508101906115a991906138a9565b90506115b36103ad565b73ffffffffffffffffffffffffffffffffffffffff1663095ea7b36115d66128d6565b896040518363ffffffff1660e01b81526004016115f49291906133bb565b6020604051808303815f875af1158015611610573d5f5f3e3d5ffd5b505050506040513d601f19601f8201168201806040525081019061163491906138e8565b5061163d6128d6565b73ffffffffffffffffffffffffffffffffffffffff1663c7c7f5b3825f01518484336040518563ffffffff1660e01b815260040161167d93929190613940565b60c06040518083038185885af1158015611699573d5f5f3e3d5ffd5b50505050506040513d601f19601f820116820180604052508101906116be9190613a91565b505050505050505050565b600173ffffffffffffffffffffffffffffffffffffffff166116e96103ad565b73ffffffffffffffffffffffffffffffffffffffff16036119075760018060146101000a81548160ff0219169083151502179055506117266104d5565b73ffffffffffffffffffffffffffffffffffffffff16632e1a7d4d836040518263ffffffff1660e01b815260040161175e9190613191565b5f604051808303815f87803b158015611775575f5ffd5b505af1158015611787573d5f5f3e3d5ffd5b505050505f61179461285c565b73ffffffffffffffffffffffffffffffffffffffff16826040516117b79061358e565b5f6040518083038185875af1925050503d805f81146117f1576040519150601f19603f3d011682016040523d82523d5f602084013e6117f6565b606091505b505090508061183c57816040517fc39ba1a90000000000000000000000000000000000000000000000000000000081526004016118339190613191565b60405180910390fd5b5f3373ffffffffffffffffffffffffffffffffffffffff16846040516118619061358e565b5f6040518083038185875af1925050503d805f811461189b576040519150601f19603f3d011682016040523d82523d5f602084013e6118a0565b606091505b50509050806118e657836040517fc39ba1a90000000000000000000000000000000000000000000000000000000081526004016118dd9190613191565b60405180910390fd5b5f600160146101000a81548160ff0219169083151502179055505050611973565b61194061191261285c565b8261191b6103ad565b73ffffffffffffffffffffffffffffffffffffffff1661271d9092919063ffffffff16565b611972338361194d6103ad565b73ffffffffffffffffffffffffffffffffffffffff1661271d9092919063ffffffff16565b5b5050565b5f73ffffffffffffffffffffffffffffffffffffffff16611997826121b0565b73ffffffffffffffffffffffffffffffffffffffff16036119bc576119bb81612962565b5b50565b6119c7610eee565b73ffffffffffffffffffffffffffffffffffffffff16639a307391336040518263ffffffff1660e01b81526004016119ff9190613222565b602060405180830381865afa158015611a1a573d5f5f3e3d5ffd5b505050506040513d601f19601f82011682018060405250810190611a3e91906138e8565b611ab3578073ffffffffffffffffffffffffffffffffffffffff163373ffffffffffffffffffffffffffffffffffffffff1614611ab257336040517f4a0bfec1000000000000000000000000000000000000000000000000000000008152600401611aa99190613222565b60405180910390fd5b5b50565b5f60015f9054906101000a900473ffffffffffffffffffffffffffffffffffffffff1673ffffffffffffffffffffffffffffffffffffffff16634fd422df836040518263ffffffff1660e01b8152600401611b119190613222565b602060405180830381865afa158015611b2c573d5f5f3e3d5ffd5b505050506040513d601f19601f82011682018060405250810190611b509190613439565b9050919050565b5f5f5f5f60015f9054906101000a900473ffffffffffffffffffffffffffffffffffffffff1673ffffffffffffffffffffffffffffffffffffffff16639d058e6787876040518363ffffffff1660e01b8152600401611bb792919061353a565b6080604051808303815f875af1158015611bd3573d5f5f3e3d5ffd5b505050506040513d601f19601f82011682018060405250810190611bf79190613acf565b935093509350935092959194509250565b611c106103ad565b73ffffffffffffffffffffffffffffffffffffffff168473ffffffffffffffffffffffffffffffffffffffff16148015611c48575080155b15611d7d57600173ffffffffffffffffffffffffffffffffffffffff16611c6d6103ad565b73ffffffffffffffffffffffffffffffffffffffff16148015611c8f57505f34115b15611d4357823414611cda5734836040517ff997ccc6000000000000000000000000000000000000000000000000000000008152600401611cd1929190613394565b60405180910390fd5b611ce26104d5565b73ffffffffffffffffffffffffffffffffffffffff1663d0e30db0346040518263ffffffff1660e01b81526004015f604051808303818588803b158015611d27575f5ffd5b505af1158015611d39573d5f5f3e3d5ffd5b5050505050611d78565b611d77853085611d516103ad565b73ffffffffffffffffffffffffffffffffffffffff16612ac1909392919063ffffffff16565b5b611f1f565b8015611dfa57611d8c856121b0565b73ffffffffffffffffffffffffffffffffffffffff1663bc4c86268585856040518463ffffffff1660e01b8152600401611dc8939291906132ae565b5f604051808303815f87803b158015611ddf575f5ffd5b505af1158015611df1573d5f5f3e3d5ffd5b50505050611f1e565b611e278530858773ffffffffffffffffffffffffffffffffffffffff16612ac1909392919063ffffffff16565b8373ffffffffffffffffffffffffffffffffffffffff1663095ea7b3611e4c876121b0565b856040518363ffffffff1660e01b8152600401611e6a9291906133bb565b6020604051808303815f875af1158015611e86573d5f5f3e3d5ffd5b505050506040513d601f19601f82011682018060405250810190611eaa91906138e8565b50611eb4856121b0565b73ffffffffffffffffffffffffffffffffffffffff16631fc14d5b8585856040518463ffffffff1660e01b8152600401611ef0939291906132ae565b5f604051808303815f87803b158015611f07575f5ffd5b505af1158015611f19573d5f5f3e3d5ffd5b505050505b5b5050505050565b5f611f2f610441565b90505f600173ffffffffffffffffffffffffffffffffffffffff168273ffffffffffffffffffffffffffffffffffffffff1614611f6c5781611f75565b611f746104d5565b5b90505f8173ffffffffffffffffffffffffffffffffffffffff166370a08231611f9d336121b0565b6040518263ffffffff1660e01b8152600401611fb99190613222565b602060405180830381865afa158015611fd4573d5f5f3e3d5ffd5b505050506040513d601f19601f82011682018060405250810190611ff89190613439565b9050808411156120415783816040517fb07e3bc4000000000000000000000000000000000000000000000000000000008152600401612038929190613394565b60405180910390fd5b612049610fc6565b612052336121b0565b73ffffffffffffffffffffffffffffffffffffffff16630af504cc85336040518363ffffffff1660e01b815260040161208c92919061353a565b5f604051808303815f87803b1580156120a3575f5ffd5b505af11580156120b5573d5f5f3e3d5ffd5b5050505050505050565b5f73ffffffffffffffffffffffffffffffffffffffff166120de612b43565b73ffffffffffffffffffffffffffffffffffffffff16639878cbb3836040518263ffffffff1660e01b81526004016121169190613222565b602060405180830381865afa158015612131573d5f5f3e3d5ffd5b505050506040513d601f19601f820116820180604052508101906121559190613283565b73ffffffffffffffffffffffffffffffffffffffff16036121ad57806040517f1ab523340000000000000000000000000000000000000000000000000000000081526004016121a49190613222565b60405180910390fd5b50565b5f60015f9054906101000a900473ffffffffffffffffffffffffffffffffffffffff1673ffffffffffffffffffffffffffffffffffffffff1663f79c3800836040518263ffffffff1660e01b815260040161220b9190613222565b602060405180830381865afa158015612226573d5f5f3e3d5ffd5b505050506040513d601f19601f8201168201806040525081019061224a9190613283565b9050919050565b5f60015f9054906101000a900473ffffffffffffffffffffffffffffffffffffffff1673ffffffffffffffffffffffffffffffffffffffff166311d9dbd384846040518363ffffffff1660e01b81526004016122ae92919061353a565b6020604051808303815f875af11580156122ca573d5f5f3e3d5ffd5b505050506040513d601f19601f820116820180604052508101906122ee9190613439565b905092915050565b600173ffffffffffffffffffffffffffffffffffffffff166123166103ad565b73ffffffffffffffffffffffffffffffffffffffff16036123e0578034146123775734816040517fe65fd68d00000000000000000000000000000000000000000000000000000000815260040161236e929190613394565b60405180910390fd5b61237f6104d5565b73ffffffffffffffffffffffffffffffffffffffff1663d0e30db0826040518263ffffffff1660e01b81526004015f604051808303818588803b1580156123c4575f5ffd5b505af11580156123d6573d5f5f3e3d5ffd5b5050505050612415565b6124143330836123ee6103ad565b73ffffffffffffffffffffffffffffffffffffffff16612ac1909392919063ffffffff16565b5b50565b600173ffffffffffffffffffffffffffffffffffffffff168273ffffffffffffffffffffffffffffffffffffffff16036124fb578034146124925734816040517f7a3f44dc000000000000000000000000000000000000000000000000000000008152600401612489929190613394565b60405180910390fd5b61249a6104d5565b73ffffffffffffffffffffffffffffffffffffffff1663d0e30db0346040518263ffffffff1660e01b81526004015f604051808303818588803b1580156124df575f5ffd5b505af11580156124f1573d5f5f3e3d5ffd5b5050505050612529565b6125283330838573ffffffffffffffffffffffffffffffffffffffff16612ac1909392919063ffffffff16565b5b5050565b600173ffffffffffffffffffffffffffffffffffffffff1661254d610441565b73ffffffffffffffffffffffffffffffffffffffff16036126dc578034146125ae5734816040517f430ed2960000000000000000000000000000000000000000000000000000000081526004016125a5929190613394565b60405180910390fd5b6125b66104d5565b73ffffffffffffffffffffffffffffffffffffffff1663d0e30db0346040518263ffffffff1660e01b81526004015f604051808303818588803b1580156125fb575f5ffd5b505af115801561260d573d5f5f3e3d5ffd5b505050505061261a6104d5565b73ffffffffffffffffffffffffffffffffffffffff1663095ea7b361263e846121b0565b836040518363ffffffff1660e01b815260040161265c9291906133bb565b6020604051808303815f875af1158015612678573d5f5f3e3d5ffd5b505050506040513d601f19601f8201168201806040525081019061269c91906138e8565b506126d76126a9836121b0565b826126b26104d5565b73ffffffffffffffffffffffffffffffffffffffff1661271d9092919063ffffffff16565b612719565b612718826126e9846121b0565b836126f2610441565b73ffffffffffffffffffffffffffffffffffffffff16612ac1909392919063ffffffff16565b5b5050565b612797838473ffffffffffffffffffffffffffffffffffffffff1663a9059cbb85856040516024016127509291906133bb565b604051602081830303815290604052915060e01b6020820180517bffffffffffffffffffffffffffffffffffffffffffffffffffffffff8381831617835250505050612bbd565b505050565b606060036040516020016127b09190613b74565b604051602081830303815290604052905090565b606083600361ffff166127e05f83612c5890919063ffffffff16565b61ffff1614612838576127fc5f82612c5890919063ffffffff16565b6040517f3a51740d00000000000000000000000000000000000000000000000000000000815260040161282f9190613b9d565b60405180910390fd5b5f6128438585612cbd565b905061285186600183612d28565b925050509392505050565b5f612865610eee565b73ffffffffffffffffffffffffffffffffffffffff16638ce744266040518163ffffffff1660e01b8152600401602060405180830381865afa1580156128ad573d5f5f3e3d5ffd5b505050506040513d601f19601f820116820180604052508101906128d19190613283565b905090565b5f6128df610eee565b73ffffffffffffffffffffffffffffffffffffffff1663efe1b2cd6129026103ad565b6040518263ffffffff1660e01b815260040161291e9190613222565b602060405180830381865afa158015612939573d5f5f3e3d5ffd5b505050506040513d601f19601f8201168201806040525081019061295d9190613283565b905090565b5f73ffffffffffffffffffffffffffffffffffffffff16612982826121b0565b73ffffffffffffffffffffffffffffffffffffffff16146129e2576129a6816121b0565b6040517f5951739c0000000000000000000000000000000000000000000000000000000081526004016129d99190613222565b60405180910390fd5b60015f9054906101000a900473ffffffffffffffffffffffffffffffffffffffff1673ffffffffffffffffffffffffffffffffffffffff1663f7e0ebf6826040518263ffffffff1660e01b8152600401612a3c9190613222565b6020604051808303815f875af1158015612a58573d5f5f3e3d5ffd5b505050506040513d601f19601f82011682018060405250810190612a7c9190613283565b507fcc3763c1c0784da97ef19dc776e12897dc1cfba3c2cab71b208490e993ba569481612aa8836121b0565b604051612ab69291906132e3565b60405180910390a150565b612b3d848573ffffffffffffffffffffffffffffffffffffffff166323b872dd868686604051602401612af693929190613505565b604051602081830303815290604052915060e01b6020820180517bffffffffffffffffffffffffffffffffffffffffffffffffffffffff8381831617835250505050612bbd565b50505050565b5f612b4c610eee565b73ffffffffffffffffffffffffffffffffffffffff166375b568a66040518163ffffffff1660e01b8152600401602060405180830381865afa158015612b94573d5f5f3e3d5ffd5b505050506040513d601f19601f82011682018060405250810190612bb89190613283565b905090565b5f5f60205f8451602086015f885af180612bdc576040513d5f823e3d81fd5b3d92505f519150505f8214612bf5576001811415612c10565b5f8473ffffffffffffffffffffffffffffffffffffffff163b145b15612c5257836040517f5274afe7000000000000000000000000000000000000000000000000000000008152600401612c499190613222565b60405180910390fd5b50505050565b5f600282612c669190613be3565b83511015612ca9576040517f08c379a0000000000000000000000000000000000000000000000000000000008152600401612ca090613c60565b60405180910390fd5b5f8260028501015190508091505092915050565b60605f826fffffffffffffffffffffffffffffffff1614612cff578282604051602001612ceb929190613cb2565b604051602081830303815290604052612d20565b82604051602001612d109190613cdd565b6040516020818303038152906040525b905092915050565b606083600361ffff16612d445f83612c5890919063ffffffff16565b61ffff1614612d9c57612d605f82612c5890919063ffffffff16565b6040517f3a51740d000000000000000000000000000000000000000000000000000000008152600401612d939190613b9d565b60405180910390fd5b84600180612daa8651612de3565b612db49190613cf7565b8686604051602001612dca959493929190613d90565b6040516020818303038152906040529150509392505050565b5f61ffff8016821115612e30576010826040517f6dfcc650000000000000000000000000000000000000000000000000000000008152600401612e27929190613e1f565b60405180910390fd5b819050919050565b5f82825260208201905092915050565b7f556e6578706563746564206e617469766520746f6b656e0000000000000000005f82015250565b5f612e7c601783612e38565b9150612e8782612e48565b602082019050919050565b5f6020820190508181035f830152612ea981612e70565b9050919050565b7f46616c6c6261636b206e6f7420616c6c6f7765640000000000000000000000005f82015250565b5f612ee4601483612e38565b9150612eef82612eb0565b602082019050919050565b5f6020820190508181035f830152612f1181612ed8565b9050919050565b5f604051905090565b5f5ffd5b5f819050919050565b612f3781612f25565b8114612f41575f5ffd5b50565b5f81359050612f5281612f2e565b92915050565b5f60208284031215612f6d57612f6c612f21565b5b5f612f7a84828501612f44565b91505092915050565b5f6fffffffffffffffffffffffffffffffff82169050919050565b612fa781612f83565b8114612fb1575f5ffd5b50565b5f81359050612fc281612f9e565b92915050565b5f5f5f60608486031215612fdf57612fde612f21565b5b5f612fec86828701612f44565b9350506020612ffd86828701612f44565b925050604061300e86828701612fb4565b9150509250925092565b5f73ffffffffffffffffffffffffffffffffffffffff82169050919050565b5f61304182613018565b9050919050565b61305181613037565b811461305b575f5ffd5b50565b5f8135905061306c81613048565b92915050565b5f8115159050919050565b61308681613072565b8114613090575f5ffd5b50565b5f813590506130a18161307d565b92915050565b5f5f5f5f5f60a086880312156130c0576130bf612f21565b5b5f6130cd8882890161305e565b95505060206130de8882890161305e565b94505060406130ef88828901612f44565b935050606061310088828901612f44565b925050608061311188828901613093565b9150509295509295909350565b5f5f5f5f6080858703121561313657613135612f21565b5b5f6131438782880161305e565b94505060206131548782880161305e565b935050604061316587828801612f44565b925050606061317687828801612f44565b91505092959194509250565b61318b81612f25565b82525050565b5f6020820190506131a45f830184613182565b92915050565b5f5f604083850312156131c0576131bf612f21565b5b5f6131cd8582860161305e565b92505060206131de85828601612f44565b9150509250929050565b5f602082840312156131fd576131fc612f21565b5b5f61320a8482850161305e565b91505092915050565b61321c81613037565b82525050565b5f6020820190506132355f830184613213565b92915050565b5f60ff82169050919050565b6132508161323b565b82525050565b5f6020820190506132695f830184613247565b92915050565b5f8151905061327d81613048565b92915050565b5f6020828403121561329857613297612f21565b5b5f6132a58482850161326f565b91505092915050565b5f6060820190506132c15f830186613213565b6132ce6020830185613182565b6132db6040830184613182565b949350505050565b5f6040820190506132f65f830185613213565b6133036020830184613213565b9392505050565b5f819050919050565b5f61332d61332861332384612f83565b61330a565b612f25565b9050919050565b61333d81613313565b82525050565b5f60a0820190506133565f830188613213565b6133636020830187613182565b6133706040830186613182565b61337d6060830185613182565b61338a6080830184613334565b9695505050505050565b5f6040820190506133a75f830185613182565b6133b46020830184613182565b9392505050565b5f6040820190506133ce5f830185613213565b6133db6020830184613182565b9392505050565b5f6080820190506133f55f830187613213565b6134026020830186613213565b61340f6040830185613182565b61341c6060830184613182565b95945050505050565b5f8151905061343381612f2e565b92915050565b5f6020828403121561344e5761344d612f21565b5b5f61345b84828501613425565b91505092915050565b5f60a0820190506134775f830188613213565b6134846020830187613213565b6134916040830186613213565b61349e6060830185613182565b6134ab6080830184613182565b9695505050505050565b5f5f5f606084860312156134cc576134cb612f21565b5b5f6134d986828701613425565b93505060206134ea86828701613425565b92505060406134fb8682870161326f565b9150509250925092565b5f6060820190506135185f830186613213565b6135256020830185613213565b6135326040830184613182565b949350505050565b5f60408201905061354d5f830185613182565b61355a6020830184613213565b9392505050565b5f81905092915050565b50565b5f6135795f83613561565b91506135848261356b565b5f82019050919050565b5f6135988261356e565b9150819050919050565b5f5f5f606084860312156135b9576135b8612f21565b5b5f6135c686828701613425565b93505060206135d786828701613425565b92505060406135e886828701613425565b9150509250925092565b5f63ffffffff82169050919050565b61360a816135f2565b8114613614575f5ffd5b50565b5f8151905061362581613601565b92915050565b5f602082840312156136405761363f612f21565b5b5f61364d84828501613617565b91505092915050565b61365f816135f2565b82525050565b5f819050919050565b61367781613665565b82525050565b61368681612f25565b82525050565b5f81519050919050565b5f82825260208201905092915050565b8281835e5f83830152505050565b5f601f19601f8301169050919050565b5f6136ce8261368c565b6136d88185613696565b93506136e88185602086016136a6565b6136f1816136b4565b840191505092915050565b5f60e083015f8301516137115f860182613656565b506020830151613724602086018261366e565b506040830151613737604086018261367d565b50606083015161374a606086018261367d565b506080830151848203608086015261376282826136c4565b91505060a083015184820360a086015261377c82826136c4565b91505060c083015184820360c086015261379682826136c4565b9150508091505092915050565b6137ac81613072565b82525050565b5f6040820190508181035f8301526137ca81856136fc565b90506137d960208301846137a3565b9392505050565b5f5ffd5b7f4e487b71000000000000000000000000000000000000000000000000000000005f52604160045260245ffd5b61381a826136b4565b810181811067ffffffffffffffff82111715613839576138386137e4565b5b80604052505050565b5f61384b612f18565b90506138578282613811565b919050565b5f60408284031215613871576138706137e0565b5b61387b6040613842565b90505f61388a84828501613425565b5f83015250602061389d84828501613425565b60208301525092915050565b5f604082840312156138be576138bd612f21565b5b5f6138cb8482850161385c565b91505092915050565b5f815190506138e28161307d565b92915050565b5f602082840312156138fd576138fc612f21565b5b5f61390a848285016138d4565b91505092915050565b604082015f8201516139275f85018261367d565b50602082015161393a602085018261367d565b50505050565b5f6080820190508181035f83015261395881866136fc565b90506139676020830185613913565b6139746060830184613213565b949350505050565b61398581613665565b811461398f575f5ffd5b50565b5f815190506139a08161397c565b92915050565b5f67ffffffffffffffff82169050919050565b6139c2816139a6565b81146139cc575f5ffd5b50565b5f815190506139dd816139b9565b92915050565b5f608082840312156139f8576139f76137e0565b5b613a026060613842565b90505f613a1184828501613992565b5f830152506020613a24848285016139cf565b6020830152506040613a388482850161385c565b60408301525092915050565b5f60408284031215613a5957613a586137e0565b5b613a636040613842565b90505f613a7284828501613425565b5f830152506020613a8584828501613425565b60208301525092915050565b5f5f60c08385031215613aa757613aa6612f21565b5b5f613ab4858286016139e3565b9250506080613ac585828601613a44565b9150509250929050565b5f5f5f5f60808587031215613ae757613ae6612f21565b5b5f613af487828801613425565b9450506020613b0587828801613425565b9350506040613b1687828801613425565b9250506060613b2787828801613425565b91505092959194509250565b5f61ffff82169050919050565b5f8160f01b9050919050565b5f613b5682613b40565b9050919050565b613b6e613b6982613b33565b613b4c565b82525050565b5f613b7f8284613b5d565b60028201915081905092915050565b613b9781613b33565b82525050565b5f602082019050613bb05f830184613b8e565b92915050565b7f4e487b71000000000000000000000000000000000000000000000000000000005f52601160045260245ffd5b5f613bed82612f25565b9150613bf883612f25565b9250828201905080821115613c1057613c0f613bb6565b5b92915050565b7f746f55696e7431365f6f75744f66426f756e64730000000000000000000000005f82015250565b5f613c4a601483612e38565b9150613c5582613c16565b602082019050919050565b5f6020820190508181035f830152613c7781613c3e565b9050919050565b5f8160801b9050919050565b5f613c9482613c7e565b9050919050565b613cac613ca782612f83565b613c8a565b82525050565b5f613cbd8285613c9b565b601082019150613ccd8284613c9b565b6010820191508190509392505050565b5f613ce88284613c9b565b60108201915081905092915050565b5f613d0182613b33565b9150613d0c83613b33565b9250828201905061ffff811115613d2657613d25613bb6565b5b92915050565b5f613d368261368c565b613d408185613561565b9350613d508185602086016136a6565b80840191505092915050565b5f8160f81b9050919050565b5f613d7282613d5c565b9050919050565b613d8a613d858261323b565b613d68565b82525050565b5f613d9b8288613d2c565b9150613da78287613d79565b600182019150613db78286613b5d565b600282019150613dc78285613d79565b600182019150613dd78284613d2c565b91508190509695505050505050565b5f819050919050565b5f613e09613e04613dff84613de6565b61330a565b61323b565b9050919050565b613e1981613def565b82525050565b5f604082019050613e325f830185613e10565b613e3f6020830184613182565b939250505056fea26469706673582212203bac549dc8abd082c6467ec3e6e79f525d0081f969a4b54a1b672c41b81f91c664736f6c634300081e0033","linkReferences":{}},"methodIdentifiers":{"VERSION()":"ffa1ad74","borrowDebt(uint256,uint256,uint128)":"456ed804","liquidation(address)":"b83e62bf","repayWithSelectedToken(address,address,uint256,uint256,bool)":"557c3b3a","router()":"f887ea40","supplyCollateral(address,uint256)":"d2a8607b","supplyLiquidity(address,uint256)":"b39e3771","swapTokenByPosition(address,address,uint256,uint256)":"8c3bc0b1","withdrawCollateral(uint256)":"6112fe2e","withdrawLiquidity(uint256)":"0a861f2a"},"id":102}