{"abi":[{"type":"constructor","inputs":[{"name":"_router","type":"address","internalType":"address"}],"stateMutability":"nonpayable"},{"type":"fallback","stateMutability":"payable"},{"type":"receive","stateMutability":"payable"},{"type":"function","name":"VERSION","inputs":[],"outputs":[{"name":"","type":"uint8","internalType":"uint8"}],"stateMutability":"view"},{"type":"function","name":"borrowDebt","inputs":[{"name":"_amount","type":"uint256","internalType":"uint256"},{"name":"_chainId","type":"uint256","internalType":"uint256"},{"name":"_dstEid","type":"uint32","internalType":"uint32"},{"name":"_addExecutorLzReceiveOption","type":"uint128","internalType":"uint128"}],"outputs":[],"stateMutability":"payable"},{"type":"function","name":"checkLiquidation","inputs":[{"name":"borrower","type":"address","internalType":"address"}],"outputs":[{"name":"isLiquidatable","type":"bool","internalType":"bool"},{"name":"borrowValue","type":"uint256","internalType":"uint256"},{"name":"collateralValue","type":"uint256","internalType":"uint256"}],"stateMutability":"view"},{"type":"function","name":"liquidateByDEX","inputs":[{"name":"borrower","type":"address","internalType":"address"},{"name":"liquidationIncentive","type":"uint256","internalType":"uint256"}],"outputs":[{"name":"liquidatedAmount","type":"uint256","internalType":"uint256"}],"stateMutability":"nonpayable"},{"type":"function","name":"liquidateByMEV","inputs":[{"name":"borrower","type":"address","internalType":"address"},{"name":"repayAmount","type":"uint256","internalType":"uint256"},{"name":"liquidationIncentive","type":"uint256","internalType":"uint256"}],"outputs":[],"stateMutability":"payable"},{"type":"function","name":"repayWithSelectedToken","inputs":[{"name":"shares","type":"uint256","internalType":"uint256"},{"name":"_token","type":"address","internalType":"address"},{"name":"_fromPosition","type":"bool","internalType":"bool"},{"name":"_user","type":"address","internalType":"address"}],"outputs":[],"stateMutability":"payable"},{"type":"function","name":"router","inputs":[],"outputs":[{"name":"","type":"address","internalType":"address"}],"stateMutability":"view"},{"type":"function","name":"supplyCollateral","inputs":[{"name":"_amount","type":"uint256","internalType":"uint256"},{"name":"_user","type":"address","internalType":"address"}],"outputs":[],"stateMutability":"payable"},{"type":"function","name":"supplyLiquidity","inputs":[{"name":"_user","type":"address","internalType":"address"},{"name":"_amount","type":"uint256","internalType":"uint256"}],"outputs":[],"stateMutability":"payable"},{"type":"function","name":"withdrawCollateral","inputs":[{"name":"_amount","type":"uint256","internalType":"uint256"}],"outputs":[],"stateMutability":"nonpayable"},{"type":"function","name":"withdrawLiquidity","inputs":[{"name":"_shares","type":"uint256","internalType":"uint256"}],"outputs":[],"stateMutability":"payable"},{"type":"event","name":"BorrowDebtCrosschain","inputs":[{"name":"user","type":"address","indexed":false,"internalType":"address"},{"name":"amount","type":"uint256","indexed":false,"internalType":"uint256"},{"name":"shares","type":"uint256","indexed":false,"internalType":"uint256"},{"name":"chainId","type":"uint256","indexed":false,"internalType":"uint256"},{"name":"addExecutorLzReceiveOption","type":"uint256","indexed":false,"internalType":"uint256"}],"anonymous":false},{"type":"event","name":"CreatePosition","inputs":[{"name":"user","type":"address","indexed":false,"internalType":"address"},{"name":"positionAddress","type":"address","indexed":false,"internalType":"address"}],"anonymous":false},{"type":"event","name":"InterestRateModelSet","inputs":[{"name":"oldModel","type":"address","indexed":true,"internalType":"address"},{"name":"newModel","type":"address","indexed":true,"internalType":"address"}],"anonymous":false},{"type":"event","name":"RepayByPosition","inputs":[{"name":"user","type":"address","indexed":false,"internalType":"address"},{"name":"amount","type":"uint256","indexed":false,"internalType":"uint256"},{"name":"shares","type":"uint256","indexed":false,"internalType":"uint256"}],"anonymous":false},{"type":"event","name":"SupplyCollateral","inputs":[{"name":"user","type":"address","indexed":false,"internalType":"address"},{"name":"amount","type":"uint256","indexed":false,"internalType":"uint256"}],"anonymous":false},{"type":"event","name":"SupplyLiquidity","inputs":[{"name":"user","type":"address","indexed":false,"internalType":"address"},{"name":"amount","type":"uint256","indexed":false,"internalType":"uint256"},{"name":"shares","type":"uint256","indexed":false,"internalType":"uint256"}],"anonymous":false},{"type":"event","name":"WithdrawLiquidity","inputs":[{"name":"user","type":"address","indexed":false,"internalType":"address"},{"name":"amount","type":"uint256","indexed":false,"internalType":"uint256"},{"name":"shares","type":"uint256","indexed":false,"internalType":"uint256"}],"anonymous":false},{"type":"error","name":"InsufficientBorrowShares","inputs":[]},{"type":"error","name":"InsufficientCollateral","inputs":[]},{"type":"error","name":"InsufficientContractBalance","inputs":[]},{"type":"error","name":"InsufficientLiquidity","inputs":[]},{"type":"error","name":"InsufficientShares","inputs":[]},{"type":"error","name":"InvalidOptionType","inputs":[{"name":"optionType","type":"uint16","internalType":"uint16"}]},{"type":"error","name":"InvalidParameter","inputs":[]},{"type":"error","name":"LTVExceedMaxAmount","inputs":[]},{"type":"error","name":"NotAuthorized","inputs":[{"name":"executor","type":"address","internalType":"address"}]},{"type":"error","name":"NotOperator","inputs":[]},{"type":"error","name":"PositionAlreadyCreated","inputs":[]},{"type":"error","name":"ReentrancyGuardReentrantCall","inputs":[]},{"type":"error","name":"SafeCastOverflowedUintDowncast","inputs":[{"name":"bits","type":"uint8","internalType":"uint8"},{"name":"value","type":"uint256","internalType":"uint256"}]},{"type":"error","name":"SafeERC20FailedOperation","inputs":[{"name":"token","type":"address","internalType":"address"}]},{"type":"error","name":"TokenNotAvailable","inputs":[]},{"type":"error","name":"TransferFailed","inputs":[]},{"type":"error","name":"ZeroAmount","inputs":[]},{"type":"error","name":"amountSharesInvalid","inputs":[]}],"bytecode":{"object":"0x608060405234801561000f575f5ffd5b50604051613e54380380613e54833981810160405281019061003191906100dc565b60015f819055508060015f6101000a81548173ffffffffffffffffffffffffffffffffffffffff021916908373ffffffffffffffffffffffffffffffffffffffff16021790555050610107565b5f5ffd5b5f73ffffffffffffffffffffffffffffffffffffffff82169050919050565b5f6100ab82610082565b9050919050565b6100bb816100a1565b81146100c5575f5ffd5b50565b5f815190506100d6816100b2565b92915050565b5f602082840312156100f1576100f061007e565b5b5f6100fe848285016100c8565b91505092915050565b613d40806101145f395ff3fe60806040526004361061009f575f3560e01c80636112fe2e116100635780636112fe2e146102f857806362c5f6c714610320578063a274f4ac1461033c578063b39e37711461037a578063f887ea4014610396578063ffa1ad74146103c057610211565b80630a861f2a1461024c578063141b0c4c146102685780631e686065146102845780632392478c146102a05780633f7a1a7e146102bc57610211565b36610211575f341180156100c05750600160149054906101000a900460ff16155b801561013d5750600173ffffffffffffffffffffffffffffffffffffffff166100e76103ea565b73ffffffffffffffffffffffffffffffffffffffff16148061013c5750600173ffffffffffffffffffffffffffffffffffffffff1661012461047e565b73ffffffffffffffffffffffffffffffffffffffff16145b5b156101ab5761014a610512565b73ffffffffffffffffffffffffffffffffffffffff1663d0e30db0346040518263ffffffff1660e01b81526004015f604051808303818588803b15801561018f575f5ffd5b505af11580156101a1573d5f5f3e3d5ffd5b505050505061020e565b5f341180156101c65750600160149054906101000a900460ff165b61020f575f34111561020d576040517f08c379a000000000000000000000000000000000000000000000000000000000815260040161020490612ca6565b60405180910390fd5b5b5b005b6040517f08c379a000000000000000000000000000000000000000000000000000000000815260040161024390612d0e565b60405180910390fd5b61026660048036038101906102619190612d6c565b61058c565b005b610282600480360381019061027d9190612df1565b6107a1565b005b61029e60048036038101906102999190612e76565b61085a565b005b6102ba60048036038101906102b59190612f58565b610b2e565b005b3480156102c7575f5ffd5b506102e260048036038101906102dd9190612fbc565b611381565b6040516102ef9190613009565b60405180910390f35b348015610303575f5ffd5b5061031e60048036038101906103199190612d6c565b61144d565b005b61033a60048036038101906103359190613022565b611820565b005b348015610347575f5ffd5b50610362600480360381019061035d9190613060565b611aa3565b6040516103719392919061309a565b60405180910390f35b610394600480360381019061038f9190612fbc565b611be2565b005b3480156103a1575f5ffd5b506103aa611d64565b6040516103b791906130de565b60405180910390f35b3480156103cb575f5ffd5b506103d4611d89565b6040516103e19190613112565b60405180910390f35b5f60015f9054906101000a900473ffffffffffffffffffffffffffffffffffffffff1673ffffffffffffffffffffffffffffffffffffffff1663456dc17a6040518163ffffffff1660e01b8152600401602060405180830381865afa158015610455573d5f5f3e3d5ffd5b505050506040513d601f19601f82011682018060405250810190610479919061313f565b905090565b5f60015f9054906101000a900473ffffffffffffffffffffffffffffffffffffffff1673ffffffffffffffffffffffffffffffffffffffff1663b2016bd46040518163ffffffff1660e01b8152600401602060405180830381865afa1580156104e9573d5f5f3e3d5ffd5b505050506040513d601f19601f8201168201806040525081019061050d919061313f565b905090565b5f61051b611d8e565b73ffffffffffffffffffffffffffffffffffffffff1663145d51d86040518163ffffffff1660e01b8152600401602060405180830381865afa158015610563573d5f5f3e3d5ffd5b505050506040513d601f19601f82011682018060405250810190610587919061313f565b905090565b610594611e22565b5f61059e82611e66565b90505f600173ffffffffffffffffffffffffffffffffffffffff166105c16103ea565b73ffffffffffffffffffffffffffffffffffffffff1614905080156107265760018060146101000a81548160ff021916908315150217905550610602610512565b73ffffffffffffffffffffffffffffffffffffffff16632e1a7d4d836040518263ffffffff1660e01b815260040161063a9190613009565b5f604051808303815f87803b158015610651575f5ffd5b505af1158015610663573d5f5f3e3d5ffd5b505050505f3373ffffffffffffffffffffffffffffffffffffffff168360405161068c90613197565b5f6040518083038185875af1925050503d805f81146106c6576040519150601f19603f3d011682016040523d82523d5f602084013e6106cb565b606091505b5050905080610706576040517f90b8ec1800000000000000000000000000000000000000000000000000000000815260040160405180910390fd5b5f600160146101000a81548160ff02191690831515021790555050610759565b61075833836107336103ea565b73ffffffffffffffffffffffffffffffffffffffff16611f0a9092919063ffffffff16565b5b7fac927268ea9ae2e55027e6ab727fc2db8e3ea48c56c658223a1074567e4298c033838560405161078c939291906131ab565b60405180910390a1505061079e611f89565b50565b6107a9611e22565b5f6107b2611f92565b90508073ffffffffffffffffffffffffffffffffffffffff166322c32aa7348660015f9054906101000a900473ffffffffffffffffffffffffffffffffffffffff166107fc611d8e565b88886040518763ffffffff1660e01b815260040161081e9594939291906131e0565b5f604051808303818588803b158015610835575f5ffd5b505af1158015610847573d5f5f3e3d5ffd5b505050505050610855611f89565b505050565b806108648161200c565b61086c611e22565b8161087681612054565b5f86036108af576040517f1f2a200500000000000000000000000000000000000000000000000000000000815260040160405180910390fd5b6108b88361214b565b8611156108f1576040517f9a260b2600000000000000000000000000000000000000000000000000000000815260040160405180910390fd5b6108f96121ec565b5f610904878561226a565b50505090506109116103ea565b73ffffffffffffffffffffffffffffffffffffffff168673ffffffffffffffffffffffffffffffffffffffff16148015610949575084155b15610a7157600173ffffffffffffffffffffffffffffffffffffffff1661096e6103ea565b73ffffffffffffffffffffffffffffffffffffffff1614801561099057505f34115b15610a37578034146109ce576040517f3a23d82500000000000000000000000000000000000000000000000000000000815260040160405180910390fd5b6109d6610512565b73ffffffffffffffffffffffffffffffffffffffff1663d0e30db0346040518263ffffffff1660e01b81526004015f604051808303818588803b158015610a1b575f5ffd5b505af1158015610a2d573d5f5f3e3d5ffd5b5050505050610a6c565b610a6b843083610a456103ea565b73ffffffffffffffffffffffffffffffffffffffff1661231b909392919063ffffffff16565b5b610ae2565b610a7a8461239d565b73ffffffffffffffffffffffffffffffffffffffff16639d058e6782886040518363ffffffff1660e01b8152600401610ab4929190613231565b5f604051808303815f87803b158015610acb575f5ffd5b505af1158015610add573d5f5f3e3d5ffd5b505050505b7f75aa3d334b0a1b779c1e0db6925f11e01a834d00a702d36524b7f40f47a49b61848289604051610b15939291906131ab565b60405180910390a15050610b27611f89565b5050505050565b610b36611e22565b610b3e6121ec565b5f5f5f610b4b873361243e565b9250925092504686146110c7575f610b75855f610b666124ea565b6125129092919063ffffffff16565b90505f6040518060e001604052808863ffffffff1681526020013373ffffffffffffffffffffffffffffffffffffffff165f1b815260200185815260200185815260200183815260200160405180602001604052805f815250815260200160405180602001604052805f8152508152509050600173ffffffffffffffffffffffffffffffffffffffff16610c076103ea565b73ffffffffffffffffffffffffffffffffffffffff1603610e7357610c5b610c2d6125aa565b86610c36610512565b73ffffffffffffffffffffffffffffffffffffffff16611f0a9092919063ffffffff16565b5f610c64611d8e565b73ffffffffffffffffffffffffffffffffffffffff1663efe1b2cd610c876103ea565b6040518263ffffffff1660e01b8152600401610ca391906130de565b602060405180830381865afa158015610cbe573d5f5f3e3d5ffd5b505050506040513d601f19601f82011682018060405250810190610ce2919061313f565b90505f819050610cf0610512565b73ffffffffffffffffffffffffffffffffffffffff1663095ea7b383886040518363ffffffff1660e01b8152600401610d2a929190613258565b6020604051808303815f875af1158015610d46573d5f5f3e3d5ffd5b505050506040513d601f19601f82011682018060405250810190610d6a9190613293565b505f8173ffffffffffffffffffffffffffffffffffffffff16633b6f743b855f6040518363ffffffff1660e01b8152600401610da792919061340b565b6040805180830381865afa158015610dc1573d5f5f3e3d5ffd5b505050506040513d601f19601f82011682018060405250810190610de59190613516565b90508173ffffffffffffffffffffffffffffffffffffffff1663c7c7f5b3825f01518684336040518563ffffffff1660e01b8152600401610e289392919061356e565b60c06040518083038185885af1158015610e44573d5f5f3e3d5ffd5b50505050506040513d601f19601f82011682018060405250810190610e6991906136bf565b50505050506110c0565b610eac610e7e6125aa565b86610e876103ea565b73ffffffffffffffffffffffffffffffffffffffff16611f0a9092919063ffffffff16565b5f610eb5611d8e565b73ffffffffffffffffffffffffffffffffffffffff1663efe1b2cd610ed86103ea565b6040518263ffffffff1660e01b8152600401610ef491906130de565b602060405180830381865afa158015610f0f573d5f5f3e3d5ffd5b505050506040513d601f19601f82011682018060405250810190610f33919061313f565b90505f819050610f416103ea565b73ffffffffffffffffffffffffffffffffffffffff1663095ea7b383886040518363ffffffff1660e01b8152600401610f7b929190613258565b6020604051808303815f875af1158015610f97573d5f5f3e3d5ffd5b505050506040513d601f19601f82011682018060405250810190610fbb9190613293565b505f8173ffffffffffffffffffffffffffffffffffffffff16633b6f743b855f6040518363ffffffff1660e01b8152600401610ff892919061340b565b6040805180830381865afa158015611012573d5f5f3e3d5ffd5b505050506040513d601f19601f820116820180604052508101906110369190613516565b90508173ffffffffffffffffffffffffffffffffffffffff1663c7c7f5b3825f01518684336040518563ffffffff1660e01b81526004016110799392919061356e565b60c06040518083038185885af1158015611095573d5f5f3e3d5ffd5b50505050506040513d601f19601f820116820180604052508101906110ba91906136bf565b50505050505b5050611331565b600173ffffffffffffffffffffffffffffffffffffffff166110e76103ea565b73ffffffffffffffffffffffffffffffffffffffff16036112c45760018060146101000a81548160ff021916908315150217905550611124610512565b73ffffffffffffffffffffffffffffffffffffffff16632e1a7d4d886040518263ffffffff1660e01b815260040161115c9190613009565b5f604051808303815f87803b158015611173575f5ffd5b505af1158015611185573d5f5f3e3d5ffd5b505050505f6111926125aa565b73ffffffffffffffffffffffffffffffffffffffff16846040516111b590613197565b5f6040518083038185875af1925050503d805f81146111ef576040519150601f19603f3d011682016040523d82523d5f602084013e6111f4565b606091505b505090505f3373ffffffffffffffffffffffffffffffffffffffff168460405161121d90613197565b5f6040518083038185875af1925050503d805f8114611257576040519150601f19603f3d011682016040523d82523d5f602084013e61125c565b606091505b505090508115801561126c575080155b156112a3576040517f90b8ec1800000000000000000000000000000000000000000000000000000000815260040160405180910390fd5b5f600160146101000a81548160ff0219169083151502179055505050611330565b6112fd6112cf6125aa565b846112d86103ea565b73ffffffffffffffffffffffffffffffffffffffff16611f0a9092919063ffffffff16565b61132f338361130a6103ea565b73ffffffffffffffffffffffffffffffffffffffff16611f0a9092919063ffffffff16565b5b5b7f66dd7e4c61f4b443be99281efbece3ebc180e5557480604aea7608ff6f0ff1e23388838988604051611368959493929190613736565b60405180910390a150505061137b611f89565b50505050565b5f61138a611e22565b5f611393611f92565b90508073ffffffffffffffffffffffffffffffffffffffff1663630cbcc18560015f9054906101000a900473ffffffffffffffffffffffffffffffffffffffff166113dc611d8e565b876040518563ffffffff1660e01b81526004016113fc9493929190613787565b6020604051808303815f875af1158015611418573d5f5f3e3d5ffd5b505050506040513d601f19601f8201168201806040525081019061143c91906137ca565b915050611447611f89565b92915050565b336114578161200c565b61145f611e22565b3361146981612054565b5f83036114a2576040517f1f2a200500000000000000000000000000000000000000000000000000000000815260040160405180910390fd5b5f600173ffffffffffffffffffffffffffffffffffffffff166114c361047e565b73ffffffffffffffffffffffffffffffffffffffff160361156c576114e6610512565b73ffffffffffffffffffffffffffffffffffffffff166370a0823161150a3361239d565b6040518263ffffffff1660e01b815260040161152691906130de565b602060405180830381865afa158015611541573d5f5f3e3d5ffd5b505050506040513d601f19601f8201168201806040525081019061156591906137ca565b90506115f6565b61157461047e565b73ffffffffffffffffffffffffffffffffffffffff166370a082316115983361239d565b6040518263ffffffff1660e01b81526004016115b491906130de565b602060405180830381865afa1580156115cf573d5f5f3e3d5ffd5b505050506040513d601f19601f820116820180604052508101906115f391906137ca565b90505b80841115611630576040517f3a23d82500000000000000000000000000000000000000000000000000000000815260040160405180910390fd5b6116386121ec565b5f611641611d8e565b73ffffffffffffffffffffffffffffffffffffffff1663e40208046040518163ffffffff1660e01b8152600401602060405180830381865afa158015611689573d5f5f3e3d5ffd5b505050506040513d601f19601f820116820180604052508101906116ad919061313f565b90505f600173ffffffffffffffffffffffffffffffffffffffff166116d061047e565b73ffffffffffffffffffffffffffffffffffffffff161490506116f23361239d565b73ffffffffffffffffffffffffffffffffffffffff1663fa58d7b48733846040518463ffffffff1660e01b815260040161172e939291906137f5565b5f604051808303815f87803b158015611745575f5ffd5b505af1158015611757573d5f5f3e3d5ffd5b505050505f6117653361214b565b1115611810578173ffffffffffffffffffffffffffffffffffffffff16632e68f18e61178f6103ea565b611797611d8e565b6117a03361239d565b6117a8612624565b6117b06126b8565b6117b861274c565b6117c13361214b565b6040518863ffffffff1660e01b81526004016117e3979695949392919061382a565b5f6040518083038186803b1580156117f9575f5ffd5b505afa15801561180b573d5f5f3e3d5ffd5b505050505b5050505061181c611f89565b5050565b8061182a8161200c565b611832611e22565b8161183c81612054565b5f8403611875576040517f1f2a200500000000000000000000000000000000000000000000000000000000815260040160405180910390fd5b61187d6121ec565b600173ffffffffffffffffffffffffffffffffffffffff1661189d61047e565b73ffffffffffffffffffffffffffffffffffffffff1603611a1f578334146118f1576040517f3a23d82500000000000000000000000000000000000000000000000000000000815260040160405180910390fd5b6118f9610512565b73ffffffffffffffffffffffffffffffffffffffff1663d0e30db0346040518263ffffffff1660e01b81526004015f604051808303818588803b15801561193e575f5ffd5b505af1158015611950573d5f5f3e3d5ffd5b505050505061195d610512565b73ffffffffffffffffffffffffffffffffffffffff1663095ea7b36119818561239d565b866040518363ffffffff1660e01b815260040161199f929190613258565b6020604051808303815f875af11580156119bb573d5f5f3e3d5ffd5b505050506040513d601f19601f820116820180604052508101906119df9190613293565b50611a1a6119ec8461239d565b856119f5610512565b73ffffffffffffffffffffffffffffffffffffffff16611f0a9092919063ffffffff16565b611a5c565b611a5b83611a2c8561239d565b86611a3561047e565b73ffffffffffffffffffffffffffffffffffffffff1661231b909392919063ffffffff16565b5b7ffef800959f37aa70fe9073f24093b307ae5952f0e34d164a48f279f6e4bc447c8385604051611a8d929190613258565b60405180910390a150611a9e611f89565b505050565b5f5f5f5f611aaf611d8e565b73ffffffffffffffffffffffffffffffffffffffff1663e40208046040518163ffffffff1660e01b8152600401602060405180830381865afa158015611af7573d5f5f3e3d5ffd5b505050506040513d601f19601f82011682018060405250810190611b1b919061313f565b90508073ffffffffffffffffffffffffffffffffffffffff16639d068dd7611b416103ea565b611b49611d8e565b611b528961239d565b611b5a612624565b611b626126b8565b611b6a61274c565b611b738d61214b565b6040518863ffffffff1660e01b8152600401611b95979695949392919061382a565b606060405180830381865afa158015611bb0573d5f5f3e3d5ffd5b505050506040513d601f19601f82011682018060405250810190611bd49190613897565b935093509350509193909250565b611bea611e22565b81611bf481612054565b5f611bff83856127e0565b9050611c096121ec565b600173ffffffffffffffffffffffffffffffffffffffff16611c296103ea565b73ffffffffffffffffffffffffffffffffffffffff1603611ce657823414611c7d576040517f3a23d82500000000000000000000000000000000000000000000000000000000815260040160405180910390fd5b611c85610512565b73ffffffffffffffffffffffffffffffffffffffff1663d0e30db0346040518263ffffffff1660e01b81526004015f604051808303818588803b158015611cca575f5ffd5b505af1158015611cdc573d5f5f3e3d5ffd5b5050505050611d1b565b611d1a843085611cf46103ea565b73ffffffffffffffffffffffffffffffffffffffff1661231b909392919063ffffffff16565b5b7fb84c7ef8bee9fe7d403a64ab2705017891a18609ce1910007c1e674b7685815e848483604051611d4e939291906131ab565b60405180910390a15050611d60611f89565b5050565b60015f9054906101000a900473ffffffffffffffffffffffffffffffffffffffff1681565b600181565b5f60015f9054906101000a900473ffffffffffffffffffffffffffffffffffffffff1673ffffffffffffffffffffffffffffffffffffffff1663c45a01556040518163ffffffff1660e01b8152600401602060405180830381865afa158015611df9573d5f5f3e3d5ffd5b505050506040513d601f19601f82011682018060405250810190611e1d919061313f565b905090565b60025f5403611e5d576040517f3ee5aeb500000000000000000000000000000000000000000000000000000000815260040160405180910390fd5b60025f81905550565b5f60015f9054906101000a900473ffffffffffffffffffffffffffffffffffffffff1673ffffffffffffffffffffffffffffffffffffffff166368fc0c9a83336040518363ffffffff1660e01b8152600401611ec3929190613231565b6020604051808303815f875af1158015611edf573d5f5f3e3d5ffd5b505050506040513d601f19601f82011682018060405250810190611f0391906137ca565b9050919050565b611f84838473ffffffffffffffffffffffffffffffffffffffff1663a9059cbb8585604051602401611f3d929190613258565b604051602081830303815290604052915060e01b6020820180517bffffffffffffffffffffffffffffffffffffffffffffffffffffffff8381831617835250505050612885565b505050565b60015f81905550565b5f611f9b611d8e565b73ffffffffffffffffffffffffffffffffffffffff16634046ebae6040518163ffffffff1660e01b8152600401602060405180830381865afa158015611fe3573d5f5f3e3d5ffd5b505050506040513d601f19601f82011682018060405250810190612007919061313f565b905090565b5f73ffffffffffffffffffffffffffffffffffffffff1661202c8261239d565b73ffffffffffffffffffffffffffffffffffffffff16036120515761205081612920565b5b50565b61205c611d8e565b73ffffffffffffffffffffffffffffffffffffffff16639a307391336040518263ffffffff1660e01b815260040161209491906130de565b602060405180830381865afa1580156120af573d5f5f3e3d5ffd5b505050506040513d601f19601f820116820180604052508101906120d39190613293565b612148578073ffffffffffffffffffffffffffffffffffffffff163373ffffffffffffffffffffffffffffffffffffffff161461214757336040517f4a0bfec100000000000000000000000000000000000000000000000000000000815260040161213e91906130de565b60405180910390fd5b5b50565b5f60015f9054906101000a900473ffffffffffffffffffffffffffffffffffffffff1673ffffffffffffffffffffffffffffffffffffffff16634fd422df836040518263ffffffff1660e01b81526004016121a691906130de565b602060405180830381865afa1580156121c1573d5f5f3e3d5ffd5b505050506040513d601f19601f820116820180604052508101906121e591906137ca565b9050919050565b60015f9054906101000a900473ffffffffffffffffffffffffffffffffffffffff1673ffffffffffffffffffffffffffffffffffffffff1663a6afed956040518163ffffffff1660e01b81526004015f604051808303815f87803b158015612252575f5ffd5b505af1158015612264573d5f5f3e3d5ffd5b50505050565b5f5f5f5f60015f9054906101000a900473ffffffffffffffffffffffffffffffffffffffff1673ffffffffffffffffffffffffffffffffffffffff16639d058e6787876040518363ffffffff1660e01b81526004016122ca929190613231565b6080604051808303815f875af11580156122e6573d5f5f3e3d5ffd5b505050506040513d601f19601f8201168201806040525081019061230a91906138e7565b935093509350935092959194509250565b612397848573ffffffffffffffffffffffffffffffffffffffff166323b872dd8686866040516024016123509392919061394b565b604051602081830303815290604052915060e01b6020820180517bffffffffffffffffffffffffffffffffffffffffffffffffffffffff8381831617835250505050612885565b50505050565b5f60015f9054906101000a900473ffffffffffffffffffffffffffffffffffffffff1673ffffffffffffffffffffffffffffffffffffffff1663f79c3800836040518263ffffffff1660e01b81526004016123f891906130de565b602060405180830381865afa158015612413573d5f5f3e3d5ffd5b505050506040513d601f19601f82011682018060405250810190612437919061313f565b9050919050565b5f5f5f60015f9054906101000a900473ffffffffffffffffffffffffffffffffffffffff1673ffffffffffffffffffffffffffffffffffffffff166335fce80e86866040518363ffffffff1660e01b815260040161249d929190613231565b6060604051808303815f875af11580156124b9573d5f5f3e3d5ffd5b505050506040513d601f19601f820116820180604052508101906124dd9190613980565b9250925092509250925092565b606060036040516020016124fe9190613a11565b604051602081830303815290604052905090565b606083600361ffff1661252e5f83612a6c90919063ffffffff16565b61ffff16146125865761254a5f82612a6c90919063ffffffff16565b6040517f3a51740d00000000000000000000000000000000000000000000000000000000815260040161257d9190613a3a565b60405180910390fd5b5f6125918585612ad1565b905061259f86600183612b3c565b925050509392505050565b5f6125b3611d8e565b73ffffffffffffffffffffffffffffffffffffffff16638ce744266040518163ffffffff1660e01b8152600401602060405180830381865afa1580156125fb573d5f5f3e3d5ffd5b505050506040513d601f19601f8201168201806040525081019061261f919061313f565b905090565b5f60015f9054906101000a900473ffffffffffffffffffffffffffffffffffffffff1673ffffffffffffffffffffffffffffffffffffffff16636fb49d736040518163ffffffff1660e01b8152600401602060405180830381865afa15801561268f573d5f5f3e3d5ffd5b505050506040513d601f19601f820116820180604052508101906126b391906137ca565b905090565b5f60015f9054906101000a900473ffffffffffffffffffffffffffffffffffffffff1673ffffffffffffffffffffffffffffffffffffffff16631aad44c26040518163ffffffff1660e01b8152600401602060405180830381865afa158015612723573d5f5f3e3d5ffd5b505050506040513d601f19601f8201168201806040525081019061274791906137ca565b905090565b5f60015f9054906101000a900473ffffffffffffffffffffffffffffffffffffffff1673ffffffffffffffffffffffffffffffffffffffff1663136cf1f76040518163ffffffff1660e01b8152600401602060405180830381865afa1580156127b7573d5f5f3e3d5ffd5b505050506040513d601f19601f820116820180604052508101906127db91906137ca565b905090565b5f60015f9054906101000a900473ffffffffffffffffffffffffffffffffffffffff1673ffffffffffffffffffffffffffffffffffffffff166311d9dbd384846040518363ffffffff1660e01b815260040161283d929190613231565b6020604051808303815f875af1158015612859573d5f5f3e3d5ffd5b505050506040513d601f19601f8201168201806040525081019061287d91906137ca565b905092915050565b5f5f60205f8451602086015f885af1806128a4576040513d5f823e3d81fd5b3d92505f519150505f82146128bd5760018114156128d8565b5f8473ffffffffffffffffffffffffffffffffffffffff163b145b1561291a57836040517f5274afe700000000000000000000000000000000000000000000000000000000815260040161291191906130de565b60405180910390fd5b50505050565b5f73ffffffffffffffffffffffffffffffffffffffff166129408261239d565b73ffffffffffffffffffffffffffffffffffffffff161461298d576040517f0f04799c00000000000000000000000000000000000000000000000000000000815260040160405180910390fd5b60015f9054906101000a900473ffffffffffffffffffffffffffffffffffffffff1673ffffffffffffffffffffffffffffffffffffffff1663f7e0ebf6826040518263ffffffff1660e01b81526004016129e791906130de565b6020604051808303815f875af1158015612a03573d5f5f3e3d5ffd5b505050506040513d601f19601f82011682018060405250810190612a27919061313f565b507fcc3763c1c0784da97ef19dc776e12897dc1cfba3c2cab71b208490e993ba569481612a538361239d565b604051612a61929190613a53565b60405180910390a150565b5f600282612a7a9190613aa7565b83511015612abd576040517f08c379a0000000000000000000000000000000000000000000000000000000008152600401612ab490613b24565b60405180910390fd5b5f8260028501015190508091505092915050565b60605f826fffffffffffffffffffffffffffffffff1614612b13578282604051602001612aff929190613b76565b604051602081830303815290604052612b34565b82604051602001612b249190613ba1565b6040516020818303038152906040525b905092915050565b606083600361ffff16612b585f83612a6c90919063ffffffff16565b61ffff1614612bb057612b745f82612a6c90919063ffffffff16565b6040517f3a51740d000000000000000000000000000000000000000000000000000000008152600401612ba79190613a3a565b60405180910390fd5b84600180612bbe8651612bf7565b612bc89190613bbb565b8686604051602001612bde959493929190613c54565b6040516020818303038152906040529150509392505050565b5f61ffff8016821115612c44576010826040517f6dfcc650000000000000000000000000000000000000000000000000000000008152600401612c3b929190613ce3565b60405180910390fd5b819050919050565b5f82825260208201905092915050565b7f556e6578706563746564206e617469766520746f6b656e0000000000000000005f82015250565b5f612c90601783612c4c565b9150612c9b82612c5c565b602082019050919050565b5f6020820190508181035f830152612cbd81612c84565b9050919050565b7f46616c6c6261636b206e6f7420616c6c6f7765640000000000000000000000005f82015250565b5f612cf8601483612c4c565b9150612d0382612cc4565b602082019050919050565b5f6020820190508181035f830152612d2581612cec565b9050919050565b5f604051905090565b5f5ffd5b5f819050919050565b612d4b81612d39565b8114612d55575f5ffd5b50565b5f81359050612d6681612d42565b92915050565b5f60208284031215612d8157612d80612d35565b5b5f612d8e84828501612d58565b91505092915050565b5f73ffffffffffffffffffffffffffffffffffffffff82169050919050565b5f612dc082612d97565b9050919050565b612dd081612db6565b8114612dda575f5ffd5b50565b5f81359050612deb81612dc7565b92915050565b5f5f5f60608486031215612e0857612e07612d35565b5b5f612e1586828701612ddd565b9350506020612e2686828701612d58565b9250506040612e3786828701612d58565b9150509250925092565b5f8115159050919050565b612e5581612e41565b8114612e5f575f5ffd5b50565b5f81359050612e7081612e4c565b92915050565b5f5f5f5f60808587031215612e8e57612e8d612d35565b5b5f612e9b87828801612d58565b9450506020612eac87828801612ddd565b9350506040612ebd87828801612e62565b9250506060612ece87828801612ddd565b91505092959194509250565b5f63ffffffff82169050919050565b612ef281612eda565b8114612efc575f5ffd5b50565b5f81359050612f0d81612ee9565b92915050565b5f6fffffffffffffffffffffffffffffffff82169050919050565b612f3781612f13565b8114612f41575f5ffd5b50565b5f81359050612f5281612f2e565b92915050565b5f5f5f5f60808587031215612f7057612f6f612d35565b5b5f612f7d87828801612d58565b9450506020612f8e87828801612d58565b9350506040612f9f87828801612eff565b9250506060612fb087828801612f44565b91505092959194509250565b5f5f60408385031215612fd257612fd1612d35565b5b5f612fdf85828601612ddd565b9250506020612ff085828601612d58565b9150509250929050565b61300381612d39565b82525050565b5f60208201905061301c5f830184612ffa565b92915050565b5f5f6040838503121561303857613037612d35565b5b5f61304585828601612d58565b925050602061305685828601612ddd565b9150509250929050565b5f6020828403121561307557613074612d35565b5b5f61308284828501612ddd565b91505092915050565b61309481612e41565b82525050565b5f6060820190506130ad5f83018661308b565b6130ba6020830185612ffa565b6130c76040830184612ffa565b949350505050565b6130d881612db6565b82525050565b5f6020820190506130f15f8301846130cf565b92915050565b5f60ff82169050919050565b61310c816130f7565b82525050565b5f6020820190506131255f830184613103565b92915050565b5f8151905061313981612dc7565b92915050565b5f6020828403121561315457613153612d35565b5b5f6131618482850161312b565b91505092915050565b5f81905092915050565b50565b5f6131825f8361316a565b915061318d82613174565b5f82019050919050565b5f6131a182613177565b9150819050919050565b5f6060820190506131be5f8301866130cf565b6131cb6020830185612ffa565b6131d86040830184612ffa565b949350505050565b5f60a0820190506131f35f8301886130cf565b61320060208301876130cf565b61320d60408301866130cf565b61321a6060830185612ffa565b6132276080830184612ffa565b9695505050505050565b5f6040820190506132445f830185612ffa565b61325160208301846130cf565b9392505050565b5f60408201905061326b5f8301856130cf565b6132786020830184612ffa565b9392505050565b5f8151905061328d81612e4c565b92915050565b5f602082840312156132a8576132a7612d35565b5b5f6132b58482850161327f565b91505092915050565b6132c781612eda565b82525050565b5f819050919050565b6132df816132cd565b82525050565b6132ee81612d39565b82525050565b5f81519050919050565b5f82825260208201905092915050565b8281835e5f83830152505050565b5f601f19601f8301169050919050565b5f613336826132f4565b61334081856132fe565b935061335081856020860161330e565b6133598161331c565b840191505092915050565b5f60e083015f8301516133795f8601826132be565b50602083015161338c60208601826132d6565b50604083015161339f60408601826132e5565b5060608301516133b260608601826132e5565b50608083015184820360808601526133ca828261332c565b91505060a083015184820360a08601526133e4828261332c565b91505060c083015184820360c08601526133fe828261332c565b9150508091505092915050565b5f6040820190508181035f8301526134238185613364565b9050613432602083018461308b565b9392505050565b5f5ffd5b7f4e487b71000000000000000000000000000000000000000000000000000000005f52604160045260245ffd5b6134738261331c565b810181811067ffffffffffffffff821117156134925761349161343d565b5b80604052505050565b5f6134a4612d2c565b90506134b0828261346a565b919050565b5f815190506134c381612d42565b92915050565b5f604082840312156134de576134dd613439565b5b6134e8604061349b565b90505f6134f7848285016134b5565b5f83015250602061350a848285016134b5565b60208301525092915050565b5f6040828403121561352b5761352a612d35565b5b5f613538848285016134c9565b91505092915050565b604082015f8201516135555f8501826132e5565b50602082015161356860208501826132e5565b50505050565b5f6080820190508181035f8301526135868186613364565b90506135956020830185613541565b6135a260608301846130cf565b949350505050565b6135b3816132cd565b81146135bd575f5ffd5b50565b5f815190506135ce816135aa565b92915050565b5f67ffffffffffffffff82169050919050565b6135f0816135d4565b81146135fa575f5ffd5b50565b5f8151905061360b816135e7565b92915050565b5f6080828403121561362657613625613439565b5b613630606061349b565b90505f61363f848285016135c0565b5f830152506020613652848285016135fd565b6020830152506040613666848285016134c9565b60408301525092915050565b5f6040828403121561368757613686613439565b5b613691604061349b565b90505f6136a0848285016134b5565b5f8301525060206136b3848285016134b5565b60208301525092915050565b5f5f60c083850312156136d5576136d4612d35565b5b5f6136e285828601613611565b92505060806136f385828601613672565b9150509250929050565b5f819050919050565b5f61372061371b61371684612f13565b6136fd565b612d39565b9050919050565b61373081613706565b82525050565b5f60a0820190506137495f8301886130cf565b6137566020830187612ffa565b6137636040830186612ffa565b6137706060830185612ffa565b61377d6080830184613727565b9695505050505050565b5f60808201905061379a5f8301876130cf565b6137a760208301866130cf565b6137b460408301856130cf565b6137c16060830184612ffa565b95945050505050565b5f602082840312156137df576137de612d35565b5b5f6137ec848285016134b5565b91505092915050565b5f6060820190506138085f830186612ffa565b61381560208301856130cf565b613822604083018461308b565b949350505050565b5f60e08201905061383d5f83018a6130cf565b61384a60208301896130cf565b61385760408301886130cf565b6138646060830187612ffa565b6138716080830186612ffa565b61387e60a0830185612ffa565b61388b60c0830184612ffa565b98975050505050505050565b5f5f5f606084860312156138ae576138ad612d35565b5b5f6138bb8682870161327f565b93505060206138cc868287016134b5565b92505060406138dd868287016134b5565b9150509250925092565b5f5f5f5f608085870312156138ff576138fe612d35565b5b5f61390c878288016134b5565b945050602061391d878288016134b5565b935050604061392e878288016134b5565b925050606061393f878288016134b5565b91505092959194509250565b5f60608201905061395e5f8301866130cf565b61396b60208301856130cf565b6139786040830184612ffa565b949350505050565b5f5f5f6060848603121561399757613996612d35565b5b5f6139a4868287016134b5565b93505060206139b5868287016134b5565b92505060406139c6868287016134b5565b9150509250925092565b5f61ffff82169050919050565b5f8160f01b9050919050565b5f6139f3826139dd565b9050919050565b613a0b613a06826139d0565b6139e9565b82525050565b5f613a1c82846139fa565b60028201915081905092915050565b613a34816139d0565b82525050565b5f602082019050613a4d5f830184613a2b565b92915050565b5f604082019050613a665f8301856130cf565b613a7360208301846130cf565b9392505050565b7f4e487b71000000000000000000000000000000000000000000000000000000005f52601160045260245ffd5b5f613ab182612d39565b9150613abc83612d39565b9250828201905080821115613ad457613ad3613a7a565b5b92915050565b7f746f55696e7431365f6f75744f66426f756e64730000000000000000000000005f82015250565b5f613b0e601483612c4c565b9150613b1982613ada565b602082019050919050565b5f6020820190508181035f830152613b3b81613b02565b9050919050565b5f8160801b9050919050565b5f613b5882613b42565b9050919050565b613b70613b6b82612f13565b613b4e565b82525050565b5f613b818285613b5f565b601082019150613b918284613b5f565b6010820191508190509392505050565b5f613bac8284613b5f565b60108201915081905092915050565b5f613bc5826139d0565b9150613bd0836139d0565b9250828201905061ffff811115613bea57613be9613a7a565b5b92915050565b5f613bfa826132f4565b613c04818561316a565b9350613c1481856020860161330e565b80840191505092915050565b5f8160f81b9050919050565b5f613c3682613c20565b9050919050565b613c4e613c49826130f7565b613c2c565b82525050565b5f613c5f8288613bf0565b9150613c6b8287613c3d565b600182019150613c7b82866139fa565b600282019150613c8b8285613c3d565b600182019150613c9b8284613bf0565b91508190509695505050505050565b5f819050919050565b5f613ccd613cc8613cc384613caa565b6136fd565b6130f7565b9050919050565b613cdd81613cb3565b82525050565b5f604082019050613cf65f830185613cd4565b613d036020830184612ffa565b939250505056fea2646970667358221220678ae941cb372e0cbecade58f54230d5baa7611ab5866a6b684a24f10b2809af64736f6c634300081c0033","linkReferences":{}},"methodIdentifiers":{"VERSION()":"ffa1ad74","borrowDebt(uint256,uint256,uint32,uint128)":"2392478c","checkLiquidation(address)":"a274f4ac","liquidateByDEX(address,uint256)":"3f7a1a7e","liquidateByMEV(address,uint256,uint256)":"141b0c4c","repayWithSelectedToken(uint256,address,bool,address)":"1e686065","router()":"f887ea40","supplyCollateral(uint256,address)":"62c5f6c7","supplyLiquidity(address,uint256)":"b39e3771","withdrawCollateral(uint256)":"6112fe2e","withdrawLiquidity(uint256)":"0a861f2a"},"id":115}