{"abi":[{"type":"constructor","inputs":[{"name":"_router","type":"address","internalType":"address"}],"stateMutability":"nonpayable"},{"type":"fallback","stateMutability":"payable"},{"type":"receive","stateMutability":"payable"},{"type":"function","name":"VERSION","inputs":[],"outputs":[{"name":"","type":"uint8","internalType":"uint8"}],"stateMutability":"view"},{"type":"function","name":"borrowDebt","inputs":[{"name":"_amount","type":"uint256","internalType":"uint256"},{"name":"_chainId","type":"uint256","internalType":"uint256"},{"name":"_dstEid","type":"uint32","internalType":"uint32"},{"name":"_addExecutorLzReceiveOption","type":"uint128","internalType":"uint128"}],"outputs":[],"stateMutability":"payable"},{"type":"function","name":"checkLiquidation","inputs":[{"name":"borrower","type":"address","internalType":"address"}],"outputs":[{"name":"isLiquidatable","type":"bool","internalType":"bool"},{"name":"borrowValue","type":"uint256","internalType":"uint256"},{"name":"collateralValue","type":"uint256","internalType":"uint256"}],"stateMutability":"view"},{"type":"function","name":"liquidateByDEX","inputs":[{"name":"borrower","type":"address","internalType":"address"},{"name":"liquidationIncentive","type":"uint256","internalType":"uint256"}],"outputs":[{"name":"liquidatedAmount","type":"uint256","internalType":"uint256"}],"stateMutability":"nonpayable"},{"type":"function","name":"liquidateByMEV","inputs":[{"name":"borrower","type":"address","internalType":"address"},{"name":"repayAmount","type":"uint256","internalType":"uint256"},{"name":"liquidationIncentive","type":"uint256","internalType":"uint256"}],"outputs":[],"stateMutability":"payable"},{"type":"function","name":"repayWithSelectedToken","inputs":[{"name":"_shares","type":"uint256","internalType":"uint256"},{"name":"_token","type":"address","internalType":"address"},{"name":"_fromPosition","type":"bool","internalType":"bool"},{"name":"_user","type":"address","internalType":"address"},{"name":"_slippageTolerance","type":"uint256","internalType":"uint256"}],"outputs":[],"stateMutability":"payable"},{"type":"function","name":"router","inputs":[],"outputs":[{"name":"","type":"address","internalType":"address"}],"stateMutability":"view"},{"type":"function","name":"supplyCollateral","inputs":[{"name":"_amount","type":"uint256","internalType":"uint256"},{"name":"_user","type":"address","internalType":"address"}],"outputs":[],"stateMutability":"payable"},{"type":"function","name":"supplyLiquidity","inputs":[{"name":"_user","type":"address","internalType":"address"},{"name":"_amount","type":"uint256","internalType":"uint256"}],"outputs":[],"stateMutability":"payable"},{"type":"function","name":"swapTokenByPosition","inputs":[{"name":"_tokenIn","type":"address","internalType":"address"},{"name":"_tokenOut","type":"address","internalType":"address"},{"name":"amountIn","type":"uint256","internalType":"uint256"},{"name":"slippageTolerance","type":"uint256","internalType":"uint256"}],"outputs":[{"name":"amountOut","type":"uint256","internalType":"uint256"}],"stateMutability":"nonpayable"},{"type":"function","name":"withdrawCollateral","inputs":[{"name":"_amount","type":"uint256","internalType":"uint256"}],"outputs":[],"stateMutability":"nonpayable"},{"type":"function","name":"withdrawLiquidity","inputs":[{"name":"_shares","type":"uint256","internalType":"uint256"}],"outputs":[],"stateMutability":"payable"},{"type":"event","name":"BorrowDebtCrosschain","inputs":[{"name":"user","type":"address","indexed":false,"internalType":"address"},{"name":"amount","type":"uint256","indexed":false,"internalType":"uint256"},{"name":"shares","type":"uint256","indexed":false,"internalType":"uint256"},{"name":"chainId","type":"uint256","indexed":false,"internalType":"uint256"},{"name":"addExecutorLzReceiveOption","type":"uint256","indexed":false,"internalType":"uint256"}],"anonymous":false},{"type":"event","name":"CreatePosition","inputs":[{"name":"user","type":"address","indexed":false,"internalType":"address"},{"name":"positionAddress","type":"address","indexed":false,"internalType":"address"}],"anonymous":false},{"type":"event","name":"InterestRateModelSet","inputs":[{"name":"oldModel","type":"address","indexed":true,"internalType":"address"},{"name":"newModel","type":"address","indexed":true,"internalType":"address"}],"anonymous":false},{"type":"event","name":"RepayByPosition","inputs":[{"name":"user","type":"address","indexed":false,"internalType":"address"},{"name":"amount","type":"uint256","indexed":false,"internalType":"uint256"},{"name":"shares","type":"uint256","indexed":false,"internalType":"uint256"}],"anonymous":false},{"type":"event","name":"SupplyCollateral","inputs":[{"name":"user","type":"address","indexed":false,"internalType":"address"},{"name":"amount","type":"uint256","indexed":false,"internalType":"uint256"}],"anonymous":false},{"type":"event","name":"SupplyLiquidity","inputs":[{"name":"user","type":"address","indexed":false,"internalType":"address"},{"name":"amount","type":"uint256","indexed":false,"internalType":"uint256"},{"name":"shares","type":"uint256","indexed":false,"internalType":"uint256"}],"anonymous":false},{"type":"event","name":"SwapTokenByPosition","inputs":[{"name":"user","type":"address","indexed":false,"internalType":"address"},{"name":"tokenIn","type":"address","indexed":false,"internalType":"address"},{"name":"tokenOut","type":"address","indexed":false,"internalType":"address"},{"name":"amountIn","type":"uint256","indexed":false,"internalType":"uint256"},{"name":"amountOut","type":"uint256","indexed":false,"internalType":"uint256"}],"anonymous":false},{"type":"event","name":"WithdrawCollateral","inputs":[{"name":"user","type":"address","indexed":false,"internalType":"address"},{"name":"amount","type":"uint256","indexed":false,"internalType":"uint256"}],"anonymous":false},{"type":"event","name":"WithdrawLiquidity","inputs":[{"name":"user","type":"address","indexed":false,"internalType":"address"},{"name":"amount","type":"uint256","indexed":false,"internalType":"uint256"},{"name":"shares","type":"uint256","indexed":false,"internalType":"uint256"}],"anonymous":false},{"type":"error","name":"CollateralWrongInputAmount","inputs":[{"name":"amount","type":"uint256","internalType":"uint256"},{"name":"expectedAmount","type":"uint256","internalType":"uint256"}]},{"type":"error","name":"InsufficientCollateral","inputs":[{"name":"amount","type":"uint256","internalType":"uint256"},{"name":"expectedAmount","type":"uint256","internalType":"uint256"}]},{"type":"error","name":"InvalidOptionType","inputs":[{"name":"optionType","type":"uint16","internalType":"uint16"}]},{"type":"error","name":"NotAuthorized","inputs":[{"name":"executor","type":"address","internalType":"address"}]},{"type":"error","name":"OracleOnTokenNotSet","inputs":[{"name":"token","type":"address","internalType":"address"}]},{"type":"error","name":"PositionAlreadyCreated","inputs":[{"name":"positionAddress","type":"address","internalType":"address"}]},{"type":"error","name":"ReentrancyGuardReentrantCall","inputs":[]},{"type":"error","name":"RepayWithSelectedTokenWrongInputAmount","inputs":[{"name":"amount","type":"uint256","internalType":"uint256"},{"name":"expectedAmount","type":"uint256","internalType":"uint256"}]},{"type":"error","name":"SafeCastOverflowedUintDowncast","inputs":[{"name":"bits","type":"uint8","internalType":"uint8"},{"name":"value","type":"uint256","internalType":"uint256"}]},{"type":"error","name":"SafeERC20FailedOperation","inputs":[{"name":"token","type":"address","internalType":"address"}]},{"type":"error","name":"SupplyLiquidityWrongInputAmount","inputs":[{"name":"amount","type":"uint256","internalType":"uint256"},{"name":"expectedAmount","type":"uint256","internalType":"uint256"}]},{"type":"error","name":"SwapTokenByPositionInvalidParameter","inputs":[{"name":"tokenIn","type":"address","internalType":"address"},{"name":"tokenOut","type":"address","internalType":"address"}]},{"type":"error","name":"TransferFailed","inputs":[{"name":"amount","type":"uint256","internalType":"uint256"}]},{"type":"error","name":"ZeroAmount","inputs":[]},{"type":"error","name":"amountSharesInvalid","inputs":[{"name":"shares","type":"uint256","internalType":"uint256"},{"name":"userBorrowShares","type":"uint256","internalType":"uint256"}]}],"bytecode":{"object":"0x608060405234801561000f575f5ffd5b506040516142ec3803806142ec833981810160405281019061003191906100dc565b60015f819055508060015f6101000a81548173ffffffffffffffffffffffffffffffffffffffff021916908373ffffffffffffffffffffffffffffffffffffffff16021790555050610107565b5f5ffd5b5f73ffffffffffffffffffffffffffffffffffffffff82169050919050565b5f6100ab82610082565b9050919050565b6100bb816100a1565b81146100c5575f5ffd5b50565b5f815190506100d6816100b2565b92915050565b5f602082840312156100f1576100f061007e565b5b5f6100fe848285016100c8565b91505092915050565b6141d8806101145f395ff3fe6080604052600436106100aa575f3560e01c80638c3bc0b1116100635780638c3bc0b11461032b578063a274f4ac14610367578063b39e3771146103a5578063b8939dd0146103c1578063f887ea40146103dd578063ffa1ad74146104075761021c565b80630a861f2a14610257578063141b0c4c146102735780632392478c1461028f5780633f7a1a7e146102ab5780636112fe2e146102e757806362c5f6c71461030f5761021c565b3661021c575f341180156100cb5750600160149054906101000a900460ff16155b80156101485750600173ffffffffffffffffffffffffffffffffffffffff166100f2610431565b73ffffffffffffffffffffffffffffffffffffffff1614806101475750600173ffffffffffffffffffffffffffffffffffffffff1661012f6104c5565b73ffffffffffffffffffffffffffffffffffffffff16145b5b156101b657610155610559565b73ffffffffffffffffffffffffffffffffffffffff1663d0e30db0346040518263ffffffff1660e01b81526004015f604051808303818588803b15801561019a575f5ffd5b505af11580156101ac573d5f5f3e3d5ffd5b5050505050610219565b5f341180156101d15750600160149054906101000a900460ff165b61021a575f341115610218576040517f08c379a000000000000000000000000000000000000000000000000000000000815260040161020f90613028565b60405180910390fd5b5b5b005b6040517f08c379a000000000000000000000000000000000000000000000000000000000815260040161024e90613090565b60405180910390fd5b610271600480360381019061026c91906130ee565b6105d3565b005b61028d60048036038101906102889190613173565b6107f3565b005b6102a960048036038101906102a49190613241565b6108ac565b005b3480156102b6575f5ffd5b506102d160048036038101906102cc91906132a5565b611142565b6040516102de91906132f2565b60405180910390f35b3480156102f2575f5ffd5b5061030d600480360381019061030891906130ee565b61120e565b005b6103296004803603810190610324919061330b565b611627565b005b348015610336575f5ffd5b50610351600480360381019061034c9190613349565b6118b7565b60405161035e91906132f2565b60405180910390f35b348015610372575f5ffd5b5061038d600480360381019061038891906133ad565b611a1b565b60405161039c939291906133f2565b60405180910390f35b6103bf60048036038101906103ba91906132a5565b611b5a565b005b6103db60048036038101906103d69190613451565b611ce9565b005b3480156103e8575f5ffd5b506103f1611fe2565b6040516103fe91906134d7565b60405180910390f35b348015610412575f5ffd5b5061041b612007565b604051610428919061350b565b60405180910390f35b5f60015f9054906101000a900473ffffffffffffffffffffffffffffffffffffffff1673ffffffffffffffffffffffffffffffffffffffff1663456dc17a6040518163ffffffff1660e01b8152600401602060405180830381865afa15801561049c573d5f5f3e3d5ffd5b505050506040513d601f19601f820116820180604052508101906104c09190613538565b905090565b5f60015f9054906101000a900473ffffffffffffffffffffffffffffffffffffffff1673ffffffffffffffffffffffffffffffffffffffff1663b2016bd46040518163ffffffff1660e01b8152600401602060405180830381865afa158015610530573d5f5f3e3d5ffd5b505050506040513d601f19601f820116820180604052508101906105549190613538565b905090565b5f61056261200c565b73ffffffffffffffffffffffffffffffffffffffff1663d999984d6040518163ffffffff1660e01b8152600401602060405180830381865afa1580156105aa573d5f5f3e3d5ffd5b505050506040513d601f19601f820116820180604052508101906105ce9190613538565b905090565b6105db6120a0565b5f6105e5826120e4565b90505f600173ffffffffffffffffffffffffffffffffffffffff16610608610431565b73ffffffffffffffffffffffffffffffffffffffff1614905080156107785760018060146101000a81548160ff021916908315150217905550610649610559565b73ffffffffffffffffffffffffffffffffffffffff16632e1a7d4d836040518263ffffffff1660e01b815260040161068191906132f2565b5f604051808303815f87803b158015610698575f5ffd5b505af11580156106aa573d5f5f3e3d5ffd5b505050505f3373ffffffffffffffffffffffffffffffffffffffff16836040516106d390613590565b5f6040518083038185875af1925050503d805f811461070d576040519150601f19603f3d011682016040523d82523d5f602084013e610712565b606091505b505090508061075857826040517fc39ba1a900000000000000000000000000000000000000000000000000000000815260040161074f91906132f2565b60405180910390fd5b5f600160146101000a81548160ff021916908315150217905550506107ab565b6107aa3383610785610431565b73ffffffffffffffffffffffffffffffffffffffff166121889092919063ffffffff16565b5b7fac927268ea9ae2e55027e6ab727fc2db8e3ea48c56c658223a1074567e4298c03383856040516107de939291906135a4565b60405180910390a150506107f0612207565b50565b6107fb6120a0565b5f610804612210565b90508073ffffffffffffffffffffffffffffffffffffffff166322c32aa7348660015f9054906101000a900473ffffffffffffffffffffffffffffffffffffffff1661084e61200c565b88886040518763ffffffff1660e01b81526004016108709594939291906135d9565b5f604051808303818588803b158015610887575f5ffd5b505af1158015610899573d5f5f3e3d5ffd5b5050505050506108a7612207565b505050565b6108b46120a0565b6108bc61228a565b5f5f5f6108c98733612308565b925092509250468614610e45575f6108f3855f6108e46123b4565b6123dc9092919063ffffffff16565b90505f6040518060e001604052808863ffffffff1681526020013373ffffffffffffffffffffffffffffffffffffffff165f1b815260200185815260200185815260200183815260200160405180602001604052805f815250815260200160405180602001604052805f8152508152509050600173ffffffffffffffffffffffffffffffffffffffff16610985610431565b73ffffffffffffffffffffffffffffffffffffffff1603610bf1576109d96109ab612474565b866109b4610559565b73ffffffffffffffffffffffffffffffffffffffff166121889092919063ffffffff16565b5f6109e261200c565b73ffffffffffffffffffffffffffffffffffffffff1663efe1b2cd610a05610431565b6040518263ffffffff1660e01b8152600401610a2191906134d7565b602060405180830381865afa158015610a3c573d5f5f3e3d5ffd5b505050506040513d601f19601f82011682018060405250810190610a609190613538565b90505f819050610a6e610559565b73ffffffffffffffffffffffffffffffffffffffff1663095ea7b383886040518363ffffffff1660e01b8152600401610aa892919061362a565b6020604051808303815f875af1158015610ac4573d5f5f3e3d5ffd5b505050506040513d601f19601f82011682018060405250810190610ae89190613665565b505f8173ffffffffffffffffffffffffffffffffffffffff16633b6f743b855f6040518363ffffffff1660e01b8152600401610b259291906137dd565b6040805180830381865afa158015610b3f573d5f5f3e3d5ffd5b505050506040513d601f19601f82011682018060405250810190610b6391906138e8565b90508173ffffffffffffffffffffffffffffffffffffffff1663c7c7f5b3825f01518684336040518563ffffffff1660e01b8152600401610ba693929190613940565b60c06040518083038185885af1158015610bc2573d5f5f3e3d5ffd5b50505050506040513d601f19601f82011682018060405250810190610be79190613a91565b5050505050610e3e565b610c2a610bfc612474565b86610c05610431565b73ffffffffffffffffffffffffffffffffffffffff166121889092919063ffffffff16565b5f610c3361200c565b73ffffffffffffffffffffffffffffffffffffffff1663efe1b2cd610c56610431565b6040518263ffffffff1660e01b8152600401610c7291906134d7565b602060405180830381865afa158015610c8d573d5f5f3e3d5ffd5b505050506040513d601f19601f82011682018060405250810190610cb19190613538565b90505f819050610cbf610431565b73ffffffffffffffffffffffffffffffffffffffff1663095ea7b383886040518363ffffffff1660e01b8152600401610cf992919061362a565b6020604051808303815f875af1158015610d15573d5f5f3e3d5ffd5b505050506040513d601f19601f82011682018060405250810190610d399190613665565b505f8173ffffffffffffffffffffffffffffffffffffffff16633b6f743b855f6040518363ffffffff1660e01b8152600401610d769291906137dd565b6040805180830381865afa158015610d90573d5f5f3e3d5ffd5b505050506040513d601f19601f82011682018060405250810190610db491906138e8565b90508173ffffffffffffffffffffffffffffffffffffffff1663c7c7f5b3825f01518684336040518563ffffffff1660e01b8152600401610df793929190613940565b60c06040518083038185885af1158015610e13573d5f5f3e3d5ffd5b50505050506040513d601f19601f82011682018060405250810190610e389190613a91565b50505050505b50506110f2565b600173ffffffffffffffffffffffffffffffffffffffff16610e65610431565b73ffffffffffffffffffffffffffffffffffffffff16036110855760018060146101000a81548160ff021916908315150217905550610ea2610559565b73ffffffffffffffffffffffffffffffffffffffff16632e1a7d4d886040518263ffffffff1660e01b8152600401610eda91906132f2565b5f604051808303815f87803b158015610ef1575f5ffd5b505af1158015610f03573d5f5f3e3d5ffd5b505050505f610f10612474565b73ffffffffffffffffffffffffffffffffffffffff1684604051610f3390613590565b5f6040518083038185875af1925050503d805f8114610f6d576040519150601f19603f3d011682016040523d82523d5f602084013e610f72565b606091505b505090508015610fb957836040517fc39ba1a9000000000000000000000000000000000000000000000000000000008152600401610fb091906132f2565b60405180910390fd5b5f3373ffffffffffffffffffffffffffffffffffffffff1684604051610fde90613590565b5f6040518083038185875af1925050503d805f8114611018576040519150601f19603f3d011682016040523d82523d5f602084013e61101d565b606091505b50509050801561106457836040517fc39ba1a900000000000000000000000000000000000000000000000000000000815260040161105b91906132f2565b60405180910390fd5b5f600160146101000a81548160ff02191690831515021790555050506110f1565b6110be611090612474565b84611099610431565b73ffffffffffffffffffffffffffffffffffffffff166121889092919063ffffffff16565b6110f033836110cb610431565b73ffffffffffffffffffffffffffffffffffffffff166121889092919063ffffffff16565b5b5b7f66dd7e4c61f4b443be99281efbece3ebc180e5557480604aea7608ff6f0ff1e23388838988604051611129959493929190613b08565b60405180910390a150505061113c612207565b50505050565b5f61114b6120a0565b5f611154612210565b90508073ffffffffffffffffffffffffffffffffffffffff1663630cbcc18560015f9054906101000a900473ffffffffffffffffffffffffffffffffffffffff1661119d61200c565b876040518563ffffffff1660e01b81526004016111bd9493929190613b59565b6020604051808303815f875af11580156111d9573d5f5f3e3d5ffd5b505050506040513d601f19601f820116820180604052508101906111fd9190613b9c565b915050611208612207565b92915050565b33611218816124ee565b6112206120a0565b3361122a81612536565b5f8303611263576040517f1f2a200500000000000000000000000000000000000000000000000000000000815260040160405180910390fd5b5f600173ffffffffffffffffffffffffffffffffffffffff166112846104c5565b73ffffffffffffffffffffffffffffffffffffffff160361132d576112a7610559565b73ffffffffffffffffffffffffffffffffffffffff166370a082316112cb3361262d565b6040518263ffffffff1660e01b81526004016112e791906134d7565b602060405180830381865afa158015611302573d5f5f3e3d5ffd5b505050506040513d601f19601f820116820180604052508101906113269190613b9c565b90506113b7565b6113356104c5565b73ffffffffffffffffffffffffffffffffffffffff166370a082316113593361262d565b6040518263ffffffff1660e01b815260040161137591906134d7565b602060405180830381865afa158015611390573d5f5f3e3d5ffd5b505050506040513d601f19601f820116820180604052508101906113b49190613b9c565b90505b808411156113fe5783816040517fb07e3bc40000000000000000000000000000000000000000000000000000000081526004016113f5929190613bc7565b60405180910390fd5b61140661228a565b5f61140f61200c565b73ffffffffffffffffffffffffffffffffffffffff1663e40208046040518163ffffffff1660e01b8152600401602060405180830381865afa158015611457573d5f5f3e3d5ffd5b505050506040513d601f19601f8201168201806040525081019061147b9190613538565b90505f600173ffffffffffffffffffffffffffffffffffffffff1661149e6104c5565b73ffffffffffffffffffffffffffffffffffffffff161490506114c03361262d565b73ffffffffffffffffffffffffffffffffffffffff1663fa58d7b48733846040518463ffffffff1660e01b81526004016114fc93929190613bee565b5f604051808303815f87803b158015611513575f5ffd5b505af1158015611525573d5f5f3e3d5ffd5b505050505f611533336126ce565b11156115de578173ffffffffffffffffffffffffffffffffffffffff16632e68f18e61155d610431565b61156561200c565b61156e3361262d565b61157661276f565b61157e612803565b611586612897565b61158f336126ce565b6040518863ffffffff1660e01b81526004016115b19796959493929190613c23565b5f6040518083038186803b1580156115c7575f5ffd5b505afa1580156115d9573d5f5f3e3d5ffd5b505050505b7fa8e76b822fc682be77f3b1c822ea81f6bda5aed92ba82e6873bfd889f328d1d2338760405161160f92919061362a565b60405180910390a150505050611623612207565b5050565b80611631816124ee565b6116396120a0565b8161164381612536565b5f840361167c576040517f1f2a200500000000000000000000000000000000000000000000000000000000815260040160405180910390fd5b61168461228a565b600173ffffffffffffffffffffffffffffffffffffffff166116a46104c5565b73ffffffffffffffffffffffffffffffffffffffff1603611833578334146117055734846040517f430ed2960000000000000000000000000000000000000000000000000000000081526004016116fc929190613bc7565b60405180910390fd5b61170d610559565b73ffffffffffffffffffffffffffffffffffffffff1663d0e30db0346040518263ffffffff1660e01b81526004015f604051808303818588803b158015611752575f5ffd5b505af1158015611764573d5f5f3e3d5ffd5b5050505050611771610559565b73ffffffffffffffffffffffffffffffffffffffff1663095ea7b36117958561262d565b866040518363ffffffff1660e01b81526004016117b392919061362a565b6020604051808303815f875af11580156117cf573d5f5f3e3d5ffd5b505050506040513d601f19601f820116820180604052508101906117f39190613665565b5061182e6118008461262d565b85611809610559565b73ffffffffffffffffffffffffffffffffffffffff166121889092919063ffffffff16565b611870565b61186f836118408561262d565b866118496104c5565b73ffffffffffffffffffffffffffffffffffffffff1661292b909392919063ffffffff16565b5b7ffef800959f37aa70fe9073f24093b307ae5952f0e34d164a48f279f6e4bc447c83856040516118a192919061362a565b60405180910390a1506118b2612207565b505050565b5f336118c2816124ee565b856118cc816129ad565b856118d6816129ad565b8673ffffffffffffffffffffffffffffffffffffffff168873ffffffffffffffffffffffffffffffffffffffff16036119485787876040517f44a401e100000000000000000000000000000000000000000000000000000000815260040161193f929190613c90565b60405180910390fd5b6119513361262d565b73ffffffffffffffffffffffffffffffffffffffff16638c3bc0b1898989896040518563ffffffff1660e01b815260040161198f9493929190613cb7565b6020604051808303815f875af11580156119ab573d5f5f3e3d5ffd5b505050506040513d601f19601f820116820180604052508101906119cf9190613b9c565b93507fc665f2f5768a61c064dd66125ac01f65d2f20d35ebb13a292211bf50619d753e3389898988604051611a089594939291906135d9565b60405180910390a1505050949350505050565b5f5f5f5f611a2761200c565b73ffffffffffffffffffffffffffffffffffffffff1663e40208046040518163ffffffff1660e01b8152600401602060405180830381865afa158015611a6f573d5f5f3e3d5ffd5b505050506040513d601f19601f82011682018060405250810190611a939190613538565b90508073ffffffffffffffffffffffffffffffffffffffff16639d068dd7611ab9610431565b611ac161200c565b611aca8961262d565b611ad261276f565b611ada612803565b611ae2612897565b611aeb8d6126ce565b6040518863ffffffff1660e01b8152600401611b0d9796959493929190613c23565b606060405180830381865afa158015611b28573d5f5f3e3d5ffd5b505050506040513d601f19601f82011682018060405250810190611b4c9190613cfa565b935093509350509193909250565b611b626120a0565b81611b6c81612536565b5f611b778385612a9e565b9050611b8161228a565b600173ffffffffffffffffffffffffffffffffffffffff16611ba1610431565b73ffffffffffffffffffffffffffffffffffffffff1603611c6b57823414611c025734836040517fe65fd68d000000000000000000000000000000000000000000000000000000008152600401611bf9929190613bc7565b60405180910390fd5b611c0a610559565b73ffffffffffffffffffffffffffffffffffffffff1663d0e30db0846040518263ffffffff1660e01b81526004015f604051808303818588803b158015611c4f575f5ffd5b505af1158015611c61573d5f5f3e3d5ffd5b5050505050611ca0565b611c9f843085611c79610431565b73ffffffffffffffffffffffffffffffffffffffff1661292b909392919063ffffffff16565b5b7fb84c7ef8bee9fe7d403a64ab2705017891a18609ce1910007c1e674b7685815e848483604051611cd3939291906135a4565b60405180910390a15050611ce5612207565b5050565b81611cf3816124ee565b611cfb6120a0565b82611d0581612536565b5f8703611d3e576040517f1f2a200500000000000000000000000000000000000000000000000000000000815260040160405180910390fd5b611d47846126ce565b871115611d955786611d58856126ce565b6040517f70926323000000000000000000000000000000000000000000000000000000008152600401611d8c929190613bc7565b60405180910390fd5b611d9d61228a565b5f611da88886612b43565b5050509050611db5610431565b73ffffffffffffffffffffffffffffffffffffffff168773ffffffffffffffffffffffffffffffffffffffff16148015611ded575085155b15611f2257600173ffffffffffffffffffffffffffffffffffffffff16611e12610431565b73ffffffffffffffffffffffffffffffffffffffff16148015611e3457505f34115b15611ee857803414611e7f5734816040517ff997ccc6000000000000000000000000000000000000000000000000000000008152600401611e76929190613bc7565b60405180910390fd5b611e87610559565b73ffffffffffffffffffffffffffffffffffffffff1663d0e30db0346040518263ffffffff1660e01b81526004015f604051808303818588803b158015611ecc575f5ffd5b505af1158015611ede573d5f5f3e3d5ffd5b5050505050611f1d565b611f1c853083611ef6610431565b73ffffffffffffffffffffffffffffffffffffffff1661292b909392919063ffffffff16565b5b611f95565b611f2b8561262d565b73ffffffffffffffffffffffffffffffffffffffff16632ba0c8a38289876040518463ffffffff1660e01b8152600401611f6793929190613d4a565b5f604051808303815f87803b158015611f7e575f5ffd5b505af1158015611f90573d5f5f3e3d5ffd5b505050505b7f75aa3d334b0a1b779c1e0db6925f11e01a834d00a702d36524b7f40f47a49b6185828a604051611fc8939291906135a4565b60405180910390a15050611fda612207565b505050505050565b60015f9054906101000a900473ffffffffffffffffffffffffffffffffffffffff1681565b600181565b5f60015f9054906101000a900473ffffffffffffffffffffffffffffffffffffffff1673ffffffffffffffffffffffffffffffffffffffff1663c45a01556040518163ffffffff1660e01b8152600401602060405180830381865afa158015612077573d5f5f3e3d5ffd5b505050506040513d601f19601f8201168201806040525081019061209b9190613538565b905090565b60025f54036120db576040517f3ee5aeb500000000000000000000000000000000000000000000000000000000815260040160405180910390fd5b60025f81905550565b5f60015f9054906101000a900473ffffffffffffffffffffffffffffffffffffffff1673ffffffffffffffffffffffffffffffffffffffff166368fc0c9a83336040518363ffffffff1660e01b8152600401612141929190613d7f565b6020604051808303815f875af115801561215d573d5f5f3e3d5ffd5b505050506040513d601f19601f820116820180604052508101906121819190613b9c565b9050919050565b612202838473ffffffffffffffffffffffffffffffffffffffff1663a9059cbb85856040516024016121bb92919061362a565b604051602081830303815290604052915060e01b6020820180517bffffffffffffffffffffffffffffffffffffffffffffffffffffffff8381831617835250505050612bf4565b505050565b60015f81905550565b5f61221961200c565b73ffffffffffffffffffffffffffffffffffffffff16634046ebae6040518163ffffffff1660e01b8152600401602060405180830381865afa158015612261573d5f5f3e3d5ffd5b505050506040513d601f19601f820116820180604052508101906122859190613538565b905090565b60015f9054906101000a900473ffffffffffffffffffffffffffffffffffffffff1673ffffffffffffffffffffffffffffffffffffffff1663a6afed956040518163ffffffff1660e01b81526004015f604051808303815f87803b1580156122f0575f5ffd5b505af1158015612302573d5f5f3e3d5ffd5b50505050565b5f5f5f60015f9054906101000a900473ffffffffffffffffffffffffffffffffffffffff1673ffffffffffffffffffffffffffffffffffffffff166335fce80e86866040518363ffffffff1660e01b8152600401612367929190613d7f565b6060604051808303815f875af1158015612383573d5f5f3e3d5ffd5b505050506040513d601f19601f820116820180604052508101906123a79190613da6565b9250925092509250925092565b606060036040516020016123c89190613e37565b604051602081830303815290604052905090565b606083600361ffff166123f85f83612c8f90919063ffffffff16565b61ffff1614612450576124145f82612c8f90919063ffffffff16565b6040517f3a51740d0000000000000000000000000000000000000000000000000000000081526004016124479190613e60565b60405180910390fd5b5f61245b8585612cf4565b905061246986600183612d5f565b925050509392505050565b5f61247d61200c565b73ffffffffffffffffffffffffffffffffffffffff16638ce744266040518163ffffffff1660e01b8152600401602060405180830381865afa1580156124c5573d5f5f3e3d5ffd5b505050506040513d601f19601f820116820180604052508101906124e99190613538565b905090565b5f73ffffffffffffffffffffffffffffffffffffffff1661250e8261262d565b73ffffffffffffffffffffffffffffffffffffffff16036125335761253281612e1a565b5b50565b61253e61200c565b73ffffffffffffffffffffffffffffffffffffffff16639a307391336040518263ffffffff1660e01b815260040161257691906134d7565b602060405180830381865afa158015612591573d5f5f3e3d5ffd5b505050506040513d601f19601f820116820180604052508101906125b59190613665565b61262a578073ffffffffffffffffffffffffffffffffffffffff163373ffffffffffffffffffffffffffffffffffffffff161461262957336040517f4a0bfec100000000000000000000000000000000000000000000000000000000815260040161262091906134d7565b60405180910390fd5b5b50565b5f60015f9054906101000a900473ffffffffffffffffffffffffffffffffffffffff1673ffffffffffffffffffffffffffffffffffffffff1663f79c3800836040518263ffffffff1660e01b815260040161268891906134d7565b602060405180830381865afa1580156126a3573d5f5f3e3d5ffd5b505050506040513d601f19601f820116820180604052508101906126c79190613538565b9050919050565b5f60015f9054906101000a900473ffffffffffffffffffffffffffffffffffffffff1673ffffffffffffffffffffffffffffffffffffffff16634fd422df836040518263ffffffff1660e01b815260040161272991906134d7565b602060405180830381865afa158015612744573d5f5f3e3d5ffd5b505050506040513d601f19601f820116820180604052508101906127689190613b9c565b9050919050565b5f60015f9054906101000a900473ffffffffffffffffffffffffffffffffffffffff1673ffffffffffffffffffffffffffffffffffffffff16636fb49d736040518163ffffffff1660e01b8152600401602060405180830381865afa1580156127da573d5f5f3e3d5ffd5b505050506040513d601f19601f820116820180604052508101906127fe9190613b9c565b905090565b5f60015f9054906101000a900473ffffffffffffffffffffffffffffffffffffffff1673ffffffffffffffffffffffffffffffffffffffff16631aad44c26040518163ffffffff1660e01b8152600401602060405180830381865afa15801561286e573d5f5f3e3d5ffd5b505050506040513d601f19601f820116820180604052508101906128929190613b9c565b905090565b5f60015f9054906101000a900473ffffffffffffffffffffffffffffffffffffffff1673ffffffffffffffffffffffffffffffffffffffff1663136cf1f76040518163ffffffff1660e01b8152600401602060405180830381865afa158015612902573d5f5f3e3d5ffd5b505050506040513d601f19601f820116820180604052508101906129269190613b9c565b905090565b6129a7848573ffffffffffffffffffffffffffffffffffffffff166323b872dd86868660405160240161296093929190613e79565b604051602081830303815290604052915060e01b6020820180517bffffffffffffffffffffffffffffffffffffffffffffffffffffffff8381831617835250505050612bf4565b50505050565b5f73ffffffffffffffffffffffffffffffffffffffff166129cc61200c565b73ffffffffffffffffffffffffffffffffffffffff16631d43335a836040518263ffffffff1660e01b8152600401612a0491906134d7565b602060405180830381865afa158015612a1f573d5f5f3e3d5ffd5b505050506040513d601f19601f82011682018060405250810190612a439190613538565b73ffffffffffffffffffffffffffffffffffffffff1603612a9b57806040517f1ab52334000000000000000000000000000000000000000000000000000000008152600401612a9291906134d7565b60405180910390fd5b50565b5f60015f9054906101000a900473ffffffffffffffffffffffffffffffffffffffff1673ffffffffffffffffffffffffffffffffffffffff166311d9dbd384846040518363ffffffff1660e01b8152600401612afb929190613d7f565b6020604051808303815f875af1158015612b17573d5f5f3e3d5ffd5b505050506040513d601f19601f82011682018060405250810190612b3b9190613b9c565b905092915050565b5f5f5f5f60015f9054906101000a900473ffffffffffffffffffffffffffffffffffffffff1673ffffffffffffffffffffffffffffffffffffffff16639d058e6787876040518363ffffffff1660e01b8152600401612ba3929190613d7f565b6080604051808303815f875af1158015612bbf573d5f5f3e3d5ffd5b505050506040513d601f19601f82011682018060405250810190612be39190613eae565b935093509350935092959194509250565b5f5f60205f8451602086015f885af180612c13576040513d5f823e3d81fd5b3d92505f519150505f8214612c2c576001811415612c47565b5f8473ffffffffffffffffffffffffffffffffffffffff163b145b15612c8957836040517f5274afe7000000000000000000000000000000000000000000000000000000008152600401612c8091906134d7565b60405180910390fd5b50505050565b5f600282612c9d9190613f3f565b83511015612ce0576040517f08c379a0000000000000000000000000000000000000000000000000000000008152600401612cd790613fbc565b60405180910390fd5b5f8260028501015190508091505092915050565b60605f826fffffffffffffffffffffffffffffffff1614612d36578282604051602001612d2292919061400e565b604051602081830303815290604052612d57565b82604051602001612d479190614039565b6040516020818303038152906040525b905092915050565b606083600361ffff16612d7b5f83612c8f90919063ffffffff16565b61ffff1614612dd357612d975f82612c8f90919063ffffffff16565b6040517f3a51740d000000000000000000000000000000000000000000000000000000008152600401612dca9190613e60565b60405180910390fd5b84600180612de18651612f79565b612deb9190614053565b8686604051602001612e019594939291906140ec565b6040516020818303038152906040529150509392505050565b5f73ffffffffffffffffffffffffffffffffffffffff16612e3a8261262d565b73ffffffffffffffffffffffffffffffffffffffff1614612e9a57612e5e8161262d565b6040517f5951739c000000000000000000000000000000000000000000000000000000008152600401612e9191906134d7565b60405180910390fd5b60015f9054906101000a900473ffffffffffffffffffffffffffffffffffffffff1673ffffffffffffffffffffffffffffffffffffffff1663f7e0ebf6826040518263ffffffff1660e01b8152600401612ef491906134d7565b6020604051808303815f875af1158015612f10573d5f5f3e3d5ffd5b505050506040513d601f19601f82011682018060405250810190612f349190613538565b507fcc3763c1c0784da97ef19dc776e12897dc1cfba3c2cab71b208490e993ba569481612f608361262d565b604051612f6e929190613c90565b60405180910390a150565b5f61ffff8016821115612fc6576010826040517f6dfcc650000000000000000000000000000000000000000000000000000000008152600401612fbd92919061417b565b60405180910390fd5b819050919050565b5f82825260208201905092915050565b7f556e6578706563746564206e617469766520746f6b656e0000000000000000005f82015250565b5f613012601783612fce565b915061301d82612fde565b602082019050919050565b5f6020820190508181035f83015261303f81613006565b9050919050565b7f46616c6c6261636b206e6f7420616c6c6f7765640000000000000000000000005f82015250565b5f61307a601483612fce565b915061308582613046565b602082019050919050565b5f6020820190508181035f8301526130a78161306e565b9050919050565b5f604051905090565b5f5ffd5b5f819050919050565b6130cd816130bb565b81146130d7575f5ffd5b50565b5f813590506130e8816130c4565b92915050565b5f60208284031215613103576131026130b7565b5b5f613110848285016130da565b91505092915050565b5f73ffffffffffffffffffffffffffffffffffffffff82169050919050565b5f61314282613119565b9050919050565b61315281613138565b811461315c575f5ffd5b50565b5f8135905061316d81613149565b92915050565b5f5f5f6060848603121561318a576131896130b7565b5b5f6131978682870161315f565b93505060206131a8868287016130da565b92505060406131b9868287016130da565b9150509250925092565b5f63ffffffff82169050919050565b6131db816131c3565b81146131e5575f5ffd5b50565b5f813590506131f6816131d2565b92915050565b5f6fffffffffffffffffffffffffffffffff82169050919050565b613220816131fc565b811461322a575f5ffd5b50565b5f8135905061323b81613217565b92915050565b5f5f5f5f60808587031215613259576132586130b7565b5b5f613266878288016130da565b9450506020613277878288016130da565b9350506040613288878288016131e8565b92505060606132998782880161322d565b91505092959194509250565b5f5f604083850312156132bb576132ba6130b7565b5b5f6132c88582860161315f565b92505060206132d9858286016130da565b9150509250929050565b6132ec816130bb565b82525050565b5f6020820190506133055f8301846132e3565b92915050565b5f5f60408385031215613321576133206130b7565b5b5f61332e858286016130da565b925050602061333f8582860161315f565b9150509250929050565b5f5f5f5f60808587031215613361576133606130b7565b5b5f61336e8782880161315f565b945050602061337f8782880161315f565b9350506040613390878288016130da565b92505060606133a1878288016130da565b91505092959194509250565b5f602082840312156133c2576133c16130b7565b5b5f6133cf8482850161315f565b91505092915050565b5f8115159050919050565b6133ec816133d8565b82525050565b5f6060820190506134055f8301866133e3565b61341260208301856132e3565b61341f60408301846132e3565b949350505050565b613430816133d8565b811461343a575f5ffd5b50565b5f8135905061344b81613427565b92915050565b5f5f5f5f5f60a0868803121561346a576134696130b7565b5b5f613477888289016130da565b95505060206134888882890161315f565b94505060406134998882890161343d565b93505060606134aa8882890161315f565b92505060806134bb888289016130da565b9150509295509295909350565b6134d181613138565b82525050565b5f6020820190506134ea5f8301846134c8565b92915050565b5f60ff82169050919050565b613505816134f0565b82525050565b5f60208201905061351e5f8301846134fc565b92915050565b5f8151905061353281613149565b92915050565b5f6020828403121561354d5761354c6130b7565b5b5f61355a84828501613524565b91505092915050565b5f81905092915050565b50565b5f61357b5f83613563565b91506135868261356d565b5f82019050919050565b5f61359a82613570565b9150819050919050565b5f6060820190506135b75f8301866134c8565b6135c460208301856132e3565b6135d160408301846132e3565b949350505050565b5f60a0820190506135ec5f8301886134c8565b6135f960208301876134c8565b61360660408301866134c8565b61361360608301856132e3565b61362060808301846132e3565b9695505050505050565b5f60408201905061363d5f8301856134c8565b61364a60208301846132e3565b9392505050565b5f8151905061365f81613427565b92915050565b5f6020828403121561367a576136796130b7565b5b5f61368784828501613651565b91505092915050565b613699816131c3565b82525050565b5f819050919050565b6136b18161369f565b82525050565b6136c0816130bb565b82525050565b5f81519050919050565b5f82825260208201905092915050565b8281835e5f83830152505050565b5f601f19601f8301169050919050565b5f613708826136c6565b61371281856136d0565b93506137228185602086016136e0565b61372b816136ee565b840191505092915050565b5f60e083015f83015161374b5f860182613690565b50602083015161375e60208601826136a8565b50604083015161377160408601826136b7565b50606083015161378460608601826136b7565b506080830151848203608086015261379c82826136fe565b91505060a083015184820360a08601526137b682826136fe565b91505060c083015184820360c08601526137d082826136fe565b9150508091505092915050565b5f6040820190508181035f8301526137f58185613736565b905061380460208301846133e3565b9392505050565b5f5ffd5b7f4e487b71000000000000000000000000000000000000000000000000000000005f52604160045260245ffd5b613845826136ee565b810181811067ffffffffffffffff821117156138645761386361380f565b5b80604052505050565b5f6138766130ae565b9050613882828261383c565b919050565b5f81519050613895816130c4565b92915050565b5f604082840312156138b0576138af61380b565b5b6138ba604061386d565b90505f6138c984828501613887565b5f8301525060206138dc84828501613887565b60208301525092915050565b5f604082840312156138fd576138fc6130b7565b5b5f61390a8482850161389b565b91505092915050565b604082015f8201516139275f8501826136b7565b50602082015161393a60208501826136b7565b50505050565b5f6080820190508181035f8301526139588186613736565b90506139676020830185613913565b61397460608301846134c8565b949350505050565b6139858161369f565b811461398f575f5ffd5b50565b5f815190506139a08161397c565b92915050565b5f67ffffffffffffffff82169050919050565b6139c2816139a6565b81146139cc575f5ffd5b50565b5f815190506139dd816139b9565b92915050565b5f608082840312156139f8576139f761380b565b5b613a02606061386d565b90505f613a1184828501613992565b5f830152506020613a24848285016139cf565b6020830152506040613a388482850161389b565b60408301525092915050565b5f60408284031215613a5957613a5861380b565b5b613a63604061386d565b90505f613a7284828501613887565b5f830152506020613a8584828501613887565b60208301525092915050565b5f5f60c08385031215613aa757613aa66130b7565b5b5f613ab4858286016139e3565b9250506080613ac585828601613a44565b9150509250929050565b5f819050919050565b5f613af2613aed613ae8846131fc565b613acf565b6130bb565b9050919050565b613b0281613ad8565b82525050565b5f60a082019050613b1b5f8301886134c8565b613b2860208301876132e3565b613b3560408301866132e3565b613b4260608301856132e3565b613b4f6080830184613af9565b9695505050505050565b5f608082019050613b6c5f8301876134c8565b613b7960208301866134c8565b613b8660408301856134c8565b613b9360608301846132e3565b95945050505050565b5f60208284031215613bb157613bb06130b7565b5b5f613bbe84828501613887565b91505092915050565b5f604082019050613bda5f8301856132e3565b613be760208301846132e3565b9392505050565b5f606082019050613c015f8301866132e3565b613c0e60208301856134c8565b613c1b60408301846133e3565b949350505050565b5f60e082019050613c365f83018a6134c8565b613c4360208301896134c8565b613c5060408301886134c8565b613c5d60608301876132e3565b613c6a60808301866132e3565b613c7760a08301856132e3565b613c8460c08301846132e3565b98975050505050505050565b5f604082019050613ca35f8301856134c8565b613cb060208301846134c8565b9392505050565b5f608082019050613cca5f8301876134c8565b613cd760208301866134c8565b613ce460408301856132e3565b613cf160608301846132e3565b95945050505050565b5f5f5f60608486031215613d1157613d106130b7565b5b5f613d1e86828701613651565b9350506020613d2f86828701613887565b9250506040613d4086828701613887565b9150509250925092565b5f606082019050613d5d5f8301866132e3565b613d6a60208301856134c8565b613d7760408301846132e3565b949350505050565b5f604082019050613d925f8301856132e3565b613d9f60208301846134c8565b9392505050565b5f5f5f60608486031215613dbd57613dbc6130b7565b5b5f613dca86828701613887565b9350506020613ddb86828701613887565b9250506040613dec86828701613887565b9150509250925092565b5f61ffff82169050919050565b5f8160f01b9050919050565b5f613e1982613e03565b9050919050565b613e31613e2c82613df6565b613e0f565b82525050565b5f613e428284613e20565b60028201915081905092915050565b613e5a81613df6565b82525050565b5f602082019050613e735f830184613e51565b92915050565b5f606082019050613e8c5f8301866134c8565b613e9960208301856134c8565b613ea660408301846132e3565b949350505050565b5f5f5f5f60808587031215613ec657613ec56130b7565b5b5f613ed387828801613887565b9450506020613ee487828801613887565b9350506040613ef587828801613887565b9250506060613f0687828801613887565b91505092959194509250565b7f4e487b71000000000000000000000000000000000000000000000000000000005f52601160045260245ffd5b5f613f49826130bb565b9150613f54836130bb565b9250828201905080821115613f6c57613f6b613f12565b5b92915050565b7f746f55696e7431365f6f75744f66426f756e64730000000000000000000000005f82015250565b5f613fa6601483612fce565b9150613fb182613f72565b602082019050919050565b5f6020820190508181035f830152613fd381613f9a565b9050919050565b5f8160801b9050919050565b5f613ff082613fda565b9050919050565b614008614003826131fc565b613fe6565b82525050565b5f6140198285613ff7565b6010820191506140298284613ff7565b6010820191508190509392505050565b5f6140448284613ff7565b60108201915081905092915050565b5f61405d82613df6565b915061406883613df6565b9250828201905061ffff81111561408257614081613f12565b5b92915050565b5f614092826136c6565b61409c8185613563565b93506140ac8185602086016136e0565b80840191505092915050565b5f8160f81b9050919050565b5f6140ce826140b8565b9050919050565b6140e66140e1826134f0565b6140c4565b82525050565b5f6140f78288614088565b915061410382876140d5565b6001820191506141138286613e20565b60028201915061412382856140d5565b6001820191506141338284614088565b91508190509695505050505050565b5f819050919050565b5f61416561416061415b84614142565b613acf565b6134f0565b9050919050565b6141758161414b565b82525050565b5f60408201905061418e5f83018561416c565b61419b60208301846132e3565b939250505056fea264697066735822122018a92573ea6027c6f51553350ad729b8eccc6a5c6a32050b2a86b8a7e791901364736f6c634300081e0033","linkReferences":{}},"methodIdentifiers":{"VERSION()":"ffa1ad74","borrowDebt(uint256,uint256,uint32,uint128)":"2392478c","checkLiquidation(address)":"a274f4ac","liquidateByDEX(address,uint256)":"3f7a1a7e","liquidateByMEV(address,uint256,uint256)":"141b0c4c","repayWithSelectedToken(uint256,address,bool,address,uint256)":"b8939dd0","router()":"f887ea40","supplyCollateral(uint256,address)":"62c5f6c7","supplyLiquidity(address,uint256)":"b39e3771","swapTokenByPosition(address,address,uint256,uint256)":"8c3bc0b1","withdrawCollateral(uint256)":"6112fe2e","withdrawLiquidity(uint256)":"0a861f2a"},"id":122}