{"abi":[{"type":"constructor","inputs":[{"name":"_router","type":"address","internalType":"address"}],"stateMutability":"nonpayable"},{"type":"fallback","stateMutability":"payable"},{"type":"receive","stateMutability":"payable"},{"type":"function","name":"VERSION","inputs":[],"outputs":[{"name":"","type":"uint8","internalType":"uint8"}],"stateMutability":"view"},{"type":"function","name":"borrowDebt","inputs":[{"name":"_amount","type":"uint256","internalType":"uint256"},{"name":"_chainId","type":"uint256","internalType":"uint256"},{"name":"_dstEid","type":"uint32","internalType":"uint32"},{"name":"_addExecutorLzReceiveOption","type":"uint128","internalType":"uint128"}],"outputs":[],"stateMutability":"payable"},{"type":"function","name":"checkLiquidation","inputs":[{"name":"borrower","type":"address","internalType":"address"}],"outputs":[{"name":"isLiquidatable","type":"bool","internalType":"bool"},{"name":"borrowValue","type":"uint256","internalType":"uint256"},{"name":"collateralValue","type":"uint256","internalType":"uint256"}],"stateMutability":"view"},{"type":"function","name":"liquidateByDEX","inputs":[{"name":"borrower","type":"address","internalType":"address"},{"name":"liquidationIncentive","type":"uint256","internalType":"uint256"}],"outputs":[{"name":"liquidatedAmount","type":"uint256","internalType":"uint256"}],"stateMutability":"nonpayable"},{"type":"function","name":"liquidateByMEV","inputs":[{"name":"borrower","type":"address","internalType":"address"},{"name":"repayAmount","type":"uint256","internalType":"uint256"},{"name":"liquidationIncentive","type":"uint256","internalType":"uint256"}],"outputs":[],"stateMutability":"payable"},{"type":"function","name":"repayWithSelectedToken","inputs":[{"name":"shares","type":"uint256","internalType":"uint256"},{"name":"_token","type":"address","internalType":"address"},{"name":"_fromPosition","type":"bool","internalType":"bool"},{"name":"_user","type":"address","internalType":"address"},{"name":"_slippageTolerance","type":"uint256","internalType":"uint256"}],"outputs":[],"stateMutability":"payable"},{"type":"function","name":"router","inputs":[],"outputs":[{"name":"","type":"address","internalType":"address"}],"stateMutability":"view"},{"type":"function","name":"supplyCollateral","inputs":[{"name":"_amount","type":"uint256","internalType":"uint256"},{"name":"_user","type":"address","internalType":"address"}],"outputs":[],"stateMutability":"payable"},{"type":"function","name":"supplyLiquidity","inputs":[{"name":"_user","type":"address","internalType":"address"},{"name":"_amount","type":"uint256","internalType":"uint256"}],"outputs":[],"stateMutability":"payable"},{"type":"function","name":"withdrawCollateral","inputs":[{"name":"_amount","type":"uint256","internalType":"uint256"}],"outputs":[],"stateMutability":"nonpayable"},{"type":"function","name":"withdrawLiquidity","inputs":[{"name":"_shares","type":"uint256","internalType":"uint256"}],"outputs":[],"stateMutability":"payable"},{"type":"event","name":"BorrowDebtCrosschain","inputs":[{"name":"user","type":"address","indexed":false,"internalType":"address"},{"name":"amount","type":"uint256","indexed":false,"internalType":"uint256"},{"name":"shares","type":"uint256","indexed":false,"internalType":"uint256"},{"name":"chainId","type":"uint256","indexed":false,"internalType":"uint256"},{"name":"addExecutorLzReceiveOption","type":"uint256","indexed":false,"internalType":"uint256"}],"anonymous":false},{"type":"event","name":"CreatePosition","inputs":[{"name":"user","type":"address","indexed":false,"internalType":"address"},{"name":"positionAddress","type":"address","indexed":false,"internalType":"address"}],"anonymous":false},{"type":"event","name":"InterestRateModelSet","inputs":[{"name":"oldModel","type":"address","indexed":true,"internalType":"address"},{"name":"newModel","type":"address","indexed":true,"internalType":"address"}],"anonymous":false},{"type":"event","name":"RepayByPosition","inputs":[{"name":"user","type":"address","indexed":false,"internalType":"address"},{"name":"amount","type":"uint256","indexed":false,"internalType":"uint256"},{"name":"shares","type":"uint256","indexed":false,"internalType":"uint256"}],"anonymous":false},{"type":"event","name":"SupplyCollateral","inputs":[{"name":"user","type":"address","indexed":false,"internalType":"address"},{"name":"amount","type":"uint256","indexed":false,"internalType":"uint256"}],"anonymous":false},{"type":"event","name":"SupplyLiquidity","inputs":[{"name":"user","type":"address","indexed":false,"internalType":"address"},{"name":"amount","type":"uint256","indexed":false,"internalType":"uint256"},{"name":"shares","type":"uint256","indexed":false,"internalType":"uint256"}],"anonymous":false},{"type":"event","name":"WithdrawCollateral","inputs":[{"name":"user","type":"address","indexed":false,"internalType":"address"},{"name":"amount","type":"uint256","indexed":false,"internalType":"uint256"}],"anonymous":false},{"type":"event","name":"WithdrawLiquidity","inputs":[{"name":"user","type":"address","indexed":false,"internalType":"address"},{"name":"amount","type":"uint256","indexed":false,"internalType":"uint256"},{"name":"shares","type":"uint256","indexed":false,"internalType":"uint256"}],"anonymous":false},{"type":"error","name":"InsufficientBorrowShares","inputs":[]},{"type":"error","name":"InsufficientCollateral","inputs":[]},{"type":"error","name":"InsufficientContractBalance","inputs":[]},{"type":"error","name":"InsufficientLiquidity","inputs":[]},{"type":"error","name":"InsufficientShares","inputs":[]},{"type":"error","name":"InvalidOptionType","inputs":[{"name":"optionType","type":"uint16","internalType":"uint16"}]},{"type":"error","name":"InvalidParameter","inputs":[]},{"type":"error","name":"LTVExceedMaxAmount","inputs":[]},{"type":"error","name":"NotAuthorized","inputs":[{"name":"executor","type":"address","internalType":"address"}]},{"type":"error","name":"NotOperator","inputs":[]},{"type":"error","name":"PositionAlreadyCreated","inputs":[]},{"type":"error","name":"ReentrancyGuardReentrantCall","inputs":[]},{"type":"error","name":"SafeCastOverflowedUintDowncast","inputs":[{"name":"bits","type":"uint8","internalType":"uint8"},{"name":"value","type":"uint256","internalType":"uint256"}]},{"type":"error","name":"SafeERC20FailedOperation","inputs":[{"name":"token","type":"address","internalType":"address"}]},{"type":"error","name":"TokenNotAvailable","inputs":[]},{"type":"error","name":"TransferFailed","inputs":[]},{"type":"error","name":"ZeroAmount","inputs":[]},{"type":"error","name":"amountSharesInvalid","inputs":[]}],"bytecode":{"object":"0x608060405234801561000f575f5ffd5b50604051613ed8380380613ed8833981810160405281019061003191906100dc565b60015f819055508060015f6101000a81548173ffffffffffffffffffffffffffffffffffffffff021916908373ffffffffffffffffffffffffffffffffffffffff16021790555050610107565b5f5ffd5b5f73ffffffffffffffffffffffffffffffffffffffff82169050919050565b5f6100ab82610082565b9050919050565b6100bb816100a1565b81146100c5575f5ffd5b50565b5f815190506100d6816100b2565b92915050565b5f602082840312156100f1576100f061007e565b5b5f6100fe848285016100c8565b91505092915050565b613dc4806101145f395ff3fe60806040526004361061009f575f3560e01c806362c5f6c71161006357806362c5f6c714610304578063a274f4ac14610320578063b39e37711461035e578063b8939dd01461037a578063f887ea4014610396578063ffa1ad74146103c057610211565b80630a861f2a1461024c578063141b0c4c146102685780632392478c146102845780633f7a1a7e146102a05780636112fe2e146102dc57610211565b36610211575f341180156100c05750600160149054906101000a900460ff16155b801561013d5750600173ffffffffffffffffffffffffffffffffffffffff166100e76103ea565b73ffffffffffffffffffffffffffffffffffffffff16148061013c5750600173ffffffffffffffffffffffffffffffffffffffff1661012461047e565b73ffffffffffffffffffffffffffffffffffffffff16145b5b156101ab5761014a610512565b73ffffffffffffffffffffffffffffffffffffffff1663d0e30db0346040518263ffffffff1660e01b81526004015f604051808303818588803b15801561018f575f5ffd5b505af11580156101a1573d5f5f3e3d5ffd5b505050505061020e565b5f341180156101c65750600160149054906101000a900460ff165b61020f575f34111561020d576040517f08c379a000000000000000000000000000000000000000000000000000000000815260040161020490612ce2565b60405180910390fd5b5b5b005b6040517f08c379a000000000000000000000000000000000000000000000000000000000815260040161024390612d4a565b60405180910390fd5b61026660048036038101906102619190612da8565b61058c565b005b610282600480360381019061027d9190612e2d565b6107a1565b005b61029e60048036038101906102999190612efb565b61085a565b005b3480156102ab575f5ffd5b506102c660048036038101906102c19190612f5f565b6110ad565b6040516102d39190612fac565b60405180910390f35b3480156102e7575f5ffd5b5061030260048036038101906102fd9190612da8565b611179565b005b61031e60048036038101906103199190612fc5565b611585565b005b34801561032b575f5ffd5b5061034660048036038101906103419190613003565b611808565b60405161035593929190613048565b60405180910390f35b61037860048036038101906103739190612f5f565b611947565b005b610394600480360381019061038f91906130a7565b611ac9565b005b3480156103a1575f5ffd5b506103aa611da0565b6040516103b7919061312d565b60405180910390f35b3480156103cb575f5ffd5b506103d4611dc5565b6040516103e19190613161565b60405180910390f35b5f60015f9054906101000a900473ffffffffffffffffffffffffffffffffffffffff1673ffffffffffffffffffffffffffffffffffffffff1663456dc17a6040518163ffffffff1660e01b8152600401602060405180830381865afa158015610455573d5f5f3e3d5ffd5b505050506040513d601f19601f82011682018060405250810190610479919061318e565b905090565b5f60015f9054906101000a900473ffffffffffffffffffffffffffffffffffffffff1673ffffffffffffffffffffffffffffffffffffffff1663b2016bd46040518163ffffffff1660e01b8152600401602060405180830381865afa1580156104e9573d5f5f3e3d5ffd5b505050506040513d601f19601f8201168201806040525081019061050d919061318e565b905090565b5f61051b611dca565b73ffffffffffffffffffffffffffffffffffffffff1663d999984d6040518163ffffffff1660e01b8152600401602060405180830381865afa158015610563573d5f5f3e3d5ffd5b505050506040513d601f19601f82011682018060405250810190610587919061318e565b905090565b610594611e5e565b5f61059e82611ea2565b90505f600173ffffffffffffffffffffffffffffffffffffffff166105c16103ea565b73ffffffffffffffffffffffffffffffffffffffff1614905080156107265760018060146101000a81548160ff021916908315150217905550610602610512565b73ffffffffffffffffffffffffffffffffffffffff16632e1a7d4d836040518263ffffffff1660e01b815260040161063a9190612fac565b5f604051808303815f87803b158015610651575f5ffd5b505af1158015610663573d5f5f3e3d5ffd5b505050505f3373ffffffffffffffffffffffffffffffffffffffff168360405161068c906131e6565b5f6040518083038185875af1925050503d805f81146106c6576040519150601f19603f3d011682016040523d82523d5f602084013e6106cb565b606091505b5050905080610706576040517f90b8ec1800000000000000000000000000000000000000000000000000000000815260040160405180910390fd5b5f600160146101000a81548160ff02191690831515021790555050610759565b61075833836107336103ea565b73ffffffffffffffffffffffffffffffffffffffff16611f469092919063ffffffff16565b5b7fac927268ea9ae2e55027e6ab727fc2db8e3ea48c56c658223a1074567e4298c033838560405161078c939291906131fa565b60405180910390a1505061079e611fc5565b50565b6107a9611e5e565b5f6107b2611fce565b90508073ffffffffffffffffffffffffffffffffffffffff166322c32aa7348660015f9054906101000a900473ffffffffffffffffffffffffffffffffffffffff166107fc611dca565b88886040518763ffffffff1660e01b815260040161081e95949392919061322f565b5f604051808303818588803b158015610835575f5ffd5b505af1158015610847573d5f5f3e3d5ffd5b505050505050610855611fc5565b505050565b610862611e5e565b61086a612048565b5f5f5f61087787336120c6565b925092509250468614610df3575f6108a1855f610892612172565b61219a9092919063ffffffff16565b90505f6040518060e001604052808863ffffffff1681526020013373ffffffffffffffffffffffffffffffffffffffff165f1b815260200185815260200185815260200183815260200160405180602001604052805f815250815260200160405180602001604052805f8152508152509050600173ffffffffffffffffffffffffffffffffffffffff166109336103ea565b73ffffffffffffffffffffffffffffffffffffffff1603610b9f57610987610959612232565b86610962610512565b73ffffffffffffffffffffffffffffffffffffffff16611f469092919063ffffffff16565b5f610990611dca565b73ffffffffffffffffffffffffffffffffffffffff1663efe1b2cd6109b36103ea565b6040518263ffffffff1660e01b81526004016109cf919061312d565b602060405180830381865afa1580156109ea573d5f5f3e3d5ffd5b505050506040513d601f19601f82011682018060405250810190610a0e919061318e565b90505f819050610a1c610512565b73ffffffffffffffffffffffffffffffffffffffff1663095ea7b383886040518363ffffffff1660e01b8152600401610a56929190613280565b6020604051808303815f875af1158015610a72573d5f5f3e3d5ffd5b505050506040513d601f19601f82011682018060405250810190610a9691906132bb565b505f8173ffffffffffffffffffffffffffffffffffffffff16633b6f743b855f6040518363ffffffff1660e01b8152600401610ad3929190613433565b6040805180830381865afa158015610aed573d5f5f3e3d5ffd5b505050506040513d601f19601f82011682018060405250810190610b11919061353e565b90508173ffffffffffffffffffffffffffffffffffffffff1663c7c7f5b3825f01518684336040518563ffffffff1660e01b8152600401610b5493929190613596565b60c06040518083038185885af1158015610b70573d5f5f3e3d5ffd5b50505050506040513d601f19601f82011682018060405250810190610b9591906136e7565b5050505050610dec565b610bd8610baa612232565b86610bb36103ea565b73ffffffffffffffffffffffffffffffffffffffff16611f469092919063ffffffff16565b5f610be1611dca565b73ffffffffffffffffffffffffffffffffffffffff1663efe1b2cd610c046103ea565b6040518263ffffffff1660e01b8152600401610c20919061312d565b602060405180830381865afa158015610c3b573d5f5f3e3d5ffd5b505050506040513d601f19601f82011682018060405250810190610c5f919061318e565b90505f819050610c6d6103ea565b73ffffffffffffffffffffffffffffffffffffffff1663095ea7b383886040518363ffffffff1660e01b8152600401610ca7929190613280565b6020604051808303815f875af1158015610cc3573d5f5f3e3d5ffd5b505050506040513d601f19601f82011682018060405250810190610ce791906132bb565b505f8173ffffffffffffffffffffffffffffffffffffffff16633b6f743b855f6040518363ffffffff1660e01b8152600401610d24929190613433565b6040805180830381865afa158015610d3e573d5f5f3e3d5ffd5b505050506040513d601f19601f82011682018060405250810190610d62919061353e565b90508173ffffffffffffffffffffffffffffffffffffffff1663c7c7f5b3825f01518684336040518563ffffffff1660e01b8152600401610da593929190613596565b60c06040518083038185885af1158015610dc1573d5f5f3e3d5ffd5b50505050506040513d601f19601f82011682018060405250810190610de691906136e7565b50505050505b505061105d565b600173ffffffffffffffffffffffffffffffffffffffff16610e136103ea565b73ffffffffffffffffffffffffffffffffffffffff1603610ff05760018060146101000a81548160ff021916908315150217905550610e50610512565b73ffffffffffffffffffffffffffffffffffffffff16632e1a7d4d886040518263ffffffff1660e01b8152600401610e889190612fac565b5f604051808303815f87803b158015610e9f575f5ffd5b505af1158015610eb1573d5f5f3e3d5ffd5b505050505f610ebe612232565b73ffffffffffffffffffffffffffffffffffffffff1684604051610ee1906131e6565b5f6040518083038185875af1925050503d805f8114610f1b576040519150601f19603f3d011682016040523d82523d5f602084013e610f20565b606091505b505090505f3373ffffffffffffffffffffffffffffffffffffffff1684604051610f49906131e6565b5f6040518083038185875af1925050503d805f8114610f83576040519150601f19603f3d011682016040523d82523d5f602084013e610f88565b606091505b5050905081158015610f98575080155b15610fcf576040517f90b8ec1800000000000000000000000000000000000000000000000000000000815260040160405180910390fd5b5f600160146101000a81548160ff021916908315150217905550505061105c565b611029610ffb612232565b846110046103ea565b73ffffffffffffffffffffffffffffffffffffffff16611f469092919063ffffffff16565b61105b33836110366103ea565b73ffffffffffffffffffffffffffffffffffffffff16611f469092919063ffffffff16565b5b5b7f66dd7e4c61f4b443be99281efbece3ebc180e5557480604aea7608ff6f0ff1e2338883898860405161109495949392919061375e565b60405180910390a15050506110a7611fc5565b50505050565b5f6110b6611e5e565b5f6110bf611fce565b90508073ffffffffffffffffffffffffffffffffffffffff1663630cbcc18560015f9054906101000a900473ffffffffffffffffffffffffffffffffffffffff16611108611dca565b876040518563ffffffff1660e01b815260040161112894939291906137af565b6020604051808303815f875af1158015611144573d5f5f3e3d5ffd5b505050506040513d601f19601f8201168201806040525081019061116891906137f2565b915050611173611fc5565b92915050565b33611183816122ac565b61118b611e5e565b33611195816122f4565b5f83036111ce576040517f1f2a200500000000000000000000000000000000000000000000000000000000815260040160405180910390fd5b5f600173ffffffffffffffffffffffffffffffffffffffff166111ef61047e565b73ffffffffffffffffffffffffffffffffffffffff160361129857611212610512565b73ffffffffffffffffffffffffffffffffffffffff166370a08231611236336123eb565b6040518263ffffffff1660e01b8152600401611252919061312d565b602060405180830381865afa15801561126d573d5f5f3e3d5ffd5b505050506040513d601f19601f8201168201806040525081019061129191906137f2565b9050611322565b6112a061047e565b73ffffffffffffffffffffffffffffffffffffffff166370a082316112c4336123eb565b6040518263ffffffff1660e01b81526004016112e0919061312d565b602060405180830381865afa1580156112fb573d5f5f3e3d5ffd5b505050506040513d601f19601f8201168201806040525081019061131f91906137f2565b90505b8084111561135c576040517f3a23d82500000000000000000000000000000000000000000000000000000000815260040160405180910390fd5b611364612048565b5f61136d611dca565b73ffffffffffffffffffffffffffffffffffffffff1663e40208046040518163ffffffff1660e01b8152600401602060405180830381865afa1580156113b5573d5f5f3e3d5ffd5b505050506040513d601f19601f820116820180604052508101906113d9919061318e565b90505f600173ffffffffffffffffffffffffffffffffffffffff166113fc61047e565b73ffffffffffffffffffffffffffffffffffffffff1614905061141e336123eb565b73ffffffffffffffffffffffffffffffffffffffff1663fa58d7b48733846040518463ffffffff1660e01b815260040161145a9392919061381d565b5f604051808303815f87803b158015611471575f5ffd5b505af1158015611483573d5f5f3e3d5ffd5b505050505f6114913361248c565b111561153c578173ffffffffffffffffffffffffffffffffffffffff16632e68f18e6114bb6103ea565b6114c3611dca565b6114cc336123eb565b6114d461252d565b6114dc6125c1565b6114e4612655565b6114ed3361248c565b6040518863ffffffff1660e01b815260040161150f9796959493929190613852565b5f6040518083038186803b158015611525575f5ffd5b505afa158015611537573d5f5f3e3d5ffd5b505050505b7fa8e76b822fc682be77f3b1c822ea81f6bda5aed92ba82e6873bfd889f328d1d2338760405161156d929190613280565b60405180910390a150505050611581611fc5565b5050565b8061158f816122ac565b611597611e5e565b816115a1816122f4565b5f84036115da576040517f1f2a200500000000000000000000000000000000000000000000000000000000815260040160405180910390fd5b6115e2612048565b600173ffffffffffffffffffffffffffffffffffffffff1661160261047e565b73ffffffffffffffffffffffffffffffffffffffff160361178457833414611656576040517f3a23d82500000000000000000000000000000000000000000000000000000000815260040160405180910390fd5b61165e610512565b73ffffffffffffffffffffffffffffffffffffffff1663d0e30db0346040518263ffffffff1660e01b81526004015f604051808303818588803b1580156116a3575f5ffd5b505af11580156116b5573d5f5f3e3d5ffd5b50505050506116c2610512565b73ffffffffffffffffffffffffffffffffffffffff1663095ea7b36116e6856123eb565b866040518363ffffffff1660e01b8152600401611704929190613280565b6020604051808303815f875af1158015611720573d5f5f3e3d5ffd5b505050506040513d601f19601f8201168201806040525081019061174491906132bb565b5061177f611751846123eb565b8561175a610512565b73ffffffffffffffffffffffffffffffffffffffff16611f469092919063ffffffff16565b6117c1565b6117c083611791856123eb565b8661179a61047e565b73ffffffffffffffffffffffffffffffffffffffff166126e9909392919063ffffffff16565b5b7ffef800959f37aa70fe9073f24093b307ae5952f0e34d164a48f279f6e4bc447c83856040516117f2929190613280565b60405180910390a150611803611fc5565b505050565b5f5f5f5f611814611dca565b73ffffffffffffffffffffffffffffffffffffffff1663e40208046040518163ffffffff1660e01b8152600401602060405180830381865afa15801561185c573d5f5f3e3d5ffd5b505050506040513d601f19601f82011682018060405250810190611880919061318e565b90508073ffffffffffffffffffffffffffffffffffffffff16639d068dd76118a66103ea565b6118ae611dca565b6118b7896123eb565b6118bf61252d565b6118c76125c1565b6118cf612655565b6118d88d61248c565b6040518863ffffffff1660e01b81526004016118fa9796959493929190613852565b606060405180830381865afa158015611915573d5f5f3e3d5ffd5b505050506040513d601f19601f8201168201806040525081019061193991906138bf565b935093509350509193909250565b61194f611e5e565b81611959816122f4565b5f611964838561276b565b905061196e612048565b600173ffffffffffffffffffffffffffffffffffffffff1661198e6103ea565b73ffffffffffffffffffffffffffffffffffffffff1603611a4b578234146119e2576040517f3a23d82500000000000000000000000000000000000000000000000000000000815260040160405180910390fd5b6119ea610512565b73ffffffffffffffffffffffffffffffffffffffff1663d0e30db0346040518263ffffffff1660e01b81526004015f604051808303818588803b158015611a2f575f5ffd5b505af1158015611a41573d5f5f3e3d5ffd5b5050505050611a80565b611a7f843085611a596103ea565b73ffffffffffffffffffffffffffffffffffffffff166126e9909392919063ffffffff16565b5b7fb84c7ef8bee9fe7d403a64ab2705017891a18609ce1910007c1e674b7685815e848483604051611ab3939291906131fa565b60405180910390a15050611ac5611fc5565b5050565b81611ad3816122ac565b611adb611e5e565b82611ae5816122f4565b5f8703611b1e576040517f1f2a200500000000000000000000000000000000000000000000000000000000815260040160405180910390fd5b611b278461248c565b871115611b60576040517f9a260b2600000000000000000000000000000000000000000000000000000000815260040160405180910390fd5b611b68612048565b5f611b738886612810565b5050509050611b806103ea565b73ffffffffffffffffffffffffffffffffffffffff168773ffffffffffffffffffffffffffffffffffffffff16148015611bb8575085155b15611ce057600173ffffffffffffffffffffffffffffffffffffffff16611bdd6103ea565b73ffffffffffffffffffffffffffffffffffffffff16148015611bff57505f34115b15611ca657803414611c3d576040517f3a23d82500000000000000000000000000000000000000000000000000000000815260040160405180910390fd5b611c45610512565b73ffffffffffffffffffffffffffffffffffffffff1663d0e30db0346040518263ffffffff1660e01b81526004015f604051808303818588803b158015611c8a575f5ffd5b505af1158015611c9c573d5f5f3e3d5ffd5b5050505050611cdb565b611cda853083611cb46103ea565b73ffffffffffffffffffffffffffffffffffffffff166126e9909392919063ffffffff16565b5b611d53565b611ce9856123eb565b73ffffffffffffffffffffffffffffffffffffffff16632ba0c8a38289876040518463ffffffff1660e01b8152600401611d259392919061390f565b5f604051808303815f87803b158015611d3c575f5ffd5b505af1158015611d4e573d5f5f3e3d5ffd5b505050505b7f75aa3d334b0a1b779c1e0db6925f11e01a834d00a702d36524b7f40f47a49b6185828a604051611d86939291906131fa565b60405180910390a15050611d98611fc5565b505050505050565b60015f9054906101000a900473ffffffffffffffffffffffffffffffffffffffff1681565b600181565b5f60015f9054906101000a900473ffffffffffffffffffffffffffffffffffffffff1673ffffffffffffffffffffffffffffffffffffffff1663c45a01556040518163ffffffff1660e01b8152600401602060405180830381865afa158015611e35573d5f5f3e3d5ffd5b505050506040513d601f19601f82011682018060405250810190611e59919061318e565b905090565b60025f5403611e99576040517f3ee5aeb500000000000000000000000000000000000000000000000000000000815260040160405180910390fd5b60025f81905550565b5f60015f9054906101000a900473ffffffffffffffffffffffffffffffffffffffff1673ffffffffffffffffffffffffffffffffffffffff166368fc0c9a83336040518363ffffffff1660e01b8152600401611eff929190613944565b6020604051808303815f875af1158015611f1b573d5f5f3e3d5ffd5b505050506040513d601f19601f82011682018060405250810190611f3f91906137f2565b9050919050565b611fc0838473ffffffffffffffffffffffffffffffffffffffff1663a9059cbb8585604051602401611f79929190613280565b604051602081830303815290604052915060e01b6020820180517bffffffffffffffffffffffffffffffffffffffffffffffffffffffff83818316178352505050506128c1565b505050565b60015f81905550565b5f611fd7611dca565b73ffffffffffffffffffffffffffffffffffffffff16634046ebae6040518163ffffffff1660e01b8152600401602060405180830381865afa15801561201f573d5f5f3e3d5ffd5b505050506040513d601f19601f82011682018060405250810190612043919061318e565b905090565b60015f9054906101000a900473ffffffffffffffffffffffffffffffffffffffff1673ffffffffffffffffffffffffffffffffffffffff1663a6afed956040518163ffffffff1660e01b81526004015f604051808303815f87803b1580156120ae575f5ffd5b505af11580156120c0573d5f5f3e3d5ffd5b50505050565b5f5f5f60015f9054906101000a900473ffffffffffffffffffffffffffffffffffffffff1673ffffffffffffffffffffffffffffffffffffffff166335fce80e86866040518363ffffffff1660e01b8152600401612125929190613944565b6060604051808303815f875af1158015612141573d5f5f3e3d5ffd5b505050506040513d601f19601f82011682018060405250810190612165919061396b565b9250925092509250925092565b6060600360405160200161218691906139fc565b604051602081830303815290604052905090565b606083600361ffff166121b65f8361295c90919063ffffffff16565b61ffff161461220e576121d25f8261295c90919063ffffffff16565b6040517f3a51740d0000000000000000000000000000000000000000000000000000000081526004016122059190613a25565b60405180910390fd5b5f61221985856129c1565b905061222786600183612a2c565b925050509392505050565b5f61223b611dca565b73ffffffffffffffffffffffffffffffffffffffff16638ce744266040518163ffffffff1660e01b8152600401602060405180830381865afa158015612283573d5f5f3e3d5ffd5b505050506040513d601f19601f820116820180604052508101906122a7919061318e565b905090565b5f73ffffffffffffffffffffffffffffffffffffffff166122cc826123eb565b73ffffffffffffffffffffffffffffffffffffffff16036122f1576122f081612ae7565b5b50565b6122fc611dca565b73ffffffffffffffffffffffffffffffffffffffff16639a307391336040518263ffffffff1660e01b8152600401612334919061312d565b602060405180830381865afa15801561234f573d5f5f3e3d5ffd5b505050506040513d601f19601f8201168201806040525081019061237391906132bb565b6123e8578073ffffffffffffffffffffffffffffffffffffffff163373ffffffffffffffffffffffffffffffffffffffff16146123e757336040517f4a0bfec10000000000000000000000000000000000000000000000000000000081526004016123de919061312d565b60405180910390fd5b5b50565b5f60015f9054906101000a900473ffffffffffffffffffffffffffffffffffffffff1673ffffffffffffffffffffffffffffffffffffffff1663f79c3800836040518263ffffffff1660e01b8152600401612446919061312d565b602060405180830381865afa158015612461573d5f5f3e3d5ffd5b505050506040513d601f19601f82011682018060405250810190612485919061318e565b9050919050565b5f60015f9054906101000a900473ffffffffffffffffffffffffffffffffffffffff1673ffffffffffffffffffffffffffffffffffffffff16634fd422df836040518263ffffffff1660e01b81526004016124e7919061312d565b602060405180830381865afa158015612502573d5f5f3e3d5ffd5b505050506040513d601f19601f8201168201806040525081019061252691906137f2565b9050919050565b5f60015f9054906101000a900473ffffffffffffffffffffffffffffffffffffffff1673ffffffffffffffffffffffffffffffffffffffff16636fb49d736040518163ffffffff1660e01b8152600401602060405180830381865afa158015612598573d5f5f3e3d5ffd5b505050506040513d601f19601f820116820180604052508101906125bc91906137f2565b905090565b5f60015f9054906101000a900473ffffffffffffffffffffffffffffffffffffffff1673ffffffffffffffffffffffffffffffffffffffff16631aad44c26040518163ffffffff1660e01b8152600401602060405180830381865afa15801561262c573d5f5f3e3d5ffd5b505050506040513d601f19601f8201168201806040525081019061265091906137f2565b905090565b5f60015f9054906101000a900473ffffffffffffffffffffffffffffffffffffffff1673ffffffffffffffffffffffffffffffffffffffff1663136cf1f76040518163ffffffff1660e01b8152600401602060405180830381865afa1580156126c0573d5f5f3e3d5ffd5b505050506040513d601f19601f820116820180604052508101906126e491906137f2565b905090565b612765848573ffffffffffffffffffffffffffffffffffffffff166323b872dd86868660405160240161271e93929190613a3e565b604051602081830303815290604052915060e01b6020820180517bffffffffffffffffffffffffffffffffffffffffffffffffffffffff83818316178352505050506128c1565b50505050565b5f60015f9054906101000a900473ffffffffffffffffffffffffffffffffffffffff1673ffffffffffffffffffffffffffffffffffffffff166311d9dbd384846040518363ffffffff1660e01b81526004016127c8929190613944565b6020604051808303815f875af11580156127e4573d5f5f3e3d5ffd5b505050506040513d601f19601f8201168201806040525081019061280891906137f2565b905092915050565b5f5f5f5f60015f9054906101000a900473ffffffffffffffffffffffffffffffffffffffff1673ffffffffffffffffffffffffffffffffffffffff16639d058e6787876040518363ffffffff1660e01b8152600401612870929190613944565b6080604051808303815f875af115801561288c573d5f5f3e3d5ffd5b505050506040513d601f19601f820116820180604052508101906128b09190613a73565b935093509350935092959194509250565b5f5f60205f8451602086015f885af1806128e0576040513d5f823e3d81fd5b3d92505f519150505f82146128f9576001811415612914565b5f8473ffffffffffffffffffffffffffffffffffffffff163b145b1561295657836040517f5274afe700000000000000000000000000000000000000000000000000000000815260040161294d919061312d565b60405180910390fd5b50505050565b5f60028261296a9190613b04565b835110156129ad576040517f08c379a00000000000000000000000000000000000000000000000000000000081526004016129a490613b81565b60405180910390fd5b5f8260028501015190508091505092915050565b60605f826fffffffffffffffffffffffffffffffff1614612a035782826040516020016129ef929190613bd3565b604051602081830303815290604052612a24565b82604051602001612a149190613bfe565b6040516020818303038152906040525b905092915050565b606083600361ffff16612a485f8361295c90919063ffffffff16565b61ffff1614612aa057612a645f8261295c90919063ffffffff16565b6040517f3a51740d000000000000000000000000000000000000000000000000000000008152600401612a979190613a25565b60405180910390fd5b84600180612aae8651612c33565b612ab89190613c18565b8686604051602001612ace959493929190613cb1565b6040516020818303038152906040529150509392505050565b5f73ffffffffffffffffffffffffffffffffffffffff16612b07826123eb565b73ffffffffffffffffffffffffffffffffffffffff1614612b54576040517f0f04799c00000000000000000000000000000000000000000000000000000000815260040160405180910390fd5b60015f9054906101000a900473ffffffffffffffffffffffffffffffffffffffff1673ffffffffffffffffffffffffffffffffffffffff1663f7e0ebf6826040518263ffffffff1660e01b8152600401612bae919061312d565b6020604051808303815f875af1158015612bca573d5f5f3e3d5ffd5b505050506040513d601f19601f82011682018060405250810190612bee919061318e565b507fcc3763c1c0784da97ef19dc776e12897dc1cfba3c2cab71b208490e993ba569481612c1a836123eb565b604051612c28929190613d07565b60405180910390a150565b5f61ffff8016821115612c80576010826040517f6dfcc650000000000000000000000000000000000000000000000000000000008152600401612c77929190613d67565b60405180910390fd5b819050919050565b5f82825260208201905092915050565b7f556e6578706563746564206e617469766520746f6b656e0000000000000000005f82015250565b5f612ccc601783612c88565b9150612cd782612c98565b602082019050919050565b5f6020820190508181035f830152612cf981612cc0565b9050919050565b7f46616c6c6261636b206e6f7420616c6c6f7765640000000000000000000000005f82015250565b5f612d34601483612c88565b9150612d3f82612d00565b602082019050919050565b5f6020820190508181035f830152612d6181612d28565b9050919050565b5f604051905090565b5f5ffd5b5f819050919050565b612d8781612d75565b8114612d91575f5ffd5b50565b5f81359050612da281612d7e565b92915050565b5f60208284031215612dbd57612dbc612d71565b5b5f612dca84828501612d94565b91505092915050565b5f73ffffffffffffffffffffffffffffffffffffffff82169050919050565b5f612dfc82612dd3565b9050919050565b612e0c81612df2565b8114612e16575f5ffd5b50565b5f81359050612e2781612e03565b92915050565b5f5f5f60608486031215612e4457612e43612d71565b5b5f612e5186828701612e19565b9350506020612e6286828701612d94565b9250506040612e7386828701612d94565b9150509250925092565b5f63ffffffff82169050919050565b612e9581612e7d565b8114612e9f575f5ffd5b50565b5f81359050612eb081612e8c565b92915050565b5f6fffffffffffffffffffffffffffffffff82169050919050565b612eda81612eb6565b8114612ee4575f5ffd5b50565b5f81359050612ef581612ed1565b92915050565b5f5f5f5f60808587031215612f1357612f12612d71565b5b5f612f2087828801612d94565b9450506020612f3187828801612d94565b9350506040612f4287828801612ea2565b9250506060612f5387828801612ee7565b91505092959194509250565b5f5f60408385031215612f7557612f74612d71565b5b5f612f8285828601612e19565b9250506020612f9385828601612d94565b9150509250929050565b612fa681612d75565b82525050565b5f602082019050612fbf5f830184612f9d565b92915050565b5f5f60408385031215612fdb57612fda612d71565b5b5f612fe885828601612d94565b9250506020612ff985828601612e19565b9150509250929050565b5f6020828403121561301857613017612d71565b5b5f61302584828501612e19565b91505092915050565b5f8115159050919050565b6130428161302e565b82525050565b5f60608201905061305b5f830186613039565b6130686020830185612f9d565b6130756040830184612f9d565b949350505050565b6130868161302e565b8114613090575f5ffd5b50565b5f813590506130a18161307d565b92915050565b5f5f5f5f5f60a086880312156130c0576130bf612d71565b5b5f6130cd88828901612d94565b95505060206130de88828901612e19565b94505060406130ef88828901613093565b935050606061310088828901612e19565b925050608061311188828901612d94565b9150509295509295909350565b61312781612df2565b82525050565b5f6020820190506131405f83018461311e565b92915050565b5f60ff82169050919050565b61315b81613146565b82525050565b5f6020820190506131745f830184613152565b92915050565b5f8151905061318881612e03565b92915050565b5f602082840312156131a3576131a2612d71565b5b5f6131b08482850161317a565b91505092915050565b5f81905092915050565b50565b5f6131d15f836131b9565b91506131dc826131c3565b5f82019050919050565b5f6131f0826131c6565b9150819050919050565b5f60608201905061320d5f83018661311e565b61321a6020830185612f9d565b6132276040830184612f9d565b949350505050565b5f60a0820190506132425f83018861311e565b61324f602083018761311e565b61325c604083018661311e565b6132696060830185612f9d565b6132766080830184612f9d565b9695505050505050565b5f6040820190506132935f83018561311e565b6132a06020830184612f9d565b9392505050565b5f815190506132b58161307d565b92915050565b5f602082840312156132d0576132cf612d71565b5b5f6132dd848285016132a7565b91505092915050565b6132ef81612e7d565b82525050565b5f819050919050565b613307816132f5565b82525050565b61331681612d75565b82525050565b5f81519050919050565b5f82825260208201905092915050565b8281835e5f83830152505050565b5f601f19601f8301169050919050565b5f61335e8261331c565b6133688185613326565b9350613378818560208601613336565b61338181613344565b840191505092915050565b5f60e083015f8301516133a15f8601826132e6565b5060208301516133b460208601826132fe565b5060408301516133c7604086018261330d565b5060608301516133da606086018261330d565b50608083015184820360808601526133f28282613354565b91505060a083015184820360a086015261340c8282613354565b91505060c083015184820360c08601526134268282613354565b9150508091505092915050565b5f6040820190508181035f83015261344b818561338c565b905061345a6020830184613039565b9392505050565b5f5ffd5b7f4e487b71000000000000000000000000000000000000000000000000000000005f52604160045260245ffd5b61349b82613344565b810181811067ffffffffffffffff821117156134ba576134b9613465565b5b80604052505050565b5f6134cc612d68565b90506134d88282613492565b919050565b5f815190506134eb81612d7e565b92915050565b5f6040828403121561350657613505613461565b5b61351060406134c3565b90505f61351f848285016134dd565b5f830152506020613532848285016134dd565b60208301525092915050565b5f6040828403121561355357613552612d71565b5b5f613560848285016134f1565b91505092915050565b604082015f82015161357d5f85018261330d565b506020820151613590602085018261330d565b50505050565b5f6080820190508181035f8301526135ae818661338c565b90506135bd6020830185613569565b6135ca606083018461311e565b949350505050565b6135db816132f5565b81146135e5575f5ffd5b50565b5f815190506135f6816135d2565b92915050565b5f67ffffffffffffffff82169050919050565b613618816135fc565b8114613622575f5ffd5b50565b5f815190506136338161360f565b92915050565b5f6080828403121561364e5761364d613461565b5b61365860606134c3565b90505f613667848285016135e8565b5f83015250602061367a84828501613625565b602083015250604061368e848285016134f1565b60408301525092915050565b5f604082840312156136af576136ae613461565b5b6136b960406134c3565b90505f6136c8848285016134dd565b5f8301525060206136db848285016134dd565b60208301525092915050565b5f5f60c083850312156136fd576136fc612d71565b5b5f61370a85828601613639565b925050608061371b8582860161369a565b9150509250929050565b5f819050919050565b5f61374861374361373e84612eb6565b613725565b612d75565b9050919050565b6137588161372e565b82525050565b5f60a0820190506137715f83018861311e565b61377e6020830187612f9d565b61378b6040830186612f9d565b6137986060830185612f9d565b6137a5608083018461374f565b9695505050505050565b5f6080820190506137c25f83018761311e565b6137cf602083018661311e565b6137dc604083018561311e565b6137e96060830184612f9d565b95945050505050565b5f6020828403121561380757613806612d71565b5b5f613814848285016134dd565b91505092915050565b5f6060820190506138305f830186612f9d565b61383d602083018561311e565b61384a6040830184613039565b949350505050565b5f60e0820190506138655f83018a61311e565b613872602083018961311e565b61387f604083018861311e565b61388c6060830187612f9d565b6138996080830186612f9d565b6138a660a0830185612f9d565b6138b360c0830184612f9d565b98975050505050505050565b5f5f5f606084860312156138d6576138d5612d71565b5b5f6138e3868287016132a7565b93505060206138f4868287016134dd565b9250506040613905868287016134dd565b9150509250925092565b5f6060820190506139225f830186612f9d565b61392f602083018561311e565b61393c6040830184612f9d565b949350505050565b5f6040820190506139575f830185612f9d565b613964602083018461311e565b9392505050565b5f5f5f6060848603121561398257613981612d71565b5b5f61398f868287016134dd565b93505060206139a0868287016134dd565b92505060406139b1868287016134dd565b9150509250925092565b5f61ffff82169050919050565b5f8160f01b9050919050565b5f6139de826139c8565b9050919050565b6139f66139f1826139bb565b6139d4565b82525050565b5f613a0782846139e5565b60028201915081905092915050565b613a1f816139bb565b82525050565b5f602082019050613a385f830184613a16565b92915050565b5f606082019050613a515f83018661311e565b613a5e602083018561311e565b613a6b6040830184612f9d565b949350505050565b5f5f5f5f60808587031215613a8b57613a8a612d71565b5b5f613a98878288016134dd565b9450506020613aa9878288016134dd565b9350506040613aba878288016134dd565b9250506060613acb878288016134dd565b91505092959194509250565b7f4e487b71000000000000000000000000000000000000000000000000000000005f52601160045260245ffd5b5f613b0e82612d75565b9150613b1983612d75565b9250828201905080821115613b3157613b30613ad7565b5b92915050565b7f746f55696e7431365f6f75744f66426f756e64730000000000000000000000005f82015250565b5f613b6b601483612c88565b9150613b7682613b37565b602082019050919050565b5f6020820190508181035f830152613b9881613b5f565b9050919050565b5f8160801b9050919050565b5f613bb582613b9f565b9050919050565b613bcd613bc882612eb6565b613bab565b82525050565b5f613bde8285613bbc565b601082019150613bee8284613bbc565b6010820191508190509392505050565b5f613c098284613bbc565b60108201915081905092915050565b5f613c22826139bb565b9150613c2d836139bb565b9250828201905061ffff811115613c4757613c46613ad7565b5b92915050565b5f613c578261331c565b613c6181856131b9565b9350613c71818560208601613336565b80840191505092915050565b5f8160f81b9050919050565b5f613c9382613c7d565b9050919050565b613cab613ca682613146565b613c89565b82525050565b5f613cbc8288613c4d565b9150613cc88287613c9a565b600182019150613cd882866139e5565b600282019150613ce88285613c9a565b600182019150613cf88284613c4d565b91508190509695505050505050565b5f604082019050613d1a5f83018561311e565b613d27602083018461311e565b9392505050565b5f819050919050565b5f613d51613d4c613d4784613d2e565b613725565b613146565b9050919050565b613d6181613d37565b82525050565b5f604082019050613d7a5f830185613d58565b613d876020830184612f9d565b939250505056fea26469706673582212205f9ad4c5a2095c1e795c436f6484220b2565b5c3a6ef08853cac4bdfdcc07dcb64736f6c634300081e0033","linkReferences":{}},"methodIdentifiers":{"VERSION()":"ffa1ad74","borrowDebt(uint256,uint256,uint32,uint128)":"2392478c","checkLiquidation(address)":"a274f4ac","liquidateByDEX(address,uint256)":"3f7a1a7e","liquidateByMEV(address,uint256,uint256)":"141b0c4c","repayWithSelectedToken(uint256,address,bool,address,uint256)":"b8939dd0","router()":"f887ea40","supplyCollateral(uint256,address)":"62c5f6c7","supplyLiquidity(address,uint256)":"b39e3771","withdrawCollateral(uint256)":"6112fe2e","withdrawLiquidity(uint256)":"0a861f2a"},"id":105}