{"abi":[{"type":"constructor","inputs":[{"name":"_lendingPool","type":"address","internalType":"address"},{"name":"_factory","type":"address","internalType":"address"},{"name":"_collateralToken","type":"address","internalType":"address"},{"name":"_borrowToken","type":"address","internalType":"address"},{"name":"_ltv","type":"uint256","internalType":"uint256"}],"stateMutability":"nonpayable"},{"type":"function","name":"accrueInterest","inputs":[],"outputs":[],"stateMutability":"nonpayable"},{"type":"function","name":"addressPositions","inputs":[{"name":"","type":"address","internalType":"address"}],"outputs":[{"name":"","type":"address","internalType":"address"}],"stateMutability":"view"},{"type":"function","name":"borrowDebt","inputs":[{"name":"_amount","type":"uint256","internalType":"uint256"},{"name":"_user","type":"address","internalType":"address"}],"outputs":[{"name":"protocolFee","type":"uint256","internalType":"uint256"},{"name":"userAmount","type":"uint256","internalType":"uint256"},{"name":"shares","type":"uint256","internalType":"uint256"}],"stateMutability":"nonpayable"},{"type":"function","name":"borrowToken","inputs":[],"outputs":[{"name":"","type":"address","internalType":"address"}],"stateMutability":"view"},{"type":"function","name":"calculateBorrowRate","inputs":[],"outputs":[{"name":"borrowRate","type":"uint256","internalType":"uint256"}],"stateMutability":"view"},{"type":"function","name":"calculateSupplyRate","inputs":[],"outputs":[{"name":"supplyRate","type":"uint256","internalType":"uint256"}],"stateMutability":"view"},{"type":"function","name":"collateralToken","inputs":[],"outputs":[{"name":"","type":"address","internalType":"address"}],"stateMutability":"view"},{"type":"function","name":"createPosition","inputs":[{"name":"_user","type":"address","internalType":"address"}],"outputs":[{"name":"","type":"address","internalType":"address"}],"stateMutability":"nonpayable"},{"type":"function","name":"factory","inputs":[],"outputs":[{"name":"","type":"address","internalType":"address"}],"stateMutability":"view"},{"type":"function","name":"getUtilizationRate","inputs":[],"outputs":[{"name":"utilizationRate","type":"uint256","internalType":"uint256"}],"stateMutability":"view"},{"type":"function","name":"lastAccrued","inputs":[],"outputs":[{"name":"","type":"uint256","internalType":"uint256"}],"stateMutability":"view"},{"type":"function","name":"lendingPool","inputs":[],"outputs":[{"name":"","type":"address","internalType":"address"}],"stateMutability":"view"},{"type":"function","name":"liquidation","inputs":[{"name":"_borrower","type":"address","internalType":"address"}],"outputs":[{"name":"userBorrowAssets","type":"uint256","internalType":"uint256"},{"name":"borrowerCollateral","type":"uint256","internalType":"uint256"},{"name":"liquidationAllocation","type":"uint256","internalType":"uint256"},{"name":"collateralToLiquidator","type":"uint256","internalType":"uint256"},{"name":"userPosition","type":"address","internalType":"address"}],"stateMutability":"nonpayable"},{"type":"function","name":"ltv","inputs":[],"outputs":[{"name":"","type":"uint256","internalType":"uint256"}],"stateMutability":"view"},{"type":"function","name":"repayWithSelectedToken","inputs":[{"name":"_shares","type":"uint256","internalType":"uint256"},{"name":"_user","type":"address","internalType":"address"}],"outputs":[{"name":"","type":"uint256","internalType":"uint256"},{"name":"","type":"uint256","internalType":"uint256"},{"name":"","type":"uint256","internalType":"uint256"},{"name":"","type":"uint256","internalType":"uint256"}],"stateMutability":"nonpayable"},{"type":"function","name":"setLendingPool","inputs":[{"name":"_lendingPool","type":"address","internalType":"address"}],"outputs":[],"stateMutability":"nonpayable"},{"type":"function","name":"supplyLiquidity","inputs":[{"name":"_amount","type":"uint256","internalType":"uint256"},{"name":"_user","type":"address","internalType":"address"}],"outputs":[{"name":"shares","type":"uint256","internalType":"uint256"}],"stateMutability":"nonpayable"},{"type":"function","name":"totalBorrowAssets","inputs":[],"outputs":[{"name":"","type":"uint256","internalType":"uint256"}],"stateMutability":"view"},{"type":"function","name":"totalBorrowShares","inputs":[],"outputs":[{"name":"","type":"uint256","internalType":"uint256"}],"stateMutability":"view"},{"type":"function","name":"totalSupplyAssets","inputs":[],"outputs":[{"name":"","type":"uint256","internalType":"uint256"}],"stateMutability":"view"},{"type":"function","name":"totalSupplyShares","inputs":[],"outputs":[{"name":"","type":"uint256","internalType":"uint256"}],"stateMutability":"view"},{"type":"function","name":"userBorrowShares","inputs":[{"name":"","type":"address","internalType":"address"}],"outputs":[{"name":"","type":"uint256","internalType":"uint256"}],"stateMutability":"view"},{"type":"function","name":"userSupplyShares","inputs":[{"name":"","type":"address","internalType":"address"}],"outputs":[{"name":"","type":"uint256","internalType":"uint256"}],"stateMutability":"view"},{"type":"function","name":"withdrawLiquidity","inputs":[{"name":"_shares","type":"uint256","internalType":"uint256"},{"name":"_user","type":"address","internalType":"address"}],"outputs":[{"name":"amount","type":"uint256","internalType":"uint256"}],"stateMutability":"nonpayable"},{"type":"error","name":"AssetNotLiquidatable","inputs":[{"name":"collateralToken","type":"address","internalType":"address"},{"name":"collateralValue","type":"uint256","internalType":"uint256"},{"name":"borrowValue","type":"uint256","internalType":"uint256"}]},{"type":"error","name":"InsufficientCollateral","inputs":[{"name":"amount","type":"uint256","internalType":"uint256"},{"name":"expectedAmount","type":"uint256","internalType":"uint256"}]},{"type":"error","name":"InsufficientLiquidity","inputs":[]},{"type":"error","name":"InsufficientShares","inputs":[]},{"type":"error","name":"MaxUtilizationReached","inputs":[{"name":"borrowToken","type":"address","internalType":"address"},{"name":"newUtilization","type":"uint256","internalType":"uint256"},{"name":"maxUtilization","type":"uint256","internalType":"uint256"}]},{"type":"error","name":"NotFactory","inputs":[]},{"type":"error","name":"NotLendingPool","inputs":[]},{"type":"error","name":"NotLiquidable","inputs":[{"name":"user","type":"address","internalType":"address"}]},{"type":"error","name":"PositionAlreadyCreated","inputs":[]},{"type":"error","name":"TotalBorrowSharesZero","inputs":[{"name":"shares","type":"uint256","internalType":"uint256"},{"name":"totalBorrowShares","type":"uint256","internalType":"uint256"}]},{"type":"error","name":"TotalSupplySharesZero","inputs":[{"name":"shares","type":"uint256","internalType":"uint256"},{"name":"totalSupplyShares","type":"uint256","internalType":"uint256"}]},{"type":"error","name":"ZeroAmount","inputs":[]}],"bytecode":{"object":"0x608060405234801561000f575f5ffd5b506040516120f83803806120f8833981810160405281019061003191906101da565b8460085f6101000a81548173ffffffffffffffffffffffffffffffffffffffff021916908373ffffffffffffffffffffffffffffffffffffffff1602179055508360095f6101000a81548173ffffffffffffffffffffffffffffffffffffffff021916908373ffffffffffffffffffffffffffffffffffffffff16021790555082600a5f6101000a81548173ffffffffffffffffffffffffffffffffffffffff021916908373ffffffffffffffffffffffffffffffffffffffff16021790555081600b5f6101000a81548173ffffffffffffffffffffffffffffffffffffffff021916908373ffffffffffffffffffffffffffffffffffffffff16021790555080600c81905550426007819055505050505050610251565b5f5ffd5b5f73ffffffffffffffffffffffffffffffffffffffff82169050919050565b5f6101768261014d565b9050919050565b6101868161016c565b8114610190575f5ffd5b50565b5f815190506101a18161017d565b92915050565b5f819050919050565b6101b9816101a7565b81146101c3575f5ffd5b50565b5f815190506101d4816101b0565b92915050565b5f5f5f5f5f60a086880312156101f3576101f2610149565b5b5f61020088828901610193565b955050602061021188828901610193565b945050604061022288828901610193565b935050606061023388828901610193565b9250506080610244888289016101c6565b9150509295509295909350565b611e9a8061025e5f395ff3fe608060405234801561000f575f5ffd5b5060043610610156575f3560e01c80636fb49d73116100c1578063b83e62bf1161007a578063b83e62bf146103d1578063ba7bde5514610405578063c45a015514610423578063f79c380014610441578063f7e0ebf614610471578063f9ec9f28146104a157610156565b80636fb49d731461031c57806394877fc41461033a5780639d058e6714610358578063a59a99731461038b578063a6afed95146103a9578063b2016bd4146103b357610156565b80634499ab62116101135780634499ab6214610244578063456dc17a146102625780634a417a53146102805780634fd422df1461029e578063651e3296146102ce57806368fc0c9a146102ec57610156565b8063113aa8b11461015a57806311d9dbd314610176578063136cf1f7146101a65780631aad44c2146101c457806323aaf0bd146101e257806335fce80e14610212575b5f5ffd5b610174600480360381019061016f91906119bd565b6104bf565b005b610190600480360381019061018b9190611a1b565b61050a565b60405161019d9190611a68565b60405180910390f35b6101ae610604565b6040516101bb9190611a68565b60405180910390f35b6101cc61060a565b6040516101d99190611a68565b60405180910390f35b6101fc60048036038101906101f791906119bd565b610610565b6040516102099190611a68565b60405180910390f35b61022c60048036038101906102279190611a1b565b610625565b60405161023b93929190611a81565b60405180910390f35b61024c610835565b6040516102599190611a68565b60405180910390f35b61026a6108b2565b6040516102779190611ac5565b60405180910390f35b6102886108d7565b6040516102959190611a68565b60405180910390f35b6102b860048036038101906102b391906119bd565b61090a565b6040516102c59190611a68565b60405180910390f35b6102d661091f565b6040516102e39190611a68565b60405180910390f35b61030660048036038101906103019190611a1b565b6109fe565b6040516103139190611a68565b60405180910390f35b610324610be2565b6040516103319190611a68565b60405180910390f35b610342610be8565b60405161034f9190611a68565b60405180910390f35b610372600480360381019061036d9190611a1b565b610bed565b6040516103829493929190611ade565b60405180910390f35b610393610deb565b6040516103a09190611ac5565b60405180910390f35b6103b1610e10565b005b6103bb610efc565b6040516103c89190611ac5565b60405180910390f35b6103eb60048036038101906103e691906119bd565b610f21565b6040516103fc959493929190611b21565b60405180910390f35b61040d6112c5565b60405161041a9190611a68565b60405180910390f35b61042b6112cb565b6040516104389190611ac5565b60405180910390f35b61045b600480360381019061045691906119bd565b6112f0565b6040516104689190611ac5565b60405180910390f35b61048b600480360381019061048691906119bd565b611320565b6040516104989190611ac5565b60405180910390f35b6104a9611514565b6040516104b69190611a68565b60405180910390f35b6104c761151a565b8060085f6101000a81548173ffffffffffffffffffffffffffffffffffffffff021916908373ffffffffffffffffffffffffffffffffffffffff16021790555050565b5f6105136115a2565b5f830361054c576040517f1f2a200500000000000000000000000000000000000000000000000000000000815260040160405180910390fd5b5f90505f5f540361055f5782905061057c565b5f546001548461056f9190611b9f565b6105799190611c0d565b90505b8060045f8473ffffffffffffffffffffffffffffffffffffffff1673ffffffffffffffffffffffffffffffffffffffff1681526020019081526020015f205f8282546105c89190611c3d565b925050819055508060015f8282546105e09190611c3d565b92505081905550825f5f8282546105f79190611c3d565b9250508190555092915050565b60035481565b60025481565b6004602052805f5260405f205f915090505481565b5f5f5f6106306115a2565b5f8503610669576040517f1f2a200500000000000000000000000000000000000000000000000000000000815260040160405180910390fd5b5f90505f6003540361067d5784905061069b565b6002546003548661068e9190611b9f565b6106989190611c0d565b90505b8060055f8673ffffffffffffffffffffffffffffffffffffffff1673ffffffffffffffffffffffffffffffffffffffff1681526020019081526020015f205f8282546106e79190611c3d565b925050819055508060035f8282546106ff9190611c3d565b925050819055508460025f8282546107179190611c3d565b925050819055505f5f54670de0b6b3a76400006002546107379190611b9f565b6107419190611c0d565b905061074b61162a565b81106107ba57600b5f9054906101000a900473ffffffffffffffffffffffffffffffffffffffff168161077c61162a565b6040517fb07891740000000000000000000000000000000000000000000000000000000081526004016107b193929190611c70565b60405180910390fd5b670de0b6b3a764000066038d7ea4c68000876107d69190611b9f565b6107e09190611c0d565b935083866107ee9190611ca5565b92505f54600254111561082d576040517fbb55fd2700000000000000000000000000000000000000000000000000000000815260040160405180910390fd5b509250925092565b5f5f5f5403610846575f90506108af565b5f61084f61091f565b90505f5f546127106002546108649190611b9f565b61086e9190611c0d565b90505f6103e890506305f5e100816127106108899190611ca5565b83856108959190611b9f565b61089f9190611b9f565b6108a99190611c0d565b93505050505b90565b600b5f9054906101000a900473ffffffffffffffffffffffffffffffffffffffff1681565b5f5f5f54036108e8575f9050610907565b5f546127106002546108fa9190611b9f565b6109049190611c0d565b90505b90565b6005602052805f5260405f205f915090505481565b5f5f5f5403610932576101f490506109fb565b5f5f546127106002546109459190611b9f565b61094f9190611c0d565b90505f60c890505f611f4090505f6103e890505f61138890508285116109a35782848361097c9190611ca5565b866109879190611b9f565b6109919190611c0d565b8461099c9190611c3d565b95506109f5565b5f83866109b09190611ca5565b90505f846127106109c19190611ca5565b90508084846109d09190611ca5565b836109db9190611b9f565b6109e59190611c0d565b846109f09190611c3d565b975050505b50505050505b90565b5f610a076115a2565b5f8303610a40576040517f1f2a200500000000000000000000000000000000000000000000000000000000815260040160405180910390fd5b60045f8373ffffffffffffffffffffffffffffffffffffffff1673ffffffffffffffffffffffffffffffffffffffff1681526020019081526020015f2054831115610ab7576040517f3999656700000000000000000000000000000000000000000000000000000000815260040160405180910390fd5b5f60015403610b0157826001546040517fc3ee5600000000000000000000000000000000000000000000000000000000008152600401610af8929190611cd8565b60405180910390fd5b6001545f5484610b119190611b9f565b610b1b9190611c0d565b90508260045f8473ffffffffffffffffffffffffffffffffffffffff1673ffffffffffffffffffffffffffffffffffffffff1681526020019081526020015f205f828254610b699190611ca5565b925050819055508260015f828254610b819190611ca5565b92505081905550805f5f828254610b989190611ca5565b925050819055506002545f541015610bdc576040517fbb55fd2700000000000000000000000000000000000000000000000000000000815260040160405180910390fd5b92915050565b600c5481565b5f5481565b5f5f5f5f610bf96115a2565b5f8603610c32576040517f1f2a200500000000000000000000000000000000000000000000000000000000815260040160405180910390fd5b60055f8673ffffffffffffffffffffffffffffffffffffffff1673ffffffffffffffffffffffffffffffffffffffff1681526020019081526020015f2054861115610ca9576040517f3999656700000000000000000000000000000000000000000000000000000000815260040160405180910390fd5b5f60035403610cf357856003546040517f49d1039c000000000000000000000000000000000000000000000000000000008152600401610cea929190611cd8565b60405180910390fd5b5f60035460025488610d059190611b9f565b610d0f9190611c0d565b90508660055f8873ffffffffffffffffffffffffffffffffffffffff1673ffffffffffffffffffffffffffffffffffffffff1681526020019081526020015f205f828254610d5d9190611ca5565b925050819055508660035f828254610d759190611ca5565b925050819055508060025f828254610d8d9190611ca5565b925050819055508060055f8873ffffffffffffffffffffffffffffffffffffffff1673ffffffffffffffffffffffffffffffffffffffff1681526020019081526020015f205460035460025494509450945094505092959194509250565b60085f9054906101000a900473ffffffffffffffffffffffffffffffffffffffff1681565b5f60075442610e1f9190611ca5565b90505f8103610e2e5750610efa565b426007819055505f60025403610e445750610efa565b5f610e4d6116af565b73ffffffffffffffffffffffffffffffffffffffff1663d7dc620330846040518363ffffffff1660e01b8152600401610e87929190611cff565b602060405180830381865afa158015610ea2573d5f5f3e3d5ffd5b505050506040513d601f19601f82011682018060405250810190610ec69190611d3a565b9050805f5f828254610ed89190611c3d565b925050819055508060025f828254610ef09190611c3d565b9250508190555050505b565b600a5f9054906101000a900473ffffffffffffffffffffffffffffffffffffffff1681565b5f5f5f5f5f610f2e6115a2565b5f60055f8873ffffffffffffffffffffffffffffffffffffffff1673ffffffffffffffffffffffffffffffffffffffff1681526020019081526020015f2054148015610f8157505f610f7f87611743565b145b15610fc357856040517fe73da048000000000000000000000000000000000000000000000000000000008152600401610fba9190611ac5565b60405180910390fd5b5f5f5f5f610fcf611814565b73ffffffffffffffffffffffffffffffffffffffff16633132aa898b306040518363ffffffff1660e01b8152600401611009929190611d65565b608060405180830381865afa158015611024573d5f5f3e3d5ffd5b505050506040513d601f19601f820116820180604052508101906110489190611dc1565b9350935093509350836110b757600a5f9054906101000a900473ffffffffffffffffffffffffffffffffffffffff1682846040517f0585ca9c0000000000000000000000000000000000000000000000000000000081526004016110ae93929190611c70565b60405180910390fd5b6110bf610e10565b6110c88a611743565b975061111060055f8c73ffffffffffffffffffffffffffffffffffffffff1673ffffffffffffffffffffffffffffffffffffffff1681526020019081526020015f20546118a8565b985080965060065f8b73ffffffffffffffffffffffffffffffffffffffff1673ffffffffffffffffffffffffffffffffffffffff1681526020019081526020015f205f9054906101000a900473ffffffffffffffffffffffffffffffffffffffff16945087871115611180575f96505b868861118c9190611ca5565b95508860025f82825461119f9190611ca5565b9250508190555060055f8b73ffffffffffffffffffffffffffffffffffffffff1673ffffffffffffffffffffffffffffffffffffffff1681526020019081526020015f205460035f8282546111f49190611ca5565b925050819055505f60055f8c73ffffffffffffffffffffffffffffffffffffffff1673ffffffffffffffffffffffffffffffffffffffff1681526020019081526020015f20819055505f60065f8c73ffffffffffffffffffffffffffffffffffffffff1673ffffffffffffffffffffffffffffffffffffffff1681526020019081526020015f205f6101000a81548173ffffffffffffffffffffffffffffffffffffffff021916908373ffffffffffffffffffffffffffffffffffffffff1602179055505050505091939590929450565b60015481565b60095f9054906101000a900473ffffffffffffffffffffffffffffffffffffffff1681565b6006602052805f5260405f205f915054906101000a900473ffffffffffffffffffffffffffffffffffffffff1681565b5f6113296115a2565b5f73ffffffffffffffffffffffffffffffffffffffff1660065f8473ffffffffffffffffffffffffffffffffffffffff1673ffffffffffffffffffffffffffffffffffffffff1681526020019081526020015f205f9054906101000a900473ffffffffffffffffffffffffffffffffffffffff1673ffffffffffffffffffffffffffffffffffffffff16146113ea576040517f0f04799c00000000000000000000000000000000000000000000000000000000815260040160405180910390fd5b5f6113f36118cb565b73ffffffffffffffffffffffffffffffffffffffff16632391216b60085f9054906101000a900473ffffffffffffffffffffffffffffffffffffffff16856040518363ffffffff1660e01b815260040161144e929190611d65565b6020604051808303815f875af115801561146a573d5f5f3e3d5ffd5b505050506040513d601f19601f8201168201806040525081019061148e9190611e39565b90508060065f8573ffffffffffffffffffffffffffffffffffffffff1673ffffffffffffffffffffffffffffffffffffffff1681526020019081526020015f205f6101000a81548173ffffffffffffffffffffffffffffffffffffffff021916908373ffffffffffffffffffffffffffffffffffffffff16021790555080915050919050565b60075481565b60095f9054906101000a900473ffffffffffffffffffffffffffffffffffffffff1673ffffffffffffffffffffffffffffffffffffffff163373ffffffffffffffffffffffffffffffffffffffff16146115a0576040517f32cc723600000000000000000000000000000000000000000000000000000000815260040160405180910390fd5b565b60085f9054906101000a900473ffffffffffffffffffffffffffffffffffffffff1673ffffffffffffffffffffffffffffffffffffffff163373ffffffffffffffffffffffffffffffffffffffff1614611628576040517fdeefa58900000000000000000000000000000000000000000000000000000000815260040160405180910390fd5b565b5f6116336116af565b73ffffffffffffffffffffffffffffffffffffffff166377460ddb306040518263ffffffff1660e01b815260040161166b9190611ac5565b602060405180830381865afa158015611686573d5f5f3e3d5ffd5b505050506040513d601f19601f820116820180604052508101906116aa9190611d3a565b905090565b5f60095f9054906101000a900473ffffffffffffffffffffffffffffffffffffffff1673ffffffffffffffffffffffffffffffffffffffff1663f3fdb15a6040518163ffffffff1660e01b8152600401602060405180830381865afa15801561171a573d5f5f3e3d5ffd5b505050506040513d601f19601f8201168201806040525081019061173e9190611e39565b905090565b5f60065f8373ffffffffffffffffffffffffffffffffffffffff1673ffffffffffffffffffffffffffffffffffffffff1681526020019081526020015f205f9054906101000a900473ffffffffffffffffffffffffffffffffffffffff1673ffffffffffffffffffffffffffffffffffffffff16634ac8eb5f6040518163ffffffff1660e01b8152600401602060405180830381865afa1580156117e9573d5f5f3e3d5ffd5b505050506040513d601f19601f8201168201806040525081019061180d9190611d3a565b9050919050565b5f60095f9054906101000a900473ffffffffffffffffffffffffffffffffffffffff1673ffffffffffffffffffffffffffffffffffffffff1663e40208046040518163ffffffff1660e01b8152600401602060405180830381865afa15801561187f573d5f5f3e3d5ffd5b505050506040513d601f19601f820116820180604052508101906118a39190611e39565b905090565b5f600354600254836118ba9190611b9f565b6118c49190611c0d565b9050919050565b5f60095f9054906101000a900473ffffffffffffffffffffffffffffffffffffffff1673ffffffffffffffffffffffffffffffffffffffff1663bd3b54716040518163ffffffff1660e01b8152600401602060405180830381865afa158015611936573d5f5f3e3d5ffd5b505050506040513d601f19601f8201168201806040525081019061195a9190611e39565b905090565b5f5ffd5b5f73ffffffffffffffffffffffffffffffffffffffff82169050919050565b5f61198c82611963565b9050919050565b61199c81611982565b81146119a6575f5ffd5b50565b5f813590506119b781611993565b92915050565b5f602082840312156119d2576119d161195f565b5b5f6119df848285016119a9565b91505092915050565b5f819050919050565b6119fa816119e8565b8114611a04575f5ffd5b50565b5f81359050611a15816119f1565b92915050565b5f5f60408385031215611a3157611a3061195f565b5b5f611a3e85828601611a07565b9250506020611a4f858286016119a9565b9150509250929050565b611a62816119e8565b82525050565b5f602082019050611a7b5f830184611a59565b92915050565b5f606082019050611a945f830186611a59565b611aa16020830185611a59565b611aae6040830184611a59565b949350505050565b611abf81611982565b82525050565b5f602082019050611ad85f830184611ab6565b92915050565b5f608082019050611af15f830187611a59565b611afe6020830186611a59565b611b0b6040830185611a59565b611b186060830184611a59565b95945050505050565b5f60a082019050611b345f830188611a59565b611b416020830187611a59565b611b4e6040830186611a59565b611b5b6060830185611a59565b611b686080830184611ab6565b9695505050505050565b7f4e487b71000000000000000000000000000000000000000000000000000000005f52601160045260245ffd5b5f611ba9826119e8565b9150611bb4836119e8565b9250828202611bc2816119e8565b91508282048414831517611bd957611bd8611b72565b5b5092915050565b7f4e487b71000000000000000000000000000000000000000000000000000000005f52601260045260245ffd5b5f611c17826119e8565b9150611c22836119e8565b925082611c3257611c31611be0565b5b828204905092915050565b5f611c47826119e8565b9150611c52836119e8565b9250828201905080821115611c6a57611c69611b72565b5b92915050565b5f606082019050611c835f830186611ab6565b611c906020830185611a59565b611c9d6040830184611a59565b949350505050565b5f611caf826119e8565b9150611cba836119e8565b9250828203905081811115611cd257611cd1611b72565b5b92915050565b5f604082019050611ceb5f830185611a59565b611cf86020830184611a59565b9392505050565b5f604082019050611d125f830185611ab6565b611d1f6020830184611a59565b9392505050565b5f81519050611d34816119f1565b92915050565b5f60208284031215611d4f57611d4e61195f565b5b5f611d5c84828501611d26565b91505092915050565b5f604082019050611d785f830185611ab6565b611d856020830184611ab6565b9392505050565b5f8115159050919050565b611da081611d8c565b8114611daa575f5ffd5b50565b5f81519050611dbb81611d97565b92915050565b5f5f5f5f60808587031215611dd957611dd861195f565b5b5f611de687828801611dad565b9450506020611df787828801611d26565b9350506040611e0887828801611d26565b9250506060611e1987828801611d26565b91505092959194509250565b5f81519050611e3381611993565b92915050565b5f60208284031215611e4e57611e4d61195f565b5b5f611e5b84828501611e25565b9150509291505056fea2646970667358221220e53ef6a00dcbf9354f74dd38c22e432f00467e622160ff3cd993cee7397856c964736f6c634300081e0033","linkReferences":{}},"methodIdentifiers":{"accrueInterest()":"a6afed95","addressPositions(address)":"f79c3800","borrowDebt(uint256,address)":"35fce80e","borrowToken()":"456dc17a","calculateBorrowRate()":"651e3296","calculateSupplyRate()":"4499ab62","collateralToken()":"b2016bd4","createPosition(address)":"f7e0ebf6","factory()":"c45a0155","getUtilizationRate()":"4a417a53","lastAccrued()":"f9ec9f28","lendingPool()":"a59a9973","liquidation(address)":"b83e62bf","ltv()":"6fb49d73","repayWithSelectedToken(uint256,address)":"9d058e67","setLendingPool(address)":"113aa8b1","supplyLiquidity(uint256,address)":"11d9dbd3","totalBorrowAssets()":"1aad44c2","totalBorrowShares()":"136cf1f7","totalSupplyAssets()":"94877fc4","totalSupplyShares()":"ba7bde55","userBorrowShares(address)":"4fd422df","userSupplyShares(address)":"23aaf0bd","withdrawLiquidity(uint256,address)":"68fc0c9a"},"id":101}