{"abi":[{"type":"constructor","inputs":[{"name":"_lendingPool","type":"address","internalType":"address"},{"name":"_factory","type":"address","internalType":"address"},{"name":"_collateralToken","type":"address","internalType":"address"},{"name":"_borrowToken","type":"address","internalType":"address"},{"name":"_ltv","type":"uint256","internalType":"uint256"}],"stateMutability":"nonpayable"},{"type":"function","name":"accrueInterest","inputs":[],"outputs":[],"stateMutability":"nonpayable"},{"type":"function","name":"addressPositions","inputs":[{"name":"","type":"address","internalType":"address"}],"outputs":[{"name":"","type":"address","internalType":"address"}],"stateMutability":"view"},{"type":"function","name":"borrowDebt","inputs":[{"name":"_amount","type":"uint256","internalType":"uint256"},{"name":"_user","type":"address","internalType":"address"}],"outputs":[{"name":"protocolFee","type":"uint256","internalType":"uint256"},{"name":"userAmount","type":"uint256","internalType":"uint256"},{"name":"shares","type":"uint256","internalType":"uint256"}],"stateMutability":"nonpayable"},{"type":"function","name":"borrowToken","inputs":[],"outputs":[{"name":"","type":"address","internalType":"address"}],"stateMutability":"view"},{"type":"function","name":"calculateBorrowRate","inputs":[],"outputs":[{"name":"borrowRate","type":"uint256","internalType":"uint256"}],"stateMutability":"view"},{"type":"function","name":"calculateSupplyRate","inputs":[],"outputs":[{"name":"supplyRate","type":"uint256","internalType":"uint256"}],"stateMutability":"view"},{"type":"function","name":"collateralToken","inputs":[],"outputs":[{"name":"","type":"address","internalType":"address"}],"stateMutability":"view"},{"type":"function","name":"createPosition","inputs":[{"name":"_user","type":"address","internalType":"address"}],"outputs":[{"name":"","type":"address","internalType":"address"}],"stateMutability":"nonpayable"},{"type":"function","name":"emergencyResetPosition","inputs":[{"name":"_user","type":"address","internalType":"address"}],"outputs":[],"stateMutability":"nonpayable"},{"type":"function","name":"factory","inputs":[],"outputs":[{"name":"","type":"address","internalType":"address"}],"stateMutability":"view"},{"type":"function","name":"getUtilizationRate","inputs":[],"outputs":[{"name":"utilizationRate","type":"uint256","internalType":"uint256"}],"stateMutability":"view"},{"type":"function","name":"lastAccrued","inputs":[],"outputs":[{"name":"","type":"uint256","internalType":"uint256"}],"stateMutability":"view"},{"type":"function","name":"lendingPool","inputs":[],"outputs":[{"name":"","type":"address","internalType":"address"}],"stateMutability":"view"},{"type":"function","name":"liquidatePosition","inputs":[{"name":"_user","type":"address","internalType":"address"},{"name":"_repayAmount","type":"uint256","internalType":"uint256"}],"outputs":[],"stateMutability":"nonpayable"},{"type":"function","name":"ltv","inputs":[],"outputs":[{"name":"","type":"uint256","internalType":"uint256"}],"stateMutability":"view"},{"type":"function","name":"reduceUserCollateral","inputs":[{"name":"_user","type":"address","internalType":"address"},{"name":"_amount","type":"uint256","internalType":"uint256"}],"outputs":[],"stateMutability":"nonpayable"},{"type":"function","name":"repayWithSelectedToken","inputs":[{"name":"_shares","type":"uint256","internalType":"uint256"},{"name":"_user","type":"address","internalType":"address"}],"outputs":[{"name":"","type":"uint256","internalType":"uint256"},{"name":"","type":"uint256","internalType":"uint256"},{"name":"","type":"uint256","internalType":"uint256"},{"name":"","type":"uint256","internalType":"uint256"}],"stateMutability":"nonpayable"},{"type":"function","name":"setLendingPool","inputs":[{"name":"_lendingPool","type":"address","internalType":"address"}],"outputs":[],"stateMutability":"nonpayable"},{"type":"function","name":"supplyCollateral","inputs":[{"name":"_user","type":"address","internalType":"address"},{"name":"_amount","type":"uint256","internalType":"uint256"}],"outputs":[],"stateMutability":"nonpayable"},{"type":"function","name":"supplyLiquidity","inputs":[{"name":"_amount","type":"uint256","internalType":"uint256"},{"name":"_user","type":"address","internalType":"address"}],"outputs":[{"name":"shares","type":"uint256","internalType":"uint256"}],"stateMutability":"nonpayable"},{"type":"function","name":"totalBorrowAssets","inputs":[],"outputs":[{"name":"","type":"uint256","internalType":"uint256"}],"stateMutability":"view"},{"type":"function","name":"totalBorrowShares","inputs":[],"outputs":[{"name":"","type":"uint256","internalType":"uint256"}],"stateMutability":"view"},{"type":"function","name":"totalSupplyAssets","inputs":[],"outputs":[{"name":"","type":"uint256","internalType":"uint256"}],"stateMutability":"view"},{"type":"function","name":"totalSupplyShares","inputs":[],"outputs":[{"name":"","type":"uint256","internalType":"uint256"}],"stateMutability":"view"},{"type":"function","name":"userBorrowShares","inputs":[{"name":"","type":"address","internalType":"address"}],"outputs":[{"name":"","type":"uint256","internalType":"uint256"}],"stateMutability":"view"},{"type":"function","name":"userCollateral","inputs":[{"name":"","type":"address","internalType":"address"}],"outputs":[{"name":"","type":"uint256","internalType":"uint256"}],"stateMutability":"view"},{"type":"function","name":"userSupplyShares","inputs":[{"name":"","type":"address","internalType":"address"}],"outputs":[{"name":"","type":"uint256","internalType":"uint256"}],"stateMutability":"view"},{"type":"function","name":"withdrawCollateral","inputs":[{"name":"_amount","type":"uint256","internalType":"uint256"},{"name":"_user","type":"address","internalType":"address"}],"outputs":[{"name":"","type":"uint256","internalType":"uint256"}],"stateMutability":"nonpayable"},{"type":"function","name":"withdrawLiquidity","inputs":[{"name":"_shares","type":"uint256","internalType":"uint256"},{"name":"_user","type":"address","internalType":"address"}],"outputs":[{"name":"amount","type":"uint256","internalType":"uint256"}],"stateMutability":"nonpayable"},{"type":"event","name":"EmergencyPositionReset","inputs":[{"name":"user","type":"address","indexed":true,"internalType":"address"}],"anonymous":false},{"type":"event","name":"PositionLiquidated","inputs":[{"name":"user","type":"address","indexed":true,"internalType":"address"},{"name":"sharesRemoved","type":"uint256","indexed":false,"internalType":"uint256"},{"name":"debtRepaid","type":"uint256","indexed":false,"internalType":"uint256"}],"anonymous":false},{"type":"error","name":"InsufficientCollateral","inputs":[]},{"type":"error","name":"InsufficientLiquidity","inputs":[]},{"type":"error","name":"InsufficientShares","inputs":[]},{"type":"error","name":"NotFactory","inputs":[]},{"type":"error","name":"NotLendingPool","inputs":[]},{"type":"error","name":"PositionAlreadyCreated","inputs":[]},{"type":"error","name":"ZeroAmount","inputs":[]}],"bytecode":{"object":"0x608060405234801561000f575f5ffd5b506040516125b03803806125b0833981810160405281019061003191906101da565b8460095f6101000a81548173ffffffffffffffffffffffffffffffffffffffff021916908373ffffffffffffffffffffffffffffffffffffffff16021790555083600a5f6101000a81548173ffffffffffffffffffffffffffffffffffffffff021916908373ffffffffffffffffffffffffffffffffffffffff16021790555082600b5f6101000a81548173ffffffffffffffffffffffffffffffffffffffff021916908373ffffffffffffffffffffffffffffffffffffffff16021790555081600c5f6101000a81548173ffffffffffffffffffffffffffffffffffffffff021916908373ffffffffffffffffffffffffffffffffffffffff16021790555080600d81905550426008819055505050505050610251565b5f5ffd5b5f73ffffffffffffffffffffffffffffffffffffffff82169050919050565b5f6101768261014d565b9050919050565b6101868161016c565b8114610190575f5ffd5b50565b5f815190506101a18161017d565b92915050565b5f819050919050565b6101b9816101a7565b81146101c3575f5ffd5b50565b5f815190506101d4816101b0565b92915050565b5f5f5f5f5f60a086880312156101f3576101f2610149565b5b5f61020088828901610193565b955050602061021188828901610193565b945050604061022288828901610193565b935050606061023388828901610193565b9250506080610244888289016101c6565b9150509295509295909350565b6123528061025e5f395ff3fe608060405234801561000f575f5ffd5b50600436106101cd575f3560e01c806376f8996511610102578063ba7bde55116100a0578063f69f1e4a1161006f578063f69f1e4a14610524578063f79c380014610554578063f7e0ebf614610584578063f9ec9f28146105b4576101cd565b8063ba7bde55146104b0578063c45a0155146104ce578063d2a8607b146104ec578063e2a9f68014610508576101cd565b80639d058e67116100dc5780639d058e6714610437578063a59a99731461046a578063a6afed9514610488578063b2016bd414610492576101cd565b806376f89965146103e157806387105903146103fd57806394877fc414610419576101cd565b80634499ab621161016f5780634fd422df116101495780634fd422df14610345578063651e32961461037557806368fc0c9a146103935780636fb49d73146103c3576101cd565b80634499ab62146102eb578063456dc17a146103095780634a417a5314610327576101cd565b8063136cf1f7116101ab578063136cf1f71461024d5780631aad44c21461026b57806323aaf0bd1461028957806335fce80e146102b9576101cd565b80630af504cc146101d1578063113aa8b11461020157806311d9dbd31461021d575b5f5ffd5b6101eb60048036038101906101e69190611ea2565b6105d2565b6040516101f89190611eef565b60405180910390f35b61021b60048036038101906102169190611f08565b610915565b005b61023760048036038101906102329190611ea2565b610960565b6040516102449190611eef565b60405180910390f35b610255610a5a565b6040516102629190611eef565b60405180910390f35b610273610a60565b6040516102809190611eef565b60405180910390f35b6102a3600480360381019061029e9190611f08565b610a66565b6040516102b09190611eef565b60405180910390f35b6102d360048036038101906102ce9190611ea2565b610a7b565b6040516102e293929190611f33565b60405180910390f35b6102f3610dd2565b6040516103009190611eef565b60405180910390f35b610311610e4f565b60405161031e9190611f77565b60405180910390f35b61032f610e74565b60405161033c9190611eef565b60405180910390f35b61035f600480360381019061035a9190611f08565b610ea7565b60405161036c9190611eef565b60405180910390f35b61037d610ebc565b60405161038a9190611eef565b60405180910390f35b6103ad60048036038101906103a89190611ea2565b610f9b565b6040516103ba9190611eef565b60405180910390f35b6103cb611135565b6040516103d89190611eef565b60405180910390f35b6103fb60048036038101906103f69190611f90565b61113b565b005b61041760048036038101906104129190611f90565b611459565b005b610421611607565b60405161042e9190611eef565b60405180910390f35b610451600480360381019061044c9190611ea2565b61160c565b6040516104619493929190611fce565b60405180910390f35b6104726117c0565b60405161047f9190611f77565b60405180910390f35b6104906117e5565b005b61049a6118ad565b6040516104a79190611f77565b60405180910390f35b6104b86118d2565b6040516104c59190611eef565b60405180910390f35b6104d66118d8565b6040516104e39190611f77565b60405180910390f35b61050660048036038101906105019190611f90565b6118fd565b005b610522600480360381019061051d9190611f08565b61195c565b005b61053e60048036038101906105399190611f08565b611a2e565b60405161054b9190611eef565b60405180910390f35b61056e60048036038101906105699190611f08565b611a43565b60405161057b9190611f77565b60405180910390f35b61059e60048036038101906105999190611f08565b611a73565b6040516105ab9190611f77565b60405180910390f35b6105bc611c67565b6040516105c99190611eef565b60405180910390f35b5f6105db611c6d565b8260065f8473ffffffffffffffffffffffffffffffffffffffff1673ffffffffffffffffffffffffffffffffffffffff1681526020019081526020015f20541015610652576040517f3a23d82500000000000000000000000000000000000000000000000000000000815260040160405180910390fd5b8260065f8473ffffffffffffffffffffffffffffffffffffffff1673ffffffffffffffffffffffffffffffffffffffff1681526020019081526020015f205f82825461069e919061203e565b925050819055505f60055f8473ffffffffffffffffffffffffffffffffffffffff1673ffffffffffffffffffffffffffffffffffffffff1681526020019081526020015f205411156108cf575f600a5f9054906101000a900473ffffffffffffffffffffffffffffffffffffffff1673ffffffffffffffffffffffffffffffffffffffff1663e40208046040518163ffffffff1660e01b8152600401602060405180830381865afa158015610755573d5f5f3e3d5ffd5b505050506040513d601f19601f820116820180604052508101906107799190612085565b90508073ffffffffffffffffffffffffffffffffffffffff16632e68f18e600c5f9054906101000a900473ffffffffffffffffffffffffffffffffffffffff16600a5f9054906101000a900473ffffffffffffffffffffffffffffffffffffffff1660075f8873ffffffffffffffffffffffffffffffffffffffff1673ffffffffffffffffffffffffffffffffffffffff1681526020019081526020015f205f9054906101000a900473ffffffffffffffffffffffffffffffffffffffff16600d5460025460035460055f8c73ffffffffffffffffffffffffffffffffffffffff1673ffffffffffffffffffffffffffffffffffffffff1681526020019081526020015f20546040518863ffffffff1660e01b81526004016108a197969594939291906120b0565b5f6040518083038186803b1580156108b7575f5ffd5b505afa1580156108c9573d5f5f3e3d5ffd5b50505050505b60065f8373ffffffffffffffffffffffffffffffffffffffff1673ffffffffffffffffffffffffffffffffffffffff1681526020019081526020015f2054905092915050565b61091d611cf5565b8060095f6101000a81548173ffffffffffffffffffffffffffffffffffffffff021916908373ffffffffffffffffffffffffffffffffffffffff16021790555050565b5f610969611c6d565b5f83036109a2576040517f1f2a200500000000000000000000000000000000000000000000000000000000815260040160405180910390fd5b5f90505f5f54036109b5578290506109d2565b5f54600154846109c5919061211d565b6109cf919061218b565b90505b8060045f8473ffffffffffffffffffffffffffffffffffffffff1673ffffffffffffffffffffffffffffffffffffffff1681526020019081526020015f205f828254610a1e91906121bb565b925050819055508060015f828254610a3691906121bb565b92505081905550825f5f828254610a4d91906121bb565b9250508190555092915050565b60035481565b60025481565b6004602052805f5260405f205f915090505481565b5f5f5f610a86611c6d565b5f8503610abf576040517f1f2a200500000000000000000000000000000000000000000000000000000000815260040160405180910390fd5b5f90505f60035403610ad357849050610af1565b60025460035486610ae4919061211d565b610aee919061218b565b90505b8060055f8673ffffffffffffffffffffffffffffffffffffffff1673ffffffffffffffffffffffffffffffffffffffff1681526020019081526020015f205f828254610b3d91906121bb565b925050819055508060035f828254610b5591906121bb565b925050819055508460025f828254610b6d91906121bb565b92505081905550670de0b6b3a764000066038d7ea4c6800086610b90919061211d565b610b9a919061218b565b92508285610ba8919061203e565b91505f546002541115610be7576040517fbb55fd2700000000000000000000000000000000000000000000000000000000815260040160405180910390fd5b5f600a5f9054906101000a900473ffffffffffffffffffffffffffffffffffffffff1673ffffffffffffffffffffffffffffffffffffffff1663e40208046040518163ffffffff1660e01b8152600401602060405180830381865afa158015610c52573d5f5f3e3d5ffd5b505050506040513d601f19601f82011682018060405250810190610c769190612085565b90508073ffffffffffffffffffffffffffffffffffffffff16632e68f18e600c5f9054906101000a900473ffffffffffffffffffffffffffffffffffffffff16600a5f9054906101000a900473ffffffffffffffffffffffffffffffffffffffff1660075f8a73ffffffffffffffffffffffffffffffffffffffff1673ffffffffffffffffffffffffffffffffffffffff1681526020019081526020015f205f9054906101000a900473ffffffffffffffffffffffffffffffffffffffff16600d5460025460035460055f8e73ffffffffffffffffffffffffffffffffffffffff1673ffffffffffffffffffffffffffffffffffffffff1681526020019081526020015f20546040518863ffffffff1660e01b8152600401610d9e97969594939291906120b0565b5f6040518083038186803b158015610db4575f5ffd5b505afa158015610dc6573d5f5f3e3d5ffd5b50505050509250925092565b5f5f5f5403610de3575f9050610e4c565b5f610dec610ebc565b90505f5f54612710600254610e01919061211d565b610e0b919061218b565b90505f6103e890506305f5e10081612710610e26919061203e565b8385610e32919061211d565b610e3c919061211d565b610e46919061218b565b93505050505b90565b600c5f9054906101000a900473ffffffffffffffffffffffffffffffffffffffff1681565b5f5f5f5403610e85575f9050610ea4565b5f54612710600254610e97919061211d565b610ea1919061218b565b90505b90565b6005602052805f5260405f205f915090505481565b5f5f5f5403610ecf576101f49050610f98565b5f5f54612710600254610ee2919061211d565b610eec919061218b565b90505f60c890505f611f4090505f6103e890505f6113889050828511610f4057828483610f19919061203e565b86610f24919061211d565b610f2e919061218b565b84610f3991906121bb565b9550610f92565b5f8386610f4d919061203e565b90505f84612710610f5e919061203e565b9050808484610f6d919061203e565b83610f78919061211d565b610f82919061218b565b84610f8d91906121bb565b975050505b50505050505b90565b5f610fa4611c6d565b5f8303610fdd576040517f1f2a200500000000000000000000000000000000000000000000000000000000815260040160405180910390fd5b60045f8373ffffffffffffffffffffffffffffffffffffffff1673ffffffffffffffffffffffffffffffffffffffff1681526020019081526020015f2054831115611054576040517f3999656700000000000000000000000000000000000000000000000000000000815260040160405180910390fd5b6001545f5484611064919061211d565b61106e919061218b565b90508260045f8473ffffffffffffffffffffffffffffffffffffffff1673ffffffffffffffffffffffffffffffffffffffff1681526020019081526020015f205f8282546110bc919061203e565b925050819055508260015f8282546110d4919061203e565b92505081905550805f5f8282546110eb919061203e565b925050819055506002545f54101561112f576040517fbb55fd2700000000000000000000000000000000000000000000000000000000815260040160405180910390fd5b92915050565b600d5481565b5f600a5f9054906101000a900473ffffffffffffffffffffffffffffffffffffffff1673ffffffffffffffffffffffffffffffffffffffff1663e40208046040518163ffffffff1660e01b8152600401602060405180830381865afa1580156111a6573d5f5f3e3d5ffd5b505050506040513d601f19601f820116820180604052508101906111ca9190612085565b90508073ffffffffffffffffffffffffffffffffffffffff163373ffffffffffffffffffffffffffffffffffffffff161461123a576040517f08c379a000000000000000000000000000000000000000000000000000000000815260040161123190612248565b60405180910390fd5b5f5f90505f60025411801561125057505f600354115b156112fd5760025460035484611266919061211d565b611270919061218b565b905060055f8573ffffffffffffffffffffffffffffffffffffffff1673ffffffffffffffffffffffffffffffffffffffff1681526020019081526020015f20548111156112f85760055f8573ffffffffffffffffffffffffffffffffffffffff1673ffffffffffffffffffffffffffffffffffffffff1681526020019081526020015f205490505b61133e565b60055f8573ffffffffffffffffffffffffffffffffffffffff1673ffffffffffffffffffffffffffffffffffffffff1681526020019081526020015f205490505b8060055f8673ffffffffffffffffffffffffffffffffffffffff1673ffffffffffffffffffffffffffffffffffffffff1681526020019081526020015f205f82825461138a919061203e565b925050819055508060035f8282546113a2919061203e565b925050819055508260025f8282546113ba919061203e565b925050819055505f60065f8673ffffffffffffffffffffffffffffffffffffffff1673ffffffffffffffffffffffffffffffffffffffff1681526020019081526020015f20819055508373ffffffffffffffffffffffffffffffffffffffff167fb599f4177300bc574d09b859cefe5e758c124ec3c83a343159535a85b0abc3ba828560405161144b929190612266565b60405180910390a250505050565b60075f8373ffffffffffffffffffffffffffffffffffffffff1673ffffffffffffffffffffffffffffffffffffffff1681526020019081526020015f205f9054906101000a900473ffffffffffffffffffffffffffffffffffffffff1673ffffffffffffffffffffffffffffffffffffffff163373ffffffffffffffffffffffffffffffffffffffff1614611523576040517f08c379a000000000000000000000000000000000000000000000000000000000815260040161151a906122d7565b60405180910390fd5b60065f8373ffffffffffffffffffffffffffffffffffffffff1673ffffffffffffffffffffffffffffffffffffffff1681526020019081526020015f20548111156115af575f60065f8473ffffffffffffffffffffffffffffffffffffffff1673ffffffffffffffffffffffffffffffffffffffff1681526020019081526020015f2081905550611603565b8060065f8473ffffffffffffffffffffffffffffffffffffffff1673ffffffffffffffffffffffffffffffffffffffff1681526020019081526020015f205f8282546115fb919061203e565b925050819055505b5050565b5f5481565b5f5f5f5f611618611c6d565b5f8603611651576040517f1f2a200500000000000000000000000000000000000000000000000000000000815260040160405180910390fd5b60055f8673ffffffffffffffffffffffffffffffffffffffff1673ffffffffffffffffffffffffffffffffffffffff1681526020019081526020015f20548611156116c8576040517f3999656700000000000000000000000000000000000000000000000000000000815260040160405180910390fd5b5f600354600254886116da919061211d565b6116e4919061218b565b90508660055f8873ffffffffffffffffffffffffffffffffffffffff1673ffffffffffffffffffffffffffffffffffffffff1681526020019081526020015f205f828254611732919061203e565b925050819055508660035f82825461174a919061203e565b925050819055508060025f828254611762919061203e565b925050819055508060055f8873ffffffffffffffffffffffffffffffffffffffff1673ffffffffffffffffffffffffffffffffffffffff1681526020019081526020015f205460035460025494509450945094505092959194509250565b60095f9054906101000a900473ffffffffffffffffffffffffffffffffffffffff1681565b5f6117ee610ebc565b90505f61271082600254611802919061211d565b61180c919061218b565b90505f6008544261181d919061203e565b90505f6301e133808284611831919061211d565b61183b919061218b565b90505f6103e890505f6127108284611853919061211d565b61185d919061218b565b90505f818461186c919061203e565b9050805f5f82825461187e91906121bb565b925050819055508360025f82825461189691906121bb565b925050819055504260088190555050505050505050565b600b5f9054906101000a900473ffffffffffffffffffffffffffffffffffffffff1681565b60015481565b600a5f9054906101000a900473ffffffffffffffffffffffffffffffffffffffff1681565b611905611c6d565b8060065f8473ffffffffffffffffffffffffffffffffffffffff1673ffffffffffffffffffffffffffffffffffffffff1681526020019081526020015f205f82825461195191906121bb565b925050819055505050565b611964611cf5565b5f60055f8373ffffffffffffffffffffffffffffffffffffffff1673ffffffffffffffffffffffffffffffffffffffff1681526020019081526020015f20819055505f60065f8373ffffffffffffffffffffffffffffffffffffffff1673ffffffffffffffffffffffffffffffffffffffff1681526020019081526020015f20819055508073ffffffffffffffffffffffffffffffffffffffff167f868a2af0891fff97b5dab17bb965f90ae388377f913245ef50035d088460bb6e60405160405180910390a250565b6006602052805f5260405f205f915090505481565b6007602052805f5260405f205f915054906101000a900473ffffffffffffffffffffffffffffffffffffffff1681565b5f611a7c611c6d565b5f73ffffffffffffffffffffffffffffffffffffffff1660075f8473ffffffffffffffffffffffffffffffffffffffff1673ffffffffffffffffffffffffffffffffffffffff1681526020019081526020015f205f9054906101000a900473ffffffffffffffffffffffffffffffffffffffff1673ffffffffffffffffffffffffffffffffffffffff1614611b3d576040517f0f04799c00000000000000000000000000000000000000000000000000000000815260040160405180910390fd5b5f611b46611d7d565b73ffffffffffffffffffffffffffffffffffffffff16632391216b60095f9054906101000a900473ffffffffffffffffffffffffffffffffffffffff16856040518363ffffffff1660e01b8152600401611ba19291906122f5565b6020604051808303815f875af1158015611bbd573d5f5f3e3d5ffd5b505050506040513d601f19601f82011682018060405250810190611be19190612085565b90508060075f8573ffffffffffffffffffffffffffffffffffffffff1673ffffffffffffffffffffffffffffffffffffffff1681526020019081526020015f205f6101000a81548173ffffffffffffffffffffffffffffffffffffffff021916908373ffffffffffffffffffffffffffffffffffffffff16021790555080915050919050565b60085481565b60095f9054906101000a900473ffffffffffffffffffffffffffffffffffffffff1673ffffffffffffffffffffffffffffffffffffffff163373ffffffffffffffffffffffffffffffffffffffff1614611cf3576040517fdeefa58900000000000000000000000000000000000000000000000000000000815260040160405180910390fd5b565b600a5f9054906101000a900473ffffffffffffffffffffffffffffffffffffffff1673ffffffffffffffffffffffffffffffffffffffff163373ffffffffffffffffffffffffffffffffffffffff1614611d7b576040517f32cc723600000000000000000000000000000000000000000000000000000000815260040160405180910390fd5b565b5f600a5f9054906101000a900473ffffffffffffffffffffffffffffffffffffffff1673ffffffffffffffffffffffffffffffffffffffff1663bd3b54716040518163ffffffff1660e01b8152600401602060405180830381865afa158015611de8573d5f5f3e3d5ffd5b505050506040513d601f19601f82011682018060405250810190611e0c9190612085565b905090565b5f5ffd5b5f819050919050565b611e2781611e15565b8114611e31575f5ffd5b50565b5f81359050611e4281611e1e565b92915050565b5f73ffffffffffffffffffffffffffffffffffffffff82169050919050565b5f611e7182611e48565b9050919050565b611e8181611e67565b8114611e8b575f5ffd5b50565b5f81359050611e9c81611e78565b92915050565b5f5f60408385031215611eb857611eb7611e11565b5b5f611ec585828601611e34565b9250506020611ed685828601611e8e565b9150509250929050565b611ee981611e15565b82525050565b5f602082019050611f025f830184611ee0565b92915050565b5f60208284031215611f1d57611f1c611e11565b5b5f611f2a84828501611e8e565b91505092915050565b5f606082019050611f465f830186611ee0565b611f536020830185611ee0565b611f606040830184611ee0565b949350505050565b611f7181611e67565b82525050565b5f602082019050611f8a5f830184611f68565b92915050565b5f5f60408385031215611fa657611fa5611e11565b5b5f611fb385828601611e8e565b9250506020611fc485828601611e34565b9150509250929050565b5f608082019050611fe15f830187611ee0565b611fee6020830186611ee0565b611ffb6040830185611ee0565b6120086060830184611ee0565b95945050505050565b7f4e487b71000000000000000000000000000000000000000000000000000000005f52601160045260245ffd5b5f61204882611e15565b915061205383611e15565b925082820390508181111561206b5761206a612011565b5b92915050565b5f8151905061207f81611e78565b92915050565b5f6020828403121561209a57612099611e11565b5b5f6120a784828501612071565b91505092915050565b5f60e0820190506120c35f83018a611f68565b6120d06020830189611f68565b6120dd6040830188611f68565b6120ea6060830187611ee0565b6120f76080830186611ee0565b61210460a0830185611ee0565b61211160c0830184611ee0565b98975050505050505050565b5f61212782611e15565b915061213283611e15565b925082820261214081611e15565b9150828204841483151761215757612156612011565b5b5092915050565b7f4e487b71000000000000000000000000000000000000000000000000000000005f52601260045260245ffd5b5f61219582611e15565b91506121a083611e15565b9250826121b0576121af61215e565b5b828204905092915050565b5f6121c582611e15565b91506121d083611e15565b92508282019050808211156121e8576121e7612011565b5b92915050565b5f82825260208201905092915050565b7f4e6f7420617574686f72697a65640000000000000000000000000000000000005f82015250565b5f612232600e836121ee565b915061223d826121fe565b602082019050919050565b5f6020820190508181035f83015261225f81612226565b9050919050565b5f6040820190506122795f830185611ee0565b6122866020830184611ee0565b9392505050565b7f4e6f742075736572277320706f736974696f6e000000000000000000000000005f82015250565b5f6122c16013836121ee565b91506122cc8261228d565b602082019050919050565b5f6020820190508181035f8301526122ee816122b5565b9050919050565b5f6040820190506123085f830185611f68565b6123156020830184611f68565b939250505056fea264697066735822122078a86ca267bfb854b0b570f673cd28004aa9b4f770d736503881bd56cf1d247164736f6c634300081c0033","linkReferences":{}},"methodIdentifiers":{"accrueInterest()":"a6afed95","addressPositions(address)":"f79c3800","borrowDebt(uint256,address)":"35fce80e","borrowToken()":"456dc17a","calculateBorrowRate()":"651e3296","calculateSupplyRate()":"4499ab62","collateralToken()":"b2016bd4","createPosition(address)":"f7e0ebf6","emergencyResetPosition(address)":"e2a9f680","factory()":"c45a0155","getUtilizationRate()":"4a417a53","lastAccrued()":"f9ec9f28","lendingPool()":"a59a9973","liquidatePosition(address,uint256)":"76f89965","ltv()":"6fb49d73","reduceUserCollateral(address,uint256)":"87105903","repayWithSelectedToken(uint256,address)":"9d058e67","setLendingPool(address)":"113aa8b1","supplyCollateral(address,uint256)":"d2a8607b","supplyLiquidity(uint256,address)":"11d9dbd3","totalBorrowAssets()":"1aad44c2","totalBorrowShares()":"136cf1f7","totalSupplyAssets()":"94877fc4","totalSupplyShares()":"ba7bde55","userBorrowShares(address)":"4fd422df","userCollateral(address)":"f69f1e4a","userSupplyShares(address)":"23aaf0bd","withdrawCollateral(uint256,address)":"0af504cc","withdrawLiquidity(uint256,address)":"68fc0c9a"},"id":104}