{"abi":[{"type":"constructor","inputs":[{"name":"_lendingPool","type":"address","internalType":"address"},{"name":"_factory","type":"address","internalType":"address"},{"name":"_collateralToken","type":"address","internalType":"address"},{"name":"_borrowToken","type":"address","internalType":"address"},{"name":"_ltv","type":"uint256","internalType":"uint256"}],"stateMutability":"nonpayable"},{"type":"function","name":"accrueInterest","inputs":[],"outputs":[],"stateMutability":"nonpayable"},{"type":"function","name":"addressPositions","inputs":[{"name":"","type":"address","internalType":"address"}],"outputs":[{"name":"","type":"address","internalType":"address"}],"stateMutability":"view"},{"type":"function","name":"borrowDebt","inputs":[{"name":"_amount","type":"uint256","internalType":"uint256"},{"name":"_user","type":"address","internalType":"address"}],"outputs":[{"name":"protocolFee","type":"uint256","internalType":"uint256"},{"name":"userAmount","type":"uint256","internalType":"uint256"},{"name":"shares","type":"uint256","internalType":"uint256"}],"stateMutability":"nonpayable"},{"type":"function","name":"borrowToken","inputs":[],"outputs":[{"name":"","type":"address","internalType":"address"}],"stateMutability":"view"},{"type":"function","name":"collateralToken","inputs":[],"outputs":[{"name":"","type":"address","internalType":"address"}],"stateMutability":"view"},{"type":"function","name":"createPosition","inputs":[{"name":"_user","type":"address","internalType":"address"}],"outputs":[{"name":"","type":"address","internalType":"address"}],"stateMutability":"nonpayable"},{"type":"function","name":"factory","inputs":[],"outputs":[{"name":"","type":"address","internalType":"address"}],"stateMutability":"view"},{"type":"function","name":"lastAccrued","inputs":[],"outputs":[{"name":"","type":"uint256","internalType":"uint256"}],"stateMutability":"view"},{"type":"function","name":"lendingPool","inputs":[],"outputs":[{"name":"","type":"address","internalType":"address"}],"stateMutability":"view"},{"type":"function","name":"liquidation","inputs":[{"name":"_borrower","type":"address","internalType":"address"}],"outputs":[{"name":"","type":"uint256","internalType":"uint256"},{"name":"","type":"uint256","internalType":"uint256"},{"name":"","type":"address","internalType":"address"}],"stateMutability":"nonpayable"},{"type":"function","name":"ltv","inputs":[],"outputs":[{"name":"","type":"uint256","internalType":"uint256"}],"stateMutability":"view"},{"type":"function","name":"repayWithSelectedToken","inputs":[{"name":"_shares","type":"uint256","internalType":"uint256"},{"name":"_user","type":"address","internalType":"address"}],"outputs":[{"name":"","type":"uint256","internalType":"uint256"},{"name":"","type":"uint256","internalType":"uint256"},{"name":"","type":"uint256","internalType":"uint256"},{"name":"","type":"uint256","internalType":"uint256"}],"stateMutability":"nonpayable"},{"type":"function","name":"setLendingPool","inputs":[{"name":"_lendingPool","type":"address","internalType":"address"}],"outputs":[],"stateMutability":"nonpayable"},{"type":"function","name":"supplyLiquidity","inputs":[{"name":"_amount","type":"uint256","internalType":"uint256"},{"name":"_user","type":"address","internalType":"address"}],"outputs":[{"name":"shares","type":"uint256","internalType":"uint256"}],"stateMutability":"nonpayable"},{"type":"function","name":"totalBorrowAssets","inputs":[],"outputs":[{"name":"","type":"uint256","internalType":"uint256"}],"stateMutability":"view"},{"type":"function","name":"totalBorrowShares","inputs":[],"outputs":[{"name":"","type":"uint256","internalType":"uint256"}],"stateMutability":"view"},{"type":"function","name":"totalReserveAssets","inputs":[],"outputs":[{"name":"","type":"uint256","internalType":"uint256"}],"stateMutability":"view"},{"type":"function","name":"totalSupplyAssets","inputs":[],"outputs":[{"name":"","type":"uint256","internalType":"uint256"}],"stateMutability":"view"},{"type":"function","name":"totalSupplyShares","inputs":[],"outputs":[{"name":"","type":"uint256","internalType":"uint256"}],"stateMutability":"view"},{"type":"function","name":"userBorrowShares","inputs":[{"name":"","type":"address","internalType":"address"}],"outputs":[{"name":"","type":"uint256","internalType":"uint256"}],"stateMutability":"view"},{"type":"function","name":"userSupplyShares","inputs":[{"name":"","type":"address","internalType":"address"}],"outputs":[{"name":"","type":"uint256","internalType":"uint256"}],"stateMutability":"view"},{"type":"function","name":"withdrawLiquidity","inputs":[{"name":"_shares","type":"uint256","internalType":"uint256"},{"name":"_user","type":"address","internalType":"address"}],"outputs":[{"name":"amount","type":"uint256","internalType":"uint256"}],"stateMutability":"nonpayable"},{"type":"event","name":"InterestAccrued","inputs":[{"name":"interest","type":"uint256","indexed":false,"internalType":"uint256"},{"name":"supplyYield","type":"uint256","indexed":false,"internalType":"uint256"},{"name":"reserveYield","type":"uint256","indexed":false,"internalType":"uint256"}],"anonymous":false},{"type":"error","name":"AssetNotLiquidatable","inputs":[{"name":"collateralToken","type":"address","internalType":"address"},{"name":"collateralValue","type":"uint256","internalType":"uint256"},{"name":"borrowValue","type":"uint256","internalType":"uint256"}]},{"type":"error","name":"InsufficientCollateral","inputs":[{"name":"amount","type":"uint256","internalType":"uint256"},{"name":"expectedAmount","type":"uint256","internalType":"uint256"}]},{"type":"error","name":"InsufficientLiquidity","inputs":[]},{"type":"error","name":"InsufficientShares","inputs":[]},{"type":"error","name":"MaxUtilizationReached","inputs":[{"name":"borrowToken","type":"address","internalType":"address"},{"name":"newUtilization","type":"uint256","internalType":"uint256"},{"name":"maxUtilization","type":"uint256","internalType":"uint256"}]},{"type":"error","name":"NotFactory","inputs":[]},{"type":"error","name":"NotLendingPool","inputs":[]},{"type":"error","name":"NotLiquidable","inputs":[{"name":"user","type":"address","internalType":"address"}]},{"type":"error","name":"PositionAlreadyCreated","inputs":[]},{"type":"error","name":"TotalBorrowSharesZero","inputs":[{"name":"shares","type":"uint256","internalType":"uint256"},{"name":"totalBorrowShares","type":"uint256","internalType":"uint256"}]},{"type":"error","name":"TotalSupplySharesZero","inputs":[{"name":"shares","type":"uint256","internalType":"uint256"},{"name":"totalSupplyShares","type":"uint256","internalType":"uint256"}]},{"type":"error","name":"ZeroAmount","inputs":[]}],"bytecode":{"object":"0x608060405234801561000f575f5ffd5b506040516120c83803806120c8833981810160405281019061003191906101da565b8460095f6101000a81548173ffffffffffffffffffffffffffffffffffffffff021916908373ffffffffffffffffffffffffffffffffffffffff16021790555083600a5f6101000a81548173ffffffffffffffffffffffffffffffffffffffff021916908373ffffffffffffffffffffffffffffffffffffffff16021790555082600b5f6101000a81548173ffffffffffffffffffffffffffffffffffffffff021916908373ffffffffffffffffffffffffffffffffffffffff16021790555081600c5f6101000a81548173ffffffffffffffffffffffffffffffffffffffff021916908373ffffffffffffffffffffffffffffffffffffffff16021790555080600d81905550426008819055505050505050610251565b5f5ffd5b5f73ffffffffffffffffffffffffffffffffffffffff82169050919050565b5f6101768261014d565b9050919050565b6101868161016c565b8114610190575f5ffd5b50565b5f815190506101a18161017d565b92915050565b5f819050919050565b6101b9816101a7565b81146101c3575f5ffd5b50565b5f815190506101d4816101b0565b92915050565b5f5f5f5f5f60a086880312156101f3576101f2610149565b5b5f61020088828901610193565b955050602061021188828901610193565b945050604061022288828901610193565b935050606061023388828901610193565b9250506080610244888289016101c6565b9150509295509295909350565b611e6a8061025e5f395ff3fe608060405234801561000f575f5ffd5b5060043610610140575f3560e01c80639d058e67116100b6578063ba7bde551161007a578063ba7bde5514610393578063c45a0155146103b1578063f2ee5c34146103cf578063f79c3800146103ed578063f7e0ebf61461041d578063f9ec9f281461044d57610140565b80639d058e67146102e8578063a59a99731461031b578063a6afed9514610339578063b2016bd414610343578063b83e62bf1461036157610140565b806335fce80e1161010857806335fce80e146101fc578063456dc17a1461022e5780634fd422df1461024c57806368fc0c9a1461027c5780636fb49d73146102ac57806394877fc4146102ca57610140565b8063113aa8b11461014457806311d9dbd314610160578063136cf1f7146101905780631aad44c2146101ae57806323aaf0bd146101cc575b5f5ffd5b61015e60048036038101906101599190611959565b61046b565b005b61017a600480360381019061017591906119b7565b6104b6565b6040516101879190611a04565b60405180910390f35b6101986105b0565b6040516101a59190611a04565b60405180910390f35b6101b66105b6565b6040516101c39190611a04565b60405180910390f35b6101e660048036038101906101e19190611959565b6105bc565b6040516101f39190611a04565b60405180910390f35b610216600480360381019061021191906119b7565b6105d1565b60405161022593929190611a1d565b60405180910390f35b610236610803565b6040516102439190611a61565b60405180910390f35b61026660048036038101906102619190611959565b610828565b6040516102739190611a04565b60405180910390f35b610296600480360381019061029191906119b7565b61083d565b6040516102a39190611a04565b60405180910390f35b6102b4610a21565b6040516102c19190611a04565b60405180910390f35b6102d2610a27565b6040516102df9190611a04565b60405180910390f35b61030260048036038101906102fd91906119b7565b610a2c565b6040516103129493929190611a7a565b60405180910390f35b610323610c2a565b6040516103309190611a61565b60405180910390f35b610341610c4f565b005b61034b610d96565b6040516103589190611a61565b60405180910390f35b61037b60048036038101906103769190611959565b610dbb565b60405161038a93929190611abd565b60405180910390f35b61039b611140565b6040516103a89190611a04565b60405180910390f35b6103b9611146565b6040516103c69190611a61565b60405180910390f35b6103d761116b565b6040516103e49190611a04565b60405180910390f35b61040760048036038101906104029190611959565b611171565b6040516104149190611a61565b60405180910390f35b61043760048036038101906104329190611959565b6111a1565b6040516104449190611a61565b60405180910390f35b610455611395565b6040516104629190611a04565b60405180910390f35b61047361139b565b8060095f6101000a81548173ffffffffffffffffffffffffffffffffffffffff021916908373ffffffffffffffffffffffffffffffffffffffff16021790555050565b5f6104bf611423565b5f83036104f8576040517f1f2a200500000000000000000000000000000000000000000000000000000000815260040160405180910390fd5b5f90505f5f540361050b57829050610528565b5f546001548461051b9190611b1f565b6105259190611b8d565b90505b8060055f8473ffffffffffffffffffffffffffffffffffffffff1673ffffffffffffffffffffffffffffffffffffffff1681526020019081526020015f205f8282546105749190611bbd565b925050819055508060015f82825461058c9190611bbd565b92505081905550825f5f8282546105a39190611bbd565b9250508190555092915050565b60035481565b60025481565b6005602052805f5260405f205f915090505481565b5f5f5f6105dc611423565b5f8503610615576040517f1f2a200500000000000000000000000000000000000000000000000000000000815260040160405180910390fd5b5f90505f6003540361062957849050610647565b6002546003548661063a9190611b1f565b6106449190611b8d565b90505b8060065f8673ffffffffffffffffffffffffffffffffffffffff1673ffffffffffffffffffffffffffffffffffffffff1681526020019081526020015f205f8282546106939190611bbd565b925050819055508060035f8282546106ab9190611bbd565b925050819055508460025f8282546106c39190611bbd565b925050819055505f5f54670de0b6b3a76400006002546106e39190611b1f565b6106ed9190611b8d565b90506106f76114ab565b811061076657600c5f9054906101000a900473ffffffffffffffffffffffffffffffffffffffff16816107286114ab565b6040517fb078917400000000000000000000000000000000000000000000000000000000815260040161075d93929190611bf0565b60405180910390fd5b670de0b6b3a7640000610799600c5f9054906101000a900473ffffffffffffffffffffffffffffffffffffffff16611530565b876107a49190611b1f565b6107ae9190611b8d565b935083866107bc9190611c25565b92505f5460025411156107fb576040517fbb55fd2700000000000000000000000000000000000000000000000000000000815260040160405180910390fd5b509250925092565b600c5f9054906101000a900473ffffffffffffffffffffffffffffffffffffffff1681565b6006602052805f5260405f205f915090505481565b5f610846611423565b5f830361087f576040517f1f2a200500000000000000000000000000000000000000000000000000000000815260040160405180910390fd5b60055f8373ffffffffffffffffffffffffffffffffffffffff1673ffffffffffffffffffffffffffffffffffffffff1681526020019081526020015f20548311156108f6576040517f3999656700000000000000000000000000000000000000000000000000000000815260040160405180910390fd5b5f6001540361094057826001546040517fc3ee5600000000000000000000000000000000000000000000000000000000008152600401610937929190611c58565b60405180910390fd5b6001545f54846109509190611b1f565b61095a9190611b8d565b90508260055f8473ffffffffffffffffffffffffffffffffffffffff1673ffffffffffffffffffffffffffffffffffffffff1681526020019081526020015f205f8282546109a89190611c25565b925050819055508260015f8282546109c09190611c25565b92505081905550805f5f8282546109d79190611c25565b925050819055506002545f541015610a1b576040517fbb55fd2700000000000000000000000000000000000000000000000000000000815260040160405180910390fd5b92915050565b600d5481565b5f5481565b5f5f5f5f610a38611423565b5f8603610a71576040517f1f2a200500000000000000000000000000000000000000000000000000000000815260040160405180910390fd5b60065f8673ffffffffffffffffffffffffffffffffffffffff1673ffffffffffffffffffffffffffffffffffffffff1681526020019081526020015f2054861115610ae8576040517f3999656700000000000000000000000000000000000000000000000000000000815260040160405180910390fd5b5f60035403610b3257856003546040517f49d1039c000000000000000000000000000000000000000000000000000000008152600401610b29929190611c58565b60405180910390fd5b5f60035460025488610b449190611b1f565b610b4e9190611b8d565b90508660065f8873ffffffffffffffffffffffffffffffffffffffff1673ffffffffffffffffffffffffffffffffffffffff1681526020019081526020015f205f828254610b9c9190611c25565b925050819055508660035f828254610bb49190611c25565b925050819055508060025f828254610bcc9190611c25565b925050819055508060065f8873ffffffffffffffffffffffffffffffffffffffff1673ffffffffffffffffffffffffffffffffffffffff1681526020019081526020015f205460035460025494509450945094505092959194509250565b60095f9054906101000a900473ffffffffffffffffffffffffffffffffffffffff1681565b5f60085442610c5e9190611c25565b90505f8103610c6d5750610d94565b426008819055505f60025403610c835750610d94565b5f5f5f610c8e6115b7565b73ffffffffffffffffffffffffffffffffffffffff1663d7dc620330866040518363ffffffff1660e01b8152600401610cc8929190611c7f565b606060405180830381865afa158015610ce3573d5f5f3e3d5ffd5b505050506040513d601f19601f82011682018060405250810190610d079190611cba565b9250925092508260025f828254610d1e9190611bbd565b92505081905550815f5f828254610d359190611bbd565b925050819055508060045f828254610d4d9190611bbd565b925050819055507fe9d95e658b0c714da9de2e12fbed253a24a632058a074dc7c90b8b6618675c7c838383604051610d8793929190611a1d565b60405180910390a1505050505b565b600b5f9054906101000a900473ffffffffffffffffffffffffffffffffffffffff1681565b5f5f5f610dc6611423565b5f60065f8673ffffffffffffffffffffffffffffffffffffffff1673ffffffffffffffffffffffffffffffffffffffff1681526020019081526020015f2054148015610e1957505f610e178561164b565b145b15610e5b57836040517fe73da048000000000000000000000000000000000000000000000000000000008152600401610e529190611a61565b60405180910390fd5b5f5f5f5f610e6761171c565b73ffffffffffffffffffffffffffffffffffffffff16633132aa8989306040518363ffffffff1660e01b8152600401610ea1929190611d0a565b608060405180830381865afa158015610ebc573d5f5f3e3d5ffd5b505050506040513d601f19601f82011682018060405250810190610ee09190611d66565b935093509350935083610f4f57600b5f9054906101000a900473ffffffffffffffffffffffffffffffffffffffff1682846040517f0585ca9c000000000000000000000000000000000000000000000000000000008152600401610f4693929190611bf0565b60405180910390fd5b610f57610c4f565b5f610f9e60065f8b73ffffffffffffffffffffffffffffffffffffffff1673ffffffffffffffffffffffffffffffffffffffff1681526020019081526020015f20546117b0565b90505f60075f8b73ffffffffffffffffffffffffffffffffffffffff1673ffffffffffffffffffffffffffffffffffffffff1681526020019081526020015f205f9054906101000a900473ffffffffffffffffffffffffffffffffffffffff1690508160025f8282546110119190611c25565b9250508190555060065f8b73ffffffffffffffffffffffffffffffffffffffff1673ffffffffffffffffffffffffffffffffffffffff1681526020019081526020015f205460035f8282546110669190611c25565b925050819055505f60065f8c73ffffffffffffffffffffffffffffffffffffffff1673ffffffffffffffffffffffffffffffffffffffff1681526020019081526020015f20819055505f60075f8c73ffffffffffffffffffffffffffffffffffffffff1673ffffffffffffffffffffffffffffffffffffffff1681526020019081526020015f205f6101000a81548173ffffffffffffffffffffffffffffffffffffffff021916908373ffffffffffffffffffffffffffffffffffffffff1602179055508183829850985098505050505050509193909250565b60015481565b600a5f9054906101000a900473ffffffffffffffffffffffffffffffffffffffff1681565b60045481565b6007602052805f5260405f205f915054906101000a900473ffffffffffffffffffffffffffffffffffffffff1681565b5f6111aa611423565b5f73ffffffffffffffffffffffffffffffffffffffff1660075f8473ffffffffffffffffffffffffffffffffffffffff1673ffffffffffffffffffffffffffffffffffffffff1681526020019081526020015f205f9054906101000a900473ffffffffffffffffffffffffffffffffffffffff1673ffffffffffffffffffffffffffffffffffffffff161461126b576040517f0f04799c00000000000000000000000000000000000000000000000000000000815260040160405180910390fd5b5f6112746117d3565b73ffffffffffffffffffffffffffffffffffffffff16632391216b60095f9054906101000a900473ffffffffffffffffffffffffffffffffffffffff16856040518363ffffffff1660e01b81526004016112cf929190611d0a565b6020604051808303815f875af11580156112eb573d5f5f3e3d5ffd5b505050506040513d601f19601f8201168201806040525081019061130f9190611dde565b90508060075f8573ffffffffffffffffffffffffffffffffffffffff1673ffffffffffffffffffffffffffffffffffffffff1681526020019081526020015f205f6101000a81548173ffffffffffffffffffffffffffffffffffffffff021916908373ffffffffffffffffffffffffffffffffffffffff16021790555080915050919050565b60085481565b600a5f9054906101000a900473ffffffffffffffffffffffffffffffffffffffff1673ffffffffffffffffffffffffffffffffffffffff163373ffffffffffffffffffffffffffffffffffffffff1614611421576040517f32cc723600000000000000000000000000000000000000000000000000000000815260040160405180910390fd5b565b60095f9054906101000a900473ffffffffffffffffffffffffffffffffffffffff1673ffffffffffffffffffffffffffffffffffffffff163373ffffffffffffffffffffffffffffffffffffffff16146114a9576040517fdeefa58900000000000000000000000000000000000000000000000000000000815260040160405180910390fd5b565b5f6114b46115b7565b73ffffffffffffffffffffffffffffffffffffffff166377460ddb306040518263ffffffff1660e01b81526004016114ec9190611a61565b602060405180830381865afa158015611507573d5f5f3e3d5ffd5b505050506040513d601f19601f8201168201806040525081019061152b9190611e09565b905090565b5f611539611867565b73ffffffffffffffffffffffffffffffffffffffff16630a992e0c836040518263ffffffff1660e01b81526004016115719190611a61565b602060405180830381865afa15801561158c573d5f5f3e3d5ffd5b505050506040513d601f19601f820116820180604052508101906115b09190611e09565b9050919050565b5f600a5f9054906101000a900473ffffffffffffffffffffffffffffffffffffffff1673ffffffffffffffffffffffffffffffffffffffff1663f3fdb15a6040518163ffffffff1660e01b8152600401602060405180830381865afa158015611622573d5f5f3e3d5ffd5b505050506040513d601f19601f820116820180604052508101906116469190611dde565b905090565b5f60075f8373ffffffffffffffffffffffffffffffffffffffff1673ffffffffffffffffffffffffffffffffffffffff1681526020019081526020015f205f9054906101000a900473ffffffffffffffffffffffffffffffffffffffff1673ffffffffffffffffffffffffffffffffffffffff16634ac8eb5f6040518163ffffffff1660e01b8152600401602060405180830381865afa1580156116f1573d5f5f3e3d5ffd5b505050506040513d601f19601f820116820180604052508101906117159190611e09565b9050919050565b5f600a5f9054906101000a900473ffffffffffffffffffffffffffffffffffffffff1673ffffffffffffffffffffffffffffffffffffffff1663e40208046040518163ffffffff1660e01b8152600401602060405180830381865afa158015611787573d5f5f3e3d5ffd5b505050506040513d601f19601f820116820180604052508101906117ab9190611dde565b905090565b5f600354600254836117c29190611b1f565b6117cc9190611b8d565b9050919050565b5f600a5f9054906101000a900473ffffffffffffffffffffffffffffffffffffffff1673ffffffffffffffffffffffffffffffffffffffff1663bd3b54716040518163ffffffff1660e01b8152600401602060405180830381865afa15801561183e573d5f5f3e3d5ffd5b505050506040513d601f19601f820116820180604052508101906118629190611dde565b905090565b5f600a5f9054906101000a900473ffffffffffffffffffffffffffffffffffffffff1673ffffffffffffffffffffffffffffffffffffffff16638ce744266040518163ffffffff1660e01b8152600401602060405180830381865afa1580156118d2573d5f5f3e3d5ffd5b505050506040513d601f19601f820116820180604052508101906118f69190611dde565b905090565b5f5ffd5b5f73ffffffffffffffffffffffffffffffffffffffff82169050919050565b5f611928826118ff565b9050919050565b6119388161191e565b8114611942575f5ffd5b50565b5f813590506119538161192f565b92915050565b5f6020828403121561196e5761196d6118fb565b5b5f61197b84828501611945565b91505092915050565b5f819050919050565b61199681611984565b81146119a0575f5ffd5b50565b5f813590506119b18161198d565b92915050565b5f5f604083850312156119cd576119cc6118fb565b5b5f6119da858286016119a3565b92505060206119eb85828601611945565b9150509250929050565b6119fe81611984565b82525050565b5f602082019050611a175f8301846119f5565b92915050565b5f606082019050611a305f8301866119f5565b611a3d60208301856119f5565b611a4a60408301846119f5565b949350505050565b611a5b8161191e565b82525050565b5f602082019050611a745f830184611a52565b92915050565b5f608082019050611a8d5f8301876119f5565b611a9a60208301866119f5565b611aa760408301856119f5565b611ab460608301846119f5565b95945050505050565b5f606082019050611ad05f8301866119f5565b611add60208301856119f5565b611aea6040830184611a52565b949350505050565b7f4e487b71000000000000000000000000000000000000000000000000000000005f52601160045260245ffd5b5f611b2982611984565b9150611b3483611984565b9250828202611b4281611984565b91508282048414831517611b5957611b58611af2565b5b5092915050565b7f4e487b71000000000000000000000000000000000000000000000000000000005f52601260045260245ffd5b5f611b9782611984565b9150611ba283611984565b925082611bb257611bb1611b60565b5b828204905092915050565b5f611bc782611984565b9150611bd283611984565b9250828201905080821115611bea57611be9611af2565b5b92915050565b5f606082019050611c035f830186611a52565b611c1060208301856119f5565b611c1d60408301846119f5565b949350505050565b5f611c2f82611984565b9150611c3a83611984565b9250828203905081811115611c5257611c51611af2565b5b92915050565b5f604082019050611c6b5f8301856119f5565b611c7860208301846119f5565b9392505050565b5f604082019050611c925f830185611a52565b611c9f60208301846119f5565b9392505050565b5f81519050611cb48161198d565b92915050565b5f5f5f60608486031215611cd157611cd06118fb565b5b5f611cde86828701611ca6565b9350506020611cef86828701611ca6565b9250506040611d0086828701611ca6565b9150509250925092565b5f604082019050611d1d5f830185611a52565b611d2a6020830184611a52565b9392505050565b5f8115159050919050565b611d4581611d31565b8114611d4f575f5ffd5b50565b5f81519050611d6081611d3c565b92915050565b5f5f5f5f60808587031215611d7e57611d7d6118fb565b5b5f611d8b87828801611d52565b9450506020611d9c87828801611ca6565b9350506040611dad87828801611ca6565b9250506060611dbe87828801611ca6565b91505092959194509250565b5f81519050611dd88161192f565b92915050565b5f60208284031215611df357611df26118fb565b5b5f611e0084828501611dca565b91505092915050565b5f60208284031215611e1e57611e1d6118fb565b5b5f611e2b84828501611ca6565b9150509291505056fea2646970667358221220e6a51c1c688d1e932d747c4c4c58c473f8e3fd87f4c9c73716bc49e64383184564736f6c634300081e0033","linkReferences":{}},"methodIdentifiers":{"accrueInterest()":"a6afed95","addressPositions(address)":"f79c3800","borrowDebt(uint256,address)":"35fce80e","borrowToken()":"456dc17a","collateralToken()":"b2016bd4","createPosition(address)":"f7e0ebf6","factory()":"c45a0155","lastAccrued()":"f9ec9f28","lendingPool()":"a59a9973","liquidation(address)":"b83e62bf","ltv()":"6fb49d73","repayWithSelectedToken(uint256,address)":"9d058e67","setLendingPool(address)":"113aa8b1","supplyLiquidity(uint256,address)":"11d9dbd3","totalBorrowAssets()":"1aad44c2","totalBorrowShares()":"136cf1f7","totalReserveAssets()":"f2ee5c34","totalSupplyAssets()":"94877fc4","totalSupplyShares()":"ba7bde55","userBorrowShares(address)":"4fd422df","userSupplyShares(address)":"23aaf0bd","withdrawLiquidity(uint256,address)":"68fc0c9a"},"id":105}