{"abi":[{"type":"constructor","inputs":[{"name":"_factory","type":"address","internalType":"address"}],"stateMutability":"nonpayable"},{"type":"function","name":"factory","inputs":[],"outputs":[{"name":"","type":"address","internalType":"address"}],"stateMutability":"view"},{"type":"function","name":"getAPY","inputs":[{"name":"_lendingPool","type":"address","internalType":"address"}],"outputs":[{"name":"supplyAPY","type":"uint256","internalType":"uint256"},{"name":"borrowAPY","type":"uint256","internalType":"uint256"},{"name":"utilizationRate","type":"uint256","internalType":"uint256"}],"stateMutability":"view"},{"type":"function","name":"getBorrowAPY","inputs":[{"name":"_lendingPool","type":"address","internalType":"address"}],"outputs":[{"name":"borrowAPY","type":"uint256","internalType":"uint256"}],"stateMutability":"view"},{"type":"function","name":"getExchangeRate","inputs":[{"name":"_tokenIn","type":"address","internalType":"address"},{"name":"_tokenOut","type":"address","internalType":"address"},{"name":"_amountIn","type":"uint256","internalType":"uint256"},{"name":"_position","type":"address","internalType":"address"}],"outputs":[{"name":"","type":"uint256","internalType":"uint256"}],"stateMutability":"view"},{"type":"function","name":"getFee","inputs":[{"name":"_oftAddress","type":"address","internalType":"address"},{"name":"_dstEid","type":"uint32","internalType":"uint32"},{"name":"_toAddress","type":"address","internalType":"address"},{"name":"_tokensToSend","type":"uint256","internalType":"uint256"}],"outputs":[{"name":"","type":"uint256","internalType":"uint256"}],"stateMutability":"view"},{"type":"function","name":"getHealthFactor","inputs":[{"name":"_lendingPool","type":"address","internalType":"address"},{"name":"_user","type":"address","internalType":"address"}],"outputs":[{"name":"","type":"uint256","internalType":"uint256"}],"stateMutability":"view"},{"type":"function","name":"getLendingPoolMetrics","inputs":[{"name":"_lendingPool","type":"address","internalType":"address"}],"outputs":[{"name":"supplyAPY","type":"uint256","internalType":"uint256"},{"name":"borrowAPY","type":"uint256","internalType":"uint256"},{"name":"utilizationRate","type":"uint256","internalType":"uint256"},{"name":"totalSupplyAssets","type":"uint256","internalType":"uint256"},{"name":"totalBorrowAssets","type":"uint256","internalType":"uint256"}],"stateMutability":"view"},{"type":"function","name":"getMaxBorrowAmount","inputs":[{"name":"_lendingPool","type":"address","internalType":"address"},{"name":"_user","type":"address","internalType":"address"}],"outputs":[{"name":"","type":"uint256","internalType":"uint256"}],"stateMutability":"view"},{"type":"function","name":"getSupplyAPY","inputs":[{"name":"_lendingPool","type":"address","internalType":"address"}],"outputs":[{"name":"supplyAPY","type":"uint256","internalType":"uint256"}],"stateMutability":"view"},{"type":"function","name":"getTokenValue","inputs":[{"name":"_token","type":"address","internalType":"address"}],"outputs":[{"name":"","type":"uint256","internalType":"uint256"}],"stateMutability":"view"},{"type":"function","name":"getUtilizationRate","inputs":[{"name":"_lendingPool","type":"address","internalType":"address"}],"outputs":[{"name":"utilizationRate","type":"uint256","internalType":"uint256"}],"stateMutability":"view"},{"type":"function","name":"setFactory","inputs":[{"name":"_factory","type":"address","internalType":"address"}],"outputs":[],"stateMutability":"nonpayable"},{"type":"error","name":"InvalidOptionType","inputs":[{"name":"optionType","type":"uint16","internalType":"uint16"}]},{"type":"error","name":"SafeCastOverflowedUintDowncast","inputs":[{"name":"bits","type":"uint8","internalType":"uint8"},{"name":"value","type":"uint256","internalType":"uint256"}]}],"bytecode":{"object":"0x608060405234801561000f575f5ffd5b506040516128dc3803806128dc833981810160405281019061003191906100d4565b805f5f6101000a81548173ffffffffffffffffffffffffffffffffffffffff021916908373ffffffffffffffffffffffffffffffffffffffff160217905550506100ff565b5f5ffd5b5f73ffffffffffffffffffffffffffffffffffffffff82169050919050565b5f6100a38261007a565b9050919050565b6100b381610099565b81146100bd575f5ffd5b50565b5f815190506100ce816100aa565b92915050565b5f602082840312156100e9576100e8610076565b5b5f6100f6848285016100c0565b91505092915050565b6127d08061010c5f395ff3fe608060405234801561000f575f5ffd5b50600436106100b2575f3560e01c80637b6aa8bd1161006f5780637b6aa8bd146101c25780637cff7d11146101f2578063c1dae57614610222578063c45a015514610256578063c4f9870b14610274578063f1c5d6c2146102a6576100b2565b80632d27b824146100b65780633842ea42146100e657806354ccb4531461011657806357c89a7d1461014657806359ad586f146101765780635bb47808146101a6575b5f5ffd5b6100d060048036038101906100cb9190611ad6565b6102d6565b6040516100dd9190611b19565b60405180910390f35b61010060048036038101906100fb9190611ad6565b6103c2565b60405161010d9190611b19565b60405180910390f35b610130600480360381019061012b9190611b95565b6104ae565b60405161013d9190611b19565b60405180910390f35b610160600480360381019061015b9190611bf9565b6105c2565b60405161016d9190611b19565b60405180910390f35b610190600480360381019061018b9190611bf9565b610ae5565b60405161019d9190611b19565b60405180910390f35b6101c060048036038101906101bb9190611ad6565b610c99565b005b6101dc60048036038101906101d79190611ad6565b610cdb565b6040516101e99190611b19565b60405180910390f35b61020c60048036038101906102079190611c37565b610d82565b6040516102199190611b19565b60405180910390f35b61023c60048036038101906102379190611ad6565b610e2c565b60405161024d959493929190611c9b565b60405180910390f35b61025e610f46565b60405161026b9190611cfb565b60405180910390f35b61028e60048036038101906102899190611ad6565b610f6a565b60405161029d93929190611d14565b60405180910390f35b6102c060048036038101906102bb9190611ad6565b610f95565b6040516102cd9190611b19565b60405180910390f35b5f5f6102e183611020565b90505f8173ffffffffffffffffffffffffffffffffffffffff1663651e32966040518163ffffffff1660e01b8152600401602060405180830381865afa15801561032d573d5f5f3e3d5ffd5b505050506040513d601f19601f820116820180604052508101906103519190611d5d565b90505f8103610364575f925050506103bd565b5f612710670de0b6b3a76400008361037c9190611db5565b6103869190611e23565b90505f671bc16d674ec80000828361039e9190611db5565b6103a89190611e23565b905080826103b69190611e53565b9450505050505b919050565b5f5f6103cd83611020565b90505f8173ffffffffffffffffffffffffffffffffffffffff16634499ab626040518163ffffffff1660e01b8152600401602060405180830381865afa158015610419573d5f5f3e3d5ffd5b505050506040513d601f19601f8201168201806040525081019061043d9190611d5d565b90505f8103610450575f925050506104a9565b5f612710670de0b6b3a7640000836104689190611db5565b6104729190611e23565b90505f671bc16d674ec80000828361048a9190611db5565b6104949190611e23565b905080826104a29190611e53565b9450505050505b919050565b5f5f8590505f6104d261fde85f6104c3611095565b6110bd9092919063ffffffff16565b90505f6040518060e001604052808863ffffffff1681526020016104f588611155565b815260200186815260200186815260200183815260200160405180602001604052805f815250815260200160405180602001604052805f81525081525090505f8373ffffffffffffffffffffffffffffffffffffffff16633b6f743b835f6040518363ffffffff1660e01b8152600401610570929190611fed565b6040805180830381865afa15801561058a573d5f5f3e3d5ffd5b505050506040513d601f19601f820116820180604052508101906105ae91906120e4565b9050805f0151945050505050949350505050565b5f5f6105ce8484611176565b90505f6105db85856111ff565b90505f6105e786611288565b90505f6105f387611305565b90505f6105ff88611382565b90505f840361061657604595505050505050610adf565b5f73ffffffffffffffffffffffffffffffffffffffff168573ffffffffffffffffffffffffffffffffffffffff160361065857611b3995505050505050610adf565b5f5f90505f8673ffffffffffffffffffffffffffffffffffffffff166361bc221a6040518163ffffffff1660e01b8152600401602060405180830381865afa1580156106a6573d5f5f3e3d5ffd5b505050506040513d601f19601f820116820180604052508101906106ca9190611d5d565b90505f600190505b818111610989575f8873ffffffffffffffffffffffffffffffffffffffff16631cb928a9836040518263ffffffff1660e01b81526004016107139190611b19565b602060405180830381865afa15801561072e573d5f5f3e3d5ffd5b505050506040513d601f19601f820116820180604052508101906107529190612123565b90505f5f61075e6113ff565b73ffffffffffffffffffffffffffffffffffffffff168373ffffffffffffffffffffffffffffffffffffffff160361081a576107986113ff565b73ffffffffffffffffffffffffffffffffffffffff166370a082318c6040518263ffffffff1660e01b81526004016107d09190611cfb565b602060405180830381865afa1580156107eb573d5f5f3e3d5ffd5b505050506040513d601f19601f8201168201806040525081019061080f9190611d5d565b915060129050610907565b8273ffffffffffffffffffffffffffffffffffffffff166370a082318c6040518263ffffffff1660e01b81526004016108539190611cfb565b602060405180830381865afa15801561086e573d5f5f3e3d5ffd5b505050506040513d601f19601f820116820180604052508101906108929190611d5d565b91508273ffffffffffffffffffffffffffffffffffffffff1663313ce5676040518163ffffffff1660e01b8152600401602060405180830381865afa1580156108dd573d5f5f3e3d5ffd5b505050506040513d601f19601f820116820180604052508101906109019190612184565b60ff1690505b5f73ffffffffffffffffffffffffffffffffffffffff168373ffffffffffffffffffffffffffffffffffffffff16146109735780600a61094791906122de565b8261095185610f95565b61095b9190611db5565b6109659190611e23565b866109709190611e53565b95505b505050808061098190612328565b9150506106d2565b505f8486886109989190611db5565b6109a29190611e23565b90505f6109ad6113ff565b73ffffffffffffffffffffffffffffffffffffffff168573ffffffffffffffffffffffffffffffffffffffff1614610a51578473ffffffffffffffffffffffffffffffffffffffff1663313ce5676040518163ffffffff1660e01b8152600401602060405180830381865afa158015610a28573d5f5f3e3d5ffd5b505050506040513d601f19601f82011682018060405250810190610a4c9190612184565b610a54565b60125b60ff1690505f81600a610a6791906122de565b83610a7188610f95565b610a7b9190611db5565b610a859190611e23565b90505f610a918e611492565b90505f82670de0b6b3a76400006305f5e10084610aae9190611db5565b610ab89190611e23565b88610ac39190611db5565b610acd9190611e23565b9050809c505050505050505050505050505b92915050565b5f5f610af084611382565b90505f610afb6113ff565b73ffffffffffffffffffffffffffffffffffffffff168273ffffffffffffffffffffffffffffffffffffffff1603610bb357610b356113ff565b73ffffffffffffffffffffffffffffffffffffffff166370a08231866040518263ffffffff1660e01b8152600401610b6d9190611cfb565b602060405180830381865afa158015610b88573d5f5f3e3d5ffd5b505050506040513d601f19601f82011682018060405250810190610bac9190611d5d565b9050610c2e565b8173ffffffffffffffffffffffffffffffffffffffff166370a08231866040518263ffffffff1660e01b8152600401610bec9190611cfb565b602060405180830381865afa158015610c07573d5f5f3e3d5ffd5b505050506040513d601f19601f82011682018060405250810190610c2b9190611d5d565b90505b5f610c39868661150f565b90505f610c46878761171c565b90505f81670de0b6b3a7640000610c5c8a611492565b85610c679190611db5565b610c719190611e23565b610c7b919061236f565b9050838110610c8a5783610c8c565b805b9550505050505092915050565b805f5f6101000a81548173ffffffffffffffffffffffffffffffffffffffff021916908373ffffffffffffffffffffffffffffffffffffffff16021790555050565b5f5f610ce683611020565b90505f8173ffffffffffffffffffffffffffffffffffffffff16634a417a536040518163ffffffff1660e01b8152600401602060405180830381865afa158015610d32573d5f5f3e3d5ffd5b505050506040513d601f19601f82011682018060405250810190610d569190611d5d565b9050612710670de0b6b3a764000082610d6f9190611db5565b610d799190611e23565b92505050919050565b5f5f610d8d86611772565b90505f610d9986611772565b90505f8473ffffffffffffffffffffffffffffffffffffffff1663dd9103cb89898987876040518663ffffffff1660e01b8152600401610ddd9594939291906123a2565b602060405180830381865afa158015610df8573d5f5f3e3d5ffd5b505050506040513d601f19601f82011682018060405250810190610e1c9190611d5d565b9050809350505050949350505050565b5f5f5f5f5f5f610e3b87611020565b9050610e46876103c2565b9550610e51876102d6565b9450610e5c87610cdb565b93508073ffffffffffffffffffffffffffffffffffffffff166394877fc46040518163ffffffff1660e01b8152600401602060405180830381865afa158015610ea7573d5f5f3e3d5ffd5b505050506040513d601f19601f82011682018060405250810190610ecb9190611d5d565b92508073ffffffffffffffffffffffffffffffffffffffff16631aad44c26040518163ffffffff1660e01b8152600401602060405180830381865afa158015610f16573d5f5f3e3d5ffd5b505050506040513d601f19601f82011682018060405250810190610f3a9190611d5d565b91505091939590929450565b5f5f9054906101000a900473ffffffffffffffffffffffffffffffffffffffff1681565b5f5f5f610f76846103c2565b9250610f81846102d6565b9150610f8c84610cdb565b90509193909250565b5f5f610fa083611772565b90505f8173ffffffffffffffffffffffffffffffffffffffff1663feaf968c6040518163ffffffff1660e01b815260040160a060405180830381865afa158015610fec573d5f5f3e3d5ffd5b505050506040513d601f19601f820116820180604052508101906110109190612432565b5050509150508092505050919050565b5f8173ffffffffffffffffffffffffffffffffffffffff1663f887ea406040518163ffffffff1660e01b8152600401602060405180830381865afa15801561106a573d5f5f3e3d5ffd5b505050506040513d601f19601f8201168201806040525081019061108e9190612123565b9050919050565b606060036040516020016110a991906124ea565b604051602081830303815290604052905090565b606083600361ffff166110d95f8361181290919063ffffffff16565b61ffff1614611131576110f55f8261181290919063ffffffff16565b6040517f3a51740d0000000000000000000000000000000000000000000000000000000081526004016111289190612513565b60405180910390fd5b5f61113c8585611877565b905061114a866001836118e2565b925050509392505050565b5f8173ffffffffffffffffffffffffffffffffffffffff165f1b9050919050565b5f61118083611020565b73ffffffffffffffffffffffffffffffffffffffff1663f79c3800836040518263ffffffff1660e01b81526004016111b89190611cfb565b602060405180830381865afa1580156111d3573d5f5f3e3d5ffd5b505050506040513d601f19601f820116820180604052508101906111f79190612123565b905092915050565b5f61120983611020565b73ffffffffffffffffffffffffffffffffffffffff16634fd422df836040518263ffffffff1660e01b81526004016112419190611cfb565b602060405180830381865afa15801561125c573d5f5f3e3d5ffd5b505050506040513d601f19601f820116820180604052508101906112809190611d5d565b905092915050565b5f61129282611020565b73ffffffffffffffffffffffffffffffffffffffff16631aad44c26040518163ffffffff1660e01b8152600401602060405180830381865afa1580156112da573d5f5f3e3d5ffd5b505050506040513d601f19601f820116820180604052508101906112fe9190611d5d565b9050919050565b5f61130f82611020565b73ffffffffffffffffffffffffffffffffffffffff1663136cf1f76040518163ffffffff1660e01b8152600401602060405180830381865afa158015611357573d5f5f3e3d5ffd5b505050506040513d601f19601f8201168201806040525081019061137b9190611d5d565b9050919050565b5f61138c82611020565b73ffffffffffffffffffffffffffffffffffffffff1663456dc17a6040518163ffffffff1660e01b8152600401602060405180830381865afa1580156113d4573d5f5f3e3d5ffd5b505050506040513d601f19601f820116820180604052508101906113f89190612123565b9050919050565b5f5f5f9054906101000a900473ffffffffffffffffffffffffffffffffffffffff1673ffffffffffffffffffffffffffffffffffffffff1663145d51d86040518163ffffffff1660e01b8152600401602060405180830381865afa158015611469573d5f5f3e3d5ffd5b505050506040513d601f19601f8201168201806040525081019061148d9190612123565b905090565b5f61149c82611020565b73ffffffffffffffffffffffffffffffffffffffff16636fb49d736040518163ffffffff1660e01b8152600401602060405180830381865afa1580156114e4573d5f5f3e3d5ffd5b505050506040513d601f19601f820116820180604052508101906115089190611d5d565b9050919050565b5f5f61151a8461199d565b90505f61152685611382565b90505f6115338686611176565b90505f61153f84611772565b90505f61154b84611772565b90505f6115566113ff565b73ffffffffffffffffffffffffffffffffffffffff168673ffffffffffffffffffffffffffffffffffffffff160361160e576115906113ff565b73ffffffffffffffffffffffffffffffffffffffff166370a08231856040518263ffffffff1660e01b81526004016115c89190611cfb565b602060405180830381865afa1580156115e3573d5f5f3e3d5ffd5b505050506040513d601f19601f820116820180604052508101906116079190611d5d565b9050611689565b8573ffffffffffffffffffffffffffffffffffffffff166370a08231856040518263ffffffff1660e01b81526004016116479190611cfb565b602060405180830381865afa158015611662573d5f5f3e3d5ffd5b505050506040513d601f19601f820116820180604052508101906116869190611d5d565b90505b5f8490508073ffffffffffffffffffffffffffffffffffffffff1663dd9103cb88888588886040518663ffffffff1660e01b81526004016116ce9594939291906123a2565b602060405180830381865afa1580156116e9573d5f5f3e3d5ffd5b505050506040513d601f19601f8201168201806040525081019061170d9190611d5d565b97505050505050505092915050565b5f5f61172784611288565b90505f61173385611305565b90505f61174086866111ff565b90505f8314611765578183826117569190611db5565b6117609190611e23565b611767565b5f5b935050505092915050565b5f5f5f9054906101000a900473ffffffffffffffffffffffffffffffffffffffff1673ffffffffffffffffffffffffffffffffffffffff16631d43335a836040518263ffffffff1660e01b81526004016117cc9190611cfb565b602060405180830381865afa1580156117e7573d5f5f3e3d5ffd5b505050506040513d601f19601f8201168201806040525081019061180b9190612123565b9050919050565b5f6002826118209190611e53565b83511015611863576040517f08c379a000000000000000000000000000000000000000000000000000000000815260040161185a90612586565b60405180910390fd5b5f8260028501015190508091505092915050565b60605f826fffffffffffffffffffffffffffffffff16146118b95782826040516020016118a59291906125f3565b6040516020818303038152906040526118da565b826040516020016118ca919061261e565b6040516020818303038152906040525b905092915050565b606083600361ffff166118fe5f8361181290919063ffffffff16565b61ffff16146119565761191a5f8261181290919063ffffffff16565b6040517f3a51740d00000000000000000000000000000000000000000000000000000000815260040161194d9190612513565b60405180910390fd5b846001806119648651611a1a565b61196e9190612638565b86866040516020016119849594939291906126db565b6040516020818303038152906040529150509392505050565b5f6119a782611020565b73ffffffffffffffffffffffffffffffffffffffff1663b2016bd46040518163ffffffff1660e01b8152600401602060405180830381865afa1580156119ef573d5f5f3e3d5ffd5b505050506040513d601f19601f82011682018060405250810190611a139190612123565b9050919050565b5f61ffff8016821115611a67576010826040517f6dfcc650000000000000000000000000000000000000000000000000000000008152600401611a5e929190612773565b60405180910390fd5b819050919050565b5f604051905090565b5f5ffd5b5f73ffffffffffffffffffffffffffffffffffffffff82169050919050565b5f611aa582611a7c565b9050919050565b611ab581611a9b565b8114611abf575f5ffd5b50565b5f81359050611ad081611aac565b92915050565b5f60208284031215611aeb57611aea611a78565b5b5f611af884828501611ac2565b91505092915050565b5f819050919050565b611b1381611b01565b82525050565b5f602082019050611b2c5f830184611b0a565b92915050565b5f63ffffffff82169050919050565b611b4a81611b32565b8114611b54575f5ffd5b50565b5f81359050611b6581611b41565b92915050565b611b7481611b01565b8114611b7e575f5ffd5b50565b5f81359050611b8f81611b6b565b92915050565b5f5f5f5f60808587031215611bad57611bac611a78565b5b5f611bba87828801611ac2565b9450506020611bcb87828801611b57565b9350506040611bdc87828801611ac2565b9250506060611bed87828801611b81565b91505092959194509250565b5f5f60408385031215611c0f57611c0e611a78565b5b5f611c1c85828601611ac2565b9250506020611c2d85828601611ac2565b9150509250929050565b5f5f5f5f60808587031215611c4f57611c4e611a78565b5b5f611c5c87828801611ac2565b9450506020611c6d87828801611ac2565b9350506040611c7e87828801611b81565b9250506060611c8f87828801611ac2565b91505092959194509250565b5f60a082019050611cae5f830188611b0a565b611cbb6020830187611b0a565b611cc86040830186611b0a565b611cd56060830185611b0a565b611ce26080830184611b0a565b9695505050505050565b611cf581611a9b565b82525050565b5f602082019050611d0e5f830184611cec565b92915050565b5f606082019050611d275f830186611b0a565b611d346020830185611b0a565b611d416040830184611b0a565b949350505050565b5f81519050611d5781611b6b565b92915050565b5f60208284031215611d7257611d71611a78565b5b5f611d7f84828501611d49565b91505092915050565b7f4e487b71000000000000000000000000000000000000000000000000000000005f52601160045260245ffd5b5f611dbf82611b01565b9150611dca83611b01565b9250828202611dd881611b01565b91508282048414831517611def57611dee611d88565b5b5092915050565b7f4e487b71000000000000000000000000000000000000000000000000000000005f52601260045260245ffd5b5f611e2d82611b01565b9150611e3883611b01565b925082611e4857611e47611df6565b5b828204905092915050565b5f611e5d82611b01565b9150611e6883611b01565b9250828201905080821115611e8057611e7f611d88565b5b92915050565b611e8f81611b32565b82525050565b5f819050919050565b611ea781611e95565b82525050565b611eb681611b01565b82525050565b5f81519050919050565b5f82825260208201905092915050565b8281835e5f83830152505050565b5f601f19601f8301169050919050565b5f611efe82611ebc565b611f088185611ec6565b9350611f18818560208601611ed6565b611f2181611ee4565b840191505092915050565b5f60e083015f830151611f415f860182611e86565b506020830151611f546020860182611e9e565b506040830151611f676040860182611ead565b506060830151611f7a6060860182611ead565b5060808301518482036080860152611f928282611ef4565b91505060a083015184820360a0860152611fac8282611ef4565b91505060c083015184820360c0860152611fc68282611ef4565b9150508091505092915050565b5f8115159050919050565b611fe781611fd3565b82525050565b5f6040820190508181035f8301526120058185611f2c565b90506120146020830184611fde565b9392505050565b5f5ffd5b7f4e487b71000000000000000000000000000000000000000000000000000000005f52604160045260245ffd5b61205582611ee4565b810181811067ffffffffffffffff821117156120745761207361201f565b5b80604052505050565b5f612086611a6f565b9050612092828261204c565b919050565b5f604082840312156120ac576120ab61201b565b5b6120b6604061207d565b90505f6120c584828501611d49565b5f8301525060206120d884828501611d49565b60208301525092915050565b5f604082840312156120f9576120f8611a78565b5b5f61210684828501612097565b91505092915050565b5f8151905061211d81611aac565b92915050565b5f6020828403121561213857612137611a78565b5b5f6121458482850161210f565b91505092915050565b5f60ff82169050919050565b6121638161214e565b811461216d575f5ffd5b50565b5f8151905061217e8161215a565b92915050565b5f6020828403121561219957612198611a78565b5b5f6121a684828501612170565b91505092915050565b5f8160011c9050919050565b5f5f8291508390505b6001851115612204578086048111156121e0576121df611d88565b5b60018516156121ef5780820291505b80810290506121fd856121af565b94506121c4565b94509492505050565b5f8261221c57600190506122d7565b81612229575f90506122d7565b816001811461223f576002811461224957612278565b60019150506122d7565b60ff84111561225b5761225a611d88565b5b8360020a91508482111561227257612271611d88565b5b506122d7565b5060208310610133831016604e8410600b84101617156122ad5782820a9050838111156122a8576122a7611d88565b5b6122d7565b6122ba84848460016121bb565b925090508184048111156122d1576122d0611d88565b5b81810290505b9392505050565b5f6122e882611b01565b91506122f383611b01565b92506123207fffffffffffffffffffffffffffffffffffffffffffffffffffffffffffffffff848461220d565b905092915050565b5f61233282611b01565b91507fffffffffffffffffffffffffffffffffffffffffffffffffffffffffffffffff820361236457612363611d88565b5b600182019050919050565b5f61237982611b01565b915061238483611b01565b925082820390508181111561239c5761239b611d88565b5b92915050565b5f60a0820190506123b55f830188611cec565b6123c26020830187611cec565b6123cf6040830186611b0a565b6123dc6060830185611cec565b6123e96080830184611cec565b9695505050505050565b5f69ffffffffffffffffffff82169050919050565b612411816123f3565b811461241b575f5ffd5b50565b5f8151905061242c81612408565b92915050565b5f5f5f5f5f60a0868803121561244b5761244a611a78565b5b5f6124588882890161241e565b955050602061246988828901611d49565b945050604061247a88828901611d49565b935050606061248b88828901611d49565b925050608061249c8882890161241e565b9150509295509295909350565b5f61ffff82169050919050565b5f8160f01b9050919050565b5f6124cc826124b6565b9050919050565b6124e46124df826124a9565b6124c2565b82525050565b5f6124f582846124d3565b60028201915081905092915050565b61250d816124a9565b82525050565b5f6020820190506125265f830184612504565b92915050565b5f82825260208201905092915050565b7f746f55696e7431365f6f75744f66426f756e64730000000000000000000000005f82015250565b5f61257060148361252c565b915061257b8261253c565b602082019050919050565b5f6020820190508181035f83015261259d81612564565b9050919050565b5f6fffffffffffffffffffffffffffffffff82169050919050565b5f8160801b9050919050565b5f6125d5826125bf565b9050919050565b6125ed6125e8826125a4565b6125cb565b82525050565b5f6125fe82856125dc565b60108201915061260e82846125dc565b6010820191508190509392505050565b5f61262982846125dc565b60108201915081905092915050565b5f612642826124a9565b915061264d836124a9565b9250828201905061ffff81111561266757612666611d88565b5b92915050565b5f81905092915050565b5f61268182611ebc565b61268b818561266d565b935061269b818560208601611ed6565b80840191505092915050565b5f8160f81b9050919050565b5f6126bd826126a7565b9050919050565b6126d56126d08261214e565b6126b3565b82525050565b5f6126e68288612677565b91506126f282876126c4565b60018201915061270282866124d3565b60028201915061271282856126c4565b6001820191506127228284612677565b91508190509695505050505050565b5f819050919050565b5f819050919050565b5f61275d61275861275384612731565b61273a565b61214e565b9050919050565b61276d81612743565b82525050565b5f6040820190506127865f830185612764565b6127936020830184611b0a565b939250505056fea26469706673582212202768ccac61f133b5cd2309710d0385103e9658a54bcac044ac57b984abf2a50f64736f6c634300081c0033","linkReferences":{}},"methodIdentifiers":{"factory()":"c45a0155","getAPY(address)":"c4f9870b","getBorrowAPY(address)":"2d27b824","getExchangeRate(address,address,uint256,address)":"7cff7d11","getFee(address,uint32,address,uint256)":"54ccb453","getHealthFactor(address,address)":"57c89a7d","getLendingPoolMetrics(address)":"c1dae576","getMaxBorrowAmount(address,address)":"59ad586f","getSupplyAPY(address)":"3842ea42","getTokenValue(address)":"f1c5d6c2","getUtilizationRate(address)":"7b6aa8bd","setFactory(address)":"5bb47808"},"id":124}