{"abi":[{"type":"constructor","inputs":[{"name":"_factory","type":"address","internalType":"address"}],"stateMutability":"nonpayable"},{"type":"function","name":"factory","inputs":[],"outputs":[{"name":"","type":"address","internalType":"address"}],"stateMutability":"view"},{"type":"function","name":"getCollateralBalance","inputs":[{"name":"_lendingPool","type":"address","internalType":"address"},{"name":"_user","type":"address","internalType":"address"}],"outputs":[{"name":"collateralBalance","type":"uint256","internalType":"uint256"}],"stateMutability":"view"},{"type":"function","name":"getExchangeRate","inputs":[{"name":"_tokenIn","type":"address","internalType":"address"},{"name":"_tokenOut","type":"address","internalType":"address"},{"name":"_amountIn","type":"uint256","internalType":"uint256"},{"name":"_position","type":"address","internalType":"address"}],"outputs":[{"name":"","type":"uint256","internalType":"uint256"}],"stateMutability":"view"},{"type":"function","name":"getFee","inputs":[{"name":"_oftAddress","type":"address","internalType":"address"},{"name":"_dstEid","type":"uint32","internalType":"uint32"},{"name":"_toAddress","type":"address","internalType":"address"},{"name":"_tokensToSend","type":"uint256","internalType":"uint256"}],"outputs":[{"name":"","type":"uint256","internalType":"uint256"}],"stateMutability":"view"},{"type":"function","name":"getHealthFactor","inputs":[{"name":"_lendingPool","type":"address","internalType":"address"},{"name":"_user","type":"address","internalType":"address"}],"outputs":[{"name":"","type":"uint256","internalType":"uint256"}],"stateMutability":"view"},{"type":"function","name":"getMaxBorrowAmount","inputs":[{"name":"_lendingPool","type":"address","internalType":"address"},{"name":"_user","type":"address","internalType":"address"}],"outputs":[{"name":"","type":"uint256","internalType":"uint256"}],"stateMutability":"view"},{"type":"function","name":"getRouter","inputs":[{"name":"_lendingPool","type":"address","internalType":"address"}],"outputs":[{"name":"","type":"address","internalType":"address"}],"stateMutability":"view"},{"type":"function","name":"getTokenValue","inputs":[{"name":"_token","type":"address","internalType":"address"}],"outputs":[{"name":"","type":"uint256","internalType":"uint256"}],"stateMutability":"view"},{"type":"function","name":"getTotalLiquidity","inputs":[{"name":"_lendingPool","type":"address","internalType":"address"}],"outputs":[{"name":"totalLiquidity","type":"uint256","internalType":"uint256"}],"stateMutability":"view"},{"type":"function","name":"setFactory","inputs":[{"name":"_factory","type":"address","internalType":"address"}],"outputs":[],"stateMutability":"nonpayable"},{"type":"error","name":"InvalidOptionType","inputs":[{"name":"optionType","type":"uint16","internalType":"uint16"}]},{"type":"error","name":"SafeCastOverflowedUintDowncast","inputs":[{"name":"bits","type":"uint8","internalType":"uint8"},{"name":"value","type":"uint256","internalType":"uint256"}]}],"bytecode":{"object":"0x608060405234801561000f575f5ffd5b506040516128f23803806128f2833981810160405281019061003191906100d4565b805f5f6101000a81548173ffffffffffffffffffffffffffffffffffffffff021916908373ffffffffffffffffffffffffffffffffffffffff160217905550506100ff565b5f5ffd5b5f73ffffffffffffffffffffffffffffffffffffffff82169050919050565b5f6100a38261007a565b9050919050565b6100b381610099565b81146100bd575f5ffd5b50565b5f815190506100ce816100aa565b92915050565b5f602082840312156100e9576100e8610076565b5b5f6100f6848285016100c0565b91505092915050565b6127e68061010c5f395ff3fe608060405234801561000f575f5ffd5b506004361061009c575f3560e01c80638369166d116100645780638369166d1461017c5780639de8ef79146101ac578063b7d5820b146101dc578063c45a01551461020c578063f1c5d6c21461022a5761009c565b806354ccb453146100a057806357c89a7d146100d057806359ad586f146101005780635bb47808146101305780637cff7d111461014c575b5f5ffd5b6100ba60048036038101906100b59190611bde565b61025a565b6040516100c79190611c51565b60405180910390f35b6100ea60048036038101906100e59190611c6a565b61036e565b6040516100f79190611c51565b60405180910390f35b61011a60048036038101906101159190611c6a565b610891565b6040516101279190611c51565b60405180910390f35b61014a60048036038101906101459190611ca8565b610a45565b005b61016660048036038101906101619190611cd3565b610a87565b6040516101739190611c51565b60405180910390f35b61019660048036038101906101919190611ca8565b610b31565b6040516101a39190611d46565b60405180910390f35b6101c660048036038101906101c19190611ca8565b610ba6565b6040516101d39190611c51565b60405180910390f35b6101f660048036038101906101f19190611c6a565b610d5a565b6040516102039190611c51565b60405180910390f35b610214610f93565b6040516102219190611d46565b60405180910390f35b610244600480360381019061023f9190611ca8565b610fb7565b6040516102519190611c51565b60405180910390f35b5f5f8590505f61027e61fde85f61026f611042565b61106a9092919063ffffffff16565b90505f6040518060e001604052808863ffffffff1681526020016102a188611102565b815260200186815260200186815260200183815260200160405180602001604052805f815250815260200160405180602001604052805f81525081525090505f8373ffffffffffffffffffffffffffffffffffffffff16633b6f743b835f6040518363ffffffff1660e01b815260040161031c929190611ec6565b6040805180830381865afa158015610336573d5f5f3e3d5ffd5b505050506040513d601f19601f8201168201806040525081019061035a9190611fd1565b9050805f0151945050505050949350505050565b5f5f61037a8484611123565b90505f61038785856111ac565b90505f61039386611235565b90505f61039f876112b2565b90505f6103ab8861132f565b90505f84036103c25760459550505050505061088b565b5f73ffffffffffffffffffffffffffffffffffffffff168573ffffffffffffffffffffffffffffffffffffffff160361040457611b399550505050505061088b565b5f5f90505f8673ffffffffffffffffffffffffffffffffffffffff166361bc221a6040518163ffffffff1660e01b8152600401602060405180830381865afa158015610452573d5f5f3e3d5ffd5b505050506040513d601f19601f820116820180604052508101906104769190611ffc565b90505f600190505b818111610735575f8873ffffffffffffffffffffffffffffffffffffffff16631cb928a9836040518263ffffffff1660e01b81526004016104bf9190611c51565b602060405180830381865afa1580156104da573d5f5f3e3d5ffd5b505050506040513d601f19601f820116820180604052508101906104fe919061203b565b90505f5f61050a6113ac565b73ffffffffffffffffffffffffffffffffffffffff168373ffffffffffffffffffffffffffffffffffffffff16036105c6576105446113ac565b73ffffffffffffffffffffffffffffffffffffffff166370a082318c6040518263ffffffff1660e01b815260040161057c9190611d46565b602060405180830381865afa158015610597573d5f5f3e3d5ffd5b505050506040513d601f19601f820116820180604052508101906105bb9190611ffc565b9150601290506106b3565b8273ffffffffffffffffffffffffffffffffffffffff166370a082318c6040518263ffffffff1660e01b81526004016105ff9190611d46565b602060405180830381865afa15801561061a573d5f5f3e3d5ffd5b505050506040513d601f19601f8201168201806040525081019061063e9190611ffc565b91508273ffffffffffffffffffffffffffffffffffffffff1663313ce5676040518163ffffffff1660e01b8152600401602060405180830381865afa158015610689573d5f5f3e3d5ffd5b505050506040513d601f19601f820116820180604052508101906106ad919061209c565b60ff1690505b5f73ffffffffffffffffffffffffffffffffffffffff168373ffffffffffffffffffffffffffffffffffffffff161461071f5780600a6106f39190612223565b826106fd85610fb7565b610707919061226d565b61071191906122db565b8661071c919061230b565b95505b505050808061072d9061233e565b91505061047e565b505f848688610744919061226d565b61074e91906122db565b90505f6107596113ac565b73ffffffffffffffffffffffffffffffffffffffff168573ffffffffffffffffffffffffffffffffffffffff16146107fd578473ffffffffffffffffffffffffffffffffffffffff1663313ce5676040518163ffffffff1660e01b8152600401602060405180830381865afa1580156107d4573d5f5f3e3d5ffd5b505050506040513d601f19601f820116820180604052508101906107f8919061209c565b610800565b60125b60ff1690505f81600a6108139190612223565b8361081d88610fb7565b610827919061226d565b61083191906122db565b90505f61083d8e61143f565b90505f82670de0b6b3a76400006305f5e1008461085a919061226d565b61086491906122db565b8861086f919061226d565b61087991906122db565b9050809c505050505050505050505050505b92915050565b5f5f61089c8461132f565b90505f6108a76113ac565b73ffffffffffffffffffffffffffffffffffffffff168273ffffffffffffffffffffffffffffffffffffffff160361095f576108e16113ac565b73ffffffffffffffffffffffffffffffffffffffff166370a08231866040518263ffffffff1660e01b81526004016109199190611d46565b602060405180830381865afa158015610934573d5f5f3e3d5ffd5b505050506040513d601f19601f820116820180604052508101906109589190611ffc565b90506109da565b8173ffffffffffffffffffffffffffffffffffffffff166370a08231866040518263ffffffff1660e01b81526004016109989190611d46565b602060405180830381865afa1580156109b3573d5f5f3e3d5ffd5b505050506040513d601f19601f820116820180604052508101906109d79190611ffc565b90505b5f6109e586866114bc565b90505f6109f287876116c9565b90505f81670de0b6b3a7640000610a088a61143f565b85610a13919061226d565b610a1d91906122db565b610a279190612385565b9050838110610a365783610a38565b805b9550505050505092915050565b805f5f6101000a81548173ffffffffffffffffffffffffffffffffffffffff021916908373ffffffffffffffffffffffffffffffffffffffff16021790555050565b5f5f610a928661171f565b90505f610a9e8661171f565b90505f8473ffffffffffffffffffffffffffffffffffffffff1663dd9103cb89898987876040518663ffffffff1660e01b8152600401610ae29594939291906123b8565b602060405180830381865afa158015610afd573d5f5f3e3d5ffd5b505050506040513d601f19601f82011682018060405250810190610b219190611ffc565b9050809350505050949350505050565b5f8173ffffffffffffffffffffffffffffffffffffffff1663f887ea406040518163ffffffff1660e01b8152600401602060405180830381865afa158015610b7b573d5f5f3e3d5ffd5b505050506040513d601f19601f82011682018060405250810190610b9f919061203b565b9050919050565b5f5f610bb1836117a6565b73ffffffffffffffffffffffffffffffffffffffff1663456dc17a6040518163ffffffff1660e01b8152600401602060405180830381865afa158015610bf9573d5f5f3e3d5ffd5b505050506040513d601f19601f82011682018060405250810190610c1d919061203b565b9050600173ffffffffffffffffffffffffffffffffffffffff168173ffffffffffffffffffffffffffffffffffffffff1603610cd957610c5b6113ac565b73ffffffffffffffffffffffffffffffffffffffff166370a08231846040518263ffffffff1660e01b8152600401610c939190611d46565b602060405180830381865afa158015610cae573d5f5f3e3d5ffd5b505050506040513d601f19601f82011682018060405250810190610cd29190611ffc565b9150610d54565b8073ffffffffffffffffffffffffffffffffffffffff166370a08231846040518263ffffffff1660e01b8152600401610d129190611d46565b602060405180830381865afa158015610d2d573d5f5f3e3d5ffd5b505050506040513d601f19601f82011682018060405250810190610d519190611ffc565b91505b50919050565b5f5f610d65846117a6565b73ffffffffffffffffffffffffffffffffffffffff1663b2016bd46040518163ffffffff1660e01b8152600401602060405180830381865afa158015610dad573d5f5f3e3d5ffd5b505050506040513d601f19601f82011682018060405250810190610dd1919061203b565b90505f610ddd856117a6565b73ffffffffffffffffffffffffffffffffffffffff1663f79c3800856040518263ffffffff1660e01b8152600401610e159190611d46565b602060405180830381865afa158015610e30573d5f5f3e3d5ffd5b505050506040513d601f19601f82011682018060405250810190610e54919061203b565b9050600173ffffffffffffffffffffffffffffffffffffffff168273ffffffffffffffffffffffffffffffffffffffff1603610f1057610e926113ac565b73ffffffffffffffffffffffffffffffffffffffff166370a08231826040518263ffffffff1660e01b8152600401610eca9190611d46565b602060405180830381865afa158015610ee5573d5f5f3e3d5ffd5b505050506040513d601f19601f82011682018060405250810190610f099190611ffc565b9250610f8b565b8173ffffffffffffffffffffffffffffffffffffffff166370a08231826040518263ffffffff1660e01b8152600401610f499190611d46565b602060405180830381865afa158015610f64573d5f5f3e3d5ffd5b505050506040513d601f19601f82011682018060405250810190610f889190611ffc565b92505b505092915050565b5f5f9054906101000a900473ffffffffffffffffffffffffffffffffffffffff1681565b5f5f610fc28361171f565b90505f8173ffffffffffffffffffffffffffffffffffffffff1663feaf968c6040518163ffffffff1660e01b815260040160a060405180830381865afa15801561100e573d5f5f3e3d5ffd5b505050506040513d601f19601f820116820180604052508101906110329190612448565b5050509150508092505050919050565b606060036040516020016110569190612500565b604051602081830303815290604052905090565b606083600361ffff166110865f8361181b90919063ffffffff16565b61ffff16146110de576110a25f8261181b90919063ffffffff16565b6040517f3a51740d0000000000000000000000000000000000000000000000000000000081526004016110d59190612529565b60405180910390fd5b5f6110e98585611880565b90506110f7866001836118eb565b925050509392505050565b5f8173ffffffffffffffffffffffffffffffffffffffff165f1b9050919050565b5f61112d836117a6565b73ffffffffffffffffffffffffffffffffffffffff1663f79c3800836040518263ffffffff1660e01b81526004016111659190611d46565b602060405180830381865afa158015611180573d5f5f3e3d5ffd5b505050506040513d601f19601f820116820180604052508101906111a4919061203b565b905092915050565b5f6111b6836117a6565b73ffffffffffffffffffffffffffffffffffffffff16634fd422df836040518263ffffffff1660e01b81526004016111ee9190611d46565b602060405180830381865afa158015611209573d5f5f3e3d5ffd5b505050506040513d601f19601f8201168201806040525081019061122d9190611ffc565b905092915050565b5f61123f826117a6565b73ffffffffffffffffffffffffffffffffffffffff16631aad44c26040518163ffffffff1660e01b8152600401602060405180830381865afa158015611287573d5f5f3e3d5ffd5b505050506040513d601f19601f820116820180604052508101906112ab9190611ffc565b9050919050565b5f6112bc826117a6565b73ffffffffffffffffffffffffffffffffffffffff1663136cf1f76040518163ffffffff1660e01b8152600401602060405180830381865afa158015611304573d5f5f3e3d5ffd5b505050506040513d601f19601f820116820180604052508101906113289190611ffc565b9050919050565b5f611339826117a6565b73ffffffffffffffffffffffffffffffffffffffff1663456dc17a6040518163ffffffff1660e01b8152600401602060405180830381865afa158015611381573d5f5f3e3d5ffd5b505050506040513d601f19601f820116820180604052508101906113a5919061203b565b9050919050565b5f5f5f9054906101000a900473ffffffffffffffffffffffffffffffffffffffff1673ffffffffffffffffffffffffffffffffffffffff1663eb6d3a116040518163ffffffff1660e01b8152600401602060405180830381865afa158015611416573d5f5f3e3d5ffd5b505050506040513d601f19601f8201168201806040525081019061143a919061203b565b905090565b5f611449826117a6565b73ffffffffffffffffffffffffffffffffffffffff16636fb49d736040518163ffffffff1660e01b8152600401602060405180830381865afa158015611491573d5f5f3e3d5ffd5b505050506040513d601f19601f820116820180604052508101906114b59190611ffc565b9050919050565b5f5f6114c7846119a6565b90505f6114d38561132f565b90505f6114e08686611123565b90505f6114ec8461171f565b90505f6114f88461171f565b90505f6115036113ac565b73ffffffffffffffffffffffffffffffffffffffff168673ffffffffffffffffffffffffffffffffffffffff16036115bb5761153d6113ac565b73ffffffffffffffffffffffffffffffffffffffff166370a08231856040518263ffffffff1660e01b81526004016115759190611d46565b602060405180830381865afa158015611590573d5f5f3e3d5ffd5b505050506040513d601f19601f820116820180604052508101906115b49190611ffc565b9050611636565b8573ffffffffffffffffffffffffffffffffffffffff166370a08231856040518263ffffffff1660e01b81526004016115f49190611d46565b602060405180830381865afa15801561160f573d5f5f3e3d5ffd5b505050506040513d601f19601f820116820180604052508101906116339190611ffc565b90505b5f8490508073ffffffffffffffffffffffffffffffffffffffff1663dd9103cb88888588886040518663ffffffff1660e01b815260040161167b9594939291906123b8565b602060405180830381865afa158015611696573d5f5f3e3d5ffd5b505050506040513d601f19601f820116820180604052508101906116ba9190611ffc565b97505050505050505092915050565b5f5f6116d484611235565b90505f6116e0856112b2565b90505f6116ed86866111ac565b90505f831461171257818382611703919061226d565b61170d91906122db565b611714565b5f5b935050505092915050565b5f611728611a23565b73ffffffffffffffffffffffffffffffffffffffff16639878cbb3836040518263ffffffff1660e01b81526004016117609190611d46565b602060405180830381865afa15801561177b573d5f5f3e3d5ffd5b505050506040513d601f19601f8201168201806040525081019061179f919061203b565b9050919050565b5f8173ffffffffffffffffffffffffffffffffffffffff1663f887ea406040518163ffffffff1660e01b8152600401602060405180830381865afa1580156117f0573d5f5f3e3d5ffd5b505050506040513d601f19601f82011682018060405250810190611814919061203b565b9050919050565b5f600282611829919061230b565b8351101561186c576040517f08c379a00000000000000000000000000000000000000000000000000000000081526004016118639061259c565b60405180910390fd5b5f8260028501015190508091505092915050565b60605f826fffffffffffffffffffffffffffffffff16146118c25782826040516020016118ae929190612609565b6040516020818303038152906040526118e3565b826040516020016118d39190612634565b6040516020818303038152906040525b905092915050565b606083600361ffff166119075f8361181b90919063ffffffff16565b61ffff161461195f576119235f8261181b90919063ffffffff16565b6040517f3a51740d0000000000000000000000000000000000000000000000000000000081526004016119569190612529565b60405180910390fd5b8460018061196d8651611ab6565b611977919061264e565b868660405160200161198d9594939291906126f1565b6040516020818303038152906040529150509392505050565b5f6119b0826117a6565b73ffffffffffffffffffffffffffffffffffffffff1663b2016bd46040518163ffffffff1660e01b8152600401602060405180830381865afa1580156119f8573d5f5f3e3d5ffd5b505050506040513d601f19601f82011682018060405250810190611a1c919061203b565b9050919050565b5f5f5f9054906101000a900473ffffffffffffffffffffffffffffffffffffffff1673ffffffffffffffffffffffffffffffffffffffff166375b568a66040518163ffffffff1660e01b8152600401602060405180830381865afa158015611a8d573d5f5f3e3d5ffd5b505050506040513d601f19601f82011682018060405250810190611ab1919061203b565b905090565b5f61ffff8016821115611b03576010826040517f6dfcc650000000000000000000000000000000000000000000000000000000008152600401611afa929190612789565b60405180910390fd5b819050919050565b5f604051905090565b5f5ffd5b5f73ffffffffffffffffffffffffffffffffffffffff82169050919050565b5f611b4182611b18565b9050919050565b611b5181611b37565b8114611b5b575f5ffd5b50565b5f81359050611b6c81611b48565b92915050565b5f63ffffffff82169050919050565b611b8a81611b72565b8114611b94575f5ffd5b50565b5f81359050611ba581611b81565b92915050565b5f819050919050565b611bbd81611bab565b8114611bc7575f5ffd5b50565b5f81359050611bd881611bb4565b92915050565b5f5f5f5f60808587031215611bf657611bf5611b14565b5b5f611c0387828801611b5e565b9450506020611c1487828801611b97565b9350506040611c2587828801611b5e565b9250506060611c3687828801611bca565b91505092959194509250565b611c4b81611bab565b82525050565b5f602082019050611c645f830184611c42565b92915050565b5f5f60408385031215611c8057611c7f611b14565b5b5f611c8d85828601611b5e565b9250506020611c9e85828601611b5e565b9150509250929050565b5f60208284031215611cbd57611cbc611b14565b5b5f611cca84828501611b5e565b91505092915050565b5f5f5f5f60808587031215611ceb57611cea611b14565b5b5f611cf887828801611b5e565b9450506020611d0987828801611b5e565b9350506040611d1a87828801611bca565b9250506060611d2b87828801611b5e565b91505092959194509250565b611d4081611b37565b82525050565b5f602082019050611d595f830184611d37565b92915050565b611d6881611b72565b82525050565b5f819050919050565b611d8081611d6e565b82525050565b611d8f81611bab565b82525050565b5f81519050919050565b5f82825260208201905092915050565b8281835e5f83830152505050565b5f601f19601f8301169050919050565b5f611dd782611d95565b611de18185611d9f565b9350611df1818560208601611daf565b611dfa81611dbd565b840191505092915050565b5f60e083015f830151611e1a5f860182611d5f565b506020830151611e2d6020860182611d77565b506040830151611e406040860182611d86565b506060830151611e536060860182611d86565b5060808301518482036080860152611e6b8282611dcd565b91505060a083015184820360a0860152611e858282611dcd565b91505060c083015184820360c0860152611e9f8282611dcd565b9150508091505092915050565b5f8115159050919050565b611ec081611eac565b82525050565b5f6040820190508181035f830152611ede8185611e05565b9050611eed6020830184611eb7565b9392505050565b5f5ffd5b7f4e487b71000000000000000000000000000000000000000000000000000000005f52604160045260245ffd5b611f2e82611dbd565b810181811067ffffffffffffffff82111715611f4d57611f4c611ef8565b5b80604052505050565b5f611f5f611b0b565b9050611f6b8282611f25565b919050565b5f81519050611f7e81611bb4565b92915050565b5f60408284031215611f9957611f98611ef4565b5b611fa36040611f56565b90505f611fb284828501611f70565b5f830152506020611fc584828501611f70565b60208301525092915050565b5f60408284031215611fe657611fe5611b14565b5b5f611ff384828501611f84565b91505092915050565b5f6020828403121561201157612010611b14565b5b5f61201e84828501611f70565b91505092915050565b5f8151905061203581611b48565b92915050565b5f602082840312156120505761204f611b14565b5b5f61205d84828501612027565b91505092915050565b5f60ff82169050919050565b61207b81612066565b8114612085575f5ffd5b50565b5f8151905061209681612072565b92915050565b5f602082840312156120b1576120b0611b14565b5b5f6120be84828501612088565b91505092915050565b7f4e487b71000000000000000000000000000000000000000000000000000000005f52601160045260245ffd5b5f8160011c9050919050565b5f5f8291508390505b600185111561214957808604811115612125576121246120c7565b5b60018516156121345780820291505b8081029050612142856120f4565b9450612109565b94509492505050565b5f82612161576001905061221c565b8161216e575f905061221c565b8160018114612184576002811461218e576121bd565b600191505061221c565b60ff8411156121a05761219f6120c7565b5b8360020a9150848211156121b7576121b66120c7565b5b5061221c565b5060208310610133831016604e8410600b84101617156121f25782820a9050838111156121ed576121ec6120c7565b5b61221c565b6121ff8484846001612100565b92509050818404811115612216576122156120c7565b5b81810290505b9392505050565b5f61222d82611bab565b915061223883611bab565b92506122657fffffffffffffffffffffffffffffffffffffffffffffffffffffffffffffffff8484612152565b905092915050565b5f61227782611bab565b915061228283611bab565b925082820261229081611bab565b915082820484148315176122a7576122a66120c7565b5b5092915050565b7f4e487b71000000000000000000000000000000000000000000000000000000005f52601260045260245ffd5b5f6122e582611bab565b91506122f083611bab565b925082612300576122ff6122ae565b5b828204905092915050565b5f61231582611bab565b915061232083611bab565b9250828201905080821115612338576123376120c7565b5b92915050565b5f61234882611bab565b91507fffffffffffffffffffffffffffffffffffffffffffffffffffffffffffffffff820361237a576123796120c7565b5b600182019050919050565b5f61238f82611bab565b915061239a83611bab565b92508282039050818111156123b2576123b16120c7565b5b92915050565b5f60a0820190506123cb5f830188611d37565b6123d86020830187611d37565b6123e56040830186611c42565b6123f26060830185611d37565b6123ff6080830184611d37565b9695505050505050565b5f69ffffffffffffffffffff82169050919050565b61242781612409565b8114612431575f5ffd5b50565b5f815190506124428161241e565b92915050565b5f5f5f5f5f60a0868803121561246157612460611b14565b5b5f61246e88828901612434565b955050602061247f88828901611f70565b945050604061249088828901611f70565b93505060606124a188828901611f70565b92505060806124b288828901612434565b9150509295509295909350565b5f61ffff82169050919050565b5f8160f01b9050919050565b5f6124e2826124cc565b9050919050565b6124fa6124f5826124bf565b6124d8565b82525050565b5f61250b82846124e9565b60028201915081905092915050565b612523816124bf565b82525050565b5f60208201905061253c5f83018461251a565b92915050565b5f82825260208201905092915050565b7f746f55696e7431365f6f75744f66426f756e64730000000000000000000000005f82015250565b5f612586601483612542565b915061259182612552565b602082019050919050565b5f6020820190508181035f8301526125b38161257a565b9050919050565b5f6fffffffffffffffffffffffffffffffff82169050919050565b5f8160801b9050919050565b5f6125eb826125d5565b9050919050565b6126036125fe826125ba565b6125e1565b82525050565b5f61261482856125f2565b60108201915061262482846125f2565b6010820191508190509392505050565b5f61263f82846125f2565b60108201915081905092915050565b5f612658826124bf565b9150612663836124bf565b9250828201905061ffff81111561267d5761267c6120c7565b5b92915050565b5f81905092915050565b5f61269782611d95565b6126a18185612683565b93506126b1818560208601611daf565b80840191505092915050565b5f8160f81b9050919050565b5f6126d3826126bd565b9050919050565b6126eb6126e682612066565b6126c9565b82525050565b5f6126fc828861268d565b915061270882876126da565b60018201915061271882866124e9565b60028201915061272882856126da565b600182019150612738828461268d565b91508190509695505050505050565b5f819050919050565b5f819050919050565b5f61277361276e61276984612747565b612750565b612066565b9050919050565b61278381612759565b82525050565b5f60408201905061279c5f83018561277a565b6127a96020830184611c42565b939250505056fea2646970667358221220198aab1b260fe7cf8a8bcb17ae201335bc7e603d7ea94f5b2b3063560654186f64736f6c634300081e0033","linkReferences":{}},"methodIdentifiers":{"factory()":"c45a0155","getCollateralBalance(address,address)":"b7d5820b","getExchangeRate(address,address,uint256,address)":"7cff7d11","getFee(address,uint32,address,uint256)":"54ccb453","getHealthFactor(address,address)":"57c89a7d","getMaxBorrowAmount(address,address)":"59ad586f","getRouter(address)":"8369166d","getTokenValue(address)":"f1c5d6c2","getTotalLiquidity(address)":"9de8ef79","setFactory(address)":"5bb47808"},"id":99}