{"abi":[{"type":"constructor","inputs":[{"name":"_factory","type":"address","internalType":"address"}],"stateMutability":"nonpayable"},{"type":"function","name":"factory","inputs":[],"outputs":[{"name":"","type":"address","internalType":"address"}],"stateMutability":"view"},{"type":"function","name":"getExchangeRate","inputs":[{"name":"_tokenIn","type":"address","internalType":"address"},{"name":"_tokenOut","type":"address","internalType":"address"},{"name":"_amountIn","type":"uint256","internalType":"uint256"},{"name":"_position","type":"address","internalType":"address"}],"outputs":[{"name":"","type":"uint256","internalType":"uint256"}],"stateMutability":"view"},{"type":"function","name":"getFee","inputs":[{"name":"_oftAddress","type":"address","internalType":"address"},{"name":"_dstEid","type":"uint32","internalType":"uint32"},{"name":"_toAddress","type":"address","internalType":"address"},{"name":"_tokensToSend","type":"uint256","internalType":"uint256"}],"outputs":[{"name":"","type":"uint256","internalType":"uint256"}],"stateMutability":"view"},{"type":"function","name":"getHealthFactor","inputs":[{"name":"_lendingPool","type":"address","internalType":"address"},{"name":"_user","type":"address","internalType":"address"}],"outputs":[{"name":"","type":"uint256","internalType":"uint256"}],"stateMutability":"view"},{"type":"function","name":"getMaxBorrowAmount","inputs":[{"name":"_lendingPool","type":"address","internalType":"address"},{"name":"_user","type":"address","internalType":"address"}],"outputs":[{"name":"","type":"uint256","internalType":"uint256"}],"stateMutability":"view"},{"type":"function","name":"getTokenValue","inputs":[{"name":"_token","type":"address","internalType":"address"}],"outputs":[{"name":"","type":"uint256","internalType":"uint256"}],"stateMutability":"view"},{"type":"function","name":"setFactory","inputs":[{"name":"_factory","type":"address","internalType":"address"}],"outputs":[],"stateMutability":"nonpayable"},{"type":"error","name":"InvalidOptionType","inputs":[{"name":"optionType","type":"uint16","internalType":"uint16"}]},{"type":"error","name":"SafeCastOverflowedUintDowncast","inputs":[{"name":"bits","type":"uint8","internalType":"uint8"},{"name":"value","type":"uint256","internalType":"uint256"}]}],"bytecode":{"object":"0x608060405234801561000f575f5ffd5b50604051612365380380612365833981810160405281019061003191906100d4565b805f5f6101000a81548173ffffffffffffffffffffffffffffffffffffffff021916908373ffffffffffffffffffffffffffffffffffffffff160217905550506100ff565b5f5ffd5b5f73ffffffffffffffffffffffffffffffffffffffff82169050919050565b5f6100a38261007a565b9050919050565b6100b381610099565b81146100bd575f5ffd5b50565b5f815190506100ce816100aa565b92915050565b5f602082840312156100e9576100e8610076565b5b5f6100f6848285016100c0565b91505092915050565b6122598061010c5f395ff3fe608060405234801561000f575f5ffd5b506004361061007b575f3560e01c80635bb47808116100595780635bb478081461010f5780637cff7d111461012b578063c45a01551461015b578063f1c5d6c2146101795761007b565b806354ccb4531461007f57806357c89a7d146100af57806359ad586f146100df575b5f5ffd5b61009960048036038101906100949190611651565b6101a9565b6040516100a691906116c4565b60405180910390f35b6100c960048036038101906100c491906116dd565b6102bd565b6040516100d691906116c4565b60405180910390f35b6100f960048036038101906100f491906116dd565b6107e0565b60405161010691906116c4565b60405180910390f35b6101296004803603810190610124919061171b565b610994565b005b61014560048036038101906101409190611746565b6109d6565b60405161015291906116c4565b60405180910390f35b610163610a80565b60405161017091906117b9565b60405180910390f35b610193600480360381019061018e919061171b565b610aa4565b6040516101a091906116c4565b60405180910390f35b5f5f8590505f6101cd61fde85f6101be610b2f565b610b579092919063ffffffff16565b90505f6040518060e001604052808863ffffffff1681526020016101f088610bef565b815260200186815260200186815260200183815260200160405180602001604052805f815250815260200160405180602001604052805f81525081525090505f8373ffffffffffffffffffffffffffffffffffffffff16633b6f743b835f6040518363ffffffff1660e01b815260040161026b929190611939565b6040805180830381865afa158015610285573d5f5f3e3d5ffd5b505050506040513d601f19601f820116820180604052508101906102a99190611a44565b9050805f0151945050505050949350505050565b5f5f6102c98484610c10565b90505f6102d68585610c99565b90505f6102e286610d22565b90505f6102ee87610d9f565b90505f6102fa88610e1c565b90505f8403610311576045955050505050506107da565b5f73ffffffffffffffffffffffffffffffffffffffff168573ffffffffffffffffffffffffffffffffffffffff160361035357611b39955050505050506107da565b5f5f90505f8673ffffffffffffffffffffffffffffffffffffffff166361bc221a6040518163ffffffff1660e01b8152600401602060405180830381865afa1580156103a1573d5f5f3e3d5ffd5b505050506040513d601f19601f820116820180604052508101906103c59190611a6f565b90505f600190505b818111610684575f8873ffffffffffffffffffffffffffffffffffffffff16631cb928a9836040518263ffffffff1660e01b815260040161040e91906116c4565b602060405180830381865afa158015610429573d5f5f3e3d5ffd5b505050506040513d601f19601f8201168201806040525081019061044d9190611aae565b90505f5f610459610e99565b73ffffffffffffffffffffffffffffffffffffffff168373ffffffffffffffffffffffffffffffffffffffff160361051557610493610e99565b73ffffffffffffffffffffffffffffffffffffffff166370a082318c6040518263ffffffff1660e01b81526004016104cb91906117b9565b602060405180830381865afa1580156104e6573d5f5f3e3d5ffd5b505050506040513d601f19601f8201168201806040525081019061050a9190611a6f565b915060129050610602565b8273ffffffffffffffffffffffffffffffffffffffff166370a082318c6040518263ffffffff1660e01b815260040161054e91906117b9565b602060405180830381865afa158015610569573d5f5f3e3d5ffd5b505050506040513d601f19601f8201168201806040525081019061058d9190611a6f565b91508273ffffffffffffffffffffffffffffffffffffffff1663313ce5676040518163ffffffff1660e01b8152600401602060405180830381865afa1580156105d8573d5f5f3e3d5ffd5b505050506040513d601f19601f820116820180604052508101906105fc9190611b0f565b60ff1690505b5f73ffffffffffffffffffffffffffffffffffffffff168373ffffffffffffffffffffffffffffffffffffffff161461066e5780600a6106429190611c96565b8261064c85610aa4565b6106569190611ce0565b6106609190611d4e565b8661066b9190611d7e565b95505b505050808061067c90611db1565b9150506103cd565b505f8486886106939190611ce0565b61069d9190611d4e565b90505f6106a8610e99565b73ffffffffffffffffffffffffffffffffffffffff168573ffffffffffffffffffffffffffffffffffffffff161461074c578473ffffffffffffffffffffffffffffffffffffffff1663313ce5676040518163ffffffff1660e01b8152600401602060405180830381865afa158015610723573d5f5f3e3d5ffd5b505050506040513d601f19601f820116820180604052508101906107479190611b0f565b61074f565b60125b60ff1690505f81600a6107629190611c96565b8361076c88610aa4565b6107769190611ce0565b6107809190611d4e565b90505f61078c8e610f2c565b90505f82670de0b6b3a76400006305f5e100846107a99190611ce0565b6107b39190611d4e565b886107be9190611ce0565b6107c89190611d4e565b9050809c505050505050505050505050505b92915050565b5f5f6107eb84610e1c565b90505f6107f6610e99565b73ffffffffffffffffffffffffffffffffffffffff168273ffffffffffffffffffffffffffffffffffffffff16036108ae57610830610e99565b73ffffffffffffffffffffffffffffffffffffffff166370a08231866040518263ffffffff1660e01b815260040161086891906117b9565b602060405180830381865afa158015610883573d5f5f3e3d5ffd5b505050506040513d601f19601f820116820180604052508101906108a79190611a6f565b9050610929565b8173ffffffffffffffffffffffffffffffffffffffff166370a08231866040518263ffffffff1660e01b81526004016108e791906117b9565b602060405180830381865afa158015610902573d5f5f3e3d5ffd5b505050506040513d601f19601f820116820180604052508101906109269190611a6f565b90505b5f6109348686610fa9565b90505f61094187876111b6565b90505f81670de0b6b3a76400006109578a610f2c565b856109629190611ce0565b61096c9190611d4e565b6109769190611df8565b90508381106109855783610987565b805b9550505050505092915050565b805f5f6101000a81548173ffffffffffffffffffffffffffffffffffffffff021916908373ffffffffffffffffffffffffffffffffffffffff16021790555050565b5f5f6109e18661120c565b90505f6109ed8661120c565b90505f8473ffffffffffffffffffffffffffffffffffffffff1663dd9103cb89898987876040518663ffffffff1660e01b8152600401610a31959493929190611e2b565b602060405180830381865afa158015610a4c573d5f5f3e3d5ffd5b505050506040513d601f19601f82011682018060405250810190610a709190611a6f565b9050809350505050949350505050565b5f5f9054906101000a900473ffffffffffffffffffffffffffffffffffffffff1681565b5f5f610aaf8361120c565b90505f8173ffffffffffffffffffffffffffffffffffffffff1663feaf968c6040518163ffffffff1660e01b815260040160a060405180830381865afa158015610afb573d5f5f3e3d5ffd5b505050506040513d601f19601f82011682018060405250810190610b1f9190611ebb565b5050509150508092505050919050565b60606003604051602001610b439190611f73565b604051602081830303815290604052905090565b606083600361ffff16610b735f836112ac90919063ffffffff16565b61ffff1614610bcb57610b8f5f826112ac90919063ffffffff16565b6040517f3a51740d000000000000000000000000000000000000000000000000000000008152600401610bc29190611f9c565b60405180910390fd5b5f610bd68585611311565b9050610be48660018361137c565b925050509392505050565b5f8173ffffffffffffffffffffffffffffffffffffffff165f1b9050919050565b5f610c1a83611437565b73ffffffffffffffffffffffffffffffffffffffff1663f79c3800836040518263ffffffff1660e01b8152600401610c5291906117b9565b602060405180830381865afa158015610c6d573d5f5f3e3d5ffd5b505050506040513d601f19601f82011682018060405250810190610c919190611aae565b905092915050565b5f610ca383611437565b73ffffffffffffffffffffffffffffffffffffffff16634fd422df836040518263ffffffff1660e01b8152600401610cdb91906117b9565b602060405180830381865afa158015610cf6573d5f5f3e3d5ffd5b505050506040513d601f19601f82011682018060405250810190610d1a9190611a6f565b905092915050565b5f610d2c82611437565b73ffffffffffffffffffffffffffffffffffffffff16631aad44c26040518163ffffffff1660e01b8152600401602060405180830381865afa158015610d74573d5f5f3e3d5ffd5b505050506040513d601f19601f82011682018060405250810190610d989190611a6f565b9050919050565b5f610da982611437565b73ffffffffffffffffffffffffffffffffffffffff1663136cf1f76040518163ffffffff1660e01b8152600401602060405180830381865afa158015610df1573d5f5f3e3d5ffd5b505050506040513d601f19601f82011682018060405250810190610e159190611a6f565b9050919050565b5f610e2682611437565b73ffffffffffffffffffffffffffffffffffffffff1663456dc17a6040518163ffffffff1660e01b8152600401602060405180830381865afa158015610e6e573d5f5f3e3d5ffd5b505050506040513d601f19601f82011682018060405250810190610e929190611aae565b9050919050565b5f5f5f9054906101000a900473ffffffffffffffffffffffffffffffffffffffff1673ffffffffffffffffffffffffffffffffffffffff1663145d51d86040518163ffffffff1660e01b8152600401602060405180830381865afa158015610f03573d5f5f3e3d5ffd5b505050506040513d601f19601f82011682018060405250810190610f279190611aae565b905090565b5f610f3682611437565b73ffffffffffffffffffffffffffffffffffffffff16636fb49d736040518163ffffffff1660e01b8152600401602060405180830381865afa158015610f7e573d5f5f3e3d5ffd5b505050506040513d601f19601f82011682018060405250810190610fa29190611a6f565b9050919050565b5f5f610fb4846114ac565b90505f610fc085610e1c565b90505f610fcd8686610c10565b90505f610fd98461120c565b90505f610fe58461120c565b90505f610ff0610e99565b73ffffffffffffffffffffffffffffffffffffffff168673ffffffffffffffffffffffffffffffffffffffff16036110a85761102a610e99565b73ffffffffffffffffffffffffffffffffffffffff166370a08231856040518263ffffffff1660e01b815260040161106291906117b9565b602060405180830381865afa15801561107d573d5f5f3e3d5ffd5b505050506040513d601f19601f820116820180604052508101906110a19190611a6f565b9050611123565b8573ffffffffffffffffffffffffffffffffffffffff166370a08231856040518263ffffffff1660e01b81526004016110e191906117b9565b602060405180830381865afa1580156110fc573d5f5f3e3d5ffd5b505050506040513d601f19601f820116820180604052508101906111209190611a6f565b90505b5f8490508073ffffffffffffffffffffffffffffffffffffffff1663dd9103cb88888588886040518663ffffffff1660e01b8152600401611168959493929190611e2b565b602060405180830381865afa158015611183573d5f5f3e3d5ffd5b505050506040513d601f19601f820116820180604052508101906111a79190611a6f565b97505050505050505092915050565b5f5f6111c184610d22565b90505f6111cd85610d9f565b90505f6111da8686610c99565b90505f83146111ff578183826111f09190611ce0565b6111fa9190611d4e565b611201565b5f5b935050505092915050565b5f5f5f9054906101000a900473ffffffffffffffffffffffffffffffffffffffff1673ffffffffffffffffffffffffffffffffffffffff16631d43335a836040518263ffffffff1660e01b815260040161126691906117b9565b602060405180830381865afa158015611281573d5f5f3e3d5ffd5b505050506040513d601f19601f820116820180604052508101906112a59190611aae565b9050919050565b5f6002826112ba9190611d7e565b835110156112fd576040517f08c379a00000000000000000000000000000000000000000000000000000000081526004016112f49061200f565b60405180910390fd5b5f8260028501015190508091505092915050565b60605f826fffffffffffffffffffffffffffffffff161461135357828260405160200161133f92919061207c565b604051602081830303815290604052611374565b8260405160200161136491906120a7565b6040516020818303038152906040525b905092915050565b606083600361ffff166113985f836112ac90919063ffffffff16565b61ffff16146113f0576113b45f826112ac90919063ffffffff16565b6040517f3a51740d0000000000000000000000000000000000000000000000000000000081526004016113e79190611f9c565b60405180910390fd5b846001806113fe8651611529565b61140891906120c1565b868660405160200161141e959493929190612164565b6040516020818303038152906040529150509392505050565b5f8173ffffffffffffffffffffffffffffffffffffffff1663f887ea406040518163ffffffff1660e01b8152600401602060405180830381865afa158015611481573d5f5f3e3d5ffd5b505050506040513d601f19601f820116820180604052508101906114a59190611aae565b9050919050565b5f6114b682611437565b73ffffffffffffffffffffffffffffffffffffffff1663b2016bd46040518163ffffffff1660e01b8152600401602060405180830381865afa1580156114fe573d5f5f3e3d5ffd5b505050506040513d601f19601f820116820180604052508101906115229190611aae565b9050919050565b5f61ffff8016821115611576576010826040517f6dfcc65000000000000000000000000000000000000000000000000000000000815260040161156d9291906121fc565b60405180910390fd5b819050919050565b5f604051905090565b5f5ffd5b5f73ffffffffffffffffffffffffffffffffffffffff82169050919050565b5f6115b48261158b565b9050919050565b6115c4816115aa565b81146115ce575f5ffd5b50565b5f813590506115df816115bb565b92915050565b5f63ffffffff82169050919050565b6115fd816115e5565b8114611607575f5ffd5b50565b5f81359050611618816115f4565b92915050565b5f819050919050565b6116308161161e565b811461163a575f5ffd5b50565b5f8135905061164b81611627565b92915050565b5f5f5f5f6080858703121561166957611668611587565b5b5f611676878288016115d1565b94505060206116878782880161160a565b9350506040611698878288016115d1565b92505060606116a98782880161163d565b91505092959194509250565b6116be8161161e565b82525050565b5f6020820190506116d75f8301846116b5565b92915050565b5f5f604083850312156116f3576116f2611587565b5b5f611700858286016115d1565b9250506020611711858286016115d1565b9150509250929050565b5f602082840312156117305761172f611587565b5b5f61173d848285016115d1565b91505092915050565b5f5f5f5f6080858703121561175e5761175d611587565b5b5f61176b878288016115d1565b945050602061177c878288016115d1565b935050604061178d8782880161163d565b925050606061179e878288016115d1565b91505092959194509250565b6117b3816115aa565b82525050565b5f6020820190506117cc5f8301846117aa565b92915050565b6117db816115e5565b82525050565b5f819050919050565b6117f3816117e1565b82525050565b6118028161161e565b82525050565b5f81519050919050565b5f82825260208201905092915050565b8281835e5f83830152505050565b5f601f19601f8301169050919050565b5f61184a82611808565b6118548185611812565b9350611864818560208601611822565b61186d81611830565b840191505092915050565b5f60e083015f83015161188d5f8601826117d2565b5060208301516118a060208601826117ea565b5060408301516118b360408601826117f9565b5060608301516118c660608601826117f9565b50608083015184820360808601526118de8282611840565b91505060a083015184820360a08601526118f88282611840565b91505060c083015184820360c08601526119128282611840565b9150508091505092915050565b5f8115159050919050565b6119338161191f565b82525050565b5f6040820190508181035f8301526119518185611878565b9050611960602083018461192a565b9392505050565b5f5ffd5b7f4e487b71000000000000000000000000000000000000000000000000000000005f52604160045260245ffd5b6119a182611830565b810181811067ffffffffffffffff821117156119c0576119bf61196b565b5b80604052505050565b5f6119d261157e565b90506119de8282611998565b919050565b5f815190506119f181611627565b92915050565b5f60408284031215611a0c57611a0b611967565b5b611a1660406119c9565b90505f611a25848285016119e3565b5f830152506020611a38848285016119e3565b60208301525092915050565b5f60408284031215611a5957611a58611587565b5b5f611a66848285016119f7565b91505092915050565b5f60208284031215611a8457611a83611587565b5b5f611a91848285016119e3565b91505092915050565b5f81519050611aa8816115bb565b92915050565b5f60208284031215611ac357611ac2611587565b5b5f611ad084828501611a9a565b91505092915050565b5f60ff82169050919050565b611aee81611ad9565b8114611af8575f5ffd5b50565b5f81519050611b0981611ae5565b92915050565b5f60208284031215611b2457611b23611587565b5b5f611b3184828501611afb565b91505092915050565b7f4e487b71000000000000000000000000000000000000000000000000000000005f52601160045260245ffd5b5f8160011c9050919050565b5f5f8291508390505b6001851115611bbc57808604811115611b9857611b97611b3a565b5b6001851615611ba75780820291505b8081029050611bb585611b67565b9450611b7c565b94509492505050565b5f82611bd45760019050611c8f565b81611be1575f9050611c8f565b8160018114611bf75760028114611c0157611c30565b6001915050611c8f565b60ff841115611c1357611c12611b3a565b5b8360020a915084821115611c2a57611c29611b3a565b5b50611c8f565b5060208310610133831016604e8410600b8410161715611c655782820a905083811115611c6057611c5f611b3a565b5b611c8f565b611c728484846001611b73565b92509050818404811115611c8957611c88611b3a565b5b81810290505b9392505050565b5f611ca08261161e565b9150611cab8361161e565b9250611cd87fffffffffffffffffffffffffffffffffffffffffffffffffffffffffffffffff8484611bc5565b905092915050565b5f611cea8261161e565b9150611cf58361161e565b9250828202611d038161161e565b91508282048414831517611d1a57611d19611b3a565b5b5092915050565b7f4e487b71000000000000000000000000000000000000000000000000000000005f52601260045260245ffd5b5f611d588261161e565b9150611d638361161e565b925082611d7357611d72611d21565b5b828204905092915050565b5f611d888261161e565b9150611d938361161e565b9250828201905080821115611dab57611daa611b3a565b5b92915050565b5f611dbb8261161e565b91507fffffffffffffffffffffffffffffffffffffffffffffffffffffffffffffffff8203611ded57611dec611b3a565b5b600182019050919050565b5f611e028261161e565b9150611e0d8361161e565b9250828203905081811115611e2557611e24611b3a565b5b92915050565b5f60a082019050611e3e5f8301886117aa565b611e4b60208301876117aa565b611e5860408301866116b5565b611e6560608301856117aa565b611e7260808301846117aa565b9695505050505050565b5f69ffffffffffffffffffff82169050919050565b611e9a81611e7c565b8114611ea4575f5ffd5b50565b5f81519050611eb581611e91565b92915050565b5f5f5f5f5f60a08688031215611ed457611ed3611587565b5b5f611ee188828901611ea7565b9550506020611ef2888289016119e3565b9450506040611f03888289016119e3565b9350506060611f14888289016119e3565b9250506080611f2588828901611ea7565b9150509295509295909350565b5f61ffff82169050919050565b5f8160f01b9050919050565b5f611f5582611f3f565b9050919050565b611f6d611f6882611f32565b611f4b565b82525050565b5f611f7e8284611f5c565b60028201915081905092915050565b611f9681611f32565b82525050565b5f602082019050611faf5f830184611f8d565b92915050565b5f82825260208201905092915050565b7f746f55696e7431365f6f75744f66426f756e64730000000000000000000000005f82015250565b5f611ff9601483611fb5565b915061200482611fc5565b602082019050919050565b5f6020820190508181035f83015261202681611fed565b9050919050565b5f6fffffffffffffffffffffffffffffffff82169050919050565b5f8160801b9050919050565b5f61205e82612048565b9050919050565b6120766120718261202d565b612054565b82525050565b5f6120878285612065565b6010820191506120978284612065565b6010820191508190509392505050565b5f6120b28284612065565b60108201915081905092915050565b5f6120cb82611f32565b91506120d683611f32565b9250828201905061ffff8111156120f0576120ef611b3a565b5b92915050565b5f81905092915050565b5f61210a82611808565b61211481856120f6565b9350612124818560208601611822565b80840191505092915050565b5f8160f81b9050919050565b5f61214682612130565b9050919050565b61215e61215982611ad9565b61213c565b82525050565b5f61216f8288612100565b915061217b828761214d565b60018201915061218b8286611f5c565b60028201915061219b828561214d565b6001820191506121ab8284612100565b91508190509695505050505050565b5f819050919050565b5f819050919050565b5f6121e66121e16121dc846121ba565b6121c3565b611ad9565b9050919050565b6121f6816121cc565b82525050565b5f60408201905061220f5f8301856121ed565b61221c60208301846116b5565b939250505056fea26469706673582212202d80e26b0e7d78382bc292a0750326902956d29f876e83374de9d4035a82c11d64736f6c634300081c0033","linkReferences":{}},"methodIdentifiers":{"factory()":"c45a0155","getExchangeRate(address,address,uint256,address)":"7cff7d11","getFee(address,uint32,address,uint256)":"54ccb453","getHealthFactor(address,address)":"57c89a7d","getMaxBorrowAmount(address,address)":"59ad586f","getTokenValue(address)":"f1c5d6c2","setFactory(address)":"5bb47808"},"id":114}