{"abi":[{"type":"constructor","inputs":[{"name":"_factory","type":"address","internalType":"address"}],"stateMutability":"nonpayable"},{"type":"function","name":"factory","inputs":[],"outputs":[{"name":"","type":"address","internalType":"address"}],"stateMutability":"view"},{"type":"function","name":"getAPY","inputs":[{"name":"_lendingPool","type":"address","internalType":"address"}],"outputs":[{"name":"supplyAPY","type":"uint256","internalType":"uint256"},{"name":"borrowAPY","type":"uint256","internalType":"uint256"},{"name":"utilizationRate","type":"uint256","internalType":"uint256"}],"stateMutability":"view"},{"type":"function","name":"getBorrowAPY","inputs":[{"name":"_lendingPool","type":"address","internalType":"address"}],"outputs":[{"name":"borrowAPY","type":"uint256","internalType":"uint256"}],"stateMutability":"view"},{"type":"function","name":"getCollateralBalance","inputs":[{"name":"_lendingPool","type":"address","internalType":"address"},{"name":"_user","type":"address","internalType":"address"}],"outputs":[{"name":"collateralBalance","type":"uint256","internalType":"uint256"}],"stateMutability":"view"},{"type":"function","name":"getExchangeRate","inputs":[{"name":"_tokenIn","type":"address","internalType":"address"},{"name":"_tokenOut","type":"address","internalType":"address"},{"name":"_amountIn","type":"uint256","internalType":"uint256"},{"name":"_position","type":"address","internalType":"address"}],"outputs":[{"name":"","type":"uint256","internalType":"uint256"}],"stateMutability":"view"},{"type":"function","name":"getFee","inputs":[{"name":"_oftAddress","type":"address","internalType":"address"},{"name":"_dstEid","type":"uint32","internalType":"uint32"},{"name":"_toAddress","type":"address","internalType":"address"},{"name":"_tokensToSend","type":"uint256","internalType":"uint256"}],"outputs":[{"name":"","type":"uint256","internalType":"uint256"}],"stateMutability":"view"},{"type":"function","name":"getHealthFactor","inputs":[{"name":"_lendingPool","type":"address","internalType":"address"},{"name":"_user","type":"address","internalType":"address"}],"outputs":[{"name":"","type":"uint256","internalType":"uint256"}],"stateMutability":"view"},{"type":"function","name":"getLendingPoolMetrics","inputs":[{"name":"_lendingPool","type":"address","internalType":"address"}],"outputs":[{"name":"supplyAPY","type":"uint256","internalType":"uint256"},{"name":"borrowAPY","type":"uint256","internalType":"uint256"},{"name":"utilizationRate","type":"uint256","internalType":"uint256"},{"name":"totalSupplyAssets","type":"uint256","internalType":"uint256"},{"name":"totalBorrowAssets","type":"uint256","internalType":"uint256"}],"stateMutability":"view"},{"type":"function","name":"getMaxBorrowAmount","inputs":[{"name":"_lendingPool","type":"address","internalType":"address"},{"name":"_user","type":"address","internalType":"address"}],"outputs":[{"name":"","type":"uint256","internalType":"uint256"}],"stateMutability":"view"},{"type":"function","name":"getRouter","inputs":[{"name":"_lendingPool","type":"address","internalType":"address"}],"outputs":[{"name":"","type":"address","internalType":"address"}],"stateMutability":"view"},{"type":"function","name":"getSupplyAPY","inputs":[{"name":"_lendingPool","type":"address","internalType":"address"}],"outputs":[{"name":"supplyAPY","type":"uint256","internalType":"uint256"}],"stateMutability":"view"},{"type":"function","name":"getTokenValue","inputs":[{"name":"_token","type":"address","internalType":"address"}],"outputs":[{"name":"","type":"uint256","internalType":"uint256"}],"stateMutability":"view"},{"type":"function","name":"getTotalLiquidity","inputs":[{"name":"_lendingPool","type":"address","internalType":"address"}],"outputs":[{"name":"totalLiquidity","type":"uint256","internalType":"uint256"}],"stateMutability":"view"},{"type":"function","name":"getUtilizationRate","inputs":[{"name":"_lendingPool","type":"address","internalType":"address"}],"outputs":[{"name":"utilizationRate","type":"uint256","internalType":"uint256"}],"stateMutability":"view"},{"type":"function","name":"setFactory","inputs":[{"name":"_factory","type":"address","internalType":"address"}],"outputs":[],"stateMutability":"nonpayable"},{"type":"error","name":"InvalidOptionType","inputs":[{"name":"optionType","type":"uint16","internalType":"uint16"}]},{"type":"error","name":"SafeCastOverflowedUintDowncast","inputs":[{"name":"bits","type":"uint8","internalType":"uint8"},{"name":"value","type":"uint256","internalType":"uint256"}]}],"bytecode":{"object":"0x608060405234801561000f575f5ffd5b50604051612e89380380612e89833981810160405281019061003191906100d4565b805f5f6101000a81548173ffffffffffffffffffffffffffffffffffffffff021916908373ffffffffffffffffffffffffffffffffffffffff160217905550506100ff565b5f5ffd5b5f73ffffffffffffffffffffffffffffffffffffffff82169050919050565b5f6100a38261007a565b9050919050565b6100b381610099565b81146100bd575f5ffd5b50565b5f815190506100ce816100aa565b92915050565b5f602082840312156100e9576100e8610076565b5b5f6100f6848285016100c0565b91505092915050565b612d7d8061010c5f395ff3fe608060405234801561000f575f5ffd5b50600436106100f3575f3560e01c80637cff7d1111610095578063c1dae57611610064578063c1dae576146102f3578063c45a015514610327578063c4f9870b14610345578063f1c5d6c214610377576100f3565b80637cff7d11146102335780638369166d146102635780639de8ef7914610293578063b7d5820b146102c3576100f3565b806357c89a7d116100d157806357c89a7d1461018757806359ad586f146101b75780635bb47808146101e75780637b6aa8bd14610203576100f3565b80632d27b824146100f75780633842ea421461012757806354ccb45314610157575b5f5ffd5b610111600480360381019061010c9190612083565b6103a7565b60405161011e91906120c6565b60405180910390f35b610141600480360381019061013c9190612083565b610493565b60405161014e91906120c6565b60405180910390f35b610171600480360381019061016c9190612142565b61057f565b60405161017e91906120c6565b60405180910390f35b6101a1600480360381019061019c91906121a6565b610693565b6040516101ae91906120c6565b60405180910390f35b6101d160048036038101906101cc91906121a6565b610bb6565b6040516101de91906120c6565b60405180910390f35b61020160048036038101906101fc9190612083565b610d6a565b005b61021d60048036038101906102189190612083565b610dac565b60405161022a91906120c6565b60405180910390f35b61024d600480360381019061024891906121e4565b610e53565b60405161025a91906120c6565b60405180910390f35b61027d60048036038101906102789190612083565b610efd565b60405161028a9190612257565b60405180910390f35b6102ad60048036038101906102a89190612083565b610f72565b6040516102ba91906120c6565b60405180910390f35b6102dd60048036038101906102d891906121a6565b611126565b6040516102ea91906120c6565b60405180910390f35b61030d60048036038101906103089190612083565b61135f565b60405161031e959493929190612270565b60405180910390f35b61032f611479565b60405161033c9190612257565b60405180910390f35b61035f600480360381019061035a9190612083565b61149d565b60405161036e939291906122c1565b60405180910390f35b610391600480360381019061038c9190612083565b6114c8565b60405161039e91906120c6565b60405180910390f35b5f5f6103b283611553565b90505f8173ffffffffffffffffffffffffffffffffffffffff1663651e32966040518163ffffffff1660e01b8152600401602060405180830381865afa1580156103fe573d5f5f3e3d5ffd5b505050506040513d601f19601f82011682018060405250810190610422919061230a565b90505f8103610435575f9250505061048e565b5f612710670de0b6b3a76400008361044d9190612362565b61045791906123d0565b90505f671bc16d674ec80000828361046f9190612362565b61047991906123d0565b905080826104879190612400565b9450505050505b919050565b5f5f61049e83611553565b90505f8173ffffffffffffffffffffffffffffffffffffffff16634499ab626040518163ffffffff1660e01b8152600401602060405180830381865afa1580156104ea573d5f5f3e3d5ffd5b505050506040513d601f19601f8201168201806040525081019061050e919061230a565b90505f8103610521575f9250505061057a565b5f612710670de0b6b3a7640000836105399190612362565b61054391906123d0565b90505f671bc16d674ec80000828361055b9190612362565b61056591906123d0565b905080826105739190612400565b9450505050505b919050565b5f5f8590505f6105a361fde85f6105946115c8565b6115f09092919063ffffffff16565b90505f6040518060e001604052808863ffffffff1681526020016105c688611688565b815260200186815260200186815260200183815260200160405180602001604052805f815250815260200160405180602001604052805f81525081525090505f8373ffffffffffffffffffffffffffffffffffffffff16633b6f743b835f6040518363ffffffff1660e01b815260040161064192919061259a565b6040805180830381865afa15801561065b573d5f5f3e3d5ffd5b505050506040513d601f19601f8201168201806040525081019061067f9190612691565b9050805f0151945050505050949350505050565b5f5f61069f84846116a9565b90505f6106ac8585611732565b90505f6106b8866117bb565b90505f6106c487611838565b90505f6106d0886118b5565b90505f84036106e757604595505050505050610bb0565b5f73ffffffffffffffffffffffffffffffffffffffff168573ffffffffffffffffffffffffffffffffffffffff160361072957611b3995505050505050610bb0565b5f5f90505f8673ffffffffffffffffffffffffffffffffffffffff166361bc221a6040518163ffffffff1660e01b8152600401602060405180830381865afa158015610777573d5f5f3e3d5ffd5b505050506040513d601f19601f8201168201806040525081019061079b919061230a565b90505f600190505b818111610a5a575f8873ffffffffffffffffffffffffffffffffffffffff16631cb928a9836040518263ffffffff1660e01b81526004016107e491906120c6565b602060405180830381865afa1580156107ff573d5f5f3e3d5ffd5b505050506040513d601f19601f8201168201806040525081019061082391906126d0565b90505f5f61082f611932565b73ffffffffffffffffffffffffffffffffffffffff168373ffffffffffffffffffffffffffffffffffffffff16036108eb57610869611932565b73ffffffffffffffffffffffffffffffffffffffff166370a082318c6040518263ffffffff1660e01b81526004016108a19190612257565b602060405180830381865afa1580156108bc573d5f5f3e3d5ffd5b505050506040513d601f19601f820116820180604052508101906108e0919061230a565b9150601290506109d8565b8273ffffffffffffffffffffffffffffffffffffffff166370a082318c6040518263ffffffff1660e01b81526004016109249190612257565b602060405180830381865afa15801561093f573d5f5f3e3d5ffd5b505050506040513d601f19601f82011682018060405250810190610963919061230a565b91508273ffffffffffffffffffffffffffffffffffffffff1663313ce5676040518163ffffffff1660e01b8152600401602060405180830381865afa1580156109ae573d5f5f3e3d5ffd5b505050506040513d601f19601f820116820180604052508101906109d29190612731565b60ff1690505b5f73ffffffffffffffffffffffffffffffffffffffff168373ffffffffffffffffffffffffffffffffffffffff1614610a445780600a610a18919061288b565b82610a22856114c8565b610a2c9190612362565b610a3691906123d0565b86610a419190612400565b95505b5050508080610a52906128d5565b9150506107a3565b505f848688610a699190612362565b610a7391906123d0565b90505f610a7e611932565b73ffffffffffffffffffffffffffffffffffffffff168573ffffffffffffffffffffffffffffffffffffffff1614610b22578473ffffffffffffffffffffffffffffffffffffffff1663313ce5676040518163ffffffff1660e01b8152600401602060405180830381865afa158015610af9573d5f5f3e3d5ffd5b505050506040513d601f19601f82011682018060405250810190610b1d9190612731565b610b25565b60125b60ff1690505f81600a610b38919061288b565b83610b42886114c8565b610b4c9190612362565b610b5691906123d0565b90505f610b628e6119c5565b90505f82670de0b6b3a76400006305f5e10084610b7f9190612362565b610b8991906123d0565b88610b949190612362565b610b9e91906123d0565b9050809c505050505050505050505050505b92915050565b5f5f610bc1846118b5565b90505f610bcc611932565b73ffffffffffffffffffffffffffffffffffffffff168273ffffffffffffffffffffffffffffffffffffffff1603610c8457610c06611932565b73ffffffffffffffffffffffffffffffffffffffff166370a08231866040518263ffffffff1660e01b8152600401610c3e9190612257565b602060405180830381865afa158015610c59573d5f5f3e3d5ffd5b505050506040513d601f19601f82011682018060405250810190610c7d919061230a565b9050610cff565b8173ffffffffffffffffffffffffffffffffffffffff166370a08231866040518263ffffffff1660e01b8152600401610cbd9190612257565b602060405180830381865afa158015610cd8573d5f5f3e3d5ffd5b505050506040513d601f19601f82011682018060405250810190610cfc919061230a565b90505b5f610d0a8686611a42565b90505f610d178787611c4f565b90505f81670de0b6b3a7640000610d2d8a6119c5565b85610d389190612362565b610d4291906123d0565b610d4c919061291c565b9050838110610d5b5783610d5d565b805b9550505050505092915050565b805f5f6101000a81548173ffffffffffffffffffffffffffffffffffffffff021916908373ffffffffffffffffffffffffffffffffffffffff16021790555050565b5f5f610db783611553565b90505f8173ffffffffffffffffffffffffffffffffffffffff16634a417a536040518163ffffffff1660e01b8152600401602060405180830381865afa158015610e03573d5f5f3e3d5ffd5b505050506040513d601f19601f82011682018060405250810190610e27919061230a565b9050612710670de0b6b3a764000082610e409190612362565b610e4a91906123d0565b92505050919050565b5f5f610e5e86611ca5565b90505f610e6a86611ca5565b90505f8473ffffffffffffffffffffffffffffffffffffffff1663dd9103cb89898987876040518663ffffffff1660e01b8152600401610eae95949392919061294f565b602060405180830381865afa158015610ec9573d5f5f3e3d5ffd5b505050506040513d601f19601f82011682018060405250810190610eed919061230a565b9050809350505050949350505050565b5f8173ffffffffffffffffffffffffffffffffffffffff1663f887ea406040518163ffffffff1660e01b8152600401602060405180830381865afa158015610f47573d5f5f3e3d5ffd5b505050506040513d601f19601f82011682018060405250810190610f6b91906126d0565b9050919050565b5f5f610f7d83611553565b73ffffffffffffffffffffffffffffffffffffffff1663456dc17a6040518163ffffffff1660e01b8152600401602060405180830381865afa158015610fc5573d5f5f3e3d5ffd5b505050506040513d601f19601f82011682018060405250810190610fe991906126d0565b9050600173ffffffffffffffffffffffffffffffffffffffff168173ffffffffffffffffffffffffffffffffffffffff16036110a557611027611932565b73ffffffffffffffffffffffffffffffffffffffff166370a08231846040518263ffffffff1660e01b815260040161105f9190612257565b602060405180830381865afa15801561107a573d5f5f3e3d5ffd5b505050506040513d601f19601f8201168201806040525081019061109e919061230a565b9150611120565b8073ffffffffffffffffffffffffffffffffffffffff166370a08231846040518263ffffffff1660e01b81526004016110de9190612257565b602060405180830381865afa1580156110f9573d5f5f3e3d5ffd5b505050506040513d601f19601f8201168201806040525081019061111d919061230a565b91505b50919050565b5f5f61113184611553565b73ffffffffffffffffffffffffffffffffffffffff1663b2016bd46040518163ffffffff1660e01b8152600401602060405180830381865afa158015611179573d5f5f3e3d5ffd5b505050506040513d601f19601f8201168201806040525081019061119d91906126d0565b90505f6111a985611553565b73ffffffffffffffffffffffffffffffffffffffff1663f79c3800856040518263ffffffff1660e01b81526004016111e19190612257565b602060405180830381865afa1580156111fc573d5f5f3e3d5ffd5b505050506040513d601f19601f8201168201806040525081019061122091906126d0565b9050600173ffffffffffffffffffffffffffffffffffffffff168273ffffffffffffffffffffffffffffffffffffffff16036112dc5761125e611932565b73ffffffffffffffffffffffffffffffffffffffff166370a08231826040518263ffffffff1660e01b81526004016112969190612257565b602060405180830381865afa1580156112b1573d5f5f3e3d5ffd5b505050506040513d601f19601f820116820180604052508101906112d5919061230a565b9250611357565b8173ffffffffffffffffffffffffffffffffffffffff166370a08231826040518263ffffffff1660e01b81526004016113159190612257565b602060405180830381865afa158015611330573d5f5f3e3d5ffd5b505050506040513d601f19601f82011682018060405250810190611354919061230a565b92505b505092915050565b5f5f5f5f5f5f61136e87611553565b905061137987610493565b9550611384876103a7565b945061138f87610dac565b93508073ffffffffffffffffffffffffffffffffffffffff166394877fc46040518163ffffffff1660e01b8152600401602060405180830381865afa1580156113da573d5f5f3e3d5ffd5b505050506040513d601f19601f820116820180604052508101906113fe919061230a565b92508073ffffffffffffffffffffffffffffffffffffffff16631aad44c26040518163ffffffff1660e01b8152600401602060405180830381865afa158015611449573d5f5f3e3d5ffd5b505050506040513d601f19601f8201168201806040525081019061146d919061230a565b91505091939590929450565b5f5f9054906101000a900473ffffffffffffffffffffffffffffffffffffffff1681565b5f5f5f6114a984610493565b92506114b4846103a7565b91506114bf84610dac565b90509193909250565b5f5f6114d383611ca5565b90505f8173ffffffffffffffffffffffffffffffffffffffff1663feaf968c6040518163ffffffff1660e01b815260040160a060405180830381865afa15801561151f573d5f5f3e3d5ffd5b505050506040513d601f19601f8201168201806040525081019061154391906129df565b5050509150508092505050919050565b5f8173ffffffffffffffffffffffffffffffffffffffff1663f887ea406040518163ffffffff1660e01b8152600401602060405180830381865afa15801561159d573d5f5f3e3d5ffd5b505050506040513d601f19601f820116820180604052508101906115c191906126d0565b9050919050565b606060036040516020016115dc9190612a97565b604051602081830303815290604052905090565b606083600361ffff1661160c5f83611d2c90919063ffffffff16565b61ffff1614611664576116285f82611d2c90919063ffffffff16565b6040517f3a51740d00000000000000000000000000000000000000000000000000000000815260040161165b9190612ac0565b60405180910390fd5b5f61166f8585611d91565b905061167d86600183611dfc565b925050509392505050565b5f8173ffffffffffffffffffffffffffffffffffffffff165f1b9050919050565b5f6116b383611553565b73ffffffffffffffffffffffffffffffffffffffff1663f79c3800836040518263ffffffff1660e01b81526004016116eb9190612257565b602060405180830381865afa158015611706573d5f5f3e3d5ffd5b505050506040513d601f19601f8201168201806040525081019061172a91906126d0565b905092915050565b5f61173c83611553565b73ffffffffffffffffffffffffffffffffffffffff16634fd422df836040518263ffffffff1660e01b81526004016117749190612257565b602060405180830381865afa15801561178f573d5f5f3e3d5ffd5b505050506040513d601f19601f820116820180604052508101906117b3919061230a565b905092915050565b5f6117c582611553565b73ffffffffffffffffffffffffffffffffffffffff16631aad44c26040518163ffffffff1660e01b8152600401602060405180830381865afa15801561180d573d5f5f3e3d5ffd5b505050506040513d601f19601f82011682018060405250810190611831919061230a565b9050919050565b5f61184282611553565b73ffffffffffffffffffffffffffffffffffffffff1663136cf1f76040518163ffffffff1660e01b8152600401602060405180830381865afa15801561188a573d5f5f3e3d5ffd5b505050506040513d601f19601f820116820180604052508101906118ae919061230a565b9050919050565b5f6118bf82611553565b73ffffffffffffffffffffffffffffffffffffffff1663456dc17a6040518163ffffffff1660e01b8152600401602060405180830381865afa158015611907573d5f5f3e3d5ffd5b505050506040513d601f19601f8201168201806040525081019061192b91906126d0565b9050919050565b5f5f5f9054906101000a900473ffffffffffffffffffffffffffffffffffffffff1673ffffffffffffffffffffffffffffffffffffffff1663d999984d6040518163ffffffff1660e01b8152600401602060405180830381865afa15801561199c573d5f5f3e3d5ffd5b505050506040513d601f19601f820116820180604052508101906119c091906126d0565b905090565b5f6119cf82611553565b73ffffffffffffffffffffffffffffffffffffffff16636fb49d736040518163ffffffff1660e01b8152600401602060405180830381865afa158015611a17573d5f5f3e3d5ffd5b505050506040513d601f19601f82011682018060405250810190611a3b919061230a565b9050919050565b5f5f611a4d84611eb7565b90505f611a59856118b5565b90505f611a6686866116a9565b90505f611a7284611ca5565b90505f611a7e84611ca5565b90505f611a89611932565b73ffffffffffffffffffffffffffffffffffffffff168673ffffffffffffffffffffffffffffffffffffffff1603611b4157611ac3611932565b73ffffffffffffffffffffffffffffffffffffffff166370a08231856040518263ffffffff1660e01b8152600401611afb9190612257565b602060405180830381865afa158015611b16573d5f5f3e3d5ffd5b505050506040513d601f19601f82011682018060405250810190611b3a919061230a565b9050611bbc565b8573ffffffffffffffffffffffffffffffffffffffff166370a08231856040518263ffffffff1660e01b8152600401611b7a9190612257565b602060405180830381865afa158015611b95573d5f5f3e3d5ffd5b505050506040513d601f19601f82011682018060405250810190611bb9919061230a565b90505b5f8490508073ffffffffffffffffffffffffffffffffffffffff1663dd9103cb88888588886040518663ffffffff1660e01b8152600401611c0195949392919061294f565b602060405180830381865afa158015611c1c573d5f5f3e3d5ffd5b505050506040513d601f19601f82011682018060405250810190611c40919061230a565b97505050505050505092915050565b5f5f611c5a846117bb565b90505f611c6685611838565b90505f611c738686611732565b90505f8314611c9857818382611c899190612362565b611c9391906123d0565b611c9a565b5f5b935050505092915050565b5f611cae611f34565b73ffffffffffffffffffffffffffffffffffffffff16639878cbb3836040518263ffffffff1660e01b8152600401611ce69190612257565b602060405180830381865afa158015611d01573d5f5f3e3d5ffd5b505050506040513d601f19601f82011682018060405250810190611d2591906126d0565b9050919050565b5f600282611d3a9190612400565b83511015611d7d576040517f08c379a0000000000000000000000000000000000000000000000000000000008152600401611d7490612b33565b60405180910390fd5b5f8260028501015190508091505092915050565b60605f826fffffffffffffffffffffffffffffffff1614611dd3578282604051602001611dbf929190612ba0565b604051602081830303815290604052611df4565b82604051602001611de49190612bcb565b6040516020818303038152906040525b905092915050565b606083600361ffff16611e185f83611d2c90919063ffffffff16565b61ffff1614611e7057611e345f82611d2c90919063ffffffff16565b6040517f3a51740d000000000000000000000000000000000000000000000000000000008152600401611e679190612ac0565b60405180910390fd5b84600180611e7e8651611fc7565b611e889190612be5565b8686604051602001611e9e959493929190612c88565b6040516020818303038152906040529150509392505050565b5f611ec182611553565b73ffffffffffffffffffffffffffffffffffffffff1663b2016bd46040518163ffffffff1660e01b8152600401602060405180830381865afa158015611f09573d5f5f3e3d5ffd5b505050506040513d601f19601f82011682018060405250810190611f2d91906126d0565b9050919050565b5f5f5f9054906101000a900473ffffffffffffffffffffffffffffffffffffffff1673ffffffffffffffffffffffffffffffffffffffff166375b568a66040518163ffffffff1660e01b8152600401602060405180830381865afa158015611f9e573d5f5f3e3d5ffd5b505050506040513d601f19601f82011682018060405250810190611fc291906126d0565b905090565b5f61ffff8016821115612014576010826040517f6dfcc65000000000000000000000000000000000000000000000000000000000815260040161200b929190612d20565b60405180910390fd5b819050919050565b5f604051905090565b5f5ffd5b5f73ffffffffffffffffffffffffffffffffffffffff82169050919050565b5f61205282612029565b9050919050565b61206281612048565b811461206c575f5ffd5b50565b5f8135905061207d81612059565b92915050565b5f6020828403121561209857612097612025565b5b5f6120a58482850161206f565b91505092915050565b5f819050919050565b6120c0816120ae565b82525050565b5f6020820190506120d95f8301846120b7565b92915050565b5f63ffffffff82169050919050565b6120f7816120df565b8114612101575f5ffd5b50565b5f81359050612112816120ee565b92915050565b612121816120ae565b811461212b575f5ffd5b50565b5f8135905061213c81612118565b92915050565b5f5f5f5f6080858703121561215a57612159612025565b5b5f6121678782880161206f565b945050602061217887828801612104565b93505060406121898782880161206f565b925050606061219a8782880161212e565b91505092959194509250565b5f5f604083850312156121bc576121bb612025565b5b5f6121c98582860161206f565b92505060206121da8582860161206f565b9150509250929050565b5f5f5f5f608085870312156121fc576121fb612025565b5b5f6122098782880161206f565b945050602061221a8782880161206f565b935050604061222b8782880161212e565b925050606061223c8782880161206f565b91505092959194509250565b61225181612048565b82525050565b5f60208201905061226a5f830184612248565b92915050565b5f60a0820190506122835f8301886120b7565b61229060208301876120b7565b61229d60408301866120b7565b6122aa60608301856120b7565b6122b760808301846120b7565b9695505050505050565b5f6060820190506122d45f8301866120b7565b6122e160208301856120b7565b6122ee60408301846120b7565b949350505050565b5f8151905061230481612118565b92915050565b5f6020828403121561231f5761231e612025565b5b5f61232c848285016122f6565b91505092915050565b7f4e487b71000000000000000000000000000000000000000000000000000000005f52601160045260245ffd5b5f61236c826120ae565b9150612377836120ae565b9250828202612385816120ae565b9150828204841483151761239c5761239b612335565b5b5092915050565b7f4e487b71000000000000000000000000000000000000000000000000000000005f52601260045260245ffd5b5f6123da826120ae565b91506123e5836120ae565b9250826123f5576123f46123a3565b5b828204905092915050565b5f61240a826120ae565b9150612415836120ae565b925082820190508082111561242d5761242c612335565b5b92915050565b61243c816120df565b82525050565b5f819050919050565b61245481612442565b82525050565b612463816120ae565b82525050565b5f81519050919050565b5f82825260208201905092915050565b8281835e5f83830152505050565b5f601f19601f8301169050919050565b5f6124ab82612469565b6124b58185612473565b93506124c5818560208601612483565b6124ce81612491565b840191505092915050565b5f60e083015f8301516124ee5f860182612433565b506020830151612501602086018261244b565b506040830151612514604086018261245a565b506060830151612527606086018261245a565b506080830151848203608086015261253f82826124a1565b91505060a083015184820360a086015261255982826124a1565b91505060c083015184820360c086015261257382826124a1565b9150508091505092915050565b5f8115159050919050565b61259481612580565b82525050565b5f6040820190508181035f8301526125b281856124d9565b90506125c1602083018461258b565b9392505050565b5f5ffd5b7f4e487b71000000000000000000000000000000000000000000000000000000005f52604160045260245ffd5b61260282612491565b810181811067ffffffffffffffff82111715612621576126206125cc565b5b80604052505050565b5f61263361201c565b905061263f82826125f9565b919050565b5f60408284031215612659576126586125c8565b5b612663604061262a565b90505f612672848285016122f6565b5f830152506020612685848285016122f6565b60208301525092915050565b5f604082840312156126a6576126a5612025565b5b5f6126b384828501612644565b91505092915050565b5f815190506126ca81612059565b92915050565b5f602082840312156126e5576126e4612025565b5b5f6126f2848285016126bc565b91505092915050565b5f60ff82169050919050565b612710816126fb565b811461271a575f5ffd5b50565b5f8151905061272b81612707565b92915050565b5f6020828403121561274657612745612025565b5b5f6127538482850161271d565b91505092915050565b5f8160011c9050919050565b5f5f8291508390505b60018511156127b15780860481111561278d5761278c612335565b5b600185161561279c5780820291505b80810290506127aa8561275c565b9450612771565b94509492505050565b5f826127c95760019050612884565b816127d6575f9050612884565b81600181146127ec57600281146127f657612825565b6001915050612884565b60ff84111561280857612807612335565b5b8360020a91508482111561281f5761281e612335565b5b50612884565b5060208310610133831016604e8410600b841016171561285a5782820a90508381111561285557612854612335565b5b612884565b6128678484846001612768565b9250905081840481111561287e5761287d612335565b5b81810290505b9392505050565b5f612895826120ae565b91506128a0836120ae565b92506128cd7fffffffffffffffffffffffffffffffffffffffffffffffffffffffffffffffff84846127ba565b905092915050565b5f6128df826120ae565b91507fffffffffffffffffffffffffffffffffffffffffffffffffffffffffffffffff820361291157612910612335565b5b600182019050919050565b5f612926826120ae565b9150612931836120ae565b925082820390508181111561294957612948612335565b5b92915050565b5f60a0820190506129625f830188612248565b61296f6020830187612248565b61297c60408301866120b7565b6129896060830185612248565b6129966080830184612248565b9695505050505050565b5f69ffffffffffffffffffff82169050919050565b6129be816129a0565b81146129c8575f5ffd5b50565b5f815190506129d9816129b5565b92915050565b5f5f5f5f5f60a086880312156129f8576129f7612025565b5b5f612a05888289016129cb565b9550506020612a16888289016122f6565b9450506040612a27888289016122f6565b9350506060612a38888289016122f6565b9250506080612a49888289016129cb565b9150509295509295909350565b5f61ffff82169050919050565b5f8160f01b9050919050565b5f612a7982612a63565b9050919050565b612a91612a8c82612a56565b612a6f565b82525050565b5f612aa28284612a80565b60028201915081905092915050565b612aba81612a56565b82525050565b5f602082019050612ad35f830184612ab1565b92915050565b5f82825260208201905092915050565b7f746f55696e7431365f6f75744f66426f756e64730000000000000000000000005f82015250565b5f612b1d601483612ad9565b9150612b2882612ae9565b602082019050919050565b5f6020820190508181035f830152612b4a81612b11565b9050919050565b5f6fffffffffffffffffffffffffffffffff82169050919050565b5f8160801b9050919050565b5f612b8282612b6c565b9050919050565b612b9a612b9582612b51565b612b78565b82525050565b5f612bab8285612b89565b601082019150612bbb8284612b89565b6010820191508190509392505050565b5f612bd68284612b89565b60108201915081905092915050565b5f612bef82612a56565b9150612bfa83612a56565b9250828201905061ffff811115612c1457612c13612335565b5b92915050565b5f81905092915050565b5f612c2e82612469565b612c388185612c1a565b9350612c48818560208601612483565b80840191505092915050565b5f8160f81b9050919050565b5f612c6a82612c54565b9050919050565b612c82612c7d826126fb565b612c60565b82525050565b5f612c938288612c24565b9150612c9f8287612c71565b600182019150612caf8286612a80565b600282019150612cbf8285612c71565b600182019150612ccf8284612c24565b91508190509695505050505050565b5f819050919050565b5f819050919050565b5f612d0a612d05612d0084612cde565b612ce7565b6126fb565b9050919050565b612d1a81612cf0565b82525050565b5f604082019050612d335f830185612d11565b612d4060208301846120b7565b939250505056fea26469706673582212202762e7529102e4590f2585cac355af6f567d03df1fe9ed696df7359eb945d72464736f6c634300081e0033","linkReferences":{}},"methodIdentifiers":{"factory()":"c45a0155","getAPY(address)":"c4f9870b","getBorrowAPY(address)":"2d27b824","getCollateralBalance(address,address)":"b7d5820b","getExchangeRate(address,address,uint256,address)":"7cff7d11","getFee(address,uint32,address,uint256)":"54ccb453","getHealthFactor(address,address)":"57c89a7d","getLendingPoolMetrics(address)":"c1dae576","getMaxBorrowAmount(address,address)":"59ad586f","getRouter(address)":"8369166d","getSupplyAPY(address)":"3842ea42","getTokenValue(address)":"f1c5d6c2","getTotalLiquidity(address)":"9de8ef79","getUtilizationRate(address)":"7b6aa8bd","setFactory(address)":"5bb47808"},"id":95}