{"abi":[{"type":"constructor","inputs":[{"name":"_factory","type":"address","internalType":"address"}],"stateMutability":"nonpayable"},{"type":"function","name":"factory","inputs":[],"outputs":[{"name":"","type":"address","internalType":"address"}],"stateMutability":"view"},{"type":"function","name":"getAPY","inputs":[{"name":"_lendingPool","type":"address","internalType":"address"}],"outputs":[{"name":"supplyAPY","type":"uint256","internalType":"uint256"},{"name":"borrowAPY","type":"uint256","internalType":"uint256"},{"name":"utilizationRate","type":"uint256","internalType":"uint256"}],"stateMutability":"view"},{"type":"function","name":"getBorrowAPY","inputs":[{"name":"_lendingPool","type":"address","internalType":"address"}],"outputs":[{"name":"borrowAPY","type":"uint256","internalType":"uint256"}],"stateMutability":"view"},{"type":"function","name":"getCollateralBalance","inputs":[{"name":"_lendingPool","type":"address","internalType":"address"},{"name":"_user","type":"address","internalType":"address"}],"outputs":[{"name":"collateralBalance","type":"uint256","internalType":"uint256"}],"stateMutability":"view"},{"type":"function","name":"getExchangeRate","inputs":[{"name":"_tokenIn","type":"address","internalType":"address"},{"name":"_tokenOut","type":"address","internalType":"address"},{"name":"_amountIn","type":"uint256","internalType":"uint256"},{"name":"_position","type":"address","internalType":"address"}],"outputs":[{"name":"","type":"uint256","internalType":"uint256"}],"stateMutability":"view"},{"type":"function","name":"getFee","inputs":[{"name":"_oftAddress","type":"address","internalType":"address"},{"name":"_dstEid","type":"uint32","internalType":"uint32"},{"name":"_toAddress","type":"address","internalType":"address"},{"name":"_tokensToSend","type":"uint256","internalType":"uint256"}],"outputs":[{"name":"","type":"uint256","internalType":"uint256"}],"stateMutability":"view"},{"type":"function","name":"getHealthFactor","inputs":[{"name":"_lendingPool","type":"address","internalType":"address"},{"name":"_user","type":"address","internalType":"address"}],"outputs":[{"name":"","type":"uint256","internalType":"uint256"}],"stateMutability":"view"},{"type":"function","name":"getLendingPoolMetrics","inputs":[{"name":"_lendingPool","type":"address","internalType":"address"}],"outputs":[{"name":"supplyAPY","type":"uint256","internalType":"uint256"},{"name":"borrowAPY","type":"uint256","internalType":"uint256"},{"name":"utilizationRate","type":"uint256","internalType":"uint256"},{"name":"totalSupplyAssets","type":"uint256","internalType":"uint256"},{"name":"totalBorrowAssets","type":"uint256","internalType":"uint256"}],"stateMutability":"view"},{"type":"function","name":"getMaxBorrowAmount","inputs":[{"name":"_lendingPool","type":"address","internalType":"address"},{"name":"_user","type":"address","internalType":"address"}],"outputs":[{"name":"","type":"uint256","internalType":"uint256"}],"stateMutability":"view"},{"type":"function","name":"getRouter","inputs":[{"name":"_lendingPool","type":"address","internalType":"address"}],"outputs":[{"name":"","type":"address","internalType":"address"}],"stateMutability":"view"},{"type":"function","name":"getSupplyAPY","inputs":[{"name":"_lendingPool","type":"address","internalType":"address"}],"outputs":[{"name":"supplyAPY","type":"uint256","internalType":"uint256"}],"stateMutability":"view"},{"type":"function","name":"getTokenValue","inputs":[{"name":"_token","type":"address","internalType":"address"}],"outputs":[{"name":"","type":"uint256","internalType":"uint256"}],"stateMutability":"view"},{"type":"function","name":"getTotalLiquidity","inputs":[{"name":"_lendingPool","type":"address","internalType":"address"}],"outputs":[{"name":"totalLiquidity","type":"uint256","internalType":"uint256"}],"stateMutability":"view"},{"type":"function","name":"getUtilizationRate","inputs":[{"name":"_lendingPool","type":"address","internalType":"address"}],"outputs":[{"name":"utilizationRate","type":"uint256","internalType":"uint256"}],"stateMutability":"view"},{"type":"function","name":"setFactory","inputs":[{"name":"_factory","type":"address","internalType":"address"}],"outputs":[],"stateMutability":"nonpayable"},{"type":"error","name":"InvalidOptionType","inputs":[{"name":"optionType","type":"uint16","internalType":"uint16"}]},{"type":"error","name":"SafeCastOverflowedUintDowncast","inputs":[{"name":"bits","type":"uint8","internalType":"uint8"},{"name":"value","type":"uint256","internalType":"uint256"}]}],"bytecode":{"object":"0x608060405234801561000f575f5ffd5b50604051612e0f380380612e0f833981810160405281019061003191906100d4565b805f5f6101000a81548173ffffffffffffffffffffffffffffffffffffffff021916908373ffffffffffffffffffffffffffffffffffffffff160217905550506100ff565b5f5ffd5b5f73ffffffffffffffffffffffffffffffffffffffff82169050919050565b5f6100a38261007a565b9050919050565b6100b381610099565b81146100bd575f5ffd5b50565b5f815190506100ce816100aa565b92915050565b5f602082840312156100e9576100e8610076565b5b5f6100f6848285016100c0565b91505092915050565b612d038061010c5f395ff3fe608060405234801561000f575f5ffd5b50600436106100f3575f3560e01c80637cff7d1111610095578063c1dae57611610064578063c1dae576146102f3578063c45a015514610327578063c4f9870b14610345578063f1c5d6c214610377576100f3565b80637cff7d11146102335780638369166d146102635780639de8ef7914610293578063b7d5820b146102c3576100f3565b806357c89a7d116100d157806357c89a7d1461018757806359ad586f146101b75780635bb47808146101e75780637b6aa8bd14610203576100f3565b80632d27b824146100f75780633842ea421461012757806354ccb45314610157575b5f5ffd5b610111600480360381019061010c9190612009565b6103a7565b60405161011e919061204c565b60405180910390f35b610141600480360381019061013c9190612009565b610493565b60405161014e919061204c565b60405180910390f35b610171600480360381019061016c91906120c8565b61057f565b60405161017e919061204c565b60405180910390f35b6101a1600480360381019061019c919061212c565b610693565b6040516101ae919061204c565b60405180910390f35b6101d160048036038101906101cc919061212c565b610bb6565b6040516101de919061204c565b60405180910390f35b61020160048036038101906101fc9190612009565b610d6a565b005b61021d60048036038101906102189190612009565b610dac565b60405161022a919061204c565b60405180910390f35b61024d6004803603810190610248919061216a565b610e53565b60405161025a919061204c565b60405180910390f35b61027d60048036038101906102789190612009565b610efd565b60405161028a91906121dd565b60405180910390f35b6102ad60048036038101906102a89190612009565b610f72565b6040516102ba919061204c565b60405180910390f35b6102dd60048036038101906102d8919061212c565b611126565b6040516102ea919061204c565b60405180910390f35b61030d60048036038101906103089190612009565b61135f565b60405161031e9594939291906121f6565b60405180910390f35b61032f611479565b60405161033c91906121dd565b60405180910390f35b61035f600480360381019061035a9190612009565b61149d565b60405161036e93929190612247565b60405180910390f35b610391600480360381019061038c9190612009565b6114c8565b60405161039e919061204c565b60405180910390f35b5f5f6103b283611553565b90505f8173ffffffffffffffffffffffffffffffffffffffff1663651e32966040518163ffffffff1660e01b8152600401602060405180830381865afa1580156103fe573d5f5f3e3d5ffd5b505050506040513d601f19601f820116820180604052508101906104229190612290565b90505f8103610435575f9250505061048e565b5f612710670de0b6b3a76400008361044d91906122e8565b6104579190612356565b90505f671bc16d674ec80000828361046f91906122e8565b6104799190612356565b905080826104879190612386565b9450505050505b919050565b5f5f61049e83611553565b90505f8173ffffffffffffffffffffffffffffffffffffffff16634499ab626040518163ffffffff1660e01b8152600401602060405180830381865afa1580156104ea573d5f5f3e3d5ffd5b505050506040513d601f19601f8201168201806040525081019061050e9190612290565b90505f8103610521575f9250505061057a565b5f612710670de0b6b3a76400008361053991906122e8565b6105439190612356565b90505f671bc16d674ec80000828361055b91906122e8565b6105659190612356565b905080826105739190612386565b9450505050505b919050565b5f5f8590505f6105a361fde85f6105946115c8565b6115f09092919063ffffffff16565b90505f6040518060e001604052808863ffffffff1681526020016105c688611688565b815260200186815260200186815260200183815260200160405180602001604052805f815250815260200160405180602001604052805f81525081525090505f8373ffffffffffffffffffffffffffffffffffffffff16633b6f743b835f6040518363ffffffff1660e01b8152600401610641929190612520565b6040805180830381865afa15801561065b573d5f5f3e3d5ffd5b505050506040513d601f19601f8201168201806040525081019061067f9190612617565b9050805f0151945050505050949350505050565b5f5f61069f84846116a9565b90505f6106ac8585611732565b90505f6106b8866117bb565b90505f6106c487611838565b90505f6106d0886118b5565b90505f84036106e757604595505050505050610bb0565b5f73ffffffffffffffffffffffffffffffffffffffff168573ffffffffffffffffffffffffffffffffffffffff160361072957611b3995505050505050610bb0565b5f5f90505f8673ffffffffffffffffffffffffffffffffffffffff166361bc221a6040518163ffffffff1660e01b8152600401602060405180830381865afa158015610777573d5f5f3e3d5ffd5b505050506040513d601f19601f8201168201806040525081019061079b9190612290565b90505f600190505b818111610a5a575f8873ffffffffffffffffffffffffffffffffffffffff16631cb928a9836040518263ffffffff1660e01b81526004016107e4919061204c565b602060405180830381865afa1580156107ff573d5f5f3e3d5ffd5b505050506040513d601f19601f820116820180604052508101906108239190612656565b90505f5f61082f611932565b73ffffffffffffffffffffffffffffffffffffffff168373ffffffffffffffffffffffffffffffffffffffff16036108eb57610869611932565b73ffffffffffffffffffffffffffffffffffffffff166370a082318c6040518263ffffffff1660e01b81526004016108a191906121dd565b602060405180830381865afa1580156108bc573d5f5f3e3d5ffd5b505050506040513d601f19601f820116820180604052508101906108e09190612290565b9150601290506109d8565b8273ffffffffffffffffffffffffffffffffffffffff166370a082318c6040518263ffffffff1660e01b815260040161092491906121dd565b602060405180830381865afa15801561093f573d5f5f3e3d5ffd5b505050506040513d601f19601f820116820180604052508101906109639190612290565b91508273ffffffffffffffffffffffffffffffffffffffff1663313ce5676040518163ffffffff1660e01b8152600401602060405180830381865afa1580156109ae573d5f5f3e3d5ffd5b505050506040513d601f19601f820116820180604052508101906109d291906126b7565b60ff1690505b5f73ffffffffffffffffffffffffffffffffffffffff168373ffffffffffffffffffffffffffffffffffffffff1614610a445780600a610a189190612811565b82610a22856114c8565b610a2c91906122e8565b610a369190612356565b86610a419190612386565b95505b5050508080610a529061285b565b9150506107a3565b505f848688610a6991906122e8565b610a739190612356565b90505f610a7e611932565b73ffffffffffffffffffffffffffffffffffffffff168573ffffffffffffffffffffffffffffffffffffffff1614610b22578473ffffffffffffffffffffffffffffffffffffffff1663313ce5676040518163ffffffff1660e01b8152600401602060405180830381865afa158015610af9573d5f5f3e3d5ffd5b505050506040513d601f19601f82011682018060405250810190610b1d91906126b7565b610b25565b60125b60ff1690505f81600a610b389190612811565b83610b42886114c8565b610b4c91906122e8565b610b569190612356565b90505f610b628e6119c5565b90505f82670de0b6b3a76400006305f5e10084610b7f91906122e8565b610b899190612356565b88610b9491906122e8565b610b9e9190612356565b9050809c505050505050505050505050505b92915050565b5f5f610bc1846118b5565b90505f610bcc611932565b73ffffffffffffffffffffffffffffffffffffffff168273ffffffffffffffffffffffffffffffffffffffff1603610c8457610c06611932565b73ffffffffffffffffffffffffffffffffffffffff166370a08231866040518263ffffffff1660e01b8152600401610c3e91906121dd565b602060405180830381865afa158015610c59573d5f5f3e3d5ffd5b505050506040513d601f19601f82011682018060405250810190610c7d9190612290565b9050610cff565b8173ffffffffffffffffffffffffffffffffffffffff166370a08231866040518263ffffffff1660e01b8152600401610cbd91906121dd565b602060405180830381865afa158015610cd8573d5f5f3e3d5ffd5b505050506040513d601f19601f82011682018060405250810190610cfc9190612290565b90505b5f610d0a8686611a42565b90505f610d178787611c4f565b90505f81670de0b6b3a7640000610d2d8a6119c5565b85610d3891906122e8565b610d429190612356565b610d4c91906128a2565b9050838110610d5b5783610d5d565b805b9550505050505092915050565b805f5f6101000a81548173ffffffffffffffffffffffffffffffffffffffff021916908373ffffffffffffffffffffffffffffffffffffffff16021790555050565b5f5f610db783611553565b90505f8173ffffffffffffffffffffffffffffffffffffffff16634a417a536040518163ffffffff1660e01b8152600401602060405180830381865afa158015610e03573d5f5f3e3d5ffd5b505050506040513d601f19601f82011682018060405250810190610e279190612290565b9050612710670de0b6b3a764000082610e4091906122e8565b610e4a9190612356565b92505050919050565b5f5f610e5e86611ca5565b90505f610e6a86611ca5565b90505f8473ffffffffffffffffffffffffffffffffffffffff1663dd9103cb89898987876040518663ffffffff1660e01b8152600401610eae9594939291906128d5565b602060405180830381865afa158015610ec9573d5f5f3e3d5ffd5b505050506040513d601f19601f82011682018060405250810190610eed9190612290565b9050809350505050949350505050565b5f8173ffffffffffffffffffffffffffffffffffffffff1663f887ea406040518163ffffffff1660e01b8152600401602060405180830381865afa158015610f47573d5f5f3e3d5ffd5b505050506040513d601f19601f82011682018060405250810190610f6b9190612656565b9050919050565b5f5f610f7d83611553565b73ffffffffffffffffffffffffffffffffffffffff1663456dc17a6040518163ffffffff1660e01b8152600401602060405180830381865afa158015610fc5573d5f5f3e3d5ffd5b505050506040513d601f19601f82011682018060405250810190610fe99190612656565b9050600173ffffffffffffffffffffffffffffffffffffffff168173ffffffffffffffffffffffffffffffffffffffff16036110a557611027611932565b73ffffffffffffffffffffffffffffffffffffffff166370a08231846040518263ffffffff1660e01b815260040161105f91906121dd565b602060405180830381865afa15801561107a573d5f5f3e3d5ffd5b505050506040513d601f19601f8201168201806040525081019061109e9190612290565b9150611120565b8073ffffffffffffffffffffffffffffffffffffffff166370a08231846040518263ffffffff1660e01b81526004016110de91906121dd565b602060405180830381865afa1580156110f9573d5f5f3e3d5ffd5b505050506040513d601f19601f8201168201806040525081019061111d9190612290565b91505b50919050565b5f5f61113184611553565b73ffffffffffffffffffffffffffffffffffffffff1663b2016bd46040518163ffffffff1660e01b8152600401602060405180830381865afa158015611179573d5f5f3e3d5ffd5b505050506040513d601f19601f8201168201806040525081019061119d9190612656565b90505f6111a985611553565b73ffffffffffffffffffffffffffffffffffffffff1663f79c3800856040518263ffffffff1660e01b81526004016111e191906121dd565b602060405180830381865afa1580156111fc573d5f5f3e3d5ffd5b505050506040513d601f19601f820116820180604052508101906112209190612656565b9050600173ffffffffffffffffffffffffffffffffffffffff168273ffffffffffffffffffffffffffffffffffffffff16036112dc5761125e611932565b73ffffffffffffffffffffffffffffffffffffffff166370a08231826040518263ffffffff1660e01b815260040161129691906121dd565b602060405180830381865afa1580156112b1573d5f5f3e3d5ffd5b505050506040513d601f19601f820116820180604052508101906112d59190612290565b9250611357565b8173ffffffffffffffffffffffffffffffffffffffff166370a08231826040518263ffffffff1660e01b815260040161131591906121dd565b602060405180830381865afa158015611330573d5f5f3e3d5ffd5b505050506040513d601f19601f820116820180604052508101906113549190612290565b92505b505092915050565b5f5f5f5f5f5f61136e87611553565b905061137987610493565b9550611384876103a7565b945061138f87610dac565b93508073ffffffffffffffffffffffffffffffffffffffff166394877fc46040518163ffffffff1660e01b8152600401602060405180830381865afa1580156113da573d5f5f3e3d5ffd5b505050506040513d601f19601f820116820180604052508101906113fe9190612290565b92508073ffffffffffffffffffffffffffffffffffffffff16631aad44c26040518163ffffffff1660e01b8152600401602060405180830381865afa158015611449573d5f5f3e3d5ffd5b505050506040513d601f19601f8201168201806040525081019061146d9190612290565b91505091939590929450565b5f5f9054906101000a900473ffffffffffffffffffffffffffffffffffffffff1681565b5f5f5f6114a984610493565b92506114b4846103a7565b91506114bf84610dac565b90509193909250565b5f5f6114d383611ca5565b90505f8173ffffffffffffffffffffffffffffffffffffffff1663feaf968c6040518163ffffffff1660e01b815260040160a060405180830381865afa15801561151f573d5f5f3e3d5ffd5b505050506040513d601f19601f820116820180604052508101906115439190612965565b5050509150508092505050919050565b5f8173ffffffffffffffffffffffffffffffffffffffff1663f887ea406040518163ffffffff1660e01b8152600401602060405180830381865afa15801561159d573d5f5f3e3d5ffd5b505050506040513d601f19601f820116820180604052508101906115c19190612656565b9050919050565b606060036040516020016115dc9190612a1d565b604051602081830303815290604052905090565b606083600361ffff1661160c5f83611d4590919063ffffffff16565b61ffff1614611664576116285f82611d4590919063ffffffff16565b6040517f3a51740d00000000000000000000000000000000000000000000000000000000815260040161165b9190612a46565b60405180910390fd5b5f61166f8585611daa565b905061167d86600183611e15565b925050509392505050565b5f8173ffffffffffffffffffffffffffffffffffffffff165f1b9050919050565b5f6116b383611553565b73ffffffffffffffffffffffffffffffffffffffff1663f79c3800836040518263ffffffff1660e01b81526004016116eb91906121dd565b602060405180830381865afa158015611706573d5f5f3e3d5ffd5b505050506040513d601f19601f8201168201806040525081019061172a9190612656565b905092915050565b5f61173c83611553565b73ffffffffffffffffffffffffffffffffffffffff16634fd422df836040518263ffffffff1660e01b815260040161177491906121dd565b602060405180830381865afa15801561178f573d5f5f3e3d5ffd5b505050506040513d601f19601f820116820180604052508101906117b39190612290565b905092915050565b5f6117c582611553565b73ffffffffffffffffffffffffffffffffffffffff16631aad44c26040518163ffffffff1660e01b8152600401602060405180830381865afa15801561180d573d5f5f3e3d5ffd5b505050506040513d601f19601f820116820180604052508101906118319190612290565b9050919050565b5f61184282611553565b73ffffffffffffffffffffffffffffffffffffffff1663136cf1f76040518163ffffffff1660e01b8152600401602060405180830381865afa15801561188a573d5f5f3e3d5ffd5b505050506040513d601f19601f820116820180604052508101906118ae9190612290565b9050919050565b5f6118bf82611553565b73ffffffffffffffffffffffffffffffffffffffff1663456dc17a6040518163ffffffff1660e01b8152600401602060405180830381865afa158015611907573d5f5f3e3d5ffd5b505050506040513d601f19601f8201168201806040525081019061192b9190612656565b9050919050565b5f5f5f9054906101000a900473ffffffffffffffffffffffffffffffffffffffff1673ffffffffffffffffffffffffffffffffffffffff1663d999984d6040518163ffffffff1660e01b8152600401602060405180830381865afa15801561199c573d5f5f3e3d5ffd5b505050506040513d601f19601f820116820180604052508101906119c09190612656565b905090565b5f6119cf82611553565b73ffffffffffffffffffffffffffffffffffffffff16636fb49d736040518163ffffffff1660e01b8152600401602060405180830381865afa158015611a17573d5f5f3e3d5ffd5b505050506040513d601f19601f82011682018060405250810190611a3b9190612290565b9050919050565b5f5f611a4d84611ed0565b90505f611a59856118b5565b90505f611a6686866116a9565b90505f611a7284611ca5565b90505f611a7e84611ca5565b90505f611a89611932565b73ffffffffffffffffffffffffffffffffffffffff168673ffffffffffffffffffffffffffffffffffffffff1603611b4157611ac3611932565b73ffffffffffffffffffffffffffffffffffffffff166370a08231856040518263ffffffff1660e01b8152600401611afb91906121dd565b602060405180830381865afa158015611b16573d5f5f3e3d5ffd5b505050506040513d601f19601f82011682018060405250810190611b3a9190612290565b9050611bbc565b8573ffffffffffffffffffffffffffffffffffffffff166370a08231856040518263ffffffff1660e01b8152600401611b7a91906121dd565b602060405180830381865afa158015611b95573d5f5f3e3d5ffd5b505050506040513d601f19601f82011682018060405250810190611bb99190612290565b90505b5f8490508073ffffffffffffffffffffffffffffffffffffffff1663dd9103cb88888588886040518663ffffffff1660e01b8152600401611c019594939291906128d5565b602060405180830381865afa158015611c1c573d5f5f3e3d5ffd5b505050506040513d601f19601f82011682018060405250810190611c409190612290565b97505050505050505092915050565b5f5f611c5a846117bb565b90505f611c6685611838565b90505f611c738686611732565b90505f8314611c9857818382611c8991906122e8565b611c939190612356565b611c9a565b5f5b935050505092915050565b5f5f5f9054906101000a900473ffffffffffffffffffffffffffffffffffffffff1673ffffffffffffffffffffffffffffffffffffffff16631d43335a836040518263ffffffff1660e01b8152600401611cff91906121dd565b602060405180830381865afa158015611d1a573d5f5f3e3d5ffd5b505050506040513d601f19601f82011682018060405250810190611d3e9190612656565b9050919050565b5f600282611d539190612386565b83511015611d96576040517f08c379a0000000000000000000000000000000000000000000000000000000008152600401611d8d90612ab9565b60405180910390fd5b5f8260028501015190508091505092915050565b60605f826fffffffffffffffffffffffffffffffff1614611dec578282604051602001611dd8929190612b26565b604051602081830303815290604052611e0d565b82604051602001611dfd9190612b51565b6040516020818303038152906040525b905092915050565b606083600361ffff16611e315f83611d4590919063ffffffff16565b61ffff1614611e8957611e4d5f82611d4590919063ffffffff16565b6040517f3a51740d000000000000000000000000000000000000000000000000000000008152600401611e809190612a46565b60405180910390fd5b84600180611e978651611f4d565b611ea19190612b6b565b8686604051602001611eb7959493929190612c0e565b6040516020818303038152906040529150509392505050565b5f611eda82611553565b73ffffffffffffffffffffffffffffffffffffffff1663b2016bd46040518163ffffffff1660e01b8152600401602060405180830381865afa158015611f22573d5f5f3e3d5ffd5b505050506040513d601f19601f82011682018060405250810190611f469190612656565b9050919050565b5f61ffff8016821115611f9a576010826040517f6dfcc650000000000000000000000000000000000000000000000000000000008152600401611f91929190612ca6565b60405180910390fd5b819050919050565b5f604051905090565b5f5ffd5b5f73ffffffffffffffffffffffffffffffffffffffff82169050919050565b5f611fd882611faf565b9050919050565b611fe881611fce565b8114611ff2575f5ffd5b50565b5f8135905061200381611fdf565b92915050565b5f6020828403121561201e5761201d611fab565b5b5f61202b84828501611ff5565b91505092915050565b5f819050919050565b61204681612034565b82525050565b5f60208201905061205f5f83018461203d565b92915050565b5f63ffffffff82169050919050565b61207d81612065565b8114612087575f5ffd5b50565b5f8135905061209881612074565b92915050565b6120a781612034565b81146120b1575f5ffd5b50565b5f813590506120c28161209e565b92915050565b5f5f5f5f608085870312156120e0576120df611fab565b5b5f6120ed87828801611ff5565b94505060206120fe8782880161208a565b935050604061210f87828801611ff5565b9250506060612120878288016120b4565b91505092959194509250565b5f5f6040838503121561214257612141611fab565b5b5f61214f85828601611ff5565b925050602061216085828601611ff5565b9150509250929050565b5f5f5f5f6080858703121561218257612181611fab565b5b5f61218f87828801611ff5565b94505060206121a087828801611ff5565b93505060406121b1878288016120b4565b92505060606121c287828801611ff5565b91505092959194509250565b6121d781611fce565b82525050565b5f6020820190506121f05f8301846121ce565b92915050565b5f60a0820190506122095f83018861203d565b612216602083018761203d565b612223604083018661203d565b612230606083018561203d565b61223d608083018461203d565b9695505050505050565b5f60608201905061225a5f83018661203d565b612267602083018561203d565b612274604083018461203d565b949350505050565b5f8151905061228a8161209e565b92915050565b5f602082840312156122a5576122a4611fab565b5b5f6122b28482850161227c565b91505092915050565b7f4e487b71000000000000000000000000000000000000000000000000000000005f52601160045260245ffd5b5f6122f282612034565b91506122fd83612034565b925082820261230b81612034565b91508282048414831517612322576123216122bb565b5b5092915050565b7f4e487b71000000000000000000000000000000000000000000000000000000005f52601260045260245ffd5b5f61236082612034565b915061236b83612034565b92508261237b5761237a612329565b5b828204905092915050565b5f61239082612034565b915061239b83612034565b92508282019050808211156123b3576123b26122bb565b5b92915050565b6123c281612065565b82525050565b5f819050919050565b6123da816123c8565b82525050565b6123e981612034565b82525050565b5f81519050919050565b5f82825260208201905092915050565b8281835e5f83830152505050565b5f601f19601f8301169050919050565b5f612431826123ef565b61243b81856123f9565b935061244b818560208601612409565b61245481612417565b840191505092915050565b5f60e083015f8301516124745f8601826123b9565b50602083015161248760208601826123d1565b50604083015161249a60408601826123e0565b5060608301516124ad60608601826123e0565b50608083015184820360808601526124c58282612427565b91505060a083015184820360a08601526124df8282612427565b91505060c083015184820360c08601526124f98282612427565b9150508091505092915050565b5f8115159050919050565b61251a81612506565b82525050565b5f6040820190508181035f830152612538818561245f565b90506125476020830184612511565b9392505050565b5f5ffd5b7f4e487b71000000000000000000000000000000000000000000000000000000005f52604160045260245ffd5b61258882612417565b810181811067ffffffffffffffff821117156125a7576125a6612552565b5b80604052505050565b5f6125b9611fa2565b90506125c5828261257f565b919050565b5f604082840312156125df576125de61254e565b5b6125e960406125b0565b90505f6125f88482850161227c565b5f83015250602061260b8482850161227c565b60208301525092915050565b5f6040828403121561262c5761262b611fab565b5b5f612639848285016125ca565b91505092915050565b5f8151905061265081611fdf565b92915050565b5f6020828403121561266b5761266a611fab565b5b5f61267884828501612642565b91505092915050565b5f60ff82169050919050565b61269681612681565b81146126a0575f5ffd5b50565b5f815190506126b18161268d565b92915050565b5f602082840312156126cc576126cb611fab565b5b5f6126d9848285016126a3565b91505092915050565b5f8160011c9050919050565b5f5f8291508390505b600185111561273757808604811115612713576127126122bb565b5b60018516156127225780820291505b8081029050612730856126e2565b94506126f7565b94509492505050565b5f8261274f576001905061280a565b8161275c575f905061280a565b8160018114612772576002811461277c576127ab565b600191505061280a565b60ff84111561278e5761278d6122bb565b5b8360020a9150848211156127a5576127a46122bb565b5b5061280a565b5060208310610133831016604e8410600b84101617156127e05782820a9050838111156127db576127da6122bb565b5b61280a565b6127ed84848460016126ee565b92509050818404811115612804576128036122bb565b5b81810290505b9392505050565b5f61281b82612034565b915061282683612034565b92506128537fffffffffffffffffffffffffffffffffffffffffffffffffffffffffffffffff8484612740565b905092915050565b5f61286582612034565b91507fffffffffffffffffffffffffffffffffffffffffffffffffffffffffffffffff8203612897576128966122bb565b5b600182019050919050565b5f6128ac82612034565b91506128b783612034565b92508282039050818111156128cf576128ce6122bb565b5b92915050565b5f60a0820190506128e85f8301886121ce565b6128f560208301876121ce565b612902604083018661203d565b61290f60608301856121ce565b61291c60808301846121ce565b9695505050505050565b5f69ffffffffffffffffffff82169050919050565b61294481612926565b811461294e575f5ffd5b50565b5f8151905061295f8161293b565b92915050565b5f5f5f5f5f60a0868803121561297e5761297d611fab565b5b5f61298b88828901612951565b955050602061299c8882890161227c565b94505060406129ad8882890161227c565b93505060606129be8882890161227c565b92505060806129cf88828901612951565b9150509295509295909350565b5f61ffff82169050919050565b5f8160f01b9050919050565b5f6129ff826129e9565b9050919050565b612a17612a12826129dc565b6129f5565b82525050565b5f612a288284612a06565b60028201915081905092915050565b612a40816129dc565b82525050565b5f602082019050612a595f830184612a37565b92915050565b5f82825260208201905092915050565b7f746f55696e7431365f6f75744f66426f756e64730000000000000000000000005f82015250565b5f612aa3601483612a5f565b9150612aae82612a6f565b602082019050919050565b5f6020820190508181035f830152612ad081612a97565b9050919050565b5f6fffffffffffffffffffffffffffffffff82169050919050565b5f8160801b9050919050565b5f612b0882612af2565b9050919050565b612b20612b1b82612ad7565b612afe565b82525050565b5f612b318285612b0f565b601082019150612b418284612b0f565b6010820191508190509392505050565b5f612b5c8284612b0f565b60108201915081905092915050565b5f612b75826129dc565b9150612b80836129dc565b9250828201905061ffff811115612b9a57612b996122bb565b5b92915050565b5f81905092915050565b5f612bb4826123ef565b612bbe8185612ba0565b9350612bce818560208601612409565b80840191505092915050565b5f8160f81b9050919050565b5f612bf082612bda565b9050919050565b612c08612c0382612681565b612be6565b82525050565b5f612c198288612baa565b9150612c258287612bf7565b600182019150612c358286612a06565b600282019150612c458285612bf7565b600182019150612c558284612baa565b91508190509695505050505050565b5f819050919050565b5f819050919050565b5f612c90612c8b612c8684612c64565b612c6d565b612681565b9050919050565b612ca081612c76565b82525050565b5f604082019050612cb95f830185612c97565b612cc6602083018461203d565b939250505056fea26469706673582212207146f1a2442dd38c92e9b65df24b1e3c677ca07909ba9f57d6fd66f4373a0afd64736f6c634300081e0033","linkReferences":{}},"methodIdentifiers":{"factory()":"c45a0155","getAPY(address)":"c4f9870b","getBorrowAPY(address)":"2d27b824","getCollateralBalance(address,address)":"b7d5820b","getExchangeRate(address,address,uint256,address)":"7cff7d11","getFee(address,uint32,address,uint256)":"54ccb453","getHealthFactor(address,address)":"57c89a7d","getLendingPoolMetrics(address)":"c1dae576","getMaxBorrowAmount(address,address)":"59ad586f","getRouter(address)":"8369166d","getSupplyAPY(address)":"3842ea42","getTokenValue(address)":"f1c5d6c2","getTotalLiquidity(address)":"9de8ef79","getUtilizationRate(address)":"7b6aa8bd","setFactory(address)":"5bb47808"},"id":90}