{"abi":[{"type":"constructor","inputs":[{"name":"_factory","type":"address","internalType":"address"}],"stateMutability":"nonpayable"},{"type":"function","name":"factory","inputs":[],"outputs":[{"name":"","type":"address","internalType":"address"}],"stateMutability":"view"},{"type":"function","name":"getAPY","inputs":[{"name":"_lendingPool","type":"address","internalType":"address"}],"outputs":[{"name":"supplyAPY","type":"uint256","internalType":"uint256"},{"name":"borrowAPY","type":"uint256","internalType":"uint256"},{"name":"utilizationRate","type":"uint256","internalType":"uint256"}],"stateMutability":"view"},{"type":"function","name":"getBorrowAPY","inputs":[{"name":"_lendingPool","type":"address","internalType":"address"}],"outputs":[{"name":"borrowAPY","type":"uint256","internalType":"uint256"}],"stateMutability":"view"},{"type":"function","name":"getCollateralBalance","inputs":[{"name":"_lendingPool","type":"address","internalType":"address"},{"name":"_user","type":"address","internalType":"address"}],"outputs":[{"name":"collateralBalance","type":"uint256","internalType":"uint256"}],"stateMutability":"view"},{"type":"function","name":"getExchangeRate","inputs":[{"name":"_tokenIn","type":"address","internalType":"address"},{"name":"_tokenOut","type":"address","internalType":"address"},{"name":"_amountIn","type":"uint256","internalType":"uint256"},{"name":"_position","type":"address","internalType":"address"}],"outputs":[{"name":"","type":"uint256","internalType":"uint256"}],"stateMutability":"view"},{"type":"function","name":"getFee","inputs":[{"name":"_oftAddress","type":"address","internalType":"address"},{"name":"_dstEid","type":"uint32","internalType":"uint32"},{"name":"_toAddress","type":"address","internalType":"address"},{"name":"_tokensToSend","type":"uint256","internalType":"uint256"}],"outputs":[{"name":"","type":"uint256","internalType":"uint256"}],"stateMutability":"view"},{"type":"function","name":"getHealthFactor","inputs":[{"name":"_lendingPool","type":"address","internalType":"address"},{"name":"_user","type":"address","internalType":"address"}],"outputs":[{"name":"","type":"uint256","internalType":"uint256"}],"stateMutability":"view"},{"type":"function","name":"getLendingPoolMetrics","inputs":[{"name":"_lendingPool","type":"address","internalType":"address"}],"outputs":[{"name":"supplyAPY","type":"uint256","internalType":"uint256"},{"name":"borrowAPY","type":"uint256","internalType":"uint256"},{"name":"utilizationRate","type":"uint256","internalType":"uint256"},{"name":"totalSupplyAssets","type":"uint256","internalType":"uint256"},{"name":"totalBorrowAssets","type":"uint256","internalType":"uint256"}],"stateMutability":"view"},{"type":"function","name":"getMaxBorrowAmount","inputs":[{"name":"_lendingPool","type":"address","internalType":"address"},{"name":"_user","type":"address","internalType":"address"}],"outputs":[{"name":"","type":"uint256","internalType":"uint256"}],"stateMutability":"view"},{"type":"function","name":"getSupplyAPY","inputs":[{"name":"_lendingPool","type":"address","internalType":"address"}],"outputs":[{"name":"supplyAPY","type":"uint256","internalType":"uint256"}],"stateMutability":"view"},{"type":"function","name":"getTokenValue","inputs":[{"name":"_token","type":"address","internalType":"address"}],"outputs":[{"name":"","type":"uint256","internalType":"uint256"}],"stateMutability":"view"},{"type":"function","name":"getTotalLiquidity","inputs":[{"name":"_lendingPool","type":"address","internalType":"address"}],"outputs":[{"name":"totalLiquidity","type":"uint256","internalType":"uint256"}],"stateMutability":"view"},{"type":"function","name":"getUtilizationRate","inputs":[{"name":"_lendingPool","type":"address","internalType":"address"}],"outputs":[{"name":"utilizationRate","type":"uint256","internalType":"uint256"}],"stateMutability":"view"},{"type":"function","name":"setFactory","inputs":[{"name":"_factory","type":"address","internalType":"address"}],"outputs":[],"stateMutability":"nonpayable"},{"type":"error","name":"InvalidOptionType","inputs":[{"name":"optionType","type":"uint16","internalType":"uint16"}]},{"type":"error","name":"SafeCastOverflowedUintDowncast","inputs":[{"name":"bits","type":"uint8","internalType":"uint8"},{"name":"value","type":"uint256","internalType":"uint256"}]}],"bytecode":{"object":"0x608060405234801561000f575f5ffd5b50604051612d5f380380612d5f833981810160405281019061003191906100d4565b805f5f6101000a81548173ffffffffffffffffffffffffffffffffffffffff021916908373ffffffffffffffffffffffffffffffffffffffff160217905550506100ff565b5f5ffd5b5f73ffffffffffffffffffffffffffffffffffffffff82169050919050565b5f6100a38261007a565b9050919050565b6100b381610099565b81146100bd575f5ffd5b50565b5f815190506100ce816100aa565b92915050565b5f602082840312156100e9576100e8610076565b5b5f6100f6848285016100c0565b91505092915050565b612c538061010c5f395ff3fe608060405234801561000f575f5ffd5b50600436106100e8575f3560e01c80637cff7d111161008a578063c1dae57611610064578063c1dae576146102b8578063c45a0155146102ec578063c4f9870b1461030a578063f1c5d6c21461033c576100e8565b80637cff7d11146102285780639de8ef7914610258578063b7d5820b14610288576100e8565b806357c89a7d116100c657806357c89a7d1461017c57806359ad586f146101ac5780635bb47808146101dc5780637b6aa8bd146101f8576100e8565b80632d27b824146100ec5780633842ea421461011c57806354ccb4531461014c575b5f5ffd5b61010660048036038101906101019190611f59565b61036c565b6040516101139190611f9c565b60405180910390f35b61013660048036038101906101319190611f59565b610458565b6040516101439190611f9c565b60405180910390f35b61016660048036038101906101619190612018565b610544565b6040516101739190611f9c565b60405180910390f35b6101966004803603810190610191919061207c565b610658565b6040516101a39190611f9c565b60405180910390f35b6101c660048036038101906101c1919061207c565b610b7b565b6040516101d39190611f9c565b60405180910390f35b6101f660048036038101906101f19190611f59565b610d2f565b005b610212600480360381019061020d9190611f59565b610d71565b60405161021f9190611f9c565b60405180910390f35b610242600480360381019061023d91906120ba565b610e18565b60405161024f9190611f9c565b60405180910390f35b610272600480360381019061026d9190611f59565b610ec2565b60405161027f9190611f9c565b60405180910390f35b6102a2600480360381019061029d919061207c565b611076565b6040516102af9190611f9c565b60405180910390f35b6102d260048036038101906102cd9190611f59565b6112af565b6040516102e395949392919061211e565b60405180910390f35b6102f46113c9565b604051610301919061217e565b60405180910390f35b610324600480360381019061031f9190611f59565b6113ed565b60405161033393929190612197565b60405180910390f35b61035660048036038101906103519190611f59565b611418565b6040516103639190611f9c565b60405180910390f35b5f5f610377836114a3565b90505f8173ffffffffffffffffffffffffffffffffffffffff1663651e32966040518163ffffffff1660e01b8152600401602060405180830381865afa1580156103c3573d5f5f3e3d5ffd5b505050506040513d601f19601f820116820180604052508101906103e791906121e0565b90505f81036103fa575f92505050610453565b5f612710670de0b6b3a7640000836104129190612238565b61041c91906122a6565b90505f671bc16d674ec8000082836104349190612238565b61043e91906122a6565b9050808261044c91906122d6565b9450505050505b919050565b5f5f610463836114a3565b90505f8173ffffffffffffffffffffffffffffffffffffffff16634499ab626040518163ffffffff1660e01b8152600401602060405180830381865afa1580156104af573d5f5f3e3d5ffd5b505050506040513d601f19601f820116820180604052508101906104d391906121e0565b90505f81036104e6575f9250505061053f565b5f612710670de0b6b3a7640000836104fe9190612238565b61050891906122a6565b90505f671bc16d674ec8000082836105209190612238565b61052a91906122a6565b9050808261053891906122d6565b9450505050505b919050565b5f5f8590505f61056861fde85f610559611518565b6115409092919063ffffffff16565b90505f6040518060e001604052808863ffffffff16815260200161058b886115d8565b815260200186815260200186815260200183815260200160405180602001604052805f815250815260200160405180602001604052805f81525081525090505f8373ffffffffffffffffffffffffffffffffffffffff16633b6f743b835f6040518363ffffffff1660e01b8152600401610606929190612470565b6040805180830381865afa158015610620573d5f5f3e3d5ffd5b505050506040513d601f19601f820116820180604052508101906106449190612567565b9050805f0151945050505050949350505050565b5f5f61066484846115f9565b90505f6106718585611682565b90505f61067d8661170b565b90505f61068987611788565b90505f61069588611805565b90505f84036106ac57604595505050505050610b75565b5f73ffffffffffffffffffffffffffffffffffffffff168573ffffffffffffffffffffffffffffffffffffffff16036106ee57611b3995505050505050610b75565b5f5f90505f8673ffffffffffffffffffffffffffffffffffffffff166361bc221a6040518163ffffffff1660e01b8152600401602060405180830381865afa15801561073c573d5f5f3e3d5ffd5b505050506040513d601f19601f8201168201806040525081019061076091906121e0565b90505f600190505b818111610a1f575f8873ffffffffffffffffffffffffffffffffffffffff16631cb928a9836040518263ffffffff1660e01b81526004016107a99190611f9c565b602060405180830381865afa1580156107c4573d5f5f3e3d5ffd5b505050506040513d601f19601f820116820180604052508101906107e891906125a6565b90505f5f6107f4611882565b73ffffffffffffffffffffffffffffffffffffffff168373ffffffffffffffffffffffffffffffffffffffff16036108b05761082e611882565b73ffffffffffffffffffffffffffffffffffffffff166370a082318c6040518263ffffffff1660e01b8152600401610866919061217e565b602060405180830381865afa158015610881573d5f5f3e3d5ffd5b505050506040513d601f19601f820116820180604052508101906108a591906121e0565b91506012905061099d565b8273ffffffffffffffffffffffffffffffffffffffff166370a082318c6040518263ffffffff1660e01b81526004016108e9919061217e565b602060405180830381865afa158015610904573d5f5f3e3d5ffd5b505050506040513d601f19601f8201168201806040525081019061092891906121e0565b91508273ffffffffffffffffffffffffffffffffffffffff1663313ce5676040518163ffffffff1660e01b8152600401602060405180830381865afa158015610973573d5f5f3e3d5ffd5b505050506040513d601f19601f820116820180604052508101906109979190612607565b60ff1690505b5f73ffffffffffffffffffffffffffffffffffffffff168373ffffffffffffffffffffffffffffffffffffffff1614610a095780600a6109dd9190612761565b826109e785611418565b6109f19190612238565b6109fb91906122a6565b86610a0691906122d6565b95505b5050508080610a17906127ab565b915050610768565b505f848688610a2e9190612238565b610a3891906122a6565b90505f610a43611882565b73ffffffffffffffffffffffffffffffffffffffff168573ffffffffffffffffffffffffffffffffffffffff1614610ae7578473ffffffffffffffffffffffffffffffffffffffff1663313ce5676040518163ffffffff1660e01b8152600401602060405180830381865afa158015610abe573d5f5f3e3d5ffd5b505050506040513d601f19601f82011682018060405250810190610ae29190612607565b610aea565b60125b60ff1690505f81600a610afd9190612761565b83610b0788611418565b610b119190612238565b610b1b91906122a6565b90505f610b278e611915565b90505f82670de0b6b3a76400006305f5e10084610b449190612238565b610b4e91906122a6565b88610b599190612238565b610b6391906122a6565b9050809c505050505050505050505050505b92915050565b5f5f610b8684611805565b90505f610b91611882565b73ffffffffffffffffffffffffffffffffffffffff168273ffffffffffffffffffffffffffffffffffffffff1603610c4957610bcb611882565b73ffffffffffffffffffffffffffffffffffffffff166370a08231866040518263ffffffff1660e01b8152600401610c03919061217e565b602060405180830381865afa158015610c1e573d5f5f3e3d5ffd5b505050506040513d601f19601f82011682018060405250810190610c4291906121e0565b9050610cc4565b8173ffffffffffffffffffffffffffffffffffffffff166370a08231866040518263ffffffff1660e01b8152600401610c82919061217e565b602060405180830381865afa158015610c9d573d5f5f3e3d5ffd5b505050506040513d601f19601f82011682018060405250810190610cc191906121e0565b90505b5f610ccf8686611992565b90505f610cdc8787611b9f565b90505f81670de0b6b3a7640000610cf28a611915565b85610cfd9190612238565b610d0791906122a6565b610d1191906127f2565b9050838110610d205783610d22565b805b9550505050505092915050565b805f5f6101000a81548173ffffffffffffffffffffffffffffffffffffffff021916908373ffffffffffffffffffffffffffffffffffffffff16021790555050565b5f5f610d7c836114a3565b90505f8173ffffffffffffffffffffffffffffffffffffffff16634a417a536040518163ffffffff1660e01b8152600401602060405180830381865afa158015610dc8573d5f5f3e3d5ffd5b505050506040513d601f19601f82011682018060405250810190610dec91906121e0565b9050612710670de0b6b3a764000082610e059190612238565b610e0f91906122a6565b92505050919050565b5f5f610e2386611bf5565b90505f610e2f86611bf5565b90505f8473ffffffffffffffffffffffffffffffffffffffff1663dd9103cb89898987876040518663ffffffff1660e01b8152600401610e73959493929190612825565b602060405180830381865afa158015610e8e573d5f5f3e3d5ffd5b505050506040513d601f19601f82011682018060405250810190610eb291906121e0565b9050809350505050949350505050565b5f5f610ecd836114a3565b73ffffffffffffffffffffffffffffffffffffffff1663456dc17a6040518163ffffffff1660e01b8152600401602060405180830381865afa158015610f15573d5f5f3e3d5ffd5b505050506040513d601f19601f82011682018060405250810190610f3991906125a6565b9050600173ffffffffffffffffffffffffffffffffffffffff168173ffffffffffffffffffffffffffffffffffffffff1603610ff557610f77611882565b73ffffffffffffffffffffffffffffffffffffffff166370a08231846040518263ffffffff1660e01b8152600401610faf919061217e565b602060405180830381865afa158015610fca573d5f5f3e3d5ffd5b505050506040513d601f19601f82011682018060405250810190610fee91906121e0565b9150611070565b8073ffffffffffffffffffffffffffffffffffffffff166370a08231846040518263ffffffff1660e01b815260040161102e919061217e565b602060405180830381865afa158015611049573d5f5f3e3d5ffd5b505050506040513d601f19601f8201168201806040525081019061106d91906121e0565b91505b50919050565b5f5f611081846114a3565b73ffffffffffffffffffffffffffffffffffffffff1663b2016bd46040518163ffffffff1660e01b8152600401602060405180830381865afa1580156110c9573d5f5f3e3d5ffd5b505050506040513d601f19601f820116820180604052508101906110ed91906125a6565b90505f6110f9856114a3565b73ffffffffffffffffffffffffffffffffffffffff1663f79c3800856040518263ffffffff1660e01b8152600401611131919061217e565b602060405180830381865afa15801561114c573d5f5f3e3d5ffd5b505050506040513d601f19601f8201168201806040525081019061117091906125a6565b9050600173ffffffffffffffffffffffffffffffffffffffff168273ffffffffffffffffffffffffffffffffffffffff160361122c576111ae611882565b73ffffffffffffffffffffffffffffffffffffffff166370a08231826040518263ffffffff1660e01b81526004016111e6919061217e565b602060405180830381865afa158015611201573d5f5f3e3d5ffd5b505050506040513d601f19601f8201168201806040525081019061122591906121e0565b92506112a7565b8173ffffffffffffffffffffffffffffffffffffffff166370a08231826040518263ffffffff1660e01b8152600401611265919061217e565b602060405180830381865afa158015611280573d5f5f3e3d5ffd5b505050506040513d601f19601f820116820180604052508101906112a491906121e0565b92505b505092915050565b5f5f5f5f5f5f6112be876114a3565b90506112c987610458565b95506112d48761036c565b94506112df87610d71565b93508073ffffffffffffffffffffffffffffffffffffffff166394877fc46040518163ffffffff1660e01b8152600401602060405180830381865afa15801561132a573d5f5f3e3d5ffd5b505050506040513d601f19601f8201168201806040525081019061134e91906121e0565b92508073ffffffffffffffffffffffffffffffffffffffff16631aad44c26040518163ffffffff1660e01b8152600401602060405180830381865afa158015611399573d5f5f3e3d5ffd5b505050506040513d601f19601f820116820180604052508101906113bd91906121e0565b91505091939590929450565b5f5f9054906101000a900473ffffffffffffffffffffffffffffffffffffffff1681565b5f5f5f6113f984610458565b92506114048461036c565b915061140f84610d71565b90509193909250565b5f5f61142383611bf5565b90505f8173ffffffffffffffffffffffffffffffffffffffff1663feaf968c6040518163ffffffff1660e01b815260040160a060405180830381865afa15801561146f573d5f5f3e3d5ffd5b505050506040513d601f19601f8201168201806040525081019061149391906128b5565b5050509150508092505050919050565b5f8173ffffffffffffffffffffffffffffffffffffffff1663f887ea406040518163ffffffff1660e01b8152600401602060405180830381865afa1580156114ed573d5f5f3e3d5ffd5b505050506040513d601f19601f8201168201806040525081019061151191906125a6565b9050919050565b6060600360405160200161152c919061296d565b604051602081830303815290604052905090565b606083600361ffff1661155c5f83611c9590919063ffffffff16565b61ffff16146115b4576115785f82611c9590919063ffffffff16565b6040517f3a51740d0000000000000000000000000000000000000000000000000000000081526004016115ab9190612996565b60405180910390fd5b5f6115bf8585611cfa565b90506115cd86600183611d65565b925050509392505050565b5f8173ffffffffffffffffffffffffffffffffffffffff165f1b9050919050565b5f611603836114a3565b73ffffffffffffffffffffffffffffffffffffffff1663f79c3800836040518263ffffffff1660e01b815260040161163b919061217e565b602060405180830381865afa158015611656573d5f5f3e3d5ffd5b505050506040513d601f19601f8201168201806040525081019061167a91906125a6565b905092915050565b5f61168c836114a3565b73ffffffffffffffffffffffffffffffffffffffff16634fd422df836040518263ffffffff1660e01b81526004016116c4919061217e565b602060405180830381865afa1580156116df573d5f5f3e3d5ffd5b505050506040513d601f19601f8201168201806040525081019061170391906121e0565b905092915050565b5f611715826114a3565b73ffffffffffffffffffffffffffffffffffffffff16631aad44c26040518163ffffffff1660e01b8152600401602060405180830381865afa15801561175d573d5f5f3e3d5ffd5b505050506040513d601f19601f8201168201806040525081019061178191906121e0565b9050919050565b5f611792826114a3565b73ffffffffffffffffffffffffffffffffffffffff1663136cf1f76040518163ffffffff1660e01b8152600401602060405180830381865afa1580156117da573d5f5f3e3d5ffd5b505050506040513d601f19601f820116820180604052508101906117fe91906121e0565b9050919050565b5f61180f826114a3565b73ffffffffffffffffffffffffffffffffffffffff1663456dc17a6040518163ffffffff1660e01b8152600401602060405180830381865afa158015611857573d5f5f3e3d5ffd5b505050506040513d601f19601f8201168201806040525081019061187b91906125a6565b9050919050565b5f5f5f9054906101000a900473ffffffffffffffffffffffffffffffffffffffff1673ffffffffffffffffffffffffffffffffffffffff1663145d51d86040518163ffffffff1660e01b8152600401602060405180830381865afa1580156118ec573d5f5f3e3d5ffd5b505050506040513d601f19601f8201168201806040525081019061191091906125a6565b905090565b5f61191f826114a3565b73ffffffffffffffffffffffffffffffffffffffff16636fb49d736040518163ffffffff1660e01b8152600401602060405180830381865afa158015611967573d5f5f3e3d5ffd5b505050506040513d601f19601f8201168201806040525081019061198b91906121e0565b9050919050565b5f5f61199d84611e20565b90505f6119a985611805565b90505f6119b686866115f9565b90505f6119c284611bf5565b90505f6119ce84611bf5565b90505f6119d9611882565b73ffffffffffffffffffffffffffffffffffffffff168673ffffffffffffffffffffffffffffffffffffffff1603611a9157611a13611882565b73ffffffffffffffffffffffffffffffffffffffff166370a08231856040518263ffffffff1660e01b8152600401611a4b919061217e565b602060405180830381865afa158015611a66573d5f5f3e3d5ffd5b505050506040513d601f19601f82011682018060405250810190611a8a91906121e0565b9050611b0c565b8573ffffffffffffffffffffffffffffffffffffffff166370a08231856040518263ffffffff1660e01b8152600401611aca919061217e565b602060405180830381865afa158015611ae5573d5f5f3e3d5ffd5b505050506040513d601f19601f82011682018060405250810190611b0991906121e0565b90505b5f8490508073ffffffffffffffffffffffffffffffffffffffff1663dd9103cb88888588886040518663ffffffff1660e01b8152600401611b51959493929190612825565b602060405180830381865afa158015611b6c573d5f5f3e3d5ffd5b505050506040513d601f19601f82011682018060405250810190611b9091906121e0565b97505050505050505092915050565b5f5f611baa8461170b565b90505f611bb685611788565b90505f611bc38686611682565b90505f8314611be857818382611bd99190612238565b611be391906122a6565b611bea565b5f5b935050505092915050565b5f5f5f9054906101000a900473ffffffffffffffffffffffffffffffffffffffff1673ffffffffffffffffffffffffffffffffffffffff16631d43335a836040518263ffffffff1660e01b8152600401611c4f919061217e565b602060405180830381865afa158015611c6a573d5f5f3e3d5ffd5b505050506040513d601f19601f82011682018060405250810190611c8e91906125a6565b9050919050565b5f600282611ca391906122d6565b83511015611ce6576040517f08c379a0000000000000000000000000000000000000000000000000000000008152600401611cdd90612a09565b60405180910390fd5b5f8260028501015190508091505092915050565b60605f826fffffffffffffffffffffffffffffffff1614611d3c578282604051602001611d28929190612a76565b604051602081830303815290604052611d5d565b82604051602001611d4d9190612aa1565b6040516020818303038152906040525b905092915050565b606083600361ffff16611d815f83611c9590919063ffffffff16565b61ffff1614611dd957611d9d5f82611c9590919063ffffffff16565b6040517f3a51740d000000000000000000000000000000000000000000000000000000008152600401611dd09190612996565b60405180910390fd5b84600180611de78651611e9d565b611df19190612abb565b8686604051602001611e07959493929190612b5e565b6040516020818303038152906040529150509392505050565b5f611e2a826114a3565b73ffffffffffffffffffffffffffffffffffffffff1663b2016bd46040518163ffffffff1660e01b8152600401602060405180830381865afa158015611e72573d5f5f3e3d5ffd5b505050506040513d601f19601f82011682018060405250810190611e9691906125a6565b9050919050565b5f61ffff8016821115611eea576010826040517f6dfcc650000000000000000000000000000000000000000000000000000000008152600401611ee1929190612bf6565b60405180910390fd5b819050919050565b5f604051905090565b5f5ffd5b5f73ffffffffffffffffffffffffffffffffffffffff82169050919050565b5f611f2882611eff565b9050919050565b611f3881611f1e565b8114611f42575f5ffd5b50565b5f81359050611f5381611f2f565b92915050565b5f60208284031215611f6e57611f6d611efb565b5b5f611f7b84828501611f45565b91505092915050565b5f819050919050565b611f9681611f84565b82525050565b5f602082019050611faf5f830184611f8d565b92915050565b5f63ffffffff82169050919050565b611fcd81611fb5565b8114611fd7575f5ffd5b50565b5f81359050611fe881611fc4565b92915050565b611ff781611f84565b8114612001575f5ffd5b50565b5f8135905061201281611fee565b92915050565b5f5f5f5f608085870312156120305761202f611efb565b5b5f61203d87828801611f45565b945050602061204e87828801611fda565b935050604061205f87828801611f45565b925050606061207087828801612004565b91505092959194509250565b5f5f6040838503121561209257612091611efb565b5b5f61209f85828601611f45565b92505060206120b085828601611f45565b9150509250929050565b5f5f5f5f608085870312156120d2576120d1611efb565b5b5f6120df87828801611f45565b94505060206120f087828801611f45565b935050604061210187828801612004565b925050606061211287828801611f45565b91505092959194509250565b5f60a0820190506121315f830188611f8d565b61213e6020830187611f8d565b61214b6040830186611f8d565b6121586060830185611f8d565b6121656080830184611f8d565b9695505050505050565b61217881611f1e565b82525050565b5f6020820190506121915f83018461216f565b92915050565b5f6060820190506121aa5f830186611f8d565b6121b76020830185611f8d565b6121c46040830184611f8d565b949350505050565b5f815190506121da81611fee565b92915050565b5f602082840312156121f5576121f4611efb565b5b5f612202848285016121cc565b91505092915050565b7f4e487b71000000000000000000000000000000000000000000000000000000005f52601160045260245ffd5b5f61224282611f84565b915061224d83611f84565b925082820261225b81611f84565b915082820484148315176122725761227161220b565b5b5092915050565b7f4e487b71000000000000000000000000000000000000000000000000000000005f52601260045260245ffd5b5f6122b082611f84565b91506122bb83611f84565b9250826122cb576122ca612279565b5b828204905092915050565b5f6122e082611f84565b91506122eb83611f84565b92508282019050808211156123035761230261220b565b5b92915050565b61231281611fb5565b82525050565b5f819050919050565b61232a81612318565b82525050565b61233981611f84565b82525050565b5f81519050919050565b5f82825260208201905092915050565b8281835e5f83830152505050565b5f601f19601f8301169050919050565b5f6123818261233f565b61238b8185612349565b935061239b818560208601612359565b6123a481612367565b840191505092915050565b5f60e083015f8301516123c45f860182612309565b5060208301516123d76020860182612321565b5060408301516123ea6040860182612330565b5060608301516123fd6060860182612330565b50608083015184820360808601526124158282612377565b91505060a083015184820360a086015261242f8282612377565b91505060c083015184820360c08601526124498282612377565b9150508091505092915050565b5f8115159050919050565b61246a81612456565b82525050565b5f6040820190508181035f83015261248881856123af565b90506124976020830184612461565b9392505050565b5f5ffd5b7f4e487b71000000000000000000000000000000000000000000000000000000005f52604160045260245ffd5b6124d882612367565b810181811067ffffffffffffffff821117156124f7576124f66124a2565b5b80604052505050565b5f612509611ef2565b905061251582826124cf565b919050565b5f6040828403121561252f5761252e61249e565b5b6125396040612500565b90505f612548848285016121cc565b5f83015250602061255b848285016121cc565b60208301525092915050565b5f6040828403121561257c5761257b611efb565b5b5f6125898482850161251a565b91505092915050565b5f815190506125a081611f2f565b92915050565b5f602082840312156125bb576125ba611efb565b5b5f6125c884828501612592565b91505092915050565b5f60ff82169050919050565b6125e6816125d1565b81146125f0575f5ffd5b50565b5f81519050612601816125dd565b92915050565b5f6020828403121561261c5761261b611efb565b5b5f612629848285016125f3565b91505092915050565b5f8160011c9050919050565b5f5f8291508390505b6001851115612687578086048111156126635761266261220b565b5b60018516156126725780820291505b808102905061268085612632565b9450612647565b94509492505050565b5f8261269f576001905061275a565b816126ac575f905061275a565b81600181146126c257600281146126cc576126fb565b600191505061275a565b60ff8411156126de576126dd61220b565b5b8360020a9150848211156126f5576126f461220b565b5b5061275a565b5060208310610133831016604e8410600b84101617156127305782820a90508381111561272b5761272a61220b565b5b61275a565b61273d848484600161263e565b925090508184048111156127545761275361220b565b5b81810290505b9392505050565b5f61276b82611f84565b915061277683611f84565b92506127a37fffffffffffffffffffffffffffffffffffffffffffffffffffffffffffffffff8484612690565b905092915050565b5f6127b582611f84565b91507fffffffffffffffffffffffffffffffffffffffffffffffffffffffffffffffff82036127e7576127e661220b565b5b600182019050919050565b5f6127fc82611f84565b915061280783611f84565b925082820390508181111561281f5761281e61220b565b5b92915050565b5f60a0820190506128385f83018861216f565b612845602083018761216f565b6128526040830186611f8d565b61285f606083018561216f565b61286c608083018461216f565b9695505050505050565b5f69ffffffffffffffffffff82169050919050565b61289481612876565b811461289e575f5ffd5b50565b5f815190506128af8161288b565b92915050565b5f5f5f5f5f60a086880312156128ce576128cd611efb565b5b5f6128db888289016128a1565b95505060206128ec888289016121cc565b94505060406128fd888289016121cc565b935050606061290e888289016121cc565b925050608061291f888289016128a1565b9150509295509295909350565b5f61ffff82169050919050565b5f8160f01b9050919050565b5f61294f82612939565b9050919050565b6129676129628261292c565b612945565b82525050565b5f6129788284612956565b60028201915081905092915050565b6129908161292c565b82525050565b5f6020820190506129a95f830184612987565b92915050565b5f82825260208201905092915050565b7f746f55696e7431365f6f75744f66426f756e64730000000000000000000000005f82015250565b5f6129f36014836129af565b91506129fe826129bf565b602082019050919050565b5f6020820190508181035f830152612a20816129e7565b9050919050565b5f6fffffffffffffffffffffffffffffffff82169050919050565b5f8160801b9050919050565b5f612a5882612a42565b9050919050565b612a70612a6b82612a27565b612a4e565b82525050565b5f612a818285612a5f565b601082019150612a918284612a5f565b6010820191508190509392505050565b5f612aac8284612a5f565b60108201915081905092915050565b5f612ac58261292c565b9150612ad08361292c565b9250828201905061ffff811115612aea57612ae961220b565b5b92915050565b5f81905092915050565b5f612b048261233f565b612b0e8185612af0565b9350612b1e818560208601612359565b80840191505092915050565b5f8160f81b9050919050565b5f612b4082612b2a565b9050919050565b612b58612b53826125d1565b612b36565b82525050565b5f612b698288612afa565b9150612b758287612b47565b600182019150612b858286612956565b600282019150612b958285612b47565b600182019150612ba58284612afa565b91508190509695505050505050565b5f819050919050565b5f819050919050565b5f612be0612bdb612bd684612bb4565b612bbd565b6125d1565b9050919050565b612bf081612bc6565b82525050565b5f604082019050612c095f830185612be7565b612c166020830184611f8d565b939250505056fea2646970667358221220f601329271612f07bd1760b0f4609d240cf600b32d1b97a010a984abe9186c6d64736f6c634300081c0033","linkReferences":{}},"methodIdentifiers":{"factory()":"c45a0155","getAPY(address)":"c4f9870b","getBorrowAPY(address)":"2d27b824","getCollateralBalance(address,address)":"b7d5820b","getExchangeRate(address,address,uint256,address)":"7cff7d11","getFee(address,uint32,address,uint256)":"54ccb453","getHealthFactor(address,address)":"57c89a7d","getLendingPoolMetrics(address)":"c1dae576","getMaxBorrowAmount(address,address)":"59ad586f","getSupplyAPY(address)":"3842ea42","getTokenValue(address)":"f1c5d6c2","getTotalLiquidity(address)":"9de8ef79","getUtilizationRate(address)":"7b6aa8bd","setFactory(address)":"5bb47808"},"id":101}