{"abi":[{"type":"constructor","inputs":[{"name":"_endpoint","type":"address","internalType":"address"},{"name":"_owner","type":"address","internalType":"address"}],"stateMutability":"nonpayable"},{"type":"function","name":"SEND","inputs":[],"outputs":[{"name":"","type":"uint16","internalType":"uint16"}],"stateMutability":"view"},{"type":"function","name":"allowInitializePath","inputs":[{"name":"origin","type":"tuple","internalType":"struct Origin","components":[{"name":"srcEid","type":"uint32","internalType":"uint32"},{"name":"sender","type":"bytes32","internalType":"bytes32"},{"name":"nonce","type":"uint64","internalType":"uint64"}]}],"outputs":[{"name":"","type":"bool","internalType":"bool"}],"stateMutability":"view"},{"type":"function","name":"combineOptions","inputs":[{"name":"_eid","type":"uint32","internalType":"uint32"},{"name":"_msgType","type":"uint16","internalType":"uint16"},{"name":"_extraOptions","type":"bytes","internalType":"bytes"}],"outputs":[{"name":"","type":"bytes","internalType":"bytes"}],"stateMutability":"view"},{"type":"function","name":"endpoint","inputs":[],"outputs":[{"name":"","type":"address","internalType":"contract ILayerZeroEndpointV2"}],"stateMutability":"view"},{"type":"function","name":"enforcedOptions","inputs":[{"name":"eid","type":"uint32","internalType":"uint32"},{"name":"msgType","type":"uint16","internalType":"uint16"}],"outputs":[{"name":"enforcedOption","type":"bytes","internalType":"bytes"}],"stateMutability":"view"},{"type":"function","name":"execute","inputs":[{"name":"_lendingPool","type":"address","internalType":"address"},{"name":"_user","type":"address","internalType":"address"},{"name":"_amount","type":"uint256","internalType":"uint256"}],"outputs":[],"stateMutability":"nonpayable"},{"type":"function","name":"factory","inputs":[],"outputs":[{"name":"","type":"address","internalType":"address"}],"stateMutability":"view"},{"type":"function","name":"isComposeMsgSender","inputs":[{"name":"","type":"tuple","internalType":"struct Origin","components":[{"name":"srcEid","type":"uint32","internalType":"uint32"},{"name":"sender","type":"bytes32","internalType":"bytes32"},{"name":"nonce","type":"uint64","internalType":"uint64"}]},{"name":"","type":"bytes","internalType":"bytes"},{"name":"_sender","type":"address","internalType":"address"}],"outputs":[{"name":"","type":"bool","internalType":"bool"}],"stateMutability":"view"},{"type":"function","name":"lastMessage","inputs":[],"outputs":[{"name":"","type":"bytes","internalType":"bytes"}],"stateMutability":"view"},{"type":"function","name":"lzReceive","inputs":[{"name":"_origin","type":"tuple","internalType":"struct Origin","components":[{"name":"srcEid","type":"uint32","internalType":"uint32"},{"name":"sender","type":"bytes32","internalType":"bytes32"},{"name":"nonce","type":"uint64","internalType":"uint64"}]},{"name":"_guid","type":"bytes32","internalType":"bytes32"},{"name":"_message","type":"bytes","internalType":"bytes"},{"name":"_executor","type":"address","internalType":"address"},{"name":"_extraData","type":"bytes","internalType":"bytes"}],"outputs":[],"stateMutability":"payable"},{"type":"function","name":"nextNonce","inputs":[{"name":"","type":"uint32","internalType":"uint32"},{"name":"","type":"bytes32","internalType":"bytes32"}],"outputs":[{"name":"nonce","type":"uint64","internalType":"uint64"}],"stateMutability":"view"},{"type":"function","name":"oAppVersion","inputs":[],"outputs":[{"name":"senderVersion","type":"uint64","internalType":"uint64"},{"name":"receiverVersion","type":"uint64","internalType":"uint64"}],"stateMutability":"pure"},{"type":"function","name":"oftaddress","inputs":[],"outputs":[{"name":"","type":"address","internalType":"address"}],"stateMutability":"view"},{"type":"function","name":"owner","inputs":[],"outputs":[{"name":"","type":"address","internalType":"address"}],"stateMutability":"view"},{"type":"function","name":"peers","inputs":[{"name":"eid","type":"uint32","internalType":"uint32"}],"outputs":[{"name":"peer","type":"bytes32","internalType":"bytes32"}],"stateMutability":"view"},{"type":"function","name":"quoteSendString","inputs":[{"name":"_dstEid","type":"uint32","internalType":"uint32"},{"name":"_lendingPool","type":"address","internalType":"address"},{"name":"_user","type":"address","internalType":"address"},{"name":"_token","type":"address","internalType":"address"},{"name":"_amount","type":"uint256","internalType":"uint256"},{"name":"_options","type":"bytes","internalType":"bytes"},{"name":"_payInLzToken","type":"bool","internalType":"bool"}],"outputs":[{"name":"fee","type":"tuple","internalType":"struct MessagingFee","components":[{"name":"nativeFee","type":"uint256","internalType":"uint256"},{"name":"lzTokenFee","type":"uint256","internalType":"uint256"}]}],"stateMutability":"view"},{"type":"function","name":"renounceOwnership","inputs":[],"outputs":[],"stateMutability":"nonpayable"},{"type":"function","name":"sendString","inputs":[{"name":"_dstEid","type":"uint32","internalType":"uint32"},{"name":"_lendingPool","type":"address","internalType":"address"},{"name":"_user","type":"address","internalType":"address"},{"name":"_tokendst","type":"address","internalType":"address"},{"name":"_oappaddressdst","type":"address","internalType":"address"},{"name":"_amount","type":"uint256","internalType":"uint256"},{"name":"_slippageTolerance","type":"uint256","internalType":"uint256"},{"name":"_options","type":"bytes","internalType":"bytes"}],"outputs":[],"stateMutability":"payable"},{"type":"function","name":"setDelegate","inputs":[{"name":"_delegate","type":"address","internalType":"address"}],"outputs":[],"stateMutability":"nonpayable"},{"type":"function","name":"setEnforcedOptions","inputs":[{"name":"_enforcedOptions","type":"tuple[]","internalType":"struct EnforcedOptionParam[]","components":[{"name":"eid","type":"uint32","internalType":"uint32"},{"name":"msgType","type":"uint16","internalType":"uint16"},{"name":"options","type":"bytes","internalType":"bytes"}]}],"outputs":[],"stateMutability":"nonpayable"},{"type":"function","name":"setFactory","inputs":[{"name":"_factory","type":"address","internalType":"address"}],"outputs":[],"stateMutability":"nonpayable"},{"type":"function","name":"setOFTaddress","inputs":[{"name":"_oftaddress","type":"address","internalType":"address"}],"outputs":[],"stateMutability":"nonpayable"},{"type":"function","name":"setPeer","inputs":[{"name":"_eid","type":"uint32","internalType":"uint32"},{"name":"_peer","type":"bytes32","internalType":"bytes32"}],"outputs":[],"stateMutability":"nonpayable"},{"type":"function","name":"transferOwnership","inputs":[{"name":"newOwner","type":"address","internalType":"address"}],"outputs":[],"stateMutability":"nonpayable"},{"type":"function","name":"userAmount","inputs":[{"name":"","type":"address","internalType":"address"}],"outputs":[{"name":"","type":"uint256","internalType":"uint256"}],"stateMutability":"view"},{"type":"event","name":"EnforcedOptionSet","inputs":[{"name":"_enforcedOptions","type":"tuple[]","indexed":false,"internalType":"struct EnforcedOptionParam[]","components":[{"name":"eid","type":"uint32","internalType":"uint32"},{"name":"msgType","type":"uint16","internalType":"uint16"},{"name":"options","type":"bytes","internalType":"bytes"}]}],"anonymous":false},{"type":"event","name":"ExecuteRepayDebt","inputs":[{"name":"lendingPool","type":"address","indexed":false,"internalType":"address"},{"name":"token","type":"address","indexed":false,"internalType":"address"},{"name":"user","type":"address","indexed":false,"internalType":"address"},{"name":"amount","type":"uint256","indexed":false,"internalType":"uint256"}],"anonymous":false},{"type":"event","name":"OwnershipTransferred","inputs":[{"name":"previousOwner","type":"address","indexed":true,"internalType":"address"},{"name":"newOwner","type":"address","indexed":true,"internalType":"address"}],"anonymous":false},{"type":"event","name":"PeerSet","inputs":[{"name":"eid","type":"uint32","indexed":false,"internalType":"uint32"},{"name":"peer","type":"bytes32","indexed":false,"internalType":"bytes32"}],"anonymous":false},{"type":"event","name":"SendRepayDebtFromDst","inputs":[{"name":"lendingPool","type":"address","indexed":false,"internalType":"address"},{"name":"user","type":"address","indexed":false,"internalType":"address"},{"name":"token","type":"address","indexed":false,"internalType":"address"},{"name":"amount","type":"uint256","indexed":false,"internalType":"uint256"}],"anonymous":false},{"type":"event","name":"SendRepayDebtFromSrc","inputs":[{"name":"lendingPool","type":"address","indexed":false,"internalType":"address"},{"name":"user","type":"address","indexed":false,"internalType":"address"},{"name":"token","type":"address","indexed":false,"internalType":"address"},{"name":"amount","type":"uint256","indexed":false,"internalType":"uint256"}],"anonymous":false},{"type":"error","name":"InsufficientBalance","inputs":[]},{"type":"error","name":"InvalidDelegate","inputs":[]},{"type":"error","name":"InvalidEndpointCall","inputs":[]},{"type":"error","name":"InvalidOptionType","inputs":[{"name":"optionType","type":"uint16","internalType":"uint16"}]},{"type":"error","name":"InvalidOptions","inputs":[{"name":"options","type":"bytes","internalType":"bytes"}]},{"type":"error","name":"LzTokenUnavailable","inputs":[]},{"type":"error","name":"NoPeer","inputs":[{"name":"eid","type":"uint32","internalType":"uint32"}]},{"type":"error","name":"NotEnoughNative","inputs":[{"name":"msgValue","type":"uint256","internalType":"uint256"}]},{"type":"error","name":"OnlyEndpoint","inputs":[{"name":"addr","type":"address","internalType":"address"}]},{"type":"error","name":"OnlyPeer","inputs":[{"name":"eid","type":"uint32","internalType":"uint32"},{"name":"sender","type":"bytes32","internalType":"bytes32"}]},{"type":"error","name":"OwnableInvalidOwner","inputs":[{"name":"owner","type":"address","internalType":"address"}]},{"type":"error","name":"OwnableUnauthorizedAccount","inputs":[{"name":"account","type":"address","internalType":"address"}]},{"type":"error","name":"SafeCastOverflowedUintDowncast","inputs":[{"name":"bits","type":"uint8","internalType":"uint8"},{"name":"value","type":"uint256","internalType":"uint256"}]},{"type":"error","name":"SafeERC20FailedOperation","inputs":[{"name":"token","type":"address","internalType":"address"}]}],"bytecode":{"object":"0x60a060405234801561000f575f5ffd5b50604051614340380380614340833981810160405281019061003191906102e1565b81818181845f73ffffffffffffffffffffffffffffffffffffffff168173ffffffffffffffffffffffffffffffffffffffff16036100a6575f6040517f1e4fbdf700000000000000000000000000000000000000000000000000000000815260040161009d919061032e565b60405180910390fd5b6100b5816101c260201b60201c565b508173ffffffffffffffffffffffffffffffffffffffff1660808173ffffffffffffffffffffffffffffffffffffffff16815250505f73ffffffffffffffffffffffffffffffffffffffff168173ffffffffffffffffffffffffffffffffffffffff160361014f576040517fb586360400000000000000000000000000000000000000000000000000000000815260040160405180910390fd5b60805173ffffffffffffffffffffffffffffffffffffffff1663ca5eb5e1826040518263ffffffff1660e01b815260040161018a919061032e565b5f604051808303815f87803b1580156101a1575f5ffd5b505af11580156101b3573d5f5f3e3d5ffd5b50505050505050505050610347565b5f5f5f9054906101000a900473ffffffffffffffffffffffffffffffffffffffff169050815f5f6101000a81548173ffffffffffffffffffffffffffffffffffffffff021916908373ffffffffffffffffffffffffffffffffffffffff1602179055508173ffffffffffffffffffffffffffffffffffffffff168173ffffffffffffffffffffffffffffffffffffffff167f8be0079c531659141344cd1fd0a4f28419497f9722a3daafe3b4186f6b6457e060405160405180910390a35050565b5f5ffd5b5f73ffffffffffffffffffffffffffffffffffffffff82169050919050565b5f6102b082610287565b9050919050565b6102c0816102a6565b81146102ca575f5ffd5b50565b5f815190506102db816102b7565b92915050565b5f5f604083850312156102f7576102f6610283565b5b5f610304858286016102cd565b9250506020610315858286016102cd565b9150509250929050565b610328816102a6565b82525050565b5f6020820190506103415f83018461031f565b92915050565b608051613fb76103895f395f81816105ef0152818161089e01528181610cf9015281816112d101528181611d75015281816120ce01526121c60152613fb75ff3fe608060405260043610610165575f3560e01c80638da5cb5b116100d0578063c45a015511610089578063ea89900e11610063578063ea89900e14610522578063eafaddfd1461054a578063f2fde38b14610572578063ff7bd03d1461059a57610165565b8063c45a015514610494578063ca5eb5e1146104be578063e1ad418e146104e657610165565b80638da5cb5b14610384578063968a61ce146103ae5780639c967afa146103ca578063b98bd070146103f4578063bb0b6a531461041c578063bc70b3541461045857610165565b80635bb47808116101225780635bb47808146102685780635e280f111461029057806362a896b0146102ba578063715018a6146102f65780637d25a05e1461030c57806382413eac1461034857610165565b806313137d651461016957806317442b70146101855780631f5e1334146101b057806332970710146101da5780633400288b146102045780635535d4611461022c575b5f5ffd5b610183600480360381019061017e91906123ce565b6105d6565b005b348015610190575f5ffd5b506101996106f6565b6040516101a79291906124a7565b60405180910390f35b3480156101bb575f5ffd5b506101c4610704565b6040516101d191906124ea565b60405180910390f35b3480156101e5575f5ffd5b506101ee610709565b6040516101fb9190612573565b60405180910390f35b34801561020f575f5ffd5b5061022a600480360381019061022591906125cc565b610795565b005b348015610237575f5ffd5b50610252600480360381019061024d9190612634565b6107ab565b60405161025f9190612573565b60405180910390f35b348015610273575f5ffd5b5061028e60048036038101906102899190612672565b610851565b005b34801561029b575f5ffd5b506102a461089c565b6040516102b191906126f8565b60405180910390f35b3480156102c5575f5ffd5b506102e060048036038101906102db9190612779565b6108c0565b6040516102ed9190612872565b60405180910390f35b348015610301575f5ffd5b5061030a610918565b005b348015610317575f5ffd5b50610332600480360381019061032d91906125cc565b61092b565b60405161033f919061288b565b60405180910390f35b348015610353575f5ffd5b5061036e600480360381019061036991906128a4565b610935565b60405161037b9190612924565b60405180910390f35b34801561038f575f5ffd5b5061039861096f565b6040516103a5919061294c565b60405180910390f35b6103c860048036038101906103c39190612965565b610996565b005b3480156103d5575f5ffd5b506103de610a6d565b6040516103eb919061294c565b60405180910390f35b3480156103ff575f5ffd5b5061041a60048036038101906104159190612a8a565b610a92565b005b348015610427575f5ffd5b50610442600480360381019061043d9190612ad5565b610ab3565b60405161044f9190612b0f565b60405180910390f35b348015610463575f5ffd5b5061047e60048036038101906104799190612b28565b610ac8565b60405161048b9190612573565b60405180910390f35b34801561049f575f5ffd5b506104a8610cca565b6040516104b5919061294c565b60405180910390f35b3480156104c9575f5ffd5b506104e460048036038101906104df9190612672565b610cef565b005b3480156104f1575f5ffd5b5061050c60048036038101906105079190612672565b610d80565b6040516105199190612ba8565b60405180910390f35b34801561052d575f5ffd5b5061054860048036038101906105439190612672565b610d95565b005b348015610555575f5ffd5b50610570600480360381019061056b9190612bc1565b610de0565b005b34801561057d575f5ffd5b5061059860048036038101906105939190612672565b610fe5565b005b3480156105a5575f5ffd5b506105c060048036038101906105bb9190612c11565b611069565b6040516105cd9190612924565b60405180910390f35b3373ffffffffffffffffffffffffffffffffffffffff167f000000000000000000000000000000000000000000000000000000000000000073ffffffffffffffffffffffffffffffffffffffff161461066657336040517f91ac5e4f00000000000000000000000000000000000000000000000000000000815260040161065d919061294c565b60405180910390fd5b8660200135610685885f0160208101906106809190612ad5565b6110a6565b146106de57865f01602081019061069c9190612ad5565b87602001356040517fc26bebcc0000000000000000000000000000000000000000000000000000000081526004016106d5929190612c4b565b60405180910390fd5b6106ed87878787878787611117565b50505050505050565b5f5f60016002915091509091565b600181565b6003805461071690612c9f565b80601f016020809104026020016040519081016040528092919081815260200182805461074290612c9f565b801561078d5780601f106107645761010080835404028352916020019161078d565b820191905f5260205f20905b81548152906001019060200180831161077057829003601f168201915b505050505081565b61079d6111e1565b6107a78282611268565b5050565b6002602052815f5260405f20602052805f5260405f205f915091505080546107d290612c9f565b80601f01602080910402602001604051908101604052809291908181526020018280546107fe90612c9f565b80156108495780601f1061082057610100808354040283529160200191610849565b820191905f5260205f20905b81548152906001019060200180831161082c57829003601f168201915b505050505081565b6108596111e1565b8060045f6101000a81548173ffffffffffffffffffffffffffffffffffffffff021916908373ffffffffffffffffffffffffffffffffffffffff16021790555050565b7f000000000000000000000000000000000000000000000000000000000000000081565b6108c8612266565b5f888888886040516020016108e09493929190612ccf565b60405160208183030381529060405290506109098a826109038d60018a8a610ac8565b866112c7565b91505098975050505050505050565b6109206111e1565b6109295f6113a8565b565b5f5f905092915050565b5f3073ffffffffffffffffffffffffffffffffffffffff168273ffffffffffffffffffffffffffffffffffffffff16149050949350505050565b5f5f5f9054906101000a900473ffffffffffffffffffffffffffffffffffffffff16905090565b5f6109a38a878787611469565b90505f6109b58b8b8b8b8a89896115bc565b905080826109c39190612d3f565b341015610a05576040517f08c379a00000000000000000000000000000000000000000000000000000000081526004016109fc90612dcc565b60405180910390fd5b610a138b888b898987611614565b610a238b8b8b8b8a89898861191f565b7fb8f36dda3b40e3371d2310a09f1eaf78b6080461c2a84c0d4e8230e2a4d0da218a8a8a89604051610a589493929190612ccf565b60405180910390a15050505050505050505050565b60055f9054906101000a900473ffffffffffffffffffffffffffffffffffffffff1681565b610a9a6111e1565b610aaf828290610aaa9190613048565b611986565b5050565b6001602052805f5260405f205f915090505481565b60605f60025f8763ffffffff1663ffffffff1681526020019081526020015f205f8661ffff1661ffff1681526020019081526020015f208054610b0a90612c9f565b80601f0160208091040260200160405190810160405280929190818152602001828054610b3690612c9f565b8015610b815780601f10610b5857610100808354040283529160200191610b81565b820191905f5260205f20905b815481529060010190602001808311610b6457829003601f168201915b505050505090505f815103610bdc5783838080601f0160208091040260200160405190810160405280939291908181526020018383808284375f81840152601f19601f82011690508083019250505050505050915050610cc2565b5f8484905003610bef5780915050610cc2565b60028484905010610c8357610c4684848080601f0160208091040260200160405190810160405280939291908181526020018383808284375f81840152601f19601f82011690508083019250505050505050611a9e565b8084846002908092610c5a93929190613064565b604051602001610c6c939291906130fc565b604051602081830303815290604052915050610cc2565b83836040517f9a6d49cd000000000000000000000000000000000000000000000000000000008152600401610cb992919061314d565b60405180910390fd5b949350505050565b60045f9054906101000a900473ffffffffffffffffffffffffffffffffffffffff1681565b610cf76111e1565b7f000000000000000000000000000000000000000000000000000000000000000073ffffffffffffffffffffffffffffffffffffffff1663ca5eb5e1826040518263ffffffff1660e01b8152600401610d50919061294c565b5f604051808303815f87803b158015610d67575f5ffd5b505af1158015610d79573d5f5f3e3d5ffd5b5050505050565b6006602052805f5260405f205f915090505481565b610d9d6111e1565b8060055f6101000a81548173ffffffffffffffffffffffffffffffffffffffff021916908373ffffffffffffffffffffffffffffffffffffffff16021790555050565b60065f8373ffffffffffffffffffffffffffffffffffffffff1673ffffffffffffffffffffffffffffffffffffffff1681526020019081526020015f2054811115610e57576040517ff4d678b800000000000000000000000000000000000000000000000000000000815260040160405180910390fd5b8060065f8473ffffffffffffffffffffffffffffffffffffffff1673ffffffffffffffffffffffffffffffffffffffff1681526020019081526020015f205f828254610ea3919061316f565b925050819055505f610eb484611af7565b90508073ffffffffffffffffffffffffffffffffffffffff1663095ea7b385846040518363ffffffff1660e01b8152600401610ef19291906131a2565b6020604051808303815f875af1158015610f0d573d5f5f3e3d5ffd5b505050506040513d601f19601f82011682018060405250810190610f3191906131dd565b508373ffffffffffffffffffffffffffffffffffffffff1663b8939dd083835f876101f46040518663ffffffff1660e01b8152600401610f75959493929190613241565b5f604051808303815f87803b158015610f8c575f5ffd5b505af1158015610f9e573d5f5f3e3d5ffd5b505050507f9b9642bf7507c7416bdd5ed18f14ddb9b2a00698703a6235e6fbf169617f803284828585604051610fd79493929190612ccf565b60405180910390a150505050565b610fed6111e1565b5f73ffffffffffffffffffffffffffffffffffffffff168173ffffffffffffffffffffffffffffffffffffffff160361105d575f6040517f1e4fbdf7000000000000000000000000000000000000000000000000000000008152600401611054919061294c565b60405180910390fd5b611066816113a8565b50565b5f816020013560015f845f0160208101906110849190612ad5565b63ffffffff1663ffffffff1681526020019081526020015f2054149050919050565b5f5f60015f8463ffffffff1663ffffffff1681526020019081526020015f205490505f5f1b810361110e57826040517ff6ff4fb70000000000000000000000000000000000000000000000000000000081526004016111059190613292565b60405180910390fd5b80915050919050565b5f5f5f5f888881019061112a91906132e6565b93509350935093508060065f8573ffffffffffffffffffffffffffffffffffffffff1673ffffffffffffffffffffffffffffffffffffffff1681526020019081526020015f205f82825461117e9190612d3f565b925050819055508888600391826111969291906134eb565b507f28bcc9df31a920081032c1de90ec5dbac5a6e696a83c14ba52d3619980ddbedf848484846040516111cc9493929190612ccf565b60405180910390a15050505050505050505050565b6111e9611bd8565b73ffffffffffffffffffffffffffffffffffffffff1661120761096f565b73ffffffffffffffffffffffffffffffffffffffff16146112665761122a611bd8565b6040517f118cdaa700000000000000000000000000000000000000000000000000000000815260040161125d919061294c565b60405180910390fd5b565b8060015f8463ffffffff1663ffffffff1681526020019081526020015f20819055507f238399d427b947898edb290f5ff0f9109849b1c3ba196a42e35f00c50a54b98b82826040516112bb929190612c4b565b60405180910390a15050565b6112cf612266565b7f000000000000000000000000000000000000000000000000000000000000000073ffffffffffffffffffffffffffffffffffffffff1663ddc28c586040518060a001604052808863ffffffff16815260200161132b896110a6565b8152602001878152602001868152602001851515815250306040518363ffffffff1660e01b81526004016113609291906136a7565b6040805180830381865afa15801561137a573d5f5f3e3d5ffd5b505050506040513d601f19601f8201168201806040525081019061139e9190613736565b9050949350505050565b5f5f5f9054906101000a900473ffffffffffffffffffffffffffffffffffffffff169050815f5f6101000a81548173ffffffffffffffffffffffffffffffffffffffff021916908373ffffffffffffffffffffffffffffffffffffffff1602179055508173ffffffffffffffffffffffffffffffffffffffff168173ffffffffffffffffffffffffffffffffffffffff167f8be0079c531659141344cd1fd0a4f28419497f9722a3daafe3b4186f6b6457e060405160405180910390a35050565b5f5f60055f9054906101000a900473ffffffffffffffffffffffffffffffffffffffff1690505f6114ae61fde85f61149f611bdf565b611c079092919063ffffffff16565b90505f6040518060e001604052808963ffffffff1681526020016114d189611c9f565b815260200187815260200160648760646114eb919061316f565b896114f69190613761565b61150091906137cf565b815260200183815260200160405180602001604052805f815250815260200160405180602001604052805f81525081525090508273ffffffffffffffffffffffffffffffffffffffff16633b6f743b825f6040518363ffffffff1660e01b815260040161156e9291906138a6565b6040805180830381865afa158015611588573d5f5f3e3d5ffd5b505050506040513d601f19601f820116820180604052508101906115ac9190613736565b5f01519350505050949350505050565b5f5f6115cb8960018686610ac8565b90505f888888886040516020016115e59493929190612ccf565b60405160208183030381529060405290506116028a82845f6112c7565b5f015192505050979650505050505050565b5f60055f9054906101000a900473ffffffffffffffffffffffffffffffffffffffff1690505f61165861fde85f611649611bdf565b611c079092919063ffffffff16565b90505f6040518060e001604052808a63ffffffff16815260200161167b8a611c9f565b81526020018781526020016064876064611695919061316f565b896116a09190613761565b6116aa91906137cf565b815260200183815260200160405180602001604052805f815250815260200160405180602001604052805f81525081525090506117768730888673ffffffffffffffffffffffffffffffffffffffff16630dec983d6040518163ffffffff1660e01b8152600401602060405180830381865afa15801561172c573d5f5f3e3d5ffd5b505050506040513d601f19601f8201168201806040525081019061175091906138e8565b73ffffffffffffffffffffffffffffffffffffffff16611cc0909392919063ffffffff16565b8273ffffffffffffffffffffffffffffffffffffffff16630dec983d6040518163ffffffff1660e01b8152600401602060405180830381865afa1580156117bf573d5f5f3e3d5ffd5b505050506040513d601f19601f820116820180604052508101906117e391906138e8565b73ffffffffffffffffffffffffffffffffffffffff1663095ea7b360055f9054906101000a900473ffffffffffffffffffffffffffffffffffffffff16886040518363ffffffff1660e01b815260040161183e9291906131a2565b6020604051808303815f875af115801561185a573d5f5f3e3d5ffd5b505050506040513d601f19601f8201168201806040525081019061187e91906131dd565b508273ffffffffffffffffffffffffffffffffffffffff1663c7c7f5b3858360405180604001604052808981526020015f8152508b6040518563ffffffff1660e01b81526004016118d193929190613913565b60c06040518083038185885af11580156118ed573d5f5f3e3d5ffd5b50505050506040513d601f19601f820116820180604052508101906119129190613a3b565b5050505050505050505050565b5f61192d8960018686610ac8565b90505f888888886040516020016119479493929190612ccf565b60405160208183030381529060405290506119798a828460405180604001604052808881526020015f8152508c611d42565b5050505050505050505050565b5f5f90505b8151811015611a63576119bb8282815181106119aa576119a9613a79565b5b602002602001015160400151611a9e565b8181815181106119ce576119cd613a79565b5b60200260200101516040015160025f8484815181106119f0576119ef613a79565b5b60200260200101515f015163ffffffff1663ffffffff1681526020019081526020015f205f848481518110611a2857611a27613a79565b5b60200260200101516020015161ffff1661ffff1681526020019081526020015f209081611a559190613aa6565b50808060010191505061198b565b507fbe4864a8e820971c0247f5992e2da559595f7bf076a21cb5928d443d2a13b67481604051611a939190613c8c565b60405180910390a150565b5f60028201519050600361ffff168161ffff1614611af357816040517f9a6d49cd000000000000000000000000000000000000000000000000000000008152600401611aea9190612573565b60405180910390fd5b5050565b5f8173ffffffffffffffffffffffffffffffffffffffff1663f887ea406040518163ffffffff1660e01b8152600401602060405180830381865afa158015611b41573d5f5f3e3d5ffd5b505050506040513d601f19601f82011682018060405250810190611b6591906138e8565b73ffffffffffffffffffffffffffffffffffffffff1663456dc17a6040518163ffffffff1660e01b8152600401602060405180830381865afa158015611bad573d5f5f3e3d5ffd5b505050506040513d601f19601f82011682018060405250810190611bd191906138e8565b9050919050565b5f33905090565b60606003604051602001611bf39190613ce0565b604051602081830303815290604052905090565b606083600361ffff16611c235f83611e5890919063ffffffff16565b61ffff1614611c7b57611c3f5f82611e5890919063ffffffff16565b6040517f3a51740d000000000000000000000000000000000000000000000000000000008152600401611c7291906124ea565b60405180910390fd5b5f611c868585611ebd565b9050611c9486600183611f28565b925050509392505050565b5f8173ffffffffffffffffffffffffffffffffffffffff165f1b9050919050565b611d3c848573ffffffffffffffffffffffffffffffffffffffff166323b872dd868686604051602401611cf593929190613cfa565b604051602081830303815290604052915060e01b6020820180517bffffffffffffffffffffffffffffffffffffffffffffffffffffffff8381831617835250505050611fe3565b50505050565b611d4a61227e565b5f611d57845f015161207e565b90505f84602001511115611d7357611d7284602001516120cb565b5b7f000000000000000000000000000000000000000000000000000000000000000073ffffffffffffffffffffffffffffffffffffffff16632637a450826040518060a001604052808b63ffffffff168152602001611dd08c6110a6565b81526020018a81526020018981526020015f8960200151111515815250866040518463ffffffff1660e01b8152600401611e0b9291906136a7565b60806040518083038185885af1158015611e27573d5f5f3e3d5ffd5b50505050506040513d601f19601f82011682018060405250810190611e4c9190613d2f565b91505095945050505050565b5f600282611e669190612d3f565b83511015611ea9576040517f08c379a0000000000000000000000000000000000000000000000000000000008152600401611ea090613da4565b60405180910390fd5b5f8260028501015190508091505092915050565b60605f826fffffffffffffffffffffffffffffffff1614611eff578282604051602001611eeb929190613e11565b604051602081830303815290604052611f20565b82604051602001611f109190613e3c565b6040516020818303038152906040525b905092915050565b606083600361ffff16611f445f83611e5890919063ffffffff16565b61ffff1614611f9c57611f605f82611e5890919063ffffffff16565b6040517f3a51740d000000000000000000000000000000000000000000000000000000008152600401611f9391906124ea565b60405180910390fd5b84600180611faa8651612211565b611fb49190613e56565b8686604051602001611fca959493929190613ecb565b6040516020818303038152906040529150509392505050565b5f5f60205f8451602086015f885af180612002576040513d5f823e3d81fd5b3d92505f519150505f821461201b576001811415612036565b5f8473ffffffffffffffffffffffffffffffffffffffff163b145b1561207857836040517f5274afe700000000000000000000000000000000000000000000000000000000815260040161206f919061294c565b60405180910390fd5b50505050565b5f8134146120c357346040517f9f7041200000000000000000000000000000000000000000000000000000000081526004016120ba9190612ba8565b60405180910390fd5b819050919050565b5f7f000000000000000000000000000000000000000000000000000000000000000073ffffffffffffffffffffffffffffffffffffffff1663e4fe1d946040518163ffffffff1660e01b8152600401602060405180830381865afa158015612135573d5f5f3e3d5ffd5b505050506040513d601f19601f8201168201806040525081019061215991906138e8565b90505f73ffffffffffffffffffffffffffffffffffffffff168173ffffffffffffffffffffffffffffffffffffffff16036121c0576040517f5373352a00000000000000000000000000000000000000000000000000000000815260040160405180910390fd5b61220d337f0000000000000000000000000000000000000000000000000000000000000000848473ffffffffffffffffffffffffffffffffffffffff16611cc0909392919063ffffffff16565b5050565b5f61ffff801682111561225e576010826040517f6dfcc650000000000000000000000000000000000000000000000000000000008152600401612255929190613f5a565b60405180910390fd5b819050919050565b60405180604001604052805f81526020015f81525090565b60405180606001604052805f81526020015f67ffffffffffffffff1681526020016122a7612266565b81525090565b5f604051905090565b5f5ffd5b5f5ffd5b5f5ffd5b5f606082840312156122d7576122d66122be565b5b81905092915050565b5f819050919050565b6122f2816122e0565b81146122fc575f5ffd5b50565b5f8135905061230d816122e9565b92915050565b5f5ffd5b5f5ffd5b5f5ffd5b5f5f83601f84011261233457612333612313565b5b8235905067ffffffffffffffff81111561235157612350612317565b5b60208301915083600182028301111561236d5761236c61231b565b5b9250929050565b5f73ffffffffffffffffffffffffffffffffffffffff82169050919050565b5f61239d82612374565b9050919050565b6123ad81612393565b81146123b7575f5ffd5b50565b5f813590506123c8816123a4565b92915050565b5f5f5f5f5f5f5f60e0888a0312156123e9576123e86122b6565b5b5f6123f68a828b016122c2565b97505060606124078a828b016122ff565b965050608088013567ffffffffffffffff811115612428576124276122ba565b5b6124348a828b0161231f565b955095505060a06124478a828b016123ba565b93505060c088013567ffffffffffffffff811115612468576124676122ba565b5b6124748a828b0161231f565b925092505092959891949750929550565b5f67ffffffffffffffff82169050919050565b6124a181612485565b82525050565b5f6040820190506124ba5f830185612498565b6124c76020830184612498565b9392505050565b5f61ffff82169050919050565b6124e4816124ce565b82525050565b5f6020820190506124fd5f8301846124db565b92915050565b5f81519050919050565b5f82825260208201905092915050565b8281835e5f83830152505050565b5f601f19601f8301169050919050565b5f61254582612503565b61254f818561250d565b935061255f81856020860161251d565b6125688161252b565b840191505092915050565b5f6020820190508181035f83015261258b818461253b565b905092915050565b5f63ffffffff82169050919050565b6125ab81612593565b81146125b5575f5ffd5b50565b5f813590506125c6816125a2565b92915050565b5f5f604083850312156125e2576125e16122b6565b5b5f6125ef858286016125b8565b9250506020612600858286016122ff565b9150509250929050565b612613816124ce565b811461261d575f5ffd5b50565b5f8135905061262e8161260a565b92915050565b5f5f6040838503121561264a576126496122b6565b5b5f612657858286016125b8565b925050602061266885828601612620565b9150509250929050565b5f60208284031215612687576126866122b6565b5b5f612694848285016123ba565b91505092915050565b5f819050919050565b5f6126c06126bb6126b684612374565b61269d565b612374565b9050919050565b5f6126d1826126a6565b9050919050565b5f6126e2826126c7565b9050919050565b6126f2816126d8565b82525050565b5f60208201905061270b5f8301846126e9565b92915050565b5f819050919050565b61272381612711565b811461272d575f5ffd5b50565b5f8135905061273e8161271a565b92915050565b5f8115159050919050565b61275881612744565b8114612762575f5ffd5b50565b5f813590506127738161274f565b92915050565b5f5f5f5f5f5f5f5f60e0898b031215612795576127946122b6565b5b5f6127a28b828c016125b8565b98505060206127b38b828c016123ba565b97505060406127c48b828c016123ba565b96505060606127d58b828c016123ba565b95505060806127e68b828c01612730565b94505060a089013567ffffffffffffffff811115612807576128066122ba565b5b6128138b828c0161231f565b935093505060c06128268b828c01612765565b9150509295985092959890939650565b61283f81612711565b82525050565b604082015f8201516128595f850182612836565b50602082015161286c6020850182612836565b50505050565b5f6040820190506128855f830184612845565b92915050565b5f60208201905061289e5f830184612498565b92915050565b5f5f5f5f60a085870312156128bc576128bb6122b6565b5b5f6128c9878288016122c2565b945050606085013567ffffffffffffffff8111156128ea576128e96122ba565b5b6128f68782880161231f565b93509350506080612909878288016123ba565b91505092959194509250565b61291e81612744565b82525050565b5f6020820190506129375f830184612915565b92915050565b61294681612393565b82525050565b5f60208201905061295f5f83018461293d565b92915050565b5f5f5f5f5f5f5f5f5f6101008a8c031215612983576129826122b6565b5b5f6129908c828d016125b8565b99505060206129a18c828d016123ba565b98505060406129b28c828d016123ba565b97505060606129c38c828d016123ba565b96505060806129d48c828d016123ba565b95505060a06129e58c828d01612730565b94505060c06129f68c828d01612730565b93505060e08a013567ffffffffffffffff811115612a1757612a166122ba565b5b612a238c828d0161231f565b92509250509295985092959850929598565b5f5f83601f840112612a4a57612a49612313565b5b8235905067ffffffffffffffff811115612a6757612a66612317565b5b602083019150836020820283011115612a8357612a8261231b565b5b9250929050565b5f5f60208385031215612aa057612a9f6122b6565b5b5f83013567ffffffffffffffff811115612abd57612abc6122ba565b5b612ac985828601612a35565b92509250509250929050565b5f60208284031215612aea57612ae96122b6565b5b5f612af7848285016125b8565b91505092915050565b612b09816122e0565b82525050565b5f602082019050612b225f830184612b00565b92915050565b5f5f5f5f60608587031215612b4057612b3f6122b6565b5b5f612b4d878288016125b8565b9450506020612b5e87828801612620565b935050604085013567ffffffffffffffff811115612b7f57612b7e6122ba565b5b612b8b8782880161231f565b925092505092959194509250565b612ba281612711565b82525050565b5f602082019050612bbb5f830184612b99565b92915050565b5f5f5f60608486031215612bd857612bd76122b6565b5b5f612be5868287016123ba565b9350506020612bf6868287016123ba565b9250506040612c0786828701612730565b9150509250925092565b5f60608284031215612c2657612c256122b6565b5b5f612c33848285016122c2565b91505092915050565b612c4581612593565b82525050565b5f604082019050612c5e5f830185612c3c565b612c6b6020830184612b00565b9392505050565b7f4e487b71000000000000000000000000000000000000000000000000000000005f52602260045260245ffd5b5f6002820490506001821680612cb657607f821691505b602082108103612cc957612cc8612c72565b5b50919050565b5f608082019050612ce25f83018761293d565b612cef602083018661293d565b612cfc604083018561293d565b612d096060830184612b99565b95945050505050565b7f4e487b71000000000000000000000000000000000000000000000000000000005f52601160045260245ffd5b5f612d4982612711565b9150612d5483612711565b9250828201905080821115612d6c57612d6b612d12565b5b92915050565b5f82825260208201905092915050565b7f496e73756666696369656e74206e6174697665206665650000000000000000005f82015250565b5f612db6601783612d72565b9150612dc182612d82565b602082019050919050565b5f6020820190508181035f830152612de381612daa565b9050919050565b7f4e487b71000000000000000000000000000000000000000000000000000000005f52604160045260245ffd5b612e208261252b565b810181811067ffffffffffffffff82111715612e3f57612e3e612dea565b5b80604052505050565b5f612e516122ad565b9050612e5d8282612e17565b919050565b5f67ffffffffffffffff821115612e7c57612e7b612dea565b5b602082029050602081019050919050565b5f5ffd5b5f5ffd5b5f5ffd5b5f67ffffffffffffffff821115612eb357612eb2612dea565b5b612ebc8261252b565b9050602081019050919050565b828183375f83830152505050565b5f612ee9612ee484612e99565b612e48565b905082815260208101848484011115612f0557612f04612e95565b5b612f10848285612ec9565b509392505050565b5f82601f830112612f2c57612f2b612313565b5b8135612f3c848260208601612ed7565b91505092915050565b5f60608284031215612f5a57612f59612e8d565b5b612f646060612e48565b90505f612f73848285016125b8565b5f830152506020612f8684828501612620565b602083015250604082013567ffffffffffffffff811115612faa57612fa9612e91565b5b612fb684828501612f18565b60408301525092915050565b5f612fd4612fcf84612e62565b612e48565b90508083825260208201905060208402830185811115612ff757612ff661231b565b5b835b8181101561303e57803567ffffffffffffffff81111561301c5761301b612313565b5b8086016130298982612f45565b85526020850194505050602081019050612ff9565b5050509392505050565b5f613054368484612fc2565b905092915050565b5f5ffd5b5f5ffd5b5f5f858511156130775761307661305c565b5b8386111561308857613087613060565b5b6001850283019150848603905094509492505050565b5f81905092915050565b5f6130b282612503565b6130bc818561309e565b93506130cc81856020860161251d565b80840191505092915050565b5f6130e3838561309e565b93506130f0838584612ec9565b82840190509392505050565b5f61310782866130a8565b91506131148284866130d8565b9150819050949350505050565b5f61312c838561250d565b9350613139838584612ec9565b6131428361252b565b840190509392505050565b5f6020820190508181035f830152613166818486613121565b90509392505050565b5f61317982612711565b915061318483612711565b925082820390508181111561319c5761319b612d12565b5b92915050565b5f6040820190506131b55f83018561293d565b6131c26020830184612b99565b9392505050565b5f815190506131d78161274f565b92915050565b5f602082840312156131f2576131f16122b6565b5b5f6131ff848285016131c9565b91505092915050565b5f819050919050565b5f61322b61322661322184613208565b61269d565b612711565b9050919050565b61323b81613211565b82525050565b5f60a0820190506132545f830188612b99565b613261602083018761293d565b61326e6040830186612915565b61327b606083018561293d565b6132886080830184613232565b9695505050505050565b5f6020820190506132a55f830184612c3c565b92915050565b5f6132b582612374565b9050919050565b6132c5816132ab565b81146132cf575f5ffd5b50565b5f813590506132e0816132bc565b92915050565b5f5f5f5f608085870312156132fe576132fd6122b6565b5b5f61330b878288016132d2565b945050602061331c878288016132d2565b935050604061332d878288016132d2565b925050606061333e87828801612730565b91505092959194509250565b5f82905092915050565b5f819050815f5260205f209050919050565b5f6020601f8301049050919050565b5f82821b905092915050565b5f600883026133b07fffffffffffffffffffffffffffffffffffffffffffffffffffffffffffffffff82613375565b6133ba8683613375565b95508019841693508086168417925050509392505050565b5f6133ec6133e76133e284612711565b61269d565b612711565b9050919050565b5f819050919050565b613405836133d2565b613419613411826133f3565b848454613381565b825550505050565b5f5f905090565b613430613421565b61343b8184846133fc565b505050565b5b8181101561345e576134535f82613428565b600181019050613441565b5050565b601f8211156134a35761347481613354565b61347d84613366565b8101602085101561348c578190505b6134a061349885613366565b830182613440565b50505b505050565b5f82821c905092915050565b5f6134c35f19846008026134a8565b1980831691505092915050565b5f6134db83836134b4565b9150826002028217905092915050565b6134f5838361334a565b67ffffffffffffffff81111561350e5761350d612dea565b5b6135188254612c9f565b613523828285613462565b5f601f831160018114613550575f841561353e578287013590505b61354885826134d0565b8655506135af565b601f19841661355e86613354565b5f5b8281101561358557848901358255600182019150602085019450602081019050613560565b868310156135a2578489013561359e601f8916826134b4565b8355505b6001600288020188555050505b50505050505050565b6135c181612593565b82525050565b6135d0816122e0565b82525050565b5f82825260208201905092915050565b5f6135f082612503565b6135fa81856135d6565b935061360a81856020860161251d565b6136138161252b565b840191505092915050565b61362781612744565b82525050565b5f60a083015f8301516136425f8601826135b8565b50602083015161365560208601826135c7565b506040830151848203604086015261366d82826135e6565b9150506060830151848203606086015261368782826135e6565b915050608083015161369c608086018261361e565b508091505092915050565b5f6040820190508181035f8301526136bf818561362d565b90506136ce602083018461293d565b9392505050565b5f815190506136e38161271a565b92915050565b5f604082840312156136fe576136fd612e8d565b5b6137086040612e48565b90505f613717848285016136d5565b5f83015250602061372a848285016136d5565b60208301525092915050565b5f6040828403121561374b5761374a6122b6565b5b5f613758848285016136e9565b91505092915050565b5f61376b82612711565b915061377683612711565b925082820261378481612711565b9150828204841483151761379b5761379a612d12565b5b5092915050565b7f4e487b71000000000000000000000000000000000000000000000000000000005f52601260045260245ffd5b5f6137d982612711565b91506137e483612711565b9250826137f4576137f36137a2565b5b828204905092915050565b5f60e083015f8301516138145f8601826135b8565b50602083015161382760208601826135c7565b50604083015161383a6040860182612836565b50606083015161384d6060860182612836565b506080830151848203608086015261386582826135e6565b91505060a083015184820360a086015261387f82826135e6565b91505060c083015184820360c086015261389982826135e6565b9150508091505092915050565b5f6040820190508181035f8301526138be81856137ff565b90506138cd6020830184612915565b9392505050565b5f815190506138e2816123a4565b92915050565b5f602082840312156138fd576138fc6122b6565b5b5f61390a848285016138d4565b91505092915050565b5f6080820190508181035f83015261392b81866137ff565b905061393a6020830185612845565b613947606083018461293d565b949350505050565b5f8151905061395d816122e9565b92915050565b61396c81612485565b8114613976575f5ffd5b50565b5f8151905061398781613963565b92915050565b5f608082840312156139a2576139a1612e8d565b5b6139ac6060612e48565b90505f6139bb8482850161394f565b5f8301525060206139ce84828501613979565b60208301525060406139e2848285016136e9565b60408301525092915050565b5f60408284031215613a0357613a02612e8d565b5b613a0d6040612e48565b90505f613a1c848285016136d5565b5f830152506020613a2f848285016136d5565b60208301525092915050565b5f5f60c08385031215613a5157613a506122b6565b5b5f613a5e8582860161398d565b9250506080613a6f858286016139ee565b9150509250929050565b7f4e487b71000000000000000000000000000000000000000000000000000000005f52603260045260245ffd5b613aaf82612503565b67ffffffffffffffff811115613ac857613ac7612dea565b5b613ad28254612c9f565b613add828285613462565b5f60209050601f831160018114613b0e575f8415613afc578287015190505b613b0685826134d0565b865550613b6d565b601f198416613b1c86613354565b5f5b82811015613b4357848901518255600182019150602085019450602081019050613b1e565b86831015613b605784890151613b5c601f8916826134b4565b8355505b6001600288020188555050505b505050505050565b5f81519050919050565b5f82825260208201905092915050565b5f819050602082019050919050565b613ba7816124ce565b82525050565b5f606083015f830151613bc25f8601826135b8565b506020830151613bd56020860182613b9e565b5060408301518482036040860152613bed82826135e6565b9150508091505092915050565b5f613c058383613bad565b905092915050565b5f602082019050919050565b5f613c2382613b75565b613c2d8185613b7f565b935083602082028501613c3f85613b8f565b805f5b85811015613c7a5784840389528151613c5b8582613bfa565b9450613c6683613c0d565b925060208a01995050600181019050613c42565b50829750879550505050505092915050565b5f6020820190508181035f830152613ca48184613c19565b905092915050565b5f8160f01b9050919050565b5f613cc282613cac565b9050919050565b613cda613cd5826124ce565b613cb8565b82525050565b5f613ceb8284613cc9565b60028201915081905092915050565b5f606082019050613d0d5f83018661293d565b613d1a602083018561293d565b613d276040830184612b99565b949350505050565b5f60808284031215613d4457613d436122b6565b5b5f613d518482850161398d565b91505092915050565b7f746f55696e7431365f6f75744f66426f756e64730000000000000000000000005f82015250565b5f613d8e601483612d72565b9150613d9982613d5a565b602082019050919050565b5f6020820190508181035f830152613dbb81613d82565b9050919050565b5f6fffffffffffffffffffffffffffffffff82169050919050565b5f8160801b9050919050565b5f613df382613ddd565b9050919050565b613e0b613e0682613dc2565b613de9565b82525050565b5f613e1c8285613dfa565b601082019150613e2c8284613dfa565b6010820191508190509392505050565b5f613e478284613dfa565b60108201915081905092915050565b5f613e60826124ce565b9150613e6b836124ce565b9250828201905061ffff811115613e8557613e84612d12565b5b92915050565b5f60ff82169050919050565b5f8160f81b9050919050565b5f613ead82613e97565b9050919050565b613ec5613ec082613e8b565b613ea3565b82525050565b5f613ed682886130a8565b9150613ee28287613eb4565b600182019150613ef28286613cc9565b600282019150613f028285613eb4565b600182019150613f1282846130a8565b91508190509695505050505050565b5f819050919050565b5f613f44613f3f613f3a84613f21565b61269d565b613e8b565b9050919050565b613f5481613f2a565b82525050565b5f604082019050613f6d5f830185613f4b565b613f7a6020830184612b99565b939250505056fea264697066735822122036b883d1780cdadbf928ab29ecefd371d296631329ba0de0a1e814b39b7e8e4f64736f6c634300081e0033","linkReferences":{}},"methodIdentifiers":{"SEND()":"1f5e1334","allowInitializePath((uint32,bytes32,uint64))":"ff7bd03d","combineOptions(uint32,uint16,bytes)":"bc70b354","endpoint()":"5e280f11","enforcedOptions(uint32,uint16)":"5535d461","execute(address,address,uint256)":"eafaddfd","factory()":"c45a0155","isComposeMsgSender((uint32,bytes32,uint64),bytes,address)":"82413eac","lastMessage()":"32970710","lzReceive((uint32,bytes32,uint64),bytes32,bytes,address,bytes)":"13137d65","nextNonce(uint32,bytes32)":"7d25a05e","oAppVersion()":"17442b70","oftaddress()":"9c967afa","owner()":"8da5cb5b","peers(uint32)":"bb0b6a53","quoteSendString(uint32,address,address,address,uint256,bytes,bool)":"62a896b0","renounceOwnership()":"715018a6","sendString(uint32,address,address,address,address,uint256,uint256,bytes)":"968a61ce","setDelegate(address)":"ca5eb5e1","setEnforcedOptions((uint32,uint16,bytes)[])":"b98bd070","setFactory(address)":"5bb47808","setOFTaddress(address)":"ea89900e","setPeer(uint32,bytes32)":"3400288b","transferOwnership(address)":"f2fde38b","userAmount(address)":"e1ad418e"},"id":185}