{"abi":[{"type":"constructor","inputs":[],"stateMutability":"nonpayable"},{"type":"function","name":"decimals","inputs":[{"name":"_token","type":"address","internalType":"address"}],"outputs":[{"name":"","type":"uint256","internalType":"uint256"}],"stateMutability":"view"},{"type":"function","name":"latestRoundData","inputs":[{"name":"_token","type":"address","internalType":"address"}],"outputs":[{"name":"","type":"uint80","internalType":"uint80"},{"name":"","type":"uint256","internalType":"uint256"},{"name":"","type":"uint256","internalType":"uint256"},{"name":"","type":"uint256","internalType":"uint256"},{"name":"","type":"uint80","internalType":"uint80"}],"stateMutability":"view"},{"type":"function","name":"owner","inputs":[],"outputs":[{"name":"","type":"address","internalType":"address"}],"stateMutability":"view"},{"type":"function","name":"renounceOwnership","inputs":[],"outputs":[],"stateMutability":"nonpayable"},{"type":"function","name":"setTokenPriceFeed","inputs":[{"name":"_token","type":"address","internalType":"address"},{"name":"_priceFeed","type":"address","internalType":"address"}],"outputs":[],"stateMutability":"nonpayable"},{"type":"function","name":"tokenPriceFeed","inputs":[{"name":"","type":"address","internalType":"address"}],"outputs":[{"name":"","type":"address","internalType":"address"}],"stateMutability":"view"},{"type":"function","name":"transferOwnership","inputs":[{"name":"newOwner","type":"address","internalType":"address"}],"outputs":[],"stateMutability":"nonpayable"},{"type":"event","name":"OwnershipTransferred","inputs":[{"name":"previousOwner","type":"address","indexed":true,"internalType":"address"},{"name":"newOwner","type":"address","indexed":true,"internalType":"address"}],"anonymous":false},{"type":"event","name":"TokenPriceFeedSet","inputs":[{"name":"token","type":"address","indexed":false,"internalType":"address"},{"name":"priceFeed","type":"address","indexed":false,"internalType":"address"}],"anonymous":false},{"type":"error","name":"NegativePriceAnswer","inputs":[{"name":"price","type":"int256","internalType":"int256"}]},{"type":"error","name":"OwnableInvalidOwner","inputs":[{"name":"owner","type":"address","internalType":"address"}]},{"type":"error","name":"OwnableUnauthorizedAccount","inputs":[{"name":"account","type":"address","internalType":"address"}]},{"type":"error","name":"PriceStale","inputs":[{"name":"token","type":"address","internalType":"address"},{"name":"priceFeed","type":"address","internalType":"address"},{"name":"updatedAt","type":"uint256","internalType":"uint256"}]},{"type":"error","name":"TokenPriceFeedNotSet","inputs":[{"name":"token","type":"address","internalType":"address"}]},{"type":"error","name":"ZeroAddress","inputs":[]}],"bytecode":{"object":"0x608060405234801561000f575f5ffd5b50335f73ffffffffffffffffffffffffffffffffffffffff168173ffffffffffffffffffffffffffffffffffffffff1603610081575f6040517f1e4fbdf70000000000000000000000000000000000000000000000000000000081526004016100789190610196565b60405180910390fd5b6100908161009660201b60201c565b506101af565b5f5f5f9054906101000a900473ffffffffffffffffffffffffffffffffffffffff169050815f5f6101000a81548173ffffffffffffffffffffffffffffffffffffffff021916908373ffffffffffffffffffffffffffffffffffffffff1602179055508173ffffffffffffffffffffffffffffffffffffffff168173ffffffffffffffffffffffffffffffffffffffff167f8be0079c531659141344cd1fd0a4f28419497f9722a3daafe3b4186f6b6457e060405160405180910390a35050565b5f73ffffffffffffffffffffffffffffffffffffffff82169050919050565b5f61018082610157565b9050919050565b61019081610176565b82525050565b5f6020820190506101a95f830184610187565b92915050565b610d1f806101bc5f395ff3fe608060405234801561000f575f5ffd5b506004361061007b575f3560e01c80639878cbb3116100595780639878cbb3146100c3578063a13cc76a146100f3578063d449a83214610127578063f2fde38b146101575761007b565b8063674417ae1461007f578063715018a61461009b5780638da5cb5b146100a5575b5f5ffd5b61009960048036038101906100949190610996565b610173565b005b6100a36102fd565b005b6100ad610310565b6040516100ba91906109e3565b60405180910390f35b6100dd60048036038101906100d891906109fc565b610337565b6040516100ea91906109e3565b60405180910390f35b61010d600480360381019061010891906109fc565b610367565b60405161011e959493929190610a63565b60405180910390f35b610141600480360381019061013c91906109fc565b6105c5565b60405161014e9190610ab4565b60405180910390f35b610171600480360381019061016c91906109fc565b610765565b005b61017b6107e9565b5f73ffffffffffffffffffffffffffffffffffffffff168273ffffffffffffffffffffffffffffffffffffffff16036101e0576040517fd92e233d00000000000000000000000000000000000000000000000000000000815260040160405180910390fd5b5f73ffffffffffffffffffffffffffffffffffffffff168173ffffffffffffffffffffffffffffffffffffffff1603610245576040517fd92e233d00000000000000000000000000000000000000000000000000000000815260040160405180910390fd5b8060015f8473ffffffffffffffffffffffffffffffffffffffff1673ffffffffffffffffffffffffffffffffffffffff1681526020019081526020015f205f6101000a81548173ffffffffffffffffffffffffffffffffffffffff021916908373ffffffffffffffffffffffffffffffffffffffff1602179055507f06450d77a493ade91a66792442980e4499d56e1565b15d80f0790f2a962a135d82826040516102f1929190610acd565b60405180910390a15050565b6103056107e9565b61030e5f610870565b565b5f5f5f9054906101000a900473ffffffffffffffffffffffffffffffffffffffff16905090565b6001602052805f5260405f205f915054906101000a900473ffffffffffffffffffffffffffffffffffffffff1681565b5f5f5f5f5f5f73ffffffffffffffffffffffffffffffffffffffff1660015f8873ffffffffffffffffffffffffffffffffffffffff1673ffffffffffffffffffffffffffffffffffffffff1681526020019081526020015f205f9054906101000a900473ffffffffffffffffffffffffffffffffffffffff1673ffffffffffffffffffffffffffffffffffffffff160361043857856040517f9b830d4600000000000000000000000000000000000000000000000000000000815260040161042f91906109e3565b60405180910390fd5b5f60015f8873ffffffffffffffffffffffffffffffffffffffff1673ffffffffffffffffffffffffffffffffffffffff1681526020019081526020015f205f9054906101000a900473ffffffffffffffffffffffffffffffffffffffff1690505f5f5f8373ffffffffffffffffffffffffffffffffffffffff1663feaf968c6040518163ffffffff1660e01b8152600401606060405180830381865afa1580156104e4573d5f5f3e3d5ffd5b505050506040513d601f19601f820116820180604052508101906105089190610b7b565b925092509250610e10814261051d9190610bf8565b1115610564578984826040517f87e50d4300000000000000000000000000000000000000000000000000000000815260040161055b93929190610c2b565b60405180910390fd5b5f8212156105a957816040517f666294710000000000000000000000000000000000000000000000000000000081526004016105a09190610c6f565b60405180910390fd5b8282825f5f985098509850985098505050505091939590929450565b5f5f73ffffffffffffffffffffffffffffffffffffffff1660015f8473ffffffffffffffffffffffffffffffffffffffff1673ffffffffffffffffffffffffffffffffffffffff1681526020019081526020015f205f9054906101000a900473ffffffffffffffffffffffffffffffffffffffff1673ffffffffffffffffffffffffffffffffffffffff160361069257816040517f9b830d4600000000000000000000000000000000000000000000000000000000815260040161068991906109e3565b60405180910390fd5b60015f8373ffffffffffffffffffffffffffffffffffffffff1673ffffffffffffffffffffffffffffffffffffffff1681526020019081526020015f205f9054906101000a900473ffffffffffffffffffffffffffffffffffffffff1673ffffffffffffffffffffffffffffffffffffffff1663313ce5676040518163ffffffff1660e01b8152600401602060405180830381865afa158015610737573d5f5f3e3d5ffd5b505050506040513d601f19601f8201168201806040525081019061075b9190610cbe565b60ff169050919050565b61076d6107e9565b5f73ffffffffffffffffffffffffffffffffffffffff168173ffffffffffffffffffffffffffffffffffffffff16036107dd575f6040517f1e4fbdf70000000000000000000000000000000000000000000000000000000081526004016107d491906109e3565b60405180910390fd5b6107e681610870565b50565b6107f1610931565b73ffffffffffffffffffffffffffffffffffffffff1661080f610310565b73ffffffffffffffffffffffffffffffffffffffff161461086e57610832610931565b6040517f118cdaa700000000000000000000000000000000000000000000000000000000815260040161086591906109e3565b60405180910390fd5b565b5f5f5f9054906101000a900473ffffffffffffffffffffffffffffffffffffffff169050815f5f6101000a81548173ffffffffffffffffffffffffffffffffffffffff021916908373ffffffffffffffffffffffffffffffffffffffff1602179055508173ffffffffffffffffffffffffffffffffffffffff168173ffffffffffffffffffffffffffffffffffffffff167f8be0079c531659141344cd1fd0a4f28419497f9722a3daafe3b4186f6b6457e060405160405180910390a35050565b5f33905090565b5f5ffd5b5f73ffffffffffffffffffffffffffffffffffffffff82169050919050565b5f6109658261093c565b9050919050565b6109758161095b565b811461097f575f5ffd5b50565b5f813590506109908161096c565b92915050565b5f5f604083850312156109ac576109ab610938565b5b5f6109b985828601610982565b92505060206109ca85828601610982565b9150509250929050565b6109dd8161095b565b82525050565b5f6020820190506109f65f8301846109d4565b92915050565b5f60208284031215610a1157610a10610938565b5b5f610a1e84828501610982565b91505092915050565b5f69ffffffffffffffffffff82169050919050565b610a4581610a27565b82525050565b5f819050919050565b610a5d81610a4b565b82525050565b5f60a082019050610a765f830188610a3c565b610a836020830187610a54565b610a906040830186610a54565b610a9d6060830185610a54565b610aaa6080830184610a3c565b9695505050505050565b5f602082019050610ac75f830184610a54565b92915050565b5f604082019050610ae05f8301856109d4565b610aed60208301846109d4565b9392505050565b610afd81610a27565b8114610b07575f5ffd5b50565b5f81519050610b1881610af4565b92915050565b5f819050919050565b610b3081610b1e565b8114610b3a575f5ffd5b50565b5f81519050610b4b81610b27565b92915050565b610b5a81610a4b565b8114610b64575f5ffd5b50565b5f81519050610b7581610b51565b92915050565b5f5f5f60608486031215610b9257610b91610938565b5b5f610b9f86828701610b0a565b9350506020610bb086828701610b3d565b9250506040610bc186828701610b67565b9150509250925092565b7f4e487b71000000000000000000000000000000000000000000000000000000005f52601160045260245ffd5b5f610c0282610a4b565b9150610c0d83610a4b565b9250828203905081811115610c2557610c24610bcb565b5b92915050565b5f606082019050610c3e5f8301866109d4565b610c4b60208301856109d4565b610c586040830184610a54565b949350505050565b610c6981610b1e565b82525050565b5f602082019050610c825f830184610c60565b92915050565b5f60ff82169050919050565b610c9d81610c88565b8114610ca7575f5ffd5b50565b5f81519050610cb881610c94565b92915050565b5f60208284031215610cd357610cd2610938565b5b5f610ce084828501610caa565b9150509291505056fea264697066735822122094e27d5aed6a1c03dcfd03520a64c283b4cb6c9a47b34b74935e1fb64303ce7b64736f6c634300081e0033","linkReferences":{}},"methodIdentifiers":{"decimals(address)":"d449a832","latestRoundData(address)":"a13cc76a","owner()":"8da5cb5b","renounceOwnership()":"715018a6","setTokenPriceFeed(address,address)":"674417ae","tokenPriceFeed(address)":"9878cbb3","transferOwnership(address)":"f2fde38b"},"id":141}