{"abi":[{"type":"constructor","inputs":[{"name":"_token","type":"address","internalType":"address"},{"name":"_elevatedMinterBurner","type":"address","internalType":"address"},{"name":"_IminterBurner","type":"address","internalType":"contract IMintableBurnable"},{"name":"_lzEndpoint","type":"address","internalType":"address"},{"name":"_owner","type":"address","internalType":"address"},{"name":"_srcEidLib","type":"address","internalType":"address"}],"stateMutability":"nonpayable"},{"type":"function","name":"SEND","inputs":[],"outputs":[{"name":"","type":"uint16","internalType":"uint16"}],"stateMutability":"view"},{"type":"function","name":"SEND_AND_CALL","inputs":[],"outputs":[{"name":"","type":"uint16","internalType":"uint16"}],"stateMutability":"view"},{"type":"function","name":"allowInitializePath","inputs":[{"name":"origin","type":"tuple","internalType":"struct Origin","components":[{"name":"srcEid","type":"uint32","internalType":"uint32"},{"name":"sender","type":"bytes32","internalType":"bytes32"},{"name":"nonce","type":"uint64","internalType":"uint64"}]}],"outputs":[{"name":"","type":"bool","internalType":"bool"}],"stateMutability":"view"},{"type":"function","name":"approvalRequired","inputs":[],"outputs":[{"name":"","type":"bool","internalType":"bool"}],"stateMutability":"pure"},{"type":"function","name":"combineOptions","inputs":[{"name":"_eid","type":"uint32","internalType":"uint32"},{"name":"_msgType","type":"uint16","internalType":"uint16"},{"name":"_extraOptions","type":"bytes","internalType":"bytes"}],"outputs":[{"name":"","type":"bytes","internalType":"bytes"}],"stateMutability":"view"},{"type":"function","name":"decimalConversionRate","inputs":[],"outputs":[{"name":"","type":"uint256","internalType":"uint256"}],"stateMutability":"view"},{"type":"function","name":"endpoint","inputs":[],"outputs":[{"name":"","type":"address","internalType":"contract ILayerZeroEndpointV2"}],"stateMutability":"view"},{"type":"function","name":"enforcedOptions","inputs":[{"name":"eid","type":"uint32","internalType":"uint32"},{"name":"msgType","type":"uint16","internalType":"uint16"}],"outputs":[{"name":"enforcedOption","type":"bytes","internalType":"bytes"}],"stateMutability":"view"},{"type":"function","name":"isComposeMsgSender","inputs":[{"name":"","type":"tuple","internalType":"struct Origin","components":[{"name":"srcEid","type":"uint32","internalType":"uint32"},{"name":"sender","type":"bytes32","internalType":"bytes32"},{"name":"nonce","type":"uint64","internalType":"uint64"}]},{"name":"","type":"bytes","internalType":"bytes"},{"name":"_sender","type":"address","internalType":"address"}],"outputs":[{"name":"","type":"bool","internalType":"bool"}],"stateMutability":"view"},{"type":"function","name":"isPeer","inputs":[{"name":"_eid","type":"uint32","internalType":"uint32"},{"name":"_peer","type":"bytes32","internalType":"bytes32"}],"outputs":[{"name":"","type":"bool","internalType":"bool"}],"stateMutability":"view"},{"type":"function","name":"lzReceive","inputs":[{"name":"_origin","type":"tuple","internalType":"struct Origin","components":[{"name":"srcEid","type":"uint32","internalType":"uint32"},{"name":"sender","type":"bytes32","internalType":"bytes32"},{"name":"nonce","type":"uint64","internalType":"uint64"}]},{"name":"_guid","type":"bytes32","internalType":"bytes32"},{"name":"_message","type":"bytes","internalType":"bytes"},{"name":"_executor","type":"address","internalType":"address"},{"name":"_extraData","type":"bytes","internalType":"bytes"}],"outputs":[],"stateMutability":"payable"},{"type":"function","name":"lzReceiveAndRevert","inputs":[{"name":"_packets","type":"tuple[]","internalType":"struct InboundPacket[]","components":[{"name":"origin","type":"tuple","internalType":"struct Origin","components":[{"name":"srcEid","type":"uint32","internalType":"uint32"},{"name":"sender","type":"bytes32","internalType":"bytes32"},{"name":"nonce","type":"uint64","internalType":"uint64"}]},{"name":"dstEid","type":"uint32","internalType":"uint32"},{"name":"receiver","type":"address","internalType":"address"},{"name":"guid","type":"bytes32","internalType":"bytes32"},{"name":"value","type":"uint256","internalType":"uint256"},{"name":"executor","type":"address","internalType":"address"},{"name":"message","type":"bytes","internalType":"bytes"},{"name":"extraData","type":"bytes","internalType":"bytes"}]}],"outputs":[],"stateMutability":"payable"},{"type":"function","name":"lzReceiveSimulate","inputs":[{"name":"_origin","type":"tuple","internalType":"struct Origin","components":[{"name":"srcEid","type":"uint32","internalType":"uint32"},{"name":"sender","type":"bytes32","internalType":"bytes32"},{"name":"nonce","type":"uint64","internalType":"uint64"}]},{"name":"_guid","type":"bytes32","internalType":"bytes32"},{"name":"_message","type":"bytes","internalType":"bytes"},{"name":"_executor","type":"address","internalType":"address"},{"name":"_extraData","type":"bytes","internalType":"bytes"}],"outputs":[],"stateMutability":"payable"},{"type":"function","name":"minterBurner","inputs":[],"outputs":[{"name":"","type":"address","internalType":"contract IMintableBurnable"}],"stateMutability":"view"},{"type":"function","name":"msgInspector","inputs":[],"outputs":[{"name":"","type":"address","internalType":"address"}],"stateMutability":"view"},{"type":"function","name":"nextNonce","inputs":[{"name":"","type":"uint32","internalType":"uint32"},{"name":"","type":"bytes32","internalType":"bytes32"}],"outputs":[{"name":"nonce","type":"uint64","internalType":"uint64"}],"stateMutability":"view"},{"type":"function","name":"oApp","inputs":[],"outputs":[{"name":"","type":"address","internalType":"address"}],"stateMutability":"view"},{"type":"function","name":"oAppVersion","inputs":[],"outputs":[{"name":"senderVersion","type":"uint64","internalType":"uint64"},{"name":"receiverVersion","type":"uint64","internalType":"uint64"}],"stateMutability":"pure"},{"type":"function","name":"oftVersion","inputs":[],"outputs":[{"name":"interfaceId","type":"bytes4","internalType":"bytes4"},{"name":"version","type":"uint64","internalType":"uint64"}],"stateMutability":"pure"},{"type":"function","name":"owner","inputs":[],"outputs":[{"name":"","type":"address","internalType":"address"}],"stateMutability":"view"},{"type":"function","name":"peers","inputs":[{"name":"eid","type":"uint32","internalType":"uint32"}],"outputs":[{"name":"peer","type":"bytes32","internalType":"bytes32"}],"stateMutability":"view"},{"type":"function","name":"preCrime","inputs":[],"outputs":[{"name":"","type":"address","internalType":"address"}],"stateMutability":"view"},{"type":"function","name":"quoteOFT","inputs":[{"name":"_sendParam","type":"tuple","internalType":"struct SendParam","components":[{"name":"dstEid","type":"uint32","internalType":"uint32"},{"name":"to","type":"bytes32","internalType":"bytes32"},{"name":"amountLD","type":"uint256","internalType":"uint256"},{"name":"minAmountLD","type":"uint256","internalType":"uint256"},{"name":"extraOptions","type":"bytes","internalType":"bytes"},{"name":"composeMsg","type":"bytes","internalType":"bytes"},{"name":"oftCmd","type":"bytes","internalType":"bytes"}]}],"outputs":[{"name":"oftLimit","type":"tuple","internalType":"struct OFTLimit","components":[{"name":"minAmountLD","type":"uint256","internalType":"uint256"},{"name":"maxAmountLD","type":"uint256","internalType":"uint256"}]},{"name":"oftFeeDetails","type":"tuple[]","internalType":"struct OFTFeeDetail[]","components":[{"name":"feeAmountLD","type":"int256","internalType":"int256"},{"name":"description","type":"string","internalType":"string"}]},{"name":"oftReceipt","type":"tuple","internalType":"struct OFTReceipt","components":[{"name":"amountSentLD","type":"uint256","internalType":"uint256"},{"name":"amountReceivedLD","type":"uint256","internalType":"uint256"}]}],"stateMutability":"view"},{"type":"function","name":"quoteSend","inputs":[{"name":"_sendParam","type":"tuple","internalType":"struct SendParam","components":[{"name":"dstEid","type":"uint32","internalType":"uint32"},{"name":"to","type":"bytes32","internalType":"bytes32"},{"name":"amountLD","type":"uint256","internalType":"uint256"},{"name":"minAmountLD","type":"uint256","internalType":"uint256"},{"name":"extraOptions","type":"bytes","internalType":"bytes"},{"name":"composeMsg","type":"bytes","internalType":"bytes"},{"name":"oftCmd","type":"bytes","internalType":"bytes"}]},{"name":"_payInLzToken","type":"bool","internalType":"bool"}],"outputs":[{"name":"msgFee","type":"tuple","internalType":"struct MessagingFee","components":[{"name":"nativeFee","type":"uint256","internalType":"uint256"},{"name":"lzTokenFee","type":"uint256","internalType":"uint256"}]}],"stateMutability":"view"},{"type":"function","name":"renounceOwnership","inputs":[],"outputs":[],"stateMutability":"nonpayable"},{"type":"function","name":"send","inputs":[{"name":"_sendParam","type":"tuple","internalType":"struct SendParam","components":[{"name":"dstEid","type":"uint32","internalType":"uint32"},{"name":"to","type":"bytes32","internalType":"bytes32"},{"name":"amountLD","type":"uint256","internalType":"uint256"},{"name":"minAmountLD","type":"uint256","internalType":"uint256"},{"name":"extraOptions","type":"bytes","internalType":"bytes"},{"name":"composeMsg","type":"bytes","internalType":"bytes"},{"name":"oftCmd","type":"bytes","internalType":"bytes"}]},{"name":"_fee","type":"tuple","internalType":"struct MessagingFee","components":[{"name":"nativeFee","type":"uint256","internalType":"uint256"},{"name":"lzTokenFee","type":"uint256","internalType":"uint256"}]},{"name":"_refundAddress","type":"address","internalType":"address"}],"outputs":[{"name":"msgReceipt","type":"tuple","internalType":"struct MessagingReceipt","components":[{"name":"guid","type":"bytes32","internalType":"bytes32"},{"name":"nonce","type":"uint64","internalType":"uint64"},{"name":"fee","type":"tuple","internalType":"struct MessagingFee","components":[{"name":"nativeFee","type":"uint256","internalType":"uint256"},{"name":"lzTokenFee","type":"uint256","internalType":"uint256"}]}]},{"name":"oftReceipt","type":"tuple","internalType":"struct OFTReceipt","components":[{"name":"amountSentLD","type":"uint256","internalType":"uint256"},{"name":"amountReceivedLD","type":"uint256","internalType":"uint256"}]}],"stateMutability":"payable"},{"type":"function","name":"setDelegate","inputs":[{"name":"_delegate","type":"address","internalType":"address"}],"outputs":[],"stateMutability":"nonpayable"},{"type":"function","name":"setEnforcedOptions","inputs":[{"name":"_enforcedOptions","type":"tuple[]","internalType":"struct EnforcedOptionParam[]","components":[{"name":"eid","type":"uint32","internalType":"uint32"},{"name":"msgType","type":"uint16","internalType":"uint16"},{"name":"options","type":"bytes","internalType":"bytes"}]}],"outputs":[],"stateMutability":"nonpayable"},{"type":"function","name":"setMsgInspector","inputs":[{"name":"_msgInspector","type":"address","internalType":"address"}],"outputs":[],"stateMutability":"nonpayable"},{"type":"function","name":"setPeer","inputs":[{"name":"_eid","type":"uint32","internalType":"uint32"},{"name":"_peer","type":"bytes32","internalType":"bytes32"}],"outputs":[],"stateMutability":"nonpayable"},{"type":"function","name":"setPreCrime","inputs":[{"name":"_preCrime","type":"address","internalType":"address"}],"outputs":[],"stateMutability":"nonpayable"},{"type":"function","name":"setSrcEidLib","inputs":[{"name":"_srcEidLib","type":"address","internalType":"address"}],"outputs":[],"stateMutability":"nonpayable"},{"type":"function","name":"sharedDecimals","inputs":[],"outputs":[{"name":"","type":"uint8","internalType":"uint8"}],"stateMutability":"view"},{"type":"function","name":"token","inputs":[],"outputs":[{"name":"","type":"address","internalType":"address"}],"stateMutability":"view"},{"type":"function","name":"transferOwnership","inputs":[{"name":"newOwner","type":"address","internalType":"address"}],"outputs":[],"stateMutability":"nonpayable"},{"type":"event","name":"EnforcedOptionSet","inputs":[{"name":"_enforcedOptions","type":"tuple[]","indexed":false,"internalType":"struct EnforcedOptionParam[]","components":[{"name":"eid","type":"uint32","internalType":"uint32"},{"name":"msgType","type":"uint16","internalType":"uint16"},{"name":"options","type":"bytes","internalType":"bytes"}]}],"anonymous":false},{"type":"event","name":"MsgInspectorSet","inputs":[{"name":"inspector","type":"address","indexed":false,"internalType":"address"}],"anonymous":false},{"type":"event","name":"OFTReceived","inputs":[{"name":"guid","type":"bytes32","indexed":true,"internalType":"bytes32"},{"name":"srcEid","type":"uint32","indexed":false,"internalType":"uint32"},{"name":"toAddress","type":"address","indexed":true,"internalType":"address"},{"name":"amountReceivedLD","type":"uint256","indexed":false,"internalType":"uint256"}],"anonymous":false},{"type":"event","name":"OFTSent","inputs":[{"name":"guid","type":"bytes32","indexed":true,"internalType":"bytes32"},{"name":"dstEid","type":"uint32","indexed":false,"internalType":"uint32"},{"name":"fromAddress","type":"address","indexed":true,"internalType":"address"},{"name":"amountSentLD","type":"uint256","indexed":false,"internalType":"uint256"},{"name":"amountReceivedLD","type":"uint256","indexed":false,"internalType":"uint256"}],"anonymous":false},{"type":"event","name":"OwnershipTransferred","inputs":[{"name":"previousOwner","type":"address","indexed":true,"internalType":"address"},{"name":"newOwner","type":"address","indexed":true,"internalType":"address"}],"anonymous":false},{"type":"event","name":"PeerSet","inputs":[{"name":"eid","type":"uint32","indexed":false,"internalType":"uint32"},{"name":"peer","type":"bytes32","indexed":false,"internalType":"bytes32"}],"anonymous":false},{"type":"event","name":"PreCrimeSet","inputs":[{"name":"preCrimeAddress","type":"address","indexed":false,"internalType":"address"}],"anonymous":false},{"type":"error","name":"AmountSDOverflowed","inputs":[{"name":"amountSD","type":"uint256","internalType":"uint256"}]},{"type":"error","name":"InvalidDelegate","inputs":[]},{"type":"error","name":"InvalidEndpointCall","inputs":[]},{"type":"error","name":"InvalidLocalDecimals","inputs":[]},{"type":"error","name":"InvalidOptions","inputs":[{"name":"options","type":"bytes","internalType":"bytes"}]},{"type":"error","name":"LzTokenUnavailable","inputs":[]},{"type":"error","name":"NoPeer","inputs":[{"name":"eid","type":"uint32","internalType":"uint32"}]},{"type":"error","name":"NotEnoughNative","inputs":[{"name":"msgValue","type":"uint256","internalType":"uint256"}]},{"type":"error","name":"OnlyEndpoint","inputs":[{"name":"addr","type":"address","internalType":"address"}]},{"type":"error","name":"OnlyPeer","inputs":[{"name":"eid","type":"uint32","internalType":"uint32"},{"name":"sender","type":"bytes32","internalType":"bytes32"}]},{"type":"error","name":"OnlySelf","inputs":[]},{"type":"error","name":"OwnableInvalidOwner","inputs":[{"name":"owner","type":"address","internalType":"address"}]},{"type":"error","name":"OwnableUnauthorizedAccount","inputs":[{"name":"account","type":"address","internalType":"address"}]},{"type":"error","name":"ReentrancyGuardReentrantCall","inputs":[]},{"type":"error","name":"SafeERC20FailedOperation","inputs":[{"name":"token","type":"address","internalType":"address"}]},{"type":"error","name":"SimulationResult","inputs":[{"name":"result","type":"bytes","internalType":"bytes"}]},{"type":"error","name":"SlippageExceeded","inputs":[{"name":"amountLD","type":"uint256","internalType":"uint256"},{"name":"minAmountLD","type":"uint256","internalType":"uint256"}]}],"bytecode":{"object":"0x610100604052348015610010575f5ffd5b5060405161541e38038061541e8339818101604052810190610032919061054c565b858484848373ffffffffffffffffffffffffffffffffffffffff1663313ce5676040518163ffffffff1660e01b8152600401602060405180830381865afa15801561007f573d5f5f3e3d5ffd5b505050506040513d601f19601f820116820180604052508101906100a3919061060b565b8282818181818c5f73ffffffffffffffffffffffffffffffffffffffff168173ffffffffffffffffffffffffffffffffffffffff160361011a575f6040517f1e4fbdf70000000000000000000000000000000000000000000000000000000081526004016101119190610645565b60405180910390fd5b610129816103ea60201b60201c565b508173ffffffffffffffffffffffffffffffffffffffff1660808173ffffffffffffffffffffffffffffffffffffffff16815250505f73ffffffffffffffffffffffffffffffffffffffff168173ffffffffffffffffffffffffffffffffffffffff16036101c3576040517fb586360400000000000000000000000000000000000000000000000000000000815260040160405180910390fd5b60805173ffffffffffffffffffffffffffffffffffffffff1663ca5eb5e1826040518263ffffffff1660e01b81526004016101fe9190610645565b5f604051808303815f87803b158015610215575f5ffd5b505af1158015610227573d5f5f3e3d5ffd5b505050505050505061023d6104ab60201b60201c565b60ff168360ff16101561027c576040517f1e9714b000000000000000000000000000000000000000000000000000000000815260040160405180910390fd5b61028a6104ab60201b60201c565b83610295919061068b565b600a6102a191906107f7565b60a081815250505050508373ffffffffffffffffffffffffffffffffffffffff1660c08173ffffffffffffffffffffffffffffffffffffffff16815250508273ffffffffffffffffffffffffffffffffffffffff1660e08173ffffffffffffffffffffffffffffffffffffffff16815250505050505060016005819055508060065f6101000a81548173ffffffffffffffffffffffffffffffffffffffff021916908373ffffffffffffffffffffffffffffffffffffffff1602179055508560075f6101000a81548173ffffffffffffffffffffffffffffffffffffffff021916908373ffffffffffffffffffffffffffffffffffffffff1602179055508460085f6101000a81548173ffffffffffffffffffffffffffffffffffffffff021916908373ffffffffffffffffffffffffffffffffffffffff160217905550505050505050610841565b5f5f5f9054906101000a900473ffffffffffffffffffffffffffffffffffffffff169050815f5f6101000a81548173ffffffffffffffffffffffffffffffffffffffff021916908373ffffffffffffffffffffffffffffffffffffffff1602179055508173ffffffffffffffffffffffffffffffffffffffff168173ffffffffffffffffffffffffffffffffffffffff167f8be0079c531659141344cd1fd0a4f28419497f9722a3daafe3b4186f6b6457e060405160405180910390a35050565b5f6006905090565b5f5ffd5b5f73ffffffffffffffffffffffffffffffffffffffff82169050919050565b5f6104e0826104b7565b9050919050565b6104f0816104d6565b81146104fa575f5ffd5b50565b5f8151905061050b816104e7565b92915050565b5f61051b826104d6565b9050919050565b61052b81610511565b8114610535575f5ffd5b50565b5f8151905061054681610522565b92915050565b5f5f5f5f5f5f60c08789031215610566576105656104b3565b5b5f61057389828a016104fd565b965050602061058489828a016104fd565b955050604061059589828a01610538565b94505060606105a689828a016104fd565b93505060806105b789828a016104fd565b92505060a06105c889828a016104fd565b9150509295509295509295565b5f60ff82169050919050565b6105ea816105d5565b81146105f4575f5ffd5b50565b5f81519050610605816105e1565b92915050565b5f602082840312156106205761061f6104b3565b5b5f61062d848285016105f7565b91505092915050565b61063f816104d6565b82525050565b5f6020820190506106585f830184610636565b92915050565b7f4e487b71000000000000000000000000000000000000000000000000000000005f52601160045260245ffd5b5f610695826105d5565b91506106a0836105d5565b9250828203905060ff8111156106b9576106b861065e565b5b92915050565b5f8160011c9050919050565b5f5f8291508390505b6001851115610714578086048111156106f0576106ef61065e565b5b60018516156106ff5780820291505b808102905061070d856106bf565b94506106d4565b94509492505050565b5f8261072c57600190506107e7565b81610739575f90506107e7565b816001811461074f576002811461075957610788565b60019150506107e7565b60ff84111561076b5761076a61065e565b5b8360020a9150848211156107825761078161065e565b5b506107e7565b5060208310610133831016604e8410600b84101617156107bd5782820a9050838111156107b8576107b761065e565b5b6107e7565b6107ca84848460016106cb565b925090508184048111156107e1576107e061065e565b5b81810290505b9392505050565b5f819050919050565b5f610801826107ee565b915061080c836105d5565b92506108397fffffffffffffffffffffffffffffffffffffffffffffffffffffffffffffffff848461071d565b905092915050565b60805160a05160c05160e051614b5d6108c15f395f610b5d01525f6114df01525f8181610e0101528181611e4401528181611e6501528181611f09015261228a01525f8181610a0f01528181610cd501528181611287015281816116a101528181611a1b015281816124c70152818161271c01526128140152614b5d5ff3fe608060405260043610610203575f3560e01c806382413eac11610117578063bd815db01161009f578063d42438851161006e578063d424388514610748578063d4558b5214610770578063f2fde38b14610798578063fc0c546a146107c0578063ff7bd03d146107ea57610203565b8063bd815db0146106b7578063c7c7f5b3146106d3578063ca5eb5e114610704578063d045a0dc1461072c57610203565b80639f68b964116100e65780639f68b964146105c3578063b731ea0a146105ed578063b98bd07014610617578063bb0b6a531461063f578063bc70b3541461067b57610203565b806382413eac14610509578063857749b0146105455780638da5cb5b1461056f578063963efcaa1461059957610203565b80633400288b1161019a5780635a0dfe4d116101695780635a0dfe4d146104295780635e280f11146104655780636fc1b31e1461048f578063715018a6146104b75780637d25a05e146104cd57610203565b80633400288b1461035f5780633b6f743b1461038757806352ae2879146103c35780635535d461146103ed57610203565b8063156a0d0f116101d6578063156a0d0f146102b557806317442b70146102e05780631f5e13341461030b5780632ef8c5a41461033557610203565b80630d35b41514610207578063111ecdad1461024557806313137d651461026f578063134d4f251461028b575b5f5ffd5b348015610212575f5ffd5b5061022d600480360381019061022891906129bd565b610826565b60405161023c93929190612bf3565b60405180910390f35b348015610250575f5ffd5b506102596109d1565b6040516102669190612c6e565b60405180910390f35b61028960048036038101906102849190612d63565b6109f6565b005b348015610296575f5ffd5b5061029f610b16565b6040516102ac9190612e36565b60405180910390f35b3480156102c0575f5ffd5b506102c9610b1b565b6040516102d7929190612eab565b60405180910390f35b3480156102eb575f5ffd5b506102f4610b48565b604051610302929190612ed2565b60405180910390f35b348015610316575f5ffd5b5061031f610b56565b60405161032c9190612e36565b60405180910390f35b348015610340575f5ffd5b50610349610b5b565b6040516103569190612f54565b60405180910390f35b34801561036a575f5ffd5b5061038560048036038101906103809190612fa6565b610b7f565b005b348015610392575f5ffd5b506103ad60048036038101906103a89190613019565b610b95565b6040516103ba91906130a0565b60405180910390f35b3480156103ce575f5ffd5b506103d7610bfd565b6040516103e49190612c6e565b60405180910390f35b3480156103f8575f5ffd5b50610413600480360381019061040e91906130e3565b610c04565b6040516104209190613173565b60405180910390f35b348015610434575f5ffd5b5061044f600480360381019061044a9190612fa6565b610caa565b60405161045c91906131a2565b60405180910390f35b348015610470575f5ffd5b50610479610cd3565b60405161048691906131db565b60405180910390f35b34801561049a575f5ffd5b506104b560048036038101906104b091906131f4565b610cf7565b005b3480156104c2575f5ffd5b506104cb610d79565b005b3480156104d8575f5ffd5b506104f360048036038101906104ee9190612fa6565b610d8c565b604051610500919061321f565b60405180910390f35b348015610514575f5ffd5b5061052f600480360381019061052a9190613238565b610d96565b60405161053c91906131a2565b60405180910390f35b348015610550575f5ffd5b50610559610dd0565b60405161056691906132c4565b60405180910390f35b34801561057a575f5ffd5b50610583610dd8565b6040516105909190612c6e565b60405180910390f35b3480156105a4575f5ffd5b506105ad610dff565b6040516105ba91906132ec565b60405180910390f35b3480156105ce575f5ffd5b506105d7610e23565b6040516105e491906131a2565b60405180910390f35b3480156105f8575f5ffd5b50610601610e2a565b60405161060e9190612c6e565b60405180910390f35b348015610622575f5ffd5b5061063d6004803603810190610638919061335a565b610e4f565b005b34801561064a575f5ffd5b50610665600480360381019061066091906133a5565b610e70565b60405161067291906133df565b60405180910390f35b348015610686575f5ffd5b506106a1600480360381019061069c91906133f8565b610e85565b6040516106ae9190613173565b60405180910390f35b6106d160048036038101906106cc91906134be565b611087565b005b6106ed60048036038101906106e89190613527565b611256565b6040516106fb92919061361e565b60405180910390f35b34801561070f575f5ffd5b5061072a600480360381019061072591906131f4565b61127d565b005b61074660048036038101906107419190612d63565b61130e565b005b348015610753575f5ffd5b5061076e600480360381019061076991906131f4565b61138b565b005b34801561077b575f5ffd5b50610796600480360381019061079191906131f4565b61140d565b005b3480156107a3575f5ffd5b506107be60048036038101906107b991906131f4565b611458565b005b3480156107cb575f5ffd5b506107d46114dc565b6040516107e19190612c6e565b60405180910390f35b3480156107f5575f5ffd5b50610810600480360381019061080b9190613645565b611503565b60405161081d91906131a2565b60405180910390f35b61082e6128fa565b6060610838612912565b5f5f90505f3073ffffffffffffffffffffffffffffffffffffffff1663fc0c546a6040518163ffffffff1660e01b8152600401602060405180830381865afa158015610886573d5f5f3e3d5ffd5b505050506040513d601f19601f820116820180604052508101906108aa9190613684565b73ffffffffffffffffffffffffffffffffffffffff166318160ddd6040518163ffffffff1660e01b8152600401602060405180830381865afa1580156108f2573d5f5f3e3d5ffd5b505050506040513d601f19601f8201168201806040525081019061091691906136d9565b905060405180604001604052808381526020018281525094505f67ffffffffffffffff81111561094957610948613704565b5b60405190808252806020026020018201604052801561098257816020015b61096f61292a565b8152602001906001900390816109675790505b5093505f5f6109ab886040013589606001358a5f0160208101906109a691906133a5565b611540565b915091506040518060400160405280838152602001828152509450505050509193909250565b60045f9054906101000a900473ffffffffffffffffffffffffffffffffffffffff1681565b3373ffffffffffffffffffffffffffffffffffffffff167f000000000000000000000000000000000000000000000000000000000000000073ffffffffffffffffffffffffffffffffffffffff1614610a8657336040517f91ac5e4f000000000000000000000000000000000000000000000000000000008152600401610a7d9190612c6e565b60405180910390fd5b8660200135610aa5885f016020810190610aa091906133a5565b61159f565b14610afe57865f016020810190610abc91906133a5565b87602001356040517fc26bebcc000000000000000000000000000000000000000000000000000000008152600401610af5929190613740565b60405180910390fd5b610b0d87878787878787611610565b50505050505050565b600281565b5f5f7f02e49c2c000000000000000000000000000000000000000000000000000000006001915091509091565b5f5f60016002915091509091565b600181565b7f000000000000000000000000000000000000000000000000000000000000000081565b610b8761179a565b610b918282611821565b5050565b610b9d612943565b5f610bc284604001358560600135865f016020810190610bbd91906133a5565b611540565b9150505f5f610bd18684611880565b91509150610bf2865f016020810190610bea91906133a5565b838388611a11565b935050505092915050565b5f30905090565b6003602052815f5260405f20602052805f5260405f205f91509150508054610c2b90613794565b80601f0160208091040260200160405190810160405280929190818152602001828054610c5790613794565b8015610ca25780601f10610c7957610100808354040283529160200191610ca2565b820191905f5260205f20905b815481529060010190602001808311610c8557829003601f168201915b505050505081565b5f8160015f8563ffffffff1663ffffffff1681526020019081526020015f205414905092915050565b7f000000000000000000000000000000000000000000000000000000000000000081565b610cff61179a565b8060045f6101000a81548173ffffffffffffffffffffffffffffffffffffffff021916908373ffffffffffffffffffffffffffffffffffffffff1602179055507ff0be4f1e87349231d80c36b33f9e8639658eeaf474014dee15a3e6a4d441419781604051610d6e9190612c6e565b60405180910390a150565b610d8161179a565b610d8a5f611af2565b565b5f5f905092915050565b5f3073ffffffffffffffffffffffffffffffffffffffff168273ffffffffffffffffffffffffffffffffffffffff16149050949350505050565b5f6006905090565b5f5f5f9054906101000a900473ffffffffffffffffffffffffffffffffffffffff16905090565b7f000000000000000000000000000000000000000000000000000000000000000081565b5f5f905090565b60025f9054906101000a900473ffffffffffffffffffffffffffffffffffffffff1681565b610e5761179a565b610e6c828290610e6791906139f5565b611bb3565b5050565b6001602052805f5260405f205f915090505481565b60605f60035f8763ffffffff1663ffffffff1681526020019081526020015f205f8661ffff1661ffff1681526020019081526020015f208054610ec790613794565b80601f0160208091040260200160405190810160405280929190818152602001828054610ef390613794565b8015610f3e5780601f10610f1557610100808354040283529160200191610f3e565b820191905f5260205f20905b815481529060010190602001808311610f2157829003601f168201915b505050505090505f815103610f995783838080601f0160208091040260200160405190810160405280939291908181526020018383808284375f81840152601f19601f8201169050808301925050505050505091505061107f565b5f8484905003610fac578091505061107f565b600284849050106110405761100384848080601f0160208091040260200160405190810160405280939291908181526020018383808284375f81840152601f19601f82011690508083019250505050505050611ccb565b808484600290809261101793929190613a11565b60405160200161102993929190613aa9565b60405160208183030381529060405291505061107f565b83836040517f9a6d49cd000000000000000000000000000000000000000000000000000000008152600401611076929190613afa565b60405180910390fd5b949350505050565b5f5f90505b828290508110156111a957368383838181106110ab576110aa613b1c565b5b90506020028101906110bd9190613b55565b90506110e2815f015f0160208101906110d691906133a5565b825f0160200135610caa565b6110ec575061119c565b3073ffffffffffffffffffffffffffffffffffffffff1663d045a0dc8260c00135835f018460a00135858061010001906111269190613b7d565b8760e001602081019061113991906131f4565b8880610120019061114a9190613b7d565b6040518963ffffffff1660e01b815260040161116c9796959493929190613cb2565b5f604051808303818588803b158015611183575f5ffd5b505af1158015611195573d5f5f3e3d5ffd5b5050505050505b808060010191505061108c565b503373ffffffffffffffffffffffffffffffffffffffff16638e9e70996040518163ffffffff1660e01b81526004015f60405180830381865afa1580156111f2573d5f5f3e3d5ffd5b505050506040513d5f823e3d601f19601f8201168201806040525081019061121a9190613d83565b6040517f8351eea700000000000000000000000000000000000000000000000000000000815260040161124d9190613173565b60405180910390fd5b61125e61295b565b611266612912565b611271858585611d24565b91509150935093915050565b61128561179a565b7f000000000000000000000000000000000000000000000000000000000000000073ffffffffffffffffffffffffffffffffffffffff1663ca5eb5e1826040518263ffffffff1660e01b81526004016112de9190612c6e565b5f604051808303815f87803b1580156112f5575f5ffd5b505af1158015611307573d5f5f3e3d5ffd5b5050505050565b3073ffffffffffffffffffffffffffffffffffffffff163373ffffffffffffffffffffffffffffffffffffffff1614611373576040517f14d4a4e800000000000000000000000000000000000000000000000000000000815260040160405180910390fd5b61138287878787878787611e29565b50505050505050565b61139361179a565b8060025f6101000a81548173ffffffffffffffffffffffffffffffffffffffff021916908373ffffffffffffffffffffffffffffffffffffffff1602179055507fd48d879cef83a1c0bdda516f27b13ddb1b3f8bbac1c9e1511bb2a659c2427760816040516114029190612c6e565b60405180910390a150565b61141561179a565b8060065f6101000a81548173ffffffffffffffffffffffffffffffffffffffff021916908373ffffffffffffffffffffffffffffffffffffffff16021790555050565b61146061179a565b5f73ffffffffffffffffffffffffffffffffffffffff168173ffffffffffffffffffffffffffffffffffffffff16036114d0575f6040517f1e4fbdf70000000000000000000000000000000000000000000000000000000081526004016114c79190612c6e565b60405180910390fd5b6114d981611af2565b50565b5f7f0000000000000000000000000000000000000000000000000000000000000000905090565b5f816020013560015f845f01602081019061151e91906133a5565b63ffffffff1663ffffffff1681526020019081526020015f2054149050919050565b5f5f61154b85611e41565b9150819050838110156115975780846040517f71c4efed00000000000000000000000000000000000000000000000000000000815260040161158e929190613dca565b60405180910390fd5b935093915050565b5f5f60015f8463ffffffff1663ffffffff1681526020019081526020015f205490505f5f1b810361160757826040517ff6ff4fb70000000000000000000000000000000000000000000000000000000081526004016115fe9190613df1565b60405180910390fd5b80915050919050565b5f61162361161e8787611ea0565b611eca565b90505f6116538261163c6116378a8a611ed5565b611f06565b8b5f01602081019061164e91906133a5565b611f44565b905061165f87876121d8565b1561172d575f61169d8a604001602081019061167b9190613e0a565b8b5f01602081019061168d91906133a5565b846116988c8c6121eb565b61224d565b90507f000000000000000000000000000000000000000000000000000000000000000073ffffffffffffffffffffffffffffffffffffffff16637cb59012848b5f856040518563ffffffff1660e01b81526004016116fe9493929190613e6e565b5f604051808303815f87803b158015611715575f5ffd5b505af1158015611727573d5f5f3e3d5ffd5b50505050505b8173ffffffffffffffffffffffffffffffffffffffff16887fefed6d3500546b29533b128a29e3a94d70788727f0507505ac12eaf2e578fd9c8b5f01602081019061177891906133a5565b84604051611787929190613eb8565b60405180910390a3505050505050505050565b6117a261227f565b73ffffffffffffffffffffffffffffffffffffffff166117c0610dd8565b73ffffffffffffffffffffffffffffffffffffffff161461181f576117e361227f565b6040517f118cdaa70000000000000000000000000000000000000000000000000000000081526004016118169190612c6e565b60405180910390fd5b565b8060015f8463ffffffff1663ffffffff1681526020019081526020015f20819055507f238399d427b947898edb290f5ff0f9109849b1c3ba196a42e35f00c50a54b98b8282604051611874929190613740565b60405180910390a15050565b6060805f6118ec856020013561189586612286565b878060a001906118a59190613b7d565b8080601f0160208091040260200160405190810160405280939291908181526020018383808284375f81840152601f19601f8201169050808301925050505050505061230e565b80925081945050505f81611901576001611904565b60025b9050611931865f01602081019061191b91906133a5565b8288806080019061192c9190613b7d565b610e85565b92505f60045f9054906101000a900473ffffffffffffffffffffffffffffffffffffffff1690505f73ffffffffffffffffffffffffffffffffffffffff168173ffffffffffffffffffffffffffffffffffffffff1614611a07578073ffffffffffffffffffffffffffffffffffffffff1663043a78eb86866040518363ffffffff1660e01b81526004016119c6929190613edf565b602060405180830381865afa1580156119e1573d5f5f3e3d5ffd5b505050506040513d601f19601f82011682018060405250810190611a059190613f28565b505b5050509250929050565b611a19612943565b7f000000000000000000000000000000000000000000000000000000000000000073ffffffffffffffffffffffffffffffffffffffff1663ddc28c586040518060a001604052808863ffffffff168152602001611a758961159f565b8152602001878152602001868152602001851515815250306040518363ffffffff1660e01b8152600401611aaa929190614024565b6040805180830381865afa158015611ac4573d5f5f3e3d5ffd5b505050506040513d601f19601f82011682018060405250810190611ae8919061409f565b9050949350505050565b5f5f5f9054906101000a900473ffffffffffffffffffffffffffffffffffffffff169050815f5f6101000a81548173ffffffffffffffffffffffffffffffffffffffff021916908373ffffffffffffffffffffffffffffffffffffffff1602179055508173ffffffffffffffffffffffffffffffffffffffff168173ffffffffffffffffffffffffffffffffffffffff167f8be0079c531659141344cd1fd0a4f28419497f9722a3daafe3b4186f6b6457e060405160405180910390a35050565b5f5f90505b8151811015611c9057611be8828281518110611bd757611bd6613b1c565b5b602002602001015160400151611ccb565b818181518110611bfb57611bfa613b1c565b5b60200260200101516040015160035f848481518110611c1d57611c1c613b1c565b5b60200260200101515f015163ffffffff1663ffffffff1681526020019081526020015f205f848481518110611c5557611c54613b1c565b5b60200260200101516020015161ffff1661ffff1681526020019081526020015f209081611c829190614261565b508080600101915050611bb8565b507fbe4864a8e820971c0247f5992e2da559595f7bf076a21cb5928d443d2a13b67481604051611cc09190614447565b60405180910390a150565b5f60028201519050600361ffff168161ffff1614611d2057816040517f9a6d49cd000000000000000000000000000000000000000000000000000000008152600401611d179190613173565b60405180910390fd5b5050565b611d2c61295b565b611d34612912565b5f5f611d5b33886040013589606001358a5f016020810190611d5691906133a5565b61237c565b915091505f5f611d6b8984611880565b91509150611d9d895f016020810190611d8491906133a5565b83838b803603810190611d9791906144c8565b8b612494565b955060405180604001604052808581526020018481525094503373ffffffffffffffffffffffffffffffffffffffff16865f01517f85496b760a4b7f8d66384b9df21b381f5d1b1e79f229a47aaf4c232edc2fe59a8b5f016020810190611e0491906133a5565b8787604051611e15939291906144f3565b60405180910390a350505050935093915050565b611e3887878787878787611610565b50505050505050565b5f7f00000000000000000000000000000000000000000000000000000000000000007f000000000000000000000000000000000000000000000000000000000000000083611e8f9190614582565b611e9991906145b2565b9050919050565b5f82825f90602060ff1692611eb793929190613a11565b90611ec291906145fd565b905092915050565b5f815f1c9050919050565b5f8282602060ff1690602860ff1692611ef093929190613a11565b90611efb9190614686565b60c01c905092915050565b5f7f00000000000000000000000000000000000000000000000000000000000000008267ffffffffffffffff16611f3d91906145b2565b9050919050565b5f5f73ffffffffffffffffffffffffffffffffffffffff168473ffffffffffffffffffffffffffffffffffffffff1603611f7e5761dead93505b5f60065f9054906101000a900473ffffffffffffffffffffffffffffffffffffffff1673ffffffffffffffffffffffffffffffffffffffff166392e3c758846040518263ffffffff1660e01b8152600401611fd99190613df1565b602060405180830381865afa158015611ff4573d5f5f3e3d5ffd5b505050506040513d601f19601f82011682018060405250810190612018919061470e565b600a6120249190614868565b60075f9054906101000a900473ffffffffffffffffffffffffffffffffffffffff1673ffffffffffffffffffffffffffffffffffffffff1663313ce5676040518163ffffffff1660e01b8152600401602060405180830381865afa15801561208e573d5f5f3e3d5ffd5b505050506040513d601f19601f820116820180604052508101906120b2919061470e565b600a6120be9190614868565b856120c991906145b2565b6120d39190614582565b9050612019460361212f5761212a858260075f9054906101000a900473ffffffffffffffffffffffffffffffffffffffff1673ffffffffffffffffffffffffffffffffffffffff166125aa9092919063ffffffff16565b6121cd565b60085f9054906101000a900473ffffffffffffffffffffffffffffffffffffffff1673ffffffffffffffffffffffffffffffffffffffff166340c10f1986836040518363ffffffff1660e01b815260040161218b9291906148b2565b6020604051808303815f875af11580156121a7573d5f5f3e3d5ffd5b505050506040513d601f19601f820116820180604052508101906121cb9190613f28565b505b809150509392505050565b5f602860ff168383905011905092915050565b60608282602860ff1690809261220393929190613a11565b8080601f0160208091040260200160405190810160405280939291908181526020018383808284375f81840152601f19601f82011690508083019250505050505050905092915050565b6060848484846040516020016122669493929190614961565b6040516020818303038152906040529050949350505050565b5f33905090565b5f5f7f0000000000000000000000000000000000000000000000000000000000000000836122b49190614582565b905067ffffffffffffffff801681111561230557806040517fe2ce94130000000000000000000000000000000000000000000000000000000081526004016122fc91906132ec565b60405180910390fd5b80915050919050565b60605f5f83511190508061234357848460405160200161232f9291906149ca565b604051602081830303815290604052612372565b848461234e33612629565b8560405160200161236294939291906149f5565b6040516020818303038152906040525b9150935093915050565b5f5f612389858585611540565b809250819350505061201946036123ed576123e886308460075f9054906101000a900473ffffffffffffffffffffffffffffffffffffffff1673ffffffffffffffffffffffffffffffffffffffff1661264a909392919063ffffffff16565b61248b565b60085f9054906101000a900473ffffffffffffffffffffffffffffffffffffffff1673ffffffffffffffffffffffffffffffffffffffff16639dc29fac87846040518363ffffffff1660e01b81526004016124499291906148b2565b6020604051808303815f875af1158015612465573d5f5f3e3d5ffd5b505050506040513d601f19601f820116820180604052508101906124899190613f28565b505b94509492505050565b61249c61295b565b5f6124a9845f01516126cc565b90505f846020015111156124c5576124c48460200151612719565b5b7f000000000000000000000000000000000000000000000000000000000000000073ffffffffffffffffffffffffffffffffffffffff16632637a450826040518060a001604052808b63ffffffff1681526020016125228c61159f565b81526020018a81526020018981526020015f8960200151111515815250866040518463ffffffff1660e01b815260040161255d929190614024565b60806040518083038185885af1158015612579573d5f5f3e3d5ffd5b50505050506040513d601f19601f8201168201806040525081019061259e9190614ac7565b91505095945050505050565b612624838473ffffffffffffffffffffffffffffffffffffffff1663a9059cbb85856040516024016125dd9291906148b2565b604051602081830303815290604052915060e01b6020820180517bffffffffffffffffffffffffffffffffffffffffffffffffffffffff838183161783525050505061285f565b505050565b5f8173ffffffffffffffffffffffffffffffffffffffff165f1b9050919050565b6126c6848573ffffffffffffffffffffffffffffffffffffffff166323b872dd86868660405160240161267f93929190614af2565b604051602081830303815290604052915060e01b6020820180517bffffffffffffffffffffffffffffffffffffffffffffffffffffffff838183161783525050505061285f565b50505050565b5f81341461271157346040517f9f70412000000000000000000000000000000000000000000000000000000000815260040161270891906132ec565b60405180910390fd5b819050919050565b5f7f000000000000000000000000000000000000000000000000000000000000000073ffffffffffffffffffffffffffffffffffffffff1663e4fe1d946040518163ffffffff1660e01b8152600401602060405180830381865afa158015612783573d5f5f3e3d5ffd5b505050506040513d601f19601f820116820180604052508101906127a79190613684565b90505f73ffffffffffffffffffffffffffffffffffffffff168173ffffffffffffffffffffffffffffffffffffffff160361280e576040517f5373352a00000000000000000000000000000000000000000000000000000000815260040160405180910390fd5b61285b337f0000000000000000000000000000000000000000000000000000000000000000848473ffffffffffffffffffffffffffffffffffffffff1661264a909392919063ffffffff16565b5050565b5f5f60205f8451602086015f885af18061287e576040513d5f823e3d81fd5b3d92505f519150505f82146128975760018114156128b2565b5f8473ffffffffffffffffffffffffffffffffffffffff163b145b156128f457836040517f5274afe70000000000000000000000000000000000000000000000000000000081526004016128eb9190612c6e565b60405180910390fd5b50505050565b60405180604001604052805f81526020015f81525090565b60405180604001604052805f81526020015f81525090565b60405180604001604052805f8152602001606081525090565b60405180604001604052805f81526020015f81525090565b60405180606001604052805f81526020015f67ffffffffffffffff168152602001612984612943565b81525090565b5f604051905090565b5f5ffd5b5f5ffd5b5f5ffd5b5f60e082840312156129b4576129b361299b565b5b81905092915050565b5f602082840312156129d2576129d1612993565b5b5f82013567ffffffffffffffff8111156129ef576129ee612997565b5b6129fb8482850161299f565b91505092915050565b5f819050919050565b612a1681612a04565b82525050565b604082015f820151612a305f850182612a0d565b506020820151612a436020850182612a0d565b50505050565b5f81519050919050565b5f82825260208201905092915050565b5f819050602082019050919050565b5f819050919050565b612a8481612a72565b82525050565b5f81519050919050565b5f82825260208201905092915050565b8281835e5f83830152505050565b5f601f19601f8301169050919050565b5f612acc82612a8a565b612ad68185612a94565b9350612ae6818560208601612aa4565b612aef81612ab2565b840191505092915050565b5f604083015f830151612b0f5f860182612a7b565b5060208301518482036020860152612b278282612ac2565b9150508091505092915050565b5f612b3f8383612afa565b905092915050565b5f602082019050919050565b5f612b5d82612a49565b612b678185612a53565b935083602082028501612b7985612a63565b805f5b85811015612bb45784840389528151612b958582612b34565b9450612ba083612b47565b925060208a01995050600181019050612b7c565b50829750879550505050505092915050565b604082015f820151612bda5f850182612a0d565b506020820151612bed6020850182612a0d565b50505050565b5f60a082019050612c065f830186612a1c565b8181036040830152612c188185612b53565b9050612c276060830184612bc6565b949350505050565b5f73ffffffffffffffffffffffffffffffffffffffff82169050919050565b5f612c5882612c2f565b9050919050565b612c6881612c4e565b82525050565b5f602082019050612c815f830184612c5f565b92915050565b5f60608284031215612c9c57612c9b61299b565b5b81905092915050565b5f819050919050565b612cb781612ca5565b8114612cc1575f5ffd5b50565b5f81359050612cd281612cae565b92915050565b5f5ffd5b5f5ffd5b5f5ffd5b5f5f83601f840112612cf957612cf8612cd8565b5b8235905067ffffffffffffffff811115612d1657612d15612cdc565b5b602083019150836001820283011115612d3257612d31612ce0565b5b9250929050565b612d4281612c4e565b8114612d4c575f5ffd5b50565b5f81359050612d5d81612d39565b92915050565b5f5f5f5f5f5f5f60e0888a031215612d7e57612d7d612993565b5b5f612d8b8a828b01612c87565b9750506060612d9c8a828b01612cc4565b965050608088013567ffffffffffffffff811115612dbd57612dbc612997565b5b612dc98a828b01612ce4565b955095505060a0612ddc8a828b01612d4f565b93505060c088013567ffffffffffffffff811115612dfd57612dfc612997565b5b612e098a828b01612ce4565b925092505092959891949750929550565b5f61ffff82169050919050565b612e3081612e1a565b82525050565b5f602082019050612e495f830184612e27565b92915050565b5f7fffffffff0000000000000000000000000000000000000000000000000000000082169050919050565b612e8381612e4f565b82525050565b5f67ffffffffffffffff82169050919050565b612ea581612e89565b82525050565b5f604082019050612ebe5f830185612e7a565b612ecb6020830184612e9c565b9392505050565b5f604082019050612ee55f830185612e9c565b612ef26020830184612e9c565b9392505050565b5f819050919050565b5f612f1c612f17612f1284612c2f565b612ef9565b612c2f565b9050919050565b5f612f2d82612f02565b9050919050565b5f612f3e82612f23565b9050919050565b612f4e81612f34565b82525050565b5f602082019050612f675f830184612f45565b92915050565b5f63ffffffff82169050919050565b612f8581612f6d565b8114612f8f575f5ffd5b50565b5f81359050612fa081612f7c565b92915050565b5f5f60408385031215612fbc57612fbb612993565b5b5f612fc985828601612f92565b9250506020612fda85828601612cc4565b9150509250929050565b5f8115159050919050565b612ff881612fe4565b8114613002575f5ffd5b50565b5f8135905061301381612fef565b92915050565b5f5f6040838503121561302f5761302e612993565b5b5f83013567ffffffffffffffff81111561304c5761304b612997565b5b6130588582860161299f565b925050602061306985828601613005565b9150509250929050565b604082015f8201516130875f850182612a0d565b50602082015161309a6020850182612a0d565b50505050565b5f6040820190506130b35f830184613073565b92915050565b6130c281612e1a565b81146130cc575f5ffd5b50565b5f813590506130dd816130b9565b92915050565b5f5f604083850312156130f9576130f8612993565b5b5f61310685828601612f92565b9250506020613117858286016130cf565b9150509250929050565b5f81519050919050565b5f82825260208201905092915050565b5f61314582613121565b61314f818561312b565b935061315f818560208601612aa4565b61316881612ab2565b840191505092915050565b5f6020820190508181035f83015261318b818461313b565b905092915050565b61319c81612fe4565b82525050565b5f6020820190506131b55f830184613193565b92915050565b5f6131c582612f23565b9050919050565b6131d5816131bb565b82525050565b5f6020820190506131ee5f8301846131cc565b92915050565b5f6020828403121561320957613208612993565b5b5f61321684828501612d4f565b91505092915050565b5f6020820190506132325f830184612e9c565b92915050565b5f5f5f5f60a085870312156132505761324f612993565b5b5f61325d87828801612c87565b945050606085013567ffffffffffffffff81111561327e5761327d612997565b5b61328a87828801612ce4565b9350935050608061329d87828801612d4f565b91505092959194509250565b5f60ff82169050919050565b6132be816132a9565b82525050565b5f6020820190506132d75f8301846132b5565b92915050565b6132e681612a04565b82525050565b5f6020820190506132ff5f8301846132dd565b92915050565b5f5f83601f84011261331a57613319612cd8565b5b8235905067ffffffffffffffff81111561333757613336612cdc565b5b60208301915083602082028301111561335357613352612ce0565b5b9250929050565b5f5f602083850312156133705761336f612993565b5b5f83013567ffffffffffffffff81111561338d5761338c612997565b5b61339985828601613305565b92509250509250929050565b5f602082840312156133ba576133b9612993565b5b5f6133c784828501612f92565b91505092915050565b6133d981612ca5565b82525050565b5f6020820190506133f25f8301846133d0565b92915050565b5f5f5f5f606085870312156134105761340f612993565b5b5f61341d87828801612f92565b945050602061342e878288016130cf565b935050604085013567ffffffffffffffff81111561344f5761344e612997565b5b61345b87828801612ce4565b925092505092959194509250565b5f5f83601f84011261347e5761347d612cd8565b5b8235905067ffffffffffffffff81111561349b5761349a612cdc565b5b6020830191508360208202830111156134b7576134b6612ce0565b5b9250929050565b5f5f602083850312156134d4576134d3612993565b5b5f83013567ffffffffffffffff8111156134f1576134f0612997565b5b6134fd85828601613469565b92509250509250929050565b5f6040828403121561351e5761351d61299b565b5b81905092915050565b5f5f5f6080848603121561353e5761353d612993565b5b5f84013567ffffffffffffffff81111561355b5761355a612997565b5b6135678682870161299f565b935050602061357886828701613509565b925050606061358986828701612d4f565b9150509250925092565b61359c81612ca5565b82525050565b6135ab81612e89565b82525050565b604082015f8201516135c55f850182612a0d565b5060208201516135d86020850182612a0d565b50505050565b608082015f8201516135f25f850182613593565b50602082015161360560208501826135a2565b50604082015161361860408501826135b1565b50505050565b5f60c0820190506136315f8301856135de565b61363e6080830184612bc6565b9392505050565b5f6060828403121561365a57613659612993565b5b5f61366784828501612c87565b91505092915050565b5f8151905061367e81612d39565b92915050565b5f6020828403121561369957613698612993565b5b5f6136a684828501613670565b91505092915050565b6136b881612a04565b81146136c2575f5ffd5b50565b5f815190506136d3816136af565b92915050565b5f602082840312156136ee576136ed612993565b5b5f6136fb848285016136c5565b91505092915050565b7f4e487b71000000000000000000000000000000000000000000000000000000005f52604160045260245ffd5b61373a81612f6d565b82525050565b5f6040820190506137535f830185613731565b61376060208301846133d0565b9392505050565b7f4e487b71000000000000000000000000000000000000000000000000000000005f52602260045260245ffd5b5f60028204905060018216806137ab57607f821691505b6020821081036137be576137bd613767565b5b50919050565b6137cd82612ab2565b810181811067ffffffffffffffff821117156137ec576137eb613704565b5b80604052505050565b5f6137fe61298a565b905061380a82826137c4565b919050565b5f67ffffffffffffffff82111561382957613828613704565b5b602082029050602081019050919050565b5f5ffd5b5f5ffd5b5f5ffd5b5f67ffffffffffffffff8211156138605761385f613704565b5b61386982612ab2565b9050602081019050919050565b828183375f83830152505050565b5f61389661389184613846565b6137f5565b9050828152602081018484840111156138b2576138b1613842565b5b6138bd848285613876565b509392505050565b5f82601f8301126138d9576138d8612cd8565b5b81356138e9848260208601613884565b91505092915050565b5f606082840312156139075761390661383a565b5b61391160606137f5565b90505f61392084828501612f92565b5f830152506020613933848285016130cf565b602083015250604082013567ffffffffffffffff8111156139575761395661383e565b5b613963848285016138c5565b60408301525092915050565b5f61398161397c8461380f565b6137f5565b905080838252602082019050602084028301858111156139a4576139a3612ce0565b5b835b818110156139eb57803567ffffffffffffffff8111156139c9576139c8612cd8565b5b8086016139d689826138f2565b855260208501945050506020810190506139a6565b5050509392505050565b5f613a0136848461396f565b905092915050565b5f5ffd5b5f5ffd5b5f5f85851115613a2457613a23613a09565b5b83861115613a3557613a34613a0d565b5b6001850283019150848603905094509492505050565b5f81905092915050565b5f613a5f82613121565b613a698185613a4b565b9350613a79818560208601612aa4565b80840191505092915050565b5f613a908385613a4b565b9350613a9d838584613876565b82840190509392505050565b5f613ab48286613a55565b9150613ac1828486613a85565b9150819050949350505050565b5f613ad9838561312b565b9350613ae6838584613876565b613aef83612ab2565b840190509392505050565b5f6020820190508181035f830152613b13818486613ace565b90509392505050565b7f4e487b71000000000000000000000000000000000000000000000000000000005f52603260045260245ffd5b5f5ffd5b5f5ffd5b5f5ffd5b5f8235600161014003833603038112613b7157613b70613b49565b5b80830191505092915050565b5f5f83356001602003843603038112613b9957613b98613b49565b5b80840192508235915067ffffffffffffffff821115613bbb57613bba613b4d565b5b602083019250600182023603831315613bd757613bd6613b51565b5b509250929050565b5f613bed6020840184612f92565b905092915050565b613bfe81612f6d565b82525050565b5f613c126020840184612cc4565b905092915050565b613c2381612e89565b8114613c2d575f5ffd5b50565b5f81359050613c3e81613c1a565b92915050565b5f613c526020840184613c30565b905092915050565b60608201613c6a5f830183613bdf565b613c765f850182613bf5565b50613c846020830183613c04565b613c916020850182613593565b50613c9f6040830183613c44565b613cac60408501826135a2565b50505050565b5f60e082019050613cc55f83018a613c5a565b613cd260608301896133d0565b8181036080830152613ce5818789613ace565b9050613cf460a0830186612c5f565b81810360c0830152613d07818486613ace565b905098975050505050505050565b5f613d27613d2284613846565b6137f5565b905082815260208101848484011115613d4357613d42613842565b5b613d4e848285612aa4565b509392505050565b5f82601f830112613d6a57613d69612cd8565b5b8151613d7a848260208601613d15565b91505092915050565b5f60208284031215613d9857613d97612993565b5b5f82015167ffffffffffffffff811115613db557613db4612997565b5b613dc184828501613d56565b91505092915050565b5f604082019050613ddd5f8301856132dd565b613dea60208301846132dd565b9392505050565b5f602082019050613e045f830184613731565b92915050565b5f60208284031215613e1f57613e1e612993565b5b5f613e2c84828501613c30565b91505092915050565b5f819050919050565b5f613e58613e53613e4e84613e35565b612ef9565b612e1a565b9050919050565b613e6881613e3e565b82525050565b5f608082019050613e815f830187612c5f565b613e8e60208301866133d0565b613e9b6040830185613e5f565b8181036060830152613ead818461313b565b905095945050505050565b5f604082019050613ecb5f830185613731565b613ed860208301846132dd565b9392505050565b5f6040820190508181035f830152613ef7818561313b565b90508181036020830152613f0b818461313b565b90509392505050565b5f81519050613f2281612fef565b92915050565b5f60208284031215613f3d57613f3c612993565b5b5f613f4a84828501613f14565b91505092915050565b5f82825260208201905092915050565b5f613f6d82613121565b613f778185613f53565b9350613f87818560208601612aa4565b613f9081612ab2565b840191505092915050565b613fa481612fe4565b82525050565b5f60a083015f830151613fbf5f860182613bf5565b506020830151613fd26020860182613593565b5060408301518482036040860152613fea8282613f63565b915050606083015184820360608601526140048282613f63565b91505060808301516140196080860182613f9b565b508091505092915050565b5f6040820190508181035f83015261403c8185613faa565b905061404b6020830184612c5f565b9392505050565b5f604082840312156140675761406661383a565b5b61407160406137f5565b90505f614080848285016136c5565b5f830152506020614093848285016136c5565b60208301525092915050565b5f604082840312156140b4576140b3612993565b5b5f6140c184828501614052565b91505092915050565b5f819050815f5260205f209050919050565b5f6020601f8301049050919050565b5f82821b905092915050565b5f600883026141267fffffffffffffffffffffffffffffffffffffffffffffffffffffffffffffffff826140eb565b61413086836140eb565b95508019841693508086168417925050509392505050565b5f61416261415d61415884612a04565b612ef9565b612a04565b9050919050565b5f819050919050565b61417b83614148565b61418f61418782614169565b8484546140f7565b825550505050565b5f5f905090565b6141a6614197565b6141b1818484614172565b505050565b5b818110156141d4576141c95f8261419e565b6001810190506141b7565b5050565b601f821115614219576141ea816140ca565b6141f3846140dc565b81016020851015614202578190505b61421661420e856140dc565b8301826141b6565b50505b505050565b5f82821c905092915050565b5f6142395f198460080261421e565b1980831691505092915050565b5f614251838361422a565b9150826002028217905092915050565b61426a82613121565b67ffffffffffffffff81111561428357614282613704565b5b61428d8254613794565b6142988282856141d8565b5f60209050601f8311600181146142c9575f84156142b7578287015190505b6142c18582614246565b865550614328565b601f1984166142d7866140ca565b5f5b828110156142fe578489015182556001820191506020850194506020810190506142d9565b8683101561431b5784890151614317601f89168261422a565b8355505b6001600288020188555050505b505050505050565b5f81519050919050565b5f82825260208201905092915050565b5f819050602082019050919050565b61436281612e1a565b82525050565b5f606083015f83015161437d5f860182613bf5565b5060208301516143906020860182614359565b50604083015184820360408601526143a88282613f63565b9150508091505092915050565b5f6143c08383614368565b905092915050565b5f602082019050919050565b5f6143de82614330565b6143e8818561433a565b9350836020820285016143fa8561434a565b805f5b85811015614435578484038952815161441685826143b5565b9450614421836143c8565b925060208a019950506001810190506143fd565b50829750879550505050505092915050565b5f6020820190508181035f83015261445f81846143d4565b905092915050565b5f81359050614475816136af565b92915050565b5f604082840312156144905761448f61383a565b5b61449a60406137f5565b90505f6144a984828501614467565b5f8301525060206144bc84828501614467565b60208301525092915050565b5f604082840312156144dd576144dc612993565b5b5f6144ea8482850161447b565b91505092915050565b5f6060820190506145065f830186613731565b61451360208301856132dd565b61452060408301846132dd565b949350505050565b7f4e487b71000000000000000000000000000000000000000000000000000000005f52601260045260245ffd5b7f4e487b71000000000000000000000000000000000000000000000000000000005f52601160045260245ffd5b5f61458c82612a04565b915061459783612a04565b9250826145a7576145a6614528565b5b828204905092915050565b5f6145bc82612a04565b91506145c783612a04565b92508282026145d581612a04565b915082820484148315176145ec576145eb614555565b5b5092915050565b5f82905092915050565b5f61460883836145f3565b826146138135612ca5565b925060208210156146535761464e7fffffffffffffffffffffffffffffffffffffffffffffffffffffffffffffffff836020036008026140eb565b831692505b505092915050565b5f7fffffffffffffffff00000000000000000000000000000000000000000000000082169050919050565b5f61469183836145f3565b8261469c813561465b565b925060088210156146dc576146d77fffffffffffffffff000000000000000000000000000000000000000000000000836008036008026140eb565b831692505b505092915050565b6146ed816132a9565b81146146f7575f5ffd5b50565b5f81519050614708816146e4565b92915050565b5f6020828403121561472357614722612993565b5b5f614730848285016146fa565b91505092915050565b5f8160011c9050919050565b5f5f8291508390505b600185111561478e5780860481111561476a57614769614555565b5b60018516156147795780820291505b808102905061478785614739565b945061474e565b94509492505050565b5f826147a65760019050614861565b816147b3575f9050614861565b81600181146147c957600281146147d357614802565b6001915050614861565b60ff8411156147e5576147e4614555565b5b8360020a9150848211156147fc576147fb614555565b5b50614861565b5060208310610133831016604e8410600b84101617156148375782820a90508381111561483257614831614555565b5b614861565b6148448484846001614745565b9250905081840481111561485b5761485a614555565b5b81810290505b9392505050565b5f61487282612a04565b915061487d836132a9565b92506148aa7fffffffffffffffffffffffffffffffffffffffffffffffffffffffffffffffff8484614797565b905092915050565b5f6040820190506148c55f830185612c5f565b6148d260208301846132dd565b9392505050565b5f8160c01b9050919050565b5f6148ef826148d9565b9050919050565b61490761490282612e89565b6148e5565b82525050565b5f8160e01b9050919050565b5f6149238261490d565b9050919050565b61493b61493682612f6d565b614919565b82525050565b5f819050919050565b61495b61495682612a04565b614941565b82525050565b5f61496c82876148f6565b60088201915061497c828661492a565b60048201915061498c828561494a565b60208201915061499c8284613a55565b915081905095945050505050565b5f819050919050565b6149c46149bf82612ca5565b6149aa565b82525050565b5f6149d582856149b3565b6020820191506149e582846148f6565b6008820191508190509392505050565b5f614a0082876149b3565b602082019150614a1082866148f6565b600882019150614a2082856149b3565b602082019150614a308284613a55565b915081905095945050505050565b5f81519050614a4c81612cae565b92915050565b5f81519050614a6081613c1a565b92915050565b5f60808284031215614a7b57614a7a61383a565b5b614a8560606137f5565b90505f614a9484828501614a3e565b5f830152506020614aa784828501614a52565b6020830152506040614abb84828501614052565b60408301525092915050565b5f60808284031215614adc57614adb612993565b5b5f614ae984828501614a66565b91505092915050565b5f606082019050614b055f830186612c5f565b614b126020830185612c5f565b614b1f60408301846132dd565b94935050505056fea26469706673582212206d086996c03dd9b70abecd6c03a046083e63c277ad7aa766b1c5cf86b48145d664736f6c634300081c0033","linkReferences":{}},"methodIdentifiers":{"SEND()":"1f5e1334","SEND_AND_CALL()":"134d4f25","allowInitializePath((uint32,bytes32,uint64))":"ff7bd03d","approvalRequired()":"9f68b964","combineOptions(uint32,uint16,bytes)":"bc70b354","decimalConversionRate()":"963efcaa","endpoint()":"5e280f11","enforcedOptions(uint32,uint16)":"5535d461","isComposeMsgSender((uint32,bytes32,uint64),bytes,address)":"82413eac","isPeer(uint32,bytes32)":"5a0dfe4d","lzReceive((uint32,bytes32,uint64),bytes32,bytes,address,bytes)":"13137d65","lzReceiveAndRevert(((uint32,bytes32,uint64),uint32,address,bytes32,uint256,address,bytes,bytes)[])":"bd815db0","lzReceiveSimulate((uint32,bytes32,uint64),bytes32,bytes,address,bytes)":"d045a0dc","minterBurner()":"2ef8c5a4","msgInspector()":"111ecdad","nextNonce(uint32,bytes32)":"7d25a05e","oApp()":"52ae2879","oAppVersion()":"17442b70","oftVersion()":"156a0d0f","owner()":"8da5cb5b","peers(uint32)":"bb0b6a53","preCrime()":"b731ea0a","quoteOFT((uint32,bytes32,uint256,uint256,bytes,bytes,bytes))":"0d35b415","quoteSend((uint32,bytes32,uint256,uint256,bytes,bytes,bytes),bool)":"3b6f743b","renounceOwnership()":"715018a6","send((uint32,bytes32,uint256,uint256,bytes,bytes,bytes),(uint256,uint256),address)":"c7c7f5b3","setDelegate(address)":"ca5eb5e1","setEnforcedOptions((uint32,uint16,bytes)[])":"b98bd070","setMsgInspector(address)":"6fc1b31e","setPeer(uint32,bytes32)":"3400288b","setPreCrime(address)":"d4243885","setSrcEidLib(address)":"d4558b52","sharedDecimals()":"857749b0","token()":"fc0c546a","transferOwnership(address)":"f2fde38b"},"id":156}