{"abi":[{"type":"constructor","inputs":[{"name":"_token","type":"address","internalType":"address"},{"name":"_elevatedMinterBurner","type":"address","internalType":"address"},{"name":"_lzEndpoint","type":"address","internalType":"address"},{"name":"_owner","type":"address","internalType":"address"},{"name":"_sharedDecimals","type":"uint8","internalType":"uint8"}],"stateMutability":"nonpayable"},{"type":"function","name":"SEND","inputs":[],"outputs":[{"name":"","type":"uint16","internalType":"uint16"}],"stateMutability":"view"},{"type":"function","name":"SEND_AND_CALL","inputs":[],"outputs":[{"name":"","type":"uint16","internalType":"uint16"}],"stateMutability":"view"},{"type":"function","name":"_SHAREDDECIMALS","inputs":[],"outputs":[{"name":"","type":"uint8","internalType":"uint8"}],"stateMutability":"view"},{"type":"function","name":"allowInitializePath","inputs":[{"name":"origin","type":"tuple","internalType":"struct Origin","components":[{"name":"srcEid","type":"uint32","internalType":"uint32"},{"name":"sender","type":"bytes32","internalType":"bytes32"},{"name":"nonce","type":"uint64","internalType":"uint64"}]}],"outputs":[{"name":"","type":"bool","internalType":"bool"}],"stateMutability":"view"},{"type":"function","name":"approvalRequired","inputs":[],"outputs":[{"name":"","type":"bool","internalType":"bool"}],"stateMutability":"pure"},{"type":"function","name":"combineOptions","inputs":[{"name":"_eid","type":"uint32","internalType":"uint32"},{"name":"_msgType","type":"uint16","internalType":"uint16"},{"name":"_extraOptions","type":"bytes","internalType":"bytes"}],"outputs":[{"name":"","type":"bytes","internalType":"bytes"}],"stateMutability":"view"},{"type":"function","name":"decimalConversionRate","inputs":[],"outputs":[{"name":"","type":"uint256","internalType":"uint256"}],"stateMutability":"view"},{"type":"function","name":"elevatedMinterBurner","inputs":[],"outputs":[{"name":"","type":"address","internalType":"address"}],"stateMutability":"view"},{"type":"function","name":"endpoint","inputs":[],"outputs":[{"name":"","type":"address","internalType":"contract ILayerZeroEndpointV2"}],"stateMutability":"view"},{"type":"function","name":"enforcedOptions","inputs":[{"name":"eid","type":"uint32","internalType":"uint32"},{"name":"msgType","type":"uint16","internalType":"uint16"}],"outputs":[{"name":"enforcedOption","type":"bytes","internalType":"bytes"}],"stateMutability":"view"},{"type":"function","name":"isComposeMsgSender","inputs":[{"name":"","type":"tuple","internalType":"struct Origin","components":[{"name":"srcEid","type":"uint32","internalType":"uint32"},{"name":"sender","type":"bytes32","internalType":"bytes32"},{"name":"nonce","type":"uint64","internalType":"uint64"}]},{"name":"","type":"bytes","internalType":"bytes"},{"name":"_sender","type":"address","internalType":"address"}],"outputs":[{"name":"","type":"bool","internalType":"bool"}],"stateMutability":"view"},{"type":"function","name":"isPeer","inputs":[{"name":"_eid","type":"uint32","internalType":"uint32"},{"name":"_peer","type":"bytes32","internalType":"bytes32"}],"outputs":[{"name":"","type":"bool","internalType":"bool"}],"stateMutability":"view"},{"type":"function","name":"lzReceive","inputs":[{"name":"_origin","type":"tuple","internalType":"struct Origin","components":[{"name":"srcEid","type":"uint32","internalType":"uint32"},{"name":"sender","type":"bytes32","internalType":"bytes32"},{"name":"nonce","type":"uint64","internalType":"uint64"}]},{"name":"_guid","type":"bytes32","internalType":"bytes32"},{"name":"_message","type":"bytes","internalType":"bytes"},{"name":"_executor","type":"address","internalType":"address"},{"name":"_extraData","type":"bytes","internalType":"bytes"}],"outputs":[],"stateMutability":"payable"},{"type":"function","name":"lzReceiveAndRevert","inputs":[{"name":"_packets","type":"tuple[]","internalType":"struct InboundPacket[]","components":[{"name":"origin","type":"tuple","internalType":"struct Origin","components":[{"name":"srcEid","type":"uint32","internalType":"uint32"},{"name":"sender","type":"bytes32","internalType":"bytes32"},{"name":"nonce","type":"uint64","internalType":"uint64"}]},{"name":"dstEid","type":"uint32","internalType":"uint32"},{"name":"receiver","type":"address","internalType":"address"},{"name":"guid","type":"bytes32","internalType":"bytes32"},{"name":"value","type":"uint256","internalType":"uint256"},{"name":"executor","type":"address","internalType":"address"},{"name":"message","type":"bytes","internalType":"bytes"},{"name":"extraData","type":"bytes","internalType":"bytes"}]}],"outputs":[],"stateMutability":"payable"},{"type":"function","name":"lzReceiveSimulate","inputs":[{"name":"_origin","type":"tuple","internalType":"struct Origin","components":[{"name":"srcEid","type":"uint32","internalType":"uint32"},{"name":"sender","type":"bytes32","internalType":"bytes32"},{"name":"nonce","type":"uint64","internalType":"uint64"}]},{"name":"_guid","type":"bytes32","internalType":"bytes32"},{"name":"_message","type":"bytes","internalType":"bytes"},{"name":"_executor","type":"address","internalType":"address"},{"name":"_extraData","type":"bytes","internalType":"bytes"}],"outputs":[],"stateMutability":"payable"},{"type":"function","name":"msgInspector","inputs":[],"outputs":[{"name":"","type":"address","internalType":"address"}],"stateMutability":"view"},{"type":"function","name":"nextNonce","inputs":[{"name":"","type":"uint32","internalType":"uint32"},{"name":"","type":"bytes32","internalType":"bytes32"}],"outputs":[{"name":"nonce","type":"uint64","internalType":"uint64"}],"stateMutability":"view"},{"type":"function","name":"oApp","inputs":[],"outputs":[{"name":"","type":"address","internalType":"address"}],"stateMutability":"view"},{"type":"function","name":"oAppVersion","inputs":[],"outputs":[{"name":"senderVersion","type":"uint64","internalType":"uint64"},{"name":"receiverVersion","type":"uint64","internalType":"uint64"}],"stateMutability":"pure"},{"type":"function","name":"oftVersion","inputs":[],"outputs":[{"name":"interfaceId","type":"bytes4","internalType":"bytes4"},{"name":"version","type":"uint64","internalType":"uint64"}],"stateMutability":"pure"},{"type":"function","name":"owner","inputs":[],"outputs":[{"name":"","type":"address","internalType":"address"}],"stateMutability":"view"},{"type":"function","name":"peers","inputs":[{"name":"eid","type":"uint32","internalType":"uint32"}],"outputs":[{"name":"peer","type":"bytes32","internalType":"bytes32"}],"stateMutability":"view"},{"type":"function","name":"preCrime","inputs":[],"outputs":[{"name":"","type":"address","internalType":"address"}],"stateMutability":"view"},{"type":"function","name":"quoteOFT","inputs":[{"name":"_sendParam","type":"tuple","internalType":"struct SendParam","components":[{"name":"dstEid","type":"uint32","internalType":"uint32"},{"name":"to","type":"bytes32","internalType":"bytes32"},{"name":"amountLD","type":"uint256","internalType":"uint256"},{"name":"minAmountLD","type":"uint256","internalType":"uint256"},{"name":"extraOptions","type":"bytes","internalType":"bytes"},{"name":"composeMsg","type":"bytes","internalType":"bytes"},{"name":"oftCmd","type":"bytes","internalType":"bytes"}]}],"outputs":[{"name":"oftLimit","type":"tuple","internalType":"struct OFTLimit","components":[{"name":"minAmountLD","type":"uint256","internalType":"uint256"},{"name":"maxAmountLD","type":"uint256","internalType":"uint256"}]},{"name":"oftFeeDetails","type":"tuple[]","internalType":"struct OFTFeeDetail[]","components":[{"name":"feeAmountLD","type":"int256","internalType":"int256"},{"name":"description","type":"string","internalType":"string"}]},{"name":"oftReceipt","type":"tuple","internalType":"struct OFTReceipt","components":[{"name":"amountSentLD","type":"uint256","internalType":"uint256"},{"name":"amountReceivedLD","type":"uint256","internalType":"uint256"}]}],"stateMutability":"view"},{"type":"function","name":"quoteSend","inputs":[{"name":"_sendParam","type":"tuple","internalType":"struct SendParam","components":[{"name":"dstEid","type":"uint32","internalType":"uint32"},{"name":"to","type":"bytes32","internalType":"bytes32"},{"name":"amountLD","type":"uint256","internalType":"uint256"},{"name":"minAmountLD","type":"uint256","internalType":"uint256"},{"name":"extraOptions","type":"bytes","internalType":"bytes"},{"name":"composeMsg","type":"bytes","internalType":"bytes"},{"name":"oftCmd","type":"bytes","internalType":"bytes"}]},{"name":"_payInLzToken","type":"bool","internalType":"bool"}],"outputs":[{"name":"msgFee","type":"tuple","internalType":"struct MessagingFee","components":[{"name":"nativeFee","type":"uint256","internalType":"uint256"},{"name":"lzTokenFee","type":"uint256","internalType":"uint256"}]}],"stateMutability":"view"},{"type":"function","name":"renounceOwnership","inputs":[],"outputs":[],"stateMutability":"nonpayable"},{"type":"function","name":"send","inputs":[{"name":"_sendParam","type":"tuple","internalType":"struct SendParam","components":[{"name":"dstEid","type":"uint32","internalType":"uint32"},{"name":"to","type":"bytes32","internalType":"bytes32"},{"name":"amountLD","type":"uint256","internalType":"uint256"},{"name":"minAmountLD","type":"uint256","internalType":"uint256"},{"name":"extraOptions","type":"bytes","internalType":"bytes"},{"name":"composeMsg","type":"bytes","internalType":"bytes"},{"name":"oftCmd","type":"bytes","internalType":"bytes"}]},{"name":"_fee","type":"tuple","internalType":"struct MessagingFee","components":[{"name":"nativeFee","type":"uint256","internalType":"uint256"},{"name":"lzTokenFee","type":"uint256","internalType":"uint256"}]},{"name":"_refundAddress","type":"address","internalType":"address"}],"outputs":[{"name":"msgReceipt","type":"tuple","internalType":"struct MessagingReceipt","components":[{"name":"guid","type":"bytes32","internalType":"bytes32"},{"name":"nonce","type":"uint64","internalType":"uint64"},{"name":"fee","type":"tuple","internalType":"struct MessagingFee","components":[{"name":"nativeFee","type":"uint256","internalType":"uint256"},{"name":"lzTokenFee","type":"uint256","internalType":"uint256"}]}]},{"name":"oftReceipt","type":"tuple","internalType":"struct OFTReceipt","components":[{"name":"amountSentLD","type":"uint256","internalType":"uint256"},{"name":"amountReceivedLD","type":"uint256","internalType":"uint256"}]}],"stateMutability":"payable"},{"type":"function","name":"setDelegate","inputs":[{"name":"_delegate","type":"address","internalType":"address"}],"outputs":[],"stateMutability":"nonpayable"},{"type":"function","name":"setElevatedMinterBurner","inputs":[{"name":"_elevatedMinterBurner","type":"address","internalType":"address"}],"outputs":[],"stateMutability":"nonpayable"},{"type":"function","name":"setEnforcedOptions","inputs":[{"name":"_enforcedOptions","type":"tuple[]","internalType":"struct EnforcedOptionParam[]","components":[{"name":"eid","type":"uint32","internalType":"uint32"},{"name":"msgType","type":"uint16","internalType":"uint16"},{"name":"options","type":"bytes","internalType":"bytes"}]}],"outputs":[],"stateMutability":"nonpayable"},{"type":"function","name":"setMsgInspector","inputs":[{"name":"_msgInspector","type":"address","internalType":"address"}],"outputs":[],"stateMutability":"nonpayable"},{"type":"function","name":"setPeer","inputs":[{"name":"_eid","type":"uint32","internalType":"uint32"},{"name":"_peer","type":"bytes32","internalType":"bytes32"}],"outputs":[],"stateMutability":"nonpayable"},{"type":"function","name":"setPreCrime","inputs":[{"name":"_preCrime","type":"address","internalType":"address"}],"outputs":[],"stateMutability":"nonpayable"},{"type":"function","name":"sharedDecimals","inputs":[],"outputs":[{"name":"","type":"uint8","internalType":"uint8"}],"stateMutability":"view"},{"type":"function","name":"token","inputs":[],"outputs":[{"name":"","type":"address","internalType":"address"}],"stateMutability":"view"},{"type":"function","name":"tokenOFT","inputs":[],"outputs":[{"name":"","type":"address","internalType":"address"}],"stateMutability":"view"},{"type":"function","name":"transferOwnership","inputs":[{"name":"newOwner","type":"address","internalType":"address"}],"outputs":[],"stateMutability":"nonpayable"},{"type":"event","name":"Credit","inputs":[{"name":"to","type":"address","indexed":false,"internalType":"address"},{"name":"amount","type":"uint256","indexed":false,"internalType":"uint256"}],"anonymous":false},{"type":"event","name":"Debit","inputs":[{"name":"from","type":"address","indexed":false,"internalType":"address"},{"name":"amount","type":"uint256","indexed":false,"internalType":"uint256"}],"anonymous":false},{"type":"event","name":"EnforcedOptionSet","inputs":[{"name":"_enforcedOptions","type":"tuple[]","indexed":false,"internalType":"struct EnforcedOptionParam[]","components":[{"name":"eid","type":"uint32","internalType":"uint32"},{"name":"msgType","type":"uint16","internalType":"uint16"},{"name":"options","type":"bytes","internalType":"bytes"}]}],"anonymous":false},{"type":"event","name":"MsgInspectorSet","inputs":[{"name":"inspector","type":"address","indexed":false,"internalType":"address"}],"anonymous":false},{"type":"event","name":"OFTReceived","inputs":[{"name":"guid","type":"bytes32","indexed":true,"internalType":"bytes32"},{"name":"srcEid","type":"uint32","indexed":false,"internalType":"uint32"},{"name":"toAddress","type":"address","indexed":true,"internalType":"address"},{"name":"amountReceivedLD","type":"uint256","indexed":false,"internalType":"uint256"}],"anonymous":false},{"type":"event","name":"OFTSent","inputs":[{"name":"guid","type":"bytes32","indexed":true,"internalType":"bytes32"},{"name":"dstEid","type":"uint32","indexed":false,"internalType":"uint32"},{"name":"fromAddress","type":"address","indexed":true,"internalType":"address"},{"name":"amountSentLD","type":"uint256","indexed":false,"internalType":"uint256"},{"name":"amountReceivedLD","type":"uint256","indexed":false,"internalType":"uint256"}],"anonymous":false},{"type":"event","name":"OwnershipTransferred","inputs":[{"name":"previousOwner","type":"address","indexed":true,"internalType":"address"},{"name":"newOwner","type":"address","indexed":true,"internalType":"address"}],"anonymous":false},{"type":"event","name":"PeerSet","inputs":[{"name":"eid","type":"uint32","indexed":false,"internalType":"uint32"},{"name":"peer","type":"bytes32","indexed":false,"internalType":"bytes32"}],"anonymous":false},{"type":"event","name":"PreCrimeSet","inputs":[{"name":"preCrimeAddress","type":"address","indexed":false,"internalType":"address"}],"anonymous":false},{"type":"error","name":"AmountSDOverflowed","inputs":[{"name":"amountSD","type":"uint256","internalType":"uint256"}]},{"type":"error","name":"InsufficientBalance","inputs":[]},{"type":"error","name":"InvalidDelegate","inputs":[]},{"type":"error","name":"InvalidEndpointCall","inputs":[]},{"type":"error","name":"InvalidLocalDecimals","inputs":[]},{"type":"error","name":"InvalidOptions","inputs":[{"name":"options","type":"bytes","internalType":"bytes"}]},{"type":"error","name":"LzTokenUnavailable","inputs":[]},{"type":"error","name":"NoPeer","inputs":[{"name":"eid","type":"uint32","internalType":"uint32"}]},{"type":"error","name":"NotEnoughNative","inputs":[{"name":"msgValue","type":"uint256","internalType":"uint256"}]},{"type":"error","name":"OnlyEndpoint","inputs":[{"name":"addr","type":"address","internalType":"address"}]},{"type":"error","name":"OnlyPeer","inputs":[{"name":"eid","type":"uint32","internalType":"uint32"},{"name":"sender","type":"bytes32","internalType":"bytes32"}]},{"type":"error","name":"OnlySelf","inputs":[]},{"type":"error","name":"OwnableInvalidOwner","inputs":[{"name":"owner","type":"address","internalType":"address"}]},{"type":"error","name":"OwnableUnauthorizedAccount","inputs":[{"name":"account","type":"address","internalType":"address"}]},{"type":"error","name":"ReentrancyGuardReentrantCall","inputs":[]},{"type":"error","name":"SafeERC20FailedOperation","inputs":[{"name":"token","type":"address","internalType":"address"}]},{"type":"error","name":"SimulationResult","inputs":[{"name":"result","type":"bytes","internalType":"bytes"}]},{"type":"error","name":"SlippageExceeded","inputs":[{"name":"amountLD","type":"uint256","internalType":"uint256"},{"name":"minAmountLD","type":"uint256","internalType":"uint256"}]}],"bytecode":{"object":"0x610100604052348015610010575f5ffd5b50604051615335380380615335833981810160405281019061003291906104df565b8483838273ffffffffffffffffffffffffffffffffffffffff1663313ce5676040518163ffffffff1660e01b8152600401602060405180830381865afa15801561007e573d5f5f3e3d5ffd5b505050506040513d601f19601f820116820180604052508101906100a29190610556565b8282818181818b5f73ffffffffffffffffffffffffffffffffffffffff168173ffffffffffffffffffffffffffffffffffffffff1603610119575f6040517f1e4fbdf70000000000000000000000000000000000000000000000000000000081526004016101109190610590565b60405180910390fd5b6101288161038160201b60201c565b508173ffffffffffffffffffffffffffffffffffffffff1660808173ffffffffffffffffffffffffffffffffffffffff16815250505f73ffffffffffffffffffffffffffffffffffffffff168173ffffffffffffffffffffffffffffffffffffffff16036101c2576040517fb586360400000000000000000000000000000000000000000000000000000000815260040160405180910390fd5b60805173ffffffffffffffffffffffffffffffffffffffff1663ca5eb5e1826040518263ffffffff1660e01b81526004016101fd9190610590565b5f604051808303815f87803b158015610214575f5ffd5b505af1158015610226573d5f5f3e3d5ffd5b505050505050505061023c61044260201b60201c565b60ff168360ff16101561027b576040517f1e9714b000000000000000000000000000000000000000000000000000000000815260040160405180910390fd5b61028961044260201b60201c565b8361029491906105d6565b600a6102a09190610742565b60a081815250505050508273ffffffffffffffffffffffffffffffffffffffff1660c08173ffffffffffffffffffffffffffffffffffffffff168152505050505060016005819055508460065f6101000a81548173ffffffffffffffffffffffffffffffffffffffff021916908373ffffffffffffffffffffffffffffffffffffffff1602179055508360075f6101000a81548173ffffffffffffffffffffffffffffffffffffffff021916908373ffffffffffffffffffffffffffffffffffffffff1602179055508060ff1660e08160ff1681525050505050505061078c565b5f5f5f9054906101000a900473ffffffffffffffffffffffffffffffffffffffff169050815f5f6101000a81548173ffffffffffffffffffffffffffffffffffffffff021916908373ffffffffffffffffffffffffffffffffffffffff1602179055508173ffffffffffffffffffffffffffffffffffffffff168173ffffffffffffffffffffffffffffffffffffffff167f8be0079c531659141344cd1fd0a4f28419497f9722a3daafe3b4186f6b6457e060405160405180910390a35050565b5f60e051905090565b5f5ffd5b5f73ffffffffffffffffffffffffffffffffffffffff82169050919050565b5f6104788261044f565b9050919050565b6104888161046e565b8114610492575f5ffd5b50565b5f815190506104a38161047f565b92915050565b5f60ff82169050919050565b6104be816104a9565b81146104c8575f5ffd5b50565b5f815190506104d9816104b5565b92915050565b5f5f5f5f5f60a086880312156104f8576104f761044b565b5b5f61050588828901610495565b955050602061051688828901610495565b945050604061052788828901610495565b935050606061053888828901610495565b9250506080610549888289016104cb565b9150509295509295909350565b5f6020828403121561056b5761056a61044b565b5b5f610578848285016104cb565b91505092915050565b61058a8161046e565b82525050565b5f6020820190506105a35f830184610581565b92915050565b7f4e487b71000000000000000000000000000000000000000000000000000000005f52601160045260245ffd5b5f6105e0826104a9565b91506105eb836104a9565b9250828203905060ff811115610604576106036105a9565b5b92915050565b5f8160011c9050919050565b5f5f8291508390505b600185111561065f5780860481111561063b5761063a6105a9565b5b600185161561064a5780820291505b80810290506106588561060a565b945061061f565b94509492505050565b5f826106775760019050610732565b81610684575f9050610732565b816001811461069a57600281146106a4576106d3565b6001915050610732565b60ff8411156106b6576106b56105a9565b5b8360020a9150848211156106cd576106cc6105a9565b5b50610732565b5060208310610133831016604e8410600b84101617156107085782820a905083811115610703576107026105a9565b5b610732565b6107158484846001610616565b9250905081840481111561072c5761072b6105a9565b5b81810290505b9392505050565b5f819050919050565b5f61074c82610739565b9150610757836104a9565b92506107847fffffffffffffffffffffffffffffffffffffffffffffffffffffffffffffffff8484610668565b905092915050565b60805160a05160c05160e051614b226108135f395f8181610e63015261137a01525f6115b301525f8181610eb001528181611f1801528181611f3901528181611fdd015261231101525f8181610a9e01528181610d40015281816113a60152818161177501528181611aef01528181612693015281816128e801526129e00152614b225ff3fe608060405260043610610219575f3560e01c806382413eac11610122578063bc70b354116100aa578063d045a0dc1161006e578063d045a0dc146107be578063d4243885146107da578063f2fde38b14610802578063fc0c546a1461082a578063ff7bd03d1461085457610219565b8063bc70b354146106e3578063bd815db01461071f578063c7c7f5b31461073b578063c9af86921461076c578063ca5eb5e11461079657610219565b80639f68b964116100f15780639f68b96414610603578063b731ea0a1461062d578063b98bd07014610657578063bb0b6a531461067f578063bc4565c4146106bb57610219565b806382413eac14610549578063857749b0146105855780638da5cb5b146105af578063963efcaa146105d957610219565b80633b6f743b116101a55780635e280f11116101745780635e280f111461047b5780636fc1b31e146104a5578063715018a6146104cd5780637d25a05e146104e35780638108bb7e1461051f57610219565b80633b6f743b1461039d57806352ae2879146103d95780635535d461146104035780635a0dfe4d1461043f57610219565b8063134d4f25116101ec578063134d4f25146102cb578063156a0d0f146102f557806317442b70146103205780631f5e13341461034b5780633400288b1461037557610219565b80630d35b4151461021d5780630dec983d1461025b578063111ecdad1461028557806313137d65146102af575b5f5ffd5b348015610228575f5ffd5b50610243600480360381019061023e9190612b89565b610890565b60405161025293929190612dbf565b60405180910390f35b348015610266575f5ffd5b5061026f610a3b565b60405161027c9190612e3a565b60405180910390f35b348015610290575f5ffd5b50610299610a60565b6040516102a69190612e3a565b60405180910390f35b6102c960048036038101906102c49190612f2f565b610a85565b005b3480156102d6575f5ffd5b506102df610ba5565b6040516102ec9190613002565b60405180910390f35b348015610300575f5ffd5b50610309610baa565b604051610317929190613077565b60405180910390f35b34801561032b575f5ffd5b50610334610bd7565b60405161034292919061309e565b60405180910390f35b348015610356575f5ffd5b5061035f610be5565b60405161036c9190613002565b60405180910390f35b348015610380575f5ffd5b5061039b600480360381019061039691906130fe565b610bea565b005b3480156103a8575f5ffd5b506103c360048036038101906103be9190613171565b610c00565b6040516103d091906131f8565b60405180910390f35b3480156103e4575f5ffd5b506103ed610c68565b6040516103fa9190612e3a565b60405180910390f35b34801561040e575f5ffd5b506104296004803603810190610424919061323b565b610c6f565b60405161043691906132cb565b60405180910390f35b34801561044a575f5ffd5b50610465600480360381019061046091906130fe565b610d15565b60405161047291906132fa565b60405180910390f35b348015610486575f5ffd5b5061048f610d3e565b60405161049c919061336e565b60405180910390f35b3480156104b0575f5ffd5b506104cb60048036038101906104c69190613387565b610d62565b005b3480156104d8575f5ffd5b506104e1610de4565b005b3480156104ee575f5ffd5b50610509600480360381019061050491906130fe565b610df7565b60405161051691906133b2565b60405180910390f35b34801561052a575f5ffd5b50610533610e01565b6040516105409190612e3a565b60405180910390f35b348015610554575f5ffd5b5061056f600480360381019061056a91906133cb565b610e26565b60405161057c91906132fa565b60405180910390f35b348015610590575f5ffd5b50610599610e60565b6040516105a69190613457565b60405180910390f35b3480156105ba575f5ffd5b506105c3610e87565b6040516105d09190612e3a565b60405180910390f35b3480156105e4575f5ffd5b506105ed610eae565b6040516105fa919061347f565b60405180910390f35b34801561060e575f5ffd5b50610617610ed2565b60405161062491906132fa565b60405180910390f35b348015610638575f5ffd5b50610641610eda565b60405161064e9190612e3a565b60405180910390f35b348015610662575f5ffd5b5061067d600480360381019061067891906134ed565b610eff565b005b34801561068a575f5ffd5b506106a560048036038101906106a09190613538565b610f20565b6040516106b29190613572565b60405180910390f35b3480156106c6575f5ffd5b506106e160048036038101906106dc9190613387565b610f35565b005b3480156106ee575f5ffd5b506107096004803603810190610704919061358b565b610f80565b60405161071691906132cb565b60405180910390f35b61073960048036038101906107349190613651565b611182565b005b610755600480360381019061075091906136ba565b611351565b6040516107639291906137b1565b60405180910390f35b348015610777575f5ffd5b50610780611378565b60405161078d9190613457565b60405180910390f35b3480156107a1575f5ffd5b506107bc60048036038101906107b79190613387565b61139c565b005b6107d860048036038101906107d39190612f2f565b61142d565b005b3480156107e5575f5ffd5b5061080060048036038101906107fb9190613387565b6114aa565b005b34801561080d575f5ffd5b5061082860048036038101906108239190613387565b61152c565b005b348015610835575f5ffd5b5061083e6115b0565b60405161084b9190612e3a565b60405180910390f35b34801561085f575f5ffd5b5061087a600480360381019061087591906137d8565b6115d7565b60405161088791906132fa565b60405180910390f35b610898612ac6565b60606108a2612ade565b5f5f90505f3073ffffffffffffffffffffffffffffffffffffffff1663fc0c546a6040518163ffffffff1660e01b8152600401602060405180830381865afa1580156108f0573d5f5f3e3d5ffd5b505050506040513d601f19601f820116820180604052508101906109149190613817565b73ffffffffffffffffffffffffffffffffffffffff166318160ddd6040518163ffffffff1660e01b8152600401602060405180830381865afa15801561095c573d5f5f3e3d5ffd5b505050506040513d601f19601f82011682018060405250810190610980919061386c565b905060405180604001604052808381526020018281525094505f67ffffffffffffffff8111156109b3576109b2613897565b5b6040519080825280602002602001820160405280156109ec57816020015b6109d9612af6565b8152602001906001900390816109d15790505b5093505f5f610a15886040013589606001358a5f016020810190610a109190613538565b611614565b915091506040518060400160405280838152602001828152509450505050509193909250565b60065f9054906101000a900473ffffffffffffffffffffffffffffffffffffffff1681565b60045f9054906101000a900473ffffffffffffffffffffffffffffffffffffffff1681565b3373ffffffffffffffffffffffffffffffffffffffff167f000000000000000000000000000000000000000000000000000000000000000073ffffffffffffffffffffffffffffffffffffffff1614610b1557336040517f91ac5e4f000000000000000000000000000000000000000000000000000000008152600401610b0c9190612e3a565b60405180910390fd5b8660200135610b34885f016020810190610b2f9190613538565b611673565b14610b8d57865f016020810190610b4b9190613538565b87602001356040517fc26bebcc000000000000000000000000000000000000000000000000000000008152600401610b849291906138d3565b60405180910390fd5b610b9c878787878787876116e4565b50505050505050565b600281565b5f5f7f02e49c2c000000000000000000000000000000000000000000000000000000006001915091509091565b5f5f60016002915091509091565b600181565b610bf261186e565b610bfc82826118f5565b5050565b610c08612b0f565b5f610c2d84604001358560600135865f016020810190610c289190613538565b611614565b9150505f5f610c3c8684611954565b91509150610c5d865f016020810190610c559190613538565b838388611ae5565b935050505092915050565b5f30905090565b6003602052815f5260405f20602052805f5260405f205f91509150508054610c9690613927565b80601f0160208091040260200160405190810160405280929190818152602001828054610cc290613927565b8015610d0d5780601f10610ce457610100808354040283529160200191610d0d565b820191905f5260205f20905b815481529060010190602001808311610cf057829003601f168201915b505050505081565b5f8160015f8563ffffffff1663ffffffff1681526020019081526020015f205414905092915050565b7f000000000000000000000000000000000000000000000000000000000000000081565b610d6a61186e565b8060045f6101000a81548173ffffffffffffffffffffffffffffffffffffffff021916908373ffffffffffffffffffffffffffffffffffffffff1602179055507ff0be4f1e87349231d80c36b33f9e8639658eeaf474014dee15a3e6a4d441419781604051610dd99190612e3a565b60405180910390a150565b610dec61186e565b610df55f611bc6565b565b5f5f905092915050565b60075f9054906101000a900473ffffffffffffffffffffffffffffffffffffffff1681565b5f3073ffffffffffffffffffffffffffffffffffffffff168273ffffffffffffffffffffffffffffffffffffffff16149050949350505050565b5f7f0000000000000000000000000000000000000000000000000000000000000000905090565b5f5f5f9054906101000a900473ffffffffffffffffffffffffffffffffffffffff16905090565b7f000000000000000000000000000000000000000000000000000000000000000081565b5f6001905090565b60025f9054906101000a900473ffffffffffffffffffffffffffffffffffffffff1681565b610f0761186e565b610f1c828290610f179190613b88565b611c87565b5050565b6001602052805f5260405f205f915090505481565b610f3d61186e565b8060075f6101000a81548173ffffffffffffffffffffffffffffffffffffffff021916908373ffffffffffffffffffffffffffffffffffffffff16021790555050565b60605f60035f8763ffffffff1663ffffffff1681526020019081526020015f205f8661ffff1661ffff1681526020019081526020015f208054610fc290613927565b80601f0160208091040260200160405190810160405280929190818152602001828054610fee90613927565b80156110395780601f1061101057610100808354040283529160200191611039565b820191905f5260205f20905b81548152906001019060200180831161101c57829003601f168201915b505050505090505f8151036110945783838080601f0160208091040260200160405190810160405280939291908181526020018383808284375f81840152601f19601f8201169050808301925050505050505091505061117a565b5f84849050036110a7578091505061117a565b6002848490501061113b576110fe84848080601f0160208091040260200160405190810160405280939291908181526020018383808284375f81840152601f19601f82011690508083019250505050505050611d9f565b808484600290809261111293929190613ba4565b60405160200161112493929190613c3c565b60405160208183030381529060405291505061117a565b83836040517f9a6d49cd000000000000000000000000000000000000000000000000000000008152600401611171929190613c8d565b60405180910390fd5b949350505050565b5f5f90505b828290508110156112a457368383838181106111a6576111a5613caf565b5b90506020028101906111b89190613ce8565b90506111dd815f015f0160208101906111d19190613538565b825f0160200135610d15565b6111e75750611297565b3073ffffffffffffffffffffffffffffffffffffffff1663d045a0dc8260c00135835f018460a00135858061010001906112219190613d10565b8760e00160208101906112349190613387565b888061012001906112459190613d10565b6040518963ffffffff1660e01b81526004016112679796959493929190613e45565b5f604051808303818588803b15801561127e575f5ffd5b505af1158015611290573d5f5f3e3d5ffd5b5050505050505b8080600101915050611187565b503373ffffffffffffffffffffffffffffffffffffffff16638e9e70996040518163ffffffff1660e01b81526004015f60405180830381865afa1580156112ed573d5f5f3e3d5ffd5b505050506040513d5f823e3d601f19601f820116820180604052508101906113159190613f16565b6040517f8351eea700000000000000000000000000000000000000000000000000000000815260040161134891906132cb565b60405180910390fd5b611359612b27565b611361612ade565b61136c858585611df8565b91509150935093915050565b7f000000000000000000000000000000000000000000000000000000000000000081565b6113a461186e565b7f000000000000000000000000000000000000000000000000000000000000000073ffffffffffffffffffffffffffffffffffffffff1663ca5eb5e1826040518263ffffffff1660e01b81526004016113fd9190612e3a565b5f604051808303815f87803b158015611414575f5ffd5b505af1158015611426573d5f5f3e3d5ffd5b5050505050565b3073ffffffffffffffffffffffffffffffffffffffff163373ffffffffffffffffffffffffffffffffffffffff1614611492576040517f14d4a4e800000000000000000000000000000000000000000000000000000000815260040160405180910390fd5b6114a187878787878787611efd565b50505050505050565b6114b261186e565b8060025f6101000a81548173ffffffffffffffffffffffffffffffffffffffff021916908373ffffffffffffffffffffffffffffffffffffffff1602179055507fd48d879cef83a1c0bdda516f27b13ddb1b3f8bbac1c9e1511bb2a659c2427760816040516115219190612e3a565b60405180910390a150565b61153461186e565b5f73ffffffffffffffffffffffffffffffffffffffff168173ffffffffffffffffffffffffffffffffffffffff16036115a4575f6040517f1e4fbdf700000000000000000000000000000000000000000000000000000000815260040161159b9190612e3a565b60405180910390fd5b6115ad81611bc6565b50565b5f7f0000000000000000000000000000000000000000000000000000000000000000905090565b5f816020013560015f845f0160208101906115f29190613538565b63ffffffff1663ffffffff1681526020019081526020015f2054149050919050565b5f5f61161f85611f15565b91508190508381101561166b5780846040517f71c4efed000000000000000000000000000000000000000000000000000000008152600401611662929190613f5d565b60405180910390fd5b935093915050565b5f5f60015f8463ffffffff1663ffffffff1681526020019081526020015f205490505f5f1b81036116db57826040517ff6ff4fb70000000000000000000000000000000000000000000000000000000081526004016116d29190613f84565b60405180910390fd5b80915050919050565b5f6116f76116f28787611f74565b611f9e565b90505f6117278261171061170b8a8a611fa9565b611fda565b8b5f0160208101906117229190613538565b612018565b9050611733878761225f565b15611801575f6117718a604001602081019061174f9190613f9d565b8b5f0160208101906117619190613538565b8461176c8c8c612272565b6122d4565b90507f000000000000000000000000000000000000000000000000000000000000000073ffffffffffffffffffffffffffffffffffffffff16637cb59012848b5f856040518563ffffffff1660e01b81526004016117d29493929190614001565b5f604051808303815f87803b1580156117e9575f5ffd5b505af11580156117fb573d5f5f3e3d5ffd5b50505050505b8173ffffffffffffffffffffffffffffffffffffffff16887fefed6d3500546b29533b128a29e3a94d70788727f0507505ac12eaf2e578fd9c8b5f01602081019061184c9190613538565b8460405161185b92919061404b565b60405180910390a3505050505050505050565b611876612306565b73ffffffffffffffffffffffffffffffffffffffff16611894610e87565b73ffffffffffffffffffffffffffffffffffffffff16146118f3576118b7612306565b6040517f118cdaa70000000000000000000000000000000000000000000000000000000081526004016118ea9190612e3a565b60405180910390fd5b565b8060015f8463ffffffff1663ffffffff1681526020019081526020015f20819055507f238399d427b947898edb290f5ff0f9109849b1c3ba196a42e35f00c50a54b98b82826040516119489291906138d3565b60405180910390a15050565b6060805f6119c085602001356119698661230d565b878060a001906119799190613d10565b8080601f0160208091040260200160405190810160405280939291908181526020018383808284375f81840152601f19601f82011690508083019250505050505050612395565b80925081945050505f816119d55760016119d8565b60025b9050611a05865f0160208101906119ef9190613538565b82888060800190611a009190613d10565b610f80565b92505f60045f9054906101000a900473ffffffffffffffffffffffffffffffffffffffff1690505f73ffffffffffffffffffffffffffffffffffffffff168173ffffffffffffffffffffffffffffffffffffffff1614611adb578073ffffffffffffffffffffffffffffffffffffffff1663043a78eb86866040518363ffffffff1660e01b8152600401611a9a929190614072565b602060405180830381865afa158015611ab5573d5f5f3e3d5ffd5b505050506040513d601f19601f82011682018060405250810190611ad991906140bb565b505b5050509250929050565b611aed612b0f565b7f000000000000000000000000000000000000000000000000000000000000000073ffffffffffffffffffffffffffffffffffffffff1663ddc28c586040518060a001604052808863ffffffff168152602001611b4989611673565b8152602001878152602001868152602001851515815250306040518363ffffffff1660e01b8152600401611b7e9291906141b7565b6040805180830381865afa158015611b98573d5f5f3e3d5ffd5b505050506040513d601f19601f82011682018060405250810190611bbc9190614232565b9050949350505050565b5f5f5f9054906101000a900473ffffffffffffffffffffffffffffffffffffffff169050815f5f6101000a81548173ffffffffffffffffffffffffffffffffffffffff021916908373ffffffffffffffffffffffffffffffffffffffff1602179055508173ffffffffffffffffffffffffffffffffffffffff168173ffffffffffffffffffffffffffffffffffffffff167f8be0079c531659141344cd1fd0a4f28419497f9722a3daafe3b4186f6b6457e060405160405180910390a35050565b5f5f90505b8151811015611d6457611cbc828281518110611cab57611caa613caf565b5b602002602001015160400151611d9f565b818181518110611ccf57611cce613caf565b5b60200260200101516040015160035f848481518110611cf157611cf0613caf565b5b60200260200101515f015163ffffffff1663ffffffff1681526020019081526020015f205f848481518110611d2957611d28613caf565b5b60200260200101516020015161ffff1661ffff1681526020019081526020015f209081611d5691906143f4565b508080600101915050611c8c565b507fbe4864a8e820971c0247f5992e2da559595f7bf076a21cb5928d443d2a13b67481604051611d9491906145da565b60405180910390a150565b5f60028201519050600361ffff168161ffff1614611df457816040517f9a6d49cd000000000000000000000000000000000000000000000000000000008152600401611deb91906132cb565b60405180910390fd5b5050565b611e00612b27565b611e08612ade565b5f5f611e2f33886040013589606001358a5f016020810190611e2a9190613538565b612403565b915091505f5f611e3f8984611954565b91509150611e71895f016020810190611e589190613538565b83838b803603810190611e6b919061465b565b8b612660565b955060405180604001604052808581526020018481525094503373ffffffffffffffffffffffffffffffffffffffff16865f01517f85496b760a4b7f8d66384b9df21b381f5d1b1e79f229a47aaf4c232edc2fe59a8b5f016020810190611ed89190613538565b8787604051611ee993929190614686565b60405180910390a350505050935093915050565b611f0c878787878787876116e4565b50505050505050565b5f7f00000000000000000000000000000000000000000000000000000000000000007f000000000000000000000000000000000000000000000000000000000000000083611f639190614715565b611f6d9190614745565b9050919050565b5f82825f90602060ff1692611f8b93929190613ba4565b90611f969190614790565b905092915050565b5f815f1c9050919050565b5f8282602060ff1690602860ff1692611fc493929190613ba4565b90611fcf9190614819565b60c01c905092915050565b5f7f00000000000000000000000000000000000000000000000000000000000000008267ffffffffffffffff166120119190614745565b9050919050565b5f5f73ffffffffffffffffffffffffffffffffffffffff168473ffffffffffffffffffffffffffffffffffffffff16036120525761dead93505b612019460361217e578260065f9054906101000a900473ffffffffffffffffffffffffffffffffffffffff1673ffffffffffffffffffffffffffffffffffffffff166370a08231306040518263ffffffff1660e01b81526004016120b69190612e3a565b602060405180830381865afa1580156120d1573d5f5f3e3d5ffd5b505050506040513d601f19601f820116820180604052508101906120f5919061386c565b101561212d576040517ff4d678b800000000000000000000000000000000000000000000000000000000815260040160405180910390fd5b612179848460065f9054906101000a900473ffffffffffffffffffffffffffffffffffffffff1673ffffffffffffffffffffffffffffffffffffffff166127769092919063ffffffff16565b61221c565b60075f9054906101000a900473ffffffffffffffffffffffffffffffffffffffff1673ffffffffffffffffffffffffffffffffffffffff166340c10f1985856040518363ffffffff1660e01b81526004016121da929190614877565b6020604051808303815f875af11580156121f6573d5f5f3e3d5ffd5b505050506040513d601f19601f8201168201806040525081019061221a91906140bb565b505b7f1bbf55d483639f8103dc4e035af71a4fbdb16c80be740fa3eef81198acefa094848460405161224d929190614877565b60405180910390a18290509392505050565b5f602860ff168383905011905092915050565b60608282602860ff1690809261228a93929190613ba4565b8080601f0160208091040260200160405190810160405280939291908181526020018383808284375f81840152601f19601f82011690508083019250505050505050905092915050565b6060848484846040516020016122ed9493929190614926565b6040516020818303038152906040529050949350505050565b5f33905090565b5f5f7f00000000000000000000000000000000000000000000000000000000000000008361233b9190614715565b905067ffffffffffffffff801681111561238c57806040517fe2ce9413000000000000000000000000000000000000000000000000000000008152600401612383919061347f565b60405180910390fd5b80915050919050565b60605f5f8351119050806123ca5784846040516020016123b692919061498f565b6040516020818303038152906040526123f9565b84846123d5336127f5565b856040516020016123e994939291906149ba565b6040516020818303038152906040525b9150935093915050565b5f5f612410858585611614565b809250819350505061201946036124745761246f86308460065f9054906101000a900473ffffffffffffffffffffffffffffffffffffffff1673ffffffffffffffffffffffffffffffffffffffff16612816909392919063ffffffff16565b61261e565b6124c286308460065f9054906101000a900473ffffffffffffffffffffffffffffffffffffffff1673ffffffffffffffffffffffffffffffffffffffff16612816909392919063ffffffff16565b60065f9054906101000a900473ffffffffffffffffffffffffffffffffffffffff1673ffffffffffffffffffffffffffffffffffffffff1663095ea7b360075f9054906101000a900473ffffffffffffffffffffffffffffffffffffffff16846040518363ffffffff1660e01b815260040161253f929190614877565b6020604051808303815f875af115801561255b573d5f5f3e3d5ffd5b505050506040513d601f19601f8201168201806040525081019061257f91906140bb565b5060075f9054906101000a900473ffffffffffffffffffffffffffffffffffffffff1673ffffffffffffffffffffffffffffffffffffffff16639dc29fac87846040518363ffffffff1660e01b81526004016125dc929190614877565b6020604051808303815f875af11580156125f8573d5f5f3e3d5ffd5b505050506040513d601f19601f8201168201806040525081019061261c91906140bb565b505b7f59c79d79be0fadf59fe689b6952b7ebe90201a3a1f00d4a31982377890bc6046868660405161264f929190614877565b60405180910390a194509492505050565b612668612b27565b5f612675845f0151612898565b90505f846020015111156126915761269084602001516128e5565b5b7f000000000000000000000000000000000000000000000000000000000000000073ffffffffffffffffffffffffffffffffffffffff16632637a450826040518060a001604052808b63ffffffff1681526020016126ee8c611673565b81526020018a81526020018981526020015f8960200151111515815250866040518463ffffffff1660e01b81526004016127299291906141b7565b60806040518083038185885af1158015612745573d5f5f3e3d5ffd5b50505050506040513d601f19601f8201168201806040525081019061276a9190614a8c565b91505095945050505050565b6127f0838473ffffffffffffffffffffffffffffffffffffffff1663a9059cbb85856040516024016127a9929190614877565b604051602081830303815290604052915060e01b6020820180517bffffffffffffffffffffffffffffffffffffffffffffffffffffffff8381831617835250505050612a2b565b505050565b5f8173ffffffffffffffffffffffffffffffffffffffff165f1b9050919050565b612892848573ffffffffffffffffffffffffffffffffffffffff166323b872dd86868660405160240161284b93929190614ab7565b604051602081830303815290604052915060e01b6020820180517bffffffffffffffffffffffffffffffffffffffffffffffffffffffff8381831617835250505050612a2b565b50505050565b5f8134146128dd57346040517f9f7041200000000000000000000000000000000000000000000000000000000081526004016128d4919061347f565b60405180910390fd5b819050919050565b5f7f000000000000000000000000000000000000000000000000000000000000000073ffffffffffffffffffffffffffffffffffffffff1663e4fe1d946040518163ffffffff1660e01b8152600401602060405180830381865afa15801561294f573d5f5f3e3d5ffd5b505050506040513d601f19601f820116820180604052508101906129739190613817565b90505f73ffffffffffffffffffffffffffffffffffffffff168173ffffffffffffffffffffffffffffffffffffffff16036129da576040517f5373352a00000000000000000000000000000000000000000000000000000000815260040160405180910390fd5b612a27337f0000000000000000000000000000000000000000000000000000000000000000848473ffffffffffffffffffffffffffffffffffffffff16612816909392919063ffffffff16565b5050565b5f5f60205f8451602086015f885af180612a4a576040513d5f823e3d81fd5b3d92505f519150505f8214612a63576001811415612a7e565b5f8473ffffffffffffffffffffffffffffffffffffffff163b145b15612ac057836040517f5274afe7000000000000000000000000000000000000000000000000000000008152600401612ab79190612e3a565b60405180910390fd5b50505050565b60405180604001604052805f81526020015f81525090565b60405180604001604052805f81526020015f81525090565b60405180604001604052805f8152602001606081525090565b60405180604001604052805f81526020015f81525090565b60405180606001604052805f81526020015f67ffffffffffffffff168152602001612b50612b0f565b81525090565b5f604051905090565b5f5ffd5b5f5ffd5b5f5ffd5b5f60e08284031215612b8057612b7f612b67565b5b81905092915050565b5f60208284031215612b9e57612b9d612b5f565b5b5f82013567ffffffffffffffff811115612bbb57612bba612b63565b5b612bc784828501612b6b565b91505092915050565b5f819050919050565b612be281612bd0565b82525050565b604082015f820151612bfc5f850182612bd9565b506020820151612c0f6020850182612bd9565b50505050565b5f81519050919050565b5f82825260208201905092915050565b5f819050602082019050919050565b5f819050919050565b612c5081612c3e565b82525050565b5f81519050919050565b5f82825260208201905092915050565b8281835e5f83830152505050565b5f601f19601f8301169050919050565b5f612c9882612c56565b612ca28185612c60565b9350612cb2818560208601612c70565b612cbb81612c7e565b840191505092915050565b5f604083015f830151612cdb5f860182612c47565b5060208301518482036020860152612cf38282612c8e565b9150508091505092915050565b5f612d0b8383612cc6565b905092915050565b5f602082019050919050565b5f612d2982612c15565b612d338185612c1f565b935083602082028501612d4585612c2f565b805f5b85811015612d805784840389528151612d618582612d00565b9450612d6c83612d13565b925060208a01995050600181019050612d48565b50829750879550505050505092915050565b604082015f820151612da65f850182612bd9565b506020820151612db96020850182612bd9565b50505050565b5f60a082019050612dd25f830186612be8565b8181036040830152612de48185612d1f565b9050612df36060830184612d92565b949350505050565b5f73ffffffffffffffffffffffffffffffffffffffff82169050919050565b5f612e2482612dfb565b9050919050565b612e3481612e1a565b82525050565b5f602082019050612e4d5f830184612e2b565b92915050565b5f60608284031215612e6857612e67612b67565b5b81905092915050565b5f819050919050565b612e8381612e71565b8114612e8d575f5ffd5b50565b5f81359050612e9e81612e7a565b92915050565b5f5ffd5b5f5ffd5b5f5ffd5b5f5f83601f840112612ec557612ec4612ea4565b5b8235905067ffffffffffffffff811115612ee257612ee1612ea8565b5b602083019150836001820283011115612efe57612efd612eac565b5b9250929050565b612f0e81612e1a565b8114612f18575f5ffd5b50565b5f81359050612f2981612f05565b92915050565b5f5f5f5f5f5f5f60e0888a031215612f4a57612f49612b5f565b5b5f612f578a828b01612e53565b9750506060612f688a828b01612e90565b965050608088013567ffffffffffffffff811115612f8957612f88612b63565b5b612f958a828b01612eb0565b955095505060a0612fa88a828b01612f1b565b93505060c088013567ffffffffffffffff811115612fc957612fc8612b63565b5b612fd58a828b01612eb0565b925092505092959891949750929550565b5f61ffff82169050919050565b612ffc81612fe6565b82525050565b5f6020820190506130155f830184612ff3565b92915050565b5f7fffffffff0000000000000000000000000000000000000000000000000000000082169050919050565b61304f8161301b565b82525050565b5f67ffffffffffffffff82169050919050565b61307181613055565b82525050565b5f60408201905061308a5f830185613046565b6130976020830184613068565b9392505050565b5f6040820190506130b15f830185613068565b6130be6020830184613068565b9392505050565b5f63ffffffff82169050919050565b6130dd816130c5565b81146130e7575f5ffd5b50565b5f813590506130f8816130d4565b92915050565b5f5f6040838503121561311457613113612b5f565b5b5f613121858286016130ea565b925050602061313285828601612e90565b9150509250929050565b5f8115159050919050565b6131508161313c565b811461315a575f5ffd5b50565b5f8135905061316b81613147565b92915050565b5f5f6040838503121561318757613186612b5f565b5b5f83013567ffffffffffffffff8111156131a4576131a3612b63565b5b6131b085828601612b6b565b92505060206131c18582860161315d565b9150509250929050565b604082015f8201516131df5f850182612bd9565b5060208201516131f26020850182612bd9565b50505050565b5f60408201905061320b5f8301846131cb565b92915050565b61321a81612fe6565b8114613224575f5ffd5b50565b5f8135905061323581613211565b92915050565b5f5f6040838503121561325157613250612b5f565b5b5f61325e858286016130ea565b925050602061326f85828601613227565b9150509250929050565b5f81519050919050565b5f82825260208201905092915050565b5f61329d82613279565b6132a78185613283565b93506132b7818560208601612c70565b6132c081612c7e565b840191505092915050565b5f6020820190508181035f8301526132e38184613293565b905092915050565b6132f48161313c565b82525050565b5f60208201905061330d5f8301846132eb565b92915050565b5f819050919050565b5f61333661333161332c84612dfb565b613313565b612dfb565b9050919050565b5f6133478261331c565b9050919050565b5f6133588261333d565b9050919050565b6133688161334e565b82525050565b5f6020820190506133815f83018461335f565b92915050565b5f6020828403121561339c5761339b612b5f565b5b5f6133a984828501612f1b565b91505092915050565b5f6020820190506133c55f830184613068565b92915050565b5f5f5f5f60a085870312156133e3576133e2612b5f565b5b5f6133f087828801612e53565b945050606085013567ffffffffffffffff81111561341157613410612b63565b5b61341d87828801612eb0565b9350935050608061343087828801612f1b565b91505092959194509250565b5f60ff82169050919050565b6134518161343c565b82525050565b5f60208201905061346a5f830184613448565b92915050565b61347981612bd0565b82525050565b5f6020820190506134925f830184613470565b92915050565b5f5f83601f8401126134ad576134ac612ea4565b5b8235905067ffffffffffffffff8111156134ca576134c9612ea8565b5b6020830191508360208202830111156134e6576134e5612eac565b5b9250929050565b5f5f6020838503121561350357613502612b5f565b5b5f83013567ffffffffffffffff8111156135205761351f612b63565b5b61352c85828601613498565b92509250509250929050565b5f6020828403121561354d5761354c612b5f565b5b5f61355a848285016130ea565b91505092915050565b61356c81612e71565b82525050565b5f6020820190506135855f830184613563565b92915050565b5f5f5f5f606085870312156135a3576135a2612b5f565b5b5f6135b0878288016130ea565b94505060206135c187828801613227565b935050604085013567ffffffffffffffff8111156135e2576135e1612b63565b5b6135ee87828801612eb0565b925092505092959194509250565b5f5f83601f84011261361157613610612ea4565b5b8235905067ffffffffffffffff81111561362e5761362d612ea8565b5b60208301915083602082028301111561364a57613649612eac565b5b9250929050565b5f5f6020838503121561366757613666612b5f565b5b5f83013567ffffffffffffffff81111561368457613683612b63565b5b613690858286016135fc565b92509250509250929050565b5f604082840312156136b1576136b0612b67565b5b81905092915050565b5f5f5f608084860312156136d1576136d0612b5f565b5b5f84013567ffffffffffffffff8111156136ee576136ed612b63565b5b6136fa86828701612b6b565b935050602061370b8682870161369c565b925050606061371c86828701612f1b565b9150509250925092565b61372f81612e71565b82525050565b61373e81613055565b82525050565b604082015f8201516137585f850182612bd9565b50602082015161376b6020850182612bd9565b50505050565b608082015f8201516137855f850182613726565b5060208201516137986020850182613735565b5060408201516137ab6040850182613744565b50505050565b5f60c0820190506137c45f830185613771565b6137d16080830184612d92565b9392505050565b5f606082840312156137ed576137ec612b5f565b5b5f6137fa84828501612e53565b91505092915050565b5f8151905061381181612f05565b92915050565b5f6020828403121561382c5761382b612b5f565b5b5f61383984828501613803565b91505092915050565b61384b81612bd0565b8114613855575f5ffd5b50565b5f8151905061386681613842565b92915050565b5f6020828403121561388157613880612b5f565b5b5f61388e84828501613858565b91505092915050565b7f4e487b71000000000000000000000000000000000000000000000000000000005f52604160045260245ffd5b6138cd816130c5565b82525050565b5f6040820190506138e65f8301856138c4565b6138f36020830184613563565b9392505050565b7f4e487b71000000000000000000000000000000000000000000000000000000005f52602260045260245ffd5b5f600282049050600182168061393e57607f821691505b602082108103613951576139506138fa565b5b50919050565b61396082612c7e565b810181811067ffffffffffffffff8211171561397f5761397e613897565b5b80604052505050565b5f613991612b56565b905061399d8282613957565b919050565b5f67ffffffffffffffff8211156139bc576139bb613897565b5b602082029050602081019050919050565b5f5ffd5b5f5ffd5b5f5ffd5b5f67ffffffffffffffff8211156139f3576139f2613897565b5b6139fc82612c7e565b9050602081019050919050565b828183375f83830152505050565b5f613a29613a24846139d9565b613988565b905082815260208101848484011115613a4557613a446139d5565b5b613a50848285613a09565b509392505050565b5f82601f830112613a6c57613a6b612ea4565b5b8135613a7c848260208601613a17565b91505092915050565b5f60608284031215613a9a57613a996139cd565b5b613aa46060613988565b90505f613ab3848285016130ea565b5f830152506020613ac684828501613227565b602083015250604082013567ffffffffffffffff811115613aea57613ae96139d1565b5b613af684828501613a58565b60408301525092915050565b5f613b14613b0f846139a2565b613988565b90508083825260208201905060208402830185811115613b3757613b36612eac565b5b835b81811015613b7e57803567ffffffffffffffff811115613b5c57613b5b612ea4565b5b808601613b698982613a85565b85526020850194505050602081019050613b39565b5050509392505050565b5f613b94368484613b02565b905092915050565b5f5ffd5b5f5ffd5b5f5f85851115613bb757613bb6613b9c565b5b83861115613bc857613bc7613ba0565b5b6001850283019150848603905094509492505050565b5f81905092915050565b5f613bf282613279565b613bfc8185613bde565b9350613c0c818560208601612c70565b80840191505092915050565b5f613c238385613bde565b9350613c30838584613a09565b82840190509392505050565b5f613c478286613be8565b9150613c54828486613c18565b9150819050949350505050565b5f613c6c8385613283565b9350613c79838584613a09565b613c8283612c7e565b840190509392505050565b5f6020820190508181035f830152613ca6818486613c61565b90509392505050565b7f4e487b71000000000000000000000000000000000000000000000000000000005f52603260045260245ffd5b5f5ffd5b5f5ffd5b5f5ffd5b5f8235600161014003833603038112613d0457613d03613cdc565b5b80830191505092915050565b5f5f83356001602003843603038112613d2c57613d2b613cdc565b5b80840192508235915067ffffffffffffffff821115613d4e57613d4d613ce0565b5b602083019250600182023603831315613d6a57613d69613ce4565b5b509250929050565b5f613d8060208401846130ea565b905092915050565b613d91816130c5565b82525050565b5f613da56020840184612e90565b905092915050565b613db681613055565b8114613dc0575f5ffd5b50565b5f81359050613dd181613dad565b92915050565b5f613de56020840184613dc3565b905092915050565b60608201613dfd5f830183613d72565b613e095f850182613d88565b50613e176020830183613d97565b613e246020850182613726565b50613e326040830183613dd7565b613e3f6040850182613735565b50505050565b5f60e082019050613e585f83018a613ded565b613e656060830189613563565b8181036080830152613e78818789613c61565b9050613e8760a0830186612e2b565b81810360c0830152613e9a818486613c61565b905098975050505050505050565b5f613eba613eb5846139d9565b613988565b905082815260208101848484011115613ed657613ed56139d5565b5b613ee1848285612c70565b509392505050565b5f82601f830112613efd57613efc612ea4565b5b8151613f0d848260208601613ea8565b91505092915050565b5f60208284031215613f2b57613f2a612b5f565b5b5f82015167ffffffffffffffff811115613f4857613f47612b63565b5b613f5484828501613ee9565b91505092915050565b5f604082019050613f705f830185613470565b613f7d6020830184613470565b9392505050565b5f602082019050613f975f8301846138c4565b92915050565b5f60208284031215613fb257613fb1612b5f565b5b5f613fbf84828501613dc3565b91505092915050565b5f819050919050565b5f613feb613fe6613fe184613fc8565b613313565b612fe6565b9050919050565b613ffb81613fd1565b82525050565b5f6080820190506140145f830187612e2b565b6140216020830186613563565b61402e6040830185613ff2565b81810360608301526140408184613293565b905095945050505050565b5f60408201905061405e5f8301856138c4565b61406b6020830184613470565b9392505050565b5f6040820190508181035f83015261408a8185613293565b9050818103602083015261409e8184613293565b90509392505050565b5f815190506140b581613147565b92915050565b5f602082840312156140d0576140cf612b5f565b5b5f6140dd848285016140a7565b91505092915050565b5f82825260208201905092915050565b5f61410082613279565b61410a81856140e6565b935061411a818560208601612c70565b61412381612c7e565b840191505092915050565b6141378161313c565b82525050565b5f60a083015f8301516141525f860182613d88565b5060208301516141656020860182613726565b506040830151848203604086015261417d82826140f6565b9150506060830151848203606086015261419782826140f6565b91505060808301516141ac608086018261412e565b508091505092915050565b5f6040820190508181035f8301526141cf818561413d565b90506141de6020830184612e2b565b9392505050565b5f604082840312156141fa576141f96139cd565b5b6142046040613988565b90505f61421384828501613858565b5f83015250602061422684828501613858565b60208301525092915050565b5f6040828403121561424757614246612b5f565b5b5f614254848285016141e5565b91505092915050565b5f819050815f5260205f209050919050565b5f6020601f8301049050919050565b5f82821b905092915050565b5f600883026142b97fffffffffffffffffffffffffffffffffffffffffffffffffffffffffffffffff8261427e565b6142c3868361427e565b95508019841693508086168417925050509392505050565b5f6142f56142f06142eb84612bd0565b613313565b612bd0565b9050919050565b5f819050919050565b61430e836142db565b61432261431a826142fc565b84845461428a565b825550505050565b5f5f905090565b61433961432a565b614344818484614305565b505050565b5b818110156143675761435c5f82614331565b60018101905061434a565b5050565b601f8211156143ac5761437d8161425d565b6143868461426f565b81016020851015614395578190505b6143a96143a18561426f565b830182614349565b50505b505050565b5f82821c905092915050565b5f6143cc5f19846008026143b1565b1980831691505092915050565b5f6143e483836143bd565b9150826002028217905092915050565b6143fd82613279565b67ffffffffffffffff81111561441657614415613897565b5b6144208254613927565b61442b82828561436b565b5f60209050601f83116001811461445c575f841561444a578287015190505b61445485826143d9565b8655506144bb565b601f19841661446a8661425d565b5f5b828110156144915784890151825560018201915060208501945060208101905061446c565b868310156144ae57848901516144aa601f8916826143bd565b8355505b6001600288020188555050505b505050505050565b5f81519050919050565b5f82825260208201905092915050565b5f819050602082019050919050565b6144f581612fe6565b82525050565b5f606083015f8301516145105f860182613d88565b50602083015161452360208601826144ec565b506040830151848203604086015261453b82826140f6565b9150508091505092915050565b5f61455383836144fb565b905092915050565b5f602082019050919050565b5f614571826144c3565b61457b81856144cd565b93508360208202850161458d856144dd565b805f5b858110156145c857848403895281516145a98582614548565b94506145b48361455b565b925060208a01995050600181019050614590565b50829750879550505050505092915050565b5f6020820190508181035f8301526145f28184614567565b905092915050565b5f8135905061460881613842565b92915050565b5f60408284031215614623576146226139cd565b5b61462d6040613988565b90505f61463c848285016145fa565b5f83015250602061464f848285016145fa565b60208301525092915050565b5f604082840312156146705761466f612b5f565b5b5f61467d8482850161460e565b91505092915050565b5f6060820190506146995f8301866138c4565b6146a66020830185613470565b6146b36040830184613470565b949350505050565b7f4e487b71000000000000000000000000000000000000000000000000000000005f52601260045260245ffd5b7f4e487b71000000000000000000000000000000000000000000000000000000005f52601160045260245ffd5b5f61471f82612bd0565b915061472a83612bd0565b92508261473a576147396146bb565b5b828204905092915050565b5f61474f82612bd0565b915061475a83612bd0565b925082820261476881612bd0565b9150828204841483151761477f5761477e6146e8565b5b5092915050565b5f82905092915050565b5f61479b8383614786565b826147a68135612e71565b925060208210156147e6576147e17fffffffffffffffffffffffffffffffffffffffffffffffffffffffffffffffff8360200360080261427e565b831692505b505092915050565b5f7fffffffffffffffff00000000000000000000000000000000000000000000000082169050919050565b5f6148248383614786565b8261482f81356147ee565b9250600882101561486f5761486a7fffffffffffffffff0000000000000000000000000000000000000000000000008360080360080261427e565b831692505b505092915050565b5f60408201905061488a5f830185612e2b565b6148976020830184613470565b9392505050565b5f8160c01b9050919050565b5f6148b48261489e565b9050919050565b6148cc6148c782613055565b6148aa565b82525050565b5f8160e01b9050919050565b5f6148e8826148d2565b9050919050565b6149006148fb826130c5565b6148de565b82525050565b5f819050919050565b61492061491b82612bd0565b614906565b82525050565b5f61493182876148bb565b60088201915061494182866148ef565b600482019150614951828561490f565b6020820191506149618284613be8565b915081905095945050505050565b5f819050919050565b61498961498482612e71565b61496f565b82525050565b5f61499a8285614978565b6020820191506149aa82846148bb565b6008820191508190509392505050565b5f6149c58287614978565b6020820191506149d582866148bb565b6008820191506149e58285614978565b6020820191506149f58284613be8565b915081905095945050505050565b5f81519050614a1181612e7a565b92915050565b5f81519050614a2581613dad565b92915050565b5f60808284031215614a4057614a3f6139cd565b5b614a4a6060613988565b90505f614a5984828501614a03565b5f830152506020614a6c84828501614a17565b6020830152506040614a80848285016141e5565b60408301525092915050565b5f60808284031215614aa157614aa0612b5f565b5b5f614aae84828501614a2b565b91505092915050565b5f606082019050614aca5f830186612e2b565b614ad76020830185612e2b565b614ae46040830184613470565b94935050505056fea264697066735822122040378b2be1e815f49c741bbe8e3620bda23bb9427bddb82a69bd5ca64262537064736f6c634300081e0033","linkReferences":{}},"methodIdentifiers":{"SEND()":"1f5e1334","SEND_AND_CALL()":"134d4f25","_SHAREDDECIMALS()":"c9af8692","allowInitializePath((uint32,bytes32,uint64))":"ff7bd03d","approvalRequired()":"9f68b964","combineOptions(uint32,uint16,bytes)":"bc70b354","decimalConversionRate()":"963efcaa","elevatedMinterBurner()":"8108bb7e","endpoint()":"5e280f11","enforcedOptions(uint32,uint16)":"5535d461","isComposeMsgSender((uint32,bytes32,uint64),bytes,address)":"82413eac","isPeer(uint32,bytes32)":"5a0dfe4d","lzReceive((uint32,bytes32,uint64),bytes32,bytes,address,bytes)":"13137d65","lzReceiveAndRevert(((uint32,bytes32,uint64),uint32,address,bytes32,uint256,address,bytes,bytes)[])":"bd815db0","lzReceiveSimulate((uint32,bytes32,uint64),bytes32,bytes,address,bytes)":"d045a0dc","msgInspector()":"111ecdad","nextNonce(uint32,bytes32)":"7d25a05e","oApp()":"52ae2879","oAppVersion()":"17442b70","oftVersion()":"156a0d0f","owner()":"8da5cb5b","peers(uint32)":"bb0b6a53","preCrime()":"b731ea0a","quoteOFT((uint32,bytes32,uint256,uint256,bytes,bytes,bytes))":"0d35b415","quoteSend((uint32,bytes32,uint256,uint256,bytes,bytes,bytes),bool)":"3b6f743b","renounceOwnership()":"715018a6","send((uint32,bytes32,uint256,uint256,bytes,bytes,bytes),(uint256,uint256),address)":"c7c7f5b3","setDelegate(address)":"ca5eb5e1","setElevatedMinterBurner(address)":"bc4565c4","setEnforcedOptions((uint32,uint16,bytes)[])":"b98bd070","setMsgInspector(address)":"6fc1b31e","setPeer(uint32,bytes32)":"3400288b","setPreCrime(address)":"d4243885","sharedDecimals()":"857749b0","token()":"fc0c546a","tokenOFT()":"0dec983d","transferOwnership(address)":"f2fde38b"},"storageLayout":{"storage":[{"astId":5398,"contract":"src/layerzero/OFTadapter.sol:OFTadapter","label":"_owner","offset":0,"slot":"0","type":"t_address"},{"astId":2514,"contract":"src/layerzero/OFTadapter.sol:OFTadapter","label":"peers","offset":0,"slot":"1","type":"t_mapping(t_uint32,t_bytes32)"},{"astId":3698,"contract":"src/layerzero/OFTadapter.sol:OFTadapter","label":"preCrime","offset":0,"slot":"2","type":"t_address"},{"astId":3130,"contract":"src/layerzero/OFTadapter.sol:OFTadapter","label":"enforcedOptions","offset":0,"slot":"3","type":"t_mapping(t_uint32,t_mapping(t_uint16,t_bytes_storage))"},{"astId":4323,"contract":"src/layerzero/OFTadapter.sol:OFTadapter","label":"msgInspector","offset":0,"slot":"4","type":"t_address"},{"astId":6236,"contract":"src/layerzero/OFTadapter.sol:OFTadapter","label":"_status","offset":0,"slot":"5","type":"t_uint256"},{"astId":10569,"contract":"src/layerzero/OFTadapter.sol:OFTadapter","label":"tokenOFT","offset":0,"slot":"6","type":"t_address"},{"astId":10571,"contract":"src/layerzero/OFTadapter.sol:OFTadapter","label":"elevatedMinterBurner","offset":0,"slot":"7","type":"t_address"}],"types":{"t_address":{"encoding":"inplace","label":"address","numberOfBytes":"20"},"t_bytes32":{"encoding":"inplace","label":"bytes32","numberOfBytes":"32"},"t_bytes_storage":{"encoding":"bytes","label":"bytes","numberOfBytes":"32"},"t_mapping(t_uint16,t_bytes_storage)":{"encoding":"mapping","key":"t_uint16","label":"mapping(uint16 => bytes)","numberOfBytes":"32","value":"t_bytes_storage"},"t_mapping(t_uint32,t_bytes32)":{"encoding":"mapping","key":"t_uint32","label":"mapping(uint32 => bytes32)","numberOfBytes":"32","value":"t_bytes32"},"t_mapping(t_uint32,t_mapping(t_uint16,t_bytes_storage))":{"encoding":"mapping","key":"t_uint32","label":"mapping(uint32 => mapping(uint16 => bytes))","numberOfBytes":"32","value":"t_mapping(t_uint16,t_bytes_storage)"},"t_uint16":{"encoding":"inplace","label":"uint16","numberOfBytes":"2"},"t_uint256":{"encoding":"inplace","label":"uint256","numberOfBytes":"32"},"t_uint32":{"encoding":"inplace","label":"uint32","numberOfBytes":"4"}}},"id":53}