{"abi":[{"type":"constructor","inputs":[{"name":"_endpoint","type":"address","internalType":"address"},{"name":"_owner","type":"address","internalType":"address"}],"stateMutability":"nonpayable"},{"type":"function","name":"SEND","inputs":[],"outputs":[{"name":"","type":"uint16","internalType":"uint16"}],"stateMutability":"view"},{"type":"function","name":"allowInitializePath","inputs":[{"name":"origin","type":"tuple","internalType":"struct Origin","components":[{"name":"srcEid","type":"uint32","internalType":"uint32"},{"name":"sender","type":"bytes32","internalType":"bytes32"},{"name":"nonce","type":"uint64","internalType":"uint64"}]}],"outputs":[{"name":"","type":"bool","internalType":"bool"}],"stateMutability":"view"},{"type":"function","name":"combineOptions","inputs":[{"name":"_eid","type":"uint32","internalType":"uint32"},{"name":"_msgType","type":"uint16","internalType":"uint16"},{"name":"_extraOptions","type":"bytes","internalType":"bytes"}],"outputs":[{"name":"","type":"bytes","internalType":"bytes"}],"stateMutability":"view"},{"type":"function","name":"endpoint","inputs":[],"outputs":[{"name":"","type":"address","internalType":"contract ILayerZeroEndpointV2"}],"stateMutability":"view"},{"type":"function","name":"enforcedOptions","inputs":[{"name":"eid","type":"uint32","internalType":"uint32"},{"name":"msgType","type":"uint16","internalType":"uint16"}],"outputs":[{"name":"enforcedOption","type":"bytes","internalType":"bytes"}],"stateMutability":"view"},{"type":"function","name":"execute","inputs":[{"name":"_lendingPool","type":"address","internalType":"address"},{"name":"_user","type":"address","internalType":"address"},{"name":"_amount","type":"uint256","internalType":"uint256"}],"outputs":[],"stateMutability":"nonpayable"},{"type":"function","name":"factory","inputs":[],"outputs":[{"name":"","type":"address","internalType":"address"}],"stateMutability":"view"},{"type":"function","name":"isComposeMsgSender","inputs":[{"name":"","type":"tuple","internalType":"struct Origin","components":[{"name":"srcEid","type":"uint32","internalType":"uint32"},{"name":"sender","type":"bytes32","internalType":"bytes32"},{"name":"nonce","type":"uint64","internalType":"uint64"}]},{"name":"","type":"bytes","internalType":"bytes"},{"name":"_sender","type":"address","internalType":"address"}],"outputs":[{"name":"","type":"bool","internalType":"bool"}],"stateMutability":"view"},{"type":"function","name":"lastMessage","inputs":[],"outputs":[{"name":"","type":"bytes","internalType":"bytes"}],"stateMutability":"view"},{"type":"function","name":"lzReceive","inputs":[{"name":"_origin","type":"tuple","internalType":"struct Origin","components":[{"name":"srcEid","type":"uint32","internalType":"uint32"},{"name":"sender","type":"bytes32","internalType":"bytes32"},{"name":"nonce","type":"uint64","internalType":"uint64"}]},{"name":"_guid","type":"bytes32","internalType":"bytes32"},{"name":"_message","type":"bytes","internalType":"bytes"},{"name":"_executor","type":"address","internalType":"address"},{"name":"_extraData","type":"bytes","internalType":"bytes"}],"outputs":[],"stateMutability":"payable"},{"type":"function","name":"nextNonce","inputs":[{"name":"","type":"uint32","internalType":"uint32"},{"name":"","type":"bytes32","internalType":"bytes32"}],"outputs":[{"name":"nonce","type":"uint64","internalType":"uint64"}],"stateMutability":"view"},{"type":"function","name":"oAppVersion","inputs":[],"outputs":[{"name":"senderVersion","type":"uint64","internalType":"uint64"},{"name":"receiverVersion","type":"uint64","internalType":"uint64"}],"stateMutability":"pure"},{"type":"function","name":"oftaddress","inputs":[],"outputs":[{"name":"","type":"address","internalType":"address"}],"stateMutability":"view"},{"type":"function","name":"owner","inputs":[],"outputs":[{"name":"","type":"address","internalType":"address"}],"stateMutability":"view"},{"type":"function","name":"peers","inputs":[{"name":"eid","type":"uint32","internalType":"uint32"}],"outputs":[{"name":"peer","type":"bytes32","internalType":"bytes32"}],"stateMutability":"view"},{"type":"function","name":"quoteSendString","inputs":[{"name":"_dstEid","type":"uint32","internalType":"uint32"},{"name":"_lendingPool","type":"address","internalType":"address"},{"name":"_user","type":"address","internalType":"address"},{"name":"_token","type":"address","internalType":"address"},{"name":"_amount","type":"uint256","internalType":"uint256"},{"name":"_options","type":"bytes","internalType":"bytes"},{"name":"_payInLzToken","type":"bool","internalType":"bool"}],"outputs":[{"name":"fee","type":"tuple","internalType":"struct MessagingFee","components":[{"name":"nativeFee","type":"uint256","internalType":"uint256"},{"name":"lzTokenFee","type":"uint256","internalType":"uint256"}]}],"stateMutability":"view"},{"type":"function","name":"renounceOwnership","inputs":[],"outputs":[],"stateMutability":"nonpayable"},{"type":"function","name":"sendString","inputs":[{"name":"_dstEid","type":"uint32","internalType":"uint32"},{"name":"_lendingPool","type":"address","internalType":"address"},{"name":"_user","type":"address","internalType":"address"},{"name":"_tokendst","type":"address","internalType":"address"},{"name":"_oappaddressdst","type":"address","internalType":"address"},{"name":"_amount","type":"uint256","internalType":"uint256"},{"name":"_slippageTolerance","type":"uint256","internalType":"uint256"},{"name":"_options","type":"bytes","internalType":"bytes"}],"outputs":[],"stateMutability":"payable"},{"type":"function","name":"setDelegate","inputs":[{"name":"_delegate","type":"address","internalType":"address"}],"outputs":[],"stateMutability":"nonpayable"},{"type":"function","name":"setEnforcedOptions","inputs":[{"name":"_enforcedOptions","type":"tuple[]","internalType":"struct EnforcedOptionParam[]","components":[{"name":"eid","type":"uint32","internalType":"uint32"},{"name":"msgType","type":"uint16","internalType":"uint16"},{"name":"options","type":"bytes","internalType":"bytes"}]}],"outputs":[],"stateMutability":"nonpayable"},{"type":"function","name":"setFactory","inputs":[{"name":"_factory","type":"address","internalType":"address"}],"outputs":[],"stateMutability":"nonpayable"},{"type":"function","name":"setOFTaddress","inputs":[{"name":"_oftaddress","type":"address","internalType":"address"}],"outputs":[],"stateMutability":"nonpayable"},{"type":"function","name":"setPeer","inputs":[{"name":"_eid","type":"uint32","internalType":"uint32"},{"name":"_peer","type":"bytes32","internalType":"bytes32"}],"outputs":[],"stateMutability":"nonpayable"},{"type":"function","name":"transferOwnership","inputs":[{"name":"newOwner","type":"address","internalType":"address"}],"outputs":[],"stateMutability":"nonpayable"},{"type":"function","name":"userAmount","inputs":[{"name":"","type":"address","internalType":"address"}],"outputs":[{"name":"","type":"uint256","internalType":"uint256"}],"stateMutability":"view"},{"type":"event","name":"EnforcedOptionSet","inputs":[{"name":"_enforcedOptions","type":"tuple[]","indexed":false,"internalType":"struct EnforcedOptionParam[]","components":[{"name":"eid","type":"uint32","internalType":"uint32"},{"name":"msgType","type":"uint16","internalType":"uint16"},{"name":"options","type":"bytes","internalType":"bytes"}]}],"anonymous":false},{"type":"event","name":"ExecuteCollateral","inputs":[{"name":"lendingPool","type":"address","indexed":false,"internalType":"address"},{"name":"token","type":"address","indexed":false,"internalType":"address"},{"name":"user","type":"address","indexed":false,"internalType":"address"},{"name":"amount","type":"uint256","indexed":false,"internalType":"uint256"}],"anonymous":false},{"type":"event","name":"OwnershipTransferred","inputs":[{"name":"previousOwner","type":"address","indexed":true,"internalType":"address"},{"name":"newOwner","type":"address","indexed":true,"internalType":"address"}],"anonymous":false},{"type":"event","name":"PeerSet","inputs":[{"name":"eid","type":"uint32","indexed":false,"internalType":"uint32"},{"name":"peer","type":"bytes32","indexed":false,"internalType":"bytes32"}],"anonymous":false},{"type":"event","name":"SendCollateralFromDst","inputs":[{"name":"lendingPool","type":"address","indexed":false,"internalType":"address"},{"name":"user","type":"address","indexed":false,"internalType":"address"},{"name":"token","type":"address","indexed":false,"internalType":"address"},{"name":"amount","type":"uint256","indexed":false,"internalType":"uint256"}],"anonymous":false},{"type":"event","name":"SendCollateralFromSrc","inputs":[{"name":"lendingPool","type":"address","indexed":false,"internalType":"address"},{"name":"user","type":"address","indexed":false,"internalType":"address"},{"name":"token","type":"address","indexed":false,"internalType":"address"},{"name":"amount","type":"uint256","indexed":false,"internalType":"uint256"}],"anonymous":false},{"type":"error","name":"InsufficientBalance","inputs":[]},{"type":"error","name":"InsufficientNativeFee","inputs":[]},{"type":"error","name":"InvalidDelegate","inputs":[]},{"type":"error","name":"InvalidEndpointCall","inputs":[]},{"type":"error","name":"InvalidOptionType","inputs":[{"name":"optionType","type":"uint16","internalType":"uint16"}]},{"type":"error","name":"InvalidOptions","inputs":[{"name":"options","type":"bytes","internalType":"bytes"}]},{"type":"error","name":"LzTokenUnavailable","inputs":[]},{"type":"error","name":"NoPeer","inputs":[{"name":"eid","type":"uint32","internalType":"uint32"}]},{"type":"error","name":"NotEnoughNative","inputs":[{"name":"msgValue","type":"uint256","internalType":"uint256"}]},{"type":"error","name":"OnlyEndpoint","inputs":[{"name":"addr","type":"address","internalType":"address"}]},{"type":"error","name":"OnlyPeer","inputs":[{"name":"eid","type":"uint32","internalType":"uint32"},{"name":"sender","type":"bytes32","internalType":"bytes32"}]},{"type":"error","name":"OwnableInvalidOwner","inputs":[{"name":"owner","type":"address","internalType":"address"}]},{"type":"error","name":"OwnableUnauthorizedAccount","inputs":[{"name":"account","type":"address","internalType":"address"}]},{"type":"error","name":"SafeCastOverflowedUintDowncast","inputs":[{"name":"bits","type":"uint8","internalType":"uint8"},{"name":"value","type":"uint256","internalType":"uint256"}]},{"type":"error","name":"SafeERC20FailedOperation","inputs":[{"name":"token","type":"address","internalType":"address"}]}],"bytecode":{"object":"0x60a060405234801561000f575f5ffd5b50604051614264380380614264833981810160405281019061003191906102e1565b81818181845f73ffffffffffffffffffffffffffffffffffffffff168173ffffffffffffffffffffffffffffffffffffffff16036100a6575f6040517f1e4fbdf700000000000000000000000000000000000000000000000000000000815260040161009d919061032e565b60405180910390fd5b6100b5816101c260201b60201c565b508173ffffffffffffffffffffffffffffffffffffffff1660808173ffffffffffffffffffffffffffffffffffffffff16815250505f73ffffffffffffffffffffffffffffffffffffffff168173ffffffffffffffffffffffffffffffffffffffff160361014f576040517fb586360400000000000000000000000000000000000000000000000000000000815260040160405180910390fd5b60805173ffffffffffffffffffffffffffffffffffffffff1663ca5eb5e1826040518263ffffffff1660e01b815260040161018a919061032e565b5f604051808303815f87803b1580156101a1575f5ffd5b505af11580156101b3573d5f5f3e3d5ffd5b50505050505050505050610347565b5f5f5f9054906101000a900473ffffffffffffffffffffffffffffffffffffffff169050815f5f6101000a81548173ffffffffffffffffffffffffffffffffffffffff021916908373ffffffffffffffffffffffffffffffffffffffff1602179055508173ffffffffffffffffffffffffffffffffffffffff168173ffffffffffffffffffffffffffffffffffffffff167f8be0079c531659141344cd1fd0a4f28419497f9722a3daafe3b4186f6b6457e060405160405180910390a35050565b5f5ffd5b5f73ffffffffffffffffffffffffffffffffffffffff82169050919050565b5f6102b082610287565b9050919050565b6102c0816102a6565b81146102ca575f5ffd5b50565b5f815190506102db816102b7565b92915050565b5f5f604083850312156102f7576102f6610283565b5b5f610304858286016102cd565b9250506020610315858286016102cd565b9150509250929050565b610328816102a6565b82525050565b5f6020820190506103415f83018461031f565b92915050565b608051613edb6103895f395f81816105ef0152818161089e01528181610cf0015281816112c001528181611d64015281816120bd01526121b50152613edb5ff3fe608060405260043610610165575f3560e01c80638da5cb5b116100d0578063c45a015511610089578063ea89900e11610063578063ea89900e14610522578063eafaddfd1461054a578063f2fde38b14610572578063ff7bd03d1461059a57610165565b8063c45a015514610494578063ca5eb5e1146104be578063e1ad418e146104e657610165565b80638da5cb5b14610384578063968a61ce146103ae5780639c967afa146103ca578063b98bd070146103f4578063bb0b6a531461041c578063bc70b3541461045857610165565b80635bb47808116101225780635bb47808146102685780635e280f111461029057806362a896b0146102ba578063715018a6146102f65780637d25a05e1461030c57806382413eac1461034857610165565b806313137d651461016957806317442b70146101855780631f5e1334146101b057806332970710146101da5780633400288b146102045780635535d4611461022c575b5f5ffd5b610183600480360381019061017e91906123bd565b6105d6565b005b348015610190575f5ffd5b506101996106f6565b6040516101a7929190612496565b60405180910390f35b3480156101bb575f5ffd5b506101c4610704565b6040516101d191906124d9565b60405180910390f35b3480156101e5575f5ffd5b506101ee610709565b6040516101fb9190612562565b60405180910390f35b34801561020f575f5ffd5b5061022a600480360381019061022591906125bb565b610795565b005b348015610237575f5ffd5b50610252600480360381019061024d9190612623565b6107ab565b60405161025f9190612562565b60405180910390f35b348015610273575f5ffd5b5061028e60048036038101906102899190612661565b610851565b005b34801561029b575f5ffd5b506102a461089c565b6040516102b191906126e7565b60405180910390f35b3480156102c5575f5ffd5b506102e060048036038101906102db9190612768565b6108c0565b6040516102ed9190612861565b60405180910390f35b348015610301575f5ffd5b5061030a610918565b005b348015610317575f5ffd5b50610332600480360381019061032d91906125bb565b61092b565b60405161033f919061287a565b60405180910390f35b348015610353575f5ffd5b5061036e60048036038101906103699190612893565b610935565b60405161037b9190612913565b60405180910390f35b34801561038f575f5ffd5b5061039861096f565b6040516103a5919061293b565b60405180910390f35b6103c860048036038101906103c39190612954565b610996565b005b3480156103d5575f5ffd5b506103de610a64565b6040516103eb919061293b565b60405180910390f35b3480156103ff575f5ffd5b5061041a60048036038101906104159190612a79565b610a89565b005b348015610427575f5ffd5b50610442600480360381019061043d9190612ac4565b610aaa565b60405161044f9190612afe565b60405180910390f35b348015610463575f5ffd5b5061047e60048036038101906104799190612b17565b610abf565b60405161048b9190612562565b60405180910390f35b34801561049f575f5ffd5b506104a8610cc1565b6040516104b5919061293b565b60405180910390f35b3480156104c9575f5ffd5b506104e460048036038101906104df9190612661565b610ce6565b005b3480156104f1575f5ffd5b5061050c60048036038101906105079190612661565b610d77565b6040516105199190612b97565b60405180910390f35b34801561052d575f5ffd5b5061054860048036038101906105439190612661565b610d8c565b005b348015610555575f5ffd5b50610570600480360381019061056b9190612bb0565b610dd7565b005b34801561057d575f5ffd5b5061059860048036038101906105939190612661565b610fd4565b005b3480156105a5575f5ffd5b506105c060048036038101906105bb9190612c00565b611058565b6040516105cd9190612913565b60405180910390f35b3373ffffffffffffffffffffffffffffffffffffffff167f000000000000000000000000000000000000000000000000000000000000000073ffffffffffffffffffffffffffffffffffffffff161461066657336040517f91ac5e4f00000000000000000000000000000000000000000000000000000000815260040161065d919061293b565b60405180910390fd5b8660200135610685885f0160208101906106809190612ac4565b611095565b146106de57865f01602081019061069c9190612ac4565b87602001356040517fc26bebcc0000000000000000000000000000000000000000000000000000000081526004016106d5929190612c3a565b60405180910390fd5b6106ed87878787878787611106565b50505050505050565b5f5f60016002915091509091565b600181565b6003805461071690612c8e565b80601f016020809104026020016040519081016040528092919081815260200182805461074290612c8e565b801561078d5780601f106107645761010080835404028352916020019161078d565b820191905f5260205f20905b81548152906001019060200180831161077057829003601f168201915b505050505081565b61079d6111d0565b6107a78282611257565b5050565b6002602052815f5260405f20602052805f5260405f205f915091505080546107d290612c8e565b80601f01602080910402602001604051908101604052809291908181526020018280546107fe90612c8e565b80156108495780601f1061082057610100808354040283529160200191610849565b820191905f5260205f20905b81548152906001019060200180831161082c57829003601f168201915b505050505081565b6108596111d0565b8060045f6101000a81548173ffffffffffffffffffffffffffffffffffffffff021916908373ffffffffffffffffffffffffffffffffffffffff16021790555050565b7f000000000000000000000000000000000000000000000000000000000000000081565b6108c8612255565b5f888888886040516020016108e09493929190612cbe565b60405160208183030381529060405290506109098a826109038d60018a8a610abf565b866112b6565b91505098975050505050505050565b6109206111d0565b6109295f611397565b565b5f5f905092915050565b5f3073ffffffffffffffffffffffffffffffffffffffff168273ffffffffffffffffffffffffffffffffffffffff16149050949350505050565b5f5f5f9054906101000a900473ffffffffffffffffffffffffffffffffffffffff16905090565b5f6109a38a878787611458565b90505f6109b58b8b8b8b8a89896115ab565b905080826109c39190612d2e565b3410156109fc576040517f9c92bdfb00000000000000000000000000000000000000000000000000000000815260040160405180910390fd5b610a0a8b888b898987611603565b610a1a8b8b8b8b8a89898861190e565b7fb55ec610bbad2d5f37ce10ad650595dd9db3b43ea5998f9b8510d9e49f7845178a8a8a89604051610a4f9493929190612cbe565b60405180910390a15050505050505050505050565b60055f9054906101000a900473ffffffffffffffffffffffffffffffffffffffff1681565b610a916111d0565b610aa6828290610aa19190612fbf565b611975565b5050565b6001602052805f5260405f205f915090505481565b60605f60025f8763ffffffff1663ffffffff1681526020019081526020015f205f8661ffff1661ffff1681526020019081526020015f208054610b0190612c8e565b80601f0160208091040260200160405190810160405280929190818152602001828054610b2d90612c8e565b8015610b785780601f10610b4f57610100808354040283529160200191610b78565b820191905f5260205f20905b815481529060010190602001808311610b5b57829003601f168201915b505050505090505f815103610bd35783838080601f0160208091040260200160405190810160405280939291908181526020018383808284375f81840152601f19601f82011690508083019250505050505050915050610cb9565b5f8484905003610be65780915050610cb9565b60028484905010610c7a57610c3d84848080601f0160208091040260200160405190810160405280939291908181526020018383808284375f81840152601f19601f82011690508083019250505050505050611a8d565b8084846002908092610c5193929190612fdb565b604051602001610c6393929190613073565b604051602081830303815290604052915050610cb9565b83836040517f9a6d49cd000000000000000000000000000000000000000000000000000000008152600401610cb09291906130c4565b60405180910390fd5b949350505050565b60045f9054906101000a900473ffffffffffffffffffffffffffffffffffffffff1681565b610cee6111d0565b7f000000000000000000000000000000000000000000000000000000000000000073ffffffffffffffffffffffffffffffffffffffff1663ca5eb5e1826040518263ffffffff1660e01b8152600401610d47919061293b565b5f604051808303815f87803b158015610d5e575f5ffd5b505af1158015610d70573d5f5f3e3d5ffd5b5050505050565b6006602052805f5260405f205f915090505481565b610d946111d0565b8060055f6101000a81548173ffffffffffffffffffffffffffffffffffffffff021916908373ffffffffffffffffffffffffffffffffffffffff16021790555050565b60065f8373ffffffffffffffffffffffffffffffffffffffff1673ffffffffffffffffffffffffffffffffffffffff1681526020019081526020015f2054811115610e4e576040517ff4d678b800000000000000000000000000000000000000000000000000000000815260040160405180910390fd5b8060065f8473ffffffffffffffffffffffffffffffffffffffff1673ffffffffffffffffffffffffffffffffffffffff1681526020019081526020015f205f828254610e9a91906130e6565b925050819055505f610eab84611ae6565b90508073ffffffffffffffffffffffffffffffffffffffff1663095ea7b385846040518363ffffffff1660e01b8152600401610ee8929190613119565b6020604051808303815f875af1158015610f04573d5f5f3e3d5ffd5b505050506040513d601f19601f82011682018060405250810190610f289190613154565b508373ffffffffffffffffffffffffffffffffffffffff166362c5f6c783856040518363ffffffff1660e01b8152600401610f6492919061317f565b5f604051808303815f87803b158015610f7b575f5ffd5b505af1158015610f8d573d5f5f3e3d5ffd5b505050507f65665e93256a79f485bc43b2bd2042569537e85900aca0d0c6db4d701c5c3e3a84828585604051610fc69493929190612cbe565b60405180910390a150505050565b610fdc6111d0565b5f73ffffffffffffffffffffffffffffffffffffffff168173ffffffffffffffffffffffffffffffffffffffff160361104c575f6040517f1e4fbdf7000000000000000000000000000000000000000000000000000000008152600401611043919061293b565b60405180910390fd5b61105581611397565b50565b5f816020013560015f845f0160208101906110739190612ac4565b63ffffffff1663ffffffff1681526020019081526020015f2054149050919050565b5f5f60015f8463ffffffff1663ffffffff1681526020019081526020015f205490505f5f1b81036110fd57826040517ff6ff4fb70000000000000000000000000000000000000000000000000000000081526004016110f491906131a6565b60405180910390fd5b80915050919050565b5f5f5f5f888881019061111991906131fa565b93509350935093508060065f8573ffffffffffffffffffffffffffffffffffffffff1673ffffffffffffffffffffffffffffffffffffffff1681526020019081526020015f205f82825461116d9190612d2e565b925050819055508888600391826111859291906133ff565b507fa2d8e042189a841240878819ce162f82072151403b43c57436ca5f9f0e23a2e1848484846040516111bb9493929190612cbe565b60405180910390a15050505050505050505050565b6111d8611bc7565b73ffffffffffffffffffffffffffffffffffffffff166111f661096f565b73ffffffffffffffffffffffffffffffffffffffff161461125557611219611bc7565b6040517f118cdaa700000000000000000000000000000000000000000000000000000000815260040161124c919061293b565b60405180910390fd5b565b8060015f8463ffffffff1663ffffffff1681526020019081526020015f20819055507f238399d427b947898edb290f5ff0f9109849b1c3ba196a42e35f00c50a54b98b82826040516112aa929190612c3a565b60405180910390a15050565b6112be612255565b7f000000000000000000000000000000000000000000000000000000000000000073ffffffffffffffffffffffffffffffffffffffff1663ddc28c586040518060a001604052808863ffffffff16815260200161131a89611095565b8152602001878152602001868152602001851515815250306040518363ffffffff1660e01b815260040161134f9291906135bb565b6040805180830381865afa158015611369573d5f5f3e3d5ffd5b505050506040513d601f19601f8201168201806040525081019061138d919061364a565b9050949350505050565b5f5f5f9054906101000a900473ffffffffffffffffffffffffffffffffffffffff169050815f5f6101000a81548173ffffffffffffffffffffffffffffffffffffffff021916908373ffffffffffffffffffffffffffffffffffffffff1602179055508173ffffffffffffffffffffffffffffffffffffffff168173ffffffffffffffffffffffffffffffffffffffff167f8be0079c531659141344cd1fd0a4f28419497f9722a3daafe3b4186f6b6457e060405160405180910390a35050565b5f5f60055f9054906101000a900473ffffffffffffffffffffffffffffffffffffffff1690505f61149d61fde85f61148e611bce565b611bf69092919063ffffffff16565b90505f6040518060e001604052808963ffffffff1681526020016114c089611c8e565b815260200187815260200160648760646114da91906130e6565b896114e59190613675565b6114ef91906136e3565b815260200183815260200160405180602001604052805f815250815260200160405180602001604052805f81525081525090508273ffffffffffffffffffffffffffffffffffffffff16633b6f743b825f6040518363ffffffff1660e01b815260040161155d9291906137ba565b6040805180830381865afa158015611577573d5f5f3e3d5ffd5b505050506040513d601f19601f8201168201806040525081019061159b919061364a565b5f01519350505050949350505050565b5f5f6115ba8960018686610abf565b90505f888888886040516020016115d49493929190612cbe565b60405160208183030381529060405290506115f18a82845f6112b6565b5f015192505050979650505050505050565b5f60055f9054906101000a900473ffffffffffffffffffffffffffffffffffffffff1690505f61164761fde85f611638611bce565b611bf69092919063ffffffff16565b90505f6040518060e001604052808a63ffffffff16815260200161166a8a611c8e565b8152602001878152602001606487606461168491906130e6565b8961168f9190613675565b61169991906136e3565b815260200183815260200160405180602001604052805f815250815260200160405180602001604052805f81525081525090506117658730888673ffffffffffffffffffffffffffffffffffffffff16630dec983d6040518163ffffffff1660e01b8152600401602060405180830381865afa15801561171b573d5f5f3e3d5ffd5b505050506040513d601f19601f8201168201806040525081019061173f91906137fc565b73ffffffffffffffffffffffffffffffffffffffff16611caf909392919063ffffffff16565b8273ffffffffffffffffffffffffffffffffffffffff16630dec983d6040518163ffffffff1660e01b8152600401602060405180830381865afa1580156117ae573d5f5f3e3d5ffd5b505050506040513d601f19601f820116820180604052508101906117d291906137fc565b73ffffffffffffffffffffffffffffffffffffffff1663095ea7b360055f9054906101000a900473ffffffffffffffffffffffffffffffffffffffff16886040518363ffffffff1660e01b815260040161182d929190613119565b6020604051808303815f875af1158015611849573d5f5f3e3d5ffd5b505050506040513d601f19601f8201168201806040525081019061186d9190613154565b508273ffffffffffffffffffffffffffffffffffffffff1663c7c7f5b3858360405180604001604052808981526020015f8152508b6040518563ffffffff1660e01b81526004016118c093929190613827565b60c06040518083038185885af11580156118dc573d5f5f3e3d5ffd5b50505050506040513d601f19601f82011682018060405250810190611901919061394f565b5050505050505050505050565b5f61191c8960018686610abf565b90505f888888886040516020016119369493929190612cbe565b60405160208183030381529060405290506119688a828460405180604001604052808881526020015f8152508c611d31565b5050505050505050505050565b5f5f90505b8151811015611a52576119aa8282815181106119995761199861398d565b5b602002602001015160400151611a8d565b8181815181106119bd576119bc61398d565b5b60200260200101516040015160025f8484815181106119df576119de61398d565b5b60200260200101515f015163ffffffff1663ffffffff1681526020019081526020015f205f848481518110611a1757611a1661398d565b5b60200260200101516020015161ffff1661ffff1681526020019081526020015f209081611a4491906139ba565b50808060010191505061197a565b507fbe4864a8e820971c0247f5992e2da559595f7bf076a21cb5928d443d2a13b67481604051611a829190613ba0565b60405180910390a150565b5f60028201519050600361ffff168161ffff1614611ae257816040517f9a6d49cd000000000000000000000000000000000000000000000000000000008152600401611ad99190612562565b60405180910390fd5b5050565b5f8173ffffffffffffffffffffffffffffffffffffffff1663f887ea406040518163ffffffff1660e01b8152600401602060405180830381865afa158015611b30573d5f5f3e3d5ffd5b505050506040513d601f19601f82011682018060405250810190611b5491906137fc565b73ffffffffffffffffffffffffffffffffffffffff1663b2016bd46040518163ffffffff1660e01b8152600401602060405180830381865afa158015611b9c573d5f5f3e3d5ffd5b505050506040513d601f19601f82011682018060405250810190611bc091906137fc565b9050919050565b5f33905090565b60606003604051602001611be29190613bf4565b604051602081830303815290604052905090565b606083600361ffff16611c125f83611e4790919063ffffffff16565b61ffff1614611c6a57611c2e5f82611e4790919063ffffffff16565b6040517f3a51740d000000000000000000000000000000000000000000000000000000008152600401611c6191906124d9565b60405180910390fd5b5f611c758585611eac565b9050611c8386600183611f17565b925050509392505050565b5f8173ffffffffffffffffffffffffffffffffffffffff165f1b9050919050565b611d2b848573ffffffffffffffffffffffffffffffffffffffff166323b872dd868686604051602401611ce493929190613c0e565b604051602081830303815290604052915060e01b6020820180517bffffffffffffffffffffffffffffffffffffffffffffffffffffffff8381831617835250505050611fd2565b50505050565b611d3961226d565b5f611d46845f015161206d565b90505f84602001511115611d6257611d6184602001516120ba565b5b7f000000000000000000000000000000000000000000000000000000000000000073ffffffffffffffffffffffffffffffffffffffff16632637a450826040518060a001604052808b63ffffffff168152602001611dbf8c611095565b81526020018a81526020018981526020015f8960200151111515815250866040518463ffffffff1660e01b8152600401611dfa9291906135bb565b60806040518083038185885af1158015611e16573d5f5f3e3d5ffd5b50505050506040513d601f19601f82011682018060405250810190611e3b9190613c43565b91505095945050505050565b5f600282611e559190612d2e565b83511015611e98576040517f08c379a0000000000000000000000000000000000000000000000000000000008152600401611e8f90613cc8565b60405180910390fd5b5f8260028501015190508091505092915050565b60605f826fffffffffffffffffffffffffffffffff1614611eee578282604051602001611eda929190613d35565b604051602081830303815290604052611f0f565b82604051602001611eff9190613d60565b6040516020818303038152906040525b905092915050565b606083600361ffff16611f335f83611e4790919063ffffffff16565b61ffff1614611f8b57611f4f5f82611e4790919063ffffffff16565b6040517f3a51740d000000000000000000000000000000000000000000000000000000008152600401611f8291906124d9565b60405180910390fd5b84600180611f998651612200565b611fa39190613d7a565b8686604051602001611fb9959493929190613def565b6040516020818303038152906040529150509392505050565b5f5f60205f8451602086015f885af180611ff1576040513d5f823e3d81fd5b3d92505f519150505f821461200a576001811415612025565b5f8473ffffffffffffffffffffffffffffffffffffffff163b145b1561206757836040517f5274afe700000000000000000000000000000000000000000000000000000000815260040161205e919061293b565b60405180910390fd5b50505050565b5f8134146120b257346040517f9f7041200000000000000000000000000000000000000000000000000000000081526004016120a99190612b97565b60405180910390fd5b819050919050565b5f7f000000000000000000000000000000000000000000000000000000000000000073ffffffffffffffffffffffffffffffffffffffff1663e4fe1d946040518163ffffffff1660e01b8152600401602060405180830381865afa158015612124573d5f5f3e3d5ffd5b505050506040513d601f19601f8201168201806040525081019061214891906137fc565b90505f73ffffffffffffffffffffffffffffffffffffffff168173ffffffffffffffffffffffffffffffffffffffff16036121af576040517f5373352a00000000000000000000000000000000000000000000000000000000815260040160405180910390fd5b6121fc337f0000000000000000000000000000000000000000000000000000000000000000848473ffffffffffffffffffffffffffffffffffffffff16611caf909392919063ffffffff16565b5050565b5f61ffff801682111561224d576010826040517f6dfcc650000000000000000000000000000000000000000000000000000000008152600401612244929190613e7e565b60405180910390fd5b819050919050565b60405180604001604052805f81526020015f81525090565b60405180606001604052805f81526020015f67ffffffffffffffff168152602001612296612255565b81525090565b5f604051905090565b5f5ffd5b5f5ffd5b5f5ffd5b5f606082840312156122c6576122c56122ad565b5b81905092915050565b5f819050919050565b6122e1816122cf565b81146122eb575f5ffd5b50565b5f813590506122fc816122d8565b92915050565b5f5ffd5b5f5ffd5b5f5ffd5b5f5f83601f84011261232357612322612302565b5b8235905067ffffffffffffffff8111156123405761233f612306565b5b60208301915083600182028301111561235c5761235b61230a565b5b9250929050565b5f73ffffffffffffffffffffffffffffffffffffffff82169050919050565b5f61238c82612363565b9050919050565b61239c81612382565b81146123a6575f5ffd5b50565b5f813590506123b781612393565b92915050565b5f5f5f5f5f5f5f60e0888a0312156123d8576123d76122a5565b5b5f6123e58a828b016122b1565b97505060606123f68a828b016122ee565b965050608088013567ffffffffffffffff811115612417576124166122a9565b5b6124238a828b0161230e565b955095505060a06124368a828b016123a9565b93505060c088013567ffffffffffffffff811115612457576124566122a9565b5b6124638a828b0161230e565b925092505092959891949750929550565b5f67ffffffffffffffff82169050919050565b61249081612474565b82525050565b5f6040820190506124a95f830185612487565b6124b66020830184612487565b9392505050565b5f61ffff82169050919050565b6124d3816124bd565b82525050565b5f6020820190506124ec5f8301846124ca565b92915050565b5f81519050919050565b5f82825260208201905092915050565b8281835e5f83830152505050565b5f601f19601f8301169050919050565b5f612534826124f2565b61253e81856124fc565b935061254e81856020860161250c565b6125578161251a565b840191505092915050565b5f6020820190508181035f83015261257a818461252a565b905092915050565b5f63ffffffff82169050919050565b61259a81612582565b81146125a4575f5ffd5b50565b5f813590506125b581612591565b92915050565b5f5f604083850312156125d1576125d06122a5565b5b5f6125de858286016125a7565b92505060206125ef858286016122ee565b9150509250929050565b612602816124bd565b811461260c575f5ffd5b50565b5f8135905061261d816125f9565b92915050565b5f5f60408385031215612639576126386122a5565b5b5f612646858286016125a7565b92505060206126578582860161260f565b9150509250929050565b5f60208284031215612676576126756122a5565b5b5f612683848285016123a9565b91505092915050565b5f819050919050565b5f6126af6126aa6126a584612363565b61268c565b612363565b9050919050565b5f6126c082612695565b9050919050565b5f6126d1826126b6565b9050919050565b6126e1816126c7565b82525050565b5f6020820190506126fa5f8301846126d8565b92915050565b5f819050919050565b61271281612700565b811461271c575f5ffd5b50565b5f8135905061272d81612709565b92915050565b5f8115159050919050565b61274781612733565b8114612751575f5ffd5b50565b5f813590506127628161273e565b92915050565b5f5f5f5f5f5f5f5f60e0898b031215612784576127836122a5565b5b5f6127918b828c016125a7565b98505060206127a28b828c016123a9565b97505060406127b38b828c016123a9565b96505060606127c48b828c016123a9565b95505060806127d58b828c0161271f565b94505060a089013567ffffffffffffffff8111156127f6576127f56122a9565b5b6128028b828c0161230e565b935093505060c06128158b828c01612754565b9150509295985092959890939650565b61282e81612700565b82525050565b604082015f8201516128485f850182612825565b50602082015161285b6020850182612825565b50505050565b5f6040820190506128745f830184612834565b92915050565b5f60208201905061288d5f830184612487565b92915050565b5f5f5f5f60a085870312156128ab576128aa6122a5565b5b5f6128b8878288016122b1565b945050606085013567ffffffffffffffff8111156128d9576128d86122a9565b5b6128e58782880161230e565b935093505060806128f8878288016123a9565b91505092959194509250565b61290d81612733565b82525050565b5f6020820190506129265f830184612904565b92915050565b61293581612382565b82525050565b5f60208201905061294e5f83018461292c565b92915050565b5f5f5f5f5f5f5f5f5f6101008a8c031215612972576129716122a5565b5b5f61297f8c828d016125a7565b99505060206129908c828d016123a9565b98505060406129a18c828d016123a9565b97505060606129b28c828d016123a9565b96505060806129c38c828d016123a9565b95505060a06129d48c828d0161271f565b94505060c06129e58c828d0161271f565b93505060e08a013567ffffffffffffffff811115612a0657612a056122a9565b5b612a128c828d0161230e565b92509250509295985092959850929598565b5f5f83601f840112612a3957612a38612302565b5b8235905067ffffffffffffffff811115612a5657612a55612306565b5b602083019150836020820283011115612a7257612a7161230a565b5b9250929050565b5f5f60208385031215612a8f57612a8e6122a5565b5b5f83013567ffffffffffffffff811115612aac57612aab6122a9565b5b612ab885828601612a24565b92509250509250929050565b5f60208284031215612ad957612ad86122a5565b5b5f612ae6848285016125a7565b91505092915050565b612af8816122cf565b82525050565b5f602082019050612b115f830184612aef565b92915050565b5f5f5f5f60608587031215612b2f57612b2e6122a5565b5b5f612b3c878288016125a7565b9450506020612b4d8782880161260f565b935050604085013567ffffffffffffffff811115612b6e57612b6d6122a9565b5b612b7a8782880161230e565b925092505092959194509250565b612b9181612700565b82525050565b5f602082019050612baa5f830184612b88565b92915050565b5f5f5f60608486031215612bc757612bc66122a5565b5b5f612bd4868287016123a9565b9350506020612be5868287016123a9565b9250506040612bf68682870161271f565b9150509250925092565b5f60608284031215612c1557612c146122a5565b5b5f612c22848285016122b1565b91505092915050565b612c3481612582565b82525050565b5f604082019050612c4d5f830185612c2b565b612c5a6020830184612aef565b9392505050565b7f4e487b71000000000000000000000000000000000000000000000000000000005f52602260045260245ffd5b5f6002820490506001821680612ca557607f821691505b602082108103612cb857612cb7612c61565b5b50919050565b5f608082019050612cd15f83018761292c565b612cde602083018661292c565b612ceb604083018561292c565b612cf86060830184612b88565b95945050505050565b7f4e487b71000000000000000000000000000000000000000000000000000000005f52601160045260245ffd5b5f612d3882612700565b9150612d4383612700565b9250828201905080821115612d5b57612d5a612d01565b5b92915050565b7f4e487b71000000000000000000000000000000000000000000000000000000005f52604160045260245ffd5b612d978261251a565b810181811067ffffffffffffffff82111715612db657612db5612d61565b5b80604052505050565b5f612dc861229c565b9050612dd48282612d8e565b919050565b5f67ffffffffffffffff821115612df357612df2612d61565b5b602082029050602081019050919050565b5f5ffd5b5f5ffd5b5f5ffd5b5f67ffffffffffffffff821115612e2a57612e29612d61565b5b612e338261251a565b9050602081019050919050565b828183375f83830152505050565b5f612e60612e5b84612e10565b612dbf565b905082815260208101848484011115612e7c57612e7b612e0c565b5b612e87848285612e40565b509392505050565b5f82601f830112612ea357612ea2612302565b5b8135612eb3848260208601612e4e565b91505092915050565b5f60608284031215612ed157612ed0612e04565b5b612edb6060612dbf565b90505f612eea848285016125a7565b5f830152506020612efd8482850161260f565b602083015250604082013567ffffffffffffffff811115612f2157612f20612e08565b5b612f2d84828501612e8f565b60408301525092915050565b5f612f4b612f4684612dd9565b612dbf565b90508083825260208201905060208402830185811115612f6e57612f6d61230a565b5b835b81811015612fb557803567ffffffffffffffff811115612f9357612f92612302565b5b808601612fa08982612ebc565b85526020850194505050602081019050612f70565b5050509392505050565b5f612fcb368484612f39565b905092915050565b5f5ffd5b5f5ffd5b5f5f85851115612fee57612fed612fd3565b5b83861115612fff57612ffe612fd7565b5b6001850283019150848603905094509492505050565b5f81905092915050565b5f613029826124f2565b6130338185613015565b935061304381856020860161250c565b80840191505092915050565b5f61305a8385613015565b9350613067838584612e40565b82840190509392505050565b5f61307e828661301f565b915061308b82848661304f565b9150819050949350505050565b5f6130a383856124fc565b93506130b0838584612e40565b6130b98361251a565b840190509392505050565b5f6020820190508181035f8301526130dd818486613098565b90509392505050565b5f6130f082612700565b91506130fb83612700565b925082820390508181111561311357613112612d01565b5b92915050565b5f60408201905061312c5f83018561292c565b6131396020830184612b88565b9392505050565b5f8151905061314e8161273e565b92915050565b5f60208284031215613169576131686122a5565b5b5f61317684828501613140565b91505092915050565b5f6040820190506131925f830185612b88565b61319f602083018461292c565b9392505050565b5f6020820190506131b95f830184612c2b565b92915050565b5f6131c982612363565b9050919050565b6131d9816131bf565b81146131e3575f5ffd5b50565b5f813590506131f4816131d0565b92915050565b5f5f5f5f60808587031215613212576132116122a5565b5b5f61321f878288016131e6565b9450506020613230878288016131e6565b9350506040613241878288016131e6565b92505060606132528782880161271f565b91505092959194509250565b5f82905092915050565b5f819050815f5260205f209050919050565b5f6020601f8301049050919050565b5f82821b905092915050565b5f600883026132c47fffffffffffffffffffffffffffffffffffffffffffffffffffffffffffffffff82613289565b6132ce8683613289565b95508019841693508086168417925050509392505050565b5f6133006132fb6132f684612700565b61268c565b612700565b9050919050565b5f819050919050565b613319836132e6565b61332d61332582613307565b848454613295565b825550505050565b5f5f905090565b613344613335565b61334f818484613310565b505050565b5b81811015613372576133675f8261333c565b600181019050613355565b5050565b601f8211156133b75761338881613268565b6133918461327a565b810160208510156133a0578190505b6133b46133ac8561327a565b830182613354565b50505b505050565b5f82821c905092915050565b5f6133d75f19846008026133bc565b1980831691505092915050565b5f6133ef83836133c8565b9150826002028217905092915050565b613409838361325e565b67ffffffffffffffff81111561342257613421612d61565b5b61342c8254612c8e565b613437828285613376565b5f601f831160018114613464575f8415613452578287013590505b61345c85826133e4565b8655506134c3565b601f19841661347286613268565b5f5b8281101561349957848901358255600182019150602085019450602081019050613474565b868310156134b657848901356134b2601f8916826133c8565b8355505b6001600288020188555050505b50505050505050565b6134d581612582565b82525050565b6134e4816122cf565b82525050565b5f82825260208201905092915050565b5f613504826124f2565b61350e81856134ea565b935061351e81856020860161250c565b6135278161251a565b840191505092915050565b61353b81612733565b82525050565b5f60a083015f8301516135565f8601826134cc565b50602083015161356960208601826134db565b506040830151848203604086015261358182826134fa565b9150506060830151848203606086015261359b82826134fa565b91505060808301516135b06080860182613532565b508091505092915050565b5f6040820190508181035f8301526135d38185613541565b90506135e2602083018461292c565b9392505050565b5f815190506135f781612709565b92915050565b5f6040828403121561361257613611612e04565b5b61361c6040612dbf565b90505f61362b848285016135e9565b5f83015250602061363e848285016135e9565b60208301525092915050565b5f6040828403121561365f5761365e6122a5565b5b5f61366c848285016135fd565b91505092915050565b5f61367f82612700565b915061368a83612700565b925082820261369881612700565b915082820484148315176136af576136ae612d01565b5b5092915050565b7f4e487b71000000000000000000000000000000000000000000000000000000005f52601260045260245ffd5b5f6136ed82612700565b91506136f883612700565b925082613708576137076136b6565b5b828204905092915050565b5f60e083015f8301516137285f8601826134cc565b50602083015161373b60208601826134db565b50604083015161374e6040860182612825565b5060608301516137616060860182612825565b506080830151848203608086015261377982826134fa565b91505060a083015184820360a086015261379382826134fa565b91505060c083015184820360c08601526137ad82826134fa565b9150508091505092915050565b5f6040820190508181035f8301526137d28185613713565b90506137e16020830184612904565b9392505050565b5f815190506137f681612393565b92915050565b5f60208284031215613811576138106122a5565b5b5f61381e848285016137e8565b91505092915050565b5f6080820190508181035f83015261383f8186613713565b905061384e6020830185612834565b61385b606083018461292c565b949350505050565b5f81519050613871816122d8565b92915050565b61388081612474565b811461388a575f5ffd5b50565b5f8151905061389b81613877565b92915050565b5f608082840312156138b6576138b5612e04565b5b6138c06060612dbf565b90505f6138cf84828501613863565b5f8301525060206138e28482850161388d565b60208301525060406138f6848285016135fd565b60408301525092915050565b5f6040828403121561391757613916612e04565b5b6139216040612dbf565b90505f613930848285016135e9565b5f830152506020613943848285016135e9565b60208301525092915050565b5f5f60c08385031215613965576139646122a5565b5b5f613972858286016138a1565b925050608061398385828601613902565b9150509250929050565b7f4e487b71000000000000000000000000000000000000000000000000000000005f52603260045260245ffd5b6139c3826124f2565b67ffffffffffffffff8111156139dc576139db612d61565b5b6139e68254612c8e565b6139f1828285613376565b5f60209050601f831160018114613a22575f8415613a10578287015190505b613a1a85826133e4565b865550613a81565b601f198416613a3086613268565b5f5b82811015613a5757848901518255600182019150602085019450602081019050613a32565b86831015613a745784890151613a70601f8916826133c8565b8355505b6001600288020188555050505b505050505050565b5f81519050919050565b5f82825260208201905092915050565b5f819050602082019050919050565b613abb816124bd565b82525050565b5f606083015f830151613ad65f8601826134cc565b506020830151613ae96020860182613ab2565b5060408301518482036040860152613b0182826134fa565b9150508091505092915050565b5f613b198383613ac1565b905092915050565b5f602082019050919050565b5f613b3782613a89565b613b418185613a93565b935083602082028501613b5385613aa3565b805f5b85811015613b8e5784840389528151613b6f8582613b0e565b9450613b7a83613b21565b925060208a01995050600181019050613b56565b50829750879550505050505092915050565b5f6020820190508181035f830152613bb88184613b2d565b905092915050565b5f8160f01b9050919050565b5f613bd682613bc0565b9050919050565b613bee613be9826124bd565b613bcc565b82525050565b5f613bff8284613bdd565b60028201915081905092915050565b5f606082019050613c215f83018661292c565b613c2e602083018561292c565b613c3b6040830184612b88565b949350505050565b5f60808284031215613c5857613c576122a5565b5b5f613c65848285016138a1565b91505092915050565b5f82825260208201905092915050565b7f746f55696e7431365f6f75744f66426f756e64730000000000000000000000005f82015250565b5f613cb2601483613c6e565b9150613cbd82613c7e565b602082019050919050565b5f6020820190508181035f830152613cdf81613ca6565b9050919050565b5f6fffffffffffffffffffffffffffffffff82169050919050565b5f8160801b9050919050565b5f613d1782613d01565b9050919050565b613d2f613d2a82613ce6565b613d0d565b82525050565b5f613d408285613d1e565b601082019150613d508284613d1e565b6010820191508190509392505050565b5f613d6b8284613d1e565b60108201915081905092915050565b5f613d84826124bd565b9150613d8f836124bd565b9250828201905061ffff811115613da957613da8612d01565b5b92915050565b5f60ff82169050919050565b5f8160f81b9050919050565b5f613dd182613dbb565b9050919050565b613de9613de482613daf565b613dc7565b82525050565b5f613dfa828861301f565b9150613e068287613dd8565b600182019150613e168286613bdd565b600282019150613e268285613dd8565b600182019150613e36828461301f565b91508190509695505050505050565b5f819050919050565b5f613e68613e63613e5e84613e45565b61268c565b613daf565b9050919050565b613e7881613e4e565b82525050565b5f604082019050613e915f830185613e6f565b613e9e6020830184612b88565b939250505056fea2646970667358221220d90692b956b97b823739c04742eb6aed5cdf8b89a82ed0df368beac42de91d9d64736f6c634300081c0033","linkReferences":{}},"methodIdentifiers":{"SEND()":"1f5e1334","allowInitializePath((uint32,bytes32,uint64))":"ff7bd03d","combineOptions(uint32,uint16,bytes)":"bc70b354","endpoint()":"5e280f11","enforcedOptions(uint32,uint16)":"5535d461","execute(address,address,uint256)":"eafaddfd","factory()":"c45a0155","isComposeMsgSender((uint32,bytes32,uint64),bytes,address)":"82413eac","lastMessage()":"32970710","lzReceive((uint32,bytes32,uint64),bytes32,bytes,address,bytes)":"13137d65","nextNonce(uint32,bytes32)":"7d25a05e","oAppVersion()":"17442b70","oftaddress()":"9c967afa","owner()":"8da5cb5b","peers(uint32)":"bb0b6a53","quoteSendString(uint32,address,address,address,uint256,bytes,bool)":"62a896b0","renounceOwnership()":"715018a6","sendString(uint32,address,address,address,address,uint256,uint256,bytes)":"968a61ce","setDelegate(address)":"ca5eb5e1","setEnforcedOptions((uint32,uint16,bytes)[])":"b98bd070","setFactory(address)":"5bb47808","setOFTaddress(address)":"ea89900e","setPeer(uint32,bytes32)":"3400288b","transferOwnership(address)":"f2fde38b","userAmount(address)":"e1ad418e"},"id":153}