{"abi":[{"type":"constructor","inputs":[],"stateMutability":"nonpayable"},{"type":"fallback","stateMutability":"nonpayable"},{"type":"receive","stateMutability":"payable"},{"type":"function","name":"WKAIA","inputs":[],"outputs":[{"name":"","type":"address","internalType":"address"}],"stateMutability":"view"},{"type":"function","name":"owner","inputs":[],"outputs":[{"name":"","type":"address","internalType":"address"}],"stateMutability":"view"},{"type":"function","name":"renounceOwnership","inputs":[],"outputs":[],"stateMutability":"nonpayable"},{"type":"function","name":"transferOwnership","inputs":[{"name":"newOwner","type":"address","internalType":"address"}],"outputs":[],"stateMutability":"nonpayable"},{"type":"function","name":"withdraw","inputs":[{"name":"token","type":"address","internalType":"address"},{"name":"amount","type":"uint256","internalType":"uint256"},{"name":"unwrapToNative","type":"bool","internalType":"bool"}],"outputs":[],"stateMutability":"nonpayable"},{"type":"function","name":"withdraw","inputs":[{"name":"token","type":"address","internalType":"address"},{"name":"amount","type":"uint256","internalType":"uint256"}],"outputs":[],"stateMutability":"nonpayable"},{"type":"event","name":"OwnershipTransferred","inputs":[{"name":"previousOwner","type":"address","indexed":true,"internalType":"address"},{"name":"newOwner","type":"address","indexed":true,"internalType":"address"}],"anonymous":false},{"type":"error","name":"InsufficientBalance","inputs":[{"name":"token","type":"address","internalType":"address"},{"name":"amount","type":"uint256","internalType":"uint256"}]},{"type":"error","name":"OwnableInvalidOwner","inputs":[{"name":"owner","type":"address","internalType":"address"}]},{"type":"error","name":"OwnableUnauthorizedAccount","inputs":[{"name":"account","type":"address","internalType":"address"}]},{"type":"error","name":"ReentrancyGuardReentrantCall","inputs":[]},{"type":"error","name":"SafeERC20FailedOperation","inputs":[{"name":"token","type":"address","internalType":"address"}]}],"bytecode":{"object":"0x608060405234801561000f575f5ffd5b503360015f819055505f73ffffffffffffffffffffffffffffffffffffffff168173ffffffffffffffffffffffffffffffffffffffff1603610088575f6040517f1e4fbdf700000000000000000000000000000000000000000000000000000000815260040161007f919061019f565b60405180910390fd5b6100978161009d60201b60201c565b506101b8565b5f60015f9054906101000a900473ffffffffffffffffffffffffffffffffffffffff1690508160015f6101000a81548173ffffffffffffffffffffffffffffffffffffffff021916908373ffffffffffffffffffffffffffffffffffffffff1602179055508173ffffffffffffffffffffffffffffffffffffffff168173ffffffffffffffffffffffffffffffffffffffff167f8be0079c531659141344cd1fd0a4f28419497f9722a3daafe3b4186f6b6457e060405160405180910390a35050565b5f73ffffffffffffffffffffffffffffffffffffffff82169050919050565b5f61018982610160565b9050919050565b6101998161017f565b82525050565b5f6020820190506101b25f830184610190565b92915050565b610cd7806101c55f395ff3fe608060405260043610610058575f3560e01c8063145d51d814610120578063715018a61461014a5780638da5cb5b14610160578063ead5d3591461018a578063f2fde38b146101b2578063f3fef3a3146101da576100d9565b366100d9575f3411156100d7577319aac5f612f524b754ca7e7c41cbfa2e981a443273ffffffffffffffffffffffffffffffffffffffff1663d0e30db0346040518263ffffffff1660e01b81526004015f604051808303818588803b1580156100bf575f5ffd5b505af11580156100d1573d5f5f3e3d5ffd5b50505050505b005b3480156100e4575f5ffd5b506040517f08c379a0000000000000000000000000000000000000000000000000000000008152600401610117906109a5565b60405180910390fd5b34801561012b575f5ffd5b50610134610202565b6040516101419190610a02565b60405180910390f35b348015610155575f5ffd5b5061015e61021a565b005b34801561016b575f5ffd5b5061017461022d565b6040516101819190610a02565b60405180910390f35b348015610195575f5ffd5b506101b060048036038101906101ab9190610ab1565b610255565b005b3480156101bd575f5ffd5b506101d860048036038101906101d39190610b01565b6105e8565b005b3480156101e5575f5ffd5b5061020060048036038101906101fb9190610b2c565b61066c565b005b7319aac5f612f524b754ca7e7c41cbfa2e981a443281565b610222610693565b61022b5f61071a565b565b5f60015f9054906101000a900473ffffffffffffffffffffffffffffffffffffffff16905090565b61025d6107dd565b610265610693565b7319aac5f612f524b754ca7e7c41cbfa2e981a443273ffffffffffffffffffffffffffffffffffffffff168373ffffffffffffffffffffffffffffffffffffffff16036104f157817319aac5f612f524b754ca7e7c41cbfa2e981a443273ffffffffffffffffffffffffffffffffffffffff166370a08231306040518263ffffffff1660e01b81526004016102fa9190610a02565b602060405180830381865afa158015610315573d5f5f3e3d5ffd5b505050506040513d601f19601f820116820180604052508101906103399190610b7e565b101561037e5782826040517ff6deaa04000000000000000000000000000000000000000000000000000000008152600401610375929190610bb8565b60405180910390fd5b80156104ac577319aac5f612f524b754ca7e7c41cbfa2e981a443273ffffffffffffffffffffffffffffffffffffffff16632e1a7d4d836040518263ffffffff1660e01b81526004016103d19190610bdf565b5f604051808303815f87803b1580156103e8575f5ffd5b505af11580156103fa573d5f5f3e3d5ffd5b505050505f3373ffffffffffffffffffffffffffffffffffffffff168360405161042390610c25565b5f6040518083038185875af1925050503d805f811461045d576040519150601f19603f3d011682016040523d82523d5f602084013e610462565b606091505b50509050806104a6576040517f08c379a000000000000000000000000000000000000000000000000000000000815260040161049d90610c83565b60405180910390fd5b506104ec565b6104eb33837319aac5f612f524b754ca7e7c41cbfa2e981a443273ffffffffffffffffffffffffffffffffffffffff166108219092919063ffffffff16565b5b6105db565b818373ffffffffffffffffffffffffffffffffffffffff166370a08231306040518263ffffffff1660e01b815260040161052b9190610a02565b602060405180830381865afa158015610546573d5f5f3e3d5ffd5b505050506040513d601f19601f8201168201806040525081019061056a9190610b7e565b10156105af5782826040517ff6deaa040000000000000000000000000000000000000000000000000000000081526004016105a6929190610bb8565b60405180910390fd5b6105da33838573ffffffffffffffffffffffffffffffffffffffff166108219092919063ffffffff16565b5b6105e36108a0565b505050565b6105f0610693565b5f73ffffffffffffffffffffffffffffffffffffffff168173ffffffffffffffffffffffffffffffffffffffff1603610660575f6040517f1e4fbdf70000000000000000000000000000000000000000000000000000000081526004016106579190610a02565b60405180910390fd5b6106698161071a565b50565b6106746107dd565b61067c610693565b61068782825f610255565b61068f6108a0565b5050565b61069b6108a9565b73ffffffffffffffffffffffffffffffffffffffff166106b961022d565b73ffffffffffffffffffffffffffffffffffffffff1614610718576106dc6108a9565b6040517f118cdaa700000000000000000000000000000000000000000000000000000000815260040161070f9190610a02565b60405180910390fd5b565b5f60015f9054906101000a900473ffffffffffffffffffffffffffffffffffffffff1690508160015f6101000a81548173ffffffffffffffffffffffffffffffffffffffff021916908373ffffffffffffffffffffffffffffffffffffffff1602179055508173ffffffffffffffffffffffffffffffffffffffff168173ffffffffffffffffffffffffffffffffffffffff167f8be0079c531659141344cd1fd0a4f28419497f9722a3daafe3b4186f6b6457e060405160405180910390a35050565b60025f5403610818576040517f3ee5aeb500000000000000000000000000000000000000000000000000000000815260040160405180910390fd5b60025f81905550565b61089b838473ffffffffffffffffffffffffffffffffffffffff1663a9059cbb8585604051602401610854929190610bb8565b604051602081830303815290604052915060e01b6020820180517bffffffffffffffffffffffffffffffffffffffffffffffffffffffff83818316178352505050506108b0565b505050565b60015f81905550565b5f33905090565b5f5f60205f8451602086015f885af1806108cf576040513d5f823e3d81fd5b3d92505f519150505f82146108e8576001811415610903565b5f8473ffffffffffffffffffffffffffffffffffffffff163b145b1561094557836040517f5274afe700000000000000000000000000000000000000000000000000000000815260040161093c9190610a02565b60405180910390fd5b50505050565b5f82825260208201905092915050565b7f46616c6c6261636b206e6f7420616c6c6f7765640000000000000000000000005f82015250565b5f61098f60148361094b565b915061099a8261095b565b602082019050919050565b5f6020820190508181035f8301526109bc81610983565b9050919050565b5f73ffffffffffffffffffffffffffffffffffffffff82169050919050565b5f6109ec826109c3565b9050919050565b6109fc816109e2565b82525050565b5f602082019050610a155f8301846109f3565b92915050565b5f5ffd5b610a28816109e2565b8114610a32575f5ffd5b50565b5f81359050610a4381610a1f565b92915050565b5f819050919050565b610a5b81610a49565b8114610a65575f5ffd5b50565b5f81359050610a7681610a52565b92915050565b5f8115159050919050565b610a9081610a7c565b8114610a9a575f5ffd5b50565b5f81359050610aab81610a87565b92915050565b5f5f5f60608486031215610ac857610ac7610a1b565b5b5f610ad586828701610a35565b9350506020610ae686828701610a68565b9250506040610af786828701610a9d565b9150509250925092565b5f60208284031215610b1657610b15610a1b565b5b5f610b2384828501610a35565b91505092915050565b5f5f60408385031215610b4257610b41610a1b565b5b5f610b4f85828601610a35565b9250506020610b6085828601610a68565b9150509250929050565b5f81519050610b7881610a52565b92915050565b5f60208284031215610b9357610b92610a1b565b5b5f610ba084828501610b6a565b91505092915050565b610bb281610a49565b82525050565b5f604082019050610bcb5f8301856109f3565b610bd86020830184610ba9565b9392505050565b5f602082019050610bf25f830184610ba9565b92915050565b5f81905092915050565b50565b5f610c105f83610bf8565b9150610c1b82610c02565b5f82019050919050565b5f610c2f82610c05565b9150819050919050565b7f4661696c656420746f2073656e64206e617469766520746f6b656e00000000005f82015250565b5f610c6d601b8361094b565b9150610c7882610c39565b602082019050919050565b5f6020820190508181035f830152610c9a81610c61565b905091905056fea2646970667358221220a15b17ab03558b47207120bd81a3b6a48df82ff117dfb3844660aaa1be7b0fdd64736f6c634300081c0033","linkReferences":{}},"methodIdentifiers":{"WKAIA()":"145d51d8","owner()":"8da5cb5b","renounceOwnership()":"715018a6","transferOwnership(address)":"f2fde38b","withdraw(address,uint256)":"f3fef3a3","withdraw(address,uint256,bool)":"ead5d359"},"id":144}