{"abi":[{"type":"constructor","inputs":[],"stateMutability":"nonpayable"},{"type":"fallback","stateMutability":"nonpayable"},{"type":"receive","stateMutability":"payable"},{"type":"function","name":"lendingPoolFactory","inputs":[],"outputs":[{"name":"","type":"address","internalType":"address"}],"stateMutability":"view"},{"type":"function","name":"owner","inputs":[],"outputs":[{"name":"","type":"address","internalType":"address"}],"stateMutability":"view"},{"type":"function","name":"renounceOwnership","inputs":[],"outputs":[],"stateMutability":"nonpayable"},{"type":"function","name":"setLendingPoolFactory","inputs":[{"name":"_lendingPoolFactory","type":"address","internalType":"address"}],"outputs":[],"stateMutability":"nonpayable"},{"type":"function","name":"transferOwnership","inputs":[{"name":"newOwner","type":"address","internalType":"address"}],"outputs":[],"stateMutability":"nonpayable"},{"type":"function","name":"withdraw","inputs":[{"name":"_token","type":"address","internalType":"address"},{"name":"_amount","type":"uint256","internalType":"uint256"}],"outputs":[],"stateMutability":"nonpayable"},{"type":"event","name":"LendingPoolFactorySet","inputs":[{"name":"lendingPoolFactory","type":"address","indexed":false,"internalType":"address"}],"anonymous":false},{"type":"event","name":"OwnershipTransferred","inputs":[{"name":"previousOwner","type":"address","indexed":true,"internalType":"address"},{"name":"newOwner","type":"address","indexed":true,"internalType":"address"}],"anonymous":false},{"type":"event","name":"Withdraw","inputs":[{"name":"token","type":"address","indexed":false,"internalType":"address"},{"name":"amount","type":"uint256","indexed":false,"internalType":"uint256"}],"anonymous":false},{"type":"error","name":"CannotSwapWNativeForWNative","inputs":[]},{"type":"error","name":"DeadlinePassed","inputs":[]},{"type":"error","name":"InsufficientBalance","inputs":[{"name":"token","type":"address","internalType":"address"},{"name":"amount","type":"uint256","internalType":"uint256"}]},{"type":"error","name":"InsufficientOutputAmount","inputs":[{"name":"expectedMinimum","type":"uint256","internalType":"uint256"},{"name":"actualOutput","type":"uint256","internalType":"uint256"}]},{"type":"error","name":"InvalidAmount","inputs":[]},{"type":"error","name":"InvalidTokenAddress","inputs":[]},{"type":"error","name":"LendingPoolFactoryNotSet","inputs":[]},{"type":"error","name":"OwnableInvalidOwner","inputs":[{"name":"owner","type":"address","internalType":"address"}]},{"type":"error","name":"OwnableUnauthorizedAccount","inputs":[{"name":"account","type":"address","internalType":"address"}]},{"type":"error","name":"ReentrancyGuardReentrantCall","inputs":[]},{"type":"error","name":"SafeERC20FailedOperation","inputs":[{"name":"token","type":"address","internalType":"address"}]},{"type":"error","name":"SwapFailed","inputs":[{"name":"tokenIn","type":"address","internalType":"address"},{"name":"tokenOut","type":"address","internalType":"address"},{"name":"amountIn","type":"uint256","internalType":"uint256"}]}],"bytecode":{"object":"0x608060405234801561000f575f5ffd5b503360015f819055505f73ffffffffffffffffffffffffffffffffffffffff168173ffffffffffffffffffffffffffffffffffffffff1603610088575f6040517f1e4fbdf700000000000000000000000000000000000000000000000000000000815260040161007f919061019f565b60405180910390fd5b6100978161009d60201b60201c565b506101b8565b5f60015f9054906101000a900473ffffffffffffffffffffffffffffffffffffffff1690508160015f6101000a81548173ffffffffffffffffffffffffffffffffffffffff021916908373ffffffffffffffffffffffffffffffffffffffff1602179055508173ffffffffffffffffffffffffffffffffffffffff168173ffffffffffffffffffffffffffffffffffffffff167f8be0079c531659141344cd1fd0a4f28419497f9722a3daafe3b4186f6b6457e060405160405180910390a35050565b5f73ffffffffffffffffffffffffffffffffffffffff82169050919050565b5f61018982610160565b9050919050565b6101998161017f565b82525050565b5f6020820190506101b25f830184610190565b92915050565b610aef806101c55f395ff3fe608060405260043610610058575f3560e01c8063715018a6146101135780638da5cb5b14610129578063a3f39c9914610153578063e4ac8b061461017b578063f2fde38b146101a5578063f3fef3a3146101cd576100cc565b366100cc575f3411156100ca5761006d6101f5565b73ffffffffffffffffffffffffffffffffffffffff1663d0e30db0346040518263ffffffff1660e01b81526004015f604051808303818588803b1580156100b2575f5ffd5b505af11580156100c4573d5f5f3e3d5ffd5b50505050505b005b3480156100d7575f5ffd5b506040517f08c379a000000000000000000000000000000000000000000000000000000000815260040161010a906108c5565b60405180910390fd5b34801561011e575f5ffd5b5061012761030f565b005b348015610134575f5ffd5b5061013d610322565b60405161014a9190610922565b60405180910390f35b34801561015e575f5ffd5b5061017960048036038101906101749190610969565b61034a565b005b348015610186575f5ffd5b5061018f6103cc565b60405161019c9190610922565b60405180910390f35b3480156101b0575f5ffd5b506101cb60048036038101906101c69190610969565b6103f1565b005b3480156101d8575f5ffd5b506101f360048036038101906101ee91906109c7565b610475565b005b5f5f73ffffffffffffffffffffffffffffffffffffffff1660025f9054906101000a900473ffffffffffffffffffffffffffffffffffffffff1673ffffffffffffffffffffffffffffffffffffffff160361027c576040517f0e23e6d100000000000000000000000000000000000000000000000000000000815260040160405180910390fd5b60025f9054906101000a900473ffffffffffffffffffffffffffffffffffffffff1673ffffffffffffffffffffffffffffffffffffffff1663d999984d6040518163ffffffff1660e01b8152600401602060405180830381865afa1580156102e6573d5f5f3e3d5ffd5b505050506040513d601f19601f8201168201806040525081019061030a9190610a19565b905090565b6103176105b3565b6103205f61063a565b565b5f60015f9054906101000a900473ffffffffffffffffffffffffffffffffffffffff16905090565b6103526105b3565b8060025f6101000a81548173ffffffffffffffffffffffffffffffffffffffff021916908373ffffffffffffffffffffffffffffffffffffffff1602179055507f42221cfb9fee7c18257dd2e1c3a5cc6b9049b911a84ad8dd1ef79e49099f7178816040516103c19190610922565b60405180910390a150565b60025f9054906101000a900473ffffffffffffffffffffffffffffffffffffffff1681565b6103f96105b3565b5f73ffffffffffffffffffffffffffffffffffffffff168173ffffffffffffffffffffffffffffffffffffffff1603610469575f6040517f1e4fbdf70000000000000000000000000000000000000000000000000000000081526004016104609190610922565b60405180910390fd5b6104728161063a565b50565b61047d6106fd565b6104856105b3565b808273ffffffffffffffffffffffffffffffffffffffff166370a08231306040518263ffffffff1660e01b81526004016104bf9190610922565b602060405180830381865afa1580156104da573d5f5f3e3d5ffd5b505050506040513d601f19601f820116820180604052508101906104fe9190610a58565b10156105435781816040517ff6deaa0400000000000000000000000000000000000000000000000000000000815260040161053a929190610a92565b60405180910390fd5b61056e33828473ffffffffffffffffffffffffffffffffffffffff166107419092919063ffffffff16565b7f884edad9ce6fa2440d8a54cc123490eb96d2768479d49ff9c7366125a9424364828260405161059f929190610a92565b60405180910390a16105af6107c0565b5050565b6105bb6107c9565b73ffffffffffffffffffffffffffffffffffffffff166105d9610322565b73ffffffffffffffffffffffffffffffffffffffff1614610638576105fc6107c9565b6040517f118cdaa700000000000000000000000000000000000000000000000000000000815260040161062f9190610922565b60405180910390fd5b565b5f60015f9054906101000a900473ffffffffffffffffffffffffffffffffffffffff1690508160015f6101000a81548173ffffffffffffffffffffffffffffffffffffffff021916908373ffffffffffffffffffffffffffffffffffffffff1602179055508173ffffffffffffffffffffffffffffffffffffffff168173ffffffffffffffffffffffffffffffffffffffff167f8be0079c531659141344cd1fd0a4f28419497f9722a3daafe3b4186f6b6457e060405160405180910390a35050565b60025f5403610738576040517f3ee5aeb500000000000000000000000000000000000000000000000000000000815260040160405180910390fd5b60025f81905550565b6107bb838473ffffffffffffffffffffffffffffffffffffffff1663a9059cbb8585604051602401610774929190610a92565b604051602081830303815290604052915060e01b6020820180517bffffffffffffffffffffffffffffffffffffffffffffffffffffffff83818316178352505050506107d0565b505050565b60015f81905550565b5f33905090565b5f5f60205f8451602086015f885af1806107ef576040513d5f823e3d81fd5b3d92505f519150505f8214610808576001811415610823565b5f8473ffffffffffffffffffffffffffffffffffffffff163b145b1561086557836040517f5274afe700000000000000000000000000000000000000000000000000000000815260040161085c9190610922565b60405180910390fd5b50505050565b5f82825260208201905092915050565b7f46616c6c6261636b206e6f7420616c6c6f7765640000000000000000000000005f82015250565b5f6108af60148361086b565b91506108ba8261087b565b602082019050919050565b5f6020820190508181035f8301526108dc816108a3565b9050919050565b5f73ffffffffffffffffffffffffffffffffffffffff82169050919050565b5f61090c826108e3565b9050919050565b61091c81610902565b82525050565b5f6020820190506109355f830184610913565b92915050565b5f5ffd5b61094881610902565b8114610952575f5ffd5b50565b5f813590506109638161093f565b92915050565b5f6020828403121561097e5761097d61093b565b5b5f61098b84828501610955565b91505092915050565b5f819050919050565b6109a681610994565b81146109b0575f5ffd5b50565b5f813590506109c18161099d565b92915050565b5f5f604083850312156109dd576109dc61093b565b5b5f6109ea85828601610955565b92505060206109fb858286016109b3565b9150509250929050565b5f81519050610a138161093f565b92915050565b5f60208284031215610a2e57610a2d61093b565b5b5f610a3b84828501610a05565b91505092915050565b5f81519050610a528161099d565b92915050565b5f60208284031215610a6d57610a6c61093b565b5b5f610a7a84828501610a44565b91505092915050565b610a8c81610994565b82525050565b5f604082019050610aa55f830185610913565b610ab26020830184610a83565b939250505056fea26469706673582212206e71beecfd7db509c9b81bdc11b2522e5fe8798e989b73f6b9416cfb4ac063d064736f6c634300081e0033","linkReferences":{}},"methodIdentifiers":{"lendingPoolFactory()":"e4ac8b06","owner()":"8da5cb5b","renounceOwnership()":"715018a6","setLendingPoolFactory(address)":"a3f39c99","transferOwnership(address)":"f2fde38b","withdraw(address,uint256)":"f3fef3a3"},"id":111}