{"abi":[{"type":"constructor","inputs":[],"stateMutability":"nonpayable"},{"type":"receive","stateMutability":"payable"},{"type":"function","name":"WKAIA","inputs":[],"outputs":[{"name":"","type":"address","internalType":"address"}],"stateMutability":"view"},{"type":"function","name":"owner","inputs":[],"outputs":[{"name":"","type":"address","internalType":"address"}],"stateMutability":"view"},{"type":"function","name":"renounceOwnership","inputs":[],"outputs":[],"stateMutability":"nonpayable"},{"type":"function","name":"transferOwnership","inputs":[{"name":"newOwner","type":"address","internalType":"address"}],"outputs":[],"stateMutability":"nonpayable"},{"type":"function","name":"withdraw","inputs":[{"name":"token","type":"address","internalType":"address"},{"name":"amount","type":"uint256","internalType":"uint256"},{"name":"unwrapToNative","type":"bool","internalType":"bool"}],"outputs":[],"stateMutability":"nonpayable"},{"type":"function","name":"withdraw","inputs":[{"name":"token","type":"address","internalType":"address"},{"name":"amount","type":"uint256","internalType":"uint256"}],"outputs":[],"stateMutability":"nonpayable"},{"type":"event","name":"OwnershipTransferred","inputs":[{"name":"previousOwner","type":"address","indexed":true,"internalType":"address"},{"name":"newOwner","type":"address","indexed":true,"internalType":"address"}],"anonymous":false},{"type":"error","name":"InsufficientBalance","inputs":[{"name":"token","type":"address","internalType":"address"},{"name":"amount","type":"uint256","internalType":"uint256"}]},{"type":"error","name":"OwnableInvalidOwner","inputs":[{"name":"owner","type":"address","internalType":"address"}]},{"type":"error","name":"OwnableUnauthorizedAccount","inputs":[{"name":"account","type":"address","internalType":"address"}]},{"type":"error","name":"ReentrancyGuardReentrantCall","inputs":[]},{"type":"error","name":"SafeERC20FailedOperation","inputs":[{"name":"token","type":"address","internalType":"address"}]}],"bytecode":{"object":"0x608060405234801561000f575f5ffd5b503360015f819055505f73ffffffffffffffffffffffffffffffffffffffff168173ffffffffffffffffffffffffffffffffffffffff1603610088575f6040517f1e4fbdf700000000000000000000000000000000000000000000000000000000815260040161007f919061019f565b60405180910390fd5b6100978161009d60201b60201c565b506101b8565b5f60015f9054906101000a900473ffffffffffffffffffffffffffffffffffffffff1690508160015f6101000a81548173ffffffffffffffffffffffffffffffffffffffff021916908373ffffffffffffffffffffffffffffffffffffffff1602179055508173ffffffffffffffffffffffffffffffffffffffff168173ffffffffffffffffffffffffffffffffffffffff167f8be0079c531659141344cd1fd0a4f28419497f9722a3daafe3b4186f6b6457e060405160405180910390a35050565b5f73ffffffffffffffffffffffffffffffffffffffff82169050919050565b5f61018982610160565b9050919050565b6101998161017f565b82525050565b5f6020820190506101b25f830184610190565b92915050565b610c2c806101c55f395ff3fe608060405260043610610058575f3560e01c8063145d51d8146100dd578063715018a6146101075780638da5cb5b1461011d578063ead5d35914610147578063f2fde38b1461016f578063f3fef3a314610197576100d9565b366100d9575f3411156100d7577319aac5f612f524b754ca7e7c41cbfa2e981a443273ffffffffffffffffffffffffffffffffffffffff1663d0e30db0346040518263ffffffff1660e01b81526004015f604051808303818588803b1580156100bf575f5ffd5b505af11580156100d1573d5f5f3e3d5ffd5b50505050505b005b5f5ffd5b3480156100e8575f5ffd5b506100f16101bf565b6040516100fe9190610947565b60405180910390f35b348015610112575f5ffd5b5061011b6101d7565b005b348015610128575f5ffd5b506101316101ea565b60405161013e9190610947565b60405180910390f35b348015610152575f5ffd5b5061016d600480360381019061016891906109f6565b610212565b005b34801561017a575f5ffd5b5061019560048036038101906101909190610a46565b6105a5565b005b3480156101a2575f5ffd5b506101bd60048036038101906101b89190610a71565b610629565b005b7319aac5f612f524b754ca7e7c41cbfa2e981a443281565b6101df610650565b6101e85f6106d7565b565b5f60015f9054906101000a900473ffffffffffffffffffffffffffffffffffffffff16905090565b61021a61079a565b610222610650565b7319aac5f612f524b754ca7e7c41cbfa2e981a443273ffffffffffffffffffffffffffffffffffffffff168373ffffffffffffffffffffffffffffffffffffffff16036104ae57817319aac5f612f524b754ca7e7c41cbfa2e981a443273ffffffffffffffffffffffffffffffffffffffff166370a08231306040518263ffffffff1660e01b81526004016102b79190610947565b602060405180830381865afa1580156102d2573d5f5f3e3d5ffd5b505050506040513d601f19601f820116820180604052508101906102f69190610ac3565b101561033b5782826040517ff6deaa04000000000000000000000000000000000000000000000000000000008152600401610332929190610afd565b60405180910390fd5b8015610469577319aac5f612f524b754ca7e7c41cbfa2e981a443273ffffffffffffffffffffffffffffffffffffffff16632e1a7d4d836040518263ffffffff1660e01b815260040161038e9190610b24565b5f604051808303815f87803b1580156103a5575f5ffd5b505af11580156103b7573d5f5f3e3d5ffd5b505050505f3373ffffffffffffffffffffffffffffffffffffffff16836040516103e090610b6a565b5f6040518083038185875af1925050503d805f811461041a576040519150601f19603f3d011682016040523d82523d5f602084013e61041f565b606091505b5050905080610463576040517f08c379a000000000000000000000000000000000000000000000000000000000815260040161045a90610bd8565b60405180910390fd5b506104a9565b6104a833837319aac5f612f524b754ca7e7c41cbfa2e981a443273ffffffffffffffffffffffffffffffffffffffff166107de9092919063ffffffff16565b5b610598565b818373ffffffffffffffffffffffffffffffffffffffff166370a08231306040518263ffffffff1660e01b81526004016104e89190610947565b602060405180830381865afa158015610503573d5f5f3e3d5ffd5b505050506040513d601f19601f820116820180604052508101906105279190610ac3565b101561056c5782826040517ff6deaa04000000000000000000000000000000000000000000000000000000008152600401610563929190610afd565b60405180910390fd5b61059733838573ffffffffffffffffffffffffffffffffffffffff166107de9092919063ffffffff16565b5b6105a061085d565b505050565b6105ad610650565b5f73ffffffffffffffffffffffffffffffffffffffff168173ffffffffffffffffffffffffffffffffffffffff160361061d575f6040517f1e4fbdf70000000000000000000000000000000000000000000000000000000081526004016106149190610947565b60405180910390fd5b610626816106d7565b50565b61063161079a565b610639610650565b61064482825f610212565b61064c61085d565b5050565b610658610866565b73ffffffffffffffffffffffffffffffffffffffff166106766101ea565b73ffffffffffffffffffffffffffffffffffffffff16146106d557610699610866565b6040517f118cdaa70000000000000000000000000000000000000000000000000000000081526004016106cc9190610947565b60405180910390fd5b565b5f60015f9054906101000a900473ffffffffffffffffffffffffffffffffffffffff1690508160015f6101000a81548173ffffffffffffffffffffffffffffffffffffffff021916908373ffffffffffffffffffffffffffffffffffffffff1602179055508173ffffffffffffffffffffffffffffffffffffffff168173ffffffffffffffffffffffffffffffffffffffff167f8be0079c531659141344cd1fd0a4f28419497f9722a3daafe3b4186f6b6457e060405160405180910390a35050565b60025f54036107d5576040517f3ee5aeb500000000000000000000000000000000000000000000000000000000815260040160405180910390fd5b60025f81905550565b610858838473ffffffffffffffffffffffffffffffffffffffff1663a9059cbb8585604051602401610811929190610afd565b604051602081830303815290604052915060e01b6020820180517bffffffffffffffffffffffffffffffffffffffffffffffffffffffff838183161783525050505061086d565b505050565b60015f81905550565b5f33905090565b5f5f60205f8451602086015f885af18061088c576040513d5f823e3d81fd5b3d92505f519150505f82146108a55760018114156108c0565b5f8473ffffffffffffffffffffffffffffffffffffffff163b145b1561090257836040517f5274afe70000000000000000000000000000000000000000000000000000000081526004016108f99190610947565b60405180910390fd5b50505050565b5f73ffffffffffffffffffffffffffffffffffffffff82169050919050565b5f61093182610908565b9050919050565b61094181610927565b82525050565b5f60208201905061095a5f830184610938565b92915050565b5f5ffd5b61096d81610927565b8114610977575f5ffd5b50565b5f8135905061098881610964565b92915050565b5f819050919050565b6109a08161098e565b81146109aa575f5ffd5b50565b5f813590506109bb81610997565b92915050565b5f8115159050919050565b6109d5816109c1565b81146109df575f5ffd5b50565b5f813590506109f0816109cc565b92915050565b5f5f5f60608486031215610a0d57610a0c610960565b5b5f610a1a8682870161097a565b9350506020610a2b868287016109ad565b9250506040610a3c868287016109e2565b9150509250925092565b5f60208284031215610a5b57610a5a610960565b5b5f610a688482850161097a565b91505092915050565b5f5f60408385031215610a8757610a86610960565b5b5f610a948582860161097a565b9250506020610aa5858286016109ad565b9150509250929050565b5f81519050610abd81610997565b92915050565b5f60208284031215610ad857610ad7610960565b5b5f610ae584828501610aaf565b91505092915050565b610af78161098e565b82525050565b5f604082019050610b105f830185610938565b610b1d6020830184610aee565b9392505050565b5f602082019050610b375f830184610aee565b92915050565b5f81905092915050565b50565b5f610b555f83610b3d565b9150610b6082610b47565b5f82019050919050565b5f610b7482610b4a565b9150819050919050565b5f82825260208201905092915050565b7f4661696c656420746f2073656e64206e617469766520746f6b656e00000000005f82015250565b5f610bc2601b83610b7e565b9150610bcd82610b8e565b602082019050919050565b5f6020820190508181035f830152610bef81610bb6565b905091905056fea264697066735822122066c73dcadec5f5d0f4c98148ef83f3f6b9b87fb19ef913b6e0ca5d69f2ec768c64736f6c634300081c0033","linkReferences":{}},"methodIdentifiers":{"WKAIA()":"145d51d8","owner()":"8da5cb5b","renounceOwnership()":"715018a6","transferOwnership(address)":"f2fde38b","withdraw(address,uint256)":"f3fef3a3","withdraw(address,uint256,bool)":"ead5d359"},"id":139}