{"abi":[{"type":"constructor","inputs":[],"stateMutability":"nonpayable"},{"type":"fallback","stateMutability":"nonpayable"},{"type":"receive","stateMutability":"payable"},{"type":"function","name":"DRAGON_SWAP_ROUTER","inputs":[],"outputs":[{"name":"","type":"address","internalType":"address"}],"stateMutability":"view"},{"type":"function","name":"OWNER_SHARE","inputs":[],"outputs":[{"name":"","type":"uint256","internalType":"uint256"}],"stateMutability":"view"},{"type":"function","name":"PERCENTAGE_DIVISOR","inputs":[],"outputs":[{"name":"","type":"uint256","internalType":"uint256"}],"stateMutability":"view"},{"type":"function","name":"PROTOCOL_SHARE","inputs":[],"outputs":[{"name":"","type":"uint256","internalType":"uint256"}],"stateMutability":"view"},{"type":"function","name":"WKAIA","inputs":[],"outputs":[{"name":"","type":"address","internalType":"address"}],"stateMutability":"view"},{"type":"function","name":"executeBuyback","inputs":[{"name":"tokenIn","type":"address","internalType":"address"},{"name":"amountIn","type":"uint256","internalType":"uint256"},{"name":"amountOutMinimum","type":"uint256","internalType":"uint256"},{"name":"fee","type":"uint24","internalType":"uint24"},{"name":"deadline","type":"uint256","internalType":"uint256"}],"outputs":[{"name":"totalWkaiaReceived","type":"uint256","internalType":"uint256"}],"stateMutability":"nonpayable"},{"type":"function","name":"executeBuybackSimple","inputs":[{"name":"tokenIn","type":"address","internalType":"address"},{"name":"amountIn","type":"uint256","internalType":"uint256"},{"name":"amountOutMinimum","type":"uint256","internalType":"uint256"},{"name":"fee","type":"uint24","internalType":"uint24"}],"outputs":[{"name":"totalWkaiaReceived","type":"uint256","internalType":"uint256"}],"stateMutability":"nonpayable"},{"type":"function","name":"getOwnerAvailableBalance","inputs":[{"name":"token","type":"address","internalType":"address"}],"outputs":[{"name":"","type":"uint256","internalType":"uint256"}],"stateMutability":"view"},{"type":"function","name":"getProtocolLockedBalance","inputs":[{"name":"token","type":"address","internalType":"address"}],"outputs":[{"name":"","type":"uint256","internalType":"uint256"}],"stateMutability":"view"},{"type":"function","name":"getTotalProtocolBalance","inputs":[{"name":"token","type":"address","internalType":"address"}],"outputs":[{"name":"","type":"uint256","internalType":"uint256"}],"stateMutability":"view"},{"type":"function","name":"owner","inputs":[],"outputs":[{"name":"","type":"address","internalType":"address"}],"stateMutability":"view"},{"type":"function","name":"ownerAvailableBalance","inputs":[{"name":"","type":"address","internalType":"address"}],"outputs":[{"name":"","type":"uint256","internalType":"uint256"}],"stateMutability":"view"},{"type":"function","name":"protocolLockedBalance","inputs":[{"name":"","type":"address","internalType":"address"}],"outputs":[{"name":"","type":"uint256","internalType":"uint256"}],"stateMutability":"view"},{"type":"function","name":"renounceOwnership","inputs":[],"outputs":[],"stateMutability":"nonpayable"},{"type":"function","name":"transferOwnership","inputs":[{"name":"newOwner","type":"address","internalType":"address"}],"outputs":[],"stateMutability":"nonpayable"},{"type":"function","name":"withdraw","inputs":[{"name":"token","type":"address","internalType":"address"},{"name":"amount","type":"uint256","internalType":"uint256"},{"name":"unwrapToNative","type":"bool","internalType":"bool"}],"outputs":[],"stateMutability":"nonpayable"},{"type":"function","name":"withdraw","inputs":[{"name":"token","type":"address","internalType":"address"},{"name":"amount","type":"uint256","internalType":"uint256"}],"outputs":[],"stateMutability":"nonpayable"},{"type":"function","name":"withdrawOwnerBalance","inputs":[{"name":"token","type":"address","internalType":"address"},{"name":"amount","type":"uint256","internalType":"uint256"},{"name":"unwrapToNative","type":"bool","internalType":"bool"}],"outputs":[],"stateMutability":"nonpayable"},{"type":"function","name":"withdrawOwnerBalance","inputs":[{"name":"token","type":"address","internalType":"address"},{"name":"amount","type":"uint256","internalType":"uint256"}],"outputs":[],"stateMutability":"nonpayable"},{"type":"event","name":"BuybackExecuted","inputs":[{"name":"tokenIn","type":"address","indexed":true,"internalType":"address"},{"name":"totalAmountIn","type":"uint256","indexed":false,"internalType":"uint256"},{"name":"protocolAmount","type":"uint256","indexed":false,"internalType":"uint256"},{"name":"ownerAmount","type":"uint256","indexed":false,"internalType":"uint256"},{"name":"wkaiaReceived","type":"uint256","indexed":false,"internalType":"uint256"}],"anonymous":false},{"type":"event","name":"OwnershipTransferred","inputs":[{"name":"previousOwner","type":"address","indexed":true,"internalType":"address"},{"name":"newOwner","type":"address","indexed":true,"internalType":"address"}],"anonymous":false},{"type":"error","name":"CannotSwapWKAIAForWKAIA","inputs":[]},{"type":"error","name":"DeadlinePassed","inputs":[]},{"type":"error","name":"InsufficientBalance","inputs":[{"name":"token","type":"address","internalType":"address"},{"name":"amount","type":"uint256","internalType":"uint256"}]},{"type":"error","name":"InsufficientOutputAmount","inputs":[{"name":"expectedMinimum","type":"uint256","internalType":"uint256"},{"name":"actualOutput","type":"uint256","internalType":"uint256"}]},{"type":"error","name":"InvalidAmount","inputs":[]},{"type":"error","name":"InvalidTokenAddress","inputs":[]},{"type":"error","name":"OwnableInvalidOwner","inputs":[{"name":"owner","type":"address","internalType":"address"}]},{"type":"error","name":"OwnableUnauthorizedAccount","inputs":[{"name":"account","type":"address","internalType":"address"}]},{"type":"error","name":"ReentrancyGuardReentrantCall","inputs":[]},{"type":"error","name":"SafeERC20FailedOperation","inputs":[{"name":"token","type":"address","internalType":"address"}]},{"type":"error","name":"SwapFailed","inputs":[{"name":"tokenIn","type":"address","internalType":"address"},{"name":"tokenOut","type":"address","internalType":"address"},{"name":"amountIn","type":"uint256","internalType":"uint256"}]}],"bytecode":{"object":"0x608060405234801561000f575f5ffd5b503360015f819055505f73ffffffffffffffffffffffffffffffffffffffff168173ffffffffffffffffffffffffffffffffffffffff1603610088575f6040517f1e4fbdf700000000000000000000000000000000000000000000000000000000815260040161007f919061019f565b60405180910390fd5b6100978161009d60201b60201c565b506101b8565b5f60015f9054906101000a900473ffffffffffffffffffffffffffffffffffffffff1690508160015f6101000a81548173ffffffffffffffffffffffffffffffffffffffff021916908373ffffffffffffffffffffffffffffffffffffffff1602179055508173ffffffffffffffffffffffffffffffffffffffff168173ffffffffffffffffffffffffffffffffffffffff167f8be0079c531659141344cd1fd0a4f28419497f9722a3daafe3b4186f6b6457e060405160405180910390a35050565b5f73ffffffffffffffffffffffffffffffffffffffff82169050919050565b5f61018982610160565b9050919050565b6101998161017f565b82525050565b5f6020820190506101b25f830184610190565b92915050565b611fdd806101c55f395ff3fe608060405260043610610117575f3560e01c80637826477e1161009f578063ead5d35911610063578063ead5d35914610495578063ee191b60146104bd578063f2fde38b146104e5578063f3fef3a31461050d578063fc55e0131461053557610198565b80637826477e1461038d5780638da5cb5b146103c9578063a467e0a8146103f3578063c16b10c71461042f578063caf297651461046b57610198565b80633814ccc0116100e65780633814ccc0146102bd57806351adc761146102e75780636a1c6e78146103115780636c95996d1461033b578063715018a61461037757610198565b8063145d51d8146101df57806317930f2614610209578063233dde751461024557806325e900bb1461028157610198565b36610198575f341115610196577319aac5f612f524b754ca7e7c41cbfa2e981a443273ffffffffffffffffffffffffffffffffffffffff1663d0e30db0346040518263ffffffff1660e01b81526004015f604051808303818588803b15801561017e575f5ffd5b505af1158015610190573d5f5f3e3d5ffd5b50505050505b005b3480156101a3575f5ffd5b506040517f08c379a00000000000000000000000000000000000000000000000000000000081526004016101d6906118ba565b60405180910390fd5b3480156101ea575f5ffd5b506101f361055d565b6040516102009190611917565b60405180910390f35b348015610214575f5ffd5b5061022f600480360381019061022a919061195e565b610575565b60405161023c91906119a1565b60405180910390f35b348015610250575f5ffd5b5061026b6004803603810190610266919061195e565b6105f5565b60405161027891906119a1565b60405180910390f35b34801561028c575f5ffd5b506102a760048036038101906102a2919061195e565b61060a565b6040516102b491906119a1565b60405180910390f35b3480156102c8575f5ffd5b506102d1610650565b6040516102de9190611917565b60405180910390f35b3480156102f2575f5ffd5b506102fb610668565b60405161030891906119a1565b60405180910390f35b34801561031c575f5ffd5b5061032561066d565b60405161033291906119a1565b60405180910390f35b348015610346575f5ffd5b50610361600480360381019061035c9190611a1c565b610672565b60405161036e91906119a1565b60405180910390f35b348015610382575f5ffd5b5061038b61069f565b005b348015610398575f5ffd5b506103b360048036038101906103ae919061195e565b6106b2565b6040516103c091906119a1565b60405180910390f35b3480156103d4575f5ffd5b506103dd6106c7565b6040516103ea9190611917565b60405180910390f35b3480156103fe575f5ffd5b506104196004803603810190610414919061195e565b6106ef565b60405161042691906119a1565b60405180910390f35b34801561043a575f5ffd5b5061045560048036038101906104509190611a80565b610735565b60405161046291906119a1565b60405180910390f35b348015610476575f5ffd5b5061047f61075e565b60405161048c91906119a1565b60405180910390f35b3480156104a0575f5ffd5b506104bb60048036038101906104b69190611b2c565b610763565b005b3480156104c8575f5ffd5b506104e360048036038101906104de9190611b2c565b610af6565b005b3480156104f0575f5ffd5b5061050b6004803603810190610506919061195e565b610dd0565b005b348015610518575f5ffd5b50610533600480360381019061052e9190611b7c565b610e54565b005b348015610540575f5ffd5b5061055b60048036038101906105569190611b7c565b610e7b565b005b7319aac5f612f524b754ca7e7c41cbfa2e981a443281565b5f8173ffffffffffffffffffffffffffffffffffffffff166370a08231306040518263ffffffff1660e01b81526004016105af9190611917565b602060405180830381865afa1580156105ca573d5f5f3e3d5ffd5b505050506040513d601f19601f820116820180604052508101906105ee9190611bce565b9050919050565b6002602052805f5260405f205f915090505481565b5f60025f8373ffffffffffffffffffffffffffffffffffffffff1673ffffffffffffffffffffffffffffffffffffffff1681526020019081526020015f20549050919050565b73a324880f884036e3d21a09b90269e1ac57c7ec8a81565b605f81565b600581565b5f61067b610e92565b61069585858585610e10426106909190611c26565b610f19565b9050949350505050565b6106a7610e92565b6106b05f61162f565b565b6003602052805f5260405f205f915090505481565b5f60015f9054906101000a900473ffffffffffffffffffffffffffffffffffffffff16905090565b5f60035f8373ffffffffffffffffffffffffffffffffffffffff1673ffffffffffffffffffffffffffffffffffffffff1681526020019081526020015f20549050919050565b5f61073e6116f2565b61074b8686868686610f19565b9050610755611736565b95945050505050565b606481565b61076b6116f2565b610773610e92565b7319aac5f612f524b754ca7e7c41cbfa2e981a443273ffffffffffffffffffffffffffffffffffffffff168373ffffffffffffffffffffffffffffffffffffffff16036109ff57817319aac5f612f524b754ca7e7c41cbfa2e981a443273ffffffffffffffffffffffffffffffffffffffff166370a08231306040518263ffffffff1660e01b81526004016108089190611917565b602060405180830381865afa158015610823573d5f5f3e3d5ffd5b505050506040513d601f19601f820116820180604052508101906108479190611bce565b101561088c5782826040517ff6deaa04000000000000000000000000000000000000000000000000000000008152600401610883929190611c59565b60405180910390fd5b80156109ba577319aac5f612f524b754ca7e7c41cbfa2e981a443273ffffffffffffffffffffffffffffffffffffffff16632e1a7d4d836040518263ffffffff1660e01b81526004016108df91906119a1565b5f604051808303815f87803b1580156108f6575f5ffd5b505af1158015610908573d5f5f3e3d5ffd5b505050505f3373ffffffffffffffffffffffffffffffffffffffff168360405161093190611cad565b5f6040518083038185875af1925050503d805f811461096b576040519150601f19603f3d011682016040523d82523d5f602084013e610970565b606091505b50509050806109b4576040517f08c379a00000000000000000000000000000000000000000000000000000000081526004016109ab90611d0b565b60405180910390fd5b506109fa565b6109f933837319aac5f612f524b754ca7e7c41cbfa2e981a443273ffffffffffffffffffffffffffffffffffffffff1661173f9092919063ffffffff16565b5b610ae9565b818373ffffffffffffffffffffffffffffffffffffffff166370a08231306040518263ffffffff1660e01b8152600401610a399190611917565b602060405180830381865afa158015610a54573d5f5f3e3d5ffd5b505050506040513d601f19601f82011682018060405250810190610a789190611bce565b1015610abd5782826040517ff6deaa04000000000000000000000000000000000000000000000000000000008152600401610ab4929190611c59565b60405180910390fd5b610ae833838573ffffffffffffffffffffffffffffffffffffffff1661173f9092919063ffffffff16565b5b610af1611736565b505050565b610afe6116f2565b610b06610e92565b60035f8473ffffffffffffffffffffffffffffffffffffffff1673ffffffffffffffffffffffffffffffffffffffff1681526020019081526020015f2054821115610b8a5782826040517ff6deaa04000000000000000000000000000000000000000000000000000000008152600401610b81929190611c59565b60405180910390fd5b8160035f8573ffffffffffffffffffffffffffffffffffffffff1673ffffffffffffffffffffffffffffffffffffffff1681526020019081526020015f205f828254610bd69190611d29565b925050819055507319aac5f612f524b754ca7e7c41cbfa2e981a443273ffffffffffffffffffffffffffffffffffffffff168373ffffffffffffffffffffffffffffffffffffffff1603610d97578015610d52577319aac5f612f524b754ca7e7c41cbfa2e981a443273ffffffffffffffffffffffffffffffffffffffff16632e1a7d4d836040518263ffffffff1660e01b8152600401610c7791906119a1565b5f604051808303815f87803b158015610c8e575f5ffd5b505af1158015610ca0573d5f5f3e3d5ffd5b505050505f3373ffffffffffffffffffffffffffffffffffffffff1683604051610cc990611cad565b5f6040518083038185875af1925050503d805f8114610d03576040519150601f19603f3d011682016040523d82523d5f602084013e610d08565b606091505b5050905080610d4c576040517f08c379a0000000000000000000000000000000000000000000000000000000008152600401610d4390611d0b565b60405180910390fd5b50610d92565b610d9133837319aac5f612f524b754ca7e7c41cbfa2e981a443273ffffffffffffffffffffffffffffffffffffffff1661173f9092919063ffffffff16565b5b610dc3565b610dc233838573ffffffffffffffffffffffffffffffffffffffff1661173f9092919063ffffffff16565b5b610dcb611736565b505050565b610dd8610e92565b5f73ffffffffffffffffffffffffffffffffffffffff168173ffffffffffffffffffffffffffffffffffffffff1603610e48575f6040517f1e4fbdf7000000000000000000000000000000000000000000000000000000008152600401610e3f9190611917565b60405180910390fd5b610e518161162f565b50565b610e5c6116f2565b610e64610e92565b610e6f82825f610763565b610e77611736565b5050565b610e83610e92565b610e8e82825f610af6565b5050565b610e9a6117be565b73ffffffffffffffffffffffffffffffffffffffff16610eb86106c7565b73ffffffffffffffffffffffffffffffffffffffff1614610f1757610edb6117be565b6040517f118cdaa7000000000000000000000000000000000000000000000000000000008152600401610f0e9190611917565b60405180910390fd5b565b5f5f73ffffffffffffffffffffffffffffffffffffffff168673ffffffffffffffffffffffffffffffffffffffff1603610f7f576040517f1eb00b0600000000000000000000000000000000000000000000000000000000815260040160405180910390fd5b5f8503610fb8576040517f2c5211c600000000000000000000000000000000000000000000000000000000815260040160405180910390fd5b428211610ff1576040517f70f65caa00000000000000000000000000000000000000000000000000000000815260040160405180910390fd5b7319aac5f612f524b754ca7e7c41cbfa2e981a443273ffffffffffffffffffffffffffffffffffffffff168673ffffffffffffffffffffffffffffffffffffffff160361106a576040517f0dace63700000000000000000000000000000000000000000000000000000000815260040160405180910390fd5b5f8673ffffffffffffffffffffffffffffffffffffffff166370a08231306040518263ffffffff1660e01b81526004016110a49190611917565b602060405180830381865afa1580156110bf573d5f5f3e3d5ffd5b505050506040513d601f19601f820116820180604052508101906110e39190611bce565b90508581101561112c5786866040517ff6deaa04000000000000000000000000000000000000000000000000000000008152600401611123929190611c59565b60405180910390fd5b5f6064605f8861113c9190611d5c565b6111469190611dca565b90505f81886111559190611d29565b90508873ffffffffffffffffffffffffffffffffffffffff1663095ea7b373a324880f884036e3d21a09b90269e1ac57c7ec8a8a6040518363ffffffff1660e01b81526004016111a6929190611c59565b6020604051808303815f875af11580156111c2573d5f5f3e3d5ffd5b505050506040513d601f19601f820116820180604052508101906111e69190611e0e565b505f6040518061010001604052808b73ffffffffffffffffffffffffffffffffffffffff1681526020017319aac5f612f524b754ca7e7c41cbfa2e981a443273ffffffffffffffffffffffffffffffffffffffff1681526020018862ffffff1681526020013073ffffffffffffffffffffffffffffffffffffffff1681526020018781526020018481526020016064605f8b6112829190611d5c565b61128c9190611dca565b81526020015f73ffffffffffffffffffffffffffffffffffffffff1681525090505f73a324880f884036e3d21a09b90269e1ac57c7ec8a73ffffffffffffffffffffffffffffffffffffffff1663414bf389836040518263ffffffff1660e01b81526004016112fb9190611f15565b6020604051808303815f875af192505050801561133657506040513d601f19601f820116820180604052508101906113339190611bce565b60015b61138f578a7319aac5f612f524b754ca7e7c41cbfa2e981a4432856040517f6930176300000000000000000000000000000000000000000000000000000000815260040161138693929190611f2f565b60405180910390fd5b809150508060025f7319aac5f612f524b754ca7e7c41cbfa2e981a443273ffffffffffffffffffffffffffffffffffffffff1673ffffffffffffffffffffffffffffffffffffffff1681526020019081526020015f205f8282546113f39190611c26565b925050819055505f5f90505f8411156115be57838360a00181815250506114186106c7565b836060019073ffffffffffffffffffffffffffffffffffffffff16908173ffffffffffffffffffffffffffffffffffffffff1681525050606460058b61145e9190611d5c565b6114689190611dca565b8360c001818152505073a324880f884036e3d21a09b90269e1ac57c7ec8a73ffffffffffffffffffffffffffffffffffffffff1663414bf389846040518263ffffffff1660e01b81526004016114be9190611f15565b6020604051808303815f875af19250505080156114f957506040513d601f19601f820116820180604052508101906114f69190611bce565b60015b611552578b7319aac5f612f524b754ca7e7c41cbfa2e981a4432856040517f6930176300000000000000000000000000000000000000000000000000000000815260040161154993929190611f2f565b60405180910390fd5b8091508160035f7319aac5f612f524b754ca7e7c41cbfa2e981a443273ffffffffffffffffffffffffffffffffffffffff1673ffffffffffffffffffffffffffffffffffffffff1681526020019081526020015f205f8282546115b59190611c26565b92505081905550505b80826115ca9190611c26565b96508b73ffffffffffffffffffffffffffffffffffffffff167faf366b19453ca08fb17cdfa68aabc4aa2127edc0b322a6f2fcd8c6d525dcf50d8c87878b6040516116189493929190611f64565b60405180910390a250505050505095945050505050565b5f60015f9054906101000a900473ffffffffffffffffffffffffffffffffffffffff1690508160015f6101000a81548173ffffffffffffffffffffffffffffffffffffffff021916908373ffffffffffffffffffffffffffffffffffffffff1602179055508173ffffffffffffffffffffffffffffffffffffffff168173ffffffffffffffffffffffffffffffffffffffff167f8be0079c531659141344cd1fd0a4f28419497f9722a3daafe3b4186f6b6457e060405160405180910390a35050565b60025f540361172d576040517f3ee5aeb500000000000000000000000000000000000000000000000000000000815260040160405180910390fd5b60025f81905550565b60015f81905550565b6117b9838473ffffffffffffffffffffffffffffffffffffffff1663a9059cbb8585604051602401611772929190611c59565b604051602081830303815290604052915060e01b6020820180517bffffffffffffffffffffffffffffffffffffffffffffffffffffffff83818316178352505050506117c5565b505050565b5f33905090565b5f5f60205f8451602086015f885af1806117e4576040513d5f823e3d81fd5b3d92505f519150505f82146117fd576001811415611818565b5f8473ffffffffffffffffffffffffffffffffffffffff163b145b1561185a57836040517f5274afe70000000000000000000000000000000000000000000000000000000081526004016118519190611917565b60405180910390fd5b50505050565b5f82825260208201905092915050565b7f46616c6c6261636b206e6f7420616c6c6f7765640000000000000000000000005f82015250565b5f6118a4601483611860565b91506118af82611870565b602082019050919050565b5f6020820190508181035f8301526118d181611898565b9050919050565b5f73ffffffffffffffffffffffffffffffffffffffff82169050919050565b5f611901826118d8565b9050919050565b611911816118f7565b82525050565b5f60208201905061192a5f830184611908565b92915050565b5f5ffd5b61193d816118f7565b8114611947575f5ffd5b50565b5f8135905061195881611934565b92915050565b5f6020828403121561197357611972611930565b5b5f6119808482850161194a565b91505092915050565b5f819050919050565b61199b81611989565b82525050565b5f6020820190506119b45f830184611992565b92915050565b6119c381611989565b81146119cd575f5ffd5b50565b5f813590506119de816119ba565b92915050565b5f62ffffff82169050919050565b6119fb816119e4565b8114611a05575f5ffd5b50565b5f81359050611a16816119f2565b92915050565b5f5f5f5f60808587031215611a3457611a33611930565b5b5f611a418782880161194a565b9450506020611a52878288016119d0565b9350506040611a63878288016119d0565b9250506060611a7487828801611a08565b91505092959194509250565b5f5f5f5f5f60a08688031215611a9957611a98611930565b5b5f611aa68882890161194a565b9550506020611ab7888289016119d0565b9450506040611ac8888289016119d0565b9350506060611ad988828901611a08565b9250506080611aea888289016119d0565b9150509295509295909350565b5f8115159050919050565b611b0b81611af7565b8114611b15575f5ffd5b50565b5f81359050611b2681611b02565b92915050565b5f5f5f60608486031215611b4357611b42611930565b5b5f611b508682870161194a565b9350506020611b61868287016119d0565b9250506040611b7286828701611b18565b9150509250925092565b5f5f60408385031215611b9257611b91611930565b5b5f611b9f8582860161194a565b9250506020611bb0858286016119d0565b9150509250929050565b5f81519050611bc8816119ba565b92915050565b5f60208284031215611be357611be2611930565b5b5f611bf084828501611bba565b91505092915050565b7f4e487b71000000000000000000000000000000000000000000000000000000005f52601160045260245ffd5b5f611c3082611989565b9150611c3b83611989565b9250828201905080821115611c5357611c52611bf9565b5b92915050565b5f604082019050611c6c5f830185611908565b611c796020830184611992565b9392505050565b5f81905092915050565b50565b5f611c985f83611c80565b9150611ca382611c8a565b5f82019050919050565b5f611cb782611c8d565b9150819050919050565b7f4661696c656420746f2073656e64206e617469766520746f6b656e00000000005f82015250565b5f611cf5601b83611860565b9150611d0082611cc1565b602082019050919050565b5f6020820190508181035f830152611d2281611ce9565b9050919050565b5f611d3382611989565b9150611d3e83611989565b9250828203905081811115611d5657611d55611bf9565b5b92915050565b5f611d6682611989565b9150611d7183611989565b9250828202611d7f81611989565b91508282048414831517611d9657611d95611bf9565b5b5092915050565b7f4e487b71000000000000000000000000000000000000000000000000000000005f52601260045260245ffd5b5f611dd482611989565b9150611ddf83611989565b925082611def57611dee611d9d565b5b828204905092915050565b5f81519050611e0881611b02565b92915050565b5f60208284031215611e2357611e22611930565b5b5f611e3084828501611dfa565b91505092915050565b611e42816118f7565b82525050565b611e51816119e4565b82525050565b611e6081611989565b82525050565b611e6f816118d8565b82525050565b61010082015f820151611e8a5f850182611e39565b506020820151611e9d6020850182611e39565b506040820151611eb06040850182611e48565b506060820151611ec36060850182611e39565b506080820151611ed66080850182611e57565b5060a0820151611ee960a0850182611e57565b5060c0820151611efc60c0850182611e57565b5060e0820151611f0f60e0850182611e66565b50505050565b5f61010082019050611f295f830184611e75565b92915050565b5f606082019050611f425f830186611908565b611f4f6020830185611908565b611f5c6040830184611992565b949350505050565b5f608082019050611f775f830187611992565b611f846020830186611992565b611f916040830185611992565b611f9e6060830184611992565b9594505050505056fea2646970667358221220f2dd14f76d2a6517db6edd21ff868a0ac15166963efc8bbcfa0e24a4e938756a64736f6c634300081c0033","linkReferences":{}},"methodIdentifiers":{"DRAGON_SWAP_ROUTER()":"3814ccc0","OWNER_SHARE()":"6a1c6e78","PERCENTAGE_DIVISOR()":"caf29765","PROTOCOL_SHARE()":"51adc761","WKAIA()":"145d51d8","executeBuyback(address,uint256,uint256,uint24,uint256)":"c16b10c7","executeBuybackSimple(address,uint256,uint256,uint24)":"6c95996d","getOwnerAvailableBalance(address)":"a467e0a8","getProtocolLockedBalance(address)":"25e900bb","getTotalProtocolBalance(address)":"17930f26","owner()":"8da5cb5b","ownerAvailableBalance(address)":"7826477e","protocolLockedBalance(address)":"233dde75","renounceOwnership()":"715018a6","transferOwnership(address)":"f2fde38b","withdraw(address,uint256)":"f3fef3a3","withdraw(address,uint256,bool)":"ead5d359","withdrawOwnerBalance(address,uint256)":"fc55e013","withdrawOwnerBalance(address,uint256,bool)":"ee191b60"},"id":144}