{"abi":[{"type":"constructor","inputs":[],"stateMutability":"nonpayable"},{"type":"fallback","stateMutability":"nonpayable"},{"type":"function","name":"DEFAULT_ADMIN_ROLE","inputs":[],"outputs":[{"name":"","type":"bytes32","internalType":"bytes32"}],"stateMutability":"view"},{"type":"function","name":"OWNER_ROLE","inputs":[],"outputs":[{"name":"","type":"bytes32","internalType":"bytes32"}],"stateMutability":"view"},{"type":"function","name":"PAUSER_ROLE","inputs":[],"outputs":[{"name":"","type":"bytes32","internalType":"bytes32"}],"stateMutability":"view"},{"type":"function","name":"UPGRADER_ROLE","inputs":[],"outputs":[{"name":"","type":"bytes32","internalType":"bytes32"}],"stateMutability":"view"},{"type":"function","name":"UPGRADE_INTERFACE_VERSION","inputs":[],"outputs":[{"name":"","type":"string","internalType":"string"}],"stateMutability":"view"},{"type":"function","name":"chainIdToEid","inputs":[{"name":"","type":"uint256","internalType":"uint256"}],"outputs":[{"name":"","type":"uint32","internalType":"uint32"}],"stateMutability":"view"},{"type":"function","name":"createLendingPool","inputs":[{"name":"_lendingPoolParams","type":"tuple","internalType":"struct LendingPoolFactory.LendingPoolParams","components":[{"name":"collateralToken","type":"address","internalType":"address"},{"name":"borrowToken","type":"address","internalType":"address"},{"name":"ltv","type":"uint256","internalType":"uint256"},{"name":"supplyLiquidity","type":"uint256","internalType":"uint256"},{"name":"baseRate","type":"uint256","internalType":"uint256"},{"name":"rateAtOptimal","type":"uint256","internalType":"uint256"},{"name":"optimalUtilization","type":"uint256","internalType":"uint256"},{"name":"maxUtilization","type":"uint256","internalType":"uint256"},{"name":"liquidationThreshold","type":"uint256","internalType":"uint256"},{"name":"liquidationBonus","type":"uint256","internalType":"uint256"}]}],"outputs":[{"name":"","type":"address","internalType":"address"}],"stateMutability":"nonpayable"},{"type":"function","name":"dexRouter","inputs":[],"outputs":[{"name":"","type":"address","internalType":"address"}],"stateMutability":"view"},{"type":"function","name":"getRoleAdmin","inputs":[{"name":"role","type":"bytes32","internalType":"bytes32"}],"outputs":[{"name":"","type":"bytes32","internalType":"bytes32"}],"stateMutability":"view"},{"type":"function","name":"grantRole","inputs":[{"name":"role","type":"bytes32","internalType":"bytes32"},{"name":"account","type":"address","internalType":"address"}],"outputs":[],"stateMutability":"nonpayable"},{"type":"function","name":"hasRole","inputs":[{"name":"role","type":"bytes32","internalType":"bytes32"},{"name":"account","type":"address","internalType":"address"}],"outputs":[{"name":"","type":"bool","internalType":"bool"}],"stateMutability":"view"},{"type":"function","name":"initialize","inputs":[{"name":"_isHealthy","type":"address","internalType":"address"},{"name":"_lendingPoolRouterDeployer","type":"address","internalType":"address"},{"name":"_lendingPoolDeployer","type":"address","internalType":"address"},{"name":"_protocol","type":"address","internalType":"address"},{"name":"_positionDeployer","type":"address","internalType":"address"}],"outputs":[],"stateMutability":"nonpayable"},{"type":"function","name":"interestRateModel","inputs":[],"outputs":[{"name":"","type":"address","internalType":"address"}],"stateMutability":"view"},{"type":"function","name":"isHealthy","inputs":[],"outputs":[{"name":"","type":"address","internalType":"address"}],"stateMutability":"view"},{"type":"function","name":"lendingPoolDeployer","inputs":[],"outputs":[{"name":"","type":"address","internalType":"address"}],"stateMutability":"view"},{"type":"function","name":"lendingPoolRouterDeployer","inputs":[],"outputs":[{"name":"","type":"address","internalType":"address"}],"stateMutability":"view"},{"type":"function","name":"minAmountSupplyLiquidity","inputs":[{"name":"","type":"address","internalType":"address"}],"outputs":[{"name":"","type":"uint256","internalType":"uint256"}],"stateMutability":"view"},{"type":"function","name":"oftAddress","inputs":[{"name":"","type":"address","internalType":"address"}],"outputs":[{"name":"","type":"address","internalType":"address"}],"stateMutability":"view"},{"type":"function","name":"operator","inputs":[{"name":"","type":"address","internalType":"address"}],"outputs":[{"name":"","type":"bool","internalType":"bool"}],"stateMutability":"view"},{"type":"function","name":"pause","inputs":[],"outputs":[],"stateMutability":"nonpayable"},{"type":"function","name":"paused","inputs":[],"outputs":[{"name":"","type":"bool","internalType":"bool"}],"stateMutability":"view"},{"type":"function","name":"positionDeployer","inputs":[],"outputs":[{"name":"","type":"address","internalType":"address"}],"stateMutability":"view"},{"type":"function","name":"protocol","inputs":[],"outputs":[{"name":"","type":"address","internalType":"address"}],"stateMutability":"view"},{"type":"function","name":"proxiableUUID","inputs":[],"outputs":[{"name":"","type":"bytes32","internalType":"bytes32"}],"stateMutability":"view"},{"type":"function","name":"renounceRole","inputs":[{"name":"role","type":"bytes32","internalType":"bytes32"},{"name":"callerConfirmation","type":"address","internalType":"address"}],"outputs":[],"stateMutability":"nonpayable"},{"type":"function","name":"revokeRole","inputs":[{"name":"role","type":"bytes32","internalType":"bytes32"},{"name":"account","type":"address","internalType":"address"}],"outputs":[],"stateMutability":"nonpayable"},{"type":"function","name":"setChainIdToEid","inputs":[{"name":"_chainId","type":"uint256","internalType":"uint256"},{"name":"_eid","type":"uint32","internalType":"uint32"}],"outputs":[],"stateMutability":"nonpayable"},{"type":"function","name":"setDexRouter","inputs":[{"name":"_dexRouter","type":"address","internalType":"address"}],"outputs":[],"stateMutability":"nonpayable"},{"type":"function","name":"setInterestRateModel","inputs":[{"name":"_interestRateModel","type":"address","internalType":"address"}],"outputs":[],"stateMutability":"nonpayable"},{"type":"function","name":"setIsHealthy","inputs":[{"name":"_isHealthy","type":"address","internalType":"address"}],"outputs":[],"stateMutability":"nonpayable"},{"type":"function","name":"setLendingPoolDeployer","inputs":[{"name":"_lendingPoolDeployer","type":"address","internalType":"address"}],"outputs":[],"stateMutability":"nonpayable"},{"type":"function","name":"setLendingPoolRouterDeployer","inputs":[{"name":"_lendingPoolRouterDeployer","type":"address","internalType":"address"}],"outputs":[],"stateMutability":"nonpayable"},{"type":"function","name":"setMinAmountSupplyLiquidity","inputs":[{"name":"_token","type":"address","internalType":"address"},{"name":"_minAmountSupplyLiquidity","type":"uint256","internalType":"uint256"}],"outputs":[],"stateMutability":"nonpayable"},{"type":"function","name":"setOftAddress","inputs":[{"name":"_token","type":"address","internalType":"address"},{"name":"_oftAddress","type":"address","internalType":"address"}],"outputs":[],"stateMutability":"nonpayable"},{"type":"function","name":"setOperator","inputs":[{"name":"_operator","type":"address","internalType":"address"},{"name":"_status","type":"bool","internalType":"bool"}],"outputs":[],"stateMutability":"nonpayable"},{"type":"function","name":"setPositionDeployer","inputs":[{"name":"_positionDeployer","type":"address","internalType":"address"}],"outputs":[],"stateMutability":"nonpayable"},{"type":"function","name":"setProtocol","inputs":[{"name":"_protocol","type":"address","internalType":"address"}],"outputs":[],"stateMutability":"nonpayable"},{"type":"function","name":"setTokenDataStream","inputs":[{"name":"_tokenDataStream","type":"address","internalType":"address"}],"outputs":[],"stateMutability":"nonpayable"},{"type":"function","name":"setWrappedNative","inputs":[{"name":"_wrappedNative","type":"address","internalType":"address"}],"outputs":[],"stateMutability":"nonpayable"},{"type":"function","name":"supportsInterface","inputs":[{"name":"interfaceId","type":"bytes4","internalType":"bytes4"}],"outputs":[{"name":"","type":"bool","internalType":"bool"}],"stateMutability":"view"},{"type":"function","name":"tokenDataStream","inputs":[],"outputs":[{"name":"","type":"address","internalType":"address"}],"stateMutability":"view"},{"type":"function","name":"unpause","inputs":[],"outputs":[],"stateMutability":"nonpayable"},{"type":"function","name":"upgradeToAndCall","inputs":[{"name":"newImplementation","type":"address","internalType":"address"},{"name":"data","type":"bytes","internalType":"bytes"}],"outputs":[],"stateMutability":"payable"},{"type":"function","name":"wrappedNative","inputs":[],"outputs":[{"name":"","type":"address","internalType":"address"}],"stateMutability":"view"},{"type":"event","name":"ChainIdToEidSet","inputs":[{"name":"chainId","type":"uint256","indexed":true,"internalType":"uint256"},{"name":"eid","type":"uint32","indexed":true,"internalType":"uint32"}],"anonymous":false},{"type":"event","name":"DexRouterSet","inputs":[{"name":"dexRouter","type":"address","indexed":true,"internalType":"address"}],"anonymous":false},{"type":"event","name":"Initialized","inputs":[{"name":"version","type":"uint64","indexed":false,"internalType":"uint64"}],"anonymous":false},{"type":"event","name":"InterestRateModelSet","inputs":[{"name":"interestRateModel","type":"address","indexed":true,"internalType":"address"}],"anonymous":false},{"type":"event","name":"IsHealthySet","inputs":[{"name":"isHealthy","type":"address","indexed":true,"internalType":"address"}],"anonymous":false},{"type":"event","name":"LendingPoolCreated","inputs":[{"name":"collateralToken","type":"address","indexed":true,"internalType":"address"},{"name":"borrowToken","type":"address","indexed":true,"internalType":"address"},{"name":"lendingPool","type":"address","indexed":true,"internalType":"address"},{"name":"ltv","type":"uint256","indexed":false,"internalType":"uint256"}],"anonymous":false},{"type":"event","name":"LendingPoolDeployerSet","inputs":[{"name":"lendingPoolDeployer","type":"address","indexed":true,"internalType":"address"}],"anonymous":false},{"type":"event","name":"LendingPoolRouterDeployerSet","inputs":[{"name":"lendingPoolRouterDeployer","type":"address","indexed":true,"internalType":"address"}],"anonymous":false},{"type":"event","name":"MinAmountSupplyLiquiditySet","inputs":[{"name":"token","type":"address","indexed":true,"internalType":"address"},{"name":"minAmountSupplyLiquidity","type":"uint256","indexed":true,"internalType":"uint256"}],"anonymous":false},{"type":"event","name":"OftAddressSet","inputs":[{"name":"token","type":"address","indexed":true,"internalType":"address"},{"name":"oftAddress","type":"address","indexed":true,"internalType":"address"}],"anonymous":false},{"type":"event","name":"OperatorSet","inputs":[{"name":"operator","type":"address","indexed":true,"internalType":"address"},{"name":"status","type":"bool","indexed":false,"internalType":"bool"}],"anonymous":false},{"type":"event","name":"Paused","inputs":[{"name":"account","type":"address","indexed":false,"internalType":"address"}],"anonymous":false},{"type":"event","name":"PositionDeployerSet","inputs":[{"name":"positionDeployer","type":"address","indexed":true,"internalType":"address"}],"anonymous":false},{"type":"event","name":"ProtocolSet","inputs":[{"name":"protocol","type":"address","indexed":true,"internalType":"address"}],"anonymous":false},{"type":"event","name":"RoleAdminChanged","inputs":[{"name":"role","type":"bytes32","indexed":true,"internalType":"bytes32"},{"name":"previousAdminRole","type":"bytes32","indexed":true,"internalType":"bytes32"},{"name":"newAdminRole","type":"bytes32","indexed":true,"internalType":"bytes32"}],"anonymous":false},{"type":"event","name":"RoleGranted","inputs":[{"name":"role","type":"bytes32","indexed":true,"internalType":"bytes32"},{"name":"account","type":"address","indexed":true,"internalType":"address"},{"name":"sender","type":"address","indexed":true,"internalType":"address"}],"anonymous":false},{"type":"event","name":"RoleRevoked","inputs":[{"name":"role","type":"bytes32","indexed":true,"internalType":"bytes32"},{"name":"account","type":"address","indexed":true,"internalType":"address"},{"name":"sender","type":"address","indexed":true,"internalType":"address"}],"anonymous":false},{"type":"event","name":"TokenDataStreamSet","inputs":[{"name":"tokenDataStream","type":"address","indexed":true,"internalType":"address"}],"anonymous":false},{"type":"event","name":"Unpaused","inputs":[{"name":"account","type":"address","indexed":false,"internalType":"address"}],"anonymous":false},{"type":"event","name":"Upgraded","inputs":[{"name":"implementation","type":"address","indexed":true,"internalType":"address"}],"anonymous":false},{"type":"event","name":"WrappedNativeSet","inputs":[{"name":"wrappedNative","type":"address","indexed":true,"internalType":"address"}],"anonymous":false},{"type":"error","name":"AccessControlBadConfirmation","inputs":[]},{"type":"error","name":"AccessControlUnauthorizedAccount","inputs":[{"name":"account","type":"address","internalType":"address"},{"name":"neededRole","type":"bytes32","internalType":"bytes32"}]},{"type":"error","name":"AddressEmptyCode","inputs":[{"name":"target","type":"address","internalType":"address"}]},{"type":"error","name":"ERC1967InvalidImplementation","inputs":[{"name":"implementation","type":"address","internalType":"address"}]},{"type":"error","name":"ERC1967NonPayable","inputs":[]},{"type":"error","name":"EnforcedPause","inputs":[]},{"type":"error","name":"ExpectedPause","inputs":[]},{"type":"error","name":"FailedCall","inputs":[]},{"type":"error","name":"InvalidInitialization","inputs":[]},{"type":"error","name":"MinAmountSupplyLiquidityExceeded","inputs":[{"name":"amount","type":"uint256","internalType":"uint256"},{"name":"minAmountSupplyLiquidity","type":"uint256","internalType":"uint256"}]},{"type":"error","name":"NotInitializing","inputs":[]},{"type":"error","name":"OracleOnTokenNotSet","inputs":[{"name":"token","type":"address","internalType":"address"}]},{"type":"error","name":"SafeERC20FailedOperation","inputs":[{"name":"token","type":"address","internalType":"address"}]},{"type":"error","name":"UUPSUnauthorizedCallContext","inputs":[]},{"type":"error","name":"UUPSUnsupportedProxiableUUID","inputs":[{"name":"slot","type":"bytes32","internalType":"bytes32"}]}],"bytecode":{"object":"0x60a06040523073ffffffffffffffffffffffffffffffffffffffff1660809073ffffffffffffffffffffffffffffffffffffffff16815250348015610042575f5ffd5b5061005161005660201b60201c565b6101d1565b5f61006561015460201b60201c565b9050805f0160089054906101000a900460ff16156100af576040517ff92ee8a900000000000000000000000000000000000000000000000000000000815260040160405180910390fd5b67ffffffffffffffff8016815f015f9054906101000a900467ffffffffffffffff1667ffffffffffffffff16146101515767ffffffffffffffff815f015f6101000a81548167ffffffffffffffff021916908367ffffffffffffffff1602179055507fc7f505b2f371ae2175ee4913f4499e1f2633a7b5936321eed1cdaeb6115181d267ffffffffffffffff60405161014891906101b8565b60405180910390a15b50565b5f5f61016461016d60201b60201c565b90508091505090565b5f7ff0c57e16840df040f15088dc2f81fe391c3923bec73e23a9662efc9c229c6a005f1b905090565b5f67ffffffffffffffff82169050919050565b6101b281610196565b82525050565b5f6020820190506101cb5f8301846101a9565b92915050565b608051613b056101f75f395f81816125e90152818161263e015261281b0152613b055ff3fe608060405260043610610269575f3560e01c80638cb3aaa311610143578063e58378bb116100b5578063f09a0d6b11610079578063f09a0d6b146108df578063f151e49714610907578063f3fdb15a14610943578063f72c0d8b1461096d578063f72f863b14610997578063f8446dcd146109bf5761026a565b8063e58378bb146107fb578063e63ab1e914610825578063e949f3c91461084f578063eb6d3a1114610879578063efe1b2cd146108a35761026a565b80639cc8b2d1116101075780639cc8b2d114610703578063a217fddf1461072b578063ad3cb1cc14610755578063bd3b54711461077f578063d547741f146107a9578063e4020804146107d15761026a565b80638cb3aaa3146106115780638ce74426146106395780638dc15a661461066357806391d148541461068b5780639a307391146106c75761026a565b806342e681d8116101dc57806359917d7d116101a057806359917d7d1461051b5780635c975abb14610543578063658f86f51461056d57806375b568a6146105a95780638456cb59146105d35780638bcd4016146105e95761026a565b806342e681d81461045b5780634f1ef2861461048557806352cb60ca146104a157806352d1902d146104c9578063558a7297146104f35761026a565b8063248a9ca31161022e578063248a9ca3146103555780632f2ff15d1461039157806336568abe146103b957806339a2e638146103e15780633f4ba83a146104095780633fcaacdf1461041f5761026a565b8062546b2a1461027757806301ffc9a71461029f5780630758d924146102db5780630a9d793d146103055780631459457a1461032d5761026a565b5b348015610275575f5ffd5b005b348015610282575f5ffd5b5061029d600480360381019061029891906130da565b6109e7565b005b3480156102aa575f5ffd5b506102c560048036038101906102c0919061315a565b610a98565b6040516102d2919061319f565b60405180910390f35b3480156102e6575f5ffd5b506102ef610b11565b6040516102fc91906131c7565b60405180910390f35b348015610310575f5ffd5b5061032b600480360381019061032691906130da565b610b36565b005b348015610338575f5ffd5b50610353600480360381019061034e91906131e0565b610be7565b005b348015610360575f5ffd5b5061037b6004803603810190610376919061328a565b610f48565b60405161038891906132c4565b60405180910390f35b34801561039c575f5ffd5b506103b760048036038101906103b291906132dd565b610f72565b005b3480156103c4575f5ffd5b506103df60048036038101906103da91906132dd565b610f94565b005b3480156103ec575f5ffd5b506104076004803603810190610402919061334e565b61100f565b005b348015610414575f5ffd5b5061041d6110c4565b005b34801561042a575f5ffd5b50610445600480360381019061044091906130da565b6110f9565b604051610452919061339b565b60405180910390f35b348015610466575f5ffd5b5061046f61110e565b60405161047c91906131c7565b60405180910390f35b61049f600480360381019061049a91906134f0565b611133565b005b3480156104ac575f5ffd5b506104c760048036038101906104c291906130da565b611152565b005b3480156104d4575f5ffd5b506104dd611203565b6040516104ea91906132c4565b60405180910390f35b3480156104fe575f5ffd5b5061051960048036038101906105149190613574565b611234565b005b348015610526575f5ffd5b50610541600480360381019061053c91906130da565b611305565b005b34801561054e575f5ffd5b506105576113b5565b604051610564919061319f565b60405180910390f35b348015610578575f5ffd5b50610593600480360381019061058e91906136a9565b6113d7565b6040516105a091906131c7565b60405180910390f35b3480156105b4575f5ffd5b506105bd611ac0565b6040516105ca91906131c7565b60405180910390f35b3480156105de575f5ffd5b506105e7611ae5565b005b3480156105f4575f5ffd5b5061060f600480360381019061060a91906130da565b611b1a565b005b34801561061c575f5ffd5b506106376004803603810190610632919061370e565b611bcb565b005b348015610644575f5ffd5b5061064d611c5d565b60405161065a91906131c7565b60405180910390f35b34801561066e575f5ffd5b50610689600480360381019061068491906130da565b611c82565b005b348015610696575f5ffd5b506106b160048036038101906106ac91906132dd565b611d33565b6040516106be919061319f565b60405180910390f35b3480156106d2575f5ffd5b506106ed60048036038101906106e891906130da565b611da4565b6040516106fa919061319f565b60405180910390f35b34801561070e575f5ffd5b50610729600480360381019061072491906130da565b611dc1565b005b348015610736575f5ffd5b5061073f611e72565b60405161074c91906132c4565b60405180910390f35b348015610760575f5ffd5b50610769611e78565b60405161077691906137ac565b60405180910390f35b34801561078a575f5ffd5b50610793611eb1565b6040516107a091906131c7565b60405180910390f35b3480156107b4575f5ffd5b506107cf60048036038101906107ca91906132dd565b611ed6565b005b3480156107dc575f5ffd5b506107e5611ef8565b6040516107f291906131c7565b60405180910390f35b348015610806575f5ffd5b5061080f611f1c565b60405161081c91906132c4565b60405180910390f35b348015610830575f5ffd5b50610839611f40565b60405161084691906132c4565b60405180910390f35b34801561085a575f5ffd5b50610863611f64565b60405161087091906131c7565b60405180910390f35b348015610884575f5ffd5b5061088d611f89565b60405161089a91906131c7565b60405180910390f35b3480156108ae575f5ffd5b506108c960048036038101906108c491906130da565b611fae565b6040516108d691906131c7565b60405180910390f35b3480156108ea575f5ffd5b50610905600480360381019061090091906137cc565b611fde565b005b348015610912575f5ffd5b5061092d6004803603810190610928919061380a565b6120e2565b60405161093a9190613844565b60405180910390f35b34801561094e575f5ffd5b50610957612102565b60405161096491906131c7565b60405180910390f35b348015610978575f5ffd5b50610981612127565b60405161098e91906132c4565b60405180910390f35b3480156109a2575f5ffd5b506109bd60048036038101906109b891906130da565b61214b565b005b3480156109ca575f5ffd5b506109e560048036038101906109e091906130da565b6121fc565b005b7fb19546dff01e856fb3f010c267a7b1c60363cf8a4664e21cc89c26224620214e610a11816122ad565b8160015f6101000a81548173ffffffffffffffffffffffffffffffffffffffff021916908373ffffffffffffffffffffffffffffffffffffffff1602179055508173ffffffffffffffffffffffffffffffffffffffff167fb01c17406179a638da96eaa4686f4c1b6367270061946142c4a8ea461023d51760405160405180910390a25050565b5f7f7965db0b000000000000000000000000000000000000000000000000000000007bffffffffffffffffffffffffffffffffffffffffffffffffffffffff1916827bffffffffffffffffffffffffffffffffffffffffffffffffffffffff19161480610b0a5750610b09826122c1565b5b9050919050565b60055f9054906101000a900473ffffffffffffffffffffffffffffffffffffffff1681565b7fb19546dff01e856fb3f010c267a7b1c60363cf8a4664e21cc89c26224620214e610b60816122ad565b8160025f6101000a81548173ffffffffffffffffffffffffffffffffffffffff021916908373ffffffffffffffffffffffffffffffffffffffff1602179055508173ffffffffffffffffffffffffffffffffffffffff167f9269d63ac6e0360a152db45a73e3e9e471a002419dff28abc7b58efaa211a2ba60405160405180910390a25050565b5f610bf061232a565b90505f815f0160089054906101000a900460ff161590505f825f015f9054906101000a900467ffffffffffffffff1690505f5f8267ffffffffffffffff16148015610c385750825b90505f60018367ffffffffffffffff16148015610c6b57505f3073ffffffffffffffffffffffffffffffffffffffff163b145b905081158015610c79575080155b15610cb0576040517ff92ee8a900000000000000000000000000000000000000000000000000000000815260040160405180910390fd5b6001855f015f6101000a81548167ffffffffffffffff021916908367ffffffffffffffff1602179055508315610cfd576001855f0160086101000a81548160ff0219169083151502179055505b610d0561233d565b610d0d612347565b610d15612351565b610d215f5f1b3361235b565b50610d4c7f65d7a28e3265b37a6474929f336521b332c1681b933f6cb9f3376673440d862a3361235b565b50610d777f189ab7a9244df0848122154315af71fe140f3db0fe014031783b0946b8c9d2e33361235b565b50610da27fb19546dff01e856fb3f010c267a7b1c60363cf8a4664e21cc89c26224620214e3361235b565b50895f5f6101000a81548173ffffffffffffffffffffffffffffffffffffffff021916908373ffffffffffffffffffffffffffffffffffffffff1602179055508860065f6101000a81548173ffffffffffffffffffffffffffffffffffffffff021916908373ffffffffffffffffffffffffffffffffffffffff1602179055508760015f6101000a81548173ffffffffffffffffffffffffffffffffffffffff021916908373ffffffffffffffffffffffffffffffffffffffff1602179055508660025f6101000a81548173ffffffffffffffffffffffffffffffffffffffff021916908373ffffffffffffffffffffffffffffffffffffffff1602179055508560035f6101000a81548173ffffffffffffffffffffffffffffffffffffffff021916908373ffffffffffffffffffffffffffffffffffffffff1602179055508315610f3c575f855f0160086101000a81548160ff0219169083151502179055507fc7f505b2f371ae2175ee4913f4499e1f2633a7b5936321eed1cdaeb6115181d26001604051610f3391906138b2565b60405180910390a15b50505050505050505050565b5f5f610f52612453565b9050805f015f8481526020019081526020015f2060010154915050919050565b610f7b82610f48565b610f84816122ad565b610f8e838361235b565b50505050565b610f9c61247a565b73ffffffffffffffffffffffffffffffffffffffff168173ffffffffffffffffffffffffffffffffffffffff1614611000576040517f6697b23200000000000000000000000000000000000000000000000000000000815260040160405180910390fd5b61100a8282612481565b505050565b7fb19546dff01e856fb3f010c267a7b1c60363cf8a4664e21cc89c26224620214e611039816122ad565b81600b5f8573ffffffffffffffffffffffffffffffffffffffff1673ffffffffffffffffffffffffffffffffffffffff1681526020019081526020015f2081905550818373ffffffffffffffffffffffffffffffffffffffff167f6af2b431e7174c6e6362e963c769958410cf9e0615cd5bcced6584656ec99e9f60405160405180910390a3505050565b7f65d7a28e3265b37a6474929f336521b332c1681b933f6cb9f3376673440d862a6110ee816122ad565b6110f6612579565b50565b600b602052805f5260405f205f915090505481565b60015f9054906101000a900473ffffffffffffffffffffffffffffffffffffffff1681565b61113b6125e7565b611144826126cd565b61114e82826126fb565b5050565b7fb19546dff01e856fb3f010c267a7b1c60363cf8a4664e21cc89c26224620214e61117c816122ad565b8160045f6101000a81548173ffffffffffffffffffffffffffffffffffffffff021916908373ffffffffffffffffffffffffffffffffffffffff1602179055508173ffffffffffffffffffffffffffffffffffffffff167f141c8827a0e1bf1f8e0a0f1d0b4fce811fd3b387abb10419267afc2b7458377660405160405180910390a25050565b5f61120c612819565b7f360894a13ba1a3210667c828492db98dca3e2076cc3735a920a3ca505d382bbc5f1b905090565b7fb19546dff01e856fb3f010c267a7b1c60363cf8a4664e21cc89c26224620214e61125e816122ad565b8160095f8573ffffffffffffffffffffffffffffffffffffffff1673ffffffffffffffffffffffffffffffffffffffff1681526020019081526020015f205f6101000a81548160ff0219169083151502179055508273ffffffffffffffffffffffffffffffffffffffff167f1a594081ae893ab78e67d9b9e843547318164322d32c65369d78a96172d9dc8f836040516112f8919061319f565b60405180910390a2505050565b7fb19546dff01e856fb3f010c267a7b1c60363cf8a4664e21cc89c26224620214e61132f816122ad565b815f5f6101000a81548173ffffffffffffffffffffffffffffffffffffffff021916908373ffffffffffffffffffffffffffffffffffffffff1602179055508173ffffffffffffffffffffffffffffffffffffffff167fdfccf581ae27a41845f39125ccb5ef00c0a079c5bf3bf751ecd2045e2d6d442f60405160405180910390a25050565b5f5f6113bf6128a0565b9050805f015f9054906101000a900460ff1691505090565b5f815f01516113e5816128c7565b82602001516113f3816128c7565b83602001518460600151611407828261295b565b5f60065f9054906101000a900473ffffffffffffffffffffffffffffffffffffffff1673ffffffffffffffffffffffffffffffffffffffff1663028731b230895f01518a602001518b604001516040518563ffffffff1660e01b815260040161147394939291906138cb565b6020604051808303815f875af115801561148f573d5f5f3e3d5ffd5b505050506040513d601f19601f820116820180604052508101906114b39190613922565b90505f60015f9054906101000a900473ffffffffffffffffffffffffffffffffffffffff1673ffffffffffffffffffffffffffffffffffffffff16637b8cabb6836040518263ffffffff1660e01b815260040161151091906131c7565b6020604051808303815f875af115801561152c573d5f5f3e3d5ffd5b505050506040513d601f19601f820116820180604052508101906115509190613922565b905060085f9054906101000a900473ffffffffffffffffffffffffffffffffffffffff1673ffffffffffffffffffffffffffffffffffffffff16636ba62f7a838a608001516040518363ffffffff1660e01b81526004016115b292919061394d565b5f604051808303815f87803b1580156115c9575f5ffd5b505af11580156115db573d5f5f3e3d5ffd5b5050505060085f9054906101000a900473ffffffffffffffffffffffffffffffffffffffff1673ffffffffffffffffffffffffffffffffffffffff1663c4047477838a60a001516040518363ffffffff1660e01b815260040161163f92919061394d565b5f604051808303815f87803b158015611656575f5ffd5b505af1158015611668573d5f5f3e3d5ffd5b5050505060085f9054906101000a900473ffffffffffffffffffffffffffffffffffffffff1673ffffffffffffffffffffffffffffffffffffffff1663a27cb770838a60c001516040518363ffffffff1660e01b81526004016116cc92919061394d565b5f604051808303815f87803b1580156116e3575f5ffd5b505af11580156116f5573d5f5f3e3d5ffd5b5050505060085f9054906101000a900473ffffffffffffffffffffffffffffffffffffffff1673ffffffffffffffffffffffffffffffffffffffff16639d7da740838a60e001516040518363ffffffff1660e01b815260040161175992919061394d565b5f604051808303815f87803b158015611770575f5ffd5b505af1158015611782573d5f5f3e3d5ffd5b505050505f5f9054906101000a900473ffffffffffffffffffffffffffffffffffffffff1673ffffffffffffffffffffffffffffffffffffffff16630e30428d838a61010001516040518363ffffffff1660e01b81526004016117e692919061394d565b5f604051808303815f87803b1580156117fd575f5ffd5b505af115801561180f573d5f5f3e3d5ffd5b505050505f5f9054906101000a900473ffffffffffffffffffffffffffffffffffffffff1673ffffffffffffffffffffffffffffffffffffffff16637cadffd9838a61012001516040518363ffffffff1660e01b815260040161187392919061394d565b5f604051808303815f87803b15801561188a575f5ffd5b505af115801561189c573d5f5f3e3d5ffd5b505050508173ffffffffffffffffffffffffffffffffffffffff1663113aa8b1826040518263ffffffff1660e01b81526004016118d991906131c7565b5f604051808303815f87803b1580156118f0575f5ffd5b505af1158015611902573d5f5f3e3d5ffd5b5050505061193b33308a606001518b6020015173ffffffffffffffffffffffffffffffffffffffff16612a67909392919063ffffffff16565b876020015173ffffffffffffffffffffffffffffffffffffffff1663095ea7b3828a606001516040518363ffffffff1660e01b815260040161197e92919061394d565b6020604051808303815f875af115801561199a573d5f5f3e3d5ffd5b505050506040513d601f19601f820116820180604052508101906119be9190613988565b508073ffffffffffffffffffffffffffffffffffffffff1663b39e3771338a606001516040518363ffffffff1660e01b81526004016119fe92919061394d565b5f604051808303815f87803b158015611a15575f5ffd5b505af1158015611a27573d5f5f3e3d5ffd5b505050508073ffffffffffffffffffffffffffffffffffffffff16886020015173ffffffffffffffffffffffffffffffffffffffff16895f015173ffffffffffffffffffffffffffffffffffffffff167f96002a27cd438afd06fa237c8247c8c03b0c94c7d214d44fc735abd710bcc8c08b60400151604051611aaa919061339b565b60405180910390a4809650505050505050919050565b60075f9054906101000a900473ffffffffffffffffffffffffffffffffffffffff1681565b7f65d7a28e3265b37a6474929f336521b332c1681b933f6cb9f3376673440d862a611b0f816122ad565b611b17612ae9565b50565b7fb19546dff01e856fb3f010c267a7b1c60363cf8a4664e21cc89c26224620214e611b44816122ad565b8160085f6101000a81548173ffffffffffffffffffffffffffffffffffffffff021916908373ffffffffffffffffffffffffffffffffffffffff1602179055508173ffffffffffffffffffffffffffffffffffffffff167f7902cd1307c545e3f5782172612372bf997a93698917ced12b2f83d86e347d0c60405160405180910390a25050565b7fb19546dff01e856fb3f010c267a7b1c60363cf8a4664e21cc89c26224620214e611bf5816122ad565b81600c5f8581526020019081526020015f205f6101000a81548163ffffffff021916908363ffffffff1602179055508163ffffffff16837f010b01c68d87c7ce7ee9bd2f5c44a9fc5058745365df809b732682761020090160405160405180910390a3505050565b60025f9054906101000a900473ffffffffffffffffffffffffffffffffffffffff1681565b7fb19546dff01e856fb3f010c267a7b1c60363cf8a4664e21cc89c26224620214e611cac816122ad565b8160065f6101000a81548173ffffffffffffffffffffffffffffffffffffffff021916908373ffffffffffffffffffffffffffffffffffffffff1602179055508173ffffffffffffffffffffffffffffffffffffffff167f1f4863d4b849d378969f0cf16d48d4a72c921b296c978602cab2cb4aa5d32d4e60405160405180910390a25050565b5f5f611d3d612453565b9050805f015f8581526020019081526020015f205f015f8473ffffffffffffffffffffffffffffffffffffffff1673ffffffffffffffffffffffffffffffffffffffff1681526020019081526020015f205f9054906101000a900460ff1691505092915050565b6009602052805f5260405f205f915054906101000a900460ff1681565b7fb19546dff01e856fb3f010c267a7b1c60363cf8a4664e21cc89c26224620214e611deb816122ad565b8160075f6101000a81548173ffffffffffffffffffffffffffffffffffffffff021916908373ffffffffffffffffffffffffffffffffffffffff1602179055508173ffffffffffffffffffffffffffffffffffffffff167f0a79aff962cc9e0a3ce8d1f62271362cbf066d9d0ffc588f0f90940b1fe4195560405160405180910390a25050565b5f5f1b81565b6040518060400160405280600581526020017f352e302e3000000000000000000000000000000000000000000000000000000081525081565b60035f9054906101000a900473ffffffffffffffffffffffffffffffffffffffff1681565b611edf82610f48565b611ee8816122ad565b611ef28383612481565b50505050565b5f5f9054906101000a900473ffffffffffffffffffffffffffffffffffffffff1681565b7fb19546dff01e856fb3f010c267a7b1c60363cf8a4664e21cc89c26224620214e81565b7f65d7a28e3265b37a6474929f336521b332c1681b933f6cb9f3376673440d862a81565b60065f9054906101000a900473ffffffffffffffffffffffffffffffffffffffff1681565b60045f9054906101000a900473ffffffffffffffffffffffffffffffffffffffff1681565b600a602052805f5260405f205f915054906101000a900473ffffffffffffffffffffffffffffffffffffffff1681565b7fb19546dff01e856fb3f010c267a7b1c60363cf8a4664e21cc89c26224620214e612008816122ad565b81600a5f8573ffffffffffffffffffffffffffffffffffffffff1673ffffffffffffffffffffffffffffffffffffffff1681526020019081526020015f205f6101000a81548173ffffffffffffffffffffffffffffffffffffffff021916908373ffffffffffffffffffffffffffffffffffffffff1602179055508173ffffffffffffffffffffffffffffffffffffffff168373ffffffffffffffffffffffffffffffffffffffff167f443eca89ae0d91090321746b66b1e5a800bf4f33b317a7dbc01dc310b55c329160405160405180910390a3505050565b600c602052805f5260405f205f915054906101000a900463ffffffff1681565b60085f9054906101000a900473ffffffffffffffffffffffffffffffffffffffff1681565b7f189ab7a9244df0848122154315af71fe140f3db0fe014031783b0946b8c9d2e381565b7fb19546dff01e856fb3f010c267a7b1c60363cf8a4664e21cc89c26224620214e612175816122ad565b8160055f6101000a81548173ffffffffffffffffffffffffffffffffffffffff021916908373ffffffffffffffffffffffffffffffffffffffff1602179055508173ffffffffffffffffffffffffffffffffffffffff167f0b7d876ae8d87054bd191d9a2294c7bc50817a9efd22cb0376d4b14838eb271c60405160405180910390a25050565b7fb19546dff01e856fb3f010c267a7b1c60363cf8a4664e21cc89c26224620214e612226816122ad565b8160035f6101000a81548173ffffffffffffffffffffffffffffffffffffffff021916908373ffffffffffffffffffffffffffffffffffffffff1602179055508173ffffffffffffffffffffffffffffffffffffffff167f87f38b33506619f9f981cdf0439928c07e8478960e3b27545f27bae983b1ff8b60405160405180910390a25050565b6122be816122b961247a565b612b58565b50565b5f7f01ffc9a7000000000000000000000000000000000000000000000000000000007bffffffffffffffffffffffffffffffffffffffffffffffffffffffff1916827bffffffffffffffffffffffffffffffffffffffffffffffffffffffff1916149050919050565b5f5f612334612ba9565b90508091505090565b612345612bd2565b565b61234f612bd2565b565b612359612bd2565b565b5f5f612365612453565b90506123718484611d33565b612448576001815f015f8681526020019081526020015f205f015f8573ffffffffffffffffffffffffffffffffffffffff1673ffffffffffffffffffffffffffffffffffffffff1681526020019081526020015f205f6101000a81548160ff0219169083151502179055506123e461247a565b73ffffffffffffffffffffffffffffffffffffffff168373ffffffffffffffffffffffffffffffffffffffff16857f2f8788117e7eff1d82e926ec794901d17c78024a50270940304540a733656f0d60405160405180910390a4600191505061244d565b5f9150505b92915050565b5f7f02dd7bc7dec4dceedda775e58dd541e08a116c6c53815c0bd028192f7b626800905090565b5f33905090565b5f5f61248b612453565b90506124978484611d33565b1561256e575f815f015f8681526020019081526020015f205f015f8573ffffffffffffffffffffffffffffffffffffffff1673ffffffffffffffffffffffffffffffffffffffff1681526020019081526020015f205f6101000a81548160ff02191690831515021790555061250a61247a565b73ffffffffffffffffffffffffffffffffffffffff168373ffffffffffffffffffffffffffffffffffffffff16857ff6391f5c32d9c69d2a47ea670b442974b53935d1edc7fd64eb21e047a839171b60405160405180910390a46001915050612573565b5f9150505b92915050565b612581612c12565b5f61258a6128a0565b90505f815f015f6101000a81548160ff0219169083151502179055507f5db9ee0a495bf2e6ff9c91a7834c1ba4fdd244a5e8aa4e537bd38aeae4b073aa6125cf61247a565b6040516125dc91906131c7565b60405180910390a150565b7f000000000000000000000000000000000000000000000000000000000000000073ffffffffffffffffffffffffffffffffffffffff163073ffffffffffffffffffffffffffffffffffffffff16148061269457507f000000000000000000000000000000000000000000000000000000000000000073ffffffffffffffffffffffffffffffffffffffff1661267b612c52565b73ffffffffffffffffffffffffffffffffffffffff1614155b156126cb576040517fe07c8dba00000000000000000000000000000000000000000000000000000000815260040160405180910390fd5b565b7f189ab7a9244df0848122154315af71fe140f3db0fe014031783b0946b8c9d2e36126f7816122ad565b5050565b8173ffffffffffffffffffffffffffffffffffffffff166352d1902d6040518163ffffffff1660e01b8152600401602060405180830381865afa92505050801561276357506040513d601f19601f8201168201806040525081019061276091906139c7565b60015b6127a457816040517f4c9c8ce300000000000000000000000000000000000000000000000000000000815260040161279b91906131c7565b60405180910390fd5b7f360894a13ba1a3210667c828492db98dca3e2076cc3735a920a3ca505d382bbc5f1b811461280a57806040517faa1d49a400000000000000000000000000000000000000000000000000000000815260040161280191906132c4565b60405180910390fd5b6128148383612ca5565b505050565b7f000000000000000000000000000000000000000000000000000000000000000073ffffffffffffffffffffffffffffffffffffffff163073ffffffffffffffffffffffffffffffffffffffff161461289e576040517fe07c8dba00000000000000000000000000000000000000000000000000000000815260040160405180910390fd5b565b5f7fcd5ed15c6e187e77e9aee88184c21f4f2182ab5827cb3b7e07fbedcd63f03300905090565b5f73ffffffffffffffffffffffffffffffffffffffff1660075f9054906101000a900473ffffffffffffffffffffffffffffffffffffffff1673ffffffffffffffffffffffffffffffffffffffff160361295857806040517f1ab5233400000000000000000000000000000000000000000000000000000000815260040161294f91906131c7565b60405180910390fd5b50565b600b5f8373ffffffffffffffffffffffffffffffffffffffff1673ffffffffffffffffffffffffffffffffffffffff1681526020019081526020015f20548110806129e257505f600b5f8473ffffffffffffffffffffffffffffffffffffffff1673ffffffffffffffffffffffffffffffffffffffff1681526020019081526020015f2054145b15612a635780600b5f8473ffffffffffffffffffffffffffffffffffffffff1673ffffffffffffffffffffffffffffffffffffffff1681526020019081526020015f20546040517fb621a7f4000000000000000000000000000000000000000000000000000000008152600401612a5a9291906139f2565b60405180910390fd5b5050565b612ae3848573ffffffffffffffffffffffffffffffffffffffff166323b872dd868686604051602401612a9c93929190613a19565b604051602081830303815290604052915060e01b6020820180517bffffffffffffffffffffffffffffffffffffffffffffffffffffffff8381831617835250505050612d17565b50505050565b612af1612db2565b5f612afa6128a0565b90506001815f015f6101000a81548160ff0219169083151502179055507f62e78cea01bee320cd4e420270b5ea74000d11b0c9f74754ebdbfc544b05a258612b4061247a565b604051612b4d91906131c7565b60405180910390a150565b612b628282611d33565b612ba55780826040517fe2517d3f000000000000000000000000000000000000000000000000000000008152600401612b9c929190613a4e565b60405180910390fd5b5050565b5f7ff0c57e16840df040f15088dc2f81fe391c3923bec73e23a9662efc9c229c6a005f1b905090565b612bda612df3565b612c10576040517fd7e6bcf800000000000000000000000000000000000000000000000000000000815260040160405180910390fd5b565b612c1a6113b5565b612c50576040517f8dfc202b00000000000000000000000000000000000000000000000000000000815260040160405180910390fd5b565b5f612c7e7f360894a13ba1a3210667c828492db98dca3e2076cc3735a920a3ca505d382bbc5f1b612e11565b5f015f9054906101000a900473ffffffffffffffffffffffffffffffffffffffff16905090565b612cae82612e1a565b8173ffffffffffffffffffffffffffffffffffffffff167fbc7cd75a20ee27fd9adebab32041f755214dbc6bffa90cc0225b39da2e5c2d3b60405160405180910390a25f81511115612d0a57612d048282612ee3565b50612d13565b612d12612f63565b5b5050565b5f5f60205f8451602086015f885af180612d36576040513d5f823e3d81fd5b3d92505f519150505f8214612d4f576001811415612d6a565b5f8473ffffffffffffffffffffffffffffffffffffffff163b145b15612dac57836040517f5274afe7000000000000000000000000000000000000000000000000000000008152600401612da391906131c7565b60405180910390fd5b50505050565b612dba6113b5565b15612df1576040517fd93c066500000000000000000000000000000000000000000000000000000000815260040160405180910390fd5b565b5f612dfc61232a565b5f0160089054906101000a900460ff16905090565b5f819050919050565b5f8173ffffffffffffffffffffffffffffffffffffffff163b03612e7557806040517f4c9c8ce3000000000000000000000000000000000000000000000000000000008152600401612e6c91906131c7565b60405180910390fd5b80612ea17f360894a13ba1a3210667c828492db98dca3e2076cc3735a920a3ca505d382bbc5f1b612e11565b5f015f6101000a81548173ffffffffffffffffffffffffffffffffffffffff021916908373ffffffffffffffffffffffffffffffffffffffff16021790555050565b60605f5f8473ffffffffffffffffffffffffffffffffffffffff1684604051612f0c9190613ab9565b5f60405180830381855af49150503d805f8114612f44576040519150601f19603f3d011682016040523d82523d5f602084013e612f49565b606091505b5091509150612f59858383612f9f565b9250505092915050565b5f341115612f9d576040517fb398979f00000000000000000000000000000000000000000000000000000000815260040160405180910390fd5b565b606082612fb457612faf8261302c565b613024565b5f8251148015612fda57505f8473ffffffffffffffffffffffffffffffffffffffff163b145b1561301c57836040517f9996b31500000000000000000000000000000000000000000000000000000000815260040161301391906131c7565b60405180910390fd5b819050613025565b5b9392505050565b5f8151111561303d57805160208201fd5b6040517fd6bda27500000000000000000000000000000000000000000000000000000000815260040160405180910390fd5b5f604051905090565b5f5ffd5b5f5ffd5b5f73ffffffffffffffffffffffffffffffffffffffff82169050919050565b5f6130a982613080565b9050919050565b6130b98161309f565b81146130c3575f5ffd5b50565b5f813590506130d4816130b0565b92915050565b5f602082840312156130ef576130ee613078565b5b5f6130fc848285016130c6565b91505092915050565b5f7fffffffff0000000000000000000000000000000000000000000000000000000082169050919050565b61313981613105565b8114613143575f5ffd5b50565b5f8135905061315481613130565b92915050565b5f6020828403121561316f5761316e613078565b5b5f61317c84828501613146565b91505092915050565b5f8115159050919050565b61319981613185565b82525050565b5f6020820190506131b25f830184613190565b92915050565b6131c18161309f565b82525050565b5f6020820190506131da5f8301846131b8565b92915050565b5f5f5f5f5f60a086880312156131f9576131f8613078565b5b5f613206888289016130c6565b9550506020613217888289016130c6565b9450506040613228888289016130c6565b9350506060613239888289016130c6565b925050608061324a888289016130c6565b9150509295509295909350565b5f819050919050565b61326981613257565b8114613273575f5ffd5b50565b5f8135905061328481613260565b92915050565b5f6020828403121561329f5761329e613078565b5b5f6132ac84828501613276565b91505092915050565b6132be81613257565b82525050565b5f6020820190506132d75f8301846132b5565b92915050565b5f5f604083850312156132f3576132f2613078565b5b5f61330085828601613276565b9250506020613311858286016130c6565b9150509250929050565b5f819050919050565b61332d8161331b565b8114613337575f5ffd5b50565b5f8135905061334881613324565b92915050565b5f5f6040838503121561336457613363613078565b5b5f613371858286016130c6565b92505060206133828582860161333a565b9150509250929050565b6133958161331b565b82525050565b5f6020820190506133ae5f83018461338c565b92915050565b5f5ffd5b5f5ffd5b5f601f19601f8301169050919050565b7f4e487b71000000000000000000000000000000000000000000000000000000005f52604160045260245ffd5b613402826133bc565b810181811067ffffffffffffffff82111715613421576134206133cc565b5b80604052505050565b5f61343361306f565b905061343f82826133f9565b919050565b5f67ffffffffffffffff82111561345e5761345d6133cc565b5b613467826133bc565b9050602081019050919050565b828183375f83830152505050565b5f61349461348f84613444565b61342a565b9050828152602081018484840111156134b0576134af6133b8565b5b6134bb848285613474565b509392505050565b5f82601f8301126134d7576134d66133b4565b5b81356134e7848260208601613482565b91505092915050565b5f5f6040838503121561350657613505613078565b5b5f613513858286016130c6565b925050602083013567ffffffffffffffff8111156135345761353361307c565b5b613540858286016134c3565b9150509250929050565b61355381613185565b811461355d575f5ffd5b50565b5f8135905061356e8161354a565b92915050565b5f5f6040838503121561358a57613589613078565b5b5f613597858286016130c6565b92505060206135a885828601613560565b9150509250929050565b5f5ffd5b5f61014082840312156135cc576135cb6135b2565b5b6135d761014061342a565b90505f6135e6848285016130c6565b5f8301525060206135f9848285016130c6565b602083015250604061360d8482850161333a565b60408301525060606136218482850161333a565b60608301525060806136358482850161333a565b60808301525060a06136498482850161333a565b60a08301525060c061365d8482850161333a565b60c08301525060e06136718482850161333a565b60e0830152506101006136868482850161333a565b6101008301525061012061369c8482850161333a565b6101208301525092915050565b5f61014082840312156136bf576136be613078565b5b5f6136cc848285016135b6565b91505092915050565b5f63ffffffff82169050919050565b6136ed816136d5565b81146136f7575f5ffd5b50565b5f81359050613708816136e4565b92915050565b5f5f6040838503121561372457613723613078565b5b5f6137318582860161333a565b9250506020613742858286016136fa565b9150509250929050565b5f81519050919050565b5f82825260208201905092915050565b8281835e5f83830152505050565b5f61377e8261374c565b6137888185613756565b9350613798818560208601613766565b6137a1816133bc565b840191505092915050565b5f6020820190508181035f8301526137c48184613774565b905092915050565b5f5f604083850312156137e2576137e1613078565b5b5f6137ef858286016130c6565b9250506020613800858286016130c6565b9150509250929050565b5f6020828403121561381f5761381e613078565b5b5f61382c8482850161333a565b91505092915050565b61383e816136d5565b82525050565b5f6020820190506138575f830184613835565b92915050565b5f819050919050565b5f67ffffffffffffffff82169050919050565b5f819050919050565b5f61389c6138976138928461385d565b613879565b613866565b9050919050565b6138ac81613882565b82525050565b5f6020820190506138c55f8301846138a3565b92915050565b5f6080820190506138de5f8301876131b8565b6138eb60208301866131b8565b6138f860408301856131b8565b613905606083018461338c565b95945050505050565b5f8151905061391c816130b0565b92915050565b5f6020828403121561393757613936613078565b5b5f6139448482850161390e565b91505092915050565b5f6040820190506139605f8301856131b8565b61396d602083018461338c565b9392505050565b5f815190506139828161354a565b92915050565b5f6020828403121561399d5761399c613078565b5b5f6139aa84828501613974565b91505092915050565b5f815190506139c181613260565b92915050565b5f602082840312156139dc576139db613078565b5b5f6139e9848285016139b3565b91505092915050565b5f604082019050613a055f83018561338c565b613a12602083018461338c565b9392505050565b5f606082019050613a2c5f8301866131b8565b613a3960208301856131b8565b613a46604083018461338c565b949350505050565b5f604082019050613a615f8301856131b8565b613a6e60208301846132b5565b9392505050565b5f81519050919050565b5f81905092915050565b5f613a9382613a75565b613a9d8185613a7f565b9350613aad818560208601613766565b80840191505092915050565b5f613ac48284613a89565b91508190509291505056fea26469706673582212202bd661756b650cc22b6dd2b648a3e013e83d0c30c063e1a03ae3ce8970bd621164736f6c634300081e0033","linkReferences":{}},"methodIdentifiers":{"DEFAULT_ADMIN_ROLE()":"a217fddf","OWNER_ROLE()":"e58378bb","PAUSER_ROLE()":"e63ab1e9","UPGRADER_ROLE()":"f72c0d8b","UPGRADE_INTERFACE_VERSION()":"ad3cb1cc","chainIdToEid(uint256)":"f151e497","createLendingPool((address,address,uint256,uint256,uint256,uint256,uint256,uint256,uint256,uint256))":"658f86f5","dexRouter()":"0758d924","getRoleAdmin(bytes32)":"248a9ca3","grantRole(bytes32,address)":"2f2ff15d","hasRole(bytes32,address)":"91d14854","initialize(address,address,address,address,address)":"1459457a","interestRateModel()":"f3fdb15a","isHealthy()":"e4020804","lendingPoolDeployer()":"42e681d8","lendingPoolRouterDeployer()":"e949f3c9","minAmountSupplyLiquidity(address)":"3fcaacdf","oftAddress(address)":"efe1b2cd","operator(address)":"9a307391","pause()":"8456cb59","paused()":"5c975abb","positionDeployer()":"bd3b5471","protocol()":"8ce74426","proxiableUUID()":"52d1902d","renounceRole(bytes32,address)":"36568abe","revokeRole(bytes32,address)":"d547741f","setChainIdToEid(uint256,uint32)":"8cb3aaa3","setDexRouter(address)":"f72f863b","setInterestRateModel(address)":"8bcd4016","setIsHealthy(address)":"59917d7d","setLendingPoolDeployer(address)":"00546b2a","setLendingPoolRouterDeployer(address)":"8dc15a66","setMinAmountSupplyLiquidity(address,uint256)":"39a2e638","setOftAddress(address,address)":"f09a0d6b","setOperator(address,bool)":"558a7297","setPositionDeployer(address)":"f8446dcd","setProtocol(address)":"0a9d793d","setTokenDataStream(address)":"9cc8b2d1","setWrappedNative(address)":"52cb60ca","supportsInterface(bytes4)":"01ffc9a7","tokenDataStream()":"75b568a6","unpause()":"3f4ba83a","upgradeToAndCall(address,bytes)":"4f1ef286","wrappedNative()":"eb6d3a11"},"id":104}