{"abi":[{"type":"constructor","inputs":[],"stateMutability":"nonpayable"},{"type":"function","name":"DEFAULT_ADMIN_ROLE","inputs":[],"outputs":[{"name":"","type":"bytes32","internalType":"bytes32"}],"stateMutability":"view"},{"type":"function","name":"OWNER_ROLE","inputs":[],"outputs":[{"name":"","type":"bytes32","internalType":"bytes32"}],"stateMutability":"view"},{"type":"function","name":"PAUSER_ROLE","inputs":[],"outputs":[{"name":"","type":"bytes32","internalType":"bytes32"}],"stateMutability":"view"},{"type":"function","name":"UPGRADER_ROLE","inputs":[],"outputs":[{"name":"","type":"bytes32","internalType":"bytes32"}],"stateMutability":"view"},{"type":"function","name":"VERSION","inputs":[],"outputs":[{"name":"","type":"uint8","internalType":"uint8"}],"stateMutability":"view"},{"type":"function","name":"WKAIA","inputs":[],"outputs":[{"name":"","type":"address","internalType":"address"}],"stateMutability":"view"},{"type":"function","name":"addTokenDataStream","inputs":[{"name":"_token","type":"address","internalType":"address"},{"name":"_dataStream","type":"address","internalType":"address"}],"outputs":[],"stateMutability":"nonpayable"},{"type":"function","name":"createLendingPool","inputs":[{"name":"collateralToken","type":"address","internalType":"address"},{"name":"borrowToken","type":"address","internalType":"address"},{"name":"ltv","type":"uint256","internalType":"uint256"}],"outputs":[{"name":"","type":"address","internalType":"address"}],"stateMutability":"nonpayable"},{"type":"function","name":"getRoleAdmin","inputs":[{"name":"role","type":"bytes32","internalType":"bytes32"}],"outputs":[{"name":"","type":"bytes32","internalType":"bytes32"}],"stateMutability":"view"},{"type":"function","name":"grantRole","inputs":[{"name":"role","type":"bytes32","internalType":"bytes32"},{"name":"account","type":"address","internalType":"address"}],"outputs":[],"stateMutability":"nonpayable"},{"type":"function","name":"hasRole","inputs":[{"name":"role","type":"bytes32","internalType":"bytes32"},{"name":"account","type":"address","internalType":"address"}],"outputs":[{"name":"","type":"bool","internalType":"bool"}],"stateMutability":"view"},{"type":"function","name":"initialize","inputs":[{"name":"_isHealthy","type":"address","internalType":"address"},{"name":"_lendingPoolRouterDeployer","type":"address","internalType":"address"},{"name":"_lendingPoolDeployer","type":"address","internalType":"address"},{"name":"_protocol","type":"address","internalType":"address"},{"name":"_positionDeployer","type":"address","internalType":"address"}],"outputs":[],"stateMutability":"nonpayable"},{"type":"function","name":"isHealthy","inputs":[],"outputs":[{"name":"","type":"address","internalType":"address"}],"stateMutability":"view"},{"type":"function","name":"lendingPoolDeployer","inputs":[],"outputs":[{"name":"","type":"address","internalType":"address"}],"stateMutability":"view"},{"type":"function","name":"lendingPoolRouterDeployer","inputs":[],"outputs":[{"name":"","type":"address","internalType":"address"}],"stateMutability":"view"},{"type":"function","name":"oftAddress","inputs":[{"name":"","type":"address","internalType":"address"}],"outputs":[{"name":"","type":"address","internalType":"address"}],"stateMutability":"view"},{"type":"function","name":"operator","inputs":[{"name":"","type":"address","internalType":"address"}],"outputs":[{"name":"","type":"bool","internalType":"bool"}],"stateMutability":"view"},{"type":"function","name":"pause","inputs":[],"outputs":[],"stateMutability":"nonpayable"},{"type":"function","name":"paused","inputs":[],"outputs":[{"name":"","type":"bool","internalType":"bool"}],"stateMutability":"view"},{"type":"function","name":"poolCount","inputs":[],"outputs":[{"name":"","type":"uint256","internalType":"uint256"}],"stateMutability":"view"},{"type":"function","name":"pools","inputs":[{"name":"","type":"uint256","internalType":"uint256"}],"outputs":[{"name":"collateralToken","type":"address","internalType":"address"},{"name":"borrowToken","type":"address","internalType":"address"},{"name":"lendingPoolAddress","type":"address","internalType":"address"}],"stateMutability":"view"},{"type":"function","name":"positionDeployer","inputs":[],"outputs":[{"name":"","type":"address","internalType":"address"}],"stateMutability":"view"},{"type":"function","name":"protocol","inputs":[],"outputs":[{"name":"","type":"address","internalType":"address"}],"stateMutability":"view"},{"type":"function","name":"proxiableUUID","inputs":[],"outputs":[{"name":"","type":"bytes32","internalType":"bytes32"}],"stateMutability":"view"},{"type":"function","name":"renounceRole","inputs":[{"name":"role","type":"bytes32","internalType":"bytes32"},{"name":"account","type":"address","internalType":"address"}],"outputs":[],"stateMutability":"nonpayable"},{"type":"function","name":"revokeRole","inputs":[{"name":"role","type":"bytes32","internalType":"bytes32"},{"name":"account","type":"address","internalType":"address"}],"outputs":[],"stateMutability":"nonpayable"},{"type":"function","name":"setIsHealthy","inputs":[{"name":"_isHealthy","type":"address","internalType":"address"}],"outputs":[],"stateMutability":"nonpayable"},{"type":"function","name":"setLendingPoolDeployer","inputs":[{"name":"_lendingPoolDeployer","type":"address","internalType":"address"}],"outputs":[],"stateMutability":"nonpayable"},{"type":"function","name":"setOftAddress","inputs":[{"name":"_token","type":"address","internalType":"address"},{"name":"_oftAddress","type":"address","internalType":"address"}],"outputs":[],"stateMutability":"nonpayable"},{"type":"function","name":"setOperator","inputs":[{"name":"_operator","type":"address","internalType":"address"},{"name":"_status","type":"bool","internalType":"bool"}],"outputs":[],"stateMutability":"nonpayable"},{"type":"function","name":"setPositionDeployer","inputs":[{"name":"_positionDeployer","type":"address","internalType":"address"}],"outputs":[],"stateMutability":"nonpayable"},{"type":"function","name":"setProtocol","inputs":[{"name":"_protocol","type":"address","internalType":"address"}],"outputs":[],"stateMutability":"nonpayable"},{"type":"function","name":"supportsInterface","inputs":[{"name":"interfaceId","type":"bytes4","internalType":"bytes4"}],"outputs":[{"name":"","type":"bool","internalType":"bool"}],"stateMutability":"view"},{"type":"function","name":"tokenDataStream","inputs":[{"name":"","type":"address","internalType":"address"}],"outputs":[{"name":"","type":"address","internalType":"address"}],"stateMutability":"view"},{"type":"function","name":"unpause","inputs":[],"outputs":[],"stateMutability":"nonpayable"},{"type":"function","name":"upgradeTo","inputs":[{"name":"newImplementation","type":"address","internalType":"address"}],"outputs":[],"stateMutability":"nonpayable"},{"type":"function","name":"upgradeToAndCall","inputs":[{"name":"newImplementation","type":"address","internalType":"address"},{"name":"data","type":"bytes","internalType":"bytes"}],"outputs":[],"stateMutability":"payable"},{"type":"event","name":"AdminChanged","inputs":[{"name":"previousAdmin","type":"address","indexed":false,"internalType":"address"},{"name":"newAdmin","type":"address","indexed":false,"internalType":"address"}],"anonymous":false},{"type":"event","name":"BeaconUpgraded","inputs":[{"name":"beacon","type":"address","indexed":true,"internalType":"address"}],"anonymous":false},{"type":"event","name":"Initialized","inputs":[{"name":"version","type":"uint8","indexed":false,"internalType":"uint8"}],"anonymous":false},{"type":"event","name":"IsHealthySet","inputs":[{"name":"isHealthy","type":"address","indexed":true,"internalType":"address"}],"anonymous":false},{"type":"event","name":"LendingPoolCreated","inputs":[{"name":"collateralToken","type":"address","indexed":true,"internalType":"address"},{"name":"borrowToken","type":"address","indexed":true,"internalType":"address"},{"name":"lendingPool","type":"address","indexed":true,"internalType":"address"},{"name":"ltv","type":"uint256","indexed":false,"internalType":"uint256"}],"anonymous":false},{"type":"event","name":"LendingPoolDeployerSet","inputs":[{"name":"lendingPoolDeployer","type":"address","indexed":true,"internalType":"address"}],"anonymous":false},{"type":"event","name":"OftAddressSet","inputs":[{"name":"token","type":"address","indexed":true,"internalType":"address"},{"name":"oftAddress","type":"address","indexed":true,"internalType":"address"}],"anonymous":false},{"type":"event","name":"OperatorSet","inputs":[{"name":"operator","type":"address","indexed":true,"internalType":"address"},{"name":"status","type":"bool","indexed":false,"internalType":"bool"}],"anonymous":false},{"type":"event","name":"Paused","inputs":[{"name":"account","type":"address","indexed":false,"internalType":"address"}],"anonymous":false},{"type":"event","name":"PositionDeployerSet","inputs":[{"name":"positionDeployer","type":"address","indexed":true,"internalType":"address"}],"anonymous":false},{"type":"event","name":"ProtocolSet","inputs":[{"name":"protocol","type":"address","indexed":true,"internalType":"address"}],"anonymous":false},{"type":"event","name":"RoleAdminChanged","inputs":[{"name":"role","type":"bytes32","indexed":true,"internalType":"bytes32"},{"name":"previousAdminRole","type":"bytes32","indexed":true,"internalType":"bytes32"},{"name":"newAdminRole","type":"bytes32","indexed":true,"internalType":"bytes32"}],"anonymous":false},{"type":"event","name":"RoleGranted","inputs":[{"name":"role","type":"bytes32","indexed":true,"internalType":"bytes32"},{"name":"account","type":"address","indexed":true,"internalType":"address"},{"name":"sender","type":"address","indexed":true,"internalType":"address"}],"anonymous":false},{"type":"event","name":"RoleRevoked","inputs":[{"name":"role","type":"bytes32","indexed":true,"internalType":"bytes32"},{"name":"account","type":"address","indexed":true,"internalType":"address"},{"name":"sender","type":"address","indexed":true,"internalType":"address"}],"anonymous":false},{"type":"event","name":"TokenDataStreamAdded","inputs":[{"name":"token","type":"address","indexed":true,"internalType":"address"},{"name":"dataStream","type":"address","indexed":true,"internalType":"address"}],"anonymous":false},{"type":"event","name":"Unpaused","inputs":[{"name":"account","type":"address","indexed":false,"internalType":"address"}],"anonymous":false},{"type":"event","name":"Upgraded","inputs":[{"name":"implementation","type":"address","indexed":true,"internalType":"address"}],"anonymous":false}],"bytecode":{"object":"0x60a06040523073ffffffffffffffffffffffffffffffffffffffff1660809073ffffffffffffffffffffffffffffffffffffffff16815250348015610042575f5ffd5b5061005161005660201b60201c565b6101e6565b5f60019054906101000a900460ff16156100a5576040517f08c379a000000000000000000000000000000000000000000000000000000000815260040161009c90610194565b60405180910390fd5b60ff80165f5f9054906101000a900460ff1660ff16146101125760ff5f5f6101000a81548160ff021916908360ff1602179055507f7f26b83ff96e1f2b6a682f133852f6798a09c465da95921460cefb384740249860ff60405161010991906101cd565b60405180910390a15b565b5f82825260208201905092915050565b7f496e697469616c697a61626c653a20636f6e747261637420697320696e6974695f8201527f616c697a696e6700000000000000000000000000000000000000000000000000602082015250565b5f61017e602783610114565b915061018982610124565b604082019050919050565b5f6020820190508181035f8301526101ab81610172565b9050919050565b5f60ff82169050919050565b6101c7816101b2565b82525050565b5f6020820190506101e05f8301846101be565b92915050565b608051613ae661021a5f395f8181610e7901528181610f070152818161105a015281816110e801526111970152613ae65ff3fe608060405260043610610218575f3560e01c80638456cb5911610122578063e4020804116100aa578063f09a0d6b1161006e578063f09a0d6b146107a4578063f525cb68146107cc578063f72c0d8b146107f6578063f8446dcd14610820578063ffa1ad741461084857610218565b8063e4020804146106c0578063e58378bb146106ea578063e63ab1e914610714578063e949f3c91461073e578063efe1b2cd1461076857610218565b8063a217fddf116100f1578063a217fddf146105de578063ac4afa3814610608578063bd3b547114610646578063d547741f14610670578063e18487ca1461069857610218565b80638456cb59146105265780638ce744261461053c57806391d14854146105665780639a307391146105a257610218565b80633659cfe6116101a557806352d1902d1161017457806352d1902d14610446578063558a72971461047057806359917d7d146104985780635c975abb146104c0578063802de844146104ea57610218565b80633659cfe6146103c25780633f4ba83a146103ea57806342e681d8146104005780634f1ef2861461042a57610218565b8063145d51d8116101ec578063145d51d8146102d05780631d43335a146102fa578063248a9ca3146103365780632f2ff15d1461037257806336568abe1461039a57610218565b8062546b2a1461021c57806301ffc9a7146102445780630a9d793d146102805780631459457a146102a8575b5f5ffd5b348015610227575f5ffd5b50610242600480360381019061023d91906129f6565b610872565b005b34801561024f575f5ffd5b5061026a60048036038101906102659190612a76565b610924565b6040516102779190612abb565b60405180910390f35b34801561028b575f5ffd5b506102a660048036038101906102a191906129f6565b61099d565b005b3480156102b3575f5ffd5b506102ce60048036038101906102c99190612ad4565b610a4f565b005b3480156102db575f5ffd5b506102e4610d6d565b6040516102f19190612b5a565b60405180910390f35b348015610305575f5ffd5b50610320600480360381019061031b91906129f6565b610d85565b60405161032d9190612b5a565b60405180910390f35b348015610341575f5ffd5b5061035c60048036038101906103579190612ba6565b610db6565b6040516103699190612be0565b60405180910390f35b34801561037d575f5ffd5b5061039860048036038101906103939190612bf9565b610dd3565b005b3480156103a5575f5ffd5b506103c060048036038101906103bb9190612bf9565b610df4565b005b3480156103cd575f5ffd5b506103e860048036038101906103e391906129f6565b610e77565b005b3480156103f5575f5ffd5b506103fe610ffd565b005b34801561040b575f5ffd5b50610414611032565b6040516104219190612b5a565b60405180910390f35b610444600480360381019061043f9190612d73565b611058565b005b348015610451575f5ffd5b5061045a611194565b6040516104679190612be0565b60405180910390f35b34801561047b575f5ffd5b5061049660048036038101906104919190612df7565b61124b565b005b3480156104a3575f5ffd5b506104be60048036038101906104b991906129f6565b61131d565b005b3480156104cb575f5ffd5b506104d46113cf565b6040516104e19190612abb565b60405180910390f35b3480156104f5575f5ffd5b50610510600480360381019061050b9190612e68565b6113e4565b60405161051d9190612b5a565b60405180910390f35b348015610531575f5ffd5b5061053a611785565b005b348015610547575f5ffd5b506105506117ba565b60405161055d9190612b5a565b60405180910390f35b348015610571575f5ffd5b5061058c60048036038101906105879190612bf9565b6117e0565b6040516105999190612abb565b60405180910390f35b3480156105ad575f5ffd5b506105c860048036038101906105c391906129f6565b611844565b6040516105d59190612abb565b60405180910390f35b3480156105e9575f5ffd5b506105f2611862565b6040516105ff9190612be0565b60405180910390f35b348015610613575f5ffd5b5061062e60048036038101906106299190612eb8565b611868565b60405161063d93929190612ee3565b60405180910390f35b348015610651575f5ffd5b5061065a6118fb565b6040516106679190612b5a565b60405180910390f35b34801561067b575f5ffd5b5061069660048036038101906106919190612bf9565b611921565b005b3480156106a3575f5ffd5b506106be60048036038101906106b99190612f18565b611942565b005b3480156106cb575f5ffd5b506106d4611a47565b6040516106e19190612b5a565b60405180910390f35b3480156106f5575f5ffd5b506106fe611a6d565b60405161070b9190612be0565b60405180910390f35b34801561071f575f5ffd5b50610728611a91565b6040516107359190612be0565b60405180910390f35b348015610749575f5ffd5b50610752611ab5565b60405161075f9190612b5a565b60405180910390f35b348015610773575f5ffd5b5061078e600480360381019061078991906129f6565b611adb565b60405161079b9190612b5a565b60405180910390f35b3480156107af575f5ffd5b506107ca60048036038101906107c59190612f18565b611b0c565b005b3480156107d7575f5ffd5b506107e0611c11565b6040516107ed9190612f65565b60405180910390f35b348015610801575f5ffd5b5061080a611c18565b6040516108179190612be0565b60405180910390f35b34801561082b575f5ffd5b50610846600480360381019061084191906129f6565b611c3c565b005b348015610853575f5ffd5b5061085c611cee565b6040516108699190612f99565b60405180910390f35b7fb19546dff01e856fb3f010c267a7b1c60363cf8a4664e21cc89c26224620214e61089c81611cf3565b8161012f5f6101000a81548173ffffffffffffffffffffffffffffffffffffffff021916908373ffffffffffffffffffffffffffffffffffffffff1602179055508173ffffffffffffffffffffffffffffffffffffffff167fb01c17406179a638da96eaa4686f4c1b6367270061946142c4a8ea461023d51760405160405180910390a25050565b5f7f7965db0b000000000000000000000000000000000000000000000000000000007bffffffffffffffffffffffffffffffffffffffffffffffffffffffff1916827bffffffffffffffffffffffffffffffffffffffffffffffffffffffff19161480610996575061099582611d07565b5b9050919050565b7fb19546dff01e856fb3f010c267a7b1c60363cf8a4664e21cc89c26224620214e6109c781611cf3565b816101305f6101000a81548173ffffffffffffffffffffffffffffffffffffffff021916908373ffffffffffffffffffffffffffffffffffffffff1602179055508173ffffffffffffffffffffffffffffffffffffffff167f9269d63ac6e0360a152db45a73e3e9e471a002419dff28abc7b58efaa211a2ba60405160405180910390a25050565b5f5f60019054906101000a900460ff16159050808015610a7f575060015f5f9054906101000a900460ff1660ff16105b80610aac5750610a8e30611d70565b158015610aab575060015f5f9054906101000a900460ff1660ff16145b5b610aeb576040517f08c379a0000000000000000000000000000000000000000000000000000000008152600401610ae290613032565b60405180910390fd5b60015f5f6101000a81548160ff021916908360ff1602179055508015610b265760015f60016101000a81548160ff0219169083151502179055505b610b2e611d92565b610b36611dea565b610b3e611e3a565b610b4a5f5f1b33611e8a565b610b747f65d7a28e3265b37a6474929f336521b332c1681b933f6cb9f3376673440d862a33611e8a565b610b9e7f189ab7a9244df0848122154315af71fe140f3db0fe014031783b0946b8c9d2e333611e8a565b610bc87fb19546dff01e856fb3f010c267a7b1c60363cf8a4664e21cc89c26224620214e33611e8a565b8561012d5f6101000a81548173ffffffffffffffffffffffffffffffffffffffff021916908373ffffffffffffffffffffffffffffffffffffffff1602179055508461012e5f6101000a81548173ffffffffffffffffffffffffffffffffffffffff021916908373ffffffffffffffffffffffffffffffffffffffff1602179055508361012f5f6101000a81548173ffffffffffffffffffffffffffffffffffffffff021916908373ffffffffffffffffffffffffffffffffffffffff160217905550826101305f6101000a81548173ffffffffffffffffffffffffffffffffffffffff021916908373ffffffffffffffffffffffffffffffffffffffff160217905550816101315f6101000a81548173ffffffffffffffffffffffffffffffffffffffff021916908373ffffffffffffffffffffffffffffffffffffffff1602179055508015610d65575f5f60016101000a81548160ff0219169083151502179055507f7f26b83ff96e1f2b6a682f133852f6798a09c465da95921460cefb38474024986001604051610d5c9190613092565b60405180910390a15b505050505050565b7319aac5f612f524b754ca7e7c41cbfa2e981a443281565b610132602052805f5260405f205f915054906101000a900473ffffffffffffffffffffffffffffffffffffffff1681565b5f60fb5f8381526020019081526020015f20600101549050919050565b610ddc82610db6565b610de581611cf3565b610def8383611e8a565b505050565b610dfc611f65565b73ffffffffffffffffffffffffffffffffffffffff168173ffffffffffffffffffffffffffffffffffffffff1614610e69576040517f08c379a0000000000000000000000000000000000000000000000000000000008152600401610e609061311b565b60405180910390fd5b610e738282611f6c565b5050565b7f000000000000000000000000000000000000000000000000000000000000000073ffffffffffffffffffffffffffffffffffffffff163073ffffffffffffffffffffffffffffffffffffffff1603610f05576040517f08c379a0000000000000000000000000000000000000000000000000000000008152600401610efc906131a9565b60405180910390fd5b7f000000000000000000000000000000000000000000000000000000000000000073ffffffffffffffffffffffffffffffffffffffff16610f44612047565b73ffffffffffffffffffffffffffffffffffffffff1614610f9a576040517f08c379a0000000000000000000000000000000000000000000000000000000008152600401610f9190613237565b60405180910390fd5b610fa38161209a565b610ffa815f67ffffffffffffffff811115610fc157610fc0612c4f565b5b6040519080825280601f01601f191660200182016040528015610ff35781602001600182028036833780820191505090505b505f6120c8565b50565b7f65d7a28e3265b37a6474929f336521b332c1681b933f6cb9f3376673440d862a61102781611cf3565b61102f612232565b50565b61012f5f9054906101000a900473ffffffffffffffffffffffffffffffffffffffff1681565b7f000000000000000000000000000000000000000000000000000000000000000073ffffffffffffffffffffffffffffffffffffffff163073ffffffffffffffffffffffffffffffffffffffff16036110e6576040517f08c379a00000000000000000000000000000000000000000000000000000000081526004016110dd906131a9565b60405180910390fd5b7f000000000000000000000000000000000000000000000000000000000000000073ffffffffffffffffffffffffffffffffffffffff16611125612047565b73ffffffffffffffffffffffffffffffffffffffff161461117b576040517f08c379a000000000000000000000000000000000000000000000000000000000815260040161117290613237565b60405180910390fd5b6111848261209a565b611190828260016120c8565b5050565b5f7f000000000000000000000000000000000000000000000000000000000000000073ffffffffffffffffffffffffffffffffffffffff163073ffffffffffffffffffffffffffffffffffffffff1614611223576040517f08c379a000000000000000000000000000000000000000000000000000000000815260040161121a906132c5565b60405180910390fd5b7f360894a13ba1a3210667c828492db98dca3e2076cc3735a920a3ca505d382bbc5f1b905090565b7fb19546dff01e856fb3f010c267a7b1c60363cf8a4664e21cc89c26224620214e61127581611cf3565b816101335f8573ffffffffffffffffffffffffffffffffffffffff1673ffffffffffffffffffffffffffffffffffffffff1681526020019081526020015f205f6101000a81548160ff0219169083151502179055508273ffffffffffffffffffffffffffffffffffffffff167f1a594081ae893ab78e67d9b9e843547318164322d32c65369d78a96172d9dc8f836040516113109190612abb565b60405180910390a2505050565b7fb19546dff01e856fb3f010c267a7b1c60363cf8a4664e21cc89c26224620214e61134781611cf3565b8161012d5f6101000a81548173ffffffffffffffffffffffffffffffffffffffff021916908373ffffffffffffffffffffffffffffffffffffffff1602179055508173ffffffffffffffffffffffffffffffffffffffff167fdfccf581ae27a41845f39125ccb5ef00c0a079c5bf3bf751ecd2045e2d6d442f60405160405180910390a25050565b5f60335f9054906101000a900460ff16905090565b5f5f61012e5f9054906101000a900473ffffffffffffffffffffffffffffffffffffffff1673ffffffffffffffffffffffffffffffffffffffff1663028731b2308787876040518563ffffffff1660e01b815260040161144794939291906132e3565b6020604051808303815f875af1158015611463573d5f5f3e3d5ffd5b505050506040513d601f19601f82011682018060405250810190611487919061333a565b90505f61012f5f9054906101000a900473ffffffffffffffffffffffffffffffffffffffff1673ffffffffffffffffffffffffffffffffffffffff16637b8cabb6836040518263ffffffff1660e01b81526004016114e59190612b5a565b6020604051808303815f875af1158015611501573d5f5f3e3d5ffd5b505050506040513d601f19601f82011682018060405250810190611525919061333a565b90508173ffffffffffffffffffffffffffffffffffffffff1663113aa8b1826040518263ffffffff1660e01b81526004016115609190612b5a565b5f604051808303815f87803b158015611577575f5ffd5b505af1158015611589573d5f5f3e3d5ffd5b5050505061013560405180606001604052808873ffffffffffffffffffffffffffffffffffffffff1681526020018773ffffffffffffffffffffffffffffffffffffffff1681526020018373ffffffffffffffffffffffffffffffffffffffff16815250908060018154018082558091505060019003905f5260205f2090600302015f909190919091505f820151815f015f6101000a81548173ffffffffffffffffffffffffffffffffffffffff021916908373ffffffffffffffffffffffffffffffffffffffff1602179055506020820151816001015f6101000a81548173ffffffffffffffffffffffffffffffffffffffff021916908373ffffffffffffffffffffffffffffffffffffffff1602179055506040820151816002015f6101000a81548173ffffffffffffffffffffffffffffffffffffffff021916908373ffffffffffffffffffffffffffffffffffffffff16021790555050506101365f8154809291906116f890613392565b91905055508073ffffffffffffffffffffffffffffffffffffffff168573ffffffffffffffffffffffffffffffffffffffff168773ffffffffffffffffffffffffffffffffffffffff167f96002a27cd438afd06fa237c8247c8c03b0c94c7d214d44fc735abd710bcc8c0876040516117719190612f65565b60405180910390a480925050509392505050565b7f65d7a28e3265b37a6474929f336521b332c1681b933f6cb9f3376673440d862a6117af81611cf3565b6117b7612293565b50565b6101305f9054906101000a900473ffffffffffffffffffffffffffffffffffffffff1681565b5f60fb5f8481526020019081526020015f205f015f8373ffffffffffffffffffffffffffffffffffffffff1673ffffffffffffffffffffffffffffffffffffffff1681526020019081526020015f205f9054906101000a900460ff16905092915050565b610133602052805f5260405f205f915054906101000a900460ff1681565b5f5f1b81565b6101358181548110611878575f80fd5b905f5260205f2090600302015f91509050805f015f9054906101000a900473ffffffffffffffffffffffffffffffffffffffff1690806001015f9054906101000a900473ffffffffffffffffffffffffffffffffffffffff1690806002015f9054906101000a900473ffffffffffffffffffffffffffffffffffffffff16905083565b6101315f9054906101000a900473ffffffffffffffffffffffffffffffffffffffff1681565b61192a82610db6565b61193381611cf3565b61193d8383611f6c565b505050565b7fb19546dff01e856fb3f010c267a7b1c60363cf8a4664e21cc89c26224620214e61196c81611cf3565b816101325f8573ffffffffffffffffffffffffffffffffffffffff1673ffffffffffffffffffffffffffffffffffffffff1681526020019081526020015f205f6101000a81548173ffffffffffffffffffffffffffffffffffffffff021916908373ffffffffffffffffffffffffffffffffffffffff1602179055508173ffffffffffffffffffffffffffffffffffffffff168373ffffffffffffffffffffffffffffffffffffffff167fc5f200bc64f9d16d888ec9eaec566ef2155fab997cb7210a15722b06e32a3c7060405160405180910390a3505050565b61012d5f9054906101000a900473ffffffffffffffffffffffffffffffffffffffff1681565b7fb19546dff01e856fb3f010c267a7b1c60363cf8a4664e21cc89c26224620214e81565b7f65d7a28e3265b37a6474929f336521b332c1681b933f6cb9f3376673440d862a81565b61012e5f9054906101000a900473ffffffffffffffffffffffffffffffffffffffff1681565b610134602052805f5260405f205f915054906101000a900473ffffffffffffffffffffffffffffffffffffffff1681565b7fb19546dff01e856fb3f010c267a7b1c60363cf8a4664e21cc89c26224620214e611b3681611cf3565b816101345f8573ffffffffffffffffffffffffffffffffffffffff1673ffffffffffffffffffffffffffffffffffffffff1681526020019081526020015f205f6101000a81548173ffffffffffffffffffffffffffffffffffffffff021916908373ffffffffffffffffffffffffffffffffffffffff1602179055508173ffffffffffffffffffffffffffffffffffffffff168373ffffffffffffffffffffffffffffffffffffffff167f443eca89ae0d91090321746b66b1e5a800bf4f33b317a7dbc01dc310b55c329160405160405180910390a3505050565b6101365481565b7f189ab7a9244df0848122154315af71fe140f3db0fe014031783b0946b8c9d2e381565b7fb19546dff01e856fb3f010c267a7b1c60363cf8a4664e21cc89c26224620214e611c6681611cf3565b816101315f6101000a81548173ffffffffffffffffffffffffffffffffffffffff021916908373ffffffffffffffffffffffffffffffffffffffff1602179055508173ffffffffffffffffffffffffffffffffffffffff167f87f38b33506619f9f981cdf0439928c07e8478960e3b27545f27bae983b1ff8b60405160405180910390a25050565b600281565b611d0481611cff611f65565b6122f5565b50565b5f7f01ffc9a7000000000000000000000000000000000000000000000000000000007bffffffffffffffffffffffffffffffffffffffffffffffffffffffff1916827bffffffffffffffffffffffffffffffffffffffffffffffffffffffff1916149050919050565b5f5f8273ffffffffffffffffffffffffffffffffffffffff163b119050919050565b5f60019054906101000a900460ff16611de0576040517f08c379a0000000000000000000000000000000000000000000000000000000008152600401611dd790613449565b60405180910390fd5b611de8612379565b565b5f60019054906101000a900460ff16611e38576040517f08c379a0000000000000000000000000000000000000000000000000000000008152600401611e2f90613449565b60405180910390fd5b565b5f60019054906101000a900460ff16611e88576040517f08c379a0000000000000000000000000000000000000000000000000000000008152600401611e7f90613449565b60405180910390fd5b565b611e9482826117e0565b611f6157600160fb5f8481526020019081526020015f205f015f8373ffffffffffffffffffffffffffffffffffffffff1673ffffffffffffffffffffffffffffffffffffffff1681526020019081526020015f205f6101000a81548160ff021916908315150217905550611f06611f65565b73ffffffffffffffffffffffffffffffffffffffff168173ffffffffffffffffffffffffffffffffffffffff16837f2f8788117e7eff1d82e926ec794901d17c78024a50270940304540a733656f0d60405160405180910390a45b5050565b5f33905090565b611f7682826117e0565b15612043575f60fb5f8481526020019081526020015f205f015f8373ffffffffffffffffffffffffffffffffffffffff1673ffffffffffffffffffffffffffffffffffffffff1681526020019081526020015f205f6101000a81548160ff021916908315150217905550611fe8611f65565b73ffffffffffffffffffffffffffffffffffffffff168173ffffffffffffffffffffffffffffffffffffffff16837ff6391f5c32d9c69d2a47ea670b442974b53935d1edc7fd64eb21e047a839171b60405160405180910390a45b5050565b5f6120737f360894a13ba1a3210667c828492db98dca3e2076cc3735a920a3ca505d382bbc5f1b6123e2565b5f015f9054906101000a900473ffffffffffffffffffffffffffffffffffffffff16905090565b7f189ab7a9244df0848122154315af71fe140f3db0fe014031783b0946b8c9d2e36120c481611cf3565b5050565b6120f37f4910fdfa16fed3260ed0e7147f7cc6da11a60208b5b9406d12a635614ffd91435f1b6123eb565b5f015f9054906101000a900460ff161561211557612110836123f4565b61222d565b8273ffffffffffffffffffffffffffffffffffffffff166352d1902d6040518163ffffffff1660e01b8152600401602060405180830381865afa92505050801561217d57506040513d601f19601f8201168201806040525081019061217a919061347b565b60015b6121bc576040517f08c379a00000000000000000000000000000000000000000000000000000000081526004016121b390613516565b60405180910390fd5b7f360894a13ba1a3210667c828492db98dca3e2076cc3735a920a3ca505d382bbc5f1b8114612220576040517f08c379a0000000000000000000000000000000000000000000000000000000008152600401612217906135a4565b60405180910390fd5b5061222c8383836124aa565b5b505050565b61223a6124d5565b5f60335f6101000a81548160ff0219169083151502179055507f5db9ee0a495bf2e6ff9c91a7834c1ba4fdd244a5e8aa4e537bd38aeae4b073aa61227c611f65565b6040516122899190612b5a565b60405180910390a1565b61229b61251e565b600160335f6101000a81548160ff0219169083151502179055507f62e78cea01bee320cd4e420270b5ea74000d11b0c9f74754ebdbfc544b05a2586122de611f65565b6040516122eb9190612b5a565b60405180910390a1565b6122ff82826117e0565b6123755761230c81612568565b612319835f1c6020612595565b60405160200161232a9291906136a8565b6040516020818303038152906040526040517f08c379a000000000000000000000000000000000000000000000000000000000815260040161236c9190613719565b60405180910390fd5b5050565b5f60019054906101000a900460ff166123c7576040517f08c379a00000000000000000000000000000000000000000000000000000000081526004016123be90613449565b60405180910390fd5b5f60335f6101000a81548160ff021916908315150217905550565b5f819050919050565b5f819050919050565b6123fd81611d70565b61243c576040517f08c379a0000000000000000000000000000000000000000000000000000000008152600401612433906137a9565b60405180910390fd5b806124687f360894a13ba1a3210667c828492db98dca3e2076cc3735a920a3ca505d382bbc5f1b6123e2565b5f015f6101000a81548173ffffffffffffffffffffffffffffffffffffffff021916908373ffffffffffffffffffffffffffffffffffffffff16021790555050565b6124b3836127ca565b5f825111806124bf5750805b156124d0576124ce8383612819565b505b505050565b6124dd6113cf565b61251c576040517f08c379a000000000000000000000000000000000000000000000000000000000815260040161251390613811565b60405180910390fd5b565b6125266113cf565b15612566576040517f08c379a000000000000000000000000000000000000000000000000000000000815260040161255d90613879565b60405180910390fd5b565b606061258e8273ffffffffffffffffffffffffffffffffffffffff16601460ff16612595565b9050919050565b60605f60028360026125a79190613897565b6125b191906138d8565b67ffffffffffffffff8111156125ca576125c9612c4f565b5b6040519080825280601f01601f1916602001820160405280156125fc5781602001600182028036833780820191505090505b5090507f3000000000000000000000000000000000000000000000000000000000000000815f815181106126335761263261390b565b5b60200101907effffffffffffffffffffffffffffffffffffffffffffffffffffffffffffff191690815f1a9053507f7800000000000000000000000000000000000000000000000000000000000000816001815181106126965761269561390b565b5b60200101907effffffffffffffffffffffffffffffffffffffffffffffffffffffffffffff191690815f1a9053505f60018460026126d49190613897565b6126de91906138d8565b90505b600181111561277d577f3031323334353637383961626364656600000000000000000000000000000000600f8616601081106127205761271f61390b565b5b1a60f81b8282815181106127375761273661390b565b5b60200101907effffffffffffffffffffffffffffffffffffffffffffffffffffffffffffff191690815f1a905350600485901c94508061277690613938565b90506126e1565b505f84146127c0576040517f08c379a00000000000000000000000000000000000000000000000000000000081526004016127b7906139a9565b60405180910390fd5b8091505092915050565b6127d3816123f4565b8073ffffffffffffffffffffffffffffffffffffffff167fbc7cd75a20ee27fd9adebab32041f755214dbc6bffa90cc0225b39da2e5c2d3b60405160405180910390a250565b606061283e8383604051806060016040528060278152602001613a8a60279139612846565b905092915050565b60605f5f8573ffffffffffffffffffffffffffffffffffffffff168560405161286f9190613a0b565b5f60405180830381855af49150503d805f81146128a7576040519150601f19603f3d011682016040523d82523d5f602084013e6128ac565b606091505b50915091506128bd868383876128c8565b925050509392505050565b60608315612929575f835103612921576128e185611d70565b612920576040517f08c379a000000000000000000000000000000000000000000000000000000000815260040161291790613a6b565b60405180910390fd5b5b829050612934565b612933838361293c565b5b949350505050565b5f8251111561294e5781518083602001fd5b806040517f08c379a00000000000000000000000000000000000000000000000000000000081526004016129829190613719565b60405180910390fd5b5f604051905090565b5f5ffd5b5f5ffd5b5f73ffffffffffffffffffffffffffffffffffffffff82169050919050565b5f6129c58261299c565b9050919050565b6129d5816129bb565b81146129df575f5ffd5b50565b5f813590506129f0816129cc565b92915050565b5f60208284031215612a0b57612a0a612994565b5b5f612a18848285016129e2565b91505092915050565b5f7fffffffff0000000000000000000000000000000000000000000000000000000082169050919050565b612a5581612a21565b8114612a5f575f5ffd5b50565b5f81359050612a7081612a4c565b92915050565b5f60208284031215612a8b57612a8a612994565b5b5f612a9884828501612a62565b91505092915050565b5f8115159050919050565b612ab581612aa1565b82525050565b5f602082019050612ace5f830184612aac565b92915050565b5f5f5f5f5f60a08688031215612aed57612aec612994565b5b5f612afa888289016129e2565b9550506020612b0b888289016129e2565b9450506040612b1c888289016129e2565b9350506060612b2d888289016129e2565b9250506080612b3e888289016129e2565b9150509295509295909350565b612b54816129bb565b82525050565b5f602082019050612b6d5f830184612b4b565b92915050565b5f819050919050565b612b8581612b73565b8114612b8f575f5ffd5b50565b5f81359050612ba081612b7c565b92915050565b5f60208284031215612bbb57612bba612994565b5b5f612bc884828501612b92565b91505092915050565b612bda81612b73565b82525050565b5f602082019050612bf35f830184612bd1565b92915050565b5f5f60408385031215612c0f57612c0e612994565b5b5f612c1c85828601612b92565b9250506020612c2d858286016129e2565b9150509250929050565b5f5ffd5b5f5ffd5b5f601f19601f8301169050919050565b7f4e487b71000000000000000000000000000000000000000000000000000000005f52604160045260245ffd5b612c8582612c3f565b810181811067ffffffffffffffff82111715612ca457612ca3612c4f565b5b80604052505050565b5f612cb661298b565b9050612cc28282612c7c565b919050565b5f67ffffffffffffffff821115612ce157612ce0612c4f565b5b612cea82612c3f565b9050602081019050919050565b828183375f83830152505050565b5f612d17612d1284612cc7565b612cad565b905082815260208101848484011115612d3357612d32612c3b565b5b612d3e848285612cf7565b509392505050565b5f82601f830112612d5a57612d59612c37565b5b8135612d6a848260208601612d05565b91505092915050565b5f5f60408385031215612d8957612d88612994565b5b5f612d96858286016129e2565b925050602083013567ffffffffffffffff811115612db757612db6612998565b5b612dc385828601612d46565b9150509250929050565b612dd681612aa1565b8114612de0575f5ffd5b50565b5f81359050612df181612dcd565b92915050565b5f5f60408385031215612e0d57612e0c612994565b5b5f612e1a858286016129e2565b9250506020612e2b85828601612de3565b9150509250929050565b5f819050919050565b612e4781612e35565b8114612e51575f5ffd5b50565b5f81359050612e6281612e3e565b92915050565b5f5f5f60608486031215612e7f57612e7e612994565b5b5f612e8c868287016129e2565b9350506020612e9d868287016129e2565b9250506040612eae86828701612e54565b9150509250925092565b5f60208284031215612ecd57612ecc612994565b5b5f612eda84828501612e54565b91505092915050565b5f606082019050612ef65f830186612b4b565b612f036020830185612b4b565b612f106040830184612b4b565b949350505050565b5f5f60408385031215612f2e57612f2d612994565b5b5f612f3b858286016129e2565b9250506020612f4c858286016129e2565b9150509250929050565b612f5f81612e35565b82525050565b5f602082019050612f785f830184612f56565b92915050565b5f60ff82169050919050565b612f9381612f7e565b82525050565b5f602082019050612fac5f830184612f8a565b92915050565b5f82825260208201905092915050565b7f496e697469616c697a61626c653a20636f6e747261637420697320616c7265615f8201527f647920696e697469616c697a6564000000000000000000000000000000000000602082015250565b5f61301c602e83612fb2565b915061302782612fc2565b604082019050919050565b5f6020820190508181035f83015261304981613010565b9050919050565b5f819050919050565b5f819050919050565b5f61307c61307761307284613050565b613059565b612f7e565b9050919050565b61308c81613062565b82525050565b5f6020820190506130a55f830184613083565b92915050565b7f416363657373436f6e74726f6c3a2063616e206f6e6c792072656e6f756e63655f8201527f20726f6c657320666f722073656c660000000000000000000000000000000000602082015250565b5f613105602f83612fb2565b9150613110826130ab565b604082019050919050565b5f6020820190508181035f830152613132816130f9565b9050919050565b7f46756e6374696f6e206d7573742062652063616c6c6564207468726f756768205f8201527f64656c656761746563616c6c0000000000000000000000000000000000000000602082015250565b5f613193602c83612fb2565b915061319e82613139565b604082019050919050565b5f6020820190508181035f8301526131c081613187565b9050919050565b7f46756e6374696f6e206d7573742062652063616c6c6564207468726f756768205f8201527f6163746976652070726f78790000000000000000000000000000000000000000602082015250565b5f613221602c83612fb2565b915061322c826131c7565b604082019050919050565b5f6020820190508181035f83015261324e81613215565b9050919050565b7f555550535570677261646561626c653a206d757374206e6f742062652063616c5f8201527f6c6564207468726f7567682064656c656761746563616c6c0000000000000000602082015250565b5f6132af603883612fb2565b91506132ba82613255565b604082019050919050565b5f6020820190508181035f8301526132dc816132a3565b9050919050565b5f6080820190506132f65f830187612b4b565b6133036020830186612b4b565b6133106040830185612b4b565b61331d6060830184612f56565b95945050505050565b5f81519050613334816129cc565b92915050565b5f6020828403121561334f5761334e612994565b5b5f61335c84828501613326565b91505092915050565b7f4e487b71000000000000000000000000000000000000000000000000000000005f52601160045260245ffd5b5f61339c82612e35565b91507fffffffffffffffffffffffffffffffffffffffffffffffffffffffffffffffff82036133ce576133cd613365565b5b600182019050919050565b7f496e697469616c697a61626c653a20636f6e7472616374206973206e6f7420695f8201527f6e697469616c697a696e67000000000000000000000000000000000000000000602082015250565b5f613433602b83612fb2565b915061343e826133d9565b604082019050919050565b5f6020820190508181035f83015261346081613427565b9050919050565b5f8151905061347581612b7c565b92915050565b5f602082840312156134905761348f612994565b5b5f61349d84828501613467565b91505092915050565b7f45524331393637557067726164653a206e657720696d706c656d656e746174695f8201527f6f6e206973206e6f742055555053000000000000000000000000000000000000602082015250565b5f613500602e83612fb2565b915061350b826134a6565b604082019050919050565b5f6020820190508181035f83015261352d816134f4565b9050919050565b7f45524331393637557067726164653a20756e737570706f727465642070726f785f8201527f6961626c65555549440000000000000000000000000000000000000000000000602082015250565b5f61358e602983612fb2565b915061359982613534565b604082019050919050565b5f6020820190508181035f8301526135bb81613582565b9050919050565b5f81905092915050565b7f416363657373436f6e74726f6c3a206163636f756e74200000000000000000005f82015250565b5f6136006017836135c2565b915061360b826135cc565b601782019050919050565b5f81519050919050565b8281835e5f83830152505050565b5f61363882613616565b61364281856135c2565b9350613652818560208601613620565b80840191505092915050565b7f206973206d697373696e6720726f6c65200000000000000000000000000000005f82015250565b5f6136926011836135c2565b915061369d8261365e565b601182019050919050565b5f6136b2826135f4565b91506136be828561362e565b91506136c982613686565b91506136d5828461362e565b91508190509392505050565b5f6136eb82613616565b6136f58185612fb2565b9350613705818560208601613620565b61370e81612c3f565b840191505092915050565b5f6020820190508181035f83015261373181846136e1565b905092915050565b7f455243313936373a206e657720696d706c656d656e746174696f6e206973206e5f8201527f6f74206120636f6e747261637400000000000000000000000000000000000000602082015250565b5f613793602d83612fb2565b915061379e82613739565b604082019050919050565b5f6020820190508181035f8301526137c081613787565b9050919050565b7f5061757361626c653a206e6f74207061757365640000000000000000000000005f82015250565b5f6137fb601483612fb2565b9150613806826137c7565b602082019050919050565b5f6020820190508181035f830152613828816137ef565b9050919050565b7f5061757361626c653a20706175736564000000000000000000000000000000005f82015250565b5f613863601083612fb2565b915061386e8261382f565b602082019050919050565b5f6020820190508181035f83015261389081613857565b9050919050565b5f6138a182612e35565b91506138ac83612e35565b92508282026138ba81612e35565b915082820484148315176138d1576138d0613365565b5b5092915050565b5f6138e282612e35565b91506138ed83612e35565b925082820190508082111561390557613904613365565b5b92915050565b7f4e487b71000000000000000000000000000000000000000000000000000000005f52603260045260245ffd5b5f61394282612e35565b91505f820361395457613953613365565b5b600182039050919050565b7f537472696e67733a20686578206c656e67746820696e73756666696369656e745f82015250565b5f613993602083612fb2565b915061399e8261395f565b602082019050919050565b5f6020820190508181035f8301526139c081613987565b9050919050565b5f81519050919050565b5f81905092915050565b5f6139e5826139c7565b6139ef81856139d1565b93506139ff818560208601613620565b80840191505092915050565b5f613a1682846139db565b915081905092915050565b7f416464726573733a2063616c6c20746f206e6f6e2d636f6e74726163740000005f82015250565b5f613a55601d83612fb2565b9150613a6082613a21565b602082019050919050565b5f6020820190508181035f830152613a8281613a49565b905091905056fe416464726573733a206c6f772d6c6576656c2064656c65676174652063616c6c206661696c6564a2646970667358221220ba109bab4190f59bd6230df98ca47764d7cddf9fb20a6bc1eb2574aa6614686464736f6c634300081c0033","linkReferences":{}},"methodIdentifiers":{"DEFAULT_ADMIN_ROLE()":"a217fddf","OWNER_ROLE()":"e58378bb","PAUSER_ROLE()":"e63ab1e9","UPGRADER_ROLE()":"f72c0d8b","VERSION()":"ffa1ad74","WKAIA()":"145d51d8","addTokenDataStream(address,address)":"e18487ca","createLendingPool(address,address,uint256)":"802de844","getRoleAdmin(bytes32)":"248a9ca3","grantRole(bytes32,address)":"2f2ff15d","hasRole(bytes32,address)":"91d14854","initialize(address,address,address,address,address)":"1459457a","isHealthy()":"e4020804","lendingPoolDeployer()":"42e681d8","lendingPoolRouterDeployer()":"e949f3c9","oftAddress(address)":"efe1b2cd","operator(address)":"9a307391","pause()":"8456cb59","paused()":"5c975abb","poolCount()":"f525cb68","pools(uint256)":"ac4afa38","positionDeployer()":"bd3b5471","protocol()":"8ce74426","proxiableUUID()":"52d1902d","renounceRole(bytes32,address)":"36568abe","revokeRole(bytes32,address)":"d547741f","setIsHealthy(address)":"59917d7d","setLendingPoolDeployer(address)":"00546b2a","setOftAddress(address,address)":"f09a0d6b","setOperator(address,bool)":"558a7297","setPositionDeployer(address)":"f8446dcd","setProtocol(address)":"0a9d793d","supportsInterface(bytes4)":"01ffc9a7","tokenDataStream(address)":"1d43335a","unpause()":"3f4ba83a","upgradeTo(address)":"3659cfe6","upgradeToAndCall(address,bytes)":"4f1ef286"},"id":103}