{"abi":[{"type":"constructor","inputs":[],"stateMutability":"nonpayable"},{"type":"function","name":"DEFAULT_ADMIN_ROLE","inputs":[],"outputs":[{"name":"","type":"bytes32","internalType":"bytes32"}],"stateMutability":"view"},{"type":"function","name":"OWNER_ROLE","inputs":[],"outputs":[{"name":"","type":"bytes32","internalType":"bytes32"}],"stateMutability":"view"},{"type":"function","name":"PAUSER_ROLE","inputs":[],"outputs":[{"name":"","type":"bytes32","internalType":"bytes32"}],"stateMutability":"view"},{"type":"function","name":"UPGRADER_ROLE","inputs":[],"outputs":[{"name":"","type":"bytes32","internalType":"bytes32"}],"stateMutability":"view"},{"type":"function","name":"WRAPPED_NATIVE","inputs":[],"outputs":[{"name":"","type":"address","internalType":"address"}],"stateMutability":"view"},{"type":"function","name":"addTokenDataStream","inputs":[{"name":"_token","type":"address","internalType":"address"},{"name":"_dataStream","type":"address","internalType":"address"}],"outputs":[],"stateMutability":"nonpayable"},{"type":"function","name":"createLendingPool","inputs":[{"name":"collateralToken","type":"address","internalType":"address"},{"name":"borrowToken","type":"address","internalType":"address"},{"name":"ltv","type":"uint256","internalType":"uint256"}],"outputs":[{"name":"","type":"address","internalType":"address"}],"stateMutability":"nonpayable"},{"type":"function","name":"getRoleAdmin","inputs":[{"name":"role","type":"bytes32","internalType":"bytes32"}],"outputs":[{"name":"","type":"bytes32","internalType":"bytes32"}],"stateMutability":"view"},{"type":"function","name":"grantRole","inputs":[{"name":"role","type":"bytes32","internalType":"bytes32"},{"name":"account","type":"address","internalType":"address"}],"outputs":[],"stateMutability":"nonpayable"},{"type":"function","name":"hasRole","inputs":[{"name":"role","type":"bytes32","internalType":"bytes32"},{"name":"account","type":"address","internalType":"address"}],"outputs":[{"name":"","type":"bool","internalType":"bool"}],"stateMutability":"view"},{"type":"function","name":"initialize","inputs":[{"name":"_isHealthy","type":"address","internalType":"address"},{"name":"_lendingPoolRouterDeployer","type":"address","internalType":"address"},{"name":"_lendingPoolDeployer","type":"address","internalType":"address"},{"name":"_protocol","type":"address","internalType":"address"},{"name":"_positionDeployer","type":"address","internalType":"address"}],"outputs":[],"stateMutability":"nonpayable"},{"type":"function","name":"isHealthy","inputs":[],"outputs":[{"name":"","type":"address","internalType":"address"}],"stateMutability":"view"},{"type":"function","name":"lendingPoolDeployer","inputs":[],"outputs":[{"name":"","type":"address","internalType":"address"}],"stateMutability":"view"},{"type":"function","name":"lendingPoolRouterDeployer","inputs":[],"outputs":[{"name":"","type":"address","internalType":"address"}],"stateMutability":"view"},{"type":"function","name":"oftAddress","inputs":[{"name":"","type":"address","internalType":"address"}],"outputs":[{"name":"","type":"address","internalType":"address"}],"stateMutability":"view"},{"type":"function","name":"operator","inputs":[{"name":"","type":"address","internalType":"address"}],"outputs":[{"name":"","type":"bool","internalType":"bool"}],"stateMutability":"view"},{"type":"function","name":"pause","inputs":[],"outputs":[],"stateMutability":"nonpayable"},{"type":"function","name":"paused","inputs":[],"outputs":[{"name":"","type":"bool","internalType":"bool"}],"stateMutability":"view"},{"type":"function","name":"poolCount","inputs":[],"outputs":[{"name":"","type":"uint256","internalType":"uint256"}],"stateMutability":"view"},{"type":"function","name":"pools","inputs":[{"name":"","type":"uint256","internalType":"uint256"}],"outputs":[{"name":"collateralToken","type":"address","internalType":"address"},{"name":"borrowToken","type":"address","internalType":"address"},{"name":"lendingPoolAddress","type":"address","internalType":"address"}],"stateMutability":"view"},{"type":"function","name":"positionDeployer","inputs":[],"outputs":[{"name":"","type":"address","internalType":"address"}],"stateMutability":"view"},{"type":"function","name":"protocol","inputs":[],"outputs":[{"name":"","type":"address","internalType":"address"}],"stateMutability":"view"},{"type":"function","name":"proxiableUUID","inputs":[],"outputs":[{"name":"","type":"bytes32","internalType":"bytes32"}],"stateMutability":"view"},{"type":"function","name":"renounceRole","inputs":[{"name":"role","type":"bytes32","internalType":"bytes32"},{"name":"account","type":"address","internalType":"address"}],"outputs":[],"stateMutability":"nonpayable"},{"type":"function","name":"revokeRole","inputs":[{"name":"role","type":"bytes32","internalType":"bytes32"},{"name":"account","type":"address","internalType":"address"}],"outputs":[],"stateMutability":"nonpayable"},{"type":"function","name":"setIsHealthy","inputs":[{"name":"_isHealthy","type":"address","internalType":"address"}],"outputs":[],"stateMutability":"nonpayable"},{"type":"function","name":"setLendingPoolDeployer","inputs":[{"name":"_lendingPoolDeployer","type":"address","internalType":"address"}],"outputs":[],"stateMutability":"nonpayable"},{"type":"function","name":"setLendingPoolRouterDeployer","inputs":[{"name":"_lendingPoolRouterDeployer","type":"address","internalType":"address"}],"outputs":[],"stateMutability":"nonpayable"},{"type":"function","name":"setOftAddress","inputs":[{"name":"_token","type":"address","internalType":"address"},{"name":"_oftAddress","type":"address","internalType":"address"}],"outputs":[],"stateMutability":"nonpayable"},{"type":"function","name":"setOperator","inputs":[{"name":"_operator","type":"address","internalType":"address"},{"name":"_status","type":"bool","internalType":"bool"}],"outputs":[],"stateMutability":"nonpayable"},{"type":"function","name":"setPositionDeployer","inputs":[{"name":"_positionDeployer","type":"address","internalType":"address"}],"outputs":[],"stateMutability":"nonpayable"},{"type":"function","name":"setProtocol","inputs":[{"name":"_protocol","type":"address","internalType":"address"}],"outputs":[],"stateMutability":"nonpayable"},{"type":"function","name":"supportsInterface","inputs":[{"name":"interfaceId","type":"bytes4","internalType":"bytes4"}],"outputs":[{"name":"","type":"bool","internalType":"bool"}],"stateMutability":"view"},{"type":"function","name":"tokenDataStream","inputs":[{"name":"","type":"address","internalType":"address"}],"outputs":[{"name":"","type":"address","internalType":"address"}],"stateMutability":"view"},{"type":"function","name":"unpause","inputs":[],"outputs":[],"stateMutability":"nonpayable"},{"type":"function","name":"upgradeTo","inputs":[{"name":"newImplementation","type":"address","internalType":"address"}],"outputs":[],"stateMutability":"nonpayable"},{"type":"function","name":"upgradeToAndCall","inputs":[{"name":"newImplementation","type":"address","internalType":"address"},{"name":"data","type":"bytes","internalType":"bytes"}],"outputs":[],"stateMutability":"payable"},{"type":"event","name":"AdminChanged","inputs":[{"name":"previousAdmin","type":"address","indexed":false,"internalType":"address"},{"name":"newAdmin","type":"address","indexed":false,"internalType":"address"}],"anonymous":false},{"type":"event","name":"BeaconUpgraded","inputs":[{"name":"beacon","type":"address","indexed":true,"internalType":"address"}],"anonymous":false},{"type":"event","name":"Initialized","inputs":[{"name":"version","type":"uint8","indexed":false,"internalType":"uint8"}],"anonymous":false},{"type":"event","name":"IsHealthySet","inputs":[{"name":"isHealthy","type":"address","indexed":true,"internalType":"address"}],"anonymous":false},{"type":"event","name":"LendingPoolCreated","inputs":[{"name":"collateralToken","type":"address","indexed":true,"internalType":"address"},{"name":"borrowToken","type":"address","indexed":true,"internalType":"address"},{"name":"lendingPool","type":"address","indexed":true,"internalType":"address"},{"name":"ltv","type":"uint256","indexed":false,"internalType":"uint256"}],"anonymous":false},{"type":"event","name":"LendingPoolDeployerSet","inputs":[{"name":"lendingPoolDeployer","type":"address","indexed":true,"internalType":"address"}],"anonymous":false},{"type":"event","name":"LendingPoolRouterDeployerSet","inputs":[{"name":"lendingPoolRouterDeployer","type":"address","indexed":true,"internalType":"address"}],"anonymous":false},{"type":"event","name":"OftAddressSet","inputs":[{"name":"token","type":"address","indexed":true,"internalType":"address"},{"name":"oftAddress","type":"address","indexed":true,"internalType":"address"}],"anonymous":false},{"type":"event","name":"OperatorSet","inputs":[{"name":"operator","type":"address","indexed":true,"internalType":"address"},{"name":"status","type":"bool","indexed":false,"internalType":"bool"}],"anonymous":false},{"type":"event","name":"Paused","inputs":[{"name":"account","type":"address","indexed":false,"internalType":"address"}],"anonymous":false},{"type":"event","name":"PositionDeployerSet","inputs":[{"name":"positionDeployer","type":"address","indexed":true,"internalType":"address"}],"anonymous":false},{"type":"event","name":"ProtocolSet","inputs":[{"name":"protocol","type":"address","indexed":true,"internalType":"address"}],"anonymous":false},{"type":"event","name":"RoleAdminChanged","inputs":[{"name":"role","type":"bytes32","indexed":true,"internalType":"bytes32"},{"name":"previousAdminRole","type":"bytes32","indexed":true,"internalType":"bytes32"},{"name":"newAdminRole","type":"bytes32","indexed":true,"internalType":"bytes32"}],"anonymous":false},{"type":"event","name":"RoleGranted","inputs":[{"name":"role","type":"bytes32","indexed":true,"internalType":"bytes32"},{"name":"account","type":"address","indexed":true,"internalType":"address"},{"name":"sender","type":"address","indexed":true,"internalType":"address"}],"anonymous":false},{"type":"event","name":"RoleRevoked","inputs":[{"name":"role","type":"bytes32","indexed":true,"internalType":"bytes32"},{"name":"account","type":"address","indexed":true,"internalType":"address"},{"name":"sender","type":"address","indexed":true,"internalType":"address"}],"anonymous":false},{"type":"event","name":"TokenDataStreamAdded","inputs":[{"name":"token","type":"address","indexed":true,"internalType":"address"},{"name":"dataStream","type":"address","indexed":true,"internalType":"address"}],"anonymous":false},{"type":"event","name":"Unpaused","inputs":[{"name":"account","type":"address","indexed":false,"internalType":"address"}],"anonymous":false},{"type":"event","name":"Upgraded","inputs":[{"name":"implementation","type":"address","indexed":true,"internalType":"address"}],"anonymous":false}],"bytecode":{"object":"0x60a06040523073ffffffffffffffffffffffffffffffffffffffff1660809073ffffffffffffffffffffffffffffffffffffffff16815250348015610042575f5ffd5b5061005161005660201b60201c565b6101e6565b5f60019054906101000a900460ff16156100a5576040517f08c379a000000000000000000000000000000000000000000000000000000000815260040161009c90610194565b60405180910390fd5b60ff80165f5f9054906101000a900460ff1660ff16146101125760ff5f5f6101000a81548160ff021916908360ff1602179055507f7f26b83ff96e1f2b6a682f133852f6798a09c465da95921460cefb384740249860ff60405161010991906101cd565b60405180910390a15b565b5f82825260208201905092915050565b7f496e697469616c697a61626c653a20636f6e747261637420697320696e6974695f8201527f616c697a696e6700000000000000000000000000000000000000000000000000602082015250565b5f61017e602783610114565b915061018982610124565b604082019050919050565b5f6020820190508181035f8301526101ab81610172565b9050919050565b5f60ff82169050919050565b6101c7816101b2565b82525050565b5f6020820190506101e05f8301846101be565b92915050565b608051613b6961021a5f395f8181610e5f01528181610eed01528181611040015281816110ce015261117d0152613b695ff3fe608060405260043610610218575f3560e01c80638ce7442611610122578063e18487ca116100aa578063efe1b2cd1161006e578063efe1b2cd14610790578063f09a0d6b146107cc578063f525cb68146107f4578063f72c0d8b1461081e578063f8446dcd1461084857610218565b8063e18487ca146106c0578063e4020804146106e8578063e58378bb14610712578063e63ab1e91461073c578063e949f3c91461076657610218565b8063a217fddf116100f1578063a217fddf146105dc578063ac4afa3814610606578063bd3b547114610644578063d547741f1461066e578063d999984d1461069657610218565b80638ce74426146105125780638dc15a661461053c57806391d14854146105645780639a307391146105a057610218565b80633f4ba83a116101a5578063558a729711610174578063558a72971461044657806359917d7d1461046e5780635c975abb14610496578063802de844146104c05780638456cb59146104fc57610218565b80633f4ba83a146103c057806342e681d8146103d65780634f1ef2861461040057806352d1902d1461041c57610218565b80631d43335a116101ec5780631d43335a146102d0578063248a9ca31461030c5780632f2ff15d1461034857806336568abe146103705780633659cfe61461039857610218565b8062546b2a1461021c57806301ffc9a7146102445780630a9d793d146102805780631459457a146102a8575b5f5ffd5b348015610227575f5ffd5b50610242600480360381019061023d9190612aa1565b610870565b005b34801561024f575f5ffd5b5061026a60048036038101906102659190612b21565b610922565b6040516102779190612b66565b60405180910390f35b34801561028b575f5ffd5b506102a660048036038101906102a19190612aa1565b61099b565b005b3480156102b3575f5ffd5b506102ce60048036038101906102c99190612b7f565b610a4d565b005b3480156102db575f5ffd5b506102f660048036038101906102f19190612aa1565b610d6b565b6040516103039190612c05565b60405180910390f35b348015610317575f5ffd5b50610332600480360381019061032d9190612c51565b610d9c565b60405161033f9190612c8b565b60405180910390f35b348015610353575f5ffd5b5061036e60048036038101906103699190612ca4565b610db9565b005b34801561037b575f5ffd5b5061039660048036038101906103919190612ca4565b610dda565b005b3480156103a3575f5ffd5b506103be60048036038101906103b99190612aa1565b610e5d565b005b3480156103cb575f5ffd5b506103d4610fe3565b005b3480156103e1575f5ffd5b506103ea611018565b6040516103f79190612c05565b60405180910390f35b61041a60048036038101906104159190612e1e565b61103e565b005b348015610427575f5ffd5b5061043061117a565b60405161043d9190612c8b565b60405180910390f35b348015610451575f5ffd5b5061046c60048036038101906104679190612ea2565b611231565b005b348015610479575f5ffd5b50610494600480360381019061048f9190612aa1565b611303565b005b3480156104a1575f5ffd5b506104aa6113b5565b6040516104b79190612b66565b60405180910390f35b3480156104cb575f5ffd5b506104e660048036038101906104e19190612f13565b6113ca565b6040516104f39190612c05565b60405180910390f35b348015610507575f5ffd5b5061051061176b565b005b34801561051d575f5ffd5b506105266117a0565b6040516105339190612c05565b60405180910390f35b348015610547575f5ffd5b50610562600480360381019061055d9190612aa1565b6117c6565b005b34801561056f575f5ffd5b5061058a60048036038101906105859190612ca4565b611878565b6040516105979190612b66565b60405180910390f35b3480156105ab575f5ffd5b506105c660048036038101906105c19190612aa1565b6118dc565b6040516105d39190612b66565b60405180910390f35b3480156105e7575f5ffd5b506105f06118fa565b6040516105fd9190612c8b565b60405180910390f35b348015610611575f5ffd5b5061062c60048036038101906106279190612f63565b611900565b60405161063b93929190612f8e565b60405180910390f35b34801561064f575f5ffd5b50610658611993565b6040516106659190612c05565b60405180910390f35b348015610679575f5ffd5b50610694600480360381019061068f9190612ca4565b6119b9565b005b3480156106a1575f5ffd5b506106aa6119da565b6040516106b79190612c05565b60405180910390f35b3480156106cb575f5ffd5b506106e660048036038101906106e19190612fc3565b6119f2565b005b3480156106f3575f5ffd5b506106fc611af7565b6040516107099190612c05565b60405180910390f35b34801561071d575f5ffd5b50610726611b1d565b6040516107339190612c8b565b60405180910390f35b348015610747575f5ffd5b50610750611b41565b60405161075d9190612c8b565b60405180910390f35b348015610771575f5ffd5b5061077a611b65565b6040516107879190612c05565b60405180910390f35b34801561079b575f5ffd5b506107b660048036038101906107b19190612aa1565b611b8b565b6040516107c39190612c05565b60405180910390f35b3480156107d7575f5ffd5b506107f260048036038101906107ed9190612fc3565b611bbc565b005b3480156107ff575f5ffd5b50610808611cc1565b6040516108159190613010565b60405180910390f35b348015610829575f5ffd5b50610832611cc8565b60405161083f9190612c8b565b60405180910390f35b348015610853575f5ffd5b5061086e60048036038101906108699190612aa1565b611cec565b005b7fb19546dff01e856fb3f010c267a7b1c60363cf8a4664e21cc89c26224620214e61089a81611d9e565b8161012e5f6101000a81548173ffffffffffffffffffffffffffffffffffffffff021916908373ffffffffffffffffffffffffffffffffffffffff1602179055508173ffffffffffffffffffffffffffffffffffffffff167fb01c17406179a638da96eaa4686f4c1b6367270061946142c4a8ea461023d51760405160405180910390a25050565b5f7f7965db0b000000000000000000000000000000000000000000000000000000007bffffffffffffffffffffffffffffffffffffffffffffffffffffffff1916827bffffffffffffffffffffffffffffffffffffffffffffffffffffffff19161480610994575061099382611db2565b5b9050919050565b7fb19546dff01e856fb3f010c267a7b1c60363cf8a4664e21cc89c26224620214e6109c581611d9e565b8161012f5f6101000a81548173ffffffffffffffffffffffffffffffffffffffff021916908373ffffffffffffffffffffffffffffffffffffffff1602179055508173ffffffffffffffffffffffffffffffffffffffff167f9269d63ac6e0360a152db45a73e3e9e471a002419dff28abc7b58efaa211a2ba60405160405180910390a25050565b5f5f60019054906101000a900460ff16159050808015610a7d575060015f5f9054906101000a900460ff1660ff16105b80610aaa5750610a8c30611e1b565b158015610aa9575060015f5f9054906101000a900460ff1660ff16145b5b610ae9576040517f08c379a0000000000000000000000000000000000000000000000000000000008152600401610ae0906130a9565b60405180910390fd5b60015f5f6101000a81548160ff021916908360ff1602179055508015610b245760015f60016101000a81548160ff0219169083151502179055505b610b2c611e3d565b610b34611e95565b610b3c611ee5565b610b485f5f1b33611f35565b610b727f65d7a28e3265b37a6474929f336521b332c1681b933f6cb9f3376673440d862a33611f35565b610b9c7f189ab7a9244df0848122154315af71fe140f3db0fe014031783b0946b8c9d2e333611f35565b610bc67fb19546dff01e856fb3f010c267a7b1c60363cf8a4664e21cc89c26224620214e33611f35565b8561012d5f6101000a81548173ffffffffffffffffffffffffffffffffffffffff021916908373ffffffffffffffffffffffffffffffffffffffff160217905550846101365f6101000a81548173ffffffffffffffffffffffffffffffffffffffff021916908373ffffffffffffffffffffffffffffffffffffffff1602179055508361012e5f6101000a81548173ffffffffffffffffffffffffffffffffffffffff021916908373ffffffffffffffffffffffffffffffffffffffff1602179055508261012f5f6101000a81548173ffffffffffffffffffffffffffffffffffffffff021916908373ffffffffffffffffffffffffffffffffffffffff160217905550816101305f6101000a81548173ffffffffffffffffffffffffffffffffffffffff021916908373ffffffffffffffffffffffffffffffffffffffff1602179055508015610d63575f5f60016101000a81548160ff0219169083151502179055507f7f26b83ff96e1f2b6a682f133852f6798a09c465da95921460cefb38474024986001604051610d5a9190613115565b60405180910390a15b505050505050565b610131602052805f5260405f205f915054906101000a900473ffffffffffffffffffffffffffffffffffffffff1681565b5f60fb5f8381526020019081526020015f20600101549050919050565b610dc282610d9c565b610dcb81611d9e565b610dd58383611f35565b505050565b610de2612010565b73ffffffffffffffffffffffffffffffffffffffff168173ffffffffffffffffffffffffffffffffffffffff1614610e4f576040517f08c379a0000000000000000000000000000000000000000000000000000000008152600401610e469061319e565b60405180910390fd5b610e598282612017565b5050565b7f000000000000000000000000000000000000000000000000000000000000000073ffffffffffffffffffffffffffffffffffffffff163073ffffffffffffffffffffffffffffffffffffffff1603610eeb576040517f08c379a0000000000000000000000000000000000000000000000000000000008152600401610ee29061322c565b60405180910390fd5b7f000000000000000000000000000000000000000000000000000000000000000073ffffffffffffffffffffffffffffffffffffffff16610f2a6120f2565b73ffffffffffffffffffffffffffffffffffffffff1614610f80576040517f08c379a0000000000000000000000000000000000000000000000000000000008152600401610f77906132ba565b60405180910390fd5b610f8981612145565b610fe0815f67ffffffffffffffff811115610fa757610fa6612cfa565b5b6040519080825280601f01601f191660200182016040528015610fd95781602001600182028036833780820191505090505b505f612173565b50565b7f65d7a28e3265b37a6474929f336521b332c1681b933f6cb9f3376673440d862a61100d81611d9e565b6110156122dd565b50565b61012e5f9054906101000a900473ffffffffffffffffffffffffffffffffffffffff1681565b7f000000000000000000000000000000000000000000000000000000000000000073ffffffffffffffffffffffffffffffffffffffff163073ffffffffffffffffffffffffffffffffffffffff16036110cc576040517f08c379a00000000000000000000000000000000000000000000000000000000081526004016110c39061322c565b60405180910390fd5b7f000000000000000000000000000000000000000000000000000000000000000073ffffffffffffffffffffffffffffffffffffffff1661110b6120f2565b73ffffffffffffffffffffffffffffffffffffffff1614611161576040517f08c379a0000000000000000000000000000000000000000000000000000000008152600401611158906132ba565b60405180910390fd5b61116a82612145565b61117682826001612173565b5050565b5f7f000000000000000000000000000000000000000000000000000000000000000073ffffffffffffffffffffffffffffffffffffffff163073ffffffffffffffffffffffffffffffffffffffff1614611209576040517f08c379a000000000000000000000000000000000000000000000000000000000815260040161120090613348565b60405180910390fd5b7f360894a13ba1a3210667c828492db98dca3e2076cc3735a920a3ca505d382bbc5f1b905090565b7fb19546dff01e856fb3f010c267a7b1c60363cf8a4664e21cc89c26224620214e61125b81611d9e565b816101325f8573ffffffffffffffffffffffffffffffffffffffff1673ffffffffffffffffffffffffffffffffffffffff1681526020019081526020015f205f6101000a81548160ff0219169083151502179055508273ffffffffffffffffffffffffffffffffffffffff167f1a594081ae893ab78e67d9b9e843547318164322d32c65369d78a96172d9dc8f836040516112f69190612b66565b60405180910390a2505050565b7fb19546dff01e856fb3f010c267a7b1c60363cf8a4664e21cc89c26224620214e61132d81611d9e565b8161012d5f6101000a81548173ffffffffffffffffffffffffffffffffffffffff021916908373ffffffffffffffffffffffffffffffffffffffff1602179055508173ffffffffffffffffffffffffffffffffffffffff167fdfccf581ae27a41845f39125ccb5ef00c0a079c5bf3bf751ecd2045e2d6d442f60405160405180910390a25050565b5f60335f9054906101000a900460ff16905090565b5f5f6101365f9054906101000a900473ffffffffffffffffffffffffffffffffffffffff1673ffffffffffffffffffffffffffffffffffffffff1663028731b2308787876040518563ffffffff1660e01b815260040161142d9493929190613366565b6020604051808303815f875af1158015611449573d5f5f3e3d5ffd5b505050506040513d601f19601f8201168201806040525081019061146d91906133bd565b90505f61012e5f9054906101000a900473ffffffffffffffffffffffffffffffffffffffff1673ffffffffffffffffffffffffffffffffffffffff16637b8cabb6836040518263ffffffff1660e01b81526004016114cb9190612c05565b6020604051808303815f875af11580156114e7573d5f5f3e3d5ffd5b505050506040513d601f19601f8201168201806040525081019061150b91906133bd565b90508173ffffffffffffffffffffffffffffffffffffffff1663113aa8b1826040518263ffffffff1660e01b81526004016115469190612c05565b5f604051808303815f87803b15801561155d575f5ffd5b505af115801561156f573d5f5f3e3d5ffd5b5050505061013460405180606001604052808873ffffffffffffffffffffffffffffffffffffffff1681526020018773ffffffffffffffffffffffffffffffffffffffff1681526020018373ffffffffffffffffffffffffffffffffffffffff16815250908060018154018082558091505060019003905f5260205f2090600302015f909190919091505f820151815f015f6101000a81548173ffffffffffffffffffffffffffffffffffffffff021916908373ffffffffffffffffffffffffffffffffffffffff1602179055506020820151816001015f6101000a81548173ffffffffffffffffffffffffffffffffffffffff021916908373ffffffffffffffffffffffffffffffffffffffff1602179055506040820151816002015f6101000a81548173ffffffffffffffffffffffffffffffffffffffff021916908373ffffffffffffffffffffffffffffffffffffffff16021790555050506101355f8154809291906116de90613415565b91905055508073ffffffffffffffffffffffffffffffffffffffff168573ffffffffffffffffffffffffffffffffffffffff168773ffffffffffffffffffffffffffffffffffffffff167f96002a27cd438afd06fa237c8247c8c03b0c94c7d214d44fc735abd710bcc8c0876040516117579190613010565b60405180910390a480925050509392505050565b7f65d7a28e3265b37a6474929f336521b332c1681b933f6cb9f3376673440d862a61179581611d9e565b61179d61233e565b50565b61012f5f9054906101000a900473ffffffffffffffffffffffffffffffffffffffff1681565b7fb19546dff01e856fb3f010c267a7b1c60363cf8a4664e21cc89c26224620214e6117f081611d9e565b816101365f6101000a81548173ffffffffffffffffffffffffffffffffffffffff021916908373ffffffffffffffffffffffffffffffffffffffff1602179055508173ffffffffffffffffffffffffffffffffffffffff167f1f4863d4b849d378969f0cf16d48d4a72c921b296c978602cab2cb4aa5d32d4e60405160405180910390a25050565b5f60fb5f8481526020019081526020015f205f015f8373ffffffffffffffffffffffffffffffffffffffff1673ffffffffffffffffffffffffffffffffffffffff1681526020019081526020015f205f9054906101000a900460ff16905092915050565b610132602052805f5260405f205f915054906101000a900460ff1681565b5f5f1b81565b6101348181548110611910575f80fd5b905f5260205f2090600302015f91509050805f015f9054906101000a900473ffffffffffffffffffffffffffffffffffffffff1690806001015f9054906101000a900473ffffffffffffffffffffffffffffffffffffffff1690806002015f9054906101000a900473ffffffffffffffffffffffffffffffffffffffff16905083565b6101305f9054906101000a900473ffffffffffffffffffffffffffffffffffffffff1681565b6119c282610d9c565b6119cb81611d9e565b6119d58383612017565b505050565b7319aac5f612f524b754ca7e7c41cbfa2e981a443281565b7fb19546dff01e856fb3f010c267a7b1c60363cf8a4664e21cc89c26224620214e611a1c81611d9e565b816101315f8573ffffffffffffffffffffffffffffffffffffffff1673ffffffffffffffffffffffffffffffffffffffff1681526020019081526020015f205f6101000a81548173ffffffffffffffffffffffffffffffffffffffff021916908373ffffffffffffffffffffffffffffffffffffffff1602179055508173ffffffffffffffffffffffffffffffffffffffff168373ffffffffffffffffffffffffffffffffffffffff167fc5f200bc64f9d16d888ec9eaec566ef2155fab997cb7210a15722b06e32a3c7060405160405180910390a3505050565b61012d5f9054906101000a900473ffffffffffffffffffffffffffffffffffffffff1681565b7fb19546dff01e856fb3f010c267a7b1c60363cf8a4664e21cc89c26224620214e81565b7f65d7a28e3265b37a6474929f336521b332c1681b933f6cb9f3376673440d862a81565b6101365f9054906101000a900473ffffffffffffffffffffffffffffffffffffffff1681565b610133602052805f5260405f205f915054906101000a900473ffffffffffffffffffffffffffffffffffffffff1681565b7fb19546dff01e856fb3f010c267a7b1c60363cf8a4664e21cc89c26224620214e611be681611d9e565b816101335f8573ffffffffffffffffffffffffffffffffffffffff1673ffffffffffffffffffffffffffffffffffffffff1681526020019081526020015f205f6101000a81548173ffffffffffffffffffffffffffffffffffffffff021916908373ffffffffffffffffffffffffffffffffffffffff1602179055508173ffffffffffffffffffffffffffffffffffffffff168373ffffffffffffffffffffffffffffffffffffffff167f443eca89ae0d91090321746b66b1e5a800bf4f33b317a7dbc01dc310b55c329160405160405180910390a3505050565b6101355481565b7f189ab7a9244df0848122154315af71fe140f3db0fe014031783b0946b8c9d2e381565b7fb19546dff01e856fb3f010c267a7b1c60363cf8a4664e21cc89c26224620214e611d1681611d9e565b816101305f6101000a81548173ffffffffffffffffffffffffffffffffffffffff021916908373ffffffffffffffffffffffffffffffffffffffff1602179055508173ffffffffffffffffffffffffffffffffffffffff167f87f38b33506619f9f981cdf0439928c07e8478960e3b27545f27bae983b1ff8b60405160405180910390a25050565b611daf81611daa612010565b6123a0565b50565b5f7f01ffc9a7000000000000000000000000000000000000000000000000000000007bffffffffffffffffffffffffffffffffffffffffffffffffffffffff1916827bffffffffffffffffffffffffffffffffffffffffffffffffffffffff1916149050919050565b5f5f8273ffffffffffffffffffffffffffffffffffffffff163b119050919050565b5f60019054906101000a900460ff16611e8b576040517f08c379a0000000000000000000000000000000000000000000000000000000008152600401611e82906134cc565b60405180910390fd5b611e93612424565b565b5f60019054906101000a900460ff16611ee3576040517f08c379a0000000000000000000000000000000000000000000000000000000008152600401611eda906134cc565b60405180910390fd5b565b5f60019054906101000a900460ff16611f33576040517f08c379a0000000000000000000000000000000000000000000000000000000008152600401611f2a906134cc565b60405180910390fd5b565b611f3f8282611878565b61200c57600160fb5f8481526020019081526020015f205f015f8373ffffffffffffffffffffffffffffffffffffffff1673ffffffffffffffffffffffffffffffffffffffff1681526020019081526020015f205f6101000a81548160ff021916908315150217905550611fb1612010565b73ffffffffffffffffffffffffffffffffffffffff168173ffffffffffffffffffffffffffffffffffffffff16837f2f8788117e7eff1d82e926ec794901d17c78024a50270940304540a733656f0d60405160405180910390a45b5050565b5f33905090565b6120218282611878565b156120ee575f60fb5f8481526020019081526020015f205f015f8373ffffffffffffffffffffffffffffffffffffffff1673ffffffffffffffffffffffffffffffffffffffff1681526020019081526020015f205f6101000a81548160ff021916908315150217905550612093612010565b73ffffffffffffffffffffffffffffffffffffffff168173ffffffffffffffffffffffffffffffffffffffff16837ff6391f5c32d9c69d2a47ea670b442974b53935d1edc7fd64eb21e047a839171b60405160405180910390a45b5050565b5f61211e7f360894a13ba1a3210667c828492db98dca3e2076cc3735a920a3ca505d382bbc5f1b61248d565b5f015f9054906101000a900473ffffffffffffffffffffffffffffffffffffffff16905090565b7f189ab7a9244df0848122154315af71fe140f3db0fe014031783b0946b8c9d2e361216f81611d9e565b5050565b61219e7f4910fdfa16fed3260ed0e7147f7cc6da11a60208b5b9406d12a635614ffd91435f1b612496565b5f015f9054906101000a900460ff16156121c0576121bb8361249f565b6122d8565b8273ffffffffffffffffffffffffffffffffffffffff166352d1902d6040518163ffffffff1660e01b8152600401602060405180830381865afa92505050801561222857506040513d601f19601f8201168201806040525081019061222591906134fe565b60015b612267576040517f08c379a000000000000000000000000000000000000000000000000000000000815260040161225e90613599565b60405180910390fd5b7f360894a13ba1a3210667c828492db98dca3e2076cc3735a920a3ca505d382bbc5f1b81146122cb576040517f08c379a00000000000000000000000000000000000000000000000000000000081526004016122c290613627565b60405180910390fd5b506122d7838383612555565b5b505050565b6122e5612580565b5f60335f6101000a81548160ff0219169083151502179055507f5db9ee0a495bf2e6ff9c91a7834c1ba4fdd244a5e8aa4e537bd38aeae4b073aa612327612010565b6040516123349190612c05565b60405180910390a1565b6123466125c9565b600160335f6101000a81548160ff0219169083151502179055507f62e78cea01bee320cd4e420270b5ea74000d11b0c9f74754ebdbfc544b05a258612389612010565b6040516123969190612c05565b60405180910390a1565b6123aa8282611878565b612420576123b781612613565b6123c4835f1c6020612640565b6040516020016123d592919061372b565b6040516020818303038152906040526040517f08c379a0000000000000000000000000000000000000000000000000000000008152600401612417919061379c565b60405180910390fd5b5050565b5f60019054906101000a900460ff16612472576040517f08c379a0000000000000000000000000000000000000000000000000000000008152600401612469906134cc565b60405180910390fd5b5f60335f6101000a81548160ff021916908315150217905550565b5f819050919050565b5f819050919050565b6124a881611e1b565b6124e7576040517f08c379a00000000000000000000000000000000000000000000000000000000081526004016124de9061382c565b60405180910390fd5b806125137f360894a13ba1a3210667c828492db98dca3e2076cc3735a920a3ca505d382bbc5f1b61248d565b5f015f6101000a81548173ffffffffffffffffffffffffffffffffffffffff021916908373ffffffffffffffffffffffffffffffffffffffff16021790555050565b61255e83612875565b5f8251118061256a5750805b1561257b5761257983836128c4565b505b505050565b6125886113b5565b6125c7576040517f08c379a00000000000000000000000000000000000000000000000000000000081526004016125be90613894565b60405180910390fd5b565b6125d16113b5565b15612611576040517f08c379a0000000000000000000000000000000000000000000000000000000008152600401612608906138fc565b60405180910390fd5b565b60606126398273ffffffffffffffffffffffffffffffffffffffff16601460ff16612640565b9050919050565b60605f6002836002612652919061391a565b61265c919061395b565b67ffffffffffffffff81111561267557612674612cfa565b5b6040519080825280601f01601f1916602001820160405280156126a75781602001600182028036833780820191505090505b5090507f3000000000000000000000000000000000000000000000000000000000000000815f815181106126de576126dd61398e565b5b60200101907effffffffffffffffffffffffffffffffffffffffffffffffffffffffffffff191690815f1a9053507f7800000000000000000000000000000000000000000000000000000000000000816001815181106127415761274061398e565b5b60200101907effffffffffffffffffffffffffffffffffffffffffffffffffffffffffffff191690815f1a9053505f600184600261277f919061391a565b612789919061395b565b90505b6001811115612828577f3031323334353637383961626364656600000000000000000000000000000000600f8616601081106127cb576127ca61398e565b5b1a60f81b8282815181106127e2576127e161398e565b5b60200101907effffffffffffffffffffffffffffffffffffffffffffffffffffffffffffff191690815f1a905350600485901c945080612821906139bb565b905061278c565b505f841461286b576040517f08c379a000000000000000000000000000000000000000000000000000000000815260040161286290613a2c565b60405180910390fd5b8091505092915050565b61287e8161249f565b8073ffffffffffffffffffffffffffffffffffffffff167fbc7cd75a20ee27fd9adebab32041f755214dbc6bffa90cc0225b39da2e5c2d3b60405160405180910390a250565b60606128e98383604051806060016040528060278152602001613b0d602791396128f1565b905092915050565b60605f5f8573ffffffffffffffffffffffffffffffffffffffff168560405161291a9190613a8e565b5f60405180830381855af49150503d805f8114612952576040519150601f19603f3d011682016040523d82523d5f602084013e612957565b606091505b509150915061296886838387612973565b925050509392505050565b606083156129d4575f8351036129cc5761298c85611e1b565b6129cb576040517f08c379a00000000000000000000000000000000000000000000000000000000081526004016129c290613aee565b60405180910390fd5b5b8290506129df565b6129de83836129e7565b5b949350505050565b5f825111156129f95781518083602001fd5b806040517f08c379a0000000000000000000000000000000000000000000000000000000008152600401612a2d919061379c565b60405180910390fd5b5f604051905090565b5f5ffd5b5f5ffd5b5f73ffffffffffffffffffffffffffffffffffffffff82169050919050565b5f612a7082612a47565b9050919050565b612a8081612a66565b8114612a8a575f5ffd5b50565b5f81359050612a9b81612a77565b92915050565b5f60208284031215612ab657612ab5612a3f565b5b5f612ac384828501612a8d565b91505092915050565b5f7fffffffff0000000000000000000000000000000000000000000000000000000082169050919050565b612b0081612acc565b8114612b0a575f5ffd5b50565b5f81359050612b1b81612af7565b92915050565b5f60208284031215612b3657612b35612a3f565b5b5f612b4384828501612b0d565b91505092915050565b5f8115159050919050565b612b6081612b4c565b82525050565b5f602082019050612b795f830184612b57565b92915050565b5f5f5f5f5f60a08688031215612b9857612b97612a3f565b5b5f612ba588828901612a8d565b9550506020612bb688828901612a8d565b9450506040612bc788828901612a8d565b9350506060612bd888828901612a8d565b9250506080612be988828901612a8d565b9150509295509295909350565b612bff81612a66565b82525050565b5f602082019050612c185f830184612bf6565b92915050565b5f819050919050565b612c3081612c1e565b8114612c3a575f5ffd5b50565b5f81359050612c4b81612c27565b92915050565b5f60208284031215612c6657612c65612a3f565b5b5f612c7384828501612c3d565b91505092915050565b612c8581612c1e565b82525050565b5f602082019050612c9e5f830184612c7c565b92915050565b5f5f60408385031215612cba57612cb9612a3f565b5b5f612cc785828601612c3d565b9250506020612cd885828601612a8d565b9150509250929050565b5f5ffd5b5f5ffd5b5f601f19601f8301169050919050565b7f4e487b71000000000000000000000000000000000000000000000000000000005f52604160045260245ffd5b612d3082612cea565b810181811067ffffffffffffffff82111715612d4f57612d4e612cfa565b5b80604052505050565b5f612d61612a36565b9050612d6d8282612d27565b919050565b5f67ffffffffffffffff821115612d8c57612d8b612cfa565b5b612d9582612cea565b9050602081019050919050565b828183375f83830152505050565b5f612dc2612dbd84612d72565b612d58565b905082815260208101848484011115612dde57612ddd612ce6565b5b612de9848285612da2565b509392505050565b5f82601f830112612e0557612e04612ce2565b5b8135612e15848260208601612db0565b91505092915050565b5f5f60408385031215612e3457612e33612a3f565b5b5f612e4185828601612a8d565b925050602083013567ffffffffffffffff811115612e6257612e61612a43565b5b612e6e85828601612df1565b9150509250929050565b612e8181612b4c565b8114612e8b575f5ffd5b50565b5f81359050612e9c81612e78565b92915050565b5f5f60408385031215612eb857612eb7612a3f565b5b5f612ec585828601612a8d565b9250506020612ed685828601612e8e565b9150509250929050565b5f819050919050565b612ef281612ee0565b8114612efc575f5ffd5b50565b5f81359050612f0d81612ee9565b92915050565b5f5f5f60608486031215612f2a57612f29612a3f565b5b5f612f3786828701612a8d565b9350506020612f4886828701612a8d565b9250506040612f5986828701612eff565b9150509250925092565b5f60208284031215612f7857612f77612a3f565b5b5f612f8584828501612eff565b91505092915050565b5f606082019050612fa15f830186612bf6565b612fae6020830185612bf6565b612fbb6040830184612bf6565b949350505050565b5f5f60408385031215612fd957612fd8612a3f565b5b5f612fe685828601612a8d565b9250506020612ff785828601612a8d565b9150509250929050565b61300a81612ee0565b82525050565b5f6020820190506130235f830184613001565b92915050565b5f82825260208201905092915050565b7f496e697469616c697a61626c653a20636f6e747261637420697320616c7265615f8201527f647920696e697469616c697a6564000000000000000000000000000000000000602082015250565b5f613093602e83613029565b915061309e82613039565b604082019050919050565b5f6020820190508181035f8301526130c081613087565b9050919050565b5f819050919050565b5f60ff82169050919050565b5f819050919050565b5f6130ff6130fa6130f5846130c7565b6130dc565b6130d0565b9050919050565b61310f816130e5565b82525050565b5f6020820190506131285f830184613106565b92915050565b7f416363657373436f6e74726f6c3a2063616e206f6e6c792072656e6f756e63655f8201527f20726f6c657320666f722073656c660000000000000000000000000000000000602082015250565b5f613188602f83613029565b91506131938261312e565b604082019050919050565b5f6020820190508181035f8301526131b58161317c565b9050919050565b7f46756e6374696f6e206d7573742062652063616c6c6564207468726f756768205f8201527f64656c656761746563616c6c0000000000000000000000000000000000000000602082015250565b5f613216602c83613029565b9150613221826131bc565b604082019050919050565b5f6020820190508181035f8301526132438161320a565b9050919050565b7f46756e6374696f6e206d7573742062652063616c6c6564207468726f756768205f8201527f6163746976652070726f78790000000000000000000000000000000000000000602082015250565b5f6132a4602c83613029565b91506132af8261324a565b604082019050919050565b5f6020820190508181035f8301526132d181613298565b9050919050565b7f555550535570677261646561626c653a206d757374206e6f742062652063616c5f8201527f6c6564207468726f7567682064656c656761746563616c6c0000000000000000602082015250565b5f613332603883613029565b915061333d826132d8565b604082019050919050565b5f6020820190508181035f83015261335f81613326565b9050919050565b5f6080820190506133795f830187612bf6565b6133866020830186612bf6565b6133936040830185612bf6565b6133a06060830184613001565b95945050505050565b5f815190506133b781612a77565b92915050565b5f602082840312156133d2576133d1612a3f565b5b5f6133df848285016133a9565b91505092915050565b7f4e487b71000000000000000000000000000000000000000000000000000000005f52601160045260245ffd5b5f61341f82612ee0565b91507fffffffffffffffffffffffffffffffffffffffffffffffffffffffffffffffff8203613451576134506133e8565b5b600182019050919050565b7f496e697469616c697a61626c653a20636f6e7472616374206973206e6f7420695f8201527f6e697469616c697a696e67000000000000000000000000000000000000000000602082015250565b5f6134b6602b83613029565b91506134c18261345c565b604082019050919050565b5f6020820190508181035f8301526134e3816134aa565b9050919050565b5f815190506134f881612c27565b92915050565b5f6020828403121561351357613512612a3f565b5b5f613520848285016134ea565b91505092915050565b7f45524331393637557067726164653a206e657720696d706c656d656e746174695f8201527f6f6e206973206e6f742055555053000000000000000000000000000000000000602082015250565b5f613583602e83613029565b915061358e82613529565b604082019050919050565b5f6020820190508181035f8301526135b081613577565b9050919050565b7f45524331393637557067726164653a20756e737570706f727465642070726f785f8201527f6961626c65555549440000000000000000000000000000000000000000000000602082015250565b5f613611602983613029565b915061361c826135b7565b604082019050919050565b5f6020820190508181035f83015261363e81613605565b9050919050565b5f81905092915050565b7f416363657373436f6e74726f6c3a206163636f756e74200000000000000000005f82015250565b5f613683601783613645565b915061368e8261364f565b601782019050919050565b5f81519050919050565b8281835e5f83830152505050565b5f6136bb82613699565b6136c58185613645565b93506136d58185602086016136a3565b80840191505092915050565b7f206973206d697373696e6720726f6c65200000000000000000000000000000005f82015250565b5f613715601183613645565b9150613720826136e1565b601182019050919050565b5f61373582613677565b915061374182856136b1565b915061374c82613709565b915061375882846136b1565b91508190509392505050565b5f61376e82613699565b6137788185613029565b93506137888185602086016136a3565b61379181612cea565b840191505092915050565b5f6020820190508181035f8301526137b48184613764565b905092915050565b7f455243313936373a206e657720696d706c656d656e746174696f6e206973206e5f8201527f6f74206120636f6e747261637400000000000000000000000000000000000000602082015250565b5f613816602d83613029565b9150613821826137bc565b604082019050919050565b5f6020820190508181035f8301526138438161380a565b9050919050565b7f5061757361626c653a206e6f74207061757365640000000000000000000000005f82015250565b5f61387e601483613029565b91506138898261384a565b602082019050919050565b5f6020820190508181035f8301526138ab81613872565b9050919050565b7f5061757361626c653a20706175736564000000000000000000000000000000005f82015250565b5f6138e6601083613029565b91506138f1826138b2565b602082019050919050565b5f6020820190508181035f830152613913816138da565b9050919050565b5f61392482612ee0565b915061392f83612ee0565b925082820261393d81612ee0565b91508282048414831517613954576139536133e8565b5b5092915050565b5f61396582612ee0565b915061397083612ee0565b9250828201905080821115613988576139876133e8565b5b92915050565b7f4e487b71000000000000000000000000000000000000000000000000000000005f52603260045260245ffd5b5f6139c582612ee0565b91505f82036139d7576139d66133e8565b5b600182039050919050565b7f537472696e67733a20686578206c656e67746820696e73756666696369656e745f82015250565b5f613a16602083613029565b9150613a21826139e2565b602082019050919050565b5f6020820190508181035f830152613a4381613a0a565b9050919050565b5f81519050919050565b5f81905092915050565b5f613a6882613a4a565b613a728185613a54565b9350613a828185602086016136a3565b80840191505092915050565b5f613a998284613a5e565b915081905092915050565b7f416464726573733a2063616c6c20746f206e6f6e2d636f6e74726163740000005f82015250565b5f613ad8601d83613029565b9150613ae382613aa4565b602082019050919050565b5f6020820190508181035f830152613b0581613acc565b905091905056fe416464726573733a206c6f772d6c6576656c2064656c65676174652063616c6c206661696c6564a2646970667358221220afe0fd5829b069d2e81de861745cedcec63b7e03428df82e01157733b4c005bc64736f6c634300081e0033","linkReferences":{}},"methodIdentifiers":{"DEFAULT_ADMIN_ROLE()":"a217fddf","OWNER_ROLE()":"e58378bb","PAUSER_ROLE()":"e63ab1e9","UPGRADER_ROLE()":"f72c0d8b","WRAPPED_NATIVE()":"d999984d","addTokenDataStream(address,address)":"e18487ca","createLendingPool(address,address,uint256)":"802de844","getRoleAdmin(bytes32)":"248a9ca3","grantRole(bytes32,address)":"2f2ff15d","hasRole(bytes32,address)":"91d14854","initialize(address,address,address,address,address)":"1459457a","isHealthy()":"e4020804","lendingPoolDeployer()":"42e681d8","lendingPoolRouterDeployer()":"e949f3c9","oftAddress(address)":"efe1b2cd","operator(address)":"9a307391","pause()":"8456cb59","paused()":"5c975abb","poolCount()":"f525cb68","pools(uint256)":"ac4afa38","positionDeployer()":"bd3b5471","protocol()":"8ce74426","proxiableUUID()":"52d1902d","renounceRole(bytes32,address)":"36568abe","revokeRole(bytes32,address)":"d547741f","setIsHealthy(address)":"59917d7d","setLendingPoolDeployer(address)":"00546b2a","setLendingPoolRouterDeployer(address)":"8dc15a66","setOftAddress(address,address)":"f09a0d6b","setOperator(address,bool)":"558a7297","setPositionDeployer(address)":"f8446dcd","setProtocol(address)":"0a9d793d","supportsInterface(bytes4)":"01ffc9a7","tokenDataStream(address)":"1d43335a","unpause()":"3f4ba83a","upgradeTo(address)":"3659cfe6","upgradeToAndCall(address,bytes)":"4f1ef286"},"id":132}