{"abi":[{"type":"constructor","inputs":[],"stateMutability":"nonpayable"},{"type":"fallback","stateMutability":"nonpayable"},{"type":"function","name":"DEFAULT_ADMIN_ROLE","inputs":[],"outputs":[{"name":"","type":"bytes32","internalType":"bytes32"}],"stateMutability":"view"},{"type":"function","name":"DEX_ROUTER","inputs":[],"outputs":[{"name":"","type":"address","internalType":"address"}],"stateMutability":"view"},{"type":"function","name":"OWNER_ROLE","inputs":[],"outputs":[{"name":"","type":"bytes32","internalType":"bytes32"}],"stateMutability":"view"},{"type":"function","name":"PAUSER_ROLE","inputs":[],"outputs":[{"name":"","type":"bytes32","internalType":"bytes32"}],"stateMutability":"view"},{"type":"function","name":"UPGRADER_ROLE","inputs":[],"outputs":[{"name":"","type":"bytes32","internalType":"bytes32"}],"stateMutability":"view"},{"type":"function","name":"UPGRADE_INTERFACE_VERSION","inputs":[],"outputs":[{"name":"","type":"string","internalType":"string"}],"stateMutability":"view"},{"type":"function","name":"WRAPPED_NATIVE","inputs":[],"outputs":[{"name":"","type":"address","internalType":"address"}],"stateMutability":"view"},{"type":"function","name":"addTokenDataStream","inputs":[{"name":"_token","type":"address","internalType":"address"},{"name":"_dataStream","type":"address","internalType":"address"}],"outputs":[],"stateMutability":"nonpayable"},{"type":"function","name":"createLendingPool","inputs":[{"name":"collateralToken","type":"address","internalType":"address"},{"name":"borrowToken","type":"address","internalType":"address"},{"name":"ltv","type":"uint256","internalType":"uint256"}],"outputs":[{"name":"","type":"address","internalType":"address"}],"stateMutability":"nonpayable"},{"type":"function","name":"getRoleAdmin","inputs":[{"name":"role","type":"bytes32","internalType":"bytes32"}],"outputs":[{"name":"","type":"bytes32","internalType":"bytes32"}],"stateMutability":"view"},{"type":"function","name":"grantRole","inputs":[{"name":"role","type":"bytes32","internalType":"bytes32"},{"name":"account","type":"address","internalType":"address"}],"outputs":[],"stateMutability":"nonpayable"},{"type":"function","name":"hasRole","inputs":[{"name":"role","type":"bytes32","internalType":"bytes32"},{"name":"account","type":"address","internalType":"address"}],"outputs":[{"name":"","type":"bool","internalType":"bool"}],"stateMutability":"view"},{"type":"function","name":"initialize","inputs":[{"name":"_isHealthy","type":"address","internalType":"address"},{"name":"_lendingPoolRouterDeployer","type":"address","internalType":"address"},{"name":"_lendingPoolDeployer","type":"address","internalType":"address"},{"name":"_protocol","type":"address","internalType":"address"},{"name":"_positionDeployer","type":"address","internalType":"address"}],"outputs":[],"stateMutability":"nonpayable"},{"type":"function","name":"isHealthy","inputs":[],"outputs":[{"name":"","type":"address","internalType":"address"}],"stateMutability":"view"},{"type":"function","name":"lendingPoolDeployer","inputs":[],"outputs":[{"name":"","type":"address","internalType":"address"}],"stateMutability":"view"},{"type":"function","name":"lendingPoolRouterDeployer","inputs":[],"outputs":[{"name":"","type":"address","internalType":"address"}],"stateMutability":"view"},{"type":"function","name":"oftAddress","inputs":[{"name":"","type":"address","internalType":"address"}],"outputs":[{"name":"","type":"address","internalType":"address"}],"stateMutability":"view"},{"type":"function","name":"operator","inputs":[{"name":"","type":"address","internalType":"address"}],"outputs":[{"name":"","type":"bool","internalType":"bool"}],"stateMutability":"view"},{"type":"function","name":"pause","inputs":[],"outputs":[],"stateMutability":"nonpayable"},{"type":"function","name":"paused","inputs":[],"outputs":[{"name":"","type":"bool","internalType":"bool"}],"stateMutability":"view"},{"type":"function","name":"poolCount","inputs":[],"outputs":[{"name":"","type":"uint256","internalType":"uint256"}],"stateMutability":"view"},{"type":"function","name":"pools","inputs":[{"name":"","type":"uint256","internalType":"uint256"}],"outputs":[{"name":"collateralToken","type":"address","internalType":"address"},{"name":"borrowToken","type":"address","internalType":"address"},{"name":"lendingPoolAddress","type":"address","internalType":"address"}],"stateMutability":"view"},{"type":"function","name":"positionDeployer","inputs":[],"outputs":[{"name":"","type":"address","internalType":"address"}],"stateMutability":"view"},{"type":"function","name":"protocol","inputs":[],"outputs":[{"name":"","type":"address","internalType":"address"}],"stateMutability":"view"},{"type":"function","name":"proxiableUUID","inputs":[],"outputs":[{"name":"","type":"bytes32","internalType":"bytes32"}],"stateMutability":"view"},{"type":"function","name":"renounceRole","inputs":[{"name":"role","type":"bytes32","internalType":"bytes32"},{"name":"callerConfirmation","type":"address","internalType":"address"}],"outputs":[],"stateMutability":"nonpayable"},{"type":"function","name":"revokeRole","inputs":[{"name":"role","type":"bytes32","internalType":"bytes32"},{"name":"account","type":"address","internalType":"address"}],"outputs":[],"stateMutability":"nonpayable"},{"type":"function","name":"setDexRouter","inputs":[{"name":"_dexRouter","type":"address","internalType":"address"}],"outputs":[],"stateMutability":"nonpayable"},{"type":"function","name":"setIsHealthy","inputs":[{"name":"_isHealthy","type":"address","internalType":"address"}],"outputs":[],"stateMutability":"nonpayable"},{"type":"function","name":"setLendingPoolDeployer","inputs":[{"name":"_lendingPoolDeployer","type":"address","internalType":"address"}],"outputs":[],"stateMutability":"nonpayable"},{"type":"function","name":"setLendingPoolRouterDeployer","inputs":[{"name":"_lendingPoolRouterDeployer","type":"address","internalType":"address"}],"outputs":[],"stateMutability":"nonpayable"},{"type":"function","name":"setOftAddress","inputs":[{"name":"_token","type":"address","internalType":"address"},{"name":"_oftAddress","type":"address","internalType":"address"}],"outputs":[],"stateMutability":"nonpayable"},{"type":"function","name":"setOperator","inputs":[{"name":"_operator","type":"address","internalType":"address"},{"name":"_status","type":"bool","internalType":"bool"}],"outputs":[],"stateMutability":"nonpayable"},{"type":"function","name":"setPositionDeployer","inputs":[{"name":"_positionDeployer","type":"address","internalType":"address"}],"outputs":[],"stateMutability":"nonpayable"},{"type":"function","name":"setProtocol","inputs":[{"name":"_protocol","type":"address","internalType":"address"}],"outputs":[],"stateMutability":"nonpayable"},{"type":"function","name":"setWrappedNative","inputs":[{"name":"_wrappedNative","type":"address","internalType":"address"}],"outputs":[],"stateMutability":"nonpayable"},{"type":"function","name":"supportsInterface","inputs":[{"name":"interfaceId","type":"bytes4","internalType":"bytes4"}],"outputs":[{"name":"","type":"bool","internalType":"bool"}],"stateMutability":"view"},{"type":"function","name":"tokenDataStream","inputs":[{"name":"","type":"address","internalType":"address"}],"outputs":[{"name":"","type":"address","internalType":"address"}],"stateMutability":"view"},{"type":"function","name":"unpause","inputs":[],"outputs":[],"stateMutability":"nonpayable"},{"type":"function","name":"upgradeToAndCall","inputs":[{"name":"newImplementation","type":"address","internalType":"address"},{"name":"data","type":"bytes","internalType":"bytes"}],"outputs":[],"stateMutability":"payable"},{"type":"event","name":"DexRouterSet","inputs":[{"name":"dexRouter","type":"address","indexed":true,"internalType":"address"}],"anonymous":false},{"type":"event","name":"Initialized","inputs":[{"name":"version","type":"uint64","indexed":false,"internalType":"uint64"}],"anonymous":false},{"type":"event","name":"IsHealthySet","inputs":[{"name":"isHealthy","type":"address","indexed":true,"internalType":"address"}],"anonymous":false},{"type":"event","name":"LendingPoolCreated","inputs":[{"name":"collateralToken","type":"address","indexed":true,"internalType":"address"},{"name":"borrowToken","type":"address","indexed":true,"internalType":"address"},{"name":"lendingPool","type":"address","indexed":true,"internalType":"address"},{"name":"ltv","type":"uint256","indexed":false,"internalType":"uint256"}],"anonymous":false},{"type":"event","name":"LendingPoolDeployerSet","inputs":[{"name":"lendingPoolDeployer","type":"address","indexed":true,"internalType":"address"}],"anonymous":false},{"type":"event","name":"LendingPoolRouterDeployerSet","inputs":[{"name":"lendingPoolRouterDeployer","type":"address","indexed":true,"internalType":"address"}],"anonymous":false},{"type":"event","name":"OftAddressSet","inputs":[{"name":"token","type":"address","indexed":true,"internalType":"address"},{"name":"oftAddress","type":"address","indexed":true,"internalType":"address"}],"anonymous":false},{"type":"event","name":"OperatorSet","inputs":[{"name":"operator","type":"address","indexed":true,"internalType":"address"},{"name":"status","type":"bool","indexed":false,"internalType":"bool"}],"anonymous":false},{"type":"event","name":"Paused","inputs":[{"name":"account","type":"address","indexed":false,"internalType":"address"}],"anonymous":false},{"type":"event","name":"PositionDeployerSet","inputs":[{"name":"positionDeployer","type":"address","indexed":true,"internalType":"address"}],"anonymous":false},{"type":"event","name":"ProtocolSet","inputs":[{"name":"protocol","type":"address","indexed":true,"internalType":"address"}],"anonymous":false},{"type":"event","name":"RoleAdminChanged","inputs":[{"name":"role","type":"bytes32","indexed":true,"internalType":"bytes32"},{"name":"previousAdminRole","type":"bytes32","indexed":true,"internalType":"bytes32"},{"name":"newAdminRole","type":"bytes32","indexed":true,"internalType":"bytes32"}],"anonymous":false},{"type":"event","name":"RoleGranted","inputs":[{"name":"role","type":"bytes32","indexed":true,"internalType":"bytes32"},{"name":"account","type":"address","indexed":true,"internalType":"address"},{"name":"sender","type":"address","indexed":true,"internalType":"address"}],"anonymous":false},{"type":"event","name":"RoleRevoked","inputs":[{"name":"role","type":"bytes32","indexed":true,"internalType":"bytes32"},{"name":"account","type":"address","indexed":true,"internalType":"address"},{"name":"sender","type":"address","indexed":true,"internalType":"address"}],"anonymous":false},{"type":"event","name":"TokenDataStreamAdded","inputs":[{"name":"token","type":"address","indexed":true,"internalType":"address"},{"name":"dataStream","type":"address","indexed":true,"internalType":"address"}],"anonymous":false},{"type":"event","name":"Unpaused","inputs":[{"name":"account","type":"address","indexed":false,"internalType":"address"}],"anonymous":false},{"type":"event","name":"Upgraded","inputs":[{"name":"implementation","type":"address","indexed":true,"internalType":"address"}],"anonymous":false},{"type":"event","name":"WrappedNativeSet","inputs":[{"name":"wrappedNative","type":"address","indexed":true,"internalType":"address"}],"anonymous":false},{"type":"error","name":"AccessControlBadConfirmation","inputs":[]},{"type":"error","name":"AccessControlUnauthorizedAccount","inputs":[{"name":"account","type":"address","internalType":"address"},{"name":"neededRole","type":"bytes32","internalType":"bytes32"}]},{"type":"error","name":"AddressEmptyCode","inputs":[{"name":"target","type":"address","internalType":"address"}]},{"type":"error","name":"ERC1967InvalidImplementation","inputs":[{"name":"implementation","type":"address","internalType":"address"}]},{"type":"error","name":"ERC1967NonPayable","inputs":[]},{"type":"error","name":"EnforcedPause","inputs":[]},{"type":"error","name":"ExpectedPause","inputs":[]},{"type":"error","name":"FailedCall","inputs":[]},{"type":"error","name":"InvalidInitialization","inputs":[]},{"type":"error","name":"NotInitializing","inputs":[]},{"type":"error","name":"UUPSUnauthorizedCallContext","inputs":[]},{"type":"error","name":"UUPSUnsupportedProxiableUUID","inputs":[{"name":"slot","type":"bytes32","internalType":"bytes32"}]}],"bytecode":{"object":"0x60a06040523073ffffffffffffffffffffffffffffffffffffffff1660809073ffffffffffffffffffffffffffffffffffffffff16815250348015610042575f5ffd5b5061005161005660201b60201c565b6101d1565b5f61006561015460201b60201c565b9050805f0160089054906101000a900460ff16156100af576040517ff92ee8a900000000000000000000000000000000000000000000000000000000815260040160405180910390fd5b67ffffffffffffffff8016815f015f9054906101000a900467ffffffffffffffff1667ffffffffffffffff16146101515767ffffffffffffffff815f015f6101000a81548167ffffffffffffffff021916908367ffffffffffffffff1602179055507fc7f505b2f371ae2175ee4913f4499e1f2633a7b5936321eed1cdaeb6115181d267ffffffffffffffff60405161014891906101b8565b60405180910390a15b50565b5f5f61016461016d60201b60201c565b90508091505090565b5f7ff0c57e16840df040f15088dc2f81fe391c3923bec73e23a9662efc9c229c6a005f1b905090565b5f67ffffffffffffffff82169050919050565b6101b281610196565b82525050565b5f6020820190506101cb5f8301846101a9565b92915050565b60805161310b6101f75f395f8181612075015281816120ca01526122a7015261310b5ff3fe60806040526004361061023d575f3560e01c80638dc15a661161012d578063e4020804116100aa578063f09a0d6b1161006e578063f09a0d6b1461084f578063f525cb6814610877578063f72c0d8b146108a1578063f72f863b146108cb578063f8446dcd146108f35761023e565b8063e40208041461076b578063e58378bb14610795578063e63ab1e9146107bf578063e949f3c9146107e9578063efe1b2cd146108135761023e565b8063ad3cb1cc116100f1578063ad3cb1cc1461069d578063bd3b5471146106c7578063d547741f146106f1578063d999984d14610719578063e18487ca146107435761023e565b80638dc15a661461059557806391d14854146105bd5780639a307391146105f9578063a217fddf14610635578063ac4afa381461065f5761023e565b80634f1ef286116101bb5780635c975abb1161017f5780635c975abb146104c55780637af11ac0146104ef578063802de844146105195780638456cb59146105555780638ce744261461056b5761023e565b80634f1ef2861461040757806352cb60ca1461042357806352d1902d1461044b578063558a72971461047557806359917d7d1461049d5761023e565b8063248a9ca311610202578063248a9ca31461033b5780632f2ff15d1461037757806336568abe1461039f5780633f4ba83a146103c757806342e681d8146103dd5761023e565b8062546b2a1461024b57806301ffc9a7146102735780630a9d793d146102af5780631459457a146102d75780631d43335a146102ff5761023e565b5b348015610249575f5ffd5b005b348015610256575f5ffd5b50610271600480360381019061026c91906128a9565b61091b565b005b34801561027e575f5ffd5b5061029960048036038101906102949190612929565b6109cc565b6040516102a6919061296e565b60405180910390f35b3480156102ba575f5ffd5b506102d560048036038101906102d091906128a9565b610a45565b005b3480156102e2575f5ffd5b506102fd60048036038101906102f89190612987565b610af6565b005b34801561030a575f5ffd5b50610325600480360381019061032091906128a9565b610e57565b6040516103329190612a0d565b60405180910390f35b348015610346575f5ffd5b50610361600480360381019061035c9190612a59565b610e87565b60405161036e9190612a93565b60405180910390f35b348015610382575f5ffd5b5061039d60048036038101906103989190612aac565b610eb1565b005b3480156103aa575f5ffd5b506103c560048036038101906103c09190612aac565b610ed3565b005b3480156103d2575f5ffd5b506103db610f4e565b005b3480156103e8575f5ffd5b506103f1610f83565b6040516103fe9190612a0d565b60405180910390f35b610421600480360381019061041c9190612c26565b610fa8565b005b34801561042e575f5ffd5b50610449600480360381019061044491906128a9565b610fc7565b005b348015610456575f5ffd5b5061045f611078565b60405161046c9190612a93565b60405180910390f35b348015610480575f5ffd5b5061049b60048036038101906104969190612caa565b6110a9565b005b3480156104a8575f5ffd5b506104c360048036038101906104be91906128a9565b61117a565b005b3480156104d0575f5ffd5b506104d961122a565b6040516104e6919061296e565b60405180910390f35b3480156104fa575f5ffd5b5061050361124c565b6040516105109190612a0d565b60405180910390f35b348015610524575f5ffd5b5061053f600480360381019061053a9190612d1b565b611271565b60405161054c9190612a0d565b60405180910390f35b348015610560575f5ffd5b5061056961160e565b005b348015610576575f5ffd5b5061057f611643565b60405161058c9190612a0d565b60405180910390f35b3480156105a0575f5ffd5b506105bb60048036038101906105b691906128a9565b611668565b005b3480156105c8575f5ffd5b506105e360048036038101906105de9190612aac565b611719565b6040516105f0919061296e565b60405180910390f35b348015610604575f5ffd5b5061061f600480360381019061061a91906128a9565b61178a565b60405161062c919061296e565b60405180910390f35b348015610640575f5ffd5b506106496117a7565b6040516106569190612a93565b60405180910390f35b34801561066a575f5ffd5b5061068560048036038101906106809190612d6b565b6117ad565b60405161069493929190612d96565b60405180910390f35b3480156106a8575f5ffd5b506106b161183f565b6040516106be9190612e2b565b60405180910390f35b3480156106d2575f5ffd5b506106db611878565b6040516106e89190612a0d565b60405180910390f35b3480156106fc575f5ffd5b5061071760048036038101906107129190612aac565b61189d565b005b348015610724575f5ffd5b5061072d6118bf565b60405161073a9190612a0d565b60405180910390f35b34801561074e575f5ffd5b5061076960048036038101906107649190612e4b565b6118e4565b005b348015610776575f5ffd5b5061077f6119e8565b60405161078c9190612a0d565b60405180910390f35b3480156107a0575f5ffd5b506107a9611a0c565b6040516107b69190612a93565b60405180910390f35b3480156107ca575f5ffd5b506107d3611a30565b6040516107e09190612a93565b60405180910390f35b3480156107f4575f5ffd5b506107fd611a54565b60405161080a9190612a0d565b60405180910390f35b34801561081e575f5ffd5b50610839600480360381019061083491906128a9565b611a79565b6040516108469190612a0d565b60405180910390f35b34801561085a575f5ffd5b5061087560048036038101906108709190612e4b565b611aa9565b005b348015610882575f5ffd5b5061088b611bad565b6040516108989190612e98565b60405180910390f35b3480156108ac575f5ffd5b506108b5611bb3565b6040516108c29190612a93565b60405180910390f35b3480156108d6575f5ffd5b506108f160048036038101906108ec91906128a9565b611bd7565b005b3480156108fe575f5ffd5b50610919600480360381019061091491906128a9565b611c88565b005b7fb19546dff01e856fb3f010c267a7b1c60363cf8a4664e21cc89c26224620214e61094581611d39565b8160015f6101000a81548173ffffffffffffffffffffffffffffffffffffffff021916908373ffffffffffffffffffffffffffffffffffffffff1602179055508173ffffffffffffffffffffffffffffffffffffffff167fb01c17406179a638da96eaa4686f4c1b6367270061946142c4a8ea461023d51760405160405180910390a25050565b5f7f7965db0b000000000000000000000000000000000000000000000000000000007bffffffffffffffffffffffffffffffffffffffffffffffffffffffff1916827bffffffffffffffffffffffffffffffffffffffffffffffffffffffff19161480610a3e5750610a3d82611d4d565b5b9050919050565b7fb19546dff01e856fb3f010c267a7b1c60363cf8a4664e21cc89c26224620214e610a6f81611d39565b8160025f6101000a81548173ffffffffffffffffffffffffffffffffffffffff021916908373ffffffffffffffffffffffffffffffffffffffff1602179055508173ffffffffffffffffffffffffffffffffffffffff167f9269d63ac6e0360a152db45a73e3e9e471a002419dff28abc7b58efaa211a2ba60405160405180910390a25050565b5f610aff611db6565b90505f815f0160089054906101000a900460ff161590505f825f015f9054906101000a900467ffffffffffffffff1690505f5f8267ffffffffffffffff16148015610b475750825b90505f60018367ffffffffffffffff16148015610b7a57505f3073ffffffffffffffffffffffffffffffffffffffff163b145b905081158015610b88575080155b15610bbf576040517ff92ee8a900000000000000000000000000000000000000000000000000000000815260040160405180910390fd5b6001855f015f6101000a81548167ffffffffffffffff021916908367ffffffffffffffff1602179055508315610c0c576001855f0160086101000a81548160ff0219169083151502179055505b610c14611dc9565b610c1c611dd3565b610c24611ddd565b610c305f5f1b33611de7565b50610c5b7f65d7a28e3265b37a6474929f336521b332c1681b933f6cb9f3376673440d862a33611de7565b50610c867f189ab7a9244df0848122154315af71fe140f3db0fe014031783b0946b8c9d2e333611de7565b50610cb17fb19546dff01e856fb3f010c267a7b1c60363cf8a4664e21cc89c26224620214e33611de7565b50895f5f6101000a81548173ffffffffffffffffffffffffffffffffffffffff021916908373ffffffffffffffffffffffffffffffffffffffff16021790555088600b5f6101000a81548173ffffffffffffffffffffffffffffffffffffffff021916908373ffffffffffffffffffffffffffffffffffffffff1602179055508760015f6101000a81548173ffffffffffffffffffffffffffffffffffffffff021916908373ffffffffffffffffffffffffffffffffffffffff1602179055508660025f6101000a81548173ffffffffffffffffffffffffffffffffffffffff021916908373ffffffffffffffffffffffffffffffffffffffff1602179055508560035f6101000a81548173ffffffffffffffffffffffffffffffffffffffff021916908373ffffffffffffffffffffffffffffffffffffffff1602179055508315610e4b575f855f0160086101000a81548160ff0219169083151502179055507fc7f505b2f371ae2175ee4913f4499e1f2633a7b5936321eed1cdaeb6115181d26001604051610e429190612f06565b60405180910390a15b50505050505050505050565b6006602052805f5260405f205f915054906101000a900473ffffffffffffffffffffffffffffffffffffffff1681565b5f5f610e91611edf565b9050805f015f8481526020019081526020015f2060010154915050919050565b610eba82610e87565b610ec381611d39565b610ecd8383611de7565b50505050565b610edb611f06565b73ffffffffffffffffffffffffffffffffffffffff168173ffffffffffffffffffffffffffffffffffffffff1614610f3f576040517f6697b23200000000000000000000000000000000000000000000000000000000815260040160405180910390fd5b610f498282611f0d565b505050565b7f65d7a28e3265b37a6474929f336521b332c1681b933f6cb9f3376673440d862a610f7881611d39565b610f80612005565b50565b60015f9054906101000a900473ffffffffffffffffffffffffffffffffffffffff1681565b610fb0612073565b610fb982612159565b610fc38282612187565b5050565b7fb19546dff01e856fb3f010c267a7b1c60363cf8a4664e21cc89c26224620214e610ff181611d39565b8160045f6101000a81548173ffffffffffffffffffffffffffffffffffffffff021916908373ffffffffffffffffffffffffffffffffffffffff1602179055508173ffffffffffffffffffffffffffffffffffffffff167f141c8827a0e1bf1f8e0a0f1d0b4fce811fd3b387abb10419267afc2b7458377660405160405180910390a25050565b5f6110816122a5565b7f360894a13ba1a3210667c828492db98dca3e2076cc3735a920a3ca505d382bbc5f1b905090565b7fb19546dff01e856fb3f010c267a7b1c60363cf8a4664e21cc89c26224620214e6110d381611d39565b8160075f8573ffffffffffffffffffffffffffffffffffffffff1673ffffffffffffffffffffffffffffffffffffffff1681526020019081526020015f205f6101000a81548160ff0219169083151502179055508273ffffffffffffffffffffffffffffffffffffffff167f1a594081ae893ab78e67d9b9e843547318164322d32c65369d78a96172d9dc8f8360405161116d919061296e565b60405180910390a2505050565b7fb19546dff01e856fb3f010c267a7b1c60363cf8a4664e21cc89c26224620214e6111a481611d39565b815f5f6101000a81548173ffffffffffffffffffffffffffffffffffffffff021916908373ffffffffffffffffffffffffffffffffffffffff1602179055508173ffffffffffffffffffffffffffffffffffffffff167fdfccf581ae27a41845f39125ccb5ef00c0a079c5bf3bf751ecd2045e2d6d442f60405160405180910390a25050565b5f5f61123461232c565b9050805f015f9054906101000a900460ff1691505090565b60055f9054906101000a900473ffffffffffffffffffffffffffffffffffffffff1681565b5f5f600b5f9054906101000a900473ffffffffffffffffffffffffffffffffffffffff1673ffffffffffffffffffffffffffffffffffffffff1663028731b2308787876040518563ffffffff1660e01b81526004016112d39493929190612f1f565b6020604051808303815f875af11580156112ef573d5f5f3e3d5ffd5b505050506040513d601f19601f820116820180604052508101906113139190612f76565b90505f60015f9054906101000a900473ffffffffffffffffffffffffffffffffffffffff1673ffffffffffffffffffffffffffffffffffffffff16637b8cabb6836040518263ffffffff1660e01b81526004016113709190612a0d565b6020604051808303815f875af115801561138c573d5f5f3e3d5ffd5b505050506040513d601f19601f820116820180604052508101906113b09190612f76565b90508173ffffffffffffffffffffffffffffffffffffffff1663113aa8b1826040518263ffffffff1660e01b81526004016113eb9190612a0d565b5f604051808303815f87803b158015611402575f5ffd5b505af1158015611414573d5f5f3e3d5ffd5b50505050600960405180606001604052808873ffffffffffffffffffffffffffffffffffffffff1681526020018773ffffffffffffffffffffffffffffffffffffffff1681526020018373ffffffffffffffffffffffffffffffffffffffff16815250908060018154018082558091505060019003905f5260205f2090600302015f909190919091505f820151815f015f6101000a81548173ffffffffffffffffffffffffffffffffffffffff021916908373ffffffffffffffffffffffffffffffffffffffff1602179055506020820151816001015f6101000a81548173ffffffffffffffffffffffffffffffffffffffff021916908373ffffffffffffffffffffffffffffffffffffffff1602179055506040820151816002015f6101000a81548173ffffffffffffffffffffffffffffffffffffffff021916908373ffffffffffffffffffffffffffffffffffffffff1602179055505050600a5f81548092919061158190612fce565b91905055508073ffffffffffffffffffffffffffffffffffffffff168573ffffffffffffffffffffffffffffffffffffffff168773ffffffffffffffffffffffffffffffffffffffff167f96002a27cd438afd06fa237c8247c8c03b0c94c7d214d44fc735abd710bcc8c0876040516115fa9190612e98565b60405180910390a480925050509392505050565b7f65d7a28e3265b37a6474929f336521b332c1681b933f6cb9f3376673440d862a61163881611d39565b611640612353565b50565b60025f9054906101000a900473ffffffffffffffffffffffffffffffffffffffff1681565b7fb19546dff01e856fb3f010c267a7b1c60363cf8a4664e21cc89c26224620214e61169281611d39565b81600b5f6101000a81548173ffffffffffffffffffffffffffffffffffffffff021916908373ffffffffffffffffffffffffffffffffffffffff1602179055508173ffffffffffffffffffffffffffffffffffffffff167f1f4863d4b849d378969f0cf16d48d4a72c921b296c978602cab2cb4aa5d32d4e60405160405180910390a25050565b5f5f611723611edf565b9050805f015f8581526020019081526020015f205f015f8473ffffffffffffffffffffffffffffffffffffffff1673ffffffffffffffffffffffffffffffffffffffff1681526020019081526020015f205f9054906101000a900460ff1691505092915050565b6007602052805f5260405f205f915054906101000a900460ff1681565b5f5f1b81565b600981815481106117bc575f80fd5b905f5260205f2090600302015f91509050805f015f9054906101000a900473ffffffffffffffffffffffffffffffffffffffff1690806001015f9054906101000a900473ffffffffffffffffffffffffffffffffffffffff1690806002015f9054906101000a900473ffffffffffffffffffffffffffffffffffffffff16905083565b6040518060400160405280600581526020017f352e302e3000000000000000000000000000000000000000000000000000000081525081565b60035f9054906101000a900473ffffffffffffffffffffffffffffffffffffffff1681565b6118a682610e87565b6118af81611d39565b6118b98383611f0d565b50505050565b60045f9054906101000a900473ffffffffffffffffffffffffffffffffffffffff1681565b7fb19546dff01e856fb3f010c267a7b1c60363cf8a4664e21cc89c26224620214e61190e81611d39565b8160065f8573ffffffffffffffffffffffffffffffffffffffff1673ffffffffffffffffffffffffffffffffffffffff1681526020019081526020015f205f6101000a81548173ffffffffffffffffffffffffffffffffffffffff021916908373ffffffffffffffffffffffffffffffffffffffff1602179055508173ffffffffffffffffffffffffffffffffffffffff168373ffffffffffffffffffffffffffffffffffffffff167fc5f200bc64f9d16d888ec9eaec566ef2155fab997cb7210a15722b06e32a3c7060405160405180910390a3505050565b5f5f9054906101000a900473ffffffffffffffffffffffffffffffffffffffff1681565b7fb19546dff01e856fb3f010c267a7b1c60363cf8a4664e21cc89c26224620214e81565b7f65d7a28e3265b37a6474929f336521b332c1681b933f6cb9f3376673440d862a81565b600b5f9054906101000a900473ffffffffffffffffffffffffffffffffffffffff1681565b6008602052805f5260405f205f915054906101000a900473ffffffffffffffffffffffffffffffffffffffff1681565b7fb19546dff01e856fb3f010c267a7b1c60363cf8a4664e21cc89c26224620214e611ad381611d39565b8160085f8573ffffffffffffffffffffffffffffffffffffffff1673ffffffffffffffffffffffffffffffffffffffff1681526020019081526020015f205f6101000a81548173ffffffffffffffffffffffffffffffffffffffff021916908373ffffffffffffffffffffffffffffffffffffffff1602179055508173ffffffffffffffffffffffffffffffffffffffff168373ffffffffffffffffffffffffffffffffffffffff167f443eca89ae0d91090321746b66b1e5a800bf4f33b317a7dbc01dc310b55c329160405160405180910390a3505050565b600a5481565b7f189ab7a9244df0848122154315af71fe140f3db0fe014031783b0946b8c9d2e381565b7fb19546dff01e856fb3f010c267a7b1c60363cf8a4664e21cc89c26224620214e611c0181611d39565b8160055f6101000a81548173ffffffffffffffffffffffffffffffffffffffff021916908373ffffffffffffffffffffffffffffffffffffffff1602179055508173ffffffffffffffffffffffffffffffffffffffff167f0b7d876ae8d87054bd191d9a2294c7bc50817a9efd22cb0376d4b14838eb271c60405160405180910390a25050565b7fb19546dff01e856fb3f010c267a7b1c60363cf8a4664e21cc89c26224620214e611cb281611d39565b8160035f6101000a81548173ffffffffffffffffffffffffffffffffffffffff021916908373ffffffffffffffffffffffffffffffffffffffff1602179055508173ffffffffffffffffffffffffffffffffffffffff167f87f38b33506619f9f981cdf0439928c07e8478960e3b27545f27bae983b1ff8b60405160405180910390a25050565b611d4a81611d45611f06565b6123c2565b50565b5f7f01ffc9a7000000000000000000000000000000000000000000000000000000007bffffffffffffffffffffffffffffffffffffffffffffffffffffffff1916827bffffffffffffffffffffffffffffffffffffffffffffffffffffffff1916149050919050565b5f5f611dc0612413565b90508091505090565b611dd161243c565b565b611ddb61243c565b565b611de561243c565b565b5f5f611df1611edf565b9050611dfd8484611719565b611ed4576001815f015f8681526020019081526020015f205f015f8573ffffffffffffffffffffffffffffffffffffffff1673ffffffffffffffffffffffffffffffffffffffff1681526020019081526020015f205f6101000a81548160ff021916908315150217905550611e70611f06565b73ffffffffffffffffffffffffffffffffffffffff168373ffffffffffffffffffffffffffffffffffffffff16857f2f8788117e7eff1d82e926ec794901d17c78024a50270940304540a733656f0d60405160405180910390a46001915050611ed9565b5f9150505b92915050565b5f7f02dd7bc7dec4dceedda775e58dd541e08a116c6c53815c0bd028192f7b626800905090565b5f33905090565b5f5f611f17611edf565b9050611f238484611719565b15611ffa575f815f015f8681526020019081526020015f205f015f8573ffffffffffffffffffffffffffffffffffffffff1673ffffffffffffffffffffffffffffffffffffffff1681526020019081526020015f205f6101000a81548160ff021916908315150217905550611f96611f06565b73ffffffffffffffffffffffffffffffffffffffff168373ffffffffffffffffffffffffffffffffffffffff16857ff6391f5c32d9c69d2a47ea670b442974b53935d1edc7fd64eb21e047a839171b60405160405180910390a46001915050611fff565b5f9150505b92915050565b61200d61247c565b5f61201661232c565b90505f815f015f6101000a81548160ff0219169083151502179055507f5db9ee0a495bf2e6ff9c91a7834c1ba4fdd244a5e8aa4e537bd38aeae4b073aa61205b611f06565b6040516120689190612a0d565b60405180910390a150565b7f000000000000000000000000000000000000000000000000000000000000000073ffffffffffffffffffffffffffffffffffffffff163073ffffffffffffffffffffffffffffffffffffffff16148061212057507f000000000000000000000000000000000000000000000000000000000000000073ffffffffffffffffffffffffffffffffffffffff166121076124bc565b73ffffffffffffffffffffffffffffffffffffffff1614155b15612157576040517fe07c8dba00000000000000000000000000000000000000000000000000000000815260040160405180910390fd5b565b7f189ab7a9244df0848122154315af71fe140f3db0fe014031783b0946b8c9d2e361218381611d39565b5050565b8173ffffffffffffffffffffffffffffffffffffffff166352d1902d6040518163ffffffff1660e01b8152600401602060405180830381865afa9250505080156121ef57506040513d601f19601f820116820180604052508101906121ec9190613029565b60015b61223057816040517f4c9c8ce30000000000000000000000000000000000000000000000000000000081526004016122279190612a0d565b60405180910390fd5b7f360894a13ba1a3210667c828492db98dca3e2076cc3735a920a3ca505d382bbc5f1b811461229657806040517faa1d49a400000000000000000000000000000000000000000000000000000000815260040161228d9190612a93565b60405180910390fd5b6122a0838361250f565b505050565b7f000000000000000000000000000000000000000000000000000000000000000073ffffffffffffffffffffffffffffffffffffffff163073ffffffffffffffffffffffffffffffffffffffff161461232a576040517fe07c8dba00000000000000000000000000000000000000000000000000000000815260040160405180910390fd5b565b5f7fcd5ed15c6e187e77e9aee88184c21f4f2182ab5827cb3b7e07fbedcd63f03300905090565b61235b612581565b5f61236461232c565b90506001815f015f6101000a81548160ff0219169083151502179055507f62e78cea01bee320cd4e420270b5ea74000d11b0c9f74754ebdbfc544b05a2586123aa611f06565b6040516123b79190612a0d565b60405180910390a150565b6123cc8282611719565b61240f5780826040517fe2517d3f000000000000000000000000000000000000000000000000000000008152600401612406929190613054565b60405180910390fd5b5050565b5f7ff0c57e16840df040f15088dc2f81fe391c3923bec73e23a9662efc9c229c6a005f1b905090565b6124446125c2565b61247a576040517fd7e6bcf800000000000000000000000000000000000000000000000000000000815260040160405180910390fd5b565b61248461122a565b6124ba576040517f8dfc202b00000000000000000000000000000000000000000000000000000000815260040160405180910390fd5b565b5f6124e87f360894a13ba1a3210667c828492db98dca3e2076cc3735a920a3ca505d382bbc5f1b6125e0565b5f015f9054906101000a900473ffffffffffffffffffffffffffffffffffffffff16905090565b612518826125e9565b8173ffffffffffffffffffffffffffffffffffffffff167fbc7cd75a20ee27fd9adebab32041f755214dbc6bffa90cc0225b39da2e5c2d3b60405160405180910390a25f815111156125745761256e82826126b2565b5061257d565b61257c612732565b5b5050565b61258961122a565b156125c0576040517fd93c066500000000000000000000000000000000000000000000000000000000815260040160405180910390fd5b565b5f6125cb611db6565b5f0160089054906101000a900460ff16905090565b5f819050919050565b5f8173ffffffffffffffffffffffffffffffffffffffff163b0361264457806040517f4c9c8ce300000000000000000000000000000000000000000000000000000000815260040161263b9190612a0d565b60405180910390fd5b806126707f360894a13ba1a3210667c828492db98dca3e2076cc3735a920a3ca505d382bbc5f1b6125e0565b5f015f6101000a81548173ffffffffffffffffffffffffffffffffffffffff021916908373ffffffffffffffffffffffffffffffffffffffff16021790555050565b60605f5f8473ffffffffffffffffffffffffffffffffffffffff16846040516126db91906130bf565b5f60405180830381855af49150503d805f8114612713576040519150601f19603f3d011682016040523d82523d5f602084013e612718565b606091505b509150915061272885838361276e565b9250505092915050565b5f34111561276c576040517fb398979f00000000000000000000000000000000000000000000000000000000815260040160405180910390fd5b565b6060826127835761277e826127fb565b6127f3565b5f82511480156127a957505f8473ffffffffffffffffffffffffffffffffffffffff163b145b156127eb57836040517f9996b3150000000000000000000000000000000000000000000000000000000081526004016127e29190612a0d565b60405180910390fd5b8190506127f4565b5b9392505050565b5f8151111561280c57805160208201fd5b6040517fd6bda27500000000000000000000000000000000000000000000000000000000815260040160405180910390fd5b5f604051905090565b5f5ffd5b5f5ffd5b5f73ffffffffffffffffffffffffffffffffffffffff82169050919050565b5f6128788261284f565b9050919050565b6128888161286e565b8114612892575f5ffd5b50565b5f813590506128a38161287f565b92915050565b5f602082840312156128be576128bd612847565b5b5f6128cb84828501612895565b91505092915050565b5f7fffffffff0000000000000000000000000000000000000000000000000000000082169050919050565b612908816128d4565b8114612912575f5ffd5b50565b5f81359050612923816128ff565b92915050565b5f6020828403121561293e5761293d612847565b5b5f61294b84828501612915565b91505092915050565b5f8115159050919050565b61296881612954565b82525050565b5f6020820190506129815f83018461295f565b92915050565b5f5f5f5f5f60a086880312156129a05761299f612847565b5b5f6129ad88828901612895565b95505060206129be88828901612895565b94505060406129cf88828901612895565b93505060606129e088828901612895565b92505060806129f188828901612895565b9150509295509295909350565b612a078161286e565b82525050565b5f602082019050612a205f8301846129fe565b92915050565b5f819050919050565b612a3881612a26565b8114612a42575f5ffd5b50565b5f81359050612a5381612a2f565b92915050565b5f60208284031215612a6e57612a6d612847565b5b5f612a7b84828501612a45565b91505092915050565b612a8d81612a26565b82525050565b5f602082019050612aa65f830184612a84565b92915050565b5f5f60408385031215612ac257612ac1612847565b5b5f612acf85828601612a45565b9250506020612ae085828601612895565b9150509250929050565b5f5ffd5b5f5ffd5b5f601f19601f8301169050919050565b7f4e487b71000000000000000000000000000000000000000000000000000000005f52604160045260245ffd5b612b3882612af2565b810181811067ffffffffffffffff82111715612b5757612b56612b02565b5b80604052505050565b5f612b6961283e565b9050612b758282612b2f565b919050565b5f67ffffffffffffffff821115612b9457612b93612b02565b5b612b9d82612af2565b9050602081019050919050565b828183375f83830152505050565b5f612bca612bc584612b7a565b612b60565b905082815260208101848484011115612be657612be5612aee565b5b612bf1848285612baa565b509392505050565b5f82601f830112612c0d57612c0c612aea565b5b8135612c1d848260208601612bb8565b91505092915050565b5f5f60408385031215612c3c57612c3b612847565b5b5f612c4985828601612895565b925050602083013567ffffffffffffffff811115612c6a57612c6961284b565b5b612c7685828601612bf9565b9150509250929050565b612c8981612954565b8114612c93575f5ffd5b50565b5f81359050612ca481612c80565b92915050565b5f5f60408385031215612cc057612cbf612847565b5b5f612ccd85828601612895565b9250506020612cde85828601612c96565b9150509250929050565b5f819050919050565b612cfa81612ce8565b8114612d04575f5ffd5b50565b5f81359050612d1581612cf1565b92915050565b5f5f5f60608486031215612d3257612d31612847565b5b5f612d3f86828701612895565b9350506020612d5086828701612895565b9250506040612d6186828701612d07565b9150509250925092565b5f60208284031215612d8057612d7f612847565b5b5f612d8d84828501612d07565b91505092915050565b5f606082019050612da95f8301866129fe565b612db660208301856129fe565b612dc360408301846129fe565b949350505050565b5f81519050919050565b5f82825260208201905092915050565b8281835e5f83830152505050565b5f612dfd82612dcb565b612e078185612dd5565b9350612e17818560208601612de5565b612e2081612af2565b840191505092915050565b5f6020820190508181035f830152612e438184612df3565b905092915050565b5f5f60408385031215612e6157612e60612847565b5b5f612e6e85828601612895565b9250506020612e7f85828601612895565b9150509250929050565b612e9281612ce8565b82525050565b5f602082019050612eab5f830184612e89565b92915050565b5f819050919050565b5f67ffffffffffffffff82169050919050565b5f819050919050565b5f612ef0612eeb612ee684612eb1565b612ecd565b612eba565b9050919050565b612f0081612ed6565b82525050565b5f602082019050612f195f830184612ef7565b92915050565b5f608082019050612f325f8301876129fe565b612f3f60208301866129fe565b612f4c60408301856129fe565b612f596060830184612e89565b95945050505050565b5f81519050612f708161287f565b92915050565b5f60208284031215612f8b57612f8a612847565b5b5f612f9884828501612f62565b91505092915050565b7f4e487b71000000000000000000000000000000000000000000000000000000005f52601160045260245ffd5b5f612fd882612ce8565b91507fffffffffffffffffffffffffffffffffffffffffffffffffffffffffffffffff820361300a57613009612fa1565b5b600182019050919050565b5f8151905061302381612a2f565b92915050565b5f6020828403121561303e5761303d612847565b5b5f61304b84828501613015565b91505092915050565b5f6040820190506130675f8301856129fe565b6130746020830184612a84565b9392505050565b5f81519050919050565b5f81905092915050565b5f6130998261307b565b6130a38185613085565b93506130b3818560208601612de5565b80840191505092915050565b5f6130ca828461308f565b91508190509291505056fea2646970667358221220fc36af45f5283e2dc97250f8fae38a81505a6b75f158843ecbb577b8735b353564736f6c634300081e0033","linkReferences":{}},"methodIdentifiers":{"DEFAULT_ADMIN_ROLE()":"a217fddf","DEX_ROUTER()":"7af11ac0","OWNER_ROLE()":"e58378bb","PAUSER_ROLE()":"e63ab1e9","UPGRADER_ROLE()":"f72c0d8b","UPGRADE_INTERFACE_VERSION()":"ad3cb1cc","WRAPPED_NATIVE()":"d999984d","addTokenDataStream(address,address)":"e18487ca","createLendingPool(address,address,uint256)":"802de844","getRoleAdmin(bytes32)":"248a9ca3","grantRole(bytes32,address)":"2f2ff15d","hasRole(bytes32,address)":"91d14854","initialize(address,address,address,address,address)":"1459457a","isHealthy()":"e4020804","lendingPoolDeployer()":"42e681d8","lendingPoolRouterDeployer()":"e949f3c9","oftAddress(address)":"efe1b2cd","operator(address)":"9a307391","pause()":"8456cb59","paused()":"5c975abb","poolCount()":"f525cb68","pools(uint256)":"ac4afa38","positionDeployer()":"bd3b5471","protocol()":"8ce74426","proxiableUUID()":"52d1902d","renounceRole(bytes32,address)":"36568abe","revokeRole(bytes32,address)":"d547741f","setDexRouter(address)":"f72f863b","setIsHealthy(address)":"59917d7d","setLendingPoolDeployer(address)":"00546b2a","setLendingPoolRouterDeployer(address)":"8dc15a66","setOftAddress(address,address)":"f09a0d6b","setOperator(address,bool)":"558a7297","setPositionDeployer(address)":"f8446dcd","setProtocol(address)":"0a9d793d","setWrappedNative(address)":"52cb60ca","supportsInterface(bytes4)":"01ffc9a7","tokenDataStream(address)":"1d43335a","unpause()":"3f4ba83a","upgradeToAndCall(address,bytes)":"4f1ef286"},"id":123}