{"abi":[{"type":"constructor","inputs":[],"stateMutability":"nonpayable"},{"type":"fallback","stateMutability":"nonpayable"},{"type":"function","name":"DEFAULT_ADMIN_ROLE","inputs":[],"outputs":[{"name":"","type":"bytes32","internalType":"bytes32"}],"stateMutability":"view"},{"type":"function","name":"DEX_ROUTER","inputs":[],"outputs":[{"name":"","type":"address","internalType":"address"}],"stateMutability":"view"},{"type":"function","name":"OWNER_ROLE","inputs":[],"outputs":[{"name":"","type":"bytes32","internalType":"bytes32"}],"stateMutability":"view"},{"type":"function","name":"PAUSER_ROLE","inputs":[],"outputs":[{"name":"","type":"bytes32","internalType":"bytes32"}],"stateMutability":"view"},{"type":"function","name":"UPGRADER_ROLE","inputs":[],"outputs":[{"name":"","type":"bytes32","internalType":"bytes32"}],"stateMutability":"view"},{"type":"function","name":"UPGRADE_INTERFACE_VERSION","inputs":[],"outputs":[{"name":"","type":"string","internalType":"string"}],"stateMutability":"view"},{"type":"function","name":"WRAPPED_NATIVE","inputs":[],"outputs":[{"name":"","type":"address","internalType":"address"}],"stateMutability":"view"},{"type":"function","name":"chainIdToEid","inputs":[{"name":"","type":"uint256","internalType":"uint256"}],"outputs":[{"name":"","type":"uint32","internalType":"uint32"}],"stateMutability":"view"},{"type":"function","name":"createLendingPool","inputs":[{"name":"_lendingPoolParams","type":"tuple","internalType":"struct LendingPoolFactory.LendingPoolParams","components":[{"name":"collateralToken","type":"address","internalType":"address"},{"name":"borrowToken","type":"address","internalType":"address"},{"name":"ltv","type":"uint256","internalType":"uint256"},{"name":"supplyLiquidity","type":"uint256","internalType":"uint256"},{"name":"baseRate","type":"uint256","internalType":"uint256"},{"name":"rateAtOptimal","type":"uint256","internalType":"uint256"},{"name":"optimalUtilization","type":"uint256","internalType":"uint256"},{"name":"maxUtilization","type":"uint256","internalType":"uint256"},{"name":"liquidationThreshold","type":"uint256","internalType":"uint256"},{"name":"liquidationBonus","type":"uint256","internalType":"uint256"}]}],"outputs":[{"name":"","type":"address","internalType":"address"}],"stateMutability":"nonpayable"},{"type":"function","name":"getRoleAdmin","inputs":[{"name":"role","type":"bytes32","internalType":"bytes32"}],"outputs":[{"name":"","type":"bytes32","internalType":"bytes32"}],"stateMutability":"view"},{"type":"function","name":"grantRole","inputs":[{"name":"role","type":"bytes32","internalType":"bytes32"},{"name":"account","type":"address","internalType":"address"}],"outputs":[],"stateMutability":"nonpayable"},{"type":"function","name":"hasRole","inputs":[{"name":"role","type":"bytes32","internalType":"bytes32"},{"name":"account","type":"address","internalType":"address"}],"outputs":[{"name":"","type":"bool","internalType":"bool"}],"stateMutability":"view"},{"type":"function","name":"initialize","inputs":[{"name":"_isHealthy","type":"address","internalType":"address"},{"name":"_lendingPoolRouterDeployer","type":"address","internalType":"address"},{"name":"_lendingPoolDeployer","type":"address","internalType":"address"},{"name":"_protocol","type":"address","internalType":"address"},{"name":"_positionDeployer","type":"address","internalType":"address"}],"outputs":[],"stateMutability":"nonpayable"},{"type":"function","name":"interestRateModel","inputs":[],"outputs":[{"name":"","type":"address","internalType":"address"}],"stateMutability":"view"},{"type":"function","name":"isHealthy","inputs":[],"outputs":[{"name":"","type":"address","internalType":"address"}],"stateMutability":"view"},{"type":"function","name":"lendingPoolDeployer","inputs":[],"outputs":[{"name":"","type":"address","internalType":"address"}],"stateMutability":"view"},{"type":"function","name":"lendingPoolRouterDeployer","inputs":[],"outputs":[{"name":"","type":"address","internalType":"address"}],"stateMutability":"view"},{"type":"function","name":"minAmountSupplyLiquidity","inputs":[{"name":"","type":"address","internalType":"address"}],"outputs":[{"name":"","type":"uint256","internalType":"uint256"}],"stateMutability":"view"},{"type":"function","name":"oftAddress","inputs":[{"name":"","type":"address","internalType":"address"}],"outputs":[{"name":"","type":"address","internalType":"address"}],"stateMutability":"view"},{"type":"function","name":"operator","inputs":[{"name":"","type":"address","internalType":"address"}],"outputs":[{"name":"","type":"bool","internalType":"bool"}],"stateMutability":"view"},{"type":"function","name":"pause","inputs":[],"outputs":[],"stateMutability":"nonpayable"},{"type":"function","name":"paused","inputs":[],"outputs":[{"name":"","type":"bool","internalType":"bool"}],"stateMutability":"view"},{"type":"function","name":"poolCount","inputs":[],"outputs":[{"name":"","type":"uint256","internalType":"uint256"}],"stateMutability":"view"},{"type":"function","name":"positionDeployer","inputs":[],"outputs":[{"name":"","type":"address","internalType":"address"}],"stateMutability":"view"},{"type":"function","name":"protocol","inputs":[],"outputs":[{"name":"","type":"address","internalType":"address"}],"stateMutability":"view"},{"type":"function","name":"proxiableUUID","inputs":[],"outputs":[{"name":"","type":"bytes32","internalType":"bytes32"}],"stateMutability":"view"},{"type":"function","name":"renounceRole","inputs":[{"name":"role","type":"bytes32","internalType":"bytes32"},{"name":"callerConfirmation","type":"address","internalType":"address"}],"outputs":[],"stateMutability":"nonpayable"},{"type":"function","name":"revokeRole","inputs":[{"name":"role","type":"bytes32","internalType":"bytes32"},{"name":"account","type":"address","internalType":"address"}],"outputs":[],"stateMutability":"nonpayable"},{"type":"function","name":"setDexRouter","inputs":[{"name":"_dexRouter","type":"address","internalType":"address"}],"outputs":[],"stateMutability":"nonpayable"},{"type":"function","name":"setInterestRateModel","inputs":[{"name":"_interestRateModel","type":"address","internalType":"address"}],"outputs":[],"stateMutability":"nonpayable"},{"type":"function","name":"setIsHealthy","inputs":[{"name":"_isHealthy","type":"address","internalType":"address"}],"outputs":[],"stateMutability":"nonpayable"},{"type":"function","name":"setLendingPoolDeployer","inputs":[{"name":"_lendingPoolDeployer","type":"address","internalType":"address"}],"outputs":[],"stateMutability":"nonpayable"},{"type":"function","name":"setLendingPoolRouterDeployer","inputs":[{"name":"_lendingPoolRouterDeployer","type":"address","internalType":"address"}],"outputs":[],"stateMutability":"nonpayable"},{"type":"function","name":"setMinAmountSupplyLiquidity","inputs":[{"name":"_token","type":"address","internalType":"address"},{"name":"_minAmountSupplyLiquidity","type":"uint256","internalType":"uint256"}],"outputs":[],"stateMutability":"nonpayable"},{"type":"function","name":"setOftAddress","inputs":[{"name":"_token","type":"address","internalType":"address"},{"name":"_oftAddress","type":"address","internalType":"address"}],"outputs":[],"stateMutability":"nonpayable"},{"type":"function","name":"setOperator","inputs":[{"name":"_operator","type":"address","internalType":"address"},{"name":"_status","type":"bool","internalType":"bool"}],"outputs":[],"stateMutability":"nonpayable"},{"type":"function","name":"setPositionDeployer","inputs":[{"name":"_positionDeployer","type":"address","internalType":"address"}],"outputs":[],"stateMutability":"nonpayable"},{"type":"function","name":"setProtocol","inputs":[{"name":"_protocol","type":"address","internalType":"address"}],"outputs":[],"stateMutability":"nonpayable"},{"type":"function","name":"setTokenDataStream","inputs":[{"name":"_tokenDataStream","type":"address","internalType":"address"}],"outputs":[],"stateMutability":"nonpayable"},{"type":"function","name":"setWrappedNative","inputs":[{"name":"_wrappedNative","type":"address","internalType":"address"}],"outputs":[],"stateMutability":"nonpayable"},{"type":"function","name":"supportsInterface","inputs":[{"name":"interfaceId","type":"bytes4","internalType":"bytes4"}],"outputs":[{"name":"","type":"bool","internalType":"bool"}],"stateMutability":"view"},{"type":"function","name":"tokenDataStream","inputs":[],"outputs":[{"name":"","type":"address","internalType":"address"}],"stateMutability":"view"},{"type":"function","name":"unpause","inputs":[],"outputs":[],"stateMutability":"nonpayable"},{"type":"function","name":"upgradeToAndCall","inputs":[{"name":"newImplementation","type":"address","internalType":"address"},{"name":"data","type":"bytes","internalType":"bytes"}],"outputs":[],"stateMutability":"payable"},{"type":"event","name":"DexRouterSet","inputs":[{"name":"dexRouter","type":"address","indexed":true,"internalType":"address"}],"anonymous":false},{"type":"event","name":"Initialized","inputs":[{"name":"version","type":"uint64","indexed":false,"internalType":"uint64"}],"anonymous":false},{"type":"event","name":"InterestRateModelSet","inputs":[{"name":"interestRateModel","type":"address","indexed":true,"internalType":"address"}],"anonymous":false},{"type":"event","name":"IsHealthySet","inputs":[{"name":"isHealthy","type":"address","indexed":true,"internalType":"address"}],"anonymous":false},{"type":"event","name":"LendingPoolCreated","inputs":[{"name":"collateralToken","type":"address","indexed":true,"internalType":"address"},{"name":"borrowToken","type":"address","indexed":true,"internalType":"address"},{"name":"lendingPool","type":"address","indexed":true,"internalType":"address"},{"name":"ltv","type":"uint256","indexed":false,"internalType":"uint256"}],"anonymous":false},{"type":"event","name":"LendingPoolDeployerSet","inputs":[{"name":"lendingPoolDeployer","type":"address","indexed":true,"internalType":"address"}],"anonymous":false},{"type":"event","name":"LendingPoolRouterDeployerSet","inputs":[{"name":"lendingPoolRouterDeployer","type":"address","indexed":true,"internalType":"address"}],"anonymous":false},{"type":"event","name":"MinAmountSupplyLiquiditySet","inputs":[{"name":"token","type":"address","indexed":true,"internalType":"address"},{"name":"minAmountSupplyLiquidity","type":"uint256","indexed":true,"internalType":"uint256"}],"anonymous":false},{"type":"event","name":"OftAddressSet","inputs":[{"name":"token","type":"address","indexed":true,"internalType":"address"},{"name":"oftAddress","type":"address","indexed":true,"internalType":"address"}],"anonymous":false},{"type":"event","name":"OperatorSet","inputs":[{"name":"operator","type":"address","indexed":true,"internalType":"address"},{"name":"status","type":"bool","indexed":false,"internalType":"bool"}],"anonymous":false},{"type":"event","name":"Paused","inputs":[{"name":"account","type":"address","indexed":false,"internalType":"address"}],"anonymous":false},{"type":"event","name":"PositionDeployerSet","inputs":[{"name":"positionDeployer","type":"address","indexed":true,"internalType":"address"}],"anonymous":false},{"type":"event","name":"ProtocolSet","inputs":[{"name":"protocol","type":"address","indexed":true,"internalType":"address"}],"anonymous":false},{"type":"event","name":"RoleAdminChanged","inputs":[{"name":"role","type":"bytes32","indexed":true,"internalType":"bytes32"},{"name":"previousAdminRole","type":"bytes32","indexed":true,"internalType":"bytes32"},{"name":"newAdminRole","type":"bytes32","indexed":true,"internalType":"bytes32"}],"anonymous":false},{"type":"event","name":"RoleGranted","inputs":[{"name":"role","type":"bytes32","indexed":true,"internalType":"bytes32"},{"name":"account","type":"address","indexed":true,"internalType":"address"},{"name":"sender","type":"address","indexed":true,"internalType":"address"}],"anonymous":false},{"type":"event","name":"RoleRevoked","inputs":[{"name":"role","type":"bytes32","indexed":true,"internalType":"bytes32"},{"name":"account","type":"address","indexed":true,"internalType":"address"},{"name":"sender","type":"address","indexed":true,"internalType":"address"}],"anonymous":false},{"type":"event","name":"TokenDataStreamSet","inputs":[{"name":"tokenDataStream","type":"address","indexed":true,"internalType":"address"}],"anonymous":false},{"type":"event","name":"Unpaused","inputs":[{"name":"account","type":"address","indexed":false,"internalType":"address"}],"anonymous":false},{"type":"event","name":"Upgraded","inputs":[{"name":"implementation","type":"address","indexed":true,"internalType":"address"}],"anonymous":false},{"type":"event","name":"WrappedNativeSet","inputs":[{"name":"wrappedNative","type":"address","indexed":true,"internalType":"address"}],"anonymous":false},{"type":"error","name":"AccessControlBadConfirmation","inputs":[]},{"type":"error","name":"AccessControlUnauthorizedAccount","inputs":[{"name":"account","type":"address","internalType":"address"},{"name":"neededRole","type":"bytes32","internalType":"bytes32"}]},{"type":"error","name":"AddressEmptyCode","inputs":[{"name":"target","type":"address","internalType":"address"}]},{"type":"error","name":"ERC1967InvalidImplementation","inputs":[{"name":"implementation","type":"address","internalType":"address"}]},{"type":"error","name":"ERC1967NonPayable","inputs":[]},{"type":"error","name":"EnforcedPause","inputs":[]},{"type":"error","name":"ExpectedPause","inputs":[]},{"type":"error","name":"FailedCall","inputs":[]},{"type":"error","name":"InvalidInitialization","inputs":[]},{"type":"error","name":"MinAmountSupplyLiquidityExceeded","inputs":[{"name":"amount","type":"uint256","internalType":"uint256"},{"name":"minAmountSupplyLiquidity","type":"uint256","internalType":"uint256"}]},{"type":"error","name":"NotInitializing","inputs":[]},{"type":"error","name":"OracleOnTokenNotSet","inputs":[{"name":"token","type":"address","internalType":"address"}]},{"type":"error","name":"SafeERC20FailedOperation","inputs":[{"name":"token","type":"address","internalType":"address"}]},{"type":"error","name":"UUPSUnauthorizedCallContext","inputs":[]},{"type":"error","name":"UUPSUnsupportedProxiableUUID","inputs":[{"name":"slot","type":"bytes32","internalType":"bytes32"}]}],"bytecode":{"object":"0x60a06040523073ffffffffffffffffffffffffffffffffffffffff1660809073ffffffffffffffffffffffffffffffffffffffff16815250348015610042575f5ffd5b5061005161005660201b60201c565b6101d1565b5f61006561015460201b60201c565b9050805f0160089054906101000a900460ff16156100af576040517ff92ee8a900000000000000000000000000000000000000000000000000000000815260040160405180910390fd5b67ffffffffffffffff8016815f015f9054906101000a900467ffffffffffffffff1667ffffffffffffffff16146101515767ffffffffffffffff815f015f6101000a81548167ffffffffffffffff021916908367ffffffffffffffff1602179055507fc7f505b2f371ae2175ee4913f4499e1f2633a7b5936321eed1cdaeb6115181d267ffffffffffffffff60405161014891906101b8565b60405180910390a15b50565b5f5f61016461016d60201b60201c565b90508091505090565b5f7ff0c57e16840df040f15088dc2f81fe391c3923bec73e23a9662efc9c229c6a005f1b905090565b5f67ffffffffffffffff82169050919050565b6101b281610196565b82525050565b5f6020820190506101cb5f8301846101a9565b92915050565b608051613a136101f75f395f818161255f015281816125b401526127910152613a135ff3fe608060405260043610610269575f3560e01c80638ce7442611610143578063e58378bb116100b5578063f151e49711610079578063f151e497146108df578063f3fdb15a1461091b578063f525cb6814610945578063f72c0d8b1461096f578063f72f863b14610999578063f8446dcd146109c15761026a565b8063e58378bb146107fd578063e63ab1e914610827578063e949f3c914610851578063efe1b2cd1461087b578063f09a0d6b146108b75761026a565b8063a217fddf11610107578063a217fddf14610703578063ad3cb1cc1461072d578063bd3b547114610757578063d547741f14610781578063d999984d146107a9578063e4020804146107d35761026a565b80638ce74426146106115780638dc15a661461063b57806391d14854146106635780639a3073911461069f5780639cc8b2d1146106db5761026a565b80634f1ef286116101dc5780635c975abb116101a05780635c975abb14610519578063658f86f51461054357806375b568a61461057f5780637af11ac0146105a95780638456cb59146105d35780638bcd4016146105e95761026a565b80634f1ef2861461045b57806352cb60ca1461047757806352d1902d1461049f578063558a7297146104c957806359917d7d146104f15761026a565b80632f2ff15d1161022e5780632f2ff15d1461036757806336568abe1461038f57806339a2e638146103b75780633f4ba83a146103df5780633fcaacdf146103f557806342e681d8146104315761026a565b8062546b2a1461027757806301ffc9a71461029f5780630a9d793d146102db5780631459457a14610303578063248a9ca31461032b5761026a565b5b348015610275575f5ffd5b005b348015610282575f5ffd5b5061029d60048036038101906102989190613050565b6109e9565b005b3480156102aa575f5ffd5b506102c560048036038101906102c091906130d0565b610a9a565b6040516102d29190613115565b60405180910390f35b3480156102e6575f5ffd5b5061030160048036038101906102fc9190613050565b610b13565b005b34801561030e575f5ffd5b506103296004803603810190610324919061312e565b610bc4565b005b348015610336575f5ffd5b50610351600480360381019061034c91906131d8565b610f25565b60405161035e9190613212565b60405180910390f35b348015610372575f5ffd5b5061038d6004803603810190610388919061322b565b610f4f565b005b34801561039a575f5ffd5b506103b560048036038101906103b0919061322b565b610f71565b005b3480156103c2575f5ffd5b506103dd60048036038101906103d8919061329c565b610fec565b005b3480156103ea575f5ffd5b506103f36110a1565b005b348015610400575f5ffd5b5061041b60048036038101906104169190613050565b6110d6565b60405161042891906132e9565b60405180910390f35b34801561043c575f5ffd5b506104456110eb565b6040516104529190613311565b60405180910390f35b61047560048036038101906104709190613466565b611110565b005b348015610482575f5ffd5b5061049d60048036038101906104989190613050565b61112f565b005b3480156104aa575f5ffd5b506104b36111e0565b6040516104c09190613212565b60405180910390f35b3480156104d4575f5ffd5b506104ef60048036038101906104ea91906134ea565b611211565b005b3480156104fc575f5ffd5b5061051760048036038101906105129190613050565b6112e2565b005b348015610524575f5ffd5b5061052d611392565b60405161053a9190613115565b60405180910390f35b34801561054e575f5ffd5b506105696004803603810190610564919061361f565b6113b4565b6040516105769190613311565b60405180910390f35b34801561058a575f5ffd5b50610593611a9d565b6040516105a09190613311565b60405180910390f35b3480156105b4575f5ffd5b506105bd611ac2565b6040516105ca9190613311565b60405180910390f35b3480156105de575f5ffd5b506105e7611ae7565b005b3480156105f4575f5ffd5b5061060f600480360381019061060a9190613050565b611b1c565b005b34801561061c575f5ffd5b50610625611bcd565b6040516106329190613311565b60405180910390f35b348015610646575f5ffd5b50610661600480360381019061065c9190613050565b611bf2565b005b34801561066e575f5ffd5b506106896004803603810190610684919061322b565b611ca3565b6040516106969190613115565b60405180910390f35b3480156106aa575f5ffd5b506106c560048036038101906106c09190613050565b611d14565b6040516106d29190613115565b60405180910390f35b3480156106e6575f5ffd5b5061070160048036038101906106fc9190613050565b611d31565b005b34801561070e575f5ffd5b50610717611de2565b6040516107249190613212565b60405180910390f35b348015610738575f5ffd5b50610741611de8565b60405161074e91906136ab565b60405180910390f35b348015610762575f5ffd5b5061076b611e21565b6040516107789190613311565b60405180910390f35b34801561078c575f5ffd5b506107a760048036038101906107a2919061322b565b611e46565b005b3480156107b4575f5ffd5b506107bd611e68565b6040516107ca9190613311565b60405180910390f35b3480156107de575f5ffd5b506107e7611e8d565b6040516107f49190613311565b60405180910390f35b348015610808575f5ffd5b50610811611eb1565b60405161081e9190613212565b60405180910390f35b348015610832575f5ffd5b5061083b611ed5565b6040516108489190613212565b60405180910390f35b34801561085c575f5ffd5b50610865611ef9565b6040516108729190613311565b60405180910390f35b348015610886575f5ffd5b506108a1600480360381019061089c9190613050565b611f1e565b6040516108ae9190613311565b60405180910390f35b3480156108c2575f5ffd5b506108dd60048036038101906108d891906136cb565b611f4e565b005b3480156108ea575f5ffd5b5061090560048036038101906109009190613709565b612052565b6040516109129190613752565b60405180910390f35b348015610926575f5ffd5b5061092f612072565b60405161093c9190613311565b60405180910390f35b348015610950575f5ffd5b50610959612097565b60405161096691906132e9565b60405180910390f35b34801561097a575f5ffd5b5061098361209d565b6040516109909190613212565b60405180910390f35b3480156109a4575f5ffd5b506109bf60048036038101906109ba9190613050565b6120c1565b005b3480156109cc575f5ffd5b506109e760048036038101906109e29190613050565b612172565b005b7fb19546dff01e856fb3f010c267a7b1c60363cf8a4664e21cc89c26224620214e610a1381612223565b8160015f6101000a81548173ffffffffffffffffffffffffffffffffffffffff021916908373ffffffffffffffffffffffffffffffffffffffff1602179055508173ffffffffffffffffffffffffffffffffffffffff167fb01c17406179a638da96eaa4686f4c1b6367270061946142c4a8ea461023d51760405160405180910390a25050565b5f7f7965db0b000000000000000000000000000000000000000000000000000000007bffffffffffffffffffffffffffffffffffffffffffffffffffffffff1916827bffffffffffffffffffffffffffffffffffffffffffffffffffffffff19161480610b0c5750610b0b82612237565b5b9050919050565b7fb19546dff01e856fb3f010c267a7b1c60363cf8a4664e21cc89c26224620214e610b3d81612223565b8160025f6101000a81548173ffffffffffffffffffffffffffffffffffffffff021916908373ffffffffffffffffffffffffffffffffffffffff1602179055508173ffffffffffffffffffffffffffffffffffffffff167f9269d63ac6e0360a152db45a73e3e9e471a002419dff28abc7b58efaa211a2ba60405160405180910390a25050565b5f610bcd6122a0565b90505f815f0160089054906101000a900460ff161590505f825f015f9054906101000a900467ffffffffffffffff1690505f5f8267ffffffffffffffff16148015610c155750825b90505f60018367ffffffffffffffff16148015610c4857505f3073ffffffffffffffffffffffffffffffffffffffff163b145b905081158015610c56575080155b15610c8d576040517ff92ee8a900000000000000000000000000000000000000000000000000000000815260040160405180910390fd5b6001855f015f6101000a81548167ffffffffffffffff021916908367ffffffffffffffff1602179055508315610cda576001855f0160086101000a81548160ff0219169083151502179055505b610ce26122b3565b610cea6122bd565b610cf26122c7565b610cfe5f5f1b336122d1565b50610d297f65d7a28e3265b37a6474929f336521b332c1681b933f6cb9f3376673440d862a336122d1565b50610d547f189ab7a9244df0848122154315af71fe140f3db0fe014031783b0946b8c9d2e3336122d1565b50610d7f7fb19546dff01e856fb3f010c267a7b1c60363cf8a4664e21cc89c26224620214e336122d1565b50895f5f6101000a81548173ffffffffffffffffffffffffffffffffffffffff021916908373ffffffffffffffffffffffffffffffffffffffff1602179055508860065f6101000a81548173ffffffffffffffffffffffffffffffffffffffff021916908373ffffffffffffffffffffffffffffffffffffffff1602179055508760015f6101000a81548173ffffffffffffffffffffffffffffffffffffffff021916908373ffffffffffffffffffffffffffffffffffffffff1602179055508660025f6101000a81548173ffffffffffffffffffffffffffffffffffffffff021916908373ffffffffffffffffffffffffffffffffffffffff1602179055508560035f6101000a81548173ffffffffffffffffffffffffffffffffffffffff021916908373ffffffffffffffffffffffffffffffffffffffff1602179055508315610f19575f855f0160086101000a81548160ff0219169083151502179055507fc7f505b2f371ae2175ee4913f4499e1f2633a7b5936321eed1cdaeb6115181d26001604051610f1091906137c0565b60405180910390a15b50505050505050505050565b5f5f610f2f6123c9565b9050805f015f8481526020019081526020015f2060010154915050919050565b610f5882610f25565b610f6181612223565b610f6b83836122d1565b50505050565b610f796123f0565b73ffffffffffffffffffffffffffffffffffffffff168173ffffffffffffffffffffffffffffffffffffffff1614610fdd576040517f6697b23200000000000000000000000000000000000000000000000000000000815260040160405180910390fd5b610fe782826123f7565b505050565b7fb19546dff01e856fb3f010c267a7b1c60363cf8a4664e21cc89c26224620214e61101681612223565b81600b5f8573ffffffffffffffffffffffffffffffffffffffff1673ffffffffffffffffffffffffffffffffffffffff1681526020019081526020015f2081905550818373ffffffffffffffffffffffffffffffffffffffff167f6af2b431e7174c6e6362e963c769958410cf9e0615cd5bcced6584656ec99e9f60405160405180910390a3505050565b7f65d7a28e3265b37a6474929f336521b332c1681b933f6cb9f3376673440d862a6110cb81612223565b6110d36124ef565b50565b600b602052805f5260405f205f915090505481565b60015f9054906101000a900473ffffffffffffffffffffffffffffffffffffffff1681565b61111861255d565b61112182612643565b61112b8282612671565b5050565b7fb19546dff01e856fb3f010c267a7b1c60363cf8a4664e21cc89c26224620214e61115981612223565b8160045f6101000a81548173ffffffffffffffffffffffffffffffffffffffff021916908373ffffffffffffffffffffffffffffffffffffffff1602179055508173ffffffffffffffffffffffffffffffffffffffff167f141c8827a0e1bf1f8e0a0f1d0b4fce811fd3b387abb10419267afc2b7458377660405160405180910390a25050565b5f6111e961278f565b7f360894a13ba1a3210667c828492db98dca3e2076cc3735a920a3ca505d382bbc5f1b905090565b7fb19546dff01e856fb3f010c267a7b1c60363cf8a4664e21cc89c26224620214e61123b81612223565b8160095f8573ffffffffffffffffffffffffffffffffffffffff1673ffffffffffffffffffffffffffffffffffffffff1681526020019081526020015f205f6101000a81548160ff0219169083151502179055508273ffffffffffffffffffffffffffffffffffffffff167f1a594081ae893ab78e67d9b9e843547318164322d32c65369d78a96172d9dc8f836040516112d59190613115565b60405180910390a2505050565b7fb19546dff01e856fb3f010c267a7b1c60363cf8a4664e21cc89c26224620214e61130c81612223565b815f5f6101000a81548173ffffffffffffffffffffffffffffffffffffffff021916908373ffffffffffffffffffffffffffffffffffffffff1602179055508173ffffffffffffffffffffffffffffffffffffffff167fdfccf581ae27a41845f39125ccb5ef00c0a079c5bf3bf751ecd2045e2d6d442f60405160405180910390a25050565b5f5f61139c612816565b9050805f015f9054906101000a900460ff1691505090565b5f815f01516113c28161283d565b82602001516113d08161283d565b836020015184606001516113e482826128d1565b5f60065f9054906101000a900473ffffffffffffffffffffffffffffffffffffffff1673ffffffffffffffffffffffffffffffffffffffff1663028731b230895f01518a602001518b604001516040518563ffffffff1660e01b815260040161145094939291906137d9565b6020604051808303815f875af115801561146c573d5f5f3e3d5ffd5b505050506040513d601f19601f820116820180604052508101906114909190613830565b90505f60015f9054906101000a900473ffffffffffffffffffffffffffffffffffffffff1673ffffffffffffffffffffffffffffffffffffffff16637b8cabb6836040518263ffffffff1660e01b81526004016114ed9190613311565b6020604051808303815f875af1158015611509573d5f5f3e3d5ffd5b505050506040513d601f19601f8201168201806040525081019061152d9190613830565b905060085f9054906101000a900473ffffffffffffffffffffffffffffffffffffffff1673ffffffffffffffffffffffffffffffffffffffff16636ba62f7a838a608001516040518363ffffffff1660e01b815260040161158f92919061385b565b5f604051808303815f87803b1580156115a6575f5ffd5b505af11580156115b8573d5f5f3e3d5ffd5b5050505060085f9054906101000a900473ffffffffffffffffffffffffffffffffffffffff1673ffffffffffffffffffffffffffffffffffffffff1663c4047477838a60a001516040518363ffffffff1660e01b815260040161161c92919061385b565b5f604051808303815f87803b158015611633575f5ffd5b505af1158015611645573d5f5f3e3d5ffd5b5050505060085f9054906101000a900473ffffffffffffffffffffffffffffffffffffffff1673ffffffffffffffffffffffffffffffffffffffff1663a27cb770838a60c001516040518363ffffffff1660e01b81526004016116a992919061385b565b5f604051808303815f87803b1580156116c0575f5ffd5b505af11580156116d2573d5f5f3e3d5ffd5b5050505060085f9054906101000a900473ffffffffffffffffffffffffffffffffffffffff1673ffffffffffffffffffffffffffffffffffffffff16639d7da740838a60e001516040518363ffffffff1660e01b815260040161173692919061385b565b5f604051808303815f87803b15801561174d575f5ffd5b505af115801561175f573d5f5f3e3d5ffd5b505050505f5f9054906101000a900473ffffffffffffffffffffffffffffffffffffffff1673ffffffffffffffffffffffffffffffffffffffff16630e30428d838a61010001516040518363ffffffff1660e01b81526004016117c392919061385b565b5f604051808303815f87803b1580156117da575f5ffd5b505af11580156117ec573d5f5f3e3d5ffd5b505050505f5f9054906101000a900473ffffffffffffffffffffffffffffffffffffffff1673ffffffffffffffffffffffffffffffffffffffff16637cadffd9838a61012001516040518363ffffffff1660e01b815260040161185092919061385b565b5f604051808303815f87803b158015611867575f5ffd5b505af1158015611879573d5f5f3e3d5ffd5b505050508173ffffffffffffffffffffffffffffffffffffffff1663113aa8b1826040518263ffffffff1660e01b81526004016118b69190613311565b5f604051808303815f87803b1580156118cd575f5ffd5b505af11580156118df573d5f5f3e3d5ffd5b5050505061191833308a606001518b6020015173ffffffffffffffffffffffffffffffffffffffff166129dd909392919063ffffffff16565b876020015173ffffffffffffffffffffffffffffffffffffffff1663095ea7b3828a606001516040518363ffffffff1660e01b815260040161195b92919061385b565b6020604051808303815f875af1158015611977573d5f5f3e3d5ffd5b505050506040513d601f19601f8201168201806040525081019061199b9190613896565b508073ffffffffffffffffffffffffffffffffffffffff1663b39e3771338a606001516040518363ffffffff1660e01b81526004016119db92919061385b565b5f604051808303815f87803b1580156119f2575f5ffd5b505af1158015611a04573d5f5f3e3d5ffd5b505050508073ffffffffffffffffffffffffffffffffffffffff16886020015173ffffffffffffffffffffffffffffffffffffffff16895f015173ffffffffffffffffffffffffffffffffffffffff167f96002a27cd438afd06fa237c8247c8c03b0c94c7d214d44fc735abd710bcc8c08b60400151604051611a8791906132e9565b60405180910390a4809650505050505050919050565b60075f9054906101000a900473ffffffffffffffffffffffffffffffffffffffff1681565b60055f9054906101000a900473ffffffffffffffffffffffffffffffffffffffff1681565b7f65d7a28e3265b37a6474929f336521b332c1681b933f6cb9f3376673440d862a611b1181612223565b611b19612a5f565b50565b7fb19546dff01e856fb3f010c267a7b1c60363cf8a4664e21cc89c26224620214e611b4681612223565b8160085f6101000a81548173ffffffffffffffffffffffffffffffffffffffff021916908373ffffffffffffffffffffffffffffffffffffffff1602179055508173ffffffffffffffffffffffffffffffffffffffff167f7902cd1307c545e3f5782172612372bf997a93698917ced12b2f83d86e347d0c60405160405180910390a25050565b60025f9054906101000a900473ffffffffffffffffffffffffffffffffffffffff1681565b7fb19546dff01e856fb3f010c267a7b1c60363cf8a4664e21cc89c26224620214e611c1c81612223565b8160065f6101000a81548173ffffffffffffffffffffffffffffffffffffffff021916908373ffffffffffffffffffffffffffffffffffffffff1602179055508173ffffffffffffffffffffffffffffffffffffffff167f1f4863d4b849d378969f0cf16d48d4a72c921b296c978602cab2cb4aa5d32d4e60405160405180910390a25050565b5f5f611cad6123c9565b9050805f015f8581526020019081526020015f205f015f8473ffffffffffffffffffffffffffffffffffffffff1673ffffffffffffffffffffffffffffffffffffffff1681526020019081526020015f205f9054906101000a900460ff1691505092915050565b6009602052805f5260405f205f915054906101000a900460ff1681565b7fb19546dff01e856fb3f010c267a7b1c60363cf8a4664e21cc89c26224620214e611d5b81612223565b8160075f6101000a81548173ffffffffffffffffffffffffffffffffffffffff021916908373ffffffffffffffffffffffffffffffffffffffff1602179055508173ffffffffffffffffffffffffffffffffffffffff167f0a79aff962cc9e0a3ce8d1f62271362cbf066d9d0ffc588f0f90940b1fe4195560405160405180910390a25050565b5f5f1b81565b6040518060400160405280600581526020017f352e302e3000000000000000000000000000000000000000000000000000000081525081565b60035f9054906101000a900473ffffffffffffffffffffffffffffffffffffffff1681565b611e4f82610f25565b611e5881612223565b611e6283836123f7565b50505050565b60045f9054906101000a900473ffffffffffffffffffffffffffffffffffffffff1681565b5f5f9054906101000a900473ffffffffffffffffffffffffffffffffffffffff1681565b7fb19546dff01e856fb3f010c267a7b1c60363cf8a4664e21cc89c26224620214e81565b7f65d7a28e3265b37a6474929f336521b332c1681b933f6cb9f3376673440d862a81565b60065f9054906101000a900473ffffffffffffffffffffffffffffffffffffffff1681565b600a602052805f5260405f205f915054906101000a900473ffffffffffffffffffffffffffffffffffffffff1681565b7fb19546dff01e856fb3f010c267a7b1c60363cf8a4664e21cc89c26224620214e611f7881612223565b81600a5f8573ffffffffffffffffffffffffffffffffffffffff1673ffffffffffffffffffffffffffffffffffffffff1681526020019081526020015f205f6101000a81548173ffffffffffffffffffffffffffffffffffffffff021916908373ffffffffffffffffffffffffffffffffffffffff1602179055508173ffffffffffffffffffffffffffffffffffffffff168373ffffffffffffffffffffffffffffffffffffffff167f443eca89ae0d91090321746b66b1e5a800bf4f33b317a7dbc01dc310b55c329160405160405180910390a3505050565b600c602052805f5260405f205f915054906101000a900463ffffffff1681565b60085f9054906101000a900473ffffffffffffffffffffffffffffffffffffffff1681565b600d5481565b7f189ab7a9244df0848122154315af71fe140f3db0fe014031783b0946b8c9d2e381565b7fb19546dff01e856fb3f010c267a7b1c60363cf8a4664e21cc89c26224620214e6120eb81612223565b8160055f6101000a81548173ffffffffffffffffffffffffffffffffffffffff021916908373ffffffffffffffffffffffffffffffffffffffff1602179055508173ffffffffffffffffffffffffffffffffffffffff167f0b7d876ae8d87054bd191d9a2294c7bc50817a9efd22cb0376d4b14838eb271c60405160405180910390a25050565b7fb19546dff01e856fb3f010c267a7b1c60363cf8a4664e21cc89c26224620214e61219c81612223565b8160035f6101000a81548173ffffffffffffffffffffffffffffffffffffffff021916908373ffffffffffffffffffffffffffffffffffffffff1602179055508173ffffffffffffffffffffffffffffffffffffffff167f87f38b33506619f9f981cdf0439928c07e8478960e3b27545f27bae983b1ff8b60405160405180910390a25050565b6122348161222f6123f0565b612ace565b50565b5f7f01ffc9a7000000000000000000000000000000000000000000000000000000007bffffffffffffffffffffffffffffffffffffffffffffffffffffffff1916827bffffffffffffffffffffffffffffffffffffffffffffffffffffffff1916149050919050565b5f5f6122aa612b1f565b90508091505090565b6122bb612b48565b565b6122c5612b48565b565b6122cf612b48565b565b5f5f6122db6123c9565b90506122e78484611ca3565b6123be576001815f015f8681526020019081526020015f205f015f8573ffffffffffffffffffffffffffffffffffffffff1673ffffffffffffffffffffffffffffffffffffffff1681526020019081526020015f205f6101000a81548160ff02191690831515021790555061235a6123f0565b73ffffffffffffffffffffffffffffffffffffffff168373ffffffffffffffffffffffffffffffffffffffff16857f2f8788117e7eff1d82e926ec794901d17c78024a50270940304540a733656f0d60405160405180910390a460019150506123c3565b5f9150505b92915050565b5f7f02dd7bc7dec4dceedda775e58dd541e08a116c6c53815c0bd028192f7b626800905090565b5f33905090565b5f5f6124016123c9565b905061240d8484611ca3565b156124e4575f815f015f8681526020019081526020015f205f015f8573ffffffffffffffffffffffffffffffffffffffff1673ffffffffffffffffffffffffffffffffffffffff1681526020019081526020015f205f6101000a81548160ff0219169083151502179055506124806123f0565b73ffffffffffffffffffffffffffffffffffffffff168373ffffffffffffffffffffffffffffffffffffffff16857ff6391f5c32d9c69d2a47ea670b442974b53935d1edc7fd64eb21e047a839171b60405160405180910390a460019150506124e9565b5f9150505b92915050565b6124f7612b88565b5f612500612816565b90505f815f015f6101000a81548160ff0219169083151502179055507f5db9ee0a495bf2e6ff9c91a7834c1ba4fdd244a5e8aa4e537bd38aeae4b073aa6125456123f0565b6040516125529190613311565b60405180910390a150565b7f000000000000000000000000000000000000000000000000000000000000000073ffffffffffffffffffffffffffffffffffffffff163073ffffffffffffffffffffffffffffffffffffffff16148061260a57507f000000000000000000000000000000000000000000000000000000000000000073ffffffffffffffffffffffffffffffffffffffff166125f1612bc8565b73ffffffffffffffffffffffffffffffffffffffff1614155b15612641576040517fe07c8dba00000000000000000000000000000000000000000000000000000000815260040160405180910390fd5b565b7f189ab7a9244df0848122154315af71fe140f3db0fe014031783b0946b8c9d2e361266d81612223565b5050565b8173ffffffffffffffffffffffffffffffffffffffff166352d1902d6040518163ffffffff1660e01b8152600401602060405180830381865afa9250505080156126d957506040513d601f19601f820116820180604052508101906126d691906138d5565b60015b61271a57816040517f4c9c8ce30000000000000000000000000000000000000000000000000000000081526004016127119190613311565b60405180910390fd5b7f360894a13ba1a3210667c828492db98dca3e2076cc3735a920a3ca505d382bbc5f1b811461278057806040517faa1d49a40000000000000000000000000000000000000000000000000000000081526004016127779190613212565b60405180910390fd5b61278a8383612c1b565b505050565b7f000000000000000000000000000000000000000000000000000000000000000073ffffffffffffffffffffffffffffffffffffffff163073ffffffffffffffffffffffffffffffffffffffff1614612814576040517fe07c8dba00000000000000000000000000000000000000000000000000000000815260040160405180910390fd5b565b5f7fcd5ed15c6e187e77e9aee88184c21f4f2182ab5827cb3b7e07fbedcd63f03300905090565b5f73ffffffffffffffffffffffffffffffffffffffff1660075f9054906101000a900473ffffffffffffffffffffffffffffffffffffffff1673ffffffffffffffffffffffffffffffffffffffff16036128ce57806040517f1ab523340000000000000000000000000000000000000000000000000000000081526004016128c59190613311565b60405180910390fd5b50565b600b5f8373ffffffffffffffffffffffffffffffffffffffff1673ffffffffffffffffffffffffffffffffffffffff1681526020019081526020015f205481108061295857505f600b5f8473ffffffffffffffffffffffffffffffffffffffff1673ffffffffffffffffffffffffffffffffffffffff1681526020019081526020015f2054145b156129d95780600b5f8473ffffffffffffffffffffffffffffffffffffffff1673ffffffffffffffffffffffffffffffffffffffff1681526020019081526020015f20546040517fb621a7f40000000000000000000000000000000000000000000000000000000081526004016129d0929190613900565b60405180910390fd5b5050565b612a59848573ffffffffffffffffffffffffffffffffffffffff166323b872dd868686604051602401612a1293929190613927565b604051602081830303815290604052915060e01b6020820180517bffffffffffffffffffffffffffffffffffffffffffffffffffffffff8381831617835250505050612c8d565b50505050565b612a67612d28565b5f612a70612816565b90506001815f015f6101000a81548160ff0219169083151502179055507f62e78cea01bee320cd4e420270b5ea74000d11b0c9f74754ebdbfc544b05a258612ab66123f0565b604051612ac39190613311565b60405180910390a150565b612ad88282611ca3565b612b1b5780826040517fe2517d3f000000000000000000000000000000000000000000000000000000008152600401612b1292919061395c565b60405180910390fd5b5050565b5f7ff0c57e16840df040f15088dc2f81fe391c3923bec73e23a9662efc9c229c6a005f1b905090565b612b50612d69565b612b86576040517fd7e6bcf800000000000000000000000000000000000000000000000000000000815260040160405180910390fd5b565b612b90611392565b612bc6576040517f8dfc202b00000000000000000000000000000000000000000000000000000000815260040160405180910390fd5b565b5f612bf47f360894a13ba1a3210667c828492db98dca3e2076cc3735a920a3ca505d382bbc5f1b612d87565b5f015f9054906101000a900473ffffffffffffffffffffffffffffffffffffffff16905090565b612c2482612d90565b8173ffffffffffffffffffffffffffffffffffffffff167fbc7cd75a20ee27fd9adebab32041f755214dbc6bffa90cc0225b39da2e5c2d3b60405160405180910390a25f81511115612c8057612c7a8282612e59565b50612c89565b612c88612ed9565b5b5050565b5f5f60205f8451602086015f885af180612cac576040513d5f823e3d81fd5b3d92505f519150505f8214612cc5576001811415612ce0565b5f8473ffffffffffffffffffffffffffffffffffffffff163b145b15612d2257836040517f5274afe7000000000000000000000000000000000000000000000000000000008152600401612d199190613311565b60405180910390fd5b50505050565b612d30611392565b15612d67576040517fd93c066500000000000000000000000000000000000000000000000000000000815260040160405180910390fd5b565b5f612d726122a0565b5f0160089054906101000a900460ff16905090565b5f819050919050565b5f8173ffffffffffffffffffffffffffffffffffffffff163b03612deb57806040517f4c9c8ce3000000000000000000000000000000000000000000000000000000008152600401612de29190613311565b60405180910390fd5b80612e177f360894a13ba1a3210667c828492db98dca3e2076cc3735a920a3ca505d382bbc5f1b612d87565b5f015f6101000a81548173ffffffffffffffffffffffffffffffffffffffff021916908373ffffffffffffffffffffffffffffffffffffffff16021790555050565b60605f5f8473ffffffffffffffffffffffffffffffffffffffff1684604051612e8291906139c7565b5f60405180830381855af49150503d805f8114612eba576040519150601f19603f3d011682016040523d82523d5f602084013e612ebf565b606091505b5091509150612ecf858383612f15565b9250505092915050565b5f341115612f13576040517fb398979f00000000000000000000000000000000000000000000000000000000815260040160405180910390fd5b565b606082612f2a57612f2582612fa2565b612f9a565b5f8251148015612f5057505f8473ffffffffffffffffffffffffffffffffffffffff163b145b15612f9257836040517f9996b315000000000000000000000000000000000000000000000000000000008152600401612f899190613311565b60405180910390fd5b819050612f9b565b5b9392505050565b5f81511115612fb357805160208201fd5b6040517fd6bda27500000000000000000000000000000000000000000000000000000000815260040160405180910390fd5b5f604051905090565b5f5ffd5b5f5ffd5b5f73ffffffffffffffffffffffffffffffffffffffff82169050919050565b5f61301f82612ff6565b9050919050565b61302f81613015565b8114613039575f5ffd5b50565b5f8135905061304a81613026565b92915050565b5f6020828403121561306557613064612fee565b5b5f6130728482850161303c565b91505092915050565b5f7fffffffff0000000000000000000000000000000000000000000000000000000082169050919050565b6130af8161307b565b81146130b9575f5ffd5b50565b5f813590506130ca816130a6565b92915050565b5f602082840312156130e5576130e4612fee565b5b5f6130f2848285016130bc565b91505092915050565b5f8115159050919050565b61310f816130fb565b82525050565b5f6020820190506131285f830184613106565b92915050565b5f5f5f5f5f60a0868803121561314757613146612fee565b5b5f6131548882890161303c565b95505060206131658882890161303c565b94505060406131768882890161303c565b93505060606131878882890161303c565b92505060806131988882890161303c565b9150509295509295909350565b5f819050919050565b6131b7816131a5565b81146131c1575f5ffd5b50565b5f813590506131d2816131ae565b92915050565b5f602082840312156131ed576131ec612fee565b5b5f6131fa848285016131c4565b91505092915050565b61320c816131a5565b82525050565b5f6020820190506132255f830184613203565b92915050565b5f5f6040838503121561324157613240612fee565b5b5f61324e858286016131c4565b925050602061325f8582860161303c565b9150509250929050565b5f819050919050565b61327b81613269565b8114613285575f5ffd5b50565b5f8135905061329681613272565b92915050565b5f5f604083850312156132b2576132b1612fee565b5b5f6132bf8582860161303c565b92505060206132d085828601613288565b9150509250929050565b6132e381613269565b82525050565b5f6020820190506132fc5f8301846132da565b92915050565b61330b81613015565b82525050565b5f6020820190506133245f830184613302565b92915050565b5f5ffd5b5f5ffd5b5f601f19601f8301169050919050565b7f4e487b71000000000000000000000000000000000000000000000000000000005f52604160045260245ffd5b61337882613332565b810181811067ffffffffffffffff8211171561339757613396613342565b5b80604052505050565b5f6133a9612fe5565b90506133b5828261336f565b919050565b5f67ffffffffffffffff8211156133d4576133d3613342565b5b6133dd82613332565b9050602081019050919050565b828183375f83830152505050565b5f61340a613405846133ba565b6133a0565b9050828152602081018484840111156134265761342561332e565b5b6134318482856133ea565b509392505050565b5f82601f83011261344d5761344c61332a565b5b813561345d8482602086016133f8565b91505092915050565b5f5f6040838503121561347c5761347b612fee565b5b5f6134898582860161303c565b925050602083013567ffffffffffffffff8111156134aa576134a9612ff2565b5b6134b685828601613439565b9150509250929050565b6134c9816130fb565b81146134d3575f5ffd5b50565b5f813590506134e4816134c0565b92915050565b5f5f60408385031215613500576134ff612fee565b5b5f61350d8582860161303c565b925050602061351e858286016134d6565b9150509250929050565b5f5ffd5b5f610140828403121561354257613541613528565b5b61354d6101406133a0565b90505f61355c8482850161303c565b5f83015250602061356f8482850161303c565b602083015250604061358384828501613288565b604083015250606061359784828501613288565b60608301525060806135ab84828501613288565b60808301525060a06135bf84828501613288565b60a08301525060c06135d384828501613288565b60c08301525060e06135e784828501613288565b60e0830152506101006135fc84828501613288565b6101008301525061012061361284828501613288565b6101208301525092915050565b5f610140828403121561363557613634612fee565b5b5f6136428482850161352c565b91505092915050565b5f81519050919050565b5f82825260208201905092915050565b8281835e5f83830152505050565b5f61367d8261364b565b6136878185613655565b9350613697818560208601613665565b6136a081613332565b840191505092915050565b5f6020820190508181035f8301526136c38184613673565b905092915050565b5f5f604083850312156136e1576136e0612fee565b5b5f6136ee8582860161303c565b92505060206136ff8582860161303c565b9150509250929050565b5f6020828403121561371e5761371d612fee565b5b5f61372b84828501613288565b91505092915050565b5f63ffffffff82169050919050565b61374c81613734565b82525050565b5f6020820190506137655f830184613743565b92915050565b5f819050919050565b5f67ffffffffffffffff82169050919050565b5f819050919050565b5f6137aa6137a56137a08461376b565b613787565b613774565b9050919050565b6137ba81613790565b82525050565b5f6020820190506137d35f8301846137b1565b92915050565b5f6080820190506137ec5f830187613302565b6137f96020830186613302565b6138066040830185613302565b61381360608301846132da565b95945050505050565b5f8151905061382a81613026565b92915050565b5f6020828403121561384557613844612fee565b5b5f6138528482850161381c565b91505092915050565b5f60408201905061386e5f830185613302565b61387b60208301846132da565b9392505050565b5f81519050613890816134c0565b92915050565b5f602082840312156138ab576138aa612fee565b5b5f6138b884828501613882565b91505092915050565b5f815190506138cf816131ae565b92915050565b5f602082840312156138ea576138e9612fee565b5b5f6138f7848285016138c1565b91505092915050565b5f6040820190506139135f8301856132da565b61392060208301846132da565b9392505050565b5f60608201905061393a5f830186613302565b6139476020830185613302565b61395460408301846132da565b949350505050565b5f60408201905061396f5f830185613302565b61397c6020830184613203565b9392505050565b5f81519050919050565b5f81905092915050565b5f6139a182613983565b6139ab818561398d565b93506139bb818560208601613665565b80840191505092915050565b5f6139d28284613997565b91508190509291505056fea26469706673582212202acc3666497c30a574d0a14c4751bea07b5dc6dd23602e60bfd42c730f5d22fa64736f6c634300081e0033","linkReferences":{}},"methodIdentifiers":{"DEFAULT_ADMIN_ROLE()":"a217fddf","DEX_ROUTER()":"7af11ac0","OWNER_ROLE()":"e58378bb","PAUSER_ROLE()":"e63ab1e9","UPGRADER_ROLE()":"f72c0d8b","UPGRADE_INTERFACE_VERSION()":"ad3cb1cc","WRAPPED_NATIVE()":"d999984d","chainIdToEid(uint256)":"f151e497","createLendingPool((address,address,uint256,uint256,uint256,uint256,uint256,uint256,uint256,uint256))":"658f86f5","getRoleAdmin(bytes32)":"248a9ca3","grantRole(bytes32,address)":"2f2ff15d","hasRole(bytes32,address)":"91d14854","initialize(address,address,address,address,address)":"1459457a","interestRateModel()":"f3fdb15a","isHealthy()":"e4020804","lendingPoolDeployer()":"42e681d8","lendingPoolRouterDeployer()":"e949f3c9","minAmountSupplyLiquidity(address)":"3fcaacdf","oftAddress(address)":"efe1b2cd","operator(address)":"9a307391","pause()":"8456cb59","paused()":"5c975abb","poolCount()":"f525cb68","positionDeployer()":"bd3b5471","protocol()":"8ce74426","proxiableUUID()":"52d1902d","renounceRole(bytes32,address)":"36568abe","revokeRole(bytes32,address)":"d547741f","setDexRouter(address)":"f72f863b","setInterestRateModel(address)":"8bcd4016","setIsHealthy(address)":"59917d7d","setLendingPoolDeployer(address)":"00546b2a","setLendingPoolRouterDeployer(address)":"8dc15a66","setMinAmountSupplyLiquidity(address,uint256)":"39a2e638","setOftAddress(address,address)":"f09a0d6b","setOperator(address,bool)":"558a7297","setPositionDeployer(address)":"f8446dcd","setProtocol(address)":"0a9d793d","setTokenDataStream(address)":"9cc8b2d1","setWrappedNative(address)":"52cb60ca","supportsInterface(bytes4)":"01ffc9a7","tokenDataStream()":"75b568a6","unpause()":"3f4ba83a","upgradeToAndCall(address,bytes)":"4f1ef286"},"id":124}