{"abi":[{"type":"constructor","inputs":[],"stateMutability":"nonpayable"},{"type":"function","name":"DEFAULT_ADMIN_ROLE","inputs":[],"outputs":[{"name":"","type":"bytes32","internalType":"bytes32"}],"stateMutability":"view"},{"type":"function","name":"OWNER_ROLE","inputs":[],"outputs":[{"name":"","type":"bytes32","internalType":"bytes32"}],"stateMutability":"view"},{"type":"function","name":"PAUSER_ROLE","inputs":[],"outputs":[{"name":"","type":"bytes32","internalType":"bytes32"}],"stateMutability":"view"},{"type":"function","name":"UPGRADER_ROLE","inputs":[],"outputs":[{"name":"","type":"bytes32","internalType":"bytes32"}],"stateMutability":"view"},{"type":"function","name":"WKAIA","inputs":[],"outputs":[{"name":"","type":"address","internalType":"address"}],"stateMutability":"view"},{"type":"function","name":"addTokenDataStream","inputs":[{"name":"_token","type":"address","internalType":"address"},{"name":"_dataStream","type":"address","internalType":"address"}],"outputs":[],"stateMutability":"nonpayable"},{"type":"function","name":"createLendingPool","inputs":[{"name":"collateralToken","type":"address","internalType":"address"},{"name":"borrowToken","type":"address","internalType":"address"},{"name":"ltv","type":"uint256","internalType":"uint256"}],"outputs":[{"name":"","type":"address","internalType":"address"}],"stateMutability":"nonpayable"},{"type":"function","name":"getRoleAdmin","inputs":[{"name":"role","type":"bytes32","internalType":"bytes32"}],"outputs":[{"name":"","type":"bytes32","internalType":"bytes32"}],"stateMutability":"view"},{"type":"function","name":"grantRole","inputs":[{"name":"role","type":"bytes32","internalType":"bytes32"},{"name":"account","type":"address","internalType":"address"}],"outputs":[],"stateMutability":"nonpayable"},{"type":"function","name":"hasRole","inputs":[{"name":"role","type":"bytes32","internalType":"bytes32"},{"name":"account","type":"address","internalType":"address"}],"outputs":[{"name":"","type":"bool","internalType":"bool"}],"stateMutability":"view"},{"type":"function","name":"initialize","inputs":[{"name":"_isHealthy","type":"address","internalType":"address"},{"name":"_lendingPoolDeployer","type":"address","internalType":"address"},{"name":"_protocol","type":"address","internalType":"address"},{"name":"_positionDeployer","type":"address","internalType":"address"}],"outputs":[],"stateMutability":"nonpayable"},{"type":"function","name":"isHealthy","inputs":[],"outputs":[{"name":"","type":"address","internalType":"address"}],"stateMutability":"view"},{"type":"function","name":"lendingPoolDeployer","inputs":[],"outputs":[{"name":"","type":"address","internalType":"address"}],"stateMutability":"view"},{"type":"function","name":"oftAddress","inputs":[{"name":"","type":"address","internalType":"address"}],"outputs":[{"name":"","type":"address","internalType":"address"}],"stateMutability":"view"},{"type":"function","name":"operator","inputs":[{"name":"","type":"address","internalType":"address"}],"outputs":[{"name":"","type":"bool","internalType":"bool"}],"stateMutability":"view"},{"type":"function","name":"pause","inputs":[],"outputs":[],"stateMutability":"nonpayable"},{"type":"function","name":"paused","inputs":[],"outputs":[{"name":"","type":"bool","internalType":"bool"}],"stateMutability":"view"},{"type":"function","name":"poolCount","inputs":[],"outputs":[{"name":"","type":"uint256","internalType":"uint256"}],"stateMutability":"view"},{"type":"function","name":"pools","inputs":[{"name":"","type":"uint256","internalType":"uint256"}],"outputs":[{"name":"collateralToken","type":"address","internalType":"address"},{"name":"borrowToken","type":"address","internalType":"address"},{"name":"lendingPoolAddress","type":"address","internalType":"address"}],"stateMutability":"view"},{"type":"function","name":"positionDeployer","inputs":[],"outputs":[{"name":"","type":"address","internalType":"address"}],"stateMutability":"view"},{"type":"function","name":"protocol","inputs":[],"outputs":[{"name":"","type":"address","internalType":"address"}],"stateMutability":"view"},{"type":"function","name":"proxiableUUID","inputs":[],"outputs":[{"name":"","type":"bytes32","internalType":"bytes32"}],"stateMutability":"view"},{"type":"function","name":"renounceRole","inputs":[{"name":"role","type":"bytes32","internalType":"bytes32"},{"name":"account","type":"address","internalType":"address"}],"outputs":[],"stateMutability":"nonpayable"},{"type":"function","name":"revokeRole","inputs":[{"name":"role","type":"bytes32","internalType":"bytes32"},{"name":"account","type":"address","internalType":"address"}],"outputs":[],"stateMutability":"nonpayable"},{"type":"function","name":"setIsHealthy","inputs":[{"name":"_isHealthy","type":"address","internalType":"address"}],"outputs":[],"stateMutability":"nonpayable"},{"type":"function","name":"setLendingPoolDeployer","inputs":[{"name":"_lendingPoolDeployer","type":"address","internalType":"address"}],"outputs":[],"stateMutability":"nonpayable"},{"type":"function","name":"setOftAddress","inputs":[{"name":"_token","type":"address","internalType":"address"},{"name":"_oftAddress","type":"address","internalType":"address"}],"outputs":[],"stateMutability":"nonpayable"},{"type":"function","name":"setOperator","inputs":[{"name":"_operator","type":"address","internalType":"address"},{"name":"_status","type":"bool","internalType":"bool"}],"outputs":[],"stateMutability":"nonpayable"},{"type":"function","name":"setPositionDeployer","inputs":[{"name":"_positionDeployer","type":"address","internalType":"address"}],"outputs":[],"stateMutability":"nonpayable"},{"type":"function","name":"setProtocol","inputs":[{"name":"_protocol","type":"address","internalType":"address"}],"outputs":[],"stateMutability":"nonpayable"},{"type":"function","name":"supportsInterface","inputs":[{"name":"interfaceId","type":"bytes4","internalType":"bytes4"}],"outputs":[{"name":"","type":"bool","internalType":"bool"}],"stateMutability":"view"},{"type":"function","name":"tokenDataStream","inputs":[{"name":"","type":"address","internalType":"address"}],"outputs":[{"name":"","type":"address","internalType":"address"}],"stateMutability":"view"},{"type":"function","name":"unpause","inputs":[],"outputs":[],"stateMutability":"nonpayable"},{"type":"function","name":"upgradeTo","inputs":[{"name":"newImplementation","type":"address","internalType":"address"}],"outputs":[],"stateMutability":"nonpayable"},{"type":"function","name":"upgradeToAndCall","inputs":[{"name":"newImplementation","type":"address","internalType":"address"},{"name":"data","type":"bytes","internalType":"bytes"}],"outputs":[],"stateMutability":"payable"},{"type":"event","name":"AdminChanged","inputs":[{"name":"previousAdmin","type":"address","indexed":false,"internalType":"address"},{"name":"newAdmin","type":"address","indexed":false,"internalType":"address"}],"anonymous":false},{"type":"event","name":"BeaconUpgraded","inputs":[{"name":"beacon","type":"address","indexed":true,"internalType":"address"}],"anonymous":false},{"type":"event","name":"Initialized","inputs":[{"name":"version","type":"uint8","indexed":false,"internalType":"uint8"}],"anonymous":false},{"type":"event","name":"IsHealthySet","inputs":[{"name":"isHealthy","type":"address","indexed":true,"internalType":"address"}],"anonymous":false},{"type":"event","name":"LendingPoolCreated","inputs":[{"name":"collateralToken","type":"address","indexed":true,"internalType":"address"},{"name":"borrowToken","type":"address","indexed":true,"internalType":"address"},{"name":"lendingPool","type":"address","indexed":true,"internalType":"address"},{"name":"ltv","type":"uint256","indexed":false,"internalType":"uint256"}],"anonymous":false},{"type":"event","name":"LendingPoolDeployerSet","inputs":[{"name":"lendingPoolDeployer","type":"address","indexed":true,"internalType":"address"}],"anonymous":false},{"type":"event","name":"OftAddressSet","inputs":[{"name":"token","type":"address","indexed":true,"internalType":"address"},{"name":"oftAddress","type":"address","indexed":true,"internalType":"address"}],"anonymous":false},{"type":"event","name":"OperatorSet","inputs":[{"name":"operator","type":"address","indexed":true,"internalType":"address"},{"name":"status","type":"bool","indexed":false,"internalType":"bool"}],"anonymous":false},{"type":"event","name":"Paused","inputs":[{"name":"account","type":"address","indexed":false,"internalType":"address"}],"anonymous":false},{"type":"event","name":"PositionDeployerSet","inputs":[{"name":"positionDeployer","type":"address","indexed":true,"internalType":"address"}],"anonymous":false},{"type":"event","name":"ProtocolSet","inputs":[{"name":"protocol","type":"address","indexed":true,"internalType":"address"}],"anonymous":false},{"type":"event","name":"RoleAdminChanged","inputs":[{"name":"role","type":"bytes32","indexed":true,"internalType":"bytes32"},{"name":"previousAdminRole","type":"bytes32","indexed":true,"internalType":"bytes32"},{"name":"newAdminRole","type":"bytes32","indexed":true,"internalType":"bytes32"}],"anonymous":false},{"type":"event","name":"RoleGranted","inputs":[{"name":"role","type":"bytes32","indexed":true,"internalType":"bytes32"},{"name":"account","type":"address","indexed":true,"internalType":"address"},{"name":"sender","type":"address","indexed":true,"internalType":"address"}],"anonymous":false},{"type":"event","name":"RoleRevoked","inputs":[{"name":"role","type":"bytes32","indexed":true,"internalType":"bytes32"},{"name":"account","type":"address","indexed":true,"internalType":"address"},{"name":"sender","type":"address","indexed":true,"internalType":"address"}],"anonymous":false},{"type":"event","name":"TokenDataStreamAdded","inputs":[{"name":"token","type":"address","indexed":true,"internalType":"address"},{"name":"dataStream","type":"address","indexed":true,"internalType":"address"}],"anonymous":false},{"type":"event","name":"Unpaused","inputs":[{"name":"account","type":"address","indexed":false,"internalType":"address"}],"anonymous":false},{"type":"event","name":"Upgraded","inputs":[{"name":"implementation","type":"address","indexed":true,"internalType":"address"}],"anonymous":false}],"bytecode":{"object":"0x60a06040523073ffffffffffffffffffffffffffffffffffffffff1660809073ffffffffffffffffffffffffffffffffffffffff16815250348015610042575f5ffd5b5061005161005660201b60201c565b6101e6565b5f60019054906101000a900460ff16156100a5576040517f08c379a000000000000000000000000000000000000000000000000000000000815260040161009c90610194565b60405180910390fd5b60ff80165f5f9054906101000a900460ff1660ff16146101125760ff5f5f6101000a81548160ff021916908360ff1602179055507f7f26b83ff96e1f2b6a682f133852f6798a09c465da95921460cefb384740249860ff60405161010991906101cd565b60405180910390a15b565b5f82825260208201905092915050565b7f496e697469616c697a61626c653a20636f6e747261637420697320696e6974695f8201527f616c697a696e6700000000000000000000000000000000000000000000000000602082015250565b5f61017e602783610114565b915061018982610124565b604082019050919050565b5f6020820190508181035f8301526101ab81610172565b9050919050565b5f60ff82169050919050565b6101c7816101b2565b82525050565b5f6020820190506101e05f8301846101be565b92915050565b608051615f3761021a5f395f8181610af101528181610b7f01528181610cd201528181610d600152610e0f0152615f375ff3fe608060405260043610610202575f3560e01c80638456cb5911610117578063e40208041161009f578063f09a0d6b1161006e578063f09a0d6b1461073c578063f525cb6814610764578063f72c0d8b1461078e578063f8446dcd146107b8578063f8c8765e146107e057610202565b8063e402080414610682578063e58378bb146106ac578063e63ab1e9146106d6578063efe1b2cd1461070057610202565b8063a217fddf116100e6578063a217fddf146105a0578063ac4afa38146105ca578063bd3b547114610608578063d547741f14610632578063e18487ca1461065a57610202565b80638456cb59146104e85780638ce74426146104fe57806391d14854146105285780639a3073911461056457610202565b80633659cfe61161019a57806352d1902d1161016957806352d1902d14610408578063558a72971461043257806359917d7d1461045a5780635c975abb14610482578063802de844146104ac57610202565b80633659cfe6146103845780633f4ba83a146103ac57806342e681d8146103c25780634f1ef286146103ec57610202565b80631d43335a116101d65780631d43335a146102bc578063248a9ca3146102f85780632f2ff15d1461033457806336568abe1461035c57610202565b8062546b2a1461020657806301ffc9a71461022e5780630a9d793d1461026a578063145d51d814610292575b5f5ffd5b348015610211575f5ffd5b5061022c600480360381019061022791906128c4565b610808565b005b348015610239575f5ffd5b50610254600480360381019061024f9190612944565b6108ba565b6040516102619190612989565b60405180910390f35b348015610275575f5ffd5b50610290600480360381019061028b91906128c4565b610933565b005b34801561029d575f5ffd5b506102a66109e5565b6040516102b391906129b1565b60405180910390f35b3480156102c7575f5ffd5b506102e260048036038101906102dd91906128c4565b6109fd565b6040516102ef91906129b1565b60405180910390f35b348015610303575f5ffd5b5061031e600480360381019061031991906129fd565b610a2e565b60405161032b9190612a37565b60405180910390f35b34801561033f575f5ffd5b5061035a60048036038101906103559190612a50565b610a4b565b005b348015610367575f5ffd5b50610382600480360381019061037d9190612a50565b610a6c565b005b34801561038f575f5ffd5b506103aa60048036038101906103a591906128c4565b610aef565b005b3480156103b7575f5ffd5b506103c0610c75565b005b3480156103cd575f5ffd5b506103d6610caa565b6040516103e391906129b1565b60405180910390f35b61040660048036038101906104019190612bca565b610cd0565b005b348015610413575f5ffd5b5061041c610e0c565b6040516104299190612a37565b60405180910390f35b34801561043d575f5ffd5b5061045860048036038101906104539190612c4e565b610ec3565b005b348015610465575f5ffd5b50610480600480360381019061047b91906128c4565b610f95565b005b34801561048d575f5ffd5b50610496611047565b6040516104a39190612989565b60405180910390f35b3480156104b7575f5ffd5b506104d260048036038101906104cd9190612cbf565b61105c565b6040516104df91906129b1565b60405180910390f35b3480156104f3575f5ffd5b506104fc611395565b005b348015610509575f5ffd5b506105126113ca565b60405161051f91906129b1565b60405180910390f35b348015610533575f5ffd5b5061054e60048036038101906105499190612a50565b6113f0565b60405161055b9190612989565b60405180910390f35b34801561056f575f5ffd5b5061058a600480360381019061058591906128c4565b611454565b6040516105979190612989565b60405180910390f35b3480156105ab575f5ffd5b506105b4611472565b6040516105c19190612a37565b60405180910390f35b3480156105d5575f5ffd5b506105f060048036038101906105eb9190612d0f565b611478565b6040516105ff93929190612d3a565b60405180910390f35b348015610613575f5ffd5b5061061c61150b565b60405161062991906129b1565b60405180910390f35b34801561063d575f5ffd5b5061065860048036038101906106539190612a50565b611531565b005b348015610665575f5ffd5b50610680600480360381019061067b9190612d6f565b611552565b005b34801561068d575f5ffd5b50610696611657565b6040516106a391906129b1565b60405180910390f35b3480156106b7575f5ffd5b506106c061167d565b6040516106cd9190612a37565b60405180910390f35b3480156106e1575f5ffd5b506106ea6116a1565b6040516106f79190612a37565b60405180910390f35b34801561070b575f5ffd5b50610726600480360381019061072191906128c4565b6116c5565b60405161073391906129b1565b60405180910390f35b348015610747575f5ffd5b50610762600480360381019061075d9190612d6f565b6116f6565b005b34801561076f575f5ffd5b506107786117fb565b6040516107859190612dbc565b60405180910390f35b348015610799575f5ffd5b506107a2611802565b6040516107af9190612a37565b60405180910390f35b3480156107c3575f5ffd5b506107de60048036038101906107d991906128c4565b611826565b005b3480156107eb575f5ffd5b5061080660048036038101906108019190612dd5565b6118d8565b005b7fb19546dff01e856fb3f010c267a7b1c60363cf8a4664e21cc89c26224620214e61083281611bb4565b8161012e5f6101000a81548173ffffffffffffffffffffffffffffffffffffffff021916908373ffffffffffffffffffffffffffffffffffffffff1602179055508173ffffffffffffffffffffffffffffffffffffffff167fb01c17406179a638da96eaa4686f4c1b6367270061946142c4a8ea461023d51760405160405180910390a25050565b5f7f7965db0b000000000000000000000000000000000000000000000000000000007bffffffffffffffffffffffffffffffffffffffffffffffffffffffff1916827bffffffffffffffffffffffffffffffffffffffffffffffffffffffff1916148061092c575061092b82611bc8565b5b9050919050565b7fb19546dff01e856fb3f010c267a7b1c60363cf8a4664e21cc89c26224620214e61095d81611bb4565b8161012f5f6101000a81548173ffffffffffffffffffffffffffffffffffffffff021916908373ffffffffffffffffffffffffffffffffffffffff1602179055508173ffffffffffffffffffffffffffffffffffffffff167f9269d63ac6e0360a152db45a73e3e9e471a002419dff28abc7b58efaa211a2ba60405160405180910390a25050565b7319aac5f612f524b754ca7e7c41cbfa2e981a443281565b610131602052805f5260405f205f915054906101000a900473ffffffffffffffffffffffffffffffffffffffff1681565b5f60fb5f8381526020019081526020015f20600101549050919050565b610a5482610a2e565b610a5d81611bb4565b610a678383611c31565b505050565b610a74611d0c565b73ffffffffffffffffffffffffffffffffffffffff168173ffffffffffffffffffffffffffffffffffffffff1614610ae1576040517f08c379a0000000000000000000000000000000000000000000000000000000008152600401610ad890612eb9565b60405180910390fd5b610aeb8282611d13565b5050565b7f000000000000000000000000000000000000000000000000000000000000000073ffffffffffffffffffffffffffffffffffffffff163073ffffffffffffffffffffffffffffffffffffffff1603610b7d576040517f08c379a0000000000000000000000000000000000000000000000000000000008152600401610b7490612f47565b60405180910390fd5b7f000000000000000000000000000000000000000000000000000000000000000073ffffffffffffffffffffffffffffffffffffffff16610bbc611dee565b73ffffffffffffffffffffffffffffffffffffffff1614610c12576040517f08c379a0000000000000000000000000000000000000000000000000000000008152600401610c0990612fd5565b60405180910390fd5b610c1b81611e41565b610c72815f67ffffffffffffffff811115610c3957610c38612aa6565b5b6040519080825280601f01601f191660200182016040528015610c6b5781602001600182028036833780820191505090505b505f611e6f565b50565b7f65d7a28e3265b37a6474929f336521b332c1681b933f6cb9f3376673440d862a610c9f81611bb4565b610ca7611fd9565b50565b61012e5f9054906101000a900473ffffffffffffffffffffffffffffffffffffffff1681565b7f000000000000000000000000000000000000000000000000000000000000000073ffffffffffffffffffffffffffffffffffffffff163073ffffffffffffffffffffffffffffffffffffffff1603610d5e576040517f08c379a0000000000000000000000000000000000000000000000000000000008152600401610d5590612f47565b60405180910390fd5b7f000000000000000000000000000000000000000000000000000000000000000073ffffffffffffffffffffffffffffffffffffffff16610d9d611dee565b73ffffffffffffffffffffffffffffffffffffffff1614610df3576040517f08c379a0000000000000000000000000000000000000000000000000000000008152600401610dea90612fd5565b60405180910390fd5b610dfc82611e41565b610e0882826001611e6f565b5050565b5f7f000000000000000000000000000000000000000000000000000000000000000073ffffffffffffffffffffffffffffffffffffffff163073ffffffffffffffffffffffffffffffffffffffff1614610e9b576040517f08c379a0000000000000000000000000000000000000000000000000000000008152600401610e9290613063565b60405180910390fd5b7f360894a13ba1a3210667c828492db98dca3e2076cc3735a920a3ca505d382bbc5f1b905090565b7fb19546dff01e856fb3f010c267a7b1c60363cf8a4664e21cc89c26224620214e610eed81611bb4565b816101325f8573ffffffffffffffffffffffffffffffffffffffff1673ffffffffffffffffffffffffffffffffffffffff1681526020019081526020015f205f6101000a81548160ff0219169083151502179055508273ffffffffffffffffffffffffffffffffffffffff167f1a594081ae893ab78e67d9b9e843547318164322d32c65369d78a96172d9dc8f83604051610f889190612989565b60405180910390a2505050565b7fb19546dff01e856fb3f010c267a7b1c60363cf8a4664e21cc89c26224620214e610fbf81611bb4565b8161012d5f6101000a81548173ffffffffffffffffffffffffffffffffffffffff021916908373ffffffffffffffffffffffffffffffffffffffff1602179055508173ffffffffffffffffffffffffffffffffffffffff167fdfccf581ae27a41845f39125ccb5ef00c0a079c5bf3bf751ecd2045e2d6d442f60405160405180910390a25050565b5f60335f9054906101000a900460ff16905090565b5f5f5f3086868660405161106f9061284c565b61107d959493929190613081565b604051809103905ff080158015611096573d5f5f3e3d5ffd5b5090505f61012e5f9054906101000a900473ffffffffffffffffffffffffffffffffffffffff1673ffffffffffffffffffffffffffffffffffffffff16637b8cabb6836040518263ffffffff1660e01b81526004016110f591906129b1565b6020604051808303815f875af1158015611111573d5f5f3e3d5ffd5b505050506040513d601f19601f8201168201806040525081019061113591906130e6565b90508173ffffffffffffffffffffffffffffffffffffffff1663113aa8b1826040518263ffffffff1660e01b815260040161117091906129b1565b5f604051808303815f87803b158015611187575f5ffd5b505af1158015611199573d5f5f3e3d5ffd5b5050505061013460405180606001604052808873ffffffffffffffffffffffffffffffffffffffff1681526020018773ffffffffffffffffffffffffffffffffffffffff1681526020018373ffffffffffffffffffffffffffffffffffffffff16815250908060018154018082558091505060019003905f5260205f2090600302015f909190919091505f820151815f015f6101000a81548173ffffffffffffffffffffffffffffffffffffffff021916908373ffffffffffffffffffffffffffffffffffffffff1602179055506020820151816001015f6101000a81548173ffffffffffffffffffffffffffffffffffffffff021916908373ffffffffffffffffffffffffffffffffffffffff1602179055506040820151816002015f6101000a81548173ffffffffffffffffffffffffffffffffffffffff021916908373ffffffffffffffffffffffffffffffffffffffff16021790555050506101355f8154809291906113089061313e565b91905055508073ffffffffffffffffffffffffffffffffffffffff168573ffffffffffffffffffffffffffffffffffffffff168773ffffffffffffffffffffffffffffffffffffffff167f96002a27cd438afd06fa237c8247c8c03b0c94c7d214d44fc735abd710bcc8c0876040516113819190612dbc565b60405180910390a480925050509392505050565b7f65d7a28e3265b37a6474929f336521b332c1681b933f6cb9f3376673440d862a6113bf81611bb4565b6113c761203a565b50565b61012f5f9054906101000a900473ffffffffffffffffffffffffffffffffffffffff1681565b5f60fb5f8481526020019081526020015f205f015f8373ffffffffffffffffffffffffffffffffffffffff1673ffffffffffffffffffffffffffffffffffffffff1681526020019081526020015f205f9054906101000a900460ff16905092915050565b610132602052805f5260405f205f915054906101000a900460ff1681565b5f5f1b81565b6101348181548110611488575f80fd5b905f5260205f2090600302015f91509050805f015f9054906101000a900473ffffffffffffffffffffffffffffffffffffffff1690806001015f9054906101000a900473ffffffffffffffffffffffffffffffffffffffff1690806002015f9054906101000a900473ffffffffffffffffffffffffffffffffffffffff16905083565b6101305f9054906101000a900473ffffffffffffffffffffffffffffffffffffffff1681565b61153a82610a2e565b61154381611bb4565b61154d8383611d13565b505050565b7fb19546dff01e856fb3f010c267a7b1c60363cf8a4664e21cc89c26224620214e61157c81611bb4565b816101315f8573ffffffffffffffffffffffffffffffffffffffff1673ffffffffffffffffffffffffffffffffffffffff1681526020019081526020015f205f6101000a81548173ffffffffffffffffffffffffffffffffffffffff021916908373ffffffffffffffffffffffffffffffffffffffff1602179055508173ffffffffffffffffffffffffffffffffffffffff168373ffffffffffffffffffffffffffffffffffffffff167fc5f200bc64f9d16d888ec9eaec566ef2155fab997cb7210a15722b06e32a3c7060405160405180910390a3505050565b61012d5f9054906101000a900473ffffffffffffffffffffffffffffffffffffffff1681565b7fb19546dff01e856fb3f010c267a7b1c60363cf8a4664e21cc89c26224620214e81565b7f65d7a28e3265b37a6474929f336521b332c1681b933f6cb9f3376673440d862a81565b610133602052805f5260405f205f915054906101000a900473ffffffffffffffffffffffffffffffffffffffff1681565b7fb19546dff01e856fb3f010c267a7b1c60363cf8a4664e21cc89c26224620214e61172081611bb4565b816101335f8573ffffffffffffffffffffffffffffffffffffffff1673ffffffffffffffffffffffffffffffffffffffff1681526020019081526020015f205f6101000a81548173ffffffffffffffffffffffffffffffffffffffff021916908373ffffffffffffffffffffffffffffffffffffffff1602179055508173ffffffffffffffffffffffffffffffffffffffff168373ffffffffffffffffffffffffffffffffffffffff167f443eca89ae0d91090321746b66b1e5a800bf4f33b317a7dbc01dc310b55c329160405160405180910390a3505050565b6101355481565b7f189ab7a9244df0848122154315af71fe140f3db0fe014031783b0946b8c9d2e381565b7fb19546dff01e856fb3f010c267a7b1c60363cf8a4664e21cc89c26224620214e61185081611bb4565b816101305f6101000a81548173ffffffffffffffffffffffffffffffffffffffff021916908373ffffffffffffffffffffffffffffffffffffffff1602179055508173ffffffffffffffffffffffffffffffffffffffff167f87f38b33506619f9f981cdf0439928c07e8478960e3b27545f27bae983b1ff8b60405160405180910390a25050565b5f5f60019054906101000a900460ff16159050808015611908575060015f5f9054906101000a900460ff1660ff16105b8061193557506119173061209c565b158015611934575060015f5f9054906101000a900460ff1660ff16145b5b611974576040517f08c379a000000000000000000000000000000000000000000000000000000000815260040161196b906131f5565b60405180910390fd5b60015f5f6101000a81548160ff021916908360ff16021790555080156119af5760015f60016101000a81548160ff0219169083151502179055505b6119b76120be565b6119bf612116565b6119c7612166565b6119d35f5f1b33611c31565b6119fd7f65d7a28e3265b37a6474929f336521b332c1681b933f6cb9f3376673440d862a33611c31565b611a277f189ab7a9244df0848122154315af71fe140f3db0fe014031783b0946b8c9d2e333611c31565b611a517fb19546dff01e856fb3f010c267a7b1c60363cf8a4664e21cc89c26224620214e33611c31565b8461012d5f6101000a81548173ffffffffffffffffffffffffffffffffffffffff021916908373ffffffffffffffffffffffffffffffffffffffff1602179055508361012e5f6101000a81548173ffffffffffffffffffffffffffffffffffffffff021916908373ffffffffffffffffffffffffffffffffffffffff1602179055508261012f5f6101000a81548173ffffffffffffffffffffffffffffffffffffffff021916908373ffffffffffffffffffffffffffffffffffffffff160217905550816101305f6101000a81548173ffffffffffffffffffffffffffffffffffffffff021916908373ffffffffffffffffffffffffffffffffffffffff1602179055508015611bad575f5f60016101000a81548160ff0219169083151502179055507f7f26b83ff96e1f2b6a682f133852f6798a09c465da95921460cefb38474024986001604051611ba49190613261565b60405180910390a15b5050505050565b611bc581611bc0611d0c565b6121b6565b50565b5f7f01ffc9a7000000000000000000000000000000000000000000000000000000007bffffffffffffffffffffffffffffffffffffffffffffffffffffffff1916827bffffffffffffffffffffffffffffffffffffffffffffffffffffffff1916149050919050565b611c3b82826113f0565b611d0857600160fb5f8481526020019081526020015f205f015f8373ffffffffffffffffffffffffffffffffffffffff1673ffffffffffffffffffffffffffffffffffffffff1681526020019081526020015f205f6101000a81548160ff021916908315150217905550611cad611d0c565b73ffffffffffffffffffffffffffffffffffffffff168173ffffffffffffffffffffffffffffffffffffffff16837f2f8788117e7eff1d82e926ec794901d17c78024a50270940304540a733656f0d60405160405180910390a45b5050565b5f33905090565b611d1d82826113f0565b15611dea575f60fb5f8481526020019081526020015f205f015f8373ffffffffffffffffffffffffffffffffffffffff1673ffffffffffffffffffffffffffffffffffffffff1681526020019081526020015f205f6101000a81548160ff021916908315150217905550611d8f611d0c565b73ffffffffffffffffffffffffffffffffffffffff168173ffffffffffffffffffffffffffffffffffffffff16837ff6391f5c32d9c69d2a47ea670b442974b53935d1edc7fd64eb21e047a839171b60405160405180910390a45b5050565b5f611e1a7f360894a13ba1a3210667c828492db98dca3e2076cc3735a920a3ca505d382bbc5f1b61223a565b5f015f9054906101000a900473ffffffffffffffffffffffffffffffffffffffff16905090565b7f189ab7a9244df0848122154315af71fe140f3db0fe014031783b0946b8c9d2e3611e6b81611bb4565b5050565b611e9a7f4910fdfa16fed3260ed0e7147f7cc6da11a60208b5b9406d12a635614ffd91435f1b612243565b5f015f9054906101000a900460ff1615611ebc57611eb78361224c565b611fd4565b8273ffffffffffffffffffffffffffffffffffffffff166352d1902d6040518163ffffffff1660e01b8152600401602060405180830381865afa925050508015611f2457506040513d601f19601f82011682018060405250810190611f21919061328e565b60015b611f63576040517f08c379a0000000000000000000000000000000000000000000000000000000008152600401611f5a90613329565b60405180910390fd5b7f360894a13ba1a3210667c828492db98dca3e2076cc3735a920a3ca505d382bbc5f1b8114611fc7576040517f08c379a0000000000000000000000000000000000000000000000000000000008152600401611fbe906133b7565b60405180910390fd5b50611fd3838383612302565b5b505050565b611fe161232d565b5f60335f6101000a81548160ff0219169083151502179055507f5db9ee0a495bf2e6ff9c91a7834c1ba4fdd244a5e8aa4e537bd38aeae4b073aa612023611d0c565b60405161203091906129b1565b60405180910390a1565b612042612376565b600160335f6101000a81548160ff0219169083151502179055507f62e78cea01bee320cd4e420270b5ea74000d11b0c9f74754ebdbfc544b05a258612085611d0c565b60405161209291906129b1565b60405180910390a1565b5f5f8273ffffffffffffffffffffffffffffffffffffffff163b119050919050565b5f60019054906101000a900460ff1661210c576040517f08c379a000000000000000000000000000000000000000000000000000000000815260040161210390613445565b60405180910390fd5b6121146123c0565b565b5f60019054906101000a900460ff16612164576040517f08c379a000000000000000000000000000000000000000000000000000000000815260040161215b90613445565b60405180910390fd5b565b5f60019054906101000a900460ff166121b4576040517f08c379a00000000000000000000000000000000000000000000000000000000081526004016121ab90613445565b60405180910390fd5b565b6121c082826113f0565b612236576121cd81612429565b6121da835f1c6020612456565b6040516020016121eb929190613549565b6040516020818303038152906040526040517f08c379a000000000000000000000000000000000000000000000000000000000815260040161222d91906135ba565b60405180910390fd5b5050565b5f819050919050565b5f819050919050565b6122558161209c565b612294576040517f08c379a000000000000000000000000000000000000000000000000000000000815260040161228b9061364a565b60405180910390fd5b806122c07f360894a13ba1a3210667c828492db98dca3e2076cc3735a920a3ca505d382bbc5f1b61223a565b5f015f6101000a81548173ffffffffffffffffffffffffffffffffffffffff021916908373ffffffffffffffffffffffffffffffffffffffff16021790555050565b61230b8361268b565b5f825111806123175750805b156123285761232683836126da565b505b505050565b612335611047565b612374576040517f08c379a000000000000000000000000000000000000000000000000000000000815260040161236b906136b2565b60405180910390fd5b565b61237e611047565b156123be576040517f08c379a00000000000000000000000000000000000000000000000000000000081526004016123b59061371a565b60405180910390fd5b565b5f60019054906101000a900460ff1661240e576040517f08c379a000000000000000000000000000000000000000000000000000000000815260040161240590613445565b60405180910390fd5b5f60335f6101000a81548160ff021916908315150217905550565b606061244f8273ffffffffffffffffffffffffffffffffffffffff16601460ff16612456565b9050919050565b60605f60028360026124689190613738565b6124729190613779565b67ffffffffffffffff81111561248b5761248a612aa6565b5b6040519080825280601f01601f1916602001820160405280156124bd5781602001600182028036833780820191505090505b5090507f3000000000000000000000000000000000000000000000000000000000000000815f815181106124f4576124f36137ac565b5b60200101907effffffffffffffffffffffffffffffffffffffffffffffffffffffffffffff191690815f1a9053507f780000000000000000000000000000000000000000000000000000000000000081600181518110612557576125566137ac565b5b60200101907effffffffffffffffffffffffffffffffffffffffffffffffffffffffffffff191690815f1a9053505f60018460026125959190613738565b61259f9190613779565b90505b600181111561263e577f3031323334353637383961626364656600000000000000000000000000000000600f8616601081106125e1576125e06137ac565b5b1a60f81b8282815181106125f8576125f76137ac565b5b60200101907effffffffffffffffffffffffffffffffffffffffffffffffffffffffffffff191690815f1a905350600485901c945080612637906137d9565b90506125a2565b505f8414612681576040517f08c379a00000000000000000000000000000000000000000000000000000000081526004016126789061384a565b60405180910390fd5b8091505092915050565b6126948161224c565b8073ffffffffffffffffffffffffffffffffffffffff167fbc7cd75a20ee27fd9adebab32041f755214dbc6bffa90cc0225b39da2e5c2d3b60405160405180910390a250565b60606126ff8383604051806060016040528060278152602001615edb60279139612707565b905092915050565b60605f5f8573ffffffffffffffffffffffffffffffffffffffff168560405161273091906138ac565b5f60405180830381855af49150503d805f8114612768576040519150601f19603f3d011682016040523d82523d5f602084013e61276d565b606091505b509150915061277e86838387612789565b925050509392505050565b606083156127ea575f8351036127e2576127a28561209c565b6127e1576040517f08c379a00000000000000000000000000000000000000000000000000000000081526004016127d89061390c565b60405180910390fd5b5b8290506127f5565b6127f483836127fd565b5b949350505050565b5f8251111561280f5781518083602001fd5b806040517f08c379a000000000000000000000000000000000000000000000000000000000815260040161284391906135ba565b60405180910390fd5b6125b08061392b83390190565b5f604051905090565b5f5ffd5b5f5ffd5b5f73ffffffffffffffffffffffffffffffffffffffff82169050919050565b5f6128938261286a565b9050919050565b6128a381612889565b81146128ad575f5ffd5b50565b5f813590506128be8161289a565b92915050565b5f602082840312156128d9576128d8612862565b5b5f6128e6848285016128b0565b91505092915050565b5f7fffffffff0000000000000000000000000000000000000000000000000000000082169050919050565b612923816128ef565b811461292d575f5ffd5b50565b5f8135905061293e8161291a565b92915050565b5f6020828403121561295957612958612862565b5b5f61296684828501612930565b91505092915050565b5f8115159050919050565b6129838161296f565b82525050565b5f60208201905061299c5f83018461297a565b92915050565b6129ab81612889565b82525050565b5f6020820190506129c45f8301846129a2565b92915050565b5f819050919050565b6129dc816129ca565b81146129e6575f5ffd5b50565b5f813590506129f7816129d3565b92915050565b5f60208284031215612a1257612a11612862565b5b5f612a1f848285016129e9565b91505092915050565b612a31816129ca565b82525050565b5f602082019050612a4a5f830184612a28565b92915050565b5f5f60408385031215612a6657612a65612862565b5b5f612a73858286016129e9565b9250506020612a84858286016128b0565b9150509250929050565b5f5ffd5b5f5ffd5b5f601f19601f8301169050919050565b7f4e487b71000000000000000000000000000000000000000000000000000000005f52604160045260245ffd5b612adc82612a96565b810181811067ffffffffffffffff82111715612afb57612afa612aa6565b5b80604052505050565b5f612b0d612859565b9050612b198282612ad3565b919050565b5f67ffffffffffffffff821115612b3857612b37612aa6565b5b612b4182612a96565b9050602081019050919050565b828183375f83830152505050565b5f612b6e612b6984612b1e565b612b04565b905082815260208101848484011115612b8a57612b89612a92565b5b612b95848285612b4e565b509392505050565b5f82601f830112612bb157612bb0612a8e565b5b8135612bc1848260208601612b5c565b91505092915050565b5f5f60408385031215612be057612bdf612862565b5b5f612bed858286016128b0565b925050602083013567ffffffffffffffff811115612c0e57612c0d612866565b5b612c1a85828601612b9d565b9150509250929050565b612c2d8161296f565b8114612c37575f5ffd5b50565b5f81359050612c4881612c24565b92915050565b5f5f60408385031215612c6457612c63612862565b5b5f612c71858286016128b0565b9250506020612c8285828601612c3a565b9150509250929050565b5f819050919050565b612c9e81612c8c565b8114612ca8575f5ffd5b50565b5f81359050612cb981612c95565b92915050565b5f5f5f60608486031215612cd657612cd5612862565b5b5f612ce3868287016128b0565b9350506020612cf4868287016128b0565b9250506040612d0586828701612cab565b9150509250925092565b5f60208284031215612d2457612d23612862565b5b5f612d3184828501612cab565b91505092915050565b5f606082019050612d4d5f8301866129a2565b612d5a60208301856129a2565b612d6760408301846129a2565b949350505050565b5f5f60408385031215612d8557612d84612862565b5b5f612d92858286016128b0565b9250506020612da3858286016128b0565b9150509250929050565b612db681612c8c565b82525050565b5f602082019050612dcf5f830184612dad565b92915050565b5f5f5f5f60808587031215612ded57612dec612862565b5b5f612dfa878288016128b0565b9450506020612e0b878288016128b0565b9350506040612e1c878288016128b0565b9250506060612e2d878288016128b0565b91505092959194509250565b5f82825260208201905092915050565b7f416363657373436f6e74726f6c3a2063616e206f6e6c792072656e6f756e63655f8201527f20726f6c657320666f722073656c660000000000000000000000000000000000602082015250565b5f612ea3602f83612e39565b9150612eae82612e49565b604082019050919050565b5f6020820190508181035f830152612ed081612e97565b9050919050565b7f46756e6374696f6e206d7573742062652063616c6c6564207468726f756768205f8201527f64656c656761746563616c6c0000000000000000000000000000000000000000602082015250565b5f612f31602c83612e39565b9150612f3c82612ed7565b604082019050919050565b5f6020820190508181035f830152612f5e81612f25565b9050919050565b7f46756e6374696f6e206d7573742062652063616c6c6564207468726f756768205f8201527f6163746976652070726f78790000000000000000000000000000000000000000602082015250565b5f612fbf602c83612e39565b9150612fca82612f65565b604082019050919050565b5f6020820190508181035f830152612fec81612fb3565b9050919050565b7f555550535570677261646561626c653a206d757374206e6f742062652063616c5f8201527f6c6564207468726f7567682064656c656761746563616c6c0000000000000000602082015250565b5f61304d603883612e39565b915061305882612ff3565b604082019050919050565b5f6020820190508181035f83015261307a81613041565b9050919050565b5f60a0820190506130945f8301886129a2565b6130a160208301876129a2565b6130ae60408301866129a2565b6130bb60608301856129a2565b6130c86080830184612dad565b9695505050505050565b5f815190506130e08161289a565b92915050565b5f602082840312156130fb576130fa612862565b5b5f613108848285016130d2565b91505092915050565b7f4e487b71000000000000000000000000000000000000000000000000000000005f52601160045260245ffd5b5f61314882612c8c565b91507fffffffffffffffffffffffffffffffffffffffffffffffffffffffffffffffff820361317a57613179613111565b5b600182019050919050565b7f496e697469616c697a61626c653a20636f6e747261637420697320616c7265615f8201527f647920696e697469616c697a6564000000000000000000000000000000000000602082015250565b5f6131df602e83612e39565b91506131ea82613185565b604082019050919050565b5f6020820190508181035f83015261320c816131d3565b9050919050565b5f819050919050565b5f60ff82169050919050565b5f819050919050565b5f61324b61324661324184613213565b613228565b61321c565b9050919050565b61325b81613231565b82525050565b5f6020820190506132745f830184613252565b92915050565b5f81519050613288816129d3565b92915050565b5f602082840312156132a3576132a2612862565b5b5f6132b08482850161327a565b91505092915050565b7f45524331393637557067726164653a206e657720696d706c656d656e746174695f8201527f6f6e206973206e6f742055555053000000000000000000000000000000000000602082015250565b5f613313602e83612e39565b915061331e826132b9565b604082019050919050565b5f6020820190508181035f83015261334081613307565b9050919050565b7f45524331393637557067726164653a20756e737570706f727465642070726f785f8201527f6961626c65555549440000000000000000000000000000000000000000000000602082015250565b5f6133a1602983612e39565b91506133ac82613347565b604082019050919050565b5f6020820190508181035f8301526133ce81613395565b9050919050565b7f496e697469616c697a61626c653a20636f6e7472616374206973206e6f7420695f8201527f6e697469616c697a696e67000000000000000000000000000000000000000000602082015250565b5f61342f602b83612e39565b915061343a826133d5565b604082019050919050565b5f6020820190508181035f83015261345c81613423565b9050919050565b5f81905092915050565b7f416363657373436f6e74726f6c3a206163636f756e74200000000000000000005f82015250565b5f6134a1601783613463565b91506134ac8261346d565b601782019050919050565b5f81519050919050565b8281835e5f83830152505050565b5f6134d9826134b7565b6134e38185613463565b93506134f38185602086016134c1565b80840191505092915050565b7f206973206d697373696e6720726f6c65200000000000000000000000000000005f82015250565b5f613533601183613463565b915061353e826134ff565b601182019050919050565b5f61355382613495565b915061355f82856134cf565b915061356a82613527565b915061357682846134cf565b91508190509392505050565b5f61358c826134b7565b6135968185612e39565b93506135a68185602086016134c1565b6135af81612a96565b840191505092915050565b5f6020820190508181035f8301526135d28184613582565b905092915050565b7f455243313936373a206e657720696d706c656d656e746174696f6e206973206e5f8201527f6f74206120636f6e747261637400000000000000000000000000000000000000602082015250565b5f613634602d83612e39565b915061363f826135da565b604082019050919050565b5f6020820190508181035f83015261366181613628565b9050919050565b7f5061757361626c653a206e6f74207061757365640000000000000000000000005f82015250565b5f61369c601483612e39565b91506136a782613668565b602082019050919050565b5f6020820190508181035f8301526136c981613690565b9050919050565b7f5061757361626c653a20706175736564000000000000000000000000000000005f82015250565b5f613704601083612e39565b915061370f826136d0565b602082019050919050565b5f6020820190508181035f830152613731816136f8565b9050919050565b5f61374282612c8c565b915061374d83612c8c565b925082820261375b81612c8c565b9150828204841483151761377257613771613111565b5b5092915050565b5f61378382612c8c565b915061378e83612c8c565b92508282019050808211156137a6576137a5613111565b5b92915050565b7f4e487b71000000000000000000000000000000000000000000000000000000005f52603260045260245ffd5b5f6137e382612c8c565b91505f82036137f5576137f4613111565b5b600182039050919050565b7f537472696e67733a20686578206c656e67746820696e73756666696369656e745f82015250565b5f613834602083612e39565b915061383f82613800565b602082019050919050565b5f6020820190508181035f83015261386181613828565b9050919050565b5f81519050919050565b5f81905092915050565b5f61388682613868565b6138908185613872565b93506138a08185602086016134c1565b80840191505092915050565b5f6138b7828461387c565b915081905092915050565b7f416464726573733a2063616c6c20746f206e6f6e2d636f6e74726163740000005f82015250565b5f6138f6601d83612e39565b9150613901826138c2565b602082019050919050565b5f6020820190508181035f830152613923816138ea565b905091905056fe608060405234801561000f575f5ffd5b506040516125b03803806125b0833981810160405281019061003191906101da565b8460095f6101000a81548173ffffffffffffffffffffffffffffffffffffffff021916908373ffffffffffffffffffffffffffffffffffffffff16021790555083600a5f6101000a81548173ffffffffffffffffffffffffffffffffffffffff021916908373ffffffffffffffffffffffffffffffffffffffff16021790555082600b5f6101000a81548173ffffffffffffffffffffffffffffffffffffffff021916908373ffffffffffffffffffffffffffffffffffffffff16021790555081600c5f6101000a81548173ffffffffffffffffffffffffffffffffffffffff021916908373ffffffffffffffffffffffffffffffffffffffff16021790555080600d81905550426008819055505050505050610251565b5f5ffd5b5f73ffffffffffffffffffffffffffffffffffffffff82169050919050565b5f6101768261014d565b9050919050565b6101868161016c565b8114610190575f5ffd5b50565b5f815190506101a18161017d565b92915050565b5f819050919050565b6101b9816101a7565b81146101c3575f5ffd5b50565b5f815190506101d4816101b0565b92915050565b5f5f5f5f5f60a086880312156101f3576101f2610149565b5b5f61020088828901610193565b955050602061021188828901610193565b945050604061022288828901610193565b935050606061023388828901610193565b9250506080610244888289016101c6565b9150509295509295909350565b6123528061025e5f395ff3fe608060405234801561000f575f5ffd5b50600436106101cd575f3560e01c806376f8996511610102578063ba7bde55116100a0578063f69f1e4a1161006f578063f69f1e4a14610524578063f79c380014610554578063f7e0ebf614610584578063f9ec9f28146105b4576101cd565b8063ba7bde55146104b0578063c45a0155146104ce578063d2a8607b146104ec578063e2a9f68014610508576101cd565b80639d058e67116100dc5780639d058e6714610437578063a59a99731461046a578063a6afed9514610488578063b2016bd414610492576101cd565b806376f89965146103e157806387105903146103fd57806394877fc414610419576101cd565b80634499ab621161016f5780634fd422df116101495780634fd422df14610345578063651e32961461037557806368fc0c9a146103935780636fb49d73146103c3576101cd565b80634499ab62146102eb578063456dc17a146103095780634a417a5314610327576101cd565b8063136cf1f7116101ab578063136cf1f71461024d5780631aad44c21461026b57806323aaf0bd1461028957806335fce80e146102b9576101cd565b80630af504cc146101d1578063113aa8b11461020157806311d9dbd31461021d575b5f5ffd5b6101eb60048036038101906101e69190611ea2565b6105d2565b6040516101f89190611eef565b60405180910390f35b61021b60048036038101906102169190611f08565b610915565b005b61023760048036038101906102329190611ea2565b610960565b6040516102449190611eef565b60405180910390f35b610255610a5a565b6040516102629190611eef565b60405180910390f35b610273610a60565b6040516102809190611eef565b60405180910390f35b6102a3600480360381019061029e9190611f08565b610a66565b6040516102b09190611eef565b60405180910390f35b6102d360048036038101906102ce9190611ea2565b610a7b565b6040516102e293929190611f33565b60405180910390f35b6102f3610dd2565b6040516103009190611eef565b60405180910390f35b610311610e4f565b60405161031e9190611f77565b60405180910390f35b61032f610e74565b60405161033c9190611eef565b60405180910390f35b61035f600480360381019061035a9190611f08565b610ea7565b60405161036c9190611eef565b60405180910390f35b61037d610ebc565b60405161038a9190611eef565b60405180910390f35b6103ad60048036038101906103a89190611ea2565b610f9b565b6040516103ba9190611eef565b60405180910390f35b6103cb611135565b6040516103d89190611eef565b60405180910390f35b6103fb60048036038101906103f69190611f90565b61113b565b005b61041760048036038101906104129190611f90565b611459565b005b610421611607565b60405161042e9190611eef565b60405180910390f35b610451600480360381019061044c9190611ea2565b61160c565b6040516104619493929190611fce565b60405180910390f35b6104726117c0565b60405161047f9190611f77565b60405180910390f35b6104906117e5565b005b61049a6118ad565b6040516104a79190611f77565b60405180910390f35b6104b86118d2565b6040516104c59190611eef565b60405180910390f35b6104d66118d8565b6040516104e39190611f77565b60405180910390f35b61050660048036038101906105019190611f90565b6118fd565b005b610522600480360381019061051d9190611f08565b61195c565b005b61053e60048036038101906105399190611f08565b611a2e565b60405161054b9190611eef565b60405180910390f35b61056e60048036038101906105699190611f08565b611a43565b60405161057b9190611f77565b60405180910390f35b61059e60048036038101906105999190611f08565b611a73565b6040516105ab9190611f77565b60405180910390f35b6105bc611c67565b6040516105c99190611eef565b60405180910390f35b5f6105db611c6d565b8260065f8473ffffffffffffffffffffffffffffffffffffffff1673ffffffffffffffffffffffffffffffffffffffff1681526020019081526020015f20541015610652576040517f3a23d82500000000000000000000000000000000000000000000000000000000815260040160405180910390fd5b8260065f8473ffffffffffffffffffffffffffffffffffffffff1673ffffffffffffffffffffffffffffffffffffffff1681526020019081526020015f205f82825461069e919061203e565b925050819055505f60055f8473ffffffffffffffffffffffffffffffffffffffff1673ffffffffffffffffffffffffffffffffffffffff1681526020019081526020015f205411156108cf575f600a5f9054906101000a900473ffffffffffffffffffffffffffffffffffffffff1673ffffffffffffffffffffffffffffffffffffffff1663e40208046040518163ffffffff1660e01b8152600401602060405180830381865afa158015610755573d5f5f3e3d5ffd5b505050506040513d601f19601f820116820180604052508101906107799190612085565b90508073ffffffffffffffffffffffffffffffffffffffff16632e68f18e600c5f9054906101000a900473ffffffffffffffffffffffffffffffffffffffff16600a5f9054906101000a900473ffffffffffffffffffffffffffffffffffffffff1660075f8873ffffffffffffffffffffffffffffffffffffffff1673ffffffffffffffffffffffffffffffffffffffff1681526020019081526020015f205f9054906101000a900473ffffffffffffffffffffffffffffffffffffffff16600d5460025460035460055f8c73ffffffffffffffffffffffffffffffffffffffff1673ffffffffffffffffffffffffffffffffffffffff1681526020019081526020015f20546040518863ffffffff1660e01b81526004016108a197969594939291906120b0565b5f6040518083038186803b1580156108b7575f5ffd5b505afa1580156108c9573d5f5f3e3d5ffd5b50505050505b60065f8373ffffffffffffffffffffffffffffffffffffffff1673ffffffffffffffffffffffffffffffffffffffff1681526020019081526020015f2054905092915050565b61091d611cf5565b8060095f6101000a81548173ffffffffffffffffffffffffffffffffffffffff021916908373ffffffffffffffffffffffffffffffffffffffff16021790555050565b5f610969611c6d565b5f83036109a2576040517f1f2a200500000000000000000000000000000000000000000000000000000000815260040160405180910390fd5b5f90505f5f54036109b5578290506109d2565b5f54600154846109c5919061211d565b6109cf919061218b565b90505b8060045f8473ffffffffffffffffffffffffffffffffffffffff1673ffffffffffffffffffffffffffffffffffffffff1681526020019081526020015f205f828254610a1e91906121bb565b925050819055508060015f828254610a3691906121bb565b92505081905550825f5f828254610a4d91906121bb565b9250508190555092915050565b60035481565b60025481565b6004602052805f5260405f205f915090505481565b5f5f5f610a86611c6d565b5f8503610abf576040517f1f2a200500000000000000000000000000000000000000000000000000000000815260040160405180910390fd5b5f90505f60035403610ad357849050610af1565b60025460035486610ae4919061211d565b610aee919061218b565b90505b8060055f8673ffffffffffffffffffffffffffffffffffffffff1673ffffffffffffffffffffffffffffffffffffffff1681526020019081526020015f205f828254610b3d91906121bb565b925050819055508060035f828254610b5591906121bb565b925050819055508460025f828254610b6d91906121bb565b92505081905550670de0b6b3a764000066038d7ea4c6800086610b90919061211d565b610b9a919061218b565b92508285610ba8919061203e565b91505f546002541115610be7576040517fbb55fd2700000000000000000000000000000000000000000000000000000000815260040160405180910390fd5b5f600a5f9054906101000a900473ffffffffffffffffffffffffffffffffffffffff1673ffffffffffffffffffffffffffffffffffffffff1663e40208046040518163ffffffff1660e01b8152600401602060405180830381865afa158015610c52573d5f5f3e3d5ffd5b505050506040513d601f19601f82011682018060405250810190610c769190612085565b90508073ffffffffffffffffffffffffffffffffffffffff16632e68f18e600c5f9054906101000a900473ffffffffffffffffffffffffffffffffffffffff16600a5f9054906101000a900473ffffffffffffffffffffffffffffffffffffffff1660075f8a73ffffffffffffffffffffffffffffffffffffffff1673ffffffffffffffffffffffffffffffffffffffff1681526020019081526020015f205f9054906101000a900473ffffffffffffffffffffffffffffffffffffffff16600d5460025460035460055f8e73ffffffffffffffffffffffffffffffffffffffff1673ffffffffffffffffffffffffffffffffffffffff1681526020019081526020015f20546040518863ffffffff1660e01b8152600401610d9e97969594939291906120b0565b5f6040518083038186803b158015610db4575f5ffd5b505afa158015610dc6573d5f5f3e3d5ffd5b50505050509250925092565b5f5f5f5403610de3575f9050610e4c565b5f610dec610ebc565b90505f5f54612710600254610e01919061211d565b610e0b919061218b565b90505f6103e890506305f5e10081612710610e26919061203e565b8385610e32919061211d565b610e3c919061211d565b610e46919061218b565b93505050505b90565b600c5f9054906101000a900473ffffffffffffffffffffffffffffffffffffffff1681565b5f5f5f5403610e85575f9050610ea4565b5f54612710600254610e97919061211d565b610ea1919061218b565b90505b90565b6005602052805f5260405f205f915090505481565b5f5f5f5403610ecf576101f49050610f98565b5f5f54612710600254610ee2919061211d565b610eec919061218b565b90505f60c890505f611f4090505f6103e890505f6113889050828511610f4057828483610f19919061203e565b86610f24919061211d565b610f2e919061218b565b84610f3991906121bb565b9550610f92565b5f8386610f4d919061203e565b90505f84612710610f5e919061203e565b9050808484610f6d919061203e565b83610f78919061211d565b610f82919061218b565b84610f8d91906121bb565b975050505b50505050505b90565b5f610fa4611c6d565b5f8303610fdd576040517f1f2a200500000000000000000000000000000000000000000000000000000000815260040160405180910390fd5b60045f8373ffffffffffffffffffffffffffffffffffffffff1673ffffffffffffffffffffffffffffffffffffffff1681526020019081526020015f2054831115611054576040517f3999656700000000000000000000000000000000000000000000000000000000815260040160405180910390fd5b6001545f5484611064919061211d565b61106e919061218b565b90508260045f8473ffffffffffffffffffffffffffffffffffffffff1673ffffffffffffffffffffffffffffffffffffffff1681526020019081526020015f205f8282546110bc919061203e565b925050819055508260015f8282546110d4919061203e565b92505081905550805f5f8282546110eb919061203e565b925050819055506002545f54101561112f576040517fbb55fd2700000000000000000000000000000000000000000000000000000000815260040160405180910390fd5b92915050565b600d5481565b5f600a5f9054906101000a900473ffffffffffffffffffffffffffffffffffffffff1673ffffffffffffffffffffffffffffffffffffffff1663e40208046040518163ffffffff1660e01b8152600401602060405180830381865afa1580156111a6573d5f5f3e3d5ffd5b505050506040513d601f19601f820116820180604052508101906111ca9190612085565b90508073ffffffffffffffffffffffffffffffffffffffff163373ffffffffffffffffffffffffffffffffffffffff161461123a576040517f08c379a000000000000000000000000000000000000000000000000000000000815260040161123190612248565b60405180910390fd5b5f5f90505f60025411801561125057505f600354115b156112fd5760025460035484611266919061211d565b611270919061218b565b905060055f8573ffffffffffffffffffffffffffffffffffffffff1673ffffffffffffffffffffffffffffffffffffffff1681526020019081526020015f20548111156112f85760055f8573ffffffffffffffffffffffffffffffffffffffff1673ffffffffffffffffffffffffffffffffffffffff1681526020019081526020015f205490505b61133e565b60055f8573ffffffffffffffffffffffffffffffffffffffff1673ffffffffffffffffffffffffffffffffffffffff1681526020019081526020015f205490505b8060055f8673ffffffffffffffffffffffffffffffffffffffff1673ffffffffffffffffffffffffffffffffffffffff1681526020019081526020015f205f82825461138a919061203e565b925050819055508060035f8282546113a2919061203e565b925050819055508260025f8282546113ba919061203e565b925050819055505f60065f8673ffffffffffffffffffffffffffffffffffffffff1673ffffffffffffffffffffffffffffffffffffffff1681526020019081526020015f20819055508373ffffffffffffffffffffffffffffffffffffffff167fb599f4177300bc574d09b859cefe5e758c124ec3c83a343159535a85b0abc3ba828560405161144b929190612266565b60405180910390a250505050565b60075f8373ffffffffffffffffffffffffffffffffffffffff1673ffffffffffffffffffffffffffffffffffffffff1681526020019081526020015f205f9054906101000a900473ffffffffffffffffffffffffffffffffffffffff1673ffffffffffffffffffffffffffffffffffffffff163373ffffffffffffffffffffffffffffffffffffffff1614611523576040517f08c379a000000000000000000000000000000000000000000000000000000000815260040161151a906122d7565b60405180910390fd5b60065f8373ffffffffffffffffffffffffffffffffffffffff1673ffffffffffffffffffffffffffffffffffffffff1681526020019081526020015f20548111156115af575f60065f8473ffffffffffffffffffffffffffffffffffffffff1673ffffffffffffffffffffffffffffffffffffffff1681526020019081526020015f2081905550611603565b8060065f8473ffffffffffffffffffffffffffffffffffffffff1673ffffffffffffffffffffffffffffffffffffffff1681526020019081526020015f205f8282546115fb919061203e565b925050819055505b5050565b5f5481565b5f5f5f5f611618611c6d565b5f8603611651576040517f1f2a200500000000000000000000000000000000000000000000000000000000815260040160405180910390fd5b60055f8673ffffffffffffffffffffffffffffffffffffffff1673ffffffffffffffffffffffffffffffffffffffff1681526020019081526020015f20548611156116c8576040517f3999656700000000000000000000000000000000000000000000000000000000815260040160405180910390fd5b5f600354600254886116da919061211d565b6116e4919061218b565b90508660055f8873ffffffffffffffffffffffffffffffffffffffff1673ffffffffffffffffffffffffffffffffffffffff1681526020019081526020015f205f828254611732919061203e565b925050819055508660035f82825461174a919061203e565b925050819055508060025f828254611762919061203e565b925050819055508060055f8873ffffffffffffffffffffffffffffffffffffffff1673ffffffffffffffffffffffffffffffffffffffff1681526020019081526020015f205460035460025494509450945094505092959194509250565b60095f9054906101000a900473ffffffffffffffffffffffffffffffffffffffff1681565b5f6117ee610ebc565b90505f61271082600254611802919061211d565b61180c919061218b565b90505f6008544261181d919061203e565b90505f6301e133808284611831919061211d565b61183b919061218b565b90505f6103e890505f6127108284611853919061211d565b61185d919061218b565b90505f818461186c919061203e565b9050805f5f82825461187e91906121bb565b925050819055508360025f82825461189691906121bb565b925050819055504260088190555050505050505050565b600b5f9054906101000a900473ffffffffffffffffffffffffffffffffffffffff1681565b60015481565b600a5f9054906101000a900473ffffffffffffffffffffffffffffffffffffffff1681565b611905611c6d565b8060065f8473ffffffffffffffffffffffffffffffffffffffff1673ffffffffffffffffffffffffffffffffffffffff1681526020019081526020015f205f82825461195191906121bb565b925050819055505050565b611964611cf5565b5f60055f8373ffffffffffffffffffffffffffffffffffffffff1673ffffffffffffffffffffffffffffffffffffffff1681526020019081526020015f20819055505f60065f8373ffffffffffffffffffffffffffffffffffffffff1673ffffffffffffffffffffffffffffffffffffffff1681526020019081526020015f20819055508073ffffffffffffffffffffffffffffffffffffffff167f868a2af0891fff97b5dab17bb965f90ae388377f913245ef50035d088460bb6e60405160405180910390a250565b6006602052805f5260405f205f915090505481565b6007602052805f5260405f205f915054906101000a900473ffffffffffffffffffffffffffffffffffffffff1681565b5f611a7c611c6d565b5f73ffffffffffffffffffffffffffffffffffffffff1660075f8473ffffffffffffffffffffffffffffffffffffffff1673ffffffffffffffffffffffffffffffffffffffff1681526020019081526020015f205f9054906101000a900473ffffffffffffffffffffffffffffffffffffffff1673ffffffffffffffffffffffffffffffffffffffff1614611b3d576040517f0f04799c00000000000000000000000000000000000000000000000000000000815260040160405180910390fd5b5f611b46611d7d565b73ffffffffffffffffffffffffffffffffffffffff16632391216b60095f9054906101000a900473ffffffffffffffffffffffffffffffffffffffff16856040518363ffffffff1660e01b8152600401611ba19291906122f5565b6020604051808303815f875af1158015611bbd573d5f5f3e3d5ffd5b505050506040513d601f19601f82011682018060405250810190611be19190612085565b90508060075f8573ffffffffffffffffffffffffffffffffffffffff1673ffffffffffffffffffffffffffffffffffffffff1681526020019081526020015f205f6101000a81548173ffffffffffffffffffffffffffffffffffffffff021916908373ffffffffffffffffffffffffffffffffffffffff16021790555080915050919050565b60085481565b60095f9054906101000a900473ffffffffffffffffffffffffffffffffffffffff1673ffffffffffffffffffffffffffffffffffffffff163373ffffffffffffffffffffffffffffffffffffffff1614611cf3576040517fdeefa58900000000000000000000000000000000000000000000000000000000815260040160405180910390fd5b565b600a5f9054906101000a900473ffffffffffffffffffffffffffffffffffffffff1673ffffffffffffffffffffffffffffffffffffffff163373ffffffffffffffffffffffffffffffffffffffff1614611d7b576040517f32cc723600000000000000000000000000000000000000000000000000000000815260040160405180910390fd5b565b5f600a5f9054906101000a900473ffffffffffffffffffffffffffffffffffffffff1673ffffffffffffffffffffffffffffffffffffffff1663bd3b54716040518163ffffffff1660e01b8152600401602060405180830381865afa158015611de8573d5f5f3e3d5ffd5b505050506040513d601f19601f82011682018060405250810190611e0c9190612085565b905090565b5f5ffd5b5f819050919050565b611e2781611e15565b8114611e31575f5ffd5b50565b5f81359050611e4281611e1e565b92915050565b5f73ffffffffffffffffffffffffffffffffffffffff82169050919050565b5f611e7182611e48565b9050919050565b611e8181611e67565b8114611e8b575f5ffd5b50565b5f81359050611e9c81611e78565b92915050565b5f5f60408385031215611eb857611eb7611e11565b5b5f611ec585828601611e34565b9250506020611ed685828601611e8e565b9150509250929050565b611ee981611e15565b82525050565b5f602082019050611f025f830184611ee0565b92915050565b5f60208284031215611f1d57611f1c611e11565b5b5f611f2a84828501611e8e565b91505092915050565b5f606082019050611f465f830186611ee0565b611f536020830185611ee0565b611f606040830184611ee0565b949350505050565b611f7181611e67565b82525050565b5f602082019050611f8a5f830184611f68565b92915050565b5f5f60408385031215611fa657611fa5611e11565b5b5f611fb385828601611e8e565b9250506020611fc485828601611e34565b9150509250929050565b5f608082019050611fe15f830187611ee0565b611fee6020830186611ee0565b611ffb6040830185611ee0565b6120086060830184611ee0565b95945050505050565b7f4e487b71000000000000000000000000000000000000000000000000000000005f52601160045260245ffd5b5f61204882611e15565b915061205383611e15565b925082820390508181111561206b5761206a612011565b5b92915050565b5f8151905061207f81611e78565b92915050565b5f6020828403121561209a57612099611e11565b5b5f6120a784828501612071565b91505092915050565b5f60e0820190506120c35f83018a611f68565b6120d06020830189611f68565b6120dd6040830188611f68565b6120ea6060830187611ee0565b6120f76080830186611ee0565b61210460a0830185611ee0565b61211160c0830184611ee0565b98975050505050505050565b5f61212782611e15565b915061213283611e15565b925082820261214081611e15565b9150828204841483151761215757612156612011565b5b5092915050565b7f4e487b71000000000000000000000000000000000000000000000000000000005f52601260045260245ffd5b5f61219582611e15565b91506121a083611e15565b9250826121b0576121af61215e565b5b828204905092915050565b5f6121c582611e15565b91506121d083611e15565b92508282019050808211156121e8576121e7612011565b5b92915050565b5f82825260208201905092915050565b7f4e6f7420617574686f72697a65640000000000000000000000000000000000005f82015250565b5f612232600e836121ee565b915061223d826121fe565b602082019050919050565b5f6020820190508181035f83015261225f81612226565b9050919050565b5f6040820190506122795f830185611ee0565b6122866020830184611ee0565b9392505050565b7f4e6f742075736572277320706f736974696f6e000000000000000000000000005f82015250565b5f6122c16013836121ee565b91506122cc8261228d565b602082019050919050565b5f6020820190508181035f8301526122ee816122b5565b9050919050565b5f6040820190506123085f830185611f68565b6123156020830184611f68565b939250505056fea264697066735822122072b2ae5be2408c2982398918ccd68021dee81528a8d1b8d645be04aa8e4125c164736f6c634300081c0033416464726573733a206c6f772d6c6576656c2064656c65676174652063616c6c206661696c6564a264697066735822122060786c8be762aa55f3a131560d0d25d84dfaf965646408419bab61ca96b5f10f64736f6c634300081c0033","linkReferences":{}},"methodIdentifiers":{"DEFAULT_ADMIN_ROLE()":"a217fddf","OWNER_ROLE()":"e58378bb","PAUSER_ROLE()":"e63ab1e9","UPGRADER_ROLE()":"f72c0d8b","WKAIA()":"145d51d8","addTokenDataStream(address,address)":"e18487ca","createLendingPool(address,address,uint256)":"802de844","getRoleAdmin(bytes32)":"248a9ca3","grantRole(bytes32,address)":"2f2ff15d","hasRole(bytes32,address)":"91d14854","initialize(address,address,address,address)":"f8c8765e","isHealthy()":"e4020804","lendingPoolDeployer()":"42e681d8","oftAddress(address)":"efe1b2cd","operator(address)":"9a307391","pause()":"8456cb59","paused()":"5c975abb","poolCount()":"f525cb68","pools(uint256)":"ac4afa38","positionDeployer()":"bd3b5471","protocol()":"8ce74426","proxiableUUID()":"52d1902d","renounceRole(bytes32,address)":"36568abe","revokeRole(bytes32,address)":"d547741f","setIsHealthy(address)":"59917d7d","setLendingPoolDeployer(address)":"00546b2a","setOftAddress(address,address)":"f09a0d6b","setOperator(address,bool)":"558a7297","setPositionDeployer(address)":"f8446dcd","setProtocol(address)":"0a9d793d","supportsInterface(bytes4)":"01ffc9a7","tokenDataStream(address)":"1d43335a","unpause()":"3f4ba83a","upgradeTo(address)":"3659cfe6","upgradeToAndCall(address,bytes)":"4f1ef286"},"id":130}