{"abi":[{"type":"constructor","inputs":[],"stateMutability":"nonpayable"},{"type":"function","name":"DEFAULT_ADMIN_ROLE","inputs":[],"outputs":[{"name":"","type":"bytes32","internalType":"bytes32"}],"stateMutability":"view"},{"type":"function","name":"OWNER_ROLE","inputs":[],"outputs":[{"name":"","type":"bytes32","internalType":"bytes32"}],"stateMutability":"view"},{"type":"function","name":"PAUSER_ROLE","inputs":[],"outputs":[{"name":"","type":"bytes32","internalType":"bytes32"}],"stateMutability":"view"},{"type":"function","name":"UPGRADER_ROLE","inputs":[],"outputs":[{"name":"","type":"bytes32","internalType":"bytes32"}],"stateMutability":"view"},{"type":"function","name":"VERSION","inputs":[],"outputs":[{"name":"","type":"uint8","internalType":"uint8"}],"stateMutability":"view"},{"type":"function","name":"WKAIA","inputs":[],"outputs":[{"name":"","type":"address","internalType":"address"}],"stateMutability":"view"},{"type":"function","name":"addTokenDataStream","inputs":[{"name":"_token","type":"address","internalType":"address"},{"name":"_dataStream","type":"address","internalType":"address"}],"outputs":[],"stateMutability":"nonpayable"},{"type":"function","name":"createLendingPool","inputs":[{"name":"collateralToken","type":"address","internalType":"address"},{"name":"borrowToken","type":"address","internalType":"address"},{"name":"ltv","type":"uint256","internalType":"uint256"}],"outputs":[{"name":"","type":"address","internalType":"address"}],"stateMutability":"nonpayable"},{"type":"function","name":"getRoleAdmin","inputs":[{"name":"role","type":"bytes32","internalType":"bytes32"}],"outputs":[{"name":"","type":"bytes32","internalType":"bytes32"}],"stateMutability":"view"},{"type":"function","name":"grantRole","inputs":[{"name":"role","type":"bytes32","internalType":"bytes32"},{"name":"account","type":"address","internalType":"address"}],"outputs":[],"stateMutability":"nonpayable"},{"type":"function","name":"hasRole","inputs":[{"name":"role","type":"bytes32","internalType":"bytes32"},{"name":"account","type":"address","internalType":"address"}],"outputs":[{"name":"","type":"bool","internalType":"bool"}],"stateMutability":"view"},{"type":"function","name":"initialize","inputs":[{"name":"_isHealthy","type":"address","internalType":"address"},{"name":"_lendingPoolRouterDeployer","type":"address","internalType":"address"},{"name":"_lendingPoolDeployer","type":"address","internalType":"address"},{"name":"_protocol","type":"address","internalType":"address"},{"name":"_positionDeployer","type":"address","internalType":"address"}],"outputs":[],"stateMutability":"nonpayable"},{"type":"function","name":"isHealthy","inputs":[],"outputs":[{"name":"","type":"address","internalType":"address"}],"stateMutability":"view"},{"type":"function","name":"lendingPoolDeployer","inputs":[],"outputs":[{"name":"","type":"address","internalType":"address"}],"stateMutability":"view"},{"type":"function","name":"lendingPoolRouterDeployer","inputs":[],"outputs":[{"name":"","type":"address","internalType":"address"}],"stateMutability":"view"},{"type":"function","name":"oftAddress","inputs":[{"name":"","type":"address","internalType":"address"}],"outputs":[{"name":"","type":"address","internalType":"address"}],"stateMutability":"view"},{"type":"function","name":"operator","inputs":[{"name":"","type":"address","internalType":"address"}],"outputs":[{"name":"","type":"bool","internalType":"bool"}],"stateMutability":"view"},{"type":"function","name":"pause","inputs":[],"outputs":[],"stateMutability":"nonpayable"},{"type":"function","name":"paused","inputs":[],"outputs":[{"name":"","type":"bool","internalType":"bool"}],"stateMutability":"view"},{"type":"function","name":"poolCount","inputs":[],"outputs":[{"name":"","type":"uint256","internalType":"uint256"}],"stateMutability":"view"},{"type":"function","name":"pools","inputs":[{"name":"","type":"uint256","internalType":"uint256"}],"outputs":[{"name":"collateralToken","type":"address","internalType":"address"},{"name":"borrowToken","type":"address","internalType":"address"},{"name":"lendingPoolAddress","type":"address","internalType":"address"}],"stateMutability":"view"},{"type":"function","name":"positionDeployer","inputs":[],"outputs":[{"name":"","type":"address","internalType":"address"}],"stateMutability":"view"},{"type":"function","name":"protocol","inputs":[],"outputs":[{"name":"","type":"address","internalType":"address"}],"stateMutability":"view"},{"type":"function","name":"proxiableUUID","inputs":[],"outputs":[{"name":"","type":"bytes32","internalType":"bytes32"}],"stateMutability":"view"},{"type":"function","name":"renounceRole","inputs":[{"name":"role","type":"bytes32","internalType":"bytes32"},{"name":"account","type":"address","internalType":"address"}],"outputs":[],"stateMutability":"nonpayable"},{"type":"function","name":"revokeRole","inputs":[{"name":"role","type":"bytes32","internalType":"bytes32"},{"name":"account","type":"address","internalType":"address"}],"outputs":[],"stateMutability":"nonpayable"},{"type":"function","name":"setIsHealthy","inputs":[{"name":"_isHealthy","type":"address","internalType":"address"}],"outputs":[],"stateMutability":"nonpayable"},{"type":"function","name":"setLendingPoolDeployer","inputs":[{"name":"_lendingPoolDeployer","type":"address","internalType":"address"}],"outputs":[],"stateMutability":"nonpayable"},{"type":"function","name":"setLendingPoolRouterDeployer","inputs":[{"name":"_lendingPoolRouterDeployer","type":"address","internalType":"address"}],"outputs":[],"stateMutability":"nonpayable"},{"type":"function","name":"setOftAddress","inputs":[{"name":"_token","type":"address","internalType":"address"},{"name":"_oftAddress","type":"address","internalType":"address"}],"outputs":[],"stateMutability":"nonpayable"},{"type":"function","name":"setOperator","inputs":[{"name":"_operator","type":"address","internalType":"address"},{"name":"_status","type":"bool","internalType":"bool"}],"outputs":[],"stateMutability":"nonpayable"},{"type":"function","name":"setPositionDeployer","inputs":[{"name":"_positionDeployer","type":"address","internalType":"address"}],"outputs":[],"stateMutability":"nonpayable"},{"type":"function","name":"setProtocol","inputs":[{"name":"_protocol","type":"address","internalType":"address"}],"outputs":[],"stateMutability":"nonpayable"},{"type":"function","name":"supportsInterface","inputs":[{"name":"interfaceId","type":"bytes4","internalType":"bytes4"}],"outputs":[{"name":"","type":"bool","internalType":"bool"}],"stateMutability":"view"},{"type":"function","name":"tokenDataStream","inputs":[{"name":"","type":"address","internalType":"address"}],"outputs":[{"name":"","type":"address","internalType":"address"}],"stateMutability":"view"},{"type":"function","name":"unpause","inputs":[],"outputs":[],"stateMutability":"nonpayable"},{"type":"function","name":"upgradeTo","inputs":[{"name":"newImplementation","type":"address","internalType":"address"}],"outputs":[],"stateMutability":"nonpayable"},{"type":"function","name":"upgradeToAndCall","inputs":[{"name":"newImplementation","type":"address","internalType":"address"},{"name":"data","type":"bytes","internalType":"bytes"}],"outputs":[],"stateMutability":"payable"},{"type":"event","name":"AdminChanged","inputs":[{"name":"previousAdmin","type":"address","indexed":false,"internalType":"address"},{"name":"newAdmin","type":"address","indexed":false,"internalType":"address"}],"anonymous":false},{"type":"event","name":"BeaconUpgraded","inputs":[{"name":"beacon","type":"address","indexed":true,"internalType":"address"}],"anonymous":false},{"type":"event","name":"Initialized","inputs":[{"name":"version","type":"uint8","indexed":false,"internalType":"uint8"}],"anonymous":false},{"type":"event","name":"IsHealthySet","inputs":[{"name":"isHealthy","type":"address","indexed":true,"internalType":"address"}],"anonymous":false},{"type":"event","name":"LendingPoolCreated","inputs":[{"name":"collateralToken","type":"address","indexed":true,"internalType":"address"},{"name":"borrowToken","type":"address","indexed":true,"internalType":"address"},{"name":"lendingPool","type":"address","indexed":true,"internalType":"address"},{"name":"ltv","type":"uint256","indexed":false,"internalType":"uint256"}],"anonymous":false},{"type":"event","name":"LendingPoolDeployerSet","inputs":[{"name":"lendingPoolDeployer","type":"address","indexed":true,"internalType":"address"}],"anonymous":false},{"type":"event","name":"LendingPoolRouterDeployerSet","inputs":[{"name":"lendingPoolRouterDeployer","type":"address","indexed":true,"internalType":"address"}],"anonymous":false},{"type":"event","name":"OftAddressSet","inputs":[{"name":"token","type":"address","indexed":true,"internalType":"address"},{"name":"oftAddress","type":"address","indexed":true,"internalType":"address"}],"anonymous":false},{"type":"event","name":"OperatorSet","inputs":[{"name":"operator","type":"address","indexed":true,"internalType":"address"},{"name":"status","type":"bool","indexed":false,"internalType":"bool"}],"anonymous":false},{"type":"event","name":"Paused","inputs":[{"name":"account","type":"address","indexed":false,"internalType":"address"}],"anonymous":false},{"type":"event","name":"PositionDeployerSet","inputs":[{"name":"positionDeployer","type":"address","indexed":true,"internalType":"address"}],"anonymous":false},{"type":"event","name":"ProtocolSet","inputs":[{"name":"protocol","type":"address","indexed":true,"internalType":"address"}],"anonymous":false},{"type":"event","name":"RoleAdminChanged","inputs":[{"name":"role","type":"bytes32","indexed":true,"internalType":"bytes32"},{"name":"previousAdminRole","type":"bytes32","indexed":true,"internalType":"bytes32"},{"name":"newAdminRole","type":"bytes32","indexed":true,"internalType":"bytes32"}],"anonymous":false},{"type":"event","name":"RoleGranted","inputs":[{"name":"role","type":"bytes32","indexed":true,"internalType":"bytes32"},{"name":"account","type":"address","indexed":true,"internalType":"address"},{"name":"sender","type":"address","indexed":true,"internalType":"address"}],"anonymous":false},{"type":"event","name":"RoleRevoked","inputs":[{"name":"role","type":"bytes32","indexed":true,"internalType":"bytes32"},{"name":"account","type":"address","indexed":true,"internalType":"address"},{"name":"sender","type":"address","indexed":true,"internalType":"address"}],"anonymous":false},{"type":"event","name":"TokenDataStreamAdded","inputs":[{"name":"token","type":"address","indexed":true,"internalType":"address"},{"name":"dataStream","type":"address","indexed":true,"internalType":"address"}],"anonymous":false},{"type":"event","name":"Unpaused","inputs":[{"name":"account","type":"address","indexed":false,"internalType":"address"}],"anonymous":false},{"type":"event","name":"Upgraded","inputs":[{"name":"implementation","type":"address","indexed":true,"internalType":"address"}],"anonymous":false}],"bytecode":{"object":"0x60a06040523073ffffffffffffffffffffffffffffffffffffffff1660809073ffffffffffffffffffffffffffffffffffffffff16815250348015610042575f5ffd5b5061005161005660201b60201c565b6101e6565b5f60019054906101000a900460ff16156100a5576040517f08c379a000000000000000000000000000000000000000000000000000000000815260040161009c90610194565b60405180910390fd5b60ff80165f5f9054906101000a900460ff1660ff16146101125760ff5f5f6101000a81548160ff021916908360ff1602179055507f7f26b83ff96e1f2b6a682f133852f6798a09c465da95921460cefb384740249860ff60405161010991906101cd565b60405180910390a15b565b5f82825260208201905092915050565b7f496e697469616c697a61626c653a20636f6e747261637420697320696e6974695f8201527f616c697a696e6700000000000000000000000000000000000000000000000000602082015250565b5f61017e602783610114565b915061018982610124565b604082019050919050565b5f6020820190508181035f8301526101ab81610172565b9050919050565b5f60ff82169050919050565b6101c7816101b2565b82525050565b5f6020820190506101e05f8301846101be565b92915050565b608051613bcb61021a5f395f8181610eac01528181610f3a0152818161108d0152818161111b01526111ca0152613bcb5ff3fe608060405260043610610223575f3560e01c80638ce7442611610122578063e4020804116100aa578063f09a0d6b1161006e578063f09a0d6b146107d7578063f525cb68146107ff578063f72c0d8b14610829578063f8446dcd14610853578063ffa1ad741461087b57610223565b8063e4020804146106f3578063e58378bb1461071d578063e63ab1e914610747578063e949f3c914610771578063efe1b2cd1461079b57610223565b8063a217fddf116100f1578063a217fddf14610611578063ac4afa381461063b578063bd3b547114610679578063d547741f146106a3578063e18487ca146106cb57610223565b80638ce74426146105475780638dc15a661461057157806391d14854146105995780639a307391146105d557610223565b80633659cfe6116101b0578063558a729711610174578063558a72971461047b57806359917d7d146104a35780635c975abb146104cb578063802de844146104f55780638456cb591461053157610223565b80633659cfe6146103cd5780633f4ba83a146103f557806342e681d81461040b5780634f1ef2861461043557806352d1902d1461045157610223565b8063145d51d8116101f7578063145d51d8146102db5780631d43335a14610305578063248a9ca3146103415780632f2ff15d1461037d57806336568abe146103a557610223565b8062546b2a1461022757806301ffc9a71461024f5780630a9d793d1461028b5780631459457a146102b3575b5f5ffd5b348015610232575f5ffd5b5061024d60048036038101906102489190612adb565b6108a5565b005b34801561025a575f5ffd5b5061027560048036038101906102709190612b5b565b610957565b6040516102829190612ba0565b60405180910390f35b348015610296575f5ffd5b506102b160048036038101906102ac9190612adb565b6109d0565b005b3480156102be575f5ffd5b506102d960048036038101906102d49190612bb9565b610a82565b005b3480156102e6575f5ffd5b506102ef610da0565b6040516102fc9190612c3f565b60405180910390f35b348015610310575f5ffd5b5061032b60048036038101906103269190612adb565b610db8565b6040516103389190612c3f565b60405180910390f35b34801561034c575f5ffd5b5061036760048036038101906103629190612c8b565b610de9565b6040516103749190612cc5565b60405180910390f35b348015610388575f5ffd5b506103a3600480360381019061039e9190612cde565b610e06565b005b3480156103b0575f5ffd5b506103cb60048036038101906103c69190612cde565b610e27565b005b3480156103d8575f5ffd5b506103f360048036038101906103ee9190612adb565b610eaa565b005b348015610400575f5ffd5b50610409611030565b005b348015610416575f5ffd5b5061041f611065565b60405161042c9190612c3f565b60405180910390f35b61044f600480360381019061044a9190612e58565b61108b565b005b34801561045c575f5ffd5b506104656111c7565b6040516104729190612cc5565b60405180910390f35b348015610486575f5ffd5b506104a1600480360381019061049c9190612edc565b61127e565b005b3480156104ae575f5ffd5b506104c960048036038101906104c49190612adb565b611350565b005b3480156104d6575f5ffd5b506104df611402565b6040516104ec9190612ba0565b60405180910390f35b348015610500575f5ffd5b5061051b60048036038101906105169190612f4d565b611417565b6040516105289190612c3f565b60405180910390f35b34801561053c575f5ffd5b506105456117b8565b005b348015610552575f5ffd5b5061055b6117ed565b6040516105689190612c3f565b60405180910390f35b34801561057c575f5ffd5b5061059760048036038101906105929190612adb565b611813565b005b3480156105a4575f5ffd5b506105bf60048036038101906105ba9190612cde565b6118c5565b6040516105cc9190612ba0565b60405180910390f35b3480156105e0575f5ffd5b506105fb60048036038101906105f69190612adb565b611929565b6040516106089190612ba0565b60405180910390f35b34801561061c575f5ffd5b50610625611947565b6040516106329190612cc5565b60405180910390f35b348015610646575f5ffd5b50610661600480360381019061065c9190612f9d565b61194d565b60405161067093929190612fc8565b60405180910390f35b348015610684575f5ffd5b5061068d6119e0565b60405161069a9190612c3f565b60405180910390f35b3480156106ae575f5ffd5b506106c960048036038101906106c49190612cde565b611a06565b005b3480156106d6575f5ffd5b506106f160048036038101906106ec9190612ffd565b611a27565b005b3480156106fe575f5ffd5b50610707611b2c565b6040516107149190612c3f565b60405180910390f35b348015610728575f5ffd5b50610731611b52565b60405161073e9190612cc5565b60405180910390f35b348015610752575f5ffd5b5061075b611b76565b6040516107689190612cc5565b60405180910390f35b34801561077c575f5ffd5b50610785611b9a565b6040516107929190612c3f565b60405180910390f35b3480156107a6575f5ffd5b506107c160048036038101906107bc9190612adb565b611bc0565b6040516107ce9190612c3f565b60405180910390f35b3480156107e2575f5ffd5b506107fd60048036038101906107f89190612ffd565b611bf1565b005b34801561080a575f5ffd5b50610813611cf6565b604051610820919061304a565b60405180910390f35b348015610834575f5ffd5b5061083d611cfd565b60405161084a9190612cc5565b60405180910390f35b34801561085e575f5ffd5b5061087960048036038101906108749190612adb565b611d21565b005b348015610886575f5ffd5b5061088f611dd3565b60405161089c919061307e565b60405180910390f35b7fb19546dff01e856fb3f010c267a7b1c60363cf8a4664e21cc89c26224620214e6108cf81611dd8565b8161012e5f6101000a81548173ffffffffffffffffffffffffffffffffffffffff021916908373ffffffffffffffffffffffffffffffffffffffff1602179055508173ffffffffffffffffffffffffffffffffffffffff167fb01c17406179a638da96eaa4686f4c1b6367270061946142c4a8ea461023d51760405160405180910390a25050565b5f7f7965db0b000000000000000000000000000000000000000000000000000000007bffffffffffffffffffffffffffffffffffffffffffffffffffffffff1916827bffffffffffffffffffffffffffffffffffffffffffffffffffffffff191614806109c957506109c882611dec565b5b9050919050565b7fb19546dff01e856fb3f010c267a7b1c60363cf8a4664e21cc89c26224620214e6109fa81611dd8565b8161012f5f6101000a81548173ffffffffffffffffffffffffffffffffffffffff021916908373ffffffffffffffffffffffffffffffffffffffff1602179055508173ffffffffffffffffffffffffffffffffffffffff167f9269d63ac6e0360a152db45a73e3e9e471a002419dff28abc7b58efaa211a2ba60405160405180910390a25050565b5f5f60019054906101000a900460ff16159050808015610ab2575060015f5f9054906101000a900460ff1660ff16105b80610adf5750610ac130611e55565b158015610ade575060015f5f9054906101000a900460ff1660ff16145b5b610b1e576040517f08c379a0000000000000000000000000000000000000000000000000000000008152600401610b1590613117565b60405180910390fd5b60015f5f6101000a81548160ff021916908360ff1602179055508015610b595760015f60016101000a81548160ff0219169083151502179055505b610b61611e77565b610b69611ecf565b610b71611f1f565b610b7d5f5f1b33611f6f565b610ba77f65d7a28e3265b37a6474929f336521b332c1681b933f6cb9f3376673440d862a33611f6f565b610bd17f189ab7a9244df0848122154315af71fe140f3db0fe014031783b0946b8c9d2e333611f6f565b610bfb7fb19546dff01e856fb3f010c267a7b1c60363cf8a4664e21cc89c26224620214e33611f6f565b8561012d5f6101000a81548173ffffffffffffffffffffffffffffffffffffffff021916908373ffffffffffffffffffffffffffffffffffffffff160217905550846101365f6101000a81548173ffffffffffffffffffffffffffffffffffffffff021916908373ffffffffffffffffffffffffffffffffffffffff1602179055508361012e5f6101000a81548173ffffffffffffffffffffffffffffffffffffffff021916908373ffffffffffffffffffffffffffffffffffffffff1602179055508261012f5f6101000a81548173ffffffffffffffffffffffffffffffffffffffff021916908373ffffffffffffffffffffffffffffffffffffffff160217905550816101305f6101000a81548173ffffffffffffffffffffffffffffffffffffffff021916908373ffffffffffffffffffffffffffffffffffffffff1602179055508015610d98575f5f60016101000a81548160ff0219169083151502179055507f7f26b83ff96e1f2b6a682f133852f6798a09c465da95921460cefb38474024986001604051610d8f9190613177565b60405180910390a15b505050505050565b7319aac5f612f524b754ca7e7c41cbfa2e981a443281565b610131602052805f5260405f205f915054906101000a900473ffffffffffffffffffffffffffffffffffffffff1681565b5f60fb5f8381526020019081526020015f20600101549050919050565b610e0f82610de9565b610e1881611dd8565b610e228383611f6f565b505050565b610e2f61204a565b73ffffffffffffffffffffffffffffffffffffffff168173ffffffffffffffffffffffffffffffffffffffff1614610e9c576040517f08c379a0000000000000000000000000000000000000000000000000000000008152600401610e9390613200565b60405180910390fd5b610ea68282612051565b5050565b7f000000000000000000000000000000000000000000000000000000000000000073ffffffffffffffffffffffffffffffffffffffff163073ffffffffffffffffffffffffffffffffffffffff1603610f38576040517f08c379a0000000000000000000000000000000000000000000000000000000008152600401610f2f9061328e565b60405180910390fd5b7f000000000000000000000000000000000000000000000000000000000000000073ffffffffffffffffffffffffffffffffffffffff16610f7761212c565b73ffffffffffffffffffffffffffffffffffffffff1614610fcd576040517f08c379a0000000000000000000000000000000000000000000000000000000008152600401610fc49061331c565b60405180910390fd5b610fd68161217f565b61102d815f67ffffffffffffffff811115610ff457610ff3612d34565b5b6040519080825280601f01601f1916602001820160405280156110265781602001600182028036833780820191505090505b505f6121ad565b50565b7f65d7a28e3265b37a6474929f336521b332c1681b933f6cb9f3376673440d862a61105a81611dd8565b611062612317565b50565b61012e5f9054906101000a900473ffffffffffffffffffffffffffffffffffffffff1681565b7f000000000000000000000000000000000000000000000000000000000000000073ffffffffffffffffffffffffffffffffffffffff163073ffffffffffffffffffffffffffffffffffffffff1603611119576040517f08c379a00000000000000000000000000000000000000000000000000000000081526004016111109061328e565b60405180910390fd5b7f000000000000000000000000000000000000000000000000000000000000000073ffffffffffffffffffffffffffffffffffffffff1661115861212c565b73ffffffffffffffffffffffffffffffffffffffff16146111ae576040517f08c379a00000000000000000000000000000000000000000000000000000000081526004016111a59061331c565b60405180910390fd5b6111b78261217f565b6111c3828260016121ad565b5050565b5f7f000000000000000000000000000000000000000000000000000000000000000073ffffffffffffffffffffffffffffffffffffffff163073ffffffffffffffffffffffffffffffffffffffff1614611256576040517f08c379a000000000000000000000000000000000000000000000000000000000815260040161124d906133aa565b60405180910390fd5b7f360894a13ba1a3210667c828492db98dca3e2076cc3735a920a3ca505d382bbc5f1b905090565b7fb19546dff01e856fb3f010c267a7b1c60363cf8a4664e21cc89c26224620214e6112a881611dd8565b816101325f8573ffffffffffffffffffffffffffffffffffffffff1673ffffffffffffffffffffffffffffffffffffffff1681526020019081526020015f205f6101000a81548160ff0219169083151502179055508273ffffffffffffffffffffffffffffffffffffffff167f1a594081ae893ab78e67d9b9e843547318164322d32c65369d78a96172d9dc8f836040516113439190612ba0565b60405180910390a2505050565b7fb19546dff01e856fb3f010c267a7b1c60363cf8a4664e21cc89c26224620214e61137a81611dd8565b8161012d5f6101000a81548173ffffffffffffffffffffffffffffffffffffffff021916908373ffffffffffffffffffffffffffffffffffffffff1602179055508173ffffffffffffffffffffffffffffffffffffffff167fdfccf581ae27a41845f39125ccb5ef00c0a079c5bf3bf751ecd2045e2d6d442f60405160405180910390a25050565b5f60335f9054906101000a900460ff16905090565b5f5f6101365f9054906101000a900473ffffffffffffffffffffffffffffffffffffffff1673ffffffffffffffffffffffffffffffffffffffff1663028731b2308787876040518563ffffffff1660e01b815260040161147a94939291906133c8565b6020604051808303815f875af1158015611496573d5f5f3e3d5ffd5b505050506040513d601f19601f820116820180604052508101906114ba919061341f565b90505f61012e5f9054906101000a900473ffffffffffffffffffffffffffffffffffffffff1673ffffffffffffffffffffffffffffffffffffffff16637b8cabb6836040518263ffffffff1660e01b81526004016115189190612c3f565b6020604051808303815f875af1158015611534573d5f5f3e3d5ffd5b505050506040513d601f19601f82011682018060405250810190611558919061341f565b90508173ffffffffffffffffffffffffffffffffffffffff1663113aa8b1826040518263ffffffff1660e01b81526004016115939190612c3f565b5f604051808303815f87803b1580156115aa575f5ffd5b505af11580156115bc573d5f5f3e3d5ffd5b5050505061013460405180606001604052808873ffffffffffffffffffffffffffffffffffffffff1681526020018773ffffffffffffffffffffffffffffffffffffffff1681526020018373ffffffffffffffffffffffffffffffffffffffff16815250908060018154018082558091505060019003905f5260205f2090600302015f909190919091505f820151815f015f6101000a81548173ffffffffffffffffffffffffffffffffffffffff021916908373ffffffffffffffffffffffffffffffffffffffff1602179055506020820151816001015f6101000a81548173ffffffffffffffffffffffffffffffffffffffff021916908373ffffffffffffffffffffffffffffffffffffffff1602179055506040820151816002015f6101000a81548173ffffffffffffffffffffffffffffffffffffffff021916908373ffffffffffffffffffffffffffffffffffffffff16021790555050506101355f81548092919061172b90613477565b91905055508073ffffffffffffffffffffffffffffffffffffffff168573ffffffffffffffffffffffffffffffffffffffff168773ffffffffffffffffffffffffffffffffffffffff167f96002a27cd438afd06fa237c8247c8c03b0c94c7d214d44fc735abd710bcc8c0876040516117a4919061304a565b60405180910390a480925050509392505050565b7f65d7a28e3265b37a6474929f336521b332c1681b933f6cb9f3376673440d862a6117e281611dd8565b6117ea612378565b50565b61012f5f9054906101000a900473ffffffffffffffffffffffffffffffffffffffff1681565b7fb19546dff01e856fb3f010c267a7b1c60363cf8a4664e21cc89c26224620214e61183d81611dd8565b816101365f6101000a81548173ffffffffffffffffffffffffffffffffffffffff021916908373ffffffffffffffffffffffffffffffffffffffff1602179055508173ffffffffffffffffffffffffffffffffffffffff167f1f4863d4b849d378969f0cf16d48d4a72c921b296c978602cab2cb4aa5d32d4e60405160405180910390a25050565b5f60fb5f8481526020019081526020015f205f015f8373ffffffffffffffffffffffffffffffffffffffff1673ffffffffffffffffffffffffffffffffffffffff1681526020019081526020015f205f9054906101000a900460ff16905092915050565b610132602052805f5260405f205f915054906101000a900460ff1681565b5f5f1b81565b610134818154811061195d575f80fd5b905f5260205f2090600302015f91509050805f015f9054906101000a900473ffffffffffffffffffffffffffffffffffffffff1690806001015f9054906101000a900473ffffffffffffffffffffffffffffffffffffffff1690806002015f9054906101000a900473ffffffffffffffffffffffffffffffffffffffff16905083565b6101305f9054906101000a900473ffffffffffffffffffffffffffffffffffffffff1681565b611a0f82610de9565b611a1881611dd8565b611a228383612051565b505050565b7fb19546dff01e856fb3f010c267a7b1c60363cf8a4664e21cc89c26224620214e611a5181611dd8565b816101315f8573ffffffffffffffffffffffffffffffffffffffff1673ffffffffffffffffffffffffffffffffffffffff1681526020019081526020015f205f6101000a81548173ffffffffffffffffffffffffffffffffffffffff021916908373ffffffffffffffffffffffffffffffffffffffff1602179055508173ffffffffffffffffffffffffffffffffffffffff168373ffffffffffffffffffffffffffffffffffffffff167fc5f200bc64f9d16d888ec9eaec566ef2155fab997cb7210a15722b06e32a3c7060405160405180910390a3505050565b61012d5f9054906101000a900473ffffffffffffffffffffffffffffffffffffffff1681565b7fb19546dff01e856fb3f010c267a7b1c60363cf8a4664e21cc89c26224620214e81565b7f65d7a28e3265b37a6474929f336521b332c1681b933f6cb9f3376673440d862a81565b6101365f9054906101000a900473ffffffffffffffffffffffffffffffffffffffff1681565b610133602052805f5260405f205f915054906101000a900473ffffffffffffffffffffffffffffffffffffffff1681565b7fb19546dff01e856fb3f010c267a7b1c60363cf8a4664e21cc89c26224620214e611c1b81611dd8565b816101335f8573ffffffffffffffffffffffffffffffffffffffff1673ffffffffffffffffffffffffffffffffffffffff1681526020019081526020015f205f6101000a81548173ffffffffffffffffffffffffffffffffffffffff021916908373ffffffffffffffffffffffffffffffffffffffff1602179055508173ffffffffffffffffffffffffffffffffffffffff168373ffffffffffffffffffffffffffffffffffffffff167f443eca89ae0d91090321746b66b1e5a800bf4f33b317a7dbc01dc310b55c329160405160405180910390a3505050565b6101355481565b7f189ab7a9244df0848122154315af71fe140f3db0fe014031783b0946b8c9d2e381565b7fb19546dff01e856fb3f010c267a7b1c60363cf8a4664e21cc89c26224620214e611d4b81611dd8565b816101305f6101000a81548173ffffffffffffffffffffffffffffffffffffffff021916908373ffffffffffffffffffffffffffffffffffffffff1602179055508173ffffffffffffffffffffffffffffffffffffffff167f87f38b33506619f9f981cdf0439928c07e8478960e3b27545f27bae983b1ff8b60405160405180910390a25050565b600281565b611de981611de461204a565b6123da565b50565b5f7f01ffc9a7000000000000000000000000000000000000000000000000000000007bffffffffffffffffffffffffffffffffffffffffffffffffffffffff1916827bffffffffffffffffffffffffffffffffffffffffffffffffffffffff1916149050919050565b5f5f8273ffffffffffffffffffffffffffffffffffffffff163b119050919050565b5f60019054906101000a900460ff16611ec5576040517f08c379a0000000000000000000000000000000000000000000000000000000008152600401611ebc9061352e565b60405180910390fd5b611ecd61245e565b565b5f60019054906101000a900460ff16611f1d576040517f08c379a0000000000000000000000000000000000000000000000000000000008152600401611f149061352e565b60405180910390fd5b565b5f60019054906101000a900460ff16611f6d576040517f08c379a0000000000000000000000000000000000000000000000000000000008152600401611f649061352e565b60405180910390fd5b565b611f7982826118c5565b61204657600160fb5f8481526020019081526020015f205f015f8373ffffffffffffffffffffffffffffffffffffffff1673ffffffffffffffffffffffffffffffffffffffff1681526020019081526020015f205f6101000a81548160ff021916908315150217905550611feb61204a565b73ffffffffffffffffffffffffffffffffffffffff168173ffffffffffffffffffffffffffffffffffffffff16837f2f8788117e7eff1d82e926ec794901d17c78024a50270940304540a733656f0d60405160405180910390a45b5050565b5f33905090565b61205b82826118c5565b15612128575f60fb5f8481526020019081526020015f205f015f8373ffffffffffffffffffffffffffffffffffffffff1673ffffffffffffffffffffffffffffffffffffffff1681526020019081526020015f205f6101000a81548160ff0219169083151502179055506120cd61204a565b73ffffffffffffffffffffffffffffffffffffffff168173ffffffffffffffffffffffffffffffffffffffff16837ff6391f5c32d9c69d2a47ea670b442974b53935d1edc7fd64eb21e047a839171b60405160405180910390a45b5050565b5f6121587f360894a13ba1a3210667c828492db98dca3e2076cc3735a920a3ca505d382bbc5f1b6124c7565b5f015f9054906101000a900473ffffffffffffffffffffffffffffffffffffffff16905090565b7f189ab7a9244df0848122154315af71fe140f3db0fe014031783b0946b8c9d2e36121a981611dd8565b5050565b6121d87f4910fdfa16fed3260ed0e7147f7cc6da11a60208b5b9406d12a635614ffd91435f1b6124d0565b5f015f9054906101000a900460ff16156121fa576121f5836124d9565b612312565b8273ffffffffffffffffffffffffffffffffffffffff166352d1902d6040518163ffffffff1660e01b8152600401602060405180830381865afa92505050801561226257506040513d601f19601f8201168201806040525081019061225f9190613560565b60015b6122a1576040517f08c379a0000000000000000000000000000000000000000000000000000000008152600401612298906135fb565b60405180910390fd5b7f360894a13ba1a3210667c828492db98dca3e2076cc3735a920a3ca505d382bbc5f1b8114612305576040517f08c379a00000000000000000000000000000000000000000000000000000000081526004016122fc90613689565b60405180910390fd5b5061231183838361258f565b5b505050565b61231f6125ba565b5f60335f6101000a81548160ff0219169083151502179055507f5db9ee0a495bf2e6ff9c91a7834c1ba4fdd244a5e8aa4e537bd38aeae4b073aa61236161204a565b60405161236e9190612c3f565b60405180910390a1565b612380612603565b600160335f6101000a81548160ff0219169083151502179055507f62e78cea01bee320cd4e420270b5ea74000d11b0c9f74754ebdbfc544b05a2586123c361204a565b6040516123d09190612c3f565b60405180910390a1565b6123e482826118c5565b61245a576123f18161264d565b6123fe835f1c602061267a565b60405160200161240f92919061378d565b6040516020818303038152906040526040517f08c379a000000000000000000000000000000000000000000000000000000000815260040161245191906137fe565b60405180910390fd5b5050565b5f60019054906101000a900460ff166124ac576040517f08c379a00000000000000000000000000000000000000000000000000000000081526004016124a39061352e565b60405180910390fd5b5f60335f6101000a81548160ff021916908315150217905550565b5f819050919050565b5f819050919050565b6124e281611e55565b612521576040517f08c379a00000000000000000000000000000000000000000000000000000000081526004016125189061388e565b60405180910390fd5b8061254d7f360894a13ba1a3210667c828492db98dca3e2076cc3735a920a3ca505d382bbc5f1b6124c7565b5f015f6101000a81548173ffffffffffffffffffffffffffffffffffffffff021916908373ffffffffffffffffffffffffffffffffffffffff16021790555050565b612598836128af565b5f825111806125a45750805b156125b5576125b383836128fe565b505b505050565b6125c2611402565b612601576040517f08c379a00000000000000000000000000000000000000000000000000000000081526004016125f8906138f6565b60405180910390fd5b565b61260b611402565b1561264b576040517f08c379a00000000000000000000000000000000000000000000000000000000081526004016126429061395e565b60405180910390fd5b565b60606126738273ffffffffffffffffffffffffffffffffffffffff16601460ff1661267a565b9050919050565b60605f600283600261268c919061397c565b61269691906139bd565b67ffffffffffffffff8111156126af576126ae612d34565b5b6040519080825280601f01601f1916602001820160405280156126e15781602001600182028036833780820191505090505b5090507f3000000000000000000000000000000000000000000000000000000000000000815f81518110612718576127176139f0565b5b60200101907effffffffffffffffffffffffffffffffffffffffffffffffffffffffffffff191690815f1a9053507f78000000000000000000000000000000000000000000000000000000000000008160018151811061277b5761277a6139f0565b5b60200101907effffffffffffffffffffffffffffffffffffffffffffffffffffffffffffff191690815f1a9053505f60018460026127b9919061397c565b6127c391906139bd565b90505b6001811115612862577f3031323334353637383961626364656600000000000000000000000000000000600f861660108110612805576128046139f0565b5b1a60f81b82828151811061281c5761281b6139f0565b5b60200101907effffffffffffffffffffffffffffffffffffffffffffffffffffffffffffff191690815f1a905350600485901c94508061285b90613a1d565b90506127c6565b505f84146128a5576040517f08c379a000000000000000000000000000000000000000000000000000000000815260040161289c90613a8e565b60405180910390fd5b8091505092915050565b6128b8816124d9565b8073ffffffffffffffffffffffffffffffffffffffff167fbc7cd75a20ee27fd9adebab32041f755214dbc6bffa90cc0225b39da2e5c2d3b60405160405180910390a250565b60606129238383604051806060016040528060278152602001613b6f6027913961292b565b905092915050565b60605f5f8573ffffffffffffffffffffffffffffffffffffffff16856040516129549190613af0565b5f60405180830381855af49150503d805f811461298c576040519150601f19603f3d011682016040523d82523d5f602084013e612991565b606091505b50915091506129a2868383876129ad565b925050509392505050565b60608315612a0e575f835103612a06576129c685611e55565b612a05576040517f08c379a00000000000000000000000000000000000000000000000000000000081526004016129fc90613b50565b60405180910390fd5b5b829050612a19565b612a188383612a21565b5b949350505050565b5f82511115612a335781518083602001fd5b806040517f08c379a0000000000000000000000000000000000000000000000000000000008152600401612a6791906137fe565b60405180910390fd5b5f604051905090565b5f5ffd5b5f5ffd5b5f73ffffffffffffffffffffffffffffffffffffffff82169050919050565b5f612aaa82612a81565b9050919050565b612aba81612aa0565b8114612ac4575f5ffd5b50565b5f81359050612ad581612ab1565b92915050565b5f60208284031215612af057612aef612a79565b5b5f612afd84828501612ac7565b91505092915050565b5f7fffffffff0000000000000000000000000000000000000000000000000000000082169050919050565b612b3a81612b06565b8114612b44575f5ffd5b50565b5f81359050612b5581612b31565b92915050565b5f60208284031215612b7057612b6f612a79565b5b5f612b7d84828501612b47565b91505092915050565b5f8115159050919050565b612b9a81612b86565b82525050565b5f602082019050612bb35f830184612b91565b92915050565b5f5f5f5f5f60a08688031215612bd257612bd1612a79565b5b5f612bdf88828901612ac7565b9550506020612bf088828901612ac7565b9450506040612c0188828901612ac7565b9350506060612c1288828901612ac7565b9250506080612c2388828901612ac7565b9150509295509295909350565b612c3981612aa0565b82525050565b5f602082019050612c525f830184612c30565b92915050565b5f819050919050565b612c6a81612c58565b8114612c74575f5ffd5b50565b5f81359050612c8581612c61565b92915050565b5f60208284031215612ca057612c9f612a79565b5b5f612cad84828501612c77565b91505092915050565b612cbf81612c58565b82525050565b5f602082019050612cd85f830184612cb6565b92915050565b5f5f60408385031215612cf457612cf3612a79565b5b5f612d0185828601612c77565b9250506020612d1285828601612ac7565b9150509250929050565b5f5ffd5b5f5ffd5b5f601f19601f8301169050919050565b7f4e487b71000000000000000000000000000000000000000000000000000000005f52604160045260245ffd5b612d6a82612d24565b810181811067ffffffffffffffff82111715612d8957612d88612d34565b5b80604052505050565b5f612d9b612a70565b9050612da78282612d61565b919050565b5f67ffffffffffffffff821115612dc657612dc5612d34565b5b612dcf82612d24565b9050602081019050919050565b828183375f83830152505050565b5f612dfc612df784612dac565b612d92565b905082815260208101848484011115612e1857612e17612d20565b5b612e23848285612ddc565b509392505050565b5f82601f830112612e3f57612e3e612d1c565b5b8135612e4f848260208601612dea565b91505092915050565b5f5f60408385031215612e6e57612e6d612a79565b5b5f612e7b85828601612ac7565b925050602083013567ffffffffffffffff811115612e9c57612e9b612a7d565b5b612ea885828601612e2b565b9150509250929050565b612ebb81612b86565b8114612ec5575f5ffd5b50565b5f81359050612ed681612eb2565b92915050565b5f5f60408385031215612ef257612ef1612a79565b5b5f612eff85828601612ac7565b9250506020612f1085828601612ec8565b9150509250929050565b5f819050919050565b612f2c81612f1a565b8114612f36575f5ffd5b50565b5f81359050612f4781612f23565b92915050565b5f5f5f60608486031215612f6457612f63612a79565b5b5f612f7186828701612ac7565b9350506020612f8286828701612ac7565b9250506040612f9386828701612f39565b9150509250925092565b5f60208284031215612fb257612fb1612a79565b5b5f612fbf84828501612f39565b91505092915050565b5f606082019050612fdb5f830186612c30565b612fe86020830185612c30565b612ff56040830184612c30565b949350505050565b5f5f6040838503121561301357613012612a79565b5b5f61302085828601612ac7565b925050602061303185828601612ac7565b9150509250929050565b61304481612f1a565b82525050565b5f60208201905061305d5f83018461303b565b92915050565b5f60ff82169050919050565b61307881613063565b82525050565b5f6020820190506130915f83018461306f565b92915050565b5f82825260208201905092915050565b7f496e697469616c697a61626c653a20636f6e747261637420697320616c7265615f8201527f647920696e697469616c697a6564000000000000000000000000000000000000602082015250565b5f613101602e83613097565b915061310c826130a7565b604082019050919050565b5f6020820190508181035f83015261312e816130f5565b9050919050565b5f819050919050565b5f819050919050565b5f61316161315c61315784613135565b61313e565b613063565b9050919050565b61317181613147565b82525050565b5f60208201905061318a5f830184613168565b92915050565b7f416363657373436f6e74726f6c3a2063616e206f6e6c792072656e6f756e63655f8201527f20726f6c657320666f722073656c660000000000000000000000000000000000602082015250565b5f6131ea602f83613097565b91506131f582613190565b604082019050919050565b5f6020820190508181035f830152613217816131de565b9050919050565b7f46756e6374696f6e206d7573742062652063616c6c6564207468726f756768205f8201527f64656c656761746563616c6c0000000000000000000000000000000000000000602082015250565b5f613278602c83613097565b91506132838261321e565b604082019050919050565b5f6020820190508181035f8301526132a58161326c565b9050919050565b7f46756e6374696f6e206d7573742062652063616c6c6564207468726f756768205f8201527f6163746976652070726f78790000000000000000000000000000000000000000602082015250565b5f613306602c83613097565b9150613311826132ac565b604082019050919050565b5f6020820190508181035f830152613333816132fa565b9050919050565b7f555550535570677261646561626c653a206d757374206e6f742062652063616c5f8201527f6c6564207468726f7567682064656c656761746563616c6c0000000000000000602082015250565b5f613394603883613097565b915061339f8261333a565b604082019050919050565b5f6020820190508181035f8301526133c181613388565b9050919050565b5f6080820190506133db5f830187612c30565b6133e86020830186612c30565b6133f56040830185612c30565b613402606083018461303b565b95945050505050565b5f8151905061341981612ab1565b92915050565b5f6020828403121561343457613433612a79565b5b5f6134418482850161340b565b91505092915050565b7f4e487b71000000000000000000000000000000000000000000000000000000005f52601160045260245ffd5b5f61348182612f1a565b91507fffffffffffffffffffffffffffffffffffffffffffffffffffffffffffffffff82036134b3576134b261344a565b5b600182019050919050565b7f496e697469616c697a61626c653a20636f6e7472616374206973206e6f7420695f8201527f6e697469616c697a696e67000000000000000000000000000000000000000000602082015250565b5f613518602b83613097565b9150613523826134be565b604082019050919050565b5f6020820190508181035f8301526135458161350c565b9050919050565b5f8151905061355a81612c61565b92915050565b5f6020828403121561357557613574612a79565b5b5f6135828482850161354c565b91505092915050565b7f45524331393637557067726164653a206e657720696d706c656d656e746174695f8201527f6f6e206973206e6f742055555053000000000000000000000000000000000000602082015250565b5f6135e5602e83613097565b91506135f08261358b565b604082019050919050565b5f6020820190508181035f830152613612816135d9565b9050919050565b7f45524331393637557067726164653a20756e737570706f727465642070726f785f8201527f6961626c65555549440000000000000000000000000000000000000000000000602082015250565b5f613673602983613097565b915061367e82613619565b604082019050919050565b5f6020820190508181035f8301526136a081613667565b9050919050565b5f81905092915050565b7f416363657373436f6e74726f6c3a206163636f756e74200000000000000000005f82015250565b5f6136e56017836136a7565b91506136f0826136b1565b601782019050919050565b5f81519050919050565b8281835e5f83830152505050565b5f61371d826136fb565b61372781856136a7565b9350613737818560208601613705565b80840191505092915050565b7f206973206d697373696e6720726f6c65200000000000000000000000000000005f82015250565b5f6137776011836136a7565b915061378282613743565b601182019050919050565b5f613797826136d9565b91506137a38285613713565b91506137ae8261376b565b91506137ba8284613713565b91508190509392505050565b5f6137d0826136fb565b6137da8185613097565b93506137ea818560208601613705565b6137f381612d24565b840191505092915050565b5f6020820190508181035f83015261381681846137c6565b905092915050565b7f455243313936373a206e657720696d706c656d656e746174696f6e206973206e5f8201527f6f74206120636f6e747261637400000000000000000000000000000000000000602082015250565b5f613878602d83613097565b91506138838261381e565b604082019050919050565b5f6020820190508181035f8301526138a58161386c565b9050919050565b7f5061757361626c653a206e6f74207061757365640000000000000000000000005f82015250565b5f6138e0601483613097565b91506138eb826138ac565b602082019050919050565b5f6020820190508181035f83015261390d816138d4565b9050919050565b7f5061757361626c653a20706175736564000000000000000000000000000000005f82015250565b5f613948601083613097565b915061395382613914565b602082019050919050565b5f6020820190508181035f8301526139758161393c565b9050919050565b5f61398682612f1a565b915061399183612f1a565b925082820261399f81612f1a565b915082820484148315176139b6576139b561344a565b5b5092915050565b5f6139c782612f1a565b91506139d283612f1a565b92508282019050808211156139ea576139e961344a565b5b92915050565b7f4e487b71000000000000000000000000000000000000000000000000000000005f52603260045260245ffd5b5f613a2782612f1a565b91505f8203613a3957613a3861344a565b5b600182039050919050565b7f537472696e67733a20686578206c656e67746820696e73756666696369656e745f82015250565b5f613a78602083613097565b9150613a8382613a44565b602082019050919050565b5f6020820190508181035f830152613aa581613a6c565b9050919050565b5f81519050919050565b5f81905092915050565b5f613aca82613aac565b613ad48185613ab6565b9350613ae4818560208601613705565b80840191505092915050565b5f613afb8284613ac0565b915081905092915050565b7f416464726573733a2063616c6c20746f206e6f6e2d636f6e74726163740000005f82015250565b5f613b3a601d83613097565b9150613b4582613b06565b602082019050919050565b5f6020820190508181035f830152613b6781613b2e565b905091905056fe416464726573733a206c6f772d6c6576656c2064656c65676174652063616c6c206661696c6564a264697066735822122055e7c2614cc016d075ff90487a038b9ba7a9acdfa310b91aa0a4295678c4e0f164736f6c634300081c0033","linkReferences":{}},"methodIdentifiers":{"DEFAULT_ADMIN_ROLE()":"a217fddf","OWNER_ROLE()":"e58378bb","PAUSER_ROLE()":"e63ab1e9","UPGRADER_ROLE()":"f72c0d8b","VERSION()":"ffa1ad74","WKAIA()":"145d51d8","addTokenDataStream(address,address)":"e18487ca","createLendingPool(address,address,uint256)":"802de844","getRoleAdmin(bytes32)":"248a9ca3","grantRole(bytes32,address)":"2f2ff15d","hasRole(bytes32,address)":"91d14854","initialize(address,address,address,address,address)":"1459457a","isHealthy()":"e4020804","lendingPoolDeployer()":"42e681d8","lendingPoolRouterDeployer()":"e949f3c9","oftAddress(address)":"efe1b2cd","operator(address)":"9a307391","pause()":"8456cb59","paused()":"5c975abb","poolCount()":"f525cb68","pools(uint256)":"ac4afa38","positionDeployer()":"bd3b5471","protocol()":"8ce74426","proxiableUUID()":"52d1902d","renounceRole(bytes32,address)":"36568abe","revokeRole(bytes32,address)":"d547741f","setIsHealthy(address)":"59917d7d","setLendingPoolDeployer(address)":"00546b2a","setLendingPoolRouterDeployer(address)":"8dc15a66","setOftAddress(address,address)":"f09a0d6b","setOperator(address,bool)":"558a7297","setPositionDeployer(address)":"f8446dcd","setProtocol(address)":"0a9d793d","supportsInterface(bytes4)":"01ffc9a7","tokenDataStream(address)":"1d43335a","unpause()":"3f4ba83a","upgradeTo(address)":"3659cfe6","upgradeToAndCall(address,bytes)":"4f1ef286"},"id":114}