{"abi":[{"type":"constructor","inputs":[],"stateMutability":"nonpayable"},{"type":"function","name":"DEFAULT_ADMIN_ROLE","inputs":[],"outputs":[{"name":"","type":"bytes32","internalType":"bytes32"}],"stateMutability":"view"},{"type":"function","name":"DEX_ROUTER","inputs":[],"outputs":[{"name":"","type":"address","internalType":"address"}],"stateMutability":"view"},{"type":"function","name":"OWNER_ROLE","inputs":[],"outputs":[{"name":"","type":"bytes32","internalType":"bytes32"}],"stateMutability":"view"},{"type":"function","name":"PAUSER_ROLE","inputs":[],"outputs":[{"name":"","type":"bytes32","internalType":"bytes32"}],"stateMutability":"view"},{"type":"function","name":"UPGRADER_ROLE","inputs":[],"outputs":[{"name":"","type":"bytes32","internalType":"bytes32"}],"stateMutability":"view"},{"type":"function","name":"WRAPPED_NATIVE","inputs":[],"outputs":[{"name":"","type":"address","internalType":"address"}],"stateMutability":"view"},{"type":"function","name":"addTokenDataStream","inputs":[{"name":"_token","type":"address","internalType":"address"},{"name":"_dataStream","type":"address","internalType":"address"}],"outputs":[],"stateMutability":"nonpayable"},{"type":"function","name":"createLendingPool","inputs":[{"name":"collateralToken","type":"address","internalType":"address"},{"name":"borrowToken","type":"address","internalType":"address"},{"name":"ltv","type":"uint256","internalType":"uint256"}],"outputs":[{"name":"","type":"address","internalType":"address"}],"stateMutability":"nonpayable"},{"type":"function","name":"getRoleAdmin","inputs":[{"name":"role","type":"bytes32","internalType":"bytes32"}],"outputs":[{"name":"","type":"bytes32","internalType":"bytes32"}],"stateMutability":"view"},{"type":"function","name":"grantRole","inputs":[{"name":"role","type":"bytes32","internalType":"bytes32"},{"name":"account","type":"address","internalType":"address"}],"outputs":[],"stateMutability":"nonpayable"},{"type":"function","name":"hasRole","inputs":[{"name":"role","type":"bytes32","internalType":"bytes32"},{"name":"account","type":"address","internalType":"address"}],"outputs":[{"name":"","type":"bool","internalType":"bool"}],"stateMutability":"view"},{"type":"function","name":"initialize","inputs":[{"name":"_isHealthy","type":"address","internalType":"address"},{"name":"_lendingPoolRouterDeployer","type":"address","internalType":"address"},{"name":"_lendingPoolDeployer","type":"address","internalType":"address"},{"name":"_protocol","type":"address","internalType":"address"},{"name":"_positionDeployer","type":"address","internalType":"address"}],"outputs":[],"stateMutability":"nonpayable"},{"type":"function","name":"isHealthy","inputs":[],"outputs":[{"name":"","type":"address","internalType":"address"}],"stateMutability":"view"},{"type":"function","name":"lendingPoolDeployer","inputs":[],"outputs":[{"name":"","type":"address","internalType":"address"}],"stateMutability":"view"},{"type":"function","name":"lendingPoolRouterDeployer","inputs":[],"outputs":[{"name":"","type":"address","internalType":"address"}],"stateMutability":"view"},{"type":"function","name":"oftAddress","inputs":[{"name":"","type":"address","internalType":"address"}],"outputs":[{"name":"","type":"address","internalType":"address"}],"stateMutability":"view"},{"type":"function","name":"operator","inputs":[{"name":"","type":"address","internalType":"address"}],"outputs":[{"name":"","type":"bool","internalType":"bool"}],"stateMutability":"view"},{"type":"function","name":"pause","inputs":[],"outputs":[],"stateMutability":"nonpayable"},{"type":"function","name":"paused","inputs":[],"outputs":[{"name":"","type":"bool","internalType":"bool"}],"stateMutability":"view"},{"type":"function","name":"poolCount","inputs":[],"outputs":[{"name":"","type":"uint256","internalType":"uint256"}],"stateMutability":"view"},{"type":"function","name":"pools","inputs":[{"name":"","type":"uint256","internalType":"uint256"}],"outputs":[{"name":"collateralToken","type":"address","internalType":"address"},{"name":"borrowToken","type":"address","internalType":"address"},{"name":"lendingPoolAddress","type":"address","internalType":"address"}],"stateMutability":"view"},{"type":"function","name":"positionDeployer","inputs":[],"outputs":[{"name":"","type":"address","internalType":"address"}],"stateMutability":"view"},{"type":"function","name":"protocol","inputs":[],"outputs":[{"name":"","type":"address","internalType":"address"}],"stateMutability":"view"},{"type":"function","name":"proxiableUUID","inputs":[],"outputs":[{"name":"","type":"bytes32","internalType":"bytes32"}],"stateMutability":"view"},{"type":"function","name":"renounceRole","inputs":[{"name":"role","type":"bytes32","internalType":"bytes32"},{"name":"account","type":"address","internalType":"address"}],"outputs":[],"stateMutability":"nonpayable"},{"type":"function","name":"revokeRole","inputs":[{"name":"role","type":"bytes32","internalType":"bytes32"},{"name":"account","type":"address","internalType":"address"}],"outputs":[],"stateMutability":"nonpayable"},{"type":"function","name":"setDexRouter","inputs":[{"name":"_dexRouter","type":"address","internalType":"address"}],"outputs":[],"stateMutability":"nonpayable"},{"type":"function","name":"setIsHealthy","inputs":[{"name":"_isHealthy","type":"address","internalType":"address"}],"outputs":[],"stateMutability":"nonpayable"},{"type":"function","name":"setLendingPoolDeployer","inputs":[{"name":"_lendingPoolDeployer","type":"address","internalType":"address"}],"outputs":[],"stateMutability":"nonpayable"},{"type":"function","name":"setLendingPoolRouterDeployer","inputs":[{"name":"_lendingPoolRouterDeployer","type":"address","internalType":"address"}],"outputs":[],"stateMutability":"nonpayable"},{"type":"function","name":"setOftAddress","inputs":[{"name":"_token","type":"address","internalType":"address"},{"name":"_oftAddress","type":"address","internalType":"address"}],"outputs":[],"stateMutability":"nonpayable"},{"type":"function","name":"setOperator","inputs":[{"name":"_operator","type":"address","internalType":"address"},{"name":"_status","type":"bool","internalType":"bool"}],"outputs":[],"stateMutability":"nonpayable"},{"type":"function","name":"setPositionDeployer","inputs":[{"name":"_positionDeployer","type":"address","internalType":"address"}],"outputs":[],"stateMutability":"nonpayable"},{"type":"function","name":"setProtocol","inputs":[{"name":"_protocol","type":"address","internalType":"address"}],"outputs":[],"stateMutability":"nonpayable"},{"type":"function","name":"setWrappedNative","inputs":[{"name":"_wrappedNative","type":"address","internalType":"address"}],"outputs":[],"stateMutability":"nonpayable"},{"type":"function","name":"supportsInterface","inputs":[{"name":"interfaceId","type":"bytes4","internalType":"bytes4"}],"outputs":[{"name":"","type":"bool","internalType":"bool"}],"stateMutability":"view"},{"type":"function","name":"tokenDataStream","inputs":[{"name":"","type":"address","internalType":"address"}],"outputs":[{"name":"","type":"address","internalType":"address"}],"stateMutability":"view"},{"type":"function","name":"unpause","inputs":[],"outputs":[],"stateMutability":"nonpayable"},{"type":"function","name":"upgradeTo","inputs":[{"name":"newImplementation","type":"address","internalType":"address"}],"outputs":[],"stateMutability":"nonpayable"},{"type":"function","name":"upgradeToAndCall","inputs":[{"name":"newImplementation","type":"address","internalType":"address"},{"name":"data","type":"bytes","internalType":"bytes"}],"outputs":[],"stateMutability":"payable"},{"type":"event","name":"AdminChanged","inputs":[{"name":"previousAdmin","type":"address","indexed":false,"internalType":"address"},{"name":"newAdmin","type":"address","indexed":false,"internalType":"address"}],"anonymous":false},{"type":"event","name":"BeaconUpgraded","inputs":[{"name":"beacon","type":"address","indexed":true,"internalType":"address"}],"anonymous":false},{"type":"event","name":"DexRouterSet","inputs":[{"name":"dexRouter","type":"address","indexed":true,"internalType":"address"}],"anonymous":false},{"type":"event","name":"Initialized","inputs":[{"name":"version","type":"uint8","indexed":false,"internalType":"uint8"}],"anonymous":false},{"type":"event","name":"IsHealthySet","inputs":[{"name":"isHealthy","type":"address","indexed":true,"internalType":"address"}],"anonymous":false},{"type":"event","name":"LendingPoolCreated","inputs":[{"name":"collateralToken","type":"address","indexed":true,"internalType":"address"},{"name":"borrowToken","type":"address","indexed":true,"internalType":"address"},{"name":"lendingPool","type":"address","indexed":true,"internalType":"address"},{"name":"ltv","type":"uint256","indexed":false,"internalType":"uint256"}],"anonymous":false},{"type":"event","name":"LendingPoolDeployerSet","inputs":[{"name":"lendingPoolDeployer","type":"address","indexed":true,"internalType":"address"}],"anonymous":false},{"type":"event","name":"LendingPoolRouterDeployerSet","inputs":[{"name":"lendingPoolRouterDeployer","type":"address","indexed":true,"internalType":"address"}],"anonymous":false},{"type":"event","name":"OftAddressSet","inputs":[{"name":"token","type":"address","indexed":true,"internalType":"address"},{"name":"oftAddress","type":"address","indexed":true,"internalType":"address"}],"anonymous":false},{"type":"event","name":"OperatorSet","inputs":[{"name":"operator","type":"address","indexed":true,"internalType":"address"},{"name":"status","type":"bool","indexed":false,"internalType":"bool"}],"anonymous":false},{"type":"event","name":"Paused","inputs":[{"name":"account","type":"address","indexed":false,"internalType":"address"}],"anonymous":false},{"type":"event","name":"PositionDeployerSet","inputs":[{"name":"positionDeployer","type":"address","indexed":true,"internalType":"address"}],"anonymous":false},{"type":"event","name":"ProtocolSet","inputs":[{"name":"protocol","type":"address","indexed":true,"internalType":"address"}],"anonymous":false},{"type":"event","name":"RoleAdminChanged","inputs":[{"name":"role","type":"bytes32","indexed":true,"internalType":"bytes32"},{"name":"previousAdminRole","type":"bytes32","indexed":true,"internalType":"bytes32"},{"name":"newAdminRole","type":"bytes32","indexed":true,"internalType":"bytes32"}],"anonymous":false},{"type":"event","name":"RoleGranted","inputs":[{"name":"role","type":"bytes32","indexed":true,"internalType":"bytes32"},{"name":"account","type":"address","indexed":true,"internalType":"address"},{"name":"sender","type":"address","indexed":true,"internalType":"address"}],"anonymous":false},{"type":"event","name":"RoleRevoked","inputs":[{"name":"role","type":"bytes32","indexed":true,"internalType":"bytes32"},{"name":"account","type":"address","indexed":true,"internalType":"address"},{"name":"sender","type":"address","indexed":true,"internalType":"address"}],"anonymous":false},{"type":"event","name":"TokenDataStreamAdded","inputs":[{"name":"token","type":"address","indexed":true,"internalType":"address"},{"name":"dataStream","type":"address","indexed":true,"internalType":"address"}],"anonymous":false},{"type":"event","name":"Unpaused","inputs":[{"name":"account","type":"address","indexed":false,"internalType":"address"}],"anonymous":false},{"type":"event","name":"Upgraded","inputs":[{"name":"implementation","type":"address","indexed":true,"internalType":"address"}],"anonymous":false},{"type":"event","name":"WrappedNativeSet","inputs":[{"name":"wrappedNative","type":"address","indexed":true,"internalType":"address"}],"anonymous":false}],"bytecode":{"object":"0x60a06040523073ffffffffffffffffffffffffffffffffffffffff1660809073ffffffffffffffffffffffffffffffffffffffff16815250348015610042575f5ffd5b5061005161005660201b60201c565b6101e6565b5f60019054906101000a900460ff16156100a5576040517f08c379a000000000000000000000000000000000000000000000000000000000815260040161009c90610194565b60405180910390fd5b60ff80165f5f9054906101000a900460ff1660ff16146101125760ff5f5f6101000a81548160ff021916908360ff1602179055507f7f26b83ff96e1f2b6a682f133852f6798a09c465da95921460cefb384740249860ff60405161010991906101cd565b60405180910390a15b565b5f82825260208201905092915050565b7f496e697469616c697a61626c653a20636f6e747261637420697320696e6974695f8201527f616c697a696e6700000000000000000000000000000000000000000000000000602082015250565b5f61017e602783610114565b915061018982610124565b604082019050919050565b5f6020820190508181035f8301526101ab81610172565b9050919050565b5f60ff82169050919050565b6101c7816101b2565b82525050565b5f6020820190506101e05f8301846101be565b92915050565b608051613d9c61021a5f395f8181610efa01528181610f88015281816110db0152818161116901526112ca0152613d9c5ff3fe608060405260043610610239575f3560e01c80638ce744261161012d578063e4020804116100aa578063f09a0d6b1161006e578063f09a0d6b1461083f578063f525cb6814610867578063f72c0d8b14610891578063f72f863b146108bb578063f8446dcd146108e357610239565b8063e40208041461075b578063e58378bb14610785578063e63ab1e9146107af578063e949f3c9146107d9578063efe1b2cd1461080357610239565b8063ac4afa38116100f1578063ac4afa3814610679578063bd3b5471146106b7578063d547741f146106e1578063d999984d14610709578063e18487ca1461073357610239565b80638ce74426146105855780638dc15a66146105af57806391d14854146105d75780639a30739114610613578063a217fddf1461064f57610239565b806342e681d8116101bb57806359917d7d1161017f57806359917d7d146104b75780635c975abb146104df5780637af11ac014610509578063802de844146105335780638456cb591461056f57610239565b806342e681d8146103f75780634f1ef2861461042157806352cb60ca1461043d57806352d1902d14610465578063558a72971461048f57610239565b8063248a9ca311610202578063248a9ca31461032d5780632f2ff15d1461036957806336568abe146103915780633659cfe6146103b95780633f4ba83a146103e157610239565b8062546b2a1461023d57806301ffc9a7146102655780630a9d793d146102a15780631459457a146102c95780631d43335a146102f1575b5f5ffd5b348015610248575f5ffd5b50610263600480360381019061025e9190612cd4565b61090b565b005b348015610270575f5ffd5b5061028b60048036038101906102869190612d54565b6109bd565b6040516102989190612d99565b60405180910390f35b3480156102ac575f5ffd5b506102c760048036038101906102c29190612cd4565b610a36565b005b3480156102d4575f5ffd5b506102ef60048036038101906102ea9190612db2565b610ae8565b005b3480156102fc575f5ffd5b5061031760048036038101906103129190612cd4565b610e06565b6040516103249190612e38565b60405180910390f35b348015610338575f5ffd5b50610353600480360381019061034e9190612e84565b610e37565b6040516103609190612ebe565b60405180910390f35b348015610374575f5ffd5b5061038f600480360381019061038a9190612ed7565b610e54565b005b34801561039c575f5ffd5b506103b760048036038101906103b29190612ed7565b610e75565b005b3480156103c4575f5ffd5b506103df60048036038101906103da9190612cd4565b610ef8565b005b3480156103ec575f5ffd5b506103f561107e565b005b348015610402575f5ffd5b5061040b6110b3565b6040516104189190612e38565b60405180910390f35b61043b60048036038101906104369190613051565b6110d9565b005b348015610448575f5ffd5b50610463600480360381019061045e9190612cd4565b611215565b005b348015610470575f5ffd5b506104796112c7565b6040516104869190612ebe565b60405180910390f35b34801561049a575f5ffd5b506104b560048036038101906104b091906130d5565b61137e565b005b3480156104c2575f5ffd5b506104dd60048036038101906104d89190612cd4565b611450565b005b3480156104ea575f5ffd5b506104f3611502565b6040516105009190612d99565b60405180910390f35b348015610514575f5ffd5b5061051d611517565b60405161052a9190612e38565b60405180910390f35b34801561053e575f5ffd5b5061055960048036038101906105549190613146565b61153d565b6040516105669190612e38565b60405180910390f35b34801561057a575f5ffd5b506105836118de565b005b348015610590575f5ffd5b50610599611913565b6040516105a69190612e38565b60405180910390f35b3480156105ba575f5ffd5b506105d560048036038101906105d09190612cd4565b611939565b005b3480156105e2575f5ffd5b506105fd60048036038101906105f89190612ed7565b6119eb565b60405161060a9190612d99565b60405180910390f35b34801561061e575f5ffd5b5061063960048036038101906106349190612cd4565b611a4f565b6040516106469190612d99565b60405180910390f35b34801561065a575f5ffd5b50610663611a6d565b6040516106709190612ebe565b60405180910390f35b348015610684575f5ffd5b5061069f600480360381019061069a9190613196565b611a73565b6040516106ae939291906131c1565b60405180910390f35b3480156106c2575f5ffd5b506106cb611b06565b6040516106d89190612e38565b60405180910390f35b3480156106ec575f5ffd5b5061070760048036038101906107029190612ed7565b611b2c565b005b348015610714575f5ffd5b5061071d611b4d565b60405161072a9190612e38565b60405180910390f35b34801561073e575f5ffd5b50610759600480360381019061075491906131f6565b611b73565b005b348015610766575f5ffd5b5061076f611c78565b60405161077c9190612e38565b60405180910390f35b348015610790575f5ffd5b50610799611c9e565b6040516107a69190612ebe565b60405180910390f35b3480156107ba575f5ffd5b506107c3611cc2565b6040516107d09190612ebe565b60405180910390f35b3480156107e4575f5ffd5b506107ed611ce6565b6040516107fa9190612e38565b60405180910390f35b34801561080e575f5ffd5b5061082960048036038101906108249190612cd4565b611d0c565b6040516108369190612e38565b60405180910390f35b34801561084a575f5ffd5b50610865600480360381019061086091906131f6565b611d3d565b005b348015610872575f5ffd5b5061087b611e42565b6040516108889190613243565b60405180910390f35b34801561089c575f5ffd5b506108a5611e49565b6040516108b29190612ebe565b60405180910390f35b3480156108c6575f5ffd5b506108e160048036038101906108dc9190612cd4565b611e6d565b005b3480156108ee575f5ffd5b5061090960048036038101906109049190612cd4565b611f1f565b005b7fb19546dff01e856fb3f010c267a7b1c60363cf8a4664e21cc89c26224620214e61093581611fd1565b8161012e5f6101000a81548173ffffffffffffffffffffffffffffffffffffffff021916908373ffffffffffffffffffffffffffffffffffffffff1602179055508173ffffffffffffffffffffffffffffffffffffffff167fb01c17406179a638da96eaa4686f4c1b6367270061946142c4a8ea461023d51760405160405180910390a25050565b5f7f7965db0b000000000000000000000000000000000000000000000000000000007bffffffffffffffffffffffffffffffffffffffffffffffffffffffff1916827bffffffffffffffffffffffffffffffffffffffffffffffffffffffff19161480610a2f5750610a2e82611fe5565b5b9050919050565b7fb19546dff01e856fb3f010c267a7b1c60363cf8a4664e21cc89c26224620214e610a6081611fd1565b8161012f5f6101000a81548173ffffffffffffffffffffffffffffffffffffffff021916908373ffffffffffffffffffffffffffffffffffffffff1602179055508173ffffffffffffffffffffffffffffffffffffffff167f9269d63ac6e0360a152db45a73e3e9e471a002419dff28abc7b58efaa211a2ba60405160405180910390a25050565b5f5f60019054906101000a900460ff16159050808015610b18575060015f5f9054906101000a900460ff1660ff16105b80610b455750610b273061204e565b158015610b44575060015f5f9054906101000a900460ff1660ff16145b5b610b84576040517f08c379a0000000000000000000000000000000000000000000000000000000008152600401610b7b906132dc565b60405180910390fd5b60015f5f6101000a81548160ff021916908360ff1602179055508015610bbf5760015f60016101000a81548160ff0219169083151502179055505b610bc7612070565b610bcf6120c8565b610bd7612118565b610be35f5f1b33612168565b610c0d7f65d7a28e3265b37a6474929f336521b332c1681b933f6cb9f3376673440d862a33612168565b610c377f189ab7a9244df0848122154315af71fe140f3db0fe014031783b0946b8c9d2e333612168565b610c617fb19546dff01e856fb3f010c267a7b1c60363cf8a4664e21cc89c26224620214e33612168565b8561012d5f6101000a81548173ffffffffffffffffffffffffffffffffffffffff021916908373ffffffffffffffffffffffffffffffffffffffff160217905550846101385f6101000a81548173ffffffffffffffffffffffffffffffffffffffff021916908373ffffffffffffffffffffffffffffffffffffffff1602179055508361012e5f6101000a81548173ffffffffffffffffffffffffffffffffffffffff021916908373ffffffffffffffffffffffffffffffffffffffff1602179055508261012f5f6101000a81548173ffffffffffffffffffffffffffffffffffffffff021916908373ffffffffffffffffffffffffffffffffffffffff160217905550816101305f6101000a81548173ffffffffffffffffffffffffffffffffffffffff021916908373ffffffffffffffffffffffffffffffffffffffff1602179055508015610dfe575f5f60016101000a81548160ff0219169083151502179055507f7f26b83ff96e1f2b6a682f133852f6798a09c465da95921460cefb38474024986001604051610df59190613348565b60405180910390a15b505050505050565b610133602052805f5260405f205f915054906101000a900473ffffffffffffffffffffffffffffffffffffffff1681565b5f60fb5f8381526020019081526020015f20600101549050919050565b610e5d82610e37565b610e6681611fd1565b610e708383612168565b505050565b610e7d612243565b73ffffffffffffffffffffffffffffffffffffffff168173ffffffffffffffffffffffffffffffffffffffff1614610eea576040517f08c379a0000000000000000000000000000000000000000000000000000000008152600401610ee1906133d1565b60405180910390fd5b610ef4828261224a565b5050565b7f000000000000000000000000000000000000000000000000000000000000000073ffffffffffffffffffffffffffffffffffffffff163073ffffffffffffffffffffffffffffffffffffffff1603610f86576040517f08c379a0000000000000000000000000000000000000000000000000000000008152600401610f7d9061345f565b60405180910390fd5b7f000000000000000000000000000000000000000000000000000000000000000073ffffffffffffffffffffffffffffffffffffffff16610fc5612325565b73ffffffffffffffffffffffffffffffffffffffff161461101b576040517f08c379a0000000000000000000000000000000000000000000000000000000008152600401611012906134ed565b60405180910390fd5b61102481612378565b61107b815f67ffffffffffffffff81111561104257611041612f2d565b5b6040519080825280601f01601f1916602001820160405280156110745781602001600182028036833780820191505090505b505f6123a6565b50565b7f65d7a28e3265b37a6474929f336521b332c1681b933f6cb9f3376673440d862a6110a881611fd1565b6110b0612510565b50565b61012e5f9054906101000a900473ffffffffffffffffffffffffffffffffffffffff1681565b7f000000000000000000000000000000000000000000000000000000000000000073ffffffffffffffffffffffffffffffffffffffff163073ffffffffffffffffffffffffffffffffffffffff1603611167576040517f08c379a000000000000000000000000000000000000000000000000000000000815260040161115e9061345f565b60405180910390fd5b7f000000000000000000000000000000000000000000000000000000000000000073ffffffffffffffffffffffffffffffffffffffff166111a6612325565b73ffffffffffffffffffffffffffffffffffffffff16146111fc576040517f08c379a00000000000000000000000000000000000000000000000000000000081526004016111f3906134ed565b60405180910390fd5b61120582612378565b611211828260016123a6565b5050565b7fb19546dff01e856fb3f010c267a7b1c60363cf8a4664e21cc89c26224620214e61123f81611fd1565b816101315f6101000a81548173ffffffffffffffffffffffffffffffffffffffff021916908373ffffffffffffffffffffffffffffffffffffffff1602179055508173ffffffffffffffffffffffffffffffffffffffff167f141c8827a0e1bf1f8e0a0f1d0b4fce811fd3b387abb10419267afc2b7458377660405160405180910390a25050565b5f7f000000000000000000000000000000000000000000000000000000000000000073ffffffffffffffffffffffffffffffffffffffff163073ffffffffffffffffffffffffffffffffffffffff1614611356576040517f08c379a000000000000000000000000000000000000000000000000000000000815260040161134d9061357b565b60405180910390fd5b7f360894a13ba1a3210667c828492db98dca3e2076cc3735a920a3ca505d382bbc5f1b905090565b7fb19546dff01e856fb3f010c267a7b1c60363cf8a4664e21cc89c26224620214e6113a881611fd1565b816101345f8573ffffffffffffffffffffffffffffffffffffffff1673ffffffffffffffffffffffffffffffffffffffff1681526020019081526020015f205f6101000a81548160ff0219169083151502179055508273ffffffffffffffffffffffffffffffffffffffff167f1a594081ae893ab78e67d9b9e843547318164322d32c65369d78a96172d9dc8f836040516114439190612d99565b60405180910390a2505050565b7fb19546dff01e856fb3f010c267a7b1c60363cf8a4664e21cc89c26224620214e61147a81611fd1565b8161012d5f6101000a81548173ffffffffffffffffffffffffffffffffffffffff021916908373ffffffffffffffffffffffffffffffffffffffff1602179055508173ffffffffffffffffffffffffffffffffffffffff167fdfccf581ae27a41845f39125ccb5ef00c0a079c5bf3bf751ecd2045e2d6d442f60405160405180910390a25050565b5f60335f9054906101000a900460ff16905090565b6101325f9054906101000a900473ffffffffffffffffffffffffffffffffffffffff1681565b5f5f6101385f9054906101000a900473ffffffffffffffffffffffffffffffffffffffff1673ffffffffffffffffffffffffffffffffffffffff1663028731b2308787876040518563ffffffff1660e01b81526004016115a09493929190613599565b6020604051808303815f875af11580156115bc573d5f5f3e3d5ffd5b505050506040513d601f19601f820116820180604052508101906115e091906135f0565b90505f61012e5f9054906101000a900473ffffffffffffffffffffffffffffffffffffffff1673ffffffffffffffffffffffffffffffffffffffff16637b8cabb6836040518263ffffffff1660e01b815260040161163e9190612e38565b6020604051808303815f875af115801561165a573d5f5f3e3d5ffd5b505050506040513d601f19601f8201168201806040525081019061167e91906135f0565b90508173ffffffffffffffffffffffffffffffffffffffff1663113aa8b1826040518263ffffffff1660e01b81526004016116b99190612e38565b5f604051808303815f87803b1580156116d0575f5ffd5b505af11580156116e2573d5f5f3e3d5ffd5b5050505061013660405180606001604052808873ffffffffffffffffffffffffffffffffffffffff1681526020018773ffffffffffffffffffffffffffffffffffffffff1681526020018373ffffffffffffffffffffffffffffffffffffffff16815250908060018154018082558091505060019003905f5260205f2090600302015f909190919091505f820151815f015f6101000a81548173ffffffffffffffffffffffffffffffffffffffff021916908373ffffffffffffffffffffffffffffffffffffffff1602179055506020820151816001015f6101000a81548173ffffffffffffffffffffffffffffffffffffffff021916908373ffffffffffffffffffffffffffffffffffffffff1602179055506040820151816002015f6101000a81548173ffffffffffffffffffffffffffffffffffffffff021916908373ffffffffffffffffffffffffffffffffffffffff16021790555050506101375f81548092919061185190613648565b91905055508073ffffffffffffffffffffffffffffffffffffffff168573ffffffffffffffffffffffffffffffffffffffff168773ffffffffffffffffffffffffffffffffffffffff167f96002a27cd438afd06fa237c8247c8c03b0c94c7d214d44fc735abd710bcc8c0876040516118ca9190613243565b60405180910390a480925050509392505050565b7f65d7a28e3265b37a6474929f336521b332c1681b933f6cb9f3376673440d862a61190881611fd1565b611910612571565b50565b61012f5f9054906101000a900473ffffffffffffffffffffffffffffffffffffffff1681565b7fb19546dff01e856fb3f010c267a7b1c60363cf8a4664e21cc89c26224620214e61196381611fd1565b816101385f6101000a81548173ffffffffffffffffffffffffffffffffffffffff021916908373ffffffffffffffffffffffffffffffffffffffff1602179055508173ffffffffffffffffffffffffffffffffffffffff167f1f4863d4b849d378969f0cf16d48d4a72c921b296c978602cab2cb4aa5d32d4e60405160405180910390a25050565b5f60fb5f8481526020019081526020015f205f015f8373ffffffffffffffffffffffffffffffffffffffff1673ffffffffffffffffffffffffffffffffffffffff1681526020019081526020015f205f9054906101000a900460ff16905092915050565b610134602052805f5260405f205f915054906101000a900460ff1681565b5f5f1b81565b6101368181548110611a83575f80fd5b905f5260205f2090600302015f91509050805f015f9054906101000a900473ffffffffffffffffffffffffffffffffffffffff1690806001015f9054906101000a900473ffffffffffffffffffffffffffffffffffffffff1690806002015f9054906101000a900473ffffffffffffffffffffffffffffffffffffffff16905083565b6101305f9054906101000a900473ffffffffffffffffffffffffffffffffffffffff1681565b611b3582610e37565b611b3e81611fd1565b611b48838361224a565b505050565b6101315f9054906101000a900473ffffffffffffffffffffffffffffffffffffffff1681565b7fb19546dff01e856fb3f010c267a7b1c60363cf8a4664e21cc89c26224620214e611b9d81611fd1565b816101335f8573ffffffffffffffffffffffffffffffffffffffff1673ffffffffffffffffffffffffffffffffffffffff1681526020019081526020015f205f6101000a81548173ffffffffffffffffffffffffffffffffffffffff021916908373ffffffffffffffffffffffffffffffffffffffff1602179055508173ffffffffffffffffffffffffffffffffffffffff168373ffffffffffffffffffffffffffffffffffffffff167fc5f200bc64f9d16d888ec9eaec566ef2155fab997cb7210a15722b06e32a3c7060405160405180910390a3505050565b61012d5f9054906101000a900473ffffffffffffffffffffffffffffffffffffffff1681565b7fb19546dff01e856fb3f010c267a7b1c60363cf8a4664e21cc89c26224620214e81565b7f65d7a28e3265b37a6474929f336521b332c1681b933f6cb9f3376673440d862a81565b6101385f9054906101000a900473ffffffffffffffffffffffffffffffffffffffff1681565b610135602052805f5260405f205f915054906101000a900473ffffffffffffffffffffffffffffffffffffffff1681565b7fb19546dff01e856fb3f010c267a7b1c60363cf8a4664e21cc89c26224620214e611d6781611fd1565b816101355f8573ffffffffffffffffffffffffffffffffffffffff1673ffffffffffffffffffffffffffffffffffffffff1681526020019081526020015f205f6101000a81548173ffffffffffffffffffffffffffffffffffffffff021916908373ffffffffffffffffffffffffffffffffffffffff1602179055508173ffffffffffffffffffffffffffffffffffffffff168373ffffffffffffffffffffffffffffffffffffffff167f443eca89ae0d91090321746b66b1e5a800bf4f33b317a7dbc01dc310b55c329160405160405180910390a3505050565b6101375481565b7f189ab7a9244df0848122154315af71fe140f3db0fe014031783b0946b8c9d2e381565b7fb19546dff01e856fb3f010c267a7b1c60363cf8a4664e21cc89c26224620214e611e9781611fd1565b816101325f6101000a81548173ffffffffffffffffffffffffffffffffffffffff021916908373ffffffffffffffffffffffffffffffffffffffff1602179055508173ffffffffffffffffffffffffffffffffffffffff167f0b7d876ae8d87054bd191d9a2294c7bc50817a9efd22cb0376d4b14838eb271c60405160405180910390a25050565b7fb19546dff01e856fb3f010c267a7b1c60363cf8a4664e21cc89c26224620214e611f4981611fd1565b816101305f6101000a81548173ffffffffffffffffffffffffffffffffffffffff021916908373ffffffffffffffffffffffffffffffffffffffff1602179055508173ffffffffffffffffffffffffffffffffffffffff167f87f38b33506619f9f981cdf0439928c07e8478960e3b27545f27bae983b1ff8b60405160405180910390a25050565b611fe281611fdd612243565b6125d3565b50565b5f7f01ffc9a7000000000000000000000000000000000000000000000000000000007bffffffffffffffffffffffffffffffffffffffffffffffffffffffff1916827bffffffffffffffffffffffffffffffffffffffffffffffffffffffff1916149050919050565b5f5f8273ffffffffffffffffffffffffffffffffffffffff163b119050919050565b5f60019054906101000a900460ff166120be576040517f08c379a00000000000000000000000000000000000000000000000000000000081526004016120b5906136ff565b60405180910390fd5b6120c6612657565b565b5f60019054906101000a900460ff16612116576040517f08c379a000000000000000000000000000000000000000000000000000000000815260040161210d906136ff565b60405180910390fd5b565b5f60019054906101000a900460ff16612166576040517f08c379a000000000000000000000000000000000000000000000000000000000815260040161215d906136ff565b60405180910390fd5b565b61217282826119eb565b61223f57600160fb5f8481526020019081526020015f205f015f8373ffffffffffffffffffffffffffffffffffffffff1673ffffffffffffffffffffffffffffffffffffffff1681526020019081526020015f205f6101000a81548160ff0219169083151502179055506121e4612243565b73ffffffffffffffffffffffffffffffffffffffff168173ffffffffffffffffffffffffffffffffffffffff16837f2f8788117e7eff1d82e926ec794901d17c78024a50270940304540a733656f0d60405160405180910390a45b5050565b5f33905090565b61225482826119eb565b15612321575f60fb5f8481526020019081526020015f205f015f8373ffffffffffffffffffffffffffffffffffffffff1673ffffffffffffffffffffffffffffffffffffffff1681526020019081526020015f205f6101000a81548160ff0219169083151502179055506122c6612243565b73ffffffffffffffffffffffffffffffffffffffff168173ffffffffffffffffffffffffffffffffffffffff16837ff6391f5c32d9c69d2a47ea670b442974b53935d1edc7fd64eb21e047a839171b60405160405180910390a45b5050565b5f6123517f360894a13ba1a3210667c828492db98dca3e2076cc3735a920a3ca505d382bbc5f1b6126c0565b5f015f9054906101000a900473ffffffffffffffffffffffffffffffffffffffff16905090565b7f189ab7a9244df0848122154315af71fe140f3db0fe014031783b0946b8c9d2e36123a281611fd1565b5050565b6123d17f4910fdfa16fed3260ed0e7147f7cc6da11a60208b5b9406d12a635614ffd91435f1b6126c9565b5f015f9054906101000a900460ff16156123f3576123ee836126d2565b61250b565b8273ffffffffffffffffffffffffffffffffffffffff166352d1902d6040518163ffffffff1660e01b8152600401602060405180830381865afa92505050801561245b57506040513d601f19601f820116820180604052508101906124589190613731565b60015b61249a576040517f08c379a0000000000000000000000000000000000000000000000000000000008152600401612491906137cc565b60405180910390fd5b7f360894a13ba1a3210667c828492db98dca3e2076cc3735a920a3ca505d382bbc5f1b81146124fe576040517f08c379a00000000000000000000000000000000000000000000000000000000081526004016124f59061385a565b60405180910390fd5b5061250a838383612788565b5b505050565b6125186127b3565b5f60335f6101000a81548160ff0219169083151502179055507f5db9ee0a495bf2e6ff9c91a7834c1ba4fdd244a5e8aa4e537bd38aeae4b073aa61255a612243565b6040516125679190612e38565b60405180910390a1565b6125796127fc565b600160335f6101000a81548160ff0219169083151502179055507f62e78cea01bee320cd4e420270b5ea74000d11b0c9f74754ebdbfc544b05a2586125bc612243565b6040516125c99190612e38565b60405180910390a1565b6125dd82826119eb565b612653576125ea81612846565b6125f7835f1c6020612873565b60405160200161260892919061395e565b6040516020818303038152906040526040517f08c379a000000000000000000000000000000000000000000000000000000000815260040161264a91906139cf565b60405180910390fd5b5050565b5f60019054906101000a900460ff166126a5576040517f08c379a000000000000000000000000000000000000000000000000000000000815260040161269c906136ff565b60405180910390fd5b5f60335f6101000a81548160ff021916908315150217905550565b5f819050919050565b5f819050919050565b6126db8161204e565b61271a576040517f08c379a000000000000000000000000000000000000000000000000000000000815260040161271190613a5f565b60405180910390fd5b806127467f360894a13ba1a3210667c828492db98dca3e2076cc3735a920a3ca505d382bbc5f1b6126c0565b5f015f6101000a81548173ffffffffffffffffffffffffffffffffffffffff021916908373ffffffffffffffffffffffffffffffffffffffff16021790555050565b61279183612aa8565b5f8251118061279d5750805b156127ae576127ac8383612af7565b505b505050565b6127bb611502565b6127fa576040517f08c379a00000000000000000000000000000000000000000000000000000000081526004016127f190613ac7565b60405180910390fd5b565b612804611502565b15612844576040517f08c379a000000000000000000000000000000000000000000000000000000000815260040161283b90613b2f565b60405180910390fd5b565b606061286c8273ffffffffffffffffffffffffffffffffffffffff16601460ff16612873565b9050919050565b60605f60028360026128859190613b4d565b61288f9190613b8e565b67ffffffffffffffff8111156128a8576128a7612f2d565b5b6040519080825280601f01601f1916602001820160405280156128da5781602001600182028036833780820191505090505b5090507f3000000000000000000000000000000000000000000000000000000000000000815f8151811061291157612910613bc1565b5b60200101907effffffffffffffffffffffffffffffffffffffffffffffffffffffffffffff191690815f1a9053507f78000000000000000000000000000000000000000000000000000000000000008160018151811061297457612973613bc1565b5b60200101907effffffffffffffffffffffffffffffffffffffffffffffffffffffffffffff191690815f1a9053505f60018460026129b29190613b4d565b6129bc9190613b8e565b90505b6001811115612a5b577f3031323334353637383961626364656600000000000000000000000000000000600f8616601081106129fe576129fd613bc1565b5b1a60f81b828281518110612a1557612a14613bc1565b5b60200101907effffffffffffffffffffffffffffffffffffffffffffffffffffffffffffff191690815f1a905350600485901c945080612a5490613bee565b90506129bf565b505f8414612a9e576040517f08c379a0000000000000000000000000000000000000000000000000000000008152600401612a9590613c5f565b60405180910390fd5b8091505092915050565b612ab1816126d2565b8073ffffffffffffffffffffffffffffffffffffffff167fbc7cd75a20ee27fd9adebab32041f755214dbc6bffa90cc0225b39da2e5c2d3b60405160405180910390a250565b6060612b1c8383604051806060016040528060278152602001613d4060279139612b24565b905092915050565b60605f5f8573ffffffffffffffffffffffffffffffffffffffff1685604051612b4d9190613cc1565b5f60405180830381855af49150503d805f8114612b85576040519150601f19603f3d011682016040523d82523d5f602084013e612b8a565b606091505b5091509150612b9b86838387612ba6565b925050509392505050565b60608315612c07575f835103612bff57612bbf8561204e565b612bfe576040517f08c379a0000000000000000000000000000000000000000000000000000000008152600401612bf590613d21565b60405180910390fd5b5b829050612c12565b612c118383612c1a565b5b949350505050565b5f82511115612c2c5781518083602001fd5b806040517f08c379a0000000000000000000000000000000000000000000000000000000008152600401612c6091906139cf565b60405180910390fd5b5f604051905090565b5f5ffd5b5f5ffd5b5f73ffffffffffffffffffffffffffffffffffffffff82169050919050565b5f612ca382612c7a565b9050919050565b612cb381612c99565b8114612cbd575f5ffd5b50565b5f81359050612cce81612caa565b92915050565b5f60208284031215612ce957612ce8612c72565b5b5f612cf684828501612cc0565b91505092915050565b5f7fffffffff0000000000000000000000000000000000000000000000000000000082169050919050565b612d3381612cff565b8114612d3d575f5ffd5b50565b5f81359050612d4e81612d2a565b92915050565b5f60208284031215612d6957612d68612c72565b5b5f612d7684828501612d40565b91505092915050565b5f8115159050919050565b612d9381612d7f565b82525050565b5f602082019050612dac5f830184612d8a565b92915050565b5f5f5f5f5f60a08688031215612dcb57612dca612c72565b5b5f612dd888828901612cc0565b9550506020612de988828901612cc0565b9450506040612dfa88828901612cc0565b9350506060612e0b88828901612cc0565b9250506080612e1c88828901612cc0565b9150509295509295909350565b612e3281612c99565b82525050565b5f602082019050612e4b5f830184612e29565b92915050565b5f819050919050565b612e6381612e51565b8114612e6d575f5ffd5b50565b5f81359050612e7e81612e5a565b92915050565b5f60208284031215612e9957612e98612c72565b5b5f612ea684828501612e70565b91505092915050565b612eb881612e51565b82525050565b5f602082019050612ed15f830184612eaf565b92915050565b5f5f60408385031215612eed57612eec612c72565b5b5f612efa85828601612e70565b9250506020612f0b85828601612cc0565b9150509250929050565b5f5ffd5b5f5ffd5b5f601f19601f8301169050919050565b7f4e487b71000000000000000000000000000000000000000000000000000000005f52604160045260245ffd5b612f6382612f1d565b810181811067ffffffffffffffff82111715612f8257612f81612f2d565b5b80604052505050565b5f612f94612c69565b9050612fa08282612f5a565b919050565b5f67ffffffffffffffff821115612fbf57612fbe612f2d565b5b612fc882612f1d565b9050602081019050919050565b828183375f83830152505050565b5f612ff5612ff084612fa5565b612f8b565b90508281526020810184848401111561301157613010612f19565b5b61301c848285612fd5565b509392505050565b5f82601f83011261303857613037612f15565b5b8135613048848260208601612fe3565b91505092915050565b5f5f6040838503121561306757613066612c72565b5b5f61307485828601612cc0565b925050602083013567ffffffffffffffff81111561309557613094612c76565b5b6130a185828601613024565b9150509250929050565b6130b481612d7f565b81146130be575f5ffd5b50565b5f813590506130cf816130ab565b92915050565b5f5f604083850312156130eb576130ea612c72565b5b5f6130f885828601612cc0565b9250506020613109858286016130c1565b9150509250929050565b5f819050919050565b61312581613113565b811461312f575f5ffd5b50565b5f813590506131408161311c565b92915050565b5f5f5f6060848603121561315d5761315c612c72565b5b5f61316a86828701612cc0565b935050602061317b86828701612cc0565b925050604061318c86828701613132565b9150509250925092565b5f602082840312156131ab576131aa612c72565b5b5f6131b884828501613132565b91505092915050565b5f6060820190506131d45f830186612e29565b6131e16020830185612e29565b6131ee6040830184612e29565b949350505050565b5f5f6040838503121561320c5761320b612c72565b5b5f61321985828601612cc0565b925050602061322a85828601612cc0565b9150509250929050565b61323d81613113565b82525050565b5f6020820190506132565f830184613234565b92915050565b5f82825260208201905092915050565b7f496e697469616c697a61626c653a20636f6e747261637420697320616c7265615f8201527f647920696e697469616c697a6564000000000000000000000000000000000000602082015250565b5f6132c6602e8361325c565b91506132d18261326c565b604082019050919050565b5f6020820190508181035f8301526132f3816132ba565b9050919050565b5f819050919050565b5f60ff82169050919050565b5f819050919050565b5f61333261332d613328846132fa565b61330f565b613303565b9050919050565b61334281613318565b82525050565b5f60208201905061335b5f830184613339565b92915050565b7f416363657373436f6e74726f6c3a2063616e206f6e6c792072656e6f756e63655f8201527f20726f6c657320666f722073656c660000000000000000000000000000000000602082015250565b5f6133bb602f8361325c565b91506133c682613361565b604082019050919050565b5f6020820190508181035f8301526133e8816133af565b9050919050565b7f46756e6374696f6e206d7573742062652063616c6c6564207468726f756768205f8201527f64656c656761746563616c6c0000000000000000000000000000000000000000602082015250565b5f613449602c8361325c565b9150613454826133ef565b604082019050919050565b5f6020820190508181035f8301526134768161343d565b9050919050565b7f46756e6374696f6e206d7573742062652063616c6c6564207468726f756768205f8201527f6163746976652070726f78790000000000000000000000000000000000000000602082015250565b5f6134d7602c8361325c565b91506134e28261347d565b604082019050919050565b5f6020820190508181035f830152613504816134cb565b9050919050565b7f555550535570677261646561626c653a206d757374206e6f742062652063616c5f8201527f6c6564207468726f7567682064656c656761746563616c6c0000000000000000602082015250565b5f61356560388361325c565b91506135708261350b565b604082019050919050565b5f6020820190508181035f83015261359281613559565b9050919050565b5f6080820190506135ac5f830187612e29565b6135b96020830186612e29565b6135c66040830185612e29565b6135d36060830184613234565b95945050505050565b5f815190506135ea81612caa565b92915050565b5f6020828403121561360557613604612c72565b5b5f613612848285016135dc565b91505092915050565b7f4e487b71000000000000000000000000000000000000000000000000000000005f52601160045260245ffd5b5f61365282613113565b91507fffffffffffffffffffffffffffffffffffffffffffffffffffffffffffffffff82036136845761368361361b565b5b600182019050919050565b7f496e697469616c697a61626c653a20636f6e7472616374206973206e6f7420695f8201527f6e697469616c697a696e67000000000000000000000000000000000000000000602082015250565b5f6136e9602b8361325c565b91506136f48261368f565b604082019050919050565b5f6020820190508181035f830152613716816136dd565b9050919050565b5f8151905061372b81612e5a565b92915050565b5f6020828403121561374657613745612c72565b5b5f6137538482850161371d565b91505092915050565b7f45524331393637557067726164653a206e657720696d706c656d656e746174695f8201527f6f6e206973206e6f742055555053000000000000000000000000000000000000602082015250565b5f6137b6602e8361325c565b91506137c18261375c565b604082019050919050565b5f6020820190508181035f8301526137e3816137aa565b9050919050565b7f45524331393637557067726164653a20756e737570706f727465642070726f785f8201527f6961626c65555549440000000000000000000000000000000000000000000000602082015250565b5f61384460298361325c565b915061384f826137ea565b604082019050919050565b5f6020820190508181035f83015261387181613838565b9050919050565b5f81905092915050565b7f416363657373436f6e74726f6c3a206163636f756e74200000000000000000005f82015250565b5f6138b6601783613878565b91506138c182613882565b601782019050919050565b5f81519050919050565b8281835e5f83830152505050565b5f6138ee826138cc565b6138f88185613878565b93506139088185602086016138d6565b80840191505092915050565b7f206973206d697373696e6720726f6c65200000000000000000000000000000005f82015250565b5f613948601183613878565b915061395382613914565b601182019050919050565b5f613968826138aa565b915061397482856138e4565b915061397f8261393c565b915061398b82846138e4565b91508190509392505050565b5f6139a1826138cc565b6139ab818561325c565b93506139bb8185602086016138d6565b6139c481612f1d565b840191505092915050565b5f6020820190508181035f8301526139e78184613997565b905092915050565b7f455243313936373a206e657720696d706c656d656e746174696f6e206973206e5f8201527f6f74206120636f6e747261637400000000000000000000000000000000000000602082015250565b5f613a49602d8361325c565b9150613a54826139ef565b604082019050919050565b5f6020820190508181035f830152613a7681613a3d565b9050919050565b7f5061757361626c653a206e6f74207061757365640000000000000000000000005f82015250565b5f613ab160148361325c565b9150613abc82613a7d565b602082019050919050565b5f6020820190508181035f830152613ade81613aa5565b9050919050565b7f5061757361626c653a20706175736564000000000000000000000000000000005f82015250565b5f613b1960108361325c565b9150613b2482613ae5565b602082019050919050565b5f6020820190508181035f830152613b4681613b0d565b9050919050565b5f613b5782613113565b9150613b6283613113565b9250828202613b7081613113565b91508282048414831517613b8757613b8661361b565b5b5092915050565b5f613b9882613113565b9150613ba383613113565b9250828201905080821115613bbb57613bba61361b565b5b92915050565b7f4e487b71000000000000000000000000000000000000000000000000000000005f52603260045260245ffd5b5f613bf882613113565b91505f8203613c0a57613c0961361b565b5b600182039050919050565b7f537472696e67733a20686578206c656e67746820696e73756666696369656e745f82015250565b5f613c4960208361325c565b9150613c5482613c15565b602082019050919050565b5f6020820190508181035f830152613c7681613c3d565b9050919050565b5f81519050919050565b5f81905092915050565b5f613c9b82613c7d565b613ca58185613c87565b9350613cb58185602086016138d6565b80840191505092915050565b5f613ccc8284613c91565b915081905092915050565b7f416464726573733a2063616c6c20746f206e6f6e2d636f6e74726163740000005f82015250565b5f613d0b601d8361325c565b9150613d1682613cd7565b602082019050919050565b5f6020820190508181035f830152613d3881613cff565b905091905056fe416464726573733a206c6f772d6c6576656c2064656c65676174652063616c6c206661696c6564a2646970667358221220552dd81f67e1447c06cb76c7526740897387e55edc5ed3db07ce31e2155ad23e64736f6c634300081e0033","linkReferences":{}},"methodIdentifiers":{"DEFAULT_ADMIN_ROLE()":"a217fddf","DEX_ROUTER()":"7af11ac0","OWNER_ROLE()":"e58378bb","PAUSER_ROLE()":"e63ab1e9","UPGRADER_ROLE()":"f72c0d8b","WRAPPED_NATIVE()":"d999984d","addTokenDataStream(address,address)":"e18487ca","createLendingPool(address,address,uint256)":"802de844","getRoleAdmin(bytes32)":"248a9ca3","grantRole(bytes32,address)":"2f2ff15d","hasRole(bytes32,address)":"91d14854","initialize(address,address,address,address,address)":"1459457a","isHealthy()":"e4020804","lendingPoolDeployer()":"42e681d8","lendingPoolRouterDeployer()":"e949f3c9","oftAddress(address)":"efe1b2cd","operator(address)":"9a307391","pause()":"8456cb59","paused()":"5c975abb","poolCount()":"f525cb68","pools(uint256)":"ac4afa38","positionDeployer()":"bd3b5471","protocol()":"8ce74426","proxiableUUID()":"52d1902d","renounceRole(bytes32,address)":"36568abe","revokeRole(bytes32,address)":"d547741f","setDexRouter(address)":"f72f863b","setIsHealthy(address)":"59917d7d","setLendingPoolDeployer(address)":"00546b2a","setLendingPoolRouterDeployer(address)":"8dc15a66","setOftAddress(address,address)":"f09a0d6b","setOperator(address,bool)":"558a7297","setPositionDeployer(address)":"f8446dcd","setProtocol(address)":"0a9d793d","setWrappedNative(address)":"52cb60ca","supportsInterface(bytes4)":"01ffc9a7","tokenDataStream(address)":"1d43335a","unpause()":"3f4ba83a","upgradeTo(address)":"3659cfe6","upgradeToAndCall(address,bytes)":"4f1ef286"},"id":136}