{"abi":[{"type":"constructor","inputs":[{"name":"srcEidInfos","type":"tuple[]","internalType":"struct ISrcEidLib.SrcEidInfo[]","components":[{"name":"eid","type":"uint32","internalType":"uint32"},{"name":"decimals","type":"uint8","internalType":"uint8"}]},{"name":"_owner","type":"address","internalType":"address"}],"stateMutability":"nonpayable"},{"type":"function","name":"owner","inputs":[],"outputs":[{"name":"","type":"address","internalType":"address"}],"stateMutability":"view"},{"type":"function","name":"renounceOwnership","inputs":[],"outputs":[],"stateMutability":"nonpayable"},{"type":"function","name":"setSrcEidInfo","inputs":[{"name":"srcEid","type":"uint32","internalType":"uint32"},{"name":"decimals","type":"uint8","internalType":"uint8"}],"outputs":[],"stateMutability":"nonpayable"},{"type":"function","name":"srcDecimals","inputs":[{"name":"","type":"uint32","internalType":"uint32"}],"outputs":[{"name":"","type":"uint8","internalType":"uint8"}],"stateMutability":"view"},{"type":"function","name":"transferOwnership","inputs":[{"name":"newOwner","type":"address","internalType":"address"}],"outputs":[],"stateMutability":"nonpayable"},{"type":"event","name":"OwnershipTransferred","inputs":[{"name":"previousOwner","type":"address","indexed":true,"internalType":"address"},{"name":"newOwner","type":"address","indexed":true,"internalType":"address"}],"anonymous":false},{"type":"error","name":"OwnableInvalidOwner","inputs":[{"name":"owner","type":"address","internalType":"address"}]},{"type":"error","name":"OwnableUnauthorizedAccount","inputs":[{"name":"account","type":"address","internalType":"address"}]}],"bytecode":{"object":"0x608060405234801561000f575f5ffd5b50604051610a75380380610a758339818101604052810190610031919061047e565b805f73ffffffffffffffffffffffffffffffffffffffff168173ffffffffffffffffffffffffffffffffffffffff16036100a2575f6040517f1e4fbdf700000000000000000000000000000000000000000000000000000000815260040161009991906104e7565b60405180910390fd5b6100b18161014260201b60201c565b505f5b825181101561013a578281815181106100d0576100cf610500565b5b60200260200101516020015160015f8584815181106100f2576100f1610500565b5b60200260200101515f015163ffffffff1663ffffffff1681526020019081526020015f205f6101000a81548160ff021916908360ff16021790555080806001019150506100b4565b50505061052d565b5f5f5f9054906101000a900473ffffffffffffffffffffffffffffffffffffffff169050815f5f6101000a81548173ffffffffffffffffffffffffffffffffffffffff021916908373ffffffffffffffffffffffffffffffffffffffff1602179055508173ffffffffffffffffffffffffffffffffffffffff168173ffffffffffffffffffffffffffffffffffffffff167f8be0079c531659141344cd1fd0a4f28419497f9722a3daafe3b4186f6b6457e060405160405180910390a35050565b5f604051905090565b5f5ffd5b5f5ffd5b5f5ffd5b5f601f19601f8301169050919050565b7f4e487b71000000000000000000000000000000000000000000000000000000005f52604160045260245ffd5b61025e82610218565b810181811067ffffffffffffffff8211171561027d5761027c610228565b5b80604052505050565b5f61028f610203565b905061029b8282610255565b919050565b5f67ffffffffffffffff8211156102ba576102b9610228565b5b602082029050602081019050919050565b5f5ffd5b5f5ffd5b5f63ffffffff82169050919050565b6102eb816102d3565b81146102f5575f5ffd5b50565b5f81519050610306816102e2565b92915050565b5f60ff82169050919050565b6103218161030c565b811461032b575f5ffd5b50565b5f8151905061033c81610318565b92915050565b5f60408284031215610357576103566102cf565b5b6103616040610286565b90505f610370848285016102f8565b5f8301525060206103838482850161032e565b60208301525092915050565b5f6103a161039c846102a0565b610286565b905080838252602082019050604084028301858111156103c4576103c36102cb565b5b835b818110156103ed57806103d98882610342565b8452602084019350506040810190506103c6565b5050509392505050565b5f82601f83011261040b5761040a610214565b5b815161041b84826020860161038f565b91505092915050565b5f73ffffffffffffffffffffffffffffffffffffffff82169050919050565b5f61044d82610424565b9050919050565b61045d81610443565b8114610467575f5ffd5b50565b5f8151905061047881610454565b92915050565b5f5f604083850312156104945761049361020c565b5b5f83015167ffffffffffffffff8111156104b1576104b0610210565b5b6104bd858286016103f7565b92505060206104ce8582860161046a565b9150509250929050565b6104e181610443565b82525050565b5f6020820190506104fa5f8301846104d8565b92915050565b7f4e487b71000000000000000000000000000000000000000000000000000000005f52603260045260245ffd5b61053b8061053a5f395ff3fe608060405234801561000f575f5ffd5b5060043610610055575f3560e01c8063715018a6146100595780638da5cb5b1461006357806392e3c75814610081578063f2fde38b146100b1578063f81ac3ef146100cd575b5f5ffd5b6100616100e9565b005b61006b6100fc565b6040516100789190610393565b60405180910390f35b61009b600480360381019061009691906103e9565b610123565b6040516100a8919061042f565b60405180910390f35b6100cb60048036038101906100c69190610472565b610140565b005b6100e760048036038101906100e291906104c7565b6101c4565b005b6100f1610205565b6100fa5f61028c565b565b5f5f5f9054906101000a900473ffffffffffffffffffffffffffffffffffffffff16905090565b6001602052805f5260405f205f915054906101000a900460ff1681565b610148610205565b5f73ffffffffffffffffffffffffffffffffffffffff168173ffffffffffffffffffffffffffffffffffffffff16036101b8575f6040517f1e4fbdf70000000000000000000000000000000000000000000000000000000081526004016101af9190610393565b60405180910390fd5b6101c18161028c565b50565b6101cc610205565b8060015f8463ffffffff1663ffffffff1681526020019081526020015f205f6101000a81548160ff021916908360ff1602179055505050565b61020d61034d565b73ffffffffffffffffffffffffffffffffffffffff1661022b6100fc565b73ffffffffffffffffffffffffffffffffffffffff161461028a5761024e61034d565b6040517f118cdaa70000000000000000000000000000000000000000000000000000000081526004016102819190610393565b60405180910390fd5b565b5f5f5f9054906101000a900473ffffffffffffffffffffffffffffffffffffffff169050815f5f6101000a81548173ffffffffffffffffffffffffffffffffffffffff021916908373ffffffffffffffffffffffffffffffffffffffff1602179055508173ffffffffffffffffffffffffffffffffffffffff168173ffffffffffffffffffffffffffffffffffffffff167f8be0079c531659141344cd1fd0a4f28419497f9722a3daafe3b4186f6b6457e060405160405180910390a35050565b5f33905090565b5f73ffffffffffffffffffffffffffffffffffffffff82169050919050565b5f61037d82610354565b9050919050565b61038d81610373565b82525050565b5f6020820190506103a65f830184610384565b92915050565b5f5ffd5b5f63ffffffff82169050919050565b6103c8816103b0565b81146103d2575f5ffd5b50565b5f813590506103e3816103bf565b92915050565b5f602082840312156103fe576103fd6103ac565b5b5f61040b848285016103d5565b91505092915050565b5f60ff82169050919050565b61042981610414565b82525050565b5f6020820190506104425f830184610420565b92915050565b61045181610373565b811461045b575f5ffd5b50565b5f8135905061046c81610448565b92915050565b5f60208284031215610487576104866103ac565b5b5f6104948482850161045e565b91505092915050565b6104a681610414565b81146104b0575f5ffd5b50565b5f813590506104c18161049d565b92915050565b5f5f604083850312156104dd576104dc6103ac565b5b5f6104ea858286016103d5565b92505060206104fb858286016104b3565b915050925092905056fea2646970667358221220888e2d41159e4228c24ecaa0466a660905a97e8abfd254f94ed7dcf5c7d3300e64736f6c634300081c0033","linkReferences":{}},"methodIdentifiers":{"owner()":"8da5cb5b","renounceOwnership()":"715018a6","setSrcEidInfo(uint32,uint8)":"f81ac3ef","srcDecimals(uint32)":"92e3c758","transferOwnership(address)":"f2fde38b"},"id":167}