{"abi":[{"type":"constructor","inputs":[],"stateMutability":"nonpayable"},{"type":"function","name":"deployLendingPoolRouter","inputs":[{"name":"_factory","type":"address","internalType":"address"},{"name":"_collateralToken","type":"address","internalType":"address"},{"name":"_borrowToken","type":"address","internalType":"address"},{"name":"_ltv","type":"uint256","internalType":"uint256"}],"outputs":[{"name":"","type":"address","internalType":"address"}],"stateMutability":"nonpayable"},{"type":"function","name":"factory","inputs":[],"outputs":[{"name":"","type":"address","internalType":"address"}],"stateMutability":"view"},{"type":"function","name":"owner","inputs":[],"outputs":[{"name":"","type":"address","internalType":"address"}],"stateMutability":"view"},{"type":"function","name":"renounceOwnership","inputs":[],"outputs":[],"stateMutability":"nonpayable"},{"type":"function","name":"router","inputs":[],"outputs":[{"name":"","type":"address","internalType":"contract LendingPoolRouter"}],"stateMutability":"view"},{"type":"function","name":"setFactory","inputs":[{"name":"_factory","type":"address","internalType":"address"}],"outputs":[],"stateMutability":"nonpayable"},{"type":"function","name":"transferOwnership","inputs":[{"name":"newOwner","type":"address","internalType":"address"}],"outputs":[],"stateMutability":"nonpayable"},{"type":"event","name":"LendingPoolRouterDeployed","inputs":[{"name":"router","type":"address","indexed":true,"internalType":"address"},{"name":"collateralToken","type":"address","indexed":true,"internalType":"address"},{"name":"borrowToken","type":"address","indexed":true,"internalType":"address"},{"name":"ltv","type":"uint256","indexed":false,"internalType":"uint256"}],"anonymous":false},{"type":"event","name":"OwnershipTransferred","inputs":[{"name":"previousOwner","type":"address","indexed":true,"internalType":"address"},{"name":"newOwner","type":"address","indexed":true,"internalType":"address"}],"anonymous":false},{"type":"error","name":"OnlyFactoryCanCall","inputs":[]},{"type":"error","name":"OwnableInvalidOwner","inputs":[{"name":"owner","type":"address","internalType":"address"}]},{"type":"error","name":"OwnableUnauthorizedAccount","inputs":[{"name":"account","type":"address","internalType":"address"}]}],"bytecode":{"object":"0x608060405234801561000f575f5ffd5b50335f73ffffffffffffffffffffffffffffffffffffffff168173ffffffffffffffffffffffffffffffffffffffff1603610081575f6040517f1e4fbdf70000000000000000000000000000000000000000000000000000000081526004016100789190610196565b60405180910390fd5b6100908161009660201b60201c565b506101af565b5f5f5f9054906101000a900473ffffffffffffffffffffffffffffffffffffffff169050815f5f6101000a81548173ffffffffffffffffffffffffffffffffffffffff021916908373ffffffffffffffffffffffffffffffffffffffff1602179055508173ffffffffffffffffffffffffffffffffffffffff168173ffffffffffffffffffffffffffffffffffffffff167f8be0079c531659141344cd1fd0a4f28419497f9722a3daafe3b4186f6b6457e060405160405180910390a35050565b5f73ffffffffffffffffffffffffffffffffffffffff82169050919050565b5f61018082610157565b9050919050565b61019081610176565b82525050565b5f6020820190506101a95f830184610187565b92915050565b612ec5806101bc5f395ff3fe608060405234801561000f575f5ffd5b506004361061007b575f3560e01c80638da5cb5b116100595780638da5cb5b146100d5578063c45a0155146100f3578063f2fde38b14610111578063f887ea401461012d5761007b565b8063028731b21461007f5780635bb47808146100af578063715018a6146100cb575b5f5ffd5b6100996004803603810190610094919061065d565b61014b565b6040516100a691906106d0565b60405180910390f35b6100c960048036038101906100c491906106e9565b610295565b005b6100d36102e0565b005b6100dd6102f3565b6040516100ea91906106d0565b60405180910390f35b6100fb61031a565b60405161010891906106d0565b60405180910390f35b61012b600480360381019061012691906106e9565b61033f565b005b6101356103c3565b604051610142919061076f565b60405180910390f35b5f6101546103e8565b5f85858585604051610165906105bf565b610173959493929190610797565b604051809103905ff08015801561018c573d5f5f3e3d5ffd5b5060015f6101000a81548173ffffffffffffffffffffffffffffffffffffffff021916908373ffffffffffffffffffffffffffffffffffffffff1602179055508273ffffffffffffffffffffffffffffffffffffffff168473ffffffffffffffffffffffffffffffffffffffff1660015f9054906101000a900473ffffffffffffffffffffffffffffffffffffffff1673ffffffffffffffffffffffffffffffffffffffff167f25ef86fa8a09c9f8595ea0fff346834a0342fd196fb464f8b6689caafd9112fc8560405161026191906107e8565b60405180910390a460015f9054906101000a900473ffffffffffffffffffffffffffffffffffffffff169050949350505050565b61029d610470565b8060025f6101000a81548173ffffffffffffffffffffffffffffffffffffffff021916908373ffffffffffffffffffffffffffffffffffffffff16021790555050565b6102e8610470565b6102f15f6104f7565b565b5f5f5f9054906101000a900473ffffffffffffffffffffffffffffffffffffffff16905090565b60025f9054906101000a900473ffffffffffffffffffffffffffffffffffffffff1681565b610347610470565b5f73ffffffffffffffffffffffffffffffffffffffff168173ffffffffffffffffffffffffffffffffffffffff16036103b7575f6040517f1e4fbdf70000000000000000000000000000000000000000000000000000000081526004016103ae91906106d0565b60405180910390fd5b6103c0816104f7565b50565b60015f9054906101000a900473ffffffffffffffffffffffffffffffffffffffff1681565b60025f9054906101000a900473ffffffffffffffffffffffffffffffffffffffff1673ffffffffffffffffffffffffffffffffffffffff163373ffffffffffffffffffffffffffffffffffffffff161461046e576040517f0234e5ea00000000000000000000000000000000000000000000000000000000815260040160405180910390fd5b565b6104786105b8565b73ffffffffffffffffffffffffffffffffffffffff166104966102f3565b73ffffffffffffffffffffffffffffffffffffffff16146104f5576104b96105b8565b6040517f118cdaa70000000000000000000000000000000000000000000000000000000081526004016104ec91906106d0565b60405180910390fd5b565b5f5f5f9054906101000a900473ffffffffffffffffffffffffffffffffffffffff169050815f5f6101000a81548173ffffffffffffffffffffffffffffffffffffffff021916908373ffffffffffffffffffffffffffffffffffffffff1602179055508173ffffffffffffffffffffffffffffffffffffffff168173ffffffffffffffffffffffffffffffffffffffff167f8be0079c531659141344cd1fd0a4f28419497f9722a3daafe3b4186f6b6457e060405160405180910390a35050565b5f33905090565b61268e8061080283390190565b5f5ffd5b5f73ffffffffffffffffffffffffffffffffffffffff82169050919050565b5f6105f9826105d0565b9050919050565b610609816105ef565b8114610613575f5ffd5b50565b5f8135905061062481610600565b92915050565b5f819050919050565b61063c8161062a565b8114610646575f5ffd5b50565b5f8135905061065781610633565b92915050565b5f5f5f5f60808587031215610675576106746105cc565b5b5f61068287828801610616565b945050602061069387828801610616565b93505060406106a487828801610616565b92505060606106b587828801610649565b91505092959194509250565b6106ca816105ef565b82525050565b5f6020820190506106e35f8301846106c1565b92915050565b5f602082840312156106fe576106fd6105cc565b5b5f61070b84828501610616565b91505092915050565b5f819050919050565b5f61073761073261072d846105d0565b610714565b6105d0565b9050919050565b5f6107488261071d565b9050919050565b5f6107598261073e565b9050919050565b6107698161074f565b82525050565b5f6020820190506107825f830184610760565b92915050565b6107918161062a565b82525050565b5f60a0820190506107aa5f8301886106c1565b6107b760208301876106c1565b6107c460408301866106c1565b6107d160608301856106c1565b6107de6080830184610788565b9695505050505050565b5f6020820190506107fb5f830184610788565b9291505056fe608060405234801561000f575f5ffd5b5060405161268e38038061268e833981810160405281019061003191906101da565b8460095f6101000a81548173ffffffffffffffffffffffffffffffffffffffff021916908373ffffffffffffffffffffffffffffffffffffffff16021790555083600a5f6101000a81548173ffffffffffffffffffffffffffffffffffffffff021916908373ffffffffffffffffffffffffffffffffffffffff16021790555082600b5f6101000a81548173ffffffffffffffffffffffffffffffffffffffff021916908373ffffffffffffffffffffffffffffffffffffffff16021790555081600c5f6101000a81548173ffffffffffffffffffffffffffffffffffffffff021916908373ffffffffffffffffffffffffffffffffffffffff16021790555080600d81905550426008819055505050505050610251565b5f5ffd5b5f73ffffffffffffffffffffffffffffffffffffffff82169050919050565b5f6101768261014d565b9050919050565b6101868161016c565b8114610190575f5ffd5b50565b5f815190506101a18161017d565b92915050565b5f819050919050565b6101b9816101a7565b81146101c3575f5ffd5b50565b5f815190506101d4816101b0565b92915050565b5f5f5f5f5f60a086880312156101f3576101f2610149565b5b5f61020088828901610193565b955050602061021188828901610193565b945050604061022288828901610193565b935050606061023388828901610193565b9250506080610244888289016101c6565b9150509295509295909350565b6124308061025e5f395ff3fe608060405234801561000f575f5ffd5b50600436106101cd575f3560e01c806376f8996511610102578063ba7bde55116100a0578063f69f1e4a1161006f578063f69f1e4a14610524578063f79c380014610554578063f7e0ebf614610584578063f9ec9f28146105b4576101cd565b8063ba7bde55146104b0578063c45a0155146104ce578063d2a8607b146104ec578063e2a9f68014610508576101cd565b80639d058e67116100dc5780639d058e6714610437578063a59a99731461046a578063a6afed9514610488578063b2016bd414610492576101cd565b806376f89965146103e157806387105903146103fd57806394877fc414610419576101cd565b80634499ab621161016f5780634fd422df116101495780634fd422df14610345578063651e32961461037557806368fc0c9a146103935780636fb49d73146103c3576101cd565b80634499ab62146102eb578063456dc17a146103095780634a417a5314610327576101cd565b8063136cf1f7116101ab578063136cf1f71461024d5780631aad44c21461026b57806323aaf0bd1461028957806335fce80e146102b9576101cd565b80630af504cc146101d1578063113aa8b11461020157806311d9dbd31461021d575b5f5ffd5b6101eb60048036038101906101e69190611f80565b6105d2565b6040516101f89190611fcd565b60405180910390f35b61021b60048036038101906102169190611fe6565b61095f565b005b61023760048036038101906102329190611f80565b6109aa565b6040516102449190611fcd565b60405180910390f35b610255610aa4565b6040516102629190611fcd565b60405180910390f35b610273610aaa565b6040516102809190611fcd565b60405180910390f35b6102a3600480360381019061029e9190611fe6565b610ab0565b6040516102b09190611fcd565b60405180910390f35b6102d360048036038101906102ce9190611f80565b610ac5565b6040516102e293929190612011565b60405180910390f35b6102f3610e1c565b6040516103009190611fcd565b60405180910390f35b610311610e99565b60405161031e9190612055565b60405180910390f35b61032f610ebe565b60405161033c9190611fcd565b60405180910390f35b61035f600480360381019061035a9190611fe6565b610ef1565b60405161036c9190611fcd565b60405180910390f35b61037d610f06565b60405161038a9190611fcd565b60405180910390f35b6103ad60048036038101906103a89190611f80565b610fe5565b6040516103ba9190611fcd565b60405180910390f35b6103cb6111c9565b6040516103d89190611fcd565b60405180910390f35b6103fb60048036038101906103f6919061206e565b6111cf565b005b6104176004803603810190610412919061206e565b6114ed565b005b61042161169b565b60405161042e9190611fcd565b60405180910390f35b610451600480360381019061044c9190611f80565b6116a0565b60405161046194939291906120ac565b60405180910390f35b61047261189e565b60405161047f9190612055565b60405180910390f35b6104906118c3565b005b61049a61198b565b6040516104a79190612055565b60405180910390f35b6104b86119b0565b6040516104c59190611fcd565b60405180910390f35b6104d66119b6565b6040516104e39190612055565b60405180910390f35b6105066004803603810190610501919061206e565b6119db565b005b610522600480360381019061051d9190611fe6565b611a3a565b005b61053e60048036038101906105399190611fe6565b611b0c565b60405161054b9190611fcd565b60405180910390f35b61056e60048036038101906105699190611fe6565b611b21565b60405161057b9190612055565b60405180910390f35b61059e60048036038101906105999190611fe6565b611b51565b6040516105ab9190612055565b60405180910390f35b6105bc611d45565b6040516105c99190611fcd565b60405180910390f35b5f6105db611d4b565b8260065f8473ffffffffffffffffffffffffffffffffffffffff1673ffffffffffffffffffffffffffffffffffffffff1681526020019081526020015f2054101561069c5760065f8373ffffffffffffffffffffffffffffffffffffffff1673ffffffffffffffffffffffffffffffffffffffff1681526020019081526020015f2054836040517fb07e3bc40000000000000000000000000000000000000000000000000000000081526004016106939291906120ef565b60405180910390fd5b8260065f8473ffffffffffffffffffffffffffffffffffffffff1673ffffffffffffffffffffffffffffffffffffffff1681526020019081526020015f205f8282546106e89190612143565b925050819055505f60055f8473ffffffffffffffffffffffffffffffffffffffff1673ffffffffffffffffffffffffffffffffffffffff1681526020019081526020015f20541115610919575f600a5f9054906101000a900473ffffffffffffffffffffffffffffffffffffffff1673ffffffffffffffffffffffffffffffffffffffff1663e40208046040518163ffffffff1660e01b8152600401602060405180830381865afa15801561079f573d5f5f3e3d5ffd5b505050506040513d601f19601f820116820180604052508101906107c3919061218a565b90508073ffffffffffffffffffffffffffffffffffffffff16632e68f18e600c5f9054906101000a900473ffffffffffffffffffffffffffffffffffffffff16600a5f9054906101000a900473ffffffffffffffffffffffffffffffffffffffff1660075f8873ffffffffffffffffffffffffffffffffffffffff1673ffffffffffffffffffffffffffffffffffffffff1681526020019081526020015f205f9054906101000a900473ffffffffffffffffffffffffffffffffffffffff16600d5460025460035460055f8c73ffffffffffffffffffffffffffffffffffffffff1673ffffffffffffffffffffffffffffffffffffffff1681526020019081526020015f20546040518863ffffffff1660e01b81526004016108eb97969594939291906121b5565b5f6040518083038186803b158015610901575f5ffd5b505afa158015610913573d5f5f3e3d5ffd5b50505050505b60065f8373ffffffffffffffffffffffffffffffffffffffff1673ffffffffffffffffffffffffffffffffffffffff1681526020019081526020015f2054905092915050565b610967611dd3565b8060095f6101000a81548173ffffffffffffffffffffffffffffffffffffffff021916908373ffffffffffffffffffffffffffffffffffffffff16021790555050565b5f6109b3611d4b565b5f83036109ec576040517f1f2a200500000000000000000000000000000000000000000000000000000000815260040160405180910390fd5b5f90505f5f54036109ff57829050610a1c565b5f5460015484610a0f9190612222565b610a199190612290565b90505b8060045f8473ffffffffffffffffffffffffffffffffffffffff1673ffffffffffffffffffffffffffffffffffffffff1681526020019081526020015f205f828254610a6891906122c0565b925050819055508060015f828254610a8091906122c0565b92505081905550825f5f828254610a9791906122c0565b9250508190555092915050565b60035481565b60025481565b6004602052805f5260405f205f915090505481565b5f5f5f610ad0611d4b565b5f8503610b09576040517f1f2a200500000000000000000000000000000000000000000000000000000000815260040160405180910390fd5b5f90505f60035403610b1d57849050610b3b565b60025460035486610b2e9190612222565b610b389190612290565b90505b8060055f8673ffffffffffffffffffffffffffffffffffffffff1673ffffffffffffffffffffffffffffffffffffffff1681526020019081526020015f205f828254610b8791906122c0565b925050819055508060035f828254610b9f91906122c0565b925050819055508460025f828254610bb791906122c0565b92505081905550670de0b6b3a764000066038d7ea4c6800086610bda9190612222565b610be49190612290565b92508285610bf29190612143565b91505f546002541115610c31576040517fbb55fd2700000000000000000000000000000000000000000000000000000000815260040160405180910390fd5b5f600a5f9054906101000a900473ffffffffffffffffffffffffffffffffffffffff1673ffffffffffffffffffffffffffffffffffffffff1663e40208046040518163ffffffff1660e01b8152600401602060405180830381865afa158015610c9c573d5f5f3e3d5ffd5b505050506040513d601f19601f82011682018060405250810190610cc0919061218a565b90508073ffffffffffffffffffffffffffffffffffffffff16632e68f18e600c5f9054906101000a900473ffffffffffffffffffffffffffffffffffffffff16600a5f9054906101000a900473ffffffffffffffffffffffffffffffffffffffff1660075f8a73ffffffffffffffffffffffffffffffffffffffff1673ffffffffffffffffffffffffffffffffffffffff1681526020019081526020015f205f9054906101000a900473ffffffffffffffffffffffffffffffffffffffff16600d5460025460035460055f8e73ffffffffffffffffffffffffffffffffffffffff1673ffffffffffffffffffffffffffffffffffffffff1681526020019081526020015f20546040518863ffffffff1660e01b8152600401610de897969594939291906121b5565b5f6040518083038186803b158015610dfe575f5ffd5b505afa158015610e10573d5f5f3e3d5ffd5b50505050509250925092565b5f5f5f5403610e2d575f9050610e96565b5f610e36610f06565b90505f5f54612710600254610e4b9190612222565b610e559190612290565b90505f6103e890506305f5e10081612710610e709190612143565b8385610e7c9190612222565b610e869190612222565b610e909190612290565b93505050505b90565b600c5f9054906101000a900473ffffffffffffffffffffffffffffffffffffffff1681565b5f5f5f5403610ecf575f9050610eee565b5f54612710600254610ee19190612222565b610eeb9190612290565b90505b90565b6005602052805f5260405f205f915090505481565b5f5f5f5403610f19576101f49050610fe2565b5f5f54612710600254610f2c9190612222565b610f369190612290565b90505f60c890505f611f4090505f6103e890505f6113889050828511610f8a57828483610f639190612143565b86610f6e9190612222565b610f789190612290565b84610f8391906122c0565b9550610fdc565b5f8386610f979190612143565b90505f84612710610fa89190612143565b9050808484610fb79190612143565b83610fc29190612222565b610fcc9190612290565b84610fd791906122c0565b975050505b50505050505b90565b5f610fee611d4b565b5f8303611027576040517f1f2a200500000000000000000000000000000000000000000000000000000000815260040160405180910390fd5b60045f8373ffffffffffffffffffffffffffffffffffffffff1673ffffffffffffffffffffffffffffffffffffffff1681526020019081526020015f205483111561109e576040517f3999656700000000000000000000000000000000000000000000000000000000815260040160405180910390fd5b5f600154036110e857826001546040517fc3ee56000000000000000000000000000000000000000000000000000000000081526004016110df9291906120ef565b60405180910390fd5b6001545f54846110f89190612222565b6111029190612290565b90508260045f8473ffffffffffffffffffffffffffffffffffffffff1673ffffffffffffffffffffffffffffffffffffffff1681526020019081526020015f205f8282546111509190612143565b925050819055508260015f8282546111689190612143565b92505081905550805f5f82825461117f9190612143565b925050819055506002545f5410156111c3576040517fbb55fd2700000000000000000000000000000000000000000000000000000000815260040160405180910390fd5b92915050565b600d5481565b5f600a5f9054906101000a900473ffffffffffffffffffffffffffffffffffffffff1673ffffffffffffffffffffffffffffffffffffffff1663e40208046040518163ffffffff1660e01b8152600401602060405180830381865afa15801561123a573d5f5f3e3d5ffd5b505050506040513d601f19601f8201168201806040525081019061125e919061218a565b90508073ffffffffffffffffffffffffffffffffffffffff163373ffffffffffffffffffffffffffffffffffffffff16146112ce576040517f08c379a00000000000000000000000000000000000000000000000000000000081526004016112c59061234d565b60405180910390fd5b5f5f90505f6002541180156112e457505f600354115b1561139157600254600354846112fa9190612222565b6113049190612290565b905060055f8573ffffffffffffffffffffffffffffffffffffffff1673ffffffffffffffffffffffffffffffffffffffff1681526020019081526020015f205481111561138c5760055f8573ffffffffffffffffffffffffffffffffffffffff1673ffffffffffffffffffffffffffffffffffffffff1681526020019081526020015f205490505b6113d2565b60055f8573ffffffffffffffffffffffffffffffffffffffff1673ffffffffffffffffffffffffffffffffffffffff1681526020019081526020015f205490505b8060055f8673ffffffffffffffffffffffffffffffffffffffff1673ffffffffffffffffffffffffffffffffffffffff1681526020019081526020015f205f82825461141e9190612143565b925050819055508060035f8282546114369190612143565b925050819055508260025f82825461144e9190612143565b925050819055505f60065f8673ffffffffffffffffffffffffffffffffffffffff1673ffffffffffffffffffffffffffffffffffffffff1681526020019081526020015f20819055508373ffffffffffffffffffffffffffffffffffffffff167fb599f4177300bc574d09b859cefe5e758c124ec3c83a343159535a85b0abc3ba82856040516114df9291906120ef565b60405180910390a250505050565b60075f8373ffffffffffffffffffffffffffffffffffffffff1673ffffffffffffffffffffffffffffffffffffffff1681526020019081526020015f205f9054906101000a900473ffffffffffffffffffffffffffffffffffffffff1673ffffffffffffffffffffffffffffffffffffffff163373ffffffffffffffffffffffffffffffffffffffff16146115b7576040517f08c379a00000000000000000000000000000000000000000000000000000000081526004016115ae906123b5565b60405180910390fd5b60065f8373ffffffffffffffffffffffffffffffffffffffff1673ffffffffffffffffffffffffffffffffffffffff1681526020019081526020015f2054811115611643575f60065f8473ffffffffffffffffffffffffffffffffffffffff1673ffffffffffffffffffffffffffffffffffffffff1681526020019081526020015f2081905550611697565b8060065f8473ffffffffffffffffffffffffffffffffffffffff1673ffffffffffffffffffffffffffffffffffffffff1681526020019081526020015f205f82825461168f9190612143565b925050819055505b5050565b5f5481565b5f5f5f5f6116ac611d4b565b5f86036116e5576040517f1f2a200500000000000000000000000000000000000000000000000000000000815260040160405180910390fd5b60055f8673ffffffffffffffffffffffffffffffffffffffff1673ffffffffffffffffffffffffffffffffffffffff1681526020019081526020015f205486111561175c576040517f3999656700000000000000000000000000000000000000000000000000000000815260040160405180910390fd5b5f600354036117a657856003546040517f49d1039c00000000000000000000000000000000000000000000000000000000815260040161179d9291906120ef565b60405180910390fd5b5f600354600254886117b89190612222565b6117c29190612290565b90508660055f8873ffffffffffffffffffffffffffffffffffffffff1673ffffffffffffffffffffffffffffffffffffffff1681526020019081526020015f205f8282546118109190612143565b925050819055508660035f8282546118289190612143565b925050819055508060025f8282546118409190612143565b925050819055508060055f8873ffffffffffffffffffffffffffffffffffffffff1673ffffffffffffffffffffffffffffffffffffffff1681526020019081526020015f205460035460025494509450945094505092959194509250565b60095f9054906101000a900473ffffffffffffffffffffffffffffffffffffffff1681565b5f6118cc610f06565b90505f612710826002546118e09190612222565b6118ea9190612290565b90505f600854426118fb9190612143565b90505f6301e13380828461190f9190612222565b6119199190612290565b90505f6103e890505f61271082846119319190612222565b61193b9190612290565b90505f818461194a9190612143565b9050805f5f82825461195c91906122c0565b925050819055508360025f82825461197491906122c0565b925050819055504260088190555050505050505050565b600b5f9054906101000a900473ffffffffffffffffffffffffffffffffffffffff1681565b60015481565b600a5f9054906101000a900473ffffffffffffffffffffffffffffffffffffffff1681565b6119e3611d4b565b8060065f8473ffffffffffffffffffffffffffffffffffffffff1673ffffffffffffffffffffffffffffffffffffffff1681526020019081526020015f205f828254611a2f91906122c0565b925050819055505050565b611a42611dd3565b5f60055f8373ffffffffffffffffffffffffffffffffffffffff1673ffffffffffffffffffffffffffffffffffffffff1681526020019081526020015f20819055505f60065f8373ffffffffffffffffffffffffffffffffffffffff1673ffffffffffffffffffffffffffffffffffffffff1681526020019081526020015f20819055508073ffffffffffffffffffffffffffffffffffffffff167f868a2af0891fff97b5dab17bb965f90ae388377f913245ef50035d088460bb6e60405160405180910390a250565b6006602052805f5260405f205f915090505481565b6007602052805f5260405f205f915054906101000a900473ffffffffffffffffffffffffffffffffffffffff1681565b5f611b5a611d4b565b5f73ffffffffffffffffffffffffffffffffffffffff1660075f8473ffffffffffffffffffffffffffffffffffffffff1673ffffffffffffffffffffffffffffffffffffffff1681526020019081526020015f205f9054906101000a900473ffffffffffffffffffffffffffffffffffffffff1673ffffffffffffffffffffffffffffffffffffffff1614611c1b576040517f0f04799c00000000000000000000000000000000000000000000000000000000815260040160405180910390fd5b5f611c24611e5b565b73ffffffffffffffffffffffffffffffffffffffff16632391216b60095f9054906101000a900473ffffffffffffffffffffffffffffffffffffffff16856040518363ffffffff1660e01b8152600401611c7f9291906123d3565b6020604051808303815f875af1158015611c9b573d5f5f3e3d5ffd5b505050506040513d601f19601f82011682018060405250810190611cbf919061218a565b90508060075f8573ffffffffffffffffffffffffffffffffffffffff1673ffffffffffffffffffffffffffffffffffffffff1681526020019081526020015f205f6101000a81548173ffffffffffffffffffffffffffffffffffffffff021916908373ffffffffffffffffffffffffffffffffffffffff16021790555080915050919050565b60085481565b60095f9054906101000a900473ffffffffffffffffffffffffffffffffffffffff1673ffffffffffffffffffffffffffffffffffffffff163373ffffffffffffffffffffffffffffffffffffffff1614611dd1576040517fdeefa58900000000000000000000000000000000000000000000000000000000815260040160405180910390fd5b565b600a5f9054906101000a900473ffffffffffffffffffffffffffffffffffffffff1673ffffffffffffffffffffffffffffffffffffffff163373ffffffffffffffffffffffffffffffffffffffff1614611e59576040517f32cc723600000000000000000000000000000000000000000000000000000000815260040160405180910390fd5b565b5f600a5f9054906101000a900473ffffffffffffffffffffffffffffffffffffffff1673ffffffffffffffffffffffffffffffffffffffff1663bd3b54716040518163ffffffff1660e01b8152600401602060405180830381865afa158015611ec6573d5f5f3e3d5ffd5b505050506040513d601f19601f82011682018060405250810190611eea919061218a565b905090565b5f5ffd5b5f819050919050565b611f0581611ef3565b8114611f0f575f5ffd5b50565b5f81359050611f2081611efc565b92915050565b5f73ffffffffffffffffffffffffffffffffffffffff82169050919050565b5f611f4f82611f26565b9050919050565b611f5f81611f45565b8114611f69575f5ffd5b50565b5f81359050611f7a81611f56565b92915050565b5f5f60408385031215611f9657611f95611eef565b5b5f611fa385828601611f12565b9250506020611fb485828601611f6c565b9150509250929050565b611fc781611ef3565b82525050565b5f602082019050611fe05f830184611fbe565b92915050565b5f60208284031215611ffb57611ffa611eef565b5b5f61200884828501611f6c565b91505092915050565b5f6060820190506120245f830186611fbe565b6120316020830185611fbe565b61203e6040830184611fbe565b949350505050565b61204f81611f45565b82525050565b5f6020820190506120685f830184612046565b92915050565b5f5f6040838503121561208457612083611eef565b5b5f61209185828601611f6c565b92505060206120a285828601611f12565b9150509250929050565b5f6080820190506120bf5f830187611fbe565b6120cc6020830186611fbe565b6120d96040830185611fbe565b6120e66060830184611fbe565b95945050505050565b5f6040820190506121025f830185611fbe565b61210f6020830184611fbe565b9392505050565b7f4e487b71000000000000000000000000000000000000000000000000000000005f52601160045260245ffd5b5f61214d82611ef3565b915061215883611ef3565b92508282039050818111156121705761216f612116565b5b92915050565b5f8151905061218481611f56565b92915050565b5f6020828403121561219f5761219e611eef565b5b5f6121ac84828501612176565b91505092915050565b5f60e0820190506121c85f83018a612046565b6121d56020830189612046565b6121e26040830188612046565b6121ef6060830187611fbe565b6121fc6080830186611fbe565b61220960a0830185611fbe565b61221660c0830184611fbe565b98975050505050505050565b5f61222c82611ef3565b915061223783611ef3565b925082820261224581611ef3565b9150828204841483151761225c5761225b612116565b5b5092915050565b7f4e487b71000000000000000000000000000000000000000000000000000000005f52601260045260245ffd5b5f61229a82611ef3565b91506122a583611ef3565b9250826122b5576122b4612263565b5b828204905092915050565b5f6122ca82611ef3565b91506122d583611ef3565b92508282019050808211156122ed576122ec612116565b5b92915050565b5f82825260208201905092915050565b7f4e6f7420617574686f72697a65640000000000000000000000000000000000005f82015250565b5f612337600e836122f3565b915061234282612303565b602082019050919050565b5f6020820190508181035f8301526123648161232b565b9050919050565b7f4e6f742075736572277320706f736974696f6e000000000000000000000000005f82015250565b5f61239f6013836122f3565b91506123aa8261236b565b602082019050919050565b5f6020820190508181035f8301526123cc81612393565b9050919050565b5f6040820190506123e65f830185612046565b6123f36020830184612046565b939250505056fea264697066735822122030102cedb4ad96abe3fca4743b5f9e2d82c644a573ff2fda1e129dca51cf953564736f6c634300081e0033a2646970667358221220f5c6eb1ca16fb52adfac5e5faa046c768f15eab398afbf6ce9174103bdc4b48464736f6c634300081e0033","linkReferences":{}},"methodIdentifiers":{"deployLendingPoolRouter(address,address,address,uint256)":"028731b2","factory()":"c45a0155","owner()":"8da5cb5b","renounceOwnership()":"715018a6","router()":"f887ea40","setFactory(address)":"5bb47808","transferOwnership(address)":"f2fde38b"},"id":126}