{"abi":[{"type":"constructor","inputs":[],"stateMutability":"nonpayable"},{"type":"receive","stateMutability":"payable"},{"type":"function","name":"DRAGON_SWAP_ROUTER","inputs":[],"outputs":[{"name":"","type":"address","internalType":"address"}],"stateMutability":"view"},{"type":"function","name":"_calculateExpectedAmountWithOracle","inputs":[{"name":"_tokenIn","type":"address","internalType":"address"},{"name":"_tokenOut","type":"address","internalType":"address"},{"name":"amountIn","type":"uint256","internalType":"uint256"}],"outputs":[{"name":"expectedAmount","type":"uint256","internalType":"uint256"}],"stateMutability":"view"},{"type":"function","name":"factory","inputs":[],"outputs":[{"name":"","type":"address","internalType":"address"}],"stateMutability":"view"},{"type":"function","name":"liquidateByDEX","inputs":[{"name":"borrower","type":"address","internalType":"address"},{"name":"lendingPoolRouter","type":"address","internalType":"address"},{"name":"liquidationIncentive","type":"uint256","internalType":"uint256"}],"outputs":[{"name":"liquidatedAmount","type":"uint256","internalType":"uint256"}],"stateMutability":"nonpayable"},{"type":"function","name":"liquidateByMEV","inputs":[{"name":"borrower","type":"address","internalType":"address"},{"name":"lendingPoolRouter","type":"address","internalType":"address"},{"name":"repayAmount","type":"uint256","internalType":"uint256"},{"name":"liquidationIncentive","type":"uint256","internalType":"uint256"}],"outputs":[],"stateMutability":"payable"},{"type":"function","name":"owner","inputs":[],"outputs":[{"name":"","type":"address","internalType":"address"}],"stateMutability":"view"},{"type":"function","name":"renounceOwnership","inputs":[],"outputs":[],"stateMutability":"nonpayable"},{"type":"function","name":"setFactory","inputs":[{"name":"_factory","type":"address","internalType":"address"}],"outputs":[],"stateMutability":"nonpayable"},{"type":"function","name":"transferOwnership","inputs":[{"name":"newOwner","type":"address","internalType":"address"}],"outputs":[],"stateMutability":"nonpayable"},{"type":"event","name":"OwnershipTransferred","inputs":[{"name":"previousOwner","type":"address","indexed":true,"internalType":"address"},{"name":"newOwner","type":"address","indexed":true,"internalType":"address"}],"anonymous":false},{"type":"event","name":"PositionLiquidated","inputs":[{"name":"borrower","type":"address","indexed":true,"internalType":"address"},{"name":"liquidator","type":"address","indexed":true,"internalType":"address"},{"name":"collateralAmount","type":"uint256","indexed":false,"internalType":"uint256"},{"name":"debtAmount","type":"uint256","indexed":false,"internalType":"uint256"},{"name":"liquidationType","type":"uint256","indexed":false,"internalType":"uint256"}],"anonymous":false},{"type":"error","name":"InsufficientPayment","inputs":[]},{"type":"error","name":"LiquidationFailed","inputs":[]},{"type":"error","name":"NotLiquidatable","inputs":[]},{"type":"error","name":"OwnableInvalidOwner","inputs":[{"name":"owner","type":"address","internalType":"address"}]},{"type":"error","name":"OwnableUnauthorizedAccount","inputs":[{"name":"account","type":"address","internalType":"address"}]},{"type":"error","name":"ReentrancyGuardReentrantCall","inputs":[]},{"type":"error","name":"SafeERC20FailedOperation","inputs":[{"name":"token","type":"address","internalType":"address"}]},{"type":"error","name":"TransferFailed","inputs":[]}],"bytecode":{"object":"0x608060405234801561000f575f5ffd5b503360015f819055505f73ffffffffffffffffffffffffffffffffffffffff168173ffffffffffffffffffffffffffffffffffffffff1603610088575f6040517f1e4fbdf700000000000000000000000000000000000000000000000000000000815260040161007f919061019f565b60405180910390fd5b6100978161009d60201b60201c565b506101b8565b5f60015f9054906101000a900473ffffffffffffffffffffffffffffffffffffffff1690508160015f6101000a81548173ffffffffffffffffffffffffffffffffffffffff021916908373ffffffffffffffffffffffffffffffffffffffff1602179055508173ffffffffffffffffffffffffffffffffffffffff168173ffffffffffffffffffffffffffffffffffffffff167f8be0079c531659141344cd1fd0a4f28419497f9722a3daafe3b4186f6b6457e060405160405180910390a35050565b5f73ffffffffffffffffffffffffffffffffffffffff82169050919050565b5f61018982610160565b9050919050565b6101998161017f565b82525050565b5f6020820190506101b25f830184610190565b92915050565b61327e806101c55f395ff3fe608060405260043610610089575f3560e01c80639cd95afa116100585780639cd95afa14610126578063c45a015514610142578063c509e6ac1461016c578063c904530c146101a8578063f2fde38b146101e457610090565b80633814ccc0146100945780635bb47808146100be578063715018a6146100e65780638da5cb5b146100fc57610090565b3661009057005b5f5ffd5b34801561009f575f5ffd5b506100a861020c565b6040516100b5919061265b565b60405180910390f35b3480156100c9575f5ffd5b506100e460048036038101906100df91906126a2565b610224565b005b3480156100f1575f5ffd5b506100fa61026f565b005b348015610107575f5ffd5b50610110610282565b60405161011d919061265b565b60405180910390f35b610140600480360381019061013b9190612700565b6102aa565b005b34801561014d575f5ffd5b50610156610546565b604051610163919061265b565b60405180910390f35b348015610177575f5ffd5b50610192600480360381019061018d9190612764565b61056b565b60405161019f91906127c3565b60405180910390f35b3480156101b3575f5ffd5b506101ce60048036038101906101c99190612764565b61073c565b6040516101db91906127c3565b60405180910390f35b3480156101ef575f5ffd5b5061020a600480360381019061020591906126a2565b610953565b005b73a324880f884036e3d21a09b90269e1ac57c7ec8a81565b61022c6109d7565b8060025f6101000a81548173ffffffffffffffffffffffffffffffffffffffff021916908373ffffffffffffffffffffffffffffffffffffffff16021790555050565b6102776109d7565b6102805f610a5e565b565b5f60015f9054906101000a900473ffffffffffffffffffffffffffffffffffffffff16905090565b6102b2610b21565b6113888111156102f7576040517f08c379a00000000000000000000000000000000000000000000000000000000081526004016102ee90612836565b60405180910390fd5b5f8211610339576040517f08c379a00000000000000000000000000000000000000000000000000000000081526004016103309061289e565b60405180910390fd5b5f8373ffffffffffffffffffffffffffffffffffffffff1663f79c3800866040518263ffffffff1660e01b8152600401610373919061265b565b602060405180830381865afa15801561038e573d5f5f3e3d5ffd5b505050506040513d601f19601f820116820180604052508101906103b291906128d0565b90505f73ffffffffffffffffffffffffffffffffffffffff168173ffffffffffffffffffffffffffffffffffffffff1603610422576040517f08c379a000000000000000000000000000000000000000000000000000000000815260040161041990612945565b60405180910390fd5b5f61042e868684610b65565b5050905080610469576040517fddeb79ba00000000000000000000000000000000000000000000000000000000815260040160405180910390fd5b5f610475878785610fd2565b9050808511156104ba576040517f08c379a00000000000000000000000000000000000000000000000000000000081526004016104b1906129d3565b60405180910390fd5b5f6104c88888868989611175565b90503373ffffffffffffffffffffffffffffffffffffffff168873ffffffffffffffffffffffffffffffffffffffff167f3ecbb371880c45545c63ac02e2364778ac379d2c14519773964068ef51bb454a8389600160405161052c93929190612a33565b60405180910390a350505050610540611699565b50505050565b60025f9054906101000a900473ffffffffffffffffffffffffffffffffffffffff1681565b5f3073ffffffffffffffffffffffffffffffffffffffff163373ffffffffffffffffffffffffffffffffffffffff16146105da576040517f08c379a00000000000000000000000000000000000000000000000000000000081526004016105d190612ab2565b60405180910390fd5b5f6105e4856116a2565b73ffffffffffffffffffffffffffffffffffffffff1663feaf968c6040518163ffffffff1660e01b815260040160a060405180830381865afa15801561062c573d5f5f3e3d5ffd5b505050506040513d601f19601f820116820180604052508101906106509190612b23565b5050509150505f610660856116a2565b73ffffffffffffffffffffffffffffffffffffffff1663feaf968c6040518163ffffffff1660e01b815260040160a060405180830381865afa1580156106a8573d5f5f3e3d5ffd5b505050506040513d601f19601f820116820180604052508101906106cc9190612b23565b5050509150505f6106dc87611743565b90505f6106e887611743565b905081600a6106f79190612d02565b836107029190612d4c565b81600a61070f9190612d02565b858861071b9190612d4c565b6107259190612d4c565b61072f9190612dba565b9450505050509392505050565b5f610745610b21565b61138882111561078a576040517f08c379a000000000000000000000000000000000000000000000000000000000815260040161078190612836565b60405180910390fd5b5f8373ffffffffffffffffffffffffffffffffffffffff1663f79c3800866040518263ffffffff1660e01b81526004016107c4919061265b565b602060405180830381865afa1580156107df573d5f5f3e3d5ffd5b505050506040513d601f19601f8201168201806040525081019061080391906128d0565b90505f73ffffffffffffffffffffffffffffffffffffffff168173ffffffffffffffffffffffffffffffffffffffff1603610873576040517f08c379a000000000000000000000000000000000000000000000000000000000815260040161086a90612945565b60405180910390fd5b5f5f5f610881888886610b65565b925092509250826108be576040517fddeb79ba00000000000000000000000000000000000000000000000000000000815260040160405180910390fd5b5f5f6108ce8a8a8887878d6117f4565b915091508096503373ffffffffffffffffffffffffffffffffffffffff168a73ffffffffffffffffffffffffffffffffffffffff167f3ecbb371880c45545c63ac02e2364778ac379d2c14519773964068ef51bb454a848a5f60405161093693929190612e23565b60405180910390a350505050505061094c611699565b9392505050565b61095b6109d7565b5f73ffffffffffffffffffffffffffffffffffffffff168173ffffffffffffffffffffffffffffffffffffffff16036109cb575f6040517f1e4fbdf70000000000000000000000000000000000000000000000000000000081526004016109c2919061265b565b60405180910390fd5b6109d481610a5e565b50565b6109df611817565b73ffffffffffffffffffffffffffffffffffffffff166109fd610282565b73ffffffffffffffffffffffffffffffffffffffff1614610a5c57610a20611817565b6040517f118cdaa7000000000000000000000000000000000000000000000000000000008152600401610a53919061265b565b60405180910390fd5b565b5f60015f9054906101000a900473ffffffffffffffffffffffffffffffffffffffff1690508160015f6101000a81548173ffffffffffffffffffffffffffffffffffffffff021916908373ffffffffffffffffffffffffffffffffffffffff1602179055508173ffffffffffffffffffffffffffffffffffffffff168173ffffffffffffffffffffffffffffffffffffffff167f8be0079c531659141344cd1fd0a4f28419497f9722a3daafe3b4186f6b6457e060405160405180910390a35050565b60025f5403610b5c576040517f3ee5aeb500000000000000000000000000000000000000000000000000000000815260040160405180910390fd5b60025f81905550565b5f5f5f5f8573ffffffffffffffffffffffffffffffffffffffff1663456dc17a6040518163ffffffff1660e01b8152600401602060405180830381865afa158015610bb2573d5f5f3e3d5ffd5b505050506040513d601f19601f82011682018060405250810190610bd691906128d0565b90505f8673ffffffffffffffffffffffffffffffffffffffff16636fb49d736040518163ffffffff1660e01b8152600401602060405180830381865afa158015610c22573d5f5f3e3d5ffd5b505050506040513d601f19601f82011682018060405250810190610c469190612e58565b90505f8773ffffffffffffffffffffffffffffffffffffffff16631aad44c26040518163ffffffff1660e01b8152600401602060405180830381865afa158015610c92573d5f5f3e3d5ffd5b505050506040513d601f19601f82011682018060405250810190610cb69190612e58565b90505f8873ffffffffffffffffffffffffffffffffffffffff1663136cf1f76040518163ffffffff1660e01b8152600401602060405180830381865afa158015610d02573d5f5f3e3d5ffd5b505050506040513d601f19601f82011682018060405250810190610d269190612e58565b90505f8973ffffffffffffffffffffffffffffffffffffffff16634fd422df8c6040518263ffffffff1660e01b8152600401610d62919061265b565b602060405180830381865afa158015610d7d573d5f5f3e3d5ffd5b505050506040513d601f19601f82011682018060405250810190610da19190612e58565b90505f610dad866116a2565b73ffffffffffffffffffffffffffffffffffffffff1663feaf968c6040518163ffffffff1660e01b815260040160a060405180830381865afa158015610df5573d5f5f3e3d5ffd5b505050506040513d601f19601f82011682018060405250810190610e199190612b23565b5050509150505f96505f600190505b610e318b61181e565b8111610f11575f8b73ffffffffffffffffffffffffffffffffffffffff16631cb928a9836040518263ffffffff1660e01b8152600401610e7191906127c3565b602060405180830381865afa158015610e8c573d5f5f3e3d5ffd5b505050506040513d601f19601f82011682018060405250810190610eb091906128d0565b90505f73ffffffffffffffffffffffffffffffffffffffff168173ffffffffffffffffffffffffffffffffffffffff1614610efd57610eef8c82611893565b89610efa9190612e83565b98505b508080610f0990612eb6565b915050610e28565b505f838584610f209190612d4c565b610f2a9190612dba565b90505f610f3688611914565b600a610f429190612d02565b670de0b6b3a764000084610f569190612d4c565b610f609190612dba565b9050610f6b88611743565b600a610f779190612d02565b8183610f839190612d4c565b610f8d9190612dba565b99505f670de0b6b3a7640000888b610fa59190612d4c565b610faf9190612dba565b9050898b1180610fbe5750808b115b9b5050505050505050505093509350939050565b5f5f8373ffffffffffffffffffffffffffffffffffffffff16631aad44c26040518163ffffffff1660e01b8152600401602060405180830381865afa15801561101d573d5f5f3e3d5ffd5b505050506040513d601f19601f820116820180604052508101906110419190612e58565b90505f8473ffffffffffffffffffffffffffffffffffffffff1663136cf1f76040518163ffffffff1660e01b8152600401602060405180830381865afa15801561108d573d5f5f3e3d5ffd5b505050506040513d601f19601f820116820180604052508101906110b19190612e58565b90505f8573ffffffffffffffffffffffffffffffffffffffff16634fd422df886040518263ffffffff1660e01b81526004016110ed919061265b565b602060405180830381865afa158015611108573d5f5f3e3d5ffd5b505050506040513d601f19601f8201168201806040525081019061112c9190612e58565b90505f8203611140575f935050505061116e565b5f82848361114e9190612d4c565b6111589190612dba565b90506002816111679190612dba565b9450505050505b9392505050565b5f5f8573ffffffffffffffffffffffffffffffffffffffff1663456dc17a6040518163ffffffff1660e01b8152600401602060405180830381865afa1580156111c0573d5f5f3e3d5ffd5b505050506040513d601f19601f820116820180604052508101906111e491906128d0565b90505f8673ffffffffffffffffffffffffffffffffffffffff1663b2016bd46040518163ffffffff1660e01b8152600401602060405180830381865afa158015611230573d5f5f3e3d5ffd5b505050506040513d601f19601f8201168201806040525081019061125491906128d0565b905061126282828787611991565b92505f600173ffffffffffffffffffffffffffffffffffffffff168273ffffffffffffffffffffffffffffffffffffffff161461129f57816112a8565b6112a7611b6c565b5b90505f8173ffffffffffffffffffffffffffffffffffffffff166370a08231896040518263ffffffff1660e01b81526004016112e4919061265b565b602060405180830381865afa1580156112ff573d5f5f3e3d5ffd5b505050506040513d601f19601f820116820180604052508101906113239190612e58565b905080851115611331578094505b600173ffffffffffffffffffffffffffffffffffffffff168473ffffffffffffffffffffffffffffffffffffffff1603611458578634101561139f576040517fcd1c886700000000000000000000000000000000000000000000000000000000815260040160405180910390fd5b86341115611453575f3373ffffffffffffffffffffffffffffffffffffffff1688346113cb9190612efd565b6040516113d790612f5d565b5f6040518083038185875af1925050503d805f8114611411576040519150601f19603f3d011682016040523d82523d5f602084013e611416565b606091505b5050905080611451576040517f90b8ec1800000000000000000000000000000000000000000000000000000000815260040160405180910390fd5b505b611486565b6114853330898773ffffffffffffffffffffffffffffffffffffffff16611c00909392919063ffffffff16565b5b8773ffffffffffffffffffffffffffffffffffffffff1663fa58d7b48633600173ffffffffffffffffffffffffffffffffffffffff168773ffffffffffffffffffffffffffffffffffffffff16146040518463ffffffff1660e01b81526004016114f293929190612f8b565b5f604051808303815f87803b158015611509575f5ffd5b505af115801561151b573d5f5f3e3d5ffd5b50505050600173ffffffffffffffffffffffffffffffffffffffff168473ffffffffffffffffffffffffffffffffffffffff16036115f8575f8973ffffffffffffffffffffffffffffffffffffffff168860405161157890612f5d565b5f6040518083038185875af1925050503d805f81146115b2576040519150601f19603f3d011682016040523d82523d5f602084013e6115b7565b606091505b50509050806115f2576040517f90b8ec1800000000000000000000000000000000000000000000000000000000815260040160405180910390fd5b50611624565b61162389888673ffffffffffffffffffffffffffffffffffffffff16611c829092919063ffffffff16565b5b8873ffffffffffffffffffffffffffffffffffffffff166376f899658b896040518363ffffffff1660e01b815260040161165f929190612fc0565b5f604051808303815f87803b158015611676575f5ffd5b505af1158015611688573d5f5f3e3d5ffd5b505050505050505095945050505050565b60015f81905550565b5f60025f9054906101000a900473ffffffffffffffffffffffffffffffffffffffff1673ffffffffffffffffffffffffffffffffffffffff16631d43335a836040518263ffffffff1660e01b81526004016116fd919061265b565b602060405180830381865afa158015611718573d5f5f3e3d5ffd5b505050506040513d601f19601f8201168201806040525081019061173c91906128d0565b9050919050565b5f600173ffffffffffffffffffffffffffffffffffffffff168273ffffffffffffffffffffffffffffffffffffffff16146117ea578173ffffffffffffffffffffffffffffffffffffffff1663313ce5676040518163ffffffff1660e01b8152600401602060405180830381865afa1580156117c1573d5f5f3e3d5ffd5b505050506040513d601f19601f820116820180604052508101906117e59190613011565b6117ed565b60125b9050919050565b5f5f611804888888888888611d01565b8092508193505050965096945050505050565b5f33905090565b5f8173ffffffffffffffffffffffffffffffffffffffff166361bc221a6040518163ffffffff1660e01b8152600401602060405180830381865afa158015611868573d5f5f3e3d5ffd5b505050506040513d601f19601f8201168201806040525081019061188c9190612e58565b9050919050565b5f8273ffffffffffffffffffffffffffffffffffffffff1663513f7d1e836040518263ffffffff1660e01b81526004016118cd919061265b565b602060405180830381865afa1580156118e8573d5f5f3e3d5ffd5b505050506040513d601f19601f8201168201806040525081019061190c9190612e58565b905092915050565b5f61191e826116a2565b73ffffffffffffffffffffffffffffffffffffffff1663313ce5676040518163ffffffff1660e01b8152600401602060405180830381865afa158015611966573d5f5f3e3d5ffd5b505050506040513d601f19601f8201168201806040525081019061198a9190613011565b9050919050565b5f5f61199c866116a2565b73ffffffffffffffffffffffffffffffffffffffff1663feaf968c6040518163ffffffff1660e01b815260040160a060405180830381865afa1580156119e4573d5f5f3e3d5ffd5b505050506040513d601f19601f82011682018060405250810190611a089190612b23565b5050509150505f611a5a600173ffffffffffffffffffffffffffffffffffffffff168773ffffffffffffffffffffffffffffffffffffffff1614611a4c5786611a55565b611a54611b6c565b5b6116a2565b73ffffffffffffffffffffffffffffffffffffffff1663feaf968c6040518163ffffffff1660e01b815260040160a060405180830381865afa158015611aa2573d5f5f3e3d5ffd5b505050506040513d601f19601f82011682018060405250810190611ac69190612b23565b5050509150505f611ad688611743565b60ff1690505f611ae588611743565b60ff1690505f82600a611af8919061303c565b8589611b049190612d4c565b611b0e9190612dba565b90505f8483600a611b1f919061303c565b83611b2a9190612d4c565b611b349190612dba565b905061271088612710611b479190612e83565b82611b529190612d4c565b611b5c9190612dba565b9650505050505050949350505050565b5f60025f9054906101000a900473ffffffffffffffffffffffffffffffffffffffff1673ffffffffffffffffffffffffffffffffffffffff1663145d51d86040518163ffffffff1660e01b8152600401602060405180830381865afa158015611bd7573d5f5f3e3d5ffd5b505050506040513d601f19601f82011682018060405250810190611bfb91906128d0565b905090565b611c7c848573ffffffffffffffffffffffffffffffffffffffff166323b872dd868686604051602401611c3593929190613086565b604051602081830303815290604052915060e01b6020820180517bffffffffffffffffffffffffffffffffffffffffffffffffffffffff8381831617835250505050611e4e565b50505050565b611cfc838473ffffffffffffffffffffffffffffffffffffffff1663a9059cbb8585604051602401611cb5929190612fc0565b604051602081830303815290604052915060e01b6020820180517bffffffffffffffffffffffffffffffffffffffffffffffffffffffff8381831617835250505050611e4e565b505050565b5f5f5f8773ffffffffffffffffffffffffffffffffffffffff1663456dc17a6040518163ffffffff1660e01b8152600401602060405180830381865afa158015611d4d573d5f5f3e3d5ffd5b505050506040513d601f19601f82011682018060405250810190611d7191906128d0565b90505f8873ffffffffffffffffffffffffffffffffffffffff1663b2016bd46040518163ffffffff1660e01b8152600401602060405180830381865afa158015611dbd573d5f5f3e3d5ffd5b505050506040513d601f19601f82011682018060405250810190611de191906128d0565b90505f61271061138888611df59190612d4c565b611dff9190612dba565b8811611e0b5787611e27565b61271061138888611e1c9190612d4c565b611e269190612dba565b5b9050611e388b8b8b8686868c611ee9565b8095508196505050505050965096945050505050565b5f5f60205f8451602086015f885af180611e6d576040513d5f823e3d81fd5b3d92505f519150505f8214611e86576001811415611ea1565b5f8473ffffffffffffffffffffffffffffffffffffffff163b145b15611ee357836040517f5274afe7000000000000000000000000000000000000000000000000000000008152600401611eda919061265b565b60405180910390fd5b50505050565b5f5f5f600173ffffffffffffffffffffffffffffffffffffffff168673ffffffffffffffffffffffffffffffffffffffff1614611f265785611f2f565b611f2e611b6c565b5b90505f8173ffffffffffffffffffffffffffffffffffffffff166370a082318a6040518263ffffffff1660e01b8152600401611f6b919061265b565b602060405180830381865afa158015611f86573d5f5f3e3d5ffd5b505050506040513d601f19601f82011682018060405250810190611faa9190612e58565b90505f8103611fe5576040517f05c4d8ac00000000000000000000000000000000000000000000000000000000815260040160405180910390fd5b61271085612710611ff69190612e83565b876120019190612d4c565b61200b9190612dba565b935080841115612019578093505b6120288b8b8b8b86898c612038565b9250505097509795505050505050565b5f8573ffffffffffffffffffffffffffffffffffffffff1663fa58d7b484305f6040518463ffffffff1660e01b815260040161207693929190612f8b565b5f604051808303815f87803b15801561208d575f5ffd5b505af115801561209f573d5f5f3e3d5ffd5b505050505f6120f485600173ffffffffffffffffffffffffffffffffffffffff168873ffffffffffffffffffffffffffffffffffffffff16146120e257876120eb565b6120ea611b6c565b5b866103e86122b9565b90508281116121035780612105565b825b91505f600173ffffffffffffffffffffffffffffffffffffffff168773ffffffffffffffffffffffffffffffffffffffff1614612142578661214b565b61214a611b6c565b5b905061217889848373ffffffffffffffffffffffffffffffffffffffff16611c829092919063ffffffff16565b8873ffffffffffffffffffffffffffffffffffffffff166376f899658b856040518363ffffffff1660e01b81526004016121b3929190612fc0565b5f604051808303815f87803b1580156121ca575f5ffd5b505af11580156121dc573d5f5f3e3d5ffd5b50505050828211156122ac576122ab60025f9054906101000a900473ffffffffffffffffffffffffffffffffffffffff1673ffffffffffffffffffffffffffffffffffffffff16638ce744266040518163ffffffff1660e01b8152600401602060405180830381865afa158015612255573d5f5f3e3d5ffd5b505050506040513d601f19601f8201168201806040525081019061227991906128d0565b84846122859190612efd565b8373ffffffffffffffffffffffffffffffffffffffff16611c829092919063ffffffff16565b5b5050979650505050505050565b5f5f6122c68686866124c4565b90505f612710846127106122da9190612efd565b836122e59190612d4c565b6122ef9190612dba565b90508673ffffffffffffffffffffffffffffffffffffffff1663095ea7b373a324880f884036e3d21a09b90269e1ac57c7ec8a876040518363ffffffff1660e01b8152600401612340929190612fc0565b6020604051808303815f875af115801561235c573d5f5f3e3d5ffd5b505050506040513d601f19601f8201168201806040525081019061238091906130e5565b505f6040518061010001604052808973ffffffffffffffffffffffffffffffffffffffff1681526020018873ffffffffffffffffffffffffffffffffffffffff1681526020016103e862ffffff1681526020013073ffffffffffffffffffffffffffffffffffffffff16815260200161012c426123fd9190612e83565b81526020018781526020018381526020015f73ffffffffffffffffffffffffffffffffffffffff16815250905073a324880f884036e3d21a09b90269e1ac57c7ec8a73ffffffffffffffffffffffffffffffffffffffff1663414bf389826040518263ffffffff1660e01b815260040161247791906131fa565b6020604051808303815f875af1158015612493573d5f5f3e3d5ffd5b505050506040513d601f19601f820116820180604052508101906124b79190612e58565b9350505050949350505050565b5f8273ffffffffffffffffffffffffffffffffffffffff168473ffffffffffffffffffffffffffffffffffffffff160361250057819050612615565b3073ffffffffffffffffffffffffffffffffffffffff1663c509e6ac8585856040518463ffffffff1660e01b815260040161253d93929190613086565b602060405180830381865afa92505050801561257757506040513d601f19601f820116820180604052508101906125749190612e58565b60015b61260f575f61258585611743565b90505f61259185611743565b90508060ff168260ff1611156125cb5780826125ad9190613214565b600a6125b99190612d02565b846125c49190612dba565b9250612608565b8160ff168160ff1611156126035781816125e59190613214565b600a6125f19190612d02565b846125fc9190612d4c565b9250612607565b8392505b5b5050612614565b809150505b5b9392505050565b5f73ffffffffffffffffffffffffffffffffffffffff82169050919050565b5f6126458261261c565b9050919050565b6126558161263b565b82525050565b5f60208201905061266e5f83018461264c565b92915050565b5f5ffd5b6126818161263b565b811461268b575f5ffd5b50565b5f8135905061269c81612678565b92915050565b5f602082840312156126b7576126b6612674565b5b5f6126c48482850161268e565b91505092915050565b5f819050919050565b6126df816126cd565b81146126e9575f5ffd5b50565b5f813590506126fa816126d6565b92915050565b5f5f5f5f6080858703121561271857612717612674565b5b5f6127258782880161268e565b94505060206127368782880161268e565b9350506040612747878288016126ec565b9250506060612758878288016126ec565b91505092959194509250565b5f5f5f6060848603121561277b5761277a612674565b5b5f6127888682870161268e565b93505060206127998682870161268e565b92505060406127aa868287016126ec565b9150509250925092565b6127bd816126cd565b82525050565b5f6020820190506127d65f8301846127b4565b92915050565b5f82825260208201905092915050565b7f4c69717569646174696f6e20696e63656e7469766520746f6f206869676800005f82015250565b5f612820601e836127dc565b915061282b826127ec565b602082019050919050565b5f6020820190508181035f83015261284d81612814565b9050919050565b7f496e76616c696420726570617920616d6f756e740000000000000000000000005f82015250565b5f6128886014836127dc565b915061289382612854565b602082019050919050565b5f6020820190508181035f8301526128b58161287c565b9050919050565b5f815190506128ca81612678565b92915050565b5f602082840312156128e5576128e4612674565b5b5f6128f2848285016128bc565b91505092915050565b7f4e6f20706f736974696f6e20666f756e640000000000000000000000000000005f82015250565b5f61292f6011836127dc565b915061293a826128fb565b602082019050919050565b5f6020820190508181035f83015261295c81612923565b9050919050565b7f526570617920616d6f756e742065786365656473206d6178696d756d20616c6c5f8201527f6f77656400000000000000000000000000000000000000000000000000000000602082015250565b5f6129bd6024836127dc565b91506129c882612963565b604082019050919050565b5f6020820190508181035f8301526129ea816129b1565b9050919050565b5f819050919050565b5f819050919050565b5f612a1d612a18612a13846129f1565b6129fa565b6126cd565b9050919050565b612a2d81612a03565b82525050565b5f606082019050612a465f8301866127b4565b612a5360208301856127b4565b612a606040830184612a24565b949350505050565b7f556e617574686f72697a656400000000000000000000000000000000000000005f82015250565b5f612a9c600c836127dc565b9150612aa782612a68565b602082019050919050565b5f6020820190508181035f830152612ac981612a90565b9050919050565b5f69ffffffffffffffffffff82169050919050565b612aee81612ad0565b8114612af8575f5ffd5b50565b5f81519050612b0981612ae5565b92915050565b5f81519050612b1d816126d6565b92915050565b5f5f5f5f5f60a08688031215612b3c57612b3b612674565b5b5f612b4988828901612afb565b9550506020612b5a88828901612b0f565b9450506040612b6b88828901612b0f565b9350506060612b7c88828901612b0f565b9250506080612b8d88828901612afb565b9150509295509295909350565b7f4e487b71000000000000000000000000000000000000000000000000000000005f52601160045260245ffd5b5f8160011c9050919050565b5f5f8291508390505b6001851115612c1c57808604811115612bf857612bf7612b9a565b5b6001851615612c075780820291505b8081029050612c1585612bc7565b9450612bdc565b94509492505050565b5f82612c345760019050612cef565b81612c41575f9050612cef565b8160018114612c575760028114612c6157612c90565b6001915050612cef565b60ff841115612c7357612c72612b9a565b5b8360020a915084821115612c8a57612c89612b9a565b5b50612cef565b5060208310610133831016604e8410600b8410161715612cc55782820a905083811115612cc057612cbf612b9a565b5b612cef565b612cd28484846001612bd3565b92509050818404811115612ce957612ce8612b9a565b5b81810290505b9392505050565b5f60ff82169050919050565b5f612d0c826126cd565b9150612d1783612cf6565b9250612d447fffffffffffffffffffffffffffffffffffffffffffffffffffffffffffffffff8484612c25565b905092915050565b5f612d56826126cd565b9150612d61836126cd565b9250828202612d6f816126cd565b91508282048414831517612d8657612d85612b9a565b5b5092915050565b7f4e487b71000000000000000000000000000000000000000000000000000000005f52601260045260245ffd5b5f612dc4826126cd565b9150612dcf836126cd565b925082612ddf57612dde612d8d565b5b828204905092915050565b5f819050919050565b5f612e0d612e08612e0384612dea565b6129fa565b6126cd565b9050919050565b612e1d81612df3565b82525050565b5f606082019050612e365f8301866127b4565b612e4360208301856127b4565b612e506040830184612e14565b949350505050565b5f60208284031215612e6d57612e6c612674565b5b5f612e7a84828501612b0f565b91505092915050565b5f612e8d826126cd565b9150612e98836126cd565b9250828201905080821115612eb057612eaf612b9a565b5b92915050565b5f612ec0826126cd565b91507fffffffffffffffffffffffffffffffffffffffffffffffffffffffffffffffff8203612ef257612ef1612b9a565b5b600182019050919050565b5f612f07826126cd565b9150612f12836126cd565b9250828203905081811115612f2a57612f29612b9a565b5b92915050565b5f81905092915050565b50565b5f612f485f83612f30565b9150612f5382612f3a565b5f82019050919050565b5f612f6782612f3d565b9150819050919050565b5f8115159050919050565b612f8581612f71565b82525050565b5f606082019050612f9e5f8301866127b4565b612fab602083018561264c565b612fb86040830184612f7c565b949350505050565b5f604082019050612fd35f83018561264c565b612fe060208301846127b4565b9392505050565b612ff081612cf6565b8114612ffa575f5ffd5b50565b5f8151905061300b81612fe7565b92915050565b5f6020828403121561302657613025612674565b5b5f61303384828501612ffd565b91505092915050565b5f613046826126cd565b9150613051836126cd565b925061307e7fffffffffffffffffffffffffffffffffffffffffffffffffffffffffffffffff8484612c25565b905092915050565b5f6060820190506130995f83018661264c565b6130a6602083018561264c565b6130b360408301846127b4565b949350505050565b6130c481612f71565b81146130ce575f5ffd5b50565b5f815190506130df816130bb565b92915050565b5f602082840312156130fa576130f9612674565b5b5f613107848285016130d1565b91505092915050565b6131198161263b565b82525050565b5f62ffffff82169050919050565b6131368161311f565b82525050565b613145816126cd565b82525050565b6131548161261c565b82525050565b61010082015f82015161316f5f850182613110565b5060208201516131826020850182613110565b506040820151613195604085018261312d565b5060608201516131a86060850182613110565b5060808201516131bb608085018261313c565b5060a08201516131ce60a085018261313c565b5060c08201516131e160c085018261313c565b5060e08201516131f460e085018261314b565b50505050565b5f6101008201905061320e5f83018461315a565b92915050565b5f61321e82612cf6565b915061322983612cf6565b9250828203905060ff81111561324257613241612b9a565b5b9291505056fea2646970667358221220d21054df8197c5e6e64a96d69ba21173ddbcd667176bcda9613fcdad81cd26c464736f6c634300081c0033","linkReferences":{}},"methodIdentifiers":{"DRAGON_SWAP_ROUTER()":"3814ccc0","_calculateExpectedAmountWithOracle(address,address,uint256)":"c509e6ac","factory()":"c45a0155","liquidateByDEX(address,address,uint256)":"c904530c","liquidateByMEV(address,address,uint256,uint256)":"9cd95afa","owner()":"8da5cb5b","renounceOwnership()":"715018a6","setFactory(address)":"5bb47808","transferOwnership(address)":"f2fde38b"},"id":136}