{"abi":[{"type":"constructor","inputs":[],"stateMutability":"nonpayable"},{"type":"receive","stateMutability":"payable"},{"type":"function","name":"DRAGON_SWAP_ROUTER","inputs":[],"outputs":[{"name":"","type":"address","internalType":"address"}],"stateMutability":"view"},{"type":"function","name":"factory","inputs":[],"outputs":[{"name":"","type":"address","internalType":"address"}],"stateMutability":"view"},{"type":"function","name":"liquidateByDEX","inputs":[{"name":"borrower","type":"address","internalType":"address"},{"name":"lendingPoolRouter","type":"address","internalType":"address"},{"name":"liquidationIncentive","type":"uint256","internalType":"uint256"}],"outputs":[{"name":"liquidatedAmount","type":"uint256","internalType":"uint256"}],"stateMutability":"nonpayable"},{"type":"function","name":"liquidateByMEV","inputs":[{"name":"borrower","type":"address","internalType":"address"},{"name":"lendingPoolRouter","type":"address","internalType":"address"},{"name":"repayAmount","type":"uint256","internalType":"uint256"},{"name":"liquidationIncentive","type":"uint256","internalType":"uint256"}],"outputs":[],"stateMutability":"payable"},{"type":"function","name":"owner","inputs":[],"outputs":[{"name":"","type":"address","internalType":"address"}],"stateMutability":"view"},{"type":"function","name":"renounceOwnership","inputs":[],"outputs":[],"stateMutability":"nonpayable"},{"type":"function","name":"setFactory","inputs":[{"name":"_factory","type":"address","internalType":"address"}],"outputs":[],"stateMutability":"nonpayable"},{"type":"function","name":"transferOwnership","inputs":[{"name":"newOwner","type":"address","internalType":"address"}],"outputs":[],"stateMutability":"nonpayable"},{"type":"event","name":"OwnershipTransferred","inputs":[{"name":"previousOwner","type":"address","indexed":true,"internalType":"address"},{"name":"newOwner","type":"address","indexed":true,"internalType":"address"}],"anonymous":false},{"type":"event","name":"PositionLiquidated","inputs":[{"name":"borrower","type":"address","indexed":true,"internalType":"address"},{"name":"liquidator","type":"address","indexed":true,"internalType":"address"},{"name":"collateralAmount","type":"uint256","indexed":false,"internalType":"uint256"},{"name":"debtAmount","type":"uint256","indexed":false,"internalType":"uint256"},{"name":"liquidationType","type":"uint256","indexed":false,"internalType":"uint256"}],"anonymous":false},{"type":"error","name":"InsufficientPayment","inputs":[]},{"type":"error","name":"LiquidationFailed","inputs":[]},{"type":"error","name":"NotLiquidatable","inputs":[]},{"type":"error","name":"OwnableInvalidOwner","inputs":[{"name":"owner","type":"address","internalType":"address"}]},{"type":"error","name":"OwnableUnauthorizedAccount","inputs":[{"name":"account","type":"address","internalType":"address"}]},{"type":"error","name":"ReentrancyGuardReentrantCall","inputs":[]},{"type":"error","name":"SafeERC20FailedOperation","inputs":[{"name":"token","type":"address","internalType":"address"}]},{"type":"error","name":"TransferFailed","inputs":[]}],"bytecode":{"object":"0x608060405234801561000f575f5ffd5b503360015f819055505f73ffffffffffffffffffffffffffffffffffffffff168173ffffffffffffffffffffffffffffffffffffffff1603610088575f6040517f1e4fbdf700000000000000000000000000000000000000000000000000000000815260040161007f919061019f565b60405180910390fd5b6100978161009d60201b60201c565b506101b8565b5f60015f9054906101000a900473ffffffffffffffffffffffffffffffffffffffff1690508160015f6101000a81548173ffffffffffffffffffffffffffffffffffffffff021916908373ffffffffffffffffffffffffffffffffffffffff1602179055508173ffffffffffffffffffffffffffffffffffffffff168173ffffffffffffffffffffffffffffffffffffffff167f8be0079c531659141344cd1fd0a4f28419497f9722a3daafe3b4186f6b6457e060405160405180910390a35050565b5f73ffffffffffffffffffffffffffffffffffffffff82169050919050565b5f61018982610160565b9050919050565b6101998161017f565b82525050565b5f6020820190506101b25f830184610190565b92915050565b612b08806101c55f395ff3fe60806040526004361061007e575f3560e01c80639cd95afa1161004d5780639cd95afa1461011b578063c45a015514610137578063c904530c14610161578063f2fde38b1461019d57610085565b80633814ccc0146100895780635bb47808146100b3578063715018a6146100db5780638da5cb5b146100f157610085565b3661008557005b5f5ffd5b348015610094575f5ffd5b5061009d6101c5565b6040516100aa91906120df565b60405180910390f35b3480156100be575f5ffd5b506100d960048036038101906100d49190612126565b6101dd565b005b3480156100e6575f5ffd5b506100ef610228565b005b3480156100fc575f5ffd5b5061010561023b565b60405161011291906120df565b60405180910390f35b61013560048036038101906101309190612184565b610263565b005b348015610142575f5ffd5b5061014b610426565b60405161015891906120df565b60405180910390f35b34801561016c575f5ffd5b50610187600480360381019061018291906121e8565b61044b565b6040516101949190612247565b60405180910390f35b3480156101a8575f5ffd5b506101c360048036038101906101be9190612126565b61061d565b005b73a324880f884036e3d21a09b90269e1ac57c7ec8a81565b6101e56106a1565b8060025f6101000a81548173ffffffffffffffffffffffffffffffffffffffff021916908373ffffffffffffffffffffffffffffffffffffffff16021790555050565b6102306106a1565b6102395f610728565b565b5f60015f9054906101000a900473ffffffffffffffffffffffffffffffffffffffff16905090565b61026b6107eb565b5f8373ffffffffffffffffffffffffffffffffffffffff1663f79c3800866040518263ffffffff1660e01b81526004016102a591906120df565b602060405180830381865afa1580156102c0573d5f5f3e3d5ffd5b505050506040513d601f19601f820116820180604052508101906102e49190612274565b90505f73ffffffffffffffffffffffffffffffffffffffff168173ffffffffffffffffffffffffffffffffffffffff1603610354576040517f08c379a000000000000000000000000000000000000000000000000000000000815260040161034b906122f9565b60405180910390fd5b5f61036086868461082f565b505090508061039b576040517fddeb79ba00000000000000000000000000000000000000000000000000000000815260040160405180910390fd5b5f6103a98787858888610c9c565b90503373ffffffffffffffffffffffffffffffffffffffff168773ffffffffffffffffffffffffffffffffffffffff167f3ecbb371880c45545c63ac02e2364778ac379d2c14519773964068ef51bb454a8388600160405161040d93929190612359565b60405180910390a35050506104206111c0565b50505050565b60025f9054906101000a900473ffffffffffffffffffffffffffffffffffffffff1681565b5f6104546107eb565b5f8373ffffffffffffffffffffffffffffffffffffffff1663f79c3800866040518263ffffffff1660e01b815260040161048e91906120df565b602060405180830381865afa1580156104a9573d5f5f3e3d5ffd5b505050506040513d601f19601f820116820180604052508101906104cd9190612274565b90505f73ffffffffffffffffffffffffffffffffffffffff168173ffffffffffffffffffffffffffffffffffffffff160361053d576040517f08c379a0000000000000000000000000000000000000000000000000000000008152600401610534906122f9565b60405180910390fd5b5f5f5f61054b88888661082f565b92509250925082610588576040517fddeb79ba00000000000000000000000000000000000000000000000000000000815260040160405180910390fd5b5f5f6105988a8a8887878d6111c9565b915091508096503373ffffffffffffffffffffffffffffffffffffffff168a73ffffffffffffffffffffffffffffffffffffffff167f3ecbb371880c45545c63ac02e2364778ac379d2c14519773964068ef51bb454a848a5f604051610600939291906123c7565b60405180910390a35050505050506106166111c0565b9392505050565b6106256106a1565b5f73ffffffffffffffffffffffffffffffffffffffff168173ffffffffffffffffffffffffffffffffffffffff1603610695575f6040517f1e4fbdf700000000000000000000000000000000000000000000000000000000815260040161068c91906120df565b60405180910390fd5b61069e81610728565b50565b6106a96111ec565b73ffffffffffffffffffffffffffffffffffffffff166106c761023b565b73ffffffffffffffffffffffffffffffffffffffff1614610726576106ea6111ec565b6040517f118cdaa700000000000000000000000000000000000000000000000000000000815260040161071d91906120df565b60405180910390fd5b565b5f60015f9054906101000a900473ffffffffffffffffffffffffffffffffffffffff1690508160015f6101000a81548173ffffffffffffffffffffffffffffffffffffffff021916908373ffffffffffffffffffffffffffffffffffffffff1602179055508173ffffffffffffffffffffffffffffffffffffffff168173ffffffffffffffffffffffffffffffffffffffff167f8be0079c531659141344cd1fd0a4f28419497f9722a3daafe3b4186f6b6457e060405160405180910390a35050565b60025f5403610826576040517f3ee5aeb500000000000000000000000000000000000000000000000000000000815260040160405180910390fd5b60025f81905550565b5f5f5f5f8573ffffffffffffffffffffffffffffffffffffffff1663456dc17a6040518163ffffffff1660e01b8152600401602060405180830381865afa15801561087c573d5f5f3e3d5ffd5b505050506040513d601f19601f820116820180604052508101906108a09190612274565b90505f8673ffffffffffffffffffffffffffffffffffffffff16636fb49d736040518163ffffffff1660e01b8152600401602060405180830381865afa1580156108ec573d5f5f3e3d5ffd5b505050506040513d601f19601f820116820180604052508101906109109190612410565b90505f8773ffffffffffffffffffffffffffffffffffffffff16631aad44c26040518163ffffffff1660e01b8152600401602060405180830381865afa15801561095c573d5f5f3e3d5ffd5b505050506040513d601f19601f820116820180604052508101906109809190612410565b90505f8873ffffffffffffffffffffffffffffffffffffffff1663136cf1f76040518163ffffffff1660e01b8152600401602060405180830381865afa1580156109cc573d5f5f3e3d5ffd5b505050506040513d601f19601f820116820180604052508101906109f09190612410565b90505f8973ffffffffffffffffffffffffffffffffffffffff16634fd422df8c6040518263ffffffff1660e01b8152600401610a2c91906120df565b602060405180830381865afa158015610a47573d5f5f3e3d5ffd5b505050506040513d601f19601f82011682018060405250810190610a6b9190612410565b90505f610a77866111f3565b73ffffffffffffffffffffffffffffffffffffffff1663feaf968c6040518163ffffffff1660e01b815260040160a060405180830381865afa158015610abf573d5f5f3e3d5ffd5b505050506040513d601f19601f82011682018060405250810190610ae3919061247a565b5050509150505f96505f600190505b610afb8b611294565b8111610bdb575f8b73ffffffffffffffffffffffffffffffffffffffff16631cb928a9836040518263ffffffff1660e01b8152600401610b3b9190612247565b602060405180830381865afa158015610b56573d5f5f3e3d5ffd5b505050506040513d601f19601f82011682018060405250810190610b7a9190612274565b90505f73ffffffffffffffffffffffffffffffffffffffff168173ffffffffffffffffffffffffffffffffffffffff1614610bc757610bb98c82611309565b89610bc4919061251e565b98505b508080610bd390612551565b915050610af2565b505f838584610bea9190612598565b610bf49190612606565b90505f610c008861138a565b600a610c0c9190612771565b670de0b6b3a764000084610c209190612598565b610c2a9190612606565b9050610c3588611407565b600a610c419190612771565b8183610c4d9190612598565b610c579190612606565b99505f670de0b6b3a7640000888b610c6f9190612598565b610c799190612606565b9050898b1180610c885750808b115b9b5050505050505050505093509350939050565b5f5f8573ffffffffffffffffffffffffffffffffffffffff1663456dc17a6040518163ffffffff1660e01b8152600401602060405180830381865afa158015610ce7573d5f5f3e3d5ffd5b505050506040513d601f19601f82011682018060405250810190610d0b9190612274565b90505f8673ffffffffffffffffffffffffffffffffffffffff1663b2016bd46040518163ffffffff1660e01b8152600401602060405180830381865afa158015610d57573d5f5f3e3d5ffd5b505050506040513d601f19601f82011682018060405250810190610d7b9190612274565b9050610d89828287876114b8565b92505f600173ffffffffffffffffffffffffffffffffffffffff168273ffffffffffffffffffffffffffffffffffffffff1614610dc65781610dcf565b610dce611693565b5b90505f8173ffffffffffffffffffffffffffffffffffffffff166370a08231896040518263ffffffff1660e01b8152600401610e0b91906120df565b602060405180830381865afa158015610e26573d5f5f3e3d5ffd5b505050506040513d601f19601f82011682018060405250810190610e4a9190612410565b905080851115610e58578094505b600173ffffffffffffffffffffffffffffffffffffffff168473ffffffffffffffffffffffffffffffffffffffff1603610f7f5786341015610ec6576040517fcd1c886700000000000000000000000000000000000000000000000000000000815260040160405180910390fd5b86341115610f7a575f3373ffffffffffffffffffffffffffffffffffffffff168834610ef291906127bb565b604051610efe9061281b565b5f6040518083038185875af1925050503d805f8114610f38576040519150601f19603f3d011682016040523d82523d5f602084013e610f3d565b606091505b5050905080610f78576040517f90b8ec1800000000000000000000000000000000000000000000000000000000815260040160405180910390fd5b505b610fad565b610fac3330898773ffffffffffffffffffffffffffffffffffffffff16611727909392919063ffffffff16565b5b8773ffffffffffffffffffffffffffffffffffffffff1663fa58d7b48633600173ffffffffffffffffffffffffffffffffffffffff168773ffffffffffffffffffffffffffffffffffffffff16146040518463ffffffff1660e01b815260040161101993929190612849565b5f604051808303815f87803b158015611030575f5ffd5b505af1158015611042573d5f5f3e3d5ffd5b50505050600173ffffffffffffffffffffffffffffffffffffffff168473ffffffffffffffffffffffffffffffffffffffff160361111f575f8973ffffffffffffffffffffffffffffffffffffffff168860405161109f9061281b565b5f6040518083038185875af1925050503d805f81146110d9576040519150601f19603f3d011682016040523d82523d5f602084013e6110de565b606091505b5050905080611119576040517f90b8ec1800000000000000000000000000000000000000000000000000000000815260040160405180910390fd5b5061114b565b61114a89888673ffffffffffffffffffffffffffffffffffffffff166117a99092919063ffffffff16565b5b8873ffffffffffffffffffffffffffffffffffffffff166376f899658b896040518363ffffffff1660e01b815260040161118692919061287e565b5f604051808303815f87803b15801561119d575f5ffd5b505af11580156111af573d5f5f3e3d5ffd5b505050505050505095945050505050565b60015f81905550565b5f5f6111d9888888888888611828565b8092508193505050965096945050505050565b5f33905090565b5f60025f9054906101000a900473ffffffffffffffffffffffffffffffffffffffff1673ffffffffffffffffffffffffffffffffffffffff16631d43335a836040518263ffffffff1660e01b815260040161124e91906120df565b602060405180830381865afa158015611269573d5f5f3e3d5ffd5b505050506040513d601f19601f8201168201806040525081019061128d9190612274565b9050919050565b5f8173ffffffffffffffffffffffffffffffffffffffff166361bc221a6040518163ffffffff1660e01b8152600401602060405180830381865afa1580156112de573d5f5f3e3d5ffd5b505050506040513d601f19601f820116820180604052508101906113029190612410565b9050919050565b5f8273ffffffffffffffffffffffffffffffffffffffff1663513f7d1e836040518263ffffffff1660e01b815260040161134391906120df565b602060405180830381865afa15801561135e573d5f5f3e3d5ffd5b505050506040513d601f19601f820116820180604052508101906113829190612410565b905092915050565b5f611394826111f3565b73ffffffffffffffffffffffffffffffffffffffff1663313ce5676040518163ffffffff1660e01b8152600401602060405180830381865afa1580156113dc573d5f5f3e3d5ffd5b505050506040513d601f19601f8201168201806040525081019061140091906128cf565b9050919050565b5f600173ffffffffffffffffffffffffffffffffffffffff168273ffffffffffffffffffffffffffffffffffffffff16146114ae578173ffffffffffffffffffffffffffffffffffffffff1663313ce5676040518163ffffffff1660e01b8152600401602060405180830381865afa158015611485573d5f5f3e3d5ffd5b505050506040513d601f19601f820116820180604052508101906114a991906128cf565b6114b1565b60125b9050919050565b5f5f6114c3866111f3565b73ffffffffffffffffffffffffffffffffffffffff1663feaf968c6040518163ffffffff1660e01b815260040160a060405180830381865afa15801561150b573d5f5f3e3d5ffd5b505050506040513d601f19601f8201168201806040525081019061152f919061247a565b5050509150505f611581600173ffffffffffffffffffffffffffffffffffffffff168773ffffffffffffffffffffffffffffffffffffffff1614611573578661157c565b61157b611693565b5b6111f3565b73ffffffffffffffffffffffffffffffffffffffff1663feaf968c6040518163ffffffff1660e01b815260040160a060405180830381865afa1580156115c9573d5f5f3e3d5ffd5b505050506040513d601f19601f820116820180604052508101906115ed919061247a565b5050509150505f6115fd88611407565b60ff1690505f61160c88611407565b60ff1690505f82600a61161f91906128fa565b858961162b9190612598565b6116359190612606565b90505f8483600a61164691906128fa565b836116519190612598565b61165b9190612606565b90506127108861271061166e919061251e565b826116799190612598565b6116839190612606565b9650505050505050949350505050565b5f60025f9054906101000a900473ffffffffffffffffffffffffffffffffffffffff1673ffffffffffffffffffffffffffffffffffffffff1663145d51d86040518163ffffffff1660e01b8152600401602060405180830381865afa1580156116fe573d5f5f3e3d5ffd5b505050506040513d601f19601f820116820180604052508101906117229190612274565b905090565b6117a3848573ffffffffffffffffffffffffffffffffffffffff166323b872dd86868660405160240161175c93929190612944565b604051602081830303815290604052915060e01b6020820180517bffffffffffffffffffffffffffffffffffffffffffffffffffffffff8381831617835250505050611975565b50505050565b611823838473ffffffffffffffffffffffffffffffffffffffff1663a9059cbb85856040516024016117dc92919061287e565b604051602081830303815290604052915060e01b6020820180517bffffffffffffffffffffffffffffffffffffffffffffffffffffffff8381831617835250505050611975565b505050565b5f5f5f8773ffffffffffffffffffffffffffffffffffffffff1663456dc17a6040518163ffffffff1660e01b8152600401602060405180830381865afa158015611874573d5f5f3e3d5ffd5b505050506040513d601f19601f820116820180604052508101906118989190612274565b90505f8873ffffffffffffffffffffffffffffffffffffffff1663b2016bd46040518163ffffffff1660e01b8152600401602060405180830381865afa1580156118e4573d5f5f3e3d5ffd5b505050506040513d601f19601f820116820180604052508101906119089190612274565b90505f6127106113888861191c9190612598565b6119269190612606565b8811611932578761194e565b612710611388886119439190612598565b61194d9190612606565b5b905061195f8b8b8b8686868c611a10565b8095508196505050505050965096945050505050565b5f5f60205f8451602086015f885af180611994576040513d5f823e3d81fd5b3d92505f519150505f82146119ad5760018114156119c8565b5f8473ffffffffffffffffffffffffffffffffffffffff163b145b15611a0a57836040517f5274afe7000000000000000000000000000000000000000000000000000000008152600401611a0191906120df565b60405180910390fd5b50505050565b5f5f5f600173ffffffffffffffffffffffffffffffffffffffff168673ffffffffffffffffffffffffffffffffffffffff1614611a4d5785611a56565b611a55611693565b5b90505f8173ffffffffffffffffffffffffffffffffffffffff166370a082318a6040518263ffffffff1660e01b8152600401611a9291906120df565b602060405180830381865afa158015611aad573d5f5f3e3d5ffd5b505050506040513d601f19601f82011682018060405250810190611ad19190612410565b90505f8103611b0c576040517f05c4d8ac00000000000000000000000000000000000000000000000000000000815260040160405180910390fd5b61271085612710611b1d919061251e565b87611b289190612598565b611b329190612606565b935080841115611b40578093505b611b4f8b8b8b8b86898c611b5f565b9250505097509795505050505050565b5f8573ffffffffffffffffffffffffffffffffffffffff1663fa58d7b484305f6040518463ffffffff1660e01b8152600401611b9d93929190612849565b5f604051808303815f87803b158015611bb4575f5ffd5b505af1158015611bc6573d5f5f3e3d5ffd5b505050505f611c1b85600173ffffffffffffffffffffffffffffffffffffffff168873ffffffffffffffffffffffffffffffffffffffff1614611c095787611c12565b611c11611693565b5b866103e8611de0565b9050828111611c2a5780611c2c565b825b91505f600173ffffffffffffffffffffffffffffffffffffffff168773ffffffffffffffffffffffffffffffffffffffff1614611c695786611c72565b611c71611693565b5b9050611c9f89848373ffffffffffffffffffffffffffffffffffffffff166117a99092919063ffffffff16565b8873ffffffffffffffffffffffffffffffffffffffff166376f899658b856040518363ffffffff1660e01b8152600401611cda92919061287e565b5f604051808303815f87803b158015611cf1575f5ffd5b505af1158015611d03573d5f5f3e3d5ffd5b5050505082821115611dd357611dd260025f9054906101000a900473ffffffffffffffffffffffffffffffffffffffff1673ffffffffffffffffffffffffffffffffffffffff16638ce744266040518163ffffffff1660e01b8152600401602060405180830381865afa158015611d7c573d5f5f3e3d5ffd5b505050506040513d601f19601f82011682018060405250810190611da09190612274565b8484611dac91906127bb565b8373ffffffffffffffffffffffffffffffffffffffff166117a99092919063ffffffff16565b5b5050979650505050505050565b5f5f611ded868686611feb565b90505f61271084612710611e0191906127bb565b83611e0c9190612598565b611e169190612606565b90508673ffffffffffffffffffffffffffffffffffffffff1663095ea7b373a324880f884036e3d21a09b90269e1ac57c7ec8a876040518363ffffffff1660e01b8152600401611e6792919061287e565b6020604051808303815f875af1158015611e83573d5f5f3e3d5ffd5b505050506040513d601f19601f82011682018060405250810190611ea791906129a3565b505f6040518061010001604052808973ffffffffffffffffffffffffffffffffffffffff1681526020018873ffffffffffffffffffffffffffffffffffffffff1681526020016103e862ffffff1681526020013073ffffffffffffffffffffffffffffffffffffffff16815260200161012c42611f24919061251e565b81526020018781526020018381526020015f73ffffffffffffffffffffffffffffffffffffffff16815250905073a324880f884036e3d21a09b90269e1ac57c7ec8a73ffffffffffffffffffffffffffffffffffffffff1663414bf389826040518263ffffffff1660e01b8152600401611f9e9190612ab8565b6020604051808303815f875af1158015611fba573d5f5f3e3d5ffd5b505050506040513d601f19601f82011682018060405250810190611fde9190612410565b9350505050949350505050565b5f8273ffffffffffffffffffffffffffffffffffffffff168473ffffffffffffffffffffffffffffffffffffffff16146120955773d077a400968890eacc75cdc901f0356c943e4fdb73ffffffffffffffffffffffffffffffffffffffff168373ffffffffffffffffffffffffffffffffffffffff160361208c5766038d7ea4c68000609d8361207b9190612598565b6120859190612606565b9050612090565b8190505b612099565b8190505b9392505050565b5f73ffffffffffffffffffffffffffffffffffffffff82169050919050565b5f6120c9826120a0565b9050919050565b6120d9816120bf565b82525050565b5f6020820190506120f25f8301846120d0565b92915050565b5f5ffd5b612105816120bf565b811461210f575f5ffd5b50565b5f81359050612120816120fc565b92915050565b5f6020828403121561213b5761213a6120f8565b5b5f61214884828501612112565b91505092915050565b5f819050919050565b61216381612151565b811461216d575f5ffd5b50565b5f8135905061217e8161215a565b92915050565b5f5f5f5f6080858703121561219c5761219b6120f8565b5b5f6121a987828801612112565b94505060206121ba87828801612112565b93505060406121cb87828801612170565b92505060606121dc87828801612170565b91505092959194509250565b5f5f5f606084860312156121ff576121fe6120f8565b5b5f61220c86828701612112565b935050602061221d86828701612112565b925050604061222e86828701612170565b9150509250925092565b61224181612151565b82525050565b5f60208201905061225a5f830184612238565b92915050565b5f8151905061226e816120fc565b92915050565b5f60208284031215612289576122886120f8565b5b5f61229684828501612260565b91505092915050565b5f82825260208201905092915050565b7f4e6f20706f736974696f6e20666f756e640000000000000000000000000000005f82015250565b5f6122e360118361229f565b91506122ee826122af565b602082019050919050565b5f6020820190508181035f830152612310816122d7565b9050919050565b5f819050919050565b5f819050919050565b5f61234361233e61233984612317565b612320565b612151565b9050919050565b61235381612329565b82525050565b5f60608201905061236c5f830186612238565b6123796020830185612238565b612386604083018461234a565b949350505050565b5f819050919050565b5f6123b16123ac6123a78461238e565b612320565b612151565b9050919050565b6123c181612397565b82525050565b5f6060820190506123da5f830186612238565b6123e76020830185612238565b6123f460408301846123b8565b949350505050565b5f8151905061240a8161215a565b92915050565b5f60208284031215612425576124246120f8565b5b5f612432848285016123fc565b91505092915050565b5f69ffffffffffffffffffff82169050919050565b6124598161243b565b8114612463575f5ffd5b50565b5f8151905061247481612450565b92915050565b5f5f5f5f5f60a08688031215612493576124926120f8565b5b5f6124a088828901612466565b95505060206124b1888289016123fc565b94505060406124c2888289016123fc565b93505060606124d3888289016123fc565b92505060806124e488828901612466565b9150509295509295909350565b7f4e487b71000000000000000000000000000000000000000000000000000000005f52601160045260245ffd5b5f61252882612151565b915061253383612151565b925082820190508082111561254b5761254a6124f1565b5b92915050565b5f61255b82612151565b91507fffffffffffffffffffffffffffffffffffffffffffffffffffffffffffffffff820361258d5761258c6124f1565b5b600182019050919050565b5f6125a282612151565b91506125ad83612151565b92508282026125bb81612151565b915082820484148315176125d2576125d16124f1565b5b5092915050565b7f4e487b71000000000000000000000000000000000000000000000000000000005f52601260045260245ffd5b5f61261082612151565b915061261b83612151565b92508261262b5761262a6125d9565b5b828204905092915050565b5f8160011c9050919050565b5f5f8291508390505b600185111561268b57808604811115612667576126666124f1565b5b60018516156126765780820291505b808102905061268485612636565b945061264b565b94509492505050565b5f826126a3576001905061275e565b816126b0575f905061275e565b81600181146126c657600281146126d0576126ff565b600191505061275e565b60ff8411156126e2576126e16124f1565b5b8360020a9150848211156126f9576126f86124f1565b5b5061275e565b5060208310610133831016604e8410600b84101617156127345782820a90508381111561272f5761272e6124f1565b5b61275e565b6127418484846001612642565b92509050818404811115612758576127576124f1565b5b81810290505b9392505050565b5f60ff82169050919050565b5f61277b82612151565b915061278683612765565b92506127b37fffffffffffffffffffffffffffffffffffffffffffffffffffffffffffffffff8484612694565b905092915050565b5f6127c582612151565b91506127d083612151565b92508282039050818111156127e8576127e76124f1565b5b92915050565b5f81905092915050565b50565b5f6128065f836127ee565b9150612811826127f8565b5f82019050919050565b5f612825826127fb565b9150819050919050565b5f8115159050919050565b6128438161282f565b82525050565b5f60608201905061285c5f830186612238565b61286960208301856120d0565b612876604083018461283a565b949350505050565b5f6040820190506128915f8301856120d0565b61289e6020830184612238565b9392505050565b6128ae81612765565b81146128b8575f5ffd5b50565b5f815190506128c9816128a5565b92915050565b5f602082840312156128e4576128e36120f8565b5b5f6128f1848285016128bb565b91505092915050565b5f61290482612151565b915061290f83612151565b925061293c7fffffffffffffffffffffffffffffffffffffffffffffffffffffffffffffffff8484612694565b905092915050565b5f6060820190506129575f8301866120d0565b61296460208301856120d0565b6129716040830184612238565b949350505050565b6129828161282f565b811461298c575f5ffd5b50565b5f8151905061299d81612979565b92915050565b5f602082840312156129b8576129b76120f8565b5b5f6129c58482850161298f565b91505092915050565b6129d7816120bf565b82525050565b5f62ffffff82169050919050565b6129f4816129dd565b82525050565b612a0381612151565b82525050565b612a12816120a0565b82525050565b61010082015f820151612a2d5f8501826129ce565b506020820151612a4060208501826129ce565b506040820151612a5360408501826129eb565b506060820151612a6660608501826129ce565b506080820151612a7960808501826129fa565b5060a0820151612a8c60a08501826129fa565b5060c0820151612a9f60c08501826129fa565b5060e0820151612ab260e0850182612a09565b50505050565b5f61010082019050612acc5f830184612a18565b9291505056fea2646970667358221220c247b65730ad89a226be74b57fed6062279c9e80847e6ce99972efd692af1df464736f6c634300081c0033","linkReferences":{}},"methodIdentifiers":{"DRAGON_SWAP_ROUTER()":"3814ccc0","factory()":"c45a0155","liquidateByDEX(address,address,uint256)":"c904530c","liquidateByMEV(address,address,uint256,uint256)":"9cd95afa","owner()":"8da5cb5b","renounceOwnership()":"715018a6","setFactory(address)":"5bb47808","transferOwnership(address)":"f2fde38b"},"id":125}