{"abi":[{"type":"constructor","inputs":[],"stateMutability":"nonpayable"},{"type":"function","name":"allowance","inputs":[{"name":"owner","type":"address","internalType":"address"},{"name":"spender","type":"address","internalType":"address"}],"outputs":[{"name":"","type":"uint256","internalType":"uint256"}],"stateMutability":"view"},{"type":"function","name":"approve","inputs":[{"name":"spender","type":"address","internalType":"address"},{"name":"value","type":"uint256","internalType":"uint256"}],"outputs":[{"name":"","type":"bool","internalType":"bool"}],"stateMutability":"nonpayable"},{"type":"function","name":"balanceOf","inputs":[{"name":"account","type":"address","internalType":"address"}],"outputs":[{"name":"","type":"uint256","internalType":"uint256"}],"stateMutability":"view"},{"type":"function","name":"burn","inputs":[{"name":"_from","type":"address","internalType":"address"},{"name":"_amount","type":"uint256","internalType":"uint256"}],"outputs":[],"stateMutability":"nonpayable"},{"type":"function","name":"decimals","inputs":[],"outputs":[{"name":"","type":"uint8","internalType":"uint8"}],"stateMutability":"pure"},{"type":"function","name":"mint","inputs":[{"name":"_to","type":"address","internalType":"address"},{"name":"_amount","type":"uint256","internalType":"uint256"}],"outputs":[],"stateMutability":"nonpayable"},{"type":"function","name":"name","inputs":[],"outputs":[{"name":"","type":"string","internalType":"string"}],"stateMutability":"view"},{"type":"function","name":"operator","inputs":[{"name":"","type":"address","internalType":"address"}],"outputs":[{"name":"","type":"bool","internalType":"bool"}],"stateMutability":"view"},{"type":"function","name":"owner","inputs":[],"outputs":[{"name":"","type":"address","internalType":"address"}],"stateMutability":"view"},{"type":"function","name":"renounceOwnership","inputs":[],"outputs":[],"stateMutability":"nonpayable"},{"type":"function","name":"setOperator","inputs":[{"name":"_operator","type":"address","internalType":"address"},{"name":"_isOperator","type":"bool","internalType":"bool"}],"outputs":[],"stateMutability":"nonpayable"},{"type":"function","name":"symbol","inputs":[],"outputs":[{"name":"","type":"string","internalType":"string"}],"stateMutability":"view"},{"type":"function","name":"totalSupply","inputs":[],"outputs":[{"name":"","type":"uint256","internalType":"uint256"}],"stateMutability":"view"},{"type":"function","name":"transfer","inputs":[{"name":"to","type":"address","internalType":"address"},{"name":"value","type":"uint256","internalType":"uint256"}],"outputs":[{"name":"","type":"bool","internalType":"bool"}],"stateMutability":"nonpayable"},{"type":"function","name":"transferFrom","inputs":[{"name":"from","type":"address","internalType":"address"},{"name":"to","type":"address","internalType":"address"},{"name":"value","type":"uint256","internalType":"uint256"}],"outputs":[{"name":"","type":"bool","internalType":"bool"}],"stateMutability":"nonpayable"},{"type":"function","name":"transferOwnership","inputs":[{"name":"newOwner","type":"address","internalType":"address"}],"outputs":[],"stateMutability":"nonpayable"},{"type":"event","name":"Approval","inputs":[{"name":"owner","type":"address","indexed":true,"internalType":"address"},{"name":"spender","type":"address","indexed":true,"internalType":"address"},{"name":"value","type":"uint256","indexed":false,"internalType":"uint256"}],"anonymous":false},{"type":"event","name":"OwnershipTransferred","inputs":[{"name":"previousOwner","type":"address","indexed":true,"internalType":"address"},{"name":"newOwner","type":"address","indexed":true,"internalType":"address"}],"anonymous":false},{"type":"event","name":"Transfer","inputs":[{"name":"from","type":"address","indexed":true,"internalType":"address"},{"name":"to","type":"address","indexed":true,"internalType":"address"},{"name":"value","type":"uint256","indexed":false,"internalType":"uint256"}],"anonymous":false},{"type":"error","name":"ERC20InsufficientAllowance","inputs":[{"name":"spender","type":"address","internalType":"address"},{"name":"allowance","type":"uint256","internalType":"uint256"},{"name":"needed","type":"uint256","internalType":"uint256"}]},{"type":"error","name":"ERC20InsufficientBalance","inputs":[{"name":"sender","type":"address","internalType":"address"},{"name":"balance","type":"uint256","internalType":"uint256"},{"name":"needed","type":"uint256","internalType":"uint256"}]},{"type":"error","name":"ERC20InvalidApprover","inputs":[{"name":"approver","type":"address","internalType":"address"}]},{"type":"error","name":"ERC20InvalidReceiver","inputs":[{"name":"receiver","type":"address","internalType":"address"}]},{"type":"error","name":"ERC20InvalidSender","inputs":[{"name":"sender","type":"address","internalType":"address"}]},{"type":"error","name":"ERC20InvalidSpender","inputs":[{"name":"spender","type":"address","internalType":"address"}]},{"type":"error","name":"NotOperator","inputs":[]},{"type":"error","name":"OwnableInvalidOwner","inputs":[{"name":"owner","type":"address","internalType":"address"}]},{"type":"error","name":"OwnableUnauthorizedAccount","inputs":[{"name":"account","type":"address","internalType":"address"}]}],"bytecode":{"object":"0x608060405234801561000f575f5ffd5b50336040518060400160405280601a81526020017f577261707065642042544320726570726573656e7461746976650000000000008152506040518060400160405280600581526020017f574254436b000000000000000000000000000000000000000000000000000000815250816003908161008c9190610424565b50806004908161009c9190610424565b5050505f73ffffffffffffffffffffffffffffffffffffffff168173ffffffffffffffffffffffffffffffffffffffff160361010f575f6040517f1e4fbdf70000000000000000000000000000000000000000000000000000000081526004016101069190610532565b60405180910390fd5b61011e8161012460201b60201c565b5061054b565b5f60055f9054906101000a900473ffffffffffffffffffffffffffffffffffffffff1690508160055f6101000a81548173ffffffffffffffffffffffffffffffffffffffff021916908373ffffffffffffffffffffffffffffffffffffffff1602179055508173ffffffffffffffffffffffffffffffffffffffff168173ffffffffffffffffffffffffffffffffffffffff167f8be0079c531659141344cd1fd0a4f28419497f9722a3daafe3b4186f6b6457e060405160405180910390a35050565b5f81519050919050565b7f4e487b71000000000000000000000000000000000000000000000000000000005f52604160045260245ffd5b7f4e487b71000000000000000000000000000000000000000000000000000000005f52602260045260245ffd5b5f600282049050600182168061026257607f821691505b6020821081036102755761027461021e565b5b50919050565b5f819050815f5260205f209050919050565b5f6020601f8301049050919050565b5f82821b905092915050565b5f600883026102d77fffffffffffffffffffffffffffffffffffffffffffffffffffffffffffffffff8261029c565b6102e1868361029c565b95508019841693508086168417925050509392505050565b5f819050919050565b5f819050919050565b5f61032561032061031b846102f9565b610302565b6102f9565b9050919050565b5f819050919050565b61033e8361030b565b61035261034a8261032c565b8484546102a8565b825550505050565b5f5f905090565b61036961035a565b610374818484610335565b505050565b5b818110156103975761038c5f82610361565b60018101905061037a565b5050565b601f8211156103dc576103ad8161027b565b6103b68461028d565b810160208510156103c5578190505b6103d96103d18561028d565b830182610379565b50505b505050565b5f82821c905092915050565b5f6103fc5f19846008026103e1565b1980831691505092915050565b5f61041483836103ed565b9150826002028217905092915050565b61042d826101e7565b67ffffffffffffffff811115610446576104456101f1565b5b610450825461024b565b61045b82828561039b565b5f60209050601f83116001811461048c575f841561047a578287015190505b6104848582610409565b8655506104eb565b601f19841661049a8661027b565b5f5b828110156104c15784890151825560018201915060208501945060208101905061049c565b868310156104de57848901516104da601f8916826103ed565b8355505b6001600288020188555050505b505050505050565b5f73ffffffffffffffffffffffffffffffffffffffff82169050919050565b5f61051c826104f3565b9050919050565b61052c81610512565b82525050565b5f6020820190506105455f830184610523565b92915050565b6113b1806105585f395ff3fe608060405234801561000f575f5ffd5b50600436106100fe575f3560e01c8063715018a6116100955780639dc29fac116100645780639dc29fac1461029a578063a9059cbb146102b6578063dd62ed3e146102e6578063f2fde38b14610316576100fe565b8063715018a6146102245780638da5cb5b1461022e57806395d89b411461024c5780639a3073911461026a576100fe565b8063313ce567116100d1578063313ce5671461019e57806340c10f19146101bc578063558a7297146101d857806370a08231146101f4576100fe565b806306fdde0314610102578063095ea7b31461012057806318160ddd1461015057806323b872dd1461016e575b5f5ffd5b61010a610332565b6040516101179190610fc2565b60405180910390f35b61013a60048036038101906101359190611073565b6103c2565b60405161014791906110cb565b60405180910390f35b6101586103e4565b60405161016591906110f3565b60405180910390f35b6101886004803603810190610183919061110c565b6103ed565b60405161019591906110cb565b60405180910390f35b6101a661041b565b6040516101b39190611177565b60405180910390f35b6101d660048036038101906101d19190611073565b610423565b005b6101f260048036038101906101ed91906111ba565b610439565b005b61020e600480360381019061020991906111f8565b610499565b60405161021b91906110f3565b60405180910390f35b61022c6104de565b005b6102366104f1565b6040516102439190611232565b60405180910390f35b610254610519565b6040516102619190610fc2565b60405180910390f35b610284600480360381019061027f91906111f8565b6105a9565b60405161029191906110cb565b60405180910390f35b6102b460048036038101906102af9190611073565b6105c6565b005b6102d060048036038101906102cb9190611073565b6105dc565b6040516102dd91906110cb565b60405180910390f35b61030060048036038101906102fb919061124b565b6105fe565b60405161030d91906110f3565b60405180910390f35b610330600480360381019061032b91906111f8565b610680565b005b606060038054610341906112b6565b80601f016020809104026020016040519081016040528092919081815260200182805461036d906112b6565b80156103b85780601f1061038f576101008083540402835291602001916103b8565b820191905f5260205f20905b81548152906001019060200180831161039b57829003601f168201915b5050505050905090565b5f5f6103cc610704565b90506103d981858561070b565b600191505092915050565b5f600254905090565b5f5f6103f7610704565b905061040485828561071d565b61040f8585856107b0565b60019150509392505050565b5f6008905090565b61042b6108a0565b6104358282610922565b5050565b6104416109a1565b8060065f8473ffffffffffffffffffffffffffffffffffffffff1673ffffffffffffffffffffffffffffffffffffffff1681526020019081526020015f205f6101000a81548160ff0219169083151502179055505050565b5f5f5f8373ffffffffffffffffffffffffffffffffffffffff1673ffffffffffffffffffffffffffffffffffffffff1681526020019081526020015f20549050919050565b6104e66109a1565b6104ef5f610a28565b565b5f60055f9054906101000a900473ffffffffffffffffffffffffffffffffffffffff16905090565b606060048054610528906112b6565b80601f0160208091040260200160405190810160405280929190818152602001828054610554906112b6565b801561059f5780601f106105765761010080835404028352916020019161059f565b820191905f5260205f20905b81548152906001019060200180831161058257829003601f168201915b5050505050905090565b6006602052805f5260405f205f915054906101000a900460ff1681565b6105ce6108a0565b6105d88282610aeb565b5050565b5f5f6105e6610704565b90506105f38185856107b0565b600191505092915050565b5f60015f8473ffffffffffffffffffffffffffffffffffffffff1673ffffffffffffffffffffffffffffffffffffffff1681526020019081526020015f205f8373ffffffffffffffffffffffffffffffffffffffff1673ffffffffffffffffffffffffffffffffffffffff1681526020019081526020015f2054905092915050565b6106886109a1565b5f73ffffffffffffffffffffffffffffffffffffffff168173ffffffffffffffffffffffffffffffffffffffff16036106f8575f6040517f1e4fbdf70000000000000000000000000000000000000000000000000000000081526004016106ef9190611232565b60405180910390fd5b61070181610a28565b50565b5f33905090565b6107188383836001610b6a565b505050565b5f61072884846105fe565b90507fffffffffffffffffffffffffffffffffffffffffffffffffffffffffffffffff8110156107aa578181101561079b578281836040517ffb8f41b2000000000000000000000000000000000000000000000000000000008152600401610792939291906112e6565b60405180910390fd5b6107a984848484035f610b6a565b5b50505050565b5f73ffffffffffffffffffffffffffffffffffffffff168373ffffffffffffffffffffffffffffffffffffffff1603610820575f6040517f96c6fd1e0000000000000000000000000000000000000000000000000000000081526004016108179190611232565b60405180910390fd5b5f73ffffffffffffffffffffffffffffffffffffffff168273ffffffffffffffffffffffffffffffffffffffff1603610890575f6040517fec442f050000000000000000000000000000000000000000000000000000000081526004016108879190611232565b60405180910390fd5b61089b838383610d39565b505050565b60065f3373ffffffffffffffffffffffffffffffffffffffff1673ffffffffffffffffffffffffffffffffffffffff1681526020019081526020015f205f9054906101000a900460ff16610920576040517f7c214f0400000000000000000000000000000000000000000000000000000000815260040160405180910390fd5b565b5f73ffffffffffffffffffffffffffffffffffffffff168273ffffffffffffffffffffffffffffffffffffffff1603610992575f6040517fec442f050000000000000000000000000000000000000000000000000000000081526004016109899190611232565b60405180910390fd5b61099d5f8383610d39565b5050565b6109a9610704565b73ffffffffffffffffffffffffffffffffffffffff166109c76104f1565b73ffffffffffffffffffffffffffffffffffffffff1614610a26576109ea610704565b6040517f118cdaa7000000000000000000000000000000000000000000000000000000008152600401610a1d9190611232565b60405180910390fd5b565b5f60055f9054906101000a900473ffffffffffffffffffffffffffffffffffffffff1690508160055f6101000a81548173ffffffffffffffffffffffffffffffffffffffff021916908373ffffffffffffffffffffffffffffffffffffffff1602179055508173ffffffffffffffffffffffffffffffffffffffff168173ffffffffffffffffffffffffffffffffffffffff167f8be0079c531659141344cd1fd0a4f28419497f9722a3daafe3b4186f6b6457e060405160405180910390a35050565b5f73ffffffffffffffffffffffffffffffffffffffff168273ffffffffffffffffffffffffffffffffffffffff1603610b5b575f6040517f96c6fd1e000000000000000000000000000000000000000000000000000000008152600401610b529190611232565b60405180910390fd5b610b66825f83610d39565b5050565b5f73ffffffffffffffffffffffffffffffffffffffff168473ffffffffffffffffffffffffffffffffffffffff1603610bda575f6040517fe602df05000000000000000000000000000000000000000000000000000000008152600401610bd19190611232565b60405180910390fd5b5f73ffffffffffffffffffffffffffffffffffffffff168373ffffffffffffffffffffffffffffffffffffffff1603610c4a575f6040517f94280d62000000000000000000000000000000000000000000000000000000008152600401610c419190611232565b60405180910390fd5b8160015f8673ffffffffffffffffffffffffffffffffffffffff1673ffffffffffffffffffffffffffffffffffffffff1681526020019081526020015f205f8573ffffffffffffffffffffffffffffffffffffffff1673ffffffffffffffffffffffffffffffffffffffff1681526020019081526020015f20819055508015610d33578273ffffffffffffffffffffffffffffffffffffffff168473ffffffffffffffffffffffffffffffffffffffff167f8c5be1e5ebec7d5bd14f71427d1e84f3dd0314c0f7b2291e5b200ac8c7c3b92584604051610d2a91906110f3565b60405180910390a35b50505050565b5f73ffffffffffffffffffffffffffffffffffffffff168373ffffffffffffffffffffffffffffffffffffffff1603610d89578060025f828254610d7d9190611348565b92505081905550610e57565b5f5f5f8573ffffffffffffffffffffffffffffffffffffffff1673ffffffffffffffffffffffffffffffffffffffff1681526020019081526020015f2054905081811015610e12578381836040517fe450d38c000000000000000000000000000000000000000000000000000000008152600401610e09939291906112e6565b60405180910390fd5b8181035f5f8673ffffffffffffffffffffffffffffffffffffffff1673ffffffffffffffffffffffffffffffffffffffff1681526020019081526020015f2081905550505b5f73ffffffffffffffffffffffffffffffffffffffff168273ffffffffffffffffffffffffffffffffffffffff1603610e9e578060025f8282540392505081905550610ee8565b805f5f8473ffffffffffffffffffffffffffffffffffffffff1673ffffffffffffffffffffffffffffffffffffffff1681526020019081526020015f205f82825401925050819055505b8173ffffffffffffffffffffffffffffffffffffffff168373ffffffffffffffffffffffffffffffffffffffff167fddf252ad1be2c89b69c2b068fc378daa952ba7f163c4a11628f55a4df523b3ef83604051610f4591906110f3565b60405180910390a3505050565b5f81519050919050565b5f82825260208201905092915050565b8281835e5f83830152505050565b5f601f19601f8301169050919050565b5f610f9482610f52565b610f9e8185610f5c565b9350610fae818560208601610f6c565b610fb781610f7a565b840191505092915050565b5f6020820190508181035f830152610fda8184610f8a565b905092915050565b5f5ffd5b5f73ffffffffffffffffffffffffffffffffffffffff82169050919050565b5f61100f82610fe6565b9050919050565b61101f81611005565b8114611029575f5ffd5b50565b5f8135905061103a81611016565b92915050565b5f819050919050565b61105281611040565b811461105c575f5ffd5b50565b5f8135905061106d81611049565b92915050565b5f5f6040838503121561108957611088610fe2565b5b5f6110968582860161102c565b92505060206110a78582860161105f565b9150509250929050565b5f8115159050919050565b6110c5816110b1565b82525050565b5f6020820190506110de5f8301846110bc565b92915050565b6110ed81611040565b82525050565b5f6020820190506111065f8301846110e4565b92915050565b5f5f5f6060848603121561112357611122610fe2565b5b5f6111308682870161102c565b93505060206111418682870161102c565b92505060406111528682870161105f565b9150509250925092565b5f60ff82169050919050565b6111718161115c565b82525050565b5f60208201905061118a5f830184611168565b92915050565b611199816110b1565b81146111a3575f5ffd5b50565b5f813590506111b481611190565b92915050565b5f5f604083850312156111d0576111cf610fe2565b5b5f6111dd8582860161102c565b92505060206111ee858286016111a6565b9150509250929050565b5f6020828403121561120d5761120c610fe2565b5b5f61121a8482850161102c565b91505092915050565b61122c81611005565b82525050565b5f6020820190506112455f830184611223565b92915050565b5f5f6040838503121561126157611260610fe2565b5b5f61126e8582860161102c565b925050602061127f8582860161102c565b9150509250929050565b7f4e487b71000000000000000000000000000000000000000000000000000000005f52602260045260245ffd5b5f60028204905060018216806112cd57607f821691505b6020821081036112e0576112df611289565b5b50919050565b5f6060820190506112f95f830186611223565b61130660208301856110e4565b61131360408301846110e4565b949350505050565b7f4e487b71000000000000000000000000000000000000000000000000000000005f52601160045260245ffd5b5f61135282611040565b915061135d83611040565b92508282019050808211156113755761137461131b565b5b9291505056fea264697066735822122065d7d5bd4db0e736db786bd369aa12c82f12ad372093b67c47185be5ab41286564736f6c634300081e0033","linkReferences":{}},"methodIdentifiers":{"allowance(address,address)":"dd62ed3e","approve(address,uint256)":"095ea7b3","balanceOf(address)":"70a08231","burn(address,uint256)":"9dc29fac","decimals()":"313ce567","mint(address,uint256)":"40c10f19","name()":"06fdde03","operator(address)":"9a307391","owner()":"8da5cb5b","renounceOwnership()":"715018a6","setOperator(address,bool)":"558a7297","symbol()":"95d89b41","totalSupply()":"18160ddd","transfer(address,uint256)":"a9059cbb","transferFrom(address,address,uint256)":"23b872dd","transferOwnership(address)":"f2fde38b"},"id":124}