{"abi":[{"type":"constructor","inputs":[{"name":"_lpAddress","type":"address","internalType":"address"},{"name":"_user","type":"address","internalType":"address"}],"stateMutability":"nonpayable"},{"type":"fallback","stateMutability":"payable"},{"type":"receive","stateMutability":"payable"},{"type":"function","name":"_calculateExpectedAmountWithPriceFeeds","inputs":[{"name":"_tokenIn","type":"address","internalType":"address"},{"name":"_tokenOut","type":"address","internalType":"address"},{"name":"amountIn","type":"uint256","internalType":"uint256"}],"outputs":[{"name":"expectedAmount","type":"uint256","internalType":"uint256"}],"stateMutability":"view"},{"type":"function","name":"counter","inputs":[],"outputs":[{"name":"","type":"uint256","internalType":"uint256"}],"stateMutability":"view"},{"type":"function","name":"lpAddress","inputs":[],"outputs":[{"name":"","type":"address","internalType":"address"}],"stateMutability":"view"},{"type":"function","name":"owner","inputs":[],"outputs":[{"name":"","type":"address","internalType":"address"}],"stateMutability":"view"},{"type":"function","name":"repayWithSelectedToken","inputs":[{"name":"amount","type":"uint256","internalType":"uint256"},{"name":"_token","type":"address","internalType":"address"},{"name":"slippageTolerance","type":"uint256","internalType":"uint256"}],"outputs":[],"stateMutability":"payable"},{"type":"function","name":"swapTokenByPosition","inputs":[{"name":"_tokenIn","type":"address","internalType":"address"},{"name":"_tokenOut","type":"address","internalType":"address"},{"name":"amountIn","type":"uint256","internalType":"uint256"},{"name":"slippageTolerance","type":"uint256","internalType":"uint256"}],"outputs":[{"name":"amountOut","type":"uint256","internalType":"uint256"}],"stateMutability":"nonpayable"},{"type":"function","name":"tokenCalculator","inputs":[{"name":"_tokenIn","type":"address","internalType":"address"},{"name":"_tokenOut","type":"address","internalType":"address"},{"name":"_amountIn","type":"uint256","internalType":"uint256"},{"name":"_tokenInPrice","type":"address","internalType":"address"},{"name":"_tokenOutPrice","type":"address","internalType":"address"}],"outputs":[{"name":"","type":"uint256","internalType":"uint256"}],"stateMutability":"view"},{"type":"function","name":"tokenLists","inputs":[{"name":"","type":"uint256","internalType":"uint256"}],"outputs":[{"name":"","type":"address","internalType":"address"}],"stateMutability":"view"},{"type":"function","name":"tokenListsId","inputs":[{"name":"","type":"address","internalType":"address"}],"outputs":[{"name":"","type":"uint256","internalType":"uint256"}],"stateMutability":"view"},{"type":"function","name":"tokenValue","inputs":[{"name":"token","type":"address","internalType":"address"}],"outputs":[{"name":"","type":"uint256","internalType":"uint256"}],"stateMutability":"view"},{"type":"function","name":"withdrawCollateral","inputs":[{"name":"amount","type":"uint256","internalType":"uint256"},{"name":"_user","type":"address","internalType":"address"},{"name":"unwrapToNative","type":"bool","internalType":"bool"}],"outputs":[],"stateMutability":"nonpayable"},{"type":"event","name":"Liquidate","inputs":[{"name":"user","type":"address","indexed":false,"internalType":"address"}],"anonymous":false},{"type":"event","name":"SwapToken","inputs":[{"name":"user","type":"address","indexed":false,"internalType":"address"},{"name":"token","type":"address","indexed":false,"internalType":"address"},{"name":"amount","type":"uint256","indexed":false,"internalType":"uint256"}],"anonymous":false},{"type":"event","name":"SwapTokenByPosition","inputs":[{"name":"user","type":"address","indexed":false,"internalType":"address"},{"name":"tokenIn","type":"address","indexed":false,"internalType":"address"},{"name":"tokenOut","type":"address","indexed":false,"internalType":"address"},{"name":"amountIn","type":"uint256","indexed":false,"internalType":"uint256"},{"name":"amountOut","type":"uint256","indexed":false,"internalType":"uint256"}],"anonymous":false},{"type":"event","name":"WithdrawCollateral","inputs":[{"name":"user","type":"address","indexed":true,"internalType":"address"},{"name":"amount","type":"uint256","indexed":false,"internalType":"uint256"}],"anonymous":false},{"type":"error","name":"InsufficientBalance","inputs":[]},{"type":"error","name":"InvalidParameter","inputs":[]},{"type":"error","name":"NotForSwap","inputs":[]},{"type":"error","name":"NotForWithdraw","inputs":[]},{"type":"error","name":"OracleOnTokenNotSet","inputs":[]},{"type":"error","name":"ReentrancyGuardReentrantCall","inputs":[]},{"type":"error","name":"SafeERC20FailedOperation","inputs":[{"name":"token","type":"address","internalType":"address"}]},{"type":"error","name":"TransferFailed","inputs":[]},{"type":"error","name":"ZeroAmount","inputs":[]}],"bytecode":{"object":"0x608060405234801561000f575f5ffd5b506040516133c93803806133c9833981810160405281019061003191906102f5565b60015f819055508160025f6101000a81548173ffffffffffffffffffffffffffffffffffffffff021916908373ffffffffffffffffffffffffffffffffffffffff1602179055508060015f6101000a81548173ffffffffffffffffffffffffffffffffffffffff021916908373ffffffffffffffffffffffffffffffffffffffff16021790555060035f81546100c690610369565b919050819055506100db61018360201b60201c565b60055f60035481526020019081526020015f205f6101000a81548173ffffffffffffffffffffffffffffffffffffffff021916908373ffffffffffffffffffffffffffffffffffffffff16021790555060035460065f61013f61018360201b60201c565b73ffffffffffffffffffffffffffffffffffffffff1673ffffffffffffffffffffffffffffffffffffffff1681526020019081526020015f208190555050506103db565b5f61019261020360201b60201c565b73ffffffffffffffffffffffffffffffffffffffff1663b2016bd46040518163ffffffff1660e01b8152600401602060405180830381865afa1580156101da573d5f5f3e3d5ffd5b505050506040513d601f19601f820116820180604052508101906101fe91906103b0565b905090565b5f60025f9054906101000a900473ffffffffffffffffffffffffffffffffffffffff1673ffffffffffffffffffffffffffffffffffffffff1663f887ea406040518163ffffffff1660e01b8152600401602060405180830381865afa15801561026e573d5f5f3e3d5ffd5b505050506040513d601f19601f8201168201806040525081019061029291906103b0565b905090565b5f5ffd5b5f73ffffffffffffffffffffffffffffffffffffffff82169050919050565b5f6102c48261029b565b9050919050565b6102d4816102ba565b81146102de575f5ffd5b50565b5f815190506102ef816102cb565b92915050565b5f5f6040838503121561030b5761030a610297565b5b5f610318858286016102e1565b9250506020610329858286016102e1565b9150509250929050565b7f4e487b71000000000000000000000000000000000000000000000000000000005f52601160045260245ffd5b5f819050919050565b5f61037382610360565b91507fffffffffffffffffffffffffffffffffffffffffffffffffffffffffffffffff82036103a5576103a4610333565b5b600182019050919050565b5f602082840312156103c5576103c4610297565b5b5f6103d2848285016102e1565b91505092915050565b612fe1806103e85f395ff3fe60806040526004361061009f575f3560e01c80638c3bc0b1116100635780638c3bc0b1146103065780638da5cb5b146103425780639b4dc8cc1461036c578063dd9103cb14610396578063f4191e68146103d2578063fa58d7b41461040e576101d1565b80631cb928a91461020c5780632ba0c8a314610248578063513f7d1e146102645780635984c851146102a057806361bc221a146102dc576101d1565b366101d1575f341180156100bf575060045f9054906101000a900460ff16155b80156100fe5750600173ffffffffffffffffffffffffffffffffffffffff166100e6610436565b73ffffffffffffffffffffffffffffffffffffffff16145b1561016c5761010b6104b0565b73ffffffffffffffffffffffffffffffffffffffff1663d0e30db0346040518263ffffffff1660e01b81526004015f604051808303818588803b158015610150575f5ffd5b505af1158015610162573d5f5f3e3d5ffd5b50505050506101ce565b5f34118015610186575060045f9054906101000a900460ff165b6101cf575f3411156101cd576040517f08c379a00000000000000000000000000000000000000000000000000000000081526004016101c4906124cf565b60405180910390fd5b5b5b005b6040517f08c379a000000000000000000000000000000000000000000000000000000000815260040161020390612537565b60405180910390fd5b348015610217575f5ffd5b50610232600480360381019061022d919061258c565b61052a565b60405161023f91906125f6565b60405180910390f35b610262600480360381019061025d9190612639565b61055a565b005b34801561026f575f5ffd5b5061028a60048036038101906102859190612689565b61094d565b60405161029791906126c3565b60405180910390f35b3480156102ab575f5ffd5b506102c660048036038101906102c191906126dc565b610be0565b6040516102d391906126c3565b60405180910390f35b3480156102e7575f5ffd5b506102f0610e33565b6040516102fd91906126c3565b60405180910390f35b348015610311575f5ffd5b5061032c6004803603810190610327919061272c565b610e39565b60405161033991906126c3565b60405180910390f35b34801561034d575f5ffd5b506103566112ae565b60405161036391906125f6565b60405180910390f35b348015610377575f5ffd5b506103806112d3565b60405161038d91906125f6565b60405180910390f35b3480156103a1575f5ffd5b506103bc60048036038101906103b79190612790565b6112f8565b6040516103c991906126c3565b60405180910390f35b3480156103dd575f5ffd5b506103f860048036038101906103f39190612689565b6115a4565b60405161040591906126c3565b60405180910390f35b348015610419575f5ffd5b50610434600480360381019061042f919061283c565b6115b9565b005b5f61043f6118c8565b73ffffffffffffffffffffffffffffffffffffffff1663b2016bd46040518163ffffffff1660e01b8152600401602060405180830381865afa158015610487573d5f5f3e3d5ffd5b505050506040513d601f19601f820116820180604052508101906104ab91906128a0565b905090565b5f6104b961195c565b73ffffffffffffffffffffffffffffffffffffffff1663d999984d6040518163ffffffff1660e01b8152600401602060405180830381865afa158015610501573d5f5f3e3d5ffd5b505050506040513d601f19601f8201168201806040525081019061052591906128a0565b905090565b6005602052805f5260405f205f915054906101000a900473ffffffffffffffffffffffffffffffffffffffff1681565b6105626119d6565b5f8273ffffffffffffffffffffffffffffffffffffffff166370a08231306040518263ffffffff1660e01b815260040161059c91906125f6565b602060405180830381865afa1580156105b7573d5f5f3e3d5ffd5b505050506040513d601f19601f820116820180604052508101906105db91906128df565b905083811015610617576040517ff4d678b800000000000000000000000000000000000000000000000000000000815260040160405180910390fd5b61061f611bbe565b73ffffffffffffffffffffffffffffffffffffffff168373ffffffffffffffffffffffffffffffffffffffff161461080d575f6106658461065e611bbe565b8486610e39565b9050848110156106a1576040517ff4d678b800000000000000000000000000000000000000000000000000000000815260040160405180910390fd5b8373ffffffffffffffffffffffffffffffffffffffff1663095ea7b360025f9054906101000a900473ffffffffffffffffffffffffffffffffffffffff16876040518363ffffffff1660e01b81526004016106fd92919061290a565b6020604051808303815f875af1158015610719573d5f5f3e3d5ffd5b505050506040513d601f19601f8201168201806040525081019061073d9190612945565b506107da60025f9054906101000a900473ffffffffffffffffffffffffffffffffffffffff1686600173ffffffffffffffffffffffffffffffffffffffff16610784611bbe565b73ffffffffffffffffffffffffffffffffffffffff16146107ac576107a7611bbe565b6107b5565b6107b46104b0565b5b73ffffffffffffffffffffffffffffffffffffffff16611c389092919063ffffffff16565b5f85826107e7919061299d565b90505f811115610806576108046107fc611bbe565b868387610e39565b505b5050610947565b8273ffffffffffffffffffffffffffffffffffffffff1663095ea7b360025f9054906101000a900473ffffffffffffffffffffffffffffffffffffffff16866040518363ffffffff1660e01b815260040161086992919061290a565b6020604051808303815f875af1158015610885573d5f5f3e3d5ffd5b505050506040513d601f19601f820116820180604052508101906108a99190612945565b5061094660025f9054906101000a900473ffffffffffffffffffffffffffffffffffffffff1685600173ffffffffffffffffffffffffffffffffffffffff166108f0611bbe565b73ffffffffffffffffffffffffffffffffffffffff161461091857610913611bbe565b610921565b6109206104b0565b5b73ffffffffffffffffffffffffffffffffffffffff16611c389092919063ffffffff16565b5b50505050565b5f5f5f600173ffffffffffffffffffffffffffffffffffffffff168473ffffffffffffffffffffffffffffffffffffffff1603610a0e5761098c6104b0565b73ffffffffffffffffffffffffffffffffffffffff166370a08231306040518263ffffffff1660e01b81526004016109c491906125f6565b602060405180830381865afa1580156109df573d5f5f3e3d5ffd5b505050506040513d601f19601f82011682018060405250810190610a0391906128df565b915060129050610afb565b8373ffffffffffffffffffffffffffffffffffffffff166370a08231306040518263ffffffff1660e01b8152600401610a4791906125f6565b602060405180830381865afa158015610a62573d5f5f3e3d5ffd5b505050506040513d601f19601f82011682018060405250810190610a8691906128df565b91508373ffffffffffffffffffffffffffffffffffffffff1663313ce5676040518163ffffffff1660e01b8152600401602060405180830381865afa158015610ad1573d5f5f3e3d5ffd5b505050506040513d601f19601f82011682018060405250810190610af59190612a06565b60ff1690505b5f610b0585611cb7565b73ffffffffffffffffffffffffffffffffffffffff1663feaf968c6040518163ffffffff1660e01b815260040160a060405180830381865afa158015610b4d573d5f5f3e3d5ffd5b505050506040513d601f19601f82011682018060405250810190610b719190612a70565b5050509150505f610b8186611d3e565b600a610b8d9190612c16565b670de0b6b3a764000083610ba19190612c60565b610bab9190612cce565b90505f83600a610bbb9190612c16565b8286610bc79190612c60565b610bd19190612cce565b90508095505050505050919050565b5f3073ffffffffffffffffffffffffffffffffffffffff163373ffffffffffffffffffffffffffffffffffffffff1614610c4f576040517f08c379a0000000000000000000000000000000000000000000000000000000008152600401610c4690612d48565b60405180910390fd5b5f610c5985611dbe565b90505f610c6585611dbe565b90505f610c7187611cb7565b90505f610c7d87611cb7565b90505f8273ffffffffffffffffffffffffffffffffffffffff1663feaf968c6040518163ffffffff1660e01b815260040160a060405180830381865afa158015610cc9573d5f5f3e3d5ffd5b505050506040513d601f19601f82011682018060405250810190610ced9190612a70565b5050509150505f8273ffffffffffffffffffffffffffffffffffffffff1663feaf968c6040518163ffffffff1660e01b815260040160a060405180830381865afa158015610d3d573d5f5f3e3d5ffd5b505050506040513d601f19601f82011682018060405250810190610d619190612a70565b5050509150505f610d718b611d3e565b90505f610d7d8b611d3e565b90505f82600a610d8d9190612c16565b670de0b6b3a764000086610da19190612c60565b610dab9190612cce565b90505f82600a610dbb9190612c16565b670de0b6b3a764000086610dcf9190612c60565b610dd99190612cce565b905089600a610de89190612c16565b81610df39190612c60565b89600a610e009190612c16565b838e610e0c9190612c60565b610e169190612c60565b610e209190612cce565b9a50505050505050505050509392505050565b60035481565b5f84610e4481611eb2565b84610e4e81611eb2565b5f8773ffffffffffffffffffffffffffffffffffffffff166370a08231306040518263ffffffff1660e01b8152600401610e8891906125f6565b602060405180830381865afa158015610ea3573d5f5f3e3d5ffd5b505050506040513d601f19601f82011682018060405250810190610ec791906128df565b90505f8603610f02576040517f1f2a200500000000000000000000000000000000000000000000000000000000815260040160405180910390fd5b85811015610f3c576040517ff4d678b800000000000000000000000000000000000000000000000000000000815260040160405180910390fd5b8673ffffffffffffffffffffffffffffffffffffffff168873ffffffffffffffffffffffffffffffffffffffff1603610fa1576040517f613970e000000000000000000000000000000000000000000000000000000000815260040160405180910390fd5b5f73ffffffffffffffffffffffffffffffffffffffff16610fc061195c565b73ffffffffffffffffffffffffffffffffffffffff16631d43335a8a6040518263ffffffff1660e01b8152600401610ff891906125f6565b602060405180830381865afa158015611013573d5f5f3e3d5ffd5b505050506040513d601f19601f8201168201806040525081019061103791906128a0565b73ffffffffffffffffffffffffffffffffffffffff16148061110257505f73ffffffffffffffffffffffffffffffffffffffff1661107361195c565b73ffffffffffffffffffffffffffffffffffffffff16631d43335a896040518263ffffffff1660e01b81526004016110ab91906125f6565b602060405180830381865afa1580156110c6573d5f5f3e3d5ffd5b505050506040513d601f19601f820116820180604052508101906110ea91906128a0565b73ffffffffffffffffffffffffffffffffffffffff16145b15611139576040517f7804b78f00000000000000000000000000000000000000000000000000000000815260040160405180910390fd5b60015f9054906101000a900473ffffffffffffffffffffffffffffffffffffffff1673ffffffffffffffffffffffffffffffffffffffff163373ffffffffffffffffffffffffffffffffffffffff16141580156111e3575060025f9054906101000a900473ffffffffffffffffffffffffffffffffffffffff1673ffffffffffffffffffffffffffffffffffffffff163373ffffffffffffffffffffffffffffffffffffffff1614155b1561121a576040517f5b905d4e00000000000000000000000000000000000000000000000000000000815260040160405180910390fd5b612710851115611256576040517f613970e000000000000000000000000000000000000000000000000000000000815260040160405180910390fd5b61126288888888611fa4565b93507fc665f2f5768a61c064dd66125ac01f65d2f20d35ebb13a292211bf50619d753e338989898860405161129b959493929190612d66565b60405180910390a1505050949350505050565b60015f9054906101000a900473ffffffffffffffffffffffffffffffffffffffff1681565b60025f9054906101000a900473ffffffffffffffffffffffffffffffffffffffff1681565b5f5f6113026104b0565b73ffffffffffffffffffffffffffffffffffffffff168773ffffffffffffffffffffffffffffffffffffffff16146113a6578673ffffffffffffffffffffffffffffffffffffffff1663313ce5676040518163ffffffff1660e01b8152600401602060405180830381865afa15801561137d573d5f5f3e3d5ffd5b505050506040513d601f19601f820116820180604052508101906113a19190612a06565b6113a9565b60125b60ff1690505f6113b76104b0565b73ffffffffffffffffffffffffffffffffffffffff168773ffffffffffffffffffffffffffffffffffffffff161461145b578673ffffffffffffffffffffffffffffffffffffffff1663313ce5676040518163ffffffff1660e01b8152600401602060405180830381865afa158015611432573d5f5f3e3d5ffd5b505050506040513d601f19601f820116820180604052508101906114569190612a06565b61145e565b60125b60ff1690505f8573ffffffffffffffffffffffffffffffffffffffff1663feaf968c6040518163ffffffff1660e01b815260040160a060405180830381865afa1580156114ad573d5f5f3e3d5ffd5b505050506040513d601f19601f820116820180604052508101906114d19190612a70565b5050509150505f8573ffffffffffffffffffffffffffffffffffffffff1663feaf968c6040518163ffffffff1660e01b815260040160a060405180830381865afa158015611521573d5f5f3e3d5ffd5b505050506040513d601f19601f820116820180604052508101906115459190612a70565b5050509150505f84600a6115599190612c16565b8285600a6115679190612c16565b856115729190612c60565b61157c9190612cce565b8a6115879190612c60565b6115919190612cce565b9050809550505050505095945050505050565b6006602052805f5260405f205f915090505481565b6115c16119d6565b5f83036115fa576040517f1f2a200500000000000000000000000000000000000000000000000000000000815260040160405180910390fd5b600173ffffffffffffffffffffffffffffffffffffffff1661161a610436565b73ffffffffffffffffffffffffffffffffffffffff160361184257801561180a57600160045f6101000a81548160ff02191690831515021790555061165d6104b0565b73ffffffffffffffffffffffffffffffffffffffff1663095ea7b36116806104b0565b856040518363ffffffff1660e01b815260040161169e92919061290a565b6020604051808303815f875af11580156116ba573d5f5f3e3d5ffd5b505050506040513d601f19601f820116820180604052508101906116de9190612945565b506116e76104b0565b73ffffffffffffffffffffffffffffffffffffffff16632e1a7d4d846040518263ffffffff1660e01b815260040161171f91906126c3565b5f604051808303815f87803b158015611736575f5ffd5b505af1158015611748573d5f5f3e3d5ffd5b505050505f8273ffffffffffffffffffffffffffffffffffffffff168460405161177190612de4565b5f6040518083038185875af1925050503d805f81146117ab576040519150601f19603f3d011682016040523d82523d5f602084013e6117b0565b606091505b50509050806117eb576040517f90b8ec1800000000000000000000000000000000000000000000000000000000815260040160405180910390fd5b5f60045f6101000a81548160ff0219169083151502179055505061183d565b61183c82846118176104b0565b73ffffffffffffffffffffffffffffffffffffffff16611c389092919063ffffffff16565b5b611875565b611874828461184f610436565b73ffffffffffffffffffffffffffffffffffffffff16611c389092919063ffffffff16565b5b8173ffffffffffffffffffffffffffffffffffffffff167fa8e76b822fc682be77f3b1c822ea81f6bda5aed92ba82e6873bfd889f328d1d2846040516118bb91906126c3565b60405180910390a2505050565b5f60025f9054906101000a900473ffffffffffffffffffffffffffffffffffffffff1673ffffffffffffffffffffffffffffffffffffffff1663f887ea406040518163ffffffff1660e01b8152600401602060405180830381865afa158015611933573d5f5f3e3d5ffd5b505050506040513d601f19601f8201168201806040525081019061195791906128a0565b905090565b5f6119656118c8565b73ffffffffffffffffffffffffffffffffffffffff1663c45a01556040518163ffffffff1660e01b8152600401602060405180830381865afa1580156119ad573d5f5f3e3d5ffd5b505050506040513d601f19601f820116820180604052508101906119d191906128a0565b905090565b5f6119df61195c565b90505f8173ffffffffffffffffffffffffffffffffffffffff1663e40208046040518163ffffffff1660e01b8152600401602060405180830381865afa158015611a2b573d5f5f3e3d5ffd5b505050506040513d601f19601f82011682018060405250810190611a4f91906128a0565b90505f8173ffffffffffffffffffffffffffffffffffffffff16634046ebae6040518163ffffffff1660e01b8152600401602060405180830381865afa158015611a9b573d5f5f3e3d5ffd5b505050506040513d601f19601f82011682018060405250810190611abf91906128a0565b905060025f9054906101000a900473ffffffffffffffffffffffffffffffffffffffff1673ffffffffffffffffffffffffffffffffffffffff163373ffffffffffffffffffffffffffffffffffffffff1614158015611b4a57508173ffffffffffffffffffffffffffffffffffffffff163373ffffffffffffffffffffffffffffffffffffffff1614155b8015611b8257508073ffffffffffffffffffffffffffffffffffffffff163373ffffffffffffffffffffffffffffffffffffffff1614155b15611bb9576040517f7cc2b58600000000000000000000000000000000000000000000000000000000815260040160405180910390fd5b505050565b5f611bc76118c8565b73ffffffffffffffffffffffffffffffffffffffff1663456dc17a6040518163ffffffff1660e01b8152600401602060405180830381865afa158015611c0f573d5f5f3e3d5ffd5b505050506040513d601f19601f82011682018060405250810190611c3391906128a0565b905090565b611cb2838473ffffffffffffffffffffffffffffffffffffffff1663a9059cbb8585604051602401611c6b92919061290a565b604051602081830303815290604052915060e01b6020820180517bffffffffffffffffffffffffffffffffffffffffffffffffffffffff8381831617835250505050611fbb565b505050565b5f611cc061195c565b73ffffffffffffffffffffffffffffffffffffffff16631d43335a836040518263ffffffff1660e01b8152600401611cf891906125f6565b602060405180830381865afa158015611d13573d5f5f3e3d5ffd5b505050506040513d601f19601f82011682018060405250810190611d3791906128a0565b9050919050565b5f611d4882611cb7565b73ffffffffffffffffffffffffffffffffffffffff1663313ce5676040518163ffffffff1660e01b8152600401602060405180830381865afa158015611d90573d5f5f3e3d5ffd5b505050506040513d601f19601f82011682018060405250810190611db49190612a06565b60ff169050919050565b5f600173ffffffffffffffffffffffffffffffffffffffff168273ffffffffffffffffffffffffffffffffffffffff161480611e2c5750611dfd6104b0565b73ffffffffffffffffffffffffffffffffffffffff168273ffffffffffffffffffffffffffffffffffffffff16145b15611e3a5760129050611ead565b8173ffffffffffffffffffffffffffffffffffffffff1663313ce5676040518163ffffffff1660e01b8152600401602060405180830381865afa158015611e83573d5f5f3e3d5ffd5b505050506040513d601f19601f82011682018060405250810190611ea79190612a06565b60ff1690505b919050565b5f60065f8373ffffffffffffffffffffffffffffffffffffffff1673ffffffffffffffffffffffffffffffffffffffff1681526020019081526020015f205403611fa15760035f8154611f0490612df8565b919050819055508060055f60035481526020019081526020015f205f6101000a81548173ffffffffffffffffffffffffffffffffffffffff021916908373ffffffffffffffffffffffffffffffffffffffff16021790555060035460065f8373ffffffffffffffffffffffffffffffffffffffff1673ffffffffffffffffffffffffffffffffffffffff1681526020019081526020015f20819055505b50565b5f611fb185858585612056565b9050949350505050565b5f5f60205f8451602086015f885af180611fda576040513d5f823e3d81fd5b3d92505f519150505f8214611ff357600181141561200e565b5f8473ffffffffffffffffffffffffffffffffffffffff163b145b1561205057836040517f5274afe700000000000000000000000000000000000000000000000000000000815260040161204791906125f6565b60405180910390fd5b50505050565b5f5f612063868686612289565b90505f61271084612710612077919061299d565b836120829190612c60565b61208c9190612cce565b90508673ffffffffffffffffffffffffffffffffffffffff1663095ea7b36120b26123d5565b876040518363ffffffff1660e01b81526004016120d092919061290a565b6020604051808303815f875af11580156120ec573d5f5f3e3d5ffd5b505050506040513d601f19601f820116820180604052508101906121109190612945565b505f6040518061010001604052808973ffffffffffffffffffffffffffffffffffffffff168152602001600173ffffffffffffffffffffffffffffffffffffffff168973ffffffffffffffffffffffffffffffffffffffff1614612174578861217d565b61217c6104b0565b5b73ffffffffffffffffffffffffffffffffffffffff1681526020016103e862ffffff1681526020013073ffffffffffffffffffffffffffffffffffffffff16815260200161012c426121cf9190612e3f565b81526020018781526020018381526020015f73ffffffffffffffffffffffffffffffffffffffff1681525090506122046123d5565b73ffffffffffffffffffffffffffffffffffffffff1663414bf389826040518263ffffffff1660e01b815260040161223c9190612f5c565b6020604051808303815f875af1158015612258573d5f5f3e3d5ffd5b505050506040513d601f19601f8201168201806040525081019061227c91906128df565b9350505050949350505050565b5f8273ffffffffffffffffffffffffffffffffffffffff168473ffffffffffffffffffffffffffffffffffffffff16036122c5578190506123ce565b3073ffffffffffffffffffffffffffffffffffffffff16635984c8518585856040518463ffffffff1660e01b815260040161230293929190612f76565b602060405180830381865afa92505050801561233c57506040513d601f19601f8201168201806040525081019061233991906128df565b60015b6123c8575f61234a85611dbe565b90505f61235685611dbe565b90508082111561238a57808261236c919061299d565b600a6123789190612c16565b846123839190612cce565b92506123c1565b818111156123bc57818161239e919061299d565b600a6123aa9190612c16565b846123b59190612c60565b92506123c0565b8392505b5b50506123cd565b809150505b5b9392505050565b5f6123de61195c565b73ffffffffffffffffffffffffffffffffffffffff16637af11ac06040518163ffffffff1660e01b8152600401602060405180830381865afa158015612426573d5f5f3e3d5ffd5b505050506040513d601f19601f8201168201806040525081019061244a91906128a0565b905090565b5f82825260208201905092915050565b7f506f736974696f6e20646f6573206e6f742068616e646c65206e6174697665205f8201527f746f6b656e730000000000000000000000000000000000000000000000000000602082015250565b5f6124b960268361244f565b91506124c48261245f565b604082019050919050565b5f6020820190508181035f8301526124e6816124ad565b9050919050565b7f46616c6c6261636b206e6f7420616c6c6f7765640000000000000000000000005f82015250565b5f61252160148361244f565b915061252c826124ed565b602082019050919050565b5f6020820190508181035f83015261254e81612515565b9050919050565b5f5ffd5b5f819050919050565b61256b81612559565b8114612575575f5ffd5b50565b5f8135905061258681612562565b92915050565b5f602082840312156125a1576125a0612555565b5b5f6125ae84828501612578565b91505092915050565b5f73ffffffffffffffffffffffffffffffffffffffff82169050919050565b5f6125e0826125b7565b9050919050565b6125f0816125d6565b82525050565b5f6020820190506126095f8301846125e7565b92915050565b612618816125d6565b8114612622575f5ffd5b50565b5f813590506126338161260f565b92915050565b5f5f5f606084860312156126505761264f612555565b5b5f61265d86828701612578565b935050602061266e86828701612625565b925050604061267f86828701612578565b9150509250925092565b5f6020828403121561269e5761269d612555565b5b5f6126ab84828501612625565b91505092915050565b6126bd81612559565b82525050565b5f6020820190506126d65f8301846126b4565b92915050565b5f5f5f606084860312156126f3576126f2612555565b5b5f61270086828701612625565b935050602061271186828701612625565b925050604061272286828701612578565b9150509250925092565b5f5f5f5f6080858703121561274457612743612555565b5b5f61275187828801612625565b945050602061276287828801612625565b935050604061277387828801612578565b925050606061278487828801612578565b91505092959194509250565b5f5f5f5f5f60a086880312156127a9576127a8612555565b5b5f6127b688828901612625565b95505060206127c788828901612625565b94505060406127d888828901612578565b93505060606127e988828901612625565b92505060806127fa88828901612625565b9150509295509295909350565b5f8115159050919050565b61281b81612807565b8114612825575f5ffd5b50565b5f8135905061283681612812565b92915050565b5f5f5f6060848603121561285357612852612555565b5b5f61286086828701612578565b935050602061287186828701612625565b925050604061288286828701612828565b9150509250925092565b5f8151905061289a8161260f565b92915050565b5f602082840312156128b5576128b4612555565b5b5f6128c28482850161288c565b91505092915050565b5f815190506128d981612562565b92915050565b5f602082840312156128f4576128f3612555565b5b5f612901848285016128cb565b91505092915050565b5f60408201905061291d5f8301856125e7565b61292a60208301846126b4565b9392505050565b5f8151905061293f81612812565b92915050565b5f6020828403121561295a57612959612555565b5b5f61296784828501612931565b91505092915050565b7f4e487b71000000000000000000000000000000000000000000000000000000005f52601160045260245ffd5b5f6129a782612559565b91506129b283612559565b92508282039050818111156129ca576129c9612970565b5b92915050565b5f60ff82169050919050565b6129e5816129d0565b81146129ef575f5ffd5b50565b5f81519050612a00816129dc565b92915050565b5f60208284031215612a1b57612a1a612555565b5b5f612a28848285016129f2565b91505092915050565b5f69ffffffffffffffffffff82169050919050565b612a4f81612a31565b8114612a59575f5ffd5b50565b5f81519050612a6a81612a46565b92915050565b5f5f5f5f5f60a08688031215612a8957612a88612555565b5b5f612a9688828901612a5c565b9550506020612aa7888289016128cb565b9450506040612ab8888289016128cb565b9350506060612ac9888289016128cb565b9250506080612ada88828901612a5c565b9150509295509295909350565b5f8160011c9050919050565b5f5f8291508390505b6001851115612b3c57808604811115612b1857612b17612970565b5b6001851615612b275780820291505b8081029050612b3585612ae7565b9450612afc565b94509492505050565b5f82612b545760019050612c0f565b81612b61575f9050612c0f565b8160018114612b775760028114612b8157612bb0565b6001915050612c0f565b60ff841115612b9357612b92612970565b5b8360020a915084821115612baa57612ba9612970565b5b50612c0f565b5060208310610133831016604e8410600b8410161715612be55782820a905083811115612be057612bdf612970565b5b612c0f565b612bf28484846001612af3565b92509050818404811115612c0957612c08612970565b5b81810290505b9392505050565b5f612c2082612559565b9150612c2b83612559565b9250612c587fffffffffffffffffffffffffffffffffffffffffffffffffffffffffffffffff8484612b45565b905092915050565b5f612c6a82612559565b9150612c7583612559565b9250828202612c8381612559565b91508282048414831517612c9a57612c99612970565b5b5092915050565b7f4e487b71000000000000000000000000000000000000000000000000000000005f52601260045260245ffd5b5f612cd882612559565b9150612ce383612559565b925082612cf357612cf2612ca1565b5b828204905092915050565b7f556e617574686f72697a656400000000000000000000000000000000000000005f82015250565b5f612d32600c8361244f565b9150612d3d82612cfe565b602082019050919050565b5f6020820190508181035f830152612d5f81612d26565b9050919050565b5f60a082019050612d795f8301886125e7565b612d8660208301876125e7565b612d9360408301866125e7565b612da060608301856126b4565b612dad60808301846126b4565b9695505050505050565b5f81905092915050565b50565b5f612dcf5f83612db7565b9150612dda82612dc1565b5f82019050919050565b5f612dee82612dc4565b9150819050919050565b5f612e0282612559565b91507fffffffffffffffffffffffffffffffffffffffffffffffffffffffffffffffff8203612e3457612e33612970565b5b600182019050919050565b5f612e4982612559565b9150612e5483612559565b9250828201905080821115612e6c57612e6b612970565b5b92915050565b612e7b816125d6565b82525050565b5f62ffffff82169050919050565b612e9881612e81565b82525050565b612ea781612559565b82525050565b612eb6816125b7565b82525050565b61010082015f820151612ed15f850182612e72565b506020820151612ee46020850182612e72565b506040820151612ef76040850182612e8f565b506060820151612f0a6060850182612e72565b506080820151612f1d6080850182612e9e565b5060a0820151612f3060a0850182612e9e565b5060c0820151612f4360c0850182612e9e565b5060e0820151612f5660e0850182612ead565b50505050565b5f61010082019050612f705f830184612ebc565b92915050565b5f606082019050612f895f8301866125e7565b612f9660208301856125e7565b612fa360408301846126b4565b94935050505056fea264697066735822122054083006dcb915b121104cad32ad82431486cfcdc0c6e96885744dce90cb654464736f6c634300081e0033","linkReferences":{}},"methodIdentifiers":{"_calculateExpectedAmountWithPriceFeeds(address,address,uint256)":"5984c851","counter()":"61bc221a","lpAddress()":"9b4dc8cc","owner()":"8da5cb5b","repayWithSelectedToken(uint256,address,uint256)":"2ba0c8a3","swapTokenByPosition(address,address,uint256,uint256)":"8c3bc0b1","tokenCalculator(address,address,uint256,address,address)":"dd9103cb","tokenLists(uint256)":"1cb928a9","tokenListsId(address)":"f4191e68","tokenValue(address)":"513f7d1e","withdrawCollateral(uint256,address,bool)":"fa58d7b4"},"id":103}