{"abi":[{"type":"constructor","inputs":[{"name":"_lpAddress","type":"address","internalType":"address"},{"name":"_user","type":"address","internalType":"address"}],"stateMutability":"nonpayable"},{"type":"fallback","stateMutability":"payable"},{"type":"receive","stateMutability":"payable"},{"type":"function","name":"DRAGON_SWAP_ROUTER","inputs":[],"outputs":[{"name":"","type":"address","internalType":"address"}],"stateMutability":"view"},{"type":"function","name":"VERSION","inputs":[],"outputs":[{"name":"","type":"uint8","internalType":"uint8"}],"stateMutability":"view"},{"type":"function","name":"_calculateExpectedAmountWithPriceFeeds","inputs":[{"name":"_tokenIn","type":"address","internalType":"address"},{"name":"_tokenOut","type":"address","internalType":"address"},{"name":"amountIn","type":"uint256","internalType":"uint256"}],"outputs":[{"name":"expectedAmount","type":"uint256","internalType":"uint256"}],"stateMutability":"view"},{"type":"function","name":"counter","inputs":[],"outputs":[{"name":"","type":"uint256","internalType":"uint256"}],"stateMutability":"view"},{"type":"function","name":"lpAddress","inputs":[],"outputs":[{"name":"","type":"address","internalType":"address"}],"stateMutability":"view"},{"type":"function","name":"owner","inputs":[],"outputs":[{"name":"","type":"address","internalType":"address"}],"stateMutability":"view"},{"type":"function","name":"repayWithSelectedToken","inputs":[{"name":"amount","type":"uint256","internalType":"uint256"},{"name":"_token","type":"address","internalType":"address"},{"name":"slippageTolerance","type":"uint256","internalType":"uint256"}],"outputs":[],"stateMutability":"payable"},{"type":"function","name":"swapTokenByPosition","inputs":[{"name":"_tokenIn","type":"address","internalType":"address"},{"name":"_tokenOut","type":"address","internalType":"address"},{"name":"amountIn","type":"uint256","internalType":"uint256"},{"name":"slippageTolerance","type":"uint256","internalType":"uint256"}],"outputs":[{"name":"amountOut","type":"uint256","internalType":"uint256"}],"stateMutability":"nonpayable"},{"type":"function","name":"tokenCalculator","inputs":[{"name":"_tokenIn","type":"address","internalType":"address"},{"name":"_tokenOut","type":"address","internalType":"address"},{"name":"_amountIn","type":"uint256","internalType":"uint256"},{"name":"_tokenInPrice","type":"address","internalType":"address"},{"name":"_tokenOutPrice","type":"address","internalType":"address"}],"outputs":[{"name":"","type":"uint256","internalType":"uint256"}],"stateMutability":"view"},{"type":"function","name":"tokenLists","inputs":[{"name":"","type":"uint256","internalType":"uint256"}],"outputs":[{"name":"","type":"address","internalType":"address"}],"stateMutability":"view"},{"type":"function","name":"tokenListsId","inputs":[{"name":"","type":"address","internalType":"address"}],"outputs":[{"name":"","type":"uint256","internalType":"uint256"}],"stateMutability":"view"},{"type":"function","name":"tokenValue","inputs":[{"name":"token","type":"address","internalType":"address"}],"outputs":[{"name":"","type":"uint256","internalType":"uint256"}],"stateMutability":"view"},{"type":"function","name":"withdrawCollateral","inputs":[{"name":"amount","type":"uint256","internalType":"uint256"},{"name":"_user","type":"address","internalType":"address"},{"name":"unwrapToNative","type":"bool","internalType":"bool"}],"outputs":[],"stateMutability":"nonpayable"},{"type":"event","name":"Liquidate","inputs":[{"name":"user","type":"address","indexed":false,"internalType":"address"}],"anonymous":false},{"type":"event","name":"SwapToken","inputs":[{"name":"user","type":"address","indexed":false,"internalType":"address"},{"name":"token","type":"address","indexed":false,"internalType":"address"},{"name":"amount","type":"uint256","indexed":false,"internalType":"uint256"}],"anonymous":false},{"type":"event","name":"SwapTokenByPosition","inputs":[{"name":"user","type":"address","indexed":false,"internalType":"address"},{"name":"tokenIn","type":"address","indexed":false,"internalType":"address"},{"name":"tokenOut","type":"address","indexed":false,"internalType":"address"},{"name":"amountIn","type":"uint256","indexed":false,"internalType":"uint256"},{"name":"amountOut","type":"uint256","indexed":false,"internalType":"uint256"}],"anonymous":false},{"type":"event","name":"WithdrawCollateral","inputs":[{"name":"user","type":"address","indexed":true,"internalType":"address"},{"name":"amount","type":"uint256","indexed":false,"internalType":"uint256"}],"anonymous":false},{"type":"error","name":"InsufficientBalance","inputs":[]},{"type":"error","name":"InvalidParameter","inputs":[]},{"type":"error","name":"NotForSwap","inputs":[]},{"type":"error","name":"NotForWithdraw","inputs":[]},{"type":"error","name":"OracleOnTokenNotSet","inputs":[]},{"type":"error","name":"ReentrancyGuardReentrantCall","inputs":[]},{"type":"error","name":"SafeERC20FailedOperation","inputs":[{"name":"token","type":"address","internalType":"address"}]},{"type":"error","name":"TransferFailed","inputs":[]},{"type":"error","name":"ZeroAmount","inputs":[]}],"bytecode":{"object":"0x608060405234801561000f575f5ffd5b50604051613419380380613419833981810160405281019061003191906102f5565b60015f819055508160025f6101000a81548173ffffffffffffffffffffffffffffffffffffffff021916908373ffffffffffffffffffffffffffffffffffffffff1602179055508060015f6101000a81548173ffffffffffffffffffffffffffffffffffffffff021916908373ffffffffffffffffffffffffffffffffffffffff16021790555060035f81546100c690610369565b919050819055506100db61018360201b60201c565b60055f60035481526020019081526020015f205f6101000a81548173ffffffffffffffffffffffffffffffffffffffff021916908373ffffffffffffffffffffffffffffffffffffffff16021790555060035460065f61013f61018360201b60201c565b73ffffffffffffffffffffffffffffffffffffffff1673ffffffffffffffffffffffffffffffffffffffff1681526020019081526020015f208190555050506103db565b5f61019261020360201b60201c565b73ffffffffffffffffffffffffffffffffffffffff1663b2016bd46040518163ffffffff1660e01b8152600401602060405180830381865afa1580156101da573d5f5f3e3d5ffd5b505050506040513d601f19601f820116820180604052508101906101fe91906103b0565b905090565b5f60025f9054906101000a900473ffffffffffffffffffffffffffffffffffffffff1673ffffffffffffffffffffffffffffffffffffffff1663f887ea406040518163ffffffff1660e01b8152600401602060405180830381865afa15801561026e573d5f5f3e3d5ffd5b505050506040513d601f19601f8201168201806040525081019061029291906103b0565b905090565b5f5ffd5b5f73ffffffffffffffffffffffffffffffffffffffff82169050919050565b5f6102c48261029b565b9050919050565b6102d4816102ba565b81146102de575f5ffd5b50565b5f815190506102ef816102cb565b92915050565b5f5f6040838503121561030b5761030a610297565b5b5f610318858286016102e1565b9250506020610329858286016102e1565b9150509250929050565b7f4e487b71000000000000000000000000000000000000000000000000000000005f52601160045260245ffd5b5f819050919050565b5f61037382610360565b91507fffffffffffffffffffffffffffffffffffffffffffffffffffffffffffffffff82036103a5576103a4610333565b5b600182019050919050565b5f602082840312156103c5576103c4610297565b5b5f6103d2848285016102e1565b91505092915050565b613031806103e85f395ff3fe6080604052600436106100c5575f3560e01c80638c3bc0b11161007e578063dd9103cb11610058578063dd9103cb146103e6578063f4191e6814610422578063fa58d7b41461045e578063ffa1ad7414610486576101f7565b80638c3bc0b1146103565780638da5cb5b146103925780639b4dc8cc146103bc576101f7565b80631cb928a9146102325780632ba0c8a31461026e5780633814ccc01461028a578063513f7d1e146102b45780635984c851146102f057806361bc221a1461032c576101f7565b366101f7575f341180156100e5575060045f9054906101000a900460ff16155b80156101245750600173ffffffffffffffffffffffffffffffffffffffff1661010c6104b0565b73ffffffffffffffffffffffffffffffffffffffff16145b156101925761013161052a565b73ffffffffffffffffffffffffffffffffffffffff1663d0e30db0346040518263ffffffff1660e01b81526004015f604051808303818588803b158015610176575f5ffd5b505af1158015610188573d5f5f3e3d5ffd5b50505050506101f4565b5f341180156101ac575060045f9054906101000a900460ff165b6101f5575f3411156101f3576040517f08c379a00000000000000000000000000000000000000000000000000000000081526004016101ea906124f7565b60405180910390fd5b5b5b005b6040517f08c379a00000000000000000000000000000000000000000000000000000000081526004016102299061255f565b60405180910390fd5b34801561023d575f5ffd5b50610258600480360381019061025391906125b4565b6105a4565b604051610265919061261e565b60405180910390f35b61028860048036038101906102839190612661565b6105d4565b005b348015610295575f5ffd5b5061029e6109c7565b6040516102ab919061261e565b60405180910390f35b3480156102bf575f5ffd5b506102da60048036038101906102d591906126b1565b6109df565b6040516102e791906126eb565b60405180910390f35b3480156102fb575f5ffd5b5061031660048036038101906103119190612704565b610c72565b60405161032391906126eb565b60405180910390f35b348015610337575f5ffd5b50610340610ec5565b60405161034d91906126eb565b60405180910390f35b348015610361575f5ffd5b5061037c60048036038101906103779190612754565b610ecb565b60405161038991906126eb565b60405180910390f35b34801561039d575f5ffd5b506103a6611340565b6040516103b3919061261e565b60405180910390f35b3480156103c7575f5ffd5b506103d0611365565b6040516103dd919061261e565b60405180910390f35b3480156103f1575f5ffd5b5061040c600480360381019061040791906127b8565b61138a565b60405161041991906126eb565b60405180910390f35b34801561042d575f5ffd5b50610448600480360381019061044391906126b1565b611636565b60405161045591906126eb565b60405180910390f35b348015610469575f5ffd5b50610484600480360381019061047f9190612864565b61164b565b005b348015610491575f5ffd5b5061049a61195a565b6040516104a791906128cf565b60405180910390f35b5f6104b961195f565b73ffffffffffffffffffffffffffffffffffffffff1663b2016bd46040518163ffffffff1660e01b8152600401602060405180830381865afa158015610501573d5f5f3e3d5ffd5b505050506040513d601f19601f8201168201806040525081019061052591906128fc565b905090565b5f6105336119f3565b73ffffffffffffffffffffffffffffffffffffffff1663145d51d86040518163ffffffff1660e01b8152600401602060405180830381865afa15801561057b573d5f5f3e3d5ffd5b505050506040513d601f19601f8201168201806040525081019061059f91906128fc565b905090565b6005602052805f5260405f205f915054906101000a900473ffffffffffffffffffffffffffffffffffffffff1681565b6105dc611a6d565b5f8273ffffffffffffffffffffffffffffffffffffffff166370a08231306040518263ffffffff1660e01b8152600401610616919061261e565b602060405180830381865afa158015610631573d5f5f3e3d5ffd5b505050506040513d601f19601f82011682018060405250810190610655919061293b565b905083811015610691576040517ff4d678b800000000000000000000000000000000000000000000000000000000815260040160405180910390fd5b610699611c55565b73ffffffffffffffffffffffffffffffffffffffff168373ffffffffffffffffffffffffffffffffffffffff1614610887575f6106df846106d8611c55565b8486610ecb565b90508481101561071b576040517ff4d678b800000000000000000000000000000000000000000000000000000000815260040160405180910390fd5b8373ffffffffffffffffffffffffffffffffffffffff1663095ea7b360025f9054906101000a900473ffffffffffffffffffffffffffffffffffffffff16876040518363ffffffff1660e01b8152600401610777929190612966565b6020604051808303815f875af1158015610793573d5f5f3e3d5ffd5b505050506040513d601f19601f820116820180604052508101906107b791906129a1565b5061085460025f9054906101000a900473ffffffffffffffffffffffffffffffffffffffff1686600173ffffffffffffffffffffffffffffffffffffffff166107fe611c55565b73ffffffffffffffffffffffffffffffffffffffff161461082657610821611c55565b61082f565b61082e61052a565b5b73ffffffffffffffffffffffffffffffffffffffff16611ccf9092919063ffffffff16565b5f858261086191906129f9565b90505f8111156108805761087e610876611c55565b868387610ecb565b505b50506109c1565b8273ffffffffffffffffffffffffffffffffffffffff1663095ea7b360025f9054906101000a900473ffffffffffffffffffffffffffffffffffffffff16866040518363ffffffff1660e01b81526004016108e3929190612966565b6020604051808303815f875af11580156108ff573d5f5f3e3d5ffd5b505050506040513d601f19601f8201168201806040525081019061092391906129a1565b506109c060025f9054906101000a900473ffffffffffffffffffffffffffffffffffffffff1685600173ffffffffffffffffffffffffffffffffffffffff1661096a611c55565b73ffffffffffffffffffffffffffffffffffffffff16146109925761098d611c55565b61099b565b61099a61052a565b5b73ffffffffffffffffffffffffffffffffffffffff16611ccf9092919063ffffffff16565b5b50505050565b73a324880f884036e3d21a09b90269e1ac57c7ec8a81565b5f5f5f600173ffffffffffffffffffffffffffffffffffffffff168473ffffffffffffffffffffffffffffffffffffffff1603610aa057610a1e61052a565b73ffffffffffffffffffffffffffffffffffffffff166370a08231306040518263ffffffff1660e01b8152600401610a56919061261e565b602060405180830381865afa158015610a71573d5f5f3e3d5ffd5b505050506040513d601f19601f82011682018060405250810190610a95919061293b565b915060129050610b8d565b8373ffffffffffffffffffffffffffffffffffffffff166370a08231306040518263ffffffff1660e01b8152600401610ad9919061261e565b602060405180830381865afa158015610af4573d5f5f3e3d5ffd5b505050506040513d601f19601f82011682018060405250810190610b18919061293b565b91508373ffffffffffffffffffffffffffffffffffffffff1663313ce5676040518163ffffffff1660e01b8152600401602060405180830381865afa158015610b63573d5f5f3e3d5ffd5b505050506040513d601f19601f82011682018060405250810190610b879190612a56565b60ff1690505b5f610b9785611d4e565b73ffffffffffffffffffffffffffffffffffffffff1663feaf968c6040518163ffffffff1660e01b815260040160a060405180830381865afa158015610bdf573d5f5f3e3d5ffd5b505050506040513d601f19601f82011682018060405250810190610c039190612ac0565b5050509150505f610c1386611dd5565b600a610c1f9190612c66565b670de0b6b3a764000083610c339190612cb0565b610c3d9190612d1e565b90505f83600a610c4d9190612c66565b8286610c599190612cb0565b610c639190612d1e565b90508095505050505050919050565b5f3073ffffffffffffffffffffffffffffffffffffffff163373ffffffffffffffffffffffffffffffffffffffff1614610ce1576040517f08c379a0000000000000000000000000000000000000000000000000000000008152600401610cd890612d98565b60405180910390fd5b5f610ceb85611e55565b90505f610cf785611e55565b90505f610d0387611d4e565b90505f610d0f87611d4e565b90505f8273ffffffffffffffffffffffffffffffffffffffff1663feaf968c6040518163ffffffff1660e01b815260040160a060405180830381865afa158015610d5b573d5f5f3e3d5ffd5b505050506040513d601f19601f82011682018060405250810190610d7f9190612ac0565b5050509150505f8273ffffffffffffffffffffffffffffffffffffffff1663feaf968c6040518163ffffffff1660e01b815260040160a060405180830381865afa158015610dcf573d5f5f3e3d5ffd5b505050506040513d601f19601f82011682018060405250810190610df39190612ac0565b5050509150505f610e038b611dd5565b90505f610e0f8b611dd5565b90505f82600a610e1f9190612c66565b670de0b6b3a764000086610e339190612cb0565b610e3d9190612d1e565b90505f82600a610e4d9190612c66565b670de0b6b3a764000086610e619190612cb0565b610e6b9190612d1e565b905089600a610e7a9190612c66565b81610e859190612cb0565b89600a610e929190612c66565b838e610e9e9190612cb0565b610ea89190612cb0565b610eb29190612d1e565b9a50505050505050505050509392505050565b60035481565b5f84610ed681611f49565b84610ee081611f49565b5f8773ffffffffffffffffffffffffffffffffffffffff166370a08231306040518263ffffffff1660e01b8152600401610f1a919061261e565b602060405180830381865afa158015610f35573d5f5f3e3d5ffd5b505050506040513d601f19601f82011682018060405250810190610f59919061293b565b90505f8603610f94576040517f1f2a200500000000000000000000000000000000000000000000000000000000815260040160405180910390fd5b85811015610fce576040517ff4d678b800000000000000000000000000000000000000000000000000000000815260040160405180910390fd5b8673ffffffffffffffffffffffffffffffffffffffff168873ffffffffffffffffffffffffffffffffffffffff1603611033576040517f613970e000000000000000000000000000000000000000000000000000000000815260040160405180910390fd5b5f73ffffffffffffffffffffffffffffffffffffffff166110526119f3565b73ffffffffffffffffffffffffffffffffffffffff16631d43335a8a6040518263ffffffff1660e01b815260040161108a919061261e565b602060405180830381865afa1580156110a5573d5f5f3e3d5ffd5b505050506040513d601f19601f820116820180604052508101906110c991906128fc565b73ffffffffffffffffffffffffffffffffffffffff16148061119457505f73ffffffffffffffffffffffffffffffffffffffff166111056119f3565b73ffffffffffffffffffffffffffffffffffffffff16631d43335a896040518263ffffffff1660e01b815260040161113d919061261e565b602060405180830381865afa158015611158573d5f5f3e3d5ffd5b505050506040513d601f19601f8201168201806040525081019061117c91906128fc565b73ffffffffffffffffffffffffffffffffffffffff16145b156111cb576040517f7804b78f00000000000000000000000000000000000000000000000000000000815260040160405180910390fd5b60015f9054906101000a900473ffffffffffffffffffffffffffffffffffffffff1673ffffffffffffffffffffffffffffffffffffffff163373ffffffffffffffffffffffffffffffffffffffff1614158015611275575060025f9054906101000a900473ffffffffffffffffffffffffffffffffffffffff1673ffffffffffffffffffffffffffffffffffffffff163373ffffffffffffffffffffffffffffffffffffffff1614155b156112ac576040517f5b905d4e00000000000000000000000000000000000000000000000000000000815260040160405180910390fd5b6127108511156112e8576040517f613970e000000000000000000000000000000000000000000000000000000000815260040160405180910390fd5b6112f48888888861203b565b93507fc665f2f5768a61c064dd66125ac01f65d2f20d35ebb13a292211bf50619d753e338989898860405161132d959493929190612db6565b60405180910390a1505050949350505050565b60015f9054906101000a900473ffffffffffffffffffffffffffffffffffffffff1681565b60025f9054906101000a900473ffffffffffffffffffffffffffffffffffffffff1681565b5f5f61139461052a565b73ffffffffffffffffffffffffffffffffffffffff168773ffffffffffffffffffffffffffffffffffffffff1614611438578673ffffffffffffffffffffffffffffffffffffffff1663313ce5676040518163ffffffff1660e01b8152600401602060405180830381865afa15801561140f573d5f5f3e3d5ffd5b505050506040513d601f19601f820116820180604052508101906114339190612a56565b61143b565b60125b60ff1690505f61144961052a565b73ffffffffffffffffffffffffffffffffffffffff168773ffffffffffffffffffffffffffffffffffffffff16146114ed578673ffffffffffffffffffffffffffffffffffffffff1663313ce5676040518163ffffffff1660e01b8152600401602060405180830381865afa1580156114c4573d5f5f3e3d5ffd5b505050506040513d601f19601f820116820180604052508101906114e89190612a56565b6114f0565b60125b60ff1690505f8573ffffffffffffffffffffffffffffffffffffffff1663feaf968c6040518163ffffffff1660e01b815260040160a060405180830381865afa15801561153f573d5f5f3e3d5ffd5b505050506040513d601f19601f820116820180604052508101906115639190612ac0565b5050509150505f8573ffffffffffffffffffffffffffffffffffffffff1663feaf968c6040518163ffffffff1660e01b815260040160a060405180830381865afa1580156115b3573d5f5f3e3d5ffd5b505050506040513d601f19601f820116820180604052508101906115d79190612ac0565b5050509150505f84600a6115eb9190612c66565b8285600a6115f99190612c66565b856116049190612cb0565b61160e9190612d1e565b8a6116199190612cb0565b6116239190612d1e565b9050809550505050505095945050505050565b6006602052805f5260405f205f915090505481565b611653611a6d565b5f830361168c576040517f1f2a200500000000000000000000000000000000000000000000000000000000815260040160405180910390fd5b600173ffffffffffffffffffffffffffffffffffffffff166116ac6104b0565b73ffffffffffffffffffffffffffffffffffffffff16036118d457801561189c57600160045f6101000a81548160ff0219169083151502179055506116ef61052a565b73ffffffffffffffffffffffffffffffffffffffff1663095ea7b361171261052a565b856040518363ffffffff1660e01b8152600401611730929190612966565b6020604051808303815f875af115801561174c573d5f5f3e3d5ffd5b505050506040513d601f19601f8201168201806040525081019061177091906129a1565b5061177961052a565b73ffffffffffffffffffffffffffffffffffffffff16632e1a7d4d846040518263ffffffff1660e01b81526004016117b191906126eb565b5f604051808303815f87803b1580156117c8575f5ffd5b505af11580156117da573d5f5f3e3d5ffd5b505050505f8273ffffffffffffffffffffffffffffffffffffffff168460405161180390612e34565b5f6040518083038185875af1925050503d805f811461183d576040519150601f19603f3d011682016040523d82523d5f602084013e611842565b606091505b505090508061187d576040517f90b8ec1800000000000000000000000000000000000000000000000000000000815260040160405180910390fd5b5f60045f6101000a81548160ff021916908315150217905550506118cf565b6118ce82846118a961052a565b73ffffffffffffffffffffffffffffffffffffffff16611ccf9092919063ffffffff16565b5b611907565b61190682846118e16104b0565b73ffffffffffffffffffffffffffffffffffffffff16611ccf9092919063ffffffff16565b5b8173ffffffffffffffffffffffffffffffffffffffff167fa8e76b822fc682be77f3b1c822ea81f6bda5aed92ba82e6873bfd889f328d1d28460405161194d91906126eb565b60405180910390a2505050565b600281565b5f60025f9054906101000a900473ffffffffffffffffffffffffffffffffffffffff1673ffffffffffffffffffffffffffffffffffffffff1663f887ea406040518163ffffffff1660e01b8152600401602060405180830381865afa1580156119ca573d5f5f3e3d5ffd5b505050506040513d601f19601f820116820180604052508101906119ee91906128fc565b905090565b5f6119fc61195f565b73ffffffffffffffffffffffffffffffffffffffff1663c45a01556040518163ffffffff1660e01b8152600401602060405180830381865afa158015611a44573d5f5f3e3d5ffd5b505050506040513d601f19601f82011682018060405250810190611a6891906128fc565b905090565b5f611a766119f3565b90505f8173ffffffffffffffffffffffffffffffffffffffff1663e40208046040518163ffffffff1660e01b8152600401602060405180830381865afa158015611ac2573d5f5f3e3d5ffd5b505050506040513d601f19601f82011682018060405250810190611ae691906128fc565b90505f8173ffffffffffffffffffffffffffffffffffffffff16634046ebae6040518163ffffffff1660e01b8152600401602060405180830381865afa158015611b32573d5f5f3e3d5ffd5b505050506040513d601f19601f82011682018060405250810190611b5691906128fc565b905060025f9054906101000a900473ffffffffffffffffffffffffffffffffffffffff1673ffffffffffffffffffffffffffffffffffffffff163373ffffffffffffffffffffffffffffffffffffffff1614158015611be157508173ffffffffffffffffffffffffffffffffffffffff163373ffffffffffffffffffffffffffffffffffffffff1614155b8015611c1957508073ffffffffffffffffffffffffffffffffffffffff163373ffffffffffffffffffffffffffffffffffffffff1614155b15611c50576040517f7cc2b58600000000000000000000000000000000000000000000000000000000815260040160405180910390fd5b505050565b5f611c5e61195f565b73ffffffffffffffffffffffffffffffffffffffff1663456dc17a6040518163ffffffff1660e01b8152600401602060405180830381865afa158015611ca6573d5f5f3e3d5ffd5b505050506040513d601f19601f82011682018060405250810190611cca91906128fc565b905090565b611d49838473ffffffffffffffffffffffffffffffffffffffff1663a9059cbb8585604051602401611d02929190612966565b604051602081830303815290604052915060e01b6020820180517bffffffffffffffffffffffffffffffffffffffffffffffffffffffff8381831617835250505050612052565b505050565b5f611d576119f3565b73ffffffffffffffffffffffffffffffffffffffff16631d43335a836040518263ffffffff1660e01b8152600401611d8f919061261e565b602060405180830381865afa158015611daa573d5f5f3e3d5ffd5b505050506040513d601f19601f82011682018060405250810190611dce91906128fc565b9050919050565b5f611ddf82611d4e565b73ffffffffffffffffffffffffffffffffffffffff1663313ce5676040518163ffffffff1660e01b8152600401602060405180830381865afa158015611e27573d5f5f3e3d5ffd5b505050506040513d601f19601f82011682018060405250810190611e4b9190612a56565b60ff169050919050565b5f600173ffffffffffffffffffffffffffffffffffffffff168273ffffffffffffffffffffffffffffffffffffffff161480611ec35750611e9461052a565b73ffffffffffffffffffffffffffffffffffffffff168273ffffffffffffffffffffffffffffffffffffffff16145b15611ed15760129050611f44565b8173ffffffffffffffffffffffffffffffffffffffff1663313ce5676040518163ffffffff1660e01b8152600401602060405180830381865afa158015611f1a573d5f5f3e3d5ffd5b505050506040513d601f19601f82011682018060405250810190611f3e9190612a56565b60ff1690505b919050565b5f60065f8373ffffffffffffffffffffffffffffffffffffffff1673ffffffffffffffffffffffffffffffffffffffff1681526020019081526020015f2054036120385760035f8154611f9b90612e48565b919050819055508060055f60035481526020019081526020015f205f6101000a81548173ffffffffffffffffffffffffffffffffffffffff021916908373ffffffffffffffffffffffffffffffffffffffff16021790555060035460065f8373ffffffffffffffffffffffffffffffffffffffff1673ffffffffffffffffffffffffffffffffffffffff1681526020019081526020015f20819055505b50565b5f612048858585856120ed565b9050949350505050565b5f5f60205f8451602086015f885af180612071576040513d5f823e3d81fd5b3d92505f519150505f821461208a5760018114156120a5565b5f8473ffffffffffffffffffffffffffffffffffffffff163b145b156120e757836040517f5274afe70000000000000000000000000000000000000000000000000000000081526004016120de919061261e565b60405180910390fd5b50505050565b5f5f73a324880f884036e3d21a09b90269e1ac57c7ec8a90505f61211287878761232b565b90505f6127108561271061212691906129f9565b836121319190612cb0565b61213b9190612d1e565b90508773ffffffffffffffffffffffffffffffffffffffff1663095ea7b384886040518363ffffffff1660e01b8152600401612178929190612966565b6020604051808303815f875af1158015612194573d5f5f3e3d5ffd5b505050506040513d601f19601f820116820180604052508101906121b891906129a1565b505f6040518061010001604052808a73ffffffffffffffffffffffffffffffffffffffff168152602001600173ffffffffffffffffffffffffffffffffffffffff168a73ffffffffffffffffffffffffffffffffffffffff161461221c5789612225565b61222461052a565b5b73ffffffffffffffffffffffffffffffffffffffff1681526020016103e862ffffff1681526020013073ffffffffffffffffffffffffffffffffffffffff16815260200161012c426122779190612e8f565b81526020018881526020018381526020015f73ffffffffffffffffffffffffffffffffffffffff1681525090508373ffffffffffffffffffffffffffffffffffffffff1663414bf389826040518263ffffffff1660e01b81526004016122dd9190612fac565b6020604051808303815f875af11580156122f9573d5f5f3e3d5ffd5b505050506040513d601f19601f8201168201806040525081019061231d919061293b565b945050505050949350505050565b5f8273ffffffffffffffffffffffffffffffffffffffff168473ffffffffffffffffffffffffffffffffffffffff160361236757819050612470565b3073ffffffffffffffffffffffffffffffffffffffff16635984c8518585856040518463ffffffff1660e01b81526004016123a493929190612fc6565b602060405180830381865afa9250505080156123de57506040513d601f19601f820116820180604052508101906123db919061293b565b60015b61246a575f6123ec85611e55565b90505f6123f885611e55565b90508082111561242c57808261240e91906129f9565b600a61241a9190612c66565b846124259190612d1e565b9250612463565b8181111561245e57818161244091906129f9565b600a61244c9190612c66565b846124579190612cb0565b9250612462565b8392505b5b505061246f565b809150505b5b9392505050565b5f82825260208201905092915050565b7f506f736974696f6e20646f6573206e6f742068616e646c65206e6174697665205f8201527f746f6b656e730000000000000000000000000000000000000000000000000000602082015250565b5f6124e1602683612477565b91506124ec82612487565b604082019050919050565b5f6020820190508181035f83015261250e816124d5565b9050919050565b7f46616c6c6261636b206e6f7420616c6c6f7765640000000000000000000000005f82015250565b5f612549601483612477565b915061255482612515565b602082019050919050565b5f6020820190508181035f8301526125768161253d565b9050919050565b5f5ffd5b5f819050919050565b61259381612581565b811461259d575f5ffd5b50565b5f813590506125ae8161258a565b92915050565b5f602082840312156125c9576125c861257d565b5b5f6125d6848285016125a0565b91505092915050565b5f73ffffffffffffffffffffffffffffffffffffffff82169050919050565b5f612608826125df565b9050919050565b612618816125fe565b82525050565b5f6020820190506126315f83018461260f565b92915050565b612640816125fe565b811461264a575f5ffd5b50565b5f8135905061265b81612637565b92915050565b5f5f5f606084860312156126785761267761257d565b5b5f612685868287016125a0565b93505060206126968682870161264d565b92505060406126a7868287016125a0565b9150509250925092565b5f602082840312156126c6576126c561257d565b5b5f6126d38482850161264d565b91505092915050565b6126e581612581565b82525050565b5f6020820190506126fe5f8301846126dc565b92915050565b5f5f5f6060848603121561271b5761271a61257d565b5b5f6127288682870161264d565b93505060206127398682870161264d565b925050604061274a868287016125a0565b9150509250925092565b5f5f5f5f6080858703121561276c5761276b61257d565b5b5f6127798782880161264d565b945050602061278a8782880161264d565b935050604061279b878288016125a0565b92505060606127ac878288016125a0565b91505092959194509250565b5f5f5f5f5f60a086880312156127d1576127d061257d565b5b5f6127de8882890161264d565b95505060206127ef8882890161264d565b9450506040612800888289016125a0565b93505060606128118882890161264d565b92505060806128228882890161264d565b9150509295509295909350565b5f8115159050919050565b6128438161282f565b811461284d575f5ffd5b50565b5f8135905061285e8161283a565b92915050565b5f5f5f6060848603121561287b5761287a61257d565b5b5f612888868287016125a0565b93505060206128998682870161264d565b92505060406128aa86828701612850565b9150509250925092565b5f60ff82169050919050565b6128c9816128b4565b82525050565b5f6020820190506128e25f8301846128c0565b92915050565b5f815190506128f681612637565b92915050565b5f602082840312156129115761291061257d565b5b5f61291e848285016128e8565b91505092915050565b5f815190506129358161258a565b92915050565b5f602082840312156129505761294f61257d565b5b5f61295d84828501612927565b91505092915050565b5f6040820190506129795f83018561260f565b61298660208301846126dc565b9392505050565b5f8151905061299b8161283a565b92915050565b5f602082840312156129b6576129b561257d565b5b5f6129c38482850161298d565b91505092915050565b7f4e487b71000000000000000000000000000000000000000000000000000000005f52601160045260245ffd5b5f612a0382612581565b9150612a0e83612581565b9250828203905081811115612a2657612a256129cc565b5b92915050565b612a35816128b4565b8114612a3f575f5ffd5b50565b5f81519050612a5081612a2c565b92915050565b5f60208284031215612a6b57612a6a61257d565b5b5f612a7884828501612a42565b91505092915050565b5f69ffffffffffffffffffff82169050919050565b612a9f81612a81565b8114612aa9575f5ffd5b50565b5f81519050612aba81612a96565b92915050565b5f5f5f5f5f60a08688031215612ad957612ad861257d565b5b5f612ae688828901612aac565b9550506020612af788828901612927565b9450506040612b0888828901612927565b9350506060612b1988828901612927565b9250506080612b2a88828901612aac565b9150509295509295909350565b5f8160011c9050919050565b5f5f8291508390505b6001851115612b8c57808604811115612b6857612b676129cc565b5b6001851615612b775780820291505b8081029050612b8585612b37565b9450612b4c565b94509492505050565b5f82612ba45760019050612c5f565b81612bb1575f9050612c5f565b8160018114612bc75760028114612bd157612c00565b6001915050612c5f565b60ff841115612be357612be26129cc565b5b8360020a915084821115612bfa57612bf96129cc565b5b50612c5f565b5060208310610133831016604e8410600b8410161715612c355782820a905083811115612c3057612c2f6129cc565b5b612c5f565b612c428484846001612b43565b92509050818404811115612c5957612c586129cc565b5b81810290505b9392505050565b5f612c7082612581565b9150612c7b83612581565b9250612ca87fffffffffffffffffffffffffffffffffffffffffffffffffffffffffffffffff8484612b95565b905092915050565b5f612cba82612581565b9150612cc583612581565b9250828202612cd381612581565b91508282048414831517612cea57612ce96129cc565b5b5092915050565b7f4e487b71000000000000000000000000000000000000000000000000000000005f52601260045260245ffd5b5f612d2882612581565b9150612d3383612581565b925082612d4357612d42612cf1565b5b828204905092915050565b7f556e617574686f72697a656400000000000000000000000000000000000000005f82015250565b5f612d82600c83612477565b9150612d8d82612d4e565b602082019050919050565b5f6020820190508181035f830152612daf81612d76565b9050919050565b5f60a082019050612dc95f83018861260f565b612dd6602083018761260f565b612de3604083018661260f565b612df060608301856126dc565b612dfd60808301846126dc565b9695505050505050565b5f81905092915050565b50565b5f612e1f5f83612e07565b9150612e2a82612e11565b5f82019050919050565b5f612e3e82612e14565b9150819050919050565b5f612e5282612581565b91507fffffffffffffffffffffffffffffffffffffffffffffffffffffffffffffffff8203612e8457612e836129cc565b5b600182019050919050565b5f612e9982612581565b9150612ea483612581565b9250828201905080821115612ebc57612ebb6129cc565b5b92915050565b612ecb816125fe565b82525050565b5f62ffffff82169050919050565b612ee881612ed1565b82525050565b612ef781612581565b82525050565b612f06816125df565b82525050565b61010082015f820151612f215f850182612ec2565b506020820151612f346020850182612ec2565b506040820151612f476040850182612edf565b506060820151612f5a6060850182612ec2565b506080820151612f6d6080850182612eee565b5060a0820151612f8060a0850182612eee565b5060c0820151612f9360c0850182612eee565b5060e0820151612fa660e0850182612efd565b50505050565b5f61010082019050612fc05f830184612f0c565b92915050565b5f606082019050612fd95f83018661260f565b612fe6602083018561260f565b612ff360408301846126dc565b94935050505056fea26469706673582212209f9e64a9c3f26adb0842a94aa2e8d005c111fd02f24fd82868104c4e9dd9ab7f64736f6c634300081c0033","linkReferences":{}},"methodIdentifiers":{"DRAGON_SWAP_ROUTER()":"3814ccc0","VERSION()":"ffa1ad74","_calculateExpectedAmountWithPriceFeeds(address,address,uint256)":"5984c851","counter()":"61bc221a","lpAddress()":"9b4dc8cc","owner()":"8da5cb5b","repayWithSelectedToken(uint256,address,uint256)":"2ba0c8a3","swapTokenByPosition(address,address,uint256,uint256)":"8c3bc0b1","tokenCalculator(address,address,uint256,address,address)":"dd9103cb","tokenLists(uint256)":"1cb928a9","tokenListsId(address)":"f4191e68","tokenValue(address)":"513f7d1e","withdrawCollateral(uint256,address,bool)":"fa58d7b4"},"id":141}