{"abi":[{"type":"constructor","inputs":[{"name":"_lpAddress","type":"address","internalType":"address"},{"name":"_user","type":"address","internalType":"address"}],"stateMutability":"nonpayable"},{"type":"fallback","stateMutability":"payable"},{"type":"receive","stateMutability":"payable"},{"type":"function","name":"_tokenCalculator","inputs":[{"name":"_tokenIn","type":"address","internalType":"address"},{"name":"_tokenOut","type":"address","internalType":"address"},{"name":"_amountIn","type":"uint256","internalType":"uint256"}],"outputs":[{"name":"","type":"uint256","internalType":"uint256"}],"stateMutability":"view"},{"type":"function","name":"counter","inputs":[],"outputs":[{"name":"","type":"uint256","internalType":"uint256"}],"stateMutability":"view"},{"type":"function","name":"liquidation","inputs":[{"name":"_liquidator","type":"address","internalType":"address"},{"name":"_liquidationBonus","type":"uint256","internalType":"uint256"}],"outputs":[],"stateMutability":"nonpayable"},{"type":"function","name":"lpAddress","inputs":[],"outputs":[{"name":"","type":"address","internalType":"address"}],"stateMutability":"view"},{"type":"function","name":"owner","inputs":[],"outputs":[{"name":"","type":"address","internalType":"address"}],"stateMutability":"view"},{"type":"function","name":"repayWithSelectedToken","inputs":[{"name":"_token","type":"address","internalType":"address"},{"name":"_amount","type":"uint256","internalType":"uint256"},{"name":"_amountOutMinimum","type":"uint256","internalType":"uint256"}],"outputs":[],"stateMutability":"payable"},{"type":"function","name":"swapTokenByPosition","inputs":[{"name":"_tokenIn","type":"address","internalType":"address"},{"name":"_tokenOut","type":"address","internalType":"address"},{"name":"_amountIn","type":"uint256","internalType":"uint256"},{"name":"_amountOutMinimum","type":"uint256","internalType":"uint256"}],"outputs":[{"name":"amountOut","type":"uint256","internalType":"uint256"}],"stateMutability":"nonpayable"},{"type":"function","name":"swapTokenToBorrow","inputs":[{"name":"_token","type":"address","internalType":"address"},{"name":"_amount","type":"uint256","internalType":"uint256"},{"name":"_amountOutMinimum","type":"uint256","internalType":"uint256"}],"outputs":[],"stateMutability":"nonpayable"},{"type":"function","name":"tokenLists","inputs":[{"name":"","type":"uint256","internalType":"uint256"}],"outputs":[{"name":"","type":"address","internalType":"address"}],"stateMutability":"view"},{"type":"function","name":"tokenListsId","inputs":[{"name":"","type":"address","internalType":"address"}],"outputs":[{"name":"","type":"uint256","internalType":"uint256"}],"stateMutability":"view"},{"type":"function","name":"totalCollateral","inputs":[],"outputs":[{"name":"","type":"uint256","internalType":"uint256"}],"stateMutability":"view"},{"type":"function","name":"withdrawCollateral","inputs":[{"name":"amount","type":"uint256","internalType":"uint256"},{"name":"_user","type":"address","internalType":"address"}],"outputs":[],"stateMutability":"nonpayable"},{"type":"event","name":"Liquidate","inputs":[{"name":"user","type":"address","indexed":false,"internalType":"address"}],"anonymous":false},{"type":"event","name":"SwapToken","inputs":[{"name":"user","type":"address","indexed":false,"internalType":"address"},{"name":"token","type":"address","indexed":false,"internalType":"address"},{"name":"amount","type":"uint256","indexed":false,"internalType":"uint256"}],"anonymous":false},{"type":"event","name":"SwapTokenByPosition","inputs":[{"name":"user","type":"address","indexed":false,"internalType":"address"},{"name":"tokenIn","type":"address","indexed":false,"internalType":"address"},{"name":"tokenOut","type":"address","indexed":false,"internalType":"address"},{"name":"amountIn","type":"uint256","indexed":false,"internalType":"uint256"},{"name":"amountOut","type":"uint256","indexed":false,"internalType":"uint256"}],"anonymous":false},{"type":"event","name":"WithdrawCollateral","inputs":[{"name":"user","type":"address","indexed":true,"internalType":"address"},{"name":"amount","type":"uint256","indexed":false,"internalType":"uint256"}],"anonymous":false},{"type":"error","name":"InsufficientBalance","inputs":[]},{"type":"error","name":"InsufficientOutputAmount","inputs":[{"name":"amountOut","type":"uint256","internalType":"uint256"},{"name":"amountOutMinimum","type":"uint256","internalType":"uint256"}]},{"type":"error","name":"InvalidParameter","inputs":[]},{"type":"error","name":"NotForSwap","inputs":[]},{"type":"error","name":"NotForWithdraw","inputs":[]},{"type":"error","name":"OnlyForLendingPool","inputs":[]},{"type":"error","name":"OracleOnTokenNotSet","inputs":[]},{"type":"error","name":"ReentrancyGuardReentrantCall","inputs":[]},{"type":"error","name":"SafeERC20FailedOperation","inputs":[{"name":"token","type":"address","internalType":"address"}]},{"type":"error","name":"TransferFailed","inputs":[]},{"type":"error","name":"ZeroAmount","inputs":[]}],"bytecode":{"object":"0x608060405234801561000f575f5ffd5b50604051612bca380380612bca833981810160405281019061003191906102f5565b60015f819055508160025f6101000a81548173ffffffffffffffffffffffffffffffffffffffff021916908373ffffffffffffffffffffffffffffffffffffffff1602179055508060015f6101000a81548173ffffffffffffffffffffffffffffffffffffffff021916908373ffffffffffffffffffffffffffffffffffffffff16021790555060035f81546100c690610369565b919050819055506100db61018360201b60201c565b60055f60035481526020019081526020015f205f6101000a81548173ffffffffffffffffffffffffffffffffffffffff021916908373ffffffffffffffffffffffffffffffffffffffff16021790555060035460065f61013f61018360201b60201c565b73ffffffffffffffffffffffffffffffffffffffff1673ffffffffffffffffffffffffffffffffffffffff1681526020019081526020015f208190555050506103db565b5f61019261020360201b60201c565b73ffffffffffffffffffffffffffffffffffffffff1663b2016bd46040518163ffffffff1660e01b8152600401602060405180830381865afa1580156101da573d5f5f3e3d5ffd5b505050506040513d601f19601f820116820180604052508101906101fe91906103b0565b905090565b5f60025f9054906101000a900473ffffffffffffffffffffffffffffffffffffffff1673ffffffffffffffffffffffffffffffffffffffff1663f887ea406040518163ffffffff1660e01b8152600401602060405180830381865afa15801561026e573d5f5f3e3d5ffd5b505050506040513d601f19601f8201168201806040525081019061029291906103b0565b905090565b5f5ffd5b5f73ffffffffffffffffffffffffffffffffffffffff82169050919050565b5f6102c48261029b565b9050919050565b6102d4816102ba565b81146102de575f5ffd5b50565b5f815190506102ef816102cb565b92915050565b5f5f6040838503121561030b5761030a610297565b5b5f610318858286016102e1565b9250506020610329858286016102e1565b9150509250929050565b7f4e487b71000000000000000000000000000000000000000000000000000000005f52601160045260245ffd5b5f819050919050565b5f61037382610360565b91507fffffffffffffffffffffffffffffffffffffffffffffffffffffffffffffffff82036103a5576103a4610333565b5b600182019050919050565b5f602082840312156103c5576103c4610297565b5b5f6103d2848285016102e1565b91505092915050565b6127e2806103e85f395ff3fe6080604052600436106100aa575f3560e01c80636f2bb86a116100635780636f2bb86a146103335780638c3bc0b11461035b5780638da5cb5b146103975780639b4dc8cc146103c1578063bc4c8626146103eb578063f4191e6814610407576101dc565b80630af504cc146102175780631cb928a91461023f5780631fc14d5b1461027b5780634ac8eb5f146102a35780634be89371146102cd57806361bc221a14610309576101dc565b366101dc575f341180156100ca575060045f9054906101000a900460ff16155b80156101095750600173ffffffffffffffffffffffffffffffffffffffff166100f1610443565b73ffffffffffffffffffffffffffffffffffffffff16145b15610177576101166104bd565b73ffffffffffffffffffffffffffffffffffffffff1663d0e30db0346040518263ffffffff1660e01b81526004015f604051808303818588803b15801561015b575f5ffd5b505af115801561016d573d5f5f3e3d5ffd5b50505050506101d9565b5f34118015610191575060045f9054906101000a900460ff165b6101da575f3411156101d8576040517f08c379a00000000000000000000000000000000000000000000000000000000081526004016101cf90611d70565b60405180910390fd5b5b5b005b6040517f08c379a000000000000000000000000000000000000000000000000000000000815260040161020e90611dd8565b60405180910390fd5b348015610222575f5ffd5b5061023d60048036038101906102389190611e87565b610537565b005b34801561024a575f5ffd5b5061026560048036038101906102609190611ec5565b6105d4565b6040516102729190611eff565b60405180910390f35b348015610286575f5ffd5b506102a1600480360381019061029c9190611f18565b610604565b005b3480156102ae575f5ffd5b506102b7610829565b6040516102c49190611f77565b60405180910390f35b3480156102d8575f5ffd5b506102f360048036038101906102ee9190611f90565b61093b565b6040516103009190611f77565b60405180910390f35b348015610314575f5ffd5b5061031d6109c3565b60405161032a9190611f77565b60405180910390f35b34801561033e575f5ffd5b5061035960048036038101906103549190611fe0565b6109c9565b005b348015610366575f5ffd5b50610381600480360381019061037c919061201e565b610bb7565b60405161038e9190611f77565b60405180910390f35b3480156103a2575f5ffd5b506103ab610cdc565b6040516103b89190611eff565b60405180910390f35b3480156103cc575f5ffd5b506103d5610d01565b6040516103e29190611eff565b60405180910390f35b61040560048036038101906104009190611f18565b610d26565b005b348015610412575f5ffd5b5061042d60048036038101906104289190612082565b611056565b60405161043a9190611f77565b60405180910390f35b5f61044c61106b565b73ffffffffffffffffffffffffffffffffffffffff1663b2016bd46040518163ffffffff1660e01b8152600401602060405180830381865afa158015610494573d5f5f3e3d5ffd5b505050506040513d601f19601f820116820180604052508101906104b891906120c1565b905090565b5f6104c66110ff565b73ffffffffffffffffffffffffffffffffffffffff1663eb6d3a116040518163ffffffff1660e01b8152600401602060405180830381865afa15801561050e573d5f5f3e3d5ffd5b505050506040513d601f19601f8201168201806040525081019061053291906120c1565b905090565b61053f611179565b5f8203610578576040517f1f2a200500000000000000000000000000000000000000000000000000000000815260040160405180910390fd5b6105828282611201565b8073ffffffffffffffffffffffffffffffffffffffff167fa8e76b822fc682be77f3b1c822ea81f6bda5aed92ba82e6873bfd889f328d1d2836040516105c89190611f77565b60405180910390a25050565b6005602052805f5260405f205f915054906101000a900473ffffffffffffffffffffffffffffffffffffffff1681565b61060c611179565b6106393330848673ffffffffffffffffffffffffffffffffffffffff16611442909392919063ffffffff16565b5f61064c846106466114c4565b8561153e565b90505f8473ffffffffffffffffffffffffffffffffffffffff166370a08231306040518263ffffffff1660e01b81526004016106889190611eff565b602060405180830381865afa1580156106a3573d5f5f3e3d5ffd5b505050506040513d601f19601f820116820180604052508101906106c79190612100565b905081811015610703576040517ff4d678b800000000000000000000000000000000000000000000000000000000815260040160405180910390fd5b5f610727610710876115d6565b61072061071b6114c4565b6115d6565b8587611623565b90508573ffffffffffffffffffffffffffffffffffffffff1663095ea7b360025f9054906101000a900473ffffffffffffffffffffffffffffffffffffffff16836040518363ffffffff1660e01b815260040161078592919061212b565b6020604051808303815f875af11580156107a1573d5f5f3e3d5ffd5b505050506040513d601f19601f820116820180604052508101906107c59190612187565b5061082160025f9054906101000a900473ffffffffffffffffffffffffffffffffffffffff16826107fc6107f76114c4565b6115d6565b73ffffffffffffffffffffffffffffffffffffffff1661182a9092919063ffffffff16565b505050505050565b5f5f5f90505f600190505b6003548111610933575f60055f8381526020019081526020015f205f9054906101000a900473ffffffffffffffffffffffffffffffffffffffff16905061091261087d826115d6565b61088d610888610443565b6115d6565b610896846115d6565b73ffffffffffffffffffffffffffffffffffffffff166370a08231306040518263ffffffff1660e01b81526004016108ce9190611eff565b602060405180830381865afa1580156108e9573d5f5f3e3d5ffd5b505050506040513d601f19601f8201168201806040525081019061090d9190612100565b61093b565b8361091d91906121df565b925050808061092b90612212565b915050610834565b508091505090565b5f5f610946856118a9565b90505f610952856118a9565b90505f61095e87611965565b90505f61096a87611965565b90505f84600a61097a9190612388565b8285600a6109889190612388565b8561099391906123d2565b61099d9190612440565b886109a891906123d2565b6109b29190612440565b905080955050505050509392505050565b60035481565b6109d1611179565b5f600190505b6003548111610b72575f60055f8381526020019081526020015f205f9054906101000a900473ffffffffffffffffffffffffffffffffffffffff1690505f610a1e826115d6565b73ffffffffffffffffffffffffffffffffffffffff166370a08231306040518263ffffffff1660e01b8152600401610a569190611eff565b602060405180830381865afa158015610a71573d5f5f3e3d5ffd5b505050506040513d601f19601f82011682018060405250810190610a959190612100565b90505f670de0b6b3a764000085670de0b6b3a7640000610ab59190612470565b83610ac091906123d2565b610aca9190612440565b90505f670de0b6b3a76400008684610ae291906123d2565b610aec9190612440565b9050610b218783610afc876115d6565b73ffffffffffffffffffffffffffffffffffffffff1661182a9092919063ffffffff16565b610b5b610b2c6119f5565b82610b36876115d6565b73ffffffffffffffffffffffffffffffffffffffff1661182a9092919063ffffffff16565b505050508080610b6a90612212565b9150506109d7565b508160015f6101000a81548173ffffffffffffffffffffffffffffffffffffffff021916908373ffffffffffffffffffffffffffffffffffffffff1602179055505050565b5f84610bc281611a6f565b84610bcc81611a6f565b610bd4611179565b848773ffffffffffffffffffffffffffffffffffffffff166370a08231306040518263ffffffff1660e01b8152600401610c0e9190611eff565b602060405180830381865afa158015610c29573d5f5f3e3d5ffd5b505050506040513d601f19601f82011682018060405250810190610c4d9190612100565b1015610c85576040517ff4d678b800000000000000000000000000000000000000000000000000000000815260040160405180910390fd5b610c9187878787611623565b92507fc665f2f5768a61c064dd66125ac01f65d2f20d35ebb13a292211bf50619d753e3388888887604051610cca9594939291906124a3565b60405180910390a15050949350505050565b60015f9054906101000a900473ffffffffffffffffffffffffffffffffffffffff1681565b60025f9054906101000a900473ffffffffffffffffffffffffffffffffffffffff1681565b610d2e611179565b610d366114c4565b73ffffffffffffffffffffffffffffffffffffffff168373ffffffffffffffffffffffffffffffffffffffff1614610f58575f610d7b84610d756114c4565b8561153e565b90505f8473ffffffffffffffffffffffffffffffffffffffff166370a08231306040518263ffffffff1660e01b8152600401610db79190611eff565b602060405180830381865afa158015610dd2573d5f5f3e3d5ffd5b505050506040513d601f19601f82011682018060405250810190610df69190612100565b905081811015610e32576040517ff4d678b800000000000000000000000000000000000000000000000000000000815260040160405180910390fd5b5f610e56610e3f876115d6565b610e4f610e4a6114c4565b6115d6565b8587611623565b90508573ffffffffffffffffffffffffffffffffffffffff1663095ea7b360025f9054906101000a900473ffffffffffffffffffffffffffffffffffffffff16836040518363ffffffff1660e01b8152600401610eb492919061212b565b6020604051808303815f875af1158015610ed0573d5f5f3e3d5ffd5b505050506040513d601f19601f82011682018060405250810190610ef49190612187565b50610f5060025f9054906101000a900473ffffffffffffffffffffffffffffffffffffffff1682610f2b610f266114c4565b6115d6565b73ffffffffffffffffffffffffffffffffffffffff1661182a9092919063ffffffff16565b505050611051565b8273ffffffffffffffffffffffffffffffffffffffff1663095ea7b360025f9054906101000a900473ffffffffffffffffffffffffffffffffffffffff16846040518363ffffffff1660e01b8152600401610fb492919061212b565b6020604051808303815f875af1158015610fd0573d5f5f3e3d5ffd5b505050506040513d601f19601f82011682018060405250810190610ff49190612187565b5061105060025f9054906101000a900473ffffffffffffffffffffffffffffffffffffffff168361102b6110266114c4565b6115d6565b73ffffffffffffffffffffffffffffffffffffffff1661182a9092919063ffffffff16565b5b505050565b6006602052805f5260405f205f915090505481565b5f60025f9054906101000a900473ffffffffffffffffffffffffffffffffffffffff1673ffffffffffffffffffffffffffffffffffffffff1663f887ea406040518163ffffffff1660e01b8152600401602060405180830381865afa1580156110d6573d5f5f3e3d5ffd5b505050506040513d601f19601f820116820180604052508101906110fa91906120c1565b905090565b5f61110861106b565b73ffffffffffffffffffffffffffffffffffffffff1663c45a01556040518163ffffffff1660e01b8152600401602060405180830381865afa158015611150573d5f5f3e3d5ffd5b505050506040513d601f19601f8201168201806040525081019061117491906120c1565b905090565b60025f9054906101000a900473ffffffffffffffffffffffffffffffffffffffff1673ffffffffffffffffffffffffffffffffffffffff163373ffffffffffffffffffffffffffffffffffffffff16146111ff576040517f453c3e9d00000000000000000000000000000000000000000000000000000000815260040160405180910390fd5b565b600173ffffffffffffffffffffffffffffffffffffffff16611221610443565b73ffffffffffffffffffffffffffffffffffffffff160361140b57600160045f6101000a81548160ff02191690831515021790555061125e6104bd565b73ffffffffffffffffffffffffffffffffffffffff1663095ea7b36112816104bd565b846040518363ffffffff1660e01b815260040161129f92919061212b565b6020604051808303815f875af11580156112bb573d5f5f3e3d5ffd5b505050506040513d601f19601f820116820180604052508101906112df9190612187565b506112e86104bd565b73ffffffffffffffffffffffffffffffffffffffff16632e1a7d4d836040518263ffffffff1660e01b81526004016113209190611f77565b5f604051808303815f87803b158015611337575f5ffd5b505af1158015611349573d5f5f3e3d5ffd5b505050505f8173ffffffffffffffffffffffffffffffffffffffff168360405161137290612521565b5f6040518083038185875af1925050503d805f81146113ac576040519150601f19603f3d011682016040523d82523d5f602084013e6113b1565b606091505b50509050806113ec576040517f90b8ec1800000000000000000000000000000000000000000000000000000000815260040160405180910390fd5b5f60045f6101000a81548160ff0219169083151502179055505061143e565b61143d8183611418610443565b73ffffffffffffffffffffffffffffffffffffffff1661182a9092919063ffffffff16565b5b5050565b6114be848573ffffffffffffffffffffffffffffffffffffffff166323b872dd86868660405160240161147793929190612535565b604051602081830303815290604052915060e01b6020820180517bffffffffffffffffffffffffffffffffffffffffffffffffffffffff8381831617835250505050611b61565b50505050565b5f6114cd61106b565b73ffffffffffffffffffffffffffffffffffffffff1663456dc17a6040518163ffffffff1660e01b8152600401602060405180830381865afa158015611515573d5f5f3e3d5ffd5b505050506040513d601f19601f8201168201806040525081019061153991906120c1565b905090565b5f5f61154984611965565b90505f61155586611965565b90505f611569611564876115d6565b6118a9565b90505f61157d611578896115d6565b6118a9565b90505f82600a61158d9190612388565b8461159891906123d2565b82600a6115a59190612388565b86896115b191906123d2565b6115bb91906123d2565b6115c59190612440565b905080955050505050509392505050565b5f600173ffffffffffffffffffffffffffffffffffffffff168273ffffffffffffffffffffffffffffffffffffffff160361161a576116136104bd565b905061161e565b8190505b919050565b5f8473ffffffffffffffffffffffffffffffffffffffff1663095ea7b3611648611bfc565b856040518363ffffffff1660e01b815260040161166692919061212b565b6020604051808303815f875af1158015611682573d5f5f3e3d5ffd5b505050506040513d601f19601f820116820180604052508101906116a69190612187565b505f6040518061010001604052808773ffffffffffffffffffffffffffffffffffffffff1681526020016116d9876115d6565b73ffffffffffffffffffffffffffffffffffffffff1681526020016103e862ffffff1681526020013073ffffffffffffffffffffffffffffffffffffffff16815260200161012c4261172b91906121df565b81526020018581526020018481526020015f73ffffffffffffffffffffffffffffffffffffffff168152509050611760611bfc565b73ffffffffffffffffffffffffffffffffffffffff1663414bf389826040518263ffffffff1660e01b81526004016117989190612654565b6020604051808303815f875af11580156117b4573d5f5f3e3d5ffd5b505050506040513d601f19601f820116820180604052508101906117d89190612100565b9150828210156118215781836040517fd28d3eb500000000000000000000000000000000000000000000000000000000815260040161181892919061266e565b60405180910390fd5b50949350505050565b6118a4838473ffffffffffffffffffffffffffffffffffffffff1663a9059cbb858560405160240161185d92919061212b565b604051602081830303815290604052915060e01b6020820180517bffffffffffffffffffffffffffffffffffffffffffffffffffffffff8381831617835250505050611b61565b505050565b5f6118b26104bd565b73ffffffffffffffffffffffffffffffffffffffff168273ffffffffffffffffffffffffffffffffffffffff16036118ed5760129050611960565b8173ffffffffffffffffffffffffffffffffffffffff1663313ce5676040518163ffffffff1660e01b8152600401602060405180830381865afa158015611936573d5f5f3e3d5ffd5b505050506040513d601f19601f8201168201806040525081019061195a91906126cb565b60ff1690505b919050565b5f5f61196f611c76565b73ffffffffffffffffffffffffffffffffffffffff1663a13cc76a846040518263ffffffff1660e01b81526004016119a79190611eff565b60a060405180830381865afa1580156119c2573d5f5f3e3d5ffd5b505050506040513d601f19601f820116820180604052508101906119e69190612735565b50505091505080915050919050565b5f6119fe6110ff565b73ffffffffffffffffffffffffffffffffffffffff16638ce744266040518163ffffffff1660e01b8152600401602060405180830381865afa158015611a46573d5f5f3e3d5ffd5b505050506040513d601f19601f82011682018060405250810190611a6a91906120c1565b905090565b5f60065f8373ffffffffffffffffffffffffffffffffffffffff1673ffffffffffffffffffffffffffffffffffffffff1681526020019081526020015f205403611b5e5760035f8154611ac190612212565b919050819055508060055f60035481526020019081526020015f205f6101000a81548173ffffffffffffffffffffffffffffffffffffffff021916908373ffffffffffffffffffffffffffffffffffffffff16021790555060035460065f8373ffffffffffffffffffffffffffffffffffffffff1673ffffffffffffffffffffffffffffffffffffffff1681526020019081526020015f20819055505b50565b5f5f60205f8451602086015f885af180611b80576040513d5f823e3d81fd5b3d92505f519150505f8214611b99576001811415611bb4565b5f8473ffffffffffffffffffffffffffffffffffffffff163b145b15611bf657836040517f5274afe7000000000000000000000000000000000000000000000000000000008152600401611bed9190611eff565b60405180910390fd5b50505050565b5f611c056110ff565b73ffffffffffffffffffffffffffffffffffffffff16630758d9246040518163ffffffff1660e01b8152600401602060405180830381865afa158015611c4d573d5f5f3e3d5ffd5b505050506040513d601f19601f82011682018060405250810190611c7191906120c1565b905090565b5f611c7f6110ff565b73ffffffffffffffffffffffffffffffffffffffff166375b568a66040518163ffffffff1660e01b8152600401602060405180830381865afa158015611cc7573d5f5f3e3d5ffd5b505050506040513d601f19601f82011682018060405250810190611ceb91906120c1565b905090565b5f82825260208201905092915050565b7f506f736974696f6e20646f6573206e6f742068616e646c65206e6174697665205f8201527f746f6b656e730000000000000000000000000000000000000000000000000000602082015250565b5f611d5a602683611cf0565b9150611d6582611d00565b604082019050919050565b5f6020820190508181035f830152611d8781611d4e565b9050919050565b7f46616c6c6261636b206e6f7420616c6c6f7765640000000000000000000000005f82015250565b5f611dc2601483611cf0565b9150611dcd82611d8e565b602082019050919050565b5f6020820190508181035f830152611def81611db6565b9050919050565b5f5ffd5b5f819050919050565b611e0c81611dfa565b8114611e16575f5ffd5b50565b5f81359050611e2781611e03565b92915050565b5f73ffffffffffffffffffffffffffffffffffffffff82169050919050565b5f611e5682611e2d565b9050919050565b611e6681611e4c565b8114611e70575f5ffd5b50565b5f81359050611e8181611e5d565b92915050565b5f5f60408385031215611e9d57611e9c611df6565b5b5f611eaa85828601611e19565b9250506020611ebb85828601611e73565b9150509250929050565b5f60208284031215611eda57611ed9611df6565b5b5f611ee784828501611e19565b91505092915050565b611ef981611e4c565b82525050565b5f602082019050611f125f830184611ef0565b92915050565b5f5f5f60608486031215611f2f57611f2e611df6565b5b5f611f3c86828701611e73565b9350506020611f4d86828701611e19565b9250506040611f5e86828701611e19565b9150509250925092565b611f7181611dfa565b82525050565b5f602082019050611f8a5f830184611f68565b92915050565b5f5f5f60608486031215611fa757611fa6611df6565b5b5f611fb486828701611e73565b9350506020611fc586828701611e73565b9250506040611fd686828701611e19565b9150509250925092565b5f5f60408385031215611ff657611ff5611df6565b5b5f61200385828601611e73565b925050602061201485828601611e19565b9150509250929050565b5f5f5f5f6080858703121561203657612035611df6565b5b5f61204387828801611e73565b945050602061205487828801611e73565b935050604061206587828801611e19565b925050606061207687828801611e19565b91505092959194509250565b5f6020828403121561209757612096611df6565b5b5f6120a484828501611e73565b91505092915050565b5f815190506120bb81611e5d565b92915050565b5f602082840312156120d6576120d5611df6565b5b5f6120e3848285016120ad565b91505092915050565b5f815190506120fa81611e03565b92915050565b5f6020828403121561211557612114611df6565b5b5f612122848285016120ec565b91505092915050565b5f60408201905061213e5f830185611ef0565b61214b6020830184611f68565b9392505050565b5f8115159050919050565b61216681612152565b8114612170575f5ffd5b50565b5f815190506121818161215d565b92915050565b5f6020828403121561219c5761219b611df6565b5b5f6121a984828501612173565b91505092915050565b7f4e487b71000000000000000000000000000000000000000000000000000000005f52601160045260245ffd5b5f6121e982611dfa565b91506121f483611dfa565b925082820190508082111561220c5761220b6121b2565b5b92915050565b5f61221c82611dfa565b91507fffffffffffffffffffffffffffffffffffffffffffffffffffffffffffffffff820361224e5761224d6121b2565b5b600182019050919050565b5f8160011c9050919050565b5f5f8291508390505b60018511156122ae5780860481111561228a576122896121b2565b5b60018516156122995780820291505b80810290506122a785612259565b945061226e565b94509492505050565b5f826122c65760019050612381565b816122d3575f9050612381565b81600181146122e957600281146122f357612322565b6001915050612381565b60ff841115612305576123046121b2565b5b8360020a91508482111561231c5761231b6121b2565b5b50612381565b5060208310610133831016604e8410600b84101617156123575782820a905083811115612352576123516121b2565b5b612381565b6123648484846001612265565b9250905081840481111561237b5761237a6121b2565b5b81810290505b9392505050565b5f61239282611dfa565b915061239d83611dfa565b92506123ca7fffffffffffffffffffffffffffffffffffffffffffffffffffffffffffffffff84846122b7565b905092915050565b5f6123dc82611dfa565b91506123e783611dfa565b92508282026123f581611dfa565b9150828204841483151761240c5761240b6121b2565b5b5092915050565b7f4e487b71000000000000000000000000000000000000000000000000000000005f52601260045260245ffd5b5f61244a82611dfa565b915061245583611dfa565b92508261246557612464612413565b5b828204905092915050565b5f61247a82611dfa565b915061248583611dfa565b925082820390508181111561249d5761249c6121b2565b5b92915050565b5f60a0820190506124b65f830188611ef0565b6124c36020830187611ef0565b6124d06040830186611ef0565b6124dd6060830185611f68565b6124ea6080830184611f68565b9695505050505050565b5f81905092915050565b50565b5f61250c5f836124f4565b9150612517826124fe565b5f82019050919050565b5f61252b82612501565b9150819050919050565b5f6060820190506125485f830186611ef0565b6125556020830185611ef0565b6125626040830184611f68565b949350505050565b61257381611e4c565b82525050565b5f62ffffff82169050919050565b61259081612579565b82525050565b61259f81611dfa565b82525050565b6125ae81611e2d565b82525050565b61010082015f8201516125c95f85018261256a565b5060208201516125dc602085018261256a565b5060408201516125ef6040850182612587565b506060820151612602606085018261256a565b5060808201516126156080850182612596565b5060a082015161262860a0850182612596565b5060c082015161263b60c0850182612596565b5060e082015161264e60e08501826125a5565b50505050565b5f610100820190506126685f8301846125b4565b92915050565b5f6040820190506126815f830185611f68565b61268e6020830184611f68565b9392505050565b5f60ff82169050919050565b6126aa81612695565b81146126b4575f5ffd5b50565b5f815190506126c5816126a1565b92915050565b5f602082840312156126e0576126df611df6565b5b5f6126ed848285016126b7565b91505092915050565b5f69ffffffffffffffffffff82169050919050565b612714816126f6565b811461271e575f5ffd5b50565b5f8151905061272f8161270b565b92915050565b5f5f5f5f5f60a0868803121561274e5761274d611df6565b5b5f61275b88828901612721565b955050602061276c888289016120ec565b945050604061277d888289016120ec565b935050606061278e888289016120ec565b925050608061279f88828901612721565b915050929550929590935056fea26469706673582212202406f07832ef7ae9d2f8d12460ca6aca4af37f14e383b4dd06b0346477a68c4764736f6c634300081e0033","linkReferences":{}},"methodIdentifiers":{"_tokenCalculator(address,address,uint256)":"4be89371","counter()":"61bc221a","liquidation(address,uint256)":"6f2bb86a","lpAddress()":"9b4dc8cc","owner()":"8da5cb5b","repayWithSelectedToken(address,uint256,uint256)":"bc4c8626","swapTokenByPosition(address,address,uint256,uint256)":"8c3bc0b1","swapTokenToBorrow(address,uint256,uint256)":"1fc14d5b","tokenLists(uint256)":"1cb928a9","tokenListsId(address)":"f4191e68","totalCollateral()":"4ac8eb5f","withdrawCollateral(uint256,address)":"0af504cc"},"id":113}