{"abi":[{"type":"constructor","inputs":[{"name":"_lpAddress","type":"address","internalType":"address"},{"name":"_user","type":"address","internalType":"address"}],"stateMutability":"nonpayable"},{"type":"fallback","stateMutability":"payable"},{"type":"receive","stateMutability":"payable"},{"type":"function","name":"VERSION","inputs":[],"outputs":[{"name":"","type":"uint8","internalType":"uint8"}],"stateMutability":"view"},{"type":"function","name":"_calculateExpectedAmountWithPriceFeeds","inputs":[{"name":"_tokenIn","type":"address","internalType":"address"},{"name":"_tokenOut","type":"address","internalType":"address"},{"name":"amountIn","type":"uint256","internalType":"uint256"}],"outputs":[{"name":"expectedAmount","type":"uint256","internalType":"uint256"}],"stateMutability":"view"},{"type":"function","name":"counter","inputs":[],"outputs":[{"name":"","type":"uint256","internalType":"uint256"}],"stateMutability":"view"},{"type":"function","name":"lpAddress","inputs":[],"outputs":[{"name":"","type":"address","internalType":"address"}],"stateMutability":"view"},{"type":"function","name":"owner","inputs":[],"outputs":[{"name":"","type":"address","internalType":"address"}],"stateMutability":"view"},{"type":"function","name":"repayWithSelectedToken","inputs":[{"name":"amount","type":"uint256","internalType":"uint256"},{"name":"_token","type":"address","internalType":"address"},{"name":"slippageTolerance","type":"uint256","internalType":"uint256"}],"outputs":[],"stateMutability":"payable"},{"type":"function","name":"swapTokenByPosition","inputs":[{"name":"_tokenIn","type":"address","internalType":"address"},{"name":"_tokenOut","type":"address","internalType":"address"},{"name":"amountIn","type":"uint256","internalType":"uint256"},{"name":"slippageTolerance","type":"uint256","internalType":"uint256"}],"outputs":[{"name":"amountOut","type":"uint256","internalType":"uint256"}],"stateMutability":"nonpayable"},{"type":"function","name":"tokenCalculator","inputs":[{"name":"_tokenIn","type":"address","internalType":"address"},{"name":"_tokenOut","type":"address","internalType":"address"},{"name":"_amountIn","type":"uint256","internalType":"uint256"},{"name":"_tokenInPrice","type":"address","internalType":"address"},{"name":"_tokenOutPrice","type":"address","internalType":"address"}],"outputs":[{"name":"","type":"uint256","internalType":"uint256"}],"stateMutability":"view"},{"type":"function","name":"tokenLists","inputs":[{"name":"","type":"uint256","internalType":"uint256"}],"outputs":[{"name":"","type":"address","internalType":"address"}],"stateMutability":"view"},{"type":"function","name":"tokenListsId","inputs":[{"name":"","type":"address","internalType":"address"}],"outputs":[{"name":"","type":"uint256","internalType":"uint256"}],"stateMutability":"view"},{"type":"function","name":"tokenValue","inputs":[{"name":"token","type":"address","internalType":"address"}],"outputs":[{"name":"","type":"uint256","internalType":"uint256"}],"stateMutability":"view"},{"type":"function","name":"withdrawCollateral","inputs":[{"name":"amount","type":"uint256","internalType":"uint256"},{"name":"_user","type":"address","internalType":"address"},{"name":"unwrapToNative","type":"bool","internalType":"bool"}],"outputs":[],"stateMutability":"nonpayable"},{"type":"event","name":"Liquidate","inputs":[{"name":"user","type":"address","indexed":false,"internalType":"address"}],"anonymous":false},{"type":"event","name":"SwapToken","inputs":[{"name":"user","type":"address","indexed":false,"internalType":"address"},{"name":"token","type":"address","indexed":false,"internalType":"address"},{"name":"amount","type":"uint256","indexed":false,"internalType":"uint256"}],"anonymous":false},{"type":"event","name":"SwapTokenByPosition","inputs":[{"name":"user","type":"address","indexed":false,"internalType":"address"},{"name":"tokenIn","type":"address","indexed":false,"internalType":"address"},{"name":"tokenOut","type":"address","indexed":false,"internalType":"address"},{"name":"amountIn","type":"uint256","indexed":false,"internalType":"uint256"},{"name":"amountOut","type":"uint256","indexed":false,"internalType":"uint256"}],"anonymous":false},{"type":"event","name":"WithdrawCollateral","inputs":[{"name":"user","type":"address","indexed":true,"internalType":"address"},{"name":"amount","type":"uint256","indexed":false,"internalType":"uint256"}],"anonymous":false},{"type":"error","name":"InsufficientBalance","inputs":[]},{"type":"error","name":"InvalidParameter","inputs":[]},{"type":"error","name":"NotForSwap","inputs":[]},{"type":"error","name":"NotForWithdraw","inputs":[]},{"type":"error","name":"OracleOnTokenNotSet","inputs":[]},{"type":"error","name":"ReentrancyGuardReentrantCall","inputs":[]},{"type":"error","name":"SafeERC20FailedOperation","inputs":[{"name":"token","type":"address","internalType":"address"}]},{"type":"error","name":"TransferFailed","inputs":[]},{"type":"error","name":"ZeroAmount","inputs":[]}],"bytecode":{"object":"0x608060405234801561000f575f5ffd5b5060405161342b38038061342b833981810160405281019061003191906102f5565b60015f819055508160025f6101000a81548173ffffffffffffffffffffffffffffffffffffffff021916908373ffffffffffffffffffffffffffffffffffffffff1602179055508060015f6101000a81548173ffffffffffffffffffffffffffffffffffffffff021916908373ffffffffffffffffffffffffffffffffffffffff16021790555060035f81546100c690610369565b919050819055506100db61018360201b60201c565b60055f60035481526020019081526020015f205f6101000a81548173ffffffffffffffffffffffffffffffffffffffff021916908373ffffffffffffffffffffffffffffffffffffffff16021790555060035460065f61013f61018360201b60201c565b73ffffffffffffffffffffffffffffffffffffffff1673ffffffffffffffffffffffffffffffffffffffff1681526020019081526020015f208190555050506103db565b5f61019261020360201b60201c565b73ffffffffffffffffffffffffffffffffffffffff1663b2016bd46040518163ffffffff1660e01b8152600401602060405180830381865afa1580156101da573d5f5f3e3d5ffd5b505050506040513d601f19601f820116820180604052508101906101fe91906103b0565b905090565b5f60025f9054906101000a900473ffffffffffffffffffffffffffffffffffffffff1673ffffffffffffffffffffffffffffffffffffffff1663f887ea406040518163ffffffff1660e01b8152600401602060405180830381865afa15801561026e573d5f5f3e3d5ffd5b505050506040513d601f19601f8201168201806040525081019061029291906103b0565b905090565b5f5ffd5b5f73ffffffffffffffffffffffffffffffffffffffff82169050919050565b5f6102c48261029b565b9050919050565b6102d4816102ba565b81146102de575f5ffd5b50565b5f815190506102ef816102cb565b92915050565b5f5f6040838503121561030b5761030a610297565b5b5f610318858286016102e1565b9250506020610329858286016102e1565b9150509250929050565b7f4e487b71000000000000000000000000000000000000000000000000000000005f52601160045260245ffd5b5f819050919050565b5f61037382610360565b91507fffffffffffffffffffffffffffffffffffffffffffffffffffffffffffffffff82036103a5576103a4610333565b5b600182019050919050565b5f602082840312156103c5576103c4610297565b5b5f6103d2848285016102e1565b91505092915050565b613043806103e85f395ff3fe6080604052600436106100aa575f3560e01c80638da5cb5b116100635780638da5cb5b1461034d5780639b4dc8cc14610377578063dd9103cb146103a1578063f4191e68146103dd578063fa58d7b414610419578063ffa1ad7414610441576101dc565b80631cb928a9146102175780632ba0c8a314610253578063513f7d1e1461026f5780635984c851146102ab57806361bc221a146102e75780638c3bc0b114610311576101dc565b366101dc575f341180156100ca575060045f9054906101000a900460ff16155b80156101095750600173ffffffffffffffffffffffffffffffffffffffff166100f161046b565b73ffffffffffffffffffffffffffffffffffffffff16145b15610177576101166104e5565b73ffffffffffffffffffffffffffffffffffffffff1663d0e30db0346040518263ffffffff1660e01b81526004015f604051808303818588803b15801561015b575f5ffd5b505af115801561016d573d5f5f3e3d5ffd5b50505050506101d9565b5f34118015610191575060045f9054906101000a900460ff165b6101da575f3411156101d8576040517f08c379a00000000000000000000000000000000000000000000000000000000081526004016101cf90612509565b60405180910390fd5b5b5b005b6040517f08c379a000000000000000000000000000000000000000000000000000000000815260040161020e90612571565b60405180910390fd5b348015610222575f5ffd5b5061023d600480360381019061023891906125c6565b61055f565b60405161024a9190612630565b60405180910390f35b61026d60048036038101906102689190612673565b61058f565b005b34801561027a575f5ffd5b50610295600480360381019061029091906126c3565b610982565b6040516102a291906126fd565b60405180910390f35b3480156102b6575f5ffd5b506102d160048036038101906102cc9190612716565b610c15565b6040516102de91906126fd565b60405180910390f35b3480156102f2575f5ffd5b506102fb610e68565b60405161030891906126fd565b60405180910390f35b34801561031c575f5ffd5b5061033760048036038101906103329190612766565b610e6e565b60405161034491906126fd565b60405180910390f35b348015610358575f5ffd5b506103616112e3565b60405161036e9190612630565b60405180910390f35b348015610382575f5ffd5b5061038b611308565b6040516103989190612630565b60405180910390f35b3480156103ac575f5ffd5b506103c760048036038101906103c291906127ca565b61132d565b6040516103d491906126fd565b60405180910390f35b3480156103e8575f5ffd5b5061040360048036038101906103fe91906126c3565b6115d9565b60405161041091906126fd565b60405180910390f35b348015610424575f5ffd5b5061043f600480360381019061043a9190612876565b6115ee565b005b34801561044c575f5ffd5b506104556118fd565b60405161046291906128e1565b60405180910390f35b5f610474611902565b73ffffffffffffffffffffffffffffffffffffffff1663b2016bd46040518163ffffffff1660e01b8152600401602060405180830381865afa1580156104bc573d5f5f3e3d5ffd5b505050506040513d601f19601f820116820180604052508101906104e0919061290e565b905090565b5f6104ee611996565b73ffffffffffffffffffffffffffffffffffffffff1663d999984d6040518163ffffffff1660e01b8152600401602060405180830381865afa158015610536573d5f5f3e3d5ffd5b505050506040513d601f19601f8201168201806040525081019061055a919061290e565b905090565b6005602052805f5260405f205f915054906101000a900473ffffffffffffffffffffffffffffffffffffffff1681565b610597611a10565b5f8273ffffffffffffffffffffffffffffffffffffffff166370a08231306040518263ffffffff1660e01b81526004016105d19190612630565b602060405180830381865afa1580156105ec573d5f5f3e3d5ffd5b505050506040513d601f19601f82011682018060405250810190610610919061294d565b90508381101561064c576040517ff4d678b800000000000000000000000000000000000000000000000000000000815260040160405180910390fd5b610654611bf8565b73ffffffffffffffffffffffffffffffffffffffff168373ffffffffffffffffffffffffffffffffffffffff1614610842575f61069a84610693611bf8565b8486610e6e565b9050848110156106d6576040517ff4d678b800000000000000000000000000000000000000000000000000000000815260040160405180910390fd5b8373ffffffffffffffffffffffffffffffffffffffff1663095ea7b360025f9054906101000a900473ffffffffffffffffffffffffffffffffffffffff16876040518363ffffffff1660e01b8152600401610732929190612978565b6020604051808303815f875af115801561074e573d5f5f3e3d5ffd5b505050506040513d601f19601f8201168201806040525081019061077291906129b3565b5061080f60025f9054906101000a900473ffffffffffffffffffffffffffffffffffffffff1686600173ffffffffffffffffffffffffffffffffffffffff166107b9611bf8565b73ffffffffffffffffffffffffffffffffffffffff16146107e1576107dc611bf8565b6107ea565b6107e96104e5565b5b73ffffffffffffffffffffffffffffffffffffffff16611c729092919063ffffffff16565b5f858261081c9190612a0b565b90505f81111561083b57610839610831611bf8565b868387610e6e565b505b505061097c565b8273ffffffffffffffffffffffffffffffffffffffff1663095ea7b360025f9054906101000a900473ffffffffffffffffffffffffffffffffffffffff16866040518363ffffffff1660e01b815260040161089e929190612978565b6020604051808303815f875af11580156108ba573d5f5f3e3d5ffd5b505050506040513d601f19601f820116820180604052508101906108de91906129b3565b5061097b60025f9054906101000a900473ffffffffffffffffffffffffffffffffffffffff1685600173ffffffffffffffffffffffffffffffffffffffff16610925611bf8565b73ffffffffffffffffffffffffffffffffffffffff161461094d57610948611bf8565b610956565b6109556104e5565b5b73ffffffffffffffffffffffffffffffffffffffff16611c729092919063ffffffff16565b5b50505050565b5f5f5f600173ffffffffffffffffffffffffffffffffffffffff168473ffffffffffffffffffffffffffffffffffffffff1603610a43576109c16104e5565b73ffffffffffffffffffffffffffffffffffffffff166370a08231306040518263ffffffff1660e01b81526004016109f99190612630565b602060405180830381865afa158015610a14573d5f5f3e3d5ffd5b505050506040513d601f19601f82011682018060405250810190610a38919061294d565b915060129050610b30565b8373ffffffffffffffffffffffffffffffffffffffff166370a08231306040518263ffffffff1660e01b8152600401610a7c9190612630565b602060405180830381865afa158015610a97573d5f5f3e3d5ffd5b505050506040513d601f19601f82011682018060405250810190610abb919061294d565b91508373ffffffffffffffffffffffffffffffffffffffff1663313ce5676040518163ffffffff1660e01b8152600401602060405180830381865afa158015610b06573d5f5f3e3d5ffd5b505050506040513d601f19601f82011682018060405250810190610b2a9190612a68565b60ff1690505b5f610b3a85611cf1565b73ffffffffffffffffffffffffffffffffffffffff1663feaf968c6040518163ffffffff1660e01b815260040160a060405180830381865afa158015610b82573d5f5f3e3d5ffd5b505050506040513d601f19601f82011682018060405250810190610ba69190612ad2565b5050509150505f610bb686611d78565b600a610bc29190612c78565b670de0b6b3a764000083610bd69190612cc2565b610be09190612d30565b90505f83600a610bf09190612c78565b8286610bfc9190612cc2565b610c069190612d30565b90508095505050505050919050565b5f3073ffffffffffffffffffffffffffffffffffffffff163373ffffffffffffffffffffffffffffffffffffffff1614610c84576040517f08c379a0000000000000000000000000000000000000000000000000000000008152600401610c7b90612daa565b60405180910390fd5b5f610c8e85611df8565b90505f610c9a85611df8565b90505f610ca687611cf1565b90505f610cb287611cf1565b90505f8273ffffffffffffffffffffffffffffffffffffffff1663feaf968c6040518163ffffffff1660e01b815260040160a060405180830381865afa158015610cfe573d5f5f3e3d5ffd5b505050506040513d601f19601f82011682018060405250810190610d229190612ad2565b5050509150505f8273ffffffffffffffffffffffffffffffffffffffff1663feaf968c6040518163ffffffff1660e01b815260040160a060405180830381865afa158015610d72573d5f5f3e3d5ffd5b505050506040513d601f19601f82011682018060405250810190610d969190612ad2565b5050509150505f610da68b611d78565b90505f610db28b611d78565b90505f82600a610dc29190612c78565b670de0b6b3a764000086610dd69190612cc2565b610de09190612d30565b90505f82600a610df09190612c78565b670de0b6b3a764000086610e049190612cc2565b610e0e9190612d30565b905089600a610e1d9190612c78565b81610e289190612cc2565b89600a610e359190612c78565b838e610e419190612cc2565b610e4b9190612cc2565b610e559190612d30565b9a50505050505050505050509392505050565b60035481565b5f84610e7981611eec565b84610e8381611eec565b5f8773ffffffffffffffffffffffffffffffffffffffff166370a08231306040518263ffffffff1660e01b8152600401610ebd9190612630565b602060405180830381865afa158015610ed8573d5f5f3e3d5ffd5b505050506040513d601f19601f82011682018060405250810190610efc919061294d565b90505f8603610f37576040517f1f2a200500000000000000000000000000000000000000000000000000000000815260040160405180910390fd5b85811015610f71576040517ff4d678b800000000000000000000000000000000000000000000000000000000815260040160405180910390fd5b8673ffffffffffffffffffffffffffffffffffffffff168873ffffffffffffffffffffffffffffffffffffffff1603610fd6576040517f613970e000000000000000000000000000000000000000000000000000000000815260040160405180910390fd5b5f73ffffffffffffffffffffffffffffffffffffffff16610ff5611996565b73ffffffffffffffffffffffffffffffffffffffff16631d43335a8a6040518263ffffffff1660e01b815260040161102d9190612630565b602060405180830381865afa158015611048573d5f5f3e3d5ffd5b505050506040513d601f19601f8201168201806040525081019061106c919061290e565b73ffffffffffffffffffffffffffffffffffffffff16148061113757505f73ffffffffffffffffffffffffffffffffffffffff166110a8611996565b73ffffffffffffffffffffffffffffffffffffffff16631d43335a896040518263ffffffff1660e01b81526004016110e09190612630565b602060405180830381865afa1580156110fb573d5f5f3e3d5ffd5b505050506040513d601f19601f8201168201806040525081019061111f919061290e565b73ffffffffffffffffffffffffffffffffffffffff16145b1561116e576040517f7804b78f00000000000000000000000000000000000000000000000000000000815260040160405180910390fd5b60015f9054906101000a900473ffffffffffffffffffffffffffffffffffffffff1673ffffffffffffffffffffffffffffffffffffffff163373ffffffffffffffffffffffffffffffffffffffff1614158015611218575060025f9054906101000a900473ffffffffffffffffffffffffffffffffffffffff1673ffffffffffffffffffffffffffffffffffffffff163373ffffffffffffffffffffffffffffffffffffffff1614155b1561124f576040517f5b905d4e00000000000000000000000000000000000000000000000000000000815260040160405180910390fd5b61271085111561128b576040517f613970e000000000000000000000000000000000000000000000000000000000815260040160405180910390fd5b61129788888888611fde565b93507fc665f2f5768a61c064dd66125ac01f65d2f20d35ebb13a292211bf50619d753e33898989886040516112d0959493929190612dc8565b60405180910390a1505050949350505050565b60015f9054906101000a900473ffffffffffffffffffffffffffffffffffffffff1681565b60025f9054906101000a900473ffffffffffffffffffffffffffffffffffffffff1681565b5f5f6113376104e5565b73ffffffffffffffffffffffffffffffffffffffff168773ffffffffffffffffffffffffffffffffffffffff16146113db578673ffffffffffffffffffffffffffffffffffffffff1663313ce5676040518163ffffffff1660e01b8152600401602060405180830381865afa1580156113b2573d5f5f3e3d5ffd5b505050506040513d601f19601f820116820180604052508101906113d69190612a68565b6113de565b60125b60ff1690505f6113ec6104e5565b73ffffffffffffffffffffffffffffffffffffffff168773ffffffffffffffffffffffffffffffffffffffff1614611490578673ffffffffffffffffffffffffffffffffffffffff1663313ce5676040518163ffffffff1660e01b8152600401602060405180830381865afa158015611467573d5f5f3e3d5ffd5b505050506040513d601f19601f8201168201806040525081019061148b9190612a68565b611493565b60125b60ff1690505f8573ffffffffffffffffffffffffffffffffffffffff1663feaf968c6040518163ffffffff1660e01b815260040160a060405180830381865afa1580156114e2573d5f5f3e3d5ffd5b505050506040513d601f19601f820116820180604052508101906115069190612ad2565b5050509150505f8573ffffffffffffffffffffffffffffffffffffffff1663feaf968c6040518163ffffffff1660e01b815260040160a060405180830381865afa158015611556573d5f5f3e3d5ffd5b505050506040513d601f19601f8201168201806040525081019061157a9190612ad2565b5050509150505f84600a61158e9190612c78565b8285600a61159c9190612c78565b856115a79190612cc2565b6115b19190612d30565b8a6115bc9190612cc2565b6115c69190612d30565b9050809550505050505095945050505050565b6006602052805f5260405f205f915090505481565b6115f6611a10565b5f830361162f576040517f1f2a200500000000000000000000000000000000000000000000000000000000815260040160405180910390fd5b600173ffffffffffffffffffffffffffffffffffffffff1661164f61046b565b73ffffffffffffffffffffffffffffffffffffffff160361187757801561183f57600160045f6101000a81548160ff0219169083151502179055506116926104e5565b73ffffffffffffffffffffffffffffffffffffffff1663095ea7b36116b56104e5565b856040518363ffffffff1660e01b81526004016116d3929190612978565b6020604051808303815f875af11580156116ef573d5f5f3e3d5ffd5b505050506040513d601f19601f8201168201806040525081019061171391906129b3565b5061171c6104e5565b73ffffffffffffffffffffffffffffffffffffffff16632e1a7d4d846040518263ffffffff1660e01b815260040161175491906126fd565b5f604051808303815f87803b15801561176b575f5ffd5b505af115801561177d573d5f5f3e3d5ffd5b505050505f8273ffffffffffffffffffffffffffffffffffffffff16846040516117a690612e46565b5f6040518083038185875af1925050503d805f81146117e0576040519150601f19603f3d011682016040523d82523d5f602084013e6117e5565b606091505b5050905080611820576040517f90b8ec1800000000000000000000000000000000000000000000000000000000815260040160405180910390fd5b5f60045f6101000a81548160ff02191690831515021790555050611872565b611871828461184c6104e5565b73ffffffffffffffffffffffffffffffffffffffff16611c729092919063ffffffff16565b5b6118aa565b6118a9828461188461046b565b73ffffffffffffffffffffffffffffffffffffffff16611c729092919063ffffffff16565b5b8173ffffffffffffffffffffffffffffffffffffffff167fa8e76b822fc682be77f3b1c822ea81f6bda5aed92ba82e6873bfd889f328d1d2846040516118f091906126fd565b60405180910390a2505050565b600281565b5f60025f9054906101000a900473ffffffffffffffffffffffffffffffffffffffff1673ffffffffffffffffffffffffffffffffffffffff1663f887ea406040518163ffffffff1660e01b8152600401602060405180830381865afa15801561196d573d5f5f3e3d5ffd5b505050506040513d601f19601f82011682018060405250810190611991919061290e565b905090565b5f61199f611902565b73ffffffffffffffffffffffffffffffffffffffff1663c45a01556040518163ffffffff1660e01b8152600401602060405180830381865afa1580156119e7573d5f5f3e3d5ffd5b505050506040513d601f19601f82011682018060405250810190611a0b919061290e565b905090565b5f611a19611996565b90505f8173ffffffffffffffffffffffffffffffffffffffff1663e40208046040518163ffffffff1660e01b8152600401602060405180830381865afa158015611a65573d5f5f3e3d5ffd5b505050506040513d601f19601f82011682018060405250810190611a89919061290e565b90505f8173ffffffffffffffffffffffffffffffffffffffff16634046ebae6040518163ffffffff1660e01b8152600401602060405180830381865afa158015611ad5573d5f5f3e3d5ffd5b505050506040513d601f19601f82011682018060405250810190611af9919061290e565b905060025f9054906101000a900473ffffffffffffffffffffffffffffffffffffffff1673ffffffffffffffffffffffffffffffffffffffff163373ffffffffffffffffffffffffffffffffffffffff1614158015611b8457508173ffffffffffffffffffffffffffffffffffffffff163373ffffffffffffffffffffffffffffffffffffffff1614155b8015611bbc57508073ffffffffffffffffffffffffffffffffffffffff163373ffffffffffffffffffffffffffffffffffffffff1614155b15611bf3576040517f7cc2b58600000000000000000000000000000000000000000000000000000000815260040160405180910390fd5b505050565b5f611c01611902565b73ffffffffffffffffffffffffffffffffffffffff1663456dc17a6040518163ffffffff1660e01b8152600401602060405180830381865afa158015611c49573d5f5f3e3d5ffd5b505050506040513d601f19601f82011682018060405250810190611c6d919061290e565b905090565b611cec838473ffffffffffffffffffffffffffffffffffffffff1663a9059cbb8585604051602401611ca5929190612978565b604051602081830303815290604052915060e01b6020820180517bffffffffffffffffffffffffffffffffffffffffffffffffffffffff8381831617835250505050611ff5565b505050565b5f611cfa611996565b73ffffffffffffffffffffffffffffffffffffffff16631d43335a836040518263ffffffff1660e01b8152600401611d329190612630565b602060405180830381865afa158015611d4d573d5f5f3e3d5ffd5b505050506040513d601f19601f82011682018060405250810190611d71919061290e565b9050919050565b5f611d8282611cf1565b73ffffffffffffffffffffffffffffffffffffffff1663313ce5676040518163ffffffff1660e01b8152600401602060405180830381865afa158015611dca573d5f5f3e3d5ffd5b505050506040513d601f19601f82011682018060405250810190611dee9190612a68565b60ff169050919050565b5f600173ffffffffffffffffffffffffffffffffffffffff168273ffffffffffffffffffffffffffffffffffffffff161480611e665750611e376104e5565b73ffffffffffffffffffffffffffffffffffffffff168273ffffffffffffffffffffffffffffffffffffffff16145b15611e745760129050611ee7565b8173ffffffffffffffffffffffffffffffffffffffff1663313ce5676040518163ffffffff1660e01b8152600401602060405180830381865afa158015611ebd573d5f5f3e3d5ffd5b505050506040513d601f19601f82011682018060405250810190611ee19190612a68565b60ff1690505b919050565b5f60065f8373ffffffffffffffffffffffffffffffffffffffff1673ffffffffffffffffffffffffffffffffffffffff1681526020019081526020015f205403611fdb5760035f8154611f3e90612e5a565b919050819055508060055f60035481526020019081526020015f205f6101000a81548173ffffffffffffffffffffffffffffffffffffffff021916908373ffffffffffffffffffffffffffffffffffffffff16021790555060035460065f8373ffffffffffffffffffffffffffffffffffffffff1673ffffffffffffffffffffffffffffffffffffffff1681526020019081526020015f20819055505b50565b5f611feb85858585612090565b9050949350505050565b5f5f60205f8451602086015f885af180612014576040513d5f823e3d81fd5b3d92505f519150505f821461202d576001811415612048565b5f8473ffffffffffffffffffffffffffffffffffffffff163b145b1561208a57836040517f5274afe70000000000000000000000000000000000000000000000000000000081526004016120819190612630565b60405180910390fd5b50505050565b5f5f61209d8686866122c3565b90505f612710846127106120b19190612a0b565b836120bc9190612cc2565b6120c69190612d30565b90508673ffffffffffffffffffffffffffffffffffffffff1663095ea7b36120ec61240f565b876040518363ffffffff1660e01b815260040161210a929190612978565b6020604051808303815f875af1158015612126573d5f5f3e3d5ffd5b505050506040513d601f19601f8201168201806040525081019061214a91906129b3565b505f6040518061010001604052808973ffffffffffffffffffffffffffffffffffffffff168152602001600173ffffffffffffffffffffffffffffffffffffffff168973ffffffffffffffffffffffffffffffffffffffff16146121ae57886121b7565b6121b66104e5565b5b73ffffffffffffffffffffffffffffffffffffffff1681526020016103e862ffffff1681526020013073ffffffffffffffffffffffffffffffffffffffff16815260200161012c426122099190612ea1565b81526020018781526020018381526020015f73ffffffffffffffffffffffffffffffffffffffff16815250905061223e61240f565b73ffffffffffffffffffffffffffffffffffffffff1663414bf389826040518263ffffffff1660e01b81526004016122769190612fbe565b6020604051808303815f875af1158015612292573d5f5f3e3d5ffd5b505050506040513d601f19601f820116820180604052508101906122b6919061294d565b9350505050949350505050565b5f8273ffffffffffffffffffffffffffffffffffffffff168473ffffffffffffffffffffffffffffffffffffffff16036122ff57819050612408565b3073ffffffffffffffffffffffffffffffffffffffff16635984c8518585856040518463ffffffff1660e01b815260040161233c93929190612fd8565b602060405180830381865afa92505050801561237657506040513d601f19601f82011682018060405250810190612373919061294d565b60015b612402575f61238485611df8565b90505f61239085611df8565b9050808211156123c45780826123a69190612a0b565b600a6123b29190612c78565b846123bd9190612d30565b92506123fb565b818111156123f65781816123d89190612a0b565b600a6123e49190612c78565b846123ef9190612cc2565b92506123fa565b8392505b5b5050612407565b809150505b5b9392505050565b5f612418611996565b73ffffffffffffffffffffffffffffffffffffffff16637af11ac06040518163ffffffff1660e01b8152600401602060405180830381865afa158015612460573d5f5f3e3d5ffd5b505050506040513d601f19601f82011682018060405250810190612484919061290e565b905090565b5f82825260208201905092915050565b7f506f736974696f6e20646f6573206e6f742068616e646c65206e6174697665205f8201527f746f6b656e730000000000000000000000000000000000000000000000000000602082015250565b5f6124f3602683612489565b91506124fe82612499565b604082019050919050565b5f6020820190508181035f830152612520816124e7565b9050919050565b7f46616c6c6261636b206e6f7420616c6c6f7765640000000000000000000000005f82015250565b5f61255b601483612489565b915061256682612527565b602082019050919050565b5f6020820190508181035f8301526125888161254f565b9050919050565b5f5ffd5b5f819050919050565b6125a581612593565b81146125af575f5ffd5b50565b5f813590506125c08161259c565b92915050565b5f602082840312156125db576125da61258f565b5b5f6125e8848285016125b2565b91505092915050565b5f73ffffffffffffffffffffffffffffffffffffffff82169050919050565b5f61261a826125f1565b9050919050565b61262a81612610565b82525050565b5f6020820190506126435f830184612621565b92915050565b61265281612610565b811461265c575f5ffd5b50565b5f8135905061266d81612649565b92915050565b5f5f5f6060848603121561268a5761268961258f565b5b5f612697868287016125b2565b93505060206126a88682870161265f565b92505060406126b9868287016125b2565b9150509250925092565b5f602082840312156126d8576126d761258f565b5b5f6126e58482850161265f565b91505092915050565b6126f781612593565b82525050565b5f6020820190506127105f8301846126ee565b92915050565b5f5f5f6060848603121561272d5761272c61258f565b5b5f61273a8682870161265f565b935050602061274b8682870161265f565b925050604061275c868287016125b2565b9150509250925092565b5f5f5f5f6080858703121561277e5761277d61258f565b5b5f61278b8782880161265f565b945050602061279c8782880161265f565b93505060406127ad878288016125b2565b92505060606127be878288016125b2565b91505092959194509250565b5f5f5f5f5f60a086880312156127e3576127e261258f565b5b5f6127f08882890161265f565b95505060206128018882890161265f565b9450506040612812888289016125b2565b93505060606128238882890161265f565b92505060806128348882890161265f565b9150509295509295909350565b5f8115159050919050565b61285581612841565b811461285f575f5ffd5b50565b5f813590506128708161284c565b92915050565b5f5f5f6060848603121561288d5761288c61258f565b5b5f61289a868287016125b2565b93505060206128ab8682870161265f565b92505060406128bc86828701612862565b9150509250925092565b5f60ff82169050919050565b6128db816128c6565b82525050565b5f6020820190506128f45f8301846128d2565b92915050565b5f8151905061290881612649565b92915050565b5f602082840312156129235761292261258f565b5b5f612930848285016128fa565b91505092915050565b5f815190506129478161259c565b92915050565b5f602082840312156129625761296161258f565b5b5f61296f84828501612939565b91505092915050565b5f60408201905061298b5f830185612621565b61299860208301846126ee565b9392505050565b5f815190506129ad8161284c565b92915050565b5f602082840312156129c8576129c761258f565b5b5f6129d58482850161299f565b91505092915050565b7f4e487b71000000000000000000000000000000000000000000000000000000005f52601160045260245ffd5b5f612a1582612593565b9150612a2083612593565b9250828203905081811115612a3857612a376129de565b5b92915050565b612a47816128c6565b8114612a51575f5ffd5b50565b5f81519050612a6281612a3e565b92915050565b5f60208284031215612a7d57612a7c61258f565b5b5f612a8a84828501612a54565b91505092915050565b5f69ffffffffffffffffffff82169050919050565b612ab181612a93565b8114612abb575f5ffd5b50565b5f81519050612acc81612aa8565b92915050565b5f5f5f5f5f60a08688031215612aeb57612aea61258f565b5b5f612af888828901612abe565b9550506020612b0988828901612939565b9450506040612b1a88828901612939565b9350506060612b2b88828901612939565b9250506080612b3c88828901612abe565b9150509295509295909350565b5f8160011c9050919050565b5f5f8291508390505b6001851115612b9e57808604811115612b7a57612b796129de565b5b6001851615612b895780820291505b8081029050612b9785612b49565b9450612b5e565b94509492505050565b5f82612bb65760019050612c71565b81612bc3575f9050612c71565b8160018114612bd95760028114612be357612c12565b6001915050612c71565b60ff841115612bf557612bf46129de565b5b8360020a915084821115612c0c57612c0b6129de565b5b50612c71565b5060208310610133831016604e8410600b8410161715612c475782820a905083811115612c4257612c416129de565b5b612c71565b612c548484846001612b55565b92509050818404811115612c6b57612c6a6129de565b5b81810290505b9392505050565b5f612c8282612593565b9150612c8d83612593565b9250612cba7fffffffffffffffffffffffffffffffffffffffffffffffffffffffffffffffff8484612ba7565b905092915050565b5f612ccc82612593565b9150612cd783612593565b9250828202612ce581612593565b91508282048414831517612cfc57612cfb6129de565b5b5092915050565b7f4e487b71000000000000000000000000000000000000000000000000000000005f52601260045260245ffd5b5f612d3a82612593565b9150612d4583612593565b925082612d5557612d54612d03565b5b828204905092915050565b7f556e617574686f72697a656400000000000000000000000000000000000000005f82015250565b5f612d94600c83612489565b9150612d9f82612d60565b602082019050919050565b5f6020820190508181035f830152612dc181612d88565b9050919050565b5f60a082019050612ddb5f830188612621565b612de86020830187612621565b612df56040830186612621565b612e0260608301856126ee565b612e0f60808301846126ee565b9695505050505050565b5f81905092915050565b50565b5f612e315f83612e19565b9150612e3c82612e23565b5f82019050919050565b5f612e5082612e26565b9150819050919050565b5f612e6482612593565b91507fffffffffffffffffffffffffffffffffffffffffffffffffffffffffffffffff8203612e9657612e956129de565b5b600182019050919050565b5f612eab82612593565b9150612eb683612593565b9250828201905080821115612ece57612ecd6129de565b5b92915050565b612edd81612610565b82525050565b5f62ffffff82169050919050565b612efa81612ee3565b82525050565b612f0981612593565b82525050565b612f18816125f1565b82525050565b61010082015f820151612f335f850182612ed4565b506020820151612f466020850182612ed4565b506040820151612f596040850182612ef1565b506060820151612f6c6060850182612ed4565b506080820151612f7f6080850182612f00565b5060a0820151612f9260a0850182612f00565b5060c0820151612fa560c0850182612f00565b5060e0820151612fb860e0850182612f0f565b50505050565b5f61010082019050612fd25f830184612f1e565b92915050565b5f606082019050612feb5f830186612621565b612ff86020830185612621565b61300560408301846126ee565b94935050505056fea2646970667358221220c77e22ffa16779f26ca1d5944382011947f6b0eb15f9c796eb9aa03860400d0864736f6c634300081e0033","linkReferences":{}},"methodIdentifiers":{"VERSION()":"ffa1ad74","_calculateExpectedAmountWithPriceFeeds(address,address,uint256)":"5984c851","counter()":"61bc221a","lpAddress()":"9b4dc8cc","owner()":"8da5cb5b","repayWithSelectedToken(uint256,address,uint256)":"2ba0c8a3","swapTokenByPosition(address,address,uint256,uint256)":"8c3bc0b1","tokenCalculator(address,address,uint256,address,address)":"dd9103cb","tokenLists(uint256)":"1cb928a9","tokenListsId(address)":"f4191e68","tokenValue(address)":"513f7d1e","withdrawCollateral(uint256,address,bool)":"fa58d7b4"},"id":113}