{"abi":[{"type":"constructor","inputs":[{"name":"_lpAddress","type":"address","internalType":"address"},{"name":"_user","type":"address","internalType":"address"}],"stateMutability":"nonpayable"},{"type":"fallback","stateMutability":"payable"},{"type":"receive","stateMutability":"payable"},{"type":"function","name":"DRAGON_SWAP_ROUTER","inputs":[],"outputs":[{"name":"","type":"address","internalType":"address"}],"stateMutability":"view"},{"type":"function","name":"VERSION","inputs":[],"outputs":[{"name":"","type":"uint8","internalType":"uint8"}],"stateMutability":"view"},{"type":"function","name":"_calculateExpectedAmountWithPriceFeeds","inputs":[{"name":"_tokenIn","type":"address","internalType":"address"},{"name":"_tokenOut","type":"address","internalType":"address"},{"name":"amountIn","type":"uint256","internalType":"uint256"}],"outputs":[{"name":"expectedAmount","type":"uint256","internalType":"uint256"}],"stateMutability":"view"},{"type":"function","name":"counter","inputs":[],"outputs":[{"name":"","type":"uint256","internalType":"uint256"}],"stateMutability":"view"},{"type":"function","name":"lpAddress","inputs":[],"outputs":[{"name":"","type":"address","internalType":"address"}],"stateMutability":"view"},{"type":"function","name":"owner","inputs":[],"outputs":[{"name":"","type":"address","internalType":"address"}],"stateMutability":"view"},{"type":"function","name":"repayWithSelectedToken","inputs":[{"name":"amount","type":"uint256","internalType":"uint256"},{"name":"_token","type":"address","internalType":"address"}],"outputs":[],"stateMutability":"payable"},{"type":"function","name":"swapTokenByPosition","inputs":[{"name":"_tokenIn","type":"address","internalType":"address"},{"name":"_tokenOut","type":"address","internalType":"address"},{"name":"amountIn","type":"uint256","internalType":"uint256"},{"name":"slippageTolerance","type":"uint256","internalType":"uint256"}],"outputs":[{"name":"amountOut","type":"uint256","internalType":"uint256"}],"stateMutability":"nonpayable"},{"type":"function","name":"tokenCalculator","inputs":[{"name":"_tokenIn","type":"address","internalType":"address"},{"name":"_tokenOut","type":"address","internalType":"address"},{"name":"_amountIn","type":"uint256","internalType":"uint256"},{"name":"_tokenInPrice","type":"address","internalType":"address"},{"name":"_tokenOutPrice","type":"address","internalType":"address"}],"outputs":[{"name":"","type":"uint256","internalType":"uint256"}],"stateMutability":"view"},{"type":"function","name":"tokenLists","inputs":[{"name":"","type":"uint256","internalType":"uint256"}],"outputs":[{"name":"","type":"address","internalType":"address"}],"stateMutability":"view"},{"type":"function","name":"tokenListsId","inputs":[{"name":"","type":"address","internalType":"address"}],"outputs":[{"name":"","type":"uint256","internalType":"uint256"}],"stateMutability":"view"},{"type":"function","name":"tokenValue","inputs":[{"name":"token","type":"address","internalType":"address"}],"outputs":[{"name":"","type":"uint256","internalType":"uint256"}],"stateMutability":"view"},{"type":"function","name":"withdrawCollateral","inputs":[{"name":"amount","type":"uint256","internalType":"uint256"},{"name":"_user","type":"address","internalType":"address"},{"name":"unwrapToNative","type":"bool","internalType":"bool"}],"outputs":[],"stateMutability":"nonpayable"},{"type":"event","name":"Liquidate","inputs":[{"name":"user","type":"address","indexed":false,"internalType":"address"}],"anonymous":false},{"type":"event","name":"SwapToken","inputs":[{"name":"user","type":"address","indexed":false,"internalType":"address"},{"name":"token","type":"address","indexed":false,"internalType":"address"},{"name":"amount","type":"uint256","indexed":false,"internalType":"uint256"}],"anonymous":false},{"type":"event","name":"SwapTokenByPosition","inputs":[{"name":"user","type":"address","indexed":false,"internalType":"address"},{"name":"tokenIn","type":"address","indexed":false,"internalType":"address"},{"name":"tokenOut","type":"address","indexed":false,"internalType":"address"},{"name":"amountIn","type":"uint256","indexed":false,"internalType":"uint256"},{"name":"amountOut","type":"uint256","indexed":false,"internalType":"uint256"}],"anonymous":false},{"type":"event","name":"WithdrawCollateral","inputs":[{"name":"user","type":"address","indexed":true,"internalType":"address"},{"name":"amount","type":"uint256","indexed":false,"internalType":"uint256"}],"anonymous":false},{"type":"error","name":"InsufficientBalance","inputs":[]},{"type":"error","name":"InvalidParameter","inputs":[]},{"type":"error","name":"NotForSwap","inputs":[]},{"type":"error","name":"NotForWithdraw","inputs":[]},{"type":"error","name":"ReentrancyGuardReentrantCall","inputs":[]},{"type":"error","name":"SafeERC20FailedOperation","inputs":[{"name":"token","type":"address","internalType":"address"}]},{"type":"error","name":"TransferFailed","inputs":[]},{"type":"error","name":"ZeroAmount","inputs":[]}],"bytecode":{"object":"0x608060405234801561000f575f5ffd5b506040516131b23803806131b2833981810160405281019061003191906102f5565b60015f819055508160025f6101000a81548173ffffffffffffffffffffffffffffffffffffffff021916908373ffffffffffffffffffffffffffffffffffffffff1602179055508060015f6101000a81548173ffffffffffffffffffffffffffffffffffffffff021916908373ffffffffffffffffffffffffffffffffffffffff16021790555060035f81546100c690610369565b919050819055506100db61018360201b60201c565b60055f60035481526020019081526020015f205f6101000a81548173ffffffffffffffffffffffffffffffffffffffff021916908373ffffffffffffffffffffffffffffffffffffffff16021790555060035460065f61013f61018360201b60201c565b73ffffffffffffffffffffffffffffffffffffffff1673ffffffffffffffffffffffffffffffffffffffff1681526020019081526020015f208190555050506103db565b5f61019261020360201b60201c565b73ffffffffffffffffffffffffffffffffffffffff1663b2016bd46040518163ffffffff1660e01b8152600401602060405180830381865afa1580156101da573d5f5f3e3d5ffd5b505050506040513d601f19601f820116820180604052508101906101fe91906103b0565b905090565b5f60025f9054906101000a900473ffffffffffffffffffffffffffffffffffffffff1673ffffffffffffffffffffffffffffffffffffffff1663f887ea406040518163ffffffff1660e01b8152600401602060405180830381865afa15801561026e573d5f5f3e3d5ffd5b505050506040513d601f19601f8201168201806040525081019061029291906103b0565b905090565b5f5ffd5b5f73ffffffffffffffffffffffffffffffffffffffff82169050919050565b5f6102c48261029b565b9050919050565b6102d4816102ba565b81146102de575f5ffd5b50565b5f815190506102ef816102cb565b92915050565b5f5f6040838503121561030b5761030a610297565b5b5f610318858286016102e1565b9250506020610329858286016102e1565b9150509250929050565b7f4e487b71000000000000000000000000000000000000000000000000000000005f52601160045260245ffd5b5f819050919050565b5f61037382610360565b91507fffffffffffffffffffffffffffffffffffffffffffffffffffffffffffffffff82036103a5576103a4610333565b5b600182019050919050565b5f602082840312156103c5576103c4610297565b5b5f6103d2848285016102e1565b91505092915050565b612dca806103e85f395ff3fe6080604052600436106100c5575f3560e01c80638da5cb5b1161007e578063dd9103cb11610058578063dd9103cb146103e6578063f4191e6814610422578063fa58d7b41461045e578063ffa1ad7414610486576101f7565b80638da5cb5b146103765780639b4dc8cc146103a05780639d058e67146103ca576101f7565b80631cb928a9146102325780633814ccc01461026e578063513f7d1e146102985780635984c851146102d457806361bc221a146103105780638c3bc0b11461033a576101f7565b366101f7575f341180156100e5575060045f9054906101000a900460ff16155b80156101245750600173ffffffffffffffffffffffffffffffffffffffff1661010c6104b0565b73ffffffffffffffffffffffffffffffffffffffff16145b156101925761013161052a565b73ffffffffffffffffffffffffffffffffffffffff1663d0e30db0346040518263ffffffff1660e01b81526004015f604051808303818588803b158015610176575f5ffd5b505af1158015610188573d5f5f3e3d5ffd5b50505050506101f4565b5f341180156101ac575060045f9054906101000a900460ff165b6101f5575f3411156101f3576040517f08c379a00000000000000000000000000000000000000000000000000000000081526004016101ea906122a2565b60405180910390fd5b5b5b005b6040517f08c379a00000000000000000000000000000000000000000000000000000000081526004016102299061230a565b60405180910390fd5b34801561023d575f5ffd5b506102586004803603810190610253919061235f565b6105a4565b60405161026591906123c9565b60405180910390f35b348015610279575f5ffd5b506102826105d4565b60405161028f91906123c9565b60405180910390f35b3480156102a3575f5ffd5b506102be60048036038101906102b9919061240c565b6105ec565b6040516102cb9190612446565b60405180910390f35b3480156102df575f5ffd5b506102fa60048036038101906102f5919061245f565b61087f565b6040516103079190612446565b60405180910390f35b34801561031b575f5ffd5b50610324610ad2565b6040516103319190612446565b60405180910390f35b348015610345575f5ffd5b50610360600480360381019061035b91906124af565b610ad8565b60405161036d9190612446565b60405180910390f35b348015610381575f5ffd5b5061038a610cf5565b60405161039791906123c9565b60405180910390f35b3480156103ab575f5ffd5b506103b4610d1a565b6040516103c191906123c9565b60405180910390f35b6103e460048036038101906103df9190612513565b610d3f565b005b3480156103f1575f5ffd5b5061040c60048036038101906104079190612551565b611135565b6040516104199190612446565b60405180910390f35b34801561042d575f5ffd5b506104486004803603810190610443919061240c565b6113e1565b6040516104559190612446565b60405180910390f35b348015610469575f5ffd5b50610484600480360381019061047f91906125fd565b6113f6565b005b348015610491575f5ffd5b5061049a611705565b6040516104a79190612668565b60405180910390f35b5f6104b961170a565b73ffffffffffffffffffffffffffffffffffffffff1663b2016bd46040518163ffffffff1660e01b8152600401602060405180830381865afa158015610501573d5f5f3e3d5ffd5b505050506040513d601f19601f820116820180604052508101906105259190612695565b905090565b5f61053361179e565b73ffffffffffffffffffffffffffffffffffffffff1663145d51d86040518163ffffffff1660e01b8152600401602060405180830381865afa15801561057b573d5f5f3e3d5ffd5b505050506040513d601f19601f8201168201806040525081019061059f9190612695565b905090565b6005602052805f5260405f205f915054906101000a900473ffffffffffffffffffffffffffffffffffffffff1681565b73a324880f884036e3d21a09b90269e1ac57c7ec8a81565b5f5f5f600173ffffffffffffffffffffffffffffffffffffffff168473ffffffffffffffffffffffffffffffffffffffff16036106ad5761062b61052a565b73ffffffffffffffffffffffffffffffffffffffff166370a08231306040518263ffffffff1660e01b815260040161066391906123c9565b602060405180830381865afa15801561067e573d5f5f3e3d5ffd5b505050506040513d601f19601f820116820180604052508101906106a291906126d4565b91506012905061079a565b8373ffffffffffffffffffffffffffffffffffffffff166370a08231306040518263ffffffff1660e01b81526004016106e691906123c9565b602060405180830381865afa158015610701573d5f5f3e3d5ffd5b505050506040513d601f19601f8201168201806040525081019061072591906126d4565b91508373ffffffffffffffffffffffffffffffffffffffff1663313ce5676040518163ffffffff1660e01b8152600401602060405180830381865afa158015610770573d5f5f3e3d5ffd5b505050506040513d601f19601f820116820180604052508101906107949190612729565b60ff1690505b5f6107a485611818565b73ffffffffffffffffffffffffffffffffffffffff1663feaf968c6040518163ffffffff1660e01b815260040160a060405180830381865afa1580156107ec573d5f5f3e3d5ffd5b505050506040513d601f19601f820116820180604052508101906108109190612793565b5050509150505f6108208661189f565b600a61082c9190612966565b670de0b6b3a76400008361084091906129b0565b61084a9190612a1e565b90505f83600a61085a9190612966565b828661086691906129b0565b6108709190612a1e565b90508095505050505050919050565b5f3073ffffffffffffffffffffffffffffffffffffffff163373ffffffffffffffffffffffffffffffffffffffff16146108ee576040517f08c379a00000000000000000000000000000000000000000000000000000000081526004016108e590612a98565b60405180910390fd5b5f6108f88561191f565b90505f6109048561191f565b90505f61091087611818565b90505f61091c87611818565b90505f8273ffffffffffffffffffffffffffffffffffffffff1663feaf968c6040518163ffffffff1660e01b815260040160a060405180830381865afa158015610968573d5f5f3e3d5ffd5b505050506040513d601f19601f8201168201806040525081019061098c9190612793565b5050509150505f8273ffffffffffffffffffffffffffffffffffffffff1663feaf968c6040518163ffffffff1660e01b815260040160a060405180830381865afa1580156109dc573d5f5f3e3d5ffd5b505050506040513d601f19601f82011682018060405250810190610a009190612793565b5050509150505f610a108b61189f565b90505f610a1c8b61189f565b90505f82600a610a2c9190612966565b670de0b6b3a764000086610a4091906129b0565b610a4a9190612a1e565b90505f82600a610a5a9190612966565b670de0b6b3a764000086610a6e91906129b0565b610a789190612a1e565b905089600a610a879190612966565b81610a9291906129b0565b89600a610a9f9190612966565b838e610aab91906129b0565b610ab591906129b0565b610abf9190612a1e565b9a50505050505050505050509392505050565b60035481565b5f84610ae381611a13565b84610aed81611a13565b5f8773ffffffffffffffffffffffffffffffffffffffff166370a08231306040518263ffffffff1660e01b8152600401610b2791906123c9565b602060405180830381865afa158015610b42573d5f5f3e3d5ffd5b505050506040513d601f19601f82011682018060405250810190610b6691906126d4565b90505f8603610ba1576040517f1f2a200500000000000000000000000000000000000000000000000000000000815260040160405180910390fd5b85811015610bdb576040517ff4d678b800000000000000000000000000000000000000000000000000000000815260040160405180910390fd5b60015f9054906101000a900473ffffffffffffffffffffffffffffffffffffffff1673ffffffffffffffffffffffffffffffffffffffff163373ffffffffffffffffffffffffffffffffffffffff1614610c61576040517f5b905d4e00000000000000000000000000000000000000000000000000000000815260040160405180910390fd5b612710851115610c9d576040517f613970e000000000000000000000000000000000000000000000000000000000815260040160405180910390fd5b610ca988888888611b05565b93507fc665f2f5768a61c064dd66125ac01f65d2f20d35ebb13a292211bf50619d753e3389898988604051610ce2959493929190612ab6565b60405180910390a1505050949350505050565b60015f9054906101000a900473ffffffffffffffffffffffffffffffffffffffff1681565b60025f9054906101000a900473ffffffffffffffffffffffffffffffffffffffff1681565b610d47611b1c565b5f8173ffffffffffffffffffffffffffffffffffffffff166370a08231306040518263ffffffff1660e01b8152600401610d8191906123c9565b602060405180830381865afa158015610d9c573d5f5f3e3d5ffd5b505050506040513d601f19601f82011682018060405250810190610dc091906126d4565b905082811015610dfc576040517ff4d678b800000000000000000000000000000000000000000000000000000000815260040160405180910390fd5b610e04611d04565b73ffffffffffffffffffffffffffffffffffffffff168273ffffffffffffffffffffffffffffffffffffffff1614610ff6575f610e4c83610e43611d04565b846101f4610ad8565b905083811015610e88576040517ff4d678b800000000000000000000000000000000000000000000000000000000815260040160405180910390fd5b8273ffffffffffffffffffffffffffffffffffffffff1663095ea7b360025f9054906101000a900473ffffffffffffffffffffffffffffffffffffffff16866040518363ffffffff1660e01b8152600401610ee4929190612b07565b6020604051808303815f875af1158015610f00573d5f5f3e3d5ffd5b505050506040513d601f19601f82011682018060405250810190610f249190612b42565b50610fc160025f9054906101000a900473ffffffffffffffffffffffffffffffffffffffff1685600173ffffffffffffffffffffffffffffffffffffffff16610f6b611d04565b73ffffffffffffffffffffffffffffffffffffffff1614610f9357610f8e611d04565b610f9c565b610f9b61052a565b5b73ffffffffffffffffffffffffffffffffffffffff16611d7e9092919063ffffffff16565b5f8482610fce9190612b6d565b90505f811115610fef57610fed610fe3611d04565b85836101f4610ad8565b505b5050611130565b8173ffffffffffffffffffffffffffffffffffffffff1663095ea7b360025f9054906101000a900473ffffffffffffffffffffffffffffffffffffffff16856040518363ffffffff1660e01b8152600401611052929190612b07565b6020604051808303815f875af115801561106e573d5f5f3e3d5ffd5b505050506040513d601f19601f820116820180604052508101906110929190612b42565b5061112f60025f9054906101000a900473ffffffffffffffffffffffffffffffffffffffff1684600173ffffffffffffffffffffffffffffffffffffffff166110d9611d04565b73ffffffffffffffffffffffffffffffffffffffff1614611101576110fc611d04565b61110a565b61110961052a565b5b73ffffffffffffffffffffffffffffffffffffffff16611d7e9092919063ffffffff16565b5b505050565b5f5f61113f61052a565b73ffffffffffffffffffffffffffffffffffffffff168773ffffffffffffffffffffffffffffffffffffffff16146111e3578673ffffffffffffffffffffffffffffffffffffffff1663313ce5676040518163ffffffff1660e01b8152600401602060405180830381865afa1580156111ba573d5f5f3e3d5ffd5b505050506040513d601f19601f820116820180604052508101906111de9190612729565b6111e6565b60125b60ff1690505f6111f461052a565b73ffffffffffffffffffffffffffffffffffffffff168773ffffffffffffffffffffffffffffffffffffffff1614611298578673ffffffffffffffffffffffffffffffffffffffff1663313ce5676040518163ffffffff1660e01b8152600401602060405180830381865afa15801561126f573d5f5f3e3d5ffd5b505050506040513d601f19601f820116820180604052508101906112939190612729565b61129b565b60125b60ff1690505f8573ffffffffffffffffffffffffffffffffffffffff1663feaf968c6040518163ffffffff1660e01b815260040160a060405180830381865afa1580156112ea573d5f5f3e3d5ffd5b505050506040513d601f19601f8201168201806040525081019061130e9190612793565b5050509150505f8573ffffffffffffffffffffffffffffffffffffffff1663feaf968c6040518163ffffffff1660e01b815260040160a060405180830381865afa15801561135e573d5f5f3e3d5ffd5b505050506040513d601f19601f820116820180604052508101906113829190612793565b5050509150505f84600a6113969190612966565b8285600a6113a49190612966565b856113af91906129b0565b6113b99190612a1e565b8a6113c491906129b0565b6113ce9190612a1e565b9050809550505050505095945050505050565b6006602052805f5260405f205f915090505481565b6113fe611b1c565b5f8303611437576040517f1f2a200500000000000000000000000000000000000000000000000000000000815260040160405180910390fd5b600173ffffffffffffffffffffffffffffffffffffffff166114576104b0565b73ffffffffffffffffffffffffffffffffffffffff160361167f57801561164757600160045f6101000a81548160ff02191690831515021790555061149a61052a565b73ffffffffffffffffffffffffffffffffffffffff1663095ea7b36114bd61052a565b856040518363ffffffff1660e01b81526004016114db929190612b07565b6020604051808303815f875af11580156114f7573d5f5f3e3d5ffd5b505050506040513d601f19601f8201168201806040525081019061151b9190612b42565b5061152461052a565b73ffffffffffffffffffffffffffffffffffffffff16632e1a7d4d846040518263ffffffff1660e01b815260040161155c9190612446565b5f604051808303815f87803b158015611573575f5ffd5b505af1158015611585573d5f5f3e3d5ffd5b505050505f8273ffffffffffffffffffffffffffffffffffffffff16846040516115ae90612bcd565b5f6040518083038185875af1925050503d805f81146115e8576040519150601f19603f3d011682016040523d82523d5f602084013e6115ed565b606091505b5050905080611628576040517f90b8ec1800000000000000000000000000000000000000000000000000000000815260040160405180910390fd5b5f60045f6101000a81548160ff0219169083151502179055505061167a565b611679828461165461052a565b73ffffffffffffffffffffffffffffffffffffffff16611d7e9092919063ffffffff16565b5b6116b2565b6116b1828461168c6104b0565b73ffffffffffffffffffffffffffffffffffffffff16611d7e9092919063ffffffff16565b5b8173ffffffffffffffffffffffffffffffffffffffff167fa8e76b822fc682be77f3b1c822ea81f6bda5aed92ba82e6873bfd889f328d1d2846040516116f89190612446565b60405180910390a2505050565b600281565b5f60025f9054906101000a900473ffffffffffffffffffffffffffffffffffffffff1673ffffffffffffffffffffffffffffffffffffffff1663f887ea406040518163ffffffff1660e01b8152600401602060405180830381865afa158015611775573d5f5f3e3d5ffd5b505050506040513d601f19601f820116820180604052508101906117999190612695565b905090565b5f6117a761170a565b73ffffffffffffffffffffffffffffffffffffffff1663c45a01556040518163ffffffff1660e01b8152600401602060405180830381865afa1580156117ef573d5f5f3e3d5ffd5b505050506040513d601f19601f820116820180604052508101906118139190612695565b905090565b5f61182161179e565b73ffffffffffffffffffffffffffffffffffffffff16631d43335a836040518263ffffffff1660e01b815260040161185991906123c9565b602060405180830381865afa158015611874573d5f5f3e3d5ffd5b505050506040513d601f19601f820116820180604052508101906118989190612695565b9050919050565b5f6118a982611818565b73ffffffffffffffffffffffffffffffffffffffff1663313ce5676040518163ffffffff1660e01b8152600401602060405180830381865afa1580156118f1573d5f5f3e3d5ffd5b505050506040513d601f19601f820116820180604052508101906119159190612729565b60ff169050919050565b5f600173ffffffffffffffffffffffffffffffffffffffff168273ffffffffffffffffffffffffffffffffffffffff16148061198d575061195e61052a565b73ffffffffffffffffffffffffffffffffffffffff168273ffffffffffffffffffffffffffffffffffffffff16145b1561199b5760129050611a0e565b8173ffffffffffffffffffffffffffffffffffffffff1663313ce5676040518163ffffffff1660e01b8152600401602060405180830381865afa1580156119e4573d5f5f3e3d5ffd5b505050506040513d601f19601f82011682018060405250810190611a089190612729565b60ff1690505b919050565b5f60065f8373ffffffffffffffffffffffffffffffffffffffff1673ffffffffffffffffffffffffffffffffffffffff1681526020019081526020015f205403611b025760035f8154611a6590612be1565b919050819055508060055f60035481526020019081526020015f205f6101000a81548173ffffffffffffffffffffffffffffffffffffffff021916908373ffffffffffffffffffffffffffffffffffffffff16021790555060035460065f8373ffffffffffffffffffffffffffffffffffffffff1673ffffffffffffffffffffffffffffffffffffffff1681526020019081526020015f20819055505b50565b5f611b1285858585611dfd565b9050949350505050565b5f611b2561179e565b90505f8173ffffffffffffffffffffffffffffffffffffffff1663e40208046040518163ffffffff1660e01b8152600401602060405180830381865afa158015611b71573d5f5f3e3d5ffd5b505050506040513d601f19601f82011682018060405250810190611b959190612695565b90505f8173ffffffffffffffffffffffffffffffffffffffff16634046ebae6040518163ffffffff1660e01b8152600401602060405180830381865afa158015611be1573d5f5f3e3d5ffd5b505050506040513d601f19601f82011682018060405250810190611c059190612695565b905060025f9054906101000a900473ffffffffffffffffffffffffffffffffffffffff1673ffffffffffffffffffffffffffffffffffffffff163373ffffffffffffffffffffffffffffffffffffffff1614158015611c9057508173ffffffffffffffffffffffffffffffffffffffff163373ffffffffffffffffffffffffffffffffffffffff1614155b8015611cc857508073ffffffffffffffffffffffffffffffffffffffff163373ffffffffffffffffffffffffffffffffffffffff1614155b15611cff576040517f7cc2b58600000000000000000000000000000000000000000000000000000000815260040160405180910390fd5b505050565b5f611d0d61170a565b73ffffffffffffffffffffffffffffffffffffffff1663456dc17a6040518163ffffffff1660e01b8152600401602060405180830381865afa158015611d55573d5f5f3e3d5ffd5b505050506040513d601f19601f82011682018060405250810190611d799190612695565b905090565b611df8838473ffffffffffffffffffffffffffffffffffffffff1663a9059cbb8585604051602401611db1929190612b07565b604051602081830303815290604052915060e01b6020820180517bffffffffffffffffffffffffffffffffffffffffffffffffffffffff838183161783525050505061203b565b505050565b5f5f73a324880f884036e3d21a09b90269e1ac57c7ec8a90505f611e228787876120d6565b90505f61271085612710611e369190612b6d565b83611e4191906129b0565b611e4b9190612a1e565b90508773ffffffffffffffffffffffffffffffffffffffff1663095ea7b384886040518363ffffffff1660e01b8152600401611e88929190612b07565b6020604051808303815f875af1158015611ea4573d5f5f3e3d5ffd5b505050506040513d601f19601f82011682018060405250810190611ec89190612b42565b505f6040518061010001604052808a73ffffffffffffffffffffffffffffffffffffffff168152602001600173ffffffffffffffffffffffffffffffffffffffff168a73ffffffffffffffffffffffffffffffffffffffff1614611f2c5789611f35565b611f3461052a565b5b73ffffffffffffffffffffffffffffffffffffffff1681526020016103e862ffffff1681526020013073ffffffffffffffffffffffffffffffffffffffff16815260200161012c42611f879190612c28565b81526020018881526020018381526020015f73ffffffffffffffffffffffffffffffffffffffff1681525090508373ffffffffffffffffffffffffffffffffffffffff1663414bf389826040518263ffffffff1660e01b8152600401611fed9190612d45565b6020604051808303815f875af1158015612009573d5f5f3e3d5ffd5b505050506040513d601f19601f8201168201806040525081019061202d91906126d4565b945050505050949350505050565b5f5f60205f8451602086015f885af18061205a576040513d5f823e3d81fd5b3d92505f519150505f821461207357600181141561208e565b5f8473ffffffffffffffffffffffffffffffffffffffff163b145b156120d057836040517f5274afe70000000000000000000000000000000000000000000000000000000081526004016120c791906123c9565b60405180910390fd5b50505050565b5f8273ffffffffffffffffffffffffffffffffffffffff168473ffffffffffffffffffffffffffffffffffffffff16036121125781905061221b565b3073ffffffffffffffffffffffffffffffffffffffff16635984c8518585856040518463ffffffff1660e01b815260040161214f93929190612d5f565b602060405180830381865afa92505050801561218957506040513d601f19601f8201168201806040525081019061218691906126d4565b60015b612215575f6121978561191f565b90505f6121a38561191f565b9050808211156121d75780826121b99190612b6d565b600a6121c59190612966565b846121d09190612a1e565b925061220e565b818111156122095781816121eb9190612b6d565b600a6121f79190612966565b8461220291906129b0565b925061220d565b8392505b5b505061221a565b809150505b5b9392505050565b5f82825260208201905092915050565b7f506f736974696f6e20646f6573206e6f742068616e646c65206e6174697665205f8201527f746f6b656e730000000000000000000000000000000000000000000000000000602082015250565b5f61228c602683612222565b915061229782612232565b604082019050919050565b5f6020820190508181035f8301526122b981612280565b9050919050565b7f46616c6c6261636b206e6f7420616c6c6f7765640000000000000000000000005f82015250565b5f6122f4601483612222565b91506122ff826122c0565b602082019050919050565b5f6020820190508181035f830152612321816122e8565b9050919050565b5f5ffd5b5f819050919050565b61233e8161232c565b8114612348575f5ffd5b50565b5f8135905061235981612335565b92915050565b5f6020828403121561237457612373612328565b5b5f6123818482850161234b565b91505092915050565b5f73ffffffffffffffffffffffffffffffffffffffff82169050919050565b5f6123b38261238a565b9050919050565b6123c3816123a9565b82525050565b5f6020820190506123dc5f8301846123ba565b92915050565b6123eb816123a9565b81146123f5575f5ffd5b50565b5f81359050612406816123e2565b92915050565b5f6020828403121561242157612420612328565b5b5f61242e848285016123f8565b91505092915050565b6124408161232c565b82525050565b5f6020820190506124595f830184612437565b92915050565b5f5f5f6060848603121561247657612475612328565b5b5f612483868287016123f8565b9350506020612494868287016123f8565b92505060406124a58682870161234b565b9150509250925092565b5f5f5f5f608085870312156124c7576124c6612328565b5b5f6124d4878288016123f8565b94505060206124e5878288016123f8565b93505060406124f68782880161234b565b92505060606125078782880161234b565b91505092959194509250565b5f5f6040838503121561252957612528612328565b5b5f6125368582860161234b565b9250506020612547858286016123f8565b9150509250929050565b5f5f5f5f5f60a0868803121561256a57612569612328565b5b5f612577888289016123f8565b9550506020612588888289016123f8565b94505060406125998882890161234b565b93505060606125aa888289016123f8565b92505060806125bb888289016123f8565b9150509295509295909350565b5f8115159050919050565b6125dc816125c8565b81146125e6575f5ffd5b50565b5f813590506125f7816125d3565b92915050565b5f5f5f6060848603121561261457612613612328565b5b5f6126218682870161234b565b9350506020612632868287016123f8565b9250506040612643868287016125e9565b9150509250925092565b5f60ff82169050919050565b6126628161264d565b82525050565b5f60208201905061267b5f830184612659565b92915050565b5f8151905061268f816123e2565b92915050565b5f602082840312156126aa576126a9612328565b5b5f6126b784828501612681565b91505092915050565b5f815190506126ce81612335565b92915050565b5f602082840312156126e9576126e8612328565b5b5f6126f6848285016126c0565b91505092915050565b6127088161264d565b8114612712575f5ffd5b50565b5f81519050612723816126ff565b92915050565b5f6020828403121561273e5761273d612328565b5b5f61274b84828501612715565b91505092915050565b5f69ffffffffffffffffffff82169050919050565b61277281612754565b811461277c575f5ffd5b50565b5f8151905061278d81612769565b92915050565b5f5f5f5f5f60a086880312156127ac576127ab612328565b5b5f6127b98882890161277f565b95505060206127ca888289016126c0565b94505060406127db888289016126c0565b93505060606127ec888289016126c0565b92505060806127fd8882890161277f565b9150509295509295909350565b7f4e487b71000000000000000000000000000000000000000000000000000000005f52601160045260245ffd5b5f8160011c9050919050565b5f5f8291508390505b600185111561288c578086048111156128685761286761280a565b5b60018516156128775780820291505b808102905061288585612837565b945061284c565b94509492505050565b5f826128a4576001905061295f565b816128b1575f905061295f565b81600181146128c757600281146128d157612900565b600191505061295f565b60ff8411156128e3576128e261280a565b5b8360020a9150848211156128fa576128f961280a565b5b5061295f565b5060208310610133831016604e8410600b84101617156129355782820a9050838111156129305761292f61280a565b5b61295f565b6129428484846001612843565b925090508184048111156129595761295861280a565b5b81810290505b9392505050565b5f6129708261232c565b915061297b8361232c565b92506129a87fffffffffffffffffffffffffffffffffffffffffffffffffffffffffffffffff8484612895565b905092915050565b5f6129ba8261232c565b91506129c58361232c565b92508282026129d38161232c565b915082820484148315176129ea576129e961280a565b5b5092915050565b7f4e487b71000000000000000000000000000000000000000000000000000000005f52601260045260245ffd5b5f612a288261232c565b9150612a338361232c565b925082612a4357612a426129f1565b5b828204905092915050565b7f556e617574686f72697a656400000000000000000000000000000000000000005f82015250565b5f612a82600c83612222565b9150612a8d82612a4e565b602082019050919050565b5f6020820190508181035f830152612aaf81612a76565b9050919050565b5f60a082019050612ac95f8301886123ba565b612ad660208301876123ba565b612ae360408301866123ba565b612af06060830185612437565b612afd6080830184612437565b9695505050505050565b5f604082019050612b1a5f8301856123ba565b612b276020830184612437565b9392505050565b5f81519050612b3c816125d3565b92915050565b5f60208284031215612b5757612b56612328565b5b5f612b6484828501612b2e565b91505092915050565b5f612b778261232c565b9150612b828361232c565b9250828203905081811115612b9a57612b9961280a565b5b92915050565b5f81905092915050565b50565b5f612bb85f83612ba0565b9150612bc382612baa565b5f82019050919050565b5f612bd782612bad565b9150819050919050565b5f612beb8261232c565b91507fffffffffffffffffffffffffffffffffffffffffffffffffffffffffffffffff8203612c1d57612c1c61280a565b5b600182019050919050565b5f612c328261232c565b9150612c3d8361232c565b9250828201905080821115612c5557612c5461280a565b5b92915050565b612c64816123a9565b82525050565b5f62ffffff82169050919050565b612c8181612c6a565b82525050565b612c908161232c565b82525050565b612c9f8161238a565b82525050565b61010082015f820151612cba5f850182612c5b565b506020820151612ccd6020850182612c5b565b506040820151612ce06040850182612c78565b506060820151612cf36060850182612c5b565b506080820151612d066080850182612c87565b5060a0820151612d1960a0850182612c87565b5060c0820151612d2c60c0850182612c87565b5060e0820151612d3f60e0850182612c96565b50505050565b5f61010082019050612d595f830184612ca5565b92915050565b5f606082019050612d725f8301866123ba565b612d7f60208301856123ba565b612d8c6040830184612437565b94935050505056fea264697066735822122043244680a602bdb879ad7107f3d7b927fa583f2d69b54c7789840fddc7e955e464736f6c634300081c0033","linkReferences":{}},"methodIdentifiers":{"DRAGON_SWAP_ROUTER()":"3814ccc0","VERSION()":"ffa1ad74","_calculateExpectedAmountWithPriceFeeds(address,address,uint256)":"5984c851","counter()":"61bc221a","lpAddress()":"9b4dc8cc","owner()":"8da5cb5b","repayWithSelectedToken(uint256,address)":"9d058e67","swapTokenByPosition(address,address,uint256,uint256)":"8c3bc0b1","tokenCalculator(address,address,uint256,address,address)":"dd9103cb","tokenLists(uint256)":"1cb928a9","tokenListsId(address)":"f4191e68","tokenValue(address)":"513f7d1e","withdrawCollateral(uint256,address,bool)":"fa58d7b4"},"id":141}