{"abi":[{"type":"constructor","inputs":[{"name":"_lpAddress","type":"address","internalType":"address"},{"name":"_user","type":"address","internalType":"address"}],"stateMutability":"nonpayable"},{"type":"fallback","stateMutability":"payable"},{"type":"receive","stateMutability":"payable"},{"type":"function","name":"DEX_ROUTER","inputs":[],"outputs":[{"name":"","type":"address","internalType":"address"}],"stateMutability":"view"},{"type":"function","name":"VERSION","inputs":[],"outputs":[{"name":"","type":"uint8","internalType":"uint8"}],"stateMutability":"view"},{"type":"function","name":"_calculateExpectedAmountWithPriceFeeds","inputs":[{"name":"_tokenIn","type":"address","internalType":"address"},{"name":"_tokenOut","type":"address","internalType":"address"},{"name":"amountIn","type":"uint256","internalType":"uint256"}],"outputs":[{"name":"expectedAmount","type":"uint256","internalType":"uint256"}],"stateMutability":"view"},{"type":"function","name":"counter","inputs":[],"outputs":[{"name":"","type":"uint256","internalType":"uint256"}],"stateMutability":"view"},{"type":"function","name":"lpAddress","inputs":[],"outputs":[{"name":"","type":"address","internalType":"address"}],"stateMutability":"view"},{"type":"function","name":"owner","inputs":[],"outputs":[{"name":"","type":"address","internalType":"address"}],"stateMutability":"view"},{"type":"function","name":"repayWithSelectedToken","inputs":[{"name":"amount","type":"uint256","internalType":"uint256"},{"name":"_token","type":"address","internalType":"address"},{"name":"slippageTolerance","type":"uint256","internalType":"uint256"}],"outputs":[],"stateMutability":"payable"},{"type":"function","name":"swapTokenByPosition","inputs":[{"name":"_tokenIn","type":"address","internalType":"address"},{"name":"_tokenOut","type":"address","internalType":"address"},{"name":"amountIn","type":"uint256","internalType":"uint256"},{"name":"slippageTolerance","type":"uint256","internalType":"uint256"}],"outputs":[{"name":"amountOut","type":"uint256","internalType":"uint256"}],"stateMutability":"nonpayable"},{"type":"function","name":"tokenCalculator","inputs":[{"name":"_tokenIn","type":"address","internalType":"address"},{"name":"_tokenOut","type":"address","internalType":"address"},{"name":"_amountIn","type":"uint256","internalType":"uint256"},{"name":"_tokenInPrice","type":"address","internalType":"address"},{"name":"_tokenOutPrice","type":"address","internalType":"address"}],"outputs":[{"name":"","type":"uint256","internalType":"uint256"}],"stateMutability":"view"},{"type":"function","name":"tokenLists","inputs":[{"name":"","type":"uint256","internalType":"uint256"}],"outputs":[{"name":"","type":"address","internalType":"address"}],"stateMutability":"view"},{"type":"function","name":"tokenListsId","inputs":[{"name":"","type":"address","internalType":"address"}],"outputs":[{"name":"","type":"uint256","internalType":"uint256"}],"stateMutability":"view"},{"type":"function","name":"tokenValue","inputs":[{"name":"token","type":"address","internalType":"address"}],"outputs":[{"name":"","type":"uint256","internalType":"uint256"}],"stateMutability":"view"},{"type":"function","name":"withdrawCollateral","inputs":[{"name":"amount","type":"uint256","internalType":"uint256"},{"name":"_user","type":"address","internalType":"address"},{"name":"unwrapToNative","type":"bool","internalType":"bool"}],"outputs":[],"stateMutability":"nonpayable"},{"type":"event","name":"Liquidate","inputs":[{"name":"user","type":"address","indexed":false,"internalType":"address"}],"anonymous":false},{"type":"event","name":"SwapToken","inputs":[{"name":"user","type":"address","indexed":false,"internalType":"address"},{"name":"token","type":"address","indexed":false,"internalType":"address"},{"name":"amount","type":"uint256","indexed":false,"internalType":"uint256"}],"anonymous":false},{"type":"event","name":"SwapTokenByPosition","inputs":[{"name":"user","type":"address","indexed":false,"internalType":"address"},{"name":"tokenIn","type":"address","indexed":false,"internalType":"address"},{"name":"tokenOut","type":"address","indexed":false,"internalType":"address"},{"name":"amountIn","type":"uint256","indexed":false,"internalType":"uint256"},{"name":"amountOut","type":"uint256","indexed":false,"internalType":"uint256"}],"anonymous":false},{"type":"event","name":"WithdrawCollateral","inputs":[{"name":"user","type":"address","indexed":true,"internalType":"address"},{"name":"amount","type":"uint256","indexed":false,"internalType":"uint256"}],"anonymous":false},{"type":"error","name":"InsufficientBalance","inputs":[]},{"type":"error","name":"InvalidParameter","inputs":[]},{"type":"error","name":"NotForSwap","inputs":[]},{"type":"error","name":"NotForWithdraw","inputs":[]},{"type":"error","name":"OracleOnTokenNotSet","inputs":[]},{"type":"error","name":"ReentrancyGuardReentrantCall","inputs":[]},{"type":"error","name":"SafeERC20FailedOperation","inputs":[{"name":"token","type":"address","internalType":"address"}]},{"type":"error","name":"TransferFailed","inputs":[]},{"type":"error","name":"ZeroAmount","inputs":[]}],"bytecode":{"object":"0x608060405234801561000f575f5ffd5b50604051613428380380613428833981810160405281019061003191906102f5565b60015f819055508160025f6101000a81548173ffffffffffffffffffffffffffffffffffffffff021916908373ffffffffffffffffffffffffffffffffffffffff1602179055508060015f6101000a81548173ffffffffffffffffffffffffffffffffffffffff021916908373ffffffffffffffffffffffffffffffffffffffff16021790555060035f81546100c690610369565b919050819055506100db61018360201b60201c565b60055f60035481526020019081526020015f205f6101000a81548173ffffffffffffffffffffffffffffffffffffffff021916908373ffffffffffffffffffffffffffffffffffffffff16021790555060035460065f61013f61018360201b60201c565b73ffffffffffffffffffffffffffffffffffffffff1673ffffffffffffffffffffffffffffffffffffffff1681526020019081526020015f208190555050506103db565b5f61019261020360201b60201c565b73ffffffffffffffffffffffffffffffffffffffff1663b2016bd46040518163ffffffff1660e01b8152600401602060405180830381865afa1580156101da573d5f5f3e3d5ffd5b505050506040513d601f19601f820116820180604052508101906101fe91906103b0565b905090565b5f60025f9054906101000a900473ffffffffffffffffffffffffffffffffffffffff1673ffffffffffffffffffffffffffffffffffffffff1663f887ea406040518163ffffffff1660e01b8152600401602060405180830381865afa15801561026e573d5f5f3e3d5ffd5b505050506040513d601f19601f8201168201806040525081019061029291906103b0565b905090565b5f5ffd5b5f73ffffffffffffffffffffffffffffffffffffffff82169050919050565b5f6102c48261029b565b9050919050565b6102d4816102ba565b81146102de575f5ffd5b50565b5f815190506102ef816102cb565b92915050565b5f5f6040838503121561030b5761030a610297565b5b5f610318858286016102e1565b9250506020610329858286016102e1565b9150509250929050565b7f4e487b71000000000000000000000000000000000000000000000000000000005f52601160045260245ffd5b5f819050919050565b5f61037382610360565b91507fffffffffffffffffffffffffffffffffffffffffffffffffffffffffffffffff82036103a5576103a4610333565b5b600182019050919050565b5f602082840312156103c5576103c4610297565b5b5f6103d2848285016102e1565b91505092915050565b613040806103e85f395ff3fe6080604052600436106100c5575f3560e01c80638c3bc0b11161007e578063dd9103cb11610058578063dd9103cb146103e6578063f4191e6814610422578063fa58d7b41461045e578063ffa1ad7414610486576101f7565b80638c3bc0b1146103565780638da5cb5b146103925780639b4dc8cc146103bc576101f7565b80631cb928a9146102325780632ba0c8a31461026e578063513f7d1e1461028a5780635984c851146102c657806361bc221a146103025780637af11ac01461032c576101f7565b366101f7575f341180156100e5575060045f9054906101000a900460ff16155b80156101245750600173ffffffffffffffffffffffffffffffffffffffff1661010c6104b0565b73ffffffffffffffffffffffffffffffffffffffff16145b156101925761013161052a565b73ffffffffffffffffffffffffffffffffffffffff1663d0e30db0346040518263ffffffff1660e01b81526004015f604051808303818588803b158015610176575f5ffd5b505af1158015610188573d5f5f3e3d5ffd5b50505050506101f4565b5f341180156101ac575060045f9054906101000a900460ff165b6101f5575f3411156101f3576040517f08c379a00000000000000000000000000000000000000000000000000000000081526004016101ea90612506565b60405180910390fd5b5b5b005b6040517f08c379a00000000000000000000000000000000000000000000000000000000081526004016102299061256e565b60405180910390fd5b34801561023d575f5ffd5b50610258600480360381019061025391906125c3565b6105a4565b604051610265919061262d565b60405180910390f35b61028860048036038101906102839190612670565b6105d4565b005b348015610295575f5ffd5b506102b060048036038101906102ab91906126c0565b6109c7565b6040516102bd91906126fa565b60405180910390f35b3480156102d1575f5ffd5b506102ec60048036038101906102e79190612713565b610c5a565b6040516102f991906126fa565b60405180910390f35b34801561030d575f5ffd5b50610316610ead565b60405161032391906126fa565b60405180910390f35b348015610337575f5ffd5b50610340610eb3565b60405161034d919061262d565b60405180910390f35b348015610361575f5ffd5b5061037c60048036038101906103779190612763565b610ecb565b60405161038991906126fa565b60405180910390f35b34801561039d575f5ffd5b506103a6611340565b6040516103b3919061262d565b60405180910390f35b3480156103c7575f5ffd5b506103d0611365565b6040516103dd919061262d565b60405180910390f35b3480156103f1575f5ffd5b5061040c600480360381019061040791906127c7565b61138a565b60405161041991906126fa565b60405180910390f35b34801561042d575f5ffd5b50610448600480360381019061044391906126c0565b611636565b60405161045591906126fa565b60405180910390f35b348015610469575f5ffd5b50610484600480360381019061047f9190612873565b61164b565b005b348015610491575f5ffd5b5061049a61195a565b6040516104a791906128de565b60405180910390f35b5f6104b961195f565b73ffffffffffffffffffffffffffffffffffffffff1663b2016bd46040518163ffffffff1660e01b8152600401602060405180830381865afa158015610501573d5f5f3e3d5ffd5b505050506040513d601f19601f82011682018060405250810190610525919061290b565b905090565b5f6105336119f3565b73ffffffffffffffffffffffffffffffffffffffff1663d999984d6040518163ffffffff1660e01b8152600401602060405180830381865afa15801561057b573d5f5f3e3d5ffd5b505050506040513d601f19601f8201168201806040525081019061059f919061290b565b905090565b6005602052805f5260405f205f915054906101000a900473ffffffffffffffffffffffffffffffffffffffff1681565b6105dc611a6d565b5f8273ffffffffffffffffffffffffffffffffffffffff166370a08231306040518263ffffffff1660e01b8152600401610616919061262d565b602060405180830381865afa158015610631573d5f5f3e3d5ffd5b505050506040513d601f19601f82011682018060405250810190610655919061294a565b905083811015610691576040517ff4d678b800000000000000000000000000000000000000000000000000000000815260040160405180910390fd5b610699611c55565b73ffffffffffffffffffffffffffffffffffffffff168373ffffffffffffffffffffffffffffffffffffffff1614610887575f6106df846106d8611c55565b8486610ecb565b90508481101561071b576040517ff4d678b800000000000000000000000000000000000000000000000000000000815260040160405180910390fd5b8373ffffffffffffffffffffffffffffffffffffffff1663095ea7b360025f9054906101000a900473ffffffffffffffffffffffffffffffffffffffff16876040518363ffffffff1660e01b8152600401610777929190612975565b6020604051808303815f875af1158015610793573d5f5f3e3d5ffd5b505050506040513d601f19601f820116820180604052508101906107b791906129b0565b5061085460025f9054906101000a900473ffffffffffffffffffffffffffffffffffffffff1686600173ffffffffffffffffffffffffffffffffffffffff166107fe611c55565b73ffffffffffffffffffffffffffffffffffffffff161461082657610821611c55565b61082f565b61082e61052a565b5b73ffffffffffffffffffffffffffffffffffffffff16611ccf9092919063ffffffff16565b5f85826108619190612a08565b90505f8111156108805761087e610876611c55565b868387610ecb565b505b50506109c1565b8273ffffffffffffffffffffffffffffffffffffffff1663095ea7b360025f9054906101000a900473ffffffffffffffffffffffffffffffffffffffff16866040518363ffffffff1660e01b81526004016108e3929190612975565b6020604051808303815f875af11580156108ff573d5f5f3e3d5ffd5b505050506040513d601f19601f8201168201806040525081019061092391906129b0565b506109c060025f9054906101000a900473ffffffffffffffffffffffffffffffffffffffff1685600173ffffffffffffffffffffffffffffffffffffffff1661096a611c55565b73ffffffffffffffffffffffffffffffffffffffff16146109925761098d611c55565b61099b565b61099a61052a565b5b73ffffffffffffffffffffffffffffffffffffffff16611ccf9092919063ffffffff16565b5b50505050565b5f5f5f600173ffffffffffffffffffffffffffffffffffffffff168473ffffffffffffffffffffffffffffffffffffffff1603610a8857610a0661052a565b73ffffffffffffffffffffffffffffffffffffffff166370a08231306040518263ffffffff1660e01b8152600401610a3e919061262d565b602060405180830381865afa158015610a59573d5f5f3e3d5ffd5b505050506040513d601f19601f82011682018060405250810190610a7d919061294a565b915060129050610b75565b8373ffffffffffffffffffffffffffffffffffffffff166370a08231306040518263ffffffff1660e01b8152600401610ac1919061262d565b602060405180830381865afa158015610adc573d5f5f3e3d5ffd5b505050506040513d601f19601f82011682018060405250810190610b00919061294a565b91508373ffffffffffffffffffffffffffffffffffffffff1663313ce5676040518163ffffffff1660e01b8152600401602060405180830381865afa158015610b4b573d5f5f3e3d5ffd5b505050506040513d601f19601f82011682018060405250810190610b6f9190612a65565b60ff1690505b5f610b7f85611d4e565b73ffffffffffffffffffffffffffffffffffffffff1663feaf968c6040518163ffffffff1660e01b815260040160a060405180830381865afa158015610bc7573d5f5f3e3d5ffd5b505050506040513d601f19601f82011682018060405250810190610beb9190612acf565b5050509150505f610bfb86611dd5565b600a610c079190612c75565b670de0b6b3a764000083610c1b9190612cbf565b610c259190612d2d565b90505f83600a610c359190612c75565b8286610c419190612cbf565b610c4b9190612d2d565b90508095505050505050919050565b5f3073ffffffffffffffffffffffffffffffffffffffff163373ffffffffffffffffffffffffffffffffffffffff1614610cc9576040517f08c379a0000000000000000000000000000000000000000000000000000000008152600401610cc090612da7565b60405180910390fd5b5f610cd385611e55565b90505f610cdf85611e55565b90505f610ceb87611d4e565b90505f610cf787611d4e565b90505f8273ffffffffffffffffffffffffffffffffffffffff1663feaf968c6040518163ffffffff1660e01b815260040160a060405180830381865afa158015610d43573d5f5f3e3d5ffd5b505050506040513d601f19601f82011682018060405250810190610d679190612acf565b5050509150505f8273ffffffffffffffffffffffffffffffffffffffff1663feaf968c6040518163ffffffff1660e01b815260040160a060405180830381865afa158015610db7573d5f5f3e3d5ffd5b505050506040513d601f19601f82011682018060405250810190610ddb9190612acf565b5050509150505f610deb8b611dd5565b90505f610df78b611dd5565b90505f82600a610e079190612c75565b670de0b6b3a764000086610e1b9190612cbf565b610e259190612d2d565b90505f82600a610e359190612c75565b670de0b6b3a764000086610e499190612cbf565b610e539190612d2d565b905089600a610e629190612c75565b81610e6d9190612cbf565b89600a610e7a9190612c75565b838e610e869190612cbf565b610e909190612cbf565b610e9a9190612d2d565b9a50505050505050505050509392505050565b60035481565b73a324880f884036e3d21a09b90269e1ac57c7ec8a81565b5f84610ed681611f49565b84610ee081611f49565b5f8773ffffffffffffffffffffffffffffffffffffffff166370a08231306040518263ffffffff1660e01b8152600401610f1a919061262d565b602060405180830381865afa158015610f35573d5f5f3e3d5ffd5b505050506040513d601f19601f82011682018060405250810190610f59919061294a565b90505f8603610f94576040517f1f2a200500000000000000000000000000000000000000000000000000000000815260040160405180910390fd5b85811015610fce576040517ff4d678b800000000000000000000000000000000000000000000000000000000815260040160405180910390fd5b8673ffffffffffffffffffffffffffffffffffffffff168873ffffffffffffffffffffffffffffffffffffffff1603611033576040517f613970e000000000000000000000000000000000000000000000000000000000815260040160405180910390fd5b5f73ffffffffffffffffffffffffffffffffffffffff166110526119f3565b73ffffffffffffffffffffffffffffffffffffffff16631d43335a8a6040518263ffffffff1660e01b815260040161108a919061262d565b602060405180830381865afa1580156110a5573d5f5f3e3d5ffd5b505050506040513d601f19601f820116820180604052508101906110c9919061290b565b73ffffffffffffffffffffffffffffffffffffffff16148061119457505f73ffffffffffffffffffffffffffffffffffffffff166111056119f3565b73ffffffffffffffffffffffffffffffffffffffff16631d43335a896040518263ffffffff1660e01b815260040161113d919061262d565b602060405180830381865afa158015611158573d5f5f3e3d5ffd5b505050506040513d601f19601f8201168201806040525081019061117c919061290b565b73ffffffffffffffffffffffffffffffffffffffff16145b156111cb576040517f7804b78f00000000000000000000000000000000000000000000000000000000815260040160405180910390fd5b60015f9054906101000a900473ffffffffffffffffffffffffffffffffffffffff1673ffffffffffffffffffffffffffffffffffffffff163373ffffffffffffffffffffffffffffffffffffffff1614158015611275575060025f9054906101000a900473ffffffffffffffffffffffffffffffffffffffff1673ffffffffffffffffffffffffffffffffffffffff163373ffffffffffffffffffffffffffffffffffffffff1614155b156112ac576040517f5b905d4e00000000000000000000000000000000000000000000000000000000815260040160405180910390fd5b6127108511156112e8576040517f613970e000000000000000000000000000000000000000000000000000000000815260040160405180910390fd5b6112f48888888861203b565b93507fc665f2f5768a61c064dd66125ac01f65d2f20d35ebb13a292211bf50619d753e338989898860405161132d959493929190612dc5565b60405180910390a1505050949350505050565b60015f9054906101000a900473ffffffffffffffffffffffffffffffffffffffff1681565b60025f9054906101000a900473ffffffffffffffffffffffffffffffffffffffff1681565b5f5f61139461052a565b73ffffffffffffffffffffffffffffffffffffffff168773ffffffffffffffffffffffffffffffffffffffff1614611438578673ffffffffffffffffffffffffffffffffffffffff1663313ce5676040518163ffffffff1660e01b8152600401602060405180830381865afa15801561140f573d5f5f3e3d5ffd5b505050506040513d601f19601f820116820180604052508101906114339190612a65565b61143b565b60125b60ff1690505f61144961052a565b73ffffffffffffffffffffffffffffffffffffffff168773ffffffffffffffffffffffffffffffffffffffff16146114ed578673ffffffffffffffffffffffffffffffffffffffff1663313ce5676040518163ffffffff1660e01b8152600401602060405180830381865afa1580156114c4573d5f5f3e3d5ffd5b505050506040513d601f19601f820116820180604052508101906114e89190612a65565b6114f0565b60125b60ff1690505f8573ffffffffffffffffffffffffffffffffffffffff1663feaf968c6040518163ffffffff1660e01b815260040160a060405180830381865afa15801561153f573d5f5f3e3d5ffd5b505050506040513d601f19601f820116820180604052508101906115639190612acf565b5050509150505f8573ffffffffffffffffffffffffffffffffffffffff1663feaf968c6040518163ffffffff1660e01b815260040160a060405180830381865afa1580156115b3573d5f5f3e3d5ffd5b505050506040513d601f19601f820116820180604052508101906115d79190612acf565b5050509150505f84600a6115eb9190612c75565b8285600a6115f99190612c75565b856116049190612cbf565b61160e9190612d2d565b8a6116199190612cbf565b6116239190612d2d565b9050809550505050505095945050505050565b6006602052805f5260405f205f915090505481565b611653611a6d565b5f830361168c576040517f1f2a200500000000000000000000000000000000000000000000000000000000815260040160405180910390fd5b600173ffffffffffffffffffffffffffffffffffffffff166116ac6104b0565b73ffffffffffffffffffffffffffffffffffffffff16036118d457801561189c57600160045f6101000a81548160ff0219169083151502179055506116ef61052a565b73ffffffffffffffffffffffffffffffffffffffff1663095ea7b361171261052a565b856040518363ffffffff1660e01b8152600401611730929190612975565b6020604051808303815f875af115801561174c573d5f5f3e3d5ffd5b505050506040513d601f19601f8201168201806040525081019061177091906129b0565b5061177961052a565b73ffffffffffffffffffffffffffffffffffffffff16632e1a7d4d846040518263ffffffff1660e01b81526004016117b191906126fa565b5f604051808303815f87803b1580156117c8575f5ffd5b505af11580156117da573d5f5f3e3d5ffd5b505050505f8273ffffffffffffffffffffffffffffffffffffffff168460405161180390612e43565b5f6040518083038185875af1925050503d805f811461183d576040519150601f19603f3d011682016040523d82523d5f602084013e611842565b606091505b505090508061187d576040517f90b8ec1800000000000000000000000000000000000000000000000000000000815260040160405180910390fd5b5f60045f6101000a81548160ff021916908315150217905550506118cf565b6118ce82846118a961052a565b73ffffffffffffffffffffffffffffffffffffffff16611ccf9092919063ffffffff16565b5b611907565b61190682846118e16104b0565b73ffffffffffffffffffffffffffffffffffffffff16611ccf9092919063ffffffff16565b5b8173ffffffffffffffffffffffffffffffffffffffff167fa8e76b822fc682be77f3b1c822ea81f6bda5aed92ba82e6873bfd889f328d1d28460405161194d91906126fa565b60405180910390a2505050565b600281565b5f60025f9054906101000a900473ffffffffffffffffffffffffffffffffffffffff1673ffffffffffffffffffffffffffffffffffffffff1663f887ea406040518163ffffffff1660e01b8152600401602060405180830381865afa1580156119ca573d5f5f3e3d5ffd5b505050506040513d601f19601f820116820180604052508101906119ee919061290b565b905090565b5f6119fc61195f565b73ffffffffffffffffffffffffffffffffffffffff1663c45a01556040518163ffffffff1660e01b8152600401602060405180830381865afa158015611a44573d5f5f3e3d5ffd5b505050506040513d601f19601f82011682018060405250810190611a68919061290b565b905090565b5f611a766119f3565b90505f8173ffffffffffffffffffffffffffffffffffffffff1663e40208046040518163ffffffff1660e01b8152600401602060405180830381865afa158015611ac2573d5f5f3e3d5ffd5b505050506040513d601f19601f82011682018060405250810190611ae6919061290b565b90505f8173ffffffffffffffffffffffffffffffffffffffff16634046ebae6040518163ffffffff1660e01b8152600401602060405180830381865afa158015611b32573d5f5f3e3d5ffd5b505050506040513d601f19601f82011682018060405250810190611b56919061290b565b905060025f9054906101000a900473ffffffffffffffffffffffffffffffffffffffff1673ffffffffffffffffffffffffffffffffffffffff163373ffffffffffffffffffffffffffffffffffffffff1614158015611be157508173ffffffffffffffffffffffffffffffffffffffff163373ffffffffffffffffffffffffffffffffffffffff1614155b8015611c1957508073ffffffffffffffffffffffffffffffffffffffff163373ffffffffffffffffffffffffffffffffffffffff1614155b15611c50576040517f7cc2b58600000000000000000000000000000000000000000000000000000000815260040160405180910390fd5b505050565b5f611c5e61195f565b73ffffffffffffffffffffffffffffffffffffffff1663456dc17a6040518163ffffffff1660e01b8152600401602060405180830381865afa158015611ca6573d5f5f3e3d5ffd5b505050506040513d601f19601f82011682018060405250810190611cca919061290b565b905090565b611d49838473ffffffffffffffffffffffffffffffffffffffff1663a9059cbb8585604051602401611d02929190612975565b604051602081830303815290604052915060e01b6020820180517bffffffffffffffffffffffffffffffffffffffffffffffffffffffff8381831617835250505050612052565b505050565b5f611d576119f3565b73ffffffffffffffffffffffffffffffffffffffff16631d43335a836040518263ffffffff1660e01b8152600401611d8f919061262d565b602060405180830381865afa158015611daa573d5f5f3e3d5ffd5b505050506040513d601f19601f82011682018060405250810190611dce919061290b565b9050919050565b5f611ddf82611d4e565b73ffffffffffffffffffffffffffffffffffffffff1663313ce5676040518163ffffffff1660e01b8152600401602060405180830381865afa158015611e27573d5f5f3e3d5ffd5b505050506040513d601f19601f82011682018060405250810190611e4b9190612a65565b60ff169050919050565b5f600173ffffffffffffffffffffffffffffffffffffffff168273ffffffffffffffffffffffffffffffffffffffff161480611ec35750611e9461052a565b73ffffffffffffffffffffffffffffffffffffffff168273ffffffffffffffffffffffffffffffffffffffff16145b15611ed15760129050611f44565b8173ffffffffffffffffffffffffffffffffffffffff1663313ce5676040518163ffffffff1660e01b8152600401602060405180830381865afa158015611f1a573d5f5f3e3d5ffd5b505050506040513d601f19601f82011682018060405250810190611f3e9190612a65565b60ff1690505b919050565b5f60065f8373ffffffffffffffffffffffffffffffffffffffff1673ffffffffffffffffffffffffffffffffffffffff1681526020019081526020015f2054036120385760035f8154611f9b90612e57565b919050819055508060055f60035481526020019081526020015f205f6101000a81548173ffffffffffffffffffffffffffffffffffffffff021916908373ffffffffffffffffffffffffffffffffffffffff16021790555060035460065f8373ffffffffffffffffffffffffffffffffffffffff1673ffffffffffffffffffffffffffffffffffffffff1681526020019081526020015f20819055505b50565b5f612048858585856120ed565b9050949350505050565b5f5f60205f8451602086015f885af180612071576040513d5f823e3d81fd5b3d92505f519150505f821461208a5760018114156120a5565b5f8473ffffffffffffffffffffffffffffffffffffffff163b145b156120e757836040517f5274afe70000000000000000000000000000000000000000000000000000000081526004016120de919061262d565b60405180910390fd5b50505050565b5f5f6120fa86868661233a565b90505f6127108461271061210e9190612a08565b836121199190612cbf565b6121239190612d2d565b90508673ffffffffffffffffffffffffffffffffffffffff1663095ea7b373a324880f884036e3d21a09b90269e1ac57c7ec8a876040518363ffffffff1660e01b8152600401612174929190612975565b6020604051808303815f875af1158015612190573d5f5f3e3d5ffd5b505050506040513d601f19601f820116820180604052508101906121b491906129b0565b505f6040518061010001604052808973ffffffffffffffffffffffffffffffffffffffff168152602001600173ffffffffffffffffffffffffffffffffffffffff168973ffffffffffffffffffffffffffffffffffffffff16146122185788612221565b61222061052a565b5b73ffffffffffffffffffffffffffffffffffffffff1681526020016103e862ffffff1681526020013073ffffffffffffffffffffffffffffffffffffffff16815260200161012c426122739190612e9e565b81526020018781526020018381526020015f73ffffffffffffffffffffffffffffffffffffffff16815250905073a324880f884036e3d21a09b90269e1ac57c7ec8a73ffffffffffffffffffffffffffffffffffffffff1663414bf389826040518263ffffffff1660e01b81526004016122ed9190612fbb565b6020604051808303815f875af1158015612309573d5f5f3e3d5ffd5b505050506040513d601f19601f8201168201806040525081019061232d919061294a565b9350505050949350505050565b5f8273ffffffffffffffffffffffffffffffffffffffff168473ffffffffffffffffffffffffffffffffffffffff16036123765781905061247f565b3073ffffffffffffffffffffffffffffffffffffffff16635984c8518585856040518463ffffffff1660e01b81526004016123b393929190612fd5565b602060405180830381865afa9250505080156123ed57506040513d601f19601f820116820180604052508101906123ea919061294a565b60015b612479575f6123fb85611e55565b90505f61240785611e55565b90508082111561243b57808261241d9190612a08565b600a6124299190612c75565b846124349190612d2d565b9250612472565b8181111561246d57818161244f9190612a08565b600a61245b9190612c75565b846124669190612cbf565b9250612471565b8392505b5b505061247e565b809150505b5b9392505050565b5f82825260208201905092915050565b7f506f736974696f6e20646f6573206e6f742068616e646c65206e6174697665205f8201527f746f6b656e730000000000000000000000000000000000000000000000000000602082015250565b5f6124f0602683612486565b91506124fb82612496565b604082019050919050565b5f6020820190508181035f83015261251d816124e4565b9050919050565b7f46616c6c6261636b206e6f7420616c6c6f7765640000000000000000000000005f82015250565b5f612558601483612486565b915061256382612524565b602082019050919050565b5f6020820190508181035f8301526125858161254c565b9050919050565b5f5ffd5b5f819050919050565b6125a281612590565b81146125ac575f5ffd5b50565b5f813590506125bd81612599565b92915050565b5f602082840312156125d8576125d761258c565b5b5f6125e5848285016125af565b91505092915050565b5f73ffffffffffffffffffffffffffffffffffffffff82169050919050565b5f612617826125ee565b9050919050565b6126278161260d565b82525050565b5f6020820190506126405f83018461261e565b92915050565b61264f8161260d565b8114612659575f5ffd5b50565b5f8135905061266a81612646565b92915050565b5f5f5f606084860312156126875761268661258c565b5b5f612694868287016125af565b93505060206126a58682870161265c565b92505060406126b6868287016125af565b9150509250925092565b5f602082840312156126d5576126d461258c565b5b5f6126e28482850161265c565b91505092915050565b6126f481612590565b82525050565b5f60208201905061270d5f8301846126eb565b92915050565b5f5f5f6060848603121561272a5761272961258c565b5b5f6127378682870161265c565b93505060206127488682870161265c565b9250506040612759868287016125af565b9150509250925092565b5f5f5f5f6080858703121561277b5761277a61258c565b5b5f6127888782880161265c565b94505060206127998782880161265c565b93505060406127aa878288016125af565b92505060606127bb878288016125af565b91505092959194509250565b5f5f5f5f5f60a086880312156127e0576127df61258c565b5b5f6127ed8882890161265c565b95505060206127fe8882890161265c565b945050604061280f888289016125af565b93505060606128208882890161265c565b92505060806128318882890161265c565b9150509295509295909350565b5f8115159050919050565b6128528161283e565b811461285c575f5ffd5b50565b5f8135905061286d81612849565b92915050565b5f5f5f6060848603121561288a5761288961258c565b5b5f612897868287016125af565b93505060206128a88682870161265c565b92505060406128b98682870161285f565b9150509250925092565b5f60ff82169050919050565b6128d8816128c3565b82525050565b5f6020820190506128f15f8301846128cf565b92915050565b5f8151905061290581612646565b92915050565b5f602082840312156129205761291f61258c565b5b5f61292d848285016128f7565b91505092915050565b5f8151905061294481612599565b92915050565b5f6020828403121561295f5761295e61258c565b5b5f61296c84828501612936565b91505092915050565b5f6040820190506129885f83018561261e565b61299560208301846126eb565b9392505050565b5f815190506129aa81612849565b92915050565b5f602082840312156129c5576129c461258c565b5b5f6129d28482850161299c565b91505092915050565b7f4e487b71000000000000000000000000000000000000000000000000000000005f52601160045260245ffd5b5f612a1282612590565b9150612a1d83612590565b9250828203905081811115612a3557612a346129db565b5b92915050565b612a44816128c3565b8114612a4e575f5ffd5b50565b5f81519050612a5f81612a3b565b92915050565b5f60208284031215612a7a57612a7961258c565b5b5f612a8784828501612a51565b91505092915050565b5f69ffffffffffffffffffff82169050919050565b612aae81612a90565b8114612ab8575f5ffd5b50565b5f81519050612ac981612aa5565b92915050565b5f5f5f5f5f60a08688031215612ae857612ae761258c565b5b5f612af588828901612abb565b9550506020612b0688828901612936565b9450506040612b1788828901612936565b9350506060612b2888828901612936565b9250506080612b3988828901612abb565b9150509295509295909350565b5f8160011c9050919050565b5f5f8291508390505b6001851115612b9b57808604811115612b7757612b766129db565b5b6001851615612b865780820291505b8081029050612b9485612b46565b9450612b5b565b94509492505050565b5f82612bb35760019050612c6e565b81612bc0575f9050612c6e565b8160018114612bd65760028114612be057612c0f565b6001915050612c6e565b60ff841115612bf257612bf16129db565b5b8360020a915084821115612c0957612c086129db565b5b50612c6e565b5060208310610133831016604e8410600b8410161715612c445782820a905083811115612c3f57612c3e6129db565b5b612c6e565b612c518484846001612b52565b92509050818404811115612c6857612c676129db565b5b81810290505b9392505050565b5f612c7f82612590565b9150612c8a83612590565b9250612cb77fffffffffffffffffffffffffffffffffffffffffffffffffffffffffffffffff8484612ba4565b905092915050565b5f612cc982612590565b9150612cd483612590565b9250828202612ce281612590565b91508282048414831517612cf957612cf86129db565b5b5092915050565b7f4e487b71000000000000000000000000000000000000000000000000000000005f52601260045260245ffd5b5f612d3782612590565b9150612d4283612590565b925082612d5257612d51612d00565b5b828204905092915050565b7f556e617574686f72697a656400000000000000000000000000000000000000005f82015250565b5f612d91600c83612486565b9150612d9c82612d5d565b602082019050919050565b5f6020820190508181035f830152612dbe81612d85565b9050919050565b5f60a082019050612dd85f83018861261e565b612de5602083018761261e565b612df2604083018661261e565b612dff60608301856126eb565b612e0c60808301846126eb565b9695505050505050565b5f81905092915050565b50565b5f612e2e5f83612e16565b9150612e3982612e20565b5f82019050919050565b5f612e4d82612e23565b9150819050919050565b5f612e6182612590565b91507fffffffffffffffffffffffffffffffffffffffffffffffffffffffffffffffff8203612e9357612e926129db565b5b600182019050919050565b5f612ea882612590565b9150612eb383612590565b9250828201905080821115612ecb57612eca6129db565b5b92915050565b612eda8161260d565b82525050565b5f62ffffff82169050919050565b612ef781612ee0565b82525050565b612f0681612590565b82525050565b612f15816125ee565b82525050565b61010082015f820151612f305f850182612ed1565b506020820151612f436020850182612ed1565b506040820151612f566040850182612eee565b506060820151612f696060850182612ed1565b506080820151612f7c6080850182612efd565b5060a0820151612f8f60a0850182612efd565b5060c0820151612fa260c0850182612efd565b5060e0820151612fb560e0850182612f0c565b50505050565b5f61010082019050612fcf5f830184612f1b565b92915050565b5f606082019050612fe85f83018661261e565b612ff5602083018561261e565b61300260408301846126eb565b94935050505056fea2646970667358221220530773060eb2abe3188a570ba80e873ceb0170bf24c934521c6256952988f66364736f6c634300081e0033","linkReferences":{}},"methodIdentifiers":{"DEX_ROUTER()":"7af11ac0","VERSION()":"ffa1ad74","_calculateExpectedAmountWithPriceFeeds(address,address,uint256)":"5984c851","counter()":"61bc221a","lpAddress()":"9b4dc8cc","owner()":"8da5cb5b","repayWithSelectedToken(uint256,address,uint256)":"2ba0c8a3","swapTokenByPosition(address,address,uint256,uint256)":"8c3bc0b1","tokenCalculator(address,address,uint256,address,address)":"dd9103cb","tokenLists(uint256)":"1cb928a9","tokenListsId(address)":"f4191e68","tokenValue(address)":"513f7d1e","withdrawCollateral(uint256,address,bool)":"fa58d7b4"},"id":113}