{"abi":[{"type":"constructor","inputs":[{"name":"_token","type":"address","internalType":"address"},{"name":"_elevatedMinterBurner","type":"address","internalType":"address"},{"name":"_lzEndpoint","type":"address","internalType":"address"},{"name":"_owner","type":"address","internalType":"address"}],"stateMutability":"nonpayable"},{"type":"function","name":"SEND","inputs":[],"outputs":[{"name":"","type":"uint16","internalType":"uint16"}],"stateMutability":"view"},{"type":"function","name":"SEND_AND_CALL","inputs":[],"outputs":[{"name":"","type":"uint16","internalType":"uint16"}],"stateMutability":"view"},{"type":"function","name":"allowInitializePath","inputs":[{"name":"origin","type":"tuple","internalType":"struct Origin","components":[{"name":"srcEid","type":"uint32","internalType":"uint32"},{"name":"sender","type":"bytes32","internalType":"bytes32"},{"name":"nonce","type":"uint64","internalType":"uint64"}]}],"outputs":[{"name":"","type":"bool","internalType":"bool"}],"stateMutability":"view"},{"type":"function","name":"approvalRequired","inputs":[],"outputs":[{"name":"","type":"bool","internalType":"bool"}],"stateMutability":"pure"},{"type":"function","name":"combineOptions","inputs":[{"name":"_eid","type":"uint32","internalType":"uint32"},{"name":"_msgType","type":"uint16","internalType":"uint16"},{"name":"_extraOptions","type":"bytes","internalType":"bytes"}],"outputs":[{"name":"","type":"bytes","internalType":"bytes"}],"stateMutability":"view"},{"type":"function","name":"decimalConversionRate","inputs":[],"outputs":[{"name":"","type":"uint256","internalType":"uint256"}],"stateMutability":"view"},{"type":"function","name":"elevatedMinterBurner","inputs":[],"outputs":[{"name":"","type":"address","internalType":"address"}],"stateMutability":"view"},{"type":"function","name":"endpoint","inputs":[],"outputs":[{"name":"","type":"address","internalType":"contract ILayerZeroEndpointV2"}],"stateMutability":"view"},{"type":"function","name":"enforcedOptions","inputs":[{"name":"eid","type":"uint32","internalType":"uint32"},{"name":"msgType","type":"uint16","internalType":"uint16"}],"outputs":[{"name":"enforcedOption","type":"bytes","internalType":"bytes"}],"stateMutability":"view"},{"type":"function","name":"isComposeMsgSender","inputs":[{"name":"","type":"tuple","internalType":"struct Origin","components":[{"name":"srcEid","type":"uint32","internalType":"uint32"},{"name":"sender","type":"bytes32","internalType":"bytes32"},{"name":"nonce","type":"uint64","internalType":"uint64"}]},{"name":"","type":"bytes","internalType":"bytes"},{"name":"_sender","type":"address","internalType":"address"}],"outputs":[{"name":"","type":"bool","internalType":"bool"}],"stateMutability":"view"},{"type":"function","name":"isPeer","inputs":[{"name":"_eid","type":"uint32","internalType":"uint32"},{"name":"_peer","type":"bytes32","internalType":"bytes32"}],"outputs":[{"name":"","type":"bool","internalType":"bool"}],"stateMutability":"view"},{"type":"function","name":"lzReceive","inputs":[{"name":"_origin","type":"tuple","internalType":"struct Origin","components":[{"name":"srcEid","type":"uint32","internalType":"uint32"},{"name":"sender","type":"bytes32","internalType":"bytes32"},{"name":"nonce","type":"uint64","internalType":"uint64"}]},{"name":"_guid","type":"bytes32","internalType":"bytes32"},{"name":"_message","type":"bytes","internalType":"bytes"},{"name":"_executor","type":"address","internalType":"address"},{"name":"_extraData","type":"bytes","internalType":"bytes"}],"outputs":[],"stateMutability":"payable"},{"type":"function","name":"lzReceiveAndRevert","inputs":[{"name":"_packets","type":"tuple[]","internalType":"struct InboundPacket[]","components":[{"name":"origin","type":"tuple","internalType":"struct Origin","components":[{"name":"srcEid","type":"uint32","internalType":"uint32"},{"name":"sender","type":"bytes32","internalType":"bytes32"},{"name":"nonce","type":"uint64","internalType":"uint64"}]},{"name":"dstEid","type":"uint32","internalType":"uint32"},{"name":"receiver","type":"address","internalType":"address"},{"name":"guid","type":"bytes32","internalType":"bytes32"},{"name":"value","type":"uint256","internalType":"uint256"},{"name":"executor","type":"address","internalType":"address"},{"name":"message","type":"bytes","internalType":"bytes"},{"name":"extraData","type":"bytes","internalType":"bytes"}]}],"outputs":[],"stateMutability":"payable"},{"type":"function","name":"lzReceiveSimulate","inputs":[{"name":"_origin","type":"tuple","internalType":"struct Origin","components":[{"name":"srcEid","type":"uint32","internalType":"uint32"},{"name":"sender","type":"bytes32","internalType":"bytes32"},{"name":"nonce","type":"uint64","internalType":"uint64"}]},{"name":"_guid","type":"bytes32","internalType":"bytes32"},{"name":"_message","type":"bytes","internalType":"bytes"},{"name":"_executor","type":"address","internalType":"address"},{"name":"_extraData","type":"bytes","internalType":"bytes"}],"outputs":[],"stateMutability":"payable"},{"type":"function","name":"msgInspector","inputs":[],"outputs":[{"name":"","type":"address","internalType":"address"}],"stateMutability":"view"},{"type":"function","name":"nextNonce","inputs":[{"name":"","type":"uint32","internalType":"uint32"},{"name":"","type":"bytes32","internalType":"bytes32"}],"outputs":[{"name":"nonce","type":"uint64","internalType":"uint64"}],"stateMutability":"view"},{"type":"function","name":"oApp","inputs":[],"outputs":[{"name":"","type":"address","internalType":"address"}],"stateMutability":"view"},{"type":"function","name":"oAppVersion","inputs":[],"outputs":[{"name":"senderVersion","type":"uint64","internalType":"uint64"},{"name":"receiverVersion","type":"uint64","internalType":"uint64"}],"stateMutability":"pure"},{"type":"function","name":"oftVersion","inputs":[],"outputs":[{"name":"interfaceId","type":"bytes4","internalType":"bytes4"},{"name":"version","type":"uint64","internalType":"uint64"}],"stateMutability":"pure"},{"type":"function","name":"owner","inputs":[],"outputs":[{"name":"","type":"address","internalType":"address"}],"stateMutability":"view"},{"type":"function","name":"peers","inputs":[{"name":"eid","type":"uint32","internalType":"uint32"}],"outputs":[{"name":"peer","type":"bytes32","internalType":"bytes32"}],"stateMutability":"view"},{"type":"function","name":"preCrime","inputs":[],"outputs":[{"name":"","type":"address","internalType":"address"}],"stateMutability":"view"},{"type":"function","name":"quoteOFT","inputs":[{"name":"_sendParam","type":"tuple","internalType":"struct SendParam","components":[{"name":"dstEid","type":"uint32","internalType":"uint32"},{"name":"to","type":"bytes32","internalType":"bytes32"},{"name":"amountLD","type":"uint256","internalType":"uint256"},{"name":"minAmountLD","type":"uint256","internalType":"uint256"},{"name":"extraOptions","type":"bytes","internalType":"bytes"},{"name":"composeMsg","type":"bytes","internalType":"bytes"},{"name":"oftCmd","type":"bytes","internalType":"bytes"}]}],"outputs":[{"name":"oftLimit","type":"tuple","internalType":"struct OFTLimit","components":[{"name":"minAmountLD","type":"uint256","internalType":"uint256"},{"name":"maxAmountLD","type":"uint256","internalType":"uint256"}]},{"name":"oftFeeDetails","type":"tuple[]","internalType":"struct OFTFeeDetail[]","components":[{"name":"feeAmountLD","type":"int256","internalType":"int256"},{"name":"description","type":"string","internalType":"string"}]},{"name":"oftReceipt","type":"tuple","internalType":"struct OFTReceipt","components":[{"name":"amountSentLD","type":"uint256","internalType":"uint256"},{"name":"amountReceivedLD","type":"uint256","internalType":"uint256"}]}],"stateMutability":"view"},{"type":"function","name":"quoteSend","inputs":[{"name":"_sendParam","type":"tuple","internalType":"struct SendParam","components":[{"name":"dstEid","type":"uint32","internalType":"uint32"},{"name":"to","type":"bytes32","internalType":"bytes32"},{"name":"amountLD","type":"uint256","internalType":"uint256"},{"name":"minAmountLD","type":"uint256","internalType":"uint256"},{"name":"extraOptions","type":"bytes","internalType":"bytes"},{"name":"composeMsg","type":"bytes","internalType":"bytes"},{"name":"oftCmd","type":"bytes","internalType":"bytes"}]},{"name":"_payInLzToken","type":"bool","internalType":"bool"}],"outputs":[{"name":"msgFee","type":"tuple","internalType":"struct MessagingFee","components":[{"name":"nativeFee","type":"uint256","internalType":"uint256"},{"name":"lzTokenFee","type":"uint256","internalType":"uint256"}]}],"stateMutability":"view"},{"type":"function","name":"renounceOwnership","inputs":[],"outputs":[],"stateMutability":"nonpayable"},{"type":"function","name":"send","inputs":[{"name":"_sendParam","type":"tuple","internalType":"struct SendParam","components":[{"name":"dstEid","type":"uint32","internalType":"uint32"},{"name":"to","type":"bytes32","internalType":"bytes32"},{"name":"amountLD","type":"uint256","internalType":"uint256"},{"name":"minAmountLD","type":"uint256","internalType":"uint256"},{"name":"extraOptions","type":"bytes","internalType":"bytes"},{"name":"composeMsg","type":"bytes","internalType":"bytes"},{"name":"oftCmd","type":"bytes","internalType":"bytes"}]},{"name":"_fee","type":"tuple","internalType":"struct MessagingFee","components":[{"name":"nativeFee","type":"uint256","internalType":"uint256"},{"name":"lzTokenFee","type":"uint256","internalType":"uint256"}]},{"name":"_refundAddress","type":"address","internalType":"address"}],"outputs":[{"name":"msgReceipt","type":"tuple","internalType":"struct MessagingReceipt","components":[{"name":"guid","type":"bytes32","internalType":"bytes32"},{"name":"nonce","type":"uint64","internalType":"uint64"},{"name":"fee","type":"tuple","internalType":"struct MessagingFee","components":[{"name":"nativeFee","type":"uint256","internalType":"uint256"},{"name":"lzTokenFee","type":"uint256","internalType":"uint256"}]}]},{"name":"oftReceipt","type":"tuple","internalType":"struct OFTReceipt","components":[{"name":"amountSentLD","type":"uint256","internalType":"uint256"},{"name":"amountReceivedLD","type":"uint256","internalType":"uint256"}]}],"stateMutability":"payable"},{"type":"function","name":"setDelegate","inputs":[{"name":"_delegate","type":"address","internalType":"address"}],"outputs":[],"stateMutability":"nonpayable"},{"type":"function","name":"setElevatedMinterBurner","inputs":[{"name":"_elevatedMinterBurner","type":"address","internalType":"address"}],"outputs":[],"stateMutability":"nonpayable"},{"type":"function","name":"setEnforcedOptions","inputs":[{"name":"_enforcedOptions","type":"tuple[]","internalType":"struct EnforcedOptionParam[]","components":[{"name":"eid","type":"uint32","internalType":"uint32"},{"name":"msgType","type":"uint16","internalType":"uint16"},{"name":"options","type":"bytes","internalType":"bytes"}]}],"outputs":[],"stateMutability":"nonpayable"},{"type":"function","name":"setMsgInspector","inputs":[{"name":"_msgInspector","type":"address","internalType":"address"}],"outputs":[],"stateMutability":"nonpayable"},{"type":"function","name":"setPeer","inputs":[{"name":"_eid","type":"uint32","internalType":"uint32"},{"name":"_peer","type":"bytes32","internalType":"bytes32"}],"outputs":[],"stateMutability":"nonpayable"},{"type":"function","name":"setPreCrime","inputs":[{"name":"_preCrime","type":"address","internalType":"address"}],"outputs":[],"stateMutability":"nonpayable"},{"type":"function","name":"sharedDecimals","inputs":[],"outputs":[{"name":"","type":"uint8","internalType":"uint8"}],"stateMutability":"pure"},{"type":"function","name":"token","inputs":[],"outputs":[{"name":"","type":"address","internalType":"address"}],"stateMutability":"view"},{"type":"function","name":"tokenOFT","inputs":[],"outputs":[{"name":"","type":"address","internalType":"address"}],"stateMutability":"view"},{"type":"function","name":"transferOwnership","inputs":[{"name":"newOwner","type":"address","internalType":"address"}],"outputs":[],"stateMutability":"nonpayable"},{"type":"event","name":"Credit","inputs":[{"name":"to","type":"address","indexed":false,"internalType":"address"},{"name":"amount","type":"uint256","indexed":false,"internalType":"uint256"}],"anonymous":false},{"type":"event","name":"Debit","inputs":[{"name":"from","type":"address","indexed":false,"internalType":"address"},{"name":"amount","type":"uint256","indexed":false,"internalType":"uint256"}],"anonymous":false},{"type":"event","name":"EnforcedOptionSet","inputs":[{"name":"_enforcedOptions","type":"tuple[]","indexed":false,"internalType":"struct EnforcedOptionParam[]","components":[{"name":"eid","type":"uint32","internalType":"uint32"},{"name":"msgType","type":"uint16","internalType":"uint16"},{"name":"options","type":"bytes","internalType":"bytes"}]}],"anonymous":false},{"type":"event","name":"MsgInspectorSet","inputs":[{"name":"inspector","type":"address","indexed":false,"internalType":"address"}],"anonymous":false},{"type":"event","name":"OFTReceived","inputs":[{"name":"guid","type":"bytes32","indexed":true,"internalType":"bytes32"},{"name":"srcEid","type":"uint32","indexed":false,"internalType":"uint32"},{"name":"toAddress","type":"address","indexed":true,"internalType":"address"},{"name":"amountReceivedLD","type":"uint256","indexed":false,"internalType":"uint256"}],"anonymous":false},{"type":"event","name":"OFTSent","inputs":[{"name":"guid","type":"bytes32","indexed":true,"internalType":"bytes32"},{"name":"dstEid","type":"uint32","indexed":false,"internalType":"uint32"},{"name":"fromAddress","type":"address","indexed":true,"internalType":"address"},{"name":"amountSentLD","type":"uint256","indexed":false,"internalType":"uint256"},{"name":"amountReceivedLD","type":"uint256","indexed":false,"internalType":"uint256"}],"anonymous":false},{"type":"event","name":"OwnershipTransferred","inputs":[{"name":"previousOwner","type":"address","indexed":true,"internalType":"address"},{"name":"newOwner","type":"address","indexed":true,"internalType":"address"}],"anonymous":false},{"type":"event","name":"PeerSet","inputs":[{"name":"eid","type":"uint32","indexed":false,"internalType":"uint32"},{"name":"peer","type":"bytes32","indexed":false,"internalType":"bytes32"}],"anonymous":false},{"type":"event","name":"PreCrimeSet","inputs":[{"name":"preCrimeAddress","type":"address","indexed":false,"internalType":"address"}],"anonymous":false},{"type":"error","name":"AmountSDOverflowed","inputs":[{"name":"amountSD","type":"uint256","internalType":"uint256"}]},{"type":"error","name":"InsufficientBalance","inputs":[]},{"type":"error","name":"InvalidDelegate","inputs":[]},{"type":"error","name":"InvalidEndpointCall","inputs":[]},{"type":"error","name":"InvalidLocalDecimals","inputs":[]},{"type":"error","name":"InvalidOptions","inputs":[{"name":"options","type":"bytes","internalType":"bytes"}]},{"type":"error","name":"LzTokenUnavailable","inputs":[]},{"type":"error","name":"NoPeer","inputs":[{"name":"eid","type":"uint32","internalType":"uint32"}]},{"type":"error","name":"NotEnoughNative","inputs":[{"name":"msgValue","type":"uint256","internalType":"uint256"}]},{"type":"error","name":"OnlyEndpoint","inputs":[{"name":"addr","type":"address","internalType":"address"}]},{"type":"error","name":"OnlyPeer","inputs":[{"name":"eid","type":"uint32","internalType":"uint32"},{"name":"sender","type":"bytes32","internalType":"bytes32"}]},{"type":"error","name":"OnlySelf","inputs":[]},{"type":"error","name":"OwnableInvalidOwner","inputs":[{"name":"owner","type":"address","internalType":"address"}]},{"type":"error","name":"OwnableUnauthorizedAccount","inputs":[{"name":"account","type":"address","internalType":"address"}]},{"type":"error","name":"ReentrancyGuardReentrantCall","inputs":[]},{"type":"error","name":"SafeERC20FailedOperation","inputs":[{"name":"token","type":"address","internalType":"address"}]},{"type":"error","name":"SimulationResult","inputs":[{"name":"result","type":"bytes","internalType":"bytes"}]},{"type":"error","name":"SlippageExceeded","inputs":[{"name":"amountLD","type":"uint256","internalType":"uint256"},{"name":"minAmountLD","type":"uint256","internalType":"uint256"}]}],"bytecode":{"object":"0x60e060405234801561000f575f5ffd5b5060405161528938038061528983398181016040528101906100319190610498565b8382828273ffffffffffffffffffffffffffffffffffffffff1663313ce5676040518163ffffffff1660e01b8152600401602060405180830381865afa15801561007d573d5f5f3e3d5ffd5b505050506040513d601f19601f820116820180604052508101906100a19190610532565b8282818181818a5f73ffffffffffffffffffffffffffffffffffffffff168173ffffffffffffffffffffffffffffffffffffffff1603610118575f6040517f1e4fbdf700000000000000000000000000000000000000000000000000000000815260040161010f919061056c565b60405180910390fd5b6101278161037160201b60201c565b508173ffffffffffffffffffffffffffffffffffffffff1660808173ffffffffffffffffffffffffffffffffffffffff16815250505f73ffffffffffffffffffffffffffffffffffffffff168173ffffffffffffffffffffffffffffffffffffffff16036101c1576040517fb586360400000000000000000000000000000000000000000000000000000000815260040160405180910390fd5b60805173ffffffffffffffffffffffffffffffffffffffff1663ca5eb5e1826040518263ffffffff1660e01b81526004016101fc919061056c565b5f604051808303815f87803b158015610213575f5ffd5b505af1158015610225573d5f5f3e3d5ffd5b505050505050505061023b61043260201b60201c565b60ff168360ff16101561027a576040517f1e9714b000000000000000000000000000000000000000000000000000000000815260040160405180910390fd5b61028861043260201b60201c565b8361029391906105b2565b600a61029f919061071e565b60a081815250505050508273ffffffffffffffffffffffffffffffffffffffff1660c08173ffffffffffffffffffffffffffffffffffffffff168152505050505060016005819055508360065f6101000a81548173ffffffffffffffffffffffffffffffffffffffff021916908373ffffffffffffffffffffffffffffffffffffffff1602179055508260075f6101000a81548173ffffffffffffffffffffffffffffffffffffffff021916908373ffffffffffffffffffffffffffffffffffffffff16021790555050505050610768565b5f5f5f9054906101000a900473ffffffffffffffffffffffffffffffffffffffff169050815f5f6101000a81548173ffffffffffffffffffffffffffffffffffffffff021916908373ffffffffffffffffffffffffffffffffffffffff1602179055508173ffffffffffffffffffffffffffffffffffffffff168173ffffffffffffffffffffffffffffffffffffffff167f8be0079c531659141344cd1fd0a4f28419497f9722a3daafe3b4186f6b6457e060405160405180910390a35050565b5f6008905090565b5f5ffd5b5f73ffffffffffffffffffffffffffffffffffffffff82169050919050565b5f6104678261043e565b9050919050565b6104778161045d565b8114610481575f5ffd5b50565b5f815190506104928161046e565b92915050565b5f5f5f5f608085870312156104b0576104af61043a565b5b5f6104bd87828801610484565b94505060206104ce87828801610484565b93505060406104df87828801610484565b92505060606104f087828801610484565b91505092959194509250565b5f60ff82169050919050565b610511816104fc565b811461051b575f5ffd5b50565b5f8151905061052c81610508565b92915050565b5f602082840312156105475761054661043a565b5b5f6105548482850161051e565b91505092915050565b6105668161045d565b82525050565b5f60208201905061057f5f83018461055d565b92915050565b7f4e487b71000000000000000000000000000000000000000000000000000000005f52601160045260245ffd5b5f6105bc826104fc565b91506105c7836104fc565b9250828203905060ff8111156105e0576105df610585565b5b92915050565b5f8160011c9050919050565b5f5f8291508390505b600185111561063b5780860481111561061757610616610585565b5b60018516156106265780820291505b8081029050610634856105e6565b94506105fb565b94509492505050565b5f82610653576001905061070e565b81610660575f905061070e565b81600181146106765760028114610680576106af565b600191505061070e565b60ff84111561069257610691610585565b5b8360020a9150848211156106a9576106a8610585565b5b5061070e565b5060208310610133831016604e8410600b84101617156106e45782820a9050838111156106df576106de610585565b5b61070e565b6106f184848460016105f2565b9250905081840481111561070857610707610585565b5b81810290505b9392505050565b5f819050919050565b5f61072882610715565b9150610733836104fc565b92506107607fffffffffffffffffffffffffffffffffffffffffffffffffffffffffffffffff8484610644565b905092915050565b60805160a05160c051614aaa6107df5f395f61153b01525f8181610e5c01528181611ea001528181611ec101528181611f65015261229901525f8181610a6901528181610d0b0152818161132e015281816116fd01528181611a770152818161261b0152818161287001526129680152614aaa5ff3fe60806040526004361061020e575f3560e01c806382413eac11610117578063bc70b3541161009f578063d045a0dc1161006e578063d045a0dc14610789578063d4243885146107a5578063f2fde38b146107cd578063fc0c546a146107f5578063ff7bd03d1461081f5761020e565b8063bc70b354146106d8578063bd815db014610714578063c7c7f5b314610730578063ca5eb5e1146107615761020e565b80639f68b964116100e65780639f68b964146105f8578063b731ea0a14610622578063b98bd0701461064c578063bb0b6a5314610674578063bc4565c4146106b05761020e565b806382413eac1461053e578063857749b01461057a5780638da5cb5b146105a4578063963efcaa146105ce5761020e565b80633b6f743b1161019a5780635e280f11116101695780635e280f11146104705780636fc1b31e1461049a578063715018a6146104c25780637d25a05e146104d85780638108bb7e146105145761020e565b80633b6f743b1461039257806352ae2879146103ce5780635535d461146103f85780635a0dfe4d146104345761020e565b8063134d4f25116101e1578063134d4f25146102c0578063156a0d0f146102ea57806317442b70146103155780631f5e1334146103405780633400288b1461036a5761020e565b80630d35b415146102125780630dec983d14610250578063111ecdad1461027a57806313137d65146102a4575b5f5ffd5b34801561021d575f5ffd5b5061023860048036038101906102339190612b11565b61085b565b60405161024793929190612d47565b60405180910390f35b34801561025b575f5ffd5b50610264610a06565b6040516102719190612dc2565b60405180910390f35b348015610285575f5ffd5b5061028e610a2b565b60405161029b9190612dc2565b60405180910390f35b6102be60048036038101906102b99190612eb7565b610a50565b005b3480156102cb575f5ffd5b506102d4610b70565b6040516102e19190612f8a565b60405180910390f35b3480156102f5575f5ffd5b506102fe610b75565b60405161030c929190612fff565b60405180910390f35b348015610320575f5ffd5b50610329610ba2565b604051610337929190613026565b60405180910390f35b34801561034b575f5ffd5b50610354610bb0565b6040516103619190612f8a565b60405180910390f35b348015610375575f5ffd5b50610390600480360381019061038b9190613086565b610bb5565b005b34801561039d575f5ffd5b506103b860048036038101906103b391906130f9565b610bcb565b6040516103c59190613180565b60405180910390f35b3480156103d9575f5ffd5b506103e2610c33565b6040516103ef9190612dc2565b60405180910390f35b348015610403575f5ffd5b5061041e600480360381019061041991906131c3565b610c3a565b60405161042b9190613253565b60405180910390f35b34801561043f575f5ffd5b5061045a60048036038101906104559190613086565b610ce0565b6040516104679190613282565b60405180910390f35b34801561047b575f5ffd5b50610484610d09565b60405161049191906132f6565b60405180910390f35b3480156104a5575f5ffd5b506104c060048036038101906104bb919061330f565b610d2d565b005b3480156104cd575f5ffd5b506104d6610daf565b005b3480156104e3575f5ffd5b506104fe60048036038101906104f99190613086565b610dc2565b60405161050b919061333a565b60405180910390f35b34801561051f575f5ffd5b50610528610dcc565b6040516105359190612dc2565b60405180910390f35b348015610549575f5ffd5b50610564600480360381019061055f9190613353565b610df1565b6040516105719190613282565b60405180910390f35b348015610585575f5ffd5b5061058e610e2b565b60405161059b91906133df565b60405180910390f35b3480156105af575f5ffd5b506105b8610e33565b6040516105c59190612dc2565b60405180910390f35b3480156105d9575f5ffd5b506105e2610e5a565b6040516105ef9190613407565b60405180910390f35b348015610603575f5ffd5b5061060c610e7e565b6040516106199190613282565b60405180910390f35b34801561062d575f5ffd5b50610636610e86565b6040516106439190612dc2565b60405180910390f35b348015610657575f5ffd5b50610672600480360381019061066d9190613475565b610eab565b005b34801561067f575f5ffd5b5061069a600480360381019061069591906134c0565b610ecc565b6040516106a791906134fa565b60405180910390f35b3480156106bb575f5ffd5b506106d660048036038101906106d1919061330f565b610ee1565b005b3480156106e3575f5ffd5b506106fe60048036038101906106f99190613513565b610f2c565b60405161070b9190613253565b60405180910390f35b61072e600480360381019061072991906135d9565b61112e565b005b61074a60048036038101906107459190613642565b6112fd565b604051610758929190613739565b60405180910390f35b34801561076c575f5ffd5b506107876004803603810190610782919061330f565b611324565b005b6107a3600480360381019061079e9190612eb7565b6113b5565b005b3480156107b0575f5ffd5b506107cb60048036038101906107c6919061330f565b611432565b005b3480156107d8575f5ffd5b506107f360048036038101906107ee919061330f565b6114b4565b005b348015610800575f5ffd5b50610809611538565b6040516108169190612dc2565b60405180910390f35b34801561082a575f5ffd5b5061084560048036038101906108409190613760565b61155f565b6040516108529190613282565b60405180910390f35b610863612a4e565b606061086d612a66565b5f5f90505f3073ffffffffffffffffffffffffffffffffffffffff1663fc0c546a6040518163ffffffff1660e01b8152600401602060405180830381865afa1580156108bb573d5f5f3e3d5ffd5b505050506040513d601f19601f820116820180604052508101906108df919061379f565b73ffffffffffffffffffffffffffffffffffffffff166318160ddd6040518163ffffffff1660e01b8152600401602060405180830381865afa158015610927573d5f5f3e3d5ffd5b505050506040513d601f19601f8201168201806040525081019061094b91906137f4565b905060405180604001604052808381526020018281525094505f67ffffffffffffffff81111561097e5761097d61381f565b5b6040519080825280602002602001820160405280156109b757816020015b6109a4612a7e565b81526020019060019003908161099c5790505b5093505f5f6109e0886040013589606001358a5f0160208101906109db91906134c0565b61159c565b915091506040518060400160405280838152602001828152509450505050509193909250565b60065f9054906101000a900473ffffffffffffffffffffffffffffffffffffffff1681565b60045f9054906101000a900473ffffffffffffffffffffffffffffffffffffffff1681565b3373ffffffffffffffffffffffffffffffffffffffff167f000000000000000000000000000000000000000000000000000000000000000073ffffffffffffffffffffffffffffffffffffffff1614610ae057336040517f91ac5e4f000000000000000000000000000000000000000000000000000000008152600401610ad79190612dc2565b60405180910390fd5b8660200135610aff885f016020810190610afa91906134c0565b6115fb565b14610b5857865f016020810190610b1691906134c0565b87602001356040517fc26bebcc000000000000000000000000000000000000000000000000000000008152600401610b4f92919061385b565b60405180910390fd5b610b678787878787878761166c565b50505050505050565b600281565b5f5f7f02e49c2c000000000000000000000000000000000000000000000000000000006001915091509091565b5f5f60016002915091509091565b600181565b610bbd6117f6565b610bc7828261187d565b5050565b610bd3612a97565b5f610bf884604001358560600135865f016020810190610bf391906134c0565b61159c565b9150505f5f610c0786846118dc565b91509150610c28865f016020810190610c2091906134c0565b838388611a6d565b935050505092915050565b5f30905090565b6003602052815f5260405f20602052805f5260405f205f91509150508054610c61906138af565b80601f0160208091040260200160405190810160405280929190818152602001828054610c8d906138af565b8015610cd85780601f10610caf57610100808354040283529160200191610cd8565b820191905f5260205f20905b815481529060010190602001808311610cbb57829003601f168201915b505050505081565b5f8160015f8563ffffffff1663ffffffff1681526020019081526020015f205414905092915050565b7f000000000000000000000000000000000000000000000000000000000000000081565b610d356117f6565b8060045f6101000a81548173ffffffffffffffffffffffffffffffffffffffff021916908373ffffffffffffffffffffffffffffffffffffffff1602179055507ff0be4f1e87349231d80c36b33f9e8639658eeaf474014dee15a3e6a4d441419781604051610da49190612dc2565b60405180910390a150565b610db76117f6565b610dc05f611b4e565b565b5f5f905092915050565b60075f9054906101000a900473ffffffffffffffffffffffffffffffffffffffff1681565b5f3073ffffffffffffffffffffffffffffffffffffffff168273ffffffffffffffffffffffffffffffffffffffff16149050949350505050565b5f6008905090565b5f5f5f9054906101000a900473ffffffffffffffffffffffffffffffffffffffff16905090565b7f000000000000000000000000000000000000000000000000000000000000000081565b5f6001905090565b60025f9054906101000a900473ffffffffffffffffffffffffffffffffffffffff1681565b610eb36117f6565b610ec8828290610ec39190613b10565b611c0f565b5050565b6001602052805f5260405f205f915090505481565b610ee96117f6565b8060075f6101000a81548173ffffffffffffffffffffffffffffffffffffffff021916908373ffffffffffffffffffffffffffffffffffffffff16021790555050565b60605f60035f8763ffffffff1663ffffffff1681526020019081526020015f205f8661ffff1661ffff1681526020019081526020015f208054610f6e906138af565b80601f0160208091040260200160405190810160405280929190818152602001828054610f9a906138af565b8015610fe55780601f10610fbc57610100808354040283529160200191610fe5565b820191905f5260205f20905b815481529060010190602001808311610fc857829003601f168201915b505050505090505f8151036110405783838080601f0160208091040260200160405190810160405280939291908181526020018383808284375f81840152601f19601f82011690508083019250505050505050915050611126565b5f84849050036110535780915050611126565b600284849050106110e7576110aa84848080601f0160208091040260200160405190810160405280939291908181526020018383808284375f81840152601f19601f82011690508083019250505050505050611d27565b80848460029080926110be93929190613b2c565b6040516020016110d093929190613bc4565b604051602081830303815290604052915050611126565b83836040517f9a6d49cd00000000000000000000000000000000000000000000000000000000815260040161111d929190613c15565b60405180910390fd5b949350505050565b5f5f90505b82829050811015611250573683838381811061115257611151613c37565b5b90506020028101906111649190613c70565b9050611189815f015f01602081019061117d91906134c0565b825f0160200135610ce0565b6111935750611243565b3073ffffffffffffffffffffffffffffffffffffffff1663d045a0dc8260c00135835f018460a00135858061010001906111cd9190613c98565b8760e00160208101906111e0919061330f565b888061012001906111f19190613c98565b6040518963ffffffff1660e01b81526004016112139796959493929190613dcd565b5f604051808303818588803b15801561122a575f5ffd5b505af115801561123c573d5f5f3e3d5ffd5b5050505050505b8080600101915050611133565b503373ffffffffffffffffffffffffffffffffffffffff16638e9e70996040518163ffffffff1660e01b81526004015f60405180830381865afa158015611299573d5f5f3e3d5ffd5b505050506040513d5f823e3d601f19601f820116820180604052508101906112c19190613e9e565b6040517f8351eea70000000000000000000000000000000000000000000000000000000081526004016112f49190613253565b60405180910390fd5b611305612aaf565b61130d612a66565b611318858585611d80565b91509150935093915050565b61132c6117f6565b7f000000000000000000000000000000000000000000000000000000000000000073ffffffffffffffffffffffffffffffffffffffff1663ca5eb5e1826040518263ffffffff1660e01b81526004016113859190612dc2565b5f604051808303815f87803b15801561139c575f5ffd5b505af11580156113ae573d5f5f3e3d5ffd5b5050505050565b3073ffffffffffffffffffffffffffffffffffffffff163373ffffffffffffffffffffffffffffffffffffffff161461141a576040517f14d4a4e800000000000000000000000000000000000000000000000000000000815260040160405180910390fd5b61142987878787878787611e85565b50505050505050565b61143a6117f6565b8060025f6101000a81548173ffffffffffffffffffffffffffffffffffffffff021916908373ffffffffffffffffffffffffffffffffffffffff1602179055507fd48d879cef83a1c0bdda516f27b13ddb1b3f8bbac1c9e1511bb2a659c2427760816040516114a99190612dc2565b60405180910390a150565b6114bc6117f6565b5f73ffffffffffffffffffffffffffffffffffffffff168173ffffffffffffffffffffffffffffffffffffffff160361152c575f6040517f1e4fbdf70000000000000000000000000000000000000000000000000000000081526004016115239190612dc2565b60405180910390fd5b61153581611b4e565b50565b5f7f0000000000000000000000000000000000000000000000000000000000000000905090565b5f816020013560015f845f01602081019061157a91906134c0565b63ffffffff1663ffffffff1681526020019081526020015f2054149050919050565b5f5f6115a785611e9d565b9150819050838110156115f35780846040517f71c4efed0000000000000000000000000000000000000000000000000000000081526004016115ea929190613ee5565b60405180910390fd5b935093915050565b5f5f60015f8463ffffffff1663ffffffff1681526020019081526020015f205490505f5f1b810361166357826040517ff6ff4fb700000000000000000000000000000000000000000000000000000000815260040161165a9190613f0c565b60405180910390fd5b80915050919050565b5f61167f61167a8787611efc565b611f26565b90505f6116af826116986116938a8a611f31565b611f62565b8b5f0160208101906116aa91906134c0565b611fa0565b90506116bb87876121e7565b15611789575f6116f98a60400160208101906116d79190613f25565b8b5f0160208101906116e991906134c0565b846116f48c8c6121fa565b61225c565b90507f000000000000000000000000000000000000000000000000000000000000000073ffffffffffffffffffffffffffffffffffffffff16637cb59012848b5f856040518563ffffffff1660e01b815260040161175a9493929190613f89565b5f604051808303815f87803b158015611771575f5ffd5b505af1158015611783573d5f5f3e3d5ffd5b50505050505b8173ffffffffffffffffffffffffffffffffffffffff16887fefed6d3500546b29533b128a29e3a94d70788727f0507505ac12eaf2e578fd9c8b5f0160208101906117d491906134c0565b846040516117e3929190613fd3565b60405180910390a3505050505050505050565b6117fe61228e565b73ffffffffffffffffffffffffffffffffffffffff1661181c610e33565b73ffffffffffffffffffffffffffffffffffffffff161461187b5761183f61228e565b6040517f118cdaa70000000000000000000000000000000000000000000000000000000081526004016118729190612dc2565b60405180910390fd5b565b8060015f8463ffffffff1663ffffffff1681526020019081526020015f20819055507f238399d427b947898edb290f5ff0f9109849b1c3ba196a42e35f00c50a54b98b82826040516118d092919061385b565b60405180910390a15050565b6060805f61194885602001356118f186612295565b878060a001906119019190613c98565b8080601f0160208091040260200160405190810160405280939291908181526020018383808284375f81840152601f19601f8201169050808301925050505050505061231d565b80925081945050505f8161195d576001611960565b60025b905061198d865f01602081019061197791906134c0565b828880608001906119889190613c98565b610f2c565b92505f60045f9054906101000a900473ffffffffffffffffffffffffffffffffffffffff1690505f73ffffffffffffffffffffffffffffffffffffffff168173ffffffffffffffffffffffffffffffffffffffff1614611a63578073ffffffffffffffffffffffffffffffffffffffff1663043a78eb86866040518363ffffffff1660e01b8152600401611a22929190613ffa565b602060405180830381865afa158015611a3d573d5f5f3e3d5ffd5b505050506040513d601f19601f82011682018060405250810190611a619190614043565b505b5050509250929050565b611a75612a97565b7f000000000000000000000000000000000000000000000000000000000000000073ffffffffffffffffffffffffffffffffffffffff1663ddc28c586040518060a001604052808863ffffffff168152602001611ad1896115fb565b8152602001878152602001868152602001851515815250306040518363ffffffff1660e01b8152600401611b0692919061413f565b6040805180830381865afa158015611b20573d5f5f3e3d5ffd5b505050506040513d601f19601f82011682018060405250810190611b4491906141ba565b9050949350505050565b5f5f5f9054906101000a900473ffffffffffffffffffffffffffffffffffffffff169050815f5f6101000a81548173ffffffffffffffffffffffffffffffffffffffff021916908373ffffffffffffffffffffffffffffffffffffffff1602179055508173ffffffffffffffffffffffffffffffffffffffff168173ffffffffffffffffffffffffffffffffffffffff167f8be0079c531659141344cd1fd0a4f28419497f9722a3daafe3b4186f6b6457e060405160405180910390a35050565b5f5f90505b8151811015611cec57611c44828281518110611c3357611c32613c37565b5b602002602001015160400151611d27565b818181518110611c5757611c56613c37565b5b60200260200101516040015160035f848481518110611c7957611c78613c37565b5b60200260200101515f015163ffffffff1663ffffffff1681526020019081526020015f205f848481518110611cb157611cb0613c37565b5b60200260200101516020015161ffff1661ffff1681526020019081526020015f209081611cde919061437c565b508080600101915050611c14565b507fbe4864a8e820971c0247f5992e2da559595f7bf076a21cb5928d443d2a13b67481604051611d1c9190614562565b60405180910390a150565b5f60028201519050600361ffff168161ffff1614611d7c57816040517f9a6d49cd000000000000000000000000000000000000000000000000000000008152600401611d739190613253565b60405180910390fd5b5050565b611d88612aaf565b611d90612a66565b5f5f611db733886040013589606001358a5f016020810190611db291906134c0565b61238b565b915091505f5f611dc789846118dc565b91509150611df9895f016020810190611de091906134c0565b83838b803603810190611df391906145e3565b8b6125e8565b955060405180604001604052808581526020018481525094503373ffffffffffffffffffffffffffffffffffffffff16865f01517f85496b760a4b7f8d66384b9df21b381f5d1b1e79f229a47aaf4c232edc2fe59a8b5f016020810190611e6091906134c0565b8787604051611e719392919061460e565b60405180910390a350505050935093915050565b611e948787878787878761166c565b50505050505050565b5f7f00000000000000000000000000000000000000000000000000000000000000007f000000000000000000000000000000000000000000000000000000000000000083611eeb919061469d565b611ef591906146cd565b9050919050565b5f82825f90602060ff1692611f1393929190613b2c565b90611f1e9190614718565b905092915050565b5f815f1c9050919050565b5f8282602060ff1690602860ff1692611f4c93929190613b2c565b90611f5791906147a1565b60c01c905092915050565b5f7f00000000000000000000000000000000000000000000000000000000000000008267ffffffffffffffff16611f9991906146cd565b9050919050565b5f5f73ffffffffffffffffffffffffffffffffffffffff168473ffffffffffffffffffffffffffffffffffffffff1603611fda5761dead93505b6120194603612106578260065f9054906101000a900473ffffffffffffffffffffffffffffffffffffffff1673ffffffffffffffffffffffffffffffffffffffff166370a08231306040518263ffffffff1660e01b815260040161203e9190612dc2565b602060405180830381865afa158015612059573d5f5f3e3d5ffd5b505050506040513d601f19601f8201168201806040525081019061207d91906137f4565b10156120b5576040517ff4d678b800000000000000000000000000000000000000000000000000000000815260040160405180910390fd5b612101848460065f9054906101000a900473ffffffffffffffffffffffffffffffffffffffff1673ffffffffffffffffffffffffffffffffffffffff166126fe9092919063ffffffff16565b6121a4565b60075f9054906101000a900473ffffffffffffffffffffffffffffffffffffffff1673ffffffffffffffffffffffffffffffffffffffff166340c10f1985856040518363ffffffff1660e01b81526004016121629291906147ff565b6020604051808303815f875af115801561217e573d5f5f3e3d5ffd5b505050506040513d601f19601f820116820180604052508101906121a29190614043565b505b7f1bbf55d483639f8103dc4e035af71a4fbdb16c80be740fa3eef81198acefa09484846040516121d59291906147ff565b60405180910390a18290509392505050565b5f602860ff168383905011905092915050565b60608282602860ff1690809261221293929190613b2c565b8080601f0160208091040260200160405190810160405280939291908181526020018383808284375f81840152601f19601f82011690508083019250505050505050905092915050565b60608484848460405160200161227594939291906148ae565b6040516020818303038152906040529050949350505050565b5f33905090565b5f5f7f0000000000000000000000000000000000000000000000000000000000000000836122c3919061469d565b905067ffffffffffffffff801681111561231457806040517fe2ce941300000000000000000000000000000000000000000000000000000000815260040161230b9190613407565b60405180910390fd5b80915050919050565b60605f5f83511190508061235257848460405160200161233e929190614917565b604051602081830303815290604052612381565b848461235d3361277d565b856040516020016123719493929190614942565b6040516020818303038152906040525b9150935093915050565b5f5f61239885858561159c565b809250819350505061201946036123fc576123f786308460065f9054906101000a900473ffffffffffffffffffffffffffffffffffffffff1673ffffffffffffffffffffffffffffffffffffffff1661279e909392919063ffffffff16565b6125a6565b61244a86308460065f9054906101000a900473ffffffffffffffffffffffffffffffffffffffff1673ffffffffffffffffffffffffffffffffffffffff1661279e909392919063ffffffff16565b60065f9054906101000a900473ffffffffffffffffffffffffffffffffffffffff1673ffffffffffffffffffffffffffffffffffffffff1663095ea7b360075f9054906101000a900473ffffffffffffffffffffffffffffffffffffffff16846040518363ffffffff1660e01b81526004016124c79291906147ff565b6020604051808303815f875af11580156124e3573d5f5f3e3d5ffd5b505050506040513d601f19601f820116820180604052508101906125079190614043565b5060075f9054906101000a900473ffffffffffffffffffffffffffffffffffffffff1673ffffffffffffffffffffffffffffffffffffffff16639dc29fac87846040518363ffffffff1660e01b81526004016125649291906147ff565b6020604051808303815f875af1158015612580573d5f5f3e3d5ffd5b505050506040513d601f19601f820116820180604052508101906125a49190614043565b505b7f59c79d79be0fadf59fe689b6952b7ebe90201a3a1f00d4a31982377890bc604686866040516125d79291906147ff565b60405180910390a194509492505050565b6125f0612aaf565b5f6125fd845f0151612820565b90505f8460200151111561261957612618846020015161286d565b5b7f000000000000000000000000000000000000000000000000000000000000000073ffffffffffffffffffffffffffffffffffffffff16632637a450826040518060a001604052808b63ffffffff1681526020016126768c6115fb565b81526020018a81526020018981526020015f8960200151111515815250866040518463ffffffff1660e01b81526004016126b192919061413f565b60806040518083038185885af11580156126cd573d5f5f3e3d5ffd5b50505050506040513d601f19601f820116820180604052508101906126f29190614a14565b91505095945050505050565b612778838473ffffffffffffffffffffffffffffffffffffffff1663a9059cbb85856040516024016127319291906147ff565b604051602081830303815290604052915060e01b6020820180517bffffffffffffffffffffffffffffffffffffffffffffffffffffffff83818316178352505050506129b3565b505050565b5f8173ffffffffffffffffffffffffffffffffffffffff165f1b9050919050565b61281a848573ffffffffffffffffffffffffffffffffffffffff166323b872dd8686866040516024016127d393929190614a3f565b604051602081830303815290604052915060e01b6020820180517bffffffffffffffffffffffffffffffffffffffffffffffffffffffff83818316178352505050506129b3565b50505050565b5f81341461286557346040517f9f70412000000000000000000000000000000000000000000000000000000000815260040161285c9190613407565b60405180910390fd5b819050919050565b5f7f000000000000000000000000000000000000000000000000000000000000000073ffffffffffffffffffffffffffffffffffffffff1663e4fe1d946040518163ffffffff1660e01b8152600401602060405180830381865afa1580156128d7573d5f5f3e3d5ffd5b505050506040513d601f19601f820116820180604052508101906128fb919061379f565b90505f73ffffffffffffffffffffffffffffffffffffffff168173ffffffffffffffffffffffffffffffffffffffff1603612962576040517f5373352a00000000000000000000000000000000000000000000000000000000815260040160405180910390fd5b6129af337f0000000000000000000000000000000000000000000000000000000000000000848473ffffffffffffffffffffffffffffffffffffffff1661279e909392919063ffffffff16565b5050565b5f5f60205f8451602086015f885af1806129d2576040513d5f823e3d81fd5b3d92505f519150505f82146129eb576001811415612a06565b5f8473ffffffffffffffffffffffffffffffffffffffff163b145b15612a4857836040517f5274afe7000000000000000000000000000000000000000000000000000000008152600401612a3f9190612dc2565b60405180910390fd5b50505050565b60405180604001604052805f81526020015f81525090565b60405180604001604052805f81526020015f81525090565b60405180604001604052805f8152602001606081525090565b60405180604001604052805f81526020015f81525090565b60405180606001604052805f81526020015f67ffffffffffffffff168152602001612ad8612a97565b81525090565b5f604051905090565b5f5ffd5b5f5ffd5b5f5ffd5b5f60e08284031215612b0857612b07612aef565b5b81905092915050565b5f60208284031215612b2657612b25612ae7565b5b5f82013567ffffffffffffffff811115612b4357612b42612aeb565b5b612b4f84828501612af3565b91505092915050565b5f819050919050565b612b6a81612b58565b82525050565b604082015f820151612b845f850182612b61565b506020820151612b976020850182612b61565b50505050565b5f81519050919050565b5f82825260208201905092915050565b5f819050602082019050919050565b5f819050919050565b612bd881612bc6565b82525050565b5f81519050919050565b5f82825260208201905092915050565b8281835e5f83830152505050565b5f601f19601f8301169050919050565b5f612c2082612bde565b612c2a8185612be8565b9350612c3a818560208601612bf8565b612c4381612c06565b840191505092915050565b5f604083015f830151612c635f860182612bcf565b5060208301518482036020860152612c7b8282612c16565b9150508091505092915050565b5f612c938383612c4e565b905092915050565b5f602082019050919050565b5f612cb182612b9d565b612cbb8185612ba7565b935083602082028501612ccd85612bb7565b805f5b85811015612d085784840389528151612ce98582612c88565b9450612cf483612c9b565b925060208a01995050600181019050612cd0565b50829750879550505050505092915050565b604082015f820151612d2e5f850182612b61565b506020820151612d416020850182612b61565b50505050565b5f60a082019050612d5a5f830186612b70565b8181036040830152612d6c8185612ca7565b9050612d7b6060830184612d1a565b949350505050565b5f73ffffffffffffffffffffffffffffffffffffffff82169050919050565b5f612dac82612d83565b9050919050565b612dbc81612da2565b82525050565b5f602082019050612dd55f830184612db3565b92915050565b5f60608284031215612df057612def612aef565b5b81905092915050565b5f819050919050565b612e0b81612df9565b8114612e15575f5ffd5b50565b5f81359050612e2681612e02565b92915050565b5f5ffd5b5f5ffd5b5f5ffd5b5f5f83601f840112612e4d57612e4c612e2c565b5b8235905067ffffffffffffffff811115612e6a57612e69612e30565b5b602083019150836001820283011115612e8657612e85612e34565b5b9250929050565b612e9681612da2565b8114612ea0575f5ffd5b50565b5f81359050612eb181612e8d565b92915050565b5f5f5f5f5f5f5f60e0888a031215612ed257612ed1612ae7565b5b5f612edf8a828b01612ddb565b9750506060612ef08a828b01612e18565b965050608088013567ffffffffffffffff811115612f1157612f10612aeb565b5b612f1d8a828b01612e38565b955095505060a0612f308a828b01612ea3565b93505060c088013567ffffffffffffffff811115612f5157612f50612aeb565b5b612f5d8a828b01612e38565b925092505092959891949750929550565b5f61ffff82169050919050565b612f8481612f6e565b82525050565b5f602082019050612f9d5f830184612f7b565b92915050565b5f7fffffffff0000000000000000000000000000000000000000000000000000000082169050919050565b612fd781612fa3565b82525050565b5f67ffffffffffffffff82169050919050565b612ff981612fdd565b82525050565b5f6040820190506130125f830185612fce565b61301f6020830184612ff0565b9392505050565b5f6040820190506130395f830185612ff0565b6130466020830184612ff0565b9392505050565b5f63ffffffff82169050919050565b6130658161304d565b811461306f575f5ffd5b50565b5f813590506130808161305c565b92915050565b5f5f6040838503121561309c5761309b612ae7565b5b5f6130a985828601613072565b92505060206130ba85828601612e18565b9150509250929050565b5f8115159050919050565b6130d8816130c4565b81146130e2575f5ffd5b50565b5f813590506130f3816130cf565b92915050565b5f5f6040838503121561310f5761310e612ae7565b5b5f83013567ffffffffffffffff81111561312c5761312b612aeb565b5b61313885828601612af3565b9250506020613149858286016130e5565b9150509250929050565b604082015f8201516131675f850182612b61565b50602082015161317a6020850182612b61565b50505050565b5f6040820190506131935f830184613153565b92915050565b6131a281612f6e565b81146131ac575f5ffd5b50565b5f813590506131bd81613199565b92915050565b5f5f604083850312156131d9576131d8612ae7565b5b5f6131e685828601613072565b92505060206131f7858286016131af565b9150509250929050565b5f81519050919050565b5f82825260208201905092915050565b5f61322582613201565b61322f818561320b565b935061323f818560208601612bf8565b61324881612c06565b840191505092915050565b5f6020820190508181035f83015261326b818461321b565b905092915050565b61327c816130c4565b82525050565b5f6020820190506132955f830184613273565b92915050565b5f819050919050565b5f6132be6132b96132b484612d83565b61329b565b612d83565b9050919050565b5f6132cf826132a4565b9050919050565b5f6132e0826132c5565b9050919050565b6132f0816132d6565b82525050565b5f6020820190506133095f8301846132e7565b92915050565b5f6020828403121561332457613323612ae7565b5b5f61333184828501612ea3565b91505092915050565b5f60208201905061334d5f830184612ff0565b92915050565b5f5f5f5f60a0858703121561336b5761336a612ae7565b5b5f61337887828801612ddb565b945050606085013567ffffffffffffffff81111561339957613398612aeb565b5b6133a587828801612e38565b935093505060806133b887828801612ea3565b91505092959194509250565b5f60ff82169050919050565b6133d9816133c4565b82525050565b5f6020820190506133f25f8301846133d0565b92915050565b61340181612b58565b82525050565b5f60208201905061341a5f8301846133f8565b92915050565b5f5f83601f84011261343557613434612e2c565b5b8235905067ffffffffffffffff81111561345257613451612e30565b5b60208301915083602082028301111561346e5761346d612e34565b5b9250929050565b5f5f6020838503121561348b5761348a612ae7565b5b5f83013567ffffffffffffffff8111156134a8576134a7612aeb565b5b6134b485828601613420565b92509250509250929050565b5f602082840312156134d5576134d4612ae7565b5b5f6134e284828501613072565b91505092915050565b6134f481612df9565b82525050565b5f60208201905061350d5f8301846134eb565b92915050565b5f5f5f5f6060858703121561352b5761352a612ae7565b5b5f61353887828801613072565b9450506020613549878288016131af565b935050604085013567ffffffffffffffff81111561356a57613569612aeb565b5b61357687828801612e38565b925092505092959194509250565b5f5f83601f84011261359957613598612e2c565b5b8235905067ffffffffffffffff8111156135b6576135b5612e30565b5b6020830191508360208202830111156135d2576135d1612e34565b5b9250929050565b5f5f602083850312156135ef576135ee612ae7565b5b5f83013567ffffffffffffffff81111561360c5761360b612aeb565b5b61361885828601613584565b92509250509250929050565b5f6040828403121561363957613638612aef565b5b81905092915050565b5f5f5f6080848603121561365957613658612ae7565b5b5f84013567ffffffffffffffff81111561367657613675612aeb565b5b61368286828701612af3565b935050602061369386828701613624565b92505060606136a486828701612ea3565b9150509250925092565b6136b781612df9565b82525050565b6136c681612fdd565b82525050565b604082015f8201516136e05f850182612b61565b5060208201516136f36020850182612b61565b50505050565b608082015f82015161370d5f8501826136ae565b50602082015161372060208501826136bd565b50604082015161373360408501826136cc565b50505050565b5f60c08201905061374c5f8301856136f9565b6137596080830184612d1a565b9392505050565b5f6060828403121561377557613774612ae7565b5b5f61378284828501612ddb565b91505092915050565b5f8151905061379981612e8d565b92915050565b5f602082840312156137b4576137b3612ae7565b5b5f6137c18482850161378b565b91505092915050565b6137d381612b58565b81146137dd575f5ffd5b50565b5f815190506137ee816137ca565b92915050565b5f6020828403121561380957613808612ae7565b5b5f613816848285016137e0565b91505092915050565b7f4e487b71000000000000000000000000000000000000000000000000000000005f52604160045260245ffd5b6138558161304d565b82525050565b5f60408201905061386e5f83018561384c565b61387b60208301846134eb565b9392505050565b7f4e487b71000000000000000000000000000000000000000000000000000000005f52602260045260245ffd5b5f60028204905060018216806138c657607f821691505b6020821081036138d9576138d8613882565b5b50919050565b6138e882612c06565b810181811067ffffffffffffffff821117156139075761390661381f565b5b80604052505050565b5f613919612ade565b905061392582826138df565b919050565b5f67ffffffffffffffff8211156139445761394361381f565b5b602082029050602081019050919050565b5f5ffd5b5f5ffd5b5f5ffd5b5f67ffffffffffffffff82111561397b5761397a61381f565b5b61398482612c06565b9050602081019050919050565b828183375f83830152505050565b5f6139b16139ac84613961565b613910565b9050828152602081018484840111156139cd576139cc61395d565b5b6139d8848285613991565b509392505050565b5f82601f8301126139f4576139f3612e2c565b5b8135613a0484826020860161399f565b91505092915050565b5f60608284031215613a2257613a21613955565b5b613a2c6060613910565b90505f613a3b84828501613072565b5f830152506020613a4e848285016131af565b602083015250604082013567ffffffffffffffff811115613a7257613a71613959565b5b613a7e848285016139e0565b60408301525092915050565b5f613a9c613a978461392a565b613910565b90508083825260208201905060208402830185811115613abf57613abe612e34565b5b835b81811015613b0657803567ffffffffffffffff811115613ae457613ae3612e2c565b5b808601613af18982613a0d565b85526020850194505050602081019050613ac1565b5050509392505050565b5f613b1c368484613a8a565b905092915050565b5f5ffd5b5f5ffd5b5f5f85851115613b3f57613b3e613b24565b5b83861115613b5057613b4f613b28565b5b6001850283019150848603905094509492505050565b5f81905092915050565b5f613b7a82613201565b613b848185613b66565b9350613b94818560208601612bf8565b80840191505092915050565b5f613bab8385613b66565b9350613bb8838584613991565b82840190509392505050565b5f613bcf8286613b70565b9150613bdc828486613ba0565b9150819050949350505050565b5f613bf4838561320b565b9350613c01838584613991565b613c0a83612c06565b840190509392505050565b5f6020820190508181035f830152613c2e818486613be9565b90509392505050565b7f4e487b71000000000000000000000000000000000000000000000000000000005f52603260045260245ffd5b5f5ffd5b5f5ffd5b5f5ffd5b5f8235600161014003833603038112613c8c57613c8b613c64565b5b80830191505092915050565b5f5f83356001602003843603038112613cb457613cb3613c64565b5b80840192508235915067ffffffffffffffff821115613cd657613cd5613c68565b5b602083019250600182023603831315613cf257613cf1613c6c565b5b509250929050565b5f613d086020840184613072565b905092915050565b613d198161304d565b82525050565b5f613d2d6020840184612e18565b905092915050565b613d3e81612fdd565b8114613d48575f5ffd5b50565b5f81359050613d5981613d35565b92915050565b5f613d6d6020840184613d4b565b905092915050565b60608201613d855f830183613cfa565b613d915f850182613d10565b50613d9f6020830183613d1f565b613dac60208501826136ae565b50613dba6040830183613d5f565b613dc760408501826136bd565b50505050565b5f60e082019050613de05f83018a613d75565b613ded60608301896134eb565b8181036080830152613e00818789613be9565b9050613e0f60a0830186612db3565b81810360c0830152613e22818486613be9565b905098975050505050505050565b5f613e42613e3d84613961565b613910565b905082815260208101848484011115613e5e57613e5d61395d565b5b613e69848285612bf8565b509392505050565b5f82601f830112613e8557613e84612e2c565b5b8151613e95848260208601613e30565b91505092915050565b5f60208284031215613eb357613eb2612ae7565b5b5f82015167ffffffffffffffff811115613ed057613ecf612aeb565b5b613edc84828501613e71565b91505092915050565b5f604082019050613ef85f8301856133f8565b613f0560208301846133f8565b9392505050565b5f602082019050613f1f5f83018461384c565b92915050565b5f60208284031215613f3a57613f39612ae7565b5b5f613f4784828501613d4b565b91505092915050565b5f819050919050565b5f613f73613f6e613f6984613f50565b61329b565b612f6e565b9050919050565b613f8381613f59565b82525050565b5f608082019050613f9c5f830187612db3565b613fa960208301866134eb565b613fb66040830185613f7a565b8181036060830152613fc8818461321b565b905095945050505050565b5f604082019050613fe65f83018561384c565b613ff360208301846133f8565b9392505050565b5f6040820190508181035f830152614012818561321b565b90508181036020830152614026818461321b565b90509392505050565b5f8151905061403d816130cf565b92915050565b5f6020828403121561405857614057612ae7565b5b5f6140658482850161402f565b91505092915050565b5f82825260208201905092915050565b5f61408882613201565b614092818561406e565b93506140a2818560208601612bf8565b6140ab81612c06565b840191505092915050565b6140bf816130c4565b82525050565b5f60a083015f8301516140da5f860182613d10565b5060208301516140ed60208601826136ae565b5060408301518482036040860152614105828261407e565b9150506060830151848203606086015261411f828261407e565b915050608083015161413460808601826140b6565b508091505092915050565b5f6040820190508181035f83015261415781856140c5565b90506141666020830184612db3565b9392505050565b5f6040828403121561418257614181613955565b5b61418c6040613910565b90505f61419b848285016137e0565b5f8301525060206141ae848285016137e0565b60208301525092915050565b5f604082840312156141cf576141ce612ae7565b5b5f6141dc8482850161416d565b91505092915050565b5f819050815f5260205f209050919050565b5f6020601f8301049050919050565b5f82821b905092915050565b5f600883026142417fffffffffffffffffffffffffffffffffffffffffffffffffffffffffffffffff82614206565b61424b8683614206565b95508019841693508086168417925050509392505050565b5f61427d61427861427384612b58565b61329b565b612b58565b9050919050565b5f819050919050565b61429683614263565b6142aa6142a282614284565b848454614212565b825550505050565b5f5f905090565b6142c16142b2565b6142cc81848461428d565b505050565b5b818110156142ef576142e45f826142b9565b6001810190506142d2565b5050565b601f82111561433457614305816141e5565b61430e846141f7565b8101602085101561431d578190505b614331614329856141f7565b8301826142d1565b50505b505050565b5f82821c905092915050565b5f6143545f1984600802614339565b1980831691505092915050565b5f61436c8383614345565b9150826002028217905092915050565b61438582613201565b67ffffffffffffffff81111561439e5761439d61381f565b5b6143a882546138af565b6143b38282856142f3565b5f60209050601f8311600181146143e4575f84156143d2578287015190505b6143dc8582614361565b865550614443565b601f1984166143f2866141e5565b5f5b82811015614419578489015182556001820191506020850194506020810190506143f4565b868310156144365784890151614432601f891682614345565b8355505b6001600288020188555050505b505050505050565b5f81519050919050565b5f82825260208201905092915050565b5f819050602082019050919050565b61447d81612f6e565b82525050565b5f606083015f8301516144985f860182613d10565b5060208301516144ab6020860182614474565b50604083015184820360408601526144c3828261407e565b9150508091505092915050565b5f6144db8383614483565b905092915050565b5f602082019050919050565b5f6144f98261444b565b6145038185614455565b93508360208202850161451585614465565b805f5b85811015614550578484038952815161453185826144d0565b945061453c836144e3565b925060208a01995050600181019050614518565b50829750879550505050505092915050565b5f6020820190508181035f83015261457a81846144ef565b905092915050565b5f81359050614590816137ca565b92915050565b5f604082840312156145ab576145aa613955565b5b6145b56040613910565b90505f6145c484828501614582565b5f8301525060206145d784828501614582565b60208301525092915050565b5f604082840312156145f8576145f7612ae7565b5b5f61460584828501614596565b91505092915050565b5f6060820190506146215f83018661384c565b61462e60208301856133f8565b61463b60408301846133f8565b949350505050565b7f4e487b71000000000000000000000000000000000000000000000000000000005f52601260045260245ffd5b7f4e487b71000000000000000000000000000000000000000000000000000000005f52601160045260245ffd5b5f6146a782612b58565b91506146b283612b58565b9250826146c2576146c1614643565b5b828204905092915050565b5f6146d782612b58565b91506146e283612b58565b92508282026146f081612b58565b9150828204841483151761470757614706614670565b5b5092915050565b5f82905092915050565b5f614723838361470e565b8261472e8135612df9565b9250602082101561476e576147697fffffffffffffffffffffffffffffffffffffffffffffffffffffffffffffffff83602003600802614206565b831692505b505092915050565b5f7fffffffffffffffff00000000000000000000000000000000000000000000000082169050919050565b5f6147ac838361470e565b826147b78135614776565b925060088210156147f7576147f27fffffffffffffffff00000000000000000000000000000000000000000000000083600803600802614206565b831692505b505092915050565b5f6040820190506148125f830185612db3565b61481f60208301846133f8565b9392505050565b5f8160c01b9050919050565b5f61483c82614826565b9050919050565b61485461484f82612fdd565b614832565b82525050565b5f8160e01b9050919050565b5f6148708261485a565b9050919050565b6148886148838261304d565b614866565b82525050565b5f819050919050565b6148a86148a382612b58565b61488e565b82525050565b5f6148b98287614843565b6008820191506148c98286614877565b6004820191506148d98285614897565b6020820191506148e98284613b70565b915081905095945050505050565b5f819050919050565b61491161490c82612df9565b6148f7565b82525050565b5f6149228285614900565b6020820191506149328284614843565b6008820191508190509392505050565b5f61494d8287614900565b60208201915061495d8286614843565b60088201915061496d8285614900565b60208201915061497d8284613b70565b915081905095945050505050565b5f8151905061499981612e02565b92915050565b5f815190506149ad81613d35565b92915050565b5f608082840312156149c8576149c7613955565b5b6149d26060613910565b90505f6149e18482850161498b565b5f8301525060206149f48482850161499f565b6020830152506040614a088482850161416d565b60408301525092915050565b5f60808284031215614a2957614a28612ae7565b5b5f614a36848285016149b3565b91505092915050565b5f606082019050614a525f830186612db3565b614a5f6020830185612db3565b614a6c60408301846133f8565b94935050505056fea264697066735822122041d47be8b349054d665d582c2c7f1749e02c9a1a782ba5f7a77e412e1dc6f64c64736f6c634300081e0033","linkReferences":{}},"methodIdentifiers":{"SEND()":"1f5e1334","SEND_AND_CALL()":"134d4f25","allowInitializePath((uint32,bytes32,uint64))":"ff7bd03d","approvalRequired()":"9f68b964","combineOptions(uint32,uint16,bytes)":"bc70b354","decimalConversionRate()":"963efcaa","elevatedMinterBurner()":"8108bb7e","endpoint()":"5e280f11","enforcedOptions(uint32,uint16)":"5535d461","isComposeMsgSender((uint32,bytes32,uint64),bytes,address)":"82413eac","isPeer(uint32,bytes32)":"5a0dfe4d","lzReceive((uint32,bytes32,uint64),bytes32,bytes,address,bytes)":"13137d65","lzReceiveAndRevert(((uint32,bytes32,uint64),uint32,address,bytes32,uint256,address,bytes,bytes)[])":"bd815db0","lzReceiveSimulate((uint32,bytes32,uint64),bytes32,bytes,address,bytes)":"d045a0dc","msgInspector()":"111ecdad","nextNonce(uint32,bytes32)":"7d25a05e","oApp()":"52ae2879","oAppVersion()":"17442b70","oftVersion()":"156a0d0f","owner()":"8da5cb5b","peers(uint32)":"bb0b6a53","preCrime()":"b731ea0a","quoteOFT((uint32,bytes32,uint256,uint256,bytes,bytes,bytes))":"0d35b415","quoteSend((uint32,bytes32,uint256,uint256,bytes,bytes,bytes),bool)":"3b6f743b","renounceOwnership()":"715018a6","send((uint32,bytes32,uint256,uint256,bytes,bytes,bytes),(uint256,uint256),address)":"c7c7f5b3","setDelegate(address)":"ca5eb5e1","setElevatedMinterBurner(address)":"bc4565c4","setEnforcedOptions((uint32,uint16,bytes)[])":"b98bd070","setMsgInspector(address)":"6fc1b31e","setPeer(uint32,bytes32)":"3400288b","setPreCrime(address)":"d4243885","sharedDecimals()":"857749b0","token()":"fc0c546a","tokenOFT()":"0dec983d","transferOwnership(address)":"f2fde38b"},"id":173}