{"abi":[{"type":"constructor","inputs":[],"stateMutability":"nonpayable"},{"type":"function","name":"checkLiquidatable","inputs":[{"name":"user","type":"address","internalType":"address"},{"name":"lendingPool","type":"address","internalType":"address"}],"outputs":[{"name":"","type":"bool","internalType":"bool"},{"name":"","type":"uint256","internalType":"uint256"},{"name":"","type":"uint256","internalType":"uint256"},{"name":"","type":"uint256","internalType":"uint256"}],"stateMutability":"view"},{"type":"function","name":"factory","inputs":[],"outputs":[{"name":"","type":"address","internalType":"address"}],"stateMutability":"view"},{"type":"function","name":"isHealthy","inputs":[{"name":"_user","type":"address","internalType":"address"},{"name":"_router","type":"address","internalType":"address"}],"outputs":[],"stateMutability":"view"},{"type":"function","name":"liquidationBonus","inputs":[{"name":"","type":"address","internalType":"address"}],"outputs":[{"name":"","type":"uint256","internalType":"uint256"}],"stateMutability":"view"},{"type":"function","name":"liquidationThreshold","inputs":[{"name":"","type":"address","internalType":"address"}],"outputs":[{"name":"","type":"uint256","internalType":"uint256"}],"stateMutability":"view"},{"type":"function","name":"owner","inputs":[],"outputs":[{"name":"","type":"address","internalType":"address"}],"stateMutability":"view"},{"type":"function","name":"renounceOwnership","inputs":[],"outputs":[],"stateMutability":"nonpayable"},{"type":"function","name":"setFactory","inputs":[{"name":"_factory","type":"address","internalType":"address"}],"outputs":[],"stateMutability":"nonpayable"},{"type":"function","name":"setLiquidationBonus","inputs":[{"name":"_router","type":"address","internalType":"address"},{"name":"bonus","type":"uint256","internalType":"uint256"}],"outputs":[],"stateMutability":"nonpayable"},{"type":"function","name":"setLiquidationThreshold","inputs":[{"name":"_router","type":"address","internalType":"address"},{"name":"_threshold","type":"uint256","internalType":"uint256"}],"outputs":[],"stateMutability":"nonpayable"},{"type":"function","name":"transferOwnership","inputs":[{"name":"newOwner","type":"address","internalType":"address"}],"outputs":[],"stateMutability":"nonpayable"},{"type":"event","name":"FactorySet","inputs":[{"name":"factory","type":"address","indexed":false,"internalType":"address"}],"anonymous":false},{"type":"event","name":"LiquidationBonusSet","inputs":[{"name":"lendingPool","type":"address","indexed":false,"internalType":"address"},{"name":"bonus","type":"uint256","indexed":false,"internalType":"uint256"}],"anonymous":false},{"type":"event","name":"LiquidationThresholdSet","inputs":[{"name":"lendingPool","type":"address","indexed":false,"internalType":"address"},{"name":"threshold","type":"uint256","indexed":false,"internalType":"uint256"}],"anonymous":false},{"type":"event","name":"MaxLiquidationPercentageSet","inputs":[{"name":"percentage","type":"uint256","indexed":false,"internalType":"uint256"}],"anonymous":false},{"type":"event","name":"OwnershipTransferred","inputs":[{"name":"previousOwner","type":"address","indexed":true,"internalType":"address"},{"name":"newOwner","type":"address","indexed":true,"internalType":"address"}],"anonymous":false},{"type":"error","name":"InvalidLtv","inputs":[{"name":"lendingPool","type":"address","internalType":"address"},{"name":"ltv","type":"uint256","internalType":"uint256"}]},{"type":"error","name":"LiquidationAlert","inputs":[{"name":"borrowValue","type":"uint256","internalType":"uint256"},{"name":"collateralValue","type":"uint256","internalType":"uint256"}]},{"type":"error","name":"LiquidationBonusNotSet","inputs":[{"name":"lendingPool","type":"address","internalType":"address"}]},{"type":"error","name":"LiquidationThresholdNotSet","inputs":[{"name":"lendingPool","type":"address","internalType":"address"}]},{"type":"error","name":"LtvMustBeLessThanThreshold","inputs":[{"name":"lendingPool","type":"address","internalType":"address"},{"name":"ltv","type":"uint256","internalType":"uint256"},{"name":"threshold","type":"uint256","internalType":"uint256"}]},{"type":"error","name":"NotFactory","inputs":[]},{"type":"error","name":"OwnableInvalidOwner","inputs":[{"name":"owner","type":"address","internalType":"address"}]},{"type":"error","name":"OwnableUnauthorizedAccount","inputs":[{"name":"account","type":"address","internalType":"address"}]},{"type":"error","name":"ZeroAddress","inputs":[]},{"type":"error","name":"ZeroCollateralAmount","inputs":[{"name":"lendingPool","type":"address","internalType":"address"},{"name":"userCollateralAmount","type":"uint256","internalType":"uint256"},{"name":"totalCollateral","type":"uint256","internalType":"uint256"}]}],"bytecode":{"object":"0x608060405234801561000f575f5ffd5b50335f73ffffffffffffffffffffffffffffffffffffffff168173ffffffffffffffffffffffffffffffffffffffff1603610081575f6040517f1e4fbdf70000000000000000000000000000000000000000000000000000000081526004016100789190610196565b60405180910390fd5b6100908161009660201b60201c565b506101af565b5f5f5f9054906101000a900473ffffffffffffffffffffffffffffffffffffffff169050815f5f6101000a81548173ffffffffffffffffffffffffffffffffffffffff021916908373ffffffffffffffffffffffffffffffffffffffff1602179055508173ffffffffffffffffffffffffffffffffffffffff168173ffffffffffffffffffffffffffffffffffffffff167f8be0079c531659141344cd1fd0a4f28419497f9722a3daafe3b4186f6b6457e060405160405180910390a35050565b5f73ffffffffffffffffffffffffffffffffffffffff82169050919050565b5f61018082610157565b9050919050565b61019081610176565b82525050565b5f6020820190506101a95f830184610187565b92915050565b611914806101bc5f395ff3fe608060405234801561000f575f5ffd5b50600436106100a7575f3560e01c80638da5cb5b1161006f5780638da5cb5b1461013c578063979dc61e1461015a578063b1732b251461018a578063c45a0155146101ba578063d3a65805146101d8578063f2fde38b146101f4576100a7565b80630e30428d146100ab5780633132aa89146100c75780635bb47808146100fa578063715018a6146101165780637cadffd914610120575b5f5ffd5b6100c560048036038101906100c0919061132e565b610210565b005b6100e160048036038101906100dc919061136c565b6102ed565b6040516100f194939291906113d3565b60405180910390f35b610114600480360381019061010f9190611416565b6103ba565b005b61011e6104a1565b005b61013a6004803603810190610135919061132e565b6104b4565b005b61014461053b565b6040516101519190611450565b60405180910390f35b610174600480360381019061016f9190611416565b610562565b6040516101819190611469565b60405180910390f35b6101a4600480360381019061019f9190611416565b610577565b6040516101b19190611469565b60405180910390f35b6101c261058c565b6040516101cf9190611450565b60405180910390f35b6101f260048036038101906101ed919061136c565b6105b1565b005b61020e60048036038101906102099190611416565b610638565b005b6102186106bc565b5f61022283610744565b90508181111561026d578281836040517fcd2157ba00000000000000000000000000000000000000000000000000000000815260040161026493929190611482565b60405180910390fd5b8160025f8573ffffffffffffffffffffffffffffffffffffffff1673ffffffffffffffffffffffffffffffffffffffff1681526020019081526020015f20819055507f2d1d01e1bdceefd940b4d41b3a1ad2ed30fe49c72ec8ad731dd615b52eb0761f83836040516102e09291906114b7565b60405180910390a1505050565b5f5f5f5f5f610305866102ff88610804565b89610879565b90505f81036103215760015f5f5f9450945094509450506103b1565b5f6103358761032f89610954565b8a6109c9565b90505f670de0b6b3a764000060035f8a73ffffffffffffffffffffffffffffffffffffffff1673ffffffffffffffffffffffffffffffffffffffff1681526020019081526020015f20546103898a8c610ab9565b610393919061150b565b61039d9190611579565b905081831183838396509650965096505050505b92959194509250565b6103c2610b38565b5f73ffffffffffffffffffffffffffffffffffffffff168173ffffffffffffffffffffffffffffffffffffffff1603610427576040517fd92e233d00000000000000000000000000000000000000000000000000000000815260040160405180910390fd5b8060015f6101000a81548173ffffffffffffffffffffffffffffffffffffffff021916908373ffffffffffffffffffffffffffffffffffffffff1602179055507f1edf3afd4ac789736e00d216cd88be164ddcef26a6eedcc30cdb0cb62f3741b1816040516104969190611450565b60405180910390a150565b6104a9610b38565b6104b25f610bbf565b565b6104bc6106bc565b8060035f8473ffffffffffffffffffffffffffffffffffffffff1673ffffffffffffffffffffffffffffffffffffffff1681526020019081526020015f20819055507fd91812d016fee432934ed06b278ce206558fbe821c4e6a7320c30d8f5ece48a9828260405161052f9291906114b7565b60405180910390a15050565b5f5f5f9054906101000a900473ffffffffffffffffffffffffffffffffffffffff16905090565b6003602052805f5260405f205f915090505481565b6002602052805f5260405f205f915090505481565b60015f9054906101000a900473ffffffffffffffffffffffffffffffffffffffff1681565b5f6105c5826105bf84610804565b85610879565b90505f81036105d45750610634565b5f6105e8836105e285610954565b866109c9565b9050808211156106315781816040517fcc5a01800000000000000000000000000000000000000000000000000000000081526004016106289291906115a9565b60405180910390fd5b50505b5050565b610640610b38565b5f73ffffffffffffffffffffffffffffffffffffffff168173ffffffffffffffffffffffffffffffffffffffff16036106b0575f6040517f1e4fbdf70000000000000000000000000000000000000000000000000000000081526004016106a79190611450565b60405180910390fd5b6106b981610bbf565b50565b60015f9054906101000a900473ffffffffffffffffffffffffffffffffffffffff1673ffffffffffffffffffffffffffffffffffffffff163373ffffffffffffffffffffffffffffffffffffffff1614610742576040517f32cc723600000000000000000000000000000000000000000000000000000000815260040160405180910390fd5b565b5f5f8273ffffffffffffffffffffffffffffffffffffffff16636fb49d736040518163ffffffff1660e01b8152600401602060405180830381865afa15801561078f573d5f5f3e3d5ffd5b505050506040513d601f19601f820116820180604052508101906107b391906115e4565b90505f81036107fb5782816040517fcd1ea89a0000000000000000000000000000000000000000000000000000000081526004016107f29291906114b7565b60405180910390fd5b80915050919050565b5f8173ffffffffffffffffffffffffffffffffffffffff1663456dc17a6040518163ffffffff1660e01b8152600401602060405180830381865afa15801561084e573d5f5f3e3d5ffd5b505050506040513d601f19601f820116820180604052508101906108729190611623565b9050919050565b5f5f6108858584610c80565b90505f8103610897575f91505061094d565b5f6108a186610d01565b036108af575f91505061094d565b5f6108b986610d01565b6108c287610d76565b836108cd919061150b565b6108d79190611579565b90505f6108e386610deb565b600a6108ef919061177d565b670de0b6b3a764000061090188610e72565b61090b919061150b565b6109159190611579565b90505f61092187610f02565b600a61092d919061177d565b8284610939919061150b565b6109439190611579565b9050809450505050505b9392505050565b5f8173ffffffffffffffffffffffffffffffffffffffff1663b2016bd46040518163ffffffff1660e01b8152600401602060405180830381865afa15801561099e573d5f5f3e3d5ffd5b505050506040513d601f19601f820116820180604052508101906109c29190611623565b9050919050565b5f6109d38461107c565b5f6109de8584610ab9565b90505f6109ea85610deb565b600a6109f6919061177d565b670de0b6b3a7640000610a0887610e72565b610a12919061150b565b610a1c9190611579565b90505f610a2886610f02565b600a610a34919061177d565b8284610a40919061150b565b610a4a9190611579565b90505f670de0b6b3a764000060025f8a73ffffffffffffffffffffffffffffffffffffffff1673ffffffffffffffffffffffffffffffffffffffff1681526020019081526020015f205483610a9f919061150b565b610aa99190611579565b9050809450505050509392505050565b5f610ac48383611181565b73ffffffffffffffffffffffffffffffffffffffff16634ac8eb5f6040518163ffffffff1660e01b8152600401602060405180830381865afa158015610b0c573d5f5f3e3d5ffd5b505050506040513d601f19601f82011682018060405250810190610b3091906115e4565b905092915050565b610b40611202565b73ffffffffffffffffffffffffffffffffffffffff16610b5e61053b565b73ffffffffffffffffffffffffffffffffffffffff1614610bbd57610b81611202565b6040517f118cdaa7000000000000000000000000000000000000000000000000000000008152600401610bb49190611450565b60405180910390fd5b565b5f5f5f9054906101000a900473ffffffffffffffffffffffffffffffffffffffff169050815f5f6101000a81548173ffffffffffffffffffffffffffffffffffffffff021916908373ffffffffffffffffffffffffffffffffffffffff1602179055508173ffffffffffffffffffffffffffffffffffffffff168173ffffffffffffffffffffffffffffffffffffffff167f8be0079c531659141344cd1fd0a4f28419497f9722a3daafe3b4186f6b6457e060405160405180910390a35050565b5f8273ffffffffffffffffffffffffffffffffffffffff16634fd422df836040518263ffffffff1660e01b8152600401610cba9190611450565b602060405180830381865afa158015610cd5573d5f5f3e3d5ffd5b505050506040513d601f19601f82011682018060405250810190610cf991906115e4565b905092915050565b5f8173ffffffffffffffffffffffffffffffffffffffff1663136cf1f76040518163ffffffff1660e01b8152600401602060405180830381865afa158015610d4b573d5f5f3e3d5ffd5b505050506040513d601f19601f82011682018060405250810190610d6f91906115e4565b9050919050565b5f8173ffffffffffffffffffffffffffffffffffffffff16631aad44c26040518163ffffffff1660e01b8152600401602060405180830381865afa158015610dc0573d5f5f3e3d5ffd5b505050506040513d601f19601f82011682018060405250810190610de491906115e4565b9050919050565b5f610df4611209565b73ffffffffffffffffffffffffffffffffffffffff1663d449a832836040518263ffffffff1660e01b8152600401610e2c9190611450565b602060405180830381865afa158015610e47573d5f5f3e3d5ffd5b505050506040513d601f19601f82011682018060405250810190610e6b91906115e4565b9050919050565b5f5f610e7c611209565b73ffffffffffffffffffffffffffffffffffffffff1663a13cc76a846040518263ffffffff1660e01b8152600401610eb49190611450565b60a060405180830381865afa158015610ecf573d5f5f3e3d5ffd5b505050506040513d601f19601f82011682018060405250810190610ef39190611806565b50505091505080915050919050565b5f600173ffffffffffffffffffffffffffffffffffffffff168273ffffffffffffffffffffffffffffffffffffffff161480610ff6575060015f9054906101000a900473ffffffffffffffffffffffffffffffffffffffff1673ffffffffffffffffffffffffffffffffffffffff1663d999984d6040518163ffffffff1660e01b8152600401602060405180830381865afa158015610fa3573d5f5f3e3d5ffd5b505050506040513d601f19601f82011682018060405250810190610fc79190611623565b73ffffffffffffffffffffffffffffffffffffffff168273ffffffffffffffffffffffffffffffffffffffff16145b156110045760129050611077565b8173ffffffffffffffffffffffffffffffffffffffff1663313ce5676040518163ffffffff1660e01b8152600401602060405180830381865afa15801561104d573d5f5f3e3d5ffd5b505050506040513d601f19601f8201168201806040525081019061107191906118b3565b60ff1690505b919050565b5f60025f8373ffffffffffffffffffffffffffffffffffffffff1673ffffffffffffffffffffffffffffffffffffffff1681526020019081526020015f2054036110fd57806040517f550f5abe0000000000000000000000000000000000000000000000000000000081526004016110f49190611450565b60405180910390fd5b5f60035f8373ffffffffffffffffffffffffffffffffffffffff1673ffffffffffffffffffffffffffffffffffffffff1681526020019081526020015f20540361117e57806040517f31650a250000000000000000000000000000000000000000000000000000000081526004016111759190611450565b60405180910390fd5b50565b5f8273ffffffffffffffffffffffffffffffffffffffff1663f79c3800836040518263ffffffff1660e01b81526004016111bb9190611450565b602060405180830381865afa1580156111d6573d5f5f3e3d5ffd5b505050506040513d601f19601f820116820180604052508101906111fa9190611623565b905092915050565b5f33905090565b5f60015f9054906101000a900473ffffffffffffffffffffffffffffffffffffffff1673ffffffffffffffffffffffffffffffffffffffff166375b568a66040518163ffffffff1660e01b8152600401602060405180830381865afa158015611274573d5f5f3e3d5ffd5b505050506040513d601f19601f820116820180604052508101906112989190611623565b905090565b5f5ffd5b5f73ffffffffffffffffffffffffffffffffffffffff82169050919050565b5f6112ca826112a1565b9050919050565b6112da816112c0565b81146112e4575f5ffd5b50565b5f813590506112f5816112d1565b92915050565b5f819050919050565b61130d816112fb565b8114611317575f5ffd5b50565b5f8135905061132881611304565b92915050565b5f5f604083850312156113445761134361129d565b5b5f611351858286016112e7565b92505060206113628582860161131a565b9150509250929050565b5f5f604083850312156113825761138161129d565b5b5f61138f858286016112e7565b92505060206113a0858286016112e7565b9150509250929050565b5f8115159050919050565b6113be816113aa565b82525050565b6113cd816112fb565b82525050565b5f6080820190506113e65f8301876113b5565b6113f360208301866113c4565b61140060408301856113c4565b61140d60608301846113c4565b95945050505050565b5f6020828403121561142b5761142a61129d565b5b5f611438848285016112e7565b91505092915050565b61144a816112c0565b82525050565b5f6020820190506114635f830184611441565b92915050565b5f60208201905061147c5f8301846113c4565b92915050565b5f6060820190506114955f830186611441565b6114a260208301856113c4565b6114af60408301846113c4565b949350505050565b5f6040820190506114ca5f830185611441565b6114d760208301846113c4565b9392505050565b7f4e487b71000000000000000000000000000000000000000000000000000000005f52601160045260245ffd5b5f611515826112fb565b9150611520836112fb565b925082820261152e816112fb565b91508282048414831517611545576115446114de565b5b5092915050565b7f4e487b71000000000000000000000000000000000000000000000000000000005f52601260045260245ffd5b5f611583826112fb565b915061158e836112fb565b92508261159e5761159d61154c565b5b828204905092915050565b5f6040820190506115bc5f8301856113c4565b6115c960208301846113c4565b9392505050565b5f815190506115de81611304565b92915050565b5f602082840312156115f9576115f861129d565b5b5f611606848285016115d0565b91505092915050565b5f8151905061161d816112d1565b92915050565b5f602082840312156116385761163761129d565b5b5f6116458482850161160f565b91505092915050565b5f8160011c9050919050565b5f5f8291508390505b60018511156116a35780860481111561167f5761167e6114de565b5b600185161561168e5780820291505b808102905061169c8561164e565b9450611663565b94509492505050565b5f826116bb5760019050611776565b816116c8575f9050611776565b81600181146116de57600281146116e857611717565b6001915050611776565b60ff8411156116fa576116f96114de565b5b8360020a915084821115611711576117106114de565b5b50611776565b5060208310610133831016604e8410600b841016171561174c5782820a905083811115611747576117466114de565b5b611776565b611759848484600161165a565b925090508184048111156117705761176f6114de565b5b81810290505b9392505050565b5f611787826112fb565b9150611792836112fb565b92506117bf7fffffffffffffffffffffffffffffffffffffffffffffffffffffffffffffffff84846116ac565b905092915050565b5f69ffffffffffffffffffff82169050919050565b6117e5816117c7565b81146117ef575f5ffd5b50565b5f81519050611800816117dc565b92915050565b5f5f5f5f5f60a0868803121561181f5761181e61129d565b5b5f61182c888289016117f2565b955050602061183d888289016115d0565b945050604061184e888289016115d0565b935050606061185f888289016115d0565b9250506080611870888289016117f2565b9150509295509295909350565b5f60ff82169050919050565b6118928161187d565b811461189c575f5ffd5b50565b5f815190506118ad81611889565b92915050565b5f602082840312156118c8576118c761129d565b5b5f6118d58482850161189f565b9150509291505056fea264697066735822122016b19dfffd18013e2681412eda1b30cc215f6f57b168ca96d100d213ff32c0d964736f6c634300081e0033","linkReferences":{}},"methodIdentifiers":{"checkLiquidatable(address,address)":"3132aa89","factory()":"c45a0155","isHealthy(address,address)":"d3a65805","liquidationBonus(address)":"979dc61e","liquidationThreshold(address)":"b1732b25","owner()":"8da5cb5b","renounceOwnership()":"715018a6","setFactory(address)":"5bb47808","setLiquidationBonus(address,uint256)":"7cadffd9","setLiquidationThreshold(address,uint256)":"0e30428d","transferOwnership(address)":"f2fde38b"},"id":97}