{"abi":[{"type":"constructor","inputs":[{"name":"_liquidator","type":"address","internalType":"address"}],"stateMutability":"nonpayable"},{"type":"function","name":"_isHealthy","inputs":[{"name":"borrowToken","type":"address","internalType":"address"},{"name":"factory","type":"address","internalType":"address"},{"name":"addressPositions","type":"address","internalType":"address"},{"name":"ltv","type":"uint256","internalType":"uint256"},{"name":"totalBorrowAssets","type":"uint256","internalType":"uint256"},{"name":"totalBorrowShares","type":"uint256","internalType":"uint256"},{"name":"userBorrowShares","type":"uint256","internalType":"uint256"}],"outputs":[],"stateMutability":"view"},{"type":"function","name":"checkLiquidation","inputs":[{"name":"borrowToken","type":"address","internalType":"address"},{"name":"factory","type":"address","internalType":"address"},{"name":"addressPositions","type":"address","internalType":"address"},{"name":"ltv","type":"uint256","internalType":"uint256"},{"name":"totalBorrowAssets","type":"uint256","internalType":"uint256"},{"name":"totalBorrowShares","type":"uint256","internalType":"uint256"},{"name":"userBorrowShares","type":"uint256","internalType":"uint256"}],"outputs":[{"name":"isLiquidatable","type":"bool","internalType":"bool"},{"name":"borrowValue","type":"uint256","internalType":"uint256"},{"name":"collateralValue","type":"uint256","internalType":"uint256"}],"stateMutability":"view"},{"type":"function","name":"liquidateByDEX","inputs":[{"name":"borrower","type":"address","internalType":"address"},{"name":"lendingPoolRouter","type":"address","internalType":"address"},{"name":"","type":"address","internalType":"address"},{"name":"liquidationIncentive","type":"uint256","internalType":"uint256"}],"outputs":[{"name":"liquidatedAmount","type":"uint256","internalType":"uint256"}],"stateMutability":"nonpayable"},{"type":"function","name":"liquidateByMEV","inputs":[{"name":"borrower","type":"address","internalType":"address"},{"name":"lendingPoolRouter","type":"address","internalType":"address"},{"name":"","type":"address","internalType":"address"},{"name":"repayAmount","type":"uint256","internalType":"uint256"},{"name":"liquidationIncentive","type":"uint256","internalType":"uint256"}],"outputs":[],"stateMutability":"payable"},{"type":"function","name":"liquidator","inputs":[],"outputs":[{"name":"","type":"address","internalType":"address"}],"stateMutability":"view"},{"type":"error","name":"InsufficientCollateral","inputs":[]}],"bytecode":{"object":"0x608060405234801561000f575f5ffd5b50604051611516380380611516833981810160405281019061003191906100d4565b805f5f6101000a81548173ffffffffffffffffffffffffffffffffffffffff021916908373ffffffffffffffffffffffffffffffffffffffff160217905550506100ff565b5f5ffd5b5f73ffffffffffffffffffffffffffffffffffffffff82169050919050565b5f6100a38261007a565b9050919050565b6100b381610099565b81146100bd575f5ffd5b50565b5f815190506100ce816100aa565b92915050565b5f602082840312156100e9576100e8610076565b5b5f6100f6848285016100c0565b91505092915050565b61140a8061010c5f395ff3fe608060405260043610610049575f3560e01c806322c32aa71461004d5780632e68f18e146100695780634046ebae14610091578063630cbcc1146100bb5780639d068dd7146100f7575b5f5ffd5b61006760048036038101906100629190610c12565b610135565b005b348015610074575f5ffd5b5061008f600480360381019061008a9190610c89565b61029a565b005b34801561009c575f5ffd5b506100a5610507565b6040516100b29190610d35565b60405180910390f35b3480156100c6575f5ffd5b506100e160048036038101906100dc9190610d4e565b61052b565b6040516100ee9190610dc1565b60405180910390f35b348015610102575f5ffd5b5061011d60048036038101906101189190610c89565b6106a7565b60405161012c93929190610df4565b60405180910390f35b5f5f5f9054906101000a900473ffffffffffffffffffffffffffffffffffffffff1673ffffffffffffffffffffffffffffffffffffffff1634878786866040516024016101859493929190610e29565b6040516020818303038152906040527f9cd95afa000000000000000000000000000000000000000000000000000000007bffffffffffffffffffffffffffffffffffffffffffffffffffffffff19166020820180517bffffffffffffffffffffffffffffffffffffffffffffffffffffffff838183161783525050505060405161020f9190610ebe565b5f6040518083038185875af1925050503d805f8114610249576040519150601f19603f3d011682016040523d82523d5f602084013e61024e565b606091505b5050905080610292576040517f08c379a000000000000000000000000000000000000000000000000000000000815260040161028990610f2e565b60405180910390fd5b505050505050565b5f6102a587896108da565b73ffffffffffffffffffffffffffffffffffffffff1663feaf968c6040518163ffffffff1660e01b815260040160a060405180830381865afa1580156102ed573d5f5f3e3d5ffd5b505050506040513d601f19601f820116820180604052508101906103119190610f9f565b5050509150505f5f90505f600190505b61032a8861095b565b811161040a575f8873ffffffffffffffffffffffffffffffffffffffff16631cb928a9836040518263ffffffff1660e01b815260040161036a9190610dc1565b602060405180830381865afa158015610385573d5f5f3e3d5ffd5b505050506040513d601f19601f820116820180604052508101906103a9919061102a565b90505f73ffffffffffffffffffffffffffffffffffffffff168173ffffffffffffffffffffffffffffffffffffffff16146103f6576103e889826109d0565b836103f39190611082565b92505b508080610402906110b5565b915050610321565b505f5f905084868561041c91906110fc565b610426919061116a565b90505f6104338a8c610a51565b600a61043f91906112d5565b670de0b6b3a76400008561045391906110fc565b61045d919061116a565b90505f6104698c610ad0565b600a61047591906112d5565b828461048191906110fc565b61048b919061116a565b90505f670de0b6b3a76400008a866104a391906110fc565b6104ad919061116a565b90505f858311806104bd57508183115b905080156104f7576040517f3a23d82500000000000000000000000000000000000000000000000000000000815260040160405180910390fd5b5050505050505050505050505050565b5f5f9054906101000a900473ffffffffffffffffffffffffffffffffffffffff1681565b5f5f5f5f5f9054906101000a900473ffffffffffffffffffffffffffffffffffffffff1673ffffffffffffffffffffffffffffffffffffffff1687878660405160240161057a9392919061131f565b6040516020818303038152906040527fc904530c000000000000000000000000000000000000000000000000000000007bffffffffffffffffffffffffffffffffffffffffffffffffffffffff19166020820180517bffffffffffffffffffffffffffffffffffffffffffffffffffffffff83818316178352505050506040516106049190610ebe565b5f604051808303815f865af19150503d805f811461063d576040519150601f19603f3d011682016040523d82523d5f602084013e610642565b606091505b509150915081610687576040517f08c379a000000000000000000000000000000000000000000000000000000000815260040161067e90610f2e565b60405180910390fd5b8080602001905181019061069b9190611354565b92505050949350505050565b5f5f5f5f6106b58a8c6108da565b73ffffffffffffffffffffffffffffffffffffffff1663feaf968c6040518163ffffffff1660e01b815260040160a060405180830381865afa1580156106fd573d5f5f3e3d5ffd5b505050506040513d601f19601f820116820180604052508101906107219190610f9f565b5050509150505f91505f600190505b6107398a61095b565b8111610819575f8a73ffffffffffffffffffffffffffffffffffffffff16631cb928a9836040518263ffffffff1660e01b81526004016107799190610dc1565b602060405180830381865afa158015610794573d5f5f3e3d5ffd5b505050506040513d601f19601f820116820180604052508101906107b8919061102a565b90505f73ffffffffffffffffffffffffffffffffffffffff168173ffffffffffffffffffffffffffffffffffffffff1614610805576107f78b826109d0565b846108029190611082565b93505b508080610811906110b5565b915050610730565b505f86888761082891906110fc565b610832919061116a565b90505f61083f8c8e610a51565b600a61084b91906112d5565b670de0b6b3a76400008461085f91906110fc565b610869919061116a565b90506108748d610ad0565b600a61088091906112d5565b818361088c91906110fc565b610896919061116a565b94505f670de0b6b3a76400008b866108ae91906110fc565b6108b8919061116a565b9050848611806108c757508086115b9650505050509750975097945050505050565b5f8273ffffffffffffffffffffffffffffffffffffffff16631d43335a836040518263ffffffff1660e01b81526004016109149190610d35565b602060405180830381865afa15801561092f573d5f5f3e3d5ffd5b505050506040513d601f19601f82011682018060405250810190610953919061102a565b905092915050565b5f8173ffffffffffffffffffffffffffffffffffffffff166361bc221a6040518163ffffffff1660e01b8152600401602060405180830381865afa1580156109a5573d5f5f3e3d5ffd5b505050506040513d601f19601f820116820180604052508101906109c99190611354565b9050919050565b5f8273ffffffffffffffffffffffffffffffffffffffff1663513f7d1e836040518263ffffffff1660e01b8152600401610a0a9190610d35565b602060405180830381865afa158015610a25573d5f5f3e3d5ffd5b505050506040513d601f19601f82011682018060405250810190610a499190611354565b905092915050565b5f610a5c83836108da565b73ffffffffffffffffffffffffffffffffffffffff1663313ce5676040518163ffffffff1660e01b8152600401602060405180830381865afa158015610aa4573d5f5f3e3d5ffd5b505050506040513d601f19601f82011682018060405250810190610ac891906113a9565b905092915050565b5f600173ffffffffffffffffffffffffffffffffffffffff168273ffffffffffffffffffffffffffffffffffffffff1614610b77578173ffffffffffffffffffffffffffffffffffffffff1663313ce5676040518163ffffffff1660e01b8152600401602060405180830381865afa158015610b4e573d5f5f3e3d5ffd5b505050506040513d601f19601f82011682018060405250810190610b7291906113a9565b610b7a565b60125b9050919050565b5f5ffd5b5f73ffffffffffffffffffffffffffffffffffffffff82169050919050565b5f610bae82610b85565b9050919050565b610bbe81610ba4565b8114610bc8575f5ffd5b50565b5f81359050610bd981610bb5565b92915050565b5f819050919050565b610bf181610bdf565b8114610bfb575f5ffd5b50565b5f81359050610c0c81610be8565b92915050565b5f5f5f5f5f60a08688031215610c2b57610c2a610b81565b5b5f610c3888828901610bcb565b9550506020610c4988828901610bcb565b9450506040610c5a88828901610bcb565b9350506060610c6b88828901610bfe565b9250506080610c7c88828901610bfe565b9150509295509295909350565b5f5f5f5f5f5f5f60e0888a031215610ca457610ca3610b81565b5b5f610cb18a828b01610bcb565b9750506020610cc28a828b01610bcb565b9650506040610cd38a828b01610bcb565b9550506060610ce48a828b01610bfe565b9450506080610cf58a828b01610bfe565b93505060a0610d068a828b01610bfe565b92505060c0610d178a828b01610bfe565b91505092959891949750929550565b610d2f81610ba4565b82525050565b5f602082019050610d485f830184610d26565b92915050565b5f5f5f5f60808587031215610d6657610d65610b81565b5b5f610d7387828801610bcb565b9450506020610d8487828801610bcb565b9350506040610d9587828801610bcb565b9250506060610da687828801610bfe565b91505092959194509250565b610dbb81610bdf565b82525050565b5f602082019050610dd45f830184610db2565b92915050565b5f8115159050919050565b610dee81610dda565b82525050565b5f606082019050610e075f830186610de5565b610e146020830185610db2565b610e216040830184610db2565b949350505050565b5f608082019050610e3c5f830187610d26565b610e496020830186610d26565b610e566040830185610db2565b610e636060830184610db2565b95945050505050565b5f81519050919050565b5f81905092915050565b8281835e5f83830152505050565b5f610e9882610e6c565b610ea28185610e76565b9350610eb2818560208601610e80565b80840191505092915050565b5f610ec98284610e8e565b915081905092915050565b5f82825260208201905092915050565b7f4c69717569646174696f6e206661696c656400000000000000000000000000005f82015250565b5f610f18601283610ed4565b9150610f2382610ee4565b602082019050919050565b5f6020820190508181035f830152610f4581610f0c565b9050919050565b5f69ffffffffffffffffffff82169050919050565b610f6a81610f4c565b8114610f74575f5ffd5b50565b5f81519050610f8581610f61565b92915050565b5f81519050610f9981610be8565b92915050565b5f5f5f5f5f60a08688031215610fb857610fb7610b81565b5b5f610fc588828901610f77565b9550506020610fd688828901610f8b565b9450506040610fe788828901610f8b565b9350506060610ff888828901610f8b565b925050608061100988828901610f77565b9150509295509295909350565b5f8151905061102481610bb5565b92915050565b5f6020828403121561103f5761103e610b81565b5b5f61104c84828501611016565b91505092915050565b7f4e487b71000000000000000000000000000000000000000000000000000000005f52601160045260245ffd5b5f61108c82610bdf565b915061109783610bdf565b92508282019050808211156110af576110ae611055565b5b92915050565b5f6110bf82610bdf565b91507fffffffffffffffffffffffffffffffffffffffffffffffffffffffffffffffff82036110f1576110f0611055565b5b600182019050919050565b5f61110682610bdf565b915061111183610bdf565b925082820261111f81610bdf565b9150828204841483151761113657611135611055565b5b5092915050565b7f4e487b71000000000000000000000000000000000000000000000000000000005f52601260045260245ffd5b5f61117482610bdf565b915061117f83610bdf565b92508261118f5761118e61113d565b5b828204905092915050565b5f8160011c9050919050565b5f5f8291508390505b60018511156111ef578086048111156111cb576111ca611055565b5b60018516156111da5780820291505b80810290506111e88561119a565b94506111af565b94509492505050565b5f8261120757600190506112c2565b81611214575f90506112c2565b816001811461122a576002811461123457611263565b60019150506112c2565b60ff84111561124657611245611055565b5b8360020a91508482111561125d5761125c611055565b5b506112c2565b5060208310610133831016604e8410600b84101617156112985782820a90508381111561129357611292611055565b5b6112c2565b6112a584848460016111a6565b925090508184048111156112bc576112bb611055565b5b81810290505b9392505050565b5f60ff82169050919050565b5f6112df82610bdf565b91506112ea836112c9565b92506113177fffffffffffffffffffffffffffffffffffffffffffffffffffffffffffffffff84846111f8565b905092915050565b5f6060820190506113325f830186610d26565b61133f6020830185610d26565b61134c6040830184610db2565b949350505050565b5f6020828403121561136957611368610b81565b5b5f61137684828501610f8b565b91505092915050565b611388816112c9565b8114611392575f5ffd5b50565b5f815190506113a38161137f565b92915050565b5f602082840312156113be576113bd610b81565b5b5f6113cb84828501611395565b9150509291505056fea26469706673582212201cba0b05a43dc641486dfb32b791cc98f3acb197d58804b9fcaa857f90fb5a6c64736f6c634300081c0033","linkReferences":{}},"methodIdentifiers":{"_isHealthy(address,address,address,uint256,uint256,uint256,uint256)":"2e68f18e","checkLiquidation(address,address,address,uint256,uint256,uint256,uint256)":"9d068dd7","liquidateByDEX(address,address,address,uint256)":"630cbcc1","liquidateByMEV(address,address,address,uint256,uint256)":"22c32aa7","liquidator()":"4046ebae"},"id":131}