{"abi":[{"type":"constructor","inputs":[],"stateMutability":"nonpayable"},{"type":"function","name":"checkLiquidatable","inputs":[{"name":"user","type":"address","internalType":"address"},{"name":"lendingPool","type":"address","internalType":"address"}],"outputs":[{"name":"","type":"bool","internalType":"bool"},{"name":"","type":"uint256","internalType":"uint256"},{"name":"","type":"uint256","internalType":"uint256"},{"name":"","type":"uint256","internalType":"uint256"}],"stateMutability":"view"},{"type":"function","name":"factory","inputs":[],"outputs":[{"name":"","type":"address","internalType":"address"}],"stateMutability":"view"},{"type":"function","name":"isHealthy","inputs":[{"name":"_user","type":"address","internalType":"address"},{"name":"_router","type":"address","internalType":"address"}],"outputs":[],"stateMutability":"view"},{"type":"function","name":"liquidationBonus","inputs":[{"name":"","type":"address","internalType":"address"}],"outputs":[{"name":"","type":"uint256","internalType":"uint256"}],"stateMutability":"view"},{"type":"function","name":"liquidationThreshold","inputs":[{"name":"","type":"address","internalType":"address"}],"outputs":[{"name":"","type":"uint256","internalType":"uint256"}],"stateMutability":"view"},{"type":"function","name":"owner","inputs":[],"outputs":[{"name":"","type":"address","internalType":"address"}],"stateMutability":"view"},{"type":"function","name":"renounceOwnership","inputs":[],"outputs":[],"stateMutability":"nonpayable"},{"type":"function","name":"setFactory","inputs":[{"name":"_factory","type":"address","internalType":"address"}],"outputs":[],"stateMutability":"nonpayable"},{"type":"function","name":"setLiquidationBonus","inputs":[{"name":"_router","type":"address","internalType":"address"},{"name":"bonus","type":"uint256","internalType":"uint256"}],"outputs":[],"stateMutability":"nonpayable"},{"type":"function","name":"setLiquidationThreshold","inputs":[{"name":"_router","type":"address","internalType":"address"},{"name":"_threshold","type":"uint256","internalType":"uint256"}],"outputs":[],"stateMutability":"nonpayable"},{"type":"function","name":"transferOwnership","inputs":[{"name":"newOwner","type":"address","internalType":"address"}],"outputs":[],"stateMutability":"nonpayable"},{"type":"event","name":"FactorySet","inputs":[{"name":"factory","type":"address","indexed":false,"internalType":"address"}],"anonymous":false},{"type":"event","name":"LiquidationBonusSet","inputs":[{"name":"lendingPool","type":"address","indexed":false,"internalType":"address"},{"name":"bonus","type":"uint256","indexed":false,"internalType":"uint256"}],"anonymous":false},{"type":"event","name":"LiquidationThresholdSet","inputs":[{"name":"lendingPool","type":"address","indexed":false,"internalType":"address"},{"name":"threshold","type":"uint256","indexed":false,"internalType":"uint256"}],"anonymous":false},{"type":"event","name":"MaxLiquidationPercentageSet","inputs":[{"name":"percentage","type":"uint256","indexed":false,"internalType":"uint256"}],"anonymous":false},{"type":"event","name":"OwnershipTransferred","inputs":[{"name":"previousOwner","type":"address","indexed":true,"internalType":"address"},{"name":"newOwner","type":"address","indexed":true,"internalType":"address"}],"anonymous":false},{"type":"error","name":"ExceedsMaxLTV","inputs":[{"name":"borrowValue","type":"uint256","internalType":"uint256"},{"name":"maxBorrowValue","type":"uint256","internalType":"uint256"},{"name":"ltv","type":"uint256","internalType":"uint256"}]},{"type":"error","name":"InvalidLtv","inputs":[{"name":"lendingPool","type":"address","internalType":"address"},{"name":"ltv","type":"uint256","internalType":"uint256"}]},{"type":"error","name":"LiquidationAlert","inputs":[{"name":"borrowValue","type":"uint256","internalType":"uint256"},{"name":"maxCollateralValue","type":"uint256","internalType":"uint256"},{"name":"liquidationThreshold","type":"uint256","internalType":"uint256"}]},{"type":"error","name":"LiquidationBonusNotSet","inputs":[{"name":"lendingPool","type":"address","internalType":"address"}]},{"type":"error","name":"LiquidationThresholdNotSet","inputs":[{"name":"lendingPool","type":"address","internalType":"address"}]},{"type":"error","name":"LtvMustBeLessThanThreshold","inputs":[{"name":"lendingPool","type":"address","internalType":"address"},{"name":"ltv","type":"uint256","internalType":"uint256"},{"name":"threshold","type":"uint256","internalType":"uint256"}]},{"type":"error","name":"NotFactory","inputs":[]},{"type":"error","name":"OwnableInvalidOwner","inputs":[{"name":"owner","type":"address","internalType":"address"}]},{"type":"error","name":"OwnableUnauthorizedAccount","inputs":[{"name":"account","type":"address","internalType":"address"}]},{"type":"error","name":"ZeroAddress","inputs":[]},{"type":"error","name":"ZeroCollateralAmount","inputs":[{"name":"lendingPool","type":"address","internalType":"address"},{"name":"userCollateralAmount","type":"uint256","internalType":"uint256"},{"name":"totalCollateral","type":"uint256","internalType":"uint256"}]}],"bytecode":{"object":"0x608060405234801561000f575f5ffd5b50335f73ffffffffffffffffffffffffffffffffffffffff168173ffffffffffffffffffffffffffffffffffffffff1603610081575f6040517f1e4fbdf70000000000000000000000000000000000000000000000000000000081526004016100789190610196565b60405180910390fd5b6100908161009660201b60201c565b506101af565b5f5f5f9054906101000a900473ffffffffffffffffffffffffffffffffffffffff169050815f5f6101000a81548173ffffffffffffffffffffffffffffffffffffffff021916908373ffffffffffffffffffffffffffffffffffffffff1602179055508173ffffffffffffffffffffffffffffffffffffffff168173ffffffffffffffffffffffffffffffffffffffff167f8be0079c531659141344cd1fd0a4f28419497f9722a3daafe3b4186f6b6457e060405160405180910390a35050565b5f73ffffffffffffffffffffffffffffffffffffffff82169050919050565b5f61018082610157565b9050919050565b61019081610176565b82525050565b5f6020820190506101a95f830184610187565b92915050565b6119c4806101bc5f395ff3fe608060405234801561000f575f5ffd5b50600436106100a7575f3560e01c80638da5cb5b1161006f5780638da5cb5b1461013c578063979dc61e1461015a578063b1732b251461018a578063c45a0155146101ba578063d3a65805146101d8578063f2fde38b146101f4576100a7565b80630e30428d146100ab5780633132aa89146100c75780635bb47808146100fa578063715018a6146101165780637cadffd914610120575b5f5ffd5b6100c560048036038101906100c091906113d0565b610210565b005b6100e160048036038101906100dc919061140e565b6102ed565b6040516100f19493929190611475565b60405180910390f35b610114600480360381019061010f91906114b8565b61038f565b005b61011e610476565b005b61013a600480360381019061013591906113d0565b610489565b005b610144610510565b60405161015191906114f2565b60405180910390f35b610174600480360381019061016f91906114b8565b610537565b604051610181919061150b565b60405180910390f35b6101a4600480360381019061019f91906114b8565b61054c565b6040516101b1919061150b565b60405180910390f35b6101c2610561565b6040516101cf91906114f2565b60405180910390f35b6101f260048036038101906101ed919061140e565b610586565b005b61020e600480360381019061020991906114b8565b6106aa565b005b61021861072e565b5f610222836107b6565b90508181111561026d578281836040517fcd2157ba00000000000000000000000000000000000000000000000000000000815260040161026493929190611524565b60405180910390fd5b8160025f8573ffffffffffffffffffffffffffffffffffffffff1673ffffffffffffffffffffffffffffffffffffffff1681526020019081526020015f20819055507f2d1d01e1bdceefd940b4d41b3a1ad2ed30fe49c72ec8ad731dd615b52eb0761f83836040516102e0929190611559565b60405180910390a1505050565b5f5f5f5f5f610305866102ff88610876565b896108eb565b90505f81036103215760015f5f5f945094509450945050610386565b5f6103358761032f896109c6565b8a610a3b565b915050808211828260035f8b73ffffffffffffffffffffffffffffffffffffffff1673ffffffffffffffffffffffffffffffffffffffff1681526020019081526020015f2054955095509550955050505b92959194509250565b610397610b5b565b5f73ffffffffffffffffffffffffffffffffffffffff168173ffffffffffffffffffffffffffffffffffffffff16036103fc576040517fd92e233d00000000000000000000000000000000000000000000000000000000815260040160405180910390fd5b8060015f6101000a81548173ffffffffffffffffffffffffffffffffffffffff021916908373ffffffffffffffffffffffffffffffffffffffff1602179055507f1edf3afd4ac789736e00d216cd88be164ddcef26a6eedcc30cdb0cb62f3741b18160405161046b91906114f2565b60405180910390a150565b61047e610b5b565b6104875f610be2565b565b61049161072e565b8060035f8473ffffffffffffffffffffffffffffffffffffffff1673ffffffffffffffffffffffffffffffffffffffff1681526020019081526020015f20819055507fd91812d016fee432934ed06b278ce206558fbe821c4e6a7320c30d8f5ece48a98282604051610504929190611559565b60405180910390a15050565b5f5f5f9054906101000a900473ffffffffffffffffffffffffffffffffffffffff16905090565b6003602052805f5260405f205f915090505481565b6002602052805f5260405f205f915090505481565b60015f9054906101000a900473ffffffffffffffffffffffffffffffffffffffff1681565b5f61059a8261059484610876565b856108eb565b90505f81036105a957506106a6565b6105b282610ca3565b5f5f6105c7846105c1866109c6565b87610a3b565b915091508183111561061c5782826105de866107b6565b6040517f3ff441cb00000000000000000000000000000000000000000000000000000000815260040161061393929190611580565b60405180910390fd5b808311156106a257828160025f8773ffffffffffffffffffffffffffffffffffffffff1673ffffffffffffffffffffffffffffffffffffffff1681526020019081526020015f20546040517f700ea03000000000000000000000000000000000000000000000000000000000815260040161069993929190611580565b60405180910390fd5b5050505b5050565b6106b2610b5b565b5f73ffffffffffffffffffffffffffffffffffffffff168173ffffffffffffffffffffffffffffffffffffffff1603610722575f6040517f1e4fbdf700000000000000000000000000000000000000000000000000000000815260040161071991906114f2565b60405180910390fd5b61072b81610be2565b50565b60015f9054906101000a900473ffffffffffffffffffffffffffffffffffffffff1673ffffffffffffffffffffffffffffffffffffffff163373ffffffffffffffffffffffffffffffffffffffff16146107b4576040517f32cc723600000000000000000000000000000000000000000000000000000000815260040160405180910390fd5b565b5f5f8273ffffffffffffffffffffffffffffffffffffffff16636fb49d736040518163ffffffff1660e01b8152600401602060405180830381865afa158015610801573d5f5f3e3d5ffd5b505050506040513d601f19601f8201168201806040525081019061082591906115c9565b90505f810361086d5782816040517fcd1ea89a000000000000000000000000000000000000000000000000000000008152600401610864929190611559565b60405180910390fd5b80915050919050565b5f8173ffffffffffffffffffffffffffffffffffffffff1663456dc17a6040518163ffffffff1660e01b8152600401602060405180830381865afa1580156108c0573d5f5f3e3d5ffd5b505050506040513d601f19601f820116820180604052508101906108e49190611608565b9050919050565b5f5f6108f78584610da8565b90505f8103610909575f9150506109bf565b5f61091386610e29565b03610921575f9150506109bf565b5f61092b86610e29565b61093487610e9e565b8361093f9190611660565b61094991906116ce565b90505f61095586610f13565b600a610961919061182d565b670de0b6b3a764000061097388610f9a565b61097d9190611660565b61098791906116ce565b90505f6109938761102a565b600a61099f919061182d565b82846109ab9190611660565b6109b591906116ce565b9050809450505050505b9392505050565b5f8173ffffffffffffffffffffffffffffffffffffffff1663b2016bd46040518163ffffffff1660e01b8152600401602060405180830381865afa158015610a10573d5f5f3e3d5ffd5b505050506040513d601f19601f82011682018060405250810190610a349190611608565b9050919050565b5f5f610a4685610ca3565b5f610a5186856111a4565b90505f610a5d86610f13565b600a610a69919061182d565b670de0b6b3a7640000610a7b88610f9a565b610a859190611660565b610a8f91906116ce565b90505f610a9b8761102a565b600a610aa7919061182d565b8284610ab39190611660565b610abd91906116ce565b90505f670de0b6b3a7640000610ad28a6107b6565b83610add9190611660565b610ae791906116ce565b90505f670de0b6b3a764000060025f8c73ffffffffffffffffffffffffffffffffffffffff1673ffffffffffffffffffffffffffffffffffffffff1681526020019081526020015f205484610b3c9190611660565b610b4691906116ce565b90508181965096505050505050935093915050565b610b63611223565b73ffffffffffffffffffffffffffffffffffffffff16610b81610510565b73ffffffffffffffffffffffffffffffffffffffff1614610be057610ba4611223565b6040517f118cdaa7000000000000000000000000000000000000000000000000000000008152600401610bd791906114f2565b60405180910390fd5b565b5f5f5f9054906101000a900473ffffffffffffffffffffffffffffffffffffffff169050815f5f6101000a81548173ffffffffffffffffffffffffffffffffffffffff021916908373ffffffffffffffffffffffffffffffffffffffff1602179055508173ffffffffffffffffffffffffffffffffffffffff168173ffffffffffffffffffffffffffffffffffffffff167f8be0079c531659141344cd1fd0a4f28419497f9722a3daafe3b4186f6b6457e060405160405180910390a35050565b5f60025f8373ffffffffffffffffffffffffffffffffffffffff1673ffffffffffffffffffffffffffffffffffffffff1681526020019081526020015f205403610d2457806040517f550f5abe000000000000000000000000000000000000000000000000000000008152600401610d1b91906114f2565b60405180910390fd5b5f60035f8373ffffffffffffffffffffffffffffffffffffffff1673ffffffffffffffffffffffffffffffffffffffff1681526020019081526020015f205403610da557806040517f31650a25000000000000000000000000000000000000000000000000000000008152600401610d9c91906114f2565b60405180910390fd5b50565b5f8273ffffffffffffffffffffffffffffffffffffffff16634fd422df836040518263ffffffff1660e01b8152600401610de291906114f2565b602060405180830381865afa158015610dfd573d5f5f3e3d5ffd5b505050506040513d601f19601f82011682018060405250810190610e2191906115c9565b905092915050565b5f8173ffffffffffffffffffffffffffffffffffffffff1663136cf1f76040518163ffffffff1660e01b8152600401602060405180830381865afa158015610e73573d5f5f3e3d5ffd5b505050506040513d601f19601f82011682018060405250810190610e9791906115c9565b9050919050565b5f8173ffffffffffffffffffffffffffffffffffffffff16631aad44c26040518163ffffffff1660e01b8152600401602060405180830381865afa158015610ee8573d5f5f3e3d5ffd5b505050506040513d601f19601f82011682018060405250810190610f0c91906115c9565b9050919050565b5f610f1c61122a565b73ffffffffffffffffffffffffffffffffffffffff1663d449a832836040518263ffffffff1660e01b8152600401610f5491906114f2565b602060405180830381865afa158015610f6f573d5f5f3e3d5ffd5b505050506040513d601f19601f82011682018060405250810190610f9391906115c9565b9050919050565b5f5f610fa461122a565b73ffffffffffffffffffffffffffffffffffffffff1663a13cc76a846040518263ffffffff1660e01b8152600401610fdc91906114f2565b60a060405180830381865afa158015610ff7573d5f5f3e3d5ffd5b505050506040513d601f19601f8201168201806040525081019061101b91906118b6565b50505091505080915050919050565b5f600173ffffffffffffffffffffffffffffffffffffffff168273ffffffffffffffffffffffffffffffffffffffff16148061111e575060015f9054906101000a900473ffffffffffffffffffffffffffffffffffffffff1673ffffffffffffffffffffffffffffffffffffffff1663eb6d3a116040518163ffffffff1660e01b8152600401602060405180830381865afa1580156110cb573d5f5f3e3d5ffd5b505050506040513d601f19601f820116820180604052508101906110ef9190611608565b73ffffffffffffffffffffffffffffffffffffffff168273ffffffffffffffffffffffffffffffffffffffff16145b1561112c576012905061119f565b8173ffffffffffffffffffffffffffffffffffffffff1663313ce5676040518163ffffffff1660e01b8152600401602060405180830381865afa158015611175573d5f5f3e3d5ffd5b505050506040513d601f19601f820116820180604052508101906111999190611963565b60ff1690505b919050565b5f6111af83836112be565b73ffffffffffffffffffffffffffffffffffffffff16634ac8eb5f6040518163ffffffff1660e01b8152600401602060405180830381865afa1580156111f7573d5f5f3e3d5ffd5b505050506040513d601f19601f8201168201806040525081019061121b91906115c9565b905092915050565b5f33905090565b5f60015f9054906101000a900473ffffffffffffffffffffffffffffffffffffffff1673ffffffffffffffffffffffffffffffffffffffff166375b568a66040518163ffffffff1660e01b8152600401602060405180830381865afa158015611295573d5f5f3e3d5ffd5b505050506040513d601f19601f820116820180604052508101906112b99190611608565b905090565b5f8273ffffffffffffffffffffffffffffffffffffffff1663f79c3800836040518263ffffffff1660e01b81526004016112f891906114f2565b602060405180830381865afa158015611313573d5f5f3e3d5ffd5b505050506040513d601f19601f820116820180604052508101906113379190611608565b905092915050565b5f5ffd5b5f73ffffffffffffffffffffffffffffffffffffffff82169050919050565b5f61136c82611343565b9050919050565b61137c81611362565b8114611386575f5ffd5b50565b5f8135905061139781611373565b92915050565b5f819050919050565b6113af8161139d565b81146113b9575f5ffd5b50565b5f813590506113ca816113a6565b92915050565b5f5f604083850312156113e6576113e561133f565b5b5f6113f385828601611389565b9250506020611404858286016113bc565b9150509250929050565b5f5f604083850312156114245761142361133f565b5b5f61143185828601611389565b925050602061144285828601611389565b9150509250929050565b5f8115159050919050565b6114608161144c565b82525050565b61146f8161139d565b82525050565b5f6080820190506114885f830187611457565b6114956020830186611466565b6114a26040830185611466565b6114af6060830184611466565b95945050505050565b5f602082840312156114cd576114cc61133f565b5b5f6114da84828501611389565b91505092915050565b6114ec81611362565b82525050565b5f6020820190506115055f8301846114e3565b92915050565b5f60208201905061151e5f830184611466565b92915050565b5f6060820190506115375f8301866114e3565b6115446020830185611466565b6115516040830184611466565b949350505050565b5f60408201905061156c5f8301856114e3565b6115796020830184611466565b9392505050565b5f6060820190506115935f830186611466565b6115a06020830185611466565b6115ad6040830184611466565b949350505050565b5f815190506115c3816113a6565b92915050565b5f602082840312156115de576115dd61133f565b5b5f6115eb848285016115b5565b91505092915050565b5f8151905061160281611373565b92915050565b5f6020828403121561161d5761161c61133f565b5b5f61162a848285016115f4565b91505092915050565b7f4e487b71000000000000000000000000000000000000000000000000000000005f52601160045260245ffd5b5f61166a8261139d565b91506116758361139d565b92508282026116838161139d565b9150828204841483151761169a57611699611633565b5b5092915050565b7f4e487b71000000000000000000000000000000000000000000000000000000005f52601260045260245ffd5b5f6116d88261139d565b91506116e38361139d565b9250826116f3576116f26116a1565b5b828204905092915050565b5f8160011c9050919050565b5f5f8291508390505b60018511156117535780860481111561172f5761172e611633565b5b600185161561173e5780820291505b808102905061174c856116fe565b9450611713565b94509492505050565b5f8261176b5760019050611826565b81611778575f9050611826565b816001811461178e5760028114611798576117c7565b6001915050611826565b60ff8411156117aa576117a9611633565b5b8360020a9150848211156117c1576117c0611633565b5b50611826565b5060208310610133831016604e8410600b84101617156117fc5782820a9050838111156117f7576117f6611633565b5b611826565b611809848484600161170a565b925090508184048111156118205761181f611633565b5b81810290505b9392505050565b5f6118378261139d565b91506118428361139d565b925061186f7fffffffffffffffffffffffffffffffffffffffffffffffffffffffffffffffff848461175c565b905092915050565b5f69ffffffffffffffffffff82169050919050565b61189581611877565b811461189f575f5ffd5b50565b5f815190506118b08161188c565b92915050565b5f5f5f5f5f60a086880312156118cf576118ce61133f565b5b5f6118dc888289016118a2565b95505060206118ed888289016115b5565b94505060406118fe888289016115b5565b935050606061190f888289016115b5565b9250506080611920888289016118a2565b9150509295509295909350565b5f60ff82169050919050565b6119428161192d565b811461194c575f5ffd5b50565b5f8151905061195d81611939565b92915050565b5f602082840312156119785761197761133f565b5b5f6119858482850161194f565b9150509291505056fea26469706673582212202ca9c481ada7f558ceaf68a0011811e36a64f1727fdaa2f378107dd522f03ae864736f6c634300081e0033","linkReferences":{}},"methodIdentifiers":{"checkLiquidatable(address,address)":"3132aa89","factory()":"c45a0155","isHealthy(address,address)":"d3a65805","liquidationBonus(address)":"979dc61e","liquidationThreshold(address)":"b1732b25","owner()":"8da5cb5b","renounceOwnership()":"715018a6","setFactory(address)":"5bb47808","setLiquidationBonus(address,uint256)":"7cadffd9","setLiquidationThreshold(address,uint256)":"0e30428d","transferOwnership(address)":"f2fde38b"},"id":101}