{"abi":[{"type":"constructor","inputs":[{"name":"_liquidator","type":"address","internalType":"address"}],"stateMutability":"nonpayable"},{"type":"function","name":"_isHealthy","inputs":[{"name":"borrowToken","type":"address","internalType":"address"},{"name":"factory","type":"address","internalType":"address"},{"name":"addressPositions","type":"address","internalType":"address"},{"name":"ltv","type":"uint256","internalType":"uint256"},{"name":"totalBorrowAssets","type":"uint256","internalType":"uint256"},{"name":"totalBorrowShares","type":"uint256","internalType":"uint256"},{"name":"userBorrowShares","type":"uint256","internalType":"uint256"}],"outputs":[],"stateMutability":"view"},{"type":"function","name":"checkLiquidation","inputs":[{"name":"borrowToken","type":"address","internalType":"address"},{"name":"factory","type":"address","internalType":"address"},{"name":"addressPositions","type":"address","internalType":"address"},{"name":"ltv","type":"uint256","internalType":"uint256"},{"name":"totalBorrowAssets","type":"uint256","internalType":"uint256"},{"name":"totalBorrowShares","type":"uint256","internalType":"uint256"},{"name":"userBorrowShares","type":"uint256","internalType":"uint256"}],"outputs":[{"name":"isLiquidatable","type":"bool","internalType":"bool"},{"name":"borrowValue","type":"uint256","internalType":"uint256"},{"name":"collateralValue","type":"uint256","internalType":"uint256"}],"stateMutability":"view"},{"type":"function","name":"liquidateByDEX","inputs":[{"name":"borrower","type":"address","internalType":"address"},{"name":"lendingPoolRouter","type":"address","internalType":"address"},{"name":"factory","type":"address","internalType":"address"},{"name":"liquidationIncentive","type":"uint256","internalType":"uint256"}],"outputs":[{"name":"liquidatedAmount","type":"uint256","internalType":"uint256"}],"stateMutability":"nonpayable"},{"type":"function","name":"liquidateByMEV","inputs":[{"name":"borrower","type":"address","internalType":"address"},{"name":"lendingPoolRouter","type":"address","internalType":"address"},{"name":"factory","type":"address","internalType":"address"},{"name":"repayAmount","type":"uint256","internalType":"uint256"},{"name":"liquidationIncentive","type":"uint256","internalType":"uint256"}],"outputs":[],"stateMutability":"payable"},{"type":"function","name":"liquidator","inputs":[],"outputs":[{"name":"","type":"address","internalType":"address"}],"stateMutability":"view"},{"type":"error","name":"InsufficientCollateral","inputs":[]}],"bytecode":{"object":"0x608060405234801561000f575f5ffd5b50604051611532380380611532833981810160405281019061003191906100d4565b805f5f6101000a81548173ffffffffffffffffffffffffffffffffffffffff021916908373ffffffffffffffffffffffffffffffffffffffff160217905550506100ff565b5f5ffd5b5f73ffffffffffffffffffffffffffffffffffffffff82169050919050565b5f6100a38261007a565b9050919050565b6100b381610099565b81146100bd575f5ffd5b50565b5f815190506100ce816100aa565b92915050565b5f602082840312156100e9576100e8610076565b5b5f6100f6848285016100c0565b91505092915050565b6114268061010c5f395ff3fe608060405260043610610049575f3560e01c806322c32aa71461004d5780632e68f18e146100695780634046ebae14610091578063630cbcc1146100bb5780639d068dd7146100f7575b5f5ffd5b61006760048036038101906100629190610c12565b610135565b005b348015610074575f5ffd5b5061008f600480360381019061008a9190610c89565b610299565b005b34801561009c575f5ffd5b506100a5610506565b6040516100b29190610d35565b60405180910390f35b3480156100c6575f5ffd5b506100e160048036038101906100dc9190610d4e565b61052a565b6040516100ee9190610dc1565b60405180910390f35b348015610102575f5ffd5b5061011d60048036038101906101189190610c89565b6106a7565b60405161012c93929190610df4565b60405180910390f35b5f5f5f9054906101000a900473ffffffffffffffffffffffffffffffffffffffff1673ffffffffffffffffffffffffffffffffffffffff168686868686604051602401610186959493929190610e29565b6040516020818303038152906040527f22c32aa7000000000000000000000000000000000000000000000000000000007bffffffffffffffffffffffffffffffffffffffffffffffffffffffff19166020820180517bffffffffffffffffffffffffffffffffffffffffffffffffffffffff83818316178352505050506040516102109190610ecc565b5f60405180830381855af49150503d805f8114610248576040519150601f19603f3d011682016040523d82523d5f602084013e61024d565b606091505b5050905080610291576040517f08c379a000000000000000000000000000000000000000000000000000000000815260040161028890610f3c565b60405180910390fd5b505050505050565b5f6102a487896108da565b73ffffffffffffffffffffffffffffffffffffffff1663feaf968c6040518163ffffffff1660e01b815260040160a060405180830381865afa1580156102ec573d5f5f3e3d5ffd5b505050506040513d601f19601f820116820180604052508101906103109190610fad565b5050509150505f5f90505f600190505b6103298861095b565b8111610409575f8873ffffffffffffffffffffffffffffffffffffffff16631cb928a9836040518263ffffffff1660e01b81526004016103699190610dc1565b602060405180830381865afa158015610384573d5f5f3e3d5ffd5b505050506040513d601f19601f820116820180604052508101906103a89190611038565b90505f73ffffffffffffffffffffffffffffffffffffffff168173ffffffffffffffffffffffffffffffffffffffff16146103f5576103e789826109d0565b836103f29190611090565b92505b508080610401906110c3565b915050610320565b505f5f905084868561041b919061110a565b6104259190611178565b90505f6104328a8c610a51565b600a61043e91906112e3565b670de0b6b3a764000085610452919061110a565b61045c9190611178565b90505f6104688c610ad0565b600a61047491906112e3565b8284610480919061110a565b61048a9190611178565b90505f670de0b6b3a76400008a866104a2919061110a565b6104ac9190611178565b90505f858311806104bc57508183115b905080156104f6576040517f3a23d82500000000000000000000000000000000000000000000000000000000815260040160405180910390fd5b5050505050505050505050505050565b5f5f9054906101000a900473ffffffffffffffffffffffffffffffffffffffff1681565b5f5f5f5f5f9054906101000a900473ffffffffffffffffffffffffffffffffffffffff1673ffffffffffffffffffffffffffffffffffffffff168787878760405160240161057b949392919061132d565b6040516020818303038152906040527f630cbcc1000000000000000000000000000000000000000000000000000000007bffffffffffffffffffffffffffffffffffffffffffffffffffffffff19166020820180517bffffffffffffffffffffffffffffffffffffffffffffffffffffffff83818316178352505050506040516106059190610ecc565b5f60405180830381855af49150503d805f811461063d576040519150601f19603f3d011682016040523d82523d5f602084013e610642565b606091505b509150915081610687576040517f08c379a000000000000000000000000000000000000000000000000000000000815260040161067e90610f3c565b60405180910390fd5b8080602001905181019061069b9190611370565b92505050949350505050565b5f5f5f5f6106b58a8c6108da565b73ffffffffffffffffffffffffffffffffffffffff1663feaf968c6040518163ffffffff1660e01b815260040160a060405180830381865afa1580156106fd573d5f5f3e3d5ffd5b505050506040513d601f19601f820116820180604052508101906107219190610fad565b5050509150505f91505f600190505b6107398a61095b565b8111610819575f8a73ffffffffffffffffffffffffffffffffffffffff16631cb928a9836040518263ffffffff1660e01b81526004016107799190610dc1565b602060405180830381865afa158015610794573d5f5f3e3d5ffd5b505050506040513d601f19601f820116820180604052508101906107b89190611038565b90505f73ffffffffffffffffffffffffffffffffffffffff168173ffffffffffffffffffffffffffffffffffffffff1614610805576107f78b826109d0565b846108029190611090565b93505b508080610811906110c3565b915050610730565b505f868887610828919061110a565b6108329190611178565b90505f61083f8c8e610a51565b600a61084b91906112e3565b670de0b6b3a76400008461085f919061110a565b6108699190611178565b90506108748d610ad0565b600a61088091906112e3565b818361088c919061110a565b6108969190611178565b94505f670de0b6b3a76400008b866108ae919061110a565b6108b89190611178565b9050848611806108c757508086115b9650505050509750975097945050505050565b5f8273ffffffffffffffffffffffffffffffffffffffff16631d43335a836040518263ffffffff1660e01b81526004016109149190610d35565b602060405180830381865afa15801561092f573d5f5f3e3d5ffd5b505050506040513d601f19601f820116820180604052508101906109539190611038565b905092915050565b5f8173ffffffffffffffffffffffffffffffffffffffff166361bc221a6040518163ffffffff1660e01b8152600401602060405180830381865afa1580156109a5573d5f5f3e3d5ffd5b505050506040513d601f19601f820116820180604052508101906109c99190611370565b9050919050565b5f8273ffffffffffffffffffffffffffffffffffffffff1663513f7d1e836040518263ffffffff1660e01b8152600401610a0a9190610d35565b602060405180830381865afa158015610a25573d5f5f3e3d5ffd5b505050506040513d601f19601f82011682018060405250810190610a499190611370565b905092915050565b5f610a5c83836108da565b73ffffffffffffffffffffffffffffffffffffffff1663313ce5676040518163ffffffff1660e01b8152600401602060405180830381865afa158015610aa4573d5f5f3e3d5ffd5b505050506040513d601f19601f82011682018060405250810190610ac891906113c5565b905092915050565b5f600173ffffffffffffffffffffffffffffffffffffffff168273ffffffffffffffffffffffffffffffffffffffff1614610b77578173ffffffffffffffffffffffffffffffffffffffff1663313ce5676040518163ffffffff1660e01b8152600401602060405180830381865afa158015610b4e573d5f5f3e3d5ffd5b505050506040513d601f19601f82011682018060405250810190610b7291906113c5565b610b7a565b60125b9050919050565b5f5ffd5b5f73ffffffffffffffffffffffffffffffffffffffff82169050919050565b5f610bae82610b85565b9050919050565b610bbe81610ba4565b8114610bc8575f5ffd5b50565b5f81359050610bd981610bb5565b92915050565b5f819050919050565b610bf181610bdf565b8114610bfb575f5ffd5b50565b5f81359050610c0c81610be8565b92915050565b5f5f5f5f5f60a08688031215610c2b57610c2a610b81565b5b5f610c3888828901610bcb565b9550506020610c4988828901610bcb565b9450506040610c5a88828901610bcb565b9350506060610c6b88828901610bfe565b9250506080610c7c88828901610bfe565b9150509295509295909350565b5f5f5f5f5f5f5f60e0888a031215610ca457610ca3610b81565b5b5f610cb18a828b01610bcb565b9750506020610cc28a828b01610bcb565b9650506040610cd38a828b01610bcb565b9550506060610ce48a828b01610bfe565b9450506080610cf58a828b01610bfe565b93505060a0610d068a828b01610bfe565b92505060c0610d178a828b01610bfe565b91505092959891949750929550565b610d2f81610ba4565b82525050565b5f602082019050610d485f830184610d26565b92915050565b5f5f5f5f60808587031215610d6657610d65610b81565b5b5f610d7387828801610bcb565b9450506020610d8487828801610bcb565b9350506040610d9587828801610bcb565b9250506060610da687828801610bfe565b91505092959194509250565b610dbb81610bdf565b82525050565b5f602082019050610dd45f830184610db2565b92915050565b5f8115159050919050565b610dee81610dda565b82525050565b5f606082019050610e075f830186610de5565b610e146020830185610db2565b610e216040830184610db2565b949350505050565b5f60a082019050610e3c5f830188610d26565b610e496020830187610d26565b610e566040830186610d26565b610e636060830185610db2565b610e706080830184610db2565b9695505050505050565b5f81519050919050565b5f81905092915050565b8281835e5f83830152505050565b5f610ea682610e7a565b610eb08185610e84565b9350610ec0818560208601610e8e565b80840191505092915050565b5f610ed78284610e9c565b915081905092915050565b5f82825260208201905092915050565b7f4c69717569646174696f6e206661696c656400000000000000000000000000005f82015250565b5f610f26601283610ee2565b9150610f3182610ef2565b602082019050919050565b5f6020820190508181035f830152610f5381610f1a565b9050919050565b5f69ffffffffffffffffffff82169050919050565b610f7881610f5a565b8114610f82575f5ffd5b50565b5f81519050610f9381610f6f565b92915050565b5f81519050610fa781610be8565b92915050565b5f5f5f5f5f60a08688031215610fc657610fc5610b81565b5b5f610fd388828901610f85565b9550506020610fe488828901610f99565b9450506040610ff588828901610f99565b935050606061100688828901610f99565b925050608061101788828901610f85565b9150509295509295909350565b5f8151905061103281610bb5565b92915050565b5f6020828403121561104d5761104c610b81565b5b5f61105a84828501611024565b91505092915050565b7f4e487b71000000000000000000000000000000000000000000000000000000005f52601160045260245ffd5b5f61109a82610bdf565b91506110a583610bdf565b92508282019050808211156110bd576110bc611063565b5b92915050565b5f6110cd82610bdf565b91507fffffffffffffffffffffffffffffffffffffffffffffffffffffffffffffffff82036110ff576110fe611063565b5b600182019050919050565b5f61111482610bdf565b915061111f83610bdf565b925082820261112d81610bdf565b9150828204841483151761114457611143611063565b5b5092915050565b7f4e487b71000000000000000000000000000000000000000000000000000000005f52601260045260245ffd5b5f61118282610bdf565b915061118d83610bdf565b92508261119d5761119c61114b565b5b828204905092915050565b5f8160011c9050919050565b5f5f8291508390505b60018511156111fd578086048111156111d9576111d8611063565b5b60018516156111e85780820291505b80810290506111f6856111a8565b94506111bd565b94509492505050565b5f8261121557600190506112d0565b81611222575f90506112d0565b8160018114611238576002811461124257611271565b60019150506112d0565b60ff84111561125457611253611063565b5b8360020a91508482111561126b5761126a611063565b5b506112d0565b5060208310610133831016604e8410600b84101617156112a65782820a9050838111156112a1576112a0611063565b5b6112d0565b6112b384848460016111b4565b925090508184048111156112ca576112c9611063565b5b81810290505b9392505050565b5f60ff82169050919050565b5f6112ed82610bdf565b91506112f8836112d7565b92506113257fffffffffffffffffffffffffffffffffffffffffffffffffffffffffffffffff8484611206565b905092915050565b5f6080820190506113405f830187610d26565b61134d6020830186610d26565b61135a6040830185610d26565b6113676060830184610db2565b95945050505050565b5f6020828403121561138557611384610b81565b5b5f61139284828501610f99565b91505092915050565b6113a4816112d7565b81146113ae575f5ffd5b50565b5f815190506113bf8161139b565b92915050565b5f602082840312156113da576113d9610b81565b5b5f6113e7848285016113b1565b9150509291505056fea264697066735822122090bb5fe13a1c70dff54cf0184a9a98ddebd54f9f0a3c75fa4e252f0b1b74100a64736f6c634300081c0033","linkReferences":{}},"methodIdentifiers":{"_isHealthy(address,address,address,uint256,uint256,uint256,uint256)":"2e68f18e","checkLiquidation(address,address,address,uint256,uint256,uint256,uint256)":"9d068dd7","liquidateByDEX(address,address,address,uint256)":"630cbcc1","liquidateByMEV(address,address,address,uint256,uint256)":"22c32aa7","liquidator()":"4046ebae"},"id":120}