{"abi":[{"type":"function","name":"BASE_DVN1","inputs":[],"outputs":[{"name":"","type":"address","internalType":"address"}],"stateMutability":"view"},{"type":"function","name":"BASE_DVN2","inputs":[],"outputs":[{"name":"","type":"address","internalType":"address"}],"stateMutability":"view"},{"type":"function","name":"BASE_DVN3","inputs":[],"outputs":[{"name":"","type":"address","internalType":"address"}],"stateMutability":"view"},{"type":"function","name":"BASE_EID","inputs":[],"outputs":[{"name":"","type":"uint32","internalType":"uint32"}],"stateMutability":"view"},{"type":"function","name":"BASE_EXECUTOR","inputs":[],"outputs":[{"name":"","type":"address","internalType":"address"}],"stateMutability":"view"},{"type":"function","name":"BASE_KAIA","inputs":[],"outputs":[{"name":"","type":"address","internalType":"address"}],"stateMutability":"view"},{"type":"function","name":"BASE_KAIAK","inputs":[],"outputs":[{"name":"","type":"address","internalType":"address"}],"stateMutability":"view"},{"type":"function","name":"BASE_KAIAK_ELEVATED_MINTER_BURNER","inputs":[],"outputs":[{"name":"","type":"address","internalType":"address"}],"stateMutability":"view"},{"type":"function","name":"BASE_LZ_ENDPOINT","inputs":[],"outputs":[{"name":"","type":"address","internalType":"address"}],"stateMutability":"view"},{"type":"function","name":"BASE_M0CK_WKAIA","inputs":[],"outputs":[{"name":"","type":"address","internalType":"address"}],"stateMutability":"view"},{"type":"function","name":"BASE_MOCK_USDT","inputs":[],"outputs":[{"name":"","type":"address","internalType":"address"}],"stateMutability":"view"},{"type":"function","name":"BASE_MOCK_USDT_ELEVATED_MINTER_BURNER","inputs":[],"outputs":[{"name":"","type":"address","internalType":"address"}],"stateMutability":"view"},{"type":"function","name":"BASE_MOCK_WKAIA_ELEVATED_MINTER_BURNER","inputs":[],"outputs":[{"name":"","type":"address","internalType":"address"}],"stateMutability":"view"},{"type":"function","name":"BASE_OFT_KAIAK_ADAPTER","inputs":[],"outputs":[{"name":"","type":"address","internalType":"address"}],"stateMutability":"view"},{"type":"function","name":"BASE_OFT_MOCK_USDT_ADAPTER","inputs":[],"outputs":[{"name":"","type":"address","internalType":"address"}],"stateMutability":"view"},{"type":"function","name":"BASE_OFT_MOCK_WKAIA_ADAPTER","inputs":[],"outputs":[{"name":"","type":"address","internalType":"address"}],"stateMutability":"view"},{"type":"function","name":"BASE_OFT_USDTK_ADAPTER","inputs":[],"outputs":[{"name":"","type":"address","internalType":"address"}],"stateMutability":"view"},{"type":"function","name":"BASE_OFT_WBTCK_ADAPTER","inputs":[],"outputs":[{"name":"","type":"address","internalType":"address"}],"stateMutability":"view"},{"type":"function","name":"BASE_OFT_WETHK_ADAPTER","inputs":[],"outputs":[{"name":"","type":"address","internalType":"address"}],"stateMutability":"view"},{"type":"function","name":"BASE_OFT_WKAIAK_ADAPTER","inputs":[],"outputs":[{"name":"","type":"address","internalType":"address"}],"stateMutability":"view"},{"type":"function","name":"BASE_RECEIVE_LIB","inputs":[],"outputs":[{"name":"","type":"address","internalType":"address"}],"stateMutability":"view"},{"type":"function","name":"BASE_SEND_LIB","inputs":[],"outputs":[{"name":"","type":"address","internalType":"address"}],"stateMutability":"view"},{"type":"function","name":"BASE_USDT","inputs":[],"outputs":[{"name":"","type":"address","internalType":"address"}],"stateMutability":"view"},{"type":"function","name":"BASE_USDTK","inputs":[],"outputs":[{"name":"","type":"address","internalType":"address"}],"stateMutability":"view"},{"type":"function","name":"BASE_USDTK_ELEVATED_MINTER_BURNER","inputs":[],"outputs":[{"name":"","type":"address","internalType":"address"}],"stateMutability":"view"},{"type":"function","name":"BASE_WBTC","inputs":[],"outputs":[{"name":"","type":"address","internalType":"address"}],"stateMutability":"view"},{"type":"function","name":"BASE_WBTCK","inputs":[],"outputs":[{"name":"","type":"address","internalType":"address"}],"stateMutability":"view"},{"type":"function","name":"BASE_WBTCK_ELEVATED_MINTER_BURNER","inputs":[],"outputs":[{"name":"","type":"address","internalType":"address"}],"stateMutability":"view"},{"type":"function","name":"BASE_WETH","inputs":[],"outputs":[{"name":"","type":"address","internalType":"address"}],"stateMutability":"view"},{"type":"function","name":"BASE_WETHK","inputs":[],"outputs":[{"name":"","type":"address","internalType":"address"}],"stateMutability":"view"},{"type":"function","name":"BASE_WETHK_ELEVATED_MINTER_BURNER","inputs":[],"outputs":[{"name":"","type":"address","internalType":"address"}],"stateMutability":"view"},{"type":"function","name":"BASE_WKAIAK","inputs":[],"outputs":[{"name":"","type":"address","internalType":"address"}],"stateMutability":"view"},{"type":"function","name":"BASE_WKAIAK_ELEVATED_MINTER_BURNER","inputs":[],"outputs":[{"name":"","type":"address","internalType":"address"}],"stateMutability":"view"},{"type":"function","name":"KAIA_DVN1","inputs":[],"outputs":[{"name":"","type":"address","internalType":"address"}],"stateMutability":"view"},{"type":"function","name":"KAIA_DVN2","inputs":[],"outputs":[{"name":"","type":"address","internalType":"address"}],"stateMutability":"view"},{"type":"function","name":"KAIA_DVN3","inputs":[],"outputs":[{"name":"","type":"address","internalType":"address"}],"stateMutability":"view"},{"type":"function","name":"KAIA_EID","inputs":[],"outputs":[{"name":"","type":"uint32","internalType":"uint32"}],"stateMutability":"view"},{"type":"function","name":"KAIA_EXECUTOR","inputs":[],"outputs":[{"name":"","type":"address","internalType":"address"}],"stateMutability":"view"},{"type":"function","name":"KAIA_HELPER_UTILS","inputs":[],"outputs":[{"name":"","type":"address","internalType":"address"}],"stateMutability":"view"},{"type":"function","name":"KAIA_KAIA","inputs":[],"outputs":[{"name":"","type":"address","internalType":"address"}],"stateMutability":"view"},{"type":"function","name":"KAIA_LZ_ENDPOINT","inputs":[],"outputs":[{"name":"","type":"address","internalType":"address"}],"stateMutability":"view"},{"type":"function","name":"KAIA_MOCK_USDT","inputs":[],"outputs":[{"name":"","type":"address","internalType":"address"}],"stateMutability":"view"},{"type":"function","name":"KAIA_MOCK_USDT_ELEVATED_MINTER_BURNER","inputs":[],"outputs":[{"name":"","type":"address","internalType":"address"}],"stateMutability":"view"},{"type":"function","name":"KAIA_MOCK_WKAIA","inputs":[],"outputs":[{"name":"","type":"address","internalType":"address"}],"stateMutability":"view"},{"type":"function","name":"KAIA_MOCK_WKAIA_ELEVATED_MINTER_BURNER","inputs":[],"outputs":[{"name":"","type":"address","internalType":"address"}],"stateMutability":"view"},{"type":"function","name":"KAIA_OFT_MOCK_USDT_ADAPTER","inputs":[],"outputs":[{"name":"","type":"address","internalType":"address"}],"stateMutability":"view"},{"type":"function","name":"KAIA_OFT_MOCK_WKAIA_ADAPTER","inputs":[],"outputs":[{"name":"","type":"address","internalType":"address"}],"stateMutability":"view"},{"type":"function","name":"KAIA_OFT_USDT_ADAPTER","inputs":[],"outputs":[{"name":"","type":"address","internalType":"address"}],"stateMutability":"view"},{"type":"function","name":"KAIA_OFT_USDT_STARGATE_ADAPTER","inputs":[],"outputs":[{"name":"","type":"address","internalType":"address"}],"stateMutability":"view"},{"type":"function","name":"KAIA_OFT_WBTC_ADAPTER","inputs":[],"outputs":[{"name":"","type":"address","internalType":"address"}],"stateMutability":"view"},{"type":"function","name":"KAIA_OFT_WETH_ADAPTER","inputs":[],"outputs":[{"name":"","type":"address","internalType":"address"}],"stateMutability":"view"},{"type":"function","name":"KAIA_OFT_WKAIA_ADAPTER","inputs":[],"outputs":[{"name":"","type":"address","internalType":"address"}],"stateMutability":"view"},{"type":"function","name":"KAIA_RECEIVE_LIB","inputs":[],"outputs":[{"name":"","type":"address","internalType":"address"}],"stateMutability":"view"},{"type":"function","name":"KAIA_SEND_LIB","inputs":[],"outputs":[{"name":"","type":"address","internalType":"address"}],"stateMutability":"view"},{"type":"function","name":"KAIA_USDT","inputs":[],"outputs":[{"name":"","type":"address","internalType":"address"}],"stateMutability":"view"},{"type":"function","name":"KAIA_USDT_STARGATE","inputs":[],"outputs":[{"name":"","type":"address","internalType":"address"}],"stateMutability":"view"},{"type":"function","name":"KAIA_WBTC","inputs":[],"outputs":[{"name":"","type":"address","internalType":"address"}],"stateMutability":"view"},{"type":"function","name":"KAIA_WETH","inputs":[],"outputs":[{"name":"","type":"address","internalType":"address"}],"stateMutability":"view"},{"type":"function","name":"KAIA_WKAIA","inputs":[],"outputs":[{"name":"","type":"address","internalType":"address"}],"stateMutability":"view"},{"type":"function","name":"KAIA_btc_usdt_adapter","inputs":[],"outputs":[{"name":"","type":"address","internalType":"address"}],"stateMutability":"view"},{"type":"function","name":"KAIA_eth_usdt_adapter","inputs":[],"outputs":[{"name":"","type":"address","internalType":"address"}],"stateMutability":"view"},{"type":"function","name":"KAIA_isHealthy","inputs":[],"outputs":[{"name":"","type":"address","internalType":"address"}],"stateMutability":"view"},{"type":"function","name":"KAIA_kaia_usdt_adapter","inputs":[],"outputs":[{"name":"","type":"address","internalType":"address"}],"stateMutability":"view"},{"type":"function","name":"KAIA_lendingPoolDeployer","inputs":[],"outputs":[{"name":"","type":"address","internalType":"address"}],"stateMutability":"view"},{"type":"function","name":"KAIA_lendingPoolFactoryProxy","inputs":[],"outputs":[{"name":"","type":"address","internalType":"address"}],"stateMutability":"view"},{"type":"function","name":"KAIA_lendingPoolImplementation","inputs":[],"outputs":[{"name":"","type":"address","internalType":"address"}],"stateMutability":"view"},{"type":"function","name":"KAIA_lendingPoolRouterDeployer","inputs":[],"outputs":[{"name":"","type":"address","internalType":"address"}],"stateMutability":"view"},{"type":"function","name":"KAIA_liquidator","inputs":[],"outputs":[{"name":"","type":"address","internalType":"address"}],"stateMutability":"view"},{"type":"function","name":"KAIA_positionDeployer","inputs":[],"outputs":[{"name":"","type":"address","internalType":"address"}],"stateMutability":"view"},{"type":"function","name":"KAIA_protocol","inputs":[],"outputs":[{"name":"","type":"address","internalType":"address"}],"stateMutability":"view"},{"type":"function","name":"KAIA_usdt_usd_adapter","inputs":[],"outputs":[{"name":"","type":"address","internalType":"address"}],"stateMutability":"view"},{"type":"function","name":"btc_usdt","inputs":[],"outputs":[{"name":"","type":"address","internalType":"address"}],"stateMutability":"view"},{"type":"function","name":"eth_usdt","inputs":[],"outputs":[{"name":"","type":"address","internalType":"address"}],"stateMutability":"view"},{"type":"function","name":"kaia_usdt","inputs":[],"outputs":[{"name":"","type":"address","internalType":"address"}],"stateMutability":"view"},{"type":"function","name":"usdt_usd","inputs":[],"outputs":[{"name":"","type":"address","internalType":"address"}],"stateMutability":"view"}],"bytecode":{"object":"0x6080604052731a44076050125825900e736c501f859c50fe728c5f5f6101000a81548173ffffffffffffffffffffffffffffffffffffffff021916908373ffffffffffffffffffffffffffffffffffffffff160217905550731a44076050125825900e736c501f859c50fe728c60015f6101000a81548173ffffffffffffffffffffffffffffffffffffffff021916908373ffffffffffffffffffffffffffffffffffffffff16021790555073b5320b0b3a13cc860893e2bd79fcd7e13484dda260025f6101000a81548173ffffffffffffffffffffffffffffffffffffffff021916908373ffffffffffffffffffffffffffffffffffffffff160217905550739714ccf1dedef14bab5013625db92746c1358cb460035f6101000a81548173ffffffffffffffffffffffffffffffffffffffff021916908373ffffffffffffffffffffffffffffffffffffffff16021790555073c70ab6f32772f59fbfc23889caf4ba3376c84baf60045f6101000a81548173ffffffffffffffffffffffffffffffffffffffff021916908373ffffffffffffffffffffffffffffffffffffffff16021790555073937aba873827bf883ced83ca557697427eaa46ee60055f6101000a81548173ffffffffffffffffffffffffffffffffffffffff021916908373ffffffffffffffffffffffffffffffffffffffff1602179055506175e8600560146101000a81548163ffffffff021916908363ffffffff1602179055506175c6600560186101000a81548163ffffffff021916908363ffffffff16021790555073554833698ae0fb22ecc90b01222903fd62ca4b4760065f6101000a81548173ffffffffffffffffffffffffffffffffffffffff021916908373ffffffffffffffffffffffffffffffffffffffff16021790555073a7b5189bca84cd304d8553977c7c614329750d9960075f6101000a81548173ffffffffffffffffffffffffffffffffffffffff021916908373ffffffffffffffffffffffffffffffffffffffff160217905550739e059a54699a285714207b43b055483e78faac2560085f6101000a81548173ffffffffffffffffffffffffffffffffffffffff021916908373ffffffffffffffffffffffffffffffffffffffff160217905550731154d04d07aee26ff2c200bd373eb76a7e5694d660095f6101000a81548173ffffffffffffffffffffffffffffffffffffffff021916908373ffffffffffffffffffffffffffffffffffffffff16021790555073acde1f22eeab249d3ca6ba8805c8fee9f52a16e7600a5f6101000a81548173ffffffffffffffffffffffffffffffffffffffff021916908373ffffffffffffffffffffffffffffffffffffffff16021790555073c80233ad8251e668becbc3b0415707fc7075501e600b5f6101000a81548173ffffffffffffffffffffffffffffffffffffffff021916908373ffffffffffffffffffffffffffffffffffffffff160217905550732cca08ae69e0c44b18a57ab2a87644234daebae4600c5f6101000a81548173ffffffffffffffffffffffffffffffffffffffff021916908373ffffffffffffffffffffffffffffffffffffffff16021790555073e149187a987f129fd3d397ed04a60b0b89d1669f600d5f6101000a81548173ffffffffffffffffffffffffffffffffffffffff021916908373ffffffffffffffffffffffffffffffffffffffff16021790555073d077a400968890eacc75cdc901f0356c943e4fdb600e5f6101000a81548173ffffffffffffffffffffffffffffffffffffffff021916908373ffffffffffffffffffffffffffffffffffffffff160217905550739025095263d1e548dc890a7589a4c78038ac40ab600f5f6101000a81548173ffffffffffffffffffffffffffffffffffffffff021916908373ffffffffffffffffffffffffffffffffffffffff160217905550600160105f6101000a81548173ffffffffffffffffffffffffffffffffffffffff021916908373ffffffffffffffffffffffffffffffffffffffff1602179055507319aac5f612f524b754ca7e7c41cbfa2e981a443260115f6101000a81548173ffffffffffffffffffffffffffffffffffffffff021916908373ffffffffffffffffffffffffffffffffffffffff1602179055507398a8345bb9d3dda9d808ca1c9142a28f6b0430e160125f6101000a81548173ffffffffffffffffffffffffffffffffffffffff021916908373ffffffffffffffffffffffffffffffffffffffff16021790555073981846be8d2d697f4dfef6689a161a25ffbab8f960135f6101000a81548173ffffffffffffffffffffffffffffffffffffffff021916908373ffffffffffffffffffffffffffffffffffffffff16021790555073fde4c96c8593536e31f229ea8f37b2ada2699bb260145f6101000a81548173ffffffffffffffffffffffffffffffffffffffff021916908373ffffffffffffffffffffffffffffffffffffffff16021790555073420000000000000000000000000000000000000660165f6101000a81548173ffffffffffffffffffffffffffffffffffffffff021916908373ffffffffffffffffffffffffffffffffffffffff160217905550730555e30da8f98308edb960aa94c0db47230d2b9c60175f6101000a81548173ffffffffffffffffffffffffffffffffffffffff021916908373ffffffffffffffffffffffffffffffffffffffff16021790555073df05e9abf64da281b3cbd8ac3581022ec4841fb260185f6101000a81548173ffffffffffffffffffffffffffffffffffffffff021916908373ffffffffffffffffffffffffffffffffffffffff1602179055507304c37dc1b538e00b31e6bc883e16d97cd7937a1060195f6101000a81548173ffffffffffffffffffffffffffffffffffffffff021916908373ffffffffffffffffffffffffffffffffffffffff1602179055507315858a57854bbf0df60a737811d50e1ee785f9bc601a5f6101000a81548173ffffffffffffffffffffffffffffffffffffffff021916908373ffffffffffffffffffffffffffffffffffffffff160217905550734ba8d8083e7f3652ccb084c32652e68566e9ef23601b5f6101000a81548173ffffffffffffffffffffffffffffffffffffffff021916908373ffffffffffffffffffffffffffffffffffffffff160217905550727f735fd070ded4b0b58d430c392ff0190ec20f601c5f6101000a81548173ffffffffffffffffffffffffffffffffffffffff021916908373ffffffffffffffffffffffffffffffffffffffff16021790555073ceb5c8903060197e46ab5ea5087b9f99cbc8da49601d5f6101000a81548173ffffffffffffffffffffffffffffffffffffffff021916908373ffffffffffffffffffffffffffffffffffffffff160217905550737c9cf703903680ae5eb6ec2bb2bebb1ec751918a601e5f6101000a81548173ffffffffffffffffffffffffffffffffffffffff021916908373ffffffffffffffffffffffffffffffffffffffff160217905550735e6671ef689b2b2d4391a766b0486e5054136546601f5f6101000a81548173ffffffffffffffffffffffffffffffffffffffff021916908373ffffffffffffffffffffffffffffffffffffffff16021790555073684a2aaf3d98bc8ed2c07988e8da9023026ad51160205f6101000a81548173ffffffffffffffffffffffffffffffffffffffff021916908373ffffffffffffffffffffffffffffffffffffffff16021790555073c160a1bcf0c79a6fc5b0f015bfaaa9a6cda3568760215f6101000a81548173ffffffffffffffffffffffffffffffffffffffff021916908373ffffffffffffffffffffffffffffffffffffffff16021790555073cdec0d768e43090a9eec47d87d8165e9fa78b20460225f6101000a81548173ffffffffffffffffffffffffffffffffffffffff021916908373ffffffffffffffffffffffffffffffffffffffff16021790555073c3be8ab4ca0cefe3119a765b324bbdf54a16a65b60235f6101000a81548173ffffffffffffffffffffffffffffffffffffffff021916908373ffffffffffffffffffffffffffffffffffffffff16021790555073e2e025ff8a8adb2561e3c631b5a03842b9a1ae8860245f6101000a81548173ffffffffffffffffffffffffffffffffffffffff021916908373ffffffffffffffffffffffffffffffffffffffff160217905550735e6aad48fb0a23e9540a5eaffb87846e8ef04c4260255f6101000a81548173ffffffffffffffffffffffffffffffffffffffff021916908373ffffffffffffffffffffffffffffffffffffffff1602179055507346da9f76c20a752132ddaefd2b14870e0a152d7160265f6101000a81548173ffffffffffffffffffffffffffffffffffffffff021916908373ffffffffffffffffffffffffffffffffffffffff16021790555073c72f2eb4a97f19ecd0c10b5201676a10b6d8bb6760275f6101000a81548173ffffffffffffffffffffffffffffffffffffffff021916908373ffffffffffffffffffffffffffffffffffffffff1602179055507346638ad472507482b7d5ba45124e93d16bc97ece60285f6101000a81548173ffffffffffffffffffffffffffffffffffffffff021916908373ffffffffffffffffffffffffffffffffffffffff160217905550733703a1da99a2bdf2d8ce57802aacb20fb546ff1260295f6101000a81548173ffffffffffffffffffffffffffffffffffffffff021916908373ffffffffffffffffffffffffffffffffffffffff160217905550734900409aabecd5de4ab22d61cdec4b7478783806602a5f6101000a81548173ffffffffffffffffffffffffffffffffffffffff021916908373ffffffffffffffffffffffffffffffffffffffff16021790555073b9b3a1baa8cf4c5cd6b4d132ed7b0cbe05646f6f602b5f6101000a81548173ffffffffffffffffffffffffffffffffffffffff021916908373ffffffffffffffffffffffffffffffffffffffff16021790555073394239573079a46e438ea6d118fd96d37a61f270602c5f6101000a81548173ffffffffffffffffffffffffffffffffffffffff021916908373ffffffffffffffffffffffffffffffffffffffff1602179055507354f6ff27093fc45c5a39083c3ef0260d25012be3602d5f6101000a81548173ffffffffffffffffffffffffffffffffffffffff021916908373ffffffffffffffffffffffffffffffffffffffff16021790555073b0fca55167f94d0f515877c411e0deb904321761602e5f6101000a81548173ffffffffffffffffffffffffffffffffffffffff021916908373ffffffffffffffffffffffffffffffffffffffff16021790555073ec32cc0267002618c339274c18ad48d2bf2a9c7e602f5f6101000a81548173ffffffffffffffffffffffffffffffffffffffff021916908373ffffffffffffffffffffffffffffffffffffffff16021790555073fbc915dc39654b52b2e9284fb966c79a1071ea3a60305f6101000a81548173ffffffffffffffffffffffffffffffffffffffff021916908373ffffffffffffffffffffffffffffffffffffffff160217905550736a58615739b0fc710e6a380e893e672968e30b5f60315f6101000a81548173ffffffffffffffffffffffffffffffffffffffff021916908373ffffffffffffffffffffffffffffffffffffffff160217905550737bb55d2d27194a25517f8a47cdaf227fd413dca660325f6101000a81548173ffffffffffffffffffffffffffffffffffffffff021916908373ffffffffffffffffffffffffffffffffffffffff1602179055507326991986aec6748f439940949b7487341800638360335f6101000a81548173ffffffffffffffffffffffffffffffffffffffff021916908373ffffffffffffffffffffffffffffffffffffffff16021790555073560bd1836c348c4a10eed7008e68ae58228dd11760345f6101000a81548173ffffffffffffffffffffffffffffffffffffffff021916908373ffffffffffffffffffffffffffffffffffffffff16021790555073f3f7c9320b0dbf780092daaab740b7b85552225860355f6101000a81548173ffffffffffffffffffffffffffffffffffffffff021916908373ffffffffffffffffffffffffffffffffffffffff16021790555073943fcc03799400a672a8f82907d3a320fa76efc160365f6101000a81548173ffffffffffffffffffffffffffffffffffffffff021916908373ffffffffffffffffffffffffffffffffffffffff160217905550739eaa6ec9e0b55948309eb320166312cb0807b6de60375f6101000a81548173ffffffffffffffffffffffffffffffffffffffff021916908373ffffffffffffffffffffffffffffffffffffffff16021790555073a7c4c292ed720b1318f415b106a443dc1f05299460385f6101000a81548173ffffffffffffffffffffffffffffffffffffffff021916908373ffffffffffffffffffffffffffffffffffffffff160217905550739254cd72f207cc231a2307eac5e4bfa316eb0c2e60395f6101000a81548173ffffffffffffffffffffffffffffffffffffffff021916908373ffffffffffffffffffffffffffffffffffffffff16021790555073bf61f1f8d45ecb33006a335e7c76f306689dcaab603a5f6101000a81548173ffffffffffffffffffffffffffffffffffffffff021916908373ffffffffffffffffffffffffffffffffffffffff16021790555073624c060ea3fe93321e40530f3f7e587545d594aa603b5f6101000a81548173ffffffffffffffffffffffffffffffffffffffff021916908373ffffffffffffffffffffffffffffffffffffffff16021790555073c72f2eb4a97f19ecd0c10b5201676a10b6d8bb67603c5f6101000a81548173ffffffffffffffffffffffffffffffffffffffff021916908373ffffffffffffffffffffffffffffffffffffffff1602179055507346638ad472507482b7d5ba45124e93d16bc97ece603d5f6101000a81548173ffffffffffffffffffffffffffffffffffffffff021916908373ffffffffffffffffffffffffffffffffffffffff16021790555073dbbb07e1ae9d0f23ac6da9bdda3dff96fca73650603e5f6101000a81548173ffffffffffffffffffffffffffffffffffffffff021916908373ffffffffffffffffffffffffffffffffffffffff160217905550733703a1da99a2bdf2d8ce57802aacb20fb546ff12603f5f6101000a81548173ffffffffffffffffffffffffffffffffffffffff021916908373ffffffffffffffffffffffffffffffffffffffff16021790555073530f48df8e4d60bbf9bbcfe8cf584344514af19360405f6101000a81548173ffffffffffffffffffffffffffffffffffffffff021916908373ffffffffffffffffffffffffffffffffffffffff16021790555073057852e8211698a22953e0343aae24e446ecf10560415f6101000a81548173ffffffffffffffffffffffffffffffffffffffff021916908373ffffffffffffffffffffffffffffffffffffffff160217905550731385df17f009f88e6ca1380798bf20b0669c8ee060425f6101000a81548173ffffffffffffffffffffffffffffffffffffffff021916908373ffffffffffffffffffffffffffffffffffffffff16021790555073d8d5edce9f0e3544d2a712818232fda7502ba1a660435f6101000a81548173ffffffffffffffffffffffffffffffffffffffff021916908373ffffffffffffffffffffffffffffffffffffffff16021790555073677f0172ff3e8eef477ce811ed57a85b8d8a3bda60445f6101000a81548173ffffffffffffffffffffffffffffffffffffffff021916908373ffffffffffffffffffffffffffffffffffffffff1602179055507360377628d1733fe0fb64d8b84466b461974da60a60455f6101000a81548173ffffffffffffffffffffffffffffffffffffffff021916908373ffffffffffffffffffffffffffffffffffffffff16021790555073c28446267b3c9a733d6c7419535b883908e5581360465f6101000a81548173ffffffffffffffffffffffffffffffffffffffff021916908373ffffffffffffffffffffffffffffffffffffffff16021790555073a971cd2714fbcc9a942b09bc391a724df933820660475f6101000a81548173ffffffffffffffffffffffffffffffffffffffff021916908373ffffffffffffffffffffffffffffffffffffffff160217905550733de8c22f6b84c575429c1b9cbf5bddd49cf129fc60485f6101000a81548173ffffffffffffffffffffffffffffffffffffffff021916908373ffffffffffffffffffffffffffffffffffffffff1602179055503480156117e0575f5ffd5b50611892806117ee5f395ff3fe608060405234801561000f575f5ffd5b5060043610610447575f3560e01c8063709b90361161023f578063b53b808e11610139578063de439f50116100c1578063e593399811610085578063e593399814610c7f578063eb3789bb14610c9d578063ef54f8bf14610cbb578063f5e0324914610cd9578063fa9be36714610cf757610447565b8063de439f5014610be9578063e100143214610c07578063e1e1001614610c25578063e415479914610c43578063e5120c4714610c6157610447565b8063cd3cdfe111610108578063cd3cdfe114610b53578063cea9072814610b71578063cf5397f014610b8f578063d1e4fa4514610bad578063d4c7308314610bcb57610447565b8063b53b808e14610adb578063c399af8314610af9578063ca4b481c14610b17578063cacee45c14610b3557610447565b8063a016a1d7116101c7578063ac7fb1b71161018b578063ac7fb1b714610a45578063b07e429714610a63578063b12715e914610a81578063b430bac514610a9f578063b4fa069414610abd57610447565b8063a016a1d7146109af578063a7b395f2146109cd578063aa3e440c146109eb578063aaf0e6eb14610a09578063ab562ddd14610a2757610447565b806386cfc33e1161020e57806386cfc33e146109195780638c602498146109375780638fd510cc1461095557806390df5b1a1461097357806399a68b601461099157610447565b8063709b9036146108a15780637262047e146108bf5780637ab982a1146108dd57806380b6403b146108fb57610447565b80632fa9966611610350578063511856cd116102d857806360c884a21161029c57806360c884a21461080b57806362630ea514610829578063634a8eee1461084757806366fc865f1461086557806367406d421461088357610447565b8063511856cd14610775578063529f0d50146107935780635a432080146107b15780635ac6d96d146107cf5780635d9fb53d146107ed57610447565b80633cdda0291161031f5780633cdda029146106df578063406aea4a146106fd5780634190110d1461071b578063450036c91461073957806348d8d4551461075757610447565b80632fa996661461066757806335d333ce146106855780633a7fefb6146106a35780633bcbf719146106c157610447565b806316c67bab116103d35780631bc97a72116103a25780631bc97a72146105d15780631d4f0841146105ef57806321f564bc1461060d5780632a715dd71461062b5780632b484acb1461064957610447565b806316c67bab1461055957806317fa55501461057757806318567e88146105955780631aa6361c146105b357610447565b806307e247621161041a57806307e24762146104c357806307f3afb7146104e15780630b54fe1e146104ff5780630efe7e8c1461051d57806315f88c921461053b57610447565b806301ed58f11461044b57806303f8f8c714610469578063041412b21461048757806304ee322c146104a5575b5f5ffd5b610453610d15565b604051610460919061180c565b60405180910390f35b610471610d3a565b60405161047e919061180c565b60405180910390f35b61048f610d5f565b60405161049c919061180c565b60405180910390f35b6104ad610d84565b6040516104ba919061180c565b60405180910390f35b6104cb610da9565b6040516104d8919061180c565b60405180910390f35b6104e9610dce565b6040516104f6919061180c565b60405180910390f35b610507610df3565b604051610514919061180c565b60405180910390f35b610525610e18565b604051610532919061180c565b60405180910390f35b610543610e3d565b6040516105509190611843565b60405180910390f35b610561610e53565b60405161056e919061180c565b60405180910390f35b61057f610e78565b60405161058c919061180c565b60405180910390f35b61059d610e9d565b6040516105aa9190611843565b60405180910390f35b6105bb610eb3565b6040516105c8919061180c565b60405180910390f35b6105d9610ed8565b6040516105e6919061180c565b60405180910390f35b6105f7610efd565b604051610604919061180c565b60405180910390f35b610615610f22565b604051610622919061180c565b60405180910390f35b610633610f47565b604051610640919061180c565b60405180910390f35b610651610f6c565b60405161065e919061180c565b60405180910390f35b61066f610f91565b60405161067c919061180c565b60405180910390f35b61068d610fb6565b60405161069a919061180c565b60405180910390f35b6106ab610fdb565b6040516106b8919061180c565b60405180910390f35b6106c9611000565b6040516106d6919061180c565b60405180910390f35b6106e7611025565b6040516106f4919061180c565b60405180910390f35b61070561104a565b604051610712919061180c565b60405180910390f35b61072361106f565b604051610730919061180c565b60405180910390f35b610741611094565b60405161074e919061180c565b60405180910390f35b61075f6110b9565b60405161076c919061180c565b60405180910390f35b61077d6110de565b60405161078a919061180c565b60405180910390f35b61079b611103565b6040516107a8919061180c565b60405180910390f35b6107b9611128565b6040516107c6919061180c565b60405180910390f35b6107d761114d565b6040516107e4919061180c565b60405180910390f35b6107f5611172565b604051610802919061180c565b60405180910390f35b610813611197565b604051610820919061180c565b60405180910390f35b6108316111bc565b60405161083e919061180c565b60405180910390f35b61084f6111e1565b60405161085c919061180c565b60405180910390f35b61086d611206565b60405161087a919061180c565b60405180910390f35b61088b61122b565b604051610898919061180c565b60405180910390f35b6108a9611250565b6040516108b6919061180c565b60405180910390f35b6108c7611275565b6040516108d4919061180c565b60405180910390f35b6108e561129a565b6040516108f2919061180c565b60405180910390f35b6109036112bf565b604051610910919061180c565b60405180910390f35b6109216112e4565b60405161092e919061180c565b60405180910390f35b61093f611309565b60405161094c919061180c565b60405180910390f35b61095d61132e565b60405161096a919061180c565b60405180910390f35b61097b611353565b604051610988919061180c565b60405180910390f35b610999611378565b6040516109a6919061180c565b60405180910390f35b6109b761139d565b6040516109c4919061180c565b60405180910390f35b6109d56113c2565b6040516109e2919061180c565b60405180910390f35b6109f36113e7565b604051610a00919061180c565b60405180910390f35b610a1161140c565b604051610a1e919061180c565b60405180910390f35b610a2f611431565b604051610a3c919061180c565b60405180910390f35b610a4d611456565b604051610a5a919061180c565b60405180910390f35b610a6b61147b565b604051610a78919061180c565b60405180910390f35b610a896114a0565b604051610a96919061180c565b60405180910390f35b610aa76114c5565b604051610ab4919061180c565b60405180910390f35b610ac56114ea565b604051610ad2919061180c565b60405180910390f35b610ae361150f565b604051610af0919061180c565b60405180910390f35b610b01611534565b604051610b0e919061180c565b60405180910390f35b610b1f611559565b604051610b2c919061180c565b60405180910390f35b610b3d61157e565b604051610b4a919061180c565b60405180910390f35b610b5b6115a3565b604051610b68919061180c565b60405180910390f35b610b796115c8565b604051610b86919061180c565b60405180910390f35b610b976115ed565b604051610ba4919061180c565b60405180910390f35b610bb5611612565b604051610bc2919061180c565b60405180910390f35b610bd3611637565b604051610be0919061180c565b60405180910390f35b610bf161165c565b604051610bfe919061180c565b60405180910390f35b610c0f611681565b604051610c1c919061180c565b60405180910390f35b610c2d6116a5565b604051610c3a919061180c565b60405180910390f35b610c4b6116ca565b604051610c58919061180c565b60405180910390f35b610c696116ef565b604051610c76919061180c565b60405180910390f35b610c87611714565b604051610c94919061180c565b60405180910390f35b610ca5611739565b604051610cb2919061180c565b60405180910390f35b610cc361175e565b604051610cd0919061180c565b60405180910390f35b610ce1611783565b604051610cee919061180c565b60405180910390f35b610cff6117a8565b604051610d0c919061180c565b60405180910390f35b602c5f9054906101000a900473ffffffffffffffffffffffffffffffffffffffff1681565b602f5f9054906101000a900473ffffffffffffffffffffffffffffffffffffffff1681565b60425f9054906101000a900473ffffffffffffffffffffffffffffffffffffffff1681565b60245f9054906101000a900473ffffffffffffffffffffffffffffffffffffffff1681565b601b5f9054906101000a900473ffffffffffffffffffffffffffffffffffffffff1681565b60315f9054906101000a900473ffffffffffffffffffffffffffffffffffffffff1681565b60125f9054906101000a900473ffffffffffffffffffffffffffffffffffffffff1681565b602e5f9054906101000a900473ffffffffffffffffffffffffffffffffffffffff1681565b600560149054906101000a900463ffffffff1681565b601f5f9054906101000a900473ffffffffffffffffffffffffffffffffffffffff1681565b60385f9054906101000a900473ffffffffffffffffffffffffffffffffffffffff1681565b600560189054906101000a900463ffffffff1681565b602a5f9054906101000a900473ffffffffffffffffffffffffffffffffffffffff1681565b602b5f9054906101000a900473ffffffffffffffffffffffffffffffffffffffff1681565b60325f9054906101000a900473ffffffffffffffffffffffffffffffffffffffff1681565b60085f9054906101000a900473ffffffffffffffffffffffffffffffffffffffff1681565b600e5f9054906101000a900473ffffffffffffffffffffffffffffffffffffffff1681565b60435f9054906101000a900473ffffffffffffffffffffffffffffffffffffffff1681565b600a5f9054906101000a900473ffffffffffffffffffffffffffffffffffffffff1681565b602d5f9054906101000a900473ffffffffffffffffffffffffffffffffffffffff1681565b60445f9054906101000a900473ffffffffffffffffffffffffffffffffffffffff1681565b603c5f9054906101000a900473ffffffffffffffffffffffffffffffffffffffff1681565b60035f9054906101000a900473ffffffffffffffffffffffffffffffffffffffff1681565b60255f9054906101000a900473ffffffffffffffffffffffffffffffffffffffff1681565b60075f9054906101000a900473ffffffffffffffffffffffffffffffffffffffff1681565b60105f9054906101000a900473ffffffffffffffffffffffffffffffffffffffff1681565b60015f9054906101000a900473ffffffffffffffffffffffffffffffffffffffff1681565b60215f9054906101000a900473ffffffffffffffffffffffffffffffffffffffff1681565b60045f9054906101000a900473ffffffffffffffffffffffffffffffffffffffff1681565b60355f9054906101000a900473ffffffffffffffffffffffffffffffffffffffff1681565b600c5f9054906101000a900473ffffffffffffffffffffffffffffffffffffffff1681565b60225f9054906101000a900473ffffffffffffffffffffffffffffffffffffffff1681565b60415f9054906101000a900473ffffffffffffffffffffffffffffffffffffffff1681565b60465f9054906101000a900473ffffffffffffffffffffffffffffffffffffffff1681565b60185f9054906101000a900473ffffffffffffffffffffffffffffffffffffffff1681565b603e5f9054906101000a900473ffffffffffffffffffffffffffffffffffffffff1681565b60115f9054906101000a900473ffffffffffffffffffffffffffffffffffffffff1681565b60145f9054906101000a900473ffffffffffffffffffffffffffffffffffffffff1681565b603f5f9054906101000a900473ffffffffffffffffffffffffffffffffffffffff1681565b603a5f9054906101000a900473ffffffffffffffffffffffffffffffffffffffff1681565b60195f9054906101000a900473ffffffffffffffffffffffffffffffffffffffff1681565b60345f9054906101000a900473ffffffffffffffffffffffffffffffffffffffff1681565b60305f9054906101000a900473ffffffffffffffffffffffffffffffffffffffff1681565b60055f9054906101000a900473ffffffffffffffffffffffffffffffffffffffff1681565b601e5f9054906101000a900473ffffffffffffffffffffffffffffffffffffffff1681565b603d5f9054906101000a900473ffffffffffffffffffffffffffffffffffffffff1681565b601a5f9054906101000a900473ffffffffffffffffffffffffffffffffffffffff1681565b601d5f9054906101000a900473ffffffffffffffffffffffffffffffffffffffff1681565b60405f9054906101000a900473ffffffffffffffffffffffffffffffffffffffff1681565b601c5f9054906101000a900473ffffffffffffffffffffffffffffffffffffffff1681565b600b5f9054906101000a900473ffffffffffffffffffffffffffffffffffffffff1681565b60335f9054906101000a900473ffffffffffffffffffffffffffffffffffffffff1681565b60165f9054906101000a900473ffffffffffffffffffffffffffffffffffffffff1681565b60275f9054906101000a900473ffffffffffffffffffffffffffffffffffffffff1681565b600f5f9054906101000a900473ffffffffffffffffffffffffffffffffffffffff1681565b60365f9054906101000a900473ffffffffffffffffffffffffffffffffffffffff1681565b60205f9054906101000a900473ffffffffffffffffffffffffffffffffffffffff1681565b60395f9054906101000a900473ffffffffffffffffffffffffffffffffffffffff1681565b60485f9054906101000a900473ffffffffffffffffffffffffffffffffffffffff1681565b60475f9054906101000a900473ffffffffffffffffffffffffffffffffffffffff1681565b60455f9054906101000a900473ffffffffffffffffffffffffffffffffffffffff1681565b60095f9054906101000a900473ffffffffffffffffffffffffffffffffffffffff1681565b60285f9054906101000a900473ffffffffffffffffffffffffffffffffffffffff1681565b60265f9054906101000a900473ffffffffffffffffffffffffffffffffffffffff1681565b60025f9054906101000a900473ffffffffffffffffffffffffffffffffffffffff1681565b60155f9054906101000a900473ffffffffffffffffffffffffffffffffffffffff1681565b5f5f9054906101000a900473ffffffffffffffffffffffffffffffffffffffff1681565b603b5f9054906101000a900473ffffffffffffffffffffffffffffffffffffffff1681565b60375f9054906101000a900473ffffffffffffffffffffffffffffffffffffffff1681565b60065f9054906101000a900473ffffffffffffffffffffffffffffffffffffffff1681565b600d5f9054906101000a900473ffffffffffffffffffffffffffffffffffffffff1681565b60135f9054906101000a900473ffffffffffffffffffffffffffffffffffffffff1681565b60295f9054906101000a900473ffffffffffffffffffffffffffffffffffffffff1681565b60235f9054906101000a900473ffffffffffffffffffffffffffffffffffffffff1681565b60175f9054906101000a900473ffffffffffffffffffffffffffffffffffffffff1681565b5f73ffffffffffffffffffffffffffffffffffffffff82169050919050565b5f6117f6826117cd565b9050919050565b611806816117ec565b82525050565b5f60208201905061181f5f8301846117fd565b92915050565b5f63ffffffff82169050919050565b61183d81611825565b82525050565b5f6020820190506118565f830184611834565b9291505056fea264697066735822122008a8806d115d7b002cfe6aa8b6b032803d62e851f0c5ba5819dcf55eb54975a064736f6c634300081c0033","linkReferences":{}},"methodIdentifiers":{"BASE_DVN1()":"e5120c47","BASE_DVN2()":"4190110d","BASE_DVN3()":"21f564bc","BASE_EID()":"15f88c92","BASE_EXECUTOR()":"5ac6d96d","BASE_KAIA()":"de439f50","BASE_KAIAK()":"d1e4fa45","BASE_KAIAK_ELEVATED_MINTER_BURNER()":"b12715e9","BASE_LZ_ENDPOINT()":"e1001432","BASE_M0CK_WKAIA()":"5a432080","BASE_MOCK_USDT()":"1d4f0841","BASE_MOCK_USDT_ELEVATED_MINTER_BURNER()":"ac7fb1b7","BASE_MOCK_WKAIA_ELEVATED_MINTER_BURNER()":"b4fa0694","BASE_OFT_KAIAK_ADAPTER()":"cf5397f0","BASE_OFT_MOCK_USDT_ADAPTER()":"86cfc33e","BASE_OFT_MOCK_WKAIA_ADAPTER()":"e4154799","BASE_OFT_USDTK_ADAPTER()":"406aea4a","BASE_OFT_WBTCK_ADAPTER()":"0efe7e8c","BASE_OFT_WETHK_ADAPTER()":"07f3afb7","BASE_OFT_WKAIAK_ADAPTER()":"1bc97a72","BASE_RECEIVE_LIB()":"529f0d50","BASE_SEND_LIB()":"d4c73083","BASE_USDT()":"709b9036","BASE_USDTK()":"f5e03249","BASE_USDTK_ELEVATED_MINTER_BURNER()":"04ee322c","BASE_WBTC()":"fa9be367","BASE_WBTCK()":"01ed58f1","BASE_WBTCK_ELEVATED_MINTER_BURNER()":"35d333ce","BASE_WETH()":"b07e4297","BASE_WETHK()":"03f8f8c7","BASE_WETHK_ELEVATED_MINTER_BURNER()":"8c602498","BASE_WKAIAK()":"ef54f8bf","BASE_WKAIAK_ELEVATED_MINTER_BURNER()":"1aa6361c","KAIA_DVN1()":"cea90728","KAIA_DVN2()":"2fa99666","KAIA_DVN3()":"ab562ddd","KAIA_EID()":"18567e88","KAIA_EXECUTOR()":"e5933998","KAIA_HELPER_UTILS()":"ca4b481c","KAIA_KAIA()":"450036c9","KAIA_LZ_ENDPOINT()":"48d8d455","KAIA_MOCK_USDT()":"a7b395f2","KAIA_MOCK_USDT_ELEVATED_MINTER_BURNER()":"90df5b1a","KAIA_MOCK_WKAIA()":"b53b808e","KAIA_MOCK_WKAIA_ELEVATED_MINTER_BURNER()":"511856cd","KAIA_OFT_MOCK_USDT_ADAPTER()":"16c67bab","KAIA_OFT_MOCK_WKAIA_ADAPTER()":"5d9fb53d","KAIA_OFT_USDT_ADAPTER()":"634a8eee","KAIA_OFT_USDT_STARGATE_ADAPTER()":"80b6403b","KAIA_OFT_WBTC_ADAPTER()":"07e24762","KAIA_OFT_WETH_ADAPTER()":"aaf0e6eb","KAIA_OFT_WKAIA_ADAPTER()":"a016a1d7","KAIA_RECEIVE_LIB()":"8fd510cc","KAIA_SEND_LIB()":"3cdda029","KAIA_USDT()":"2a715dd7","KAIA_USDT_STARGATE()":"b430bac5","KAIA_WBTC()":"eb3789bb","KAIA_WETH()":"0b54fe1e","KAIA_WKAIA()":"67406d42","KAIA_btc_usdt_adapter()":"7262047e","KAIA_eth_usdt_adapter()":"66fc865f","KAIA_isHealthy()":"60c884a2","KAIA_kaia_usdt_adapter()":"99a68b60","KAIA_lendingPoolDeployer()":"3a7fefb6","KAIA_lendingPoolFactoryProxy()":"cacee45c","KAIA_lendingPoolImplementation()":"62630ea5","KAIA_lendingPoolRouterDeployer()":"cd3cdfe1","KAIA_liquidator()":"aa3e440c","KAIA_positionDeployer()":"041412b2","KAIA_protocol()":"2b484acb","KAIA_usdt_usd_adapter()":"3bcbf719","btc_usdt()":"e1e10016","eth_usdt()":"7ab982a1","kaia_usdt()":"c399af83","usdt_usd()":"17fa5550"},"id":113}