{"abi":[{"type":"function","name":"BASE_DVN1","inputs":[],"outputs":[{"name":"","type":"address","internalType":"address"}],"stateMutability":"view"},{"type":"function","name":"BASE_DVN2","inputs":[],"outputs":[{"name":"","type":"address","internalType":"address"}],"stateMutability":"view"},{"type":"function","name":"BASE_DVN3","inputs":[],"outputs":[{"name":"","type":"address","internalType":"address"}],"stateMutability":"view"},{"type":"function","name":"BASE_EID","inputs":[],"outputs":[{"name":"","type":"uint32","internalType":"uint32"}],"stateMutability":"view"},{"type":"function","name":"BASE_EXECUTOR","inputs":[],"outputs":[{"name":"","type":"address","internalType":"address"}],"stateMutability":"view"},{"type":"function","name":"BASE_KAIA","inputs":[],"outputs":[{"name":"","type":"address","internalType":"address"}],"stateMutability":"view"},{"type":"function","name":"BASE_LZ_ENDPOINT","inputs":[],"outputs":[{"name":"","type":"address","internalType":"address"}],"stateMutability":"view"},{"type":"function","name":"BASE_M0CK_WKAIA","inputs":[],"outputs":[{"name":"","type":"address","internalType":"address"}],"stateMutability":"view"},{"type":"function","name":"BASE_MOCK_USDT","inputs":[],"outputs":[{"name":"","type":"address","internalType":"address"}],"stateMutability":"view"},{"type":"function","name":"BASE_MOCK_USDT_ELEVATED_MINTER_BURNER","inputs":[],"outputs":[{"name":"","type":"address","internalType":"address"}],"stateMutability":"view"},{"type":"function","name":"BASE_MOCK_WKAIA_ELEVATED_MINTER_BURNER","inputs":[],"outputs":[{"name":"","type":"address","internalType":"address"}],"stateMutability":"view"},{"type":"function","name":"BASE_OAPP_ADAPTER","inputs":[],"outputs":[{"name":"","type":"address","internalType":"address"}],"stateMutability":"view"},{"type":"function","name":"BASE_OAPP_SUPPLY_LIQUIDITY_USDT","inputs":[],"outputs":[{"name":"","type":"address","internalType":"address"}],"stateMutability":"view"},{"type":"function","name":"BASE_OFT_MOCK_USDT_ADAPTER","inputs":[],"outputs":[{"name":"","type":"address","internalType":"address"}],"stateMutability":"view"},{"type":"function","name":"BASE_OFT_MOCK_WKAIA_ADAPTER","inputs":[],"outputs":[{"name":"","type":"address","internalType":"address"}],"stateMutability":"view"},{"type":"function","name":"BASE_OFT_SKAIA_ADAPTER","inputs":[],"outputs":[{"name":"","type":"address","internalType":"address"}],"stateMutability":"view"},{"type":"function","name":"BASE_OFT_SUSDT_ADAPTER","inputs":[],"outputs":[{"name":"","type":"address","internalType":"address"}],"stateMutability":"view"},{"type":"function","name":"BASE_OFT_SWBTC_ADAPTER","inputs":[],"outputs":[{"name":"","type":"address","internalType":"address"}],"stateMutability":"view"},{"type":"function","name":"BASE_OFT_SWETH_ADAPTER","inputs":[],"outputs":[{"name":"","type":"address","internalType":"address"}],"stateMutability":"view"},{"type":"function","name":"BASE_OFT_SWKAIA_ADAPTER","inputs":[],"outputs":[{"name":"","type":"address","internalType":"address"}],"stateMutability":"view"},{"type":"function","name":"BASE_RECEIVE_LIB","inputs":[],"outputs":[{"name":"","type":"address","internalType":"address"}],"stateMutability":"view"},{"type":"function","name":"BASE_SEND_LIB","inputs":[],"outputs":[{"name":"","type":"address","internalType":"address"}],"stateMutability":"view"},{"type":"function","name":"BASE_SKAIA","inputs":[],"outputs":[{"name":"","type":"address","internalType":"address"}],"stateMutability":"view"},{"type":"function","name":"BASE_SKAIA_ELEVATED_MINTER_BURNER","inputs":[],"outputs":[{"name":"","type":"address","internalType":"address"}],"stateMutability":"view"},{"type":"function","name":"BASE_SUSDT","inputs":[],"outputs":[{"name":"","type":"address","internalType":"address"}],"stateMutability":"view"},{"type":"function","name":"BASE_SUSDT_ELEVATED_MINTER_BURNER","inputs":[],"outputs":[{"name":"","type":"address","internalType":"address"}],"stateMutability":"view"},{"type":"function","name":"BASE_SWBTC","inputs":[],"outputs":[{"name":"","type":"address","internalType":"address"}],"stateMutability":"view"},{"type":"function","name":"BASE_SWBTC_ELEVATED_MINTER_BURNER","inputs":[],"outputs":[{"name":"","type":"address","internalType":"address"}],"stateMutability":"view"},{"type":"function","name":"BASE_SWETH","inputs":[],"outputs":[{"name":"","type":"address","internalType":"address"}],"stateMutability":"view"},{"type":"function","name":"BASE_SWETH_ELEVATED_MINTER_BURNER","inputs":[],"outputs":[{"name":"","type":"address","internalType":"address"}],"stateMutability":"view"},{"type":"function","name":"BASE_SWKAIA","inputs":[],"outputs":[{"name":"","type":"address","internalType":"address"}],"stateMutability":"view"},{"type":"function","name":"BASE_SWKAIA_ELEVATED_MINTER_BURNER","inputs":[],"outputs":[{"name":"","type":"address","internalType":"address"}],"stateMutability":"view"},{"type":"function","name":"BASE_USDT","inputs":[],"outputs":[{"name":"","type":"address","internalType":"address"}],"stateMutability":"view"},{"type":"function","name":"BASE_WBTC","inputs":[],"outputs":[{"name":"","type":"address","internalType":"address"}],"stateMutability":"view"},{"type":"function","name":"BASE_WETH","inputs":[],"outputs":[{"name":"","type":"address","internalType":"address"}],"stateMutability":"view"},{"type":"function","name":"BTC_USDT","inputs":[],"outputs":[{"name":"","type":"address","internalType":"address"}],"stateMutability":"view"},{"type":"function","name":"ETH_USDT","inputs":[],"outputs":[{"name":"","type":"address","internalType":"address"}],"stateMutability":"view"},{"type":"function","name":"GLMR_DVN1","inputs":[],"outputs":[{"name":"","type":"address","internalType":"address"}],"stateMutability":"view"},{"type":"function","name":"GLMR_DVN2","inputs":[],"outputs":[{"name":"","type":"address","internalType":"address"}],"stateMutability":"view"},{"type":"function","name":"GLMR_DVN3","inputs":[],"outputs":[{"name":"","type":"address","internalType":"address"}],"stateMutability":"view"},{"type":"function","name":"GLMR_EID","inputs":[],"outputs":[{"name":"","type":"uint32","internalType":"uint32"}],"stateMutability":"view"},{"type":"function","name":"GLMR_EXECUTOR","inputs":[],"outputs":[{"name":"","type":"address","internalType":"address"}],"stateMutability":"view"},{"type":"function","name":"GLMR_LZ_ENDPOINT","inputs":[],"outputs":[{"name":"","type":"address","internalType":"address"}],"stateMutability":"view"},{"type":"function","name":"GLMR_RECEIVE_LIB","inputs":[],"outputs":[{"name":"","type":"address","internalType":"address"}],"stateMutability":"view"},{"type":"function","name":"GLMR_SEND_LIB","inputs":[],"outputs":[{"name":"","type":"address","internalType":"address"}],"stateMutability":"view"},{"type":"function","name":"KAIA_BTC_USDT_ADAPTER","inputs":[],"outputs":[{"name":"","type":"address","internalType":"address"}],"stateMutability":"view"},{"type":"function","name":"KAIA_DEX_ROUTER","inputs":[],"outputs":[{"name":"","type":"address","internalType":"address"}],"stateMutability":"view"},{"type":"function","name":"KAIA_DVN1","inputs":[],"outputs":[{"name":"","type":"address","internalType":"address"}],"stateMutability":"view"},{"type":"function","name":"KAIA_DVN2","inputs":[],"outputs":[{"name":"","type":"address","internalType":"address"}],"stateMutability":"view"},{"type":"function","name":"KAIA_DVN3","inputs":[],"outputs":[{"name":"","type":"address","internalType":"address"}],"stateMutability":"view"},{"type":"function","name":"KAIA_EID","inputs":[],"outputs":[{"name":"","type":"uint32","internalType":"uint32"}],"stateMutability":"view"},{"type":"function","name":"KAIA_ETH_USDT_ADAPTER","inputs":[],"outputs":[{"name":"","type":"address","internalType":"address"}],"stateMutability":"view"},{"type":"function","name":"KAIA_EXECUTOR","inputs":[],"outputs":[{"name":"","type":"address","internalType":"address"}],"stateMutability":"view"},{"type":"function","name":"KAIA_HELPER_UTILS","inputs":[],"outputs":[{"name":"","type":"address","internalType":"address"}],"stateMutability":"view"},{"type":"function","name":"KAIA_IS_HEALTHY","inputs":[],"outputs":[{"name":"","type":"address","internalType":"address"}],"stateMutability":"view"},{"type":"function","name":"KAIA_KAIA","inputs":[],"outputs":[{"name":"","type":"address","internalType":"address"}],"stateMutability":"view"},{"type":"function","name":"KAIA_KAIA_USDT_ADAPTER","inputs":[],"outputs":[{"name":"","type":"address","internalType":"address"}],"stateMutability":"view"},{"type":"function","name":"KAIA_LENDING_POOL_DEPLOYER","inputs":[],"outputs":[{"name":"","type":"address","internalType":"address"}],"stateMutability":"view"},{"type":"function","name":"KAIA_LENDING_POOL_FACTORY_IMPLEMENTATION","inputs":[],"outputs":[{"name":"","type":"address","internalType":"address"}],"stateMutability":"view"},{"type":"function","name":"KAIA_LENDING_POOL_FACTORY_PROXY","inputs":[],"outputs":[{"name":"","type":"address","internalType":"address"}],"stateMutability":"view"},{"type":"function","name":"KAIA_LENDING_POOL_ROUTER_DEPLOYER","inputs":[],"outputs":[{"name":"","type":"address","internalType":"address"}],"stateMutability":"view"},{"type":"function","name":"KAIA_LIQUIDATOR","inputs":[],"outputs":[{"name":"","type":"address","internalType":"address"}],"stateMutability":"view"},{"type":"function","name":"KAIA_LZ_ENDPOINT","inputs":[],"outputs":[{"name":"","type":"address","internalType":"address"}],"stateMutability":"view"},{"type":"function","name":"KAIA_MOCK_USDT","inputs":[],"outputs":[{"name":"","type":"address","internalType":"address"}],"stateMutability":"view"},{"type":"function","name":"KAIA_MOCK_USDT_ELEVATED_MINTER_BURNER","inputs":[],"outputs":[{"name":"","type":"address","internalType":"address"}],"stateMutability":"view"},{"type":"function","name":"KAIA_MOCK_WBTC","inputs":[],"outputs":[{"name":"","type":"address","internalType":"address"}],"stateMutability":"view"},{"type":"function","name":"KAIA_MOCK_WETH","inputs":[],"outputs":[{"name":"","type":"address","internalType":"address"}],"stateMutability":"view"},{"type":"function","name":"KAIA_MOCK_WKAIA","inputs":[],"outputs":[{"name":"","type":"address","internalType":"address"}],"stateMutability":"view"},{"type":"function","name":"KAIA_MOCK_WKAIA_ELEVATED_MINTER_BURNER","inputs":[],"outputs":[{"name":"","type":"address","internalType":"address"}],"stateMutability":"view"},{"type":"function","name":"KAIA_OAPP_SUPPLY_LIQUIDITY_USDT","inputs":[],"outputs":[{"name":"","type":"address","internalType":"address"}],"stateMutability":"view"},{"type":"function","name":"KAIA_OFT_MOCK_USDT_ADAPTER","inputs":[],"outputs":[{"name":"","type":"address","internalType":"address"}],"stateMutability":"view"},{"type":"function","name":"KAIA_OFT_MOCK_WKAIA_ADAPTER","inputs":[],"outputs":[{"name":"","type":"address","internalType":"address"}],"stateMutability":"view"},{"type":"function","name":"KAIA_OFT_USDT_ADAPTER","inputs":[],"outputs":[{"name":"","type":"address","internalType":"address"}],"stateMutability":"view"},{"type":"function","name":"KAIA_OFT_USDT_STARGATE_ADAPTER","inputs":[],"outputs":[{"name":"","type":"address","internalType":"address"}],"stateMutability":"view"},{"type":"function","name":"KAIA_OFT_WBTC_ADAPTER","inputs":[],"outputs":[{"name":"","type":"address","internalType":"address"}],"stateMutability":"view"},{"type":"function","name":"KAIA_OFT_WETH_ADAPTER","inputs":[],"outputs":[{"name":"","type":"address","internalType":"address"}],"stateMutability":"view"},{"type":"function","name":"KAIA_OFT_WKAIA_ADAPTER","inputs":[],"outputs":[{"name":"","type":"address","internalType":"address"}],"stateMutability":"view"},{"type":"function","name":"KAIA_POSITION_DEPLOYER","inputs":[],"outputs":[{"name":"","type":"address","internalType":"address"}],"stateMutability":"view"},{"type":"function","name":"KAIA_PROTOCOL","inputs":[],"outputs":[{"name":"","type":"address","internalType":"address"}],"stateMutability":"view"},{"type":"function","name":"KAIA_RECEIVE_LIB","inputs":[],"outputs":[{"name":"","type":"address","internalType":"address"}],"stateMutability":"view"},{"type":"function","name":"KAIA_SEND_LIB","inputs":[],"outputs":[{"name":"","type":"address","internalType":"address"}],"stateMutability":"view"},{"type":"function","name":"KAIA_TESTNET_BTC_USDT_ADAPTER","inputs":[],"outputs":[{"name":"","type":"address","internalType":"address"}],"stateMutability":"view"},{"type":"function","name":"KAIA_TESTNET_ETH_USDT_ADAPTER","inputs":[],"outputs":[{"name":"","type":"address","internalType":"address"}],"stateMutability":"view"},{"type":"function","name":"KAIA_TESTNET_HELPER_UTILS","inputs":[],"outputs":[{"name":"","type":"address","internalType":"address"}],"stateMutability":"view"},{"type":"function","name":"KAIA_TESTNET_IS_HEALTHY","inputs":[],"outputs":[{"name":"","type":"address","internalType":"address"}],"stateMutability":"view"},{"type":"function","name":"KAIA_TESTNET_LENDING_POOL_DEPLOYER","inputs":[],"outputs":[{"name":"","type":"address","internalType":"address"}],"stateMutability":"view"},{"type":"function","name":"KAIA_TESTNET_LENDING_POOL_FACTORY_IMPLEMENTATION","inputs":[],"outputs":[{"name":"","type":"address","internalType":"address"}],"stateMutability":"view"},{"type":"function","name":"KAIA_TESTNET_LENDING_POOL_FACTORY_PROXY","inputs":[],"outputs":[{"name":"","type":"address","internalType":"address"}],"stateMutability":"view"},{"type":"function","name":"KAIA_TESTNET_LIQUIDATOR","inputs":[],"outputs":[{"name":"","type":"address","internalType":"address"}],"stateMutability":"view"},{"type":"function","name":"KAIA_TESTNET_MOCK_DEX","inputs":[],"outputs":[{"name":"","type":"address","internalType":"address"}],"stateMutability":"view"},{"type":"function","name":"KAIA_TESTNET_NATIVE_USDT_ADAPTER","inputs":[],"outputs":[{"name":"","type":"address","internalType":"address"}],"stateMutability":"view"},{"type":"function","name":"KAIA_TESTNET_POSITION_DEPLOYER","inputs":[],"outputs":[{"name":"","type":"address","internalType":"address"}],"stateMutability":"view"},{"type":"function","name":"KAIA_TESTNET_PROTOCOL","inputs":[],"outputs":[{"name":"","type":"address","internalType":"address"}],"stateMutability":"view"},{"type":"function","name":"KAIA_TESTNET_USDT","inputs":[],"outputs":[{"name":"","type":"address","internalType":"address"}],"stateMutability":"view"},{"type":"function","name":"KAIA_TESTNET_USDT_USD_ADAPTER","inputs":[],"outputs":[{"name":"","type":"address","internalType":"address"}],"stateMutability":"view"},{"type":"function","name":"KAIA_TESTNET_WBTC","inputs":[],"outputs":[{"name":"","type":"address","internalType":"address"}],"stateMutability":"view"},{"type":"function","name":"KAIA_TESTNET_WETH","inputs":[],"outputs":[{"name":"","type":"address","internalType":"address"}],"stateMutability":"view"},{"type":"function","name":"KAIA_TESTNET_WKAIA","inputs":[],"outputs":[{"name":"","type":"address","internalType":"address"}],"stateMutability":"view"},{"type":"function","name":"KAIA_USDT","inputs":[],"outputs":[{"name":"","type":"address","internalType":"address"}],"stateMutability":"view"},{"type":"function","name":"KAIA_USDT_STARGATE","inputs":[],"outputs":[{"name":"","type":"address","internalType":"address"}],"stateMutability":"view"},{"type":"function","name":"KAIA_USDT_USD_ADAPTER","inputs":[],"outputs":[{"name":"","type":"address","internalType":"address"}],"stateMutability":"view"},{"type":"function","name":"KAIA_WBTC","inputs":[],"outputs":[{"name":"","type":"address","internalType":"address"}],"stateMutability":"view"},{"type":"function","name":"KAIA_WETH","inputs":[],"outputs":[{"name":"","type":"address","internalType":"address"}],"stateMutability":"view"},{"type":"function","name":"KAIA_WKAIA","inputs":[],"outputs":[{"name":"","type":"address","internalType":"address"}],"stateMutability":"view"},{"type":"function","name":"NATIVE_USDT","inputs":[],"outputs":[{"name":"","type":"address","internalType":"address"}],"stateMutability":"view"},{"type":"function","name":"USDT_USD","inputs":[],"outputs":[{"name":"","type":"address","internalType":"address"}],"stateMutability":"view"}],"bytecode":{"object":"0x6080604052348015600e575f5ffd5b50611d038061001c5f395ff3fe608060405234801561000f575f5ffd5b506004361061063c575f3560e01c806395df583811610334578063c304e508116101c1578063e5120c471161010d578063f21d0fd3116100ab578063fa9be36711610085578063fa9be36714611234578063fbdf059314611252578063fd455f7514611270578063fd9eef041461128e5761063c565b8063f21d0fd3146111da578063f4be7504146111f8578063f85a16c8146112165761063c565b8063ed584073116100e7578063ed58407314611162578063ed73551e14611180578063ef54e76f1461119e578063efffd77c146111bc5761063c565b8063e5120c4714611108578063e593399814611126578063eb3789bb146111445761063c565b8063cf642cc91161017a578063de439f5011610154578063de439f5014611090578063e07e02cc146110ae578063e1001432146110cc578063e4154799146110ea5761063c565b8063cf642cc914611036578063d4c7308314611054578063d9edc888146110725761063c565b8063c304e50814610f82578063c41ad64114610fa0578063c5e4a50914610fbe578063ca4b481c14610fdc578063cb4443f614610ffa578063cea90728146110185761063c565b8063b259d96411610280578063b5a9891111610239578063ba717f8611610213578063ba717f8614610f0a578063ba91cd4314610f28578063c025fe3c14610f46578063c2666fa114610f645761063c565b8063b5a9891114610eb0578063b5f0848d14610ece578063b9ee89b914610eec5761063c565b8063b259d96414610dfc578063b3a9810514610e1a578063b430bac514610e38578063b4fa069414610e56578063b5300a3b14610e74578063b53b808e14610e925761063c565b8063ab562ddd116102ed578063add79577116102c7578063add7957714610d84578063aded9a1914610da2578063b07e429714610dc0578063b20032df14610dde5761063c565b8063ab562ddd14610d2a578063aba30cca14610d48578063ac7fb1b714610d665761063c565b806395df583814610c7657806398489dff14610c94578063990ef31d14610cb2578063a016a1d714610cd0578063a7b395f214610cee578063aaf0e6eb14610d0c5761063c565b806348d8d455116104cd57806361015c36116104195780637e7414c2116103b757806386cfc33e1161039157806386cfc33e14610bfe5780638fd510cc14610c1c5780639040605414610c3a57806390df5b1a14610c585761063c565b80637e7414c214610ba45780638053116914610bc257806380b6403b14610be05761063c565b806368ebdd5e116103f357806368ebdd5e14610b2c578063709b903614610b4a57806375df430714610b685780637b49a63514610b865761063c565b806361015c3614610ad2578063634a8eee14610af057806367406d4214610b0e5761063c565b806355fc02fa116104865780635a432080116104605780635a43208014610a5a5780635ac6d96d14610a785780635d9fb53d14610a965780635dd65d3114610ab45761063c565b806355fc02fa14610a00578063565fcaac14610a1e57806359c5669214610a3c5761063c565b806348d8d4551461094c5780634d99ba081461096a5780634fefc38c14610988578063511856cd146109a6578063529f0d50146109c4578063543e593a146109e25761063c565b80632a715dd71161058c5780633cdda029116105455780634190110d1161051f5780634190110d146108d4578063450036c9146108f2578063470ebcb014610910578063471f10751461092e5761063c565b80633cdda0291461087a5780633e85947414610898578063413b777a146108b65761063c565b80632a715dd7146107c65780632cf0eb05146107e45780632f9668e6146108025780632fa996661461082057806337a4332a1461083e5780633b97322b1461085c5761063c565b806315f88c92116105f95780631d4f0841116105d35780631d4f08411461074e5780631f8a24281461076c5780631fe42bff1461078a57806321f564bc146107a85761063c565b806315f88c92146106f457806316c67bab1461071257806318567e88146107305761063c565b806307e247621461064057806308f40bed1461065e57806308ff3f121461067c5780630b54fe1e1461069a5780630d463b54146106b857806312e7902a146106d6575b5f5ffd5b6106486112ac565b6040516106559190611c7d565b60405180910390f35b6106666112c4565b6040516106739190611c7d565b60405180910390f35b6106846112dc565b6040516106919190611c7d565b60405180910390f35b6106a26112f4565b6040516106af9190611c7d565b60405180910390f35b6106c061130c565b6040516106cd9190611c7d565b60405180910390f35b6106de611324565b6040516106eb9190611c7d565b60405180910390f35b6106fc61133c565b6040516107099190611cb4565b60405180910390f35b61071a611342565b6040516107279190611c7d565b60405180910390f35b61073861135a565b6040516107459190611cb4565b60405180910390f35b610756611360565b6040516107639190611c7d565b60405180910390f35b610774611378565b6040516107819190611c7d565b60405180910390f35b610792611390565b60405161079f9190611c7d565b60405180910390f35b6107b06113a8565b6040516107bd9190611c7d565b60405180910390f35b6107ce6113c0565b6040516107db9190611c7d565b60405180910390f35b6107ec6113d8565b6040516107f99190611c7d565b60405180910390f35b61080a6113f0565b6040516108179190611c7d565b60405180910390f35b610828611408565b6040516108359190611c7d565b60405180910390f35b610846611420565b6040516108539190611c7d565b60405180910390f35b610864611438565b6040516108719190611c7d565b60405180910390f35b610882611450565b60405161088f9190611c7d565b60405180910390f35b6108a0611468565b6040516108ad9190611c7d565b60405180910390f35b6108be611480565b6040516108cb9190611c7d565b60405180910390f35b6108dc611498565b6040516108e99190611c7d565b60405180910390f35b6108fa6114b0565b6040516109079190611c7d565b60405180910390f35b6109186114b5565b6040516109259190611c7d565b60405180910390f35b6109366114cd565b6040516109439190611c7d565b60405180910390f35b6109546114e5565b6040516109619190611c7d565b60405180910390f35b6109726114fd565b60405161097f9190611c7d565b60405180910390f35b610990611515565b60405161099d9190611c7d565b60405180910390f35b6109ae61152d565b6040516109bb9190611c7d565b60405180910390f35b6109cc611545565b6040516109d99190611c7d565b60405180910390f35b6109ea61155d565b6040516109f79190611c7d565b60405180910390f35b610a08611575565b604051610a159190611c7d565b60405180910390f35b610a2661158d565b604051610a339190611c7d565b60405180910390f35b610a446115a5565b604051610a519190611c7d565b60405180910390f35b610a626115bd565b604051610a6f9190611c7d565b60405180910390f35b610a806115d5565b604051610a8d9190611c7d565b60405180910390f35b610a9e6115ed565b604051610aab9190611c7d565b60405180910390f35b610abc611605565b604051610ac99190611c7d565b60405180910390f35b610ada61161d565b604051610ae79190611c7d565b60405180910390f35b610af8611635565b604051610b059190611c7d565b60405180910390f35b610b1661164d565b604051610b239190611c7d565b60405180910390f35b610b34611665565b604051610b419190611c7d565b60405180910390f35b610b5261167d565b604051610b5f9190611c7d565b60405180910390f35b610b70611695565b604051610b7d9190611c7d565b60405180910390f35b610b8e6116ad565b604051610b9b9190611c7d565b60405180910390f35b610bac6116c5565b604051610bb99190611c7d565b60405180910390f35b610bca6116dd565b604051610bd79190611c7d565b60405180910390f35b610be86116f5565b604051610bf59190611c7d565b60405180910390f35b610c0661170d565b604051610c139190611c7d565b60405180910390f35b610c24611725565b604051610c319190611c7d565b60405180910390f35b610c4261173d565b604051610c4f9190611c7d565b60405180910390f35b610c60611755565b604051610c6d9190611c7d565b60405180910390f35b610c7e61176d565b604051610c8b9190611c7d565b60405180910390f35b610c9c611785565b604051610ca99190611c7d565b60405180910390f35b610cba61179d565b604051610cc79190611c7d565b60405180910390f35b610cd86117b5565b604051610ce59190611c7d565b60405180910390f35b610cf66117cd565b604051610d039190611c7d565b60405180910390f35b610d146117e5565b604051610d219190611c7d565b60405180910390f35b610d326117fd565b604051610d3f9190611c7d565b60405180910390f35b610d50611815565b604051610d5d9190611c7d565b60405180910390f35b610d6e61182d565b604051610d7b9190611c7d565b60405180910390f35b610d8c611845565b604051610d999190611c7d565b60405180910390f35b610daa61185d565b604051610db79190611c7d565b60405180910390f35b610dc8611875565b604051610dd59190611c7d565b60405180910390f35b610de661188d565b604051610df39190611c7d565b60405180910390f35b610e046118a5565b604051610e119190611c7d565b60405180910390f35b610e226118bd565b604051610e2f9190611cb4565b60405180910390f35b610e406118c3565b604051610e4d9190611c7d565b60405180910390f35b610e5e6118db565b604051610e6b9190611c7d565b60405180910390f35b610e7c6118f3565b604051610e899190611c7d565b60405180910390f35b610e9a61190b565b604051610ea79190611c7d565b60405180910390f35b610eb8611923565b604051610ec59190611c7d565b60405180910390f35b610ed661193b565b604051610ee39190611c7d565b60405180910390f35b610ef4611953565b604051610f019190611c7d565b60405180910390f35b610f1261196b565b604051610f1f9190611c7d565b60405180910390f35b610f30611983565b604051610f3d9190611c7d565b60405180910390f35b610f4e61199b565b604051610f5b9190611c7d565b60405180910390f35b610f6c6119b3565b604051610f799190611c7d565b60405180910390f35b610f8a6119cb565b604051610f979190611c7d565b60405180910390f35b610fa86119e3565b604051610fb59190611c7d565b60405180910390f35b610fc66119fb565b604051610fd39190611c7d565b60405180910390f35b610fe4611a13565b604051610ff19190611c7d565b60405180910390f35b611002611a2b565b60405161100f9190611c7d565b60405180910390f35b611020611a43565b60405161102d9190611c7d565b60405180910390f35b61103e611a5b565b60405161104b9190611c7d565b60405180910390f35b61105c611a73565b6040516110699190611c7d565b60405180910390f35b61107a611a8b565b6040516110879190611c7d565b60405180910390f35b611098611aa3565b6040516110a59190611c7d565b60405180910390f35b6110b6611aa7565b6040516110c39190611c7d565b60405180910390f35b6110d4611abf565b6040516110e19190611c7d565b60405180910390f35b6110f2611ad7565b6040516110ff9190611c7d565b60405180910390f35b611110611aef565b60405161111d9190611c7d565b60405180910390f35b61112e611b07565b60405161113b9190611c7d565b60405180910390f35b61114c611b1f565b6040516111599190611c7d565b60405180910390f35b61116a611b37565b6040516111779190611c7d565b60405180910390f35b611188611b4f565b6040516111959190611c7d565b60405180910390f35b6111a6611b67565b6040516111b39190611c7d565b60405180910390f35b6111c4611b7f565b6040516111d19190611c7d565b60405180910390f35b6111e2611b97565b6040516111ef9190611c7d565b60405180910390f35b611200611bae565b60405161120d9190611c7d565b60405180910390f35b61121e611bc6565b60405161122b9190611c7d565b60405180910390f35b61123c611bde565b6040516112499190611c7d565b60405180910390f35b61125a611bf6565b6040516112679190611c7d565b60405180910390f35b611278611c0e565b6040516112859190611c7d565b60405180910390f35b611296611c26565b6040516112a39190611c7d565b60405180910390f35b73fe5138a42dc1fc335455b505e036784a33f7f10281565b73ec32cc0267002618c339274c18ad48d2bf2a9c7e81565b73ad063b1915bf95fb32f79138c0b668f23267633381565b7398a8345bb9d3dda9d808ca1c9142a28f6b0430e181565b736ae5e129054a5dbfcebb9dfcb1ce1aa229fb1ddb81565b738fed03c9d8ed1237b76be271a49d11cce5dfd81e81565b6175e881565b73af9842adacb4b2fa619d45fe11579fae5faf169881565b6175c681565b737bb55d2d27194a25517f8a47cdaf227fd413dca681565b73da5d036f51bd6fe5e32915a53595b71312d45f9181565b731effdcf81a95398920e024bb3b9ff60ce14590e781565b739e059a54699a285714207b43b055483e78faac2581565b73d077a400968890eacc75cdc901f0356c943e4fdb81565b7343add670a0e1948c90386d2b972fcaec6ce1be9081565b73dbbb07e1ae9d0f23ac6da9bdda3dff96fca7365081565b73acde1f22eeab249d3ca6ba8805c8fee9f52a16e781565b73c2caa26226585f666ec79f8ecdb0aec17893af1d81565b73057852e8211698a22953e0343aae24e446ecf10581565b739714ccf1dedef14bab5013625db92746c1358cb481565b73f13d09ed3cbdd1c930d4de74808de1f33b6b3d4f81565b731a44076050125825900e736c501f859c50fe728c81565b73a7b5189bca84cd304d8553977c7c614329750d9981565b600181565b73ec0906949f88f72bf9206e84764163e24a56a49981565b7339926da4905f5edb956f5db5f2e2ff044e0882b281565b731a44076050125825900e736c501f859c50fe728c81565b73ae1b8d3b428d6a8f62df2f623081eac8734168fe81565b7346638ad472507482b7d5ba45124e93d16bc97ece81565b73c7e9cf4bc5f6c43e1410ffa33436287968003ace81565b73c70ab6f32772f59fbfc23889caf4ba3376c84baf81565b73374427909212b29fcc3ffe8e7920a190a3031cb881565b73175867caf278eb0610f216f3e0a6e671f2382e2281565b7333e5fcc13d7439cc62d54c41aa966197145b3cd781565b73c28446267b3c9a733d6c7419535b883908e5581381565b73f3f7c9320b0dbf780092daaab740b7b85552225881565b732cca08ae69e0c44b18a57ab2a87644234daebae481565b73da5d036f51bd6fe5e32915a53595b71312d45f9181565b73a324880f884036e3d21a09b90269e1ac57c7ec8a81565b734ba8d8083e7f3652ccb084c32652e68566e9ef2381565b736d68a52bc77f2eac3582a7072ead94c19b9f480c81565b7319aac5f612f524b754ca7e7c41cbfa2e981a443281565b73b3b458299864487520d3b0cedf9f5cff2629a27b81565b73fde4c96c8593536e31f229ea8f37b2ada2699bb281565b73677f0172ff3e8eef477ce811ed57a85b8d8a3bda81565b7334730f2570e6cff8b1c91faabf37d0dd917c436781565b735c368bd6ce77b2ca47b4ba791fcc1f1645591c8481565b7343bb8beb166c8786c50a9d1d5c8482d667cf981a81565b73920cd2f6e139b6c40053bcd5f67923d1d7dd314081565b73560bd1836c348c4a10eed7008e68ae58228dd11781565b73937aba873827bf883ced83ca557697427eaa46ee81565b73394239573079a46e438ea6d118fd96d37a61f27081565b73a628a83cc869b82a684895f628029eb90ee6022481565b738b9b67b22ab2ed6ee324c2fd43734dbd2dddd04581565b733703a1da99a2bdf2d8ce57802aacb20fb546ff1281565b7360377628d1733fe0fb64d8b84466b461974da60a81565b735ddbbc68527214e0aca3b4175860080cbdaa12ff81565b73ceb5c8903060197e46ab5ea5087b9f99cbc8da4981565b73b0e96105543cba4b3d82911e7336f19bd03b036081565b73c80233ad8251e668becbc3b0415707fc7075501e81565b731385df17f009f88e6ca1380798bf20b0669c8ee081565b7326991986aec6748f439940949b7487341800638381565b735c4a3c2cd1ffe6aafdf62b64bb3e620c696c832e81565b73b83e44f1d59bd8743ae45816acd5622fa1a5624d81565b73420000000000000000000000000000000000000681565b735aadfb43ef8daf45dd80f4676345b7676f1d70e381565b7322be5ff1ef09ebf06995da9050d44d23070c214281565b6175ae81565b739025095263d1e548dc890a7589a4c78038ac40ab81565b73943fcc03799400a672a8f82907d3a320fa76efc181565b737f047526f942147a228f2709bb66a3bdea71ed2681565b73684a2aaf3d98bc8ed2c07988e8da9023026ad51181565b73f8af5114ad19422e059797ca2515febd8bc06bd181565b73a971cd2714fbcc9a942b09bc391a724df933820681565b73df05e9abf64da281b3cbd8ac3581022ec4841fb281565b73eac136456d078bb76f59dccb2d5e008b31afe1cf81565b73a5b25a041cfc241f2b808b3298e2cb7ceb5dfcd281565b73d8d5edce9f0e3544d2a712818232fda7502ba1a681565b73df05e9abf64da281b3cbd8ac3581022ec4841fb281565b73f15f575095a37a0325182c49a45fe05f09fc6b4d81565b73c72f2eb4a97f19ecd0c10b5201676a10b6d8bb6781565b733703a1da99a2bdf2d8ce57802aacb20fb546ff1281565b733de8c22f6b84c575429c1b9cbf5bddd49cf129fc81565b73a8e2e14aa272d360235b9444f8214ba5fa2a288881565b731154d04d07aee26ff2c200bd373eb76a7e5694d681565b73c3be8ab4ca0cefe3119a765b324bbdf54a16a65b81565b73b5320b0b3a13cc860893e2bd79fcd7e13484dda281565b73649ef2a788732900b82237c126a121be3282997c81565b5f81565b73530f48df8e4d60bbf9bbcfe8cf584344514af19381565b731a44076050125825900e736c501f859c50fe728c81565b739eaa6ec9e0b55948309eb320166312cb0807b6de81565b73554833698ae0fb22ecc90b01222903fd62ca4b4781565b73e149187a987f129fd3d397ed04a60b0b89d1669f81565b73981846be8d2d697f4dfef6689a161a25ffbab8f981565b73c746b3aab0c6da075c9b7b43ceebd437ef759d5b81565b7315858a57854bbf0df60a737811d50e1ee785f9bc81565b738bf79e425b54ecd75907b4eda00dced8c1a97db081565b73cfaf23d5d5f144f66a13e05a41b97c0c23aa4e1f81565b727f735fd070ded4b0b58d430c392ff0190ec20f81565b7346da9f76c20a752132ddaefd2b14870e0a152d7181565b732d9a3d17400332c44ff0e2dc1b728529a33f559181565b730555e30da8f98308edb960aa94c0db47230d2b9c81565b732f4c6eea955e95e6d65e08620d980c0e0e92211f81565b7367165c24a886aaaf1bfa81934e44a2063c6b608c81565b736c71b7bbde382f12165d5f7749b5fd37965b1e8a81565b5f73ffffffffffffffffffffffffffffffffffffffff82169050919050565b5f611c6782611c3e565b9050919050565b611c7781611c5d565b82525050565b5f602082019050611c905f830184611c6e565b92915050565b5f63ffffffff82169050919050565b611cae81611c96565b82525050565b5f602082019050611cc75f830184611ca5565b9291505056fea2646970667358221220b488cc3e6529168fc0b723a311ac8a22571a2ab8205319c4812ac1818dde5af564736f6c634300081e0033","linkReferences":{}},"methodIdentifiers":{"BASE_DVN1()":"e5120c47","BASE_DVN2()":"4190110d","BASE_DVN3()":"21f564bc","BASE_EID()":"15f88c92","BASE_EXECUTOR()":"5ac6d96d","BASE_KAIA()":"de439f50","BASE_LZ_ENDPOINT()":"e1001432","BASE_M0CK_WKAIA()":"5a432080","BASE_MOCK_USDT()":"1d4f0841","BASE_MOCK_USDT_ELEVATED_MINTER_BURNER()":"ac7fb1b7","BASE_MOCK_WKAIA_ELEVATED_MINTER_BURNER()":"b4fa0694","BASE_OAPP_ADAPTER()":"80531169","BASE_OAPP_SUPPLY_LIQUIDITY_USDT()":"543e593a","BASE_OFT_MOCK_USDT_ADAPTER()":"86cfc33e","BASE_OFT_MOCK_WKAIA_ADAPTER()":"e4154799","BASE_OFT_SKAIA_ADAPTER()":"b5300a3b","BASE_OFT_SUSDT_ADAPTER()":"08ff3f12","BASE_OFT_SWBTC_ADAPTER()":"1fe42bff","BASE_OFT_SWETH_ADAPTER()":"fd9eef04","BASE_OFT_SWKAIA_ADAPTER()":"aded9a19","BASE_RECEIVE_LIB()":"529f0d50","BASE_SEND_LIB()":"d4c73083","BASE_SKAIA()":"f4be7504","BASE_SKAIA_ELEVATED_MINTER_BURNER()":"efffd77c","BASE_SUSDT()":"cf642cc9","BASE_SUSDT_ELEVATED_MINTER_BURNER()":"1f8a2428","BASE_SWBTC()":"90406054","BASE_SWBTC_ELEVATED_MINTER_BURNER()":"c304e508","BASE_SWETH()":"08f40bed","BASE_SWETH_ELEVATED_MINTER_BURNER()":"12e7902a","BASE_SWKAIA()":"c5e4a509","BASE_SWKAIA_ELEVATED_MINTER_BURNER()":"ba91cd43","BASE_USDT()":"709b9036","BASE_WBTC()":"fa9be367","BASE_WETH()":"b07e4297","BTC_USDT()":"2cf0eb05","ETH_USDT()":"b259d964","GLMR_DVN1()":"565fcaac","GLMR_DVN2()":"7b49a635","GLMR_DVN3()":"95df5838","GLMR_EID()":"b3a98105","GLMR_EXECUTOR()":"470ebcb0","GLMR_LZ_ENDPOINT()":"413b777a","GLMR_RECEIVE_LIB()":"fbdf0593","GLMR_SEND_LIB()":"ba717f86","KAIA_BTC_USDT_ADAPTER()":"98489dff","KAIA_DEX_ROUTER()":"5dd65d31","KAIA_DVN1()":"cea90728","KAIA_DVN2()":"2fa99666","KAIA_DVN3()":"ab562ddd","KAIA_EID()":"18567e88","KAIA_ETH_USDT_ADAPTER()":"2f9668e6","KAIA_EXECUTOR()":"e5933998","KAIA_HELPER_UTILS()":"ca4b481c","KAIA_IS_HEALTHY()":"3b97322b","KAIA_KAIA()":"450036c9","KAIA_KAIA_USDT_ADAPTER()":"4fefc38c","KAIA_LENDING_POOL_DEPLOYER()":"75df4307","KAIA_LENDING_POOL_FACTORY_IMPLEMENTATION()":"59c56692","KAIA_LENDING_POOL_FACTORY_PROXY()":"b5f0848d","KAIA_LENDING_POOL_ROUTER_DEPLOYER()":"990ef31d","KAIA_LIQUIDATOR()":"e07e02cc","KAIA_LZ_ENDPOINT()":"48d8d455","KAIA_MOCK_USDT()":"a7b395f2","KAIA_MOCK_USDT_ELEVATED_MINTER_BURNER()":"90df5b1a","KAIA_MOCK_WBTC()":"ef54e76f","KAIA_MOCK_WETH()":"d9edc888","KAIA_MOCK_WKAIA()":"b53b808e","KAIA_MOCK_WKAIA_ELEVATED_MINTER_BURNER()":"511856cd","KAIA_OAPP_SUPPLY_LIQUIDITY_USDT()":"b5a98911","KAIA_OFT_MOCK_USDT_ADAPTER()":"16c67bab","KAIA_OFT_MOCK_WKAIA_ADAPTER()":"5d9fb53d","KAIA_OFT_USDT_ADAPTER()":"634a8eee","KAIA_OFT_USDT_STARGATE_ADAPTER()":"80b6403b","KAIA_OFT_WBTC_ADAPTER()":"07e24762","KAIA_OFT_WETH_ADAPTER()":"aaf0e6eb","KAIA_OFT_WKAIA_ADAPTER()":"a016a1d7","KAIA_POSITION_DEPLOYER()":"aba30cca","KAIA_PROTOCOL()":"c025fe3c","KAIA_RECEIVE_LIB()":"8fd510cc","KAIA_SEND_LIB()":"3cdda029","KAIA_TESTNET_BTC_USDT_ADAPTER()":"61015c36","KAIA_TESTNET_ETH_USDT_ADAPTER()":"ed73551e","KAIA_TESTNET_HELPER_UTILS()":"fd455f75","KAIA_TESTNET_IS_HEALTHY()":"7e7414c2","KAIA_TESTNET_LENDING_POOL_DEPLOYER()":"55fc02fa","KAIA_TESTNET_LENDING_POOL_FACTORY_IMPLEMENTATION()":"4d99ba08","KAIA_TESTNET_LENDING_POOL_FACTORY_PROXY()":"cb4443f6","KAIA_TESTNET_LIQUIDATOR()":"f21d0fd3","KAIA_TESTNET_MOCK_DEX()":"ed584073","KAIA_TESTNET_NATIVE_USDT_ADAPTER()":"b9ee89b9","KAIA_TESTNET_POSITION_DEPLOYER()":"471f1075","KAIA_TESTNET_PROTOCOL()":"68ebdd5e","KAIA_TESTNET_USDT()":"b20032df","KAIA_TESTNET_USDT_USD_ADAPTER()":"c2666fa1","KAIA_TESTNET_WBTC()":"0d463b54","KAIA_TESTNET_WETH()":"add79577","KAIA_TESTNET_WKAIA()":"3e859474","KAIA_USDT()":"2a715dd7","KAIA_USDT_STARGATE()":"b430bac5","KAIA_USDT_USD_ADAPTER()":"c41ad641","KAIA_WBTC()":"eb3789bb","KAIA_WETH()":"0b54fe1e","KAIA_WKAIA()":"67406d42","NATIVE_USDT()":"37a4332a","USDT_USD()":"f85a16c8"},"id":95}