{"abi":[{"type":"function","name":"ARB_MINTER_BURNER","inputs":[],"outputs":[{"name":"","type":"address","internalType":"address"}],"stateMutability":"view"},{"type":"function","name":"ARB_OAPP","inputs":[],"outputs":[{"name":"","type":"address","internalType":"address"}],"stateMutability":"view"},{"type":"function","name":"ARB_SRC_EID_LIB","inputs":[],"outputs":[{"name":"","type":"address","internalType":"address"}],"stateMutability":"view"},{"type":"function","name":"BASE_DVN1","inputs":[],"outputs":[{"name":"","type":"address","internalType":"address"}],"stateMutability":"view"},{"type":"function","name":"BASE_DVN2","inputs":[],"outputs":[{"name":"","type":"address","internalType":"address"}],"stateMutability":"view"},{"type":"function","name":"BASE_DVN3","inputs":[],"outputs":[{"name":"","type":"address","internalType":"address"}],"stateMutability":"view"},{"type":"function","name":"BASE_EID","inputs":[],"outputs":[{"name":"","type":"uint32","internalType":"uint32"}],"stateMutability":"view"},{"type":"function","name":"BASE_EXECUTOR","inputs":[],"outputs":[{"name":"","type":"address","internalType":"address"}],"stateMutability":"view"},{"type":"function","name":"BASE_LZ_ENDPOINT","inputs":[],"outputs":[{"name":"","type":"address","internalType":"address"}],"stateMutability":"view"},{"type":"function","name":"BASE_MINTER_BURNER","inputs":[],"outputs":[{"name":"","type":"address","internalType":"address"}],"stateMutability":"view"},{"type":"function","name":"BASE_OAPP","inputs":[],"outputs":[{"name":"","type":"address","internalType":"address"}],"stateMutability":"view"},{"type":"function","name":"BASE_RECEIVE_LIB","inputs":[],"outputs":[{"name":"","type":"address","internalType":"address"}],"stateMutability":"view"},{"type":"function","name":"BASE_SEND_LIB","inputs":[],"outputs":[{"name":"","type":"address","internalType":"address"}],"stateMutability":"view"},{"type":"function","name":"BASE_SRC_EID_LIB","inputs":[],"outputs":[{"name":"","type":"address","internalType":"address"}],"stateMutability":"view"},{"type":"function","name":"BASE_USDT","inputs":[],"outputs":[{"name":"","type":"address","internalType":"address"}],"stateMutability":"view"},{"type":"function","name":"BASE_USDTk","inputs":[],"outputs":[{"name":"","type":"address","internalType":"address"}],"stateMutability":"view"},{"type":"function","name":"BSC_MINTER_BURNER","inputs":[],"outputs":[{"name":"","type":"address","internalType":"address"}],"stateMutability":"view"},{"type":"function","name":"BSC_OAPP","inputs":[],"outputs":[{"name":"","type":"address","internalType":"address"}],"stateMutability":"view"},{"type":"function","name":"BSC_SRC_EID_LIB","inputs":[],"outputs":[{"name":"","type":"address","internalType":"address"}],"stateMutability":"view"},{"type":"function","name":"GNOSIS_MINTER_BURNER","inputs":[],"outputs":[{"name":"","type":"address","internalType":"address"}],"stateMutability":"view"},{"type":"function","name":"GNOSIS_OAPP","inputs":[],"outputs":[{"name":"","type":"address","internalType":"address"}],"stateMutability":"view"},{"type":"function","name":"GNOSIS_SRC_EID_LIB","inputs":[],"outputs":[{"name":"","type":"address","internalType":"address"}],"stateMutability":"view"},{"type":"function","name":"KAIA_DVN1","inputs":[],"outputs":[{"name":"","type":"address","internalType":"address"}],"stateMutability":"view"},{"type":"function","name":"KAIA_DVN2","inputs":[],"outputs":[{"name":"","type":"address","internalType":"address"}],"stateMutability":"view"},{"type":"function","name":"KAIA_DVN3","inputs":[],"outputs":[{"name":"","type":"address","internalType":"address"}],"stateMutability":"view"},{"type":"function","name":"KAIA_EID","inputs":[],"outputs":[{"name":"","type":"uint32","internalType":"uint32"}],"stateMutability":"view"},{"type":"function","name":"KAIA_EXECUTOR","inputs":[],"outputs":[{"name":"","type":"address","internalType":"address"}],"stateMutability":"view"},{"type":"function","name":"KAIA_LZ_ENDPOINT","inputs":[],"outputs":[{"name":"","type":"address","internalType":"address"}],"stateMutability":"view"},{"type":"function","name":"KAIA_MINTER_BURNER","inputs":[],"outputs":[{"name":"","type":"address","internalType":"address"}],"stateMutability":"view"},{"type":"function","name":"KAIA_OAPP","inputs":[],"outputs":[{"name":"","type":"address","internalType":"address"}],"stateMutability":"view"},{"type":"function","name":"KAIA_RECEIVE_LIB","inputs":[],"outputs":[{"name":"","type":"address","internalType":"address"}],"stateMutability":"view"},{"type":"function","name":"KAIA_SEND_LIB","inputs":[],"outputs":[{"name":"","type":"address","internalType":"address"}],"stateMutability":"view"},{"type":"function","name":"KAIA_SRC_EID_LIB","inputs":[],"outputs":[{"name":"","type":"address","internalType":"address"}],"stateMutability":"view"},{"type":"function","name":"KAIA_USDT","inputs":[],"outputs":[{"name":"","type":"address","internalType":"address"}],"stateMutability":"view"},{"type":"function","name":"KAIA_USDTk","inputs":[],"outputs":[{"name":"","type":"address","internalType":"address"}],"stateMutability":"view"},{"type":"function","name":"POL_MINTER_BURNER","inputs":[],"outputs":[{"name":"","type":"address","internalType":"address"}],"stateMutability":"view"},{"type":"function","name":"POL_OAPP","inputs":[],"outputs":[{"name":"","type":"address","internalType":"address"}],"stateMutability":"view"},{"type":"function","name":"POL_SRC_EID_LIB","inputs":[],"outputs":[{"name":"","type":"address","internalType":"address"}],"stateMutability":"view"}],"bytecode":{"object":"0x6080604052731a44076050125825900e736c501f859c50fe728c5f5f6101000a81548173ffffffffffffffffffffffffffffffffffffffff021916908373ffffffffffffffffffffffffffffffffffffffff160217905550731a44076050125825900e736c501f859c50fe728c60015f6101000a81548173ffffffffffffffffffffffffffffffffffffffff021916908373ffffffffffffffffffffffffffffffffffffffff16021790555073b5320b0b3a13cc860893e2bd79fcd7e13484dda260025f6101000a81548173ffffffffffffffffffffffffffffffffffffffff021916908373ffffffffffffffffffffffffffffffffffffffff160217905550739714ccf1dedef14bab5013625db92746c1358cb460035f6101000a81548173ffffffffffffffffffffffffffffffffffffffff021916908373ffffffffffffffffffffffffffffffffffffffff16021790555073c70ab6f32772f59fbfc23889caf4ba3376c84baf60045f6101000a81548173ffffffffffffffffffffffffffffffffffffffff021916908373ffffffffffffffffffffffffffffffffffffffff16021790555073937aba873827bf883ced83ca557697427eaa46ee60055f6101000a81548173ffffffffffffffffffffffffffffffffffffffff021916908373ffffffffffffffffffffffffffffffffffffffff1602179055506175e8600560146101000a81548163ffffffff021916908363ffffffff1602179055506175c6600560186101000a81548163ffffffff021916908363ffffffff16021790555073554833698ae0fb22ecc90b01222903fd62ca4b4760065f6101000a81548173ffffffffffffffffffffffffffffffffffffffff021916908373ffffffffffffffffffffffffffffffffffffffff16021790555073a7b5189bca84cd304d8553977c7c614329750d9960075f6101000a81548173ffffffffffffffffffffffffffffffffffffffff021916908373ffffffffffffffffffffffffffffffffffffffff160217905550739e059a54699a285714207b43b055483e78faac2560085f6101000a81548173ffffffffffffffffffffffffffffffffffffffff021916908373ffffffffffffffffffffffffffffffffffffffff160217905550731154d04d07aee26ff2c200bd373eb76a7e5694d660095f6101000a81548173ffffffffffffffffffffffffffffffffffffffff021916908373ffffffffffffffffffffffffffffffffffffffff16021790555073acde1f22eeab249d3ca6ba8805c8fee9f52a16e7600a5f6101000a81548173ffffffffffffffffffffffffffffffffffffffff021916908373ffffffffffffffffffffffffffffffffffffffff16021790555073c80233ad8251e668becbc3b0415707fc7075501e600b5f6101000a81548173ffffffffffffffffffffffffffffffffffffffff021916908373ffffffffffffffffffffffffffffffffffffffff160217905550732cca08ae69e0c44b18a57ab2a87644234daebae4600c5f6101000a81548173ffffffffffffffffffffffffffffffffffffffff021916908373ffffffffffffffffffffffffffffffffffffffff16021790555073e149187a987f129fd3d397ed04a60b0b89d1669f600d5f6101000a81548173ffffffffffffffffffffffffffffffffffffffff021916908373ffffffffffffffffffffffffffffffffffffffff16021790555073fde4c96c8593536e31f229ea8f37b2ada2699bb2600e5f6101000a81548173ffffffffffffffffffffffffffffffffffffffff021916908373ffffffffffffffffffffffffffffffffffffffff16021790555073d077a400968890eacc75cdc901f0356c943e4fdb600f5f6101000a81548173ffffffffffffffffffffffffffffffffffffffff021916908373ffffffffffffffffffffffffffffffffffffffff160217905550348015610594575f5ffd5b50610ccc806105a25f395ff3fe608060405234801561000f575f5ffd5b5060043610610230575f3560e01c80636975ca671161012e578063cea90728116100b6578063e5120c471161007a578063e5120c4714610612578063e56debe814610630578063e59339981461064e578063e987c1601461066c578063f0101a7b1461068a57610230565b8063cea907281461057c578063d4c730831461059a578063daf2555e146105b8578063e00e19c3146105d6578063e1001432146105f457610230565b80638fd510cc116100fd5780638fd510cc146104e65780639c134086146105045780639d3cef4b14610522578063ab562ddd14610540578063bd674b941461055e57610230565b80636975ca671461046e578063709b90361461048c57806389e4725d146104aa5780638dcd805f146104c857610230565b80632ebb3fdd116101bc5780634190110d116101805780634190110d146103d857806348d8d455146103f6578063529f0d50146104145780635399fd5a146104325780635ac6d96d1461045057610230565b80632ebb3fdd146103425780632fa9966614610360578063359272b31461037e578063376052e51461039c5780633cdda029146103ba57610230565b806318567e881161020357806318567e88146102ac57806321f564bc146102ca57806325b32d39146102e857806325d55643146103065780632a715dd71461032457610230565b806301e44c4114610234578063072888a4146102525780631525c5821461027057806315f88c921461028e575b5f5ffd5b61023c6106a8565b6040516102499190610c46565b60405180910390f35b61025a6106cd565b6040516102679190610c46565b60405180910390f35b6102786106f2565b6040516102859190610c46565b60405180910390f35b610296610717565b6040516102a39190610c7d565b60405180910390f35b6102b461072d565b6040516102c19190610c7d565b60405180910390f35b6102d2610743565b6040516102df9190610c46565b60405180910390f35b6102f0610768565b6040516102fd9190610c46565b60405180910390f35b61030e61078d565b60405161031b9190610c46565b60405180910390f35b61032c6107b2565b6040516103399190610c46565b60405180910390f35b61034a6107d7565b6040516103579190610c46565b60405180910390f35b6103686107fc565b6040516103759190610c46565b60405180910390f35b610386610821565b6040516103939190610c46565b60405180910390f35b6103a4610846565b6040516103b19190610c46565b60405180910390f35b6103c261086b565b6040516103cf9190610c46565b60405180910390f35b6103e0610890565b6040516103ed9190610c46565b60405180910390f35b6103fe6108b5565b60405161040b9190610c46565b60405180910390f35b61041c6108da565b6040516104299190610c46565b60405180910390f35b61043a6108ff565b6040516104479190610c46565b60405180910390f35b610458610924565b6040516104659190610c46565b60405180910390f35b610476610949565b6040516104839190610c46565b60405180910390f35b61049461096e565b6040516104a19190610c46565b60405180910390f35b6104b2610993565b6040516104bf9190610c46565b60405180910390f35b6104d06109b8565b6040516104dd9190610c46565b60405180910390f35b6104ee6109dd565b6040516104fb9190610c46565b60405180910390f35b61050c610a02565b6040516105199190610c46565b60405180910390f35b61052a610a27565b6040516105379190610c46565b60405180910390f35b610548610a4c565b6040516105559190610c46565b60405180910390f35b610566610a71565b6040516105739190610c46565b60405180910390f35b610584610a96565b6040516105919190610c46565b60405180910390f35b6105a2610abb565b6040516105af9190610c46565b60405180910390f35b6105c0610ae0565b6040516105cd9190610c46565b60405180910390f35b6105de610b05565b6040516105eb9190610c46565b60405180910390f35b6105fc610b2a565b6040516106099190610c46565b60405180910390f35b61061a610b4e565b6040516106279190610c46565b60405180910390f35b610638610b73565b6040516106459190610c46565b60405180910390f35b610656610b98565b6040516106639190610c46565b60405180910390f35b610674610bbd565b6040516106819190610c46565b60405180910390f35b610692610be2565b60405161069f9190610c46565b60405180910390f35b601c5f9054906101000a900473ffffffffffffffffffffffffffffffffffffffff1681565b601b5f9054906101000a900473ffffffffffffffffffffffffffffffffffffffff1681565b60135f9054906101000a900473ffffffffffffffffffffffffffffffffffffffff1681565b600560149054906101000a900463ffffffff1681565b600560189054906101000a900463ffffffff1681565b60085f9054906101000a900473ffffffffffffffffffffffffffffffffffffffff1681565b60205f9054906101000a900473ffffffffffffffffffffffffffffffffffffffff1681565b601a5f9054906101000a900473ffffffffffffffffffffffffffffffffffffffff1681565b600f5f9054906101000a900473ffffffffffffffffffffffffffffffffffffffff1681565b60115f9054906101000a900473ffffffffffffffffffffffffffffffffffffffff1681565b600a5f9054906101000a900473ffffffffffffffffffffffffffffffffffffffff1681565b60215f9054906101000a900473ffffffffffffffffffffffffffffffffffffffff1681565b60235f9054906101000a900473ffffffffffffffffffffffffffffffffffffffff1681565b60035f9054906101000a900473ffffffffffffffffffffffffffffffffffffffff1681565b60075f9054906101000a900473ffffffffffffffffffffffffffffffffffffffff1681565b60015f9054906101000a900473ffffffffffffffffffffffffffffffffffffffff1681565b60045f9054906101000a900473ffffffffffffffffffffffffffffffffffffffff1681565b60155f9054906101000a900473ffffffffffffffffffffffffffffffffffffffff1681565b600c5f9054906101000a900473ffffffffffffffffffffffffffffffffffffffff1681565b60165f9054906101000a900473ffffffffffffffffffffffffffffffffffffffff1681565b600e5f9054906101000a900473ffffffffffffffffffffffffffffffffffffffff1681565b60225f9054906101000a900473ffffffffffffffffffffffffffffffffffffffff1681565b60125f9054906101000a900473ffffffffffffffffffffffffffffffffffffffff1681565b60055f9054906101000a900473ffffffffffffffffffffffffffffffffffffffff1681565b601d5f9054906101000a900473ffffffffffffffffffffffffffffffffffffffff1681565b601f5f9054906101000a900473ffffffffffffffffffffffffffffffffffffffff1681565b600b5f9054906101000a900473ffffffffffffffffffffffffffffffffffffffff1681565b60185f9054906101000a900473ffffffffffffffffffffffffffffffffffffffff1681565b60095f9054906101000a900473ffffffffffffffffffffffffffffffffffffffff1681565b60025f9054906101000a900473ffffffffffffffffffffffffffffffffffffffff1681565b60195f9054906101000a900473ffffffffffffffffffffffffffffffffffffffff1681565b601e5f9054906101000a900473ffffffffffffffffffffffffffffffffffffffff1681565b5f5f9054906101000a900473ffffffffffffffffffffffffffffffffffffffff1681565b60065f9054906101000a900473ffffffffffffffffffffffffffffffffffffffff1681565b60145f9054906101000a900473ffffffffffffffffffffffffffffffffffffffff1681565b600d5f9054906101000a900473ffffffffffffffffffffffffffffffffffffffff1681565b60175f9054906101000a900473ffffffffffffffffffffffffffffffffffffffff1681565b60105f9054906101000a900473ffffffffffffffffffffffffffffffffffffffff1681565b5f73ffffffffffffffffffffffffffffffffffffffff82169050919050565b5f610c3082610c07565b9050919050565b610c4081610c26565b82525050565b5f602082019050610c595f830184610c37565b92915050565b5f63ffffffff82169050919050565b610c7781610c5f565b82525050565b5f602082019050610c905f830184610c6e565b9291505056fea26469706673582212206053aabe01b2634ac40972fa586b96d5014353a4e8939fc063d62d8a6b5ef25364736f6c634300081c0033","linkReferences":{}},"methodIdentifiers":{"ARB_MINTER_BURNER()":"e987c160","ARB_OAPP()":"6975ca67","ARB_SRC_EID_LIB()":"5399fd5a","BASE_DVN1()":"e5120c47","BASE_DVN2()":"4190110d","BASE_DVN3()":"21f564bc","BASE_EID()":"15f88c92","BASE_EXECUTOR()":"5ac6d96d","BASE_LZ_ENDPOINT()":"e1001432","BASE_MINTER_BURNER()":"e56debe8","BASE_OAPP()":"1525c582","BASE_RECEIVE_LIB()":"529f0d50","BASE_SEND_LIB()":"d4c73083","BASE_SRC_EID_LIB()":"8dcd805f","BASE_USDT()":"709b9036","BASE_USDTk()":"f0101a7b","BSC_MINTER_BURNER()":"9c134086","BSC_OAPP()":"01e44c41","BSC_SRC_EID_LIB()":"072888a4","GNOSIS_MINTER_BURNER()":"376052e5","GNOSIS_OAPP()":"89e4725d","GNOSIS_SRC_EID_LIB()":"359272b3","KAIA_DVN1()":"cea90728","KAIA_DVN2()":"2fa99666","KAIA_DVN3()":"ab562ddd","KAIA_EID()":"18567e88","KAIA_EXECUTOR()":"e5933998","KAIA_LZ_ENDPOINT()":"48d8d455","KAIA_MINTER_BURNER()":"25b32d39","KAIA_OAPP()":"9d3cef4b","KAIA_RECEIVE_LIB()":"8fd510cc","KAIA_SEND_LIB()":"3cdda029","KAIA_SRC_EID_LIB()":"e00e19c3","KAIA_USDT()":"2a715dd7","KAIA_USDTk()":"2ebb3fdd","POL_MINTER_BURNER()":"25d55643","POL_OAPP()":"daf2555e","POL_SRC_EID_LIB()":"bd674b94"},"id":109}