{"abi":[{"type":"function","name":"BASE_DVN1","inputs":[],"outputs":[{"name":"","type":"address","internalType":"address"}],"stateMutability":"view"},{"type":"function","name":"BASE_DVN2","inputs":[],"outputs":[{"name":"","type":"address","internalType":"address"}],"stateMutability":"view"},{"type":"function","name":"BASE_DVN3","inputs":[],"outputs":[{"name":"","type":"address","internalType":"address"}],"stateMutability":"view"},{"type":"function","name":"BASE_EID","inputs":[],"outputs":[{"name":"","type":"uint32","internalType":"uint32"}],"stateMutability":"view"},{"type":"function","name":"BASE_EXECUTOR","inputs":[],"outputs":[{"name":"","type":"address","internalType":"address"}],"stateMutability":"view"},{"type":"function","name":"BASE_KAIA","inputs":[],"outputs":[{"name":"","type":"address","internalType":"address"}],"stateMutability":"view"},{"type":"function","name":"BASE_KAIAK","inputs":[],"outputs":[{"name":"","type":"address","internalType":"address"}],"stateMutability":"view"},{"type":"function","name":"BASE_KAIAK_ELEVATED_MINTER_BURNER","inputs":[],"outputs":[{"name":"","type":"address","internalType":"address"}],"stateMutability":"view"},{"type":"function","name":"BASE_LZ_ENDPOINT","inputs":[],"outputs":[{"name":"","type":"address","internalType":"address"}],"stateMutability":"view"},{"type":"function","name":"BASE_M0CK_WKAIA","inputs":[],"outputs":[{"name":"","type":"address","internalType":"address"}],"stateMutability":"view"},{"type":"function","name":"BASE_MOCK_USDT","inputs":[],"outputs":[{"name":"","type":"address","internalType":"address"}],"stateMutability":"view"},{"type":"function","name":"BASE_MOCK_USDT_ELEVATED_MINTER_BURNER","inputs":[],"outputs":[{"name":"","type":"address","internalType":"address"}],"stateMutability":"view"},{"type":"function","name":"BASE_MOCK_WKAIA_ELEVATED_MINTER_BURNER","inputs":[],"outputs":[{"name":"","type":"address","internalType":"address"}],"stateMutability":"view"},{"type":"function","name":"BASE_OFT_KAIAK_ADAPTER","inputs":[],"outputs":[{"name":"","type":"address","internalType":"address"}],"stateMutability":"view"},{"type":"function","name":"BASE_OFT_MOCK_USDT_ADAPTER","inputs":[],"outputs":[{"name":"","type":"address","internalType":"address"}],"stateMutability":"view"},{"type":"function","name":"BASE_OFT_MOCK_WKAIA_ADAPTER","inputs":[],"outputs":[{"name":"","type":"address","internalType":"address"}],"stateMutability":"view"},{"type":"function","name":"BASE_OFT_USDTK_ADAPTER","inputs":[],"outputs":[{"name":"","type":"address","internalType":"address"}],"stateMutability":"view"},{"type":"function","name":"BASE_OFT_WBTCK_ADAPTER","inputs":[],"outputs":[{"name":"","type":"address","internalType":"address"}],"stateMutability":"view"},{"type":"function","name":"BASE_OFT_WETHK_ADAPTER","inputs":[],"outputs":[{"name":"","type":"address","internalType":"address"}],"stateMutability":"view"},{"type":"function","name":"BASE_OFT_WKAIAK_ADAPTER","inputs":[],"outputs":[{"name":"","type":"address","internalType":"address"}],"stateMutability":"view"},{"type":"function","name":"BASE_RECEIVE_LIB","inputs":[],"outputs":[{"name":"","type":"address","internalType":"address"}],"stateMutability":"view"},{"type":"function","name":"BASE_SEND_LIB","inputs":[],"outputs":[{"name":"","type":"address","internalType":"address"}],"stateMutability":"view"},{"type":"function","name":"BASE_USDT","inputs":[],"outputs":[{"name":"","type":"address","internalType":"address"}],"stateMutability":"view"},{"type":"function","name":"BASE_USDTK","inputs":[],"outputs":[{"name":"","type":"address","internalType":"address"}],"stateMutability":"view"},{"type":"function","name":"BASE_USDTK_ELEVATED_MINTER_BURNER","inputs":[],"outputs":[{"name":"","type":"address","internalType":"address"}],"stateMutability":"view"},{"type":"function","name":"BASE_WBTC","inputs":[],"outputs":[{"name":"","type":"address","internalType":"address"}],"stateMutability":"view"},{"type":"function","name":"BASE_WBTCK","inputs":[],"outputs":[{"name":"","type":"address","internalType":"address"}],"stateMutability":"view"},{"type":"function","name":"BASE_WBTCK_ELEVATED_MINTER_BURNER","inputs":[],"outputs":[{"name":"","type":"address","internalType":"address"}],"stateMutability":"view"},{"type":"function","name":"BASE_WETH","inputs":[],"outputs":[{"name":"","type":"address","internalType":"address"}],"stateMutability":"view"},{"type":"function","name":"BASE_WETHK","inputs":[],"outputs":[{"name":"","type":"address","internalType":"address"}],"stateMutability":"view"},{"type":"function","name":"BASE_WETHK_ELEVATED_MINTER_BURNER","inputs":[],"outputs":[{"name":"","type":"address","internalType":"address"}],"stateMutability":"view"},{"type":"function","name":"BASE_WKAIAK","inputs":[],"outputs":[{"name":"","type":"address","internalType":"address"}],"stateMutability":"view"},{"type":"function","name":"BASE_WKAIAK_ELEVATED_MINTER_BURNER","inputs":[],"outputs":[{"name":"","type":"address","internalType":"address"}],"stateMutability":"view"},{"type":"function","name":"BASE_oappAdapter","inputs":[],"outputs":[{"name":"","type":"address","internalType":"address"}],"stateMutability":"view"},{"type":"function","name":"BASE_oappSupplyLiquidityUSDT","inputs":[],"outputs":[{"name":"","type":"address","internalType":"address"}],"stateMutability":"view"},{"type":"function","name":"KAIA_DEX_ROUTER","inputs":[],"outputs":[{"name":"","type":"address","internalType":"address"}],"stateMutability":"view"},{"type":"function","name":"KAIA_DVN1","inputs":[],"outputs":[{"name":"","type":"address","internalType":"address"}],"stateMutability":"view"},{"type":"function","name":"KAIA_DVN2","inputs":[],"outputs":[{"name":"","type":"address","internalType":"address"}],"stateMutability":"view"},{"type":"function","name":"KAIA_DVN3","inputs":[],"outputs":[{"name":"","type":"address","internalType":"address"}],"stateMutability":"view"},{"type":"function","name":"KAIA_EID","inputs":[],"outputs":[{"name":"","type":"uint32","internalType":"uint32"}],"stateMutability":"view"},{"type":"function","name":"KAIA_EXECUTOR","inputs":[],"outputs":[{"name":"","type":"address","internalType":"address"}],"stateMutability":"view"},{"type":"function","name":"KAIA_HELPER_UTILS","inputs":[],"outputs":[{"name":"","type":"address","internalType":"address"}],"stateMutability":"view"},{"type":"function","name":"KAIA_KAIA","inputs":[],"outputs":[{"name":"","type":"address","internalType":"address"}],"stateMutability":"view"},{"type":"function","name":"KAIA_LZ_ENDPOINT","inputs":[],"outputs":[{"name":"","type":"address","internalType":"address"}],"stateMutability":"view"},{"type":"function","name":"KAIA_MOCK_USDT","inputs":[],"outputs":[{"name":"","type":"address","internalType":"address"}],"stateMutability":"view"},{"type":"function","name":"KAIA_MOCK_USDT_ELEVATED_MINTER_BURNER","inputs":[],"outputs":[{"name":"","type":"address","internalType":"address"}],"stateMutability":"view"},{"type":"function","name":"KAIA_MOCK_WBTC","inputs":[],"outputs":[{"name":"","type":"address","internalType":"address"}],"stateMutability":"view"},{"type":"function","name":"KAIA_MOCK_WETH","inputs":[],"outputs":[{"name":"","type":"address","internalType":"address"}],"stateMutability":"view"},{"type":"function","name":"KAIA_MOCK_WKAIA","inputs":[],"outputs":[{"name":"","type":"address","internalType":"address"}],"stateMutability":"view"},{"type":"function","name":"KAIA_MOCK_WKAIA_ELEVATED_MINTER_BURNER","inputs":[],"outputs":[{"name":"","type":"address","internalType":"address"}],"stateMutability":"view"},{"type":"function","name":"KAIA_OFT_MOCK_USDT_ADAPTER","inputs":[],"outputs":[{"name":"","type":"address","internalType":"address"}],"stateMutability":"view"},{"type":"function","name":"KAIA_OFT_MOCK_WKAIA_ADAPTER","inputs":[],"outputs":[{"name":"","type":"address","internalType":"address"}],"stateMutability":"view"},{"type":"function","name":"KAIA_OFT_USDT_ADAPTER","inputs":[],"outputs":[{"name":"","type":"address","internalType":"address"}],"stateMutability":"view"},{"type":"function","name":"KAIA_OFT_USDT_STARGATE_ADAPTER","inputs":[],"outputs":[{"name":"","type":"address","internalType":"address"}],"stateMutability":"view"},{"type":"function","name":"KAIA_OFT_WBTC_ADAPTER","inputs":[],"outputs":[{"name":"","type":"address","internalType":"address"}],"stateMutability":"view"},{"type":"function","name":"KAIA_OFT_WETH_ADAPTER","inputs":[],"outputs":[{"name":"","type":"address","internalType":"address"}],"stateMutability":"view"},{"type":"function","name":"KAIA_OFT_WKAIA_ADAPTER","inputs":[],"outputs":[{"name":"","type":"address","internalType":"address"}],"stateMutability":"view"},{"type":"function","name":"KAIA_RECEIVE_LIB","inputs":[],"outputs":[{"name":"","type":"address","internalType":"address"}],"stateMutability":"view"},{"type":"function","name":"KAIA_SEND_LIB","inputs":[],"outputs":[{"name":"","type":"address","internalType":"address"}],"stateMutability":"view"},{"type":"function","name":"KAIA_USDT","inputs":[],"outputs":[{"name":"","type":"address","internalType":"address"}],"stateMutability":"view"},{"type":"function","name":"KAIA_USDT_STARGATE","inputs":[],"outputs":[{"name":"","type":"address","internalType":"address"}],"stateMutability":"view"},{"type":"function","name":"KAIA_WBTC","inputs":[],"outputs":[{"name":"","type":"address","internalType":"address"}],"stateMutability":"view"},{"type":"function","name":"KAIA_WETH","inputs":[],"outputs":[{"name":"","type":"address","internalType":"address"}],"stateMutability":"view"},{"type":"function","name":"KAIA_WKAIA","inputs":[],"outputs":[{"name":"","type":"address","internalType":"address"}],"stateMutability":"view"},{"type":"function","name":"KAIA_btc_usdt_adapter","inputs":[],"outputs":[{"name":"","type":"address","internalType":"address"}],"stateMutability":"view"},{"type":"function","name":"KAIA_eth_usdt_adapter","inputs":[],"outputs":[{"name":"","type":"address","internalType":"address"}],"stateMutability":"view"},{"type":"function","name":"KAIA_isHealthy","inputs":[],"outputs":[{"name":"","type":"address","internalType":"address"}],"stateMutability":"view"},{"type":"function","name":"KAIA_kaia_usdt_adapter","inputs":[],"outputs":[{"name":"","type":"address","internalType":"address"}],"stateMutability":"view"},{"type":"function","name":"KAIA_lendingPoolDeployer","inputs":[],"outputs":[{"name":"","type":"address","internalType":"address"}],"stateMutability":"view"},{"type":"function","name":"KAIA_lendingPoolFactoryImplementation","inputs":[],"outputs":[{"name":"","type":"address","internalType":"address"}],"stateMutability":"view"},{"type":"function","name":"KAIA_lendingPoolFactoryProxy","inputs":[],"outputs":[{"name":"","type":"address","internalType":"address"}],"stateMutability":"view"},{"type":"function","name":"KAIA_lendingPoolRouterDeployer","inputs":[],"outputs":[{"name":"","type":"address","internalType":"address"}],"stateMutability":"view"},{"type":"function","name":"KAIA_liquidator","inputs":[],"outputs":[{"name":"","type":"address","internalType":"address"}],"stateMutability":"view"},{"type":"function","name":"KAIA_oappSupplyLiquidityUSDT","inputs":[],"outputs":[{"name":"","type":"address","internalType":"address"}],"stateMutability":"view"},{"type":"function","name":"KAIA_positionDeployer","inputs":[],"outputs":[{"name":"","type":"address","internalType":"address"}],"stateMutability":"view"},{"type":"function","name":"KAIA_protocol","inputs":[],"outputs":[{"name":"","type":"address","internalType":"address"}],"stateMutability":"view"},{"type":"function","name":"KAIA_usdt_usd_adapter","inputs":[],"outputs":[{"name":"","type":"address","internalType":"address"}],"stateMutability":"view"},{"type":"function","name":"btc_usdt","inputs":[],"outputs":[{"name":"","type":"address","internalType":"address"}],"stateMutability":"view"},{"type":"function","name":"eth_usdt","inputs":[],"outputs":[{"name":"","type":"address","internalType":"address"}],"stateMutability":"view"},{"type":"function","name":"kaia_usdt","inputs":[],"outputs":[{"name":"","type":"address","internalType":"address"}],"stateMutability":"view"},{"type":"function","name":"usdt_usd","inputs":[],"outputs":[{"name":"","type":"address","internalType":"address"}],"stateMutability":"view"}],"bytecode":{"object":"0x6080604052731a44076050125825900e736c501f859c50fe728c5f5f6101000a81548173ffffffffffffffffffffffffffffffffffffffff021916908373ffffffffffffffffffffffffffffffffffffffff160217905550731a44076050125825900e736c501f859c50fe728c60015f6101000a81548173ffffffffffffffffffffffffffffffffffffffff021916908373ffffffffffffffffffffffffffffffffffffffff16021790555073b5320b0b3a13cc860893e2bd79fcd7e13484dda260025f6101000a81548173ffffffffffffffffffffffffffffffffffffffff021916908373ffffffffffffffffffffffffffffffffffffffff160217905550739714ccf1dedef14bab5013625db92746c1358cb460035f6101000a81548173ffffffffffffffffffffffffffffffffffffffff021916908373ffffffffffffffffffffffffffffffffffffffff16021790555073c70ab6f32772f59fbfc23889caf4ba3376c84baf60045f6101000a81548173ffffffffffffffffffffffffffffffffffffffff021916908373ffffffffffffffffffffffffffffffffffffffff16021790555073937aba873827bf883ced83ca557697427eaa46ee60055f6101000a81548173ffffffffffffffffffffffffffffffffffffffff021916908373ffffffffffffffffffffffffffffffffffffffff1602179055506175e8600560146101000a81548163ffffffff021916908363ffffffff1602179055506175c6600560186101000a81548163ffffffff021916908363ffffffff16021790555073554833698ae0fb22ecc90b01222903fd62ca4b4760065f6101000a81548173ffffffffffffffffffffffffffffffffffffffff021916908373ffffffffffffffffffffffffffffffffffffffff16021790555073a7b5189bca84cd304d8553977c7c614329750d9960075f6101000a81548173ffffffffffffffffffffffffffffffffffffffff021916908373ffffffffffffffffffffffffffffffffffffffff160217905550739e059a54699a285714207b43b055483e78faac2560085f6101000a81548173ffffffffffffffffffffffffffffffffffffffff021916908373ffffffffffffffffffffffffffffffffffffffff160217905550731154d04d07aee26ff2c200bd373eb76a7e5694d660095f6101000a81548173ffffffffffffffffffffffffffffffffffffffff021916908373ffffffffffffffffffffffffffffffffffffffff16021790555073acde1f22eeab249d3ca6ba8805c8fee9f52a16e7600a5f6101000a81548173ffffffffffffffffffffffffffffffffffffffff021916908373ffffffffffffffffffffffffffffffffffffffff16021790555073c80233ad8251e668becbc3b0415707fc7075501e600b5f6101000a81548173ffffffffffffffffffffffffffffffffffffffff021916908373ffffffffffffffffffffffffffffffffffffffff160217905550732cca08ae69e0c44b18a57ab2a87644234daebae4600c5f6101000a81548173ffffffffffffffffffffffffffffffffffffffff021916908373ffffffffffffffffffffffffffffffffffffffff16021790555073e149187a987f129fd3d397ed04a60b0b89d1669f600d5f6101000a81548173ffffffffffffffffffffffffffffffffffffffff021916908373ffffffffffffffffffffffffffffffffffffffff16021790555073d077a400968890eacc75cdc901f0356c943e4fdb600e5f6101000a81548173ffffffffffffffffffffffffffffffffffffffff021916908373ffffffffffffffffffffffffffffffffffffffff160217905550739025095263d1e548dc890a7589a4c78038ac40ab600f5f6101000a81548173ffffffffffffffffffffffffffffffffffffffff021916908373ffffffffffffffffffffffffffffffffffffffff160217905550600160105f6101000a81548173ffffffffffffffffffffffffffffffffffffffff021916908373ffffffffffffffffffffffffffffffffffffffff1602179055507319aac5f612f524b754ca7e7c41cbfa2e981a443260115f6101000a81548173ffffffffffffffffffffffffffffffffffffffff021916908373ffffffffffffffffffffffffffffffffffffffff1602179055507398a8345bb9d3dda9d808ca1c9142a28f6b0430e160125f6101000a81548173ffffffffffffffffffffffffffffffffffffffff021916908373ffffffffffffffffffffffffffffffffffffffff16021790555073981846be8d2d697f4dfef6689a161a25ffbab8f960135f6101000a81548173ffffffffffffffffffffffffffffffffffffffff021916908373ffffffffffffffffffffffffffffffffffffffff16021790555073fde4c96c8593536e31f229ea8f37b2ada2699bb260145f6101000a81548173ffffffffffffffffffffffffffffffffffffffff021916908373ffffffffffffffffffffffffffffffffffffffff16021790555073420000000000000000000000000000000000000660165f6101000a81548173ffffffffffffffffffffffffffffffffffffffff021916908373ffffffffffffffffffffffffffffffffffffffff160217905550730555e30da8f98308edb960aa94c0db47230d2b9c60175f6101000a81548173ffffffffffffffffffffffffffffffffffffffff021916908373ffffffffffffffffffffffffffffffffffffffff16021790555073a324880f884036e3d21a09b90269e1ac57c7ec8a60185f6101000a81548173ffffffffffffffffffffffffffffffffffffffff021916908373ffffffffffffffffffffffffffffffffffffffff160217905550736d68a52bc77f2eac3582a7072ead94c19b9f480c60195f6101000a81548173ffffffffffffffffffffffffffffffffffffffff021916908373ffffffffffffffffffffffffffffffffffffffff16021790555073920cd2f6e139b6c40053bcd5f67923d1d7dd3140601a5f6101000a81548173ffffffffffffffffffffffffffffffffffffffff021916908373ffffffffffffffffffffffffffffffffffffffff160217905550735ddbbc68527214e0aca3b4175860080cbdaa12ff601b5f6101000a81548173ffffffffffffffffffffffffffffffffffffffff021916908373ffffffffffffffffffffffffffffffffffffffff16021790555073fe5138a42dc1fc335455b505e036784a33f7f102601c5f6101000a81548173ffffffffffffffffffffffffffffffffffffffff021916908373ffffffffffffffffffffffffffffffffffffffff16021790555073b0e96105543cba4b3d82911e7336f19bd03b0360601d5f6101000a81548173ffffffffffffffffffffffffffffffffffffffff021916908373ffffffffffffffffffffffffffffffffffffffff16021790555073ceb5c8903060197e46ab5ea5087b9f99cbc8da49601e5f6101000a81548173ffffffffffffffffffffffffffffffffffffffff021916908373ffffffffffffffffffffffffffffffffffffffff16021790555073a628a83cc869b82a684895f628029eb90ee60224601f5f6101000a81548173ffffffffffffffffffffffffffffffffffffffff021916908373ffffffffffffffffffffffffffffffffffffffff16021790555073af9842adacb4b2fa619d45fe11579fae5faf169860205f6101000a81548173ffffffffffffffffffffffffffffffffffffffff021916908373ffffffffffffffffffffffffffffffffffffffff16021790555073684a2aaf3d98bc8ed2c07988e8da9023026ad51160215f6101000a81548173ffffffffffffffffffffffffffffffffffffffff021916908373ffffffffffffffffffffffffffffffffffffffff16021790555073c7e9cf4bc5f6c43e1410ffa33436287968003ace60225f6101000a81548173ffffffffffffffffffffffffffffffffffffffff021916908373ffffffffffffffffffffffffffffffffffffffff16021790555073da5d036f51bd6fe5e32915a53595b71312d45f9160235f6101000a81548173ffffffffffffffffffffffffffffffffffffffff021916908373ffffffffffffffffffffffffffffffffffffffff16021790555073649ef2a788732900b82237c126a121be3282997c60245f6101000a81548173ffffffffffffffffffffffffffffffffffffffff021916908373ffffffffffffffffffffffffffffffffffffffff160217905550738bf79e425b54ecd75907b4eda00dced8c1a97db060255f6101000a81548173ffffffffffffffffffffffffffffffffffffffff021916908373ffffffffffffffffffffffffffffffffffffffff16021790555073f8af5114ad19422e059797ca2515febd8bc06bd160265f6101000a81548173ffffffffffffffffffffffffffffffffffffffff021916908373ffffffffffffffffffffffffffffffffffffffff16021790555073c3be8ab4ca0cefe3119a765b324bbdf54a16a65b60275f6101000a81548173ffffffffffffffffffffffffffffffffffffffff021916908373ffffffffffffffffffffffffffffffffffffffff1602179055507346da9f76c20a752132ddaefd2b14870e0a152d7160285f6101000a81548173ffffffffffffffffffffffffffffffffffffffff021916908373ffffffffffffffffffffffffffffffffffffffff160217905550733703a1da99a2bdf2d8ce57802aacb20fb546ff1260295f6101000a81548173ffffffffffffffffffffffffffffffffffffffff021916908373ffffffffffffffffffffffffffffffffffffffff16021790555073394239573079a46e438ea6d118fd96d37a61f270602a5f6101000a81548173ffffffffffffffffffffffffffffffffffffffff021916908373ffffffffffffffffffffffffffffffffffffffff16021790555073ec32cc0267002618c339274c18ad48d2bf2a9c7e602b5f6101000a81548173ffffffffffffffffffffffffffffffffffffffff021916908373ffffffffffffffffffffffffffffffffffffffff160217905550737bb55d2d27194a25517f8a47cdaf227fd413dca6602c5f6101000a81548173ffffffffffffffffffffffffffffffffffffffff021916908373ffffffffffffffffffffffffffffffffffffffff16021790555073f3f7c9320b0dbf780092daaab740b7b855522258602d5f6101000a81548173ffffffffffffffffffffffffffffffffffffffff021916908373ffffffffffffffffffffffffffffffffffffffff16021790555073da5d036f51bd6fe5e32915a53595b71312d45f91602e5f6101000a81548173ffffffffffffffffffffffffffffffffffffffff021916908373ffffffffffffffffffffffffffffffffffffffff16021790555073cfaf23d5d5f144f66a13e05a41b97c0c23aa4e1f602f5f6101000a81548173ffffffffffffffffffffffffffffffffffffffff021916908373ffffffffffffffffffffffffffffffffffffffff16021790555073a5b25a041cfc241f2b808b3298e2cb7ceb5dfcd260305f6101000a81548173ffffffffffffffffffffffffffffffffffffffff021916908373ffffffffffffffffffffffffffffffffffffffff160217905550738fed03c9d8ed1237b76be271a49d11cce5dfd81e60315f6101000a81548173ffffffffffffffffffffffffffffffffffffffff021916908373ffffffffffffffffffffffffffffffffffffffff16021790555073f15f575095a37a0325182c49a45fe05f09fc6b4d60325f6101000a81548173ffffffffffffffffffffffffffffffffffffffff021916908373ffffffffffffffffffffffffffffffffffffffff1602179055507326991986aec6748f439940949b7487341800638360335f6101000a81548173ffffffffffffffffffffffffffffffffffffffff021916908373ffffffffffffffffffffffffffffffffffffffff16021790555073943fcc03799400a672a8f82907d3a320fa76efc160345f6101000a81548173ffffffffffffffffffffffffffffffffffffffff021916908373ffffffffffffffffffffffffffffffffffffffff16021790555073ad063b1915bf95fb32f79138c0b668f23267633360355f6101000a81548173ffffffffffffffffffffffffffffffffffffffff021916908373ffffffffffffffffffffffffffffffffffffffff160217905550737f047526f942147a228f2709bb66a3bdea71ed2660365f6101000a81548173ffffffffffffffffffffffffffffffffffffffff021916908373ffffffffffffffffffffffffffffffffffffffff16021790555073b83e44f1d59bd8743ae45816acd5622fa1a5624d60375f6101000a81548173ffffffffffffffffffffffffffffffffffffffff021916908373ffffffffffffffffffffffffffffffffffffffff160217905550731effdcf81a95398920e024bb3b9ff60ce14590e760385f6101000a81548173ffffffffffffffffffffffffffffffffffffffff021916908373ffffffffffffffffffffffffffffffffffffffff160217905550736c71b7bbde382f12165d5f7749b5fd37965b1e8a60395f6101000a81548173ffffffffffffffffffffffffffffffffffffffff021916908373ffffffffffffffffffffffffffffffffffffffff16021790555073560bd1836c348c4a10eed7008e68ae58228dd117603a5f6101000a81548173ffffffffffffffffffffffffffffffffffffffff021916908373ffffffffffffffffffffffffffffffffffffffff160217905550739eaa6ec9e0b55948309eb320166312cb0807b6de603b5f6101000a81548173ffffffffffffffffffffffffffffffffffffffff021916908373ffffffffffffffffffffffffffffffffffffffff16021790555073374427909212b29fcc3ffe8e7920a190a3031cb8603c5f6101000a81548173ffffffffffffffffffffffffffffffffffffffff021916908373ffffffffffffffffffffffffffffffffffffffff1602179055507343bb8beb166c8786c50a9d1d5c8482d667cf981a603d5f6101000a81548173ffffffffffffffffffffffffffffffffffffffff021916908373ffffffffffffffffffffffffffffffffffffffff160217905550732d9a3d17400332c44ff0e2dc1b728529a33f5591603e5f6101000a81548173ffffffffffffffffffffffffffffffffffffffff021916908373ffffffffffffffffffffffffffffffffffffffff16021790555073c2caa26226585f666ec79f8ecdb0aec17893af1d603f5f6101000a81548173ffffffffffffffffffffffffffffffffffffffff021916908373ffffffffffffffffffffffffffffffffffffffff1602179055507322be5ff1ef09ebf06995da9050d44d23070c214260405f6101000a81548173ffffffffffffffffffffffffffffffffffffffff021916908373ffffffffffffffffffffffffffffffffffffffff1602179055507343add670a0e1948c90386d2b972fcaec6ce1be9060415f6101000a81548173ffffffffffffffffffffffffffffffffffffffff021916908373ffffffffffffffffffffffffffffffffffffffff16021790555073c72f2eb4a97f19ecd0c10b5201676a10b6d8bb6760425f6101000a81548173ffffffffffffffffffffffffffffffffffffffff021916908373ffffffffffffffffffffffffffffffffffffffff1602179055507346638ad472507482b7d5ba45124e93d16bc97ece60435f6101000a81548173ffffffffffffffffffffffffffffffffffffffff021916908373ffffffffffffffffffffffffffffffffffffffff16021790555073dbbb07e1ae9d0f23ac6da9bdda3dff96fca7365060445f6101000a81548173ffffffffffffffffffffffffffffffffffffffff021916908373ffffffffffffffffffffffffffffffffffffffff160217905550733703a1da99a2bdf2d8ce57802aacb20fb546ff1260455f6101000a81548173ffffffffffffffffffffffffffffffffffffffff021916908373ffffffffffffffffffffffffffffffffffffffff16021790555073530f48df8e4d60bbf9bbcfe8cf584344514af19360465f6101000a81548173ffffffffffffffffffffffffffffffffffffffff021916908373ffffffffffffffffffffffffffffffffffffffff16021790555073057852e8211698a22953e0343aae24e446ecf10560475f6101000a81548173ffffffffffffffffffffffffffffffffffffffff021916908373ffffffffffffffffffffffffffffffffffffffff160217905550731385df17f009f88e6ca1380798bf20b0669c8ee060485f6101000a81548173ffffffffffffffffffffffffffffffffffffffff021916908373ffffffffffffffffffffffffffffffffffffffff16021790555073d8d5edce9f0e3544d2a712818232fda7502ba1a660495f6101000a81548173ffffffffffffffffffffffffffffffffffffffff021916908373ffffffffffffffffffffffffffffffffffffffff16021790555073677f0172ff3e8eef477ce811ed57a85b8d8a3bda604a5f6101000a81548173ffffffffffffffffffffffffffffffffffffffff021916908373ffffffffffffffffffffffffffffffffffffffff1602179055507360377628d1733fe0fb64d8b84466b461974da60a604b5f6101000a81548173ffffffffffffffffffffffffffffffffffffffff021916908373ffffffffffffffffffffffffffffffffffffffff16021790555073c28446267b3c9a733d6c7419535b883908e55813604c5f6101000a81548173ffffffffffffffffffffffffffffffffffffffff021916908373ffffffffffffffffffffffffffffffffffffffff16021790555073a971cd2714fbcc9a942b09bc391a724df9338206604d5f6101000a81548173ffffffffffffffffffffffffffffffffffffffff021916908373ffffffffffffffffffffffffffffffffffffffff160217905550733de8c22f6b84c575429c1b9cbf5bddd49cf129fc604e5f6101000a81548173ffffffffffffffffffffffffffffffffffffffff021916908373ffffffffffffffffffffffffffffffffffffffff1602179055503480156119d9575f5ffd5b50611a66806119e75f395ff3fe608060405234801561000f575f5ffd5b5060043610610489575f3560e01c806380b6403b11610260578063cbbf250c1161014f578063e1e10016116100cc578063eb3789bb11610090578063eb3789bb14610d57578063eb9e052d14610d75578063ef54e76f14610d93578063ef54f8bf14610db1578063f5e0324914610dcf578063fa9be36714610ded57610489565b8063e1e1001614610cc1578063e415479914610cdf578063e5120c4714610cfd578063e593399814610d1b578063e8bccd0614610d3957610489565b8063d4c7308311610113578063d4c7308314610c2b578063d9edc88814610c49578063de439f5014610c67578063dfa8450d14610c85578063e100143214610ca357610489565b8063cbbf250c14610b95578063cd3cdfe114610bb3578063cea9072814610bd1578063cf5397f014610bef578063d1e4fa4514610c0d57610489565b8063ab562ddd116101dd578063b4fa0694116101a1578063b4fa069414610aff578063b53b808e14610b1d578063c399af8314610b3b578063ca4b481c14610b59578063cacee45c14610b7757610489565b8063ab562ddd14610a69578063ac7fb1b714610a87578063b07e429714610aa5578063b12715e914610ac3578063b430bac514610ae157610489565b806399a68b601161022457806399a68b60146109d3578063a016a1d7146109f1578063a7b395f214610a0f578063aa3e440c14610a2d578063aaf0e6eb14610a4b57610489565b806380b6403b1461093d57806386cfc33e1461095b5780638c602498146109795780638fd510cc1461099757806390df5b1a146109b557610489565b80633a7fefb61161037c5780635ac6d96d116102f957806366fc865f116102bd57806366fc865f146108a757806367406d42146108c5578063709b9036146108e35780637262047e146109015780637ab982a11461091f57610489565b80635ac6d96d146108115780635d9fb53d1461082f5780635dd65d311461084d57806360c884a21461086b578063634a8eee1461088957610489565b8063450036c911610340578063450036c91461077b57806348d8d45514610799578063511856cd146107b7578063529f0d50146107d55780635a432080146107f357610489565b80633a7fefb6146106e55780633bcbf719146107035780633cdda02914610721578063406aea4a1461073f5780634190110d1461075d57610489565b806317fa55501161040a57806321f564bc116103ce57806321f564bc1461064f5780632a715dd71461066d5780632b484acb1461068b5780632fa99666146106a957806335d333ce146106c757610489565b806317fa5550146105b957806318567e88146105d75780631aa6361c146105f55780631bc97a72146106135780631d4f08411461063157610489565b806307f3afb71161045157806307f3afb7146105235780630b54fe1e146105415780630efe7e8c1461055f57806315f88c921461057d57806316c67bab1461059b57610489565b806301ed58f11461048d57806303f8f8c7146104ab578063041412b2146104c957806304ee322c146104e757806307e2476214610505575b5f5ffd5b610495610e0b565b6040516104a291906119e0565b60405180910390f35b6104b3610e30565b6040516104c091906119e0565b60405180910390f35b6104d1610e55565b6040516104de91906119e0565b60405180910390f35b6104ef610e7a565b6040516104fc91906119e0565b60405180910390f35b61050d610e9f565b60405161051a91906119e0565b60405180910390f35b61052b610ec4565b60405161053891906119e0565b60405180910390f35b610549610ee9565b60405161055691906119e0565b60405180910390f35b610567610f0e565b60405161057491906119e0565b60405180910390f35b610585610f33565b6040516105929190611a17565b60405180910390f35b6105a3610f49565b6040516105b091906119e0565b60405180910390f35b6105c1610f6e565b6040516105ce91906119e0565b60405180910390f35b6105df610f93565b6040516105ec9190611a17565b60405180910390f35b6105fd610fa9565b60405161060a91906119e0565b60405180910390f35b61061b610fce565b60405161062891906119e0565b60405180910390f35b610639610ff3565b60405161064691906119e0565b60405180910390f35b610657611018565b60405161066491906119e0565b60405180910390f35b61067561103d565b60405161068291906119e0565b60405180910390f35b610693611062565b6040516106a091906119e0565b60405180910390f35b6106b1611087565b6040516106be91906119e0565b60405180910390f35b6106cf6110ac565b6040516106dc91906119e0565b60405180910390f35b6106ed6110d1565b6040516106fa91906119e0565b60405180910390f35b61070b6110f6565b60405161071891906119e0565b60405180910390f35b61072961111b565b60405161073691906119e0565b60405180910390f35b610747611140565b60405161075491906119e0565b60405180910390f35b610765611165565b60405161077291906119e0565b60405180910390f35b61078361118a565b60405161079091906119e0565b60405180910390f35b6107a16111af565b6040516107ae91906119e0565b60405180910390f35b6107bf6111d4565b6040516107cc91906119e0565b60405180910390f35b6107dd6111f9565b6040516107ea91906119e0565b60405180910390f35b6107fb61121e565b60405161080891906119e0565b60405180910390f35b610819611243565b60405161082691906119e0565b60405180910390f35b610837611268565b60405161084491906119e0565b60405180910390f35b61085561128d565b60405161086291906119e0565b60405180910390f35b6108736112b2565b60405161088091906119e0565b60405180910390f35b6108916112d7565b60405161089e91906119e0565b60405180910390f35b6108af6112fc565b6040516108bc91906119e0565b60405180910390f35b6108cd611321565b6040516108da91906119e0565b60405180910390f35b6108eb611346565b6040516108f891906119e0565b60405180910390f35b61090961136b565b60405161091691906119e0565b60405180910390f35b610927611390565b60405161093491906119e0565b60405180910390f35b6109456113b5565b60405161095291906119e0565b60405180910390f35b6109636113da565b60405161097091906119e0565b60405180910390f35b6109816113ff565b60405161098e91906119e0565b60405180910390f35b61099f611424565b6040516109ac91906119e0565b60405180910390f35b6109bd611449565b6040516109ca91906119e0565b60405180910390f35b6109db61146e565b6040516109e891906119e0565b60405180910390f35b6109f9611493565b604051610a0691906119e0565b60405180910390f35b610a176114b8565b604051610a2491906119e0565b60405180910390f35b610a356114dd565b604051610a4291906119e0565b60405180910390f35b610a53611502565b604051610a6091906119e0565b60405180910390f35b610a71611527565b604051610a7e91906119e0565b60405180910390f35b610a8f61154c565b604051610a9c91906119e0565b60405180910390f35b610aad611571565b604051610aba91906119e0565b60405180910390f35b610acb611596565b604051610ad891906119e0565b60405180910390f35b610ae96115bb565b604051610af691906119e0565b60405180910390f35b610b076115e0565b604051610b1491906119e0565b60405180910390f35b610b25611605565b604051610b3291906119e0565b60405180910390f35b610b4361162a565b604051610b5091906119e0565b60405180910390f35b610b6161164f565b604051610b6e91906119e0565b60405180910390f35b610b7f611674565b604051610b8c91906119e0565b60405180910390f35b610b9d611699565b604051610baa91906119e0565b60405180910390f35b610bbb6116be565b604051610bc891906119e0565b60405180910390f35b610bd96116e3565b604051610be691906119e0565b60405180910390f35b610bf7611708565b604051610c0491906119e0565b60405180910390f35b610c1561172d565b604051610c2291906119e0565b60405180910390f35b610c33611752565b604051610c4091906119e0565b60405180910390f35b610c51611777565b604051610c5e91906119e0565b60405180910390f35b610c6f61179c565b604051610c7c91906119e0565b60405180910390f35b610c8d6117c1565b604051610c9a91906119e0565b60405180910390f35b610cab6117e6565b604051610cb891906119e0565b60405180910390f35b610cc961180a565b604051610cd691906119e0565b60405180910390f35b610ce761182f565b604051610cf491906119e0565b60405180910390f35b610d05611854565b604051610d1291906119e0565b60405180910390f35b610d23611879565b604051610d3091906119e0565b60405180910390f35b610d4161189e565b604051610d4e91906119e0565b60405180910390f35b610d5f6118c3565b604051610d6c91906119e0565b60405180910390f35b610d7d6118e8565b604051610d8a91906119e0565b60405180910390f35b610d9b61190d565b604051610da891906119e0565b60405180910390f35b610db9611932565b604051610dc691906119e0565b60405180910390f35b610dd7611957565b604051610de491906119e0565b60405180910390f35b610df561197c565b604051610e0291906119e0565b60405180910390f35b602a5f9054906101000a900473ffffffffffffffffffffffffffffffffffffffff1681565b602b5f9054906101000a900473ffffffffffffffffffffffffffffffffffffffff1681565b60485f9054906101000a900473ffffffffffffffffffffffffffffffffffffffff1681565b602e5f9054906101000a900473ffffffffffffffffffffffffffffffffffffffff1681565b601c5f9054906101000a900473ffffffffffffffffffffffffffffffffffffffff1681565b60395f9054906101000a900473ffffffffffffffffffffffffffffffffffffffff1681565b60125f9054906101000a900473ffffffffffffffffffffffffffffffffffffffff1681565b60385f9054906101000a900473ffffffffffffffffffffffffffffffffffffffff1681565b600560149054906101000a900463ffffffff1681565b60205f9054906101000a900473ffffffffffffffffffffffffffffffffffffffff1681565b603e5f9054906101000a900473ffffffffffffffffffffffffffffffffffffffff1681565b600560189054906101000a900463ffffffff1681565b60305f9054906101000a900473ffffffffffffffffffffffffffffffffffffffff1681565b60375f9054906101000a900473ffffffffffffffffffffffffffffffffffffffff1681565b602c5f9054906101000a900473ffffffffffffffffffffffffffffffffffffffff1681565b60085f9054906101000a900473ffffffffffffffffffffffffffffffffffffffff1681565b600e5f9054906101000a900473ffffffffffffffffffffffffffffffffffffffff1681565b60495f9054906101000a900473ffffffffffffffffffffffffffffffffffffffff1681565b600a5f9054906101000a900473ffffffffffffffffffffffffffffffffffffffff1681565b60325f9054906101000a900473ffffffffffffffffffffffffffffffffffffffff1681565b604a5f9054906101000a900473ffffffffffffffffffffffffffffffffffffffff1681565b60425f9054906101000a900473ffffffffffffffffffffffffffffffffffffffff1681565b60035f9054906101000a900473ffffffffffffffffffffffffffffffffffffffff1681565b60355f9054906101000a900473ffffffffffffffffffffffffffffffffffffffff1681565b60075f9054906101000a900473ffffffffffffffffffffffffffffffffffffffff1681565b60105f9054906101000a900473ffffffffffffffffffffffffffffffffffffffff1681565b60015f9054906101000a900473ffffffffffffffffffffffffffffffffffffffff1681565b60225f9054906101000a900473ffffffffffffffffffffffffffffffffffffffff1681565b60045f9054906101000a900473ffffffffffffffffffffffffffffffffffffffff1681565b602d5f9054906101000a900473ffffffffffffffffffffffffffffffffffffffff1681565b600c5f9054906101000a900473ffffffffffffffffffffffffffffffffffffffff1681565b60235f9054906101000a900473ffffffffffffffffffffffffffffffffffffffff1681565b60185f9054906101000a900473ffffffffffffffffffffffffffffffffffffffff1681565b60475f9054906101000a900473ffffffffffffffffffffffffffffffffffffffff1681565b60195f9054906101000a900473ffffffffffffffffffffffffffffffffffffffff1681565b60445f9054906101000a900473ffffffffffffffffffffffffffffffffffffffff1681565b60115f9054906101000a900473ffffffffffffffffffffffffffffffffffffffff1681565b60145f9054906101000a900473ffffffffffffffffffffffffffffffffffffffff1681565b60455f9054906101000a900473ffffffffffffffffffffffffffffffffffffffff1681565b60405f9054906101000a900473ffffffffffffffffffffffffffffffffffffffff1681565b601a5f9054906101000a900473ffffffffffffffffffffffffffffffffffffffff1681565b603a5f9054906101000a900473ffffffffffffffffffffffffffffffffffffffff1681565b60315f9054906101000a900473ffffffffffffffffffffffffffffffffffffffff1681565b60055f9054906101000a900473ffffffffffffffffffffffffffffffffffffffff1681565b601f5f9054906101000a900473ffffffffffffffffffffffffffffffffffffffff1681565b60435f9054906101000a900473ffffffffffffffffffffffffffffffffffffffff1681565b601b5f9054906101000a900473ffffffffffffffffffffffffffffffffffffffff1681565b601e5f9054906101000a900473ffffffffffffffffffffffffffffffffffffffff1681565b60465f9054906101000a900473ffffffffffffffffffffffffffffffffffffffff1681565b601d5f9054906101000a900473ffffffffffffffffffffffffffffffffffffffff1681565b600b5f9054906101000a900473ffffffffffffffffffffffffffffffffffffffff1681565b60335f9054906101000a900473ffffffffffffffffffffffffffffffffffffffff1681565b60165f9054906101000a900473ffffffffffffffffffffffffffffffffffffffff1681565b602f5f9054906101000a900473ffffffffffffffffffffffffffffffffffffffff1681565b600f5f9054906101000a900473ffffffffffffffffffffffffffffffffffffffff1681565b60345f9054906101000a900473ffffffffffffffffffffffffffffffffffffffff1681565b60215f9054906101000a900473ffffffffffffffffffffffffffffffffffffffff1681565b603f5f9054906101000a900473ffffffffffffffffffffffffffffffffffffffff1681565b604e5f9054906101000a900473ffffffffffffffffffffffffffffffffffffffff1681565b604d5f9054906101000a900473ffffffffffffffffffffffffffffffffffffffff1681565b60265f9054906101000a900473ffffffffffffffffffffffffffffffffffffffff1681565b604b5f9054906101000a900473ffffffffffffffffffffffffffffffffffffffff1681565b60095f9054906101000a900473ffffffffffffffffffffffffffffffffffffffff1681565b60365f9054906101000a900473ffffffffffffffffffffffffffffffffffffffff1681565b60285f9054906101000a900473ffffffffffffffffffffffffffffffffffffffff1681565b60025f9054906101000a900473ffffffffffffffffffffffffffffffffffffffff1681565b60245f9054906101000a900473ffffffffffffffffffffffffffffffffffffffff1681565b60155f9054906101000a900473ffffffffffffffffffffffffffffffffffffffff1681565b603c5f9054906101000a900473ffffffffffffffffffffffffffffffffffffffff1681565b5f5f9054906101000a900473ffffffffffffffffffffffffffffffffffffffff1681565b60415f9054906101000a900473ffffffffffffffffffffffffffffffffffffffff1681565b603b5f9054906101000a900473ffffffffffffffffffffffffffffffffffffffff1681565b60065f9054906101000a900473ffffffffffffffffffffffffffffffffffffffff1681565b600d5f9054906101000a900473ffffffffffffffffffffffffffffffffffffffff1681565b603d5f9054906101000a900473ffffffffffffffffffffffffffffffffffffffff1681565b60135f9054906101000a900473ffffffffffffffffffffffffffffffffffffffff1681565b604c5f9054906101000a900473ffffffffffffffffffffffffffffffffffffffff1681565b60255f9054906101000a900473ffffffffffffffffffffffffffffffffffffffff1681565b60295f9054906101000a900473ffffffffffffffffffffffffffffffffffffffff1681565b60275f9054906101000a900473ffffffffffffffffffffffffffffffffffffffff1681565b60175f9054906101000a900473ffffffffffffffffffffffffffffffffffffffff1681565b5f73ffffffffffffffffffffffffffffffffffffffff82169050919050565b5f6119ca826119a1565b9050919050565b6119da816119c0565b82525050565b5f6020820190506119f35f8301846119d1565b92915050565b5f63ffffffff82169050919050565b611a11816119f9565b82525050565b5f602082019050611a2a5f830184611a08565b9291505056fea26469706673582212204314258c5da5001dc5cac0f3d81884f42783d28d825f96f1de1f52f443f9c64064736f6c634300081e0033","linkReferences":{}},"methodIdentifiers":{"BASE_DVN1()":"e5120c47","BASE_DVN2()":"4190110d","BASE_DVN3()":"21f564bc","BASE_EID()":"15f88c92","BASE_EXECUTOR()":"5ac6d96d","BASE_KAIA()":"de439f50","BASE_KAIAK()":"d1e4fa45","BASE_KAIAK_ELEVATED_MINTER_BURNER()":"b12715e9","BASE_LZ_ENDPOINT()":"e1001432","BASE_M0CK_WKAIA()":"5a432080","BASE_MOCK_USDT()":"1d4f0841","BASE_MOCK_USDT_ELEVATED_MINTER_BURNER()":"ac7fb1b7","BASE_MOCK_WKAIA_ELEVATED_MINTER_BURNER()":"b4fa0694","BASE_OFT_KAIAK_ADAPTER()":"cf5397f0","BASE_OFT_MOCK_USDT_ADAPTER()":"86cfc33e","BASE_OFT_MOCK_WKAIA_ADAPTER()":"e4154799","BASE_OFT_USDTK_ADAPTER()":"406aea4a","BASE_OFT_WBTCK_ADAPTER()":"0efe7e8c","BASE_OFT_WETHK_ADAPTER()":"07f3afb7","BASE_OFT_WKAIAK_ADAPTER()":"1bc97a72","BASE_RECEIVE_LIB()":"529f0d50","BASE_SEND_LIB()":"d4c73083","BASE_USDT()":"709b9036","BASE_USDTK()":"f5e03249","BASE_USDTK_ELEVATED_MINTER_BURNER()":"04ee322c","BASE_WBTC()":"fa9be367","BASE_WBTCK()":"01ed58f1","BASE_WBTCK_ELEVATED_MINTER_BURNER()":"35d333ce","BASE_WETH()":"b07e4297","BASE_WETHK()":"03f8f8c7","BASE_WETHK_ELEVATED_MINTER_BURNER()":"8c602498","BASE_WKAIAK()":"ef54f8bf","BASE_WKAIAK_ELEVATED_MINTER_BURNER()":"1aa6361c","BASE_oappAdapter()":"e8bccd06","BASE_oappSupplyLiquidityUSDT()":"dfa8450d","KAIA_DEX_ROUTER()":"5dd65d31","KAIA_DVN1()":"cea90728","KAIA_DVN2()":"2fa99666","KAIA_DVN3()":"ab562ddd","KAIA_EID()":"18567e88","KAIA_EXECUTOR()":"e5933998","KAIA_HELPER_UTILS()":"ca4b481c","KAIA_KAIA()":"450036c9","KAIA_LZ_ENDPOINT()":"48d8d455","KAIA_MOCK_USDT()":"a7b395f2","KAIA_MOCK_USDT_ELEVATED_MINTER_BURNER()":"90df5b1a","KAIA_MOCK_WBTC()":"ef54e76f","KAIA_MOCK_WETH()":"d9edc888","KAIA_MOCK_WKAIA()":"b53b808e","KAIA_MOCK_WKAIA_ELEVATED_MINTER_BURNER()":"511856cd","KAIA_OFT_MOCK_USDT_ADAPTER()":"16c67bab","KAIA_OFT_MOCK_WKAIA_ADAPTER()":"5d9fb53d","KAIA_OFT_USDT_ADAPTER()":"634a8eee","KAIA_OFT_USDT_STARGATE_ADAPTER()":"80b6403b","KAIA_OFT_WBTC_ADAPTER()":"07e24762","KAIA_OFT_WETH_ADAPTER()":"aaf0e6eb","KAIA_OFT_WKAIA_ADAPTER()":"a016a1d7","KAIA_RECEIVE_LIB()":"8fd510cc","KAIA_SEND_LIB()":"3cdda029","KAIA_USDT()":"2a715dd7","KAIA_USDT_STARGATE()":"b430bac5","KAIA_WBTC()":"eb3789bb","KAIA_WETH()":"0b54fe1e","KAIA_WKAIA()":"67406d42","KAIA_btc_usdt_adapter()":"7262047e","KAIA_eth_usdt_adapter()":"66fc865f","KAIA_isHealthy()":"60c884a2","KAIA_kaia_usdt_adapter()":"99a68b60","KAIA_lendingPoolDeployer()":"3a7fefb6","KAIA_lendingPoolFactoryImplementation()":"eb9e052d","KAIA_lendingPoolFactoryProxy()":"cacee45c","KAIA_lendingPoolRouterDeployer()":"cd3cdfe1","KAIA_liquidator()":"aa3e440c","KAIA_oappSupplyLiquidityUSDT()":"cbbf250c","KAIA_positionDeployer()":"041412b2","KAIA_protocol()":"2b484acb","KAIA_usdt_usd_adapter()":"3bcbf719","btc_usdt()":"e1e10016","eth_usdt()":"7ab982a1","kaia_usdt()":"c399af83","usdt_usd()":"17fa5550"},"id":98}