{"abi":[{"type":"function","name":"BASE_DVN1","inputs":[],"outputs":[{"name":"","type":"address","internalType":"address"}],"stateMutability":"view"},{"type":"function","name":"BASE_DVN2","inputs":[],"outputs":[{"name":"","type":"address","internalType":"address"}],"stateMutability":"view"},{"type":"function","name":"BASE_DVN3","inputs":[],"outputs":[{"name":"","type":"address","internalType":"address"}],"stateMutability":"view"},{"type":"function","name":"BASE_EID","inputs":[],"outputs":[{"name":"","type":"uint32","internalType":"uint32"}],"stateMutability":"view"},{"type":"function","name":"BASE_EXECUTOR","inputs":[],"outputs":[{"name":"","type":"address","internalType":"address"}],"stateMutability":"view"},{"type":"function","name":"BASE_KAIA","inputs":[],"outputs":[{"name":"","type":"address","internalType":"address"}],"stateMutability":"view"},{"type":"function","name":"BASE_LZ_ENDPOINT","inputs":[],"outputs":[{"name":"","type":"address","internalType":"address"}],"stateMutability":"view"},{"type":"function","name":"BASE_M0CK_WKAIA","inputs":[],"outputs":[{"name":"","type":"address","internalType":"address"}],"stateMutability":"view"},{"type":"function","name":"BASE_MOCK_USDT","inputs":[],"outputs":[{"name":"","type":"address","internalType":"address"}],"stateMutability":"view"},{"type":"function","name":"BASE_MOCK_USDT_ELEVATED_MINTER_BURNER","inputs":[],"outputs":[{"name":"","type":"address","internalType":"address"}],"stateMutability":"view"},{"type":"function","name":"BASE_MOCK_WKAIA_ELEVATED_MINTER_BURNER","inputs":[],"outputs":[{"name":"","type":"address","internalType":"address"}],"stateMutability":"view"},{"type":"function","name":"BASE_OFT_MOCK_USDT_ADAPTER","inputs":[],"outputs":[{"name":"","type":"address","internalType":"address"}],"stateMutability":"view"},{"type":"function","name":"BASE_OFT_MOCK_WKAIA_ADAPTER","inputs":[],"outputs":[{"name":"","type":"address","internalType":"address"}],"stateMutability":"view"},{"type":"function","name":"BASE_OFT_SKAIA_ADAPTER","inputs":[],"outputs":[{"name":"","type":"address","internalType":"address"}],"stateMutability":"view"},{"type":"function","name":"BASE_OFT_SUSDT_ADAPTER","inputs":[],"outputs":[{"name":"","type":"address","internalType":"address"}],"stateMutability":"view"},{"type":"function","name":"BASE_OFT_SWBTC_ADAPTER","inputs":[],"outputs":[{"name":"","type":"address","internalType":"address"}],"stateMutability":"view"},{"type":"function","name":"BASE_OFT_SWETH_ADAPTER","inputs":[],"outputs":[{"name":"","type":"address","internalType":"address"}],"stateMutability":"view"},{"type":"function","name":"BASE_OFT_SWKAIA_ADAPTER","inputs":[],"outputs":[{"name":"","type":"address","internalType":"address"}],"stateMutability":"view"},{"type":"function","name":"BASE_RECEIVE_LIB","inputs":[],"outputs":[{"name":"","type":"address","internalType":"address"}],"stateMutability":"view"},{"type":"function","name":"BASE_SEND_LIB","inputs":[],"outputs":[{"name":"","type":"address","internalType":"address"}],"stateMutability":"view"},{"type":"function","name":"BASE_SKAIA","inputs":[],"outputs":[{"name":"","type":"address","internalType":"address"}],"stateMutability":"view"},{"type":"function","name":"BASE_SKAIA_ELEVATED_MINTER_BURNER","inputs":[],"outputs":[{"name":"","type":"address","internalType":"address"}],"stateMutability":"view"},{"type":"function","name":"BASE_SUSDT","inputs":[],"outputs":[{"name":"","type":"address","internalType":"address"}],"stateMutability":"view"},{"type":"function","name":"BASE_SUSDT_ELEVATED_MINTER_BURNER","inputs":[],"outputs":[{"name":"","type":"address","internalType":"address"}],"stateMutability":"view"},{"type":"function","name":"BASE_SWBTC","inputs":[],"outputs":[{"name":"","type":"address","internalType":"address"}],"stateMutability":"view"},{"type":"function","name":"BASE_SWBTC_ELEVATED_MINTER_BURNER","inputs":[],"outputs":[{"name":"","type":"address","internalType":"address"}],"stateMutability":"view"},{"type":"function","name":"BASE_SWETH","inputs":[],"outputs":[{"name":"","type":"address","internalType":"address"}],"stateMutability":"view"},{"type":"function","name":"BASE_SWETH_ELEVATED_MINTER_BURNER","inputs":[],"outputs":[{"name":"","type":"address","internalType":"address"}],"stateMutability":"view"},{"type":"function","name":"BASE_SWKAIA","inputs":[],"outputs":[{"name":"","type":"address","internalType":"address"}],"stateMutability":"view"},{"type":"function","name":"BASE_SWKAIA_ELEVATED_MINTER_BURNER","inputs":[],"outputs":[{"name":"","type":"address","internalType":"address"}],"stateMutability":"view"},{"type":"function","name":"BASE_USDT","inputs":[],"outputs":[{"name":"","type":"address","internalType":"address"}],"stateMutability":"view"},{"type":"function","name":"BASE_WBTC","inputs":[],"outputs":[{"name":"","type":"address","internalType":"address"}],"stateMutability":"view"},{"type":"function","name":"BASE_WETH","inputs":[],"outputs":[{"name":"","type":"address","internalType":"address"}],"stateMutability":"view"},{"type":"function","name":"BASE_oappAdapter","inputs":[],"outputs":[{"name":"","type":"address","internalType":"address"}],"stateMutability":"view"},{"type":"function","name":"BASE_oappSupplyLiquidityUSDT","inputs":[],"outputs":[{"name":"","type":"address","internalType":"address"}],"stateMutability":"view"},{"type":"function","name":"GLMR_DVN1","inputs":[],"outputs":[{"name":"","type":"address","internalType":"address"}],"stateMutability":"view"},{"type":"function","name":"GLMR_DVN2","inputs":[],"outputs":[{"name":"","type":"address","internalType":"address"}],"stateMutability":"view"},{"type":"function","name":"GLMR_DVN3","inputs":[],"outputs":[{"name":"","type":"address","internalType":"address"}],"stateMutability":"view"},{"type":"function","name":"GLMR_EID","inputs":[],"outputs":[{"name":"","type":"uint32","internalType":"uint32"}],"stateMutability":"view"},{"type":"function","name":"GLMR_EXECUTOR","inputs":[],"outputs":[{"name":"","type":"address","internalType":"address"}],"stateMutability":"view"},{"type":"function","name":"GLMR_LZ_ENDPOINT","inputs":[],"outputs":[{"name":"","type":"address","internalType":"address"}],"stateMutability":"view"},{"type":"function","name":"GLMR_RECEIVE_LIB","inputs":[],"outputs":[{"name":"","type":"address","internalType":"address"}],"stateMutability":"view"},{"type":"function","name":"GLMR_SEND_LIB","inputs":[],"outputs":[{"name":"","type":"address","internalType":"address"}],"stateMutability":"view"},{"type":"function","name":"KAIA_DEX_ROUTER","inputs":[],"outputs":[{"name":"","type":"address","internalType":"address"}],"stateMutability":"view"},{"type":"function","name":"KAIA_DVN1","inputs":[],"outputs":[{"name":"","type":"address","internalType":"address"}],"stateMutability":"view"},{"type":"function","name":"KAIA_DVN2","inputs":[],"outputs":[{"name":"","type":"address","internalType":"address"}],"stateMutability":"view"},{"type":"function","name":"KAIA_DVN3","inputs":[],"outputs":[{"name":"","type":"address","internalType":"address"}],"stateMutability":"view"},{"type":"function","name":"KAIA_EID","inputs":[],"outputs":[{"name":"","type":"uint32","internalType":"uint32"}],"stateMutability":"view"},{"type":"function","name":"KAIA_EXECUTOR","inputs":[],"outputs":[{"name":"","type":"address","internalType":"address"}],"stateMutability":"view"},{"type":"function","name":"KAIA_HELPER_UTILS","inputs":[],"outputs":[{"name":"","type":"address","internalType":"address"}],"stateMutability":"view"},{"type":"function","name":"KAIA_KAIA","inputs":[],"outputs":[{"name":"","type":"address","internalType":"address"}],"stateMutability":"view"},{"type":"function","name":"KAIA_LZ_ENDPOINT","inputs":[],"outputs":[{"name":"","type":"address","internalType":"address"}],"stateMutability":"view"},{"type":"function","name":"KAIA_MOCK_USDT","inputs":[],"outputs":[{"name":"","type":"address","internalType":"address"}],"stateMutability":"view"},{"type":"function","name":"KAIA_MOCK_USDT_ELEVATED_MINTER_BURNER","inputs":[],"outputs":[{"name":"","type":"address","internalType":"address"}],"stateMutability":"view"},{"type":"function","name":"KAIA_MOCK_WBTC","inputs":[],"outputs":[{"name":"","type":"address","internalType":"address"}],"stateMutability":"view"},{"type":"function","name":"KAIA_MOCK_WETH","inputs":[],"outputs":[{"name":"","type":"address","internalType":"address"}],"stateMutability":"view"},{"type":"function","name":"KAIA_MOCK_WKAIA","inputs":[],"outputs":[{"name":"","type":"address","internalType":"address"}],"stateMutability":"view"},{"type":"function","name":"KAIA_MOCK_WKAIA_ELEVATED_MINTER_BURNER","inputs":[],"outputs":[{"name":"","type":"address","internalType":"address"}],"stateMutability":"view"},{"type":"function","name":"KAIA_OFT_MOCK_USDT_ADAPTER","inputs":[],"outputs":[{"name":"","type":"address","internalType":"address"}],"stateMutability":"view"},{"type":"function","name":"KAIA_OFT_MOCK_WKAIA_ADAPTER","inputs":[],"outputs":[{"name":"","type":"address","internalType":"address"}],"stateMutability":"view"},{"type":"function","name":"KAIA_OFT_USDT_ADAPTER","inputs":[],"outputs":[{"name":"","type":"address","internalType":"address"}],"stateMutability":"view"},{"type":"function","name":"KAIA_OFT_USDT_STARGATE_ADAPTER","inputs":[],"outputs":[{"name":"","type":"address","internalType":"address"}],"stateMutability":"view"},{"type":"function","name":"KAIA_OFT_WBTC_ADAPTER","inputs":[],"outputs":[{"name":"","type":"address","internalType":"address"}],"stateMutability":"view"},{"type":"function","name":"KAIA_OFT_WETH_ADAPTER","inputs":[],"outputs":[{"name":"","type":"address","internalType":"address"}],"stateMutability":"view"},{"type":"function","name":"KAIA_OFT_WKAIA_ADAPTER","inputs":[],"outputs":[{"name":"","type":"address","internalType":"address"}],"stateMutability":"view"},{"type":"function","name":"KAIA_RECEIVE_LIB","inputs":[],"outputs":[{"name":"","type":"address","internalType":"address"}],"stateMutability":"view"},{"type":"function","name":"KAIA_SEND_LIB","inputs":[],"outputs":[{"name":"","type":"address","internalType":"address"}],"stateMutability":"view"},{"type":"function","name":"KAIA_USDT","inputs":[],"outputs":[{"name":"","type":"address","internalType":"address"}],"stateMutability":"view"},{"type":"function","name":"KAIA_USDT_STARGATE","inputs":[],"outputs":[{"name":"","type":"address","internalType":"address"}],"stateMutability":"view"},{"type":"function","name":"KAIA_WBTC","inputs":[],"outputs":[{"name":"","type":"address","internalType":"address"}],"stateMutability":"view"},{"type":"function","name":"KAIA_WETH","inputs":[],"outputs":[{"name":"","type":"address","internalType":"address"}],"stateMutability":"view"},{"type":"function","name":"KAIA_WKAIA","inputs":[],"outputs":[{"name":"","type":"address","internalType":"address"}],"stateMutability":"view"},{"type":"function","name":"KAIA_btc_usdt_adapter","inputs":[],"outputs":[{"name":"","type":"address","internalType":"address"}],"stateMutability":"view"},{"type":"function","name":"KAIA_eth_usdt_adapter","inputs":[],"outputs":[{"name":"","type":"address","internalType":"address"}],"stateMutability":"view"},{"type":"function","name":"KAIA_isHealthy","inputs":[],"outputs":[{"name":"","type":"address","internalType":"address"}],"stateMutability":"view"},{"type":"function","name":"KAIA_kaia_usdt_adapter","inputs":[],"outputs":[{"name":"","type":"address","internalType":"address"}],"stateMutability":"view"},{"type":"function","name":"KAIA_lendingPoolDeployer","inputs":[],"outputs":[{"name":"","type":"address","internalType":"address"}],"stateMutability":"view"},{"type":"function","name":"KAIA_lendingPoolFactoryImplementation","inputs":[],"outputs":[{"name":"","type":"address","internalType":"address"}],"stateMutability":"view"},{"type":"function","name":"KAIA_lendingPoolFactoryProxy","inputs":[],"outputs":[{"name":"","type":"address","internalType":"address"}],"stateMutability":"view"},{"type":"function","name":"KAIA_lendingPoolRouterDeployer","inputs":[],"outputs":[{"name":"","type":"address","internalType":"address"}],"stateMutability":"view"},{"type":"function","name":"KAIA_liquidator","inputs":[],"outputs":[{"name":"","type":"address","internalType":"address"}],"stateMutability":"view"},{"type":"function","name":"KAIA_oappSupplyLiquidityUSDT","inputs":[],"outputs":[{"name":"","type":"address","internalType":"address"}],"stateMutability":"view"},{"type":"function","name":"KAIA_positionDeployer","inputs":[],"outputs":[{"name":"","type":"address","internalType":"address"}],"stateMutability":"view"},{"type":"function","name":"KAIA_protocol","inputs":[],"outputs":[{"name":"","type":"address","internalType":"address"}],"stateMutability":"view"},{"type":"function","name":"KAIA_usdt_usd_adapter","inputs":[],"outputs":[{"name":"","type":"address","internalType":"address"}],"stateMutability":"view"},{"type":"function","name":"btc_usdt","inputs":[],"outputs":[{"name":"","type":"address","internalType":"address"}],"stateMutability":"view"},{"type":"function","name":"eth_usdt","inputs":[],"outputs":[{"name":"","type":"address","internalType":"address"}],"stateMutability":"view"},{"type":"function","name":"native_usdt","inputs":[],"outputs":[{"name":"","type":"address","internalType":"address"}],"stateMutability":"view"},{"type":"function","name":"usdt_usd","inputs":[],"outputs":[{"name":"","type":"address","internalType":"address"}],"stateMutability":"view"}],"bytecode":{"object":"0x6080604052731a44076050125825900e736c501f859c50fe728c5f5f6101000a81548173ffffffffffffffffffffffffffffffffffffffff021916908373ffffffffffffffffffffffffffffffffffffffff160217905550731a44076050125825900e736c501f859c50fe728c60015f6101000a81548173ffffffffffffffffffffffffffffffffffffffff021916908373ffffffffffffffffffffffffffffffffffffffff160217905550731a44076050125825900e736c501f859c50fe728c60025f6101000a81548173ffffffffffffffffffffffffffffffffffffffff021916908373ffffffffffffffffffffffffffffffffffffffff16021790555073b5320b0b3a13cc860893e2bd79fcd7e13484dda260035f6101000a81548173ffffffffffffffffffffffffffffffffffffffff021916908373ffffffffffffffffffffffffffffffffffffffff160217905550739714ccf1dedef14bab5013625db92746c1358cb460045f6101000a81548173ffffffffffffffffffffffffffffffffffffffff021916908373ffffffffffffffffffffffffffffffffffffffff16021790555073eac136456d078bb76f59dccb2d5e008b31afe1cf60055f6101000a81548173ffffffffffffffffffffffffffffffffffffffff021916908373ffffffffffffffffffffffffffffffffffffffff16021790555073c70ab6f32772f59fbfc23889caf4ba3376c84baf60065f6101000a81548173ffffffffffffffffffffffffffffffffffffffff021916908373ffffffffffffffffffffffffffffffffffffffff16021790555073937aba873827bf883ced83ca557697427eaa46ee60075f6101000a81548173ffffffffffffffffffffffffffffffffffffffff021916908373ffffffffffffffffffffffffffffffffffffffff160217905550732f4c6eea955e95e6d65e08620d980c0e0e92211f60085f6101000a81548173ffffffffffffffffffffffffffffffffffffffff021916908373ffffffffffffffffffffffffffffffffffffffff1602179055506175e8600860146101000a81548163ffffffff021916908363ffffffff1602179055506175c6600860186101000a81548163ffffffff021916908363ffffffff1602179055506175ae6008601c6101000a81548163ffffffff021916908363ffffffff16021790555073554833698ae0fb22ecc90b01222903fd62ca4b4760095f6101000a81548173ffffffffffffffffffffffffffffffffffffffff021916908373ffffffffffffffffffffffffffffffffffffffff16021790555073a7b5189bca84cd304d8553977c7c614329750d99600a5f6101000a81548173ffffffffffffffffffffffffffffffffffffffff021916908373ffffffffffffffffffffffffffffffffffffffff160217905550739e059a54699a285714207b43b055483e78faac25600b5f6101000a81548173ffffffffffffffffffffffffffffffffffffffff021916908373ffffffffffffffffffffffffffffffffffffffff160217905550731154d04d07aee26ff2c200bd373eb76a7e5694d6600c5f6101000a81548173ffffffffffffffffffffffffffffffffffffffff021916908373ffffffffffffffffffffffffffffffffffffffff16021790555073acde1f22eeab249d3ca6ba8805c8fee9f52a16e7600d5f6101000a81548173ffffffffffffffffffffffffffffffffffffffff021916908373ffffffffffffffffffffffffffffffffffffffff16021790555073c80233ad8251e668becbc3b0415707fc7075501e600e5f6101000a81548173ffffffffffffffffffffffffffffffffffffffff021916908373ffffffffffffffffffffffffffffffffffffffff1602179055507333e5fcc13d7439cc62d54c41aa966197145b3cd7600f5f6101000a81548173ffffffffffffffffffffffffffffffffffffffff021916908373ffffffffffffffffffffffffffffffffffffffff1602179055507334730f2570e6cff8b1c91faabf37d0dd917c436760105f6101000a81548173ffffffffffffffffffffffffffffffffffffffff021916908373ffffffffffffffffffffffffffffffffffffffff160217905550738b9b67b22ab2ed6ee324c2fd43734dbd2dddd04560115f6101000a81548173ffffffffffffffffffffffffffffffffffffffff021916908373ffffffffffffffffffffffffffffffffffffffff160217905550732cca08ae69e0c44b18a57ab2a87644234daebae460125f6101000a81548173ffffffffffffffffffffffffffffffffffffffff021916908373ffffffffffffffffffffffffffffffffffffffff16021790555073e149187a987f129fd3d397ed04a60b0b89d1669f60135f6101000a81548173ffffffffffffffffffffffffffffffffffffffff021916908373ffffffffffffffffffffffffffffffffffffffff16021790555073ec0906949f88f72bf9206e84764163e24a56a49960145f6101000a81548173ffffffffffffffffffffffffffffffffffffffff021916908373ffffffffffffffffffffffffffffffffffffffff16021790555073d077a400968890eacc75cdc901f0356c943e4fdb60155f6101000a81548173ffffffffffffffffffffffffffffffffffffffff021916908373ffffffffffffffffffffffffffffffffffffffff160217905550739025095263d1e548dc890a7589a4c78038ac40ab60165f6101000a81548173ffffffffffffffffffffffffffffffffffffffff021916908373ffffffffffffffffffffffffffffffffffffffff160217905550600160175f6101000a81548173ffffffffffffffffffffffffffffffffffffffff021916908373ffffffffffffffffffffffffffffffffffffffff1602179055507319aac5f612f524b754ca7e7c41cbfa2e981a443260185f6101000a81548173ffffffffffffffffffffffffffffffffffffffff021916908373ffffffffffffffffffffffffffffffffffffffff1602179055507398a8345bb9d3dda9d808ca1c9142a28f6b0430e160195f6101000a81548173ffffffffffffffffffffffffffffffffffffffff021916908373ffffffffffffffffffffffffffffffffffffffff16021790555073981846be8d2d697f4dfef6689a161a25ffbab8f9601a5f6101000a81548173ffffffffffffffffffffffffffffffffffffffff021916908373ffffffffffffffffffffffffffffffffffffffff16021790555073fde4c96c8593536e31f229ea8f37b2ada2699bb2601b5f6101000a81548173ffffffffffffffffffffffffffffffffffffffff021916908373ffffffffffffffffffffffffffffffffffffffff160217905550734200000000000000000000000000000000000006601d5f6101000a81548173ffffffffffffffffffffffffffffffffffffffff021916908373ffffffffffffffffffffffffffffffffffffffff160217905550730555e30da8f98308edb960aa94c0db47230d2b9c601e5f6101000a81548173ffffffffffffffffffffffffffffffffffffffff021916908373ffffffffffffffffffffffffffffffffffffffff16021790555073a324880f884036e3d21a09b90269e1ac57c7ec8a601f5f6101000a81548173ffffffffffffffffffffffffffffffffffffffff021916908373ffffffffffffffffffffffffffffffffffffffff160217905550736d68a52bc77f2eac3582a7072ead94c19b9f480c60205f6101000a81548173ffffffffffffffffffffffffffffffffffffffff021916908373ffffffffffffffffffffffffffffffffffffffff16021790555073920cd2f6e139b6c40053bcd5f67923d1d7dd314060215f6101000a81548173ffffffffffffffffffffffffffffffffffffffff021916908373ffffffffffffffffffffffffffffffffffffffff160217905550735ddbbc68527214e0aca3b4175860080cbdaa12ff60225f6101000a81548173ffffffffffffffffffffffffffffffffffffffff021916908373ffffffffffffffffffffffffffffffffffffffff16021790555073fe5138a42dc1fc335455b505e036784a33f7f10260235f6101000a81548173ffffffffffffffffffffffffffffffffffffffff021916908373ffffffffffffffffffffffffffffffffffffffff16021790555073b0e96105543cba4b3d82911e7336f19bd03b036060245f6101000a81548173ffffffffffffffffffffffffffffffffffffffff021916908373ffffffffffffffffffffffffffffffffffffffff16021790555073ceb5c8903060197e46ab5ea5087b9f99cbc8da4960255f6101000a81548173ffffffffffffffffffffffffffffffffffffffff021916908373ffffffffffffffffffffffffffffffffffffffff16021790555073a628a83cc869b82a684895f628029eb90ee6022460265f6101000a81548173ffffffffffffffffffffffffffffffffffffffff021916908373ffffffffffffffffffffffffffffffffffffffff16021790555073af9842adacb4b2fa619d45fe11579fae5faf169860275f6101000a81548173ffffffffffffffffffffffffffffffffffffffff021916908373ffffffffffffffffffffffffffffffffffffffff16021790555073684a2aaf3d98bc8ed2c07988e8da9023026ad51160285f6101000a81548173ffffffffffffffffffffffffffffffffffffffff021916908373ffffffffffffffffffffffffffffffffffffffff16021790555073c7e9cf4bc5f6c43e1410ffa33436287968003ace60295f6101000a81548173ffffffffffffffffffffffffffffffffffffffff021916908373ffffffffffffffffffffffffffffffffffffffff16021790555073da5d036f51bd6fe5e32915a53595b71312d45f91602a5f6101000a81548173ffffffffffffffffffffffffffffffffffffffff021916908373ffffffffffffffffffffffffffffffffffffffff16021790555073649ef2a788732900b82237c126a121be3282997c602b5f6101000a81548173ffffffffffffffffffffffffffffffffffffffff021916908373ffffffffffffffffffffffffffffffffffffffff160217905550738bf79e425b54ecd75907b4eda00dced8c1a97db0602c5f6101000a81548173ffffffffffffffffffffffffffffffffffffffff021916908373ffffffffffffffffffffffffffffffffffffffff16021790555073f8af5114ad19422e059797ca2515febd8bc06bd1602d5f6101000a81548173ffffffffffffffffffffffffffffffffffffffff021916908373ffffffffffffffffffffffffffffffffffffffff16021790555073c3be8ab4ca0cefe3119a765b324bbdf54a16a65b602e5f6101000a81548173ffffffffffffffffffffffffffffffffffffffff021916908373ffffffffffffffffffffffffffffffffffffffff1602179055507346da9f76c20a752132ddaefd2b14870e0a152d71602f5f6101000a81548173ffffffffffffffffffffffffffffffffffffffff021916908373ffffffffffffffffffffffffffffffffffffffff160217905550733703a1da99a2bdf2d8ce57802aacb20fb546ff1260305f6101000a81548173ffffffffffffffffffffffffffffffffffffffff021916908373ffffffffffffffffffffffffffffffffffffffff16021790555073394239573079a46e438ea6d118fd96d37a61f27060315f6101000a81548173ffffffffffffffffffffffffffffffffffffffff021916908373ffffffffffffffffffffffffffffffffffffffff16021790555073ec32cc0267002618c339274c18ad48d2bf2a9c7e60325f6101000a81548173ffffffffffffffffffffffffffffffffffffffff021916908373ffffffffffffffffffffffffffffffffffffffff160217905550737bb55d2d27194a25517f8a47cdaf227fd413dca660335f6101000a81548173ffffffffffffffffffffffffffffffffffffffff021916908373ffffffffffffffffffffffffffffffffffffffff16021790555073f3f7c9320b0dbf780092daaab740b7b85552225860345f6101000a81548173ffffffffffffffffffffffffffffffffffffffff021916908373ffffffffffffffffffffffffffffffffffffffff16021790555073da5d036f51bd6fe5e32915a53595b71312d45f9160355f6101000a81548173ffffffffffffffffffffffffffffffffffffffff021916908373ffffffffffffffffffffffffffffffffffffffff16021790555073cfaf23d5d5f144f66a13e05a41b97c0c23aa4e1f60365f6101000a81548173ffffffffffffffffffffffffffffffffffffffff021916908373ffffffffffffffffffffffffffffffffffffffff16021790555073a5b25a041cfc241f2b808b3298e2cb7ceb5dfcd260375f6101000a81548173ffffffffffffffffffffffffffffffffffffffff021916908373ffffffffffffffffffffffffffffffffffffffff160217905550738fed03c9d8ed1237b76be271a49d11cce5dfd81e60385f6101000a81548173ffffffffffffffffffffffffffffffffffffffff021916908373ffffffffffffffffffffffffffffffffffffffff16021790555073f15f575095a37a0325182c49a45fe05f09fc6b4d60395f6101000a81548173ffffffffffffffffffffffffffffffffffffffff021916908373ffffffffffffffffffffffffffffffffffffffff1602179055507326991986aec6748f439940949b74873418006383603a5f6101000a81548173ffffffffffffffffffffffffffffffffffffffff021916908373ffffffffffffffffffffffffffffffffffffffff16021790555073943fcc03799400a672a8f82907d3a320fa76efc1603b5f6101000a81548173ffffffffffffffffffffffffffffffffffffffff021916908373ffffffffffffffffffffffffffffffffffffffff16021790555073ad063b1915bf95fb32f79138c0b668f232676333603c5f6101000a81548173ffffffffffffffffffffffffffffffffffffffff021916908373ffffffffffffffffffffffffffffffffffffffff160217905550737f047526f942147a228f2709bb66a3bdea71ed26603d5f6101000a81548173ffffffffffffffffffffffffffffffffffffffff021916908373ffffffffffffffffffffffffffffffffffffffff16021790555073b83e44f1d59bd8743ae45816acd5622fa1a5624d603e5f6101000a81548173ffffffffffffffffffffffffffffffffffffffff021916908373ffffffffffffffffffffffffffffffffffffffff160217905550731effdcf81a95398920e024bb3b9ff60ce14590e7603f5f6101000a81548173ffffffffffffffffffffffffffffffffffffffff021916908373ffffffffffffffffffffffffffffffffffffffff160217905550736c71b7bbde382f12165d5f7749b5fd37965b1e8a60405f6101000a81548173ffffffffffffffffffffffffffffffffffffffff021916908373ffffffffffffffffffffffffffffffffffffffff16021790555073560bd1836c348c4a10eed7008e68ae58228dd11760415f6101000a81548173ffffffffffffffffffffffffffffffffffffffff021916908373ffffffffffffffffffffffffffffffffffffffff160217905550739eaa6ec9e0b55948309eb320166312cb0807b6de60425f6101000a81548173ffffffffffffffffffffffffffffffffffffffff021916908373ffffffffffffffffffffffffffffffffffffffff16021790555073374427909212b29fcc3ffe8e7920a190a3031cb860435f6101000a81548173ffffffffffffffffffffffffffffffffffffffff021916908373ffffffffffffffffffffffffffffffffffffffff1602179055507343bb8beb166c8786c50a9d1d5c8482d667cf981a60445f6101000a81548173ffffffffffffffffffffffffffffffffffffffff021916908373ffffffffffffffffffffffffffffffffffffffff160217905550732d9a3d17400332c44ff0e2dc1b728529a33f559160455f6101000a81548173ffffffffffffffffffffffffffffffffffffffff021916908373ffffffffffffffffffffffffffffffffffffffff16021790555073c2caa26226585f666ec79f8ecdb0aec17893af1d60465f6101000a81548173ffffffffffffffffffffffffffffffffffffffff021916908373ffffffffffffffffffffffffffffffffffffffff1602179055507322be5ff1ef09ebf06995da9050d44d23070c214260475f6101000a81548173ffffffffffffffffffffffffffffffffffffffff021916908373ffffffffffffffffffffffffffffffffffffffff1602179055507343add670a0e1948c90386d2b972fcaec6ce1be9060485f6101000a81548173ffffffffffffffffffffffffffffffffffffffff021916908373ffffffffffffffffffffffffffffffffffffffff16021790555073c72f2eb4a97f19ecd0c10b5201676a10b6d8bb6760495f6101000a81548173ffffffffffffffffffffffffffffffffffffffff021916908373ffffffffffffffffffffffffffffffffffffffff1602179055507346638ad472507482b7d5ba45124e93d16bc97ece604a5f6101000a81548173ffffffffffffffffffffffffffffffffffffffff021916908373ffffffffffffffffffffffffffffffffffffffff16021790555073dbbb07e1ae9d0f23ac6da9bdda3dff96fca73650604b5f6101000a81548173ffffffffffffffffffffffffffffffffffffffff021916908373ffffffffffffffffffffffffffffffffffffffff160217905550733703a1da99a2bdf2d8ce57802aacb20fb546ff12604c5f6101000a81548173ffffffffffffffffffffffffffffffffffffffff021916908373ffffffffffffffffffffffffffffffffffffffff16021790555073530f48df8e4d60bbf9bbcfe8cf584344514af193604d5f6101000a81548173ffffffffffffffffffffffffffffffffffffffff021916908373ffffffffffffffffffffffffffffffffffffffff16021790555073057852e8211698a22953e0343aae24e446ecf105604e5f6101000a81548173ffffffffffffffffffffffffffffffffffffffff021916908373ffffffffffffffffffffffffffffffffffffffff160217905550731385df17f009f88e6ca1380798bf20b0669c8ee0604f5f6101000a81548173ffffffffffffffffffffffffffffffffffffffff021916908373ffffffffffffffffffffffffffffffffffffffff16021790555073d8d5edce9f0e3544d2a712818232fda7502ba1a660505f6101000a81548173ffffffffffffffffffffffffffffffffffffffff021916908373ffffffffffffffffffffffffffffffffffffffff16021790555073677f0172ff3e8eef477ce811ed57a85b8d8a3bda60515f6101000a81548173ffffffffffffffffffffffffffffffffffffffff021916908373ffffffffffffffffffffffffffffffffffffffff1602179055507360377628d1733fe0fb64d8b84466b461974da60a60525f6101000a81548173ffffffffffffffffffffffffffffffffffffffff021916908373ffffffffffffffffffffffffffffffffffffffff16021790555073c28446267b3c9a733d6c7419535b883908e5581360535f6101000a81548173ffffffffffffffffffffffffffffffffffffffff021916908373ffffffffffffffffffffffffffffffffffffffff16021790555073a971cd2714fbcc9a942b09bc391a724df933820660545f6101000a81548173ffffffffffffffffffffffffffffffffffffffff021916908373ffffffffffffffffffffffffffffffffffffffff160217905550733de8c22f6b84c575429c1b9cbf5bddd49cf129fc60555f6101000a81548173ffffffffffffffffffffffffffffffffffffffff021916908373ffffffffffffffffffffffffffffffffffffffff160217905550348015611c48575f5ffd5b50611cc780611c565f395ff3fe608060405234801561000f575f5ffd5b50600436106104e1575f3560e01c806390df5b1a1161028c578063cacee45c11610165578063e4154799116100d7578063ef54e76f11610090578063ef54e76f14610e9f578063efffd77c14610ebd578063f4be750414610edb578063fa9be36714610ef9578063fbdf059314610f17578063fd9eef0414610f35576104e1565b8063e415479914610deb578063e5120c4714610e09578063e593399814610e27578063e8bccd0614610e45578063eb3789bb14610e63578063eb9e052d14610e81576104e1565b8063d4c7308311610129578063d4c7308314610d37578063d9edc88814610d55578063de439f5014610d73578063dfa8450d14610d91578063e100143214610daf578063e1e1001614610dcd576104e1565b8063cacee45c14610ca1578063cbbf250c14610cbf578063cd3cdfe114610cdd578063cea9072814610cfb578063cf642cc914610d19576104e1565b8063b07e4297116101fe578063b53b808e116101c2578063b53b808e14610bed578063ba717f8614610c0b578063ba91cd4314610c29578063c304e50814610c47578063c5e4a50914610c65578063ca4b481c14610c83576104e1565b8063b07e429714610b57578063b3a9810514610b75578063b430bac514610b93578063b4fa069414610bb1578063b5300a3b14610bcf576104e1565b8063a7b395f211610250578063a7b395f214610aa3578063aa3e440c14610ac1578063aaf0e6eb14610adf578063ab562ddd14610afd578063ac7fb1b714610b1b578063aded9a1914610b39576104e1565b806390df5b1a14610a0d57806395df583814610a2b57806399a68b6014610a49578063a016a1d714610a67578063a2d2c6b014610a85576104e1565b8063450036c9116103be578063634a8eee116103305780637ab982a1116102f45780637ab982a1146109595780637b49a6351461097757806380b6403b1461099557806386cfc33e146109b35780638fd510cc146109d157806390406054146109ef576104e1565b8063634a8eee146108c357806366fc865f146108e157806367406d42146108ff578063709b90361461091d5780637262047e1461093b576104e1565b8063565fcaac11610382578063565fcaac1461080f5780635a4320801461082d5780635ac6d96d1461084b5780635d9fb53d146108695780635dd65d311461088757806360c884a2146108a5576104e1565b8063450036c914610779578063470ebcb01461079757806348d8d455146107b5578063511856cd146107d3578063529f0d50146107f1576104e1565b80631f8a2428116104575780632fa996661161041b5780632fa99666146106c55780633a7fefb6146106e35780633bcbf719146107015780633cdda0291461071f578063413b777a1461073d5780634190110d1461075b576104e1565b80631f8a24281461062f5780631fe42bff1461064d57806321f564bc1461066b5780632a715dd7146106895780632b484acb146106a7576104e1565b806312e7902a116104a957806312e7902a1461057b57806315f88c921461059957806316c67bab146105b757806317fa5550146105d557806318567e88146105f35780631d4f084114610611576104e1565b8063041412b2146104e557806307e247621461050357806308f40bed1461052157806308ff3f121461053f5780630b54fe1e1461055d575b5f5ffd5b6104ed610f53565b6040516104fa9190611c41565b60405180910390f35b61050b610f78565b6040516105189190611c41565b60405180910390f35b610529610f9d565b6040516105369190611c41565b60405180910390f35b610547610fc2565b6040516105549190611c41565b60405180910390f35b610565610fe7565b6040516105729190611c41565b60405180910390f35b61058361100c565b6040516105909190611c41565b60405180910390f35b6105a1611031565b6040516105ae9190611c78565b60405180910390f35b6105bf611047565b6040516105cc9190611c41565b60405180910390f35b6105dd61106c565b6040516105ea9190611c41565b60405180910390f35b6105fb611091565b6040516106089190611c78565b60405180910390f35b6106196110a7565b6040516106269190611c41565b60405180910390f35b6106376110cc565b6040516106449190611c41565b60405180910390f35b6106556110f1565b6040516106629190611c41565b60405180910390f35b610673611116565b6040516106809190611c41565b60405180910390f35b61069161113b565b60405161069e9190611c41565b60405180910390f35b6106af611160565b6040516106bc9190611c41565b60405180910390f35b6106cd611185565b6040516106da9190611c41565b60405180910390f35b6106eb6111aa565b6040516106f89190611c41565b60405180910390f35b6107096111cf565b6040516107169190611c41565b60405180910390f35b6107276111f4565b6040516107349190611c41565b60405180910390f35b610745611219565b6040516107529190611c41565b60405180910390f35b61076361123e565b6040516107709190611c41565b60405180910390f35b610781611263565b60405161078e9190611c41565b60405180910390f35b61079f611288565b6040516107ac9190611c41565b60405180910390f35b6107bd6112ad565b6040516107ca9190611c41565b60405180910390f35b6107db6112d2565b6040516107e89190611c41565b60405180910390f35b6107f96112f7565b6040516108069190611c41565b60405180910390f35b61081761131c565b6040516108249190611c41565b60405180910390f35b610835611341565b6040516108429190611c41565b60405180910390f35b610853611366565b6040516108609190611c41565b60405180910390f35b61087161138b565b60405161087e9190611c41565b60405180910390f35b61088f6113b0565b60405161089c9190611c41565b60405180910390f35b6108ad6113d5565b6040516108ba9190611c41565b60405180910390f35b6108cb6113fa565b6040516108d89190611c41565b60405180910390f35b6108e961141f565b6040516108f69190611c41565b60405180910390f35b610907611444565b6040516109149190611c41565b60405180910390f35b610925611469565b6040516109329190611c41565b60405180910390f35b61094361148e565b6040516109509190611c41565b60405180910390f35b6109616114b3565b60405161096e9190611c41565b60405180910390f35b61097f6114d8565b60405161098c9190611c41565b60405180910390f35b61099d6114fd565b6040516109aa9190611c41565b60405180910390f35b6109bb611522565b6040516109c89190611c41565b60405180910390f35b6109d9611547565b6040516109e69190611c41565b60405180910390f35b6109f761156c565b604051610a049190611c41565b60405180910390f35b610a15611591565b604051610a229190611c41565b60405180910390f35b610a336115b6565b604051610a409190611c41565b60405180910390f35b610a516115db565b604051610a5e9190611c41565b60405180910390f35b610a6f611600565b604051610a7c9190611c41565b60405180910390f35b610a8d611625565b604051610a9a9190611c41565b60405180910390f35b610aab61164a565b604051610ab89190611c41565b60405180910390f35b610ac961166f565b604051610ad69190611c41565b60405180910390f35b610ae7611694565b604051610af49190611c41565b60405180910390f35b610b056116b9565b604051610b129190611c41565b60405180910390f35b610b236116de565b604051610b309190611c41565b60405180910390f35b610b41611703565b604051610b4e9190611c41565b60405180910390f35b610b5f611728565b604051610b6c9190611c41565b60405180910390f35b610b7d61174d565b604051610b8a9190611c78565b60405180910390f35b610b9b611763565b604051610ba89190611c41565b60405180910390f35b610bb9611788565b604051610bc69190611c41565b60405180910390f35b610bd76117ad565b604051610be49190611c41565b60405180910390f35b610bf56117d2565b604051610c029190611c41565b60405180910390f35b610c136117f7565b604051610c209190611c41565b60405180910390f35b610c3161181c565b604051610c3e9190611c41565b60405180910390f35b610c4f611841565b604051610c5c9190611c41565b60405180910390f35b610c6d611866565b604051610c7a9190611c41565b60405180910390f35b610c8b61188b565b604051610c989190611c41565b60405180910390f35b610ca96118b0565b604051610cb69190611c41565b60405180910390f35b610cc76118d5565b604051610cd49190611c41565b60405180910390f35b610ce56118fa565b604051610cf29190611c41565b60405180910390f35b610d0361191f565b604051610d109190611c41565b60405180910390f35b610d21611944565b604051610d2e9190611c41565b60405180910390f35b610d3f611969565b604051610d4c9190611c41565b60405180910390f35b610d5d61198e565b604051610d6a9190611c41565b60405180910390f35b610d7b6119b3565b604051610d889190611c41565b60405180910390f35b610d996119d8565b604051610da69190611c41565b60405180910390f35b610db76119fd565b604051610dc49190611c41565b60405180910390f35b610dd5611a21565b604051610de29190611c41565b60405180910390f35b610df3611a46565b604051610e009190611c41565b60405180910390f35b610e11611a6b565b604051610e1e9190611c41565b60405180910390f35b610e2f611a90565b604051610e3c9190611c41565b60405180910390f35b610e4d611ab5565b604051610e5a9190611c41565b60405180910390f35b610e6b611ada565b604051610e789190611c41565b60405180910390f35b610e89611aff565b604051610e969190611c41565b60405180910390f35b610ea7611b24565b604051610eb49190611c41565b60405180910390f35b610ec5611b49565b604051610ed29190611c41565b60405180910390f35b610ee3611b6e565b604051610ef09190611c41565b60405180910390f35b610f01611b93565b604051610f0e9190611c41565b60405180910390f35b610f1f611bb8565b604051610f2c9190611c41565b60405180910390f35b610f3d611bdd565b604051610f4a9190611c41565b60405180910390f35b604f5f9054906101000a900473ffffffffffffffffffffffffffffffffffffffff1681565b60235f9054906101000a900473ffffffffffffffffffffffffffffffffffffffff1681565b60325f9054906101000a900473ffffffffffffffffffffffffffffffffffffffff1681565b603c5f9054906101000a900473ffffffffffffffffffffffffffffffffffffffff1681565b60195f9054906101000a900473ffffffffffffffffffffffffffffffffffffffff1681565b60385f9054906101000a900473ffffffffffffffffffffffffffffffffffffffff1681565b600860149054906101000a900463ffffffff1681565b60275f9054906101000a900473ffffffffffffffffffffffffffffffffffffffff1681565b60455f9054906101000a900473ffffffffffffffffffffffffffffffffffffffff1681565b600860189054906101000a900463ffffffff1681565b60335f9054906101000a900473ffffffffffffffffffffffffffffffffffffffff1681565b60355f9054906101000a900473ffffffffffffffffffffffffffffffffffffffff1681565b603f5f9054906101000a900473ffffffffffffffffffffffffffffffffffffffff1681565b600b5f9054906101000a900473ffffffffffffffffffffffffffffffffffffffff1681565b60155f9054906101000a900473ffffffffffffffffffffffffffffffffffffffff1681565b60505f9054906101000a900473ffffffffffffffffffffffffffffffffffffffff1681565b600d5f9054906101000a900473ffffffffffffffffffffffffffffffffffffffff1681565b60515f9054906101000a900473ffffffffffffffffffffffffffffffffffffffff1681565b60495f9054906101000a900473ffffffffffffffffffffffffffffffffffffffff1681565b60045f9054906101000a900473ffffffffffffffffffffffffffffffffffffffff1681565b60025f9054906101000a900473ffffffffffffffffffffffffffffffffffffffff1681565b600a5f9054906101000a900473ffffffffffffffffffffffffffffffffffffffff1681565b60175f9054906101000a900473ffffffffffffffffffffffffffffffffffffffff1681565b60145f9054906101000a900473ffffffffffffffffffffffffffffffffffffffff1681565b60015f9054906101000a900473ffffffffffffffffffffffffffffffffffffffff1681565b60295f9054906101000a900473ffffffffffffffffffffffffffffffffffffffff1681565b60065f9054906101000a900473ffffffffffffffffffffffffffffffffffffffff1681565b600f5f9054906101000a900473ffffffffffffffffffffffffffffffffffffffff1681565b60345f9054906101000a900473ffffffffffffffffffffffffffffffffffffffff1681565b60125f9054906101000a900473ffffffffffffffffffffffffffffffffffffffff1681565b602a5f9054906101000a900473ffffffffffffffffffffffffffffffffffffffff1681565b601f5f9054906101000a900473ffffffffffffffffffffffffffffffffffffffff1681565b604e5f9054906101000a900473ffffffffffffffffffffffffffffffffffffffff1681565b60205f9054906101000a900473ffffffffffffffffffffffffffffffffffffffff1681565b604b5f9054906101000a900473ffffffffffffffffffffffffffffffffffffffff1681565b60185f9054906101000a900473ffffffffffffffffffffffffffffffffffffffff1681565b601b5f9054906101000a900473ffffffffffffffffffffffffffffffffffffffff1681565b604c5f9054906101000a900473ffffffffffffffffffffffffffffffffffffffff1681565b60475f9054906101000a900473ffffffffffffffffffffffffffffffffffffffff1681565b60105f9054906101000a900473ffffffffffffffffffffffffffffffffffffffff1681565b60215f9054906101000a900473ffffffffffffffffffffffffffffffffffffffff1681565b60415f9054906101000a900473ffffffffffffffffffffffffffffffffffffffff1681565b60075f9054906101000a900473ffffffffffffffffffffffffffffffffffffffff1681565b60315f9054906101000a900473ffffffffffffffffffffffffffffffffffffffff1681565b60265f9054906101000a900473ffffffffffffffffffffffffffffffffffffffff1681565b60115f9054906101000a900473ffffffffffffffffffffffffffffffffffffffff1681565b604a5f9054906101000a900473ffffffffffffffffffffffffffffffffffffffff1681565b60225f9054906101000a900473ffffffffffffffffffffffffffffffffffffffff1681565b60465f9054906101000a900473ffffffffffffffffffffffffffffffffffffffff1681565b60255f9054906101000a900473ffffffffffffffffffffffffffffffffffffffff1681565b604d5f9054906101000a900473ffffffffffffffffffffffffffffffffffffffff1681565b60245f9054906101000a900473ffffffffffffffffffffffffffffffffffffffff1681565b600e5f9054906101000a900473ffffffffffffffffffffffffffffffffffffffff1681565b603a5f9054906101000a900473ffffffffffffffffffffffffffffffffffffffff1681565b603e5f9054906101000a900473ffffffffffffffffffffffffffffffffffffffff1681565b601d5f9054906101000a900473ffffffffffffffffffffffffffffffffffffffff1681565b6008601c9054906101000a900463ffffffff1681565b60165f9054906101000a900473ffffffffffffffffffffffffffffffffffffffff1681565b603b5f9054906101000a900473ffffffffffffffffffffffffffffffffffffffff1681565b603d5f9054906101000a900473ffffffffffffffffffffffffffffffffffffffff1681565b60285f9054906101000a900473ffffffffffffffffffffffffffffffffffffffff1681565b60055f9054906101000a900473ffffffffffffffffffffffffffffffffffffffff1681565b60375f9054906101000a900473ffffffffffffffffffffffffffffffffffffffff1681565b60395f9054906101000a900473ffffffffffffffffffffffffffffffffffffffff1681565b60305f9054906101000a900473ffffffffffffffffffffffffffffffffffffffff1681565b60555f9054906101000a900473ffffffffffffffffffffffffffffffffffffffff1681565b60545f9054906101000a900473ffffffffffffffffffffffffffffffffffffffff1681565b602d5f9054906101000a900473ffffffffffffffffffffffffffffffffffffffff1681565b60525f9054906101000a900473ffffffffffffffffffffffffffffffffffffffff1681565b600c5f9054906101000a900473ffffffffffffffffffffffffffffffffffffffff1681565b602e5f9054906101000a900473ffffffffffffffffffffffffffffffffffffffff1681565b60035f9054906101000a900473ffffffffffffffffffffffffffffffffffffffff1681565b602b5f9054906101000a900473ffffffffffffffffffffffffffffffffffffffff1681565b601c5f9054906101000a900473ffffffffffffffffffffffffffffffffffffffff1681565b60435f9054906101000a900473ffffffffffffffffffffffffffffffffffffffff1681565b5f5f9054906101000a900473ffffffffffffffffffffffffffffffffffffffff1681565b60485f9054906101000a900473ffffffffffffffffffffffffffffffffffffffff1681565b60425f9054906101000a900473ffffffffffffffffffffffffffffffffffffffff1681565b60095f9054906101000a900473ffffffffffffffffffffffffffffffffffffffff1681565b60135f9054906101000a900473ffffffffffffffffffffffffffffffffffffffff1681565b60445f9054906101000a900473ffffffffffffffffffffffffffffffffffffffff1681565b601a5f9054906101000a900473ffffffffffffffffffffffffffffffffffffffff1681565b60535f9054906101000a900473ffffffffffffffffffffffffffffffffffffffff1681565b602c5f9054906101000a900473ffffffffffffffffffffffffffffffffffffffff1681565b60365f9054906101000a900473ffffffffffffffffffffffffffffffffffffffff1681565b602f5f9054906101000a900473ffffffffffffffffffffffffffffffffffffffff1681565b601e5f9054906101000a900473ffffffffffffffffffffffffffffffffffffffff1681565b60085f9054906101000a900473ffffffffffffffffffffffffffffffffffffffff1681565b60405f9054906101000a900473ffffffffffffffffffffffffffffffffffffffff1681565b5f73ffffffffffffffffffffffffffffffffffffffff82169050919050565b5f611c2b82611c02565b9050919050565b611c3b81611c21565b82525050565b5f602082019050611c545f830184611c32565b92915050565b5f63ffffffff82169050919050565b611c7281611c5a565b82525050565b5f602082019050611c8b5f830184611c69565b9291505056fea26469706673582212204fa9a329f26af3ef9cf018f9c8712c91ea615867cf1853cfd82116d2ade37d0f64736f6c634300081e0033","linkReferences":{}},"methodIdentifiers":{"BASE_DVN1()":"e5120c47","BASE_DVN2()":"4190110d","BASE_DVN3()":"21f564bc","BASE_EID()":"15f88c92","BASE_EXECUTOR()":"5ac6d96d","BASE_KAIA()":"de439f50","BASE_LZ_ENDPOINT()":"e1001432","BASE_M0CK_WKAIA()":"5a432080","BASE_MOCK_USDT()":"1d4f0841","BASE_MOCK_USDT_ELEVATED_MINTER_BURNER()":"ac7fb1b7","BASE_MOCK_WKAIA_ELEVATED_MINTER_BURNER()":"b4fa0694","BASE_OFT_MOCK_USDT_ADAPTER()":"86cfc33e","BASE_OFT_MOCK_WKAIA_ADAPTER()":"e4154799","BASE_OFT_SKAIA_ADAPTER()":"b5300a3b","BASE_OFT_SUSDT_ADAPTER()":"08ff3f12","BASE_OFT_SWBTC_ADAPTER()":"1fe42bff","BASE_OFT_SWETH_ADAPTER()":"fd9eef04","BASE_OFT_SWKAIA_ADAPTER()":"aded9a19","BASE_RECEIVE_LIB()":"529f0d50","BASE_SEND_LIB()":"d4c73083","BASE_SKAIA()":"f4be7504","BASE_SKAIA_ELEVATED_MINTER_BURNER()":"efffd77c","BASE_SUSDT()":"cf642cc9","BASE_SUSDT_ELEVATED_MINTER_BURNER()":"1f8a2428","BASE_SWBTC()":"90406054","BASE_SWBTC_ELEVATED_MINTER_BURNER()":"c304e508","BASE_SWETH()":"08f40bed","BASE_SWETH_ELEVATED_MINTER_BURNER()":"12e7902a","BASE_SWKAIA()":"c5e4a509","BASE_SWKAIA_ELEVATED_MINTER_BURNER()":"ba91cd43","BASE_USDT()":"709b9036","BASE_WBTC()":"fa9be367","BASE_WETH()":"b07e4297","BASE_oappAdapter()":"e8bccd06","BASE_oappSupplyLiquidityUSDT()":"dfa8450d","GLMR_DVN1()":"565fcaac","GLMR_DVN2()":"7b49a635","GLMR_DVN3()":"95df5838","GLMR_EID()":"b3a98105","GLMR_EXECUTOR()":"470ebcb0","GLMR_LZ_ENDPOINT()":"413b777a","GLMR_RECEIVE_LIB()":"fbdf0593","GLMR_SEND_LIB()":"ba717f86","KAIA_DEX_ROUTER()":"5dd65d31","KAIA_DVN1()":"cea90728","KAIA_DVN2()":"2fa99666","KAIA_DVN3()":"ab562ddd","KAIA_EID()":"18567e88","KAIA_EXECUTOR()":"e5933998","KAIA_HELPER_UTILS()":"ca4b481c","KAIA_KAIA()":"450036c9","KAIA_LZ_ENDPOINT()":"48d8d455","KAIA_MOCK_USDT()":"a7b395f2","KAIA_MOCK_USDT_ELEVATED_MINTER_BURNER()":"90df5b1a","KAIA_MOCK_WBTC()":"ef54e76f","KAIA_MOCK_WETH()":"d9edc888","KAIA_MOCK_WKAIA()":"b53b808e","KAIA_MOCK_WKAIA_ELEVATED_MINTER_BURNER()":"511856cd","KAIA_OFT_MOCK_USDT_ADAPTER()":"16c67bab","KAIA_OFT_MOCK_WKAIA_ADAPTER()":"5d9fb53d","KAIA_OFT_USDT_ADAPTER()":"634a8eee","KAIA_OFT_USDT_STARGATE_ADAPTER()":"80b6403b","KAIA_OFT_WBTC_ADAPTER()":"07e24762","KAIA_OFT_WETH_ADAPTER()":"aaf0e6eb","KAIA_OFT_WKAIA_ADAPTER()":"a016a1d7","KAIA_RECEIVE_LIB()":"8fd510cc","KAIA_SEND_LIB()":"3cdda029","KAIA_USDT()":"2a715dd7","KAIA_USDT_STARGATE()":"b430bac5","KAIA_WBTC()":"eb3789bb","KAIA_WETH()":"0b54fe1e","KAIA_WKAIA()":"67406d42","KAIA_btc_usdt_adapter()":"7262047e","KAIA_eth_usdt_adapter()":"66fc865f","KAIA_isHealthy()":"60c884a2","KAIA_kaia_usdt_adapter()":"99a68b60","KAIA_lendingPoolDeployer()":"3a7fefb6","KAIA_lendingPoolFactoryImplementation()":"eb9e052d","KAIA_lendingPoolFactoryProxy()":"cacee45c","KAIA_lendingPoolRouterDeployer()":"cd3cdfe1","KAIA_liquidator()":"aa3e440c","KAIA_oappSupplyLiquidityUSDT()":"cbbf250c","KAIA_positionDeployer()":"041412b2","KAIA_protocol()":"2b484acb","KAIA_usdt_usd_adapter()":"3bcbf719","btc_usdt()":"e1e10016","eth_usdt()":"7ab982a1","native_usdt()":"a2d2c6b0","usdt_usd()":"17fa5550"},"id":95}