{"abi":[{"type":"function","name":"BASE_DVN1","inputs":[],"outputs":[{"name":"","type":"address","internalType":"address"}],"stateMutability":"view"},{"type":"function","name":"BASE_DVN2","inputs":[],"outputs":[{"name":"","type":"address","internalType":"address"}],"stateMutability":"view"},{"type":"function","name":"BASE_DVN3","inputs":[],"outputs":[{"name":"","type":"address","internalType":"address"}],"stateMutability":"view"},{"type":"function","name":"BASE_EID","inputs":[],"outputs":[{"name":"","type":"uint32","internalType":"uint32"}],"stateMutability":"view"},{"type":"function","name":"BASE_EXECUTOR","inputs":[],"outputs":[{"name":"","type":"address","internalType":"address"}],"stateMutability":"view"},{"type":"function","name":"BASE_KAIA","inputs":[],"outputs":[{"name":"","type":"address","internalType":"address"}],"stateMutability":"view"},{"type":"function","name":"BASE_KAIAK","inputs":[],"outputs":[{"name":"","type":"address","internalType":"address"}],"stateMutability":"view"},{"type":"function","name":"BASE_KAIAK_ELEVATED_MINTER_BURNER","inputs":[],"outputs":[{"name":"","type":"address","internalType":"address"}],"stateMutability":"view"},{"type":"function","name":"BASE_LZ_ENDPOINT","inputs":[],"outputs":[{"name":"","type":"address","internalType":"address"}],"stateMutability":"view"},{"type":"function","name":"BASE_M0CK_WKAIA","inputs":[],"outputs":[{"name":"","type":"address","internalType":"address"}],"stateMutability":"view"},{"type":"function","name":"BASE_MOCK_USDT","inputs":[],"outputs":[{"name":"","type":"address","internalType":"address"}],"stateMutability":"view"},{"type":"function","name":"BASE_MOCK_USDT_ELEVATED_MINTER_BURNER","inputs":[],"outputs":[{"name":"","type":"address","internalType":"address"}],"stateMutability":"view"},{"type":"function","name":"BASE_MOCK_WKAIA_ELEVATED_MINTER_BURNER","inputs":[],"outputs":[{"name":"","type":"address","internalType":"address"}],"stateMutability":"view"},{"type":"function","name":"BASE_OFT_KAIAK_ADAPTER","inputs":[],"outputs":[{"name":"","type":"address","internalType":"address"}],"stateMutability":"view"},{"type":"function","name":"BASE_OFT_MOCK_USDT_ADAPTER","inputs":[],"outputs":[{"name":"","type":"address","internalType":"address"}],"stateMutability":"view"},{"type":"function","name":"BASE_OFT_MOCK_WKAIA_ADAPTER","inputs":[],"outputs":[{"name":"","type":"address","internalType":"address"}],"stateMutability":"view"},{"type":"function","name":"BASE_OFT_USDTK_ADAPTER","inputs":[],"outputs":[{"name":"","type":"address","internalType":"address"}],"stateMutability":"view"},{"type":"function","name":"BASE_OFT_WBTCK_ADAPTER","inputs":[],"outputs":[{"name":"","type":"address","internalType":"address"}],"stateMutability":"view"},{"type":"function","name":"BASE_OFT_WETHK_ADAPTER","inputs":[],"outputs":[{"name":"","type":"address","internalType":"address"}],"stateMutability":"view"},{"type":"function","name":"BASE_OFT_WKAIAK_ADAPTER","inputs":[],"outputs":[{"name":"","type":"address","internalType":"address"}],"stateMutability":"view"},{"type":"function","name":"BASE_RECEIVE_LIB","inputs":[],"outputs":[{"name":"","type":"address","internalType":"address"}],"stateMutability":"view"},{"type":"function","name":"BASE_SEND_LIB","inputs":[],"outputs":[{"name":"","type":"address","internalType":"address"}],"stateMutability":"view"},{"type":"function","name":"BASE_USDT","inputs":[],"outputs":[{"name":"","type":"address","internalType":"address"}],"stateMutability":"view"},{"type":"function","name":"BASE_USDTK","inputs":[],"outputs":[{"name":"","type":"address","internalType":"address"}],"stateMutability":"view"},{"type":"function","name":"BASE_USDTK_ELEVATED_MINTER_BURNER","inputs":[],"outputs":[{"name":"","type":"address","internalType":"address"}],"stateMutability":"view"},{"type":"function","name":"BASE_WBTC","inputs":[],"outputs":[{"name":"","type":"address","internalType":"address"}],"stateMutability":"view"},{"type":"function","name":"BASE_WBTCK","inputs":[],"outputs":[{"name":"","type":"address","internalType":"address"}],"stateMutability":"view"},{"type":"function","name":"BASE_WBTCK_ELEVATED_MINTER_BURNER","inputs":[],"outputs":[{"name":"","type":"address","internalType":"address"}],"stateMutability":"view"},{"type":"function","name":"BASE_WETH","inputs":[],"outputs":[{"name":"","type":"address","internalType":"address"}],"stateMutability":"view"},{"type":"function","name":"BASE_WETHK","inputs":[],"outputs":[{"name":"","type":"address","internalType":"address"}],"stateMutability":"view"},{"type":"function","name":"BASE_WETHK_ELEVATED_MINTER_BURNER","inputs":[],"outputs":[{"name":"","type":"address","internalType":"address"}],"stateMutability":"view"},{"type":"function","name":"BASE_WKAIAK","inputs":[],"outputs":[{"name":"","type":"address","internalType":"address"}],"stateMutability":"view"},{"type":"function","name":"BASE_WKAIAK_ELEVATED_MINTER_BURNER","inputs":[],"outputs":[{"name":"","type":"address","internalType":"address"}],"stateMutability":"view"},{"type":"function","name":"BASE_oappAdapter","inputs":[],"outputs":[{"name":"","type":"address","internalType":"address"}],"stateMutability":"view"},{"type":"function","name":"BASE_oappSupplyLiquidityUSDT","inputs":[],"outputs":[{"name":"","type":"address","internalType":"address"}],"stateMutability":"view"},{"type":"function","name":"GLMR_DVN1","inputs":[],"outputs":[{"name":"","type":"address","internalType":"address"}],"stateMutability":"view"},{"type":"function","name":"GLMR_DVN2","inputs":[],"outputs":[{"name":"","type":"address","internalType":"address"}],"stateMutability":"view"},{"type":"function","name":"GLMR_DVN3","inputs":[],"outputs":[{"name":"","type":"address","internalType":"address"}],"stateMutability":"view"},{"type":"function","name":"GLMR_EID","inputs":[],"outputs":[{"name":"","type":"uint32","internalType":"uint32"}],"stateMutability":"view"},{"type":"function","name":"GLMR_EXECUTOR","inputs":[],"outputs":[{"name":"","type":"address","internalType":"address"}],"stateMutability":"view"},{"type":"function","name":"GLMR_LZ_ENDPOINT","inputs":[],"outputs":[{"name":"","type":"address","internalType":"address"}],"stateMutability":"view"},{"type":"function","name":"GLMR_RECEIVE_LIB","inputs":[],"outputs":[{"name":"","type":"address","internalType":"address"}],"stateMutability":"view"},{"type":"function","name":"GLMR_SEND_LIB","inputs":[],"outputs":[{"name":"","type":"address","internalType":"address"}],"stateMutability":"view"},{"type":"function","name":"KAIA_DEX_ROUTER","inputs":[],"outputs":[{"name":"","type":"address","internalType":"address"}],"stateMutability":"view"},{"type":"function","name":"KAIA_DVN1","inputs":[],"outputs":[{"name":"","type":"address","internalType":"address"}],"stateMutability":"view"},{"type":"function","name":"KAIA_DVN2","inputs":[],"outputs":[{"name":"","type":"address","internalType":"address"}],"stateMutability":"view"},{"type":"function","name":"KAIA_DVN3","inputs":[],"outputs":[{"name":"","type":"address","internalType":"address"}],"stateMutability":"view"},{"type":"function","name":"KAIA_EID","inputs":[],"outputs":[{"name":"","type":"uint32","internalType":"uint32"}],"stateMutability":"view"},{"type":"function","name":"KAIA_EXECUTOR","inputs":[],"outputs":[{"name":"","type":"address","internalType":"address"}],"stateMutability":"view"},{"type":"function","name":"KAIA_HELPER_UTILS","inputs":[],"outputs":[{"name":"","type":"address","internalType":"address"}],"stateMutability":"view"},{"type":"function","name":"KAIA_KAIA","inputs":[],"outputs":[{"name":"","type":"address","internalType":"address"}],"stateMutability":"view"},{"type":"function","name":"KAIA_LZ_ENDPOINT","inputs":[],"outputs":[{"name":"","type":"address","internalType":"address"}],"stateMutability":"view"},{"type":"function","name":"KAIA_MOCK_USDT","inputs":[],"outputs":[{"name":"","type":"address","internalType":"address"}],"stateMutability":"view"},{"type":"function","name":"KAIA_MOCK_USDT_ELEVATED_MINTER_BURNER","inputs":[],"outputs":[{"name":"","type":"address","internalType":"address"}],"stateMutability":"view"},{"type":"function","name":"KAIA_MOCK_WBTC","inputs":[],"outputs":[{"name":"","type":"address","internalType":"address"}],"stateMutability":"view"},{"type":"function","name":"KAIA_MOCK_WETH","inputs":[],"outputs":[{"name":"","type":"address","internalType":"address"}],"stateMutability":"view"},{"type":"function","name":"KAIA_MOCK_WKAIA","inputs":[],"outputs":[{"name":"","type":"address","internalType":"address"}],"stateMutability":"view"},{"type":"function","name":"KAIA_MOCK_WKAIA_ELEVATED_MINTER_BURNER","inputs":[],"outputs":[{"name":"","type":"address","internalType":"address"}],"stateMutability":"view"},{"type":"function","name":"KAIA_OFT_MOCK_USDT_ADAPTER","inputs":[],"outputs":[{"name":"","type":"address","internalType":"address"}],"stateMutability":"view"},{"type":"function","name":"KAIA_OFT_MOCK_WKAIA_ADAPTER","inputs":[],"outputs":[{"name":"","type":"address","internalType":"address"}],"stateMutability":"view"},{"type":"function","name":"KAIA_OFT_USDT_ADAPTER","inputs":[],"outputs":[{"name":"","type":"address","internalType":"address"}],"stateMutability":"view"},{"type":"function","name":"KAIA_OFT_USDT_STARGATE_ADAPTER","inputs":[],"outputs":[{"name":"","type":"address","internalType":"address"}],"stateMutability":"view"},{"type":"function","name":"KAIA_OFT_WBTC_ADAPTER","inputs":[],"outputs":[{"name":"","type":"address","internalType":"address"}],"stateMutability":"view"},{"type":"function","name":"KAIA_OFT_WETH_ADAPTER","inputs":[],"outputs":[{"name":"","type":"address","internalType":"address"}],"stateMutability":"view"},{"type":"function","name":"KAIA_OFT_WKAIA_ADAPTER","inputs":[],"outputs":[{"name":"","type":"address","internalType":"address"}],"stateMutability":"view"},{"type":"function","name":"KAIA_RECEIVE_LIB","inputs":[],"outputs":[{"name":"","type":"address","internalType":"address"}],"stateMutability":"view"},{"type":"function","name":"KAIA_SEND_LIB","inputs":[],"outputs":[{"name":"","type":"address","internalType":"address"}],"stateMutability":"view"},{"type":"function","name":"KAIA_TESTNET_btc_usdt_adapter","inputs":[],"outputs":[{"name":"","type":"address","internalType":"address"}],"stateMutability":"view"},{"type":"function","name":"KAIA_TESTNET_eth_usdt_adapter","inputs":[],"outputs":[{"name":"","type":"address","internalType":"address"}],"stateMutability":"view"},{"type":"function","name":"KAIA_TESTNET_native_usdt_adapter","inputs":[],"outputs":[{"name":"","type":"address","internalType":"address"}],"stateMutability":"view"},{"type":"function","name":"KAIA_TESTNET_usdt_usd_adapter","inputs":[],"outputs":[{"name":"","type":"address","internalType":"address"}],"stateMutability":"view"},{"type":"function","name":"KAIA_USDT","inputs":[],"outputs":[{"name":"","type":"address","internalType":"address"}],"stateMutability":"view"},{"type":"function","name":"KAIA_USDT_STARGATE","inputs":[],"outputs":[{"name":"","type":"address","internalType":"address"}],"stateMutability":"view"},{"type":"function","name":"KAIA_WBTC","inputs":[],"outputs":[{"name":"","type":"address","internalType":"address"}],"stateMutability":"view"},{"type":"function","name":"KAIA_WETH","inputs":[],"outputs":[{"name":"","type":"address","internalType":"address"}],"stateMutability":"view"},{"type":"function","name":"KAIA_WKAIA","inputs":[],"outputs":[{"name":"","type":"address","internalType":"address"}],"stateMutability":"view"},{"type":"function","name":"KAIA_btc_usdt_adapter","inputs":[],"outputs":[{"name":"","type":"address","internalType":"address"}],"stateMutability":"view"},{"type":"function","name":"KAIA_eth_usdt_adapter","inputs":[],"outputs":[{"name":"","type":"address","internalType":"address"}],"stateMutability":"view"},{"type":"function","name":"KAIA_isHealthy","inputs":[],"outputs":[{"name":"","type":"address","internalType":"address"}],"stateMutability":"view"},{"type":"function","name":"KAIA_kaia_usdt_adapter","inputs":[],"outputs":[{"name":"","type":"address","internalType":"address"}],"stateMutability":"view"},{"type":"function","name":"KAIA_lendingPoolDeployer","inputs":[],"outputs":[{"name":"","type":"address","internalType":"address"}],"stateMutability":"view"},{"type":"function","name":"KAIA_lendingPoolFactoryImplementation","inputs":[],"outputs":[{"name":"","type":"address","internalType":"address"}],"stateMutability":"view"},{"type":"function","name":"KAIA_lendingPoolFactoryProxy","inputs":[],"outputs":[{"name":"","type":"address","internalType":"address"}],"stateMutability":"view"},{"type":"function","name":"KAIA_lendingPoolRouterDeployer","inputs":[],"outputs":[{"name":"","type":"address","internalType":"address"}],"stateMutability":"view"},{"type":"function","name":"KAIA_liquidator","inputs":[],"outputs":[{"name":"","type":"address","internalType":"address"}],"stateMutability":"view"},{"type":"function","name":"KAIA_oappSupplyLiquidityUSDT","inputs":[],"outputs":[{"name":"","type":"address","internalType":"address"}],"stateMutability":"view"},{"type":"function","name":"KAIA_positionDeployer","inputs":[],"outputs":[{"name":"","type":"address","internalType":"address"}],"stateMutability":"view"},{"type":"function","name":"KAIA_protocol","inputs":[],"outputs":[{"name":"","type":"address","internalType":"address"}],"stateMutability":"view"},{"type":"function","name":"KAIA_usdt_usd_adapter","inputs":[],"outputs":[{"name":"","type":"address","internalType":"address"}],"stateMutability":"view"},{"type":"function","name":"btc_usdt","inputs":[],"outputs":[{"name":"","type":"address","internalType":"address"}],"stateMutability":"view"},{"type":"function","name":"eth_usdt","inputs":[],"outputs":[{"name":"","type":"address","internalType":"address"}],"stateMutability":"view"},{"type":"function","name":"native_usdt","inputs":[],"outputs":[{"name":"","type":"address","internalType":"address"}],"stateMutability":"view"},{"type":"function","name":"usdt_usd","inputs":[],"outputs":[{"name":"","type":"address","internalType":"address"}],"stateMutability":"view"}],"bytecode":{"object":"0x6080604052731a44076050125825900e736c501f859c50fe728c5f5f6101000a81548173ffffffffffffffffffffffffffffffffffffffff021916908373ffffffffffffffffffffffffffffffffffffffff160217905550731a44076050125825900e736c501f859c50fe728c60015f6101000a81548173ffffffffffffffffffffffffffffffffffffffff021916908373ffffffffffffffffffffffffffffffffffffffff160217905550731a44076050125825900e736c501f859c50fe728c60025f6101000a81548173ffffffffffffffffffffffffffffffffffffffff021916908373ffffffffffffffffffffffffffffffffffffffff16021790555073b5320b0b3a13cc860893e2bd79fcd7e13484dda260035f6101000a81548173ffffffffffffffffffffffffffffffffffffffff021916908373ffffffffffffffffffffffffffffffffffffffff160217905550739714ccf1dedef14bab5013625db92746c1358cb460045f6101000a81548173ffffffffffffffffffffffffffffffffffffffff021916908373ffffffffffffffffffffffffffffffffffffffff16021790555073eac136456d078bb76f59dccb2d5e008b31afe1cf60055f6101000a81548173ffffffffffffffffffffffffffffffffffffffff021916908373ffffffffffffffffffffffffffffffffffffffff16021790555073c70ab6f32772f59fbfc23889caf4ba3376c84baf60065f6101000a81548173ffffffffffffffffffffffffffffffffffffffff021916908373ffffffffffffffffffffffffffffffffffffffff16021790555073937aba873827bf883ced83ca557697427eaa46ee60075f6101000a81548173ffffffffffffffffffffffffffffffffffffffff021916908373ffffffffffffffffffffffffffffffffffffffff160217905550732f4c6eea955e95e6d65e08620d980c0e0e92211f60085f6101000a81548173ffffffffffffffffffffffffffffffffffffffff021916908373ffffffffffffffffffffffffffffffffffffffff1602179055506175e8600860146101000a81548163ffffffff021916908363ffffffff1602179055506175c6600860186101000a81548163ffffffff021916908363ffffffff1602179055506175ae6008601c6101000a81548163ffffffff021916908363ffffffff16021790555073554833698ae0fb22ecc90b01222903fd62ca4b4760095f6101000a81548173ffffffffffffffffffffffffffffffffffffffff021916908373ffffffffffffffffffffffffffffffffffffffff16021790555073a7b5189bca84cd304d8553977c7c614329750d99600a5f6101000a81548173ffffffffffffffffffffffffffffffffffffffff021916908373ffffffffffffffffffffffffffffffffffffffff160217905550739e059a54699a285714207b43b055483e78faac25600b5f6101000a81548173ffffffffffffffffffffffffffffffffffffffff021916908373ffffffffffffffffffffffffffffffffffffffff160217905550731154d04d07aee26ff2c200bd373eb76a7e5694d6600c5f6101000a81548173ffffffffffffffffffffffffffffffffffffffff021916908373ffffffffffffffffffffffffffffffffffffffff16021790555073acde1f22eeab249d3ca6ba8805c8fee9f52a16e7600d5f6101000a81548173ffffffffffffffffffffffffffffffffffffffff021916908373ffffffffffffffffffffffffffffffffffffffff16021790555073c80233ad8251e668becbc3b0415707fc7075501e600e5f6101000a81548173ffffffffffffffffffffffffffffffffffffffff021916908373ffffffffffffffffffffffffffffffffffffffff1602179055507333e5fcc13d7439cc62d54c41aa966197145b3cd7600f5f6101000a81548173ffffffffffffffffffffffffffffffffffffffff021916908373ffffffffffffffffffffffffffffffffffffffff1602179055507334730f2570e6cff8b1c91faabf37d0dd917c436760105f6101000a81548173ffffffffffffffffffffffffffffffffffffffff021916908373ffffffffffffffffffffffffffffffffffffffff160217905550738b9b67b22ab2ed6ee324c2fd43734dbd2dddd04560115f6101000a81548173ffffffffffffffffffffffffffffffffffffffff021916908373ffffffffffffffffffffffffffffffffffffffff160217905550732cca08ae69e0c44b18a57ab2a87644234daebae460125f6101000a81548173ffffffffffffffffffffffffffffffffffffffff021916908373ffffffffffffffffffffffffffffffffffffffff16021790555073e149187a987f129fd3d397ed04a60b0b89d1669f60135f6101000a81548173ffffffffffffffffffffffffffffffffffffffff021916908373ffffffffffffffffffffffffffffffffffffffff16021790555073ec0906949f88f72bf9206e84764163e24a56a49960145f6101000a81548173ffffffffffffffffffffffffffffffffffffffff021916908373ffffffffffffffffffffffffffffffffffffffff16021790555073d077a400968890eacc75cdc901f0356c943e4fdb60155f6101000a81548173ffffffffffffffffffffffffffffffffffffffff021916908373ffffffffffffffffffffffffffffffffffffffff160217905550739025095263d1e548dc890a7589a4c78038ac40ab60165f6101000a81548173ffffffffffffffffffffffffffffffffffffffff021916908373ffffffffffffffffffffffffffffffffffffffff160217905550600160175f6101000a81548173ffffffffffffffffffffffffffffffffffffffff021916908373ffffffffffffffffffffffffffffffffffffffff1602179055507319aac5f612f524b754ca7e7c41cbfa2e981a443260185f6101000a81548173ffffffffffffffffffffffffffffffffffffffff021916908373ffffffffffffffffffffffffffffffffffffffff1602179055507398a8345bb9d3dda9d808ca1c9142a28f6b0430e160195f6101000a81548173ffffffffffffffffffffffffffffffffffffffff021916908373ffffffffffffffffffffffffffffffffffffffff16021790555073981846be8d2d697f4dfef6689a161a25ffbab8f9601a5f6101000a81548173ffffffffffffffffffffffffffffffffffffffff021916908373ffffffffffffffffffffffffffffffffffffffff16021790555073fde4c96c8593536e31f229ea8f37b2ada2699bb2601b5f6101000a81548173ffffffffffffffffffffffffffffffffffffffff021916908373ffffffffffffffffffffffffffffffffffffffff160217905550734200000000000000000000000000000000000006601d5f6101000a81548173ffffffffffffffffffffffffffffffffffffffff021916908373ffffffffffffffffffffffffffffffffffffffff160217905550730555e30da8f98308edb960aa94c0db47230d2b9c601e5f6101000a81548173ffffffffffffffffffffffffffffffffffffffff021916908373ffffffffffffffffffffffffffffffffffffffff16021790555073a324880f884036e3d21a09b90269e1ac57c7ec8a601f5f6101000a81548173ffffffffffffffffffffffffffffffffffffffff021916908373ffffffffffffffffffffffffffffffffffffffff160217905550736d68a52bc77f2eac3582a7072ead94c19b9f480c60205f6101000a81548173ffffffffffffffffffffffffffffffffffffffff021916908373ffffffffffffffffffffffffffffffffffffffff16021790555073920cd2f6e139b6c40053bcd5f67923d1d7dd314060215f6101000a81548173ffffffffffffffffffffffffffffffffffffffff021916908373ffffffffffffffffffffffffffffffffffffffff160217905550735ddbbc68527214e0aca3b4175860080cbdaa12ff60225f6101000a81548173ffffffffffffffffffffffffffffffffffffffff021916908373ffffffffffffffffffffffffffffffffffffffff16021790555073fe5138a42dc1fc335455b505e036784a33f7f10260235f6101000a81548173ffffffffffffffffffffffffffffffffffffffff021916908373ffffffffffffffffffffffffffffffffffffffff16021790555073b0e96105543cba4b3d82911e7336f19bd03b036060245f6101000a81548173ffffffffffffffffffffffffffffffffffffffff021916908373ffffffffffffffffffffffffffffffffffffffff16021790555073ceb5c8903060197e46ab5ea5087b9f99cbc8da4960255f6101000a81548173ffffffffffffffffffffffffffffffffffffffff021916908373ffffffffffffffffffffffffffffffffffffffff16021790555073a628a83cc869b82a684895f628029eb90ee6022460265f6101000a81548173ffffffffffffffffffffffffffffffffffffffff021916908373ffffffffffffffffffffffffffffffffffffffff16021790555073af9842adacb4b2fa619d45fe11579fae5faf169860275f6101000a81548173ffffffffffffffffffffffffffffffffffffffff021916908373ffffffffffffffffffffffffffffffffffffffff16021790555073684a2aaf3d98bc8ed2c07988e8da9023026ad51160285f6101000a81548173ffffffffffffffffffffffffffffffffffffffff021916908373ffffffffffffffffffffffffffffffffffffffff16021790555073c7e9cf4bc5f6c43e1410ffa33436287968003ace60295f6101000a81548173ffffffffffffffffffffffffffffffffffffffff021916908373ffffffffffffffffffffffffffffffffffffffff16021790555073da5d036f51bd6fe5e32915a53595b71312d45f91602a5f6101000a81548173ffffffffffffffffffffffffffffffffffffffff021916908373ffffffffffffffffffffffffffffffffffffffff16021790555073649ef2a788732900b82237c126a121be3282997c602b5f6101000a81548173ffffffffffffffffffffffffffffffffffffffff021916908373ffffffffffffffffffffffffffffffffffffffff160217905550738bf79e425b54ecd75907b4eda00dced8c1a97db0602c5f6101000a81548173ffffffffffffffffffffffffffffffffffffffff021916908373ffffffffffffffffffffffffffffffffffffffff16021790555073f8af5114ad19422e059797ca2515febd8bc06bd1602d5f6101000a81548173ffffffffffffffffffffffffffffffffffffffff021916908373ffffffffffffffffffffffffffffffffffffffff16021790555073c3be8ab4ca0cefe3119a765b324bbdf54a16a65b602e5f6101000a81548173ffffffffffffffffffffffffffffffffffffffff021916908373ffffffffffffffffffffffffffffffffffffffff1602179055507346da9f76c20a752132ddaefd2b14870e0a152d71602f5f6101000a81548173ffffffffffffffffffffffffffffffffffffffff021916908373ffffffffffffffffffffffffffffffffffffffff160217905550733703a1da99a2bdf2d8ce57802aacb20fb546ff1260305f6101000a81548173ffffffffffffffffffffffffffffffffffffffff021916908373ffffffffffffffffffffffffffffffffffffffff16021790555073394239573079a46e438ea6d118fd96d37a61f27060315f6101000a81548173ffffffffffffffffffffffffffffffffffffffff021916908373ffffffffffffffffffffffffffffffffffffffff16021790555073ec32cc0267002618c339274c18ad48d2bf2a9c7e60325f6101000a81548173ffffffffffffffffffffffffffffffffffffffff021916908373ffffffffffffffffffffffffffffffffffffffff160217905550737bb55d2d27194a25517f8a47cdaf227fd413dca660335f6101000a81548173ffffffffffffffffffffffffffffffffffffffff021916908373ffffffffffffffffffffffffffffffffffffffff16021790555073f3f7c9320b0dbf780092daaab740b7b85552225860345f6101000a81548173ffffffffffffffffffffffffffffffffffffffff021916908373ffffffffffffffffffffffffffffffffffffffff16021790555073da5d036f51bd6fe5e32915a53595b71312d45f9160355f6101000a81548173ffffffffffffffffffffffffffffffffffffffff021916908373ffffffffffffffffffffffffffffffffffffffff16021790555073cfaf23d5d5f144f66a13e05a41b97c0c23aa4e1f60365f6101000a81548173ffffffffffffffffffffffffffffffffffffffff021916908373ffffffffffffffffffffffffffffffffffffffff16021790555073a5b25a041cfc241f2b808b3298e2cb7ceb5dfcd260375f6101000a81548173ffffffffffffffffffffffffffffffffffffffff021916908373ffffffffffffffffffffffffffffffffffffffff160217905550738fed03c9d8ed1237b76be271a49d11cce5dfd81e60385f6101000a81548173ffffffffffffffffffffffffffffffffffffffff021916908373ffffffffffffffffffffffffffffffffffffffff16021790555073f15f575095a37a0325182c49a45fe05f09fc6b4d60395f6101000a81548173ffffffffffffffffffffffffffffffffffffffff021916908373ffffffffffffffffffffffffffffffffffffffff1602179055507326991986aec6748f439940949b74873418006383603a5f6101000a81548173ffffffffffffffffffffffffffffffffffffffff021916908373ffffffffffffffffffffffffffffffffffffffff16021790555073943fcc03799400a672a8f82907d3a320fa76efc1603b5f6101000a81548173ffffffffffffffffffffffffffffffffffffffff021916908373ffffffffffffffffffffffffffffffffffffffff16021790555073ad063b1915bf95fb32f79138c0b668f232676333603c5f6101000a81548173ffffffffffffffffffffffffffffffffffffffff021916908373ffffffffffffffffffffffffffffffffffffffff160217905550737f047526f942147a228f2709bb66a3bdea71ed26603d5f6101000a81548173ffffffffffffffffffffffffffffffffffffffff021916908373ffffffffffffffffffffffffffffffffffffffff16021790555073b83e44f1d59bd8743ae45816acd5622fa1a5624d603e5f6101000a81548173ffffffffffffffffffffffffffffffffffffffff021916908373ffffffffffffffffffffffffffffffffffffffff160217905550731effdcf81a95398920e024bb3b9ff60ce14590e7603f5f6101000a81548173ffffffffffffffffffffffffffffffffffffffff021916908373ffffffffffffffffffffffffffffffffffffffff160217905550736c71b7bbde382f12165d5f7749b5fd37965b1e8a60405f6101000a81548173ffffffffffffffffffffffffffffffffffffffff021916908373ffffffffffffffffffffffffffffffffffffffff16021790555073560bd1836c348c4a10eed7008e68ae58228dd11760415f6101000a81548173ffffffffffffffffffffffffffffffffffffffff021916908373ffffffffffffffffffffffffffffffffffffffff160217905550739eaa6ec9e0b55948309eb320166312cb0807b6de60425f6101000a81548173ffffffffffffffffffffffffffffffffffffffff021916908373ffffffffffffffffffffffffffffffffffffffff16021790555073374427909212b29fcc3ffe8e7920a190a3031cb860435f6101000a81548173ffffffffffffffffffffffffffffffffffffffff021916908373ffffffffffffffffffffffffffffffffffffffff1602179055507343bb8beb166c8786c50a9d1d5c8482d667cf981a60445f6101000a81548173ffffffffffffffffffffffffffffffffffffffff021916908373ffffffffffffffffffffffffffffffffffffffff160217905550732d9a3d17400332c44ff0e2dc1b728529a33f559160455f6101000a81548173ffffffffffffffffffffffffffffffffffffffff021916908373ffffffffffffffffffffffffffffffffffffffff16021790555073c2caa26226585f666ec79f8ecdb0aec17893af1d60465f6101000a81548173ffffffffffffffffffffffffffffffffffffffff021916908373ffffffffffffffffffffffffffffffffffffffff1602179055507322be5ff1ef09ebf06995da9050d44d23070c214260475f6101000a81548173ffffffffffffffffffffffffffffffffffffffff021916908373ffffffffffffffffffffffffffffffffffffffff1602179055507343add670a0e1948c90386d2b972fcaec6ce1be9060485f6101000a81548173ffffffffffffffffffffffffffffffffffffffff021916908373ffffffffffffffffffffffffffffffffffffffff16021790555073c72f2eb4a97f19ecd0c10b5201676a10b6d8bb6760495f6101000a81548173ffffffffffffffffffffffffffffffffffffffff021916908373ffffffffffffffffffffffffffffffffffffffff1602179055507346638ad472507482b7d5ba45124e93d16bc97ece604a5f6101000a81548173ffffffffffffffffffffffffffffffffffffffff021916908373ffffffffffffffffffffffffffffffffffffffff16021790555073dbbb07e1ae9d0f23ac6da9bdda3dff96fca73650604b5f6101000a81548173ffffffffffffffffffffffffffffffffffffffff021916908373ffffffffffffffffffffffffffffffffffffffff160217905550733703a1da99a2bdf2d8ce57802aacb20fb546ff12604c5f6101000a81548173ffffffffffffffffffffffffffffffffffffffff021916908373ffffffffffffffffffffffffffffffffffffffff16021790555073530f48df8e4d60bbf9bbcfe8cf584344514af193604d5f6101000a81548173ffffffffffffffffffffffffffffffffffffffff021916908373ffffffffffffffffffffffffffffffffffffffff16021790555073057852e8211698a22953e0343aae24e446ecf105604e5f6101000a81548173ffffffffffffffffffffffffffffffffffffffff021916908373ffffffffffffffffffffffffffffffffffffffff160217905550731385df17f009f88e6ca1380798bf20b0669c8ee0604f5f6101000a81548173ffffffffffffffffffffffffffffffffffffffff021916908373ffffffffffffffffffffffffffffffffffffffff16021790555073d8d5edce9f0e3544d2a712818232fda7502ba1a660505f6101000a81548173ffffffffffffffffffffffffffffffffffffffff021916908373ffffffffffffffffffffffffffffffffffffffff16021790555073677f0172ff3e8eef477ce811ed57a85b8d8a3bda60515f6101000a81548173ffffffffffffffffffffffffffffffffffffffff021916908373ffffffffffffffffffffffffffffffffffffffff1602179055507360377628d1733fe0fb64d8b84466b461974da60a60525f6101000a81548173ffffffffffffffffffffffffffffffffffffffff021916908373ffffffffffffffffffffffffffffffffffffffff16021790555073c28446267b3c9a733d6c7419535b883908e5581360535f6101000a81548173ffffffffffffffffffffffffffffffffffffffff021916908373ffffffffffffffffffffffffffffffffffffffff16021790555073a971cd2714fbcc9a942b09bc391a724df933820660545f6101000a81548173ffffffffffffffffffffffffffffffffffffffff021916908373ffffffffffffffffffffffffffffffffffffffff160217905550733de8c22f6b84c575429c1b9cbf5bddd49cf129fc60555f6101000a81548173ffffffffffffffffffffffffffffffffffffffff021916908373ffffffffffffffffffffffffffffffffffffffff16021790555073df05e9abf64da281b3cbd8ac3581022ec4841fb260565f6101000a81548173ffffffffffffffffffffffffffffffffffffffff021916908373ffffffffffffffffffffffffffffffffffffffff16021790555073df05e9abf64da281b3cbd8ac3581022ec4841fb260575f6101000a81548173ffffffffffffffffffffffffffffffffffffffff021916908373ffffffffffffffffffffffffffffffffffffffff1602179055507315858a57854bbf0df60a737811d50e1ee785f9bc60585f6101000a81548173ffffffffffffffffffffffffffffffffffffffff021916908373ffffffffffffffffffffffffffffffffffffffff160217905550734ba8d8083e7f3652ccb084c32652e68566e9ef2360595f6101000a81548173ffffffffffffffffffffffffffffffffffffffff021916908373ffffffffffffffffffffffffffffffffffffffff160217905550348015611d98575f5ffd5b50611dff80611da65f395ff3fe608060405234801561000f575f5ffd5b506004361061050d575f3560e01c80637b49a635116102a2578063cacee45c11610170578063e3d2032b116100d7578063eb9e052d11610090578063eb9e052d14610f43578063ef54e76f14610f61578063ef54f8bf14610f7f578063f5e0324914610f9d578063fa9be36714610fbb578063fbdf059314610fd95761050d565b8063e3d2032b14610e8f578063e415479914610ead578063e5120c4714610ecb578063e593399814610ee9578063e8bccd0614610f07578063eb3789bb14610f255761050d565b8063d4c7308311610129578063d4c7308314610ddb578063d9edc88814610df9578063de439f5014610e17578063dfa8450d14610e35578063e100143214610e53578063e1e1001614610e715761050d565b8063cacee45c14610d27578063cbbf250c14610d45578063cd3cdfe114610d63578063cea9072814610d81578063cf5397f014610d9f578063d1e4fa4514610dbd5761050d565b8063aa3e440c11610214578063b3a98105116101cd578063b3a9810514610c73578063b430bac514610c91578063b4fa069414610caf578063b53b808e14610ccd578063ba717f8614610ceb578063ca4b481c14610d095761050d565b8063aa3e440c14610bbf578063aaf0e6eb14610bdd578063ab562ddd14610bfb578063ac7fb1b714610c19578063b07e429714610c37578063b12715e914610c555761050d565b806390df5b1a1161026657806390df5b1a14610b0b57806395df583814610b2957806399a68b6014610b47578063a016a1d714610b65578063a2d2c6b014610b83578063a7b395f214610ba15761050d565b80637b49a63514610a7557806380b6403b14610a9357806386cfc33e14610ab15780638c60249814610acf5780638fd510cc14610aed5761050d565b8063406aea4a116103df578063565fcaac11610351578063634a8eee1161030a578063634a8eee146109c157806366fc865f146109df57806367406d42146109fd578063709b903614610a1b5780637262047e14610a395780637ab982a114610a575761050d565b8063565fcaac1461090d5780635a4320801461092b5780635ac6d96d146109495780635d9fb53d146109675780635dd65d311461098557806360c884a2146109a35761050d565b806348d8d455116103a357806348d8d4551461085957806348ed9a1c14610877578063511856cd14610895578063526d2db0146108b3578063529f0d50146108d1578063559674c0146108ef5761050d565b8063406aea4a146107c3578063413b777a146107e15780634190110d146107ff578063450036c91461081d578063470ebcb01461083b5761050d565b806318567e88116104835780632b484acb1161043c5780632b484acb1461070f5780632fa996661461072d57806335d333ce1461074b5780633a7fefb6146107695780633bcbf719146107875780633cdda029146107a55761050d565b806318567e881461065b5780631aa6361c146106795780631bc97a72146106975780631d4f0841146106b557806321f564bc146106d35780632a715dd7146106f15761050d565b806307f3afb7116104d557806307f3afb7146105a75780630b54fe1e146105c55780630efe7e8c146105e357806315f88c921461060157806316c67bab1461061f57806317fa55501461063d5761050d565b806301ed58f11461051157806303f8f8c71461052f578063041412b21461054d57806304ee322c1461056b57806307e2476214610589575b5f5ffd5b610519610ff7565b6040516105269190611d79565b60405180910390f35b61053761101c565b6040516105449190611d79565b60405180910390f35b610555611041565b6040516105629190611d79565b60405180910390f35b610573611066565b6040516105809190611d79565b60405180910390f35b61059161108b565b60405161059e9190611d79565b60405180910390f35b6105af6110b0565b6040516105bc9190611d79565b60405180910390f35b6105cd6110d5565b6040516105da9190611d79565b60405180910390f35b6105eb6110fa565b6040516105f89190611d79565b60405180910390f35b61060961111f565b6040516106169190611db0565b60405180910390f35b610627611135565b6040516106349190611d79565b60405180910390f35b61064561115a565b6040516106529190611d79565b60405180910390f35b61066361117f565b6040516106709190611db0565b60405180910390f35b610681611195565b60405161068e9190611d79565b60405180910390f35b61069f6111ba565b6040516106ac9190611d79565b60405180910390f35b6106bd6111df565b6040516106ca9190611d79565b60405180910390f35b6106db611204565b6040516106e89190611d79565b60405180910390f35b6106f9611229565b6040516107069190611d79565b60405180910390f35b61071761124e565b6040516107249190611d79565b60405180910390f35b610735611273565b6040516107429190611d79565b60405180910390f35b610753611298565b6040516107609190611d79565b60405180910390f35b6107716112bd565b60405161077e9190611d79565b60405180910390f35b61078f6112e2565b60405161079c9190611d79565b60405180910390f35b6107ad611307565b6040516107ba9190611d79565b60405180910390f35b6107cb61132c565b6040516107d89190611d79565b60405180910390f35b6107e9611351565b6040516107f69190611d79565b60405180910390f35b610807611376565b6040516108149190611d79565b60405180910390f35b61082561139b565b6040516108329190611d79565b60405180910390f35b6108436113c0565b6040516108509190611d79565b60405180910390f35b6108616113e5565b60405161086e9190611d79565b60405180910390f35b61087f61140a565b60405161088c9190611d79565b60405180910390f35b61089d61142f565b6040516108aa9190611d79565b60405180910390f35b6108bb611454565b6040516108c89190611d79565b60405180910390f35b6108d9611479565b6040516108e69190611d79565b60405180910390f35b6108f761149e565b6040516109049190611d79565b60405180910390f35b6109156114c3565b6040516109229190611d79565b60405180910390f35b6109336114e8565b6040516109409190611d79565b60405180910390f35b61095161150d565b60405161095e9190611d79565b60405180910390f35b61096f611532565b60405161097c9190611d79565b60405180910390f35b61098d611557565b60405161099a9190611d79565b60405180910390f35b6109ab61157c565b6040516109b89190611d79565b60405180910390f35b6109c96115a1565b6040516109d69190611d79565b60405180910390f35b6109e76115c6565b6040516109f49190611d79565b60405180910390f35b610a056115eb565b604051610a129190611d79565b60405180910390f35b610a23611610565b604051610a309190611d79565b60405180910390f35b610a41611635565b604051610a4e9190611d79565b60405180910390f35b610a5f61165a565b604051610a6c9190611d79565b60405180910390f35b610a7d61167f565b604051610a8a9190611d79565b60405180910390f35b610a9b6116a4565b604051610aa89190611d79565b60405180910390f35b610ab96116c9565b604051610ac69190611d79565b60405180910390f35b610ad76116ee565b604051610ae49190611d79565b60405180910390f35b610af5611713565b604051610b029190611d79565b60405180910390f35b610b13611738565b604051610b209190611d79565b60405180910390f35b610b3161175d565b604051610b3e9190611d79565b60405180910390f35b610b4f611782565b604051610b5c9190611d79565b60405180910390f35b610b6d6117a7565b604051610b7a9190611d79565b60405180910390f35b610b8b6117cc565b604051610b989190611d79565b60405180910390f35b610ba96117f1565b604051610bb69190611d79565b60405180910390f35b610bc7611816565b604051610bd49190611d79565b60405180910390f35b610be561183b565b604051610bf29190611d79565b60405180910390f35b610c03611860565b604051610c109190611d79565b60405180910390f35b610c21611885565b604051610c2e9190611d79565b60405180910390f35b610c3f6118aa565b604051610c4c9190611d79565b60405180910390f35b610c5d6118cf565b604051610c6a9190611d79565b60405180910390f35b610c7b6118f4565b604051610c889190611db0565b60405180910390f35b610c9961190a565b604051610ca69190611d79565b60405180910390f35b610cb761192f565b604051610cc49190611d79565b60405180910390f35b610cd5611954565b604051610ce29190611d79565b60405180910390f35b610cf3611979565b604051610d009190611d79565b60405180910390f35b610d1161199e565b604051610d1e9190611d79565b60405180910390f35b610d2f6119c3565b604051610d3c9190611d79565b60405180910390f35b610d4d6119e8565b604051610d5a9190611d79565b60405180910390f35b610d6b611a0d565b604051610d789190611d79565b60405180910390f35b610d89611a32565b604051610d969190611d79565b60405180910390f35b610da7611a57565b604051610db49190611d79565b60405180910390f35b610dc5611a7c565b604051610dd29190611d79565b60405180910390f35b610de3611aa1565b604051610df09190611d79565b60405180910390f35b610e01611ac6565b604051610e0e9190611d79565b60405180910390f35b610e1f611aeb565b604051610e2c9190611d79565b60405180910390f35b610e3d611b10565b604051610e4a9190611d79565b60405180910390f35b610e5b611b35565b604051610e689190611d79565b60405180910390f35b610e79611b59565b604051610e869190611d79565b60405180910390f35b610e97611b7e565b604051610ea49190611d79565b60405180910390f35b610eb5611ba3565b604051610ec29190611d79565b60405180910390f35b610ed3611bc8565b604051610ee09190611d79565b60405180910390f35b610ef1611bed565b604051610efe9190611d79565b60405180910390f35b610f0f611c12565b604051610f1c9190611d79565b60405180910390f35b610f2d611c37565b604051610f3a9190611d79565b60405180910390f35b610f4b611c5c565b604051610f589190611d79565b60405180910390f35b610f69611c81565b604051610f769190611d79565b60405180910390f35b610f87611ca6565b604051610f949190611d79565b60405180910390f35b610fa5611ccb565b604051610fb29190611d79565b60405180910390f35b610fc3611cf0565b604051610fd09190611d79565b60405180910390f35b610fe1611d15565b604051610fee9190611d79565b60405180910390f35b60315f9054906101000a900473ffffffffffffffffffffffffffffffffffffffff1681565b60325f9054906101000a900473ffffffffffffffffffffffffffffffffffffffff1681565b604f5f9054906101000a900473ffffffffffffffffffffffffffffffffffffffff1681565b60355f9054906101000a900473ffffffffffffffffffffffffffffffffffffffff1681565b60235f9054906101000a900473ffffffffffffffffffffffffffffffffffffffff1681565b60405f9054906101000a900473ffffffffffffffffffffffffffffffffffffffff1681565b60195f9054906101000a900473ffffffffffffffffffffffffffffffffffffffff1681565b603f5f9054906101000a900473ffffffffffffffffffffffffffffffffffffffff1681565b600860149054906101000a900463ffffffff1681565b60275f9054906101000a900473ffffffffffffffffffffffffffffffffffffffff1681565b60455f9054906101000a900473ffffffffffffffffffffffffffffffffffffffff1681565b600860189054906101000a900463ffffffff1681565b60375f9054906101000a900473ffffffffffffffffffffffffffffffffffffffff1681565b603e5f9054906101000a900473ffffffffffffffffffffffffffffffffffffffff1681565b60335f9054906101000a900473ffffffffffffffffffffffffffffffffffffffff1681565b600b5f9054906101000a900473ffffffffffffffffffffffffffffffffffffffff1681565b60155f9054906101000a900473ffffffffffffffffffffffffffffffffffffffff1681565b60505f9054906101000a900473ffffffffffffffffffffffffffffffffffffffff1681565b600d5f9054906101000a900473ffffffffffffffffffffffffffffffffffffffff1681565b60395f9054906101000a900473ffffffffffffffffffffffffffffffffffffffff1681565b60515f9054906101000a900473ffffffffffffffffffffffffffffffffffffffff1681565b60495f9054906101000a900473ffffffffffffffffffffffffffffffffffffffff1681565b60045f9054906101000a900473ffffffffffffffffffffffffffffffffffffffff1681565b603c5f9054906101000a900473ffffffffffffffffffffffffffffffffffffffff1681565b60025f9054906101000a900473ffffffffffffffffffffffffffffffffffffffff1681565b600a5f9054906101000a900473ffffffffffffffffffffffffffffffffffffffff1681565b60175f9054906101000a900473ffffffffffffffffffffffffffffffffffffffff1681565b60145f9054906101000a900473ffffffffffffffffffffffffffffffffffffffff1681565b60015f9054906101000a900473ffffffffffffffffffffffffffffffffffffffff1681565b60575f9054906101000a900473ffffffffffffffffffffffffffffffffffffffff1681565b60295f9054906101000a900473ffffffffffffffffffffffffffffffffffffffff1681565b60565f9054906101000a900473ffffffffffffffffffffffffffffffffffffffff1681565b60065f9054906101000a900473ffffffffffffffffffffffffffffffffffffffff1681565b60585f9054906101000a900473ffffffffffffffffffffffffffffffffffffffff1681565b600f5f9054906101000a900473ffffffffffffffffffffffffffffffffffffffff1681565b60345f9054906101000a900473ffffffffffffffffffffffffffffffffffffffff1681565b60125f9054906101000a900473ffffffffffffffffffffffffffffffffffffffff1681565b602a5f9054906101000a900473ffffffffffffffffffffffffffffffffffffffff1681565b601f5f9054906101000a900473ffffffffffffffffffffffffffffffffffffffff1681565b604e5f9054906101000a900473ffffffffffffffffffffffffffffffffffffffff1681565b60205f9054906101000a900473ffffffffffffffffffffffffffffffffffffffff1681565b604b5f9054906101000a900473ffffffffffffffffffffffffffffffffffffffff1681565b60185f9054906101000a900473ffffffffffffffffffffffffffffffffffffffff1681565b601b5f9054906101000a900473ffffffffffffffffffffffffffffffffffffffff1681565b604c5f9054906101000a900473ffffffffffffffffffffffffffffffffffffffff1681565b60475f9054906101000a900473ffffffffffffffffffffffffffffffffffffffff1681565b60105f9054906101000a900473ffffffffffffffffffffffffffffffffffffffff1681565b60215f9054906101000a900473ffffffffffffffffffffffffffffffffffffffff1681565b60415f9054906101000a900473ffffffffffffffffffffffffffffffffffffffff1681565b60385f9054906101000a900473ffffffffffffffffffffffffffffffffffffffff1681565b60075f9054906101000a900473ffffffffffffffffffffffffffffffffffffffff1681565b60265f9054906101000a900473ffffffffffffffffffffffffffffffffffffffff1681565b60115f9054906101000a900473ffffffffffffffffffffffffffffffffffffffff1681565b604a5f9054906101000a900473ffffffffffffffffffffffffffffffffffffffff1681565b60225f9054906101000a900473ffffffffffffffffffffffffffffffffffffffff1681565b60465f9054906101000a900473ffffffffffffffffffffffffffffffffffffffff1681565b60255f9054906101000a900473ffffffffffffffffffffffffffffffffffffffff1681565b604d5f9054906101000a900473ffffffffffffffffffffffffffffffffffffffff1681565b60245f9054906101000a900473ffffffffffffffffffffffffffffffffffffffff1681565b600e5f9054906101000a900473ffffffffffffffffffffffffffffffffffffffff1681565b603a5f9054906101000a900473ffffffffffffffffffffffffffffffffffffffff1681565b601d5f9054906101000a900473ffffffffffffffffffffffffffffffffffffffff1681565b60365f9054906101000a900473ffffffffffffffffffffffffffffffffffffffff1681565b6008601c9054906101000a900463ffffffff1681565b60165f9054906101000a900473ffffffffffffffffffffffffffffffffffffffff1681565b603b5f9054906101000a900473ffffffffffffffffffffffffffffffffffffffff1681565b60285f9054906101000a900473ffffffffffffffffffffffffffffffffffffffff1681565b60055f9054906101000a900473ffffffffffffffffffffffffffffffffffffffff1681565b60555f9054906101000a900473ffffffffffffffffffffffffffffffffffffffff1681565b60545f9054906101000a900473ffffffffffffffffffffffffffffffffffffffff1681565b602d5f9054906101000a900473ffffffffffffffffffffffffffffffffffffffff1681565b60525f9054906101000a900473ffffffffffffffffffffffffffffffffffffffff1681565b600c5f9054906101000a900473ffffffffffffffffffffffffffffffffffffffff1681565b603d5f9054906101000a900473ffffffffffffffffffffffffffffffffffffffff1681565b602f5f9054906101000a900473ffffffffffffffffffffffffffffffffffffffff1681565b60035f9054906101000a900473ffffffffffffffffffffffffffffffffffffffff1681565b602b5f9054906101000a900473ffffffffffffffffffffffffffffffffffffffff1681565b601c5f9054906101000a900473ffffffffffffffffffffffffffffffffffffffff1681565b60435f9054906101000a900473ffffffffffffffffffffffffffffffffffffffff1681565b5f5f9054906101000a900473ffffffffffffffffffffffffffffffffffffffff1681565b60485f9054906101000a900473ffffffffffffffffffffffffffffffffffffffff1681565b60595f9054906101000a900473ffffffffffffffffffffffffffffffffffffffff1681565b60425f9054906101000a900473ffffffffffffffffffffffffffffffffffffffff1681565b60095f9054906101000a900473ffffffffffffffffffffffffffffffffffffffff1681565b60135f9054906101000a900473ffffffffffffffffffffffffffffffffffffffff1681565b60445f9054906101000a900473ffffffffffffffffffffffffffffffffffffffff1681565b601a5f9054906101000a900473ffffffffffffffffffffffffffffffffffffffff1681565b60535f9054906101000a900473ffffffffffffffffffffffffffffffffffffffff1681565b602c5f9054906101000a900473ffffffffffffffffffffffffffffffffffffffff1681565b60305f9054906101000a900473ffffffffffffffffffffffffffffffffffffffff1681565b602e5f9054906101000a900473ffffffffffffffffffffffffffffffffffffffff1681565b601e5f9054906101000a900473ffffffffffffffffffffffffffffffffffffffff1681565b60085f9054906101000a900473ffffffffffffffffffffffffffffffffffffffff1681565b5f73ffffffffffffffffffffffffffffffffffffffff82169050919050565b5f611d6382611d3a565b9050919050565b611d7381611d59565b82525050565b5f602082019050611d8c5f830184611d6a565b92915050565b5f63ffffffff82169050919050565b611daa81611d92565b82525050565b5f602082019050611dc35f830184611da1565b9291505056fea26469706673582212204c11431aec0b7b81cd304a6567f681a95f20ca27ed8ec8752cce4802d520484264736f6c634300081e0033","linkReferences":{}},"methodIdentifiers":{"BASE_DVN1()":"e5120c47","BASE_DVN2()":"4190110d","BASE_DVN3()":"21f564bc","BASE_EID()":"15f88c92","BASE_EXECUTOR()":"5ac6d96d","BASE_KAIA()":"de439f50","BASE_KAIAK()":"d1e4fa45","BASE_KAIAK_ELEVATED_MINTER_BURNER()":"b12715e9","BASE_LZ_ENDPOINT()":"e1001432","BASE_M0CK_WKAIA()":"5a432080","BASE_MOCK_USDT()":"1d4f0841","BASE_MOCK_USDT_ELEVATED_MINTER_BURNER()":"ac7fb1b7","BASE_MOCK_WKAIA_ELEVATED_MINTER_BURNER()":"b4fa0694","BASE_OFT_KAIAK_ADAPTER()":"cf5397f0","BASE_OFT_MOCK_USDT_ADAPTER()":"86cfc33e","BASE_OFT_MOCK_WKAIA_ADAPTER()":"e4154799","BASE_OFT_USDTK_ADAPTER()":"406aea4a","BASE_OFT_WBTCK_ADAPTER()":"0efe7e8c","BASE_OFT_WETHK_ADAPTER()":"07f3afb7","BASE_OFT_WKAIAK_ADAPTER()":"1bc97a72","BASE_RECEIVE_LIB()":"529f0d50","BASE_SEND_LIB()":"d4c73083","BASE_USDT()":"709b9036","BASE_USDTK()":"f5e03249","BASE_USDTK_ELEVATED_MINTER_BURNER()":"04ee322c","BASE_WBTC()":"fa9be367","BASE_WBTCK()":"01ed58f1","BASE_WBTCK_ELEVATED_MINTER_BURNER()":"35d333ce","BASE_WETH()":"b07e4297","BASE_WETHK()":"03f8f8c7","BASE_WETHK_ELEVATED_MINTER_BURNER()":"8c602498","BASE_WKAIAK()":"ef54f8bf","BASE_WKAIAK_ELEVATED_MINTER_BURNER()":"1aa6361c","BASE_oappAdapter()":"e8bccd06","BASE_oappSupplyLiquidityUSDT()":"dfa8450d","GLMR_DVN1()":"565fcaac","GLMR_DVN2()":"7b49a635","GLMR_DVN3()":"95df5838","GLMR_EID()":"b3a98105","GLMR_EXECUTOR()":"470ebcb0","GLMR_LZ_ENDPOINT()":"413b777a","GLMR_RECEIVE_LIB()":"fbdf0593","GLMR_SEND_LIB()":"ba717f86","KAIA_DEX_ROUTER()":"5dd65d31","KAIA_DVN1()":"cea90728","KAIA_DVN2()":"2fa99666","KAIA_DVN3()":"ab562ddd","KAIA_EID()":"18567e88","KAIA_EXECUTOR()":"e5933998","KAIA_HELPER_UTILS()":"ca4b481c","KAIA_KAIA()":"450036c9","KAIA_LZ_ENDPOINT()":"48d8d455","KAIA_MOCK_USDT()":"a7b395f2","KAIA_MOCK_USDT_ELEVATED_MINTER_BURNER()":"90df5b1a","KAIA_MOCK_WBTC()":"ef54e76f","KAIA_MOCK_WETH()":"d9edc888","KAIA_MOCK_WKAIA()":"b53b808e","KAIA_MOCK_WKAIA_ELEVATED_MINTER_BURNER()":"511856cd","KAIA_OFT_MOCK_USDT_ADAPTER()":"16c67bab","KAIA_OFT_MOCK_WKAIA_ADAPTER()":"5d9fb53d","KAIA_OFT_USDT_ADAPTER()":"634a8eee","KAIA_OFT_USDT_STARGATE_ADAPTER()":"80b6403b","KAIA_OFT_WBTC_ADAPTER()":"07e24762","KAIA_OFT_WETH_ADAPTER()":"aaf0e6eb","KAIA_OFT_WKAIA_ADAPTER()":"a016a1d7","KAIA_RECEIVE_LIB()":"8fd510cc","KAIA_SEND_LIB()":"3cdda029","KAIA_TESTNET_btc_usdt_adapter()":"e3d2032b","KAIA_TESTNET_eth_usdt_adapter()":"559674c0","KAIA_TESTNET_native_usdt_adapter()":"48ed9a1c","KAIA_TESTNET_usdt_usd_adapter()":"526d2db0","KAIA_USDT()":"2a715dd7","KAIA_USDT_STARGATE()":"b430bac5","KAIA_WBTC()":"eb3789bb","KAIA_WETH()":"0b54fe1e","KAIA_WKAIA()":"67406d42","KAIA_btc_usdt_adapter()":"7262047e","KAIA_eth_usdt_adapter()":"66fc865f","KAIA_isHealthy()":"60c884a2","KAIA_kaia_usdt_adapter()":"99a68b60","KAIA_lendingPoolDeployer()":"3a7fefb6","KAIA_lendingPoolFactoryImplementation()":"eb9e052d","KAIA_lendingPoolFactoryProxy()":"cacee45c","KAIA_lendingPoolRouterDeployer()":"cd3cdfe1","KAIA_liquidator()":"aa3e440c","KAIA_oappSupplyLiquidityUSDT()":"cbbf250c","KAIA_positionDeployer()":"041412b2","KAIA_protocol()":"2b484acb","KAIA_usdt_usd_adapter()":"3bcbf719","btc_usdt()":"e1e10016","eth_usdt()":"7ab982a1","native_usdt()":"a2d2c6b0","usdt_usd()":"17fa5550"},"id":95}