{"abi":[{"type":"function","name":"BASE_DVN1","inputs":[],"outputs":[{"name":"","type":"address","internalType":"address"}],"stateMutability":"view"},{"type":"function","name":"BASE_DVN2","inputs":[],"outputs":[{"name":"","type":"address","internalType":"address"}],"stateMutability":"view"},{"type":"function","name":"BASE_DVN3","inputs":[],"outputs":[{"name":"","type":"address","internalType":"address"}],"stateMutability":"view"},{"type":"function","name":"BASE_EID","inputs":[],"outputs":[{"name":"","type":"uint32","internalType":"uint32"}],"stateMutability":"view"},{"type":"function","name":"BASE_EXECUTOR","inputs":[],"outputs":[{"name":"","type":"address","internalType":"address"}],"stateMutability":"view"},{"type":"function","name":"BASE_KAIA","inputs":[],"outputs":[{"name":"","type":"address","internalType":"address"}],"stateMutability":"view"},{"type":"function","name":"BASE_KAIAK","inputs":[],"outputs":[{"name":"","type":"address","internalType":"address"}],"stateMutability":"view"},{"type":"function","name":"BASE_KAIAK_ELEVATED_MINTER_BURNER","inputs":[],"outputs":[{"name":"","type":"address","internalType":"address"}],"stateMutability":"view"},{"type":"function","name":"BASE_LZ_ENDPOINT","inputs":[],"outputs":[{"name":"","type":"address","internalType":"address"}],"stateMutability":"view"},{"type":"function","name":"BASE_M0CK_WKAIA","inputs":[],"outputs":[{"name":"","type":"address","internalType":"address"}],"stateMutability":"view"},{"type":"function","name":"BASE_MOCK_USDT","inputs":[],"outputs":[{"name":"","type":"address","internalType":"address"}],"stateMutability":"view"},{"type":"function","name":"BASE_MOCK_USDT_ELEVATED_MINTER_BURNER","inputs":[],"outputs":[{"name":"","type":"address","internalType":"address"}],"stateMutability":"view"},{"type":"function","name":"BASE_MOCK_WKAIA_ELEVATED_MINTER_BURNER","inputs":[],"outputs":[{"name":"","type":"address","internalType":"address"}],"stateMutability":"view"},{"type":"function","name":"BASE_OFT_KAIAK_ADAPTER","inputs":[],"outputs":[{"name":"","type":"address","internalType":"address"}],"stateMutability":"view"},{"type":"function","name":"BASE_OFT_MOCK_USDT_ADAPTER","inputs":[],"outputs":[{"name":"","type":"address","internalType":"address"}],"stateMutability":"view"},{"type":"function","name":"BASE_OFT_MOCK_WKAIA_ADAPTER","inputs":[],"outputs":[{"name":"","type":"address","internalType":"address"}],"stateMutability":"view"},{"type":"function","name":"BASE_OFT_USDTK_ADAPTER","inputs":[],"outputs":[{"name":"","type":"address","internalType":"address"}],"stateMutability":"view"},{"type":"function","name":"BASE_OFT_WBTCK_ADAPTER","inputs":[],"outputs":[{"name":"","type":"address","internalType":"address"}],"stateMutability":"view"},{"type":"function","name":"BASE_OFT_WETHK_ADAPTER","inputs":[],"outputs":[{"name":"","type":"address","internalType":"address"}],"stateMutability":"view"},{"type":"function","name":"BASE_OFT_WKAIAK_ADAPTER","inputs":[],"outputs":[{"name":"","type":"address","internalType":"address"}],"stateMutability":"view"},{"type":"function","name":"BASE_RECEIVE_LIB","inputs":[],"outputs":[{"name":"","type":"address","internalType":"address"}],"stateMutability":"view"},{"type":"function","name":"BASE_SEND_LIB","inputs":[],"outputs":[{"name":"","type":"address","internalType":"address"}],"stateMutability":"view"},{"type":"function","name":"BASE_USDT","inputs":[],"outputs":[{"name":"","type":"address","internalType":"address"}],"stateMutability":"view"},{"type":"function","name":"BASE_USDTK","inputs":[],"outputs":[{"name":"","type":"address","internalType":"address"}],"stateMutability":"view"},{"type":"function","name":"BASE_USDTK_ELEVATED_MINTER_BURNER","inputs":[],"outputs":[{"name":"","type":"address","internalType":"address"}],"stateMutability":"view"},{"type":"function","name":"BASE_WBTC","inputs":[],"outputs":[{"name":"","type":"address","internalType":"address"}],"stateMutability":"view"},{"type":"function","name":"BASE_WBTCK","inputs":[],"outputs":[{"name":"","type":"address","internalType":"address"}],"stateMutability":"view"},{"type":"function","name":"BASE_WBTCK_ELEVATED_MINTER_BURNER","inputs":[],"outputs":[{"name":"","type":"address","internalType":"address"}],"stateMutability":"view"},{"type":"function","name":"BASE_WETH","inputs":[],"outputs":[{"name":"","type":"address","internalType":"address"}],"stateMutability":"view"},{"type":"function","name":"BASE_WETHK","inputs":[],"outputs":[{"name":"","type":"address","internalType":"address"}],"stateMutability":"view"},{"type":"function","name":"BASE_WETHK_ELEVATED_MINTER_BURNER","inputs":[],"outputs":[{"name":"","type":"address","internalType":"address"}],"stateMutability":"view"},{"type":"function","name":"BASE_WKAIAK","inputs":[],"outputs":[{"name":"","type":"address","internalType":"address"}],"stateMutability":"view"},{"type":"function","name":"BASE_WKAIAK_ELEVATED_MINTER_BURNER","inputs":[],"outputs":[{"name":"","type":"address","internalType":"address"}],"stateMutability":"view"},{"type":"function","name":"KAIA_DVN1","inputs":[],"outputs":[{"name":"","type":"address","internalType":"address"}],"stateMutability":"view"},{"type":"function","name":"KAIA_DVN2","inputs":[],"outputs":[{"name":"","type":"address","internalType":"address"}],"stateMutability":"view"},{"type":"function","name":"KAIA_DVN3","inputs":[],"outputs":[{"name":"","type":"address","internalType":"address"}],"stateMutability":"view"},{"type":"function","name":"KAIA_EID","inputs":[],"outputs":[{"name":"","type":"uint32","internalType":"uint32"}],"stateMutability":"view"},{"type":"function","name":"KAIA_EXECUTOR","inputs":[],"outputs":[{"name":"","type":"address","internalType":"address"}],"stateMutability":"view"},{"type":"function","name":"KAIA_HELPER_UTILS","inputs":[],"outputs":[{"name":"","type":"address","internalType":"address"}],"stateMutability":"view"},{"type":"function","name":"KAIA_KAIA","inputs":[],"outputs":[{"name":"","type":"address","internalType":"address"}],"stateMutability":"view"},{"type":"function","name":"KAIA_LZ_ENDPOINT","inputs":[],"outputs":[{"name":"","type":"address","internalType":"address"}],"stateMutability":"view"},{"type":"function","name":"KAIA_MOCK_USDT","inputs":[],"outputs":[{"name":"","type":"address","internalType":"address"}],"stateMutability":"view"},{"type":"function","name":"KAIA_MOCK_USDT_ELEVATED_MINTER_BURNER","inputs":[],"outputs":[{"name":"","type":"address","internalType":"address"}],"stateMutability":"view"},{"type":"function","name":"KAIA_MOCK_WKAIA","inputs":[],"outputs":[{"name":"","type":"address","internalType":"address"}],"stateMutability":"view"},{"type":"function","name":"KAIA_MOCK_WKAIA_ELEVATED_MINTER_BURNER","inputs":[],"outputs":[{"name":"","type":"address","internalType":"address"}],"stateMutability":"view"},{"type":"function","name":"KAIA_OFT_MOCK_USDT_ADAPTER","inputs":[],"outputs":[{"name":"","type":"address","internalType":"address"}],"stateMutability":"view"},{"type":"function","name":"KAIA_OFT_MOCK_WKAIA_ADAPTER","inputs":[],"outputs":[{"name":"","type":"address","internalType":"address"}],"stateMutability":"view"},{"type":"function","name":"KAIA_OFT_USDT_ADAPTER","inputs":[],"outputs":[{"name":"","type":"address","internalType":"address"}],"stateMutability":"view"},{"type":"function","name":"KAIA_OFT_USDT_STARGATE_ADAPTER","inputs":[],"outputs":[{"name":"","type":"address","internalType":"address"}],"stateMutability":"view"},{"type":"function","name":"KAIA_OFT_WBTC_ADAPTER","inputs":[],"outputs":[{"name":"","type":"address","internalType":"address"}],"stateMutability":"view"},{"type":"function","name":"KAIA_OFT_WETH_ADAPTER","inputs":[],"outputs":[{"name":"","type":"address","internalType":"address"}],"stateMutability":"view"},{"type":"function","name":"KAIA_OFT_WKAIA_ADAPTER","inputs":[],"outputs":[{"name":"","type":"address","internalType":"address"}],"stateMutability":"view"},{"type":"function","name":"KAIA_RECEIVE_LIB","inputs":[],"outputs":[{"name":"","type":"address","internalType":"address"}],"stateMutability":"view"},{"type":"function","name":"KAIA_SEND_LIB","inputs":[],"outputs":[{"name":"","type":"address","internalType":"address"}],"stateMutability":"view"},{"type":"function","name":"KAIA_USDT","inputs":[],"outputs":[{"name":"","type":"address","internalType":"address"}],"stateMutability":"view"},{"type":"function","name":"KAIA_USDT_STARGATE","inputs":[],"outputs":[{"name":"","type":"address","internalType":"address"}],"stateMutability":"view"},{"type":"function","name":"KAIA_WBTC","inputs":[],"outputs":[{"name":"","type":"address","internalType":"address"}],"stateMutability":"view"},{"type":"function","name":"KAIA_WETH","inputs":[],"outputs":[{"name":"","type":"address","internalType":"address"}],"stateMutability":"view"},{"type":"function","name":"KAIA_WKAIA","inputs":[],"outputs":[{"name":"","type":"address","internalType":"address"}],"stateMutability":"view"},{"type":"function","name":"KAIA_btc_usdt_adapter","inputs":[],"outputs":[{"name":"","type":"address","internalType":"address"}],"stateMutability":"view"},{"type":"function","name":"KAIA_eth_usdt_adapter","inputs":[],"outputs":[{"name":"","type":"address","internalType":"address"}],"stateMutability":"view"},{"type":"function","name":"KAIA_isHealthy","inputs":[],"outputs":[{"name":"","type":"address","internalType":"address"}],"stateMutability":"view"},{"type":"function","name":"KAIA_kaia_usdt_adapter","inputs":[],"outputs":[{"name":"","type":"address","internalType":"address"}],"stateMutability":"view"},{"type":"function","name":"KAIA_lendingPoolDeployer","inputs":[],"outputs":[{"name":"","type":"address","internalType":"address"}],"stateMutability":"view"},{"type":"function","name":"KAIA_lendingPoolFactoryImplementation","inputs":[],"outputs":[{"name":"","type":"address","internalType":"address"}],"stateMutability":"view"},{"type":"function","name":"KAIA_lendingPoolFactoryProxy","inputs":[],"outputs":[{"name":"","type":"address","internalType":"address"}],"stateMutability":"view"},{"type":"function","name":"KAIA_liquidator","inputs":[],"outputs":[{"name":"","type":"address","internalType":"address"}],"stateMutability":"view"},{"type":"function","name":"KAIA_positionDeployer","inputs":[],"outputs":[{"name":"","type":"address","internalType":"address"}],"stateMutability":"view"},{"type":"function","name":"KAIA_protocol","inputs":[],"outputs":[{"name":"","type":"address","internalType":"address"}],"stateMutability":"view"},{"type":"function","name":"KAIA_usdt_usd_adapter","inputs":[],"outputs":[{"name":"","type":"address","internalType":"address"}],"stateMutability":"view"},{"type":"function","name":"btc_usdt","inputs":[],"outputs":[{"name":"","type":"address","internalType":"address"}],"stateMutability":"view"},{"type":"function","name":"eth_usdt","inputs":[],"outputs":[{"name":"","type":"address","internalType":"address"}],"stateMutability":"view"},{"type":"function","name":"kaia_usdt","inputs":[],"outputs":[{"name":"","type":"address","internalType":"address"}],"stateMutability":"view"},{"type":"function","name":"usdt_usd","inputs":[],"outputs":[{"name":"","type":"address","internalType":"address"}],"stateMutability":"view"}],"bytecode":{"object":"0x6080604052731a44076050125825900e736c501f859c50fe728c5f5f6101000a81548173ffffffffffffffffffffffffffffffffffffffff021916908373ffffffffffffffffffffffffffffffffffffffff160217905550731a44076050125825900e736c501f859c50fe728c60015f6101000a81548173ffffffffffffffffffffffffffffffffffffffff021916908373ffffffffffffffffffffffffffffffffffffffff16021790555073b5320b0b3a13cc860893e2bd79fcd7e13484dda260025f6101000a81548173ffffffffffffffffffffffffffffffffffffffff021916908373ffffffffffffffffffffffffffffffffffffffff160217905550739714ccf1dedef14bab5013625db92746c1358cb460035f6101000a81548173ffffffffffffffffffffffffffffffffffffffff021916908373ffffffffffffffffffffffffffffffffffffffff16021790555073c70ab6f32772f59fbfc23889caf4ba3376c84baf60045f6101000a81548173ffffffffffffffffffffffffffffffffffffffff021916908373ffffffffffffffffffffffffffffffffffffffff16021790555073937aba873827bf883ced83ca557697427eaa46ee60055f6101000a81548173ffffffffffffffffffffffffffffffffffffffff021916908373ffffffffffffffffffffffffffffffffffffffff1602179055506175e8600560146101000a81548163ffffffff021916908363ffffffff1602179055506175c6600560186101000a81548163ffffffff021916908363ffffffff16021790555073554833698ae0fb22ecc90b01222903fd62ca4b4760065f6101000a81548173ffffffffffffffffffffffffffffffffffffffff021916908373ffffffffffffffffffffffffffffffffffffffff16021790555073a7b5189bca84cd304d8553977c7c614329750d9960075f6101000a81548173ffffffffffffffffffffffffffffffffffffffff021916908373ffffffffffffffffffffffffffffffffffffffff160217905550739e059a54699a285714207b43b055483e78faac2560085f6101000a81548173ffffffffffffffffffffffffffffffffffffffff021916908373ffffffffffffffffffffffffffffffffffffffff160217905550731154d04d07aee26ff2c200bd373eb76a7e5694d660095f6101000a81548173ffffffffffffffffffffffffffffffffffffffff021916908373ffffffffffffffffffffffffffffffffffffffff16021790555073acde1f22eeab249d3ca6ba8805c8fee9f52a16e7600a5f6101000a81548173ffffffffffffffffffffffffffffffffffffffff021916908373ffffffffffffffffffffffffffffffffffffffff16021790555073c80233ad8251e668becbc3b0415707fc7075501e600b5f6101000a81548173ffffffffffffffffffffffffffffffffffffffff021916908373ffffffffffffffffffffffffffffffffffffffff160217905550732cca08ae69e0c44b18a57ab2a87644234daebae4600c5f6101000a81548173ffffffffffffffffffffffffffffffffffffffff021916908373ffffffffffffffffffffffffffffffffffffffff16021790555073e149187a987f129fd3d397ed04a60b0b89d1669f600d5f6101000a81548173ffffffffffffffffffffffffffffffffffffffff021916908373ffffffffffffffffffffffffffffffffffffffff16021790555073d077a400968890eacc75cdc901f0356c943e4fdb600e5f6101000a81548173ffffffffffffffffffffffffffffffffffffffff021916908373ffffffffffffffffffffffffffffffffffffffff160217905550739025095263d1e548dc890a7589a4c78038ac40ab600f5f6101000a81548173ffffffffffffffffffffffffffffffffffffffff021916908373ffffffffffffffffffffffffffffffffffffffff160217905550600160105f6101000a81548173ffffffffffffffffffffffffffffffffffffffff021916908373ffffffffffffffffffffffffffffffffffffffff1602179055507319aac5f612f524b754ca7e7c41cbfa2e981a443260115f6101000a81548173ffffffffffffffffffffffffffffffffffffffff021916908373ffffffffffffffffffffffffffffffffffffffff1602179055507398a8345bb9d3dda9d808ca1c9142a28f6b0430e160125f6101000a81548173ffffffffffffffffffffffffffffffffffffffff021916908373ffffffffffffffffffffffffffffffffffffffff16021790555073981846be8d2d697f4dfef6689a161a25ffbab8f960135f6101000a81548173ffffffffffffffffffffffffffffffffffffffff021916908373ffffffffffffffffffffffffffffffffffffffff16021790555073fde4c96c8593536e31f229ea8f37b2ada2699bb260145f6101000a81548173ffffffffffffffffffffffffffffffffffffffff021916908373ffffffffffffffffffffffffffffffffffffffff16021790555073420000000000000000000000000000000000000660165f6101000a81548173ffffffffffffffffffffffffffffffffffffffff021916908373ffffffffffffffffffffffffffffffffffffffff160217905550730555e30da8f98308edb960aa94c0db47230d2b9c60175f6101000a81548173ffffffffffffffffffffffffffffffffffffffff021916908373ffffffffffffffffffffffffffffffffffffffff16021790555073df05e9abf64da281b3cbd8ac3581022ec4841fb260185f6101000a81548173ffffffffffffffffffffffffffffffffffffffff021916908373ffffffffffffffffffffffffffffffffffffffff1602179055507304c37dc1b538e00b31e6bc883e16d97cd7937a1060195f6101000a81548173ffffffffffffffffffffffffffffffffffffffff021916908373ffffffffffffffffffffffffffffffffffffffff1602179055507315858a57854bbf0df60a737811d50e1ee785f9bc601a5f6101000a81548173ffffffffffffffffffffffffffffffffffffffff021916908373ffffffffffffffffffffffffffffffffffffffff160217905550734ba8d8083e7f3652ccb084c32652e68566e9ef23601b5f6101000a81548173ffffffffffffffffffffffffffffffffffffffff021916908373ffffffffffffffffffffffffffffffffffffffff160217905550727f735fd070ded4b0b58d430c392ff0190ec20f601c5f6101000a81548173ffffffffffffffffffffffffffffffffffffffff021916908373ffffffffffffffffffffffffffffffffffffffff16021790555073ceb5c8903060197e46ab5ea5087b9f99cbc8da49601d5f6101000a81548173ffffffffffffffffffffffffffffffffffffffff021916908373ffffffffffffffffffffffffffffffffffffffff160217905550737c9cf703903680ae5eb6ec2bb2bebb1ec751918a601e5f6101000a81548173ffffffffffffffffffffffffffffffffffffffff021916908373ffffffffffffffffffffffffffffffffffffffff160217905550735e6671ef689b2b2d4391a766b0486e5054136546601f5f6101000a81548173ffffffffffffffffffffffffffffffffffffffff021916908373ffffffffffffffffffffffffffffffffffffffff16021790555073684a2aaf3d98bc8ed2c07988e8da9023026ad51160205f6101000a81548173ffffffffffffffffffffffffffffffffffffffff021916908373ffffffffffffffffffffffffffffffffffffffff16021790555073c160a1bcf0c79a6fc5b0f015bfaaa9a6cda3568760215f6101000a81548173ffffffffffffffffffffffffffffffffffffffff021916908373ffffffffffffffffffffffffffffffffffffffff16021790555073cdec0d768e43090a9eec47d87d8165e9fa78b20460225f6101000a81548173ffffffffffffffffffffffffffffffffffffffff021916908373ffffffffffffffffffffffffffffffffffffffff16021790555073c3be8ab4ca0cefe3119a765b324bbdf54a16a65b60235f6101000a81548173ffffffffffffffffffffffffffffffffffffffff021916908373ffffffffffffffffffffffffffffffffffffffff16021790555073e2e025ff8a8adb2561e3c631b5a03842b9a1ae8860245f6101000a81548173ffffffffffffffffffffffffffffffffffffffff021916908373ffffffffffffffffffffffffffffffffffffffff160217905550735e6aad48fb0a23e9540a5eaffb87846e8ef04c4260255f6101000a81548173ffffffffffffffffffffffffffffffffffffffff021916908373ffffffffffffffffffffffffffffffffffffffff1602179055507346da9f76c20a752132ddaefd2b14870e0a152d7160265f6101000a81548173ffffffffffffffffffffffffffffffffffffffff021916908373ffffffffffffffffffffffffffffffffffffffff16021790555073c72f2eb4a97f19ecd0c10b5201676a10b6d8bb6760275f6101000a81548173ffffffffffffffffffffffffffffffffffffffff021916908373ffffffffffffffffffffffffffffffffffffffff1602179055507346638ad472507482b7d5ba45124e93d16bc97ece60285f6101000a81548173ffffffffffffffffffffffffffffffffffffffff021916908373ffffffffffffffffffffffffffffffffffffffff160217905550733703a1da99a2bdf2d8ce57802aacb20fb546ff1260295f6101000a81548173ffffffffffffffffffffffffffffffffffffffff021916908373ffffffffffffffffffffffffffffffffffffffff160217905550734900409aabecd5de4ab22d61cdec4b7478783806602a5f6101000a81548173ffffffffffffffffffffffffffffffffffffffff021916908373ffffffffffffffffffffffffffffffffffffffff16021790555073b9b3a1baa8cf4c5cd6b4d132ed7b0cbe05646f6f602b5f6101000a81548173ffffffffffffffffffffffffffffffffffffffff021916908373ffffffffffffffffffffffffffffffffffffffff16021790555073394239573079a46e438ea6d118fd96d37a61f270602c5f6101000a81548173ffffffffffffffffffffffffffffffffffffffff021916908373ffffffffffffffffffffffffffffffffffffffff1602179055507354f6ff27093fc45c5a39083c3ef0260d25012be3602d5f6101000a81548173ffffffffffffffffffffffffffffffffffffffff021916908373ffffffffffffffffffffffffffffffffffffffff16021790555073b0fca55167f94d0f515877c411e0deb904321761602e5f6101000a81548173ffffffffffffffffffffffffffffffffffffffff021916908373ffffffffffffffffffffffffffffffffffffffff16021790555073ec32cc0267002618c339274c18ad48d2bf2a9c7e602f5f6101000a81548173ffffffffffffffffffffffffffffffffffffffff021916908373ffffffffffffffffffffffffffffffffffffffff16021790555073fbc915dc39654b52b2e9284fb966c79a1071ea3a60305f6101000a81548173ffffffffffffffffffffffffffffffffffffffff021916908373ffffffffffffffffffffffffffffffffffffffff160217905550736a58615739b0fc710e6a380e893e672968e30b5f60315f6101000a81548173ffffffffffffffffffffffffffffffffffffffff021916908373ffffffffffffffffffffffffffffffffffffffff160217905550737bb55d2d27194a25517f8a47cdaf227fd413dca660325f6101000a81548173ffffffffffffffffffffffffffffffffffffffff021916908373ffffffffffffffffffffffffffffffffffffffff1602179055507326991986aec6748f439940949b7487341800638360335f6101000a81548173ffffffffffffffffffffffffffffffffffffffff021916908373ffffffffffffffffffffffffffffffffffffffff16021790555073560bd1836c348c4a10eed7008e68ae58228dd11760345f6101000a81548173ffffffffffffffffffffffffffffffffffffffff021916908373ffffffffffffffffffffffffffffffffffffffff16021790555073f3f7c9320b0dbf780092daaab740b7b85552225860355f6101000a81548173ffffffffffffffffffffffffffffffffffffffff021916908373ffffffffffffffffffffffffffffffffffffffff16021790555073943fcc03799400a672a8f82907d3a320fa76efc160365f6101000a81548173ffffffffffffffffffffffffffffffffffffffff021916908373ffffffffffffffffffffffffffffffffffffffff160217905550739eaa6ec9e0b55948309eb320166312cb0807b6de60375f6101000a81548173ffffffffffffffffffffffffffffffffffffffff021916908373ffffffffffffffffffffffffffffffffffffffff16021790555073a7c4c292ed720b1318f415b106a443dc1f05299460385f6101000a81548173ffffffffffffffffffffffffffffffffffffffff021916908373ffffffffffffffffffffffffffffffffffffffff160217905550739254cd72f207cc231a2307eac5e4bfa316eb0c2e60395f6101000a81548173ffffffffffffffffffffffffffffffffffffffff021916908373ffffffffffffffffffffffffffffffffffffffff16021790555073bf61f1f8d45ecb33006a335e7c76f306689dcaab603a5f6101000a81548173ffffffffffffffffffffffffffffffffffffffff021916908373ffffffffffffffffffffffffffffffffffffffff16021790555073624c060ea3fe93321e40530f3f7e587545d594aa603b5f6101000a81548173ffffffffffffffffffffffffffffffffffffffff021916908373ffffffffffffffffffffffffffffffffffffffff16021790555073c72f2eb4a97f19ecd0c10b5201676a10b6d8bb67603c5f6101000a81548173ffffffffffffffffffffffffffffffffffffffff021916908373ffffffffffffffffffffffffffffffffffffffff1602179055507346638ad472507482b7d5ba45124e93d16bc97ece603d5f6101000a81548173ffffffffffffffffffffffffffffffffffffffff021916908373ffffffffffffffffffffffffffffffffffffffff16021790555073dbbb07e1ae9d0f23ac6da9bdda3dff96fca73650603e5f6101000a81548173ffffffffffffffffffffffffffffffffffffffff021916908373ffffffffffffffffffffffffffffffffffffffff160217905550733703a1da99a2bdf2d8ce57802aacb20fb546ff12603f5f6101000a81548173ffffffffffffffffffffffffffffffffffffffff021916908373ffffffffffffffffffffffffffffffffffffffff160217905550734900409aabecd5de4ab22d61cdec4b747878380660405f6101000a81548173ffffffffffffffffffffffffffffffffffffffff021916908373ffffffffffffffffffffffffffffffffffffffff16021790555073b9b3a1baa8cf4c5cd6b4d132ed7b0cbe05646f6f60415f6101000a81548173ffffffffffffffffffffffffffffffffffffffff021916908373ffffffffffffffffffffffffffffffffffffffff16021790555073bd3b8bbe94a301b96c5207f8be17ed1cd323655060425f6101000a81548173ffffffffffffffffffffffffffffffffffffffff021916908373ffffffffffffffffffffffffffffffffffffffff16021790555073394239573079a46e438ea6d118fd96d37a61f27060435f6101000a81548173ffffffffffffffffffffffffffffffffffffffff021916908373ffffffffffffffffffffffffffffffffffffffff1602179055507354f6ff27093fc45c5a39083c3ef0260d25012be360445f6101000a81548173ffffffffffffffffffffffffffffffffffffffff021916908373ffffffffffffffffffffffffffffffffffffffff16021790555073b0fca55167f94d0f515877c411e0deb90432176160455f6101000a81548173ffffffffffffffffffffffffffffffffffffffff021916908373ffffffffffffffffffffffffffffffffffffffff16021790555073a971cd2714fbcc9a942b09bc391a724df933820660465f6101000a81548173ffffffffffffffffffffffffffffffffffffffff021916908373ffffffffffffffffffffffffffffffffffffffff160217905550733de8c22f6b84c575429c1b9cbf5bddd49cf129fc60475f6101000a81548173ffffffffffffffffffffffffffffffffffffffff021916908373ffffffffffffffffffffffffffffffffffffffff16021790555034801561178c575f5ffd5b506118448061179a5f395ff3fe608060405234801561000f575f5ffd5b506004361061043c575f3560e01c80637262047e11610234578063b53b808e11610139578063e1001432116100c1578063eb3789bb11610085578063eb3789bb14610c56578063eb9e052d14610c74578063ef54f8bf14610c92578063f5e0324914610cb0578063fa9be36714610cce5761043c565b8063e100143214610bc0578063e1e1001614610bde578063e415479914610bfc578063e5120c4714610c1a578063e593399814610c385761043c565b8063cea9072811610108578063cea9072814610b2a578063cf5397f014610b48578063d1e4fa4514610b66578063d4c7308314610b84578063de439f5014610ba25761043c565b8063b53b808e14610ab2578063c399af8314610ad0578063ca4b481c14610aee578063cacee45c14610b0c5761043c565b8063a7b395f2116101bc578063ac7fb1b71161018b578063ac7fb1b714610a1c578063b07e429714610a3a578063b12715e914610a58578063b430bac514610a76578063b4fa069414610a945761043c565b8063a7b395f2146109a4578063aa3e440c146109c2578063aaf0e6eb146109e0578063ab562ddd146109fe5761043c565b80638c602498116102035780638c6024981461090e5780638fd510cc1461092c57806390df5b1a1461094a57806399a68b6014610968578063a016a1d7146109865761043c565b80637262047e146108965780637ab982a1146108b457806380b6403b146108d257806386cfc33e146108f05761043c565b80632fa9966611610345578063511856cd116102cd57806360c884a21161029157806360c884a214610800578063634a8eee1461081e57806366fc865f1461083c57806367406d421461085a578063709b9036146108785761043c565b8063511856cd1461076a578063529f0d50146107885780635a432080146107a65780635ac6d96d146107c45780635d9fb53d146107e25761043c565b80633cdda029116103145780633cdda029146106d4578063406aea4a146106f25780634190110d14610710578063450036c91461072e57806348d8d4551461074c5761043c565b80632fa996661461065c57806335d333ce1461067a5780633a7fefb6146106985780633bcbf719146106b65761043c565b806316c67bab116103c85780631bc97a72116103975780631bc97a72146105c65780631d4f0841146105e457806321f564bc146106025780632a715dd7146106205780632b484acb1461063e5761043c565b806316c67bab1461054e57806317fa55501461056c57806318567e881461058a5780631aa6361c146105a85761043c565b806307e247621161040f57806307e24762146104b857806307f3afb7146104d65780630b54fe1e146104f45780630efe7e8c1461051257806315f88c92146105305761043c565b806301ed58f11461044057806303f8f8c71461045e578063041412b21461047c57806304ee322c1461049a575b5f5ffd5b610448610cec565b60405161045591906117be565b60405180910390f35b610466610d11565b60405161047391906117be565b60405180910390f35b610484610d36565b60405161049191906117be565b60405180910390f35b6104a2610d5b565b6040516104af91906117be565b60405180910390f35b6104c0610d80565b6040516104cd91906117be565b60405180910390f35b6104de610da5565b6040516104eb91906117be565b60405180910390f35b6104fc610dca565b60405161050991906117be565b60405180910390f35b61051a610def565b60405161052791906117be565b60405180910390f35b610538610e14565b60405161054591906117f5565b60405180910390f35b610556610e2a565b60405161056391906117be565b60405180910390f35b610574610e4f565b60405161058191906117be565b60405180910390f35b610592610e74565b60405161059f91906117f5565b60405180910390f35b6105b0610e8a565b6040516105bd91906117be565b60405180910390f35b6105ce610eaf565b6040516105db91906117be565b60405180910390f35b6105ec610ed4565b6040516105f991906117be565b60405180910390f35b61060a610ef9565b60405161061791906117be565b60405180910390f35b610628610f1e565b60405161063591906117be565b60405180910390f35b610646610f43565b60405161065391906117be565b60405180910390f35b610664610f68565b60405161067191906117be565b60405180910390f35b610682610f8d565b60405161068f91906117be565b60405180910390f35b6106a0610fb2565b6040516106ad91906117be565b60405180910390f35b6106be610fd7565b6040516106cb91906117be565b60405180910390f35b6106dc610ffc565b6040516106e991906117be565b60405180910390f35b6106fa611021565b60405161070791906117be565b60405180910390f35b610718611046565b60405161072591906117be565b60405180910390f35b61073661106b565b60405161074391906117be565b60405180910390f35b610754611090565b60405161076191906117be565b60405180910390f35b6107726110b5565b60405161077f91906117be565b60405180910390f35b6107906110da565b60405161079d91906117be565b60405180910390f35b6107ae6110ff565b6040516107bb91906117be565b60405180910390f35b6107cc611124565b6040516107d991906117be565b60405180910390f35b6107ea611149565b6040516107f791906117be565b60405180910390f35b61080861116e565b60405161081591906117be565b60405180910390f35b610826611193565b60405161083391906117be565b60405180910390f35b6108446111b8565b60405161085191906117be565b60405180910390f35b6108626111dd565b60405161086f91906117be565b60405180910390f35b610880611202565b60405161088d91906117be565b60405180910390f35b61089e611227565b6040516108ab91906117be565b60405180910390f35b6108bc61124c565b6040516108c991906117be565b60405180910390f35b6108da611271565b6040516108e791906117be565b60405180910390f35b6108f8611296565b60405161090591906117be565b60405180910390f35b6109166112bb565b60405161092391906117be565b60405180910390f35b6109346112e0565b60405161094191906117be565b60405180910390f35b610952611305565b60405161095f91906117be565b60405180910390f35b61097061132a565b60405161097d91906117be565b60405180910390f35b61098e61134f565b60405161099b91906117be565b60405180910390f35b6109ac611374565b6040516109b991906117be565b60405180910390f35b6109ca611399565b6040516109d791906117be565b60405180910390f35b6109e86113be565b6040516109f591906117be565b60405180910390f35b610a066113e3565b604051610a1391906117be565b60405180910390f35b610a24611408565b604051610a3191906117be565b60405180910390f35b610a4261142d565b604051610a4f91906117be565b60405180910390f35b610a60611452565b604051610a6d91906117be565b60405180910390f35b610a7e611477565b604051610a8b91906117be565b60405180910390f35b610a9c61149c565b604051610aa991906117be565b60405180910390f35b610aba6114c1565b604051610ac791906117be565b60405180910390f35b610ad86114e6565b604051610ae591906117be565b60405180910390f35b610af661150b565b604051610b0391906117be565b60405180910390f35b610b14611530565b604051610b2191906117be565b60405180910390f35b610b32611555565b604051610b3f91906117be565b60405180910390f35b610b5061157a565b604051610b5d91906117be565b60405180910390f35b610b6e61159f565b604051610b7b91906117be565b60405180910390f35b610b8c6115c4565b604051610b9991906117be565b60405180910390f35b610baa6115e9565b604051610bb791906117be565b60405180910390f35b610bc861160e565b604051610bd591906117be565b60405180910390f35b610be6611632565b604051610bf391906117be565b60405180910390f35b610c04611657565b604051610c1191906117be565b60405180910390f35b610c2261167c565b604051610c2f91906117be565b60405180910390f35b610c406116a1565b604051610c4d91906117be565b60405180910390f35b610c5e6116c6565b604051610c6b91906117be565b60405180910390f35b610c7c6116eb565b604051610c8991906117be565b60405180910390f35b610c9a611710565b604051610ca791906117be565b60405180910390f35b610cb8611735565b604051610cc591906117be565b60405180910390f35b610cd661175a565b604051610ce391906117be565b60405180910390f35b602c5f9054906101000a900473ffffffffffffffffffffffffffffffffffffffff1681565b602f5f9054906101000a900473ffffffffffffffffffffffffffffffffffffffff1681565b60445f9054906101000a900473ffffffffffffffffffffffffffffffffffffffff1681565b60245f9054906101000a900473ffffffffffffffffffffffffffffffffffffffff1681565b601b5f9054906101000a900473ffffffffffffffffffffffffffffffffffffffff1681565b60315f9054906101000a900473ffffffffffffffffffffffffffffffffffffffff1681565b60125f9054906101000a900473ffffffffffffffffffffffffffffffffffffffff1681565b602e5f9054906101000a900473ffffffffffffffffffffffffffffffffffffffff1681565b600560149054906101000a900463ffffffff1681565b601f5f9054906101000a900473ffffffffffffffffffffffffffffffffffffffff1681565b60385f9054906101000a900473ffffffffffffffffffffffffffffffffffffffff1681565b600560189054906101000a900463ffffffff1681565b602a5f9054906101000a900473ffffffffffffffffffffffffffffffffffffffff1681565b602b5f9054906101000a900473ffffffffffffffffffffffffffffffffffffffff1681565b60325f9054906101000a900473ffffffffffffffffffffffffffffffffffffffff1681565b60085f9054906101000a900473ffffffffffffffffffffffffffffffffffffffff1681565b600e5f9054906101000a900473ffffffffffffffffffffffffffffffffffffffff1681565b60435f9054906101000a900473ffffffffffffffffffffffffffffffffffffffff1681565b600a5f9054906101000a900473ffffffffffffffffffffffffffffffffffffffff1681565b602d5f9054906101000a900473ffffffffffffffffffffffffffffffffffffffff1681565b60425f9054906101000a900473ffffffffffffffffffffffffffffffffffffffff1681565b603c5f9054906101000a900473ffffffffffffffffffffffffffffffffffffffff1681565b60035f9054906101000a900473ffffffffffffffffffffffffffffffffffffffff1681565b60255f9054906101000a900473ffffffffffffffffffffffffffffffffffffffff1681565b60075f9054906101000a900473ffffffffffffffffffffffffffffffffffffffff1681565b60105f9054906101000a900473ffffffffffffffffffffffffffffffffffffffff1681565b60015f9054906101000a900473ffffffffffffffffffffffffffffffffffffffff1681565b60215f9054906101000a900473ffffffffffffffffffffffffffffffffffffffff1681565b60045f9054906101000a900473ffffffffffffffffffffffffffffffffffffffff1681565b60355f9054906101000a900473ffffffffffffffffffffffffffffffffffffffff1681565b600c5f9054906101000a900473ffffffffffffffffffffffffffffffffffffffff1681565b60225f9054906101000a900473ffffffffffffffffffffffffffffffffffffffff1681565b60415f9054906101000a900473ffffffffffffffffffffffffffffffffffffffff1681565b60185f9054906101000a900473ffffffffffffffffffffffffffffffffffffffff1681565b603e5f9054906101000a900473ffffffffffffffffffffffffffffffffffffffff1681565b60115f9054906101000a900473ffffffffffffffffffffffffffffffffffffffff1681565b60145f9054906101000a900473ffffffffffffffffffffffffffffffffffffffff1681565b603f5f9054906101000a900473ffffffffffffffffffffffffffffffffffffffff1681565b603a5f9054906101000a900473ffffffffffffffffffffffffffffffffffffffff1681565b60195f9054906101000a900473ffffffffffffffffffffffffffffffffffffffff1681565b60345f9054906101000a900473ffffffffffffffffffffffffffffffffffffffff1681565b60305f9054906101000a900473ffffffffffffffffffffffffffffffffffffffff1681565b60055f9054906101000a900473ffffffffffffffffffffffffffffffffffffffff1681565b601e5f9054906101000a900473ffffffffffffffffffffffffffffffffffffffff1681565b603d5f9054906101000a900473ffffffffffffffffffffffffffffffffffffffff1681565b601a5f9054906101000a900473ffffffffffffffffffffffffffffffffffffffff1681565b601d5f9054906101000a900473ffffffffffffffffffffffffffffffffffffffff1681565b60405f9054906101000a900473ffffffffffffffffffffffffffffffffffffffff1681565b601c5f9054906101000a900473ffffffffffffffffffffffffffffffffffffffff1681565b600b5f9054906101000a900473ffffffffffffffffffffffffffffffffffffffff1681565b60335f9054906101000a900473ffffffffffffffffffffffffffffffffffffffff1681565b60165f9054906101000a900473ffffffffffffffffffffffffffffffffffffffff1681565b60275f9054906101000a900473ffffffffffffffffffffffffffffffffffffffff1681565b600f5f9054906101000a900473ffffffffffffffffffffffffffffffffffffffff1681565b60365f9054906101000a900473ffffffffffffffffffffffffffffffffffffffff1681565b60205f9054906101000a900473ffffffffffffffffffffffffffffffffffffffff1681565b60395f9054906101000a900473ffffffffffffffffffffffffffffffffffffffff1681565b60475f9054906101000a900473ffffffffffffffffffffffffffffffffffffffff1681565b60465f9054906101000a900473ffffffffffffffffffffffffffffffffffffffff1681565b60095f9054906101000a900473ffffffffffffffffffffffffffffffffffffffff1681565b60285f9054906101000a900473ffffffffffffffffffffffffffffffffffffffff1681565b60265f9054906101000a900473ffffffffffffffffffffffffffffffffffffffff1681565b60025f9054906101000a900473ffffffffffffffffffffffffffffffffffffffff1681565b60155f9054906101000a900473ffffffffffffffffffffffffffffffffffffffff1681565b5f5f9054906101000a900473ffffffffffffffffffffffffffffffffffffffff1681565b603b5f9054906101000a900473ffffffffffffffffffffffffffffffffffffffff1681565b60375f9054906101000a900473ffffffffffffffffffffffffffffffffffffffff1681565b60065f9054906101000a900473ffffffffffffffffffffffffffffffffffffffff1681565b600d5f9054906101000a900473ffffffffffffffffffffffffffffffffffffffff1681565b60135f9054906101000a900473ffffffffffffffffffffffffffffffffffffffff1681565b60455f9054906101000a900473ffffffffffffffffffffffffffffffffffffffff1681565b60295f9054906101000a900473ffffffffffffffffffffffffffffffffffffffff1681565b60235f9054906101000a900473ffffffffffffffffffffffffffffffffffffffff1681565b60175f9054906101000a900473ffffffffffffffffffffffffffffffffffffffff1681565b5f73ffffffffffffffffffffffffffffffffffffffff82169050919050565b5f6117a88261177f565b9050919050565b6117b88161179e565b82525050565b5f6020820190506117d15f8301846117af565b92915050565b5f63ffffffff82169050919050565b6117ef816117d7565b82525050565b5f6020820190506118085f8301846117e6565b9291505056fea264697066735822122041bec08c924f33ba909e80a017faa2f5c1ff70505966022806e8ed647b5cbc2564736f6c634300081c0033","linkReferences":{}},"methodIdentifiers":{"BASE_DVN1()":"e5120c47","BASE_DVN2()":"4190110d","BASE_DVN3()":"21f564bc","BASE_EID()":"15f88c92","BASE_EXECUTOR()":"5ac6d96d","BASE_KAIA()":"de439f50","BASE_KAIAK()":"d1e4fa45","BASE_KAIAK_ELEVATED_MINTER_BURNER()":"b12715e9","BASE_LZ_ENDPOINT()":"e1001432","BASE_M0CK_WKAIA()":"5a432080","BASE_MOCK_USDT()":"1d4f0841","BASE_MOCK_USDT_ELEVATED_MINTER_BURNER()":"ac7fb1b7","BASE_MOCK_WKAIA_ELEVATED_MINTER_BURNER()":"b4fa0694","BASE_OFT_KAIAK_ADAPTER()":"cf5397f0","BASE_OFT_MOCK_USDT_ADAPTER()":"86cfc33e","BASE_OFT_MOCK_WKAIA_ADAPTER()":"e4154799","BASE_OFT_USDTK_ADAPTER()":"406aea4a","BASE_OFT_WBTCK_ADAPTER()":"0efe7e8c","BASE_OFT_WETHK_ADAPTER()":"07f3afb7","BASE_OFT_WKAIAK_ADAPTER()":"1bc97a72","BASE_RECEIVE_LIB()":"529f0d50","BASE_SEND_LIB()":"d4c73083","BASE_USDT()":"709b9036","BASE_USDTK()":"f5e03249","BASE_USDTK_ELEVATED_MINTER_BURNER()":"04ee322c","BASE_WBTC()":"fa9be367","BASE_WBTCK()":"01ed58f1","BASE_WBTCK_ELEVATED_MINTER_BURNER()":"35d333ce","BASE_WETH()":"b07e4297","BASE_WETHK()":"03f8f8c7","BASE_WETHK_ELEVATED_MINTER_BURNER()":"8c602498","BASE_WKAIAK()":"ef54f8bf","BASE_WKAIAK_ELEVATED_MINTER_BURNER()":"1aa6361c","KAIA_DVN1()":"cea90728","KAIA_DVN2()":"2fa99666","KAIA_DVN3()":"ab562ddd","KAIA_EID()":"18567e88","KAIA_EXECUTOR()":"e5933998","KAIA_HELPER_UTILS()":"ca4b481c","KAIA_KAIA()":"450036c9","KAIA_LZ_ENDPOINT()":"48d8d455","KAIA_MOCK_USDT()":"a7b395f2","KAIA_MOCK_USDT_ELEVATED_MINTER_BURNER()":"90df5b1a","KAIA_MOCK_WKAIA()":"b53b808e","KAIA_MOCK_WKAIA_ELEVATED_MINTER_BURNER()":"511856cd","KAIA_OFT_MOCK_USDT_ADAPTER()":"16c67bab","KAIA_OFT_MOCK_WKAIA_ADAPTER()":"5d9fb53d","KAIA_OFT_USDT_ADAPTER()":"634a8eee","KAIA_OFT_USDT_STARGATE_ADAPTER()":"80b6403b","KAIA_OFT_WBTC_ADAPTER()":"07e24762","KAIA_OFT_WETH_ADAPTER()":"aaf0e6eb","KAIA_OFT_WKAIA_ADAPTER()":"a016a1d7","KAIA_RECEIVE_LIB()":"8fd510cc","KAIA_SEND_LIB()":"3cdda029","KAIA_USDT()":"2a715dd7","KAIA_USDT_STARGATE()":"b430bac5","KAIA_WBTC()":"eb3789bb","KAIA_WETH()":"0b54fe1e","KAIA_WKAIA()":"67406d42","KAIA_btc_usdt_adapter()":"7262047e","KAIA_eth_usdt_adapter()":"66fc865f","KAIA_isHealthy()":"60c884a2","KAIA_kaia_usdt_adapter()":"99a68b60","KAIA_lendingPoolDeployer()":"3a7fefb6","KAIA_lendingPoolFactoryImplementation()":"eb9e052d","KAIA_lendingPoolFactoryProxy()":"cacee45c","KAIA_liquidator()":"aa3e440c","KAIA_positionDeployer()":"041412b2","KAIA_protocol()":"2b484acb","KAIA_usdt_usd_adapter()":"3bcbf719","btc_usdt()":"e1e10016","eth_usdt()":"7ab982a1","kaia_usdt()":"c399af83","usdt_usd()":"17fa5550"},"id":70}