{"abi":[{"type":"constructor","inputs":[{"name":"_token","type":"address","internalType":"address"},{"name":"_owner","type":"address","internalType":"address"}],"stateMutability":"nonpayable"},{"type":"function","name":"TOKEN","inputs":[],"outputs":[{"name":"","type":"address","internalType":"address"}],"stateMutability":"view"},{"type":"function","name":"burn","inputs":[{"name":"_from","type":"address","internalType":"address"},{"name":"_amount","type":"uint256","internalType":"uint256"}],"outputs":[{"name":"","type":"bool","internalType":"bool"}],"stateMutability":"nonpayable"},{"type":"function","name":"mint","inputs":[{"name":"_to","type":"address","internalType":"address"},{"name":"_amount","type":"uint256","internalType":"uint256"}],"outputs":[{"name":"","type":"bool","internalType":"bool"}],"stateMutability":"nonpayable"},{"type":"function","name":"operators","inputs":[{"name":"","type":"address","internalType":"address"}],"outputs":[{"name":"","type":"bool","internalType":"bool"}],"stateMutability":"view"},{"type":"function","name":"owner","inputs":[],"outputs":[{"name":"","type":"address","internalType":"address"}],"stateMutability":"view"},{"type":"function","name":"renounceOwnership","inputs":[],"outputs":[],"stateMutability":"nonpayable"},{"type":"function","name":"setOperator","inputs":[{"name":"_operator","type":"address","internalType":"address"},{"name":"_status","type":"bool","internalType":"bool"}],"outputs":[],"stateMutability":"nonpayable"},{"type":"function","name":"transferOwnership","inputs":[{"name":"newOwner","type":"address","internalType":"address"}],"outputs":[],"stateMutability":"nonpayable"},{"type":"event","name":"OwnershipTransferred","inputs":[{"name":"previousOwner","type":"address","indexed":true,"internalType":"address"},{"name":"newOwner","type":"address","indexed":true,"internalType":"address"}],"anonymous":false},{"type":"error","name":"OwnableInvalidOwner","inputs":[{"name":"owner","type":"address","internalType":"address"}]},{"type":"error","name":"OwnableUnauthorizedAccount","inputs":[{"name":"account","type":"address","internalType":"address"}]}],"bytecode":{"object":"0x60a060405234801561000f575f5ffd5b50604051610c5f380380610c5f8339818101604052810190610031919061020c565b805f73ffffffffffffffffffffffffffffffffffffffff168173ffffffffffffffffffffffffffffffffffffffff16036100a2575f6040517f1e4fbdf70000000000000000000000000000000000000000000000000000000081526004016100999190610259565b60405180910390fd5b6100b1816100ed60201b60201c565b508173ffffffffffffffffffffffffffffffffffffffff1660808173ffffffffffffffffffffffffffffffffffffffff16815250505050610272565b5f5f5f9054906101000a900473ffffffffffffffffffffffffffffffffffffffff169050815f5f6101000a81548173ffffffffffffffffffffffffffffffffffffffff021916908373ffffffffffffffffffffffffffffffffffffffff1602179055508173ffffffffffffffffffffffffffffffffffffffff168173ffffffffffffffffffffffffffffffffffffffff167f8be0079c531659141344cd1fd0a4f28419497f9722a3daafe3b4186f6b6457e060405160405180910390a35050565b5f5ffd5b5f73ffffffffffffffffffffffffffffffffffffffff82169050919050565b5f6101db826101b2565b9050919050565b6101eb816101d1565b81146101f5575f5ffd5b50565b5f81519050610206816101e2565b92915050565b5f5f60408385031215610222576102216101ae565b5b5f61022f858286016101f8565b9250506020610240858286016101f8565b9150509250929050565b610253816101d1565b82525050565b5f60208201905061026c5f83018461024a565b92915050565b6080516109c061029f5f395f81816101c0015281816102c50152818161031901526103b501526109c05ff3fe608060405234801561000f575f5ffd5b5060043610610086575f3560e01c806382bfefc81161005957806382bfefc8146101105780638da5cb5b1461012e5780639dc29fac1461014c578063f2fde38b1461017c57610086565b806313e7c9d81461008a57806340c10f19146100ba578063558a7297146100ea578063715018a614610106575b5f5ffd5b6100a4600480360381019061009f919061073e565b610198565b6040516100b19190610783565b60405180910390f35b6100d460048036038101906100cf91906107cf565b6101b5565b6040516100e19190610783565b60405180910390f35b61010460048036038101906100ff9190610837565b610250565b005b61010e6102b0565b005b6101186102c3565b6040516101259190610884565b60405180910390f35b6101366102e7565b6040516101439190610884565b60405180910390f35b610166600480360381019061016191906107cf565b61030e565b6040516101739190610783565b60405180910390f35b6101966004803603810190610191919061073e565b610445565b005b6001602052805f5260405f205f915054906101000a900460ff1681565b5f6101be6104c9565b7f000000000000000000000000000000000000000000000000000000000000000073ffffffffffffffffffffffffffffffffffffffff166340c10f1984846040518363ffffffff1660e01b81526004016102199291906108ac565b5f604051808303815f87803b158015610230575f5ffd5b505af1158015610242573d5f5f3e3d5ffd5b505050506001905092915050565b610258610591565b8060015f8473ffffffffffffffffffffffffffffffffffffffff1673ffffffffffffffffffffffffffffffffffffffff1681526020019081526020015f205f6101000a81548160ff0219169083151502179055505050565b6102b8610591565b6102c15f610618565b565b7f000000000000000000000000000000000000000000000000000000000000000081565b5f5f5f9054906101000a900473ffffffffffffffffffffffffffffffffffffffff16905090565b5f6103176104c9565b7f000000000000000000000000000000000000000000000000000000000000000073ffffffffffffffffffffffffffffffffffffffff1663095ea7b330846040518363ffffffff1660e01b81526004016103729291906108ac565b6020604051808303815f875af115801561038e573d5f5f3e3d5ffd5b505050506040513d601f19601f820116820180604052508101906103b291906108e7565b507f000000000000000000000000000000000000000000000000000000000000000073ffffffffffffffffffffffffffffffffffffffff16639dc29fac84846040518363ffffffff1660e01b815260040161040e9291906108ac565b5f604051808303815f87803b158015610425575f5ffd5b505af1158015610437573d5f5f3e3d5ffd5b505050506001905092915050565b61044d610591565b5f73ffffffffffffffffffffffffffffffffffffffff168173ffffffffffffffffffffffffffffffffffffffff16036104bd575f6040517f1e4fbdf70000000000000000000000000000000000000000000000000000000081526004016104b49190610884565b60405180910390fd5b6104c681610618565b50565b60015f3373ffffffffffffffffffffffffffffffffffffffff1673ffffffffffffffffffffffffffffffffffffffff1681526020019081526020015f205f9054906101000a900460ff168061055057506105216102e7565b73ffffffffffffffffffffffffffffffffffffffff163373ffffffffffffffffffffffffffffffffffffffff16145b61058f576040517f08c379a00000000000000000000000000000000000000000000000000000000081526004016105869061096c565b60405180910390fd5b565b6105996106d9565b73ffffffffffffffffffffffffffffffffffffffff166105b76102e7565b73ffffffffffffffffffffffffffffffffffffffff1614610616576105da6106d9565b6040517f118cdaa700000000000000000000000000000000000000000000000000000000815260040161060d9190610884565b60405180910390fd5b565b5f5f5f9054906101000a900473ffffffffffffffffffffffffffffffffffffffff169050815f5f6101000a81548173ffffffffffffffffffffffffffffffffffffffff021916908373ffffffffffffffffffffffffffffffffffffffff1602179055508173ffffffffffffffffffffffffffffffffffffffff168173ffffffffffffffffffffffffffffffffffffffff167f8be0079c531659141344cd1fd0a4f28419497f9722a3daafe3b4186f6b6457e060405160405180910390a35050565b5f33905090565b5f5ffd5b5f73ffffffffffffffffffffffffffffffffffffffff82169050919050565b5f61070d826106e4565b9050919050565b61071d81610703565b8114610727575f5ffd5b50565b5f8135905061073881610714565b92915050565b5f60208284031215610753576107526106e0565b5b5f6107608482850161072a565b91505092915050565b5f8115159050919050565b61077d81610769565b82525050565b5f6020820190506107965f830184610774565b92915050565b5f819050919050565b6107ae8161079c565b81146107b8575f5ffd5b50565b5f813590506107c9816107a5565b92915050565b5f5f604083850312156107e5576107e46106e0565b5b5f6107f28582860161072a565b9250506020610803858286016107bb565b9150509250929050565b61081681610769565b8114610820575f5ffd5b50565b5f813590506108318161080d565b92915050565b5f5f6040838503121561084d5761084c6106e0565b5b5f61085a8582860161072a565b925050602061086b85828601610823565b9150509250929050565b61087e81610703565b82525050565b5f6020820190506108975f830184610875565b92915050565b6108a68161079c565b82525050565b5f6040820190506108bf5f830185610875565b6108cc602083018461089d565b9392505050565b5f815190506108e18161080d565b92915050565b5f602082840312156108fc576108fb6106e0565b5b5f610909848285016108d3565b91505092915050565b5f82825260208201905092915050565b7f4e6f7420617574686f72697a65640000000000000000000000000000000000005f82015250565b5f610956600e83610912565b915061096182610922565b602082019050919050565b5f6020820190508181035f8301526109838161094a565b905091905056fea2646970667358221220743e92146a1c03b64e64c7d153162063aace42485f458ebfbe023e44a720f64964736f6c634300081c0033","linkReferences":{}},"methodIdentifiers":{"TOKEN()":"82bfefc8","burn(address,uint256)":"9dc29fac","mint(address,uint256)":"40c10f19","operators(address)":"13e7c9d8","owner()":"8da5cb5b","renounceOwnership()":"715018a6","setOperator(address,bool)":"558a7297","transferOwnership(address)":"f2fde38b"},"id":159}