{"abi":[{"type":"constructor","inputs":[{"name":"_token","type":"address","internalType":"address"},{"name":"_owner","type":"address","internalType":"address"}],"stateMutability":"nonpayable"},{"type":"function","name":"TOKEN","inputs":[],"outputs":[{"name":"","type":"address","internalType":"address"}],"stateMutability":"view"},{"type":"function","name":"burn","inputs":[{"name":"_from","type":"address","internalType":"address"},{"name":"_amount","type":"uint256","internalType":"uint256"}],"outputs":[{"name":"","type":"bool","internalType":"bool"}],"stateMutability":"nonpayable"},{"type":"function","name":"mint","inputs":[{"name":"_to","type":"address","internalType":"address"},{"name":"_amount","type":"uint256","internalType":"uint256"}],"outputs":[{"name":"","type":"bool","internalType":"bool"}],"stateMutability":"nonpayable"},{"type":"function","name":"operators","inputs":[{"name":"","type":"address","internalType":"address"}],"outputs":[{"name":"","type":"bool","internalType":"bool"}],"stateMutability":"view"},{"type":"function","name":"owner","inputs":[],"outputs":[{"name":"","type":"address","internalType":"address"}],"stateMutability":"view"},{"type":"function","name":"renounceOwnership","inputs":[],"outputs":[],"stateMutability":"nonpayable"},{"type":"function","name":"setOperator","inputs":[{"name":"_operator","type":"address","internalType":"address"},{"name":"_status","type":"bool","internalType":"bool"}],"outputs":[],"stateMutability":"nonpayable"},{"type":"function","name":"transferOwnership","inputs":[{"name":"newOwner","type":"address","internalType":"address"}],"outputs":[],"stateMutability":"nonpayable"},{"type":"event","name":"OwnershipTransferred","inputs":[{"name":"previousOwner","type":"address","indexed":true,"internalType":"address"},{"name":"newOwner","type":"address","indexed":true,"internalType":"address"}],"anonymous":false},{"type":"error","name":"OwnableInvalidOwner","inputs":[{"name":"owner","type":"address","internalType":"address"}]},{"type":"error","name":"OwnableUnauthorizedAccount","inputs":[{"name":"account","type":"address","internalType":"address"}]},{"type":"error","name":"SafeERC20FailedOperation","inputs":[{"name":"token","type":"address","internalType":"address"}]}],"bytecode":{"object":"0x60a060405234801561000f575f5ffd5b50604051610d23380380610d238339818101604052810190610031919061020c565b805f73ffffffffffffffffffffffffffffffffffffffff168173ffffffffffffffffffffffffffffffffffffffff16036100a2575f6040517f1e4fbdf70000000000000000000000000000000000000000000000000000000081526004016100999190610259565b60405180910390fd5b6100b1816100ed60201b60201c565b508173ffffffffffffffffffffffffffffffffffffffff1660808173ffffffffffffffffffffffffffffffffffffffff16815250505050610272565b5f5f5f9054906101000a900473ffffffffffffffffffffffffffffffffffffffff169050815f5f6101000a81548173ffffffffffffffffffffffffffffffffffffffff021916908373ffffffffffffffffffffffffffffffffffffffff1602179055508173ffffffffffffffffffffffffffffffffffffffff168173ffffffffffffffffffffffffffffffffffffffff167f8be0079c531659141344cd1fd0a4f28419497f9722a3daafe3b4186f6b6457e060405160405180910390a35050565b5f5ffd5b5f73ffffffffffffffffffffffffffffffffffffffff82169050919050565b5f6101db826101b2565b9050919050565b6101eb816101d1565b81146101f5575f5ffd5b50565b5f81519050610206816101e2565b92915050565b5f5f60408385031215610222576102216101ae565b5b5f61022f858286016101f8565b9250506020610240858286016101f8565b9150509250929050565b610253816101d1565b82525050565b5f60208201905061026c5f83018461024a565b92915050565b608051610a8461029f5f395f81816101c0015281816102c50152818161031f01526103660152610a845ff3fe608060405234801561000f575f5ffd5b5060043610610086575f3560e01c806382bfefc81161005957806382bfefc8146101105780638da5cb5b1461012e5780639dc29fac1461014c578063f2fde38b1461017c57610086565b806313e7c9d81461008a57806340c10f19146100ba578063558a7297146100ea578063715018a614610106575b5f5ffd5b6100a4600480360381019061009f919061080c565b610198565b6040516100b19190610851565b60405180910390f35b6100d460048036038101906100cf919061089d565b6101b5565b6040516100e19190610851565b60405180910390f35b61010460048036038101906100ff9190610905565b610250565b005b61010e6102b0565b005b6101186102c3565b6040516101259190610952565b60405180910390f35b6101366102e7565b6040516101439190610952565b60405180910390f35b6101666004803603810190610161919061089d565b61030e565b6040516101739190610851565b60405180910390f35b6101966004803603810190610191919061080c565b6103f6565b005b6001602052805f5260405f205f915054906101000a900460ff1681565b5f6101be61047a565b7f000000000000000000000000000000000000000000000000000000000000000073ffffffffffffffffffffffffffffffffffffffff166340c10f1984846040518363ffffffff1660e01b815260040161021992919061097a565b5f604051808303815f87803b158015610230575f5ffd5b505af1158015610242573d5f5f3e3d5ffd5b505050506001905092915050565b610258610542565b8060015f8473ffffffffffffffffffffffffffffffffffffffff1673ffffffffffffffffffffffffffffffffffffffff1681526020019081526020015f205f6101000a81548160ff0219169083151502179055505050565b6102b8610542565b6102c15f6105c9565b565b7f000000000000000000000000000000000000000000000000000000000000000081565b5f5f5f9054906101000a900473ffffffffffffffffffffffffffffffffffffffff16905090565b5f61031761047a565b6103648330847f000000000000000000000000000000000000000000000000000000000000000073ffffffffffffffffffffffffffffffffffffffff1661068a909392919063ffffffff16565b7f000000000000000000000000000000000000000000000000000000000000000073ffffffffffffffffffffffffffffffffffffffff16639dc29fac84846040518363ffffffff1660e01b81526004016103bf92919061097a565b5f604051808303815f87803b1580156103d6575f5ffd5b505af11580156103e8573d5f5f3e3d5ffd5b505050506001905092915050565b6103fe610542565b5f73ffffffffffffffffffffffffffffffffffffffff168173ffffffffffffffffffffffffffffffffffffffff160361046e575f6040517f1e4fbdf70000000000000000000000000000000000000000000000000000000081526004016104659190610952565b60405180910390fd5b610477816105c9565b50565b60015f3373ffffffffffffffffffffffffffffffffffffffff1673ffffffffffffffffffffffffffffffffffffffff1681526020019081526020015f205f9054906101000a900460ff168061050157506104d26102e7565b73ffffffffffffffffffffffffffffffffffffffff163373ffffffffffffffffffffffffffffffffffffffff16145b610540576040517f08c379a0000000000000000000000000000000000000000000000000000000008152600401610537906109fb565b60405180910390fd5b565b61054a61070c565b73ffffffffffffffffffffffffffffffffffffffff166105686102e7565b73ffffffffffffffffffffffffffffffffffffffff16146105c75761058b61070c565b6040517f118cdaa70000000000000000000000000000000000000000000000000000000081526004016105be9190610952565b60405180910390fd5b565b5f5f5f9054906101000a900473ffffffffffffffffffffffffffffffffffffffff169050815f5f6101000a81548173ffffffffffffffffffffffffffffffffffffffff021916908373ffffffffffffffffffffffffffffffffffffffff1602179055508173ffffffffffffffffffffffffffffffffffffffff168173ffffffffffffffffffffffffffffffffffffffff167f8be0079c531659141344cd1fd0a4f28419497f9722a3daafe3b4186f6b6457e060405160405180910390a35050565b610706848573ffffffffffffffffffffffffffffffffffffffff166323b872dd8686866040516024016106bf93929190610a19565b604051602081830303815290604052915060e01b6020820180517bffffffffffffffffffffffffffffffffffffffffffffffffffffffff8381831617835250505050610713565b50505050565b5f33905090565b5f5f60205f8451602086015f885af180610732576040513d5f823e3d81fd5b3d92505f519150505f821461074b576001811415610766565b5f8473ffffffffffffffffffffffffffffffffffffffff163b145b156107a857836040517f5274afe700000000000000000000000000000000000000000000000000000000815260040161079f9190610952565b60405180910390fd5b50505050565b5f5ffd5b5f73ffffffffffffffffffffffffffffffffffffffff82169050919050565b5f6107db826107b2565b9050919050565b6107eb816107d1565b81146107f5575f5ffd5b50565b5f81359050610806816107e2565b92915050565b5f60208284031215610821576108206107ae565b5b5f61082e848285016107f8565b91505092915050565b5f8115159050919050565b61084b81610837565b82525050565b5f6020820190506108645f830184610842565b92915050565b5f819050919050565b61087c8161086a565b8114610886575f5ffd5b50565b5f8135905061089781610873565b92915050565b5f5f604083850312156108b3576108b26107ae565b5b5f6108c0858286016107f8565b92505060206108d185828601610889565b9150509250929050565b6108e481610837565b81146108ee575f5ffd5b50565b5f813590506108ff816108db565b92915050565b5f5f6040838503121561091b5761091a6107ae565b5b5f610928858286016107f8565b9250506020610939858286016108f1565b9150509250929050565b61094c816107d1565b82525050565b5f6020820190506109655f830184610943565b92915050565b6109748161086a565b82525050565b5f60408201905061098d5f830185610943565b61099a602083018461096b565b9392505050565b5f82825260208201905092915050565b7f4e6f7420617574686f72697a65640000000000000000000000000000000000005f82015250565b5f6109e5600e836109a1565b91506109f0826109b1565b602082019050919050565b5f6020820190508181035f830152610a12816109d9565b9050919050565b5f606082019050610a2c5f830186610943565b610a396020830185610943565b610a46604083018461096b565b94935050505056fea26469706673582212205fe8aee318a04f0925c21a88b2d51cc58995923ee28159aa02957a12a5b2473a64736f6c634300081c0033","linkReferences":{}},"methodIdentifiers":{"TOKEN()":"82bfefc8","burn(address,uint256)":"9dc29fac","mint(address,uint256)":"40c10f19","operators(address)":"13e7c9d8","owner()":"8da5cb5b","renounceOwnership()":"715018a6","setOperator(address,bool)":"558a7297","transferOwnership(address)":"f2fde38b"},"id":139}